{
  "_format": "hh-sol-artifact-1",
  "contractName": "GuardedMintQueue",
  "sourceName": "contracts/ops/GuardedMintQueue.sol",
  "abi": [
    {
      "inputs": [
        {
          "internalType": "address",
          "name": "admin",
          "type": "address"
        },
        {
          "internalType": "uint256",
          "name": "perAddrDaily",
          "type": "uint256"
        },
        {
          "internalType": "uint256",
          "name": "globalDaily",
          "type": "uint256"
        }
      ],
      "stateMutability": "nonpayable",
      "type": "constructor"
    },
    {
      "inputs": [],
      "name": "AccessControlBadConfirmation",
      "type": "error"
    },
    {
      "inputs": [
        {
          "internalType": "address",
          "name": "account",
          "type": "address"
        },
        {
          "internalType": "bytes32",
          "name": "neededRole",
          "type": "bytes32"
        }
      ],
      "name": "AccessControlUnauthorizedAccount",
      "type": "error"
    },
    {
      "anonymous": false,
      "inputs": [
        {
          "indexed": false,
          "internalType": "uint256",
          "name": "perAddr",
          "type": "uint256"
        },
        {
          "indexed": false,
          "internalType": "uint256",
          "name": "global",
          "type": "uint256"
        }
      ],
      "name": "LimitsSet",
      "type": "event"
    },
    {
      "anonymous": false,
      "inputs": [
        {
          "indexed": true,
          "internalType": "address",
          "name": "owner",
          "type": "address"
        },
        {
          "indexed": false,
          "internalType": "uint256",
          "name": "amount",
          "type": "uint256"
        },
        {
          "indexed": false,
          "internalType": "bool",
          "name": "immediate",
          "type": "bool"
        }
      ],
      "name": "Requested",
      "type": "event"
    },
    {
      "anonymous": false,
      "inputs": [
        {
          "indexed": true,
          "internalType": "bytes32",
          "name": "role",
          "type": "bytes32"
        },
        {
          "indexed": true,
          "internalType": "bytes32",
          "name": "previousAdminRole",
          "type": "bytes32"
        },
        {
          "indexed": true,
          "internalType": "bytes32",
          "name": "newAdminRole",
          "type": "bytes32"
        }
      ],
      "name": "RoleAdminChanged",
      "type": "event"
    },
    {
      "anonymous": false,
      "inputs": [
        {
          "indexed": true,
          "internalType": "bytes32",
          "name": "role",
          "type": "bytes32"
        },
        {
          "indexed": true,
          "internalType": "address",
          "name": "account",
          "type": "address"
        },
        {
          "indexed": true,
          "internalType": "address",
          "name": "sender",
          "type": "address"
        }
      ],
      "name": "RoleGranted",
      "type": "event"
    },
    {
      "anonymous": false,
      "inputs": [
        {
          "indexed": true,
          "internalType": "bytes32",
          "name": "role",
          "type": "bytes32"
        },
        {
          "indexed": true,
          "internalType": "address",
          "name": "account",
          "type": "address"
        },
        {
          "indexed": true,
          "internalType": "address",
          "name": "sender",
          "type": "address"
        }
      ],
      "name": "RoleRevoked",
      "type": "event"
    },
    {
      "inputs": [],
      "name": "ADMIN_ROLE",
      "outputs": [
        {
          "internalType": "bytes32",
          "name": "",
          "type": "bytes32"
        }
      ],
      "stateMutability": "view",
      "type": "function"
    },
    {
      "inputs": [],
      "name": "DEFAULT_ADMIN_ROLE",
      "outputs": [
        {
          "internalType": "bytes32",
          "name": "",
          "type": "bytes32"
        }
      ],
      "stateMutability": "view",
      "type": "function"
    },
    {
      "inputs": [
        {
          "internalType": "bytes32",
          "name": "role",
          "type": "bytes32"
        }
      ],
      "name": "getRoleAdmin",
      "outputs": [
        {
          "internalType": "bytes32",
          "name": "",
          "type": "bytes32"
        }
      ],
      "stateMutability": "view",
      "type": "function"
    },
    {
      "inputs": [
        {
          "internalType": "uint256",
          "name": "",
          "type": "uint256"
        }
      ],
      "name": "globalUsed",
      "outputs": [
        {
          "internalType": "uint256",
          "name": "",
          "type": "uint256"
        }
      ],
      "stateMutability": "view",
      "type": "function"
    },
    {
      "inputs": [
        {
          "internalType": "bytes32",
          "name": "role",
          "type": "bytes32"
        },
        {
          "internalType": "address",
          "name": "account",
          "type": "address"
        }
      ],
      "name": "grantRole",
      "outputs": [],
      "stateMutability": "nonpayable",
      "type": "function"
    },
    {
      "inputs": [
        {
          "internalType": "bytes32",
          "name": "role",
          "type": "bytes32"
        },
        {
          "internalType": "address",
          "name": "account",
          "type": "address"
        }
      ],
      "name": "hasRole",
      "outputs": [
        {
          "internalType": "bool",
          "name": "",
          "type": "bool"
        }
      ],
      "stateMutability": "view",
      "type": "function"
    },
    {
      "inputs": [],
      "name": "limits",
      "outputs": [
        {
          "internalType": "uint256",
          "name": "perAddressDaily",
          "type": "uint256"
        },
        {
          "internalType": "uint256",
          "name": "globalDaily",
          "type": "uint256"
        }
      ],
      "stateMutability": "view",
      "type": "function"
    },
    {
      "inputs": [
        {
          "internalType": "address",
          "name": "owner",
          "type": "address"
        },
        {
          "internalType": "uint256",
          "name": "amount",
          "type": "uint256"
        }
      ],
      "name": "preview",
      "outputs": [
        {
          "internalType": "uint256",
          "name": "u",
          "type": "uint256"
        },
        {
          "internalType": "uint256",
          "name": "g",
          "type": "uint256"
        },
        {
          "internalType": "uint256",
          "name": "perAddr",
          "type": "uint256"
        },
        {
          "internalType": "uint256",
          "name": "glob",
          "type": "uint256"
        },
        {
          "internalType": "uint8",
          "name": "immediateInt",
          "type": "uint8"
        }
      ],
      "stateMutability": "view",
      "type": "function"
    },
    {
      "inputs": [
        {
          "internalType": "bytes32",
          "name": "role",
          "type": "bytes32"
        },
        {
          "internalType": "address",
          "name": "callerConfirmation",
          "type": "address"
        }
      ],
      "name": "renounceRole",
      "outputs": [],
      "stateMutability": "nonpayable",
      "type": "function"
    },
    {
      "inputs": [
        {
          "internalType": "address",
          "name": "owner",
          "type": "address"
        },
        {
          "internalType": "uint256",
          "name": "amount",
          "type": "uint256"
        }
      ],
      "name": "request",
      "outputs": [
        {
          "internalType": "bool",
          "name": "immediate",
          "type": "bool"
        }
      ],
      "stateMutability": "nonpayable",
      "type": "function"
    },
    {
      "inputs": [
        {
          "internalType": "bytes32",
          "name": "role",
          "type": "bytes32"
        },
        {
          "internalType": "address",
          "name": "account",
          "type": "address"
        }
      ],
      "name": "revokeRole",
      "outputs": [],
      "stateMutability": "nonpayable",
      "type": "function"
    },
    {
      "inputs": [
        {
          "internalType": "uint256",
          "name": "perAddrDaily",
          "type": "uint256"
        },
        {
          "internalType": "uint256",
          "name": "globalDaily",
          "type": "uint256"
        }
      ],
      "name": "setLimits",
      "outputs": [],
      "stateMutability": "nonpayable",
      "type": "function"
    },
    {
      "inputs": [
        {
          "internalType": "bytes4",
          "name": "interfaceId",
          "type": "bytes4"
        }
      ],
      "name": "supportsInterface",
      "outputs": [
        {
          "internalType": "bool",
          "name": "",
          "type": "bool"
        }
      ],
      "stateMutability": "view",
      "type": "function"
    },
    {
      "inputs": [
        {
          "internalType": "uint256",
          "name": "",
          "type": "uint256"
        },
        {
          "internalType": "address",
          "name": "",
          "type": "address"
        }
      ],
      "name": "usedBy",
      "outputs": [
        {
          "internalType": "uint256",
          "name": "",
          "type": "uint256"
        }
      ],
      "stateMutability": "view",
      "type": "function"
    },
    {
      "inputs": [
        {
          "internalType": "address",
          "name": "owner",
          "type": "address"
        }
      ],
      "name": "usedToday",
      "outputs": [
        {
          "internalType": "uint256",
          "name": "ownerUsed",
          "type": "uint256"
        },
        {
          "internalType": "uint256",
          "name": "globalUsedTotal",
          "type": "uint256"
        }
      ],
      "stateMutability": "view",
      "type": "function"
    }
  ],
  "bytecode": "0x6080346100e857601f610a4238819003918201601f1916830192916001600160401b0391828511848610176100d25781606092859260409788528339810103126100e8578151916001600160a01b03831683036100e8576100728460208301519201519361006c816100ed565b5061016b565b50835192838501928311848410176100d2578060207f2a00ae88790916c355d74c47251101f6daa7fe1b163c26b2add418af558d808095879586528481520152816001558060025582519182526020820152a151610816908161020c8239f35b634e487b7160e01b600052604160045260246000fd5b600080fd5b6001600160a01b031660008181527fad3228b676f7d3cd4284a5443f17f1962b36e491b30a40b2405849e597ba5fb5602052604081205490919060ff1661016757818052816020526040822081835260205260408220600160ff198254161790553391600080516020610a228339815191528180a4600190565b5090565b6001600160a01b031660008181527f7d7ffb7a348e1c6a02869081a26547b49160dd3df72d1d75a570eb9b698292ec60205260408120549091907fa49807205ce4d355092ef5a8a18f56e8913cf4a201fbe287825b095693c217759060ff1661020657808352826020526040832082845260205260408320600160ff19825416179055600080516020610a22833981519152339380a4600190565b50509056fe60806040908082526004908136101561001757600080fd5b600090813560e01c90816301ffc9a7146105c95750806313ce19e314610505578063248a9ca3146104da5780632f2ff15d146104b157806336568abe1461046b5780634d9ca0841461044257806375b238fc14610407578063860aefcf146103e257806391d148541461039c578063a217fddf14610381578063abec541b14610340578063c4590d3f14610283578063c8c01a5514610163578063d547741f146101215763dea029c8146100ca57600080fd5b3461011e57602036600319011261011e5782906100e561061d565b620151804204938483526020526001600160a01b0383832091168252602052818120549281526003602052205482519182526020820152f35b80fd5b50913461015f578060031936011261015f5761015b91356101566001610145610638565b9383875286602052862001546106a7565b61076a565b5080f35b8280fd5b50823461027f578060031936011261027f5761017d61061d565b9181602435916201518042049261019261064e565b90600154825260025491602098899889830194855287865260038a528686205492828b526001600160a01b038888209216918288528b52878720549587916101da8789610684565b9051101561025e575b50817f9f7c36a7e2219924bfc381f9c3b7dc675a3105ec57dc89666176e6c781baaa308980518881528415159e8f90820152a2610224575b8a8a8851908152f35b6102318461024896610684565b918887528b528686209086528a5285852055610684565b928152600386522055838181808080808061021b565b6102688686610684565b90511015610277575b8c6101e3565b506001610271565b5080fd5b50823461027f578060031936011261027f5782356024357fa49807205ce4d355092ef5a8a18f56e8913cf4a201fbe287825b095693c21775948585528460205283852033865260205260ff84862054161561032357507f2a00ae88790916c355d74c47251101f6daa7fe1b163c26b2add418af558d808093945080602061030861064e565b8481520152816001558060025582519182526020820152a180f35b6044908685519163e2517d3f60e01b835233908301526024820152fd5b5091903461015f578160031936011261015f576020928291610360610638565b908035835285526001600160a01b0383832091168252845220549051908152f35b50823461027f578160031936011261027f5751908152602090f35b5091903461015f578160031936011261015f578160209360ff926103be610638565b903582528186526001600160a01b0383832091168252855220541690519015158152f35b83823461011e578060031936011261011e575060015460025482519182526020820152f35b50823461027f578160031936011261027f57602090517fa49807205ce4d355092ef5a8a18f56e8913cf4a201fbe287825b095693c217758152f35b5091903461015f57602036600319011261015f5760209282913581526003845220549051908152f35b50823461027f578060031936011261027f57610485610638565b90336001600160a01b038316036104a2575061015b91923561076a565b5163334bd91960e11b81528390fd5b50913461015f578060031936011261015f5761015b91356104d56001610145610638565b6106eb565b5091903461015f57602036600319011261015f57816020936001923581528085522001549051908152f35b50913461015f578060031936011261015f5760a0929160ff9161052661061d565b6024359161053261064e565b95600154875260025492602088019384526201518042048252600360205282822054956020526001600160a01b0383832091168252602052818120549651925193848461057f838b610684565b111591826105b4575b5050156105ae57506001935b815196875260208701528501526060840152166080820152f35b93610594565b6105c091925087610684565b11158438610588565b9050823461015f57602036600319011261015f573563ffffffff60e01b811680910361015f5760209250637965db0b60e01b811490811561060c575b5015158152f35b6301ffc9a760e01b14905083610605565b600435906001600160a01b038216820361063357565b600080fd5b602435906001600160a01b038216820361063357565b604051906040820182811067ffffffffffffffff82111761066e57604052565b634e487b7160e01b600052604160045260246000fd5b9190820180921161069157565b634e487b7160e01b600052601160045260246000fd5b80600052600060205260406000203360005260205260ff60406000205416156106cd5750565b6044906040519063e2517d3f60e01b82523360048301526024820152fd5b90600091808352826020526001600160a01b036040842092169182845260205260ff6040842054161560001461076557808352826020526040832082845260205260408320600160ff198254161790557f2f8788117e7eff1d82e926ec794901d17c78024a50270940304540a733656f0d339380a4600190565b505090565b90600091808352826020526001600160a01b036040842092169182845260205260ff6040842054166000146107655780835282602052604083208284526020526040832060ff1981541690557ff6391f5c32d9c69d2a47ea670b442974b53935d1edc7fd64eb21e047a839171b339380a460019056fea26469706673582212200328a5d9bb88ebd65cb1717aa2eb1a34fccf8a246d8df87931c842909d7af42d64736f6c634300081800332f8788117e7eff1d82e926ec794901d17c78024a50270940304540a733656f0d",
  "linkReferences": {},
  "deployedLinkReferences": {}
}