{
  "_format": "hh-sol-artifact-1",
  "contractName": "ChainlinkQuoteAdapter",
  "sourceName": "contracts/oracle/adapters/ChainlinkQuoteAdapter.sol",
  "abi": [
    {
      "inputs": [
        {
          "internalType": "address",
          "name": "governor",
          "type": "address"
        }
      ],
      "stateMutability": "nonpayable",
      "type": "constructor"
    },
    {
      "inputs": [],
      "name": "AccessControlBadConfirmation",
      "type": "error"
    },
    {
      "inputs": [
        {
          "internalType": "address",
          "name": "account",
          "type": "address"
        },
        {
          "internalType": "bytes32",
          "name": "neededRole",
          "type": "bytes32"
        }
      ],
      "name": "AccessControlUnauthorizedAccount",
      "type": "error"
    },
    {
      "anonymous": false,
      "inputs": [
        {
          "indexed": true,
          "internalType": "address",
          "name": "instrument",
          "type": "address"
        },
        {
          "indexed": false,
          "internalType": "address",
          "name": "aggregator",
          "type": "address"
        },
        {
          "indexed": false,
          "internalType": "uint64",
          "name": "maxAgeSec",
          "type": "uint64"
        }
      ],
      "name": "FeedSet",
      "type": "event"
    },
    {
      "anonymous": false,
      "inputs": [
        {
          "indexed": true,
          "internalType": "bytes32",
          "name": "role",
          "type": "bytes32"
        },
        {
          "indexed": true,
          "internalType": "bytes32",
          "name": "previousAdminRole",
          "type": "bytes32"
        },
        {
          "indexed": true,
          "internalType": "bytes32",
          "name": "newAdminRole",
          "type": "bytes32"
        }
      ],
      "name": "RoleAdminChanged",
      "type": "event"
    },
    {
      "anonymous": false,
      "inputs": [
        {
          "indexed": true,
          "internalType": "bytes32",
          "name": "role",
          "type": "bytes32"
        },
        {
          "indexed": true,
          "internalType": "address",
          "name": "account",
          "type": "address"
        },
        {
          "indexed": true,
          "internalType": "address",
          "name": "sender",
          "type": "address"
        }
      ],
      "name": "RoleGranted",
      "type": "event"
    },
    {
      "anonymous": false,
      "inputs": [
        {
          "indexed": true,
          "internalType": "bytes32",
          "name": "role",
          "type": "bytes32"
        },
        {
          "indexed": true,
          "internalType": "address",
          "name": "account",
          "type": "address"
        },
        {
          "indexed": true,
          "internalType": "address",
          "name": "sender",
          "type": "address"
        }
      ],
      "name": "RoleRevoked",
      "type": "event"
    },
    {
      "inputs": [],
      "name": "ADMIN",
      "outputs": [
        {
          "internalType": "bytes32",
          "name": "",
          "type": "bytes32"
        }
      ],
      "stateMutability": "view",
      "type": "function"
    },
    {
      "inputs": [],
      "name": "DEFAULT_ADMIN_ROLE",
      "outputs": [
        {
          "internalType": "bytes32",
          "name": "",
          "type": "bytes32"
        }
      ],
      "stateMutability": "view",
      "type": "function"
    },
    {
      "inputs": [
        {
          "internalType": "address",
          "name": "",
          "type": "address"
        }
      ],
      "name": "feeds",
      "outputs": [
        {
          "internalType": "address",
          "name": "aggregator",
          "type": "address"
        },
        {
          "internalType": "uint64",
          "name": "maxAgeSec",
          "type": "uint64"
        }
      ],
      "stateMutability": "view",
      "type": "function"
    },
    {
      "inputs": [
        {
          "internalType": "bytes32",
          "name": "role",
          "type": "bytes32"
        }
      ],
      "name": "getRoleAdmin",
      "outputs": [
        {
          "internalType": "bytes32",
          "name": "",
          "type": "bytes32"
        }
      ],
      "stateMutability": "view",
      "type": "function"
    },
    {
      "inputs": [
        {
          "internalType": "bytes32",
          "name": "role",
          "type": "bytes32"
        },
        {
          "internalType": "address",
          "name": "account",
          "type": "address"
        }
      ],
      "name": "grantRole",
      "outputs": [],
      "stateMutability": "nonpayable",
      "type": "function"
    },
    {
      "inputs": [
        {
          "internalType": "bytes32",
          "name": "role",
          "type": "bytes32"
        },
        {
          "internalType": "address",
          "name": "account",
          "type": "address"
        }
      ],
      "name": "hasRole",
      "outputs": [
        {
          "internalType": "bool",
          "name": "",
          "type": "bool"
        }
      ],
      "stateMutability": "view",
      "type": "function"
    },
    {
      "inputs": [
        {
          "internalType": "address",
          "name": "instrument",
          "type": "address"
        },
        {
          "internalType": "uint64",
          "name": "maxAgeSec",
          "type": "uint64"
        }
      ],
      "name": "isFresh",
      "outputs": [
        {
          "internalType": "bool",
          "name": "",
          "type": "bool"
        }
      ],
      "stateMutability": "view",
      "type": "function"
    },
    {
      "inputs": [
        {
          "internalType": "address",
          "name": "instrument",
          "type": "address"
        }
      ],
      "name": "quoteInCash",
      "outputs": [
        {
          "internalType": "uint256",
          "name": "price",
          "type": "uint256"
        },
        {
          "internalType": "uint8",
          "name": "decimals",
          "type": "uint8"
        },
        {
          "internalType": "uint64",
          "name": "lastUpdate",
          "type": "uint64"
        }
      ],
      "stateMutability": "view",
      "type": "function"
    },
    {
      "inputs": [
        {
          "internalType": "bytes32",
          "name": "role",
          "type": "bytes32"
        },
        {
          "internalType": "address",
          "name": "callerConfirmation",
          "type": "address"
        }
      ],
      "name": "renounceRole",
      "outputs": [],
      "stateMutability": "nonpayable",
      "type": "function"
    },
    {
      "inputs": [
        {
          "internalType": "bytes32",
          "name": "role",
          "type": "bytes32"
        },
        {
          "internalType": "address",
          "name": "account",
          "type": "address"
        }
      ],
      "name": "revokeRole",
      "outputs": [],
      "stateMutability": "nonpayable",
      "type": "function"
    },
    {
      "inputs": [
        {
          "internalType": "address",
          "name": "instrument",
          "type": "address"
        },
        {
          "internalType": "address",
          "name": "aggregator",
          "type": "address"
        },
        {
          "internalType": "uint64",
          "name": "maxAgeSec",
          "type": "uint64"
        }
      ],
      "name": "setFeed",
      "outputs": [],
      "stateMutability": "nonpayable",
      "type": "function"
    },
    {
      "inputs": [
        {
          "internalType": "bytes4",
          "name": "interfaceId",
          "type": "bytes4"
        }
      ],
      "name": "supportsInterface",
      "outputs": [
        {
          "internalType": "bool",
          "name": "",
          "type": "bool"
        }
      ],
      "stateMutability": "view",
      "type": "function"
    }
  ],
  "bytecode": "0x60803461007257601f610c3a38819003918201601f19168301916001600160401b038311848410176100775780849260209460405283398101031261007257516001600160a01b0381168103610072578061005c6100629261008d565b5061010b565b50604051610a6e90816101ac8239f35b600080fd5b634e487b7160e01b600052604160045260246000fd5b6001600160a01b031660008181527fad3228b676f7d3cd4284a5443f17f1962b36e491b30a40b2405849e597ba5fb5602052604081205490919060ff1661010757818052816020526040822081835260205260408220600160ff198254161790553391600080516020610c1a8339815191528180a4600190565b5090565b6001600160a01b031660008181527f5cbfc8ee58ca47855df7bcf648dd304ddb6b932f9b87878bdf6318d7ec7ee5b760205260408120549091907fdf8b4c520ffe197c5343c6f5aec59570151ef9a492f2c624fd45ddde6135ec429060ff166101a657808352826020526040832082845260205260408320600160ff19825416179055600080516020610c1a833981519152339380a4600190565b50509056fe608060408181526004908136101561001657600080fd5b600092833560e01c90816301ffc9a71461077d57508063248a9ca3146107535780632a0acc6a146107185780632f2ff15d146106f05780632fba4aa91461067e57806336568abe1461063757806336af91c91461041557806347acb9cd146102855780634b93a1d91461014c57806391d1485414610107578063a217fddf146100e85763d547741f146100a857600080fd5b346100e457806003193601126100e4576100e091356100db60016100ca6107d1565b9383875286602052862001546108ff565b6109c2565b5080f35b8280fd5b83823461010357816003193601126101035751908152602090f35b5080fd5b5090346100e457816003193601126100e4578160209360ff926101286107d1565b903582528186526001600160a01b0383832091168252855220541690519015158152f35b5082346102825781600319360112610282576101666107ec565b67ffffffffffffffff906024358281169182820361027e576001600160a01b03809116855260016020528660a0878720928851936101a385610802565b54936101c0828616808352896020840197861c1687521515610856565b5116885192838092633fabe5a360e21b82525afa908115610274579085918791610240575b5016844216039284841161022d57602097508492918391156102245750505b1692508261021b575050506001905b519015158152f35b16111590610213565b51169050610204565b634e487b7160e01b865260118852602486fd5b610262915060a03d60a01161026d575b61025a8183610834565b8101906108a3565b5092505050896101e5565b503d610250565b87513d88823e3d90fd5b8480fd5b80fd5b50919034610103576060366003190112610103576102a16107ec565b6102a96107d1565b6044359167ffffffffffffffff8316808403610411577fdf8b4c520ffe197c5343c6f5aec59570151ef9a492f2c624fd45ddde6135ec428087528660205287872033885260205260ff8888205416156103f357506001600160a01b0380921694851515806103e8575b156103ba5750956103b4917fe466ff0f29c5749a57de9d397c0263fab4cac24838f1e7b747260d604ac0b5f095969782519161034d83610802565b808616835260208301918252888a526001602052838a2092511682549167ffffffffffffffff60a01b905160a01b169163ffffffff60e01b1617179055519283928390929167ffffffffffffffff6020916001600160a01b03604085019616845216910152565b0390a280f35b606490602089519162461bcd60e51b835282015260086024820152673130b22fb0b2323960c11b6044820152fd5b508284161515610312565b875163e2517d3f60e01b815233818801526024810191909152604490fd5b8580fd5b508290346101035760209182600319360112610282576104336107ec565b906001600160a01b03809216815260018452848382209184519261045684610802565b549361047b81861680865267ffffffffffffffff809760a01c16898701521515610856565b60a081855116875194858092633fabe5a360e21b82525afa9384156105d3578293839561060d575b50828413156105dd5751865163313ce56760e01b815291889183918b918391165afa80156105d357829061059b575b60ff169050601281116105465760120360ff8111610533576104f3906108d8565b918281029281840414901517156105205750606095509360ff60125b855196875216908501521690820152f35b634e487b7160e01b815260118752602490fd5b634e487b7160e01b825260118852602482fd5b9091906011190160ff81116105885761055e906108d8565b918215610575575060609650049360ff601261050f565b634e487b7160e01b815260128852602490fd5b634e487b7160e01b835260118852602483fd5b508681813d83116105cc575b6105b18183610834565b81010312610103575160ff811681036101035760ff906104d2565b503d6105a7565b86513d84823e3d90fd5b865162461bcd60e51b8152808a01899052600a6024820152693130b22fb0b739bbb2b960b11b6044820152606490fd5b90945061062a91935060a03d60a01161026d5761025a8183610834565b50949250509293896104a3565b508290346101035780600319360112610103576106526107d1565b90336001600160a01b0383160361066f57506100e09192356109c2565b5163334bd91960e11b81528390fd5b508234610282576020366003190112610282576106ec826001600160a01b0392836106a76107ec565b16815260016020522054925192839267ffffffffffffffff8260a01c1691168390929167ffffffffffffffff6020916001600160a01b03604085019616845216910152565b0390f35b50346100e457806003193601126100e4576100e0913561071360016100ca6107d1565b610943565b838234610103578160031936011261010357602090517fdf8b4c520ffe197c5343c6f5aec59570151ef9a492f2c624fd45ddde6135ec428152f35b5090346100e45760203660031901126100e457816020936001923581528085522001549051908152f35b849084346100e45760203660031901126100e4573563ffffffff60e01b81168091036100e45760209250637965db0b60e01b81149081156107c0575b5015158152f35b6301ffc9a760e01b149050836107b9565b602435906001600160a01b03821682036107e757565b600080fd5b600435906001600160a01b03821682036107e757565b6040810190811067ffffffffffffffff82111761081e57604052565b634e487b7160e01b600052604160045260246000fd5b90601f8019910116810190811067ffffffffffffffff82111761081e57604052565b1561085d57565b60405162461bcd60e51b81526020600482015260076024820152661b9bd7d999595960ca1b6044820152606490fd5b519069ffffffffffffffffffff821682036107e757565b908160a09103126107e7576108b78161088c565b916020820151916040810151916108d560806060840151930161088c565b90565b60ff16604d81116108e957600a0a90565b634e487b7160e01b600052601160045260246000fd5b80600052600060205260406000203360005260205260ff60406000205416156109255750565b6044906040519063e2517d3f60e01b82523360048301526024820152fd5b90600091808352826020526001600160a01b036040842092169182845260205260ff604084205416156000146109bd57808352826020526040832082845260205260408320600160ff198254161790557f2f8788117e7eff1d82e926ec794901d17c78024a50270940304540a733656f0d339380a4600190565b505090565b90600091808352826020526001600160a01b036040842092169182845260205260ff6040842054166000146109bd5780835282602052604083208284526020526040832060ff1981541690557ff6391f5c32d9c69d2a47ea670b442974b53935d1edc7fd64eb21e047a839171b339380a460019056fea2646970667358221220efb5b20ab6f8c5eefd088ab14672d22e1126099062dae1167ace197979bce6a964736f6c634300081800332f8788117e7eff1d82e926ec794901d17c78024a50270940304540a733656f0d",
  "linkReferences": {},
  "deployedLinkReferences": {}
}