{"abi":[{"type":"constructor","inputs":[{"name":"admin","type":"address","internalType":"address"},{"name":"oracle","type":"address","internalType":"address"}],"stateMutability":"nonpayable"},{"type":"function","name":"DEFAULT_ADMIN_ROLE","inputs":[],"outputs":[{"name":"","type":"bytes32","internalType":"bytes32"}],"stateMutability":"view"},{"type":"function","name":"get","inputs":[{"name":"instrument","type":"bytes32","internalType":"bytes32"}],"outputs":[{"name":"navPerShare18","type":"uint256","internalType":"uint256"},{"name":"asOf","type":"uint64","internalType":"uint64"},{"name":"signer","type":"address","internalType":"address"}],"stateMutability":"view"},{"type":"function","name":"getRoleAdmin","inputs":[{"name":"role","type":"bytes32","internalType":"bytes32"}],"outputs":[{"name":"","type":"bytes32","internalType":"bytes32"}],"stateMutability":"view"},{"type":"function","name":"grantRole","inputs":[{"name":"role","type":"bytes32","internalType":"bytes32"},{"name":"account","type":"address","internalType":"address"}],"outputs":[],"stateMutability":"nonpayable"},{"type":"function","name":"hasRole","inputs":[{"name":"role","type":"bytes32","internalType":"bytes32"},{"name":"account","type":"address","internalType":"address"}],"outputs":[{"name":"","type":"bool","internalType":"bool"}],"stateMutability":"view"},{"type":"function","name":"navOf","inputs":[{"name":"","type":"bytes32","internalType":"bytes32"}],"outputs":[{"name":"navPerShare18","type":"uint256","internalType":"uint256"},{"name":"asOf","type":"uint64","internalType":"uint64"},{"name":"signer","type":"address","internalType":"address"}],"stateMutability":"view"},{"type":"function","name":"pause","inputs":[],"outputs":[],"stateMutability":"nonpayable"},{"type":"function","name":"paused","inputs":[],"outputs":[{"name":"","type":"bool","internalType":"bool"}],"stateMutability":"view"},{"type":"function","name":"renounceRole","inputs":[{"name":"role","type":"bytes32","internalType":"bytes32"},{"name":"callerConfirmation","type":"address","internalType":"address"}],"outputs":[],"stateMutability":"nonpayable"},{"type":"function","name":"revokeRole","inputs":[{"name":"role","type":"bytes32","internalType":"bytes32"},{"name":"account","type":"address","internalType":"address"}],"outputs":[],"stateMutability":"nonpayable"},{"type":"function","name":"set","inputs":[{"name":"instrument","type":"bytes32","internalType":"bytes32"},{"name":"navPerShare18","type":"uint256","internalType":"uint256"},{"name":"asOf","type":"uint64","internalType":"uint64"}],"outputs":[],"stateMutability":"nonpayable"},{"type":"function","name":"supportsInterface","inputs":[{"name":"interfaceId","type":"bytes4","internalType":"bytes4"}],"outputs":[{"name":"","type":"bool","internalType":"bool"}],"stateMutability":"view"},{"type":"function","name":"unpause","inputs":[],"outputs":[],"stateMutability":"nonpayable"},{"type":"event","name":"NavSet","inputs":[{"name":"instrument","type":"bytes32","indexed":true,"internalType":"bytes32"},{"name":"navPerShare18","type":"uint256","indexed":false,"internalType":"uint256"},{"name":"asOf","type":"uint64","indexed":false,"internalType":"uint64"},{"name":"by","type":"address","indexed":true,"internalType":"address"}],"anonymous":false},{"type":"event","name":"Paused","inputs":[{"name":"account","type":"address","indexed":false,"internalType":"address"}],"anonymous":false},{"type":"event","name":"RoleAdminChanged","inputs":[{"name":"role","type":"bytes32","indexed":true,"internalType":"bytes32"},{"name":"previousAdminRole","type":"bytes32","indexed":true,"internalType":"bytes32"},{"name":"newAdminRole","type":"bytes32","indexed":true,"internalType":"bytes32"}],"anonymous":false},{"type":"event","name":"RoleGranted","inputs":[{"name":"role","type":"bytes32","indexed":true,"internalType":"bytes32"},{"name":"account","type":"address","indexed":true,"internalType":"address"},{"name":"sender","type":"address","indexed":true,"internalType":"address"}],"anonymous":false},{"type":"event","name":"RoleRevoked","inputs":[{"name":"role","type":"bytes32","indexed":true,"internalType":"bytes32"},{"name":"account","type":"address","indexed":true,"internalType":"address"},{"name":"sender","type":"address","indexed":true,"internalType":"address"}],"anonymous":false},{"type":"event","name":"Unpaused","inputs":[{"name":"account","type":"address","indexed":false,"internalType":"address"}],"anonymous":false},{"type":"error","name":"AccessControlBadConfirmation","inputs":[]},{"type":"error","name":"AccessControlUnauthorizedAccount","inputs":[{"name":"account","type":"address","internalType":"address"},{"name":"neededRole","type":"bytes32","internalType":"bytes32"}]},{"type":"error","name":"EnforcedPause","inputs":[]},{"type":"error","name":"ExpectedPause","inputs":[]}],"bytecode":{"object":"0x60803461009457601f610c2738819003918201601f19168301916001600160401b0383118484101761009957808492604094855283398101031261009457610065610055602061004e846100af565b93016100af565b9160ff19600154166001556100c3565b506001600160a01b038116610084575b604051610a2590816101e28239f35b61008d90610141565b5038610075565b600080fd5b634e487b7160e01b600052604160045260246000fd5b51906001600160a01b038216820361009457565b6001600160a01b031660008181527fad3228b676f7d3cd4284a5443f17f1962b36e491b30a40b2405849e597ba5fb5602052604081205490919060ff1661013d57818052816020526040822081835260205260408220600160ff198254161790553391600080516020610c078339815191528180a4600190565b5090565b6001600160a01b031660008181527f56e5822e13686eaa5c46cfa39933133a22208a18ec41a20857fad3e26619a2a860205260408120549091907f352d05fe3946dbe49277552ba941e744d5a96d9c60bc1ba0ea5f1d3ae000f7c89060ff166101dc57808352826020526040832082845260205260408320600160ff19825416179055600080516020610c07833981519152339380a4600190565b50509056fe608060408181526004918236101561001657600080fd5b600092833560e01c91826301ffc9a71461067657508163248a9ca31461062e5781632f2ff15d146106105781632f4e64111461058b578163341265401461040b57816336568abe146103aa5781633f4ba83a146102eb5781635c975abb146102a95781638456cb59146102135781638eaa6ac0146101685750806391d1485414610123578063a217fddf146100eb5763d547741f146100b457600080fd5b346100e75760016100e3916100de6100cb36610732565b9390928387528660205286200154610848565b61094e565b5080f35b5080fd5b50346100e757817ffffffffffffffffffffffffffffffffffffffffffffffffffffffffffffffffc3601126100e75751908152602090f35b50346100e75760ff8160209361013836610732565b90825281865273ffffffffffffffffffffffffffffffffffffffff83832091168252855220541690519015158152f35b90503461020f5760207ffffffffffffffffffffffffffffffffffffffffffffffffffffffffffffffffc36011261020f5791819235815260026020522061020b6101b0610788565b82548082526001939093015467ffffffffffffffff8116602080840182905291861c73ffffffffffffffffffffffffffffffffffffffff16928601839052945193845283019390935260408201929092529081906060820190565b0390f35b8280fd5b5050346100e757817ffffffffffffffffffffffffffffffffffffffffffffffffffffffffffffffffc3601126100e75760207f62e78cea01bee320cd4e420270b5ea74000d11b0c9f74754ebdbfc544b05a2589161026f6107d7565b610277610918565b60017fffffffffffffffffffffffffffffffffffffffffffffffffffffffffffffff008154161760015551338152a180f35b5050346100e757817ffffffffffffffffffffffffffffffffffffffffffffffffffffffffffffffffc3601126100e75760209060ff6001541690519015158152f35b90503461020f57827ffffffffffffffffffffffffffffffffffffffffffffffffffffffffffffffffc36011261020f576103236107d7565b6001549060ff82161561038357507f5db9ee0a495bf2e6ff9c91a7834c1ba4fdd244a5e8aa4e537bd38aeae4b073aa917fffffffffffffffffffffffffffffffffffffffffffffffffffffffffffffff006020921660015551338152a180f35b82517f8dfc202b000000000000000000000000000000000000000000000000000000008152fd5b8383346100e7576103ba36610732565b913373ffffffffffffffffffffffffffffffffffffffff8416036103e35750906100e39161094e565b8490517f6697b232000000000000000000000000000000000000000000000000000000008152fd5b9190503461020f5760607ffffffffffffffffffffffffffffffffffffffffffffffffffffffffffffffffc36011261020f57813590602435926044359067ffffffffffffffff90818316809303610587577f352d05fe3946dbe49277552ba941e744d5a96d9c60bc1ba0ea5f1d3ae000f7c88088528760205284882033895260205260ff858920541615610551575050907f94346be5176b7302761cb1134bb7b7d33cb6a1125775a846271c8e23133ed9f792916104c7610918565b6104cf610788565b8681526020810191838352600185830192338452888b526002602052868b2090518155019251167fffffffff000000000000000000000000000000000000000000000000000000007bffffffffffffffffffffffffffffffffffffffff000000000000000084549351871b16921617179055815194855260208501523393a380f35b604492508451917fe2517d3f00000000000000000000000000000000000000000000000000000000835233908301526024820152fd5b8680fd5b90503461020f5760207ffffffffffffffffffffffffffffffffffffffffffffffffffffffffffffffffc36011261020f5735825260026020908152918190208054600190910154825191825267ffffffffffffffff81169382019390935291901c73ffffffffffffffffffffffffffffffffffffffff16604082015280606081010390f35b5050346100e75760016100e3916106296100cb36610732565b61086e565b90503461020f5760207ffffffffffffffffffffffffffffffffffffffffffffffffffffffffffffffffc36011261020f57816020936001923581528085522001549051908152f35b84913461020f5760207ffffffffffffffffffffffffffffffffffffffffffffffffffffffffffffffffc36011261020f57357fffffffff00000000000000000000000000000000000000000000000000000000811680910361020f57602092507f7965db0b000000000000000000000000000000000000000000000000000000008114908115610708575b5015158152f35b7f01ffc9a70000000000000000000000000000000000000000000000000000000091501483610701565b7ffffffffffffffffffffffffffffffffffffffffffffffffffffffffffffffffc6040910112610783576004359060243573ffffffffffffffffffffffffffffffffffffffff811681036107835790565b600080fd5b604051906060820182811067ffffffffffffffff8211176107a857604052565b7f4e487b7100000000000000000000000000000000000000000000000000000000600052604160045260246000fd5b3360009081527fad3228b676f7d3cd4284a5443f17f1962b36e491b30a40b2405849e597ba5fb5602052604081205460ff16156108115750565b604490604051907fe2517d3f0000000000000000000000000000000000000000000000000000000082523360048301526024820152fd5b80600052600060205260406000203360005260205260ff60406000205416156108115750565b906000918083528260205273ffffffffffffffffffffffffffffffffffffffff6040842092169182845260205260ff604084205416156000146109135780835282602052604083208284526020526040832060017fffffffffffffffffffffffffffffffffffffffffffffffffffffffffffffff008254161790557f2f8788117e7eff1d82e926ec794901d17c78024a50270940304540a733656f0d339380a4600190565b505090565b60ff6001541661092457565b60046040517fd93c0665000000000000000000000000000000000000000000000000000000008152fd5b906000918083528260205273ffffffffffffffffffffffffffffffffffffffff6040842092169182845260205260ff604084205416600014610913578083528260205260408320828452602052604083207fffffffffffffffffffffffffffffffffffffffffffffffffffffffffffffff0081541690557ff6391f5c32d9c69d2a47ea670b442974b53935d1edc7fd64eb21e047a839171b339380a460019056fea264697066735822122032c406fa46ffdc9e4a74af03947a0da0e1ba83ea33fcc1a5a6a081abd45454e564736f6c634300081800332f8788117e7eff1d82e926ec794901d17c78024a50270940304540a733656f0d","linkReferences":{}},"methodIdentifiers":{"DEFAULT_ADMIN_ROLE()":"a217fddf","get(bytes32)":"8eaa6ac0","getRoleAdmin(bytes32)":"248a9ca3","grantRole(bytes32,address)":"2f2ff15d","hasRole(bytes32,address)":"91d14854","navOf(bytes32)":"2f4e6411","pause()":"8456cb59","paused()":"5c975abb","renounceRole(bytes32,address)":"36568abe","revokeRole(bytes32,address)":"d547741f","set(bytes32,uint256,uint64)":"34126540","supportsInterface(bytes4)":"01ffc9a7","unpause()":"3f4ba83a"},"id":57}