{
  "_format": "hh-sol-artifact-1",
  "contractName": "AttestationRegistry",
  "sourceName": "contracts/attest/AttestationRegistry.sol",
  "abi": [
    {
      "inputs": [],
      "stateMutability": "nonpayable",
      "type": "constructor"
    },
    {
      "inputs": [],
      "name": "AccessControlBadConfirmation",
      "type": "error"
    },
    {
      "inputs": [
        {
          "internalType": "address",
          "name": "account",
          "type": "address"
        },
        {
          "internalType": "bytes32",
          "name": "neededRole",
          "type": "bytes32"
        }
      ],
      "name": "AccessControlUnauthorizedAccount",
      "type": "error"
    },
    {
      "inputs": [
        {
          "internalType": "address",
          "name": "target",
          "type": "address"
        }
      ],
      "name": "AddressEmptyCode",
      "type": "error"
    },
    {
      "inputs": [],
      "name": "ECDSAInvalidSignature",
      "type": "error"
    },
    {
      "inputs": [
        {
          "internalType": "uint256",
          "name": "length",
          "type": "uint256"
        }
      ],
      "name": "ECDSAInvalidSignatureLength",
      "type": "error"
    },
    {
      "inputs": [
        {
          "internalType": "bytes32",
          "name": "s",
          "type": "bytes32"
        }
      ],
      "name": "ECDSAInvalidSignatureS",
      "type": "error"
    },
    {
      "inputs": [
        {
          "internalType": "address",
          "name": "implementation",
          "type": "address"
        }
      ],
      "name": "ERC1967InvalidImplementation",
      "type": "error"
    },
    {
      "inputs": [],
      "name": "ERC1967NonPayable",
      "type": "error"
    },
    {
      "inputs": [],
      "name": "FailedCall",
      "type": "error"
    },
    {
      "inputs": [],
      "name": "InvalidInitialization",
      "type": "error"
    },
    {
      "inputs": [],
      "name": "NotInitializing",
      "type": "error"
    },
    {
      "inputs": [],
      "name": "UUPSUnauthorizedCallContext",
      "type": "error"
    },
    {
      "inputs": [
        {
          "internalType": "bytes32",
          "name": "slot",
          "type": "bytes32"
        }
      ],
      "name": "UUPSUnsupportedProxiableUUID",
      "type": "error"
    },
    {
      "anonymous": false,
      "inputs": [
        {
          "indexed": true,
          "internalType": "uint256",
          "name": "id",
          "type": "uint256"
        },
        {
          "indexed": true,
          "internalType": "address",
          "name": "provider",
          "type": "address"
        },
        {
          "indexed": false,
          "internalType": "bytes32",
          "name": "schema",
          "type": "bytes32"
        },
        {
          "indexed": false,
          "internalType": "bytes32",
          "name": "contentHash",
          "type": "bytes32"
        },
        {
          "indexed": false,
          "internalType": "uint64",
          "name": "asOf",
          "type": "uint64"
        },
        {
          "indexed": false,
          "internalType": "string",
          "name": "uri",
          "type": "string"
        }
      ],
      "name": "Attested",
      "type": "event"
    },
    {
      "anonymous": false,
      "inputs": [],
      "name": "EIP712DomainChanged",
      "type": "event"
    },
    {
      "anonymous": false,
      "inputs": [
        {
          "indexed": false,
          "internalType": "uint64",
          "name": "version",
          "type": "uint64"
        }
      ],
      "name": "Initialized",
      "type": "event"
    },
    {
      "anonymous": false,
      "inputs": [
        {
          "indexed": true,
          "internalType": "address",
          "name": "provider",
          "type": "address"
        },
        {
          "indexed": false,
          "internalType": "bool",
          "name": "allowed",
          "type": "bool"
        }
      ],
      "name": "ProviderSet",
      "type": "event"
    },
    {
      "anonymous": false,
      "inputs": [
        {
          "indexed": true,
          "internalType": "bytes32",
          "name": "role",
          "type": "bytes32"
        },
        {
          "indexed": true,
          "internalType": "bytes32",
          "name": "previousAdminRole",
          "type": "bytes32"
        },
        {
          "indexed": true,
          "internalType": "bytes32",
          "name": "newAdminRole",
          "type": "bytes32"
        }
      ],
      "name": "RoleAdminChanged",
      "type": "event"
    },
    {
      "anonymous": false,
      "inputs": [
        {
          "indexed": true,
          "internalType": "bytes32",
          "name": "role",
          "type": "bytes32"
        },
        {
          "indexed": true,
          "internalType": "address",
          "name": "account",
          "type": "address"
        },
        {
          "indexed": true,
          "internalType": "address",
          "name": "sender",
          "type": "address"
        }
      ],
      "name": "RoleGranted",
      "type": "event"
    },
    {
      "anonymous": false,
      "inputs": [
        {
          "indexed": true,
          "internalType": "bytes32",
          "name": "role",
          "type": "bytes32"
        },
        {
          "indexed": true,
          "internalType": "address",
          "name": "account",
          "type": "address"
        },
        {
          "indexed": true,
          "internalType": "address",
          "name": "sender",
          "type": "address"
        }
      ],
      "name": "RoleRevoked",
      "type": "event"
    },
    {
      "anonymous": false,
      "inputs": [
        {
          "indexed": true,
          "internalType": "address",
          "name": "implementation",
          "type": "address"
        }
      ],
      "name": "Upgraded",
      "type": "event"
    },
    {
      "inputs": [],
      "name": "DEFAULT_ADMIN_ROLE",
      "outputs": [
        {
          "internalType": "bytes32",
          "name": "",
          "type": "bytes32"
        }
      ],
      "stateMutability": "view",
      "type": "function"
    },
    {
      "inputs": [],
      "name": "UPGRADE_INTERFACE_VERSION",
      "outputs": [
        {
          "internalType": "string",
          "name": "",
          "type": "string"
        }
      ],
      "stateMutability": "view",
      "type": "function"
    },
    {
      "inputs": [
        {
          "internalType": "uint256",
          "name": "",
          "type": "uint256"
        }
      ],
      "name": "atts",
      "outputs": [
        {
          "internalType": "bytes32",
          "name": "schema",
          "type": "bytes32"
        },
        {
          "internalType": "bytes32",
          "name": "contentHash",
          "type": "bytes32"
        },
        {
          "internalType": "uint64",
          "name": "asOf",
          "type": "uint64"
        },
        {
          "internalType": "string",
          "name": "uri",
          "type": "string"
        }
      ],
      "stateMutability": "view",
      "type": "function"
    },
    {
      "inputs": [],
      "name": "eip712Domain",
      "outputs": [
        {
          "internalType": "bytes1",
          "name": "fields",
          "type": "bytes1"
        },
        {
          "internalType": "string",
          "name": "name",
          "type": "string"
        },
        {
          "internalType": "string",
          "name": "version",
          "type": "string"
        },
        {
          "internalType": "uint256",
          "name": "chainId",
          "type": "uint256"
        },
        {
          "internalType": "address",
          "name": "verifyingContract",
          "type": "address"
        },
        {
          "internalType": "bytes32",
          "name": "salt",
          "type": "bytes32"
        },
        {
          "internalType": "uint256[]",
          "name": "extensions",
          "type": "uint256[]"
        }
      ],
      "stateMutability": "view",
      "type": "function"
    },
    {
      "inputs": [
        {
          "internalType": "bytes32",
          "name": "role",
          "type": "bytes32"
        }
      ],
      "name": "getRoleAdmin",
      "outputs": [
        {
          "internalType": "bytes32",
          "name": "",
          "type": "bytes32"
        }
      ],
      "stateMutability": "view",
      "type": "function"
    },
    {
      "inputs": [
        {
          "internalType": "bytes32",
          "name": "role",
          "type": "bytes32"
        },
        {
          "internalType": "address",
          "name": "account",
          "type": "address"
        }
      ],
      "name": "grantRole",
      "outputs": [],
      "stateMutability": "nonpayable",
      "type": "function"
    },
    {
      "inputs": [
        {
          "internalType": "bytes32",
          "name": "role",
          "type": "bytes32"
        },
        {
          "internalType": "address",
          "name": "account",
          "type": "address"
        }
      ],
      "name": "hasRole",
      "outputs": [
        {
          "internalType": "bool",
          "name": "",
          "type": "bool"
        }
      ],
      "stateMutability": "view",
      "type": "function"
    },
    {
      "inputs": [
        {
          "internalType": "address",
          "name": "governor",
          "type": "address"
        }
      ],
      "name": "initialize",
      "outputs": [],
      "stateMutability": "nonpayable",
      "type": "function"
    },
    {
      "inputs": [],
      "name": "lastId",
      "outputs": [
        {
          "internalType": "uint256",
          "name": "",
          "type": "uint256"
        }
      ],
      "stateMutability": "view",
      "type": "function"
    },
    {
      "inputs": [],
      "name": "latest",
      "outputs": [
        {
          "internalType": "uint256",
          "name": "id",
          "type": "uint256"
        },
        {
          "components": [
            {
              "internalType": "bytes32",
              "name": "schema",
              "type": "bytes32"
            },
            {
              "internalType": "bytes32",
              "name": "contentHash",
              "type": "bytes32"
            },
            {
              "internalType": "uint64",
              "name": "asOf",
              "type": "uint64"
            },
            {
              "internalType": "string",
              "name": "uri",
              "type": "string"
            }
          ],
          "internalType": "struct AttestationRegistry.Attestation",
          "name": "a",
          "type": "tuple"
        }
      ],
      "stateMutability": "view",
      "type": "function"
    },
    {
      "inputs": [
        {
          "internalType": "address",
          "name": "",
          "type": "address"
        }
      ],
      "name": "providers",
      "outputs": [
        {
          "internalType": "bool",
          "name": "",
          "type": "bool"
        }
      ],
      "stateMutability": "view",
      "type": "function"
    },
    {
      "inputs": [],
      "name": "proxiableUUID",
      "outputs": [
        {
          "internalType": "bytes32",
          "name": "",
          "type": "bytes32"
        }
      ],
      "stateMutability": "view",
      "type": "function"
    },
    {
      "inputs": [
        {
          "internalType": "bytes32",
          "name": "role",
          "type": "bytes32"
        },
        {
          "internalType": "address",
          "name": "callerConfirmation",
          "type": "address"
        }
      ],
      "name": "renounceRole",
      "outputs": [],
      "stateMutability": "nonpayable",
      "type": "function"
    },
    {
      "inputs": [
        {
          "internalType": "bytes32",
          "name": "role",
          "type": "bytes32"
        },
        {
          "internalType": "address",
          "name": "account",
          "type": "address"
        }
      ],
      "name": "revokeRole",
      "outputs": [],
      "stateMutability": "nonpayable",
      "type": "function"
    },
    {
      "inputs": [
        {
          "internalType": "address",
          "name": "provider",
          "type": "address"
        },
        {
          "internalType": "bool",
          "name": "allowed",
          "type": "bool"
        }
      ],
      "name": "setProvider",
      "outputs": [],
      "stateMutability": "nonpayable",
      "type": "function"
    },
    {
      "inputs": [
        {
          "internalType": "bytes32",
          "name": "schema",
          "type": "bytes32"
        },
        {
          "internalType": "bytes32",
          "name": "contentHash",
          "type": "bytes32"
        },
        {
          "internalType": "uint64",
          "name": "asOf",
          "type": "uint64"
        },
        {
          "internalType": "string",
          "name": "uri",
          "type": "string"
        },
        {
          "internalType": "bytes",
          "name": "sig",
          "type": "bytes"
        }
      ],
      "name": "submitAttestation",
      "outputs": [
        {
          "internalType": "uint256",
          "name": "id",
          "type": "uint256"
        }
      ],
      "stateMutability": "nonpayable",
      "type": "function"
    },
    {
      "inputs": [
        {
          "internalType": "bytes4",
          "name": "interfaceId",
          "type": "bytes4"
        }
      ],
      "name": "supportsInterface",
      "outputs": [
        {
          "internalType": "bool",
          "name": "",
          "type": "bool"
        }
      ],
      "stateMutability": "view",
      "type": "function"
    },
    {
      "inputs": [
        {
          "internalType": "address",
          "name": "newImplementation",
          "type": "address"
        },
        {
          "internalType": "bytes",
          "name": "data",
          "type": "bytes"
        }
      ],
      "name": "upgradeToAndCall",
      "outputs": [],
      "stateMutability": "payable",
      "type": "function"
    }
  ],
  "bytecode": "0x60a080604052346100cc57306080527ff0c57e16840df040f15088dc2f81fe391c3923bec73e23a9662efc9c229c6a009081549060ff8260401c166100bd57506001600160401b036002600160401b031982821601610078575b604051611efe90816100d28239608051818181610f7001526110ea0152f35b6001600160401b031990911681179091556040519081527fc7f505b2f371ae2175ee4913f4499e1f2633a7b5936321eed1cdaeb6115181d290602090a1388080610059565b63f92ee8a960e01b8152600490fd5b600080fdfe608080604052600436101561001357600080fd5b60003560e01c90816301ffc9a71461144e575080630787bc271461140f578063248a9ca3146113d35780632f2ff15d1461138757806336568abe146113405780634f1ef2861461109957806352bfe78914610fd257806352d1902d14610f55578063767d909914610eea57806384b0196e14610d855780638ad14ed014610c9557806391d1485414610c3a578063a217fddf14610c1e578063ad3cb1cc14610bd4578063c1292cc314610bb6578063c4d66de8146105a7578063cc36049b146101385763d547741f146100e557600080fd5b34610133576040366003190112610133576101316004356101046114b7565b9080600052600080516020611ea983398151915260205261012c60016040600020015461188b565b611b80565b005b600080fd5b346101335760a03660031901126101335760443567ffffffffffffffff811681036101335760643567ffffffffffffffff81116101335761017d90369060040161185d565b90916084359167ffffffffffffffff8311610133576102a76102a16101a96102b095369060040161185d565b919060426101b836878b61155f565b6020815191012060405160208101917fb0576f914f036bdff439a36bc886741fa5e9b696617cfd255f10c57fe064c60683526004356040830152602435606083015267ffffffffffffffff8a16608083015260a082015260a0815261021c81611505565b519020610227611df9565b61022f611e63565b6040519060208201927f8b73c3c69bb8fe3d512ecc4cf759cc79239f7b179b0ffacaa9a75d522b39400f8452604083015260608201524660808201523060a082015260a0815261027e81611505565b519020906040519161190160f01b8352600283015260228201522092369161155f565b90611c45565b90949194611c81565b6001600160a01b038316600052600060205260ff60406000205416156105625760015492600019841461054c57600184016001556040516102f0816114cd565b60043581526020810160243581526040820167ffffffffffffffff8616815261031a36868a61155f565b916060840192835260018801600052600260205260406000209351845551600184015567ffffffffffffffff6002840191511667ffffffffffffffff198254161790555180519067ffffffffffffffff82116105365761037d60038401546115d6565b601f81116104ef575b50916020979185938990601f831160011461045257827fb58e10c05aead28411604f0623aae928832f1fb9655bd2fc49e302f278aadbcd9795936001600160a01b03979593600393600092610447575b50508160011b9160001990841b1c1916179101555b67ffffffffffffffff6040519760043589526024358b8a01521660408801526080606088015281608088015260a0870137600060a08587010152169260a0816001870194601f80199101168101030190a3600160405191018152f35b015190508d806103d6565b90600384016000528a6000209160005b601f19851681106104d55750836001600160a01b039795936003936001937fb58e10c05aead28411604f0623aae928832f1fb9655bd2fc49e302f278aadbcd9b9997601f198116106104bd575b505050811b019101556103eb565b015160001983861b60f8161c191690558d80806104af565b818301518455899750600190930192918c01918c01610462565b600384016000526020600020601f840160051c81016020851061052f575b601f830160051c82018110610523575050610386565b6000815560010161050d565b508061050d565b634e487b7160e01b600052604160045260246000fd5b634e487b7160e01b600052601160045260246000fd5b60405162461bcd60e51b815260206004820152601560248201527f756e617574686f72697a65645f70726f766964657200000000000000000000006044820152606490fd5b34610133576020366003190112610133576105c06114a1565b7ff0c57e16840df040f15088dc2f81fe391c3923bec73e23a9662efc9c229c6a00549067ffffffffffffffff821680159081610ba6575b6001149081610b9c575b159081610b93575b50610b8157600167ffffffffffffffff198316177ff0c57e16840df040f15088dc2f81fe391c3923bec73e23a9662efc9c229c6a005560ff8260401c1615610b42575b610654611c04565b61065c611c04565b60405191610669836114e9565b601383527f4174746573746174696f6e5265676973747279000000000000000000000000006020840152604051916106a0836114e9565b60018352603160f81b60208401526106b6611c04565b6106be611c04565b835167ffffffffffffffff8111610536576106f97fa16a46d94261c7517cc8ff89f61c0ce93598e3c849801011dee649a6a557d102546115d6565b601f8111610a80575b50602094601f82116001146109be579481929394956000926109b3575b50508160011b916000199060031b1c1916177fa16a46d94261c7517cc8ff89f61c0ce93598e3c849801011dee649a6a557d102555b825167ffffffffffffffff8111610536577fa16a46d94261c7517cc8ff89f61c0ce93598e3c849801011dee649a6a557d1039061079182546115d6565b601f811161094f575b506020601f82116001146108c557908061083194939260ff976000926108ba575b50508160011b916000199060031b1c19161790555b60007fa16a46d94261c7517cc8ff89f61c0ce93598e3c849801011dee649a6a557d1005560007fa16a46d94261c7517cc8ff89f61c0ce93598e3c849801011dee649a6a557d10155610821816118be565b5061082b81611980565b50611a3c565b5060401c161561083d57005b68ff0000000000000000197ff0c57e16840df040f15088dc2f81fe391c3923bec73e23a9662efc9c229c6a0054167ff0c57e16840df040f15088dc2f81fe391c3923bec73e23a9662efc9c229c6a00557fc7f505b2f371ae2175ee4913f4499e1f2633a7b5936321eed1cdaeb6115181d2602060405160018152a1005b0151905087806107bb565b601f19821695836000527f5f9ce34815f8e11431c7bb75a8e6886a91478f7ffc1dbb0a98dc240fddd76b759660005b818110610937575096600192849261083197969560ff9a1061091e575b505050811b0190556107d0565b015160001960f88460031b161c19169055878080610911565b838301518955600190980197602093840193016108f4565b826000527f5f9ce34815f8e11431c7bb75a8e6886a91478f7ffc1dbb0a98dc240fddd76b75601f830160051c810191602084106109a9575b601f0160051c01905b81811061099d575061079a565b60008155600101610990565b9091508190610987565b01519050858061071f565b601f198216957fa16a46d94261c7517cc8ff89f61c0ce93598e3c849801011dee649a6a557d1026000527f42ad5d3e1f2e6e70edcf6d991b8a3023d3fca8047a131592f9edb9fd9b89d57d9160005b888110610a6857508360019596979810610a4f575b505050811b017fa16a46d94261c7517cc8ff89f61c0ce93598e3c849801011dee649a6a557d10255610754565b015160001960f88460031b161c19169055858080610a22565b91926020600181928685015181550194019201610a0d565b7fa16a46d94261c7517cc8ff89f61c0ce93598e3c849801011dee649a6a557d102600052601f820160051c7f42ad5d3e1f2e6e70edcf6d991b8a3023d3fca8047a131592f9edb9fd9b89d57d019060208310610b1a575b601f0160051c7f42ad5d3e1f2e6e70edcf6d991b8a3023d3fca8047a131592f9edb9fd9b89d57d01905b818110610b0e5750610702565b60008155600101610b01565b7f42ad5d3e1f2e6e70edcf6d991b8a3023d3fca8047a131592f9edb9fd9b89d57d9150610ad7565b68ffffffffffffffffff19821668010000000000000001177ff0c57e16840df040f15088dc2f81fe391c3923bec73e23a9662efc9c229c6a005561064c565b60405163f92ee8a960e01b8152600490fd5b90501583610609565b303b159150610601565b604084901c60ff161591506105f7565b34610133576000366003190112610133576020600154604051908152f35b3461013357600036600319011261013357610c1a604051610bf4816114e9565b60058152640352e302e360dc1b6020820152604051918291602083526020830190611596565b0390f35b3461013357600036600319011261013357602060405160008152f35b3461013357604036600319011261013357610c536114b7565b600435600052600080516020611ea98339815191526020526001600160a01b0360406000209116600052602052602060ff604060002054166040519015158152f35b3461013357604036600319011261013357610cae6114a1565b60243590811515809203610133573360009081527f852acfdbd338e0da117a74b68467ee9617605c8469f7ce48961a1a5229d6e83860205260409020547f1a6838efa4183e08fe3607359d1259272af9d4716f65e1a7b5921f78fd5a3c6a9060ff1615610d67575060206001600160a01b037fb537570c49a628ab18394585f413cb254f1f3a611ba09b120f0978a79c9386fe9216928360005260008252604060002060ff1981541660ff8316179055604051908152a2005b6044906040519063e2517d3f60e01b82523360048301526024820152fd5b34610133576000366003190112610133577fa16a46d94261c7517cc8ff89f61c0ce93598e3c849801011dee649a6a557d100541580610ec1575b15610e7c57610dcc611610565b610dd46116fa565b60405160208082019282841067ffffffffffffffff85111761053657916020610e2f8594610e21979660405260008452604051978897600f60f81b895260e0858a015260e0890190611596565b908782036040890152611596565b91466060870152306080870152600060a087015285830360c0870152519182815201929160005b828110610e6557505050500390f35b835185528695509381019392810192600101610e56565b60405162461bcd60e51b815260206004820152601560248201527f4549503731323a20556e696e697469616c697a656400000000000000000000006044820152606490fd5b507fa16a46d94261c7517cc8ff89f61c0ce93598e3c849801011dee649a6a557d1015415610dbf565b3461013357602036600319011261013357600435600052600260205260406000208054610c1a600183015492610f31600367ffffffffffffffff60028401541692016117bb565b90604051948594855260208501526040840152608060608401526080830190611596565b34610133576000366003190112610133576001600160a01b037f0000000000000000000000000000000000000000000000000000000000000000163003610fc05760206040517f360894a13ba1a3210667c828492db98dca3e2076cc3735a920a3ca505d382bbc8152f35b60405163703e46dd60e11b8152600490fd5b3461013357600036600319011261013357606080604051610ff2816114cd565b6000815260006020820152600060408201520152600154806000526002602052604060002090610c1a60405192611028846114cd565b805484526001810154906020850191825267ffffffffffffffff9061105d6003836002840154169260408901938452016117bb565b92606087019384526040519687968752604060208801525160408701525160608601525116608084015251608060a084015260c0830190611596565b6040366003190112610133576110ad6114a1565b602490813567ffffffffffffffff81116101335736602382011215610133576110df903690848160040135910161155f565b6001600160a01b03807f000000000000000000000000000000000000000000000000000000000000000016803014908115611312575b50610fc0573360009081527f9469a29198efc966024e165efb801c8f2366b78a1c73841aee561d08e7eaddce60209081526040909120549091907fa615a8afb6fffcb8c6809ac0997b5c9c12b8cc97651150f14c8f6203168cff4c9060ff16156112f557508316926040516352d1902d60e01b81528281600481885afa600091816112c6575b506111b857604051634c9c8ce360e01b8152600481018690528690fd5b8490867f360894a13ba1a3210667c828492db98dca3e2076cc3735a920a3ca505d382bbc918281036112b15750833b1561129b5750805473ffffffffffffffffffffffffffffffffffffffff191682179055604051907fbc7cd75a20ee27fd9adebab32041f755214dbc6bffa90cc0225b39da2e5c2d3b600080a28351156112815750600080848461013196519101845af4903d15611278573d61125b81611543565b906112696040519283611521565b8152600081943d92013e611d96565b60609250611d96565b925050503461128c57005b63b398979f60e01b8152600490fd5b604051634c9c8ce360e01b815260048101849052fd5b60405190632a87526960e21b82526004820152fd5b9091508381813d83116112ee575b6112de8183611521565b810103126101335751908761119b565b503d6112d4565b856044916040519163e2517d3f60e01b8352336004840152820152fd5b9050817f360894a13ba1a3210667c828492db98dca3e2076cc3735a920a3ca505d382bbc5416141585611115565b34610133576040366003190112610133576113596114b7565b336001600160a01b038216036113755761013190600435611b80565b60405163334bd91960e11b8152600490fd5b34610133576040366003190112610133576101316004356113a66114b7565b9080600052600080516020611ea98339815191526020526113ce60016040600020015461188b565b611af8565b3461013357602036600319011261013357600435600052600080516020611ea98339815191526020526020600160406000200154604051908152f35b34610133576020366003190112610133576001600160a01b036114306114a1565b166000526000602052602060ff604060002054166040519015158152f35b34610133576020366003190112610133576004359063ffffffff60e01b821680920361013357602091637965db0b60e01b8114908115611490575b5015158152f35b6301ffc9a760e01b14905083611489565b600435906001600160a01b038216820361013357565b602435906001600160a01b038216820361013357565b6080810190811067ffffffffffffffff82111761053657604052565b6040810190811067ffffffffffffffff82111761053657604052565b60c0810190811067ffffffffffffffff82111761053657604052565b90601f8019910116810190811067ffffffffffffffff82111761053657604052565b67ffffffffffffffff811161053657601f01601f191660200190565b92919261156b82611543565b916115796040519384611521565b829481845281830111610133578281602093846000960137010152565b919082519283825260005b8481106115c2575050826000602080949584010152601f8019910116010190565b6020818301810151848301820152016115a1565b90600182811c92168015611606575b60208310146115f057565b634e487b7160e01b600052602260045260246000fd5b91607f16916115e5565b604051906000827fa16a46d94261c7517cc8ff89f61c0ce93598e3c849801011dee649a6a557d10291825492611645846115d6565b808452936020916001918281169081156116d45750600114611673575b50505061167192500383611521565b565b60009081527f42ad5d3e1f2e6e70edcf6d991b8a3023d3fca8047a131592f9edb9fd9b89d57d9590935091905b8284106116bc5750611671945050508101602001388080611662565b855488850183015294850194879450928101926116a0565b925050506020925061167194915060ff191682840152151560051b820101388080611662565b604051906000827fa16a46d94261c7517cc8ff89f61c0ce93598e3c849801011dee649a6a557d1039182549261172f846115d6565b808452936020916001918281169081156116d4575060011461175a5750505061167192500383611521565b60009081527f5f9ce34815f8e11431c7bb75a8e6886a91478f7ffc1dbb0a98dc240fddd76b759590935091905b8284106117a35750611671945050508101602001388080611662565b85548885018301529485019487945092810192611787565b906040519182600082546117ce816115d6565b9081845260209460019160018116908160001461183b57506001146117fc5750505061167192500383611521565b600090815285812095935091905b8183106118235750506116719350820101388080611662565b8554888401850152948501948794509183019161180a565b9250505061167194925060ff191682840152151560051b820101388080611662565b9181601f840112156101335782359167ffffffffffffffff8311610133576020838186019501011161013357565b80600052600080516020611ea983398151915260205260406000203360005260205260ff6040600020541615610d675750565b6001600160a01b031660008181527f852acfdbd338e0da117a74b68467ee9617605c8469f7ce48961a1a5229d6e83860205260408120549091907f1a6838efa4183e08fe3607359d1259272af9d4716f65e1a7b5921f78fd5a3c6a90600080516020611ea98339815191529060ff1661197a578184526020526040832082845260205260408320600160ff198254161790557f2f8788117e7eff1d82e926ec794901d17c78024a50270940304540a733656f0d339380a4600190565b50505090565b6001600160a01b031660008181527f9469a29198efc966024e165efb801c8f2366b78a1c73841aee561d08e7eaddce60205260408120549091907fa615a8afb6fffcb8c6809ac0997b5c9c12b8cc97651150f14c8f6203168cff4c90600080516020611ea98339815191529060ff1661197a578184526020526040832082845260205260408320600160ff198254161790557f2f8788117e7eff1d82e926ec794901d17c78024a50270940304540a733656f0d339380a4600190565b6001600160a01b031660008181527fce0a916639b3a4006e30a06fd5dc76c40e42b16cc285f6f5137157c7432718a760205260408120549091907fa67a057d728d16e162a15912cbf6e8d4fcd69e5b7b0d1f849a0a10ca6e14741c90600080516020611ea98339815191529060ff1661197a578184526020526040832082845260205260408320600160ff198254161790557f2f8788117e7eff1d82e926ec794901d17c78024a50270940304540a733656f0d339380a4600190565b90600091808352600080516020611ea9833981519152806020526001600160a01b036040852093169283855260205260ff6040852054161560001461197a578184526020526040832082845260205260408320600160ff198254161790557f2f8788117e7eff1d82e926ec794901d17c78024a50270940304540a733656f0d339380a4600190565b90600091808352600080516020611ea9833981519152806020526001600160a01b036040852093169283855260205260ff60408520541660001461197a57818452602052604083208284526020526040832060ff1981541690557ff6391f5c32d9c69d2a47ea670b442974b53935d1edc7fd64eb21e047a839171b339380a4600190565b60ff7ff0c57e16840df040f15088dc2f81fe391c3923bec73e23a9662efc9c229c6a005460401c1615611c3357565b604051631afcd79f60e31b8152600490fd5b8151919060418303611c7657611c6f92506020820151906060604084015193015160001a90611d06565b9192909190565b505060009160029190565b6004811015611cf05780611c93575050565b60018103611cad5760405163f645eedf60e01b8152600490fd5b60028103611cce5760405163fce698f760e01b815260048101839052602490fd5b600314611cd85750565b602490604051906335e2f38360e21b82526004820152fd5b634e487b7160e01b600052602160045260246000fd5b91907f7fffffffffffffffffffffffffffffff5d576e7357a4501ddfe92f46681b20a08411611d8a57926020929160ff608095604051948552168484015260408301526060820152600092839182805260015afa15611d7e5780516001600160a01b03811615611d7557918190565b50809160019190565b604051903d90823e3d90fd5b50505060009160039190565b90611dbd5750805115611dab57602081519101fd5b60405163d6bda27560e01b8152600490fd5b81511580611df0575b611dce575090565b604051639996b31560e01b81526001600160a01b039091166004820152602490fd5b50803b15611dc6565b611e01611610565b8051908115611e11576020012090565b50507fa16a46d94261c7517cc8ff89f61c0ce93598e3c849801011dee649a6a557d100548015611e3e5790565b507fc5d2460186f7233c927e7db2dcc703c0e500b653ca82273b7bfad8045d85a47090565b611e6b6116fa565b8051908115611e7b576020012090565b50507fa16a46d94261c7517cc8ff89f61c0ce93598e3c849801011dee649a6a557d101548015611e3e579056fe02dd7bc7dec4dceedda775e58dd541e08a116c6c53815c0bd028192f7b626800a26469706673582212203995e33e10ef50827e43ed67cd28b0c5a8443fe962702485ac35ba86f1bc391d64736f6c63430008180033",
  "linkReferences": {},
  "deployedLinkReferences": {}
}