{"abi":[{"type":"constructor","inputs":[{"name":"_admin","type":"address","internalType":"address"},{"name":"_executor","type":"address","internalType":"address"},{"name":"_domain","type":"uint32","internalType":"uint32"}],"stateMutability":"nonpayable"},{"type":"function","name":"admin","inputs":[],"outputs":[{"name":"","type":"address","internalType":"address"}],"stateMutability":"view"},{"type":"function","name":"domain","inputs":[],"outputs":[{"name":"","type":"uint32","internalType":"uint32"}],"stateMutability":"view"},{"type":"function","name":"executor","inputs":[],"outputs":[{"name":"","type":"address","internalType":"address"}],"stateMutability":"view"},{"type":"function","name":"kind","inputs":[],"outputs":[{"name":"","type":"uint8","internalType":"enum IRail.Kind"}],"stateMutability":"pure"},{"type":"function","name":"markRefunded","inputs":[{"name":"id","type":"bytes32","internalType":"bytes32"},{"name":"t","type":"tuple","internalType":"struct IRail.Transfer","components":[{"name":"asset","type":"address","internalType":"address"},{"name":"from","type":"address","internalType":"address"},{"name":"to","type":"address","internalType":"address"},{"name":"amount","type":"uint256","internalType":"uint256"},{"name":"metadata","type":"bytes","internalType":"bytes"}]}],"outputs":[],"stateMutability":"nonpayable"},{"type":"function","name":"markReleased","inputs":[{"name":"id","type":"bytes32","internalType":"bytes32"},{"name":"t","type":"tuple","internalType":"struct IRail.Transfer","components":[{"name":"asset","type":"address","internalType":"address"},{"name":"from","type":"address","internalType":"address"},{"name":"to","type":"address","internalType":"address"},{"name":"amount","type":"uint256","internalType":"uint256"},{"name":"metadata","type":"bytes","internalType":"bytes"}]}],"outputs":[],"stateMutability":"nonpayable"},{"type":"function","name":"prepare","inputs":[{"name":"t","type":"tuple","internalType":"struct IRail.Transfer","components":[{"name":"asset","type":"address","internalType":"address"},{"name":"from","type":"address","internalType":"address"},{"name":"to","type":"address","internalType":"address"},{"name":"amount","type":"uint256","internalType":"uint256"},{"name":"metadata","type":"bytes","internalType":"bytes"}]}],"outputs":[],"stateMutability":"payable"},{"type":"function","name":"refund","inputs":[{"name":"","type":"bytes32","internalType":"bytes32"},{"name":"","type":"tuple","internalType":"struct IRail.Transfer","components":[{"name":"asset","type":"address","internalType":"address"},{"name":"from","type":"address","internalType":"address"},{"name":"to","type":"address","internalType":"address"},{"name":"amount","type":"uint256","internalType":"uint256"},{"name":"metadata","type":"bytes","internalType":"bytes"}]}],"outputs":[],"stateMutability":"nonpayable"},{"type":"function","name":"release","inputs":[{"name":"","type":"bytes32","internalType":"bytes32"},{"name":"","type":"tuple","internalType":"struct IRail.Transfer","components":[{"name":"asset","type":"address","internalType":"address"},{"name":"from","type":"address","internalType":"address"},{"name":"to","type":"address","internalType":"address"},{"name":"amount","type":"uint256","internalType":"uint256"},{"name":"metadata","type":"bytes","internalType":"bytes"}]}],"outputs":[],"stateMutability":"nonpayable"},{"type":"function","name":"setDomain","inputs":[{"name":"d","type":"uint32","internalType":"uint32"}],"outputs":[],"stateMutability":"nonpayable"},{"type":"function","name":"setExecutor","inputs":[{"name":"e","type":"address","internalType":"address"}],"outputs":[],"stateMutability":"nonpayable"},{"type":"function","name":"status","inputs":[{"name":"id","type":"bytes32","internalType":"bytes32"}],"outputs":[{"name":"","type":"uint8","internalType":"enum IRail.Status"}],"stateMutability":"view"},{"type":"function","name":"transferId","inputs":[{"name":"t","type":"tuple","internalType":"struct IRail.Transfer","components":[{"name":"asset","type":"address","internalType":"address"},{"name":"from","type":"address","internalType":"address"},{"name":"to","type":"address","internalType":"address"},{"name":"amount","type":"uint256","internalType":"uint256"},{"name":"metadata","type":"bytes","internalType":"bytes"}]}],"outputs":[{"name":"","type":"bytes32","internalType":"bytes32"}],"stateMutability":"pure"},{"type":"event","name":"DomainSet","inputs":[{"name":"domain","type":"uint32","indexed":false,"internalType":"uint32"}],"anonymous":false},{"type":"event","name":"ExecutorSet","inputs":[{"name":"executor","type":"address","indexed":true,"internalType":"address"}],"anonymous":false},{"type":"event","name":"RailCancelled","inputs":[{"name":"id","type":"bytes32","indexed":true,"internalType":"bytes32"}],"anonymous":false},{"type":"event","name":"RailPrepared","inputs":[{"name":"id","type":"bytes32","indexed":true,"internalType":"bytes32"},{"name":"from","type":"address","indexed":true,"internalType":"address"},{"name":"to","type":"address","indexed":true,"internalType":"address"},{"name":"asset","type":"address","indexed":false,"internalType":"address"},{"name":"amount","type":"uint256","indexed":false,"internalType":"uint256"}],"anonymous":false},{"type":"event","name":"RailRefunded","inputs":[{"name":"id","type":"bytes32","indexed":true,"internalType":"bytes32"},{"name":"to","type":"address","indexed":true,"internalType":"address"},{"name":"asset","type":"address","indexed":false,"internalType":"address"},{"name":"amount","type":"uint256","indexed":false,"internalType":"uint256"}],"anonymous":false},{"type":"event","name":"RailReleased","inputs":[{"name":"id","type":"bytes32","indexed":true,"internalType":"bytes32"},{"name":"to","type":"address","indexed":true,"internalType":"address"},{"name":"asset","type":"address","indexed":false,"internalType":"address"},{"name":"amount","type":"uint256","indexed":false,"internalType":"uint256"}],"anonymous":false}],"bytecode":{"object":"0x60803461010157601f610dd738819003918201601f19168301916001600160401b0383118484101761010657808492606094604052833981010312610101576100478161011c565b60406100556020840161011c565b9201519063ffffffff82168203610101576001600160a01b03908116801515806100f6575b156100c757600080546001600160a01b031916919091179055600180546001600160c01b031916919093161760a09190911b63ffffffff60a01b16179055604051610ca690816101318239f35b60405162461bcd60e51b81526020600482015260076024820152660434354503a20360cc1b6044820152606490fd5b50818416151561007a565b600080fd5b634e487b7160e01b600052604160045260246000fd5b51906001600160a01b03821682036101015756fe608060408181526004918236101561001657600080fd5b600092833560e01c91826304baa00b146108cb5750816307c150e71461080c57816308432d57146106845781631c3c0ea8146105695781634dd6e2b51461054757816352ad0d5e146104c657816359b6b1031461039657816390ee1dfa14610310578163bf8d223414610235578163c2fb26a6146101ef578163c34c08e51461019c578163cfcb5b1b14610107575063f851a440146100b457600080fd5b3461010357817ffffffffffffffffffffffffffffffffffffffffffffffffffffffffffffffffc3601126101035773ffffffffffffffffffffffffffffffffffffffff60209254169051908152f35b5080fd5b919050346101985760209061014173ffffffffffffffffffffffffffffffffffffffff60649561013636610904565b505054163314610a98565b51917f08c379a0000000000000000000000000000000000000000000000000000000008352820152601660248201527f434354503a20757365206d61726b526566756e646564000000000000000000006044820152fd5b8280fd5b50503461010357817ffffffffffffffffffffffffffffffffffffffffffffffffffffffffffffffffc3601126101035760209073ffffffffffffffffffffffffffffffffffffffff600154169051908152f35b50503461010357817ffffffffffffffffffffffffffffffffffffffffffffffffffffffffffffffffc3601126101035760209063ffffffff60015460a01c169051908152f35b9050346101985760207ffffffffffffffffffffffffffffffffffffffffffffffffffffffffffffffffc360112610198573563ffffffff811680820361030c577fc7be9211ec952c9e28c7dcfa4006637b033650e4b706a83f53aab6e4f18f5d41926020926102bc73ffffffffffffffffffffffffffffffffffffffff8754163314610a98565b7fffffffffffffffff00000000ffffffffffffffffffffffffffffffffffffffff77ffffffff00000000000000000000000000000000000000006001549260a01b1691161760015551908152a180f35b8380fd5b919050346101985760209061033f73ffffffffffffffffffffffffffffffffffffffff60649561013636610904565b51917f08c379a0000000000000000000000000000000000000000000000000000000008352820152601660248201527f434354503a20757365206d61726b52656c6561736564000000000000000000006044820152fd5b838334610103576103a636610904565b9173ffffffffffffffffffffffffffffffffffffffff906103cc826001541633146109ad565b828552600260205260ff8186205416600581101561049a579061041360017f368c9a8588242d513faa21c32bf5aaee15ee1150a43690313e009727607c71d3949314610a12565b838652600260205280862060037fffffffffffffffffffffffffffffffffffffffffffffffffffffffffffffff0082541617905561049461045660208701610a77565b91606061046288610a77565b915173ffffffffffffffffffffffffffffffffffffffff90921682529096013560208701529116939081906040820190565b0390a380f35b6024866021897f4e487b7100000000000000000000000000000000000000000000000000000000835252fd5b8383346101035760207ffffffffffffffffffffffffffffffffffffffffffffffffffffffffffffffffc3601126101035782358252600260205260ff8183205416905191600582101561051b57602083838152f35b806021857f4e487b71000000000000000000000000000000000000000000000000000000006024945252fd5b5050346101035760209061056261055d3661095d565b610afd565b9051908152f35b9050346101985760207ffffffffffffffffffffffffffffffffffffffffffffffffffffffffffffffffc3601126101985780359173ffffffffffffffffffffffffffffffffffffffff808416809403610680576105ca908554163314610a98565b8215610623575050807fffffffffffffffffffffffff000000000000000000000000000000000000000060015416176001557f3e3c5e6d5b512eaa5d5a80669846cfbaf8bde70fc6f7a3be9828cffc9ba5f1db8280a280f35b90602060649251917f08c379a0000000000000000000000000000000000000000000000000000000008352820152600760248201527f434354503a2030000000000000000000000000000000000000000000000000006044820152fd5b8480fd5b905061068f3661095d565b9061069982610afd565b90818552600260205260ff848620541660058110156107e0576107835750808452600260205282842060017fffffffffffffffffffffffffffffffffffffffffffffffffffffffffffffff008254161790557f10876f5ef21c4a7c28973a179a5d95ec8815150f2fbf9c39ba9c73132d2589da61071860208401610a77565b93610724818501610a77565b61077d61073086610a77565b606073ffffffffffffffffffffffffffffffffffffffff80955195869516991697013590836020909392919373ffffffffffffffffffffffffffffffffffffffff60408201951681520152565b0390a480f35b60649060208551917f08c379a0000000000000000000000000000000000000000000000000000000008352820152600c60248201527f434354503a2065786973747300000000000000000000000000000000000000006044820152fd5b6024866021847f4e487b7100000000000000000000000000000000000000000000000000000000835252fd5b8383346101035761081c36610904565b9173ffffffffffffffffffffffffffffffffffffffff90610842826001541633146109ad565b828552600260205260ff8186205416600581101561049a579061088960017fd246ccc6c6f9471c400e2ef416699d6cef45c429f224da93084d39b3f807286b949314610a12565b838652600260205280862060027fffffffffffffffffffffffffffffffffffffffffffffffffffffffffffffff00825416179055610494610456828701610a77565b84903461010357817ffffffffffffffffffffffffffffffffffffffffffffffffffffffffffffffffc3601126101035780600260209252f35b907ffffffffffffffffffffffffffffffffffffffffffffffffffffffffffffffffc60408184011261095857600435926024359167ffffffffffffffff8311610958578260a0920301126109585760040190565b600080fd5b7ffffffffffffffffffffffffffffffffffffffffffffffffffffffffffffffffc90602082820112610958576004359167ffffffffffffffff8311610958578260a0920301126109585760040190565b156109b457565b60646040517f08c379a000000000000000000000000000000000000000000000000000000000815260206004820152600e60248201527f434354503a206e6f7420657865630000000000000000000000000000000000006044820152fd5b15610a1957565b60646040517f08c379a000000000000000000000000000000000000000000000000000000000815260206004820152600f60248201527f434354503a2062616420737461746500000000000000000000000000000000006044820152fd5b3573ffffffffffffffffffffffffffffffffffffffff811681036109585790565b15610a9f57565b60646040517f08c379a000000000000000000000000000000000000000000000000000000000815260206004820152600f60248201527f434354503a206e6f742061646d696e00000000000000000000000000000000006044820152fd5b610b0960208201610a77565b90610b1660408201610a77565b60808201357fffffffffffffffffffffffffffffffffffffffffffffffffffffffffffffffe1833603018112156109585782019081359067ffffffffffffffff928383116109585760200190823603821361095857606094601f93600061013f94604051988994602086019b60a08d52600460c08801527f434354500000000000000000000000000000000000000000000000000000000060e08801526101009773ffffffffffffffffffffffffffffffffffffffff809216604089015216828701520135608085015260e060a0850152828585015282610120918286013782840101527fffffffffffffffffffffffffffffffffffffffffffffffffffffffffffffffe094859101168101039081018552011682019082821090821117610c415760405251902090565b7f4e487b7100000000000000000000000000000000000000000000000000000000600052604160045260246000fdfea26469706673582212201d40bac9828fefdedf6f4bae543152b3806ed7213f868b537a66aed1fe6f1aaf64736f6c63430008180033","linkReferences":{}},"methodIdentifiers":{"admin()":"f851a440","domain()":"c2fb26a6","executor()":"c34c08e5","kind()":"04baa00b","markRefunded(bytes32,(address,address,address,uint256,bytes))":"59b6b103","markReleased(bytes32,(address,address,address,uint256,bytes))":"07c150e7","prepare((address,address,address,uint256,bytes))":"08432d57","refund(bytes32,(address,address,address,uint256,bytes))":"cfcb5b1b","release(bytes32,(address,address,address,uint256,bytes))":"90ee1dfa","setDomain(uint32)":"bf8d2234","setExecutor(address)":"1c3c0ea8","status(bytes32)":"52ad0d5e","transferId((address,address,address,uint256,bytes))":"4dd6e2b5"},"id":34}