{
  "_format": "hh-sol-artifact-1",
  "contractName": "AttestationOracle",
  "sourceName": "contracts/oracle/AttestationOracle.sol",
  "abi": [
    {
      "inputs": [
        {
          "internalType": "address",
          "name": "admin",
          "type": "address"
        }
      ],
      "stateMutability": "nonpayable",
      "type": "constructor"
    },
    {
      "inputs": [],
      "name": "AccessControlBadConfirmation",
      "type": "error"
    },
    {
      "inputs": [
        {
          "internalType": "address",
          "name": "account",
          "type": "address"
        },
        {
          "internalType": "bytes32",
          "name": "neededRole",
          "type": "bytes32"
        }
      ],
      "name": "AccessControlUnauthorizedAccount",
      "type": "error"
    },
    {
      "anonymous": false,
      "inputs": [
        {
          "indexed": true,
          "internalType": "bytes32",
          "name": "reserveId",
          "type": "bytes32"
        },
        {
          "indexed": false,
          "internalType": "uint8",
          "name": "threshold",
          "type": "uint8"
        },
        {
          "indexed": false,
          "internalType": "address[]",
          "name": "signers",
          "type": "address[]"
        }
      ],
      "name": "QuorumSet",
      "type": "event"
    },
    {
      "anonymous": false,
      "inputs": [
        {
          "indexed": true,
          "internalType": "bytes32",
          "name": "reserveId",
          "type": "bytes32"
        },
        {
          "indexed": false,
          "internalType": "uint256",
          "name": "timestamp",
          "type": "uint256"
        },
        {
          "indexed": false,
          "internalType": "uint256",
          "name": "liabilities",
          "type": "uint256"
        },
        {
          "indexed": false,
          "internalType": "uint256",
          "name": "reserves",
          "type": "uint256"
        },
        {
          "indexed": false,
          "internalType": "string",
          "name": "uri",
          "type": "string"
        }
      ],
      "name": "ReportSubmitted",
      "type": "event"
    },
    {
      "anonymous": false,
      "inputs": [
        {
          "indexed": true,
          "internalType": "bytes32",
          "name": "role",
          "type": "bytes32"
        },
        {
          "indexed": true,
          "internalType": "bytes32",
          "name": "previousAdminRole",
          "type": "bytes32"
        },
        {
          "indexed": true,
          "internalType": "bytes32",
          "name": "newAdminRole",
          "type": "bytes32"
        }
      ],
      "name": "RoleAdminChanged",
      "type": "event"
    },
    {
      "anonymous": false,
      "inputs": [
        {
          "indexed": true,
          "internalType": "bytes32",
          "name": "role",
          "type": "bytes32"
        },
        {
          "indexed": true,
          "internalType": "address",
          "name": "account",
          "type": "address"
        },
        {
          "indexed": true,
          "internalType": "address",
          "name": "sender",
          "type": "address"
        }
      ],
      "name": "RoleGranted",
      "type": "event"
    },
    {
      "anonymous": false,
      "inputs": [
        {
          "indexed": true,
          "internalType": "bytes32",
          "name": "role",
          "type": "bytes32"
        },
        {
          "indexed": true,
          "internalType": "address",
          "name": "account",
          "type": "address"
        },
        {
          "indexed": true,
          "internalType": "address",
          "name": "sender",
          "type": "address"
        }
      ],
      "name": "RoleRevoked",
      "type": "event"
    },
    {
      "inputs": [],
      "name": "DEFAULT_ADMIN_ROLE",
      "outputs": [
        {
          "internalType": "bytes32",
          "name": "",
          "type": "bytes32"
        }
      ],
      "stateMutability": "view",
      "type": "function"
    },
    {
      "inputs": [
        {
          "internalType": "bytes32",
          "name": "role",
          "type": "bytes32"
        }
      ],
      "name": "getRoleAdmin",
      "outputs": [
        {
          "internalType": "bytes32",
          "name": "",
          "type": "bytes32"
        }
      ],
      "stateMutability": "view",
      "type": "function"
    },
    {
      "inputs": [
        {
          "internalType": "bytes32",
          "name": "role",
          "type": "bytes32"
        },
        {
          "internalType": "address",
          "name": "account",
          "type": "address"
        }
      ],
      "name": "grantRole",
      "outputs": [],
      "stateMutability": "nonpayable",
      "type": "function"
    },
    {
      "inputs": [
        {
          "internalType": "bytes32",
          "name": "reserveId",
          "type": "bytes32"
        }
      ],
      "name": "hasQuorum",
      "outputs": [
        {
          "internalType": "bool",
          "name": "",
          "type": "bool"
        }
      ],
      "stateMutability": "view",
      "type": "function"
    },
    {
      "inputs": [
        {
          "internalType": "bytes32",
          "name": "role",
          "type": "bytes32"
        },
        {
          "internalType": "address",
          "name": "account",
          "type": "address"
        }
      ],
      "name": "hasRole",
      "outputs": [
        {
          "internalType": "bool",
          "name": "",
          "type": "bool"
        }
      ],
      "stateMutability": "view",
      "type": "function"
    },
    {
      "inputs": [
        {
          "internalType": "bytes32",
          "name": "reserveId",
          "type": "bytes32"
        }
      ],
      "name": "latest",
      "outputs": [
        {
          "components": [
            {
              "internalType": "bytes32",
              "name": "reserveId",
              "type": "bytes32"
            },
            {
              "internalType": "uint256",
              "name": "timestamp",
              "type": "uint256"
            },
            {
              "internalType": "uint256",
              "name": "totalLiabilities",
              "type": "uint256"
            },
            {
              "internalType": "uint256",
              "name": "totalReserves",
              "type": "uint256"
            },
            {
              "internalType": "string",
              "name": "uri",
              "type": "string"
            },
            {
              "internalType": "bytes",
              "name": "auditorSig",
              "type": "bytes"
            }
          ],
          "internalType": "struct IAttestationOracle.ReserveReport",
          "name": "ok",
          "type": "tuple"
        },
        {
          "internalType": "bool",
          "name": "exists",
          "type": "bool"
        }
      ],
      "stateMutability": "view",
      "type": "function"
    },
    {
      "inputs": [
        {
          "internalType": "bytes32",
          "name": "role",
          "type": "bytes32"
        },
        {
          "internalType": "address",
          "name": "callerConfirmation",
          "type": "address"
        }
      ],
      "name": "renounceRole",
      "outputs": [],
      "stateMutability": "nonpayable",
      "type": "function"
    },
    {
      "inputs": [
        {
          "internalType": "bytes32",
          "name": "role",
          "type": "bytes32"
        },
        {
          "internalType": "address",
          "name": "account",
          "type": "address"
        }
      ],
      "name": "revokeRole",
      "outputs": [],
      "stateMutability": "nonpayable",
      "type": "function"
    },
    {
      "inputs": [
        {
          "internalType": "bytes32",
          "name": "reserveId",
          "type": "bytes32"
        },
        {
          "internalType": "uint8",
          "name": "threshold",
          "type": "uint8"
        },
        {
          "internalType": "address[]",
          "name": "signers",
          "type": "address[]"
        }
      ],
      "name": "setQuorum",
      "outputs": [],
      "stateMutability": "nonpayable",
      "type": "function"
    },
    {
      "inputs": [
        {
          "components": [
            {
              "internalType": "bytes32",
              "name": "reserveId",
              "type": "bytes32"
            },
            {
              "internalType": "uint256",
              "name": "timestamp",
              "type": "uint256"
            },
            {
              "internalType": "uint256",
              "name": "totalLiabilities",
              "type": "uint256"
            },
            {
              "internalType": "uint256",
              "name": "totalReserves",
              "type": "uint256"
            },
            {
              "internalType": "string",
              "name": "uri",
              "type": "string"
            },
            {
              "internalType": "bytes",
              "name": "auditorSig",
              "type": "bytes"
            }
          ],
          "internalType": "struct IAttestationOracle.ReserveReport",
          "name": "rr",
          "type": "tuple"
        },
        {
          "internalType": "address[]",
          "name": "signersApproved",
          "type": "address[]"
        }
      ],
      "name": "submit",
      "outputs": [],
      "stateMutability": "nonpayable",
      "type": "function"
    },
    {
      "inputs": [
        {
          "internalType": "bytes4",
          "name": "interfaceId",
          "type": "bytes4"
        }
      ],
      "name": "supportsInterface",
      "outputs": [
        {
          "internalType": "bool",
          "name": "",
          "type": "bool"
        }
      ],
      "stateMutability": "view",
      "type": "function"
    }
  ],
  "bytecode": "0x60803461007257601f61105a38819003918201601f19168301916001600160401b038311848410176100775780849260209460405283398101031261007257516001600160a01b0381168103610072578061005c6100629261008d565b5061012d565b50604051610e7190816101c98239f35b600080fd5b634e487b7160e01b600052604160045260246000fd5b6001600160a01b031660008181527f5cbfc8ee58ca47855df7bcf648dd304ddb6b932f9b87878bdf6318d7ec7ee5b760205260408120549091907fdf8b4c520ffe197c5343c6f5aec59570151ef9a492f2c624fd45ddde6135ec429060ff1661012857808352826020526040832082845260205260408320600160ff1982541617905560008051602061103a833981519152339380a4600190565b505090565b6001600160a01b031660008181527f56e5822e13686eaa5c46cfa39933133a22208a18ec41a20857fad3e26619a2a860205260408120549091907f352d05fe3946dbe49277552ba941e744d5a96d9c60bc1ba0ea5f1d3ae000f7c89060ff1661012857808352826020526040832082845260205260408320600160ff1982541617905560008051602061103a833981519152339380a460019056fe608080604052600436101561001357600080fd5b60003560e01c90816301ffc9a714610a6d575080630e9b1dfb1461061e578063248a9ca3146105ef578063296a8eff146103215780632f2ff15d146102e257806336568abe1461029b57806379feb1071461017957806391d148541461012b578063a217fddf1461010f578063bfcdc55e146100de5763d547741f1461009857600080fd5b346100d95760403660031901126100d9576100d76004356100b7610af1565b908060005260006020526100d2600160406000200154610d20565b610dc5565b005b600080fd5b346100d95760203660031901126100d9576004356000526002602052602060ff604060002054161515604051908152f35b346100d95760003660031901126100d957602060405160008152f35b346100d95760403660031901126100d957610144610af1565b60043560005260006020526001600160a01b0360406000209116600052602052602060ff604060002054166040519015158152f35b346100d95760203660031901126100d957606060a060405161019a81610c4c565b6000815260006020820152600060408201526000838201528260808201520152600435600052600160205260406000206040516101d681610c4c565b8154815260018201549160208201928352610291600561027e6002840154936040860194855260038101546060870190815261023e60405192610227846102208160048501610c8a565b0385610c68565b608089019384526102206040518097819301610c8a565b60a08701938452875115159560405198899860408a525160408a01525160608901525160808801525160a08701525160c080870152610100860190610b07565b9051848203603f190160e0860152610b07565b9060208301520390f35b346100d95760403660031901126100d9576102b4610af1565b336001600160a01b038216036102d0576100d790600435610dc5565b60405163334bd91960e11b8152600490fd5b346100d95760403660031901126100d9576100d7600435610301610af1565b9080600052600060205261031c600160406000200154610d20565b610d46565b346100d95760603660031901126100d95760043560243560ff81168091036100d95767ffffffffffffffff6044358181116100d957610364903690600401610ac0565b3360009081527f5cbfc8ee58ca47855df7bcf648dd304ddb6b932f9b87878bdf6318d7ec7ee5b760209081526040909120549293927fdf8b4c520ffe197c5343c6f5aec59570151ef9a492f2c624fd45ddde6135ec429060ff16156105d15750841515806105c7575b156105965785600052600281526040600020926000936001948592838084019260028501955b61055b575b5050851161054557680100000000000000008511610545578054858255808610610528575b50869594939590600052856000209060005b8581106105085750505060ff1990878282541617905560005b8381106104ca575050508060405195604087019087526040858801525260608501939260005b82811061049e57877f26156b49492fd8c6d2f06dbc04b5a5e7bd1994b8fdaf45d4bc2a9b3b74575ef988880389a2005b90919293948535906001600160a01b0382168092036100d957908152820194820193929190830161046e565b93846001600160a01b036104ea6104e58798859a988c610b47565b610b6d565b16600052838552604060002082848254161790550194939294610448565b95879596819861051784610b6d565b93019281850155019695949661042f565b61053f908260005286866000209182019101610bee565b8961041d565b634e487b7160e01b600052604160045260246000fd5b83548110156105915760008481528781208201546001600160a01b0316815286885260409020805460ff191690558101816103f3565b6103f8565b6064906040519062461bcd60e51b82526004820152600a6024820152696261642071756f72756d60b01b6044820152fd5b50818511156103cd565b6044906040519063e2517d3f60e01b82523360048301526024820152fd5b346100d95760203660031901126100d95760043560005260006020526020600160406000200154604051908152f35b346100d9576003196040368201126100d95767ffffffffffffffff600435116100d95760c090600435360301126100d95760243567ffffffffffffffff81116100d95761066f903690600401610ac0565b3360009081527f56e5822e13686eaa5c46cfa39933133a22208a18ec41a20857fad3e26619a2a8602052604090205460ff907f352d05fe3946dbe49277552ba941e744d5a96d9c60bc1ba0ea5f1d3ae000f7c8908216156105d1575060043560040135600052600260205260406000209060ff825416938415610a3c5791600093600260009201915b8181106109e0578686106109ad57600435600401356000526001602052604060002060043560040135815560246004350135600182015560446004350135600282015560646004350135600382015561075b608460043501600435600401610b81565b919067ffffffffffffffff8311610545576107868361077d6004850154610bb4565b60048501610c05565b600090601f841160011461093b5792806107ba92600595600092610930575b50508160011b916000199060031b1c19161790565b60048201555b016107d560a460043501600435600401610b81565b67ffffffffffffffff8193929311610545576107fb816107f58454610bb4565b84610c05565b6000601f82116001146108cb57819061082b93946000926108c05750508160011b916000199060031b1c19161790565b90555b7f2c10f6d97187b26af528400ec603fd96b0f99a882b762aa0d16c3c9551ffee32610863608460043501600435600401610b81565b919082604051916024600435013583526044600435013560208401526064600435013560408401526080606084015281608084015260a0830137600060a0848301015260a0816004356004013594601f80199101168101030190a2005b0135905084806107a5565b601f198216938360005260206000209160005b86811061091857508360019596106108fe575b505050811b01905561082e565b0135600019600384901b60f8161c191690558380806108f1565b909260206001819286860135815501940191016108de565b0135905085806107a5565b6004830160005260206000209160005b601f19861681106109955750918491600193600596601f1981161061097b575b505050811b0160048201556107c0565b0135600019600384901b60f8161c1916905584808061096b565b9092602060018192868601358155019401910161094b565b60405162461bcd60e51b815260206004820152600b60248201526a1c5d5bdc9d5b4819985a5b60aa1b6044820152606490fd5b6001600160a01b036109f66104e5838589610b47565b16600052826020528360406000205416610a13575b6001016106f8565b946000198114610a265760010194610a0b565b634e487b7160e01b600052601160045260246000fd5b60405162461bcd60e51b81526020600482015260096024820152686e6f2071756f72756d60b81b6044820152606490fd5b346100d95760203660031901126100d9576004359063ffffffff60e01b82168092036100d957602091637965db0b60e01b8114908115610aaf575b5015158152f35b6301ffc9a760e01b14905083610aa8565b9181601f840112156100d95782359167ffffffffffffffff83116100d9576020808501948460051b0101116100d957565b602435906001600160a01b03821682036100d957565b919082519283825260005b848110610b33575050826000602080949584010152601f8019910116010190565b602081830181015184830182015201610b12565b9190811015610b575760051b0190565b634e487b7160e01b600052603260045260246000fd5b356001600160a01b03811681036100d95790565b903590601e19813603018212156100d9570180359067ffffffffffffffff82116100d9576020019181360383136100d957565b90600182811c92168015610be4575b6020831014610bce57565b634e487b7160e01b600052602260045260246000fd5b91607f1691610bc3565b818110610bf9575050565b60008155600101610bee565b9190601f8111610c1457505050565b610c40926000526020600020906020601f840160051c83019310610c42575b601f0160051c0190610bee565b565b9091508190610c33565b60c0810190811067ffffffffffffffff82111761054557604052565b90601f8019910116810190811067ffffffffffffffff82111761054557604052565b805460009392610c9982610bb4565b91828252602093600191600181169081600014610d015750600114610cc0575b5050505050565b90939495506000929192528360002092846000945b838610610ced57505050500101903880808080610cb9565b805485870183015294019385908201610cd5565b60ff19168685015250505090151560051b010191503880808080610cb9565b80600052600060205260406000203360005260205260ff60406000205416156105d15750565b90600091808352826020526001600160a01b036040842092169182845260205260ff60408420541615600014610dc057808352826020526040832082845260205260408320600160ff198254161790557f2f8788117e7eff1d82e926ec794901d17c78024a50270940304540a733656f0d339380a4600190565b505090565b90600091808352826020526001600160a01b036040842092169182845260205260ff604084205416600014610dc05780835282602052604083208284526020526040832060ff1981541690557ff6391f5c32d9c69d2a47ea670b442974b53935d1edc7fd64eb21e047a839171b339380a460019056fea26469706673582212207519cd9e68a1fe1282a719c4f470ce2c7fb0c661d9a499a22d69dfe9fcdc59a964736f6c634300081800332f8788117e7eff1d82e926ec794901d17c78024a50270940304540a733656f0d",
  "linkReferences": {},
  "deployedLinkReferences": {}
}