{
  "_format": "hh-sol-artifact-1",
  "contractName": "OracleCommittee",
  "sourceName": "contracts/oracle/OracleCommittee.sol",
  "abi": [
    {
      "inputs": [],
      "stateMutability": "nonpayable",
      "type": "constructor"
    },
    {
      "inputs": [],
      "name": "AccessControlBadConfirmation",
      "type": "error"
    },
    {
      "inputs": [
        {
          "internalType": "address",
          "name": "account",
          "type": "address"
        },
        {
          "internalType": "bytes32",
          "name": "neededRole",
          "type": "bytes32"
        }
      ],
      "name": "AccessControlUnauthorizedAccount",
      "type": "error"
    },
    {
      "inputs": [
        {
          "internalType": "address",
          "name": "target",
          "type": "address"
        }
      ],
      "name": "AddressEmptyCode",
      "type": "error"
    },
    {
      "inputs": [],
      "name": "ECDSAInvalidSignature",
      "type": "error"
    },
    {
      "inputs": [
        {
          "internalType": "uint256",
          "name": "length",
          "type": "uint256"
        }
      ],
      "name": "ECDSAInvalidSignatureLength",
      "type": "error"
    },
    {
      "inputs": [
        {
          "internalType": "bytes32",
          "name": "s",
          "type": "bytes32"
        }
      ],
      "name": "ECDSAInvalidSignatureS",
      "type": "error"
    },
    {
      "inputs": [
        {
          "internalType": "address",
          "name": "implementation",
          "type": "address"
        }
      ],
      "name": "ERC1967InvalidImplementation",
      "type": "error"
    },
    {
      "inputs": [],
      "name": "ERC1967NonPayable",
      "type": "error"
    },
    {
      "inputs": [],
      "name": "FailedCall",
      "type": "error"
    },
    {
      "inputs": [],
      "name": "InvalidInitialization",
      "type": "error"
    },
    {
      "inputs": [],
      "name": "NotInitializing",
      "type": "error"
    },
    {
      "inputs": [],
      "name": "UUPSUnauthorizedCallContext",
      "type": "error"
    },
    {
      "inputs": [
        {
          "internalType": "bytes32",
          "name": "slot",
          "type": "bytes32"
        }
      ],
      "name": "UUPSUnsupportedProxiableUUID",
      "type": "error"
    },
    {
      "anonymous": false,
      "inputs": [
        {
          "components": [
            {
              "internalType": "uint8",
              "name": "minSigners",
              "type": "uint8"
            },
            {
              "internalType": "uint32",
              "name": "maxAge",
              "type": "uint32"
            },
            {
              "internalType": "uint32",
              "name": "disputeWindow",
              "type": "uint32"
            }
          ],
          "indexed": false,
          "internalType": "struct OracleCommittee.Config",
          "name": "cfg",
          "type": "tuple"
        }
      ],
      "name": "ConfigSet",
      "type": "event"
    },
    {
      "anonymous": false,
      "inputs": [],
      "name": "EIP712DomainChanged",
      "type": "event"
    },
    {
      "anonymous": false,
      "inputs": [
        {
          "indexed": false,
          "internalType": "uint64",
          "name": "version",
          "type": "uint64"
        }
      ],
      "name": "Initialized",
      "type": "event"
    },
    {
      "anonymous": false,
      "inputs": [
        {
          "indexed": true,
          "internalType": "bytes32",
          "name": "symbol",
          "type": "bytes32"
        },
        {
          "indexed": false,
          "internalType": "uint128",
          "name": "pxMinor",
          "type": "uint128"
        },
        {
          "indexed": false,
          "internalType": "uint64",
          "name": "asOf",
          "type": "uint64"
        },
        {
          "indexed": false,
          "internalType": "string",
          "name": "source",
          "type": "string"
        },
        {
          "indexed": false,
          "internalType": "uint8",
          "name": "uniqueSigners",
          "type": "uint8"
        }
      ],
      "name": "QuotePosted",
      "type": "event"
    },
    {
      "anonymous": false,
      "inputs": [
        {
          "indexed": true,
          "internalType": "bytes32",
          "name": "role",
          "type": "bytes32"
        },
        {
          "indexed": true,
          "internalType": "bytes32",
          "name": "previousAdminRole",
          "type": "bytes32"
        },
        {
          "indexed": true,
          "internalType": "bytes32",
          "name": "newAdminRole",
          "type": "bytes32"
        }
      ],
      "name": "RoleAdminChanged",
      "type": "event"
    },
    {
      "anonymous": false,
      "inputs": [
        {
          "indexed": true,
          "internalType": "bytes32",
          "name": "role",
          "type": "bytes32"
        },
        {
          "indexed": true,
          "internalType": "address",
          "name": "account",
          "type": "address"
        },
        {
          "indexed": true,
          "internalType": "address",
          "name": "sender",
          "type": "address"
        }
      ],
      "name": "RoleGranted",
      "type": "event"
    },
    {
      "anonymous": false,
      "inputs": [
        {
          "indexed": true,
          "internalType": "bytes32",
          "name": "role",
          "type": "bytes32"
        },
        {
          "indexed": true,
          "internalType": "address",
          "name": "account",
          "type": "address"
        },
        {
          "indexed": true,
          "internalType": "address",
          "name": "sender",
          "type": "address"
        }
      ],
      "name": "RoleRevoked",
      "type": "event"
    },
    {
      "anonymous": false,
      "inputs": [
        {
          "indexed": true,
          "internalType": "address",
          "name": "who",
          "type": "address"
        },
        {
          "indexed": false,
          "internalType": "bool",
          "name": "allowed",
          "type": "bool"
        }
      ],
      "name": "SignerSet",
      "type": "event"
    },
    {
      "anonymous": false,
      "inputs": [
        {
          "indexed": true,
          "internalType": "address",
          "name": "implementation",
          "type": "address"
        }
      ],
      "name": "Upgraded",
      "type": "event"
    },
    {
      "inputs": [],
      "name": "DEFAULT_ADMIN_ROLE",
      "outputs": [
        {
          "internalType": "bytes32",
          "name": "",
          "type": "bytes32"
        }
      ],
      "stateMutability": "view",
      "type": "function"
    },
    {
      "inputs": [],
      "name": "UPGRADE_INTERFACE_VERSION",
      "outputs": [
        {
          "internalType": "string",
          "name": "",
          "type": "string"
        }
      ],
      "stateMutability": "view",
      "type": "function"
    },
    {
      "inputs": [],
      "name": "config",
      "outputs": [
        {
          "internalType": "uint8",
          "name": "minSigners",
          "type": "uint8"
        },
        {
          "internalType": "uint32",
          "name": "maxAge",
          "type": "uint32"
        },
        {
          "internalType": "uint32",
          "name": "disputeWindow",
          "type": "uint32"
        }
      ],
      "stateMutability": "view",
      "type": "function"
    },
    {
      "inputs": [],
      "name": "eip712Domain",
      "outputs": [
        {
          "internalType": "bytes1",
          "name": "fields",
          "type": "bytes1"
        },
        {
          "internalType": "string",
          "name": "name",
          "type": "string"
        },
        {
          "internalType": "string",
          "name": "version",
          "type": "string"
        },
        {
          "internalType": "uint256",
          "name": "chainId",
          "type": "uint256"
        },
        {
          "internalType": "address",
          "name": "verifyingContract",
          "type": "address"
        },
        {
          "internalType": "bytes32",
          "name": "salt",
          "type": "bytes32"
        },
        {
          "internalType": "uint256[]",
          "name": "extensions",
          "type": "uint256[]"
        }
      ],
      "stateMutability": "view",
      "type": "function"
    },
    {
      "inputs": [
        {
          "internalType": "bytes32",
          "name": "role",
          "type": "bytes32"
        }
      ],
      "name": "getRoleAdmin",
      "outputs": [
        {
          "internalType": "bytes32",
          "name": "",
          "type": "bytes32"
        }
      ],
      "stateMutability": "view",
      "type": "function"
    },
    {
      "inputs": [
        {
          "internalType": "bytes32",
          "name": "role",
          "type": "bytes32"
        },
        {
          "internalType": "address",
          "name": "account",
          "type": "address"
        }
      ],
      "name": "grantRole",
      "outputs": [],
      "stateMutability": "nonpayable",
      "type": "function"
    },
    {
      "inputs": [
        {
          "internalType": "bytes32",
          "name": "role",
          "type": "bytes32"
        },
        {
          "internalType": "address",
          "name": "account",
          "type": "address"
        }
      ],
      "name": "hasRole",
      "outputs": [
        {
          "internalType": "bool",
          "name": "",
          "type": "bool"
        }
      ],
      "stateMutability": "view",
      "type": "function"
    },
    {
      "inputs": [
        {
          "internalType": "address",
          "name": "governor",
          "type": "address"
        },
        {
          "internalType": "uint8",
          "name": "minSigners",
          "type": "uint8"
        },
        {
          "internalType": "uint32",
          "name": "maxAgeSec",
          "type": "uint32"
        }
      ],
      "name": "initialize",
      "outputs": [],
      "stateMutability": "nonpayable",
      "type": "function"
    },
    {
      "inputs": [
        {
          "internalType": "bytes32",
          "name": "",
          "type": "bytes32"
        }
      ],
      "name": "latestBySymbol",
      "outputs": [
        {
          "internalType": "bytes32",
          "name": "symbol",
          "type": "bytes32"
        },
        {
          "internalType": "uint128",
          "name": "pxMinor",
          "type": "uint128"
        },
        {
          "internalType": "uint64",
          "name": "asOf",
          "type": "uint64"
        },
        {
          "internalType": "string",
          "name": "source",
          "type": "string"
        }
      ],
      "stateMutability": "view",
      "type": "function"
    },
    {
      "inputs": [
        {
          "components": [
            {
              "internalType": "bytes32",
              "name": "symbol",
              "type": "bytes32"
            },
            {
              "internalType": "uint128",
              "name": "pxMinor",
              "type": "uint128"
            },
            {
              "internalType": "uint64",
              "name": "asOf",
              "type": "uint64"
            },
            {
              "internalType": "string",
              "name": "source",
              "type": "string"
            }
          ],
          "internalType": "struct OracleCommittee.Quote",
          "name": "q",
          "type": "tuple"
        },
        {
          "internalType": "bytes[]",
          "name": "sigs",
          "type": "bytes[]"
        }
      ],
      "name": "postAggregate",
      "outputs": [],
      "stateMutability": "nonpayable",
      "type": "function"
    },
    {
      "inputs": [],
      "name": "proxiableUUID",
      "outputs": [
        {
          "internalType": "bytes32",
          "name": "",
          "type": "bytes32"
        }
      ],
      "stateMutability": "view",
      "type": "function"
    },
    {
      "inputs": [
        {
          "internalType": "bytes32",
          "name": "role",
          "type": "bytes32"
        },
        {
          "internalType": "address",
          "name": "callerConfirmation",
          "type": "address"
        }
      ],
      "name": "renounceRole",
      "outputs": [],
      "stateMutability": "nonpayable",
      "type": "function"
    },
    {
      "inputs": [
        {
          "internalType": "bytes32",
          "name": "role",
          "type": "bytes32"
        },
        {
          "internalType": "address",
          "name": "account",
          "type": "address"
        }
      ],
      "name": "revokeRole",
      "outputs": [],
      "stateMutability": "nonpayable",
      "type": "function"
    },
    {
      "inputs": [
        {
          "components": [
            {
              "internalType": "uint8",
              "name": "minSigners",
              "type": "uint8"
            },
            {
              "internalType": "uint32",
              "name": "maxAge",
              "type": "uint32"
            },
            {
              "internalType": "uint32",
              "name": "disputeWindow",
              "type": "uint32"
            }
          ],
          "internalType": "struct OracleCommittee.Config",
          "name": "cfg",
          "type": "tuple"
        }
      ],
      "name": "setConfig",
      "outputs": [],
      "stateMutability": "nonpayable",
      "type": "function"
    },
    {
      "inputs": [
        {
          "internalType": "address",
          "name": "who",
          "type": "address"
        },
        {
          "internalType": "bool",
          "name": "allowed",
          "type": "bool"
        }
      ],
      "name": "setSigner",
      "outputs": [],
      "stateMutability": "nonpayable",
      "type": "function"
    },
    {
      "inputs": [
        {
          "internalType": "address",
          "name": "",
          "type": "address"
        }
      ],
      "name": "signers",
      "outputs": [
        {
          "internalType": "bool",
          "name": "",
          "type": "bool"
        }
      ],
      "stateMutability": "view",
      "type": "function"
    },
    {
      "inputs": [
        {
          "internalType": "bytes4",
          "name": "interfaceId",
          "type": "bytes4"
        }
      ],
      "name": "supportsInterface",
      "outputs": [
        {
          "internalType": "bool",
          "name": "",
          "type": "bool"
        }
      ],
      "stateMutability": "view",
      "type": "function"
    },
    {
      "inputs": [
        {
          "internalType": "address",
          "name": "newImplementation",
          "type": "address"
        },
        {
          "internalType": "bytes",
          "name": "data",
          "type": "bytes"
        }
      ],
      "name": "upgradeToAndCall",
      "outputs": [],
      "stateMutability": "payable",
      "type": "function"
    }
  ],
  "bytecode": "0x60a080604052346100cc57306080527ff0c57e16840df040f15088dc2f81fe391c3923bec73e23a9662efc9c229c6a009081549060ff8260401c166100bd57506001600160401b036002600160401b031982821601610078575b6040516123a690816100d282396080518181816107d401526108870152f35b6001600160401b031990911681179091556040519081527fc7f505b2f371ae2175ee4913f4499e1f2633a7b5936321eed1cdaeb6115181d290602090a1388080610059565b63f92ee8a960e01b8152600490fd5b600080fdfe608080604052600436101561001357600080fd5b60003560e01c90816301ffc9a71461191b57508063248a9ca3146118df5780632f2ff15d1461189357806331cb61051461181357806336568abe146117cc5780634178a3d2146111a5578063443198db14610add5780634f1ef2861461083657806352d1902d146107b95780636ce61758146106b4578063736c0d5b1461067557806379502c551461063a57806384b0196e1461033f57806391d14854146102e4578063a217fddf146102c8578063a7d6331c14610182578063ad3cb1cc146101385763d547741f146100e557600080fd5b346101335760403660031901126101335761013160043561010461196e565b908060005260008051602061235183398151915260205261012c600160406000200154611c0f565b611e48565b005b600080fd5b346101335760003660031901126101335761017e604051610158816119c9565b60058152640352e302e360dc1b6020820152604051918291602083526020830190611a94565b0390f35b346101335760603660031901126101335761019b611b95565b600160ff6101a7611b72565b161015806102b2575b156102835760ff6101bf611b72565b1660ff1960005416176000556101f36101d6611b82565b64ffffffff006000549160081b169064ffffffff00191617600055565b63ffffffff60443581811681036101335768ffffffff00000000006000549160281b169068ffffffff000000000019161760005560405160043560ff811680910361013357815260243590828216809203610133577fb8512747218507dfe928cf98e24f63f9df1a15c6b46f3853d3aea42c8e6f9c6a92606092602083015261027a61199a565b166040820152a1005b60405162461bcd60e51b81526020600482015260076024820152666261645f63666760c81b6044820152606490fd5b5063ffffffff6102c0611b82565b1615156101b0565b3461013357600036600319011261013357602060405160008152f35b34610133576040366003190112610133576102fd61196e565b6004356000526000805160206123518339815191526020526001600160a01b0360406000209116600052602052602060ff604060002054166040519015158152f35b34610133576000366003190112610133577fa16a46d94261c7517cc8ff89f61c0ce93598e3c849801011dee649a6a557d100541580610611575b156105cc57604051600090600080516020612311833981519152805492826103a085611a5a565b91828252602093600196856001821691826000146105ac57505060011461054e575b506103cf925003836119e5565b60405190600082600080516020612331833981519152918254926103f284611a5a565b938484528560018216918260001461052e5750506001146104d0575b5061041b925003836119e5565b604051908082019282841067ffffffffffffffff8511176104ba57908492816104738894876040526000845261046560405197600f60f81b895260e0858a015260e0890190611a94565b908782036040890152611a94565b91466060870152306080870152600060a087015285830360c0870152519182815201949160005b8281106104a75785870386f35b835187529581019592810192840161049a565b634e487b7160e01b600052604160045260246000fd5b91505060005282827f5f9ce34815f8e11431c7bb75a8e6886a91478f7ffc1dbb0a98dc240fddd76b75876000915b85831061051557505061041b93508201018761040e565b80919294505483858901015201910183908786936104fe565b60ff19168582015261041b95151560051b850101925089915061040e9050565b91505060005282827f42ad5d3e1f2e6e70edcf6d991b8a3023d3fca8047a131592f9edb9fd9b89d57d866000915b8583106105935750506103cf9350820101866103c2565b809192945054838589010152019101839086869361057c565b60ff1916858201526103cf95151560051b85010192508891506103c29050565b60405162461bcd60e51b815260206004820152601560248201527f4549503731323a20556e696e697469616c697a656400000000000000000000006044820152606490fd5b507fa16a46d94261c7517cc8ff89f61c0ce93598e3c849801011dee649a6a557d1015415610379565b3461013357600036600319011261013357606060005463ffffffff6040519160ff81168352818160081c16602084015260281c166040820152f35b34610133576020366003190112610133576001600160a01b03610696611984565b166000526001602052602060ff604060002054166040519015158152f35b34610133576020806003193601126101335760043560005260028152604060002080546001916002600182015491019060405191856000958254926106f884611a5a565b8087529360018116908115610798575060011461075c575b828761017e8867ffffffffffffffff8961072c838f03846119e5565b60405195869586526001600160801b0382169086015260801c166040840152608060608401526080830190611a94565b600090815282812092975092915b8284106107855750505082019093019280858361017e610710565b805486850189015292870192810161076a565b60ff19168488015250505090151560051b830101935080858361017e610710565b34610133576000366003190112610133576001600160a01b037f00000000000000000000000000000000000000000000000000000000000000001630036108245760206040517f360894a13ba1a3210667c828492db98dca3e2076cc3735a920a3ca505d382bbc8152f35b60405163703e46dd60e11b8152600490fd5b60403660031901126101335761084a611984565b602490813567ffffffffffffffff811161013357366023820112156101335761087c9036908481600401359101611a23565b6001600160a01b03807f000000000000000000000000000000000000000000000000000000000000000016803014908115610aaf575b50610824573360009081527f9469a29198efc966024e165efb801c8f2366b78a1c73841aee561d08e7eaddce60209081526040909120549091907fa615a8afb6fffcb8c6809ac0997b5c9c12b8cc97651150f14c8f6203168cff4c9060ff1615610a9257508316926040516352d1902d60e01b81528281600481885afa60009181610a63575b5061095557604051634c9c8ce360e01b8152600481018690528690fd5b8490867f360894a13ba1a3210667c828492db98dca3e2076cc3735a920a3ca505d382bbc91828103610a4e5750833b15610a385750805473ffffffffffffffffffffffffffffffffffffffff191682179055604051907fbc7cd75a20ee27fd9adebab32041f755214dbc6bffa90cc0225b39da2e5c2d3b600080a2835115610a1e5750600080848461013196519101845af4903d15610a15573d6109f881611a07565b90610a0660405192836119e5565b8152600081943d92013e6122ad565b606092506122ad565b9250505034610a2957005b63b398979f60e01b8152600490fd5b604051634c9c8ce360e01b815260048101849052fd5b60405190632a87526960e21b82526004820152fd5b9091508381813d8311610a8b575b610a7b81836119e5565b8101031261013357519087610938565b503d610a71565b856044916040519163e2517d3f60e01b8352336004840152820152fd5b9050817f360894a13ba1a3210667c828492db98dca3e2076cc3735a920a3ca505d382bbc54161415856108b2565b3461013357606036600319011261013357610af6611984565b6024359060ff8216820361013357610b0c61199a565b7ff0c57e16840df040f15088dc2f81fe391c3923bec73e23a9662efc9c229c6a00549167ffffffffffffffff831680159081611195575b600114908161118b575b159081611182575b5061117057600167ffffffffffffffff198416177ff0c57e16840df040f15088dc2f81fe391c3923bec73e23a9662efc9c229c6a005560ff8360401c1615611131575b610ba0611f8d565b610ba8611f8d565b604051610bb4816119c9565b600f81527f4f7261636c65436f6d6d69747465650000000000000000000000000000000000602082015260405190610beb826119c9565b60018252603160f81b6020830152610c01611f8d565b610c09611f8d565b80519067ffffffffffffffff82116104ba57610c3360008051602061231183398151915254611a5a565b601f8111611085575b50602090601f8311600114610fe157610c6e929160009183610e86575b50508160011b916000199060031b1c19161790565b600080516020612311833981519152555b80519067ffffffffffffffff82116104ba57610ca960008051602061233183398151915254611a5a565b601f8111610f35575b50602090601f8311600114610e91579180610ce892610d509594600092610e865750508160011b916000199060031b1c19161790565b600080516020612331833981519152555b60007fa16a46d94261c7517cc8ff89f61c0ce93598e3c849801011dee649a6a557d1005560007fa16a46d94261c7517cc8ff89f61c0ce93598e3c849801011dee649a6a557d10155610d4a81611c42565b50611d04565b5060405190606082019082821067ffffffffffffffff8311176104ba57604091825260ff94851680845263ffffffff8281166020860152600093909401839052825464ffffffffff19161760089190911b64ffffffff00161790557fb8512747218507dfe928cf98e24f63f9df1a15c6b46f3853d3aea42c8e6f9c6a906060906000549068ffffffff000000000019821660005560405191868116835260081c16602082015260006040820152a160401c1615610e0957005b68ff0000000000000000197ff0c57e16840df040f15088dc2f81fe391c3923bec73e23a9662efc9c229c6a0054167ff0c57e16840df040f15088dc2f81fe391c3923bec73e23a9662efc9c229c6a00557fc7f505b2f371ae2175ee4913f4499e1f2633a7b5936321eed1cdaeb6115181d2602060405160018152a1005b015190508880610c59565b90601f198316916000805160206123318339815191526000527f5f9ce34815f8e11431c7bb75a8e6886a91478f7ffc1dbb0a98dc240fddd76b759260005b818110610f1d5750916001939185610d5097969410610f04575b505050811b0160008051602061233183398151915255610cf9565b015160001960f88460031b161c19169055878080610ee9565b92936020600181928786015181550195019301610ecf565b600080516020612331833981519152600052601f830160051c7f5f9ce34815f8e11431c7bb75a8e6886a91478f7ffc1dbb0a98dc240fddd76b750160208410610fba575b601f820160051c7f5f9ce34815f8e11431c7bb75a8e6886a91478f7ffc1dbb0a98dc240fddd76b75018110610fae5750610cb2565b60008155600101610f79565b507f5f9ce34815f8e11431c7bb75a8e6886a91478f7ffc1dbb0a98dc240fddd76b75610f79565b91906000805160206123118339815191526000527f42ad5d3e1f2e6e70edcf6d991b8a3023d3fca8047a131592f9edb9fd9b89d57d906000935b601f198416851061106a576001945083601f19811610611051575b505050811b0160008051602061231183398151915255610c7f565b015160001960f88460031b161c19169055878080611036565b8181015183556020948501946001909301929091019061101b565b600080516020612311833981519152600052601f830160051c7f42ad5d3e1f2e6e70edcf6d991b8a3023d3fca8047a131592f9edb9fd9b89d57d016020841061110a575b601f820160051c7f42ad5d3e1f2e6e70edcf6d991b8a3023d3fca8047a131592f9edb9fd9b89d57d0181106110fe5750610c3c565b600081556001016110c9565b507f42ad5d3e1f2e6e70edcf6d991b8a3023d3fca8047a131592f9edb9fd9b89d57d6110c9565b68ffffffffffffffffff19831668010000000000000001177ff0c57e16840df040f15088dc2f81fe391c3923bec73e23a9662efc9c229c6a0055610b98565b60405163f92ee8a960e01b8152600490fd5b90501585610b55565b303b159150610b4d565b604085901c60ff16159150610b43565b34610133576003196040368201126101335767ffffffffffffffff6004351161013357608090600435360301126101335767ffffffffffffffff60243511610133573660236024350112156101335767ffffffffffffffff60243560040135116101335736602480356004013560051b81350101116101335767ffffffffffffffff611235604460043501611ad4565b1642101580611797575b1561176457600061125560243560040135611ae9565b61126260405191826119e5565b6004602435013580825261127590611ae9565b601f1901366020830137604261128f602460043501611b01565b61129d604460043501611ad4565b67ffffffffffffffff6112c46112bd606460043501600435600401611b15565b3691611a23565b60208151910120916001600160801b03604051947ffc03c93507f01a0643b2d15b584cb2fb09c6fad67784628eda6df9c0065ff045602087015260043560040135604087015216606085015216608083015260a082015260a08152611328816119ad565b6020815191012061133761205e565b61133f612198565b6040519060208201927f8b73c3c69bb8fe3d512ecc4cf759cc79239f7b179b0ffacaa9a75d522b39400f8452604083015260608201524660808201523060a082015260a0815261138e816119ad565b519020906040519161190160f01b835260028301526022820152209060005b602435600401358110611694578360ff60005416811061164f576004356004013560005260026020526040600020600435600401358155600181016001600160801b036113fe602460043501611b01565b1681549077ffffffffffffffff00000000000000000000000000000000611429604460043501611ad4565b60801b169167ffffffffffffffff60c01b1617179055611453606460043501600435600401611b15565b9067ffffffffffffffff82116104ba576114706002840154611a5a565b601f8111611608575b50600090601f831160011461156e576114d98367ffffffffffffffff96947f928d43ac09817649a357cb4bf7dc864d3ae543ad441d32e53879c1dd6361331a96946002946000926115635750508160011b916000199060031b1c19161790565b9101555b60ff6114ed602460043501611b01565b916114fc604460043501611ad4565b611510606460043501600435600401611b15565b9687926001600160801b03604051971687521660208601526080604086015281608086015260a0850137600060a0868501015216606082015260a0816004356004013594601f80199101168101030190a2005b013590508880610c59565b601f198316916002850160005260206000209260005b8181106115f05750937f928d43ac09817649a357cb4bf7dc864d3ae543ad441d32e53879c1dd6361331a95936002936001938367ffffffffffffffff9a98106115d6575b505050811b019101556114dd565b0135600019600384901b60f8161c191690558780806115c8565b91936020600181928787013581550195019201611584565b600284016000526020600020601f840160051c810160208510611648575b601f830160051c8201811061163c575050611479565b60008155600101611626565b5080611626565b60405162461bcd60e51b815260206004820152600e60248201527f71756f72756d5f6e6f745f6d65740000000000000000000000000000000000006044820152606490fd5b92836116bc6116b66112bd60246116c59860051b813501016024803501611b15565b85611ecc565b90969196611f08565b6001600160a01b0391828616600052600160205260ff6040600020541615611732576000805b82811061173d575b506117325780600019811461171c5760019384611714920197169185611b48565b525b016113ad565b634e487b7160e01b600052601160045260246000fd5b945060019150611716565b8488168561174b8389611b48565b51161461175a576001016116eb565b50506001876116f3565b60405162461bcd60e51b815260206004820152600b60248201526a7374616c655f71756f746560a81b6044820152606490fd5b5067ffffffffffffffff6117af604460043501611ad4565b16420342811161171c5763ffffffff60005460081c16101561123f565b34610133576040366003190112610133576117e561196e565b336001600160a01b038216036118015761013190600435611e48565b60405163334bd91960e11b8152600490fd5b346101335760403660031901126101335761182c611984565b602435908115158092036101335760206001600160a01b037ffc4acb499491cd850a8a21ab98c7f128850c0f0e5f1a875a62b7fa055c2ecf199261186e611b95565b16928360005260018252604060002060ff1981541660ff8316179055604051908152a2005b34610133576040366003190112610133576101316004356118b261196e565b90806000526000805160206123518339815191526020526118da600160406000200154611c0f565b611dc0565b34610133576020366003190112610133576004356000526000805160206123518339815191526020526020600160406000200154604051908152f35b34610133576020366003190112610133576004359063ffffffff60e01b821680920361013357602091637965db0b60e01b811490811561195d575b5015158152f35b6301ffc9a760e01b14905083611956565b602435906001600160a01b038216820361013357565b600435906001600160a01b038216820361013357565b6044359063ffffffff8216820361013357565b60c0810190811067ffffffffffffffff8211176104ba57604052565b6040810190811067ffffffffffffffff8211176104ba57604052565b90601f8019910116810190811067ffffffffffffffff8211176104ba57604052565b67ffffffffffffffff81116104ba57601f01601f191660200190565b929192611a2f82611a07565b91611a3d60405193846119e5565b829481845281830111610133578281602093846000960137010152565b90600182811c92168015611a8a575b6020831014611a7457565b634e487b7160e01b600052602260045260246000fd5b91607f1691611a69565b919082519283825260005b848110611ac0575050826000602080949584010152601f8019910116010190565b602081830181015184830182015201611a9f565b3567ffffffffffffffff811681036101335790565b67ffffffffffffffff81116104ba5760051b60200190565b356001600160801b03811681036101335790565b903590601e1981360301821215610133570180359067ffffffffffffffff82116101335760200191813603831361013357565b8051821015611b5c5760209160051b010190565b634e487b7160e01b600052603260045260246000fd5b60043560ff811681036101335790565b60243563ffffffff811681036101335790565b3360009081527f852acfdbd338e0da117a74b68467ee9617605c8469f7ce48961a1a5229d6e83860205260409020547f1a6838efa4183e08fe3607359d1259272af9d4716f65e1a7b5921f78fd5a3c6a9060ff1615611bf15750565b6044906040519063e2517d3f60e01b82523360048301526024820152fd5b8060005260008051602061235183398151915260205260406000203360005260205260ff6040600020541615611bf15750565b6001600160a01b031660008181527f852acfdbd338e0da117a74b68467ee9617605c8469f7ce48961a1a5229d6e83860205260408120549091907f1a6838efa4183e08fe3607359d1259272af9d4716f65e1a7b5921f78fd5a3c6a906000805160206123518339815191529060ff16611cfe578184526020526040832082845260205260408320600160ff198254161790557f2f8788117e7eff1d82e926ec794901d17c78024a50270940304540a733656f0d339380a4600190565b50505090565b6001600160a01b031660008181527f9469a29198efc966024e165efb801c8f2366b78a1c73841aee561d08e7eaddce60205260408120549091907fa615a8afb6fffcb8c6809ac0997b5c9c12b8cc97651150f14c8f6203168cff4c906000805160206123518339815191529060ff16611cfe578184526020526040832082845260205260408320600160ff198254161790557f2f8788117e7eff1d82e926ec794901d17c78024a50270940304540a733656f0d339380a4600190565b90600091808352600080516020612351833981519152806020526001600160a01b036040852093169283855260205260ff60408520541615600014611cfe578184526020526040832082845260205260408320600160ff198254161790557f2f8788117e7eff1d82e926ec794901d17c78024a50270940304540a733656f0d339380a4600190565b90600091808352600080516020612351833981519152806020526001600160a01b036040852093169283855260205260ff604085205416600014611cfe57818452602052604083208284526020526040832060ff1981541690557ff6391f5c32d9c69d2a47ea670b442974b53935d1edc7fd64eb21e047a839171b339380a4600190565b8151919060418303611efd57611ef692506020820151906060604084015193015160001a90611fce565b9192909190565b505060009160029190565b6004811015611f775780611f1a575050565b60018103611f345760405163f645eedf60e01b8152600490fd5b60028103611f555760405163fce698f760e01b815260048101839052602490fd5b600314611f5f5750565b602490604051906335e2f38360e21b82526004820152fd5b634e487b7160e01b600052602160045260246000fd5b60ff7ff0c57e16840df040f15088dc2f81fe391c3923bec73e23a9662efc9c229c6a005460401c1615611fbc57565b604051631afcd79f60e31b8152600490fd5b91907f7fffffffffffffffffffffffffffffff5d576e7357a4501ddfe92f46681b20a0841161205257926020929160ff608095604051948552168484015260408301526060820152600092839182805260015afa156120465780516001600160a01b0381161561203d57918190565b50809160019190565b604051903d90823e3d90fd5b50505060009160039190565b604051600090600080516020612311833981519152918183549161208183611a5a565b9283835260209060208401966001916001811690816000146121745750600114612113575b5050506120b5925003826119e5565b519081156120c1572090565b50507fa16a46d94261c7517cc8ff89f61c0ce93598e3c849801011dee649a6a557d1005480156120ee5790565b507fc5d2460186f7233c927e7db2dcc703c0e500b653ca82273b7bfad8045d85a47090565b60009081527f42ad5d3e1f2e6e70edcf6d991b8a3023d3fca8047a131592f9edb9fd9b89d57d9590935091905b82841061215c57506120b59450505081016020013880806120a6565b85548785018301529485019486945092810192612140565b92505050602092506120b594915060ff19168652151560051b8201013880806120a6565b60405160009060008051602061233183398151915291818354916121bb83611a5a565b9283835260209060208401966001916001811690816000146122895750600114612228575b5050506121ef925003826119e5565b519081156121fb572090565b50507fa16a46d94261c7517cc8ff89f61c0ce93598e3c849801011dee649a6a557d1015480156120ee5790565b60009081527f5f9ce34815f8e11431c7bb75a8e6886a91478f7ffc1dbb0a98dc240fddd76b759590935091905b82841061227157506121ef9450505081016020013880806121e0565b85548785018301529485019486945092810192612255565b92505050602092506121ef94915060ff19168652151560051b8201013880806121e0565b906122d457508051156122c257602081519101fd5b60405163d6bda27560e01b8152600490fd5b81511580612307575b6122e5575090565b604051639996b31560e01b81526001600160a01b039091166004820152602490fd5b50803b156122dd56fea16a46d94261c7517cc8ff89f61c0ce93598e3c849801011dee649a6a557d102a16a46d94261c7517cc8ff89f61c0ce93598e3c849801011dee649a6a557d10302dd7bc7dec4dceedda775e58dd541e08a116c6c53815c0bd028192f7b626800a2646970667358221220559387c3d61baa59d629551edb568f08c7d8c6aebdbb4a736178fead316f903964736f6c63430008180033",
  "linkReferences": {},
  "deployedLinkReferences": {}
}