{
  "_format": "hh-sol-artifact-1",
  "contractName": "ComplianceModuleRBAC",
  "sourceName": "contracts/compliance/ComplianceModuleRBAC.sol",
  "abi": [
    {
      "inputs": [
        {
          "internalType": "address",
          "name": "_admin",
          "type": "address"
        },
        {
          "internalType": "address",
          "name": "_kyc",
          "type": "address"
        },
        {
          "internalType": "address",
          "name": "_sanctions",
          "type": "address"
        }
      ],
      "stateMutability": "nonpayable",
      "type": "constructor"
    },
    {
      "anonymous": false,
      "inputs": [
        {
          "indexed": true,
          "internalType": "address",
          "name": "from",
          "type": "address"
        },
        {
          "indexed": true,
          "internalType": "address",
          "name": "to",
          "type": "address"
        }
      ],
      "name": "AdminTransferred",
      "type": "event"
    },
    {
      "anonymous": false,
      "inputs": [
        {
          "indexed": true,
          "internalType": "address",
          "name": "asset",
          "type": "address"
        },
        {
          "indexed": false,
          "internalType": "bool",
          "name": "allowed",
          "type": "bool"
        }
      ],
      "name": "AssetAllowed",
      "type": "event"
    },
    {
      "anonymous": false,
      "inputs": [
        {
          "indexed": true,
          "internalType": "address",
          "name": "kyc",
          "type": "address"
        }
      ],
      "name": "KYCSet",
      "type": "event"
    },
    {
      "anonymous": false,
      "inputs": [
        {
          "indexed": true,
          "internalType": "address",
          "name": "oracle",
          "type": "address"
        }
      ],
      "name": "SanctionsSet",
      "type": "event"
    },
    {
      "inputs": [],
      "name": "admin",
      "outputs": [
        {
          "internalType": "address",
          "name": "",
          "type": "address"
        }
      ],
      "stateMutability": "view",
      "type": "function"
    },
    {
      "inputs": [
        {
          "internalType": "address",
          "name": "",
          "type": "address"
        }
      ],
      "name": "assetAllowed",
      "outputs": [
        {
          "internalType": "bool",
          "name": "",
          "type": "bool"
        }
      ],
      "stateMutability": "view",
      "type": "function"
    },
    {
      "inputs": [
        {
          "internalType": "address",
          "name": "from",
          "type": "address"
        },
        {
          "internalType": "address",
          "name": "to",
          "type": "address"
        },
        {
          "internalType": "address",
          "name": "asset",
          "type": "address"
        },
        {
          "internalType": "uint256",
          "name": "",
          "type": "uint256"
        },
        {
          "internalType": "bytes",
          "name": "",
          "type": "bytes"
        }
      ],
      "name": "check",
      "outputs": [
        {
          "internalType": "bool",
          "name": "ok",
          "type": "bool"
        },
        {
          "internalType": "bytes",
          "name": "reason",
          "type": "bytes"
        }
      ],
      "stateMutability": "view",
      "type": "function"
    },
    {
      "inputs": [],
      "name": "kyc",
      "outputs": [
        {
          "internalType": "contract IKYC",
          "name": "",
          "type": "address"
        }
      ],
      "stateMutability": "view",
      "type": "function"
    },
    {
      "inputs": [],
      "name": "sanctions",
      "outputs": [
        {
          "internalType": "contract ISanctionsView",
          "name": "",
          "type": "address"
        }
      ],
      "stateMutability": "view",
      "type": "function"
    },
    {
      "inputs": [
        {
          "internalType": "address",
          "name": "asset",
          "type": "address"
        },
        {
          "internalType": "bool",
          "name": "allowed",
          "type": "bool"
        }
      ],
      "name": "setAssetAllowed",
      "outputs": [],
      "stateMutability": "nonpayable",
      "type": "function"
    },
    {
      "inputs": [
        {
          "internalType": "address",
          "name": "k",
          "type": "address"
        }
      ],
      "name": "setKYC",
      "outputs": [],
      "stateMutability": "nonpayable",
      "type": "function"
    },
    {
      "inputs": [
        {
          "internalType": "address",
          "name": "s",
          "type": "address"
        }
      ],
      "name": "setSanctions",
      "outputs": [],
      "stateMutability": "nonpayable",
      "type": "function"
    },
    {
      "inputs": [
        {
          "internalType": "address",
          "name": "to",
          "type": "address"
        }
      ],
      "name": "transferAdmin",
      "outputs": [],
      "stateMutability": "nonpayable",
      "type": "function"
    }
  ],
  "bytecode": "0x6080346100db57601f61092938819003918201601f19168301916001600160401b038311848410176100e0578084926060946040528339810103126100db57610047816100f6565b61005f6040610058602085016100f6565b93016100f6565b6001600160a01b039182169283156100a857829060018060a01b031994856000541617600055168360015416176001551690600254161760025560405161081e908161010b8239f35b60405162461bcd60e51b815260206004820152600b60248201526a0434d3a2061646d696e20360ac1b6044820152606490fd5b600080fd5b634e487b7160e01b600052604160045260246000fd5b51906001600160a01b03821682036100db5756fe60806040818152600436101561001457600080fd5b600091823560e01c9081631a12d585146103ee57508063483a83df14610383578063716d3dcb1461034857806375829def1461029d57806390d6b45f14610276578063b4ead477146101a3578063d948ec9014610135578063e53c0456146100ad5763f851a4401461008557600080fd5b346100a957816003193601126100a9576001600160a01b0360209254169051908152f35b5080fd5b50346100a957806003193601126100a9576100c6610413565b60243590811515809203610131577fa918a4160e8216eca57d47b5ff3d7d37f630f73f4df2077816c15786f8fe296e916020916001600160a01b039061011082885416331461042e565b16938486526003835280862060ff1981541660ff841617905551908152a280f35b8380fd5b82346101a05760203660031901126101a05761014f610413565b6001600160a01b039061016682845416331461042e565b16806001600160a01b031960025416176002557f18a450cd8009c61d77f925767179fd4e5048a80fa3b84a9843c8088920dcb63f8280a280f35b80fd5b50346100a95760a03660031901126100a9576101bd610413565b6001600160a01b03602435818116810361026e57604435918216820361026e5760843567ffffffffffffffff8082116102725736602383011215610272578160040135908111610272573691016024011161026e5761021b92610505565b91805193849215158352602082602085015284518093850152815b83811061025757505060608094508284010152601f80199101168101030190f35b808601820151878201606001528694508101610236565b8480fd5b8680fd5b50346100a957816003193601126100a9576020906001600160a01b03600154169051908152f35b50346100a95760203660031901126100a9576102b7610413565b8254906001600160a01b03808316916102d183331461042e565b1692831561031d575082907ff8ccb027dfcd135e000e9d45e6cc2d662578a8825d4c45b5e32e0adf67e79ec68580a373ffffffffffffffffffffffffffffffffffffffff191617815580f35b5162461bcd60e51b81526020600482015260056024820152640434d3a20360dc1b6044820152606490fd5b50346100a95760203660031901126100a95760ff816020936001600160a01b03610370610413565b1681526003855220541690519015158152f35b82346101a05760203660031901126101a05761039d610413565b6001600160a01b03906103b482845416331461042e565b16806001600160a01b031960015416176001557fe3330756cea6e0de3d0f98435fba14523b866b22dbbeebd022b23c6e4ccdecab8280a280f35b8390346100a957816003193601126100a9576020906001600160a01b03600254168152f35b600435906001600160a01b038216820361042957565b600080fd5b1561043557565b60405162461bcd60e51b815260206004820152600d60248201526c21a69d103737ba1030b236b4b760991b6044820152606490fd5b6040810190811067ffffffffffffffff82111761048657604052565b634e487b7160e01b600052604160045260246000fd5b90601f8019910116810190811067ffffffffffffffff82111761048657604052565b5190811515820361042957565b9190826080910312610429576104e0826104be565b916020810151916060604083015192015167ffffffffffffffff811681036104295790565b91906001600160a01b03928360025416806106d8575b508360015416806105b9575b50505016801515908161059f575b5061056257604051906020820182811067ffffffffffffffff821117610486576040526000825260019190565b6040519061056f8261046a565b601182527f41535345545f4e4f545f414c4c4f574544000000000000000000000000000000602083015260009190565b9050600052600360205260ff604060002054161538610535565b60405163469e906760e01b80825292861660048201526080938482602481865afa9384156106a557879386936000966106b1575b5090602491604051958694859384521660048301525afa9283156106a557600093610673575b50501590811561066a575b5061062b57388080610527565b50506040519061063a8261046a565b601082527f4b59435f4e4f545f415050524f56454400000000000000000000000000000000602083015260009190565b9050153861061e565b610693929350803d1061069e575b61068b818361049c565b8101906104cb565b505050903880610613565b503d610681565b6040513d6000823e3d90fd5b6024929196506106cd90853d871161069e5761068b818361049c565b5050509590916105ed565b60405163df592f7d60e01b808252838716600483015260209290918381602481855afa9283156106a55784916000946107b0575b50831561074a575b5050501561051b579493505050506914d05390d51253d3915160b21b6040519261073d8461046a565b600a845283015260009190565b9091925060246040518094819382528a891660048301525afa9081156106a55760009161077b575b50388281610714565b90508181813d83116107a9575b610792818361049c565b81010312610429576107a3906104be565b38610772565b503d610788565b8281939295503d83116107e1575b6107c8818361049c565b81010312610429576107da84916104be565b923861070c565b503d6107be56fea2646970667358221220a1064117c7b74d1e3f18e24b634ab1c7ce4153c421d4d174fd6f0508249400dc64736f6c63430008180033",
  "linkReferences": {},
  "deployedLinkReferences": {}
}