{"abi":[{"type":"function","name":"DEFAULT_ADMIN_ROLE","inputs":[],"outputs":[{"name":"","type":"bytes32","internalType":"bytes32"}],"stateMutability":"view"},{"type":"function","name":"GOVERNOR_ROLE","inputs":[],"outputs":[{"name":"","type":"bytes32","internalType":"bytes32"}],"stateMutability":"view"},{"type":"function","name":"claim","inputs":[{"name":"id","type":"uint256","internalType":"uint256"},{"name":"index","type":"uint256","internalType":"uint256"},{"name":"account","type":"address","internalType":"address"},{"name":"totalAmount","type":"uint256","internalType":"uint256"},{"name":"proof","type":"bytes32[]","internalType":"bytes32[]"}],"outputs":[],"stateMutability":"nonpayable"},{"type":"function","name":"claimed","inputs":[{"name":"","type":"uint256","internalType":"uint256"},{"name":"","type":"uint256","internalType":"uint256"}],"outputs":[{"name":"","type":"uint256","internalType":"uint256"}],"stateMutability":"view"},{"type":"function","name":"createEpoch","inputs":[{"name":"root","type":"bytes32","internalType":"bytes32"},{"name":"token","type":"address","internalType":"address"},{"name":"start","type":"uint64","internalType":"uint64"},{"name":"end","type":"uint64","internalType":"uint64"},{"name":"total","type":"uint256","internalType":"uint256"}],"outputs":[{"name":"id","type":"uint256","internalType":"uint256"}],"stateMutability":"nonpayable"},{"type":"function","name":"epochCount","inputs":[],"outputs":[{"name":"","type":"uint256","internalType":"uint256"}],"stateMutability":"view"},{"type":"function","name":"epochs","inputs":[{"name":"","type":"uint256","internalType":"uint256"}],"outputs":[{"name":"root","type":"bytes32","internalType":"bytes32"},{"name":"token","type":"address","internalType":"contract IERC20"},{"name":"start","type":"uint64","internalType":"uint64"},{"name":"end","type":"uint64","internalType":"uint64"},{"name":"total","type":"uint256","internalType":"uint256"},{"name":"active","type":"bool","internalType":"bool"}],"stateMutability":"view"},{"type":"function","name":"getRoleAdmin","inputs":[{"name":"role","type":"bytes32","internalType":"bytes32"}],"outputs":[{"name":"","type":"bytes32","internalType":"bytes32"}],"stateMutability":"view"},{"type":"function","name":"grantRole","inputs":[{"name":"role","type":"bytes32","internalType":"bytes32"},{"name":"account","type":"address","internalType":"address"}],"outputs":[],"stateMutability":"nonpayable"},{"type":"function","name":"hasRole","inputs":[{"name":"role","type":"bytes32","internalType":"bytes32"},{"name":"account","type":"address","internalType":"address"}],"outputs":[{"name":"","type":"bool","internalType":"bool"}],"stateMutability":"view"},{"type":"function","name":"initialize","inputs":[{"name":"admin","type":"address","internalType":"address"},{"name":"governor","type":"address","internalType":"address"}],"outputs":[],"stateMutability":"nonpayable"},{"type":"function","name":"renounceRole","inputs":[{"name":"role","type":"bytes32","internalType":"bytes32"},{"name":"callerConfirmation","type":"address","internalType":"address"}],"outputs":[],"stateMutability":"nonpayable"},{"type":"function","name":"revokeRole","inputs":[{"name":"role","type":"bytes32","internalType":"bytes32"},{"name":"account","type":"address","internalType":"address"}],"outputs":[],"stateMutability":"nonpayable"},{"type":"function","name":"supportsInterface","inputs":[{"name":"interfaceId","type":"bytes4","internalType":"bytes4"}],"outputs":[{"name":"","type":"bool","internalType":"bool"}],"stateMutability":"view"},{"type":"function","name":"vested","inputs":[{"name":"id","type":"uint256","internalType":"uint256"},{"name":"totalAmount","type":"uint256","internalType":"uint256"}],"outputs":[{"name":"v","type":"uint256","internalType":"uint256"}],"stateMutability":"view"},{"type":"event","name":"Claimed","inputs":[{"name":"id","type":"uint256","indexed":true,"internalType":"uint256"},{"name":"index","type":"uint256","indexed":true,"internalType":"uint256"},{"name":"account","type":"address","indexed":true,"internalType":"address"},{"name":"amount","type":"uint256","indexed":false,"internalType":"uint256"},{"name":"cumulative","type":"uint256","indexed":false,"internalType":"uint256"}],"anonymous":false},{"type":"event","name":"EpochCreated","inputs":[{"name":"id","type":"uint256","indexed":true,"internalType":"uint256"},{"name":"root","type":"bytes32","indexed":false,"internalType":"bytes32"},{"name":"token","type":"address","indexed":false,"internalType":"address"},{"name":"start","type":"uint64","indexed":false,"internalType":"uint64"},{"name":"end","type":"uint64","indexed":false,"internalType":"uint64"},{"name":"total","type":"uint256","indexed":false,"internalType":"uint256"}],"anonymous":false},{"type":"event","name":"Initialized","inputs":[{"name":"version","type":"uint64","indexed":false,"internalType":"uint64"}],"anonymous":false},{"type":"event","name":"RoleAdminChanged","inputs":[{"name":"role","type":"bytes32","indexed":true,"internalType":"bytes32"},{"name":"previousAdminRole","type":"bytes32","indexed":true,"internalType":"bytes32"},{"name":"newAdminRole","type":"bytes32","indexed":true,"internalType":"bytes32"}],"anonymous":false},{"type":"event","name":"RoleGranted","inputs":[{"name":"role","type":"bytes32","indexed":true,"internalType":"bytes32"},{"name":"account","type":"address","indexed":true,"internalType":"address"},{"name":"sender","type":"address","indexed":true,"internalType":"address"}],"anonymous":false},{"type":"event","name":"RoleRevoked","inputs":[{"name":"role","type":"bytes32","indexed":true,"internalType":"bytes32"},{"name":"account","type":"address","indexed":true,"internalType":"address"},{"name":"sender","type":"address","indexed":true,"internalType":"address"}],"anonymous":false},{"type":"error","name":"AccessControlBadConfirmation","inputs":[]},{"type":"error","name":"AccessControlUnauthorizedAccount","inputs":[{"name":"account","type":"address","internalType":"address"},{"name":"neededRole","type":"bytes32","internalType":"bytes32"}]},{"type":"error","name":"InvalidInitialization","inputs":[]},{"type":"error","name":"NotInitializing","inputs":[]}],"bytecode":{"object":"0x6080806040523461001657611687908161001c8239f35b600080fdfe608080604052600436101561001357600080fd5b60003560e01c90816301ffc9a714610fcd57508063064a301714610ca8578063248a9ca314610c3c5780632cfb415a14610c1b5780632f2ff15d14610b9f57806336568abe14610b15578063485cc955146109195780635d4df3bf14610388578063829965cc1461034c57806391d14854146102b4578063a217fddf1461027a578063a54ab45714610247578063c6b61e4c146101a0578063ccc57490146101475763d547741f146100c457600080fd5b346101425760407ffffffffffffffffffffffffffffffffffffffffffffffffffffffffffffffffc36011261014257610140600435610101611089565b90806000527f02dd7bc7dec4dceedda775e58dd541e08a116c6c53815c0bd028192f7b62680060205261013b6001604060002001546112aa565b611590565b005b600080fd5b346101425760007ffffffffffffffffffffffffffffffffffffffffffffffffffffffffffffffffc3601126101425760206040517f7935bd0ae54bc31f548c14dba4d37c5c64b3f8ca900cb468fb8abd54d5894f558152f35b346101425760207ffffffffffffffffffffffffffffffffffffffffffffffffffffffffffffffffc36011261014257600435600052600160205260c0604060002080549060018101549067ffffffffffffffff806002830154169060ff60046003850154940154169360405195865273ffffffffffffffffffffffffffffffffffffffff8116602087015260a01c16604085015260608401526080830152151560a0820152f35b3461014257610255366110ac565b9060005260006020526040600020906000526020526020604060002054604051908152f35b346101425760007ffffffffffffffffffffffffffffffffffffffffffffffffffffffffffffffffc36011261014257602060405160008152f35b346101425760407ffffffffffffffffffffffffffffffffffffffffffffffffffffffffffffffffc360112610142576102eb611089565b6004356000527f02dd7bc7dec4dceedda775e58dd541e08a116c6c53815c0bd028192f7b62680060205273ffffffffffffffffffffffffffffffffffffffff60406000209116600052602052602060ff604060002054166040519015158152f35b346101425760007ffffffffffffffffffffffffffffffffffffffffffffffffffffffffffffffffc360112610142576020600254604051908152f35b346101425760a07ffffffffffffffffffffffffffffffffffffffffffffffffffffffffffffffffc3601126101425760443573ffffffffffffffffffffffffffffffffffffffff811681036101425767ffffffffffffffff60843511610142573660236084350112156101425767ffffffffffffffff6084356004013511610142573660246084356004013560051b60843501011161014257600435600052600160205260406000206040519061043e826110e0565b60ff600482549283855267ffffffffffffffff600182015473ffffffffffffffffffffffffffffffffffffffff8116602088015260a01c16604086015267ffffffffffffffff6002820154166060860152600381015460808601520154161515908160a08401528161090f575b50156108b157604051602435602082015273ffffffffffffffffffffffffffffffffffffffff8316604082015260643560608201526060815280608081011067ffffffffffffffff60808301111761088257608081016040528051602082012060a0820152602060808201526080810160c082011067ffffffffffffffff60c0830111176108825760c08101604052608081015160a08201209180519261056160206084356004013560051b0160c085016110fc565b608435600481013560c085015260240160e084015b60246084356004013560051b60843501018210610872575050936000945b60c08401518610156105de5760e08660051b85010151908181106000146105cb57600052602052600160406000205b950194610594565b90600052602052600160406000206105c3565b8403610814576105f260643560043561114a565b9060043560005260006020526040600020602435600052602052604060002054808311156107b657602073ffffffffffffffffffffffffffffffffffffffff8161063e6000948761113d565b96600435855284825260408520602435865282528660408620550151166044604051809481937fa9059cbb00000000000000000000000000000000000000000000000000000000835273ffffffffffffffffffffffffffffffffffffffff881660048401528960248401525af19081156107aa5760009161076f575b50156107115773ffffffffffffffffffffffffffffffffffffffff9160405193845260208401521690602435907fa189bd50040d146e005d64d0eb3ae648a95712a6c5633c1de9020a0c3f3f9d11604060043592a4005b60646040517f08c379a000000000000000000000000000000000000000000000000000000000815260206004820152600860248201527f7472616e736665720000000000000000000000000000000000000000000000006044820152fd5b90506020813d6020116107a2575b8161078a602093836110fc565b810103126101425751801515810361014257846106ba565b3d915061077d565b6040513d6000823e3d90fd5b60646040517f08c379a000000000000000000000000000000000000000000000000000000000815260206004820152600760248201527f6e6f7468696e67000000000000000000000000000000000000000000000000006044820152fd5b60646040517f08c379a000000000000000000000000000000000000000000000000000000000815260206004820152600560248201527f70726f6f660000000000000000000000000000000000000000000000000000006044820152fd5b8135815260209182019101610576565b7f4e487b7100000000000000000000000000000000000000000000000000000000600052604160045260246000fd5b60646040517f08c379a000000000000000000000000000000000000000000000000000000000815260206004820152600560248201527f65706f63680000000000000000000000000000000000000000000000000000006044820152fd5b90501515836104ab565b346101425760407ffffffffffffffffffffffffffffffffffffffffffffffffffffffffffffffffc3601126101425760043573ffffffffffffffffffffffffffffffffffffffff8116810361014257610970611089565b7ff0c57e16840df040f15088dc2f81fe391c3923bec73e23a9662efc9c229c6a009182549160ff8360401c16159267ffffffffffffffff811680159081610b0d575b6001149081610b03575b159081610afa575b50610ad0578360017fffffffffffffffffffffffffffffffffffffffffffffffff00000000000000008316178655610a9b575b5060ff845460401c1615610a7157610a11610a17926112ef565b506113cc565b50610a1e57005b7fffffffffffffffffffffffffffffffffffffffffffffff00ffffffffffffffff81541690557fc7f505b2f371ae2175ee4913f4499e1f2633a7b5936321eed1cdaeb6115181d2602060405160018152a1005b60046040517fd7e6bcf8000000000000000000000000000000000000000000000000000000008152fd5b7fffffffffffffffffffffffffffffffffffffffffffffff0000000000000000001668010000000000000001178455846109f7565b60046040517ff92ee8a9000000000000000000000000000000000000000000000000000000008152fd5b905015866109c4565b303b1591506109bc565b8591506109b2565b346101425760407ffffffffffffffffffffffffffffffffffffffffffffffffffffffffffffffffc36011261014257610b4c611089565b3373ffffffffffffffffffffffffffffffffffffffff821603610b755761014090600435611590565b60046040517f6697b232000000000000000000000000000000000000000000000000000000008152fd5b346101425760407ffffffffffffffffffffffffffffffffffffffffffffffffffffffffffffffffc36011261014257610140600435610bdc611089565b90806000527f02dd7bc7dec4dceedda775e58dd541e08a116c6c53815c0bd028192f7b626800602052610c166001604060002001546112aa565b6114cb565b34610142576020610c34610c2e366110ac565b9061114a565b604051908152f35b346101425760207ffffffffffffffffffffffffffffffffffffffffffffffffffffffffffffffffc360112610142576004356000527f02dd7bc7dec4dceedda775e58dd541e08a116c6c53815c0bd028192f7b6268006020526020600160406000200154604051908152f35b346101425760a07ffffffffffffffffffffffffffffffffffffffffffffffffffffffffffffffffc36011261014257600435610ce2611089565b6044359067ffffffffffffffff80831680930361014257606435818116809103610142573360009081527f75e09417c5070057df3eafe5054d52fa0b2a87d64a235e197963b615aedee8036020908152604090912054909590608435907f7935bd0ae54bc31f548c14dba4d37c5c64b3f8ca900cb468fb8abd54d5894f559060ff1615610f96575085831115610f3857600254927fffffffffffffffffffffffffffffffffffffffffffffffffffffffffffffffff8414610f09576004967f32c12f4b1256e221a86134ffa134222340d27662730fa3ff87811355add7900295600160a096018099819982600255868d73ffffffffffffffffffffffffffffffffffffffff8093169560405193610df8856110e0565b8b85528285019088825260408601908a8252600160608801958d87526080890197885260a089019a828c5260005252604060002096518755600187019251167fffffffff000000000000000000000000000000000000000000000000000000007bffffffffffffffff00000000000000000000000000000000000000008454935160a01b16921617179055600284019151167fffffffffffffffffffffffffffffffffffffffffffffffff0000000000000000825416179055516003820155019051151560ff7fffffffffffffffffffffffffffffffffffffffffffffffffffffffffffffff00835416911617905560405194855289850152604084015260608301526080820152a2604051908152f35b7f4e487b7100000000000000000000000000000000000000000000000000000000600052601160045260246000fd5b606487604051907f08c379a00000000000000000000000000000000000000000000000000000000082526004820152600460248201527f74696d65000000000000000000000000000000000000000000000000000000006044820152fd5b604490604051907fe2517d3f0000000000000000000000000000000000000000000000000000000082523360048301526024820152fd5b346101425760207ffffffffffffffffffffffffffffffffffffffffffffffffffffffffffffffffc36011261014257600435907fffffffff00000000000000000000000000000000000000000000000000000000821680920361014257817f7965db0b000000000000000000000000000000000000000000000000000000006020931490811561105f575b5015158152f35b7f01ffc9a70000000000000000000000000000000000000000000000000000000091501483611058565b6024359073ffffffffffffffffffffffffffffffffffffffff8216820361014257565b7ffffffffffffffffffffffffffffffffffffffffffffffffffffffffffffffffc6040910112610142576004359060243590565b60c0810190811067ffffffffffffffff82111761088257604052565b90601f7fffffffffffffffffffffffffffffffffffffffffffffffffffffffffffffffe0910116810190811067ffffffffffffffff82111761088257604052565b91908203918211610f0957565b906000918252600160205260408220604051611165816110e0565b8154815260018201549173ffffffffffffffffffffffffffffffffffffffff8316602083015267ffffffffffffffff809360a01c166040830192818452846002840154169060a060ff60046060840196858852600381015460808601520154161515910152814211156112a157421015611298576111e3904261113d565b9384810294818604149015171561126b5751905182169082160381811161123e571691821561121157500490565b807f4e487b7100000000000000000000000000000000000000000000000000000000602492526012600452fd5b6024847f4e487b710000000000000000000000000000000000000000000000000000000081526011600452fd5b6024857f4e487b710000000000000000000000000000000000000000000000000000000081526011600452fd5b50505050905090565b50505050505090565b806000527f02dd7bc7dec4dceedda775e58dd541e08a116c6c53815c0bd028192f7b62680060205260406000203360005260205260ff6040600020541615610f965750565b73ffffffffffffffffffffffffffffffffffffffff1660008181527fb7db2dd08fcb62d0c9e08c51941cae53c267786a0b75803fb7960902fc8ef97d60205260408120549091907f02dd7bc7dec4dceedda775e58dd541e08a116c6c53815c0bd028192f7b6268009060ff166113c757828052602052604082208183526020526040822060017fffffffffffffffffffffffffffffffffffffffffffffffffffffffffffffff0082541617905533917f2f8788117e7eff1d82e926ec794901d17c78024a50270940304540a733656f0d8180a4600190565b505090565b73ffffffffffffffffffffffffffffffffffffffff1660008181527f75e09417c5070057df3eafe5054d52fa0b2a87d64a235e197963b615aedee80360205260408120549091907f7935bd0ae54bc31f548c14dba4d37c5c64b3f8ca900cb468fb8abd54d5894f55907f02dd7bc7dec4dceedda775e58dd541e08a116c6c53815c0bd028192f7b6268009060ff166114c557818452602052604083208284526020526040832060017fffffffffffffffffffffffffffffffffffffffffffffffffffffffffffffff008254161790557f2f8788117e7eff1d82e926ec794901d17c78024a50270940304540a733656f0d339380a4600190565b50505090565b906000918083527f02dd7bc7dec4dceedda775e58dd541e08a116c6c53815c0bd028192f7b6268008060205273ffffffffffffffffffffffffffffffffffffffff6040852093169283855260205260ff604085205416156000146114c557818452602052604083208284526020526040832060017fffffffffffffffffffffffffffffffffffffffffffffffffffffffffffffff008254161790557f2f8788117e7eff1d82e926ec794901d17c78024a50270940304540a733656f0d339380a4600190565b906000918083527f02dd7bc7dec4dceedda775e58dd541e08a116c6c53815c0bd028192f7b6268008060205273ffffffffffffffffffffffffffffffffffffffff6040852093169283855260205260ff6040852054166000146114c55781845260205260408320828452602052604083207fffffffffffffffffffffffffffffffffffffffffffffffffffffffffffffff0081541690557ff6391f5c32d9c69d2a47ea670b442974b53935d1edc7fd64eb21e047a839171b339380a460019056fea2646970667358221220c02a2e54ff1b9530c2c7313a464519a5837eb13ea2c11f0f81234899f1cf46b364736f6c63430008180033","linkReferences":{}},"methodIdentifiers":{"DEFAULT_ADMIN_ROLE()":"a217fddf","GOVERNOR_ROLE()":"ccc57490","claim(uint256,uint256,address,uint256,bytes32[])":"5d4df3bf","claimed(uint256,uint256)":"a54ab457","createEpoch(bytes32,address,uint64,uint64,uint256)":"064a3017","epochCount()":"829965cc","epochs(uint256)":"c6b61e4c","getRoleAdmin(bytes32)":"248a9ca3","grantRole(bytes32,address)":"2f2ff15d","hasRole(bytes32,address)":"91d14854","initialize(address,address)":"485cc955","renounceRole(bytes32,address)":"36568abe","revokeRole(bytes32,address)":"d547741f","supportsInterface(bytes4)":"01ffc9a7","vested(uint256,uint256)":"2cfb415a"},"id":12}