{
  "_format": "hh-sol-artifact-1",
  "contractName": "TravelRuleMock",
  "sourceName": "contracts/mocks/TravelRuleMock.sol",
  "abi": [
    {
      "inputs": [
        {
          "internalType": "address",
          "name": "f",
          "type": "address"
        },
        {
          "internalType": "address",
          "name": "t",
          "type": "address"
        },
        {
          "internalType": "uint256",
          "name": "a",
          "type": "uint256"
        },
        {
          "internalType": "uint64",
          "name": "ttl",
          "type": "uint64"
        }
      ],
      "name": "hasPermit",
      "outputs": [
        {
          "internalType": "bool",
          "name": "",
          "type": "bool"
        }
      ],
      "stateMutability": "view",
      "type": "function"
    },
    {
      "inputs": [
        {
          "internalType": "bytes32",
          "name": "",
          "type": "bytes32"
        }
      ],
      "name": "ok",
      "outputs": [
        {
          "internalType": "bool",
          "name": "",
          "type": "bool"
        }
      ],
      "stateMutability": "view",
      "type": "function"
    },
    {
      "inputs": [
        {
          "internalType": "address",
          "name": "f",
          "type": "address"
        },
        {
          "internalType": "address",
          "name": "t",
          "type": "address"
        },
        {
          "internalType": "uint256",
          "name": "amt",
          "type": "uint256"
        },
        {
          "internalType": "uint64",
          "name": "ttl",
          "type": "uint64"
        },
        {
          "internalType": "bool",
          "name": "yes",
          "type": "bool"
        }
      ],
      "name": "set",
      "outputs": [],
      "stateMutability": "nonpayable",
      "type": "function"
    }
  ],
  "bytecode": "0x608060405234801561001057600080fd5b506102b1806100206000396000f3fe608060405234801561001057600080fd5b50600436106100415760003560e01c8063516e6ed2146100465780639e285fed146100ce578063e5673ffa14610157575b600080fd5b6100ba6100543660046101ae565b604080516001600160a01b039586166020808301919091529490951685820152606085019290925267ffffffffffffffff166080808501919091528151808503909101815260a09093018152825192820192909220600090815290819052205460ff1690565b604051901515815260200160405180910390f35b6101556100dc3660046101fb565b604080516001600160a01b0380881660208301528616918101919091526060810184905267ffffffffffffffff831660808201528190600090819060a00160408051808303601f19018152918152815160209283012083529082019290925201600020805460ff19169115159190911790555050505050565b005b6100ba610165366004610262565b60006020819052908152604090205460ff1681565b80356001600160a01b038116811461019157600080fd5b919050565b803567ffffffffffffffff8116811461019157600080fd5b600080600080608085870312156101c457600080fd5b6101cd8561017a565b93506101db6020860161017a565b9250604085013591506101f060608601610196565b905092959194509250565b600080600080600060a0868803121561021357600080fd5b61021c8661017a565b945061022a6020870161017a565b93506040860135925061023f60608701610196565b91506080860135801515811461025457600080fd5b809150509295509295909350565b60006020828403121561027457600080fd5b503591905056fea264697066735822122095d9cdea9b69445e7689ce28526ea7c9520ecf24a6caecdc44983bea9e7e1d2d64736f6c63430008180033",
  "linkReferences": {},
  "deployedLinkReferences": {}
}