{
  "_format": "hh-sol-artifact-1",
  "contractName": "MultiAssetEscrow",
  "sourceName": "contracts/escrow/MultiAssetEscrow.sol",
  "abi": [
    {
      "inputs": [],
      "stateMutability": "nonpayable",
      "type": "constructor"
    },
    {
      "inputs": [],
      "name": "AccessControlBadConfirmation",
      "type": "error"
    },
    {
      "inputs": [
        {
          "internalType": "address",
          "name": "account",
          "type": "address"
        },
        {
          "internalType": "bytes32",
          "name": "neededRole",
          "type": "bytes32"
        }
      ],
      "name": "AccessControlUnauthorizedAccount",
      "type": "error"
    },
    {
      "inputs": [],
      "name": "ReentrancyGuardReentrantCall",
      "type": "error"
    },
    {
      "anonymous": false,
      "inputs": [
        {
          "indexed": true,
          "internalType": "bytes32",
          "name": "role",
          "type": "bytes32"
        },
        {
          "indexed": true,
          "internalType": "bytes32",
          "name": "previousAdminRole",
          "type": "bytes32"
        },
        {
          "indexed": true,
          "internalType": "bytes32",
          "name": "newAdminRole",
          "type": "bytes32"
        }
      ],
      "name": "RoleAdminChanged",
      "type": "event"
    },
    {
      "anonymous": false,
      "inputs": [
        {
          "indexed": true,
          "internalType": "bytes32",
          "name": "role",
          "type": "bytes32"
        },
        {
          "indexed": true,
          "internalType": "address",
          "name": "account",
          "type": "address"
        },
        {
          "indexed": true,
          "internalType": "address",
          "name": "sender",
          "type": "address"
        }
      ],
      "name": "RoleGranted",
      "type": "event"
    },
    {
      "anonymous": false,
      "inputs": [
        {
          "indexed": true,
          "internalType": "bytes32",
          "name": "role",
          "type": "bytes32"
        },
        {
          "indexed": true,
          "internalType": "address",
          "name": "account",
          "type": "address"
        },
        {
          "indexed": true,
          "internalType": "address",
          "name": "sender",
          "type": "address"
        }
      ],
      "name": "RoleRevoked",
      "type": "event"
    },
    {
      "anonymous": false,
      "inputs": [
        {
          "indexed": true,
          "internalType": "bytes32",
          "name": "settlementId",
          "type": "bytes32"
        }
      ],
      "name": "SettlementCancelled",
      "type": "event"
    },
    {
      "anonymous": false,
      "inputs": [
        {
          "indexed": true,
          "internalType": "bytes32",
          "name": "settlementId",
          "type": "bytes32"
        },
        {
          "indexed": true,
          "internalType": "address",
          "name": "securityToken",
          "type": "address"
        },
        {
          "indexed": true,
          "internalType": "address",
          "name": "paymentToken",
          "type": "address"
        },
        {
          "indexed": false,
          "internalType": "address",
          "name": "seller",
          "type": "address"
        },
        {
          "indexed": false,
          "internalType": "address",
          "name": "buyer",
          "type": "address"
        },
        {
          "indexed": false,
          "internalType": "uint256",
          "name": "securityAmount",
          "type": "uint256"
        },
        {
          "indexed": false,
          "internalType": "uint256",
          "name": "paymentAmount",
          "type": "uint256"
        },
        {
          "indexed": false,
          "internalType": "bytes32",
          "name": "partition",
          "type": "bytes32"
        },
        {
          "indexed": false,
          "internalType": "uint256",
          "name": "deadline",
          "type": "uint256"
        }
      ],
      "name": "SettlementCreated",
      "type": "event"
    },
    {
      "anonymous": false,
      "inputs": [
        {
          "indexed": true,
          "internalType": "bytes32",
          "name": "settlementId",
          "type": "bytes32"
        }
      ],
      "name": "SettlementExecuted",
      "type": "event"
    },
    {
      "inputs": [],
      "name": "DEFAULT_ADMIN_ROLE",
      "outputs": [
        {
          "internalType": "bytes32",
          "name": "",
          "type": "bytes32"
        }
      ],
      "stateMutability": "view",
      "type": "function"
    },
    {
      "inputs": [],
      "name": "ESCROW_ADMIN_ROLE",
      "outputs": [
        {
          "internalType": "bytes32",
          "name": "",
          "type": "bytes32"
        }
      ],
      "stateMutability": "view",
      "type": "function"
    },
    {
      "inputs": [],
      "name": "SETTLEMENT_OPERATOR_ROLE",
      "outputs": [
        {
          "internalType": "bytes32",
          "name": "",
          "type": "bytes32"
        }
      ],
      "stateMutability": "view",
      "type": "function"
    },
    {
      "inputs": [
        {
          "internalType": "bytes32",
          "name": "settlementId",
          "type": "bytes32"
        }
      ],
      "name": "cancelSettlement",
      "outputs": [],
      "stateMutability": "nonpayable",
      "type": "function"
    },
    {
      "inputs": [
        {
          "internalType": "address",
          "name": "securityToken",
          "type": "address"
        },
        {
          "internalType": "address",
          "name": "paymentToken",
          "type": "address"
        },
        {
          "internalType": "address",
          "name": "seller",
          "type": "address"
        },
        {
          "internalType": "address",
          "name": "buyer",
          "type": "address"
        },
        {
          "internalType": "uint256",
          "name": "securityAmount",
          "type": "uint256"
        },
        {
          "internalType": "uint256",
          "name": "paymentAmount",
          "type": "uint256"
        },
        {
          "internalType": "bytes32",
          "name": "partition",
          "type": "bytes32"
        },
        {
          "internalType": "uint256",
          "name": "deadline",
          "type": "uint256"
        }
      ],
      "name": "createSettlement",
      "outputs": [
        {
          "internalType": "bytes32",
          "name": "",
          "type": "bytes32"
        }
      ],
      "stateMutability": "nonpayable",
      "type": "function"
    },
    {
      "inputs": [
        {
          "internalType": "bytes32",
          "name": "settlementId",
          "type": "bytes32"
        }
      ],
      "name": "executeSettlement",
      "outputs": [],
      "stateMutability": "nonpayable",
      "type": "function"
    },
    {
      "inputs": [
        {
          "internalType": "bytes32",
          "name": "role",
          "type": "bytes32"
        }
      ],
      "name": "getRoleAdmin",
      "outputs": [
        {
          "internalType": "bytes32",
          "name": "",
          "type": "bytes32"
        }
      ],
      "stateMutability": "view",
      "type": "function"
    },
    {
      "inputs": [
        {
          "internalType": "bytes32",
          "name": "role",
          "type": "bytes32"
        },
        {
          "internalType": "address",
          "name": "account",
          "type": "address"
        }
      ],
      "name": "grantRole",
      "outputs": [],
      "stateMutability": "nonpayable",
      "type": "function"
    },
    {
      "inputs": [
        {
          "internalType": "bytes32",
          "name": "role",
          "type": "bytes32"
        },
        {
          "internalType": "address",
          "name": "account",
          "type": "address"
        }
      ],
      "name": "hasRole",
      "outputs": [
        {
          "internalType": "bool",
          "name": "",
          "type": "bool"
        }
      ],
      "stateMutability": "view",
      "type": "function"
    },
    {
      "inputs": [
        {
          "internalType": "bytes32",
          "name": "role",
          "type": "bytes32"
        },
        {
          "internalType": "address",
          "name": "callerConfirmation",
          "type": "address"
        }
      ],
      "name": "renounceRole",
      "outputs": [],
      "stateMutability": "nonpayable",
      "type": "function"
    },
    {
      "inputs": [
        {
          "internalType": "bytes32",
          "name": "role",
          "type": "bytes32"
        },
        {
          "internalType": "address",
          "name": "account",
          "type": "address"
        }
      ],
      "name": "revokeRole",
      "outputs": [],
      "stateMutability": "nonpayable",
      "type": "function"
    },
    {
      "inputs": [
        {
          "internalType": "bytes32",
          "name": "",
          "type": "bytes32"
        }
      ],
      "name": "settlements",
      "outputs": [
        {
          "internalType": "address",
          "name": "securityToken",
          "type": "address"
        },
        {
          "internalType": "address",
          "name": "paymentToken",
          "type": "address"
        },
        {
          "internalType": "address",
          "name": "seller",
          "type": "address"
        },
        {
          "internalType": "address",
          "name": "buyer",
          "type": "address"
        },
        {
          "internalType": "uint256",
          "name": "securityAmount",
          "type": "uint256"
        },
        {
          "internalType": "uint256",
          "name": "paymentAmount",
          "type": "uint256"
        },
        {
          "internalType": "bytes32",
          "name": "partition",
          "type": "bytes32"
        },
        {
          "internalType": "uint256",
          "name": "deadline",
          "type": "uint256"
        },
        {
          "internalType": "bool",
          "name": "isSettled",
          "type": "bool"
        }
      ],
      "stateMutability": "view",
      "type": "function"
    },
    {
      "inputs": [
        {
          "internalType": "bytes4",
          "name": "interfaceId",
          "type": "bytes4"
        }
      ],
      "name": "supportsInterface",
      "outputs": [
        {
          "internalType": "bool",
          "name": "",
          "type": "bool"
        }
      ],
      "stateMutability": "view",
      "type": "function"
    }
  ],
  "bytecode": "0x60806040523461003157600160005561001733610036565b50610021336100b5565b50604051610ffc90816101578239f35b600080fd5b6001600160a01b031660008181527fa6eef7e35abe7026729641147f7915573c7e97b47efa546f5f6e3230263bcb49602052604081205490919060ff166100b15781805260016020526040822081835260205260408220600160ff1982541617905533916000805160206111538339815191528180a4600190565b5090565b6001600160a01b031660008181527fdaf02ca0af52b4b227e2ade092e2a8e418cb0d65e254c2076f3c65ef56aa033660205260408120549091907fd471dbbd825301629315dc9fd24c8fa5addf08088354ca89ae2cdac6dc12d9509060ff166101515780835260016020526040832082845260205260408320600160ff19825416179055600080516020611153833981519152339380a4600190565b50509056fe608080604052600436101561001357600080fd5b60003560e01c90816301bc95e214610d6d5750806301ffc9a714610d175780630bda191e146109d2578063248a9ca3146109a35780632f2ff15d1461096457806336568abe1461091d5780636e61462a146108e257806389674f9f146108a757806391d1485414610859578063963c68d0146107015780639b9c361614610110578063a217fddf146100f45763d547741f146100ae57600080fd5b346100ef5760403660031901126100ef576100ed6004356100cd610e05565b908060005260016020526100e8600160406000200154610e89565b610f4e565b005b600080fd5b346100ef5760003660031901126100ef57602060405160008152f35b346100ef576101003660031901126100ef576001600160a01b0360043516600435036100ef5761013e610e05565b6001600160a01b0360443516604435036100ef576001600160a01b0360643516606435036100ef573360009081527fcb7d87f842f76db243652f5196a042aab6b639835a959c73e8d598c0130df670602052604090205460ff16156106c3576001600160a01b03600435161561067e576001600160a01b03811615610639576001600160a01b0360443516156105f4576001600160a01b0360643516156105bf576084351561057a5760a43515610535574260e43511156104f0576040516bffffffffffffffffffffffff1960043560601b1660208201526bffffffffffffffffffffffff198260601b1660348201526bffffffffffffffffffffffff1960443560601b1660488201526bffffffffffffffffffffffff1960643560601b16605c820152608435607082015260a435609082015260c43560b082015260e43560d08201524260f082015260f081528061012081011067ffffffffffffffff6101208301111761048f57610120810160405280516020820120908160005260026020526001600160a01b03604060002054166104a55750604051918261012081011067ffffffffffffffff6101208501111761048f5782610120602094016040526001600160a01b036004351681526001600160a01b038216848201526001600160a01b036044351660408201526001600160a01b03606435166060820152608435608082015260a43560a082015260c43560c082015260e43560e082015260006101008201528260005260028452610100600860406000206001600160a01b038451166001600160a01b03199081835416178255600182016001600160a01b03898701511682825416179055600282016001600160a01b036040870151168282541617905560038201906001600160a01b03606087015116908254161790556080840151600482015560a0840151600582015560c0840151600682015560e0840151600782015501910151151560ff801983541691161790556001600160a01b036040519181604435168352816064351685840152608435604084015260a435606084015260c435608084015260e43560a08401521690827fb8b2766334ff85e6d4de74ad35de32505e5a804ca1c8b433ab3e52601f051c0f60c06001600160a01b036004351693a4604051908152f35b634e487b7160e01b600052604160045260246000fd5b61012060649162461bcd60e51b82820152602061012482015260116101448201527f536574746c656d656e742065786973747300000000000000000000000000000061016482015201fd5b60405162461bcd60e51b815260206004820152601060248201527f496e76616c696420646561646c696e65000000000000000000000000000000006044820152606490fd5b60405162461bcd60e51b815260206004820152601660248201527f496e76616c6964207061796d656e7420616d6f756e74000000000000000000006044820152606490fd5b60405162461bcd60e51b815260206004820152601760248201527f496e76616c696420736563757269747920616d6f756e740000000000000000006044820152606490fd5b60405162461bcd60e51b815260206004820152600d60248201526c24b73b30b634b210313abcb2b960991b6044820152606490fd5b60405162461bcd60e51b815260206004820152600e60248201527f496e76616c69642073656c6c65720000000000000000000000000000000000006044820152606490fd5b60405162461bcd60e51b815260206004820152601560248201527f496e76616c6964207061796d656e7420746f6b656e00000000000000000000006044820152606490fd5b60405162461bcd60e51b815260206004820152601660248201527f496e76616c696420736563757269747920746f6b656e000000000000000000006044820152606490fd5b60405163e2517d3f60e01b81523360048201527fe5f3d29fbf8cd4b379b5a8ec1437261892bf01e7d129556690f84cf7a11d2c4d6024820152604490fd5b346100ef576020806003193601126100ef57600435908160005260028152604060002061073560ff60088301541615610e1b565b6001600160a01b03806002830154163314918215610848575b50508015610806575b156107c2576002908260005252600060086040822082815582600182015582600282015582600382015582600482015582600582015582600682015582600782015501557f44b757e305fb984e622bd5b6c8bbacdd202b2613d5af5e833ca8e3e36c357a8e600080a2005b6064906040519062461bcd60e51b82526004820152600e60248201527f4e6f7420617574686f72697a65640000000000000000000000000000000000006044820152fd5b507fd471dbbd825301629315dc9fd24c8fa5addf08088354ca89ae2cdac6dc12d95060005260018152604060002033600052815260ff60406000205416610757565b60039192500154163314838061074e565b346100ef5760403660031901126100ef57610872610e05565b60043560005260016020526001600160a01b0360406000209116600052602052602060ff604060002054166040519015158152f35b346100ef5760003660031901126100ef5760206040517fe5f3d29fbf8cd4b379b5a8ec1437261892bf01e7d129556690f84cf7a11d2c4d8152f35b346100ef5760003660031901126100ef5760206040517fd471dbbd825301629315dc9fd24c8fa5addf08088354ca89ae2cdac6dc12d9508152f35b346100ef5760403660031901126100ef57610936610e05565b336001600160a01b03821603610952576100ed90600435610f4e565b60405163334bd91960e11b8152600490fd5b346100ef5760403660031901126100ef576100ed600435610983610e05565b9080600052600160205261099e600160406000200154610e89565b610ecd565b346100ef5760203660031901126100ef5760043560005260016020526020600160406000200154604051908152f35b346100ef576020806003193601126100ef5760043590600260005414610d0557600260005581600052600281526040600020906008820191610a1860ff84541615610e1b565b60078101544211610cc0576001600160a01b03808254169181600182015416926003820192808454169260048101958654604051906306eb6c9760e21b825286600483015260248201526060604482015260006064820152606081608481885afa908115610bb157600091610c7d575b506001600160f81b03191660af60f81b01610c385787600283019560648588541691600060058701549560405196879586946323b872dd60e01b86526004860152602485015260448401525af1908115610bb157600091610c02575b5015610bbd5761010492828896959360066000940154945416955416965460405197889687956323037ba760e21b8752600487015260248601526044850152606484015260c060848401528160c484015260e060a48401528160e48401525af18015610bb157610b88575b5050805460ff191660011790557f7a21a47bab42fe532c3d7a883981aae0d918617417a90e12e01d5baf978bf4b2600080a26001600055005b813d8311610baa575b610b9b8183610e67565b810103126100ef578280610b4f565b503d610b91565b6040513d6000823e3d90fd5b60405162461bcd60e51b815260048101889052601760248201527f5061796d656e74207472616e73666572206661696c65640000000000000000006044820152606490fd5b90508781813d8311610c31575b610c198183610e67565b810103126100ef575180151581036100ef578a610ae4565b503d610c0f565b60405162461bcd60e51b815260048101899052601e60248201527f5365637572697479207472616e73666572206e6f7420706f737369626c6500006044820152606490fd5b90506060813d606011610cb8575b81610c9860609383610e67565b810103126100ef57516001600160f81b0319811681036100ef578b610a88565b3d9150610c8b565b60405162461bcd60e51b815260048101839052601260248201527f536574746c656d656e74206578706972656400000000000000000000000000006044820152606490fd5b604051633ee5aeb560e01b8152600490fd5b346100ef5760203660031901126100ef5760043563ffffffff60e01b81168091036100ef57602090637965db0b60e01b8114908115610d5c575b506040519015158152f35b6301ffc9a760e01b14905082610d51565b346100ef5760203660031901126100ef5761012090600435600052600260205260406000206001600160a01b039081815416918060018301541690806002840154169060038401541660048401549060058501549260068601549460ff6008600789015498015416978952602089015260408801526060870152608086015260a085015260c084015260e08301521515610100820152f35b602435906001600160a01b03821682036100ef57565b15610e2257565b60405162461bcd60e51b815260206004820152600f60248201527f416c726561647920736574746c656400000000000000000000000000000000006044820152606490fd5b90601f8019910116810190811067ffffffffffffffff82111761048f57604052565b80600052600160205260406000203360005260205260ff6040600020541615610eaf5750565b6044906040519063e2517d3f60e01b82523360048301526024820152fd5b9060009180835260016020526001600160a01b036040842092169182845260205260ff60408420541615600014610f495780835260016020526040832082845260205260408320600160ff198254161790557f2f8788117e7eff1d82e926ec794901d17c78024a50270940304540a733656f0d339380a4600190565b505090565b9060009180835260016020526001600160a01b036040842092169182845260205260ff604084205416600014610f49578083526001602052604083208284526020526040832060ff1981541690557ff6391f5c32d9c69d2a47ea670b442974b53935d1edc7fd64eb21e047a839171b339380a460019056fea26469706673582212208eb4a64854c47e097a1b24c4c787ce2417449da9283ada27f7c50499ebf2e45a64736f6c634300081800332f8788117e7eff1d82e926ec794901d17c78024a50270940304540a733656f0d",
  "linkReferences": {},
  "deployedLinkReferences": {}
}