{
  "_format": "hh-sol-artifact-1",
  "contractName": "CcipDistributor",
  "sourceName": "contracts/bridge/CcipDistributor.sol",
  "abi": [
    {
      "inputs": [
        {
          "internalType": "address",
          "name": "router",
          "type": "address"
        },
        {
          "internalType": "address",
          "name": "admin",
          "type": "address"
        }
      ],
      "stateMutability": "nonpayable",
      "type": "constructor"
    },
    {
      "inputs": [],
      "name": "AccessControlBadConfirmation",
      "type": "error"
    },
    {
      "inputs": [
        {
          "internalType": "address",
          "name": "account",
          "type": "address"
        },
        {
          "internalType": "bytes32",
          "name": "neededRole",
          "type": "bytes32"
        }
      ],
      "name": "AccessControlUnauthorizedAccount",
      "type": "error"
    },
    {
      "inputs": [],
      "name": "ReentrancyGuardReentrantCall",
      "type": "error"
    },
    {
      "anonymous": false,
      "inputs": [
        {
          "indexed": false,
          "internalType": "uint64",
          "name": "chainSelector",
          "type": "uint64"
        },
        {
          "indexed": false,
          "internalType": "bool",
          "name": "supported",
          "type": "bool"
        }
      ],
      "name": "ChainSupported",
      "type": "event"
    },
    {
      "anonymous": false,
      "inputs": [
        {
          "indexed": false,
          "internalType": "uint64",
          "name": "chainSelector",
          "type": "uint64"
        },
        {
          "indexed": false,
          "internalType": "address",
          "name": "receiver",
          "type": "address"
        },
        {
          "indexed": false,
          "internalType": "bool",
          "name": "allowed",
          "type": "bool"
        }
      ],
      "name": "ReceiverAllowed",
      "type": "event"
    },
    {
      "anonymous": false,
      "inputs": [
        {
          "indexed": true,
          "internalType": "bytes32",
          "name": "role",
          "type": "bytes32"
        },
        {
          "indexed": true,
          "internalType": "bytes32",
          "name": "previousAdminRole",
          "type": "bytes32"
        },
        {
          "indexed": true,
          "internalType": "bytes32",
          "name": "newAdminRole",
          "type": "bytes32"
        }
      ],
      "name": "RoleAdminChanged",
      "type": "event"
    },
    {
      "anonymous": false,
      "inputs": [
        {
          "indexed": true,
          "internalType": "bytes32",
          "name": "role",
          "type": "bytes32"
        },
        {
          "indexed": true,
          "internalType": "address",
          "name": "account",
          "type": "address"
        },
        {
          "indexed": true,
          "internalType": "address",
          "name": "sender",
          "type": "address"
        }
      ],
      "name": "RoleGranted",
      "type": "event"
    },
    {
      "anonymous": false,
      "inputs": [
        {
          "indexed": true,
          "internalType": "bytes32",
          "name": "role",
          "type": "bytes32"
        },
        {
          "indexed": true,
          "internalType": "address",
          "name": "account",
          "type": "address"
        },
        {
          "indexed": true,
          "internalType": "address",
          "name": "sender",
          "type": "address"
        }
      ],
      "name": "RoleRevoked",
      "type": "event"
    },
    {
      "anonymous": false,
      "inputs": [
        {
          "indexed": false,
          "internalType": "bytes32",
          "name": "msgId",
          "type": "bytes32"
        },
        {
          "indexed": false,
          "internalType": "uint64",
          "name": "dst",
          "type": "uint64"
        },
        {
          "indexed": false,
          "internalType": "address",
          "name": "receiver",
          "type": "address"
        },
        {
          "indexed": false,
          "internalType": "bytes",
          "name": "payload",
          "type": "bytes"
        }
      ],
      "name": "Sent",
      "type": "event"
    },
    {
      "inputs": [],
      "name": "DEFAULT_ADMIN_ROLE",
      "outputs": [
        {
          "internalType": "bytes32",
          "name": "",
          "type": "bytes32"
        }
      ],
      "stateMutability": "view",
      "type": "function"
    },
    {
      "inputs": [],
      "name": "GOVERNOR_ROLE",
      "outputs": [
        {
          "internalType": "bytes32",
          "name": "",
          "type": "bytes32"
        }
      ],
      "stateMutability": "view",
      "type": "function"
    },
    {
      "inputs": [
        {
          "internalType": "uint64",
          "name": "",
          "type": "uint64"
        },
        {
          "internalType": "address",
          "name": "",
          "type": "address"
        }
      ],
      "name": "allowedReceivers",
      "outputs": [
        {
          "internalType": "bool",
          "name": "",
          "type": "bool"
        }
      ],
      "stateMutability": "view",
      "type": "function"
    },
    {
      "inputs": [
        {
          "internalType": "bytes32",
          "name": "role",
          "type": "bytes32"
        }
      ],
      "name": "getRoleAdmin",
      "outputs": [
        {
          "internalType": "bytes32",
          "name": "",
          "type": "bytes32"
        }
      ],
      "stateMutability": "view",
      "type": "function"
    },
    {
      "inputs": [
        {
          "internalType": "bytes32",
          "name": "role",
          "type": "bytes32"
        },
        {
          "internalType": "address",
          "name": "account",
          "type": "address"
        }
      ],
      "name": "grantRole",
      "outputs": [],
      "stateMutability": "nonpayable",
      "type": "function"
    },
    {
      "inputs": [
        {
          "internalType": "bytes32",
          "name": "role",
          "type": "bytes32"
        },
        {
          "internalType": "address",
          "name": "account",
          "type": "address"
        }
      ],
      "name": "hasRole",
      "outputs": [
        {
          "internalType": "bool",
          "name": "",
          "type": "bool"
        }
      ],
      "stateMutability": "view",
      "type": "function"
    },
    {
      "inputs": [
        {
          "internalType": "bytes32",
          "name": "role",
          "type": "bytes32"
        },
        {
          "internalType": "address",
          "name": "callerConfirmation",
          "type": "address"
        }
      ],
      "name": "renounceRole",
      "outputs": [],
      "stateMutability": "nonpayable",
      "type": "function"
    },
    {
      "inputs": [
        {
          "internalType": "bytes32",
          "name": "role",
          "type": "bytes32"
        },
        {
          "internalType": "address",
          "name": "account",
          "type": "address"
        }
      ],
      "name": "revokeRole",
      "outputs": [],
      "stateMutability": "nonpayable",
      "type": "function"
    },
    {
      "inputs": [
        {
          "internalType": "uint64",
          "name": "dstChain",
          "type": "uint64"
        },
        {
          "internalType": "address",
          "name": "receiver",
          "type": "address"
        },
        {
          "internalType": "bytes",
          "name": "payload",
          "type": "bytes"
        }
      ],
      "name": "send",
      "outputs": [
        {
          "internalType": "bytes32",
          "name": "",
          "type": "bytes32"
        }
      ],
      "stateMutability": "payable",
      "type": "function"
    },
    {
      "inputs": [
        {
          "internalType": "uint64",
          "name": "chainSelector",
          "type": "uint64"
        },
        {
          "internalType": "address",
          "name": "receiver",
          "type": "address"
        },
        {
          "internalType": "bool",
          "name": "allowed",
          "type": "bool"
        }
      ],
      "name": "setAllowedReceiver",
      "outputs": [],
      "stateMutability": "nonpayable",
      "type": "function"
    },
    {
      "inputs": [
        {
          "internalType": "uint64",
          "name": "chainSelector",
          "type": "uint64"
        },
        {
          "internalType": "bool",
          "name": "supported",
          "type": "bool"
        }
      ],
      "name": "setSupportedChain",
      "outputs": [],
      "stateMutability": "nonpayable",
      "type": "function"
    },
    {
      "inputs": [
        {
          "internalType": "uint64",
          "name": "",
          "type": "uint64"
        }
      ],
      "name": "supportedChains",
      "outputs": [
        {
          "internalType": "bool",
          "name": "",
          "type": "bool"
        }
      ],
      "stateMutability": "view",
      "type": "function"
    },
    {
      "inputs": [
        {
          "internalType": "bytes4",
          "name": "interfaceId",
          "type": "bytes4"
        }
      ],
      "name": "supportsInterface",
      "outputs": [
        {
          "internalType": "bool",
          "name": "",
          "type": "bool"
        }
      ],
      "stateMutability": "view",
      "type": "function"
    },
    {
      "stateMutability": "payable",
      "type": "receive"
    }
  ],
  "bytecode": "0x60a0346100c557601f610e2a38819003918201601f19168301916001600160401b038311848410176100ca5780849260409485528339810103126100c557610052602061004b836100e0565b92016100e0565b600180556001600160a01b039091169081156100975761007e91608052610078816100f4565b50610172565b50604051610bf7908161021382396080518161055b0152f35b60405162461bcd60e51b81526020600482015260066024820152653937baba32b960d11b6044820152606490fd5b600080fd5b634e487b7160e01b600052604160045260246000fd5b51906001600160a01b03821682036100c557565b6001600160a01b031660008181527fad3228b676f7d3cd4284a5443f17f1962b36e491b30a40b2405849e597ba5fb5602052604081205490919060ff1661016e57818052816020526040822081835260205260408220600160ff198254161790553391600080516020610e0a8339815191528180a4600190565b5090565b6001600160a01b031660008181527f6f3b488caa0dc03e5f3d9fd6a25fa8755afcfd62ccffb6e436c696bfa6b866de60205260408120549091907f7935bd0ae54bc31f548c14dba4d37c5c64b3f8ca900cb468fb8abd54d5894f559060ff1661020d57808352826020526040832082845260205260408320600160ff19825416179055600080516020610e0a833981519152339380a4600190565b50509056fe608080604052600436101561001d575b50361561001b57600080fd5b005b60003560e01c90816301ffc9a71461085f57508063248a9ca3146108305780632f2ff15d146107f157806336568abe146107aa57806367914f6e146103815780637589d4cd1461032357806391d14854146102d55780639602bad514610222578063a217fddf14610206578063ccc57490146101cb578063d547741f1461018c578063f5b5b804146100fe5763f9c3f332146100b9573861000f565b346100f95760203660031901126100f95767ffffffffffffffff6100db6108c8565b166000526002602052602060ff604060002054166040519015158152f35b600080fd5b346100f95760403660031901126100f9576101176108c8565b60243590811515918281036100f9577f1e0c3057f04400da671fb47f00beb7d5ac4d6ffc2280ddcdf55321419659ebef9261017f67ffffffffffffffff60409461015f610a2c565b1692836000526002602052846000209060ff801983541691151516179055565b82519182526020820152a1005b346100f95760403660031901126100f95761001b6004356101ab6108b2565b908060005260006020526101c6600160406000200154610aa6565b610b4b565b346100f95760003660031901126100f95760206040517f7935bd0ae54bc31f548c14dba4d37c5c64b3f8ca900cb468fb8abd54d5894f558152f35b346100f95760003660031901126100f957602060405160008152f35b346100f95760603660031901126100f95761023b6108c8565b6102436108b2565b906044358015158082036100f9577f245ade2460496267c58f569481c96bf38ea7807af4e3070438ebc4a0fb8d1b61936102c267ffffffffffffffff60609561028a610a2c565b16938460005260036020526001600160a01b0360406000209316928360005260205260406000209060ff801983541691151516179055565b60405192835260208301526040820152a1005b346100f95760403660031901126100f9576102ee6108b2565b60043560005260006020526001600160a01b0360406000209116600052602052602060ff604060002054166040519015158152f35b346100f95760403660031901126100f95761033c6108c8565b67ffffffffffffffff61034d6108b2565b911660005260036020526001600160a01b0360406000209116600052602052602060ff604060002054166040519015158152f35b60603660031901126100f9576103956108c8565b61039d6108b2565b906044359067ffffffffffffffff82116100f957366023830112156100f95767ffffffffffffffff8260040135116100f9573660248360040135840101116100f9576103e7610a2c565b60026001541461079857600260015567ffffffffffffffff8116600052600260205260ff604060002054161561076b5767ffffffffffffffff8116600052600360205260406000206001600160a01b03841660005260205260ff604060002054161561074057604051916001600160a01b03841660208401526020835261046d836108df565b6040516020810181811067ffffffffffffffff82111761072a57604052600081526040519361049b856108df565b60006020620493e0968781520152604051946020860152600060408601526040855284606081011067ffffffffffffffff60608701111761072a576060850161010086011067ffffffffffffffff6101008701111761072a576101008501604052606085015260405161051c6020601f19601f8660040135011601826108fb565b600483013580825260248401602083013760006020846004013583010152608085015260a08401528260c0810152600060e08401526001600160a01b037f00000000000000000000000000000000000000000000000000000000000000001660405163210a4e9d60e21b81526020818061059d60608901886004840161095d565b0381855afa9081156106c1576000916106f8575b5034106106cd57604051632809f93160e01b8152936020918591829081906105e090606001886004840161095d565b039134905af19283156106c15760009361068a575b5060a07f8cdcaac7bebd0c951a7450b3f3b461efbf75b15854d8a8dbf7252180f45110f79267ffffffffffffffff926001600160a01b036020976040519586948986521689850152166040830152608060608301528060040135608083015280600401356024820184840137600083826004013584010152601f8019916004013501168101030190a160018055604051908152f35b9392506020843d6020116106b9575b816106a6602093836108fb565b810103126100f9579251919260a06105f5565b3d9150610699565b6040513d6000823e3d90fd5b60405162461bcd60e51b815260206004820152600360248201526266656560e81b6044820152606490fd5b90506020813d602011610722575b81610713602093836108fb565b810103126100f95751866105b1565b3d9150610706565b634e487b7160e01b600052604160045260246000fd5b606460405162461bcd60e51b81526020600482015260046024820152633932b1bb60e11b6044820152fd5b60405162461bcd60e51b815260206004820152600560248201526431b430b4b760d91b6044820152606490fd5b604051633ee5aeb560e01b8152600490fd5b346100f95760403660031901126100f9576107c36108b2565b336001600160a01b038216036107df5761001b90600435610b4b565b60405163334bd91960e11b8152600490fd5b346100f95760403660031901126100f95761001b6004356108106108b2565b9080600052600060205261082b600160406000200154610aa6565b610acc565b346100f95760203660031901126100f95760043560005260006020526020600160406000200154604051908152f35b346100f95760203660031901126100f9576004359063ffffffff60e01b82168092036100f957602091637965db0b60e01b81149081156108a1575b5015158152f35b6301ffc9a760e01b1490508361089a565b602435906001600160a01b03821682036100f957565b6004359067ffffffffffffffff821682036100f957565b6040810190811067ffffffffffffffff82111761072a57604052565b90601f8019910116810190811067ffffffffffffffff82111761072a57604052565b919082519283825260005b848110610949575050826000602080949584010152601f8019910116010190565b602081830181015184830182015201610928565b9067ffffffffffffffff60409116825260209060408284015261098c845160a0604086015260e085019061091d565b906109a88386015192603f19938487830301606088015261091d565b604086015193838683030160808701528080865193848152019501926000905b838210610a0357505050505060806109f960c0936001600160a01b03936060880151908783030160a088015261091d565b9401511691015290565b845180516001600160a01b031688528301518784015295860195938201936001909101906109c8565b3360009081527f6f3b488caa0dc03e5f3d9fd6a25fa8755afcfd62ccffb6e436c696bfa6b866de60205260409020547f7935bd0ae54bc31f548c14dba4d37c5c64b3f8ca900cb468fb8abd54d5894f559060ff1615610a885750565b6044906040519063e2517d3f60e01b82523360048301526024820152fd5b80600052600060205260406000203360005260205260ff6040600020541615610a885750565b90600091808352826020526001600160a01b036040842092169182845260205260ff60408420541615600014610b4657808352826020526040832082845260205260408320600160ff198254161790557f2f8788117e7eff1d82e926ec794901d17c78024a50270940304540a733656f0d339380a4600190565b505090565b90600091808352826020526001600160a01b036040842092169182845260205260ff604084205416600014610b465780835282602052604083208284526020526040832060ff1981541690557ff6391f5c32d9c69d2a47ea670b442974b53935d1edc7fd64eb21e047a839171b339380a460019056fea26469706673582212208fd9e766704614b5be981baeb700dfa021bf0bda7a24095febbf52dbc2639c1464736f6c634300081800332f8788117e7eff1d82e926ec794901d17c78024a50270940304540a733656f0d",
  "linkReferences": {},
  "deployedLinkReferences": {}
}