{"abi":[{"type":"constructor","inputs":[{"name":"_admin","type":"address","internalType":"address"}],"stateMutability":"nonpayable"},{"type":"function","name":"admin","inputs":[],"outputs":[{"name":"","type":"address","internalType":"address"}],"stateMutability":"view"},{"type":"function","name":"records","inputs":[{"name":"","type":"address","internalType":"address"}],"outputs":[{"name":"approved","type":"bool","internalType":"bool"},{"name":"jurisdiction","type":"bytes32","internalType":"bytes32"},{"name":"riskTier","type":"bytes32","internalType":"bytes32"},{"name":"updatedAt","type":"uint64","internalType":"uint64"}],"stateMutability":"view"},{"type":"function","name":"set","inputs":[{"name":"party","type":"address","internalType":"address"},{"name":"approved","type":"bool","internalType":"bool"},{"name":"jurisdiction","type":"bytes32","internalType":"bytes32"},{"name":"riskTier","type":"bytes32","internalType":"bytes32"}],"outputs":[],"stateMutability":"nonpayable"},{"type":"function","name":"transferAdmin","inputs":[{"name":"to","type":"address","internalType":"address"}],"outputs":[],"stateMutability":"nonpayable"},{"type":"event","name":"AdminTransferred","inputs":[{"name":"from","type":"address","indexed":true,"internalType":"address"},{"name":"to","type":"address","indexed":true,"internalType":"address"}],"anonymous":false},{"type":"event","name":"KYCSet","inputs":[{"name":"party","type":"address","indexed":true,"internalType":"address"},{"name":"approved","type":"bool","indexed":false,"internalType":"bool"},{"name":"jurisdiction","type":"bytes32","indexed":false,"internalType":"bytes32"},{"name":"riskTier","type":"bytes32","indexed":false,"internalType":"bytes32"}],"anonymous":false}],"bytecode":{"object":"0x6080346100ae57601f61055f38819003918201601f19168301916001600160401b038311848410176100b3578084926020946040528339810103126100ae57516001600160a01b038116908190036100ae57801561007a57600080546001600160a01b03191691909117905560405161049590816100ca8239f35b60405162461bcd60e51b815260206004820152600c60248201526b04b59433a2061646d696e20360a41b6044820152606490fd5b600080fd5b634e487b7160e01b600052604160045260246000fdfe60806040818152600436101561001457600080fd5b600091823560e01c908163469e90671461033f57508063578a6f5c146101b557806375829def146100a15763f851a4401461004e57600080fd5b3461009d57817ffffffffffffffffffffffffffffffffffffffffffffffffffffffffffffffffc36011261009d5773ffffffffffffffffffffffffffffffffffffffff60209254169051908152f35b5080fd5b503461009d5760207ffffffffffffffffffffffffffffffffffffffffffffffffffffffffffffffffc36011261009d576100d96103d2565b82549073ffffffffffffffffffffffffffffffffffffffff808316916101008333146103fa565b16928315610158575090827fffffffffffffffffffffffff0000000000000000000000000000000000000000927ff8ccb027dfcd135e000e9d45e6cc2d662578a8825d4c45b5e32e0adf67e79ec68680a31617815580f35b606490517f08c379a000000000000000000000000000000000000000000000000000000000815260206004820152600660248201527f4b59433a203000000000000000000000000000000000000000000000000000006044820152fd5b503461009d5760807ffffffffffffffffffffffffffffffffffffffffffffffffffffffffffffffffc36011261009d576101ed6103d2565b6024359182151580930361033b576044356064359273ffffffffffffffffffffffffffffffffffffffff6102258188541633146103fa565b835167ffffffffffffffff91608082018381118382101761030e579260038a9996937f3f489e81226da4008a1a17f9c169c7ae64df1c810404f0fbcde2b3e60fcbd979999693899660609a528882526020820186815287808401928a84528c8501978742168952169d8e81526001602052209251151560ff7fffffffffffffffffffffffffffffffffffffffffffffffffffffffffffffff008554169116178355516001830155516002820155019151167fffffffffffffffffffffffffffffffffffffffffffffffff000000000000000082541617905581519384526020840152820152a280f35b60248a7f4e487b710000000000000000000000000000000000000000000000000000000081526041600452fd5b8380fd5b919050346103ce5760207ffffffffffffffffffffffffffffffffffffffffffffffffffffffffffffffffc3601126103ce578060809373ffffffffffffffffffffffffffffffffffffffff6103926103d2565b16815260016020522060ff81541691600182015467ffffffffffffffff6003600285015494015416931515855260208501528301526060820152f35b8280fd5b6004359073ffffffffffffffffffffffffffffffffffffffff821682036103f557565b600080fd5b1561040157565b60646040517f08c379a000000000000000000000000000000000000000000000000000000000815260206004820152600e60248201527f4b59433a206e6f742061646d696e0000000000000000000000000000000000006044820152fdfea26469706673582212202cab1e95c7d959b5aa358dbb56c2c482318f1635b033c89b0dcbd993e3ec452764736f6c63430008180033","linkReferences":{}},"methodIdentifiers":{"admin()":"f851a440","records(address)":"469e9067","set(address,bool,bytes32,bytes32)":"578a6f5c","transferAdmin(address)":"75829def"},"id":6}