{
  "_format": "hh-sol-artifact-1",
  "contractName": "PolicyEngineUpgradeable",
  "sourceName": "contracts/compliance/PolicyEngineUpgradeable.sol",
  "abi": [
    {
      "inputs": [],
      "name": "AccessControlBadConfirmation",
      "type": "error"
    },
    {
      "inputs": [
        {
          "internalType": "address",
          "name": "account",
          "type": "address"
        },
        {
          "internalType": "bytes32",
          "name": "neededRole",
          "type": "bytes32"
        }
      ],
      "name": "AccessControlUnauthorizedAccount",
      "type": "error"
    },
    {
      "inputs": [],
      "name": "AttestationInvalid",
      "type": "error"
    },
    {
      "inputs": [],
      "name": "Frozen",
      "type": "error"
    },
    {
      "inputs": [],
      "name": "GlobalPause",
      "type": "error"
    },
    {
      "inputs": [],
      "name": "InvalidInitialization",
      "type": "error"
    },
    {
      "inputs": [],
      "name": "InvestorClassBlocked",
      "type": "error"
    },
    {
      "inputs": [],
      "name": "JurisdictionBlocked",
      "type": "error"
    },
    {
      "inputs": [],
      "name": "LockupActive",
      "type": "error"
    },
    {
      "inputs": [],
      "name": "NotInitializing",
      "type": "error"
    },
    {
      "inputs": [],
      "name": "Sanctioned",
      "type": "error"
    },
    {
      "anonymous": false,
      "inputs": [
        {
          "indexed": false,
          "internalType": "uint64",
          "name": "version",
          "type": "uint64"
        }
      ],
      "name": "Initialized",
      "type": "event"
    },
    {
      "anonymous": false,
      "inputs": [
        {
          "indexed": false,
          "internalType": "bytes32",
          "name": "key",
          "type": "bytes32"
        },
        {
          "indexed": false,
          "internalType": "bytes",
          "name": "value",
          "type": "bytes"
        }
      ],
      "name": "PolicySet",
      "type": "event"
    },
    {
      "anonymous": false,
      "inputs": [
        {
          "indexed": false,
          "internalType": "address",
          "name": "registry",
          "type": "address"
        },
        {
          "indexed": false,
          "internalType": "address",
          "name": "court",
          "type": "address"
        }
      ],
      "name": "RegistriesSet",
      "type": "event"
    },
    {
      "anonymous": false,
      "inputs": [
        {
          "indexed": true,
          "internalType": "bytes32",
          "name": "role",
          "type": "bytes32"
        },
        {
          "indexed": true,
          "internalType": "bytes32",
          "name": "previousAdminRole",
          "type": "bytes32"
        },
        {
          "indexed": true,
          "internalType": "bytes32",
          "name": "newAdminRole",
          "type": "bytes32"
        }
      ],
      "name": "RoleAdminChanged",
      "type": "event"
    },
    {
      "anonymous": false,
      "inputs": [
        {
          "indexed": true,
          "internalType": "bytes32",
          "name": "role",
          "type": "bytes32"
        },
        {
          "indexed": true,
          "internalType": "address",
          "name": "account",
          "type": "address"
        },
        {
          "indexed": true,
          "internalType": "address",
          "name": "sender",
          "type": "address"
        }
      ],
      "name": "RoleGranted",
      "type": "event"
    },
    {
      "anonymous": false,
      "inputs": [
        {
          "indexed": true,
          "internalType": "bytes32",
          "name": "role",
          "type": "bytes32"
        },
        {
          "indexed": true,
          "internalType": "address",
          "name": "account",
          "type": "address"
        },
        {
          "indexed": true,
          "internalType": "address",
          "name": "sender",
          "type": "address"
        }
      ],
      "name": "RoleRevoked",
      "type": "event"
    },
    {
      "inputs": [],
      "name": "DEFAULT_ADMIN_ROLE",
      "outputs": [
        {
          "internalType": "bytes32",
          "name": "",
          "type": "bytes32"
        }
      ],
      "stateMutability": "view",
      "type": "function"
    },
    {
      "inputs": [],
      "name": "GOVERNOR_ROLE",
      "outputs": [
        {
          "internalType": "bytes32",
          "name": "",
          "type": "bytes32"
        }
      ],
      "stateMutability": "view",
      "type": "function"
    },
    {
      "inputs": [],
      "name": "WRITER_ROLE",
      "outputs": [
        {
          "internalType": "bytes32",
          "name": "",
          "type": "bytes32"
        }
      ],
      "stateMutability": "view",
      "type": "function"
    },
    {
      "inputs": [
        {
          "components": [
            {
              "internalType": "address",
              "name": "token",
              "type": "address"
            },
            {
              "internalType": "address",
              "name": "operator",
              "type": "address"
            },
            {
              "internalType": "address",
              "name": "from",
              "type": "address"
            },
            {
              "internalType": "address",
              "name": "to",
              "type": "address"
            },
            {
              "internalType": "uint256",
              "name": "amount",
              "type": "uint256"
            }
          ],
          "internalType": "struct Types.TransferContext",
          "name": "ctx",
          "type": "tuple"
        }
      ],
      "name": "checkTransfer",
      "outputs": [],
      "stateMutability": "view",
      "type": "function"
    },
    {
      "inputs": [],
      "name": "court",
      "outputs": [
        {
          "internalType": "contract ICourtOrderRegistry",
          "name": "",
          "type": "address"
        }
      ],
      "stateMutability": "view",
      "type": "function"
    },
    {
      "inputs": [
        {
          "internalType": "bytes32",
          "name": "role",
          "type": "bytes32"
        }
      ],
      "name": "getRoleAdmin",
      "outputs": [
        {
          "internalType": "bytes32",
          "name": "",
          "type": "bytes32"
        }
      ],
      "stateMutability": "view",
      "type": "function"
    },
    {
      "inputs": [],
      "name": "globalPaused",
      "outputs": [
        {
          "internalType": "bool",
          "name": "",
          "type": "bool"
        }
      ],
      "stateMutability": "view",
      "type": "function"
    },
    {
      "inputs": [
        {
          "internalType": "bytes32",
          "name": "role",
          "type": "bytes32"
        },
        {
          "internalType": "address",
          "name": "account",
          "type": "address"
        }
      ],
      "name": "grantRole",
      "outputs": [],
      "stateMutability": "nonpayable",
      "type": "function"
    },
    {
      "inputs": [
        {
          "internalType": "bytes32",
          "name": "role",
          "type": "bytes32"
        },
        {
          "internalType": "address",
          "name": "account",
          "type": "address"
        }
      ],
      "name": "hasRole",
      "outputs": [
        {
          "internalType": "bool",
          "name": "",
          "type": "bool"
        }
      ],
      "stateMutability": "view",
      "type": "function"
    },
    {
      "inputs": [
        {
          "internalType": "address",
          "name": "admin",
          "type": "address"
        },
        {
          "internalType": "address",
          "name": "governor",
          "type": "address"
        },
        {
          "internalType": "address",
          "name": "registry_",
          "type": "address"
        },
        {
          "internalType": "address",
          "name": "court_",
          "type": "address"
        }
      ],
      "name": "initialize",
      "outputs": [],
      "stateMutability": "nonpayable",
      "type": "function"
    },
    {
      "inputs": [
        {
          "internalType": "address",
          "name": "",
          "type": "address"
        }
      ],
      "name": "lastOutflowAmt",
      "outputs": [
        {
          "internalType": "uint256",
          "name": "",
          "type": "uint256"
        }
      ],
      "stateMutability": "view",
      "type": "function"
    },
    {
      "inputs": [
        {
          "internalType": "address",
          "name": "",
          "type": "address"
        }
      ],
      "name": "lastOutflowTs",
      "outputs": [
        {
          "internalType": "uint256",
          "name": "",
          "type": "uint256"
        }
      ],
      "stateMutability": "view",
      "type": "function"
    },
    {
      "inputs": [],
      "name": "maxDailyOutflow",
      "outputs": [
        {
          "internalType": "uint256",
          "name": "",
          "type": "uint256"
        }
      ],
      "stateMutability": "view",
      "type": "function"
    },
    {
      "inputs": [],
      "name": "maxHolderBalance",
      "outputs": [
        {
          "internalType": "uint256",
          "name": "",
          "type": "uint256"
        }
      ],
      "stateMutability": "view",
      "type": "function"
    },
    {
      "inputs": [],
      "name": "registry",
      "outputs": [
        {
          "internalType": "contract IComplianceRegistry",
          "name": "",
          "type": "address"
        }
      ],
      "stateMutability": "view",
      "type": "function"
    },
    {
      "inputs": [
        {
          "internalType": "bytes32",
          "name": "role",
          "type": "bytes32"
        },
        {
          "internalType": "address",
          "name": "callerConfirmation",
          "type": "address"
        }
      ],
      "name": "renounceRole",
      "outputs": [],
      "stateMutability": "nonpayable",
      "type": "function"
    },
    {
      "inputs": [],
      "name": "requireKYCApproved",
      "outputs": [
        {
          "internalType": "bool",
          "name": "",
          "type": "bool"
        }
      ],
      "stateMutability": "view",
      "type": "function"
    },
    {
      "inputs": [],
      "name": "restrictJurisdictionUSOnly",
      "outputs": [
        {
          "internalType": "bool",
          "name": "",
          "type": "bool"
        }
      ],
      "stateMutability": "view",
      "type": "function"
    },
    {
      "inputs": [
        {
          "internalType": "bytes32",
          "name": "role",
          "type": "bytes32"
        },
        {
          "internalType": "address",
          "name": "account",
          "type": "address"
        }
      ],
      "name": "revokeRole",
      "outputs": [],
      "stateMutability": "nonpayable",
      "type": "function"
    },
    {
      "inputs": [
        {
          "internalType": "uint256",
          "name": "_maxHolderBalance",
          "type": "uint256"
        },
        {
          "internalType": "uint256",
          "name": "_maxDailyOutflow",
          "type": "uint256"
        }
      ],
      "name": "setCaps",
      "outputs": [],
      "stateMutability": "nonpayable",
      "type": "function"
    },
    {
      "inputs": [
        {
          "internalType": "bool",
          "name": "_globalPaused",
          "type": "bool"
        },
        {
          "internalType": "bool",
          "name": "_requireKYCApproved",
          "type": "bool"
        },
        {
          "internalType": "bool",
          "name": "_restrictUSOnly",
          "type": "bool"
        }
      ],
      "name": "setSwitches",
      "outputs": [],
      "stateMutability": "nonpayable",
      "type": "function"
    },
    {
      "inputs": [
        {
          "internalType": "bytes4",
          "name": "interfaceId",
          "type": "bytes4"
        }
      ],
      "name": "supportsInterface",
      "outputs": [
        {
          "internalType": "bool",
          "name": "",
          "type": "bool"
        }
      ],
      "stateMutability": "view",
      "type": "function"
    }
  ],
  "bytecode": "0x6080806040523461001657611133908161001c8239f35b600080fdfe6080604081815260048036101561001557600080fd5b600092833560e01c908162971a3014610c135750806301ffc9a714610bbe5780630697b15214610b9f578063150fb4d114610b80578063212bf31614610aea578063248a9ca314610ab357806324fb1fe114610a7c5780632f2ff15d14610a5357806336568abe14610a0c5780636153fe85146109e557806361a552dc146109be57806368d0d000146105be5780637b1039991461059857806391d148541461054657806395d8180b1461051f5780639beaab7b146104e4578063a217fddf146104c9578063ccc574901461048e578063d547741f14610442578063d9d3214e1461032f578063dde9ed60146102fa5763f8c8765e1461011457600080fd5b346102f65760803660031901126102f65761012d610c38565b90610136610c53565b604435906001600160a01b03908183168093036102f2576064359182168092036102f2577ff0c57e16840df040f15088dc2f81fe391c3923bec73e23a9662efc9c229c6a009485549460ff86891c16159567ffffffffffffffff8116801590816102ea575b60011490816102e0575b1590816102d7575b506102c85767ffffffffffffffff1981166001178855866102a9575b5060ff8754891c161561029b5750906101e46101ea92610e6f565b50610f0f565b50816001600160a01b03198754161786557f70ec9b48be5f7de32ef612d43ba55af69d1dd629935dc7ab66c4c16888338ece85600154938151908152836020820152a175ff00ffffffffffffffffffffffffffffffffffffffff1990911617600160a81b1760015561025a578280f35b805468ff00000000000000001916905551600181527fc7f505b2f371ae2175ee4913f4499e1f2633a7b5936321eed1cdaeb6115181d290602090a138808280f35b8751631afcd79f60e31b8152fd5b68ffffffffffffffffff191668010000000000000001178755386101c9565b50875163f92ee8a960e01b8152fd5b905015386101ad565b303b1591506101a5565b88915061019b565b8680fd5b8280fd5b50346102f65760203660031901126102f65760209282916001600160a01b03610321610c38565b168252845220549051908152f35b5091903461043e57606036600319011261043e5782358015158091036102f65760243580151580910361043a576044359081151580920361043657610372610dc2565b60015460ff60b01b8360b01b169060ff60a01b8560a01b169062ffffff60a01b19161760ff60a81b8360a81b161717600155835192602084015283830152606082015260608152608081019181831067ffffffffffffffff841117610423577f528c3e4ba7c79f649890a647b6d637e4ee7a7cb27e990bfcf5685e9799f8f04e93945082815267737769746368657360c01b835260a0820152607f199061041c60c0820182610ca1565b030190a180f35b634e487b7160e01b845260418552602484fd5b8480fd5b8380fd5b5080fd5b5090346102f657806003193601126102f65761048a91356104856001610466610c53565b938387526000805160206110de83398151915260205286200154610e3c565b611059565b5080f35b50503461043e578160031936011261043e57602090517f7935bd0ae54bc31f548c14dba4d37c5c64b3f8ca900cb468fb8abd54d5894f558152f35b50503461043e578160031936011261043e5751908152602090f35b50503461043e578160031936011261043e57602090517f2b8f168f361ac1393a163ed4adfa899a87be7b7c71645167bdaddd822ae453c88152f35b50503461043e578160031936011261043e5760209060ff60015460b01c1690519015158152f35b50346102f657816003193601126102f6578160209360ff92610566610c53565b903582526000805160206110de83398151915286526001600160a01b0383832091168252855220541690519015158152f35b50503461043e578160031936011261043e576001600160a01b0360209254169051908152f35b5090346102f65760a03660031901126102f65760015460ff8160a01c166109b0576001600160a01b038335918183168093036109ac57835192634f8a0bfb60e01b845285840152602090602493828186818786165afa9081156109a2578891610969575b50610959578287541690610634610ce1565b865163eae4f19f60e01b808252918616898201529084828881875afa91821561094f578a92610914575b5081156108aa575b5061089a57610673610ce1565b93865192816330ccebb560e01b96878652168985015260c09586858981855afa9485156108905787929189918d97610871575b506106af610cf7565b928b5195869485938452168d8301525afa948515610867578995610838575b505060ff8160a81c166107e6575b60a0820151158015906107d9575b6107c95767ffffffffffffffff60808301511642106107ba579060ff8694939260b01c1661074a575b505001519083821015610739575060031461072c578280f35b5163298010ab60e11b8152fd5b634e487b7160e01b85526021845284fd5b81929350015160078110156107a8571590811591610780575b506107715782903880610713565b505051633c03149960e11b8152fd5b9050810151600781101561079657151538610763565b634e487b7160e01b8652602185528286fd5b634e487b7160e01b8752602186528387fd5b855162ccaec560e61b81528790fd5b855163a8cab3d160e01b81528790fd5b5060a084015115156106ea565b8151600581101561082657600214801590610811575b156106dc5785516360dc988d60e01b81528790fd5b508351600581101561082657600214156107fc565b634e487b7160e01b8952602188528589fd5b610858929550803d10610860575b6108508183610c69565b810190610d2f565b9238806106ce565b503d610846565b87513d8b823e3d90fd5b610889919750843d8611610860576108508183610c69565b95386106a6565b89513d8d823e3d90fd5b85516320cf996960e11b81528790fd5b9050846108b5610cf7565b8851928352168882015283818781865afa9081156108675789916108db575b5038610666565b90508381813d831161090d575b6108f28183610c69565b810103126109095761090390610d0d565b386108d4565b8880fd5b503d6108e8565b9091508481813d8311610948575b61092c8183610c69565b810103126109445761093d90610d0d565b903861065e565b8980fd5b503d610922565b88513d8c823e3d90fd5b845163a8cab3d160e01b81528690fd5b90508281813d831161099b575b6109808183610c69565b810103126109975761099190610d0d565b38610622565b8780fd5b503d610976565b86513d8a823e3d90fd5b8580fd5b505163275ad0db60e21b8152fd5b50503461043e578160031936011261043e5760209060ff60015460a01c1690519015158152f35b50503461043e578160031936011261043e5760209060ff60015460a81c1690519015158152f35b5091903461043e578060031936011261043e57610a27610c53565b90336001600160a01b03831603610a44575061048a919235611059565b5163334bd91960e11b81528390fd5b5090346102f657806003193601126102f65761048a9135610a776001610466610c53565b610fd1565b50503461043e57602036600319011261043e57806020926001600160a01b03610aa3610c38565b1681526005845220549051908152f35b50346102f65760203660031901126102f657816020936001923581526000805160206110de83398151915285522001549051908152f35b5091903461043e578060031936011261043e578235602435610b0a610dc2565b8160025580600355825191602083015282820152818152606081019181831067ffffffffffffffff841117610423577f528c3e4ba7c79f649890a647b6d637e4ee7a7cb27e990bfcf5685e9799f8f04e939450828152636361707360e01b83526080820152605f199061041c60a0820182610ca1565b50503461043e578160031936011261043e576020906003549051908152f35b50503461043e578160031936011261043e576020906002549051908152f35b50346102f65760203660031901126102f657359063ffffffff60e01b82168092036102f65760209250637965db0b60e01b8214918215610c02575b50519015158152f35b6301ffc9a760e01b14915038610bf9565b84903461043e578160031936011261043e576020906001600160a01b03600154168152f35b600435906001600160a01b0382168203610c4e57565b600080fd5b602435906001600160a01b0382168203610c4e57565b90601f8019910116810190811067ffffffffffffffff821117610c8b57604052565b634e487b7160e01b600052604160045260246000fd5b919082519283825260005b848110610ccd575050826000602080949584010152601f8019910116010190565b602081830181015184830182015201610cac565b6044356001600160a01b0381168103610c4e5790565b6064356001600160a01b0381168103610c4e5790565b51908115158203610c4e57565b519067ffffffffffffffff82168203610c4e57565b908160c0910312610c4e576040519060c0820182811067ffffffffffffffff821117610c8b5760405280516005811015610c4e57825260208101516007811015610c4e57602083015260408101516004811015610c4e57610dba9160a0916040850152610d9e60608201610d1a565b6060850152610daf60808201610d1a565b608085015201610d0d565b60a082015290565b3360009081527f75e09417c5070057df3eafe5054d52fa0b2a87d64a235e197963b615aedee80360205260409020547f7935bd0ae54bc31f548c14dba4d37c5c64b3f8ca900cb468fb8abd54d5894f559060ff1615610e1e5750565b6044906040519063e2517d3f60e01b82523360048301526024820152fd5b806000526000805160206110de83398151915260205260406000203360005260205260ff6040600020541615610e1e5750565b6001600160a01b031660008181527fb7db2dd08fcb62d0c9e08c51941cae53c267786a0b75803fb7960902fc8ef97d60205260408120549091906000805160206110de8339815191529060ff16610f0a578280526020526040822081835260205260408220600160ff1982541617905533917f2f8788117e7eff1d82e926ec794901d17c78024a50270940304540a733656f0d8180a4600190565b505090565b6001600160a01b031660008181527f75e09417c5070057df3eafe5054d52fa0b2a87d64a235e197963b615aedee80360205260408120549091907f7935bd0ae54bc31f548c14dba4d37c5c64b3f8ca900cb468fb8abd54d5894f55906000805160206110de8339815191529060ff16610fcb578184526020526040832082845260205260408320600160ff198254161790557f2f8788117e7eff1d82e926ec794901d17c78024a50270940304540a733656f0d339380a4600190565b50505090565b906000918083526000805160206110de833981519152806020526001600160a01b036040852093169283855260205260ff60408520541615600014610fcb578184526020526040832082845260205260408320600160ff198254161790557f2f8788117e7eff1d82e926ec794901d17c78024a50270940304540a733656f0d339380a4600190565b906000918083526000805160206110de833981519152806020526001600160a01b036040852093169283855260205260ff604085205416600014610fcb57818452602052604083208284526020526040832060ff1981541690557ff6391f5c32d9c69d2a47ea670b442974b53935d1edc7fd64eb21e047a839171b339380a460019056fe02dd7bc7dec4dceedda775e58dd541e08a116c6c53815c0bd028192f7b626800a2646970667358221220cc4eb6f28aa1bd9be4a05739b1a0687486747ed80b9620743c6ec5d35d1b247064736f6c63430008180033",
  "linkReferences": {},
  "deployedLinkReferences": {}
}