{"abi":[{"type":"constructor","inputs":[{"name":"admin","type":"address","internalType":"address"}],"stateMutability":"nonpayable"},{"type":"function","name":"ADMIN_ROLE","inputs":[],"outputs":[{"name":"","type":"bytes32","internalType":"bytes32"}],"stateMutability":"view"},{"type":"function","name":"BRIDGE_ROLE","inputs":[],"outputs":[{"name":"","type":"bytes32","internalType":"bytes32"}],"stateMutability":"view"},{"type":"function","name":"DEFAULT_ADMIN_ROLE","inputs":[],"outputs":[{"name":"","type":"bytes32","internalType":"bytes32"}],"stateMutability":"view"},{"type":"function","name":"getRoleAdmin","inputs":[{"name":"role","type":"bytes32","internalType":"bytes32"}],"outputs":[{"name":"","type":"bytes32","internalType":"bytes32"}],"stateMutability":"view"},{"type":"function","name":"grantRole","inputs":[{"name":"role","type":"bytes32","internalType":"bytes32"},{"name":"account","type":"address","internalType":"address"}],"outputs":[],"stateMutability":"nonpayable"},{"type":"function","name":"hasRole","inputs":[{"name":"role","type":"bytes32","internalType":"bytes32"},{"name":"account","type":"address","internalType":"address"}],"outputs":[{"name":"","type":"bool","internalType":"bool"}],"stateMutability":"view"},{"type":"function","name":"mint","inputs":[{"name":"token","type":"address","internalType":"address"},{"name":"to","type":"address","internalType":"address"},{"name":"amt","type":"uint256","internalType":"uint256"}],"outputs":[],"stateMutability":"nonpayable"},{"type":"function","name":"renounceRole","inputs":[{"name":"role","type":"bytes32","internalType":"bytes32"},{"name":"callerConfirmation","type":"address","internalType":"address"}],"outputs":[],"stateMutability":"nonpayable"},{"type":"function","name":"revokeRole","inputs":[{"name":"role","type":"bytes32","internalType":"bytes32"},{"name":"account","type":"address","internalType":"address"}],"outputs":[],"stateMutability":"nonpayable"},{"type":"function","name":"setBridge","inputs":[{"name":"bridge","type":"address","internalType":"address"}],"outputs":[],"stateMutability":"nonpayable"},{"type":"function","name":"supportsInterface","inputs":[{"name":"interfaceId","type":"bytes4","internalType":"bytes4"}],"outputs":[{"name":"","type":"bool","internalType":"bool"}],"stateMutability":"view"},{"type":"event","name":"BridgeSet","inputs":[{"name":"bridge","type":"address","indexed":false,"internalType":"address"}],"anonymous":false},{"type":"event","name":"MintForwarded","inputs":[{"name":"token","type":"address","indexed":false,"internalType":"address"},{"name":"to","type":"address","indexed":false,"internalType":"address"},{"name":"amount","type":"uint256","indexed":false,"internalType":"uint256"}],"anonymous":false},{"type":"event","name":"RoleAdminChanged","inputs":[{"name":"role","type":"bytes32","indexed":true,"internalType":"bytes32"},{"name":"previousAdminRole","type":"bytes32","indexed":true,"internalType":"bytes32"},{"name":"newAdminRole","type":"bytes32","indexed":true,"internalType":"bytes32"}],"anonymous":false},{"type":"event","name":"RoleGranted","inputs":[{"name":"role","type":"bytes32","indexed":true,"internalType":"bytes32"},{"name":"account","type":"address","indexed":true,"internalType":"address"},{"name":"sender","type":"address","indexed":true,"internalType":"address"}],"anonymous":false},{"type":"event","name":"RoleRevoked","inputs":[{"name":"role","type":"bytes32","indexed":true,"internalType":"bytes32"},{"name":"account","type":"address","indexed":true,"internalType":"address"},{"name":"sender","type":"address","indexed":true,"internalType":"address"}],"anonymous":false},{"type":"error","name":"AccessControlBadConfirmation","inputs":[]},{"type":"error","name":"AccessControlUnauthorizedAccount","inputs":[{"name":"account","type":"address","internalType":"address"},{"name":"neededRole","type":"bytes32","internalType":"bytes32"}]}],"bytecode":{"object":"0x60803461007257601f610bb638819003918201601f19168301916001600160401b038311848410176100775780849260209460405283398101031261007257516001600160a01b0381168103610072578061005c6100629261008d565b5061010b565b506040516109ea90816101ac8239f35b600080fd5b634e487b7160e01b600052604160045260246000fd5b6001600160a01b031660008181527fad3228b676f7d3cd4284a5443f17f1962b36e491b30a40b2405849e597ba5fb5602052604081205490919060ff1661010757818052816020526040822081835260205260408220600160ff198254161790553391600080516020610b968339815191528180a4600190565b5090565b6001600160a01b031660008181527f7d7ffb7a348e1c6a02869081a26547b49160dd3df72d1d75a570eb9b698292ec60205260408120549091907fa49807205ce4d355092ef5a8a18f56e8913cf4a201fbe287825b095693c217759060ff166101a657808352826020526040832082845260205260408320600160ff19825416179055600080516020610b96833981519152339380a4600190565b50509056fe608060408181526004908136101561001657600080fd5b600092833560e01c90816301ffc9a71461062c57508063248a9ca3146105e45780632f2ff15d1461059e57806336568abe1461051357806375b238fc146104ba5780638dd14802146103b457806391d1485414610344578063a217fddf1461030b578063b5bfddea146102ae578063c6c3bbe6146100fb5763d547741f1461009d57600080fd5b346100f757807ffffffffffffffffffffffffffffffffffffffffffffffffffffffffffffffffc3601126100f7576100f391356100ee60016100dd6106e9565b938387528660205286200154610734565b610913565b5080f35b8280fd5b5090346100f75760607ffffffffffffffffffffffffffffffffffffffffffffffffffffffffffffffffc3601126100f757610134610711565b9161013d6106e9565b91604435927f52ba824bfabc2bcfcdf7f0edbb486ebb05e1836c90e78047efeb949990f72e5f8087528660205283872033885260205260ff848820541615610278575073ffffffffffffffffffffffffffffffffffffffff80951694853b15610274578351917f40c10f19000000000000000000000000000000000000000000000000000000008352169182818301528460248301528682604481838a5af1801561026a57610220575b867f056bbb6302d1015c7fec10dbe7da63c5584792a853513c2be7989370355f96e260608888888881519384526020840152820152a180f35b67ffffffffffffffff829793971161023e57508252938160606101e7565b8260416024927f4e487b7100000000000000000000000000000000000000000000000000000000835252fd5b84513d89823e3d90fd5b8680fd5b905060449251917fe2517d3f00000000000000000000000000000000000000000000000000000000835233908301526024820152fd5b83823461030757817ffffffffffffffffffffffffffffffffffffffffffffffffffffffffffffffffc36011261030757602090517f52ba824bfabc2bcfcdf7f0edbb486ebb05e1836c90e78047efeb949990f72e5f8152f35b5080fd5b83823461030757817ffffffffffffffffffffffffffffffffffffffffffffffffffffffffffffffffc3601126103075751908152602090f35b5090346100f757817ffffffffffffffffffffffffffffffffffffffffffffffffffffffffffffffffc3601126100f7578160209360ff926103836106e9565b9035825281865273ffffffffffffffffffffffffffffffffffffffff83832091168252855220541690519015158152f35b50346100f75760207ffffffffffffffffffffffffffffffffffffffffffffffffffffffffffffffffc3601126100f7576103ec610711565b917fa49807205ce4d355092ef5a8a18f56e8913cf4a201fbe287825b095693c217758085528460205282852033865260205260ff83862054161561048657847fa49730bff544fd0b716395c592e39c6fd2d2481a19b9229b5b240483db95a495602073ffffffffffffffffffffffffffffffffffffffff8716868882610476575b5051908152a180f35b61047f90610791565b508561046d565b60449251917fe2517d3f00000000000000000000000000000000000000000000000000000000835233908301526024820152fd5b83823461030757817ffffffffffffffffffffffffffffffffffffffffffffffffffffffffffffffffc36011261030757602090517fa49807205ce4d355092ef5a8a18f56e8913cf4a201fbe287825b095693c217758152f35b5082903461030757807ffffffffffffffffffffffffffffffffffffffffffffffffffffffffffffffffc3601126103075761054c6106e9565b903373ffffffffffffffffffffffffffffffffffffffff83160361057657506100f3919235610913565b8390517f6697b232000000000000000000000000000000000000000000000000000000008152fd5b50346100f757807ffffffffffffffffffffffffffffffffffffffffffffffffffffffffffffffffc3601126100f7576100f391356105df60016100dd6106e9565b61086e565b5090346100f75760207ffffffffffffffffffffffffffffffffffffffffffffffffffffffffffffffffc3601126100f757816020936001923581528085522001549051908152f35b849084346100f75760207ffffffffffffffffffffffffffffffffffffffffffffffffffffffffffffffffc3601126100f757357fffffffff0000000000000000000000000000000000000000000000000000000081168091036100f757602092507f7965db0b0000000000000000000000000000000000000000000000000000000081149081156106bf575b5015158152f35b7f01ffc9a700000000000000000000000000000000000000000000000000000000915014836106b8565b6024359073ffffffffffffffffffffffffffffffffffffffff8216820361070c57565b600080fd5b6004359073ffffffffffffffffffffffffffffffffffffffff8216820361070c57565b80600052600060205260406000203360005260205260ff604060002054161561075a5750565b604490604051907fe2517d3f0000000000000000000000000000000000000000000000000000000082523360048301526024820152fd5b73ffffffffffffffffffffffffffffffffffffffff1660008181527f7dcd276b72586271b4623598c6b3ecb5f3594881d1da5ce0d28e8f8adbf6778760205260408120549091907f52ba824bfabc2bcfcdf7f0edbb486ebb05e1836c90e78047efeb949990f72e5f9060ff166108695780835282602052604083208284526020526040832060017fffffffffffffffffffffffffffffffffffffffffffffffffffffffffffffff008254161790557f2f8788117e7eff1d82e926ec794901d17c78024a50270940304540a733656f0d339380a4600190565b505090565b906000918083528260205273ffffffffffffffffffffffffffffffffffffffff6040842092169182845260205260ff604084205416156000146108695780835282602052604083208284526020526040832060017fffffffffffffffffffffffffffffffffffffffffffffffffffffffffffffff008254161790557f2f8788117e7eff1d82e926ec794901d17c78024a50270940304540a733656f0d339380a4600190565b906000918083528260205273ffffffffffffffffffffffffffffffffffffffff6040842092169182845260205260ff604084205416600014610869578083528260205260408320828452602052604083207fffffffffffffffffffffffffffffffffffffffffffffffffffffffffffffff0081541690557ff6391f5c32d9c69d2a47ea670b442974b53935d1edc7fd64eb21e047a839171b339380a460019056fea2646970667358221220082b43d435003d8d76f68120e9435ca25ac7944e11f20ac0e7163785698ff10e64736f6c634300081800332f8788117e7eff1d82e926ec794901d17c78024a50270940304540a733656f0d","linkReferences":{}},"methodIdentifiers":{"ADMIN_ROLE()":"75b238fc","BRIDGE_ROLE()":"b5bfddea","DEFAULT_ADMIN_ROLE()":"a217fddf","getRoleAdmin(bytes32)":"248a9ca3","grantRole(bytes32,address)":"2f2ff15d","hasRole(bytes32,address)":"91d14854","mint(address,address,uint256)":"c6c3bbe6","renounceRole(bytes32,address)":"36568abe","revokeRole(bytes32,address)":"d547741f","setBridge(address)":"8dd14802","supportsInterface(bytes4)":"01ffc9a7"},"id":5}