{"abi":[{"type":"constructor","inputs":[],"stateMutability":"nonpayable"},{"type":"function","name":"DEFAULT_ADMIN_ROLE","inputs":[],"outputs":[{"name":"","type":"bytes32","internalType":"bytes32"}],"stateMutability":"view"},{"type":"function","name":"UPGRADE_INTERFACE_VERSION","inputs":[],"outputs":[{"name":"","type":"string","internalType":"string"}],"stateMutability":"view"},{"type":"function","name":"addPosition","inputs":[{"name":"symbol","type":"bytes32","internalType":"bytes32"},{"name":"issuer","type":"bytes32","internalType":"bytes32"},{"name":"qty","type":"uint128","internalType":"uint128"},{"name":"pxMinor","type":"uint128","internalType":"uint128"},{"name":"cls","type":"uint8","internalType":"enum PolicyGuard.AssetClass"}],"outputs":[{"name":"id","type":"uint256","internalType":"uint256"}],"stateMutability":"nonpayable"},{"type":"function","name":"allocBpByClass","inputs":[{"name":"","type":"uint8","internalType":"enum PolicyGuard.AssetClass"}],"outputs":[{"name":"","type":"uint16","internalType":"uint16"}],"stateMutability":"view"},{"type":"function","name":"allocBpByIssuer","inputs":[{"name":"","type":"bytes32","internalType":"bytes32"}],"outputs":[{"name":"","type":"uint16","internalType":"uint16"}],"stateMutability":"view"},{"type":"function","name":"cashToken","inputs":[],"outputs":[{"name":"","type":"address","internalType":"contract IERC20"}],"stateMutability":"view"},{"type":"function","name":"cashTokenDecimals","inputs":[],"outputs":[{"name":"","type":"uint8","internalType":"uint8"}],"stateMutability":"view"},{"type":"function","name":"getRoleAdmin","inputs":[{"name":"role","type":"bytes32","internalType":"bytes32"}],"outputs":[{"name":"","type":"bytes32","internalType":"bytes32"}],"stateMutability":"view"},{"type":"function","name":"grantRole","inputs":[{"name":"role","type":"bytes32","internalType":"bytes32"},{"name":"account","type":"address","internalType":"address"}],"outputs":[],"stateMutability":"nonpayable"},{"type":"function","name":"guard","inputs":[],"outputs":[{"name":"","type":"address","internalType":"contract PolicyGuard"}],"stateMutability":"view"},{"type":"function","name":"hasRole","inputs":[{"name":"role","type":"bytes32","internalType":"bytes32"},{"name":"account","type":"address","internalType":"address"}],"outputs":[{"name":"","type":"bool","internalType":"bool"}],"stateMutability":"view"},{"type":"function","name":"initialize","inputs":[{"name":"governor","type":"address","internalType":"address"},{"name":"guardian","type":"address","internalType":"address"},{"name":"guard_","type":"address","internalType":"address"},{"name":"oracle_","type":"address","internalType":"address"},{"name":"cashToken_","type":"address","internalType":"address"},{"name":"cashDecimals_","type":"uint8","internalType":"uint8"}],"outputs":[],"stateMutability":"nonpayable"},{"type":"function","name":"lastId","inputs":[],"outputs":[{"name":"","type":"uint256","internalType":"uint256"}],"stateMutability":"view"},{"type":"function","name":"liabilitiesMinor","inputs":[],"outputs":[{"name":"","type":"uint256","internalType":"uint256"}],"stateMutability":"view"},{"type":"function","name":"nav","inputs":[],"outputs":[{"name":"","type":"uint256","internalType":"uint256"}],"stateMutability":"view"},{"type":"function","name":"navMinor","inputs":[],"outputs":[{"name":"","type":"uint256","internalType":"uint256"}],"stateMutability":"view"},{"type":"function","name":"oracle","inputs":[],"outputs":[{"name":"","type":"address","internalType":"contract OracleCommittee"}],"stateMutability":"view"},{"type":"function","name":"pause","inputs":[],"outputs":[],"stateMutability":"nonpayable"},{"type":"function","name":"paused","inputs":[],"outputs":[{"name":"","type":"bool","internalType":"bool"}],"stateMutability":"view"},{"type":"function","name":"positions","inputs":[{"name":"","type":"uint256","internalType":"uint256"}],"outputs":[{"name":"symbol","type":"bytes32","internalType":"bytes32"},{"name":"qty","type":"uint128","internalType":"uint128"},{"name":"pxMinor","type":"uint128","internalType":"uint128"},{"name":"asOf","type":"uint64","internalType":"uint64"},{"name":"issuer","type":"bytes32","internalType":"bytes32"},{"name":"cls","type":"uint8","internalType":"enum PolicyGuard.AssetClass"}],"stateMutability":"view"},{"type":"function","name":"proxiableUUID","inputs":[],"outputs":[{"name":"","type":"bytes32","internalType":"bytes32"}],"stateMutability":"view"},{"type":"function","name":"renounceRole","inputs":[{"name":"role","type":"bytes32","internalType":"bytes32"},{"name":"callerConfirmation","type":"address","internalType":"address"}],"outputs":[],"stateMutability":"nonpayable"},{"type":"function","name":"revokeRole","inputs":[{"name":"role","type":"bytes32","internalType":"bytes32"},{"name":"account","type":"address","internalType":"address"}],"outputs":[],"stateMutability":"nonpayable"},{"type":"function","name":"supportsInterface","inputs":[{"name":"interfaceId","type":"bytes4","internalType":"bytes4"}],"outputs":[{"name":"","type":"bool","internalType":"bool"}],"stateMutability":"view"},{"type":"function","name":"syncNAV","inputs":[{"name":"symbols","type":"bytes32[]","internalType":"bytes32[]"}],"outputs":[],"stateMutability":"nonpayable"},{"type":"function","name":"unpause","inputs":[],"outputs":[],"stateMutability":"nonpayable"},{"type":"function","name":"updatePosition","inputs":[{"name":"id","type":"uint256","internalType":"uint256"},{"name":"qty","type":"uint128","internalType":"uint128"},{"name":"pxMinor","type":"uint128","internalType":"uint128"},{"name":"asOf","type":"uint64","internalType":"uint64"}],"outputs":[],"stateMutability":"nonpayable"},{"type":"function","name":"upgradeToAndCall","inputs":[{"name":"newImplementation","type":"address","internalType":"address"},{"name":"data","type":"bytes","internalType":"bytes"}],"outputs":[],"stateMutability":"payable"},{"type":"event","name":"CashTokenSet","inputs":[{"name":"token","type":"address","indexed":true,"internalType":"address"},{"name":"decimals","type":"uint8","indexed":false,"internalType":"uint8"}],"anonymous":false},{"type":"event","name":"GuardSet","inputs":[{"name":"guard","type":"address","indexed":true,"internalType":"address"}],"anonymous":false},{"type":"event","name":"Initialized","inputs":[{"name":"version","type":"uint64","indexed":false,"internalType":"uint64"}],"anonymous":false},{"type":"event","name":"NAVSynced","inputs":[{"name":"navMinor","type":"uint256","indexed":false,"internalType":"uint256"},{"name":"asOf","type":"uint64","indexed":false,"internalType":"uint64"}],"anonymous":false},{"type":"event","name":"OracleSet","inputs":[{"name":"oracle","type":"address","indexed":true,"internalType":"address"}],"anonymous":false},{"type":"event","name":"Paused","inputs":[{"name":"account","type":"address","indexed":false,"internalType":"address"}],"anonymous":false},{"type":"event","name":"PositionAdded","inputs":[{"name":"id","type":"uint256","indexed":true,"internalType":"uint256"},{"name":"symbol","type":"bytes32","indexed":false,"internalType":"bytes32"},{"name":"issuer","type":"bytes32","indexed":false,"internalType":"bytes32"},{"name":"qty","type":"uint128","indexed":false,"internalType":"uint128"},{"name":"pxMinor","type":"uint128","indexed":false,"internalType":"uint128"},{"name":"cls","type":"uint8","indexed":false,"internalType":"enum PolicyGuard.AssetClass"}],"anonymous":false},{"type":"event","name":"PositionUpdated","inputs":[{"name":"id","type":"uint256","indexed":true,"internalType":"uint256"},{"name":"qty","type":"uint128","indexed":false,"internalType":"uint128"},{"name":"pxMinor","type":"uint128","indexed":false,"internalType":"uint128"},{"name":"asOf","type":"uint64","indexed":false,"internalType":"uint64"}],"anonymous":false},{"type":"event","name":"RoleAdminChanged","inputs":[{"name":"role","type":"bytes32","indexed":true,"internalType":"bytes32"},{"name":"previousAdminRole","type":"bytes32","indexed":true,"internalType":"bytes32"},{"name":"newAdminRole","type":"bytes32","indexed":true,"internalType":"bytes32"}],"anonymous":false},{"type":"event","name":"RoleGranted","inputs":[{"name":"role","type":"bytes32","indexed":true,"internalType":"bytes32"},{"name":"account","type":"address","indexed":true,"internalType":"address"},{"name":"sender","type":"address","indexed":true,"internalType":"address"}],"anonymous":false},{"type":"event","name":"RoleRevoked","inputs":[{"name":"role","type":"bytes32","indexed":true,"internalType":"bytes32"},{"name":"account","type":"address","indexed":true,"internalType":"address"},{"name":"sender","type":"address","indexed":true,"internalType":"address"}],"anonymous":false},{"type":"event","name":"Unpaused","inputs":[{"name":"account","type":"address","indexed":false,"internalType":"address"}],"anonymous":false},{"type":"event","name":"Upgraded","inputs":[{"name":"implementation","type":"address","indexed":true,"internalType":"address"}],"anonymous":false},{"type":"error","name":"AccessControlBadConfirmation","inputs":[]},{"type":"error","name":"AccessControlUnauthorizedAccount","inputs":[{"name":"account","type":"address","internalType":"address"},{"name":"neededRole","type":"bytes32","internalType":"bytes32"}]},{"type":"error","name":"AddressEmptyCode","inputs":[{"name":"target","type":"address","internalType":"address"}]},{"type":"error","name":"ERC1967InvalidImplementation","inputs":[{"name":"implementation","type":"address","internalType":"address"}]},{"type":"error","name":"ERC1967NonPayable","inputs":[]},{"type":"error","name":"EnforcedPause","inputs":[]},{"type":"error","name":"ExpectedPause","inputs":[]},{"type":"error","name":"FailedInnerCall","inputs":[]},{"type":"error","name":"InvalidInitialization","inputs":[]},{"type":"error","name":"NotInitializing","inputs":[]},{"type":"error","name":"UUPSUnauthorizedCallContext","inputs":[]},{"type":"error","name":"UUPSUnsupportedProxiableUUID","inputs":[{"name":"slot","type":"bytes32","internalType":"bytes32"}]}],"bytecode":{"object":"0x60a080604052346100cc57306080527ff0c57e16840df040f15088dc2f81fe391c3923bec73e23a9662efc9c229c6a009081549060ff8260401c166100bd57506001600160401b036002600160401b031982821601610078575b60405161268190816100d2823960805181818161131901526114360152f35b6001600160401b031990911681179091556040519081527fc7f505b2f371ae2175ee4913f4499e1f2633a7b5936321eed1cdaeb6115181d290602090a1388080610059565b63f92ee8a960e01b8152600490fd5b600080fdfe60806040908082526004918236101561001757600080fd5b600091823560e01c90816301ffc9a714611b5a575080631c8f784414611b1e578063248a9ca314611ab65780632b7bccd7146118fd5780632f2ff15d146118b5578063304d03bf1461075257806336568abe1461182c5780633f4ba83a1461174d5780634f1ef2861461138e57806352d1902d146112d15780635c975abb14611271578063686ee26614610ff85780637ceab3b114610fa85780637dc0d1d014610f565780638456cb5914610ea1578063904f6fe414610e5757806391d1485414610dc757806394590d4414610d7057806399fbab8814610ccd578063a217fddf14610c95578063a290f20f1461090f578063a7224687146108bd578063ad3cb1cc146107ca578063c1292cc31461078e578063c1590cd714610752578063d547741f146106d5578063d701f30d146106935763da0356b61461015957600080fd5b3461068f576020807ffffffffffffffffffffffffffffffffffffffffffffffffffffffffffffffffc36011261068b5783359067ffffffffffffffff80831161068757366023840112156106875782860135958187116106835760249660059436898360051b8301011161043d5794906101d1611f4a565b879588925b82841061045257505050506006549673ffffffffffffffffffffffffffffffffffffffff8816978861023d575b5050507f89736bc53a857cd71dc865f5e9e32a4b5569113f128b46cde932e6798f28ed04949550826007558351928352421690820152a180f35b8482939496998851948580927f70a0823100000000000000000000000000000000000000000000000000000000825230898301525afa928315610448578893610414575b5060a01c60ff16600681111561035c577ffffffffffffffffffffffffffffffffffffffffffffffffffffffffffffffffa0160ff8111610331576102c490611e06565b928315610307575050956102fc917f89736bc53a857cd71dc865f5e9e32a4b5569113f128b46cde932e6798f28ed0496970490611df9565b915b85943880610203565b601288917f4e487b7100000000000000000000000000000000000000000000000000000000835252fd5b50866011847f4e487b7100000000000000000000000000000000000000000000000000000000835252fd5b91929160068110156103e5576006039160ff83116103bb575050956103af6103b5926103a97f89736bc53a857cd71dc865f5e9e32a4b5569113f128b46cde932e6798f28ed049899611e06565b90611de6565b90611df9565b916102fe565b601188917f4e487b7100000000000000000000000000000000000000000000000000000000835252fd5b5050506103b5907f89736bc53a857cd71dc865f5e9e32a4b5569113f128b46cde932e6798f28ed049596611df9565b9092508481813d8311610441575b61042c8183611c81565b8101031261043d57519160ff610281565b8780fd5b503d610422565b87513d8a823e3d90fd5b909192966104668b89841b8501013561250e565b15610679578a5260038752888a206001908c8c8c73ffffffffffffffffffffffffffffffffffffffff8554169284549151809481937f6ce617580000000000000000000000000000000000000000000000000000000083528d8301525afa90811561066f578d918a91839161059e575b509360019593620f4240936105119361051897169081610523575b505001546fffffffffffffffffffffffffffffffff8160801c9116611de6565b0490611df9565b975b019291906101d6565b61056b90848401906fffffffffffffffffffffffffffffffff7fffffffffffffffffffffffffffffffff0000000000000000000000000000000083549260801b169116179055565b60028201907fffffffffffffffffffffffffffffffffffffffffffffffff000000000000000082541617905538806104f1565b925050508c3d8091833e6105b28183611c81565b810160a08282031261066b578a820151906fffffffffffffffffffffffffffffffff82168203610667578d830151928b84168403610663576060810151908c821161065e57019080601f8301121561066357908e8d9282519361062061061786611cf1565b93519384611c81565b848352848401011161065e57938c610511948f610518999560019b99958261064f93620f42409b019101611d67565b919397509350935093956104d6565b508f80fd5b8f80fd5b8e80fd5b8d80fd5b8c513d8f823e3d90fd5b509660019061051a565b8580fd5b8480fd5b8280fd5b5080fd5b503461068f57817ffffffffffffffffffffffffffffffffffffffffffffffffffffffffffffffffc36011261068f5760209060ff60065460a01c169051908152f35b5082903461068b57807ffffffffffffffffffffffffffffffffffffffffffffffffffffffffffffffffc36011261068b5761074e91356107496001610718611c3b565b938387527f02dd7bc7dec4dceedda775e58dd541e08a116c6c53815c0bd028192f7b62680060205286200154611f05565b61244d565b5080f35b503461068f57817ffffffffffffffffffffffffffffffffffffffffffffffffffffffffffffffffc36011261068f576020906007549051908152f35b503461068f57817ffffffffffffffffffffffffffffffffffffffffffffffffffffffffffffffffc36011261068f576020906002549051908152f35b5090346108ba57807ffffffffffffffffffffffffffffffffffffffffffffffffffffffffffffffffc3601126108ba578151908282019082821067ffffffffffffffff83111761088e575061088593508252600581527fffffffffffffffffffffffffffffffffffffffffffffffffffffffffffffffe0601f602083017f352e302e30000000000000000000000000000000000000000000000000000000815284519586946020865251809281602088015287870190611d67565b01168101030190f35b806041867f4e487b71000000000000000000000000000000000000000000000000000000006024945252fd5b80fd5b503461068f57817ffffffffffffffffffffffffffffffffffffffffffffffffffffffffffffffffc36011261068f5760209073ffffffffffffffffffffffffffffffffffffffff600654169051908152f35b50823461068b5760c07ffffffffffffffffffffffffffffffffffffffffffffffffffffffffffffffffc36011261068b57610948611c5e565b90610951611c3b565b916044359073ffffffffffffffffffffffffffffffffffffffff91828116809103610c91576064359083821680920361043d5760843593841680940361043d5760a4359160ff831693848403610c8d577ff0c57e16840df040f15088dc2f81fe391c3923bec73e23a9662efc9c229c6a0097885460ff818c1c16159867ffffffffffffffff821680159081610c85575b6001149081610c7b575b159081610c72575b50610c4b5750610ab79291818a60017fffffffffffffffffffffffffffffffffffffffffffffffff0000000000000000610aa79516178d55610c16575b50610a39612552565b610a41612552565b7fcd5ed15c6e187e77e9aee88184c21f4f2182ab5827cb3b7e07fbedcd63f033007fffffffffffffffffffffffffffffffffffffffffffffffffffffffffffffff008154169055610a90612552565b610a98612552565b610aa183611f9f565b5061209e565b50610ab181612197565b5061228f565b50807fffffffffffffffffffffffff000000000000000000000000000000000000000083818c5416178b5560015416176001558751917f0b35c8d8a01faf4dfe1389b808ff376826039194d613f5976009cf4a23eba2018a80a27f3f32684a32a11dabdbb8c0177de80aa3ae36a004d75210335b49e544e48cd0aa8980a283610b9e575b50505050610b47578280f35b7fc7f505b2f371ae2175ee4913f4499e1f2633a7b5936321eed1cdaeb6115181d291817fffffffffffffffffffffffffffffffffffffffffffffff00ffffffffffffffff602093541690555160018152a181808280f35b7f89ae1647b0c955bc5b58c75e900e986f702b4531a1019b3f53544ce2fe64ede392602092857fffffffffffffffffffffff00000000000000000000000000000000000000000074ff00000000000000000000000000000000000000006006549360a01b16921617176006558152a284808080610b3b565b7fffffffffffffffffffffffffffffffffffffffffffffff0000000000000000001668010000000000000001178b558d610a30565b8b517ff92ee8a9000000000000000000000000000000000000000000000000000000008152fd5b9050158e6109f3565b303b1591506109eb565b8b91506109e1565b8980fd5b8680fd5b503461068f57817ffffffffffffffffffffffffffffffffffffffffffffffffffffffffffffffffc36011261068f5751908152602090f35b5082903461068b5760207ffffffffffffffffffffffffffffffffffffffffffffffffffffffffffffffffc36011261068b5780610d6e9160c0948435815260036020522080549360018201549260ff67ffffffffffffffff600285015416926003850154940154169381519687526fffffffffffffffffffffffffffffffff8116602088015260801c908601526060850152608084015260a0830190611d2b565bf35b50823461068b5760207ffffffffffffffffffffffffffffffffffffffffffffffffffffffffffffffffc36011261068b5780356008811015610dc3578361ffff9284926020965285522054169051908152f35b8380fd5b50823461068b57817ffffffffffffffffffffffffffffffffffffffffffffffffffffffffffffffffc36011261068b578160209360ff92610e06611c3b565b903582527f02dd7bc7dec4dceedda775e58dd541e08a116c6c53815c0bd028192f7b626800865273ffffffffffffffffffffffffffffffffffffffff83832091168252855220541690519015158152f35b50823461068b5760207ffffffffffffffffffffffffffffffffffffffffffffffffffffffffffffffffc36011261068b578160209361ffff92358152600585522054169051908152f35b503461068f57817ffffffffffffffffffffffffffffffffffffffffffffffffffffffffffffffffc36011261068f5760207f62e78cea01bee320cd4e420270b5ea74000d11b0c9f74754ebdbfc544b05a25891610efc611ea9565b610f04611f4a565b7fcd5ed15c6e187e77e9aee88184c21f4f2182ab5827cb3b7e07fbedcd63f0330060017fffffffffffffffffffffffffffffffffffffffffffffffffffffffffffffff0082541617905551338152a180f35b503461068f57817ffffffffffffffffffffffffffffffffffffffffffffffffffffffffffffffffc36011261068f5760209073ffffffffffffffffffffffffffffffffffffffff600154169051908152f35b503461068f57817ffffffffffffffffffffffffffffffffffffffffffffffffffffffffffffffffc36011261068f5773ffffffffffffffffffffffffffffffffffffffff60209254169051908152f35b503461068f5760a07ffffffffffffffffffffffffffffffffffffffffffffffffffffffffffffffffc36011261068f57823560243592611036611c17565b93606435906fffffffffffffffffffffffffffffffff90818316809303610dc3576084359360088510156108ba5761106c611e17565b611074611f4a565b61107f600254611d8a565b978860025567ffffffffffffffff88519160c0830183811083821117611245578a8d936111588b9796948f9484528d86528a6020870191169a8b82528487018d81526060880195854216875260808901978d895260a08a019c8d528b5260036020528a209751885581600189019351167fffffffffffffffffffffffffffffffff0000000000000000000000000000000084541617835551166fffffffffffffffffffffffffffffffff7fffffffffffffffffffffffffffffffff0000000000000000000000000000000083549260801b169116179055565b600284019151167fffffffffffffffffffffffffffffffffffffffffffffffff00000000000000008254161790555160038201550191519060088210156112195760208a8a817f6be118ef69aa6a2da72aa53c0555f6b96c1e269b6ad34573d159f92f5ff9628460a08d6112128e8e8e8e8e8e60ff7fffffffffffffffffffffffffffffffffffffffffffffffffffffffffffffff00835416911617905589519586528b8601528885015260608401526080830190611d2b565ba251908152f35b8060218c7f4e487b71000000000000000000000000000000000000000000000000000000006024945252fd5b60248560418f7f4e487b7100000000000000000000000000000000000000000000000000000000835252fd5b503461068f57817ffffffffffffffffffffffffffffffffffffffffffffffffffffffffffffffffc36011261068f5760209060ff7fcd5ed15c6e187e77e9aee88184c21f4f2182ab5827cb3b7e07fbedcd63f03300541690519015158152f35b5090346108ba57807ffffffffffffffffffffffffffffffffffffffffffffffffffffffffffffffffc3601126108ba575073ffffffffffffffffffffffffffffffffffffffff7f000000000000000000000000000000000000000000000000000000000000000016300361136857602090517f360894a13ba1a3210667c828492db98dca3e2076cc3735a920a3ca505d382bbc8152f35b517fe07c8dba000000000000000000000000000000000000000000000000000000008152fd5b508083917ffffffffffffffffffffffffffffffffffffffffffffffffffffffffffffffffc36011261068b576113c2611c5e565b90602493843567ffffffffffffffff811161068f573660238201121561068f57808501356113ef81611cf1565b946113fc85519687611c81565b81865260209182870193368a8383010111610683578186928b86930187378801015273ffffffffffffffffffffffffffffffffffffffff807f00000000000000000000000000000000000000000000000000000000000000001680301490811561171f575b506116f7577fa615a8afb6fffcb8c6809ac0997b5c9c12b8cc97651150f14c8f6203168cff4c8086527f02dd7bc7dec4dceedda775e58dd541e08a116c6c53815c0bd028192f7b6268008452868620338752845260ff8787205416156116c2575081169585517f52d1902d00000000000000000000000000000000000000000000000000000000815283818a818b5afa869181611693575b5061152e5750505050505051917f4c9c8ce3000000000000000000000000000000000000000000000000000000008352820152fd5b9088888894938c7f360894a13ba1a3210667c828492db98dca3e2076cc3735a920a3ca505d382bbc918281036116665750853b15611639575080547fffffffffffffffffffffffff000000000000000000000000000000000000000016821790558451889392917fbc7cd75a20ee27fd9adebab32041f755214dbc6bffa90cc0225b39da2e5c2d3b8580a282511561160257505061074e9582915190845af4913d156115f8573d6115ea6115e182611cf1565b92519283611c81565b81528581943d92013e6125ab565b50606092506125ab565b95509550505050503461161457505080f35b7fb398979f000000000000000000000000000000000000000000000000000000008152fd5b83838851917f4c9c8ce3000000000000000000000000000000000000000000000000000000008352820152fd5b84908851917faa1d49a4000000000000000000000000000000000000000000000000000000008352820152fd5b9091508481813d83116116bb575b6116ab8183611c81565b81010312610c915751908b6114f9565b503d6116a1565b886044918b8951927fe2517d3f0000000000000000000000000000000000000000000000000000000084523390840152820152fd5b8786517fe07c8dba000000000000000000000000000000000000000000000000000000008152fd5b9050817f360894a13ba1a3210667c828492db98dca3e2076cc3735a920a3ca505d382bbc541614158a611461565b50823461068b57827ffffffffffffffffffffffffffffffffffffffffffffffffffffffffffffffffc36011261068b57611785611ea9565b7fcd5ed15c6e187e77e9aee88184c21f4f2182ab5827cb3b7e07fbedcd63f033009081549060ff82161561180557507fffffffffffffffffffffffffffffffffffffffffffffffffffffffffffffff00169055513381527f5db9ee0a495bf2e6ff9c91a7834c1ba4fdd244a5e8aa4e537bd38aeae4b073aa90602090a180f35b83517f8dfc202b000000000000000000000000000000000000000000000000000000008152fd5b503461068f57807ffffffffffffffffffffffffffffffffffffffffffffffffffffffffffffffffc36011261068f57611863611c3b565b903373ffffffffffffffffffffffffffffffffffffffff83160361188d575061074e91923561244d565b8390517f6697b232000000000000000000000000000000000000000000000000000000008152fd5b5082903461068b57807ffffffffffffffffffffffffffffffffffffffffffffffffffffffffffffffffc36011261068b5761074e91356118f86001610718611c3b565b612388565b5082903461068b5760807ffffffffffffffffffffffffffffffffffffffffffffffffffffffffffffffffc36011261068b57813591602435916fffffffffffffffffffffffffffffffff80841680940361068357611959611c17565b926064359067ffffffffffffffff91828116809103611ab25761197a611e17565b611982611f4a565b878952600360205284892060028101928484541615611a5557506fffffffffffffffffffffffffffffffff8816608088901b7fffffffffffffffffffffffffffffffff0000000000000000000000000000000016176001909101557f359b5c71b896162467fa25bf602b1e2016536f9ca2074ce15e403e2cb36d4426966060969095909490939092909180611a28575b505416928251948552166020840152820152a280f35b7fffffffffffffffffffffffffffffffffffffffffffffffff00000000000000008254161781558a611a12565b60649060208851917f08c379a0000000000000000000000000000000000000000000000000000000008352820152600b60248201527f6e6f5f706f736974696f6e0000000000000000000000000000000000000000006044820152fd5b8880fd5b50823461068b5760207ffffffffffffffffffffffffffffffffffffffffffffffffffffffffffffffffc36011261068b57816020936001923581527f02dd7bc7dec4dceedda775e58dd541e08a116c6c53815c0bd028192f7b62680085522001549051908152f35b503461068f57817ffffffffffffffffffffffffffffffffffffffffffffffffffffffffffffffffc36011261068f576020906008549051908152f35b8390853461068b5760207ffffffffffffffffffffffffffffffffffffffffffffffffffffffffffffffffc36011261068b57357fffffffff00000000000000000000000000000000000000000000000000000000811680910361068b57602092507f7965db0b000000000000000000000000000000000000000000000000000000008114908115611bed575b5015158152f35b7f01ffc9a70000000000000000000000000000000000000000000000000000000091501483611be6565b604435906fffffffffffffffffffffffffffffffff82168203611c3657565b600080fd5b6024359073ffffffffffffffffffffffffffffffffffffffff82168203611c3657565b6004359073ffffffffffffffffffffffffffffffffffffffff82168203611c3657565b90601f7fffffffffffffffffffffffffffffffffffffffffffffffffffffffffffffffe0910116810190811067ffffffffffffffff821117611cc257604052565b7f4e487b7100000000000000000000000000000000000000000000000000000000600052604160045260246000fd5b67ffffffffffffffff8111611cc257601f017fffffffffffffffffffffffffffffffffffffffffffffffffffffffffffffffe01660200190565b906008821015611d385752565b7f4e487b7100000000000000000000000000000000000000000000000000000000600052602160045260246000fd5b60005b838110611d7a5750506000910152565b8181015183820152602001611d6a565b7fffffffffffffffffffffffffffffffffffffffffffffffffffffffffffffffff8114611db75760010190565b7f4e487b7100000000000000000000000000000000000000000000000000000000600052601160045260246000fd5b81810292918115918404141715611db757565b91908201809211611db757565b60ff16604d8111611db757600a0a90565b3360009081527e3699f63fa155b1d6c0a81d4da702112bc2f71df4fd4675d413584e4f9a1f3a60205260409020547f8d9233e8f9e0681d692bebdd2fd8c8863336d587e831d84b9bff9f403d549b5f9060ff1615611e725750565b604490604051907fe2517d3f0000000000000000000000000000000000000000000000000000000082523360048301526024820152fd5b3360009081527f1dda541eb5c1fa85177342f00c6b5e15359324832b7f80f6738a34decb92f53a60205260409020547f8b5b16d04624687fcf0d0228f19993c9157c1ed07b41d8d430fd9100eb099fe89060ff1615611e725750565b806000527f02dd7bc7dec4dceedda775e58dd541e08a116c6c53815c0bd028192f7b62680060205260406000203360005260205260ff6040600020541615611e725750565b60ff7fcd5ed15c6e187e77e9aee88184c21f4f2182ab5827cb3b7e07fbedcd63f033005416611f7557565b60046040517fd93c0665000000000000000000000000000000000000000000000000000000008152fd5b73ffffffffffffffffffffffffffffffffffffffff1660008181527f852acfdbd338e0da117a74b68467ee9617605c8469f7ce48961a1a5229d6e83860205260408120549091907f1a6838efa4183e08fe3607359d1259272af9d4716f65e1a7b5921f78fd5a3c6a907f02dd7bc7dec4dceedda775e58dd541e08a116c6c53815c0bd028192f7b6268009060ff1661209857818452602052604083208284526020526040832060017fffffffffffffffffffffffffffffffffffffffffffffffffffffffffffffff008254161790557f2f8788117e7eff1d82e926ec794901d17c78024a50270940304540a733656f0d339380a4600190565b50505090565b73ffffffffffffffffffffffffffffffffffffffff1660008181527f1dda541eb5c1fa85177342f00c6b5e15359324832b7f80f6738a34decb92f53a60205260408120549091907f8b5b16d04624687fcf0d0228f19993c9157c1ed07b41d8d430fd9100eb099fe8907f02dd7bc7dec4dceedda775e58dd541e08a116c6c53815c0bd028192f7b6268009060ff1661209857818452602052604083208284526020526040832060017fffffffffffffffffffffffffffffffffffffffffffffffffffffffffffffff008254161790557f2f8788117e7eff1d82e926ec794901d17c78024a50270940304540a733656f0d339380a4600190565b73ffffffffffffffffffffffffffffffffffffffff1660008181527e3699f63fa155b1d6c0a81d4da702112bc2f71df4fd4675d413584e4f9a1f3a60205260408120549091907f8d9233e8f9e0681d692bebdd2fd8c8863336d587e831d84b9bff9f403d549b5f907f02dd7bc7dec4dceedda775e58dd541e08a116c6c53815c0bd028192f7b6268009060ff1661209857818452602052604083208284526020526040832060017fffffffffffffffffffffffffffffffffffffffffffffffffffffffffffffff008254161790557f2f8788117e7eff1d82e926ec794901d17c78024a50270940304540a733656f0d339380a4600190565b73ffffffffffffffffffffffffffffffffffffffff1660008181527f9469a29198efc966024e165efb801c8f2366b78a1c73841aee561d08e7eaddce60205260408120549091907fa615a8afb6fffcb8c6809ac0997b5c9c12b8cc97651150f14c8f6203168cff4c907f02dd7bc7dec4dceedda775e58dd541e08a116c6c53815c0bd028192f7b6268009060ff1661209857818452602052604083208284526020526040832060017fffffffffffffffffffffffffffffffffffffffffffffffffffffffffffffff008254161790557f2f8788117e7eff1d82e926ec794901d17c78024a50270940304540a733656f0d339380a4600190565b906000918083527f02dd7bc7dec4dceedda775e58dd541e08a116c6c53815c0bd028192f7b6268008060205273ffffffffffffffffffffffffffffffffffffffff6040852093169283855260205260ff6040852054161560001461209857818452602052604083208284526020526040832060017fffffffffffffffffffffffffffffffffffffffffffffffffffffffffffffff008254161790557f2f8788117e7eff1d82e926ec794901d17c78024a50270940304540a733656f0d339380a4600190565b906000918083527f02dd7bc7dec4dceedda775e58dd541e08a116c6c53815c0bd028192f7b6268008060205273ffffffffffffffffffffffffffffffffffffffff6040852093169283855260205260ff6040852054166000146120985781845260205260408320828452602052604083207fffffffffffffffffffffffffffffffffffffffffffffffffffffffffffffff0081541690557ff6391f5c32d9c69d2a47ea670b442974b53935d1edc7fd64eb21e047a839171b339380a4600190565b600254600191825b8281111561252a5750505050600090600090565b8160406000838152600360205220541461254c5761254790611d8a565b612516565b91505091565b60ff7ff0c57e16840df040f15088dc2f81fe391c3923bec73e23a9662efc9c229c6a005460401c161561258157565b60046040517fd7e6bcf8000000000000000000000000000000000000000000000000000000008152fd5b906125ea57508051156125c057805190602001fd5b60046040517f1425ea42000000000000000000000000000000000000000000000000000000008152fd5b81511580612642575b6125fb575090565b60249073ffffffffffffffffffffffffffffffffffffffff604051917f9996b315000000000000000000000000000000000000000000000000000000008352166004820152fd5b50803b156125f356fea26469706673582212203ab8e75900b4fbe8e5e4eb6802e62aa9dcb25ee29a2be7380edb48d04bd3d02764736f6c63430008180033","linkReferences":{}},"methodIdentifiers":{"DEFAULT_ADMIN_ROLE()":"a217fddf","UPGRADE_INTERFACE_VERSION()":"ad3cb1cc","addPosition(bytes32,bytes32,uint128,uint128,uint8)":"686ee266","allocBpByClass(uint8)":"94590d44","allocBpByIssuer(bytes32)":"904f6fe4","cashToken()":"a7224687","cashTokenDecimals()":"d701f30d","getRoleAdmin(bytes32)":"248a9ca3","grantRole(bytes32,address)":"2f2ff15d","guard()":"7ceab3b1","hasRole(bytes32,address)":"91d14854","initialize(address,address,address,address,address,uint8)":"a290f20f","lastId()":"c1292cc3","liabilitiesMinor()":"1c8f7844","nav()":"c1590cd7","navMinor()":"304d03bf","oracle()":"7dc0d1d0","pause()":"8456cb59","paused()":"5c975abb","positions(uint256)":"99fbab88","proxiableUUID()":"52d1902d","renounceRole(bytes32,address)":"36568abe","revokeRole(bytes32,address)":"d547741f","supportsInterface(bytes4)":"01ffc9a7","syncNAV(bytes32[])":"da0356b6","unpause()":"3f4ba83a","updatePosition(uint256,uint128,uint128,uint64)":"2b7bccd7","upgradeToAndCall(address,bytes)":"4f1ef286"},"id":69}