{"abi":[{"type":"function","name":"ROLE_ADMIN","inputs":[],"outputs":[{"name":"","type":"bytes32","internalType":"bytes32"}],"stateMutability":"view"},{"type":"function","name":"ROLE_AUDITOR","inputs":[],"outputs":[{"name":"","type":"bytes32","internalType":"bytes32"}],"stateMutability":"view"},{"type":"function","name":"ROLE_COMPLIANCE","inputs":[],"outputs":[{"name":"","type":"bytes32","internalType":"bytes32"}],"stateMutability":"view"},{"type":"function","name":"ROLE_GUARDIAN","inputs":[],"outputs":[{"name":"","type":"bytes32","internalType":"bytes32"}],"stateMutability":"view"},{"type":"function","name":"ROLE_ISSUER","inputs":[],"outputs":[{"name":"","type":"bytes32","internalType":"bytes32"}],"stateMutability":"view"},{"type":"function","name":"ROLE_ORACLE","inputs":[],"outputs":[{"name":"","type":"bytes32","internalType":"bytes32"}],"stateMutability":"view"},{"type":"function","name":"ROLE_TREASURER","inputs":[],"outputs":[{"name":"","type":"bytes32","internalType":"bytes32"}],"stateMutability":"view"},{"type":"function","name":"ROLE_UPGRADER","inputs":[],"outputs":[{"name":"","type":"bytes32","internalType":"bytes32"}],"stateMutability":"view"}],"bytecode":{"object":"0x6080806040523461001a5761034b9081610020823930815050f35b600080fdfe60806040818152600436101561001457600080fd5b600091823560e01c90816305bcf817146102c2575080633726bf2a1461026f5780633f029aaf1461021c5780636fdf3e27146101c957806377e223b014610176578063794d385014610123578063d391014b146100d05763f01737031461007a57600080fd5b817ffffffffffffffffffffffffffffffffffffffffffffffffffffffffffffffffc3601126100cc57602090517f352d05fe3946dbe49277552ba941e744d5a96d9c60bc1ba0ea5f1d3ae000f7c88152f35b5080fd5b50817ffffffffffffffffffffffffffffffffffffffffffffffffffffffffffffffffc3601126100cc57602090517fdf8b4c520ffe197c5343c6f5aec59570151ef9a492f2c624fd45ddde6135ec428152f35b50817ffffffffffffffffffffffffffffffffffffffffffffffffffffffffffffffffc3601126100cc57602090517f76afa8a5929fef1b4c03674b2152ae5aaad1d974b8a4021c59477bcc846ccc1e8152f35b50817ffffffffffffffffffffffffffffffffffffffffffffffffffffffffffffffffc3601126100cc57602090517f8b5b16d04624687fcf0d0228f19993c9157c1ed07b41d8d430fd9100eb099fe88152f35b50817ffffffffffffffffffffffffffffffffffffffffffffffffffffffffffffffffc3601126100cc57602090517fa615a8afb6fffcb8c6809ac0997b5c9c12b8cc97651150f14c8f6203168cff4c8152f35b50817ffffffffffffffffffffffffffffffffffffffffffffffffffffffffffffffffc3601126100cc57602090517fd8994f6d76f930dc5ea8c60e38e6334a87bb8539cc3082ac6828681c33316e3d8152f35b50817ffffffffffffffffffffffffffffffffffffffffffffffffffffffffffffffffc3601126100cc57602090517fa67a057d728d16e162a15912cbf6e8d4fcd69e5b7b0d1f849a0a10ca6e14741c8152f35b8390817ffffffffffffffffffffffffffffffffffffffffffffffffffffffffffffffffc3601126100cc57807f8d9233e8f9e0681d692bebdd2fd8c8863336d587e831d84b9bff9f403d549b5f60209252f3fea2646970667358221220974e95a81ecafcbf778db683faa0918ae983dd4f89d79a3c214beaf067c3197864736f6c63430008180033","linkReferences":{}},"methodIdentifiers":{"ROLE_ADMIN()":"d391014b","ROLE_AUDITOR()":"3f029aaf","ROLE_COMPLIANCE()":"3726bf2a","ROLE_GUARDIAN()":"77e223b0","ROLE_ISSUER()":"794d3850","ROLE_ORACLE()":"f0173703","ROLE_TREASURER()":"05bcf817","ROLE_UPGRADER()":"6fdf3e27"},"id":13}