{"abi":[{"type":"constructor","inputs":[{"name":"_admin","type":"address","internalType":"address"},{"name":"_guard","type":"address","internalType":"address"}],"stateMutability":"nonpayable"},{"type":"function","name":"admin","inputs":[],"outputs":[{"name":"","type":"address","internalType":"address"}],"stateMutability":"view"},{"type":"function","name":"guard","inputs":[],"outputs":[{"name":"","type":"address","internalType":"contract IReleaseGuard"}],"stateMutability":"view"},{"type":"function","name":"kind","inputs":[],"outputs":[{"name":"","type":"uint8","internalType":"enum IRail.Kind"}],"stateMutability":"pure"},{"type":"function","name":"prepare","inputs":[{"name":"t","type":"tuple","internalType":"struct IRail.Transfer","components":[{"name":"asset","type":"address","internalType":"address"},{"name":"from","type":"address","internalType":"address"},{"name":"to","type":"address","internalType":"address"},{"name":"amount","type":"uint256","internalType":"uint256"},{"name":"metadata","type":"bytes","internalType":"bytes"}]}],"outputs":[],"stateMutability":"payable"},{"type":"function","name":"refund","inputs":[{"name":"id","type":"bytes32","internalType":"bytes32"},{"name":"t","type":"tuple","internalType":"struct IRail.Transfer","components":[{"name":"asset","type":"address","internalType":"address"},{"name":"from","type":"address","internalType":"address"},{"name":"to","type":"address","internalType":"address"},{"name":"amount","type":"uint256","internalType":"uint256"},{"name":"metadata","type":"bytes","internalType":"bytes"}]}],"outputs":[],"stateMutability":"nonpayable"},{"type":"function","name":"release","inputs":[{"name":"id","type":"bytes32","internalType":"bytes32"},{"name":"t","type":"tuple","internalType":"struct IRail.Transfer","components":[{"name":"asset","type":"address","internalType":"address"},{"name":"from","type":"address","internalType":"address"},{"name":"to","type":"address","internalType":"address"},{"name":"amount","type":"uint256","internalType":"uint256"},{"name":"metadata","type":"bytes","internalType":"bytes"}]}],"outputs":[],"stateMutability":"nonpayable"},{"type":"function","name":"setGuard","inputs":[{"name":"g","type":"address","internalType":"address"}],"outputs":[],"stateMutability":"nonpayable"},{"type":"function","name":"status","inputs":[{"name":"id","type":"bytes32","internalType":"bytes32"}],"outputs":[{"name":"","type":"uint8","internalType":"enum IRail.Status"}],"stateMutability":"view"},{"type":"function","name":"transferId","inputs":[{"name":"t","type":"tuple","internalType":"struct IRail.Transfer","components":[{"name":"asset","type":"address","internalType":"address"},{"name":"from","type":"address","internalType":"address"},{"name":"to","type":"address","internalType":"address"},{"name":"amount","type":"uint256","internalType":"uint256"},{"name":"metadata","type":"bytes","internalType":"bytes"}]}],"outputs":[{"name":"","type":"bytes32","internalType":"bytes32"}],"stateMutability":"pure"},{"type":"event","name":"RailCancelled","inputs":[{"name":"id","type":"bytes32","indexed":true,"internalType":"bytes32"}],"anonymous":false},{"type":"event","name":"RailPrepared","inputs":[{"name":"id","type":"bytes32","indexed":true,"internalType":"bytes32"},{"name":"from","type":"address","indexed":true,"internalType":"address"},{"name":"to","type":"address","indexed":true,"internalType":"address"},{"name":"asset","type":"address","indexed":false,"internalType":"address"},{"name":"amount","type":"uint256","indexed":false,"internalType":"uint256"}],"anonymous":false},{"type":"event","name":"RailRefunded","inputs":[{"name":"id","type":"bytes32","indexed":true,"internalType":"bytes32"},{"name":"to","type":"address","indexed":true,"internalType":"address"},{"name":"asset","type":"address","indexed":false,"internalType":"address"},{"name":"amount","type":"uint256","indexed":false,"internalType":"uint256"}],"anonymous":false},{"type":"event","name":"RailReleased","inputs":[{"name":"id","type":"bytes32","indexed":true,"internalType":"bytes32"},{"name":"to","type":"address","indexed":true,"internalType":"address"},{"name":"asset","type":"address","indexed":false,"internalType":"address"},{"name":"amount","type":"uint256","indexed":false,"internalType":"uint256"}],"anonymous":false}],"bytecode":{"object":"0x6080346100bf57601f61102a38819003918201601f19168301916001600160401b038311848410176100c45780849260409485528339810103126100bf57610052602061004b836100da565b92016100da565b6001600160a01b03918216919082156100905760018060a01b03199283600054161760005516906001541617600155604051610f3b90816100ef8239f35b60405162461bcd60e51b81526020600482015260076024820152660523230473a20360cc1b6044820152606490fd5b600080fd5b634e487b7160e01b600052604160045260246000fd5b51906001600160a01b03821682036100bf5756fe608060408181526004918236101561001657600080fd5b600092833560e01c91826304baa00b14610b775750816308432d57146108505781634dd6e2b51461082e57816352ad0d5e146107ad5781637ceab3b11461075a57816390ee1dfa146103c7578163cfcb5b1b1461016a578163e19a9dd9146100db575063f851a4401461008857600080fd5b346100d757817ffffffffffffffffffffffffffffffffffffffffffffffffffffffffffffffffc3601126100d75773ffffffffffffffffffffffffffffffffffffffff60209254169051908152f35b5080fd5b8390346100d75760207ffffffffffffffffffffffffffffffffffffffffffffffffffffffffffffffffc3601126100d7573573ffffffffffffffffffffffffffffffffffffffff8082168092036101665761013a908354163314610e3b565b7fffffffffffffffffffffffff0000000000000000000000000000000000000000600154161760015580f35b8280fd5b9050346101665761017a36610c03565b73ffffffffffffffffffffffffffffffffffffffff929192916101a1838754163314610e3b565b83865260206002815260ff8688205416600581101561039b5760016101c69114610ea0565b8487526002815285872060037fffffffffffffffffffffffffffffffffffffffffffffffffffffffffffffff008254161790558361020384610c57565b1691818401916102758161021685610c57565b60608801359687918d8d518096819582947fa9059cbb0000000000000000000000000000000000000000000000000000000084528b84016020909392919373ffffffffffffffffffffffffffffffffffffffff60408201951681520152565b03925af1908115610391578a91610358575b50156102fc5750507f368c9a8588242d513faa21c32bf5aaee15ee1150a43690313e009727607c71d39392916102c86102c26102f693610c57565b93610c57565b965173ffffffffffffffffffffffffffffffffffffffff909716875260208701529116939081906040820190565b0390a380f35b606492508751917f08c379a0000000000000000000000000000000000000000000000000000000008352820152601160248201527f523230473a20726566756e64206661696c0000000000000000000000000000006044820152fd5b90508181813d831161038a575b61036f8183610c78565b810103126103865761038090610ce8565b38610287565b8980fd5b503d610365565b89513d8c823e3d90fd5b6024886021857f4e487b7100000000000000000000000000000000000000000000000000000000835252fd5b905034610166576103d736610c03565b73ffffffffffffffffffffffffffffffffffffffff929192916103fe838754163314610e3b565b83865260206002815260ff8688205416600581101561039b5760016104239114610ea0565b8360015416878161055e575b869150526002815285872060027fffffffffffffffffffffffffffffffffffffffffffffffffffffffffffffff008254161790558361046d84610c57565b1691868401916104808161021685610c57565b03925af1908115610391578a91610529575b50156104cd5750507fd246ccc6c6f9471c400e2ef416699d6cef45c429f224da93084d39b3f807286b9392916102c86102c26102f693610c57565b606492508751917f08c379a0000000000000000000000000000000000000000000000000000000008352820152600f60248201527f523230473a2078666572206661696c00000000000000000000000000000000006044820152fd5b90508181813d8311610557575b6105408183610c78565b810103126103865761055190610ce8565b38610492565b503d610536565b6105db9161056b86610c57565b906105778a8801610c57565b8a518095819482937f3207746300000000000000000000000000000000000000000000000000000000845260608c0135918b850160409194939294606082019573ffffffffffffffffffffffffffffffffffffffff80921683521660208201520152565b03915afa908115610750578891610656575b50156105fa57388761042f565b606492508551917f08c379a0000000000000000000000000000000000000000000000000000000008352820152600b60248201527f523230473a2067756172640000000000000000000000000000000000000000006044820152fd5b90503d8089833e6106678183610c78565b810190878183031261074c5761067c81610ce8565b918382015167ffffffffffffffff92838211610748570181601f8201121561071857805192831161071c578951916106db867fffffffffffffffffffffffffffffffffffffffffffffffffffffffffffffffe0601f8701160184610c78565b838352858483010111610718579184918b93845b838110610701575050010152386105ed565b8181018501518382018601528d95508794016106ef565b8a80fd5b60248b6041887f4e487b7100000000000000000000000000000000000000000000000000000000835252fd5b8b80fd5b8880fd5b87513d8a823e3d90fd5b5050346100d757817ffffffffffffffffffffffffffffffffffffffffffffffffffffffffffffffffc3601126100d75760209073ffffffffffffffffffffffffffffffffffffffff600154169051908152f35b8383346100d75760207ffffffffffffffffffffffffffffffffffffffffffffffffffffffffffffffffc3601126100d75782358252600260205260ff8183205416905191600582101561080257602083838152f35b806021857f4e487b71000000000000000000000000000000000000000000000000000000006024945252fd5b5050346100d75760209061084961084436610bae565b610cf5565b9051908152f35b91905061085c36610bae565b73ffffffffffffffffffffffffffffffffffffffff8061087b83610c57565b1615610b1a5761088a82610cf5565b918286526020946002865260ff85882054166005811015610aee57610a9257826108b383610c57565b16958083019161092f826108c685610c57565b60608701359a8b918d8c518096819582947f23b872dd00000000000000000000000000000000000000000000000000000000845230908b850160409194939294606082019573ffffffffffffffffffffffffffffffffffffffff80921683521660208201520152565b03925af1908115610a88578a91610a53575b50156109f857506109aa7f10876f5ef21c4a7c28973a179a5d95ec8815150f2fbf9c39ba9c73132d2589da94939260026109f293888c5252878a2060017fffffffffffffffffffffffffffffffffffffffffffffffffffffffffffffff00825416179055610c57565b96836109c06109ba898601610c57565b94610c57565b975194859416981696836020909392919373ffffffffffffffffffffffffffffffffffffffff60408201951681520152565b0390a480f35b6064918751917f08c379a0000000000000000000000000000000000000000000000000000000008352820152600f60248201527f523230473a2070756c6c206661696c00000000000000000000000000000000006044820152fd5b90508281813d8311610a81575b610a6a8183610c78565b8101031261038657610a7b90610ce8565b38610941565b503d610a60565b88513d8c823e3d90fd5b606490868651917f08c379a0000000000000000000000000000000000000000000000000000000008352820152600c60248201527f523230473a2065786973747300000000000000000000000000000000000000006044820152fd5b6024886021847f4e487b7100000000000000000000000000000000000000000000000000000000835252fd5b60648460208551917f08c379a0000000000000000000000000000000000000000000000000000000008352820152600d60248201527f523230473a2061737365742030000000000000000000000000000000000000006044820152fd5b8490346100d757817ffffffffffffffffffffffffffffffffffffffffffffffffffffffffffffffffc3601126100d7576020918152f35b7ffffffffffffffffffffffffffffffffffffffffffffffffffffffffffffffffc90602082820112610bfe576004359167ffffffffffffffff8311610bfe578260a092030112610bfe5760040190565b600080fd5b907ffffffffffffffffffffffffffffffffffffffffffffffffffffffffffffffffc604081840112610bfe57600435926024359167ffffffffffffffff8311610bfe578260a092030112610bfe5760040190565b3573ffffffffffffffffffffffffffffffffffffffff81168103610bfe5790565b90601f7fffffffffffffffffffffffffffffffffffffffffffffffffffffffffffffffe0910116810190811067ffffffffffffffff821117610cb957604052565b7f4e487b7100000000000000000000000000000000000000000000000000000000600052604160045260246000fd5b51908115158203610bfe57565b610cfe81610c57565b610d0a60208301610c57565b91610d1760408201610c57565b9060808101357fffffffffffffffffffffffffffffffffffffffffffffffffffffffffffffffe182360301811215610bfe5781019283359367ffffffffffffffff8511610bfe57602001918436038313610bfe577fffffffffffffffffffffffffffffffffffffffffffffffffffffffffffffffe0601f606096610e3596604051988995602087019b60c08d52600460e0890152610100937f5232304700000000000000000000000000000000000000000000000000000000858a01526101209973ffffffffffffffffffffffffffffffffffffffff928380921660408c015216848a0152166080880152013560a086015260c085015280858501528061014096878601376000868286010152011681010390810184520182610c78565b51902090565b15610e4257565b60646040517f08c379a000000000000000000000000000000000000000000000000000000000815260206004820152600f60248201527f523230473a206e6f742061646d696e00000000000000000000000000000000006044820152fd5b15610ea757565b60646040517f08c379a000000000000000000000000000000000000000000000000000000000815260206004820152600f60248201527f523230473a2062616420737461746500000000000000000000000000000000006044820152fdfea264697066735822122038afa071276700145f636fa242074b5c839916ddd562eb6779b4ca949e577dc064736f6c63430008180033","linkReferences":{}},"methodIdentifiers":{"admin()":"f851a440","guard()":"7ceab3b1","kind()":"04baa00b","prepare((address,address,address,uint256,bytes))":"08432d57","refund(bytes32,(address,address,address,uint256,bytes))":"cfcb5b1b","release(bytes32,(address,address,address,uint256,bytes))":"90ee1dfa","setGuard(address)":"e19a9dd9","status(bytes32)":"52ad0d5e","transferId((address,address,address,uint256,bytes))":"4dd6e2b5"},"id":37}