{"abi":[{"type":"constructor","inputs":[{"name":"name_","type":"string","internalType":"string"},{"name":"symbol_","type":"string","internalType":"string"},{"name":"admin","type":"address","internalType":"address"},{"name":"reg","type":"address","internalType":"contract IComplianceRegistry"},{"name":"partition","type":"bytes32","internalType":"bytes32"}],"stateMutability":"nonpayable"},{"type":"function","name":"DEFAULT_ADMIN_ROLE","inputs":[],"outputs":[{"name":"","type":"bytes32","internalType":"bytes32"}],"stateMutability":"view"},{"type":"function","name":"allowance","inputs":[{"name":"owner","type":"address","internalType":"address"},{"name":"spender","type":"address","internalType":"address"}],"outputs":[{"name":"","type":"uint256","internalType":"uint256"}],"stateMutability":"view"},{"type":"function","name":"approve","inputs":[{"name":"spender","type":"address","internalType":"address"},{"name":"value","type":"uint256","internalType":"uint256"}],"outputs":[{"name":"","type":"bool","internalType":"bool"}],"stateMutability":"nonpayable"},{"type":"function","name":"balanceOf","inputs":[{"name":"account","type":"address","internalType":"address"}],"outputs":[{"name":"","type":"uint256","internalType":"uint256"}],"stateMutability":"view"},{"type":"function","name":"burn","inputs":[{"name":"from","type":"address","internalType":"address"},{"name":"amount","type":"uint256","internalType":"uint256"}],"outputs":[],"stateMutability":"nonpayable"},{"type":"function","name":"compliance","inputs":[],"outputs":[{"name":"","type":"address","internalType":"contract IComplianceRegistry"}],"stateMutability":"view"},{"type":"function","name":"decimals","inputs":[],"outputs":[{"name":"","type":"uint8","internalType":"uint8"}],"stateMutability":"view"},{"type":"function","name":"getRoleAdmin","inputs":[{"name":"role","type":"bytes32","internalType":"bytes32"}],"outputs":[{"name":"","type":"bytes32","internalType":"bytes32"}],"stateMutability":"view"},{"type":"function","name":"grantRole","inputs":[{"name":"role","type":"bytes32","internalType":"bytes32"},{"name":"account","type":"address","internalType":"address"}],"outputs":[],"stateMutability":"nonpayable"},{"type":"function","name":"hasRole","inputs":[{"name":"role","type":"bytes32","internalType":"bytes32"},{"name":"account","type":"address","internalType":"address"}],"outputs":[{"name":"","type":"bool","internalType":"bool"}],"stateMutability":"view"},{"type":"function","name":"mint","inputs":[{"name":"to","type":"address","internalType":"address"},{"name":"amount","type":"uint256","internalType":"uint256"}],"outputs":[],"stateMutability":"nonpayable"},{"type":"function","name":"name","inputs":[],"outputs":[{"name":"","type":"string","internalType":"string"}],"stateMutability":"view"},{"type":"function","name":"policyPartition","inputs":[],"outputs":[{"name":"","type":"bytes32","internalType":"bytes32"}],"stateMutability":"view"},{"type":"function","name":"renounceRole","inputs":[{"name":"role","type":"bytes32","internalType":"bytes32"},{"name":"callerConfirmation","type":"address","internalType":"address"}],"outputs":[],"stateMutability":"nonpayable"},{"type":"function","name":"revokeRole","inputs":[{"name":"role","type":"bytes32","internalType":"bytes32"},{"name":"account","type":"address","internalType":"address"}],"outputs":[],"stateMutability":"nonpayable"},{"type":"function","name":"setCompliance","inputs":[{"name":"reg","type":"address","internalType":"contract IComplianceRegistry"}],"outputs":[],"stateMutability":"nonpayable"},{"type":"function","name":"setPolicyPartition","inputs":[{"name":"partition","type":"bytes32","internalType":"bytes32"}],"outputs":[],"stateMutability":"nonpayable"},{"type":"function","name":"supportsInterface","inputs":[{"name":"interfaceId","type":"bytes4","internalType":"bytes4"}],"outputs":[{"name":"","type":"bool","internalType":"bool"}],"stateMutability":"view"},{"type":"function","name":"symbol","inputs":[],"outputs":[{"name":"","type":"string","internalType":"string"}],"stateMutability":"view"},{"type":"function","name":"totalSupply","inputs":[],"outputs":[{"name":"","type":"uint256","internalType":"uint256"}],"stateMutability":"view"},{"type":"function","name":"transfer","inputs":[{"name":"to","type":"address","internalType":"address"},{"name":"value","type":"uint256","internalType":"uint256"}],"outputs":[{"name":"","type":"bool","internalType":"bool"}],"stateMutability":"nonpayable"},{"type":"function","name":"transferFrom","inputs":[{"name":"from","type":"address","internalType":"address"},{"name":"to","type":"address","internalType":"address"},{"name":"value","type":"uint256","internalType":"uint256"}],"outputs":[{"name":"","type":"bool","internalType":"bool"}],"stateMutability":"nonpayable"},{"type":"event","name":"Approval","inputs":[{"name":"owner","type":"address","indexed":true,"internalType":"address"},{"name":"spender","type":"address","indexed":true,"internalType":"address"},{"name":"value","type":"uint256","indexed":false,"internalType":"uint256"}],"anonymous":false},{"type":"event","name":"ComplianceSet","inputs":[{"name":"reg","type":"address","indexed":true,"internalType":"address"}],"anonymous":false},{"type":"event","name":"PolicyPartitionSet","inputs":[{"name":"partition","type":"bytes32","indexed":false,"internalType":"bytes32"}],"anonymous":false},{"type":"event","name":"RoleAdminChanged","inputs":[{"name":"role","type":"bytes32","indexed":true,"internalType":"bytes32"},{"name":"previousAdminRole","type":"bytes32","indexed":true,"internalType":"bytes32"},{"name":"newAdminRole","type":"bytes32","indexed":true,"internalType":"bytes32"}],"anonymous":false},{"type":"event","name":"RoleGranted","inputs":[{"name":"role","type":"bytes32","indexed":true,"internalType":"bytes32"},{"name":"account","type":"address","indexed":true,"internalType":"address"},{"name":"sender","type":"address","indexed":true,"internalType":"address"}],"anonymous":false},{"type":"event","name":"RoleRevoked","inputs":[{"name":"role","type":"bytes32","indexed":true,"internalType":"bytes32"},{"name":"account","type":"address","indexed":true,"internalType":"address"},{"name":"sender","type":"address","indexed":true,"internalType":"address"}],"anonymous":false},{"type":"event","name":"Transfer","inputs":[{"name":"from","type":"address","indexed":true,"internalType":"address"},{"name":"to","type":"address","indexed":true,"internalType":"address"},{"name":"value","type":"uint256","indexed":false,"internalType":"uint256"}],"anonymous":false},{"type":"error","name":"AccessControlBadConfirmation","inputs":[]},{"type":"error","name":"AccessControlUnauthorizedAccount","inputs":[{"name":"account","type":"address","internalType":"address"},{"name":"neededRole","type":"bytes32","internalType":"bytes32"}]},{"type":"error","name":"ERC20InsufficientAllowance","inputs":[{"name":"spender","type":"address","internalType":"address"},{"name":"allowance","type":"uint256","internalType":"uint256"},{"name":"needed","type":"uint256","internalType":"uint256"}]},{"type":"error","name":"ERC20InsufficientBalance","inputs":[{"name":"sender","type":"address","internalType":"address"},{"name":"balance","type":"uint256","internalType":"uint256"},{"name":"needed","type":"uint256","internalType":"uint256"}]},{"type":"error","name":"ERC20InvalidApprover","inputs":[{"name":"approver","type":"address","internalType":"address"}]},{"type":"error","name":"ERC20InvalidReceiver","inputs":[{"name":"receiver","type":"address","internalType":"address"}]},{"type":"error","name":"ERC20InvalidSender","inputs":[{"name":"sender","type":"address","internalType":"address"}]},{"type":"error","name":"ERC20InvalidSpender","inputs":[{"name":"spender","type":"address","internalType":"address"}]}],"bytecode":{"object":"0x608060405234620003cf5762001e11803803806200001d81620003d4565b928339810160a082820312620003cf5781516001600160401b039290838111620003cf57826200004f918301620003fa565b6020928383015190858211620003cf576200006c918401620003fa565b6040830151946001600160a01b03938487168703620003cf576060810151948516809503620003cf576080015192805190828211620002cf576003918254906001928383811c93168015620003c4575b8a841014620003ae578190601f9384811162000358575b508a90848311600114620002f157600092620002e5575b505060001982861b1c191690831b1783555b8451938411620002cf5760049485548381811c91168015620002c4575b8a821014620002af5782811162000264575b5088918511600114620001e0579284809360008051602062001df18339815191529b9693620001809896600095620001d4575b50501b92600019911b1c19161790555b62000179816200046c565b506200050f565b50600680546001600160a01b031916831790556007819055604051917fa970409706553acbb8c86c1bc79621a1e9decfe2e5f083d3ee9dc215d07cea39600080a28152a16040516118239081620005ae8239f35b0151935038806200015e565b91939290601f1984169286600052896000209360005b8181106200024e57509185939162000180989660008051602062001df18339815191529d9896941062000233575b50505050811b0190556200016e565b01519060f884600019921b161c191690553880808062000224565b82840151865594870194928b01928b01620001f6565b86600052896000208380880160051c8201928c8910620002a5575b0160051c019084905b828110620002985750506200012b565b6000815501849062000288565b925081926200027f565b602287634e487b7160e01b6000525260246000fd5b90607f169062000119565b634e487b7160e01b600052604160045260246000fd5b015190503880620000ea565b60008781528c8120879550929190601f198516908e5b82821062000340575050841162000327575b505050811b018355620000fc565b015160001983881b60f8161c1916905538808062000319565b83850151865589979095019493840193018e62000307565b909150856000528a6000208480850160051c8201928d8610620003a4575b918791869594930160051c01915b82811062000394575050620000d3565b6000815585945087910162000384565b9250819262000376565b634e487b7160e01b600052602260045260246000fd5b92607f1692620000bc565b600080fd5b6040519190601f01601f191682016001600160401b03811183821017620002cf57604052565b919080601f84011215620003cf5782516001600160401b038111620002cf5760209062000430601f8201601f19168301620003d4565b92818452828287010111620003cf5760005b8181106200045857508260009394955001015290565b858101830151848201840152820162000442565b6001600160a01b031660008181527f09f04f5809d5be59813a33617d16f069caae874a6b34f03139f63d934daddae660205260408120549091907fdf8b4c520ffe197c5343c6f5aec59570151ef9a492f2c624fd45ddde6135ec429060ff166200050a5780835260056020526040832082845260205260408320600160ff1982541617905560008051602062001dd1833981519152339380a4600190565b505090565b6001600160a01b031660008181527f85e3aada5e8d5422bdcc184de8f13dccedb59aee975ed644cc86503ca30790f760205260408120549091907f76afa8a5929fef1b4c03674b2152ae5aaad1d974b8a4021c59477bcc846ccc1e9060ff166200050a5780835260056020526040832082845260205260408320600160ff1982541617905560008051602062001dd1833981519152339380a460019056fe60806040908082526004908136101561001757600080fd5b600092833560e01c91826301ffc9a7146110655750816306fdde0314610f1a578163095ea7b314610e1457816318160ddd14610dd7578163213f986c14610d6a57816323b872dd14610be1578163248a9ca314610b975781632f2ff15d14610b50578163313ce56714610b1657816336568abe14610a8b57816340c10f191461085e5781636290865d1461080b57816370a08231146107aa57816391d148541461073857816395d89b41146105dd5781639dc29fac1461035d578163a217fddf14610324578163a9059cbb146102d5578163c5413aa414610298578163d547741f14610237578163dd62ed3e146101c3575063f89817891461011857600080fd5b346101bf5760207ffffffffffffffffffffffffffffffffffffffffffffffffffffffffffffffffc3601126101bf573573ffffffffffffffffffffffffffffffffffffffff81168091036101bf5761016e6112c0565b807fffffffffffffffffffffffff000000000000000000000000000000000000000060065416176006557fa970409706553acbb8c86c1bc79621a1e9decfe2e5f083d3ee9dc215d07cea398280a280f35b5080fd5b8390346101bf57807ffffffffffffffffffffffffffffffffffffffffffffffffffffffffffffffffc3601126101bf57806020926101ff611188565b6102076111b0565b73ffffffffffffffffffffffffffffffffffffffff91821683526001865283832091168252845220549051908152f35b90503461029457807ffffffffffffffffffffffffffffffffffffffffffffffffffffffffffffffffc36011261029457610290913561028b60016102796111b0565b938387526005602052862001546113af565b61174a565b5080f35b8280fd5b8390346101bf57817ffffffffffffffffffffffffffffffffffffffffffffffffffffffffffffffffc3601126101bf576020906007549051908152f35b8390346101bf57807ffffffffffffffffffffffffffffffffffffffffffffffffffffffffffffffffc3601126101bf5760209061031d610313611188565b60243590336113d5565b5160018152f35b8390346101bf57817ffffffffffffffffffffffffffffffffffffffffffffffffffffffffffffffffc3601126101bf5751908152602090f35b8383346101bf57827ffffffffffffffffffffffffffffffffffffffffffffffffffffffffffffffffc3601126101bf57610395611188565b92602435906103a2611353565b73ffffffffffffffffffffffffffffffffffffffff928360065416958251967fa200e5d0000000000000000000000000000000000000000000000000000000009586895282169586848a01526020988981602481865afa9081156105d35790610412918a916105b6575b5061125b565b8615610587578890602486518094819382528a888301525afa90811561057d578791610550575b50156104f457848652858752828620549184831061049557505091849591817fddf252ad1be2c89b69c2b068fc378daa952ba7f163c4a11628f55a4df523b3ef948688528785520381872055816002540360025551908152a380f35b6104f0858486519485947fe450d38c000000000000000000000000000000000000000000000000000000008652850160409194939273ffffffffffffffffffffffffffffffffffffffff606083019616825260208201520152565b0390fd5b508560649251917f08c379a0000000000000000000000000000000000000000000000000000000008352820152600c60248201527f66726f6d20626c6f636b656400000000000000000000000000000000000000006044820152fd5b6105709150883d8a11610576575b61056881836111d3565b810190611243565b88610439565b503d61055e565b84513d89823e3d90fd5b602484898751917f96c6fd1e000000000000000000000000000000000000000000000000000000008352820152fd5b6105cd91508b3d8d116105765761056881836111d3565b8b61040c565b86513d8b823e3d90fd5b839150346101bf57817ffffffffffffffffffffffffffffffffffffffffffffffffffffffffffffffffc3601126101bf5780519180938054916001908360011c926001851694851561072e575b6020958686108114610702578589529081156106c05750600114610668575b610664878761065a828c03836111d3565b5191829182611122565b0390f35b81529295507f8a35acfbc15ff81a39ae7d344fd709f28e8600b4aa8c65c6b64bfe7fe36bd19b5b8284106106ad57505050826106649461065a92820101948680610649565b805486850188015292860192810161068f565b7fffffffffffffffffffffffffffffffffffffffffffffffffffffffffffffff00168887015250505050151560051b830101925061065a826106648680610649565b6024846022857f4e487b7100000000000000000000000000000000000000000000000000000000835252fd5b93607f169361062a565b9190503461029457817ffffffffffffffffffffffffffffffffffffffffffffffffffffffffffffffffc360112610294578160209360ff926107786111b0565b903582526005865273ffffffffffffffffffffffffffffffffffffffff83832091168252855220541690519015158152f35b8390346101bf5760207ffffffffffffffffffffffffffffffffffffffffffffffffffffffffffffffffc3601126101bf578060209273ffffffffffffffffffffffffffffffffffffffff6107fc611188565b16815280845220549051908152f35b8390346101bf57817ffffffffffffffffffffffffffffffffffffffffffffffffffffffffffffffffc3601126101bf5760209073ffffffffffffffffffffffffffffffffffffffff600654169051908152f35b90503461029457807ffffffffffffffffffffffffffffffffffffffffffffffffffffffffffffffffc36011261029457610896611188565b916024918235916108a5611353565b73ffffffffffffffffffffffffffffffffffffffff9384600654168351957fa200e5d000000000000000000000000000000000000000000000000000000000978888521696878488015260209687818581865afa908115610a815790610911918b91610a64575061125b565b8715610a365786908386518094819382528b888301525afa908115610a2c578891610a0f575b50156109b5576002549184830180931161098b5750506002558385528483528085208054830190555190815283917fddf252ad1be2c89b69c2b068fc378daa952ba7f163c4a11628f55a4df523b3ef91a380f35b601188917f4e487b7100000000000000000000000000000000000000000000000000000000835252fd5b600a908560649451937f08c379a00000000000000000000000000000000000000000000000000000000085528401528201527f746f20626c6f636b6564000000000000000000000000000000000000000000006044820152fd5b610a269150863d88116105765761056881836111d3565b38610937565b84513d8a823e3d90fd5b82848a8751917fec442f05000000000000000000000000000000000000000000000000000000008352820152fd5b610a7b9150893d8b116105765761056881836111d3565b3861040c565b86513d8c823e3d90fd5b839150346101bf57807ffffffffffffffffffffffffffffffffffffffffffffffffffffffffffffffffc3601126101bf57610ac46111b0565b903373ffffffffffffffffffffffffffffffffffffffff831603610aee575061029091923561174a565b8390517f6697b232000000000000000000000000000000000000000000000000000000008152fd5b8390346101bf57817ffffffffffffffffffffffffffffffffffffffffffffffffffffffffffffffffc3601126101bf576020905160128152f35b90503461029457807ffffffffffffffffffffffffffffffffffffffffffffffffffffffffffffffffc360112610294576102909135610b9260016102796111b0565b61169e565b919050346102945760207ffffffffffffffffffffffffffffffffffffffffffffffffffffffffffffffffc3601126102945781602093600192358152600585522001549051908152f35b828434610d675760607ffffffffffffffffffffffffffffffffffffffffffffffffffffffffffffffffc360112610d6757610c1a611188565b610c226111b0565b916044359373ffffffffffffffffffffffffffffffffffffffff8316808352600160205286832033845260205286832054917fffffffffffffffffffffffffffffffffffffffffffffffffffffffffffffffff8303610c8a575b60208861031d8989896113d5565b868310610d22578115610cf3573315610cc45750825260016020908152868320338452815291869020908590039055829061031d87610c7c565b602490848951917f94280d62000000000000000000000000000000000000000000000000000000008352820152fd5b602490848951917fe602df05000000000000000000000000000000000000000000000000000000008352820152fd5b87517ffb8f41b2000000000000000000000000000000000000000000000000000000008152339181019182526020820193909352604081018790528291506060010390fd5b80fd5b919050346102945760207ffffffffffffffffffffffffffffffffffffffffffffffffffffffffffffffffc360112610294577f251ff54048ba1196e1bcf5e4454f432ad93f71c96cc40a5af52b1515ba9775bf916020913590610dcb6112c0565b8160075551908152a180f35b8390346101bf57817ffffffffffffffffffffffffffffffffffffffffffffffffffffffffffffffffc3601126101bf576020906002549051908152f35b9190503461029457817ffffffffffffffffffffffffffffffffffffffffffffffffffffffffffffffffc36011261029457610e4d611188565b602435903315610eeb5773ffffffffffffffffffffffffffffffffffffffff16918215610ebc57508083602095338152600187528181208582528752205582519081527f8c5be1e5ebec7d5bd14f71427d1e84f3dd0314c0f7b2291e5b200ac8c7c3b925843392a35160018152f35b602490858551917f94280d62000000000000000000000000000000000000000000000000000000008352820152fd5b602483868651917fe602df05000000000000000000000000000000000000000000000000000000008352820152fd5b90503461029457827ffffffffffffffffffffffffffffffffffffffffffffffffffffffffffffffffc3601126102945780519183600354906001908260011c9260018116801561105b575b602095868610821461102f5750848852908115610fef5750600114610f96575b610664868661065a828b03836111d3565b929550600383527fc2575a0e9e593c00f959f8c92f12db2869c3395a3b0502d05e2516446f71f85b5b828410610fdc57505050826106649461065a928201019438610f85565b8054868501880152928601928101610fbf565b7fffffffffffffffffffffffffffffffffffffffffffffffffffffffffffffff001687860152505050151560051b830101925061065a8261066438610f85565b8360226024927f4e487b7100000000000000000000000000000000000000000000000000000000835252fd5b93607f1693610f65565b849084346102945760207ffffffffffffffffffffffffffffffffffffffffffffffffffffffffffffffffc36011261029457357fffffffff00000000000000000000000000000000000000000000000000000000811680910361029457602092507f7965db0b0000000000000000000000000000000000000000000000000000000081149081156110f8575b5015158152f35b7f01ffc9a700000000000000000000000000000000000000000000000000000000915014836110f1565b60208082528251818301819052939260005b858110611174575050507fffffffffffffffffffffffffffffffffffffffffffffffffffffffffffffffe0601f8460006040809697860101520116010190565b818101830151848201604001528201611134565b6004359073ffffffffffffffffffffffffffffffffffffffff821682036111ab57565b600080fd5b6024359073ffffffffffffffffffffffffffffffffffffffff821682036111ab57565b90601f7fffffffffffffffffffffffffffffffffffffffffffffffffffffffffffffffe0910116810190811067ffffffffffffffff82111761121457604052565b7f4e487b7100000000000000000000000000000000000000000000000000000000600052604160045260246000fd5b908160209103126111ab575180151581036111ab5790565b1561126257565b60646040517f08c379a000000000000000000000000000000000000000000000000000000000815260206004820152600d60248201527f6e6f6e2d636f6d706c69616e74000000000000000000000000000000000000006044820152fd5b3360009081527f09f04f5809d5be59813a33617d16f069caae874a6b34f03139f63d934daddae660205260409020547fdf8b4c520ffe197c5343c6f5aec59570151ef9a492f2c624fd45ddde6135ec429060ff161561131c5750565b604490604051907fe2517d3f0000000000000000000000000000000000000000000000000000000082523360048301526024820152fd5b3360009081527f85e3aada5e8d5422bdcc184de8f13dccedb59aee975ed644cc86503ca30790f760205260409020547f76afa8a5929fef1b4c03674b2152ae5aaad1d974b8a4021c59477bcc846ccc1e9060ff161561131c5750565b80600052600560205260406000203360005260205260ff604060002054161561131c5750565b92919073ffffffffffffffffffffffffffffffffffffffff9182851691821561166d57831692831561163c57600654169060408051927fa200e5d0000000000000000000000000000000000000000000000000000000008085528560048601526020948581602481865afa90811561163157600091611614575b50156115b7578490602484518094819382528a60048301525afa9081156115ac5760009161158f575b50156115325783600052600083528060002054968288106114dd575081849596977fddf252ad1be2c89b69c2b068fc378daa952ba7f163c4a11628f55a4df523b3ef9560005260008552038160002055856000528060002082815401905551908152a3565b90517fe450d38c00000000000000000000000000000000000000000000000000000000815273ffffffffffffffffffffffffffffffffffffffff90911660048201526024810187905260448101829052606490fd5b8260649151907f08c379a00000000000000000000000000000000000000000000000000000000082526004820152600a60248201527f746f20626c6f636b6564000000000000000000000000000000000000000000006044820152fd5b6115a69150843d86116105765761056881836111d3565b38611478565b82513d6000823e3d90fd5b6064858451907f08c379a00000000000000000000000000000000000000000000000000000000082526004820152600c60248201527f66726f6d20626c6f636b656400000000000000000000000000000000000000006044820152fd5b61162b9150863d88116105765761056881836111d3565b3861144f565b84513d6000823e3d90fd5b60246040517fec442f0500000000000000000000000000000000000000000000000000000000815260006004820152fd5b60246040517f96c6fd1e00000000000000000000000000000000000000000000000000000000815260006004820152fd5b90600091808352600560205273ffffffffffffffffffffffffffffffffffffffff6040842092169182845260205260ff60408420541615600014611745578083526005602052604083208284526020526040832060017fffffffffffffffffffffffffffffffffffffffffffffffffffffffffffffff008254161790557f2f8788117e7eff1d82e926ec794901d17c78024a50270940304540a733656f0d339380a4600190565b505090565b90600091808352600560205273ffffffffffffffffffffffffffffffffffffffff6040842092169182845260205260ff60408420541660001461174557808352600560205260408320828452602052604083207fffffffffffffffffffffffffffffffffffffffffffffffffffffffffffffff0081541690557ff6391f5c32d9c69d2a47ea670b442974b53935d1edc7fd64eb21e047a839171b339380a460019056fea2646970667358221220b0e04bc6b0164de076e3fd1ee7c028643cea76344a20f5dd97b4e3aacf89e01764736f6c634300081800332f8788117e7eff1d82e926ec794901d17c78024a50270940304540a733656f0d251ff54048ba1196e1bcf5e4454f432ad93f71c96cc40a5af52b1515ba9775bf","linkReferences":{}},"methodIdentifiers":{"DEFAULT_ADMIN_ROLE()":"a217fddf","allowance(address,address)":"dd62ed3e","approve(address,uint256)":"095ea7b3","balanceOf(address)":"70a08231","burn(address,uint256)":"9dc29fac","compliance()":"6290865d","decimals()":"313ce567","getRoleAdmin(bytes32)":"248a9ca3","grantRole(bytes32,address)":"2f2ff15d","hasRole(bytes32,address)":"91d14854","mint(address,uint256)":"40c10f19","name()":"06fdde03","policyPartition()":"c5413aa4","renounceRole(bytes32,address)":"36568abe","revokeRole(bytes32,address)":"d547741f","setCompliance(address)":"f8981789","setPolicyPartition(bytes32)":"213f986c","supportsInterface(bytes4)":"01ffc9a7","symbol()":"95d89b41","totalSupply()":"18160ddd","transfer(address,uint256)":"a9059cbb","transferFrom(address,address,uint256)":"23b872dd"},"id":101}