{"abi":[{"type":"constructor","inputs":[{"name":"admin","type":"address","internalType":"address"},{"name":"name_","type":"string","internalType":"string"},{"name":"symbol_","type":"string","internalType":"string"}],"stateMutability":"nonpayable"},{"type":"function","name":"ADMIN_ROLE","inputs":[],"outputs":[{"name":"","type":"bytes32","internalType":"bytes32"}],"stateMutability":"view"},{"type":"function","name":"DEFAULT_ADMIN_ROLE","inputs":[],"outputs":[{"name":"","type":"bytes32","internalType":"bytes32"}],"stateMutability":"view"},{"type":"function","name":"MINTER_ROLE","inputs":[],"outputs":[{"name":"","type":"bytes32","internalType":"bytes32"}],"stateMutability":"view"},{"type":"function","name":"allowance","inputs":[{"name":"owner","type":"address","internalType":"address"},{"name":"spender","type":"address","internalType":"address"}],"outputs":[{"name":"","type":"uint256","internalType":"uint256"}],"stateMutability":"view"},{"type":"function","name":"approve","inputs":[{"name":"spender","type":"address","internalType":"address"},{"name":"amount","type":"uint256","internalType":"uint256"}],"outputs":[{"name":"","type":"bool","internalType":"bool"}],"stateMutability":"nonpayable"},{"type":"function","name":"balanceOf","inputs":[{"name":"owner","type":"address","internalType":"address"}],"outputs":[{"name":"","type":"uint256","internalType":"uint256"}],"stateMutability":"view"},{"type":"function","name":"burn","inputs":[{"name":"from","type":"address","internalType":"address"},{"name":"amount","type":"uint256","internalType":"uint256"}],"outputs":[],"stateMutability":"nonpayable"},{"type":"function","name":"decimals","inputs":[],"outputs":[{"name":"","type":"uint8","internalType":"uint8"}],"stateMutability":"view"},{"type":"function","name":"getRoleAdmin","inputs":[{"name":"role","type":"bytes32","internalType":"bytes32"}],"outputs":[{"name":"","type":"bytes32","internalType":"bytes32"}],"stateMutability":"view"},{"type":"function","name":"grantRole","inputs":[{"name":"role","type":"bytes32","internalType":"bytes32"},{"name":"account","type":"address","internalType":"address"}],"outputs":[],"stateMutability":"nonpayable"},{"type":"function","name":"hasRole","inputs":[{"name":"role","type":"bytes32","internalType":"bytes32"},{"name":"account","type":"address","internalType":"address"}],"outputs":[{"name":"","type":"bool","internalType":"bool"}],"stateMutability":"view"},{"type":"function","name":"index","inputs":[],"outputs":[{"name":"","type":"uint256","internalType":"uint256"}],"stateMutability":"view"},{"type":"function","name":"mint","inputs":[{"name":"to","type":"address","internalType":"address"},{"name":"amount","type":"uint256","internalType":"uint256"}],"outputs":[],"stateMutability":"nonpayable"},{"type":"function","name":"name","inputs":[],"outputs":[{"name":"","type":"string","internalType":"string"}],"stateMutability":"view"},{"type":"function","name":"pause","inputs":[],"outputs":[],"stateMutability":"nonpayable"},{"type":"function","name":"paused","inputs":[],"outputs":[{"name":"","type":"bool","internalType":"bool"}],"stateMutability":"view"},{"type":"function","name":"rebase","inputs":[{"name":"newIndex","type":"uint256","internalType":"uint256"}],"outputs":[],"stateMutability":"nonpayable"},{"type":"function","name":"renounceRole","inputs":[{"name":"role","type":"bytes32","internalType":"bytes32"},{"name":"callerConfirmation","type":"address","internalType":"address"}],"outputs":[],"stateMutability":"nonpayable"},{"type":"function","name":"revokeRole","inputs":[{"name":"role","type":"bytes32","internalType":"bytes32"},{"name":"account","type":"address","internalType":"address"}],"outputs":[],"stateMutability":"nonpayable"},{"type":"function","name":"supportsInterface","inputs":[{"name":"interfaceId","type":"bytes4","internalType":"bytes4"}],"outputs":[{"name":"","type":"bool","internalType":"bool"}],"stateMutability":"view"},{"type":"function","name":"symbol","inputs":[],"outputs":[{"name":"","type":"string","internalType":"string"}],"stateMutability":"view"},{"type":"function","name":"totalShares","inputs":[],"outputs":[{"name":"","type":"uint256","internalType":"uint256"}],"stateMutability":"view"},{"type":"function","name":"totalSupply","inputs":[],"outputs":[{"name":"","type":"uint256","internalType":"uint256"}],"stateMutability":"view"},{"type":"function","name":"transfer","inputs":[{"name":"to","type":"address","internalType":"address"},{"name":"amount","type":"uint256","internalType":"uint256"}],"outputs":[{"name":"","type":"bool","internalType":"bool"}],"stateMutability":"nonpayable"},{"type":"function","name":"transferFrom","inputs":[{"name":"from","type":"address","internalType":"address"},{"name":"to","type":"address","internalType":"address"},{"name":"amount","type":"uint256","internalType":"uint256"}],"outputs":[{"name":"","type":"bool","internalType":"bool"}],"stateMutability":"nonpayable"},{"type":"function","name":"unpause","inputs":[],"outputs":[],"stateMutability":"nonpayable"},{"type":"event","name":"Approval","inputs":[{"name":"owner","type":"address","indexed":true,"internalType":"address"},{"name":"spender","type":"address","indexed":true,"internalType":"address"},{"name":"value","type":"uint256","indexed":false,"internalType":"uint256"}],"anonymous":false},{"type":"event","name":"Paused","inputs":[{"name":"account","type":"address","indexed":false,"internalType":"address"}],"anonymous":false},{"type":"event","name":"Rebased","inputs":[{"name":"oldIndex","type":"uint256","indexed":false,"internalType":"uint256"},{"name":"newIndex","type":"uint256","indexed":false,"internalType":"uint256"}],"anonymous":false},{"type":"event","name":"RoleAdminChanged","inputs":[{"name":"role","type":"bytes32","indexed":true,"internalType":"bytes32"},{"name":"previousAdminRole","type":"bytes32","indexed":true,"internalType":"bytes32"},{"name":"newAdminRole","type":"bytes32","indexed":true,"internalType":"bytes32"}],"anonymous":false},{"type":"event","name":"RoleGranted","inputs":[{"name":"role","type":"bytes32","indexed":true,"internalType":"bytes32"},{"name":"account","type":"address","indexed":true,"internalType":"address"},{"name":"sender","type":"address","indexed":true,"internalType":"address"}],"anonymous":false},{"type":"event","name":"RoleRevoked","inputs":[{"name":"role","type":"bytes32","indexed":true,"internalType":"bytes32"},{"name":"account","type":"address","indexed":true,"internalType":"address"},{"name":"sender","type":"address","indexed":true,"internalType":"address"}],"anonymous":false},{"type":"event","name":"Transfer","inputs":[{"name":"from","type":"address","indexed":true,"internalType":"address"},{"name":"to","type":"address","indexed":true,"internalType":"address"},{"name":"value","type":"uint256","indexed":false,"internalType":"uint256"}],"anonymous":false},{"type":"event","name":"Unpaused","inputs":[{"name":"account","type":"address","indexed":false,"internalType":"address"}],"anonymous":false},{"type":"error","name":"AccessControlBadConfirmation","inputs":[]},{"type":"error","name":"AccessControlUnauthorizedAccount","inputs":[{"name":"account","type":"address","internalType":"address"},{"name":"neededRole","type":"bytes32","internalType":"bytes32"}]},{"type":"error","name":"EnforcedPause","inputs":[]},{"type":"error","name":"ExpectedPause","inputs":[]}],"bytecode":{"object":"0x6080604052346200035c5762001c29803803806200001d8162000361565b92833981016060828203126200035c578151906001600160a01b03821682036200035c576020838101516001600160401b0394919291908581116200035c57826200006a91830162000387565b9160408201518681116200035c5762000084920162000387565b9060019160ff19835416835581518681116200026e57600254928484811c9416801562000351575b868510146200024d578190601f94858111620002fa575b508690858311600114620002905760009262000284575b5050600019600383901b1c191690841b176002555b80519586116200026e5760039384548481811c9116801562000263575b828210146200024d5783811162000202575b50809287116001146200019657506200017995926000928492836200018a575b50501b9160001990841b1c19161790555b670de0b6b3a76400006004556200016681620003f9565b50620001728162000479565b506200051b565b506040516116509081620005b98239f35b0151925038806200013e565b909591601f198316968560005282600020926000905b898210620001ea57505083620001799810620001d1575b505050811b0190556200014f565b015160001983861b60f8161c19169055388080620001c3565b808785968294968601518155019501930190620001ac565b856000528160002084808a0160051c820192848b1062000243575b0160051c019085905b828110620002365750506200011e565b6000815501859062000226565b925081926200021d565b634e487b7160e01b600052602260045260246000fd5b90607f16906200010c565b634e487b7160e01b600052604160045260246000fd5b015190503880620000da565b90869350601f198316916002600052886000209260005b8a828210620002e35750508411620002c9575b505050811b01600255620000ef565b015160001960f88460031b161c19169055388080620002ba565b8385015186558a97909501949384019301620002a7565b9091506002600052866000208580850160051c82019289861062000347575b918891869594930160051c01915b82811062000337575050620000c3565b6000815585945088910162000327565b9250819262000319565b93607f1693620000ac565b600080fd5b6040519190601f01601f191682016001600160401b038111838210176200026e57604052565b919080601f840112156200035c5782516001600160401b0381116200026e57602090620003bd601f8201601f1916830162000361565b928184528282870101116200035c5760005b818110620003e557508260009394955001015290565b8581018301518482018401528201620003cf565b6001600160a01b031660008181527fad3228b676f7d3cd4284a5443f17f1962b36e491b30a40b2405849e597ba5fb5602052604081205490919060ff166200047557818052816020526040822081835260205260408220600160ff19825416179055339160008051602062001c098339815191528180a4600190565b5090565b6001600160a01b031660008181527f7d7ffb7a348e1c6a02869081a26547b49160dd3df72d1d75a570eb9b698292ec60205260408120549091907fa49807205ce4d355092ef5a8a18f56e8913cf4a201fbe287825b095693c217759060ff166200051657808352826020526040832082845260205260408320600160ff1982541617905560008051602062001c09833981519152339380a4600190565b505090565b6001600160a01b031660008181527f0781d7cac9c378efa22a7481e4d4d29704a680ddf504b3bc50b517700ee11e6c60205260408120549091907f9f2df0fed2c77648de5860a4cc508cd0818c85b8b8a1ab4ceeef8d981c8956a69060ff166200051657808352826020526040832082845260205260408320600160ff1982541617905560008051602062001c09833981519152339380a460019056fe608060408181526004918236101561001657600080fd5b600092833560e01c91826301ffc9a714610fea5750816306fdde0314610ea8578163095ea7b314610e0357816318160ddd14610db557816323b872dd14610c09578163248a9ca314610bc15781632986c0e514610b855781632f2ff15d14610b3d578163313ce56714610b0357816336568abe14610a795781633a98ef3914610a3c5781633f4ba83a1461097d57816340c10f19146108bd5781635c975abb1461087b57816370a082311461080357816375b238fc146107aa5781638456cb591461071457816391d14854146106a457816395d89b41146104aa578382639dc29fac146103e157508163a217fddf146103a8578163a9059cbb14610351578163bc4f2d6d14610275578163d53913931461021c578163d547741f146101bb575063dd62ed3e1461014557600080fd5b346101b757807ffffffffffffffffffffffffffffffffffffffffffffffffffffffffffffffffc3601126101b7578060209261017f61110c565b610187611134565b73ffffffffffffffffffffffffffffffffffffffff91821683526007865283832091168252845220549051908152f35b5080fd5b9190503461021857807ffffffffffffffffffffffffffffffffffffffffffffffffffffffffffffffffc36011261021857610214913561020f60016101fe611134565b93838752866020528620015461141d565b6114ed565b5080f35b8280fd5b5050346101b757817ffffffffffffffffffffffffffffffffffffffffffffffffffffffffffffffffc3601126101b757602090517f9f2df0fed2c77648de5860a4cc508cd0818c85b8b8a1ab4ceeef8d981c8956a68152f35b8383346101b75760207ffffffffffffffffffffffffffffffffffffffffffffffffffffffffffffffffc3601126101b7578235926102b161132e565b6102b961120b565b83156102f557837f8d01b778e641f65fc8a5cae34cc83e082ab8b2149b3c1bb3925913116fe4633f93948254925582519182526020820152a180f35b602060649251917f08c379a0000000000000000000000000000000000000000000000000000000008352820152600360248201527f69647800000000000000000000000000000000000000000000000000000000006044820152fd5b5050346101b757807ffffffffffffffffffffffffffffffffffffffffffffffffffffffffffffffffc3601126101b7576020906103a161038f61110c565b61039761120b565b6024359033611241565b5160018152f35b5050346101b757817ffffffffffffffffffffffffffffffffffffffffffffffffffffffffffffffffc3601126101b75751908152602090f35b8084346104a757807ffffffffffffffffffffffffffffffffffffffffffffffffffffffffffffffffc3601126104a7577fddf252ad1be2c89b69c2b068fc378daa952ba7f163c4a11628f55a4df523b3ef602061043c61110c565b92602435906104496113c1565b61045161120b565b73ffffffffffffffffffffffffffffffffffffffff61046f8361158e565b95169485875260068452610488818389205410156111a6565b858752600684528187208181540390556005540360055551908152a380f35b50fd5b8383346101b757817ffffffffffffffffffffffffffffffffffffffffffffffffffffffffffffffffc3601126101b7578051908260035460018160011c906001831692831561069a575b602093848410811461066e5783885287959493929181156106135750600114610596575b50505003601f017fffffffffffffffffffffffffffffffffffffffffffffffffffffffffffffffe01682019267ffffffffffffffff84118385101761056a57508291826105669252826110a6565b0390f35b806041867f4e487b71000000000000000000000000000000000000000000000000000000006024945252fd5b600388529193925086917fc2575a0e9e593c00f959f8c92f12db2869c3395a3b0502d05e2516446f71f85b5b8284106105fd57505050907fffffffffffffffffffffffffffffffffffffffffffffffffffffffffffffffe092601f92820101918193610518565b80548885018701528794509285019281016105c2565b7fffffffffffffffffffffffffffffffffffffffffffffffffffffffffffffff0016848701525050151560051b830101905081601f7fffffffffffffffffffffffffffffffffffffffffffffffffffffffffffffffe0610518565b60248960228c7f4e487b7100000000000000000000000000000000000000000000000000000000835252fd5b91607f16916104f4565b90503461021857817ffffffffffffffffffffffffffffffffffffffffffffffffffffffffffffffffc360112610218578160209360ff926106e3611134565b9035825281865273ffffffffffffffffffffffffffffffffffffffff83832091168252855220541690519015158152f35b5050346101b757817ffffffffffffffffffffffffffffffffffffffffffffffffffffffffffffffffc3601126101b75760207f62e78cea01bee320cd4e420270b5ea74000d11b0c9f74754ebdbfc544b05a2589161077061132e565b61077861120b565b60017fffffffffffffffffffffffffffffffffffffffffffffffffffffffffffffff008154161760015551338152a180f35b5050346101b757817ffffffffffffffffffffffffffffffffffffffffffffffffffffffffffffffffc3601126101b757602090517fa49807205ce4d355092ef5a8a18f56e8913cf4a201fbe287825b095693c217758152f35b9050346102185760207ffffffffffffffffffffffffffffffffffffffffffffffffffffffffffffffffc36011261021857610873670de0b6b3a7640000918360209573ffffffffffffffffffffffffffffffffffffffff61086261110c565b168152600687522054905490611157565b049051908152f35b5050346101b757817ffffffffffffffffffffffffffffffffffffffffffffffffffffffffffffffffc3601126101b75760209060ff6001541690519015158152f35b5050346101b757807ffffffffffffffffffffffffffffffffffffffffffffffffffffffffffffffffc3601126101b757817fddf252ad1be2c89b69c2b068fc378daa952ba7f163c4a11628f55a4df523b3ef602061091961110c565b93602435906109266113c1565b61092e61120b565b73ffffffffffffffffffffffffffffffffffffffff61094c8361158e565b9661095988600554611199565b600555169586865260068452610973828720918254611199565b905551908152a380f35b90503461021857827ffffffffffffffffffffffffffffffffffffffffffffffffffffffffffffffffc360112610218576109b561132e565b6001549060ff821615610a1557507f5db9ee0a495bf2e6ff9c91a7834c1ba4fdd244a5e8aa4e537bd38aeae4b073aa917fffffffffffffffffffffffffffffffffffffffffffffffffffffffffffffff006020921660015551338152a180f35b82517f8dfc202b000000000000000000000000000000000000000000000000000000008152fd5b5050346101b757817ffffffffffffffffffffffffffffffffffffffffffffffffffffffffffffffffc3601126101b7576020906005549051908152f35b8383346101b757807ffffffffffffffffffffffffffffffffffffffffffffffffffffffffffffffffc3601126101b757610ab1611134565b903373ffffffffffffffffffffffffffffffffffffffff831603610adb57506102149192356114ed565b8390517f6697b232000000000000000000000000000000000000000000000000000000008152fd5b5050346101b757817ffffffffffffffffffffffffffffffffffffffffffffffffffffffffffffffffc3601126101b7576020905160128152f35b9190503461021857807ffffffffffffffffffffffffffffffffffffffffffffffffffffffffffffffffc360112610218576102149135610b8060016101fe611134565b611443565b90503461021857827ffffffffffffffffffffffffffffffffffffffffffffffffffffffffffffffffc3601126102185760209250549051908152f35b9050346102185760207ffffffffffffffffffffffffffffffffffffffffffffffffffffffffffffffffc36011261021857816020936001923581528085522001549051908152f35b8383346101b75760607ffffffffffffffffffffffffffffffffffffffffffffffffffffffffffffffffc3601126101b757610c4261110c565b610c4a611134565b60443591610c5661120b565b73ffffffffffffffffffffffffffffffffffffffff811680865260209560078752858120338252875285812054858110610d59577fffffffffffffffffffffffffffffffffffffffffffffffffffffffffffffffff8103610cc0575b505050906103a19291611241565b858103908111610d2d5786979850906103a1969183825260078a528282203383528a528282205582815260078952818120338252895220549086519182527f8c5be1e5ebec7d5bd14f71427d1e84f3dd0314c0f7b2291e5b200ac8c7c3b925883393a38594938780610cb2565b60248260118b7f4e487b7100000000000000000000000000000000000000000000000000000000835252fd5b606489898951917f08c379a0000000000000000000000000000000000000000000000000000000008352820152600960248201527f616c6c6f77616e636500000000000000000000000000000000000000000000006044820152fd5b828434610e0057807ffffffffffffffffffffffffffffffffffffffffffffffffffffffffffffffffc360112610e005750670de0b6b3a7640000610873602093600554905490611157565b80fd5b5050346101b757807ffffffffffffffffffffffffffffffffffffffffffffffffffffffffffffffffc3601126101b75760209181610e3f61110c565b91602435918291610e4e61120b565b3381526007875273ffffffffffffffffffffffffffffffffffffffff8282209516948582528752205582519081527f8c5be1e5ebec7d5bd14f71427d1e84f3dd0314c0f7b2291e5b200ac8c7c3b925843392a35160018152f35b8383346101b757817ffffffffffffffffffffffffffffffffffffffffffffffffffffffffffffffffc3601126101b7578051908260025460018160011c9060018316928315610fe0575b602093848410811461066e5783885287959493929181156106135750600114610f635750505003601f017fffffffffffffffffffffffffffffffffffffffffffffffffffffffffffffffe01682019267ffffffffffffffff84118385101761056a57508291826105669252826110a6565b600288529193925086917f405787fa12a823e0f2b7631cc41b3ba8828b3321ca811111fa75cd3aa3bb5ace5b828410610fca57505050907fffffffffffffffffffffffffffffffffffffffffffffffffffffffffffffffe092601f92820101918193610518565b8054888501870152879450928501928101610f8f565b91607f1691610ef2565b8491346102185760207ffffffffffffffffffffffffffffffffffffffffffffffffffffffffffffffffc36011261021857357fffffffff00000000000000000000000000000000000000000000000000000000811680910361021857602092507f7965db0b00000000000000000000000000000000000000000000000000000000811490811561107c575b5015158152f35b7f01ffc9a70000000000000000000000000000000000000000000000000000000091501483611075565b60208082528251818301819052939260005b8581106110f8575050507fffffffffffffffffffffffffffffffffffffffffffffffffffffffffffffffe0601f8460006040809697860101520116010190565b8181018301518482016040015282016110b8565b6004359073ffffffffffffffffffffffffffffffffffffffff8216820361112f57565b600080fd5b6024359073ffffffffffffffffffffffffffffffffffffffff8216820361112f57565b8181029291811591840414171561116a57565b7f4e487b7100000000000000000000000000000000000000000000000000000000600052601160045260246000fd5b9190820180921161116a57565b156111ad57565b60646040517f08c379a000000000000000000000000000000000000000000000000000000000815260206004820152600760248201527f62616c616e6365000000000000000000000000000000000000000000000000006044820152fd5b60ff6001541661121757565b60046040517fd93c0665000000000000000000000000000000000000000000000000000000008152fd5b909173ffffffffffffffffffffffffffffffffffffffff8093169283156112d057816020916112907fddf252ad1be2c89b69c2b068fc378daa952ba7f163c4a11628f55a4df523b3ef9461158e565b94169360406000868152600685526112ad838383205410156111a6565b8681526006855281812083815403905587815220908154019055604051908152a3565b60646040517f08c379a000000000000000000000000000000000000000000000000000000000815260206004820152600260248201527f746f0000000000000000000000000000000000000000000000000000000000006044820152fd5b3360009081527f7d7ffb7a348e1c6a02869081a26547b49160dd3df72d1d75a570eb9b698292ec60205260409020547fa49807205ce4d355092ef5a8a18f56e8913cf4a201fbe287825b095693c217759060ff161561138a5750565b604490604051907fe2517d3f0000000000000000000000000000000000000000000000000000000082523360048301526024820152fd5b3360009081527f0781d7cac9c378efa22a7481e4d4d29704a680ddf504b3bc50b517700ee11e6c60205260409020547f9f2df0fed2c77648de5860a4cc508cd0818c85b8b8a1ab4ceeef8d981c8956a69060ff161561138a5750565b80600052600060205260406000203360005260205260ff604060002054161561138a5750565b906000918083528260205273ffffffffffffffffffffffffffffffffffffffff6040842092169182845260205260ff604084205416156000146114e85780835282602052604083208284526020526040832060017fffffffffffffffffffffffffffffffffffffffffffffffffffffffffffffff008254161790557f2f8788117e7eff1d82e926ec794901d17c78024a50270940304540a733656f0d339380a4600190565b505090565b906000918083528260205273ffffffffffffffffffffffffffffffffffffffff6040842092169182845260205260ff6040842054166000146114e8578083528260205260408320828452602052604083207fffffffffffffffffffffffffffffffffffffffffffffffffffffffffffffff0081541690557ff6391f5c32d9c69d2a47ea670b442974b53935d1edc7fd64eb21e047a839171b339380a4600190565b6000908061159d575050600090565b670de0b6b3a7640000808202918204036115ed576004549182156115c057500490565b807f4e487b7100000000000000000000000000000000000000000000000000000000602492526012600452fd5b6024827f4e487b710000000000000000000000000000000000000000000000000000000081526011600452fdfea2646970667358221220268077110378133008092ab4e47be73461272951244d431452969439650f5d4f64736f6c634300081800332f8788117e7eff1d82e926ec794901d17c78024a50270940304540a733656f0d","linkReferences":{}},"methodIdentifiers":{"ADMIN_ROLE()":"75b238fc","DEFAULT_ADMIN_ROLE()":"a217fddf","MINTER_ROLE()":"d5391393","allowance(address,address)":"dd62ed3e","approve(address,uint256)":"095ea7b3","balanceOf(address)":"70a08231","burn(address,uint256)":"9dc29fac","decimals()":"313ce567","getRoleAdmin(bytes32)":"248a9ca3","grantRole(bytes32,address)":"2f2ff15d","hasRole(bytes32,address)":"91d14854","index()":"2986c0e5","mint(address,uint256)":"40c10f19","name()":"06fdde03","pause()":"8456cb59","paused()":"5c975abb","rebase(uint256)":"bc4f2d6d","renounceRole(bytes32,address)":"36568abe","revokeRole(bytes32,address)":"d547741f","supportsInterface(bytes4)":"01ffc9a7","symbol()":"95d89b41","totalShares()":"3a98ef39","totalSupply()":"18160ddd","transfer(address,uint256)":"a9059cbb","transferFrom(address,address,uint256)":"23b872dd","unpause()":"3f4ba83a"},"id":103}