{
  "_format": "hh-sol-artifact-1",
  "contractName": "CollateralizedStablecoin",
  "sourceName": "contracts/stable/crypto/CollateralizedStablecoin.sol",
  "abi": [
    {
      "inputs": [
        {
          "internalType": "address",
          "name": "admin",
          "type": "address"
        }
      ],
      "stateMutability": "nonpayable",
      "type": "constructor"
    },
    {
      "inputs": [],
      "name": "AccessControlBadConfirmation",
      "type": "error"
    },
    {
      "inputs": [
        {
          "internalType": "address",
          "name": "account",
          "type": "address"
        },
        {
          "internalType": "bytes32",
          "name": "neededRole",
          "type": "bytes32"
        }
      ],
      "name": "AccessControlUnauthorizedAccount",
      "type": "error"
    },
    {
      "inputs": [],
      "name": "CollateralTypeNotFound",
      "type": "error"
    },
    {
      "inputs": [],
      "name": "ECDSAInvalidSignature",
      "type": "error"
    },
    {
      "inputs": [
        {
          "internalType": "uint256",
          "name": "length",
          "type": "uint256"
        }
      ],
      "name": "ECDSAInvalidSignatureLength",
      "type": "error"
    },
    {
      "inputs": [
        {
          "internalType": "bytes32",
          "name": "s",
          "type": "bytes32"
        }
      ],
      "name": "ECDSAInvalidSignatureS",
      "type": "error"
    },
    {
      "inputs": [
        {
          "internalType": "address",
          "name": "spender",
          "type": "address"
        },
        {
          "internalType": "uint256",
          "name": "allowance",
          "type": "uint256"
        },
        {
          "internalType": "uint256",
          "name": "needed",
          "type": "uint256"
        }
      ],
      "name": "ERC20InsufficientAllowance",
      "type": "error"
    },
    {
      "inputs": [
        {
          "internalType": "address",
          "name": "sender",
          "type": "address"
        },
        {
          "internalType": "uint256",
          "name": "balance",
          "type": "uint256"
        },
        {
          "internalType": "uint256",
          "name": "needed",
          "type": "uint256"
        }
      ],
      "name": "ERC20InsufficientBalance",
      "type": "error"
    },
    {
      "inputs": [
        {
          "internalType": "address",
          "name": "approver",
          "type": "address"
        }
      ],
      "name": "ERC20InvalidApprover",
      "type": "error"
    },
    {
      "inputs": [
        {
          "internalType": "address",
          "name": "receiver",
          "type": "address"
        }
      ],
      "name": "ERC20InvalidReceiver",
      "type": "error"
    },
    {
      "inputs": [
        {
          "internalType": "address",
          "name": "sender",
          "type": "address"
        }
      ],
      "name": "ERC20InvalidSender",
      "type": "error"
    },
    {
      "inputs": [
        {
          "internalType": "address",
          "name": "spender",
          "type": "address"
        }
      ],
      "name": "ERC20InvalidSpender",
      "type": "error"
    },
    {
      "inputs": [
        {
          "internalType": "uint256",
          "name": "deadline",
          "type": "uint256"
        }
      ],
      "name": "ERC2612ExpiredSignature",
      "type": "error"
    },
    {
      "inputs": [
        {
          "internalType": "address",
          "name": "signer",
          "type": "address"
        },
        {
          "internalType": "address",
          "name": "owner",
          "type": "address"
        }
      ],
      "name": "ERC2612InvalidSigner",
      "type": "error"
    },
    {
      "inputs": [],
      "name": "EnforcedPause",
      "type": "error"
    },
    {
      "inputs": [],
      "name": "ExpectedPause",
      "type": "error"
    },
    {
      "inputs": [],
      "name": "InsufficientBalance",
      "type": "error"
    },
    {
      "inputs": [
        {
          "internalType": "address",
          "name": "account",
          "type": "address"
        },
        {
          "internalType": "uint256",
          "name": "currentNonce",
          "type": "uint256"
        }
      ],
      "name": "InvalidAccountNonce",
      "type": "error"
    },
    {
      "inputs": [],
      "name": "InvalidShortString",
      "type": "error"
    },
    {
      "inputs": [],
      "name": "SafeCheckFailed",
      "type": "error"
    },
    {
      "inputs": [
        {
          "internalType": "string",
          "name": "str",
          "type": "string"
        }
      ],
      "name": "StringTooLong",
      "type": "error"
    },
    {
      "anonymous": false,
      "inputs": [
        {
          "indexed": true,
          "internalType": "address",
          "name": "owner",
          "type": "address"
        },
        {
          "indexed": true,
          "internalType": "address",
          "name": "spender",
          "type": "address"
        },
        {
          "indexed": false,
          "internalType": "uint256",
          "name": "value",
          "type": "uint256"
        }
      ],
      "name": "Approval",
      "type": "event"
    },
    {
      "anonymous": false,
      "inputs": [
        {
          "indexed": true,
          "internalType": "address",
          "name": "asset",
          "type": "address"
        },
        {
          "indexed": false,
          "internalType": "uint256",
          "name": "ceiling",
          "type": "uint256"
        },
        {
          "indexed": false,
          "internalType": "uint16",
          "name": "liqRatio",
          "type": "uint16"
        },
        {
          "indexed": false,
          "internalType": "uint16",
          "name": "fee",
          "type": "uint16"
        },
        {
          "indexed": false,
          "internalType": "uint16",
          "name": "penalty",
          "type": "uint16"
        },
        {
          "indexed": false,
          "internalType": "address",
          "name": "oracle",
          "type": "address"
        }
      ],
      "name": "CollateralListed",
      "type": "event"
    },
    {
      "anonymous": false,
      "inputs": [],
      "name": "EIP712DomainChanged",
      "type": "event"
    },
    {
      "anonymous": false,
      "inputs": [
        {
          "indexed": true,
          "internalType": "address",
          "name": "owner",
          "type": "address"
        },
        {
          "indexed": true,
          "internalType": "address",
          "name": "asset",
          "type": "address"
        },
        {
          "indexed": false,
          "internalType": "uint256",
          "name": "repaid",
          "type": "uint256"
        },
        {
          "indexed": false,
          "internalType": "uint256",
          "name": "seized",
          "type": "uint256"
        }
      ],
      "name": "Liquidated",
      "type": "event"
    },
    {
      "anonymous": false,
      "inputs": [
        {
          "indexed": false,
          "internalType": "address",
          "name": "account",
          "type": "address"
        }
      ],
      "name": "Paused",
      "type": "event"
    },
    {
      "anonymous": false,
      "inputs": [
        {
          "indexed": true,
          "internalType": "bytes32",
          "name": "role",
          "type": "bytes32"
        },
        {
          "indexed": true,
          "internalType": "bytes32",
          "name": "previousAdminRole",
          "type": "bytes32"
        },
        {
          "indexed": true,
          "internalType": "bytes32",
          "name": "newAdminRole",
          "type": "bytes32"
        }
      ],
      "name": "RoleAdminChanged",
      "type": "event"
    },
    {
      "anonymous": false,
      "inputs": [
        {
          "indexed": true,
          "internalType": "bytes32",
          "name": "role",
          "type": "bytes32"
        },
        {
          "indexed": true,
          "internalType": "address",
          "name": "account",
          "type": "address"
        },
        {
          "indexed": true,
          "internalType": "address",
          "name": "sender",
          "type": "address"
        }
      ],
      "name": "RoleGranted",
      "type": "event"
    },
    {
      "anonymous": false,
      "inputs": [
        {
          "indexed": true,
          "internalType": "bytes32",
          "name": "role",
          "type": "bytes32"
        },
        {
          "indexed": true,
          "internalType": "address",
          "name": "account",
          "type": "address"
        },
        {
          "indexed": true,
          "internalType": "address",
          "name": "sender",
          "type": "address"
        }
      ],
      "name": "RoleRevoked",
      "type": "event"
    },
    {
      "anonymous": false,
      "inputs": [
        {
          "indexed": true,
          "internalType": "address",
          "name": "from",
          "type": "address"
        },
        {
          "indexed": true,
          "internalType": "address",
          "name": "to",
          "type": "address"
        },
        {
          "indexed": false,
          "internalType": "uint256",
          "name": "value",
          "type": "uint256"
        }
      ],
      "name": "Transfer",
      "type": "event"
    },
    {
      "anonymous": false,
      "inputs": [
        {
          "indexed": false,
          "internalType": "address",
          "name": "account",
          "type": "address"
        }
      ],
      "name": "Unpaused",
      "type": "event"
    },
    {
      "anonymous": false,
      "inputs": [
        {
          "indexed": true,
          "internalType": "address",
          "name": "owner",
          "type": "address"
        },
        {
          "indexed": true,
          "internalType": "address",
          "name": "asset",
          "type": "address"
        },
        {
          "indexed": false,
          "internalType": "uint256",
          "name": "collat",
          "type": "uint256"
        },
        {
          "indexed": false,
          "internalType": "uint256",
          "name": "debt",
          "type": "uint256"
        }
      ],
      "name": "VaultUpdated",
      "type": "event"
    },
    {
      "inputs": [],
      "name": "ADMIN_ROLE",
      "outputs": [
        {
          "internalType": "bytes32",
          "name": "",
          "type": "bytes32"
        }
      ],
      "stateMutability": "view",
      "type": "function"
    },
    {
      "inputs": [],
      "name": "DEFAULT_ADMIN_ROLE",
      "outputs": [
        {
          "internalType": "bytes32",
          "name": "",
          "type": "bytes32"
        }
      ],
      "stateMutability": "view",
      "type": "function"
    },
    {
      "inputs": [],
      "name": "DOMAIN_SEPARATOR",
      "outputs": [
        {
          "internalType": "bytes32",
          "name": "",
          "type": "bytes32"
        }
      ],
      "stateMutability": "view",
      "type": "function"
    },
    {
      "inputs": [],
      "name": "KEEPER_ROLE",
      "outputs": [
        {
          "internalType": "bytes32",
          "name": "",
          "type": "bytes32"
        }
      ],
      "stateMutability": "view",
      "type": "function"
    },
    {
      "inputs": [],
      "name": "RISK_ROLE",
      "outputs": [
        {
          "internalType": "bytes32",
          "name": "",
          "type": "bytes32"
        }
      ],
      "stateMutability": "view",
      "type": "function"
    },
    {
      "inputs": [
        {
          "internalType": "address",
          "name": "asset",
          "type": "address"
        },
        {
          "internalType": "uint256",
          "name": "amount",
          "type": "uint256"
        }
      ],
      "name": "addCollateral",
      "outputs": [],
      "stateMutability": "nonpayable",
      "type": "function"
    },
    {
      "inputs": [
        {
          "internalType": "address",
          "name": "owner",
          "type": "address"
        },
        {
          "internalType": "address",
          "name": "spender",
          "type": "address"
        }
      ],
      "name": "allowance",
      "outputs": [
        {
          "internalType": "uint256",
          "name": "",
          "type": "uint256"
        }
      ],
      "stateMutability": "view",
      "type": "function"
    },
    {
      "inputs": [
        {
          "internalType": "address",
          "name": "spender",
          "type": "address"
        },
        {
          "internalType": "uint256",
          "name": "value",
          "type": "uint256"
        }
      ],
      "name": "approve",
      "outputs": [
        {
          "internalType": "bool",
          "name": "",
          "type": "bool"
        }
      ],
      "stateMutability": "nonpayable",
      "type": "function"
    },
    {
      "inputs": [
        {
          "internalType": "address",
          "name": "account",
          "type": "address"
        }
      ],
      "name": "balanceOf",
      "outputs": [
        {
          "internalType": "uint256",
          "name": "",
          "type": "uint256"
        }
      ],
      "stateMutability": "view",
      "type": "function"
    },
    {
      "inputs": [
        {
          "internalType": "address",
          "name": "asset",
          "type": "address"
        },
        {
          "internalType": "uint256",
          "name": "amount",
          "type": "uint256"
        }
      ],
      "name": "burn",
      "outputs": [],
      "stateMutability": "nonpayable",
      "type": "function"
    },
    {
      "inputs": [
        {
          "internalType": "address",
          "name": "",
          "type": "address"
        }
      ],
      "name": "collatTypes",
      "outputs": [
        {
          "internalType": "bool",
          "name": "listed",
          "type": "bool"
        },
        {
          "internalType": "uint256",
          "name": "debtCeiling",
          "type": "uint256"
        },
        {
          "internalType": "uint16",
          "name": "liqRatioBps",
          "type": "uint16"
        },
        {
          "internalType": "uint16",
          "name": "stabilityFeeBps",
          "type": "uint16"
        },
        {
          "internalType": "uint16",
          "name": "penaltyBps",
          "type": "uint16"
        },
        {
          "internalType": "contract IPriceOracle",
          "name": "oracle",
          "type": "address"
        }
      ],
      "stateMutability": "view",
      "type": "function"
    },
    {
      "inputs": [],
      "name": "decimals",
      "outputs": [
        {
          "internalType": "uint8",
          "name": "",
          "type": "uint8"
        }
      ],
      "stateMutability": "view",
      "type": "function"
    },
    {
      "inputs": [],
      "name": "eip712Domain",
      "outputs": [
        {
          "internalType": "bytes1",
          "name": "fields",
          "type": "bytes1"
        },
        {
          "internalType": "string",
          "name": "name",
          "type": "string"
        },
        {
          "internalType": "string",
          "name": "version",
          "type": "string"
        },
        {
          "internalType": "uint256",
          "name": "chainId",
          "type": "uint256"
        },
        {
          "internalType": "address",
          "name": "verifyingContract",
          "type": "address"
        },
        {
          "internalType": "bytes32",
          "name": "salt",
          "type": "bytes32"
        },
        {
          "internalType": "uint256[]",
          "name": "extensions",
          "type": "uint256[]"
        }
      ],
      "stateMutability": "view",
      "type": "function"
    },
    {
      "inputs": [
        {
          "internalType": "bytes32",
          "name": "role",
          "type": "bytes32"
        }
      ],
      "name": "getRoleAdmin",
      "outputs": [
        {
          "internalType": "bytes32",
          "name": "",
          "type": "bytes32"
        }
      ],
      "stateMutability": "view",
      "type": "function"
    },
    {
      "inputs": [
        {
          "internalType": "bytes32",
          "name": "role",
          "type": "bytes32"
        },
        {
          "internalType": "address",
          "name": "account",
          "type": "address"
        }
      ],
      "name": "grantRole",
      "outputs": [],
      "stateMutability": "nonpayable",
      "type": "function"
    },
    {
      "inputs": [
        {
          "internalType": "bytes32",
          "name": "role",
          "type": "bytes32"
        },
        {
          "internalType": "address",
          "name": "account",
          "type": "address"
        }
      ],
      "name": "hasRole",
      "outputs": [
        {
          "internalType": "bool",
          "name": "",
          "type": "bool"
        }
      ],
      "stateMutability": "view",
      "type": "function"
    },
    {
      "inputs": [
        {
          "internalType": "address",
          "name": "owner",
          "type": "address"
        },
        {
          "internalType": "address",
          "name": "asset",
          "type": "address"
        },
        {
          "internalType": "uint256",
          "name": "repay",
          "type": "uint256"
        }
      ],
      "name": "liquidate",
      "outputs": [],
      "stateMutability": "nonpayable",
      "type": "function"
    },
    {
      "inputs": [
        {
          "internalType": "address",
          "name": "asset",
          "type": "address"
        },
        {
          "components": [
            {
              "internalType": "bool",
              "name": "listed",
              "type": "bool"
            },
            {
              "internalType": "uint256",
              "name": "debtCeiling",
              "type": "uint256"
            },
            {
              "internalType": "uint16",
              "name": "liqRatioBps",
              "type": "uint16"
            },
            {
              "internalType": "uint16",
              "name": "stabilityFeeBps",
              "type": "uint16"
            },
            {
              "internalType": "uint16",
              "name": "penaltyBps",
              "type": "uint16"
            },
            {
              "internalType": "contract IPriceOracle",
              "name": "oracle",
              "type": "address"
            }
          ],
          "internalType": "struct CollateralizedStablecoin.CollateralType",
          "name": "c",
          "type": "tuple"
        }
      ],
      "name": "listCollateral",
      "outputs": [],
      "stateMutability": "nonpayable",
      "type": "function"
    },
    {
      "inputs": [
        {
          "internalType": "address",
          "name": "asset",
          "type": "address"
        },
        {
          "internalType": "uint256",
          "name": "amount",
          "type": "uint256"
        }
      ],
      "name": "mint",
      "outputs": [],
      "stateMutability": "nonpayable",
      "type": "function"
    },
    {
      "inputs": [],
      "name": "name",
      "outputs": [
        {
          "internalType": "string",
          "name": "",
          "type": "string"
        }
      ],
      "stateMutability": "view",
      "type": "function"
    },
    {
      "inputs": [
        {
          "internalType": "address",
          "name": "owner",
          "type": "address"
        }
      ],
      "name": "nonces",
      "outputs": [
        {
          "internalType": "uint256",
          "name": "",
          "type": "uint256"
        }
      ],
      "stateMutability": "view",
      "type": "function"
    },
    {
      "inputs": [],
      "name": "pause",
      "outputs": [],
      "stateMutability": "nonpayable",
      "type": "function"
    },
    {
      "inputs": [],
      "name": "paused",
      "outputs": [
        {
          "internalType": "bool",
          "name": "",
          "type": "bool"
        }
      ],
      "stateMutability": "view",
      "type": "function"
    },
    {
      "inputs": [
        {
          "internalType": "address",
          "name": "owner",
          "type": "address"
        },
        {
          "internalType": "address",
          "name": "spender",
          "type": "address"
        },
        {
          "internalType": "uint256",
          "name": "value",
          "type": "uint256"
        },
        {
          "internalType": "uint256",
          "name": "deadline",
          "type": "uint256"
        },
        {
          "internalType": "uint8",
          "name": "v",
          "type": "uint8"
        },
        {
          "internalType": "bytes32",
          "name": "r",
          "type": "bytes32"
        },
        {
          "internalType": "bytes32",
          "name": "s",
          "type": "bytes32"
        }
      ],
      "name": "permit",
      "outputs": [],
      "stateMutability": "nonpayable",
      "type": "function"
    },
    {
      "inputs": [
        {
          "internalType": "address",
          "name": "asset",
          "type": "address"
        },
        {
          "internalType": "uint256",
          "name": "amount",
          "type": "uint256"
        }
      ],
      "name": "removeCollateral",
      "outputs": [],
      "stateMutability": "nonpayable",
      "type": "function"
    },
    {
      "inputs": [
        {
          "internalType": "bytes32",
          "name": "role",
          "type": "bytes32"
        },
        {
          "internalType": "address",
          "name": "callerConfirmation",
          "type": "address"
        }
      ],
      "name": "renounceRole",
      "outputs": [],
      "stateMutability": "nonpayable",
      "type": "function"
    },
    {
      "inputs": [
        {
          "internalType": "bytes32",
          "name": "role",
          "type": "bytes32"
        },
        {
          "internalType": "address",
          "name": "account",
          "type": "address"
        }
      ],
      "name": "revokeRole",
      "outputs": [],
      "stateMutability": "nonpayable",
      "type": "function"
    },
    {
      "inputs": [
        {
          "internalType": "bytes4",
          "name": "interfaceId",
          "type": "bytes4"
        }
      ],
      "name": "supportsInterface",
      "outputs": [
        {
          "internalType": "bool",
          "name": "",
          "type": "bool"
        }
      ],
      "stateMutability": "view",
      "type": "function"
    },
    {
      "inputs": [],
      "name": "symbol",
      "outputs": [
        {
          "internalType": "string",
          "name": "",
          "type": "string"
        }
      ],
      "stateMutability": "view",
      "type": "function"
    },
    {
      "inputs": [
        {
          "internalType": "address",
          "name": "",
          "type": "address"
        }
      ],
      "name": "totalDebtByAsset",
      "outputs": [
        {
          "internalType": "uint256",
          "name": "",
          "type": "uint256"
        }
      ],
      "stateMutability": "view",
      "type": "function"
    },
    {
      "inputs": [],
      "name": "totalSupply",
      "outputs": [
        {
          "internalType": "uint256",
          "name": "",
          "type": "uint256"
        }
      ],
      "stateMutability": "view",
      "type": "function"
    },
    {
      "inputs": [
        {
          "internalType": "address",
          "name": "to",
          "type": "address"
        },
        {
          "internalType": "uint256",
          "name": "value",
          "type": "uint256"
        }
      ],
      "name": "transfer",
      "outputs": [
        {
          "internalType": "bool",
          "name": "",
          "type": "bool"
        }
      ],
      "stateMutability": "nonpayable",
      "type": "function"
    },
    {
      "inputs": [
        {
          "internalType": "address",
          "name": "from",
          "type": "address"
        },
        {
          "internalType": "address",
          "name": "to",
          "type": "address"
        },
        {
          "internalType": "uint256",
          "name": "value",
          "type": "uint256"
        }
      ],
      "name": "transferFrom",
      "outputs": [
        {
          "internalType": "bool",
          "name": "",
          "type": "bool"
        }
      ],
      "stateMutability": "nonpayable",
      "type": "function"
    },
    {
      "inputs": [],
      "name": "unpause",
      "outputs": [],
      "stateMutability": "nonpayable",
      "type": "function"
    },
    {
      "inputs": [
        {
          "internalType": "address",
          "name": "",
          "type": "address"
        },
        {
          "internalType": "address",
          "name": "",
          "type": "address"
        }
      ],
      "name": "vaults",
      "outputs": [
        {
          "internalType": "uint256",
          "name": "collat",
          "type": "uint256"
        },
        {
          "internalType": "uint256",
          "name": "debt",
          "type": "uint256"
        }
      ],
      "stateMutability": "view",
      "type": "function"
    }
  ],
  "bytecode": "0x6101606040523480156200001257600080fd5b5060405162002afd38038062002afd833981016040819052620000359162000387565b6040518060400160405280601c81526020017f43727970746f20436f6c6c61746572616c20537461626c65636f696e0000000081525080604051806040016040528060018152602001603160f81b8152506040518060400160405280601c81526020017f43727970746f20436f6c6c61746572616c20537461626c65636f696e000000008152506040518060400160405280600481526020016318d554d160e21b8152508160039081620000ea919062000460565b506004620000f9828262000460565b506200010b9150839050600562000250565b610120526200011c81600662000250565b61014052815160208084019190912060e052815190820120610100524660a052620001aa60e05161010051604080517f8b73c3c69bb8fe3d512ecc4cf759cc79239f7b179b0ffacaa9a75d522b39400f60208201529081019290925260608201524660808201523060a082015260009060c00160405160208183030381529060405280519060200120905090565b60805250503060c05250620001c160008262000289565b50620001ee7fa49807205ce4d355092ef5a8a18f56e8913cf4a201fbe287825b095693c217758262000289565b506200021b7fbb4cf8e50e81e9742807782b2bc5c27c5a943f214ee0b993943eff5a774e555b8262000289565b50620002487ffc8737ab85eb45125971625a9ebdb75cc78e01d5c1fa80c4c6e5203f47bc4fab8262000289565b5050620005a2565b6000602083511015620002705762000268836200033b565b905062000283565b816200027d848262000460565b5060ff90505b92915050565b60008281526008602090815260408083206001600160a01b038516845290915281205460ff16620003325760008381526008602090815260408083206001600160a01b03861684529091529020805460ff19166001179055620002e93390565b6001600160a01b0316826001600160a01b0316847f2f8788117e7eff1d82e926ec794901d17c78024a50270940304540a733656f0d60405160405180910390a450600162000283565b50600062000283565b600080829050601f8151111562000372578260405163305a27a960e01b81526004016200036991906200052c565b60405180910390fd5b80516200037f826200057d565b179392505050565b6000602082840312156200039a57600080fd5b81516001600160a01b0381168114620003b257600080fd5b9392505050565b634e487b7160e01b600052604160045260246000fd5b600181811c90821680620003e457607f821691505b6020821081036200040557634e487b7160e01b600052602260045260246000fd5b50919050565b601f8211156200045b576000816000526020600020601f850160051c81016020861015620004365750805b601f850160051c820191505b81811015620004575782815560010162000442565b5050505b505050565b81516001600160401b038111156200047c576200047c620003b9565b62000494816200048d8454620003cf565b846200040b565b602080601f831160018114620004cc5760008415620004b35750858301515b600019600386901b1c1916600185901b17855562000457565b600085815260208120601f198616915b82811015620004fd57888601518255948401946001909101908401620004dc565b50858210156200051c5787850151600019600388901b60f8161c191681555b5050505050600190811b01905550565b60006020808352835180602085015260005b818110156200055c578581018301518582016040015282016200053e565b506000604082860101526040601f19601f8301168501019250505092915050565b80516020808301519190811015620004055760001960209190910360031b1b16919050565b60805160a05160c05160e051610100516101205161014051612500620005fd6000396000611a1a015260006119ed0152600061175c015260006117340152600061168f015260006116b9015260006116e301526125006000f3fe608060405234801561001057600080fd5b50600436106102115760003560e01c80636d75b9ee1161012557806395d89b41116100ad578063c86e70641161007c578063c86e7064146104bc578063d505accf146104e3578063d547741f146104f6578063dd62ed3e14610509578063f3a19e0b1461054257600080fd5b806395d89b41146104865780639dc29fac1461048e578063a217fddf146104a1578063a9059cbb146104a957600080fd5b80638456cb59116100f45780638456cb591461041d57806384b0196e14610425578063876467f81461044057806390a11ad21461045357806391d148541461047357600080fd5b80636d75b9ee146103a757806370a08231146103ba57806375b238fc146103e35780637ecebe001461040a57600080fd5b8063313ce567116101a85780633f4ba83a116101775780633f4ba83a1461032757806340c10f191461032f5780634d635e70146103425780634edabe6f146103895780635c975abb1461039c57600080fd5b8063313ce567146102d65780633644e515146102e5578063364bc15a146102ed57806336568abe1461031457600080fd5b806323b872dd116101e457806323b872dd14610278578063248a9ca31461028b57806326c01303146102ae5780632f2ff15d146102c357600080fd5b806301ffc9a71461021657806306fdde031461023e578063095ea7b31461025357806318160ddd14610266575b600080fd5b610229610224366004611f75565b6105e1565b60405190151581526020015b60405180910390f35b610246610618565b6040516102359190611fec565b610229610261366004612014565b6106aa565b6002545b604051908152602001610235565b610229610286366004612040565b6106c2565b61026a610299366004612081565b60009081526008602052604090206001015490565b6102c16102bc366004612040565b6106e6565b005b6102c16102d136600461209a565b610a9e565b60405160128152602001610235565b61026a610ac9565b61026a7ffc8737ab85eb45125971625a9ebdb75cc78e01d5c1fa80c4c6e5203f47bc4fab81565b6102c161032236600461209a565b610ad8565b6102c1610b10565b6102c161033d366004612014565b610b45565b6103746103503660046120ca565b600b6020908152600092835260408084209091529082529020805460019091015482565b60408051928352602083019190915201610235565b6102c16103973660046120f8565b610d2d565b60095460ff16610229565b6102c16103b5366004612014565b610e81565b61026a6103c8366004612139565b6001600160a01b031660009081526020819052604090205490565b61026a7fa49807205ce4d355092ef5a8a18f56e8913cf4a201fbe287825b095693c2177581565b61026a610418366004612139565b610f3b565b6102c1610f59565b61042d610f8b565b6040516102359796959493929190612156565b6102c161044e366004612014565b610fd1565b61026a610461366004612139565b600c6020526000908152604090205481565b61022961048136600461209a565b6110b0565b6102466110db565b6102c161049c366004612014565b6110ea565b61026a600081565b6102296104b7366004612014565b6111ff565b61026a7fbb4cf8e50e81e9742807782b2bc5c27c5a943f214ee0b993943eff5a774e555b81565b6102c16104f13660046121ef565b61120d565b6102c161050436600461209a565b611347565b61026a6105173660046120ca565b6001600160a01b03918216600090815260016020908152604080832093909416825291909152205490565b61059f610550366004612139565b600a6020526000908152604090208054600182015460029092015460ff909116919061ffff8082169162010000810482169164010000000082041690600160301b90046001600160a01b031686565b604080519615158752602087019590955261ffff9384169486019490945290821660608501521660808301526001600160a01b031660a082015260c001610235565b60006001600160e01b03198216637965db0b60e01b148061061257506301ffc9a760e01b6001600160e01b03198316145b92915050565b60606003805461062790612266565b80601f016020809104026020016040519081016040528092919081815260200182805461065390612266565b80156106a05780601f10610675576101008083540402835291602001916106a0565b820191906000526020600020905b81548152906001019060200180831161068357829003601f168201915b5050505050905090565b6000336106b881858561136c565b5060019392505050565b6000336106d0858285611379565b6106db8585856113f2565b506001949350505050565b6106ee611451565b7ffc8737ab85eb45125971625a9ebdb75cc78e01d5c1fa80c4c6e5203f47bc4fab61071881611477565b6001600160a01b038084166000908152600a6020908152604091829020825160c081018452815460ff16151580825260018301549382019390935260029091015461ffff808216948301949094526201000081048416606083015264010000000081049093166080820152600160301b90920490921660a0820152906107b1576040516373121b4360e11b815260040160405180910390fd5b6001600160a01b038086166000908152600b60209081526040808320938816835292815282822083518085019094528054808552600190910154918401919091526107fd908790611481565b90508160200151836040015161ffff1661081791906122b6565b610823826127106122b6565b106108755760405162461bcd60e51b815260206004820152601760248201527f6e6f7420756e646572636f6c6c61746572616c697a656400000000000000000060448201526064015b60405180910390fd5b600082602001518611610888578561088e565b82602001515b9050600061271085608001516127106108a791906122cd565b6108b59061ffff16846122b6565b6108bf91906122ef565b60a0860151604051633a697cad60e01b81526001600160a01b038b8116600483015292935060009290911690633a697cad906024016040805180830381865afa158015610910573d6000803e3d6000fd5b505050506040513d601f19601f820116820180604052508101906109349190612311565b50905060008161094c84670de0b6b3a76400006122b6565b61095691906122ef565b8651909150811115610966575084515b83866020018181516109789190612343565b90525085518190879061098c908390612343565b9052506001600160a01b038a166000908152600c6020526040812080548692906109b7908490612343565b90915550506001600160a01b03808c166000908152600b60209081526040808320938e16835292815291812088518155918801516001909201919091556109ff9033906115b4565b896001600160a01b03168b6001600160a01b03167f1f0c6615429d1cdae0dfa233abf91d3b31cdbdd82c8081389832a61e1072f1ea8684604051610a4d929190918252602082015260400190565b60405180910390a3855160208088015160408051938452918301526001600160a01b03808d1692908e16916000805160206124ab833981519152910160405180910390a35050505050505050505050565b600082815260086020526040902060010154610ab981611477565b610ac383836115ee565b50505050565b6000610ad3611682565b905090565b6001600160a01b0381163314610b015760405163334bd91960e11b815260040160405180910390fd5b610b0b82826117ad565b505050565b7fa49807205ce4d355092ef5a8a18f56e8913cf4a201fbe287825b095693c21775610b3a81611477565b610b4261181a565b50565b610b4d611451565b6001600160a01b038083166000908152600a6020908152604091829020825160c081018452815460ff16151580825260018301549382019390935260029091015461ffff808216948301949094526201000081048416606083015264010000000081049093166080820152600160301b90920490921660a082015290610be6576040516373121b4360e11b815260040160405180910390fd5b336000908152600b602090815260408083206001600160a01b0387168452825291829020825180840190935280548352600101549082018181528491610c2d908390612356565b905250610c3b33858361186c565b6020808301516001600160a01b0386166000908152600c909252604090912054610c66908590612356565b1115610c8557604051630e6b5a6760e31b815260040160405180910390fd5b6001600160a01b0384166000908152600c602052604081208054859290610cad908490612356565b9091555050336000818152600b602090815260408083206001600160a01b038916845282529091208351815590830151600190910155610ced9084611973565b805160208083015160408051938452918301526001600160a01b0386169133916000805160206124ab83398151915291015b60405180910390a350505050565b7fbb4cf8e50e81e9742807782b2bc5c27c5a943f214ee0b993943eff5a774e555b610d5781611477565b612710610d6a6060840160408501612379565b61ffff161015610dac5760405162461bcd60e51b815260206004820152600d60248201526c6c6971526174696f3c3130302560981b604482015260640161086c565b6001600160a01b0383166000908152600a602052604090208290610dd082826123b0565b50506001600160a01b0383167f280ccea2e459f6f10c6c3b0c9713af63a0110ae8f8789301b39bb144aeec99756020840135610e126060860160408701612379565b610e226080870160608801612379565b610e3260a0880160808901612379565b610e4260c0890160a08a01612139565b6040805195865261ffff948516602087015292841685840152921660608401526001600160a01b039091166080830152519081900360a00190a2505050565b610e89611451565b336000908152600b602090815260408083206001600160a01b0386168452825291829020825180840190935280548084526001909101549183019190915282908290610ed6908390612356565b905250336000818152600b602090815260408083206001600160a01b0388168085529083529281902085518082558684015160019092018290558251908152928301529192916000805160206124ab83398151915291015b60405180910390a3505050565b6001600160a01b038116600090815260076020526040812054610612565b7fa49807205ce4d355092ef5a8a18f56e8913cf4a201fbe287825b095693c21775610f8381611477565b610b426119a9565b600060608060008060006060610f9f6119e6565b610fa7611a13565b60408051600080825260208201909252600f60f81b9b939a50919850469750309650945092509050565b610fd9611451565b336000908152600b602090815260408083206001600160a01b0386168452825291829020825180840190935280548084526001909101549183019190915282111561103757604051631e9acf1760e31b815260040160405180910390fd5b81816000018181516110499190612343565b90525061105733848361186c565b336000818152600b602090815260408083206001600160a01b0388168085529083529281902085518082558684015160019092018290558251908152928301529192916000805160206124ab8339815191529101610f2e565b60009182526008602090815260408084206001600160a01b0393909316845291905290205460ff1690565b60606004805461062790612266565b6110f2611451565b336000908152600b602090815260408083206001600160a01b03861684528252918290208251808401909352805483526001015490820181905282111561114c57604051631e9acf1760e31b815260040160405180910390fd5b818160200181815161115e9190612343565b9052506001600160a01b0383166000908152600c602052604081208054849290611189908490612343565b9091555050336000818152600b602090815260408083206001600160a01b0388168452825290912083518155908301516001909101556111c990836115b4565b805160208083015160408051938452918301526001600160a01b0385169133916000805160206124ab8339815191529101610f2e565b6000336106b88185856113f2565b834211156112315760405163313c898160e11b81526004810185905260240161086c565b60007f6e71edae12b1b97f4d1f60370fef10105fa2faae0126114a169c64845d6126c988888861127e8c6001600160a01b0316600090815260076020526040902080546001810190915590565b6040805160208101969096526001600160a01b0394851690860152929091166060840152608083015260a082015260c0810186905260e00160405160208183030381529060405280519060200120905060006112d982611a40565b905060006112e982878787611a6d565b9050896001600160a01b0316816001600160a01b031614611330576040516325c0072360e11b81526001600160a01b0380831660048301528b16602482015260440161086c565b61133b8a8a8a61136c565b50505050505050505050565b60008281526008602052604090206001015461136281611477565b610ac383836117ad565b610b0b8383836001611a9b565b6001600160a01b03838116600090815260016020908152604080832093861683529290522054600019811015610ac357818110156113e357604051637dc7a0d960e11b81526001600160a01b0384166004820152602481018290526044810183905260640161086c565b610ac384848484036000611a9b565b6001600160a01b03831661141c57604051634b637e8f60e11b81526000600482015260240161086c565b6001600160a01b0382166114465760405163ec442f0560e01b81526000600482015260240161086c565b610b0b838383611b62565b60095460ff16156114755760405163d93c066560e01b815260040160405180910390fd5b565b610b428133611c7f565b6001600160a01b038083166000908152600a60209081526040808320815160c081018352815460ff16151580825260018301549482019490945260029091015461ffff808216938301939093526201000081048316606083015264010000000081049092166080820152600160301b90910490931660a084015290919061151b576040516373121b4360e11b815260040160405180910390fd5b60a0810151604051633a697cad60e01b81526001600160a01b0386811660048301526000921690633a697cad906024016040805180830381865afa158015611567573d6000803e3d6000fd5b505050506040513d601f19601f8201168201806040525081019061158b9190612311565b509050670de0b6b3a76400006115a182866122b6565b6115ab91906122ef565b95945050505050565b6001600160a01b0382166115de57604051634b637e8f60e11b81526000600482015260240161086c565b6115ea82600083611b62565b5050565b60006115fa83836110b0565b61167a5760008381526008602090815260408083206001600160a01b03861684529091529020805460ff191660011790556116323390565b6001600160a01b0316826001600160a01b0316847f2f8788117e7eff1d82e926ec794901d17c78024a50270940304540a733656f0d60405160405180910390a4506001610612565b506000610612565b6000306001600160a01b037f0000000000000000000000000000000000000000000000000000000000000000161480156116db57507f000000000000000000000000000000000000000000000000000000000000000046145b1561170557507f000000000000000000000000000000000000000000000000000000000000000090565b610ad3604080517f8b73c3c69bb8fe3d512ecc4cf759cc79239f7b179b0ffacaa9a75d522b39400f60208201527f0000000000000000000000000000000000000000000000000000000000000000918101919091527f000000000000000000000000000000000000000000000000000000000000000060608201524660808201523060a082015260009060c00160405160208183030381529060405280519060200120905090565b60006117b983836110b0565b1561167a5760008381526008602090815260408083206001600160a01b0386168085529252808320805460ff1916905551339286917ff6391f5c32d9c69d2a47ea670b442974b53935d1edc7fd64eb21e047a839171b9190a4506001610612565b611822611cb8565b6009805460ff191690557f5db9ee0a495bf2e6ff9c91a7834c1ba4fdd244a5e8aa4e537bd38aeae4b073aa335b6040516001600160a01b03909116815260200160405180910390a1565b6001600160a01b038083166000908152600a6020908152604091829020825160c081018452815460ff16151580825260018301549382019390935260029091015461ffff808216948301949094526201000081048416606083015264010000000081049093166080820152600160301b90920490921660a082015290611905576040516373121b4360e11b815260040160405180910390fd5b81602001516000036119175750505050565b6000611927848460000151611481565b90508260200151826040015161ffff1661194191906122b6565b61194d826127106122b6565b101561196c57604051630e6b5a6760e31b815260040160405180910390fd5b5050505050565b6001600160a01b03821661199d5760405163ec442f0560e01b81526000600482015260240161086c565b6115ea60008383611b62565b6119b1611451565b6009805460ff191660011790557f62e78cea01bee320cd4e420270b5ea74000d11b0c9f74754ebdbfc544b05a25861184f3390565b6060610ad37f00000000000000000000000000000000000000000000000000000000000000006005611cdb565b6060610ad37f00000000000000000000000000000000000000000000000000000000000000006006611cdb565b6000610612611a4d611682565b8360405161190160f01b8152600281019290925260228201526042902090565b600080600080611a7f88888888611d86565b925092509250611a8f8282611e55565b50909695505050505050565b6001600160a01b038416611ac55760405163e602df0560e01b81526000600482015260240161086c565b6001600160a01b038316611aef57604051634a1406b160e11b81526000600482015260240161086c565b6001600160a01b0380851660009081526001602090815260408083209387168352929052208290558015610ac357826001600160a01b0316846001600160a01b03167f8c5be1e5ebec7d5bd14f71427d1e84f3dd0314c0f7b2291e5b200ac8c7c3b92584604051610d1f91815260200190565b6001600160a01b038316611b8d578060026000828254611b829190612356565b90915550611bff9050565b6001600160a01b03831660009081526020819052604090205481811015611be05760405163391434e360e21b81526001600160a01b0385166004820152602481018290526044810183905260640161086c565b6001600160a01b03841660009081526020819052604090209082900390555b6001600160a01b038216611c1b57600280548290039055611c3a565b6001600160a01b03821660009081526020819052604090208054820190555b816001600160a01b0316836001600160a01b03167fddf252ad1be2c89b69c2b068fc378daa952ba7f163c4a11628f55a4df523b3ef83604051610f2e91815260200190565b611c8982826110b0565b6115ea5760405163e2517d3f60e01b81526001600160a01b03821660048201526024810183905260440161086c565b60095460ff1661147557604051638dfc202b60e01b815260040160405180910390fd5b606060ff8314611cf557611cee83611f0e565b9050610612565b818054611d0190612266565b80601f0160208091040260200160405190810160405280929190818152602001828054611d2d90612266565b8015611d7a5780601f10611d4f57610100808354040283529160200191611d7a565b820191906000526020600020905b815481529060010190602001808311611d5d57829003601f168201915b50505050509050610612565b600080807f7fffffffffffffffffffffffffffffff5d576e7357a4501ddfe92f46681b20a0841115611dc15750600091506003905082611e4b565b604080516000808252602082018084528a905260ff891692820192909252606081018790526080810186905260019060a0016020604051602081039080840390855afa158015611e15573d6000803e3d6000fd5b5050604051601f1901519150506001600160a01b038116611e4157506000925060019150829050611e4b565b9250600091508190505b9450945094915050565b6000826003811115611e6957611e69612494565b03611e72575050565b6001826003811115611e8657611e86612494565b03611ea45760405163f645eedf60e01b815260040160405180910390fd5b6002826003811115611eb857611eb8612494565b03611ed95760405163fce698f760e01b81526004810182905260240161086c565b6003826003811115611eed57611eed612494565b036115ea576040516335e2f38360e21b81526004810182905260240161086c565b60606000611f1b83611f4d565b604080516020808252818301909252919250600091906020820181803683375050509182525060208101929092525090565b600060ff8216601f81111561061257604051632cd44ac360e21b815260040160405180910390fd5b600060208284031215611f8757600080fd5b81356001600160e01b031981168114611f9f57600080fd5b9392505050565b6000815180845260005b81811015611fcc57602081850181015186830182015201611fb0565b506000602082860101526020601f19601f83011685010191505092915050565b602081526000611f9f6020830184611fa6565b6001600160a01b0381168114610b4257600080fd5b6000806040838503121561202757600080fd5b823561203281611fff565b946020939093013593505050565b60008060006060848603121561205557600080fd5b833561206081611fff565b9250602084013561207081611fff565b929592945050506040919091013590565b60006020828403121561209357600080fd5b5035919050565b600080604083850312156120ad57600080fd5b8235915060208301356120bf81611fff565b809150509250929050565b600080604083850312156120dd57600080fd5b82356120e881611fff565b915060208301356120bf81611fff565b60008082840360e081121561210c57600080fd5b833561211781611fff565b925060c0601f198201121561212b57600080fd5b506020830190509250929050565b60006020828403121561214b57600080fd5b8135611f9f81611fff565b60ff60f81b881681526000602060e0602084015261217760e084018a611fa6565b8381036040850152612189818a611fa6565b606085018990526001600160a01b038816608086015260a0850187905284810360c08601528551808252602080880193509091019060005b818110156121dd578351835292840192918401916001016121c1565b50909c9b505050505050505050505050565b600080600080600080600060e0888a03121561220a57600080fd5b873561221581611fff565b9650602088013561222581611fff565b95506040880135945060608801359350608088013560ff8116811461224957600080fd5b9699959850939692959460a0840135945060c09093013592915050565b600181811c9082168061227a57607f821691505b60208210810361229a57634e487b7160e01b600052602260045260246000fd5b50919050565b634e487b7160e01b600052601160045260246000fd5b8082028115828204841417610612576106126122a0565b61ffff8181168382160190808211156122e8576122e86122a0565b5092915050565b60008261230c57634e487b7160e01b600052601260045260246000fd5b500490565b6000806040838503121561232457600080fd5b82519150602083015167ffffffffffffffff811681146120bf57600080fd5b81810381811115610612576106126122a0565b80820180821115610612576106126122a0565b61ffff81168114610b4257600080fd5b60006020828403121561238b57600080fd5b8135611f9f81612369565b6000813561061281612369565b6000813561061281611fff565b81358015158082146123c157600080fd5b60ff19835416915060ff8116821783555050602082013560018201556002810160408301356123ef81612369565b61ffff811661ffff198354161782555061242861240e60608501612396565b825463ffff0000191660109190911b63ffff000016178255565b61245561243760808501612396565b825465ffff00000000191660209190911b65ffff0000000016178255565b610b0b61246460a085016123a3565b8280546601000000000000600160d01b03191660309290921b6601000000000000600160d01b0316919091179055565b634e487b7160e01b600052602160045260246000fdfe14201b91060755cd0a1539d43fd1451616255fe7197bcc21f3f0e258441288b0a2646970667358221220bcc8f23f7c4acc90c87ce250825cb58d75265e15b30fe9e26e6fd9093c541bc964736f6c63430008180033",
  "linkReferences": {},
  "deployedLinkReferences": {}
}