{"abi":[{"type":"constructor","inputs":[{"name":"admin","type":"address","internalType":"address"},{"name":"governor","type":"address","internalType":"address"}],"stateMutability":"nonpayable"},{"type":"function","name":"COURT_ROLE","inputs":[],"outputs":[{"name":"","type":"bytes32","internalType":"bytes32"}],"stateMutability":"view"},{"type":"function","name":"DEFAULT_ADMIN_ROLE","inputs":[],"outputs":[{"name":"","type":"bytes32","internalType":"bytes32"}],"stateMutability":"view"},{"type":"function","name":"GOVERNOR_ROLE","inputs":[],"outputs":[{"name":"","type":"bytes32","internalType":"bytes32"}],"stateMutability":"view"},{"type":"function","name":"fileOrder","inputs":[{"name":"o","type":"tuple","internalType":"struct CourtOrderRegistry.Order","components":[{"name":"id","type":"bytes32","internalType":"bytes32"},{"name":"subject","type":"address","internalType":"address"},{"name":"token","type":"address","internalType":"address"},{"name":"action","type":"uint8","internalType":"enum CourtOrderRegistry.Action"},{"name":"to","type":"address","internalType":"address"},{"name":"amount","type":"uint256","internalType":"uint256"},{"name":"createdAt","type":"uint64","internalType":"uint64"},{"name":"validUntil","type":"uint64","internalType":"uint64"},{"name":"executed","type":"bool","internalType":"bool"},{"name":"active","type":"bool","internalType":"bool"},{"name":"memo","type":"string","internalType":"string"}]}],"outputs":[],"stateMutability":"nonpayable"},{"type":"function","name":"getRoleAdmin","inputs":[{"name":"role","type":"bytes32","internalType":"bytes32"}],"outputs":[{"name":"","type":"bytes32","internalType":"bytes32"}],"stateMutability":"view"},{"type":"function","name":"globalFreeze","inputs":[{"name":"","type":"address","internalType":"address"}],"outputs":[{"name":"","type":"bool","internalType":"bool"}],"stateMutability":"view"},{"type":"function","name":"grantCourt","inputs":[{"name":"court","type":"address","internalType":"address"}],"outputs":[],"stateMutability":"nonpayable"},{"type":"function","name":"grantRole","inputs":[{"name":"role","type":"bytes32","internalType":"bytes32"},{"name":"account","type":"address","internalType":"address"}],"outputs":[],"stateMutability":"nonpayable"},{"type":"function","name":"hasRole","inputs":[{"name":"role","type":"bytes32","internalType":"bytes32"},{"name":"account","type":"address","internalType":"address"}],"outputs":[{"name":"","type":"bool","internalType":"bool"}],"stateMutability":"view"},{"type":"function","name":"isActive","inputs":[{"name":"id","type":"bytes32","internalType":"bytes32"}],"outputs":[{"name":"","type":"bool","internalType":"bool"}],"stateMutability":"view"},{"type":"function","name":"markExecuted","inputs":[{"name":"id","type":"bytes32","internalType":"bytes32"}],"outputs":[],"stateMutability":"nonpayable"},{"type":"function","name":"orders","inputs":[{"name":"","type":"bytes32","internalType":"bytes32"}],"outputs":[{"name":"id","type":"bytes32","internalType":"bytes32"},{"name":"subject","type":"address","internalType":"address"},{"name":"token","type":"address","internalType":"address"},{"name":"action","type":"uint8","internalType":"enum CourtOrderRegistry.Action"},{"name":"to","type":"address","internalType":"address"},{"name":"amount","type":"uint256","internalType":"uint256"},{"name":"createdAt","type":"uint64","internalType":"uint64"},{"name":"validUntil","type":"uint64","internalType":"uint64"},{"name":"executed","type":"bool","internalType":"bool"},{"name":"active","type":"bool","internalType":"bool"},{"name":"memo","type":"string","internalType":"string"}],"stateMutability":"view"},{"type":"function","name":"renounceRole","inputs":[{"name":"role","type":"bytes32","internalType":"bytes32"},{"name":"callerConfirmation","type":"address","internalType":"address"}],"outputs":[],"stateMutability":"nonpayable"},{"type":"function","name":"revokeRole","inputs":[{"name":"role","type":"bytes32","internalType":"bytes32"},{"name":"account","type":"address","internalType":"address"}],"outputs":[],"stateMutability":"nonpayable"},{"type":"function","name":"setGlobalFreeze","inputs":[{"name":"token","type":"address","internalType":"address"},{"name":"frozen","type":"bool","internalType":"bool"}],"outputs":[],"stateMutability":"nonpayable"},{"type":"function","name":"subjectFrozen","inputs":[{"name":"token","type":"address","internalType":"address"},{"name":"subject","type":"address","internalType":"address"}],"outputs":[{"name":"","type":"bool","internalType":"bool"}],"stateMutability":"view"},{"type":"function","name":"supportsInterface","inputs":[{"name":"interfaceId","type":"bytes4","internalType":"bytes4"}],"outputs":[{"name":"","type":"bool","internalType":"bool"}],"stateMutability":"view"},{"type":"event","name":"GlobalFreeze","inputs":[{"name":"token","type":"address","indexed":true,"internalType":"address"},{"name":"frozen","type":"bool","indexed":false,"internalType":"bool"}],"anonymous":false},{"type":"event","name":"OrderExecuted","inputs":[{"name":"id","type":"bytes32","indexed":true,"internalType":"bytes32"},{"name":"token","type":"address","indexed":true,"internalType":"address"},{"name":"subject","type":"address","indexed":false,"internalType":"address"}],"anonymous":false},{"type":"event","name":"OrderFiled","inputs":[{"name":"id","type":"bytes32","indexed":true,"internalType":"bytes32"},{"name":"token","type":"address","indexed":true,"internalType":"address"},{"name":"subject","type":"address","indexed":true,"internalType":"address"},{"name":"action","type":"uint8","indexed":false,"internalType":"enum CourtOrderRegistry.Action"}],"anonymous":false},{"type":"event","name":"RoleAdminChanged","inputs":[{"name":"role","type":"bytes32","indexed":true,"internalType":"bytes32"},{"name":"previousAdminRole","type":"bytes32","indexed":true,"internalType":"bytes32"},{"name":"newAdminRole","type":"bytes32","indexed":true,"internalType":"bytes32"}],"anonymous":false},{"type":"event","name":"RoleGranted","inputs":[{"name":"role","type":"bytes32","indexed":true,"internalType":"bytes32"},{"name":"account","type":"address","indexed":true,"internalType":"address"},{"name":"sender","type":"address","indexed":true,"internalType":"address"}],"anonymous":false},{"type":"event","name":"RoleRevoked","inputs":[{"name":"role","type":"bytes32","indexed":true,"internalType":"bytes32"},{"name":"account","type":"address","indexed":true,"internalType":"address"},{"name":"sender","type":"address","indexed":true,"internalType":"address"}],"anonymous":false},{"type":"error","name":"AccessControlBadConfirmation","inputs":[]},{"type":"error","name":"AccessControlUnauthorizedAccount","inputs":[{"name":"account","type":"address","internalType":"address"},{"name":"neededRole","type":"bytes32","internalType":"bytes32"}]}],"bytecode":{"object":"0x6080346200008257601f6200199838819003918201601f19168301916001600160401b03831184841017620000875780849260409485528339810103126200008257806200006a6200006360206200005b62000071956200009d565b93016200009d565b91620000b2565b5062000132565b506040516117a39081620001d58239f35b600080fd5b634e487b7160e01b600052604160045260246000fd5b51906001600160a01b03821682036200008257565b6001600160a01b031660008181527fad3228b676f7d3cd4284a5443f17f1962b36e491b30a40b2405849e597ba5fb5602052604081205490919060ff166200012e57818052816020526040822081835260205260408220600160ff198254161790553391600080516020620019788339815191528180a4600190565b5090565b6001600160a01b031660008181527f6f3b488caa0dc03e5f3d9fd6a25fa8755afcfd62ccffb6e436c696bfa6b866de60205260408120549091907f7935bd0ae54bc31f548c14dba4d37c5c64b3f8ca900cb468fb8abd54d5894f559060ff16620001cf57808352826020526040832082845260205260408320600160ff1982541617905560008051602062001978833981519152339380a4600190565b50509056fe608080604052600436101561001357600080fd5b600090813560e01c90816301ffc9a714610f5257508063248a9ca314610f085780632f2ff15d14610ead57806336568abe14610e225780634f8a0bfb14610dba57806359edcc6c14610d615780635c36901c14610d24578063665d4c6114610beb5780638582971d14610b9657806391d1485414610b245780639c3f1e90146109ca578063a217fddf14610990578063ccc5749014610937578063d547741f146108dc578063d60dc34d14610813578063e0e143361461019a5763f43671a0146100dc57600080fd5b346101975760207ffffffffffffffffffffffffffffffffffffffffffffffffffffffffffffffffc36011261019757610113611038565b7f7935bd0ae54bc31f548c14dba4d37c5c64b3f8ca900cb468fb8abd54d5894f55808352826020526040832033845260205260ff60408420541615610160575061015c9061154a565b5080f35b604490604051907fe2517d3f0000000000000000000000000000000000000000000000000000000082523360048301526024820152fd5b80fd5b5034610197577ffffffffffffffffffffffffffffffffffffffffffffffffffffffffffffffffc60208136011261080f5767ffffffffffffffff6004351161080f576101609060043536030112610197576101f36114c8565b60043560040135156107b15760043560040135815260016020526040812054610753576024600435019073ffffffffffffffffffffffffffffffffffffffff61023b83611485565b16156106f55773ffffffffffffffffffffffffffffffffffffffff610264604460043501611485565b1615610697576004803501358082526001602081905260408320918255810173ffffffffffffffffffffffffffffffffffffffff6102a185611485565b167fffffffffffffffffffffffff000000000000000000000000000000000000000082541617905573ffffffffffffffffffffffffffffffffffffffff6102ec604460043501611485565b166002820154906004606481350135101561068f5790600692917fffffffffffffffffffffff00000000000000000000000000000000000000000074ff00000000000000000000000000000000000000006064600435013560a01b169216171760028201556003810173ffffffffffffffffffffffffffffffffffffffff610378608460043501611485565b167fffffffffffffffffffffffff000000000000000000000000000000000000000082541617905560a4600435013560048201556005810167ffffffffffffffff6103c760c4600435016114a6565b168154906fffffffffffffffff00000000000000006103ea60e4600435016114a6565b60401b1670ff0000000000000000000000000000000061040f610104600435016114bb565b151560801b16917fffffffffffffffffffffffffffff00000000000000000000000000000000000071ff0000000000000000000000000000000000610459610124600435016114bb565b151560881b169416171717179055019161014460043501357fffffffffffffffffffffffffffffffffffffffffffffffffffffffffffffffdd600435360301811215610693576004350192600484013567ffffffffffffffff811161068f57803603602486011361068f576104ce825461105b565b601f811161064a575b5083601f82116001146105a45784958293949592610596575b50507fffffffffffffffffffffffffffffffffffffffffffffffffffffffffffffffff8260011b9260031b1c19161790555b610539610533604460043501611485565b91611485565b73ffffffffffffffffffffffffffffffffffffffff80604051926105638460646004350135611212565b169216907fed070880e82cc7d4d19f06c5767489d93faca0602ed38c81f0877a212e9cfab660206004356004013592a480f35b6024925001013538806104f0565b7fffffffffffffffffffffffffffffffffffffffffffffffffffffffffffffffe08216958386526020862091865b88811061062f575083600195969798106105f4575b505050811b019055610522565b01602401357fffffffffffffffffffffffffffffffffffffffffffffffffffffffffffffffff600384901b60f8161c191690553880806105e7565b909260206001819260248787010135815501940191016105d2565b82855260208520601f830160051c81019160208410610685575b601f0160051c01905b81811061067a57506104d7565b85815560010161066d565b9091508190610664565b8380fd5b8280fd5b60646040517f08c379a000000000000000000000000000000000000000000000000000000000815260206004820152600760248201527f746f6b656e3d30000000000000000000000000000000000000000000000000006044820152fd5b60646040517f08c379a000000000000000000000000000000000000000000000000000000000815260206004820152600960248201527f7375626a6563743d3000000000000000000000000000000000000000000000006044820152fd5b60646040517f08c379a000000000000000000000000000000000000000000000000000000000815260206004820152600660248201527f65786973747300000000000000000000000000000000000000000000000000006044820152fd5b60646040517f08c379a000000000000000000000000000000000000000000000000000000000815260206004820152600460248201527f69643d30000000000000000000000000000000000000000000000000000000006044820152fd5b5080fd5b50346101975760407ffffffffffffffffffffffffffffffffffffffffffffffffffffffffffffffffc3601126101975761084b611038565b6024359081151580920361069357602073ffffffffffffffffffffffffffffffffffffffff7fb48affb5d5e1a933aaf51a5cd86806eff6d02e18ca88868f0f3047106b62e09c9261089a6114c8565b169283855260028252604085207fffffffffffffffffffffffffffffffffffffffffffffffffffffffffffffff0081541660ff8316179055604051908152a280f35b50346101975760407ffffffffffffffffffffffffffffffffffffffffffffffffffffffffffffffffc3601126101975761015c60043561091a611010565b90808452836020526109326001604086200154611524565b6116cc565b503461019757807ffffffffffffffffffffffffffffffffffffffffffffffffffffffffffffffffc3601126101975760206040517f7935bd0ae54bc31f548c14dba4d37c5c64b3f8ca900cb468fb8abd54d5894f558152f35b503461019757807ffffffffffffffffffffffffffffffffffffffffffffffffffffffffffffffffc36011261019757602090604051908152f35b5034610197576020807ffffffffffffffffffffffffffffffffffffffffffffffffffffffffffffffffc36011261080f57906004358152600160205260408120805473ffffffffffffffffffffffffffffffffffffffff93846001840154169260ff60028201549187600382015416906004810154600582015492610a85610a5d600667ffffffffffffffff95016110ae565b966040519c8d9b6101609b8d5260208d0152811660408c01528660608c019160a01c16611212565b608089015260a088015280821660c08801528160401c1660e0870152818160801c16151561010087015260881c1615156101208501528261014085015280518093850152845b838110610b0c57505050601f7fffffffffffffffffffffffffffffffffffffffffffffffffffffffffffffffe0916101809485828601015201168101030190f35b81810183015187820161018001528694508201610acb565b50346101975760407ffffffffffffffffffffffffffffffffffffffffffffffffffffffffffffffffc3601126101975760ff6040602092610b63611010565b600435825281855273ffffffffffffffffffffffffffffffffffffffff8383209116825284522054166040519015158152f35b50346101975760407ffffffffffffffffffffffffffffffffffffffffffffffffffffffffffffffffc360112610197576020610be1610bd3611038565b610bdb611010565b50611450565b6040519015158152f35b50346101975760207ffffffffffffffffffffffffffffffffffffffffffffffffffffffffffffffffc36011261019757600435610c266114c8565b80825260016020526040822090815415610cc657600582017001000000000000000000000000000000007fffffffffffffffffffffffffffffff00ffffffffffffffffffffffffffffffff8254161790557f7598ec028e9729b194fe1866884bf0baf7becac7d79ae0284e1d9776847f44cb602073ffffffffffffffffffffffffffffffffffffffff60018160028701541695015416604051908152a380f35b60646040517f08c379a000000000000000000000000000000000000000000000000000000000815260206004820152600860248201527f6e6f74666f756e640000000000000000000000000000000000000000000000006044820152fd5b50346101975760207ffffffffffffffffffffffffffffffffffffffffffffffffffffffffffffffffc360112610197576020610be160043561124e565b503461019757807ffffffffffffffffffffffffffffffffffffffffffffffffffffffffffffffffc3601126101975760206040517f11b7e281efca5c169c354dfab3e7aa9c241e32abc661390778af20e820c43c928152f35b50346101975760207ffffffffffffffffffffffffffffffffffffffffffffffffffffffffffffffffc3601126101975760ff604060209273ffffffffffffffffffffffffffffffffffffffff610e0e611038565b168152600284522054166040519015158152f35b50346101975760407ffffffffffffffffffffffffffffffffffffffffffffffffffffffffffffffffc36011261019757610e5a611010565b3373ffffffffffffffffffffffffffffffffffffffff821603610e835761015c906004356116cc565b60046040517f6697b232000000000000000000000000000000000000000000000000000000008152fd5b50346101975760407ffffffffffffffffffffffffffffffffffffffffffffffffffffffffffffffffc3601126101975761015c600435610eeb611010565b9080845283602052610f036001604086200154611524565b611627565b50346101975760207ffffffffffffffffffffffffffffffffffffffffffffffffffffffffffffffffc36011261019757600160406020926004358152808452200154604051908152f35b90503461080f5760207ffffffffffffffffffffffffffffffffffffffffffffffffffffffffffffffffc36011261080f576004357fffffffff00000000000000000000000000000000000000000000000000000000811680910361069357602092507f7965db0b000000000000000000000000000000000000000000000000000000008114908115610fe6575b5015158152f35b7f01ffc9a70000000000000000000000000000000000000000000000000000000091501438610fdf565b6024359073ffffffffffffffffffffffffffffffffffffffff8216820361103357565b600080fd5b6004359073ffffffffffffffffffffffffffffffffffffffff8216820361103357565b90600182811c921680156110a4575b602083101461107557565b7f4e487b7100000000000000000000000000000000000000000000000000000000600052602260045260246000fd5b91607f169161106a565b90604051809260009080546110c28161105b565b908185526020926001916001811690816000146111b55750600114611155575b5050505003601f017fffffffffffffffffffffffffffffffffffffffffffffffffffffffffffffffe016820167ffffffffffffffff81118382101761112657604052565b7f4e487b7100000000000000000000000000000000000000000000000000000000600052604160045260246000fd5b600090815283812093959450925b82841061119f57505050907fffffffffffffffffffffffffffffffffffffffffffffffffffffffffffffffe092601f92820101918193386110e2565b8054888501870152879450928501928101611163565b7fffffffffffffffffffffffffffffffffffffffffffffffffffffffffffffff001685880152505050151560051b830101905081601f7fffffffffffffffffffffffffffffffffffffffffffffffffffffffffffffffe0386110e2565b90600482101561121f5752565b7f4e487b7100000000000000000000000000000000000000000000000000000000600052602160045260246000fd5b60009081526001602052604081209060405190610160820167ffffffffffffffff9083811082821117611423576040528354835273ffffffffffffffffffffffffffffffffffffffff9182600186015416602085015260ff6002860154848116604087015260a01c16916060850193600493848110156113f757855260038701541660808601528286015460a086015260058601549481861660c082015260e0810190828760401c168252611325600661010083019960ff8a60801c1615158b5260ff61012085019a60881c1615158a52016110ae565b61014082015251156113ed57511680151590816113e3575b506113db578251828110156113af571592831561136a575b5050506113625750511590565b905051151590565b5192509080831015611383575050600114388080611355565b9060216024927f4e487b7100000000000000000000000000000000000000000000000000000000835252fd5b5060216024927f4e487b7100000000000000000000000000000000000000000000000000000000835252fd5b935050505090565b905042113861133d565b5050935050505090565b6024846021877f4e487b7100000000000000000000000000000000000000000000000000000000835252fd5b6024837f4e487b710000000000000000000000000000000000000000000000000000000081526041600452fd5b73ffffffffffffffffffffffffffffffffffffffff16600052600260205260ff6040600020541661148057600090565b600190565b3573ffffffffffffffffffffffffffffffffffffffff811681036110335790565b3567ffffffffffffffff811681036110335790565b3580151581036110335790565b3360009081527f3ba8f9103750cd52624f6004bb1a45bca8e634cb7224c67747a22ae7979c4de460205260409020547f11b7e281efca5c169c354dfab3e7aa9c241e32abc661390778af20e820c43c929060ff16156101605750565b80600052600060205260406000203360005260205260ff60406000205416156101605750565b73ffffffffffffffffffffffffffffffffffffffff1660008181527f3ba8f9103750cd52624f6004bb1a45bca8e634cb7224c67747a22ae7979c4de460205260408120549091907f11b7e281efca5c169c354dfab3e7aa9c241e32abc661390778af20e820c43c929060ff166116225780835282602052604083208284526020526040832060017fffffffffffffffffffffffffffffffffffffffffffffffffffffffffffffff008254161790557f2f8788117e7eff1d82e926ec794901d17c78024a50270940304540a733656f0d339380a4600190565b505090565b906000918083528260205273ffffffffffffffffffffffffffffffffffffffff6040842092169182845260205260ff604084205416156000146116225780835282602052604083208284526020526040832060017fffffffffffffffffffffffffffffffffffffffffffffffffffffffffffffff008254161790557f2f8788117e7eff1d82e926ec794901d17c78024a50270940304540a733656f0d339380a4600190565b906000918083528260205273ffffffffffffffffffffffffffffffffffffffff6040842092169182845260205260ff604084205416600014611622578083528260205260408320828452602052604083207fffffffffffffffffffffffffffffffffffffffffffffffffffffffffffffff0081541690557ff6391f5c32d9c69d2a47ea670b442974b53935d1edc7fd64eb21e047a839171b339380a460019056fea2646970667358221220f9c097569a0b5a0fc5d2278b895b6712427a1b8cc5991e09b7fa1c6932a6e02264736f6c634300081800332f8788117e7eff1d82e926ec794901d17c78024a50270940304540a733656f0d","linkReferences":{}},"methodIdentifiers":{"COURT_ROLE()":"59edcc6c","DEFAULT_ADMIN_ROLE()":"a217fddf","GOVERNOR_ROLE()":"ccc57490","fileOrder((bytes32,address,address,uint8,address,uint256,uint64,uint64,bool,bool,string))":"e0e14336","getRoleAdmin(bytes32)":"248a9ca3","globalFreeze(address)":"4f8a0bfb","grantCourt(address)":"f43671a0","grantRole(bytes32,address)":"2f2ff15d","hasRole(bytes32,address)":"91d14854","isActive(bytes32)":"5c36901c","markExecuted(bytes32)":"665d4c61","orders(bytes32)":"9c3f1e90","renounceRole(bytes32,address)":"36568abe","revokeRole(bytes32,address)":"d547741f","setGlobalFreeze(address,bool)":"d60dc34d","subjectFrozen(address,address)":"8582971d","supportsInterface(bytes4)":"01ffc9a7"},"id":20}