{"abi":[{"type":"constructor","inputs":[{"name":"_admin","type":"address","internalType":"address"},{"name":"_registry","type":"address","internalType":"address"}],"stateMutability":"nonpayable"},{"type":"function","name":"admin","inputs":[],"outputs":[{"name":"","type":"address","internalType":"address"}],"stateMutability":"view"},{"type":"function","name":"defaultRailKey","inputs":[{"name":"","type":"address","internalType":"address"}],"outputs":[{"name":"","type":"bytes32","internalType":"bytes32"}],"stateMutability":"view"},{"type":"function","name":"registry","inputs":[],"outputs":[{"name":"","type":"address","internalType":"contract RailRegistry"}],"stateMutability":"view"},{"type":"function","name":"routeAndPrepare","inputs":[{"name":"t","type":"tuple","internalType":"struct IRail.Transfer","components":[{"name":"asset","type":"address","internalType":"address"},{"name":"from","type":"address","internalType":"address"},{"name":"to","type":"address","internalType":"address"},{"name":"amount","type":"uint256","internalType":"uint256"},{"name":"metadata","type":"bytes","internalType":"bytes"}]}],"outputs":[{"name":"tid","type":"bytes32","internalType":"bytes32"}],"stateMutability":"payable"},{"type":"function","name":"setDefaultRail","inputs":[{"name":"token","type":"address","internalType":"address"},{"name":"railKey","type":"bytes32","internalType":"bytes32"}],"outputs":[],"stateMutability":"nonpayable"},{"type":"function","name":"transferAdmin","inputs":[{"name":"to","type":"address","internalType":"address"}],"outputs":[],"stateMutability":"nonpayable"},{"type":"event","name":"AdminTransferred","inputs":[{"name":"from","type":"address","indexed":true,"internalType":"address"},{"name":"to","type":"address","indexed":true,"internalType":"address"}],"anonymous":false},{"type":"event","name":"DefaultRailSet","inputs":[{"name":"token","type":"address","indexed":true,"internalType":"address"},{"name":"railKey","type":"bytes32","indexed":false,"internalType":"bytes32"}],"anonymous":false}],"bytecode":{"object":"0x60a0346100db57601f61094f38819003918201601f19168301916001600160401b038311848410176100e05780849260409485528339810103126100db57610052602061004b836100f6565b92016100f6565b6001600160a01b03918216801515806100d0575b156100a257600080546001600160a01b03191691909117905516608052604051610844908161010b823960805181818161020701526104c40152f35b60405162461bcd60e51b815260206004820152600660248201526505343523a20360d41b6044820152606490fd5b508282161515610066565b600080fd5b634e487b7160e01b600052604160045260246000fd5b51906001600160a01b03821682036100db5756fe6040608081526004908136101561001557600080fd5b600091823560e01c90816375829def146104e85781637b10399914610479578163bccc62c414610417578163c854a0b41461015057508063f851a440146101005763f98837d71461006557600080fd5b346100fc57807ffffffffffffffffffffffffffffffffffffffffffffffffffffffffffffffffc3601126100fc577fb75056ad2a211bc6ff15df9ff99262ce39131a8d909ee08ea6fb6051d0350c8d60206100be6105fe565b6024359073ffffffffffffffffffffffffffffffffffffffff906100e6828854163314610647565b169384865260018352818187205551908152a280f35b5080fd5b50346100fc57817ffffffffffffffffffffffffffffffffffffffffffffffffffffffffffffffffc3601126100fc5773ffffffffffffffffffffffffffffffffffffffff60209254169051908152f35b82846020917ffffffffffffffffffffffffffffffffffffffffffffffffffffffffffffffffc9383853601126104135780359067ffffffffffffffff958683116103755760a090838301933603011261040f57813573ffffffffffffffffffffffffffffffffffffffff908181168091036103a8578552600186528385205480156103b3578451907fa71bef3a000000000000000000000000000000000000000000000000000000008252838201528681602481857f0000000000000000000000000000000000000000000000000000000000000000165afa90811561036b578691610379575b501690813b156103755783517f08432d570000000000000000000000000000000000000000000000000000000081528581806102758786830161071c565b038134875af197881561036b57879897959697610322575b5050906102c893929185518095819482937f4dd6e2b5000000000000000000000000000000000000000000000000000000008452830161071c565b03915afa9283156103175780936102e2575b505051908152f35b909192508382813d8311610310575b6102fb81836106ac565b8101031261030d5750519083806102da565b80fd5b503d6102f1565b8251903d90823e3d90fd5b90809297939495501161033f57845293859291906102c88861028d565b6024826041887f4e487b7100000000000000000000000000000000000000000000000000000000835252fd5b85513d88823e3d90fd5b8480fd5b90508681813d83116103ac575b61039081836106ac565b810103126103a8575181811681036103a85788610237565b8580fd5b503d610386565b606483888751917f08c379a0000000000000000000000000000000000000000000000000000000008352820152600c60248201527f5343523a206e6f207261696c00000000000000000000000000000000000000006044820152fd5b8380fd5b8280fd5b5050346100fc5760207ffffffffffffffffffffffffffffffffffffffffffffffffffffffffffffffffc3601126100fc578060209273ffffffffffffffffffffffffffffffffffffffff6104696105fe565b1681526001845220549051908152f35b5050346100fc57817ffffffffffffffffffffffffffffffffffffffffffffffffffffffffffffffffc3601126100fc576020905173ffffffffffffffffffffffffffffffffffffffff7f0000000000000000000000000000000000000000000000000000000000000000168152f35b9050346104135760207ffffffffffffffffffffffffffffffffffffffffffffffffffffffffffffffffc360112610413576105216105fe565b83549173ffffffffffffffffffffffffffffffffffffffff80841692610548843314610647565b169384156105a157505090827fffffffffffffffffffffffff0000000000000000000000000000000000000000927ff8ccb027dfcd135e000e9d45e6cc2d662578a8825d4c45b5e32e0adf67e79ec68680a31617815580f35b90602060649251917f08c379a0000000000000000000000000000000000000000000000000000000008352820152600660248201527f5343523a203000000000000000000000000000000000000000000000000000006044820152fd5b6004359073ffffffffffffffffffffffffffffffffffffffff8216820361062157565b600080fd5b359073ffffffffffffffffffffffffffffffffffffffff8216820361062157565b1561064e57565b60646040517f08c379a000000000000000000000000000000000000000000000000000000000815260206004820152600e60248201527f5343523a206e6f742061646d696e0000000000000000000000000000000000006044820152fd5b90601f7fffffffffffffffffffffffffffffffffffffffffffffffffffffffffffffffe0910116810190811067ffffffffffffffff8211176106ed57604052565b7f4e487b7100000000000000000000000000000000000000000000000000000000600052604160045260246000fd5b906020825273ffffffffffffffffffffffffffffffffffffffff8061074083610626565b1660208401528061075360208401610626565b16604084015261076560408301610626565b1660608301526060810135608083015260808101357fffffffffffffffffffffffffffffffffffffffffffffffffffffffffffffffe1823603018112156106215701906020823592019167ffffffffffffffff811161062157803603831361062157601f817fffffffffffffffffffffffffffffffffffffffffffffffffffffffffffffffe09260e09560a0808701528160c0870152868601376000858286010152011601019056fea2646970667358221220d48993a0d643288d9a8c08fb4cf4461dcdaacc0b4d2ea061d945ee21d229dfcb64736f6c63430008180033","linkReferences":{}},"methodIdentifiers":{"admin()":"f851a440","defaultRailKey(address)":"bccc62c4","registry()":"7b103999","routeAndPrepare((address,address,address,uint256,bytes))":"c854a0b4","setDefaultRail(address,bytes32)":"f98837d7","transferAdmin(address)":"75829def"},"id":39}