{"abi":[{"type":"constructor","inputs":[],"stateMutability":"nonpayable"},{"type":"function","name":"completeFnalityPvP","inputs":[{"name":"settlementId","type":"bytes32","internalType":"bytes32"}],"outputs":[],"stateMutability":"nonpayable"},{"type":"function","name":"deactivateFnalityToken","inputs":[{"name":"tokenAddress","type":"address","internalType":"address"}],"outputs":[],"stateMutability":"nonpayable"},{"type":"function","name":"fnalityTokens","inputs":[{"name":"","type":"address","internalType":"address"}],"outputs":[{"name":"tokenAddress","type":"address","internalType":"address"},{"name":"currency","type":"string","internalType":"string"},{"name":"centralBank","type":"address","internalType":"address"},{"name":"isActive","type":"bool","internalType":"bool"}],"stateMutability":"view"},{"type":"function","name":"getFnalityToken","inputs":[{"name":"tokenAddress","type":"address","internalType":"address"}],"outputs":[{"name":"","type":"tuple","internalType":"struct FnalitySettlementAdapter.FnalityToken","components":[{"name":"tokenAddress","type":"address","internalType":"address"},{"name":"currency","type":"string","internalType":"string"},{"name":"centralBank","type":"address","internalType":"address"},{"name":"isActive","type":"bool","internalType":"bool"}]}],"stateMutability":"view"},{"type":"function","name":"getPvPSettlement","inputs":[{"name":"settlementId","type":"bytes32","internalType":"bytes32"}],"outputs":[{"name":"","type":"tuple","internalType":"struct FnalitySettlementAdapter.FnalityPvP","components":[{"name":"settlementId","type":"bytes32","internalType":"bytes32"},{"name":"tokenA","type":"address","internalType":"address"},{"name":"tokenB","type":"address","internalType":"address"},{"name":"amountA","type":"uint256","internalType":"uint256"},{"name":"amountB","type":"uint256","internalType":"uint256"},{"name":"partyA","type":"address","internalType":"address"},{"name":"partyB","type":"address","internalType":"address"},{"name":"isAtomic","type":"bool","internalType":"bool"},{"name":"isCompleted","type":"bool","internalType":"bool"},{"name":"timestamp","type":"uint256","internalType":"uint256"}]}],"stateMutability":"view"},{"type":"function","name":"initiateFnalityPvP","inputs":[{"name":"settlementId","type":"bytes32","internalType":"bytes32"},{"name":"tokenA","type":"address","internalType":"address"},{"name":"tokenB","type":"address","internalType":"address"},{"name":"amountA","type":"uint256","internalType":"uint256"},{"name":"amountB","type":"uint256","internalType":"uint256"},{"name":"partyA","type":"address","internalType":"address"},{"name":"partyB","type":"address","internalType":"address"}],"outputs":[{"name":"","type":"bool","internalType":"bool"}],"stateMutability":"nonpayable"},{"type":"function","name":"owner","inputs":[],"outputs":[{"name":"","type":"address","internalType":"address"}],"stateMutability":"view"},{"type":"function","name":"pvpSettlements","inputs":[{"name":"","type":"bytes32","internalType":"bytes32"}],"outputs":[{"name":"settlementId","type":"bytes32","internalType":"bytes32"},{"name":"tokenA","type":"address","internalType":"address"},{"name":"tokenB","type":"address","internalType":"address"},{"name":"amountA","type":"uint256","internalType":"uint256"},{"name":"amountB","type":"uint256","internalType":"uint256"},{"name":"partyA","type":"address","internalType":"address"},{"name":"partyB","type":"address","internalType":"address"},{"name":"isAtomic","type":"bool","internalType":"bool"},{"name":"isCompleted","type":"bool","internalType":"bool"},{"name":"timestamp","type":"uint256","internalType":"uint256"}],"stateMutability":"view"},{"type":"function","name":"registerFnalityToken","inputs":[{"name":"tokenAddress","type":"address","internalType":"address"},{"name":"currency","type":"string","internalType":"string"},{"name":"centralBank","type":"address","internalType":"address"}],"outputs":[],"stateMutability":"nonpayable"},{"type":"function","name":"renounceOwnership","inputs":[],"outputs":[],"stateMutability":"nonpayable"},{"type":"function","name":"transferOwnership","inputs":[{"name":"newOwner","type":"address","internalType":"address"}],"outputs":[],"stateMutability":"nonpayable"},{"type":"event","name":"FnalityPvPCompleted","inputs":[{"name":"settlementId","type":"bytes32","indexed":true,"internalType":"bytes32"}],"anonymous":false},{"type":"event","name":"FnalityPvPInitiated","inputs":[{"name":"settlementId","type":"bytes32","indexed":true,"internalType":"bytes32"}],"anonymous":false},{"type":"event","name":"FnalityTokenRegistered","inputs":[{"name":"token","type":"address","indexed":true,"internalType":"address"},{"name":"currency","type":"string","indexed":false,"internalType":"string"}],"anonymous":false},{"type":"event","name":"OwnershipTransferred","inputs":[{"name":"previousOwner","type":"address","indexed":true,"internalType":"address"},{"name":"newOwner","type":"address","indexed":true,"internalType":"address"}],"anonymous":false},{"type":"error","name":"OwnableInvalidOwner","inputs":[{"name":"owner","type":"address","internalType":"address"}]},{"type":"error","name":"OwnableUnauthorizedAccount","inputs":[{"name":"account","type":"address","internalType":"address"}]}],"bytecode":{"object":"0x6080806040523461007a5733156100645760008054336001600160a01b03198216811783556040519290916001600160a01b0316907f8be0079c531659141344cd1fd0a4f28419497f9722a3daafe3b4186f6b6457e09080a361147290816100808239f35b631e4fbdf760e01b815260006004820152602490fd5b600080fdfe608080604052600436101561001357600080fd5b60003560e01c908163237f6147146110a65750806328a5f4d014610dd4578063325f0def14610bc057806344bdae2914610aef578063715018a614610a535780638da5cb5b14610a01578063c503231014610971578063db79379314610657578063e9925ec9146105b0578063f2fde38b146104ce5763f936de391461009857600080fd5b346104c95760607ffffffffffffffffffffffffffffffffffffffffffffffffffffffffffffffffc3601126104c9576100cf61119e565b6024359067ffffffffffffffff8083116104c957366023840112156104c957826004013581811161049a576040519361013060207fffffffffffffffffffffffffffffffffffffffffffffffffffffffffffffffe0601f85011601866112ce565b81855236602483830101116104c9578160009260246020930183880137850101526101596111c1565b6101616113eb565b6040519161016e83611295565b73ffffffffffffffffffffffffffffffffffffffff8416835273ffffffffffffffffffffffffffffffffffffffff60208401928684521660408401526001606084015273ffffffffffffffffffffffffffffffffffffffff8416600052600160205260406000209173ffffffffffffffffffffffffffffffffffffffff8451167fffffffffffffffffffffffff000000000000000000000000000000000000000084541617835551805191821161049a5761022c6001840154611242565b601f8111610453575b50602090601f83116001146103695760027f8bccd6ee6a1491fd6813a72f6a80ab2c4e823265c7b03b15e51412b1da2133289694846103409573ffffffffffffffffffffffffffffffffffffffff989560609560009261035e575b50507fffffffffffffffffffffffffffffffffffffffffffffffffffffffffffffffff8260011b9260031b1c19161760018201555b0191856040820151167fffffffffffffffffffffffff0000000000000000000000000000000000000000845416178355015115157fffffffffffffffffffffff00ffffffffffffffffffffffffffffffffffffffff74ff0000000000000000000000000000000000000000835492151560a01b169116179055565b61035960405192839260208452169460208301906111e4565b0390a2005b015190503880610290565b907fffffffffffffffffffffffffffffffffffffffffffffffffffffffffffffffe08316916001850160005260206000209260005b81811061043b57509460018573ffffffffffffffffffffffffffffffffffffffff9895606095600295610340997f8bccd6ee6a1491fd6813a72f6a80ab2c4e823265c7b03b15e51412b1da2133289d9b10610404575b505050811b0160018201556102c5565b01517fffffffffffffffffffffffffffffffffffffffffffffffffffffffffffffffff60f88460031b161c191690553880806103f4565b9293602060018192878601518155019501930161039e565b600184016000526020600020601f840160051c810160208510610493575b601f830160051c82018110610487575050610235565b60008155600101610471565b5080610471565b7f4e487b7100000000000000000000000000000000000000000000000000000000600052604160045260246000fd5b600080fd5b346104c95760207ffffffffffffffffffffffffffffffffffffffffffffffffffffffffffffffffc3601126104c95761050561119e565b61050d6113eb565b73ffffffffffffffffffffffffffffffffffffffff80911690811561057f57600054827fffffffffffffffffffffffff0000000000000000000000000000000000000000821617600055167f8be0079c531659141344cd1fd0a4f28419497f9722a3daafe3b4186f6b6457e0600080a3005b60246040517f1e4fbdf700000000000000000000000000000000000000000000000000000000815260006004820152fd5b346104c95760207ffffffffffffffffffffffffffffffffffffffffffffffffffffffffffffffffc3601126104c95773ffffffffffffffffffffffffffffffffffffffff806105fd61119e565b166000526001602052604060002090808254169060ff60026106216001860161130f565b94015461064060405195869586526080602087015260808601906111e4565b928116604085015260a01c16151560608301520390f35b346104c95760e07ffffffffffffffffffffffffffffffffffffffffffffffffffffffffffffffffc3601126104c9576004356024359073ffffffffffffffffffffffffffffffffffffffff8083168093036104c9576106b46111c1565b9260a435918083168093036104c95760c435918183168093036104c957806000526020956001875260ff60026040600020015460a01c161561091357821691826000526001875260ff60026040600020015460a01c16156108b5579161083c87600795938895604051988995610729876112b1565b888752848701938452604087019081526060870160643581526080880191608435835260a0890193845260c08901998a52600260e08a0197600189526101206101008c019b60008d52019c8d4290526000525284600260406000209e8f905181558260018201995116987fffffffffffffffffffffffff0000000000000000000000000000000000000000998a82541617905501915116868254161790555160038c01555160048b01558160058b0191511683825416179055600689019551169085541617845551151583907fffffffffffffffffffffff00ffffffffffffffffffffffffffffffffffffffff74ff0000000000000000000000000000000000000000835492151560a01b169116179055565b5181547fffffffffffffffffffff00ffffffffffffffffffffffffffffffffffffffffff1690151560a81b75ff0000000000000000000000000000000000000000001617905551910155604051907fd19a4553bb3002eba66f5f692de974af68c536acd2c34a4a37960ca664928e89600080a260018152f35b606487604051907f08c379a00000000000000000000000000000000000000000000000000000000082526004820152601260248201527f546f6b656e2042206e6f742061637469766500000000000000000000000000006044820152fd5b606487604051907f08c379a00000000000000000000000000000000000000000000000000000000082526004820152601260248201527f546f6b656e2041206e6f742061637469766500000000000000000000000000006044820152fd5b346104c95760207ffffffffffffffffffffffffffffffffffffffffffffffffffffffffffffffffc3601126104c95773ffffffffffffffffffffffffffffffffffffffff6109bd61119e565b6109c56113eb565b16600052600160205260026040600020017fffffffffffffffffffffff00ffffffffffffffffffffffffffffffffffffffff8154169055600080f35b346104c95760007ffffffffffffffffffffffffffffffffffffffffffffffffffffffffffffffffc3601126104c957602073ffffffffffffffffffffffffffffffffffffffff60005416604051908152f35b346104c95760007ffffffffffffffffffffffffffffffffffffffffffffffffffffffffffffffffc3601126104c957610a8a6113eb565b600073ffffffffffffffffffffffffffffffffffffffff81547fffffffffffffffffffffffff000000000000000000000000000000000000000081168355167f8be0079c531659141344cd1fd0a4f28419497f9722a3daafe3b4186f6b6457e08280a3005b346104c95760207ffffffffffffffffffffffffffffffffffffffffffffffffffffffffffffffffc3601126104c9576004356000526002602052610140604060002080549060ff73ffffffffffffffffffffffffffffffffffffffff91826001820154169280600283015416600383015460048401549083600586015416926007600687015496015497604051998a5260208a015260408901526060880152608087015260a0860152811660c0850152818160a01c16151560e085015260a81c161515610100830152610120820152f35b346104c95760207ffffffffffffffffffffffffffffffffffffffffffffffffffffffffffffffffc3601126104c9576000610120604051610c00816112b1565b8281528260208201528260408201528260608201528260808201528260a08201528260c08201528260e082015282610100820152015260043560005260026020526101406040600020610120604051610c58816112b1565b600783549384835273ffffffffffffffffffffffffffffffffffffffff600182015416602084015273ffffffffffffffffffffffffffffffffffffffff6002820154166040840152600381015460608401526004810154608084015273ffffffffffffffffffffffffffffffffffffffff60058201541660a084015260ff600682015473ffffffffffffffffffffffffffffffffffffffff811660c0860152818160a01c16151560e086015260a81c16151561010084015201548282015260405192835273ffffffffffffffffffffffffffffffffffffffff602082015116602084015273ffffffffffffffffffffffffffffffffffffffff6040820151166040840152606081015160608401526080810151608084015273ffffffffffffffffffffffffffffffffffffffff60a08201511660a084015273ffffffffffffffffffffffffffffffffffffffff60c08201511660c084015260e0810151151560e084015261010081015115156101008401520151610120820152f35b346104c9576020807ffffffffffffffffffffffffffffffffffffffffffffffffffffffffffffffffc3601126104c95760043590610e106113eb565b8160005260028152604060002090600682019182549060ff8260a81c1661104857600781015415610fea57600181015460058201805460038401546040517f23b872dd0000000000000000000000000000000000000000000000000000000080825273ffffffffffffffffffffffffffffffffffffffff938416600483015296831660248201526044810191909152939290919086908590606490829060009087165af1938415610fc1578694610fcd575b50600060048360028601541693808a541693541694015495610f1d6040519788968795869485526004850160409194939294606082019573ffffffffffffffffffffffffffffffffffffffff80921683521660208201520152565b03925af18015610fc157610f93575b505075010000000000000000000000000000000000000000007fffffffffffffffffffff00ffffffffffffffffffffffffffffffffffffffffff8254161790557f949cd482541fb86acd837f4fef391cf1e4569171c2cad37f4973ae3fdda73fa7600080a2005b81610fb292903d10610fba575b610faa81836112ce565b8101906113d3565b508280610f2c565b503d610fa0565b6040513d6000823e3d90fd5b610fe390853d8711610fba57610faa81836112ce565b5088610ec2565b606483604051907f08c379a00000000000000000000000000000000000000000000000000000000082526004820152601460248201527f536574746c656d656e74206e6f7420666f756e640000000000000000000000006044820152fd5b606483604051907f08c379a00000000000000000000000000000000000000000000000000000000082526004820152601160248201527f416c726561647920636f6d706c657465640000000000000000000000000000006044820152fd5b346104c9576020807ffffffffffffffffffffffffffffffffffffffffffffffffffffffffffffffffc3601126104c957600060606110e261119e565b936110ec81611295565b8281528184820152826040820152015273ffffffffffffffffffffffffffffffffffffffff809216600052600181526040600020906040519161112e83611295565b8381541683528361118a60026111466001850161130f565b938587019485520154926040860194838516865260ff606088019560a01c1615158552604051978897828952511690870152516080604087015260a08601906111e4565b925116606084015251151560808301520390f35b6004359073ffffffffffffffffffffffffffffffffffffffff821682036104c957565b6044359073ffffffffffffffffffffffffffffffffffffffff821682036104c957565b919082519283825260005b84811061122e5750507fffffffffffffffffffffffffffffffffffffffffffffffffffffffffffffffe0601f8460006020809697860101520116010190565b6020818301810151848301820152016111ef565b90600182811c9216801561128b575b602083101461125c57565b7f4e487b7100000000000000000000000000000000000000000000000000000000600052602260045260246000fd5b91607f1691611251565b6080810190811067ffffffffffffffff82111761049a57604052565b610140810190811067ffffffffffffffff82111761049a57604052565b90601f7fffffffffffffffffffffffffffffffffffffffffffffffffffffffffffffffe0910116810190811067ffffffffffffffff82111761049a57604052565b9060405191826000825461132281611242565b908184526020946001916001811690816000146113925750600114611353575b505050611351925003836112ce565b565b600090815285812095935091905b81831061137a5750506113519350820101388080611342565b85548884018501529485019487945091830191611361565b9150506113519593507fffffffffffffffffffffffffffffffffffffffffffffffffffffffffffffff0091501682840152151560051b820101388080611342565b908160209103126104c9575180151581036104c95790565b73ffffffffffffffffffffffffffffffffffffffff60005416330361140c57565b60246040517f118cdaa7000000000000000000000000000000000000000000000000000000008152336004820152fdfea2646970667358221220e93967d17d421418fcbf3a688e6475888b1e7bb72313e815334fb556e355e6b764736f6c63430008180033","linkReferences":{}},"methodIdentifiers":{"completeFnalityPvP(bytes32)":"28a5f4d0","deactivateFnalityToken(address)":"c5032310","fnalityTokens(address)":"e9925ec9","getFnalityToken(address)":"237f6147","getPvPSettlement(bytes32)":"325f0def","initiateFnalityPvP(bytes32,address,address,uint256,uint256,address,address)":"db793793","owner()":"8da5cb5b","pvpSettlements(bytes32)":"44bdae29","registerFnalityToken(address,string,address)":"f936de39","renounceOwnership()":"715018a6","transferOwnership(address)":"f2fde38b"},"id":4}