{"abi":[{"type":"constructor","inputs":[{"name":"admin","type":"address","internalType":"address"}],"stateMutability":"nonpayable"},{"type":"function","name":"DEFAULT_ADMIN_ROLE","inputs":[],"outputs":[{"name":"","type":"bytes32","internalType":"bytes32"}],"stateMutability":"view"},{"type":"function","name":"ROLE_ADMIN","inputs":[],"outputs":[{"name":"","type":"bytes32","internalType":"bytes32"}],"stateMutability":"view"},{"type":"function","name":"ROLE_PUBLISHER","inputs":[],"outputs":[{"name":"","type":"bytes32","internalType":"bytes32"}],"stateMutability":"view"},{"type":"function","name":"getRoleAdmin","inputs":[{"name":"role","type":"bytes32","internalType":"bytes32"}],"outputs":[{"name":"","type":"bytes32","internalType":"bytes32"}],"stateMutability":"view"},{"type":"function","name":"grantRole","inputs":[{"name":"role","type":"bytes32","internalType":"bytes32"},{"name":"account","type":"address","internalType":"address"}],"outputs":[],"stateMutability":"nonpayable"},{"type":"function","name":"hasRole","inputs":[{"name":"role","type":"bytes32","internalType":"bytes32"},{"name":"account","type":"address","internalType":"address"}],"outputs":[{"name":"","type":"bool","internalType":"bool"}],"stateMutability":"view"},{"type":"function","name":"publishCamt053","inputs":[{"name":"correlationId","type":"bytes32","internalType":"bytes32"},{"name":"accountRef","type":"string","internalType":"string"},{"name":"bookingAmountMinor","type":"int256","internalType":"int256"},{"name":"ccy","type":"string","internalType":"string"},{"name":"txnRef","type":"string","internalType":"string"},{"name":"narrative","type":"string","internalType":"string"},{"name":"bookingDate","type":"uint64","internalType":"uint64"}],"outputs":[],"stateMutability":"nonpayable"},{"type":"function","name":"publishPacs008","inputs":[{"name":"correlationId","type":"bytes32","internalType":"bytes32"},{"name":"payer","type":"address","internalType":"address"},{"name":"payee","type":"address","internalType":"address"},{"name":"amountMinor","type":"uint256","internalType":"uint256"},{"name":"ccy","type":"string","internalType":"string"},{"name":"debtorIban","type":"string","internalType":"string"},{"name":"creditorIban","type":"string","internalType":"string"},{"name":"purpose","type":"string","internalType":"string"},{"name":"valueDate","type":"uint64","internalType":"uint64"}],"outputs":[],"stateMutability":"nonpayable"},{"type":"function","name":"publishSese023","inputs":[{"name":"correlationId","type":"bytes32","internalType":"bytes32"},{"name":"isinOrCusip","type":"string","internalType":"string"},{"name":"side","type":"string","internalType":"string"},{"name":"quantity","type":"uint256","internalType":"uint256"},{"name":"priceMinor","type":"uint256","internalType":"uint256"},{"name":"ccy","type":"string","internalType":"string"},{"name":"accountRef","type":"string","internalType":"string"},{"name":"settlementDate","type":"uint64","internalType":"uint64"}],"outputs":[],"stateMutability":"nonpayable"},{"type":"function","name":"renounceRole","inputs":[{"name":"role","type":"bytes32","internalType":"bytes32"},{"name":"callerConfirmation","type":"address","internalType":"address"}],"outputs":[],"stateMutability":"nonpayable"},{"type":"function","name":"revokeRole","inputs":[{"name":"role","type":"bytes32","internalType":"bytes32"},{"name":"account","type":"address","internalType":"address"}],"outputs":[],"stateMutability":"nonpayable"},{"type":"function","name":"supportsInterface","inputs":[{"name":"interfaceId","type":"bytes4","internalType":"bytes4"}],"outputs":[{"name":"","type":"bool","internalType":"bool"}],"stateMutability":"view"},{"type":"event","name":"Camt053Statement","inputs":[{"name":"correlationId","type":"bytes32","indexed":true,"internalType":"bytes32"},{"name":"accountRef","type":"string","indexed":false,"internalType":"string"},{"name":"bookingAmount","type":"int256","indexed":false,"internalType":"int256"},{"name":"ccy","type":"string","indexed":false,"internalType":"string"},{"name":"txnRef","type":"string","indexed":false,"internalType":"string"},{"name":"narrative","type":"string","indexed":false,"internalType":"string"},{"name":"bookingDate","type":"uint64","indexed":false,"internalType":"uint64"},{"name":"createdAt","type":"uint64","indexed":false,"internalType":"uint64"}],"anonymous":false},{"type":"event","name":"Pacs008Payment","inputs":[{"name":"correlationId","type":"bytes32","indexed":true,"internalType":"bytes32"},{"name":"payer","type":"address","indexed":true,"internalType":"address"},{"name":"payee","type":"address","indexed":true,"internalType":"address"},{"name":"amount","type":"uint256","indexed":false,"internalType":"uint256"},{"name":"ccy","type":"string","indexed":false,"internalType":"string"},{"name":"debtorIban","type":"string","indexed":false,"internalType":"string"},{"name":"creditorIban","type":"string","indexed":false,"internalType":"string"},{"name":"purpose","type":"string","indexed":false,"internalType":"string"},{"name":"valueDate","type":"uint64","indexed":false,"internalType":"uint64"},{"name":"createdAt","type":"uint64","indexed":false,"internalType":"uint64"}],"anonymous":false},{"type":"event","name":"RoleAdminChanged","inputs":[{"name":"role","type":"bytes32","indexed":true,"internalType":"bytes32"},{"name":"previousAdminRole","type":"bytes32","indexed":true,"internalType":"bytes32"},{"name":"newAdminRole","type":"bytes32","indexed":true,"internalType":"bytes32"}],"anonymous":false},{"type":"event","name":"RoleGranted","inputs":[{"name":"role","type":"bytes32","indexed":true,"internalType":"bytes32"},{"name":"account","type":"address","indexed":true,"internalType":"address"},{"name":"sender","type":"address","indexed":true,"internalType":"address"}],"anonymous":false},{"type":"event","name":"RoleRevoked","inputs":[{"name":"role","type":"bytes32","indexed":true,"internalType":"bytes32"},{"name":"account","type":"address","indexed":true,"internalType":"address"},{"name":"sender","type":"address","indexed":true,"internalType":"address"}],"anonymous":false},{"type":"event","name":"Sese023SecuritiesSettlement","inputs":[{"name":"correlationId","type":"bytes32","indexed":true,"internalType":"bytes32"},{"name":"isinOrCusip","type":"string","indexed":false,"internalType":"string"},{"name":"side","type":"string","indexed":false,"internalType":"string"},{"name":"quantity","type":"uint256","indexed":false,"internalType":"uint256"},{"name":"priceMinor","type":"uint256","indexed":false,"internalType":"uint256"},{"name":"ccy","type":"string","indexed":false,"internalType":"string"},{"name":"accountRef","type":"string","indexed":false,"internalType":"string"},{"name":"settlementDate","type":"uint64","indexed":false,"internalType":"uint64"},{"name":"createdAt","type":"uint64","indexed":false,"internalType":"uint64"}],"anonymous":false},{"type":"error","name":"AccessControlBadConfirmation","inputs":[]},{"type":"error","name":"AccessControlUnauthorizedAccount","inputs":[{"name":"account","type":"address","internalType":"address"},{"name":"neededRole","type":"bytes32","internalType":"bytes32"}]}],"bytecode":{"object":"0x60803461007257601f610d2438819003918201601f19168301916001600160401b038311848410176100775780849260209460405283398101031261007257516001600160a01b0381168103610072578061005c6100629261008d565b5061012d565b50604051610b3b90816101c98239f35b600080fd5b634e487b7160e01b600052604160045260246000fd5b6001600160a01b031660008181527ff2d002f32e1e256ea1e928747b1832023316be30886ca415b888f7c67dd776c360205260408120549091907f2172861495e7b85edac73e3cd5fbb42dd675baadf627720e687bcfdaca0250969060ff1661012857808352826020526040832082845260205260408320600160ff19825416179055600080516020610d04833981519152339380a4600190565b505090565b6001600160a01b031660008181527f196a0959de6d1a45b805591b8abbc43254e0ebb2b662175b4ff4978c0490a81f60205260408120549091907f318ca041382154243e5407309a15dc38a2622542637083fb3fe687f1e73186a29060ff1661012857808352826020526040832082845260205260408320600160ff19825416179055600080516020610d04833981519152339380a460019056fe6080604081815260048036101561001557600080fd5b60009260e0908435821c90816301ffc9a7146107ae57508063248a9ca3146107665780632f2ff15d1461071e57806336568abe1461069357806391d1485414610623578063a1ce1800146104b1578063a217fddf14610477578063ab80e2b31461041d578063cf145114146102bb578063d391014b1461025d578063d547741f146101fc5763d5c0b211146100a957600080fd5b346101f857807ffffffffffffffffffffffffffffffffffffffffffffffffffffffffffffffffc3601126101f85767ffffffffffffffff916024358381116101f4576100f89036908301610894565b9390946064358281116101f0576101129036908501610894565b91906084358481116101ec5761012b9036908701610894565b909160a4358681116101e8576101449036908901610894565b94909560c4359b888d16809d036101e45761015d610901565b82519b8b8d9c8d528c0190610171926108c2565b9160443560208c01528a8303908b015261018a926108c2565b90878203606089015261019c926108c2565b9085820360808701526101ae926108c2565b9460a0840152421660c08301523592037fe426230a9be2452dcdbd624fdaee60027ce17f090ba871b7b2261723f709b9ab91a280f35b8d80fd5b8b80fd5b8980fd5b8780fd5b8580fd5b8380fd5b5050903461025957807ffffffffffffffffffffffffffffffffffffffffffffffffffffffffffffffffc360112610259576102559135610250600161023f61086c565b938387528660205286200154610994565b610a64565b5080f35b8280fd5b505050346102b757817ffffffffffffffffffffffffffffffffffffffffffffffffffffffffffffffffc3601126102b757602090517f2172861495e7b85edac73e3cd5fbb42dd675baadf627720e687bcfdaca0250968152f35b5080fd5b5091346101f85761010091827ffffffffffffffffffffffffffffffffffffffffffffffffffffffffffffffffc3601126104195767ffffffffffffffff93602435858111610415576103109036908401610894565b9390604435878111610411576103299036908601610894565b909260a43589811161040d576103429036908801610894565b60c492919235958b87116104095761035e8c9736908b01610894565b95909660e4359d8e16809e03610405578c9b610378610901565b85519d8e9d8e528d019061038b926108c2565b908b820360208d015261039d926108c2565b91606435908a015260843560608a015288820360808a01526103be926108c2565b9086820360a08801526103d0926108c2565b9560c08501524216908301523592037ff19e674db9d5855ed3bd6c7728316046febe5819ebbee384ce787200565787ba91a280f35b8e80fd5b8c80fd5b8a80fd5b8880fd5b8680fd5b8480fd5b505050346102b757817ffffffffffffffffffffffffffffffffffffffffffffffffffffffffffffffffc3601126102b757602090517f318ca041382154243e5407309a15dc38a2622542637083fb3fe687f1e73186a28152f35b505050346102b757817ffffffffffffffffffffffffffffffffffffffffffffffffffffffffffffffffc3601126102b75751908152602090f35b50346101f8576101207ffffffffffffffffffffffffffffffffffffffffffffffffffffffffffffffffc3601126101f8576104ea61086c565b906044359373ffffffffffffffffffffffffffffffffffffffff8086168096036104155767ffffffffffffffff936084358581116104115761052f9036908801610894565b939060a43587811161040d576105489036908a01610894565b9060c435898111610409576105609036908c01610894565b909160e435958b87116104055761057b8d8d98369101610894565b959096610104359d8e16809e0361061e578c9b610596610901565b83519d8e9d8e6064358152602001528d01906105b1926108c2565b918b8303908c01526105c2926108c2565b9088820360608a01526105d4926108c2565b9086820360808801526105e6926108c2565b9560a0850152421660c084015216933592037fab70f4688e634b9d50cc2749f0a6f6229a8b7154b6a50251eca1f5f4c4d7bb6f91a480f35b508f80fd5b50503461025957817ffffffffffffffffffffffffffffffffffffffffffffffffffffffffffffffffc360112610259578160209360ff9261066261086c565b9035825281865273ffffffffffffffffffffffffffffffffffffffff83832091168252855220541690519015158152f35b828585346102b757807ffffffffffffffffffffffffffffffffffffffffffffffffffffffffffffffffc3601126102b7576106cc61086c565b903373ffffffffffffffffffffffffffffffffffffffff8316036106f65750610255919235610a64565b8390517f6697b232000000000000000000000000000000000000000000000000000000008152fd5b5050903461025957807ffffffffffffffffffffffffffffffffffffffffffffffffffffffffffffffffc360112610259576102559135610761600161023f61086c565b6109ba565b5050346102595760207ffffffffffffffffffffffffffffffffffffffffffffffffffffffffffffffffc36011261025957816020936001923581528085522001549051908152f35b93505050346102595760207ffffffffffffffffffffffffffffffffffffffffffffffffffffffffffffffffc36011261025957357fffffffff00000000000000000000000000000000000000000000000000000000811680910361025957602092507f7965db0b000000000000000000000000000000000000000000000000000000008114908115610842575b5015158152f35b7f01ffc9a7000000000000000000000000000000000000000000000000000000009150143861083b565b6024359073ffffffffffffffffffffffffffffffffffffffff8216820361088f57565b600080fd5b9181601f8401121561088f5782359167ffffffffffffffff831161088f576020838186019501011161088f57565b601f82602094937fffffffffffffffffffffffffffffffffffffffffffffffffffffffffffffffe0938186528686013760008582860101520116010190565b3360009081527f196a0959de6d1a45b805591b8abbc43254e0ebb2b662175b4ff4978c0490a81f60205260409020547f318ca041382154243e5407309a15dc38a2622542637083fb3fe687f1e73186a29060ff161561095d5750565b604490604051907fe2517d3f0000000000000000000000000000000000000000000000000000000082523360048301526024820152fd5b80600052600060205260406000203360005260205260ff604060002054161561095d5750565b906000918083528260205273ffffffffffffffffffffffffffffffffffffffff6040842092169182845260205260ff60408420541615600014610a5f5780835282602052604083208284526020526040832060017fffffffffffffffffffffffffffffffffffffffffffffffffffffffffffffff008254161790557f2f8788117e7eff1d82e926ec794901d17c78024a50270940304540a733656f0d339380a4600190565b505090565b906000918083528260205273ffffffffffffffffffffffffffffffffffffffff6040842092169182845260205260ff604084205416600014610a5f578083528260205260408320828452602052604083207fffffffffffffffffffffffffffffffffffffffffffffffffffffffffffffff0081541690557ff6391f5c32d9c69d2a47ea670b442974b53935d1edc7fd64eb21e047a839171b339380a460019056fea2646970667358221220176c2bac23a7020de05a8f407aa62cfa40de5febc4c3eff429072f837162a55c64736f6c634300081800332f8788117e7eff1d82e926ec794901d17c78024a50270940304540a733656f0d","linkReferences":{}},"methodIdentifiers":{"DEFAULT_ADMIN_ROLE()":"a217fddf","ROLE_ADMIN()":"d391014b","ROLE_PUBLISHER()":"ab80e2b3","getRoleAdmin(bytes32)":"248a9ca3","grantRole(bytes32,address)":"2f2ff15d","hasRole(bytes32,address)":"91d14854","publishCamt053(bytes32,string,int256,string,string,string,uint64)":"d5c0b211","publishPacs008(bytes32,address,address,uint256,string,string,string,string,uint64)":"a1ce1800","publishSese023(bytes32,string,string,uint256,uint256,string,string,uint64)":"cf145114","renounceRole(bytes32,address)":"36568abe","revokeRole(bytes32,address)":"d547741f","supportsInterface(bytes4)":"01ffc9a7"},"id":42}