{
  "_format": "hh-sol-artifact-1",
  "contractName": "CCIPRail",
  "sourceName": "contracts/settlement/stable/CCIPRail.sol",
  "abi": [
    {
      "inputs": [
        {
          "internalType": "address",
          "name": "_admin",
          "type": "address"
        },
        {
          "internalType": "address",
          "name": "_executor",
          "type": "address"
        }
      ],
      "stateMutability": "nonpayable",
      "type": "constructor"
    },
    {
      "anonymous": false,
      "inputs": [
        {
          "indexed": true,
          "internalType": "address",
          "name": "executor",
          "type": "address"
        }
      ],
      "name": "ExecutorSet",
      "type": "event"
    },
    {
      "anonymous": false,
      "inputs": [
        {
          "indexed": true,
          "internalType": "bytes32",
          "name": "id",
          "type": "bytes32"
        }
      ],
      "name": "RailCancelled",
      "type": "event"
    },
    {
      "anonymous": false,
      "inputs": [
        {
          "indexed": true,
          "internalType": "bytes32",
          "name": "id",
          "type": "bytes32"
        },
        {
          "indexed": true,
          "internalType": "address",
          "name": "from",
          "type": "address"
        },
        {
          "indexed": true,
          "internalType": "address",
          "name": "to",
          "type": "address"
        },
        {
          "indexed": false,
          "internalType": "address",
          "name": "asset",
          "type": "address"
        },
        {
          "indexed": false,
          "internalType": "uint256",
          "name": "amount",
          "type": "uint256"
        }
      ],
      "name": "RailPrepared",
      "type": "event"
    },
    {
      "anonymous": false,
      "inputs": [
        {
          "indexed": true,
          "internalType": "bytes32",
          "name": "id",
          "type": "bytes32"
        },
        {
          "indexed": true,
          "internalType": "address",
          "name": "to",
          "type": "address"
        },
        {
          "indexed": false,
          "internalType": "address",
          "name": "asset",
          "type": "address"
        },
        {
          "indexed": false,
          "internalType": "uint256",
          "name": "amount",
          "type": "uint256"
        }
      ],
      "name": "RailRefunded",
      "type": "event"
    },
    {
      "anonymous": false,
      "inputs": [
        {
          "indexed": true,
          "internalType": "bytes32",
          "name": "id",
          "type": "bytes32"
        },
        {
          "indexed": true,
          "internalType": "address",
          "name": "to",
          "type": "address"
        },
        {
          "indexed": false,
          "internalType": "address",
          "name": "asset",
          "type": "address"
        },
        {
          "indexed": false,
          "internalType": "uint256",
          "name": "amount",
          "type": "uint256"
        }
      ],
      "name": "RailReleased",
      "type": "event"
    },
    {
      "inputs": [],
      "name": "admin",
      "outputs": [
        {
          "internalType": "address",
          "name": "",
          "type": "address"
        }
      ],
      "stateMutability": "view",
      "type": "function"
    },
    {
      "inputs": [],
      "name": "executor",
      "outputs": [
        {
          "internalType": "address",
          "name": "",
          "type": "address"
        }
      ],
      "stateMutability": "view",
      "type": "function"
    },
    {
      "inputs": [],
      "name": "kind",
      "outputs": [
        {
          "internalType": "enum IRail.Kind",
          "name": "",
          "type": "uint8"
        }
      ],
      "stateMutability": "pure",
      "type": "function"
    },
    {
      "inputs": [
        {
          "internalType": "bytes32",
          "name": "id",
          "type": "bytes32"
        },
        {
          "components": [
            {
              "internalType": "address",
              "name": "asset",
              "type": "address"
            },
            {
              "internalType": "address",
              "name": "from",
              "type": "address"
            },
            {
              "internalType": "address",
              "name": "to",
              "type": "address"
            },
            {
              "internalType": "uint256",
              "name": "amount",
              "type": "uint256"
            },
            {
              "internalType": "bytes",
              "name": "metadata",
              "type": "bytes"
            }
          ],
          "internalType": "struct IRail.Transfer",
          "name": "t",
          "type": "tuple"
        }
      ],
      "name": "markRefunded",
      "outputs": [],
      "stateMutability": "nonpayable",
      "type": "function"
    },
    {
      "inputs": [
        {
          "internalType": "bytes32",
          "name": "id",
          "type": "bytes32"
        },
        {
          "components": [
            {
              "internalType": "address",
              "name": "asset",
              "type": "address"
            },
            {
              "internalType": "address",
              "name": "from",
              "type": "address"
            },
            {
              "internalType": "address",
              "name": "to",
              "type": "address"
            },
            {
              "internalType": "uint256",
              "name": "amount",
              "type": "uint256"
            },
            {
              "internalType": "bytes",
              "name": "metadata",
              "type": "bytes"
            }
          ],
          "internalType": "struct IRail.Transfer",
          "name": "t",
          "type": "tuple"
        }
      ],
      "name": "markReleased",
      "outputs": [],
      "stateMutability": "nonpayable",
      "type": "function"
    },
    {
      "inputs": [
        {
          "components": [
            {
              "internalType": "address",
              "name": "asset",
              "type": "address"
            },
            {
              "internalType": "address",
              "name": "from",
              "type": "address"
            },
            {
              "internalType": "address",
              "name": "to",
              "type": "address"
            },
            {
              "internalType": "uint256",
              "name": "amount",
              "type": "uint256"
            },
            {
              "internalType": "bytes",
              "name": "metadata",
              "type": "bytes"
            }
          ],
          "internalType": "struct IRail.Transfer",
          "name": "t",
          "type": "tuple"
        }
      ],
      "name": "prepare",
      "outputs": [],
      "stateMutability": "payable",
      "type": "function"
    },
    {
      "inputs": [
        {
          "internalType": "bytes32",
          "name": "",
          "type": "bytes32"
        },
        {
          "components": [
            {
              "internalType": "address",
              "name": "asset",
              "type": "address"
            },
            {
              "internalType": "address",
              "name": "from",
              "type": "address"
            },
            {
              "internalType": "address",
              "name": "to",
              "type": "address"
            },
            {
              "internalType": "uint256",
              "name": "amount",
              "type": "uint256"
            },
            {
              "internalType": "bytes",
              "name": "metadata",
              "type": "bytes"
            }
          ],
          "internalType": "struct IRail.Transfer",
          "name": "",
          "type": "tuple"
        }
      ],
      "name": "refund",
      "outputs": [],
      "stateMutability": "nonpayable",
      "type": "function"
    },
    {
      "inputs": [
        {
          "internalType": "bytes32",
          "name": "",
          "type": "bytes32"
        },
        {
          "components": [
            {
              "internalType": "address",
              "name": "asset",
              "type": "address"
            },
            {
              "internalType": "address",
              "name": "from",
              "type": "address"
            },
            {
              "internalType": "address",
              "name": "to",
              "type": "address"
            },
            {
              "internalType": "uint256",
              "name": "amount",
              "type": "uint256"
            },
            {
              "internalType": "bytes",
              "name": "metadata",
              "type": "bytes"
            }
          ],
          "internalType": "struct IRail.Transfer",
          "name": "",
          "type": "tuple"
        }
      ],
      "name": "release",
      "outputs": [],
      "stateMutability": "nonpayable",
      "type": "function"
    },
    {
      "inputs": [
        {
          "internalType": "address",
          "name": "e",
          "type": "address"
        }
      ],
      "name": "setExecutor",
      "outputs": [],
      "stateMutability": "nonpayable",
      "type": "function"
    },
    {
      "inputs": [
        {
          "internalType": "bytes32",
          "name": "id",
          "type": "bytes32"
        }
      ],
      "name": "status",
      "outputs": [
        {
          "internalType": "enum IRail.Status",
          "name": "",
          "type": "uint8"
        }
      ],
      "stateMutability": "view",
      "type": "function"
    },
    {
      "inputs": [
        {
          "components": [
            {
              "internalType": "address",
              "name": "asset",
              "type": "address"
            },
            {
              "internalType": "address",
              "name": "from",
              "type": "address"
            },
            {
              "internalType": "address",
              "name": "to",
              "type": "address"
            },
            {
              "internalType": "uint256",
              "name": "amount",
              "type": "uint256"
            },
            {
              "internalType": "bytes",
              "name": "metadata",
              "type": "bytes"
            }
          ],
          "internalType": "struct IRail.Transfer",
          "name": "t",
          "type": "tuple"
        }
      ],
      "name": "transferId",
      "outputs": [
        {
          "internalType": "bytes32",
          "name": "",
          "type": "bytes32"
        }
      ],
      "stateMutability": "pure",
      "type": "function"
    }
  ],
  "bytecode": "0x6080346100d257601f6108fc38819003918201601f19168301916001600160401b038311848410176100d75780849260409485528339810103126100d257610052602061004b836100ed565b92016100ed565b6001600160a01b039182169190821515806100c7575b156100985760018060a01b031992836000541617600055169060015416176001556040516107fa90816101028239f35b60405162461bcd60e51b81526020600482015260076024820152660434349503a20360cc1b6044820152606490fd5b508181161515610068565b600080fd5b634e487b7160e01b600052604160045260246000fd5b51906001600160a01b03821682036100d25756fe608060408181526004918236101561001657600080fd5b600092833560e01c91826304baa00b1461054e5750816307c150e7146104ba57816308432d57146103ae5781631c3c0ea8146103065781634dd6e2b5146102e457816352ad0d5e1461029a57816359b6b103146101bb57816390ee1dfa1461015c578163c34c08e514610134578163cfcb5b1b146100c6575063f851a4401461009e57600080fd5b346100c257816003193601126100c2576001600160a01b0360209254169051908152f35b5080fd5b91905034610130576020906100f36001600160a01b036064956100e836610569565b505054163314610682565b5162461bcd60e51b815291820152601660248201527f434349503a20757365206d61726b526566756e646564000000000000000000006044820152fd5b8280fd5b5050346100c257816003193601126100c2576020906001600160a01b03600154169051908152f35b919050346101305760209061017e6001600160a01b036064956100e836610569565b5162461bcd60e51b815291820152601660248201527f434349503a20757365206d61726b52656c6561736564000000000000000000006044820152fd5b8383346100c2576101cb36610569565b916001600160a01b03906101e4826001541633146105d6565b828552600260205260ff81862054166005811015610287579061022b60017f368c9a8588242d513faa21c32bf5aaee15ee1150a43690313e009727607c71d3949314610622565b8386526002602052808620600360ff198254161790556102816102506020870161066e565b91606061025c8861066e565b91516001600160a01b0390921682529096013560208701529116939081906040820190565b0390a380f35b634e487b7160e01b865260218752602486fd5b8383346100c25760203660031901126100c25782358252600260205260ff818320541690519160058210156102d157602083838152f35b634e487b7160e01b815260218452602490fd5b5050346100c2576020906102ff6102fa366105a4565b6106ce565b9051908152f35b905034610130576020366003190112610130578035916001600160a01b038084168094036103aa5761033c908554163314610682565b821561037d575050806001600160a01b031960015416176001557f3e3c5e6d5b512eaa5d5a80669846cfbaf8bde70fc6f7a3be9828cffc9ba5f1db8280a280f35b906020606492519162461bcd60e51b835282015260076024820152660434349503a20360cc1b6044820152fd5b8480fd5b90506103b9366105a4565b906103c3826106ce565b90818552600260205260ff848620541660058110156104a75761047557508084526002602052828420600160ff198254161790557f10876f5ef21c4a7c28973a179a5d95ec8815150f2fbf9c39ba9c73132d2589da6104246020840161066e565b9361043081850161066e565b61046f61043c8661066e565b60606001600160a01b038095519586951699169701359083602090939291936001600160a01b0360408201951681520152565b0390a480f35b606490602085519162461bcd60e51b8352820152600c60248201526b434349503a2065786973747360a01b6044820152fd5b634e487b7160e01b865260218252602486fd5b8383346100c2576104ca36610569565b916001600160a01b03906104e3826001541633146105d6565b828552600260205260ff81862054166005811015610287579061052a60017fd246ccc6c6f9471c400e2ef416699d6cef45c429f224da93084d39b3f807286b949314610622565b8386526002602052808620600260ff1982541617905561028161025082870161066e565b8490346100c257816003193601126100c25780600260209252f35b9060031960408184011261059f57600435926024359167ffffffffffffffff831161059f578260a09203011261059f5760040190565b600080fd5b6003199060208183011261059f576004359167ffffffffffffffff831161059f578260a09203011261059f5760040190565b156105dd57565b60405162461bcd60e51b815260206004820152600e60248201527f434349503a206e6f7420657865630000000000000000000000000000000000006044820152606490fd5b1561062957565b60405162461bcd60e51b815260206004820152600f60248201527f434349503a2062616420737461746500000000000000000000000000000000006044820152606490fd5b356001600160a01b038116810361059f5790565b1561068957565b60405162461bcd60e51b815260206004820152600f60248201527f434349503a206e6f742061646d696e00000000000000000000000000000000006044820152606490fd5b6106da6020820161066e565b906106e76040820161066e565b6080820135601e198336030181121561059f5782019081359067ffffffffffffffff9283831161059f5760200190823603821361059f57606094601f93600061013f94604051988994602086019b60a08d52600460c0880152630434349560e41b60e0880152610100976001600160a01b03809216604089015216828701520135608085015260e060a08501528285850152826101209182860137838301015284019319938416810103908101855201168201908111828210176107ae5760405251902090565b634e487b7160e01b600052604160045260246000fdfea2646970667358221220581c81c41d5484aaf45e25b113e8e1b971c92844f68d6970accc755b25860bc964736f6c63430008180033",
  "linkReferences": {},
  "deployedLinkReferences": {}
}