{"abi":[{"type":"constructor","inputs":[{"name":"governor","type":"address","internalType":"address"}],"stateMutability":"nonpayable"},{"type":"function","name":"ADMIN","inputs":[],"outputs":[{"name":"","type":"bytes32","internalType":"bytes32"}],"stateMutability":"view"},{"type":"function","name":"DEFAULT_ADMIN_ROLE","inputs":[],"outputs":[{"name":"","type":"bytes32","internalType":"bytes32"}],"stateMutability":"view"},{"type":"function","name":"NAVREPORT_TYPEHASH","inputs":[],"outputs":[{"name":"","type":"bytes32","internalType":"bytes32"}],"stateMutability":"view"},{"type":"function","name":"VAULT_SETTER","inputs":[],"outputs":[{"name":"","type":"bytes32","internalType":"bytes32"}],"stateMutability":"view"},{"type":"function","name":"eip712Domain","inputs":[],"outputs":[{"name":"fields","type":"bytes1","internalType":"bytes1"},{"name":"name","type":"string","internalType":"string"},{"name":"version","type":"string","internalType":"string"},{"name":"chainId","type":"uint256","internalType":"uint256"},{"name":"verifyingContract","type":"address","internalType":"address"},{"name":"salt","type":"bytes32","internalType":"bytes32"},{"name":"extensions","type":"uint256[]","internalType":"uint256[]"}],"stateMutability":"view"},{"type":"function","name":"getRoleAdmin","inputs":[{"name":"role","type":"bytes32","internalType":"bytes32"}],"outputs":[{"name":"","type":"bytes32","internalType":"bytes32"}],"stateMutability":"view"},{"type":"function","name":"grantRole","inputs":[{"name":"role","type":"bytes32","internalType":"bytes32"},{"name":"account","type":"address","internalType":"address"}],"outputs":[],"stateMutability":"nonpayable"},{"type":"function","name":"hasRole","inputs":[{"name":"role","type":"bytes32","internalType":"bytes32"},{"name":"account","type":"address","internalType":"address"}],"outputs":[{"name":"","type":"bool","internalType":"bool"}],"stateMutability":"view"},{"type":"function","name":"nonceUsed","inputs":[{"name":"","type":"address","internalType":"address"},{"name":"","type":"uint256","internalType":"uint256"}],"outputs":[{"name":"","type":"bool","internalType":"bool"}],"stateMutability":"view"},{"type":"function","name":"renounceRole","inputs":[{"name":"role","type":"bytes32","internalType":"bytes32"},{"name":"callerConfirmation","type":"address","internalType":"address"}],"outputs":[],"stateMutability":"nonpayable"},{"type":"function","name":"revokeRole","inputs":[{"name":"role","type":"bytes32","internalType":"bytes32"},{"name":"account","type":"address","internalType":"address"}],"outputs":[],"stateMutability":"nonpayable"},{"type":"function","name":"setSigner","inputs":[{"name":"signer","type":"address","internalType":"address"},{"name":"allowed","type":"bool","internalType":"bool"}],"outputs":[],"stateMutability":"nonpayable"},{"type":"function","name":"setupVaultRole","inputs":[{"name":"vault","type":"address","internalType":"contract IReportableVault"}],"outputs":[],"stateMutability":"nonpayable"},{"type":"function","name":"signerAllowed","inputs":[{"name":"","type":"address","internalType":"address"}],"outputs":[{"name":"","type":"bool","internalType":"bool"}],"stateMutability":"view"},{"type":"function","name":"submitSignedReport","inputs":[{"name":"r","type":"tuple","internalType":"struct CustodianNavReporter.NAVReport","components":[{"name":"vault","type":"address","internalType":"address"},{"name":"totalAssets","type":"uint256","internalType":"uint256"},{"name":"navTime","type":"uint64","internalType":"uint64"},{"name":"validUntil","type":"uint64","internalType":"uint64"},{"name":"nonce","type":"uint256","internalType":"uint256"}]},{"name":"signature","type":"bytes","internalType":"bytes"}],"outputs":[],"stateMutability":"nonpayable"},{"type":"function","name":"supportsInterface","inputs":[{"name":"interfaceId","type":"bytes4","internalType":"bytes4"}],"outputs":[{"name":"","type":"bool","internalType":"bool"}],"stateMutability":"view"},{"type":"event","name":"EIP712DomainChanged","inputs":[],"anonymous":false},{"type":"event","name":"ReportForwarded","inputs":[{"name":"vault","type":"address","indexed":true,"internalType":"address"},{"name":"totalAssets","type":"uint256","indexed":false,"internalType":"uint256"},{"name":"navTime","type":"uint64","indexed":false,"internalType":"uint64"},{"name":"validUntil","type":"uint64","indexed":false,"internalType":"uint64"},{"name":"nonce","type":"uint256","indexed":false,"internalType":"uint256"}],"anonymous":false},{"type":"event","name":"RoleAdminChanged","inputs":[{"name":"role","type":"bytes32","indexed":true,"internalType":"bytes32"},{"name":"previousAdminRole","type":"bytes32","indexed":true,"internalType":"bytes32"},{"name":"newAdminRole","type":"bytes32","indexed":true,"internalType":"bytes32"}],"anonymous":false},{"type":"event","name":"RoleGranted","inputs":[{"name":"role","type":"bytes32","indexed":true,"internalType":"bytes32"},{"name":"account","type":"address","indexed":true,"internalType":"address"},{"name":"sender","type":"address","indexed":true,"internalType":"address"}],"anonymous":false},{"type":"event","name":"RoleRevoked","inputs":[{"name":"role","type":"bytes32","indexed":true,"internalType":"bytes32"},{"name":"account","type":"address","indexed":true,"internalType":"address"},{"name":"sender","type":"address","indexed":true,"internalType":"address"}],"anonymous":false},{"type":"event","name":"SignerSet","inputs":[{"name":"signer","type":"address","indexed":true,"internalType":"address"},{"name":"allowed","type":"bool","indexed":false,"internalType":"bool"}],"anonymous":false},{"type":"error","name":"AccessControlBadConfirmation","inputs":[]},{"type":"error","name":"AccessControlUnauthorizedAccount","inputs":[{"name":"account","type":"address","internalType":"address"},{"name":"neededRole","type":"bytes32","internalType":"bytes32"}]},{"type":"error","name":"ECDSAInvalidSignature","inputs":[]},{"type":"error","name":"ECDSAInvalidSignatureLength","inputs":[{"name":"length","type":"uint256","internalType":"uint256"}]},{"type":"error","name":"ECDSAInvalidSignatureS","inputs":[{"name":"s","type":"bytes32","internalType":"bytes32"}]},{"type":"error","name":"InvalidShortString","inputs":[]},{"type":"error","name":"StringTooLong","inputs":[{"name":"str","type":"string","internalType":"string"}]}],"bytecode":{"object":"0x61016034620001d157601f62001e9f38819003918201601f19168301926001600160401b0392909183851183861017620001bb578160209284926040978852833981010312620001d15751916001600160a01b0383168303620001d1578051906200006a82620001d6565b6014825260208201927f437573746f6469616e4e61765265706f727465720000000000000000000000008452815194620000a486620001d6565b6001865260208601603160f81b8152620000be85620003b1565b95610120968752620000d08862000588565b95610140968752519020968760e05251902095610100968088524660a05284519060208201927f8b73c3c69bb8fe3d512ecc4cf759cc79239f7b179b0ffacaa9a75d522b39400f84528683015260608201524660808201523060a082015260a0815260c081019381851090851117620001bb57620001729385525190206080523060c0526200015f81620001f2565b506200016b8162000272565b5062000314565b50519161173e938462000741853960805184611456015260a05184611522015260c05184611427015260e051846114a5015251836114cb01525182610917015251816109410152f35b634e487b7160e01b600052604160045260246000fd5b600080fd5b604081019081106001600160401b03821117620001bb57604052565b6001600160a01b031660008181527fad3228b676f7d3cd4284a5443f17f1962b36e491b30a40b2405849e597ba5fb5602052604081205490919060ff166200026e57818052816020526040822081835260205260408220600160ff19825416179055339160008051602062001e7f8339815191528180a4600190565b5090565b6001600160a01b031660008181527f5cbfc8ee58ca47855df7bcf648dd304ddb6b932f9b87878bdf6318d7ec7ee5b760205260408120549091907fdf8b4c520ffe197c5343c6f5aec59570151ef9a492f2c624fd45ddde6135ec429060ff166200030f57808352826020526040832082845260205260408320600160ff1982541617905560008051602062001e7f833981519152339380a4600190565b505090565b6001600160a01b031660008181527fcd5c44832c5b5ceedf1111b0dc0fae7225e02f0ba42a51aee22ac4120e38565d60205260408120549091907fecf08f8b8e6e72965448b39b57c77164c68e8403965db7230a0812321f0081ab9060ff166200030f57808352826020526040832082845260205260408320600160ff1982541617905560008051602062001e7f833981519152339380a4600190565b8051602090818110156200044e5750601f825111620003ed5780825192015190808310620003de57501790565b82600019910360031b1b161790565b90604051809263305a27a960e01b82528060048301528251908160248401526000935b82851062000434575050604492506000838284010152601f80199101168101030190fd5b848101820151868601604401529381019385935062000410565b9192916001600160401b038111620001bb5760019182548381811c911680156200057d575b828210146200056757601f81116200052e575b5080601f8311600114620004c6575081929394600092620004ba575b5050600019600383901b1c191690821b17905560ff90565b015190503880620004a2565b90601f198316958460005282600020926000905b888210620005165750508385969710620004fc575b505050811b01905560ff90565b015160001960f88460031b161c19169055388080620004ef565b808785968294968601518155019501930190620004da565b8360005283601f83600020920160051c820191601f850160051c015b8281106200055a57505062000486565b600081550184906200054a565b634e487b7160e01b600052602260045260246000fd5b90607f169062000473565b805160209081811015620006165750601f825111620005b55780825192015190808310620003de57501790565b90604051809263305a27a960e01b82528060048301528251908160248401526000935b828510620005fc575050604492506000838284010152601f80199101168101030190fd5b8481018201518686016044015293810193859350620005d8565b906001600160401b038211620001bb57600254926001938481811c9116801562000735575b838210146200056757601f8111620006fb575b5081601f84116001146200068f575092829391839260009462000683575b50501b916000199060031b1c19161760025560ff90565b0151925038806200066c565b919083601f198116600260005284600020946000905b88838310620006e05750505010620006c6575b505050811b0160025560ff90565b015160001960f88460031b161c19169055388080620006b8565b858701518855909601959485019487935090810190620006a5565b600260005284601f84600020920160051c820191601f860160051c015b828110620007285750506200064e565b6000815501859062000718565b90607f16906200063b56fe608060408181526004908136101561001657600080fd5b600092833560e01c90816301ffc9a714610dd0575080631647795e14610d61578063248a9ca314610d195780632a0acc6a14610cc05780632f2ff15d14610c7a57806331cb610514610b4657806336568abe14610abb5780635f38d2da14610a5457806384b0196e146108e35780639047be7a1461088a57806391d148541461081a578063a217fddf146107e1578063b1a2f4c5146106ab578063b1bcc8dd1461064e578063b9409d31146101325763d547741f146100d457600080fd5b3461012e57807ffffffffffffffffffffffffffffffffffffffffffffffffffffffffffffffffc36011261012e5761012a91356101256001610114610eb5565b938387528660205286200154611013565b61111a565b5080f35b8280fd5b50903461012e577ffffffffffffffffffffffffffffffffffffffffffffffffffffffffffffffffc360160c0811261049e5760a01361012e5760a43567ffffffffffffffff9283821161064a573660238301121561064a578183013590848211610646576024368184860101116106425773ffffffffffffffffffffffffffffffffffffffff94856101c2610fc2565b16151580610638575b156105dd57866101d9610fe5565b16421161058257856101e9610fc2565b1688526020948186528389209460843595868b52875260ff858b205416610527579088939291610217610fc2565b88868b87359d8e610226610ffc565b9061022f610fe5565b938d51968701977ff96e84465c1ef5d1550a30e1e68381772c999dd79686b6a0d7a9ea83018354d48952168d87015260608601521660808401521660a08201528860c082015260c0815260e08101818110888211176104fc57928d8b604261031f958f9895610328988e525190206102a5611410565b908d51917f19010000000000000000000000000000000000000000000000000000000000008352600283015260228201522092808a8d519661030e857fffffffffffffffffffffffffffffffffffffffffffffffffffffffffffffffe0601f8601160189610f81565b828852018387013784010152611548565b90929192611584565b1689526003865260ff848a205416156104a25790889187610347610fc2565b168352808752848320868452875284832060017fffffffffffffffffffffffffffffffffffffffffffffffffffffffffffffff008254161790558761038a610fc2565b16803b1561049e578390838b885196879384927f969b1cdb000000000000000000000000000000000000000000000000000000008452878401525af1801561049457610432575b50505091608093917fdc83b31db3a2b1a089e7ec94c9d4524c5c43c1cce6d26b58e95c8c86005c69529593610404610fc2565b9361040d610ffc565b9082610417610fe5565b9285519b8c5216908a0152169087015260608601521692a280f35b83839a949a1161046a575050825295817fdc83b31db3a2b1a089e7ec94c9d4524c5c43c1cce6d26b58e95c8c86005c695260806103d1565b604184917f4e487b7100000000000000000000000000000000000000000000000000000000835252fd5b85513d8c823e3d90fd5b8380fd5b600d606492878651937f08c379a00000000000000000000000000000000000000000000000000000000085528401528201527f756e617574685f7369676e6572000000000000000000000000000000000000006044820152fd5b868e6041887f4e487b7100000000000000000000000000000000000000000000000000000000835252fd5b6064836006868a8951937f08c379a00000000000000000000000000000000000000000000000000000000085528401528201527f7265706c617900000000000000000000000000000000000000000000000000006044820152fd5b600760649260208551937f08c379a00000000000000000000000000000000000000000000000000000000085528401528201527f65787069726564000000000000000000000000000000000000000000000000006044820152fd5b600a60649260208551937f08c379a00000000000000000000000000000000000000000000000000000000085528401528201527f6261645f7265706f7274000000000000000000000000000000000000000000006044820152fd5b50813515156101cb565b8680fd5b8580fd5b8480fd5b8382346106a757817ffffffffffffffffffffffffffffffffffffffffffffffffffffffffffffffffc3601126106a757602090517fecf08f8b8e6e72965448b39b57c77164c68e8403965db7230a0812321f0081ab8152f35b5080fd5b50903461012e57602091827ffffffffffffffffffffffffffffffffffffffffffffffffffffffffffffffffc36011261049e57813573ffffffffffffffffffffffffffffffffffffffff811680910361064a577fecf08f8b8e6e72965448b39b57c77164c68e8403965db7230a0812321f0081ab808652858552828620338752855260ff8387205416156107ab575083908251938480927f6944ddb40000000000000000000000000000000000000000000000000000000082525afa9081156107a25750610777578280f35b813d831161079b575b61078a8183610f81565b810103126107985738808280f35b80fd5b503d610780565b513d85823e3d90fd5b836044918451917fe2517d3f00000000000000000000000000000000000000000000000000000000835233908301526024820152fd5b8382346106a757817ffffffffffffffffffffffffffffffffffffffffffffffffffffffffffffffffc3601126106a75751908152602090f35b50903461012e57817ffffffffffffffffffffffffffffffffffffffffffffffffffffffffffffffffc36011261012e578160209360ff92610859610eb5565b9035825281865273ffffffffffffffffffffffffffffffffffffffff83832091168252855220541690519015158152f35b8382346106a757817ffffffffffffffffffffffffffffffffffffffffffffffffffffffffffffffffc3601126106a757602090517ff96e84465c1ef5d1550a30e1e68381772c999dd79686b6a0d7a9ea83018354d48152f35b503461012e57827ffffffffffffffffffffffffffffffffffffffffffffffffffffffffffffffffc36011261012e5761093b7f00000000000000000000000000000000000000000000000000000000000000006111bb565b926109657f0000000000000000000000000000000000000000000000000000000000000000611338565b90825192602092602085019585871067ffffffffffffffff881117610a2857509260206109de8388966109d1998b9996528686528151998a997f0f000000000000000000000000000000000000000000000000000000000000008b5260e0868c015260e08b0190610ed8565b91898303908a0152610ed8565b924660608801523060808801528460a088015286840360c088015251928381520193925b828110610a1157505050500390f35b835185528695509381019392810192600101610a02565b8360416024927f4e487b7100000000000000000000000000000000000000000000000000000000835252fd5b8382346106a75760207ffffffffffffffffffffffffffffffffffffffffffffffffffffffffffffffffc3601126106a75760ff8160209373ffffffffffffffffffffffffffffffffffffffff610aa8610e8d565b1681526003855220541690519015158152f35b508290346106a757807ffffffffffffffffffffffffffffffffffffffffffffffffffffffffffffffffc3601126106a757610af4610eb5565b903373ffffffffffffffffffffffffffffffffffffffff831603610b1e575061012a91923561111a565b8390517f6697b232000000000000000000000000000000000000000000000000000000008152fd5b50903461012e57817ffffffffffffffffffffffffffffffffffffffffffffffffffffffffffffffffc36011261012e57610b7e610e8d565b6024359182151580930361064a577fdf8b4c520ffe197c5343c6f5aec59570151ef9a492f2c624fd45ddde6135ec428086528560205284862033875260205260ff858720541615610c445750507ffc4acb499491cd850a8a21ab98c7f128850c0f0e5f1a875a62b7fa055c2ecf199173ffffffffffffffffffffffffffffffffffffffff6020921693848652600383528086207fffffffffffffffffffffffffffffffffffffffffffffffffffffffffffffff0081541660ff841617905551908152a280f35b604492508451917fe2517d3f00000000000000000000000000000000000000000000000000000000835233908301526024820152fd5b503461012e57807ffffffffffffffffffffffffffffffffffffffffffffffffffffffffffffffffc36011261012e5761012a9135610cbb6001610114610eb5565b611070565b8382346106a757817ffffffffffffffffffffffffffffffffffffffffffffffffffffffffffffffffc3601126106a757602090517fdf8b4c520ffe197c5343c6f5aec59570151ef9a492f2c624fd45ddde6135ec428152f35b50903461012e5760207ffffffffffffffffffffffffffffffffffffffffffffffffffffffffffffffffc36011261012e57816020936001923581528085522001549051908152f35b50903461012e57817ffffffffffffffffffffffffffffffffffffffffffffffffffffffffffffffffc36011261012e578160209360ff9273ffffffffffffffffffffffffffffffffffffffff610db5610e8d565b16825285528181206024358252855220541690519015158152f35b8490843461012e5760207ffffffffffffffffffffffffffffffffffffffffffffffffffffffffffffffffc36011261012e57357fffffffff00000000000000000000000000000000000000000000000000000000811680910361012e57602092507f7965db0b000000000000000000000000000000000000000000000000000000008114908115610e63575b5015158152f35b7f01ffc9a70000000000000000000000000000000000000000000000000000000091501483610e5c565b6004359073ffffffffffffffffffffffffffffffffffffffff82168203610eb057565b600080fd5b6024359073ffffffffffffffffffffffffffffffffffffffff82168203610eb057565b919082519283825260005b848110610f225750507fffffffffffffffffffffffffffffffffffffffffffffffffffffffffffffffe0601f8460006020809697860101520116010190565b602081830181015184830182015201610ee3565b6040810190811067ffffffffffffffff821117610f5257604052565b7f4e487b7100000000000000000000000000000000000000000000000000000000600052604160045260246000fd5b90601f7fffffffffffffffffffffffffffffffffffffffffffffffffffffffffffffffe0910116810190811067ffffffffffffffff821117610f5257604052565b60043573ffffffffffffffffffffffffffffffffffffffff81168103610eb05790565b60643567ffffffffffffffff81168103610eb05790565b60443567ffffffffffffffff81168103610eb05790565b80600052600060205260406000203360005260205260ff60406000205416156110395750565b604490604051907fe2517d3f0000000000000000000000000000000000000000000000000000000082523360048301526024820152fd5b906000918083528260205273ffffffffffffffffffffffffffffffffffffffff6040842092169182845260205260ff604084205416156000146111155780835282602052604083208284526020526040832060017fffffffffffffffffffffffffffffffffffffffffffffffffffffffffffffff008254161790557f2f8788117e7eff1d82e926ec794901d17c78024a50270940304540a733656f0d339380a4600190565b505090565b906000918083528260205273ffffffffffffffffffffffffffffffffffffffff6040842092169182845260205260ff604084205416600014611115578083528260205260408320828452602052604083207fffffffffffffffffffffffffffffffffffffffffffffffffffffffffffffff0081541690557ff6391f5c32d9c69d2a47ea670b442974b53935d1edc7fd64eb21e047a839171b339380a4600190565b60ff81146112115760ff811690601f82116111e757604051916111dd83610f36565b8252602082015290565b60046040517fb3512b0c000000000000000000000000000000000000000000000000000000008152fd5b506040516000600190600154918260011c906001841693841561132e575b602094858410811461130157838752869493929181156112c25750600114611263575b505061126092500382610f81565b90565b9093915060016000527fb10e2d527612073b26eecdfd717e6a320cf44b4afac2b0732d9fcbe2b7fa0cf6936000915b8183106112aa57505061126093508201013880611252565b85548784018501529485019486945091830191611292565b90506112609593507fffffffffffffffffffffffffffffffffffffffffffffffffffffffffffffff0091501682840152151560051b8201013880611252565b6024857f4e487b710000000000000000000000000000000000000000000000000000000081526022600452fd5b91607f169161122f565b60ff811461135a5760ff811690601f82116111e757604051916111dd83610f36565b5060405160006002549060018260011c9060018416938415611406575b602094858410811461130157838752869493929181156112c257506001146113a757505061126092500382610f81565b9093915060026000527f405787fa12a823e0f2b7631cc41b3ba8828b3321ca811111fa75cd3aa3bb5ace936000915b8183106113ee57505061126093508201013880611252565b855487840185015294850194869450918301916113d6565b91607f1691611377565b73ffffffffffffffffffffffffffffffffffffffff7f00000000000000000000000000000000000000000000000000000000000000001630148061151f575b15611478577f000000000000000000000000000000000000000000000000000000000000000090565b60405160208101907f8b73c3c69bb8fe3d512ecc4cf759cc79239f7b179b0ffacaa9a75d522b39400f82527f000000000000000000000000000000000000000000000000000000000000000060408201527f000000000000000000000000000000000000000000000000000000000000000060608201524660808201523060a082015260a0815260c0810181811067ffffffffffffffff821117610f525760405251902090565b507f0000000000000000000000000000000000000000000000000000000000000000461461144f565b81519190604183036115795761157292506020820151906060604084015193015160001a9061166b565b9192909190565b505060009160029190565b600481101561163c5780611596575050565b600181036115c85760046040517ff645eedf000000000000000000000000000000000000000000000000000000008152fd5b6002810361160157602482604051907ffce698f70000000000000000000000000000000000000000000000000000000082526004820152fd5b60031461160b5750565b602490604051907fd78bce0c0000000000000000000000000000000000000000000000000000000082526004820152fd5b7f4e487b7100000000000000000000000000000000000000000000000000000000600052602160045260246000fd5b91907f7fffffffffffffffffffffffffffffff5d576e7357a4501ddfe92f46681b20a084116116fc57926020929160ff608095604051948552168484015260408301526060820152600092839182805260015afa156116f057805173ffffffffffffffffffffffffffffffffffffffff8116156116e757918190565b50809160019190565b604051903d90823e3d90fd5b5050506000916003919056fea2646970667358221220daca5b6a9a755464633f4715f14cda8644ccdcbadfa4e24fc0eb8bf39bda7b9164736f6c634300081800332f8788117e7eff1d82e926ec794901d17c78024a50270940304540a733656f0d","linkReferences":{}},"methodIdentifiers":{"ADMIN()":"2a0acc6a","DEFAULT_ADMIN_ROLE()":"a217fddf","NAVREPORT_TYPEHASH()":"9047be7a","VAULT_SETTER()":"b1bcc8dd","eip712Domain()":"84b0196e","getRoleAdmin(bytes32)":"248a9ca3","grantRole(bytes32,address)":"2f2ff15d","hasRole(bytes32,address)":"91d14854","nonceUsed(address,uint256)":"1647795e","renounceRole(bytes32,address)":"36568abe","revokeRole(bytes32,address)":"d547741f","setSigner(address,bool)":"31cb6105","setupVaultRole(address)":"b1a2f4c5","signerAllowed(address)":"5f38d2da","submitSignedReport((address,uint256,uint64,uint64,uint256),bytes)":"b9409d31","supportsInterface(bytes4)":"01ffc9a7"},"id":66}