{"abi":[{"type":"function","name":"ADMIN_ROLE","inputs":[],"outputs":[{"name":"","type":"bytes32","internalType":"bytes32"}],"stateMutability":"view"},{"type":"function","name":"DEFAULT_ADMIN_ROLE","inputs":[],"outputs":[{"name":"","type":"bytes32","internalType":"bytes32"}],"stateMutability":"view"},{"type":"function","name":"FEED_ROLE","inputs":[],"outputs":[{"name":"","type":"bytes32","internalType":"bytes32"}],"stateMutability":"view"},{"type":"function","name":"UPGRADE_INTERFACE_VERSION","inputs":[],"outputs":[{"name":"","type":"string","internalType":"string"}],"stateMutability":"view"},{"type":"function","name":"checkCAR","inputs":[],"outputs":[{"name":"ok","type":"bool","internalType":"bool"},{"name":"reserves","type":"uint256","internalType":"uint256"},{"name":"required","type":"uint256","internalType":"uint256"}],"stateMutability":"view"},{"type":"function","name":"eligibleReserve","inputs":[],"outputs":[{"name":"","type":"address","internalType":"contract IEligibleReserve"}],"stateMutability":"view"},{"type":"function","name":"getRoleAdmin","inputs":[{"name":"role","type":"bytes32","internalType":"bytes32"}],"outputs":[{"name":"","type":"bytes32","internalType":"bytes32"}],"stateMutability":"view"},{"type":"function","name":"grantRole","inputs":[{"name":"role","type":"bytes32","internalType":"bytes32"},{"name":"account","type":"address","internalType":"address"}],"outputs":[],"stateMutability":"nonpayable"},{"type":"function","name":"hasRole","inputs":[{"name":"role","type":"bytes32","internalType":"bytes32"},{"name":"account","type":"address","internalType":"address"}],"outputs":[{"name":"","type":"bool","internalType":"bool"}],"stateMutability":"view"},{"type":"function","name":"initialize","inputs":[{"name":"admin","type":"address","internalType":"address"},{"name":"_risk","type":"address","internalType":"address"},{"name":"_eligible","type":"address","internalType":"address"},{"name":"_minCARbps","type":"uint16","internalType":"uint16"}],"outputs":[],"stateMutability":"nonpayable"},{"type":"function","name":"liabilitiesUSD18","inputs":[],"outputs":[{"name":"","type":"uint256","internalType":"uint256"}],"stateMutability":"view"},{"type":"function","name":"minCARbps","inputs":[],"outputs":[{"name":"","type":"uint16","internalType":"uint16"}],"stateMutability":"view"},{"type":"function","name":"proxiableUUID","inputs":[],"outputs":[{"name":"","type":"bytes32","internalType":"bytes32"}],"stateMutability":"view"},{"type":"function","name":"pushLiabilitiesUSD","inputs":[{"name":"liab","type":"uint256","internalType":"uint256"}],"outputs":[],"stateMutability":"nonpayable"},{"type":"function","name":"renounceRole","inputs":[{"name":"role","type":"bytes32","internalType":"bytes32"},{"name":"callerConfirmation","type":"address","internalType":"address"}],"outputs":[],"stateMutability":"nonpayable"},{"type":"function","name":"revokeRole","inputs":[{"name":"role","type":"bytes32","internalType":"bytes32"},{"name":"account","type":"address","internalType":"address"}],"outputs":[],"stateMutability":"nonpayable"},{"type":"function","name":"riskWeights","inputs":[],"outputs":[{"name":"","type":"address","internalType":"contract IRiskWeights"}],"stateMutability":"view"},{"type":"function","name":"setFeeds","inputs":[{"name":"_risk","type":"address","internalType":"address"},{"name":"_eligible","type":"address","internalType":"address"}],"outputs":[],"stateMutability":"nonpayable"},{"type":"function","name":"setMinCAR","inputs":[{"name":"bps","type":"uint16","internalType":"uint16"}],"outputs":[],"stateMutability":"nonpayable"},{"type":"function","name":"supportsInterface","inputs":[{"name":"interfaceId","type":"bytes4","internalType":"bytes4"}],"outputs":[{"name":"","type":"bool","internalType":"bool"}],"stateMutability":"view"},{"type":"function","name":"upgradeToAndCall","inputs":[{"name":"newImplementation","type":"address","internalType":"address"},{"name":"data","type":"bytes","internalType":"bytes"}],"outputs":[],"stateMutability":"payable"},{"type":"event","name":"Initialized","inputs":[{"name":"version","type":"uint64","indexed":false,"internalType":"uint64"}],"anonymous":false},{"type":"event","name":"LiabilitiesUpdated","inputs":[{"name":"liabilitiesUSD18","type":"uint256","indexed":false,"internalType":"uint256"}],"anonymous":false},{"type":"event","name":"MinCARSet","inputs":[{"name":"bps","type":"uint16","indexed":false,"internalType":"uint16"}],"anonymous":false},{"type":"event","name":"RiskFeedsSet","inputs":[{"name":"riskWeights","type":"address","indexed":false,"internalType":"address"},{"name":"eligibleReserve","type":"address","indexed":false,"internalType":"address"}],"anonymous":false},{"type":"event","name":"RoleAdminChanged","inputs":[{"name":"role","type":"bytes32","indexed":true,"internalType":"bytes32"},{"name":"previousAdminRole","type":"bytes32","indexed":true,"internalType":"bytes32"},{"name":"newAdminRole","type":"bytes32","indexed":true,"internalType":"bytes32"}],"anonymous":false},{"type":"event","name":"RoleGranted","inputs":[{"name":"role","type":"bytes32","indexed":true,"internalType":"bytes32"},{"name":"account","type":"address","indexed":true,"internalType":"address"},{"name":"sender","type":"address","indexed":true,"internalType":"address"}],"anonymous":false},{"type":"event","name":"RoleRevoked","inputs":[{"name":"role","type":"bytes32","indexed":true,"internalType":"bytes32"},{"name":"account","type":"address","indexed":true,"internalType":"address"},{"name":"sender","type":"address","indexed":true,"internalType":"address"}],"anonymous":false},{"type":"event","name":"Upgraded","inputs":[{"name":"implementation","type":"address","indexed":true,"internalType":"address"}],"anonymous":false},{"type":"error","name":"AccessControlBadConfirmation","inputs":[]},{"type":"error","name":"AccessControlUnauthorizedAccount","inputs":[{"name":"account","type":"address","internalType":"address"},{"name":"neededRole","type":"bytes32","internalType":"bytes32"}]},{"type":"error","name":"AddressEmptyCode","inputs":[{"name":"target","type":"address","internalType":"address"}]},{"type":"error","name":"ERC1967InvalidImplementation","inputs":[{"name":"implementation","type":"address","internalType":"address"}]},{"type":"error","name":"ERC1967NonPayable","inputs":[]},{"type":"error","name":"FailedInnerCall","inputs":[]},{"type":"error","name":"InvalidInitialization","inputs":[]},{"type":"error","name":"NotInitializing","inputs":[]},{"type":"error","name":"UUPSUnauthorizedCallContext","inputs":[]},{"type":"error","name":"UUPSUnsupportedProxiableUUID","inputs":[{"name":"slot","type":"bytes32","internalType":"bytes32"}]}],"bytecode":{"object":"0x60a0806040523461002a57306080526118099081610030823960805181818161081301526109310152f35b600080fdfe608060408181526004908136101561001657600080fd5b600092833560e01c90816301ffc9a7146110ee57508063248a9ca31461108657806326fe3aea146110455780632e11275714610df05780632f2ff15d14610daa57806336568abe14610d1f57806343f8d69a14610c815780634725ff8614610c2e5780634f1ef2861461088b57806352d1902d146107cb57806356b33537146107055780635f23a911146106ac578063620bcc371461066f57806375b238fc1461061657806381d54b11146105c557806391d1485414610535578063a217fddf146104f8578063ad3cb1cc146103ec578063d547741f14610371578063dddc54741461027b5763f6e9a3651461010b57600080fd5b3461026357827ffffffffffffffffffffffffffffffffffffffffffffffffffffffffffffffffc360112610263578192602073ffffffffffffffffffffffffffffffffffffffff600154168351948580927f466bc7a00000000000000000000000000000000000000000000000000000000082525afa92831561026f578193610237575b5060025490612710918281029080820484149015171561020b578290049061ffff60035416918281029281840414901517156101df57506060945004908051928281101584526020840152820152f35b806011877f4e487b71000000000000000000000000000000000000000000000000000000006024945252fd5b6024826011887f4e487b7100000000000000000000000000000000000000000000000000000000835252fd5b9092506020813d602011610267575b81610253602093836111f6565b810103126102635751913861018f565b8280fd5b3d9150610246565b509051903d90823e3d90fd5b50346102635760207ffffffffffffffffffffffffffffffffffffffffffffffffffffffffffffffffc360112610263578135917fde88772519aecb8ef5969f48549d9b26132e5593b3fc798955a547f63c01ecf48085527f02dd7bc7dec4dceedda775e58dd541e08a116c6c53815c0bd028192f7b62680060205282852033865260205260ff83862054161561033d57847faf1bda6e31058b7a5214699acf53cafd70ea8e914bcf04c9af2d4b2ba44b56ec602086868160025551908152a180f35b60449251917fe2517d3f00000000000000000000000000000000000000000000000000000000835233908301526024820152fd5b503461026357807ffffffffffffffffffffffffffffffffffffffffffffffffffffffffffffffffc360112610263576103e891356103e360016103b26111d3565b938387527f02dd7bc7dec4dceedda775e58dd541e08a116c6c53815c0bd028192f7b626800602052862001546115d4565b611619565b5080f35b50903461026357827ffffffffffffffffffffffffffffffffffffffffffffffffffffffffffffffffc360112610263578151908282019082821067ffffffffffffffff8311176104cc57508252600581526020907f352e302e300000000000000000000000000000000000000000000000000000006020820152825193849260208452825192836020860152825b8481106104b657505050828201840152601f017fffffffffffffffffffffffffffffffffffffffffffffffffffffffffffffffe0168101030190f35b818101830151888201880152879550820161047a565b8460416024927f4e487b7100000000000000000000000000000000000000000000000000000000835252fd5b83823461053157817ffffffffffffffffffffffffffffffffffffffffffffffffffffffffffffffffc3601126105315751908152602090f35b5080fd5b50903461026357817ffffffffffffffffffffffffffffffffffffffffffffffffffffffffffffffffc360112610263578160209360ff926105746111d3565b903582527f02dd7bc7dec4dceedda775e58dd541e08a116c6c53815c0bd028192f7b626800865273ffffffffffffffffffffffffffffffffffffffff83832091168252855220541690519015158152f35b83823461053157817ffffffffffffffffffffffffffffffffffffffffffffffffffffffffffffffffc3601126105315773ffffffffffffffffffffffffffffffffffffffff60209254169051908152f35b83823461053157817ffffffffffffffffffffffffffffffffffffffffffffffffffffffffffffffffc36011261053157602090517fa49807205ce4d355092ef5a8a18f56e8913cf4a201fbe287825b095693c217758152f35b83823461053157817ffffffffffffffffffffffffffffffffffffffffffffffffffffffffffffffffc360112610531576020906002549051908152f35b83823461053157817ffffffffffffffffffffffffffffffffffffffffffffffffffffffffffffffffc36011261053157602090517fde88772519aecb8ef5969f48549d9b26132e5593b3fc798955a547f63c01ecf48152f35b83823461053157807ffffffffffffffffffffffffffffffffffffffffffffffffffffffffffffffffc360112610531577fcef32e50cb777299353b4efbf0b410f613a74eef29bb2fb37642059ccd63e90d9061075f6111ab565b6107676111d3565b61076f611541565b73ffffffffffffffffffffffffffffffffffffffff809216917fffffffffffffffffffffffff0000000000000000000000000000000000000000918383885416178755168091600154161760015582519182526020820152a180f35b50823461088857807ffffffffffffffffffffffffffffffffffffffffffffffffffffffffffffffffc360112610888575073ffffffffffffffffffffffffffffffffffffffff7f000000000000000000000000000000000000000000000000000000000000000016300361086257602090517f360894a13ba1a3210667c828492db98dca3e2076cc3735a920a3ca505d382bbc8152f35b517fe07c8dba000000000000000000000000000000000000000000000000000000008152fd5b80fd5b50807ffffffffffffffffffffffffffffffffffffffffffffffffffffffffffffffffc360112610263576108bd6111ab565b90602493843567ffffffffffffffff8111610531573660238201121561053157808501356108ea81611266565b946108f7855196876111f6565b81865260209182870193368a8383010111610c2a578186928b86930187378801015273ffffffffffffffffffffffffffffffffffffffff807f000000000000000000000000000000000000000000000000000000000000000016803014908115610bfc575b50610bd4578480527f02dd7bc7dec4dceedda775e58dd541e08a116c6c53815c0bd028192f7b6268008352858520338652835260ff868620541615610b9f5781169585517f52d1902d00000000000000000000000000000000000000000000000000000000815283818a818b5afa869181610b6c575b50610a075750505050505051917f4c9c8ce3000000000000000000000000000000000000000000000000000000008352820152fd5b9088888894938c7f360894a13ba1a3210667c828492db98dca3e2076cc3735a920a3ca505d382bbc91828103610b3f5750853b15610b12575080547fffffffffffffffffffffffff000000000000000000000000000000000000000016821790558451889392917fbc7cd75a20ee27fd9adebab32041f755214dbc6bffa90cc0225b39da2e5c2d3b8580a2825115610adb5750506103e89582915190845af4913d15610ad1573d610ac3610aba82611266565b925192836111f6565b81528581943d92013e611733565b5060609250611733565b955095505050505034610aed57505080f35b7fb398979f000000000000000000000000000000000000000000000000000000008152fd5b83838851917f4c9c8ce3000000000000000000000000000000000000000000000000000000008352820152fd5b84908851917faa1d49a4000000000000000000000000000000000000000000000000000000008352820152fd5b9091508481813d8311610b98575b610b8481836111f6565b81010312610b94575190386109d2565b8680fd5b503d610b7a565b604488868b8951927fe2517d3f0000000000000000000000000000000000000000000000000000000084523390840152820152fd5b8786517fe07c8dba000000000000000000000000000000000000000000000000000000008152fd5b9050817f360894a13ba1a3210667c828492db98dca3e2076cc3735a920a3ca505d382bbc541614153861095c565b8580fd5b83823461053157817ffffffffffffffffffffffffffffffffffffffffffffffffffffffffffffffffc3601126105315760209073ffffffffffffffffffffffffffffffffffffffff600154169051908152f35b5090346102635760207ffffffffffffffffffffffffffffffffffffffffffffffffffffffffffffffffc36011261026357359061ffff8216809203610263577fb6933b4ba95451971167f8ba8965aa8f5eb0f56bf966e4038603e7199b3d8f2c91602091610ced611541565b817fffffffffffffffffffffffffffffffffffffffffffffffffffffffffffff0000600354161760035551908152a180f35b5082903461053157807ffffffffffffffffffffffffffffffffffffffffffffffffffffffffffffffffc36011261053157610d586111d3565b903373ffffffffffffffffffffffffffffffffffffffff831603610d8257506103e8919235611619565b8390517f6697b232000000000000000000000000000000000000000000000000000000008152fd5b503461026357807ffffffffffffffffffffffffffffffffffffffffffffffffffffffffffffffffc360112610263576103e89135610deb60016103b26111d3565b61147c565b5090346102635760807ffffffffffffffffffffffffffffffffffffffffffffffffffffffffffffffffc36011261026357610e296111ab565b90610e326111d3565b6044359073ffffffffffffffffffffffffffffffffffffffff808316809303610b945760643561ffff8116809103611041577ff0c57e16840df040f15088dc2f81fe391c3923bec73e23a9662efc9c229c6a0095865460ff818a1c16159667ffffffffffffffff821680159081611039575b600114908161102f575b159081611026575b50610fff575090818760017fffffffffffffffffffffffffffffffffffffffffffffffff0000000000000000610f0f9516178a55610fca575b50610ef86116da565b610f006116da565b610f09816112a0565b5061137d565b507fffffffffffffffffffffffffffffffffffffffffffffffffffffffffffff000060035416176003557fffffffffffffffffffffffff00000000000000000000000000000000000000009116818754161786556001541617600155610f73578280f35b7fc7f505b2f371ae2175ee4913f4499e1f2633a7b5936321eed1cdaeb6115181d291817fffffffffffffffffffffffffffffffffffffffffffffff00ffffffffffffffff602093541690555160018152a138808280f35b7fffffffffffffffffffffffffffffffffffffffffffffff000000000000000000166801000000000000000117885538610eef565b89517ff92ee8a9000000000000000000000000000000000000000000000000000000008152fd5b90501538610eb6565b303b159150610eae565b899150610ea4565b8780fd5b83823461053157817ffffffffffffffffffffffffffffffffffffffffffffffffffffffffffffffffc3601126105315760209061ffff600354169051908152f35b5090346102635760207ffffffffffffffffffffffffffffffffffffffffffffffffffffffffffffffffc36011261026357816020936001923581527f02dd7bc7dec4dceedda775e58dd541e08a116c6c53815c0bd028192f7b62680085522001549051908152f35b849084346102635760207ffffffffffffffffffffffffffffffffffffffffffffffffffffffffffffffffc36011261026357357fffffffff00000000000000000000000000000000000000000000000000000000811680910361026357602092507f7965db0b000000000000000000000000000000000000000000000000000000008114908115611181575b5015158152f35b7f01ffc9a7000000000000000000000000000000000000000000000000000000009150148361117a565b6004359073ffffffffffffffffffffffffffffffffffffffff821682036111ce57565b600080fd5b6024359073ffffffffffffffffffffffffffffffffffffffff821682036111ce57565b90601f7fffffffffffffffffffffffffffffffffffffffffffffffffffffffffffffffe0910116810190811067ffffffffffffffff82111761123757604052565b7f4e487b7100000000000000000000000000000000000000000000000000000000600052604160045260246000fd5b67ffffffffffffffff811161123757601f017fffffffffffffffffffffffffffffffffffffffffffffffffffffffffffffffe01660200190565b73ffffffffffffffffffffffffffffffffffffffff1660008181527fb7db2dd08fcb62d0c9e08c51941cae53c267786a0b75803fb7960902fc8ef97d60205260408120549091907f02dd7bc7dec4dceedda775e58dd541e08a116c6c53815c0bd028192f7b6268009060ff1661137857828052602052604082208183526020526040822060017fffffffffffffffffffffffffffffffffffffffffffffffffffffffffffffff0082541617905533917f2f8788117e7eff1d82e926ec794901d17c78024a50270940304540a733656f0d8180a4600190565b505090565b73ffffffffffffffffffffffffffffffffffffffff1660008181527fb16e88c42fd4e48df2dd6a2eabd6bc9aec654ec170056b470819f8892cc6431c60205260408120549091907fa49807205ce4d355092ef5a8a18f56e8913cf4a201fbe287825b095693c21775907f02dd7bc7dec4dceedda775e58dd541e08a116c6c53815c0bd028192f7b6268009060ff1661147657818452602052604083208284526020526040832060017fffffffffffffffffffffffffffffffffffffffffffffffffffffffffffffff008254161790557f2f8788117e7eff1d82e926ec794901d17c78024a50270940304540a733656f0d339380a4600190565b50505090565b906000918083527f02dd7bc7dec4dceedda775e58dd541e08a116c6c53815c0bd028192f7b6268008060205273ffffffffffffffffffffffffffffffffffffffff6040852093169283855260205260ff6040852054161560001461147657818452602052604083208284526020526040832060017fffffffffffffffffffffffffffffffffffffffffffffffffffffffffffffff008254161790557f2f8788117e7eff1d82e926ec794901d17c78024a50270940304540a733656f0d339380a4600190565b3360009081527fb16e88c42fd4e48df2dd6a2eabd6bc9aec654ec170056b470819f8892cc6431c60205260409020547fa49807205ce4d355092ef5a8a18f56e8913cf4a201fbe287825b095693c217759060ff161561159d5750565b604490604051907fe2517d3f0000000000000000000000000000000000000000000000000000000082523360048301526024820152fd5b806000527f02dd7bc7dec4dceedda775e58dd541e08a116c6c53815c0bd028192f7b62680060205260406000203360005260205260ff604060002054161561159d5750565b906000918083527f02dd7bc7dec4dceedda775e58dd541e08a116c6c53815c0bd028192f7b6268008060205273ffffffffffffffffffffffffffffffffffffffff6040852093169283855260205260ff6040852054166000146114765781845260205260408320828452602052604083207fffffffffffffffffffffffffffffffffffffffffffffffffffffffffffffff0081541690557ff6391f5c32d9c69d2a47ea670b442974b53935d1edc7fd64eb21e047a839171b339380a4600190565b60ff7ff0c57e16840df040f15088dc2f81fe391c3923bec73e23a9662efc9c229c6a005460401c161561170957565b60046040517fd7e6bcf8000000000000000000000000000000000000000000000000000000008152fd5b90611772575080511561174857805190602001fd5b60046040517f1425ea42000000000000000000000000000000000000000000000000000000008152fd5b815115806117ca575b611783575090565b60249073ffffffffffffffffffffffffffffffffffffffff604051917f9996b315000000000000000000000000000000000000000000000000000000008352166004820152fd5b50803b1561177b56fea2646970667358221220b7fdcf16f410b6a20e2bd5b6bbd19da89ba5e039fd8492e115a45b70f8025b6464736f6c63430008180033","linkReferences":{}},"methodIdentifiers":{"ADMIN_ROLE()":"75b238fc","DEFAULT_ADMIN_ROLE()":"a217fddf","FEED_ROLE()":"5f23a911","UPGRADE_INTERFACE_VERSION()":"ad3cb1cc","checkCAR()":"f6e9a365","eligibleReserve()":"4725ff86","getRoleAdmin(bytes32)":"248a9ca3","grantRole(bytes32,address)":"2f2ff15d","hasRole(bytes32,address)":"91d14854","initialize(address,address,address,uint16)":"2e112757","liabilitiesUSD18()":"620bcc37","minCARbps()":"26fe3aea","proxiableUUID()":"52d1902d","pushLiabilitiesUSD(uint256)":"dddc5474","renounceRole(bytes32,address)":"36568abe","revokeRole(bytes32,address)":"d547741f","riskWeights()":"81d54b11","setFeeds(address,address)":"56b33537","setMinCAR(uint16)":"43f8d69a","supportsInterface(bytes4)":"01ffc9a7","upgradeToAndCall(address,bytes)":"4f1ef286"},"id":71}