{"abi":[{"type":"constructor","inputs":[{"name":"_admin","type":"address","internalType":"address"}],"stateMutability":"nonpayable"},{"type":"function","name":"admin","inputs":[],"outputs":[{"name":"","type":"address","internalType":"address"}],"stateMutability":"view"},{"type":"function","name":"kind","inputs":[],"outputs":[{"name":"","type":"uint8","internalType":"enum IRail.Kind"}],"stateMutability":"pure"},{"type":"function","name":"prepare","inputs":[{"name":"t","type":"tuple","internalType":"struct IRail.Transfer","components":[{"name":"asset","type":"address","internalType":"address"},{"name":"from","type":"address","internalType":"address"},{"name":"to","type":"address","internalType":"address"},{"name":"amount","type":"uint256","internalType":"uint256"},{"name":"metadata","type":"bytes","internalType":"bytes"}]}],"outputs":[],"stateMutability":"payable"},{"type":"function","name":"refund","inputs":[{"name":"id","type":"bytes32","internalType":"bytes32"},{"name":"t","type":"tuple","internalType":"struct IRail.Transfer","components":[{"name":"asset","type":"address","internalType":"address"},{"name":"from","type":"address","internalType":"address"},{"name":"to","type":"address","internalType":"address"},{"name":"amount","type":"uint256","internalType":"uint256"},{"name":"metadata","type":"bytes","internalType":"bytes"}]}],"outputs":[],"stateMutability":"nonpayable"},{"type":"function","name":"release","inputs":[{"name":"id","type":"bytes32","internalType":"bytes32"},{"name":"t","type":"tuple","internalType":"struct IRail.Transfer","components":[{"name":"asset","type":"address","internalType":"address"},{"name":"from","type":"address","internalType":"address"},{"name":"to","type":"address","internalType":"address"},{"name":"amount","type":"uint256","internalType":"uint256"},{"name":"metadata","type":"bytes","internalType":"bytes"}]}],"outputs":[],"stateMutability":"nonpayable"},{"type":"function","name":"status","inputs":[{"name":"id","type":"bytes32","internalType":"bytes32"}],"outputs":[{"name":"","type":"uint8","internalType":"enum IRail.Status"}],"stateMutability":"view"},{"type":"function","name":"transferId","inputs":[{"name":"t","type":"tuple","internalType":"struct IRail.Transfer","components":[{"name":"asset","type":"address","internalType":"address"},{"name":"from","type":"address","internalType":"address"},{"name":"to","type":"address","internalType":"address"},{"name":"amount","type":"uint256","internalType":"uint256"},{"name":"metadata","type":"bytes","internalType":"bytes"}]}],"outputs":[{"name":"","type":"bytes32","internalType":"bytes32"}],"stateMutability":"pure"},{"type":"event","name":"RailCancelled","inputs":[{"name":"id","type":"bytes32","indexed":true,"internalType":"bytes32"}],"anonymous":false},{"type":"event","name":"RailPrepared","inputs":[{"name":"id","type":"bytes32","indexed":true,"internalType":"bytes32"},{"name":"from","type":"address","indexed":true,"internalType":"address"},{"name":"to","type":"address","indexed":true,"internalType":"address"},{"name":"asset","type":"address","indexed":false,"internalType":"address"},{"name":"amount","type":"uint256","indexed":false,"internalType":"uint256"}],"anonymous":false},{"type":"event","name":"RailRefunded","inputs":[{"name":"id","type":"bytes32","indexed":true,"internalType":"bytes32"},{"name":"to","type":"address","indexed":true,"internalType":"address"},{"name":"asset","type":"address","indexed":false,"internalType":"address"},{"name":"amount","type":"uint256","indexed":false,"internalType":"uint256"}],"anonymous":false},{"type":"event","name":"RailReleased","inputs":[{"name":"id","type":"bytes32","indexed":true,"internalType":"bytes32"},{"name":"to","type":"address","indexed":true,"internalType":"address"},{"name":"asset","type":"address","indexed":false,"internalType":"address"},{"name":"amount","type":"uint256","indexed":false,"internalType":"uint256"}],"anonymous":false}],"bytecode":{"object":"0x6080346100a857601f610c7238819003918201601f19168301916001600160401b038311848410176100ad578084926020946040528339810103126100a857516001600160a01b038116908190036100a857801561007a57600080546001600160a01b031916919091179055604051610bae90816100c48239f35b60405162461bcd60e51b815260206004820152600660248201526505232303a20360d41b6044820152606490fd5b600080fd5b634e487b7160e01b600052604160045260246000fdfe608060408181526004918236101561001657600080fd5b600092833560e01c91826304baa00b146108165750816308432d571461052f5781634dd6e2b51461050d57816352ad0d5e1461048c57816390ee1dfa1461031a578163cfcb5b1b146100c5575063f851a4401461007257600080fd5b346100c157817ffffffffffffffffffffffffffffffffffffffffffffffffffffffffffffffffc3601126100c15773ffffffffffffffffffffffffffffffffffffffff60209254169051908152f35b5080fd5b905034610316576100d5366108a2565b73ffffffffffffffffffffffffffffffffffffffff929192916100fc838754163314610aae565b83865260206001815260ff868820541660058110156102ea5760016101219114610b13565b8487526001815285872060037fffffffffffffffffffffffffffffffffffffffffffffffffffffffffffffff008254161790558361015e846108f6565b1691818401916101d081610171856108f6565b60608801359687918d8d518096819582947fa9059cbb0000000000000000000000000000000000000000000000000000000084528b84016020909392919373ffffffffffffffffffffffffffffffffffffffff60408201951681520152565b03925af19081156102e0578a916102b3575b50156102575750507f368c9a8588242d513faa21c32bf5aaee15ee1150a43690313e009727607c71d393929161022361021d610251936108f6565b936108f6565b965173ffffffffffffffffffffffffffffffffffffffff909716875260208701529116939081906040820190565b0390a380f35b606492508751917f08c379a0000000000000000000000000000000000000000000000000000000008352820152601060248201527f5232303a20726566756e64206661696c000000000000000000000000000000006044820152fd5b6102d39150823d84116102d9575b6102cb8183610917565b810190610987565b386101e2565b503d6102c1565b89513d8c823e3d90fd5b6024886021857f4e487b7100000000000000000000000000000000000000000000000000000000835252fd5b8280fd5b9050346103165761032a366108a2565b73ffffffffffffffffffffffffffffffffffffffff92919291610351838754163314610aae565b83865260206001815260ff868820541660058110156102ea5760016103769114610b13565b8487526001815285872060027fffffffffffffffffffffffffffffffffffffffffffffffffffffffffffffff00825416179055836103b3846108f6565b1691868401916103c681610171856108f6565b03925af19081156102e0578a9161046f575b50156104135750507fd246ccc6c6f9471c400e2ef416699d6cef45c429f224da93084d39b3f807286b93929161022361021d610251936108f6565b606492508751917f08c379a0000000000000000000000000000000000000000000000000000000008352820152600e60248201527f5232303a2078666572206661696c0000000000000000000000000000000000006044820152fd5b6104869150823d84116102d9576102cb8183610917565b386103d8565b8383346100c15760207ffffffffffffffffffffffffffffffffffffffffffffffffffffffffffffffffc3601126100c15782358252600160205260ff818320541690519160058210156104e157602083838152f35b806021857f4e487b71000000000000000000000000000000000000000000000000000000006024945252fd5b5050346100c1576020906105286105233661084d565b61099f565b9051908152f35b838361053a3661084d565b73ffffffffffffffffffffffffffffffffffffffff80610559836108f6565b16156107b9576105688261099f565b918285526020956001875260ff8587205416600581101561078d5761073157859683610593846108f6565b169181840192828660646105a6876108f6565b60608901359c8d958d5196879586947f23b872dd000000000000000000000000000000000000000000000000000000008652168985015230602485015260448401525af1908115610727578a9161070a575b50156106af57506106617f10876f5ef21c4a7c28973a179a5d95ec8815150f2fbf9c39ba9c73132d2589da94939260016106a993888c5252878a2060017fffffffffffffffffffffffffffffffffffffffffffffffffffffffffffffff008254161790556108f6565b96836106776106718986016108f6565b946108f6565b975194859416981696836020909392919373ffffffffffffffffffffffffffffffffffffffff60408201951681520152565b0390a480f35b6064918751917f08c379a0000000000000000000000000000000000000000000000000000000008352820152600e60248201527f5232303a2070756c6c206661696c0000000000000000000000000000000000006044820152fd5b6107219150833d85116102d9576102cb8183610917565b8a6105f8565b88513d8c823e3d90fd5b606490878651917f08c379a0000000000000000000000000000000000000000000000000000000008352820152600b60248201527f5232303a206578697374730000000000000000000000000000000000000000006044820152fd5b6024876021847f4e487b7100000000000000000000000000000000000000000000000000000000835252fd5b60648560208551917f08c379a0000000000000000000000000000000000000000000000000000000008352820152600c60248201527f5232303a206173736574203000000000000000000000000000000000000000006044820152fd5b8490346100c157817ffffffffffffffffffffffffffffffffffffffffffffffffffffffffffffffffc3601126100c1576020918152f35b7ffffffffffffffffffffffffffffffffffffffffffffffffffffffffffffffffc9060208282011261089d576004359167ffffffffffffffff831161089d578260a09203011261089d5760040190565b600080fd5b907ffffffffffffffffffffffffffffffffffffffffffffffffffffffffffffffffc60408184011261089d57600435926024359167ffffffffffffffff831161089d578260a09203011261089d5760040190565b3573ffffffffffffffffffffffffffffffffffffffff8116810361089d5790565b90601f7fffffffffffffffffffffffffffffffffffffffffffffffffffffffffffffffe0910116810190811067ffffffffffffffff82111761095857604052565b7f4e487b7100000000000000000000000000000000000000000000000000000000600052604160045260246000fd5b9081602091031261089d5751801515810361089d5790565b6109a8816108f6565b906109b5602082016108f6565b906109c2604082016108f6565b60808201357fffffffffffffffffffffffffffffffffffffffffffffffffffffffffffffffe18336030181121561089d5782019081359167ffffffffffffffff831161089d5760200192823603841361089d57601f8360e094610aa89660607fffffffffffffffffffffffffffffffffffffffffffffffffffffffffffffffe0956040519a8b9860208a019d8e9273ffffffffffffffffffffffffffffffffffffffff938480931690521660408b015216828901520135608087015260a0808701528160c0870152868601376000858286010152011681010360c0810184520182610917565b51902090565b15610ab557565b60646040517f08c379a000000000000000000000000000000000000000000000000000000000815260206004820152600e60248201527f5232303a206e6f742061646d696e0000000000000000000000000000000000006044820152fd5b15610b1a57565b60646040517f08c379a000000000000000000000000000000000000000000000000000000000815260206004820152600e60248201527f5232303a206261642073746174650000000000000000000000000000000000006044820152fdfea26469706673582212203827b63e5429642e5cdfff65d01215a10c33b4eed78da0ce05e93538e8976b8364736f6c63430008180033","linkReferences":{}},"methodIdentifiers":{"admin()":"f851a440","kind()":"04baa00b","prepare((address,address,address,uint256,bytes))":"08432d57","refund(bytes32,(address,address,address,uint256,bytes))":"cfcb5b1b","release(bytes32,(address,address,address,uint256,bytes))":"90ee1dfa","status(bytes32)":"52ad0d5e","transferId((address,address,address,uint256,bytes))":"4dd6e2b5"},"id":5}