{"abi":[{"type":"constructor","inputs":[{"name":"admin","type":"address","internalType":"address"},{"name":"governor","type":"address","internalType":"address"}],"stateMutability":"nonpayable"},{"type":"function","name":"DEFAULT_ADMIN_ROLE","inputs":[],"outputs":[{"name":"","type":"bytes32","internalType":"bytes32"}],"stateMutability":"view"},{"type":"function","name":"GOVERNOR_ROLE","inputs":[],"outputs":[{"name":"","type":"bytes32","internalType":"bytes32"}],"stateMutability":"view"},{"type":"function","name":"UPDATER_ROLE","inputs":[],"outputs":[{"name":"","type":"bytes32","internalType":"bytes32"}],"stateMutability":"view"},{"type":"function","name":"applyDelta","inputs":[{"name":"id","type":"bytes32","internalType":"bytes32"},{"name":"delta","type":"int256","internalType":"int256"}],"outputs":[],"stateMutability":"nonpayable"},{"type":"function","name":"etfDecimals","inputs":[],"outputs":[{"name":"","type":"uint8","internalType":"uint8"}],"stateMutability":"view"},{"type":"function","name":"etfFallback","inputs":[],"outputs":[{"name":"","type":"address","internalType":"address"}],"stateMutability":"view"},{"type":"function","name":"getRoleAdmin","inputs":[{"name":"role","type":"bytes32","internalType":"bytes32"}],"outputs":[{"name":"","type":"bytes32","internalType":"bytes32"}],"stateMutability":"view"},{"type":"function","name":"grantRole","inputs":[{"name":"role","type":"bytes32","internalType":"bytes32"},{"name":"account","type":"address","internalType":"address"}],"outputs":[],"stateMutability":"nonpayable"},{"type":"function","name":"hasRole","inputs":[{"name":"role","type":"bytes32","internalType":"bytes32"},{"name":"account","type":"address","internalType":"address"}],"outputs":[{"name":"","type":"bool","internalType":"bool"}],"stateMutability":"view"},{"type":"function","name":"ids","inputs":[{"name":"","type":"uint256","internalType":"uint256"}],"outputs":[{"name":"","type":"bytes32","internalType":"bytes32"}],"stateMutability":"view"},{"type":"function","name":"nav1e18","inputs":[],"outputs":[{"name":"nav","type":"uint256","internalType":"uint256"},{"name":"asOf","type":"uint64","internalType":"uint64"}],"stateMutability":"view"},{"type":"function","name":"positions","inputs":[{"name":"","type":"bytes32","internalType":"bytes32"}],"outputs":[{"name":"assetId","type":"bytes32","internalType":"bytes32"},{"name":"qty","type":"int256","internalType":"int256"},{"name":"adapter","type":"address","internalType":"address"}],"stateMutability":"view"},{"type":"function","name":"renounceRole","inputs":[{"name":"role","type":"bytes32","internalType":"bytes32"},{"name":"callerConfirmation","type":"address","internalType":"address"}],"outputs":[],"stateMutability":"nonpayable"},{"type":"function","name":"revokeRole","inputs":[{"name":"role","type":"bytes32","internalType":"bytes32"},{"name":"account","type":"address","internalType":"address"}],"outputs":[],"stateMutability":"nonpayable"},{"type":"function","name":"setFallback","inputs":[{"name":"agg","type":"address","internalType":"address"}],"outputs":[],"stateMutability":"nonpayable"},{"type":"function","name":"setPosition","inputs":[{"name":"id","type":"bytes32","internalType":"bytes32"},{"name":"assetId","type":"bytes32","internalType":"bytes32"},{"name":"qty","type":"int256","internalType":"int256"},{"name":"adapter","type":"address","internalType":"address"}],"outputs":[],"stateMutability":"nonpayable"},{"type":"function","name":"supportsInterface","inputs":[{"name":"interfaceId","type":"bytes4","internalType":"bytes4"}],"outputs":[{"name":"","type":"bool","internalType":"bool"}],"stateMutability":"view"},{"type":"event","name":"FallbackSet","inputs":[{"name":"agg","type":"address","indexed":false,"internalType":"address"},{"name":"decimals","type":"uint8","indexed":false,"internalType":"uint8"}],"anonymous":false},{"type":"event","name":"PositionDelta","inputs":[{"name":"id","type":"bytes32","indexed":true,"internalType":"bytes32"},{"name":"delta","type":"int256","indexed":false,"internalType":"int256"}],"anonymous":false},{"type":"event","name":"PositionSet","inputs":[{"name":"id","type":"bytes32","indexed":true,"internalType":"bytes32"},{"name":"assetId","type":"bytes32","indexed":false,"internalType":"bytes32"},{"name":"qty","type":"int256","indexed":false,"internalType":"int256"},{"name":"adapter","type":"address","indexed":false,"internalType":"address"}],"anonymous":false},{"type":"event","name":"RoleAdminChanged","inputs":[{"name":"role","type":"bytes32","indexed":true,"internalType":"bytes32"},{"name":"previousAdminRole","type":"bytes32","indexed":true,"internalType":"bytes32"},{"name":"newAdminRole","type":"bytes32","indexed":true,"internalType":"bytes32"}],"anonymous":false},{"type":"event","name":"RoleGranted","inputs":[{"name":"role","type":"bytes32","indexed":true,"internalType":"bytes32"},{"name":"account","type":"address","indexed":true,"internalType":"address"},{"name":"sender","type":"address","indexed":true,"internalType":"address"}],"anonymous":false},{"type":"event","name":"RoleRevoked","inputs":[{"name":"role","type":"bytes32","indexed":true,"internalType":"bytes32"},{"name":"account","type":"address","indexed":true,"internalType":"address"},{"name":"sender","type":"address","indexed":true,"internalType":"address"}],"anonymous":false},{"type":"error","name":"AccessControlBadConfirmation","inputs":[]},{"type":"error","name":"AccessControlUnauthorizedAccount","inputs":[{"name":"account","type":"address","internalType":"address"},{"name":"neededRole","type":"bytes32","internalType":"bytes32"}]}],"bytecode":{"object":"0x6080346200008257601f620015d038819003918201601f19168301916001600160401b03831184841017620000875780849260409485528339810103126200008257806200006a6200006360206200005b62000071956200009d565b93016200009d565b91620000b2565b5062000132565b506040516113db9081620001d58239f35b600080fd5b634e487b7160e01b600052604160045260246000fd5b51906001600160a01b03821682036200008257565b6001600160a01b031660008181527fad3228b676f7d3cd4284a5443f17f1962b36e491b30a40b2405849e597ba5fb5602052604081205490919060ff166200012e57818052816020526040822081835260205260408220600160ff198254161790553391600080516020620015b08339815191528180a4600190565b5090565b6001600160a01b031660008181527f6f3b488caa0dc03e5f3d9fd6a25fa8755afcfd62ccffb6e436c696bfa6b866de60205260408120549091907f7935bd0ae54bc31f548c14dba4d37c5c64b3f8ca900cb468fb8abd54d5894f559060ff16620001cf57808352826020526040832082845260205260408320600160ff19825416179055600080516020620015b0833981519152339380a4600190565b50509056fe6080604081815260048036101561001557600080fd5b600092833560e01c90816301ffc9a714610f73575080630deb919314610f30578063248a9ca314610ee95780632f2ff15d14610ea257806332b12eac14610c8f57806336568abe14610c0457806347e6338014610bab578063514ea4bf14610b355780637526b89a1461060e57806391d148541461059f578063a217fddf14610566578063bf567dab1461036b578063ccc5749014610312578063d547741f146102b6578063e88551ed14610191578063f3ffd1bc1461013a5763fac333ac146100de57600080fd5b346101365760207ffffffffffffffffffffffffffffffffffffffffffffffffffffffffffffffffc3601126101365735916002548310156101335750610125602092611058565b91905490519160031b1c8152f35b80fd5b8280fd5b50503461018d57817ffffffffffffffffffffffffffffffffffffffffffffffffffffffffffffffffc36011261018d5760209073ffffffffffffffffffffffffffffffffffffffff600354169051908152f35b5080fd5b503461013657817ffffffffffffffffffffffffffffffffffffffffffffffffffffffffffffffffc36011261013657803591602435916101cf6111a1565b8385526001602052818520805415610259576001018054918483019287868512911290801582169115161761022d575055519081527f331afba49ebeb472620db1faf97d436af693b092e947bd70d581d64db5569a4590602090a280f35b8660116024927f4e487b7100000000000000000000000000000000000000000000000000000000835252fd5b50602060649251917f08c379a0000000000000000000000000000000000000000000000000000000008352820152600360248201527f706f7300000000000000000000000000000000000000000000000000000000006044820152fd5b50903461013657807ffffffffffffffffffffffffffffffffffffffffffffffffffffffffffffffffc3601126101365761030e913561030960016102f8611030565b938387528660205286200154611234565b611304565b5080f35b50503461018d57817ffffffffffffffffffffffffffffffffffffffffffffffffffffffffffffffffc36011261018d57602090517f7935bd0ae54bc31f548c14dba4d37c5c64b3f8ca900cb468fb8abd54d5894f558152f35b5091903461018d5760807ffffffffffffffffffffffffffffffffffffffffffffffffffffffffffffffffc36011261018d57823590602435604435916064359073ffffffffffffffffffffffffffffffffffffffff9687831690818403610562576103d46111a1565b868852600160205282882054156104a7575b50906104a192917ff5c4a3cb00f933ef67e51d970f63838d4f00bb1e96ee3630148cb8100b675b379697986002835161041e816110be565b878152602081018981528582019485528b8d526001602052858d2091518255516001820155019151167fffffffffffffffffffffffff0000000000000000000000000000000000000000825416179055519384938491604091949373ffffffffffffffffffffffffffffffffffffffff9160608501968552602085015216910152565b0390a280f35b9760025468010000000000000000811015610536577ff5c4a3cb00f933ef67e51d970f63838d4f00bb1e96ee3630148cb8100b675b3797989950906104f88260016104a19796959401600255611058565b81549060031b907fffffffffffffffffffffffffffffffffffffffffffffffffffffffffffffffff8c831b921b1916179055989796509091926103e6565b60248960418c7f4e487b7100000000000000000000000000000000000000000000000000000000835252fd5b8780fd5b50503461018d57817ffffffffffffffffffffffffffffffffffffffffffffffffffffffffffffffffc36011261018d5751908152602090f35b503461013657817ffffffffffffffffffffffffffffffffffffffffffffffffffffffffffffffffc360112610136578160209360ff926105dd611030565b9035825281865273ffffffffffffffffffffffffffffffffffffffff83832091168252855220541690519015158152f35b5082903461018d57817ffffffffffffffffffffffffffffffffffffffffffffffffffffffffffffffffc36011261018d578167ffffffffffffffff91848260028054915b8281106108ed57505050508315806108cc575b6106a7575b505067ffffffffffffffff81811603610698575067ffffffffffffffff8042165b8351928352166020820152f35b67ffffffffffffffff9061068b565b925090506003548351927ffeaf968c00000000000000000000000000000000000000000000000000000000845260a084828173ffffffffffffffffffffffffffffffffffffffff86165afa9384156108c2578390849561086f575b509160a01c60ff168260128210156107a7575060120360ff811161077b5761072990611161565b9182810292818404149015171561074f575067ffffffffffffffff905b9216908461066a565b8260116024927f4e487b7100000000000000000000000000000000000000000000000000000000835252fd5b6024846011847f4e487b7100000000000000000000000000000000000000000000000000000000835252fd5b90601281949394116107c6575b505067ffffffffffffffff9150610746565b7fffffffffffffffffffffffffffffffffffffffffffffffffffffffffffffffee9192500160ff8111610843576107fc90611161565b91821561081757509067ffffffffffffffff910485806107b4565b8360126024927f4e487b7100000000000000000000000000000000000000000000000000000000835252fd5b6024846011857f4e487b7100000000000000000000000000000000000000000000000000000000835252fd5b94505060a0843d60a0116108ba575b8161088b60a09383611109565b810103126101365761089c8461114a565b5060208401516108b360806060870151960161114a565b5086610702565b3d915061087e565b85513d85823e3d90fd5b5073ffffffffffffffffffffffffffffffffffffffff600354161515610665565b909192966108fa82611058565b90549060031b1c8652600160208181528988208a51610918816110be565b73ffffffffffffffffffffffffffffffffffffffff87835495868452840154938584019485520154169b8c9101528b8051809c81957f65a255c90000000000000000000000000000000000000000000000000000000083528b83015260249586915afa9a8b15610b2b5789928a9c610ade575b5050517f800000000000000000000000000000000000000000000000000000000000000091808202918a821284821416610ab3578183051490151715610a8857670de0b6b3a7640000900590888212610a4757508201809211610a1d5750965b67ffffffffffffffff871667ffffffffffffffff821610610a14575b5060010190879291610652565b95506001610a07565b866011877f4e487b7100000000000000000000000000000000000000000000000000000000835252fd5b8114610a5d578201918211610a1d5750966109eb565b50866011877f4e487b7100000000000000000000000000000000000000000000000000000000835252fd5b828960118a7f4e487b7100000000000000000000000000000000000000000000000000000000835252fd5b848b60118c7f4e487b7100000000000000000000000000000000000000000000000000000000835252fd5b919b5091508b82813d8311610b24575b610af88183611109565b81010312610b205781519101519067ffffffffffffffff82168203610b205790998c8061098b565b8880fd5b503d610aee565b8c513d8b823e3d90fd5b50346101365760207ffffffffffffffffffffffffffffffffffffffffffffffffffffffffffffffffc36011261013657358252600160208181529282902080549181015460029091015492519182529281019290925273ffffffffffffffffffffffffffffffffffffffff166040820152606090f35b50503461018d57817ffffffffffffffffffffffffffffffffffffffffffffffffffffffffffffffffc36011261018d57602090517f73e573f9566d61418a34d5de3ff49360f9c51fec37f7486551670290f6285dab8152f35b5091903461018d57807ffffffffffffffffffffffffffffffffffffffffffffffffffffffffffffffffc36011261018d57610c3d611030565b903373ffffffffffffffffffffffffffffffffffffffff831603610c67575061030e919235611304565b8390517f6697b232000000000000000000000000000000000000000000000000000000008152fd5b509034610136576020807ffffffffffffffffffffffffffffffffffffffffffffffffffffffffffffffffc360112610e9e5782359073ffffffffffffffffffffffffffffffffffffffff8216809203610e9a577f7935bd0ae54bc31f548c14dba4d37c5c64b3f8ca900cb468fb8abd54d5894f55808652858252838620338752825260ff848720541615610e64575060035493827fffffffffffffffffffffffff000000000000000000000000000000000000000086161760035581845180927f313ce56700000000000000000000000000000000000000000000000000000000825281865afa908115610e5a578691610dff575b507fc153f11cb7e75c7a2077f7e35e525c70289389fb9bba13cc36858f416057a61494837fffffffffffffffffffffff00000000000000000000000000000000000000000074ff000000000000000000000000000000000000000060ff9460a01b169216171780600355845193845260a01c1690820152a180f35b90508181813d8311610e53575b610e168183611109565b81010312610e4f575160ff81168103610e4f577fc153f11cb7e75c7a2077f7e35e525c70289389fb9bba13cc36858f416057a614610d84565b8580fd5b503d610e0c565b84513d88823e3d90fd5b846044918551917fe2517d3f00000000000000000000000000000000000000000000000000000000835233908301526024820152fd5b8480fd5b8380fd5b50903461013657807ffffffffffffffffffffffffffffffffffffffffffffffffffffffffffffffffc3601126101365761030e9135610ee460016102f8611030565b61125a565b50346101365760207ffffffffffffffffffffffffffffffffffffffffffffffffffffffffffffffffc36011261013657816020936001923581528085522001549051908152f35b50503461018d57817ffffffffffffffffffffffffffffffffffffffffffffffffffffffffffffffffc36011261018d5760209060ff60035460a01c169051908152f35b925050346101365760207ffffffffffffffffffffffffffffffffffffffffffffffffffffffffffffffffc36011261013657357fffffffff00000000000000000000000000000000000000000000000000000000811680910361013657602092507f7965db0b000000000000000000000000000000000000000000000000000000008114908115611006575b5015158152f35b7f01ffc9a70000000000000000000000000000000000000000000000000000000091501438610fff565b6024359073ffffffffffffffffffffffffffffffffffffffff8216820361105357565b600080fd5b60025481101561108f5760026000527f405787fa12a823e0f2b7631cc41b3ba8828b3321ca811111fa75cd3aa3bb5ace0190600090565b7f4e487b7100000000000000000000000000000000000000000000000000000000600052603260045260246000fd5b6060810190811067ffffffffffffffff8211176110da57604052565b7f4e487b7100000000000000000000000000000000000000000000000000000000600052604160045260246000fd5b90601f7fffffffffffffffffffffffffffffffffffffffffffffffffffffffffffffffe0910116810190811067ffffffffffffffff8211176110da57604052565b519069ffffffffffffffffffff8216820361105357565b60ff16604d811161117257600a0a90565b7f4e487b7100000000000000000000000000000000000000000000000000000000600052601160045260246000fd5b3360009081527f738678fe42df6a4211eb7628ac9b056229141839eb4f4ef4cc249f1d36e8c92160205260409020547f73e573f9566d61418a34d5de3ff49360f9c51fec37f7486551670290f6285dab9060ff16156111fd5750565b604490604051907fe2517d3f0000000000000000000000000000000000000000000000000000000082523360048301526024820152fd5b80600052600060205260406000203360005260205260ff60406000205416156111fd5750565b906000918083528260205273ffffffffffffffffffffffffffffffffffffffff6040842092169182845260205260ff604084205416156000146112ff5780835282602052604083208284526020526040832060017fffffffffffffffffffffffffffffffffffffffffffffffffffffffffffffff008254161790557f2f8788117e7eff1d82e926ec794901d17c78024a50270940304540a733656f0d339380a4600190565b505090565b906000918083528260205273ffffffffffffffffffffffffffffffffffffffff6040842092169182845260205260ff6040842054166000146112ff578083528260205260408320828452602052604083207fffffffffffffffffffffffffffffffffffffffffffffffffffffffffffffff0081541690557ff6391f5c32d9c69d2a47ea670b442974b53935d1edc7fd64eb21e047a839171b339380a460019056fea264697066735822122053aea959e976a8d82abe8a184cb3612c610d3d992d8baaba6c8d25185dfb7c9464736f6c634300081800332f8788117e7eff1d82e926ec794901d17c78024a50270940304540a733656f0d","linkReferences":{}},"methodIdentifiers":{"DEFAULT_ADMIN_ROLE()":"a217fddf","GOVERNOR_ROLE()":"ccc57490","UPDATER_ROLE()":"47e63380","applyDelta(bytes32,int256)":"e88551ed","etfDecimals()":"0deb9193","etfFallback()":"f3ffd1bc","getRoleAdmin(bytes32)":"248a9ca3","grantRole(bytes32,address)":"2f2ff15d","hasRole(bytes32,address)":"91d14854","ids(uint256)":"fac333ac","nav1e18()":"7526b89a","positions(bytes32)":"514ea4bf","renounceRole(bytes32,address)":"36568abe","revokeRole(bytes32,address)":"d547741f","setFallback(address)":"32b12eac","setPosition(bytes32,bytes32,int256,address)":"bf567dab","supportsInterface(bytes4)":"01ffc9a7"},"id":55}