{"abi":[{"type":"constructor","inputs":[{"name":"admin","type":"address","internalType":"address"}],"stateMutability":"nonpayable"},{"type":"function","name":"DEFAULT_ADMIN_ROLE","inputs":[],"outputs":[{"name":"","type":"bytes32","internalType":"bytes32"}],"stateMutability":"view"},{"type":"function","name":"approve","inputs":[{"name":"to","type":"address","internalType":"address"},{"name":"tokenId","type":"uint256","internalType":"uint256"}],"outputs":[],"stateMutability":"nonpayable"},{"type":"function","name":"balanceOf","inputs":[{"name":"owner","type":"address","internalType":"address"}],"outputs":[{"name":"","type":"uint256","internalType":"uint256"}],"stateMutability":"view"},{"type":"function","name":"cancel","inputs":[{"name":"tokenId","type":"uint256","internalType":"uint256"}],"outputs":[],"stateMutability":"nonpayable"},{"type":"function","name":"draw","inputs":[{"name":"tokenId","type":"uint256","internalType":"uint256"}],"outputs":[],"stateMutability":"nonpayable"},{"type":"function","name":"expire","inputs":[{"name":"tokenId","type":"uint256","internalType":"uint256"}],"outputs":[],"stateMutability":"nonpayable"},{"type":"function","name":"getApproved","inputs":[{"name":"tokenId","type":"uint256","internalType":"uint256"}],"outputs":[{"name":"","type":"address","internalType":"address"}],"stateMutability":"view"},{"type":"function","name":"getRoleAdmin","inputs":[{"name":"role","type":"bytes32","internalType":"bytes32"}],"outputs":[{"name":"","type":"bytes32","internalType":"bytes32"}],"stateMutability":"view"},{"type":"function","name":"grantRole","inputs":[{"name":"role","type":"bytes32","internalType":"bytes32"},{"name":"account","type":"address","internalType":"address"}],"outputs":[],"stateMutability":"nonpayable"},{"type":"function","name":"hasRole","inputs":[{"name":"role","type":"bytes32","internalType":"bytes32"},{"name":"account","type":"address","internalType":"address"}],"outputs":[{"name":"","type":"bool","internalType":"bool"}],"stateMutability":"view"},{"type":"function","name":"isApprovedForAll","inputs":[{"name":"owner","type":"address","internalType":"address"},{"name":"operator","type":"address","internalType":"address"}],"outputs":[{"name":"","type":"bool","internalType":"bool"}],"stateMutability":"view"},{"type":"function","name":"issue","inputs":[{"name":"issuerLEI","type":"bytes32","internalType":"bytes32"},{"name":"beneficiary","type":"address","internalType":"address"},{"name":"faceValue","type":"uint256","internalType":"uint256"},{"name":"issueDate","type":"uint64","internalType":"uint64"},{"name":"expiry","type":"uint64","internalType":"uint64"}],"outputs":[{"name":"tokenId","type":"uint256","internalType":"uint256"}],"stateMutability":"nonpayable"},{"type":"function","name":"letters","inputs":[{"name":"","type":"uint256","internalType":"uint256"}],"outputs":[{"name":"issuerLEI","type":"bytes32","internalType":"bytes32"},{"name":"beneficiary","type":"address","internalType":"address"},{"name":"faceValue","type":"uint256","internalType":"uint256"},{"name":"issueDate","type":"uint64","internalType":"uint64"},{"name":"expiry","type":"uint64","internalType":"uint64"},{"name":"status","type":"uint8","internalType":"enum SBLC721.Status"}],"stateMutability":"view"},{"type":"function","name":"name","inputs":[],"outputs":[{"name":"","type":"string","internalType":"string"}],"stateMutability":"view"},{"type":"function","name":"ownerOf","inputs":[{"name":"tokenId","type":"uint256","internalType":"uint256"}],"outputs":[{"name":"","type":"address","internalType":"address"}],"stateMutability":"view"},{"type":"function","name":"pause","inputs":[],"outputs":[],"stateMutability":"nonpayable"},{"type":"function","name":"paused","inputs":[],"outputs":[{"name":"","type":"bool","internalType":"bool"}],"stateMutability":"view"},{"type":"function","name":"renounceRole","inputs":[{"name":"role","type":"bytes32","internalType":"bytes32"},{"name":"callerConfirmation","type":"address","internalType":"address"}],"outputs":[],"stateMutability":"nonpayable"},{"type":"function","name":"revokeRole","inputs":[{"name":"role","type":"bytes32","internalType":"bytes32"},{"name":"account","type":"address","internalType":"address"}],"outputs":[],"stateMutability":"nonpayable"},{"type":"function","name":"safeTransferFrom","inputs":[{"name":"from","type":"address","internalType":"address"},{"name":"to","type":"address","internalType":"address"},{"name":"tokenId","type":"uint256","internalType":"uint256"}],"outputs":[],"stateMutability":"nonpayable"},{"type":"function","name":"safeTransferFrom","inputs":[{"name":"from","type":"address","internalType":"address"},{"name":"to","type":"address","internalType":"address"},{"name":"tokenId","type":"uint256","internalType":"uint256"},{"name":"data","type":"bytes","internalType":"bytes"}],"outputs":[],"stateMutability":"nonpayable"},{"type":"function","name":"setApprovalForAll","inputs":[{"name":"operator","type":"address","internalType":"address"},{"name":"approved","type":"bool","internalType":"bool"}],"outputs":[],"stateMutability":"nonpayable"},{"type":"function","name":"supportsInterface","inputs":[{"name":"interfaceId","type":"bytes4","internalType":"bytes4"}],"outputs":[{"name":"","type":"bool","internalType":"bool"}],"stateMutability":"view"},{"type":"function","name":"symbol","inputs":[],"outputs":[{"name":"","type":"string","internalType":"string"}],"stateMutability":"view"},{"type":"function","name":"tokenURI","inputs":[{"name":"tokenId","type":"uint256","internalType":"uint256"}],"outputs":[{"name":"","type":"string","internalType":"string"}],"stateMutability":"view"},{"type":"function","name":"transferFrom","inputs":[{"name":"from","type":"address","internalType":"address"},{"name":"to","type":"address","internalType":"address"},{"name":"tokenId","type":"uint256","internalType":"uint256"}],"outputs":[],"stateMutability":"nonpayable"},{"type":"function","name":"unpause","inputs":[],"outputs":[],"stateMutability":"nonpayable"},{"type":"event","name":"Approval","inputs":[{"name":"owner","type":"address","indexed":true,"internalType":"address"},{"name":"approved","type":"address","indexed":true,"internalType":"address"},{"name":"tokenId","type":"uint256","indexed":true,"internalType":"uint256"}],"anonymous":false},{"type":"event","name":"ApprovalForAll","inputs":[{"name":"owner","type":"address","indexed":true,"internalType":"address"},{"name":"operator","type":"address","indexed":true,"internalType":"address"},{"name":"approved","type":"bool","indexed":false,"internalType":"bool"}],"anonymous":false},{"type":"event","name":"LetterCancelled","inputs":[{"name":"tokenId","type":"uint256","indexed":true,"internalType":"uint256"}],"anonymous":false},{"type":"event","name":"LetterDrawn","inputs":[{"name":"tokenId","type":"uint256","indexed":true,"internalType":"uint256"}],"anonymous":false},{"type":"event","name":"LetterExpired","inputs":[{"name":"tokenId","type":"uint256","indexed":true,"internalType":"uint256"}],"anonymous":false},{"type":"event","name":"LetterIssued","inputs":[{"name":"tokenId","type":"uint256","indexed":true,"internalType":"uint256"},{"name":"issuerLEI","type":"bytes32","indexed":false,"internalType":"bytes32"},{"name":"beneficiary","type":"address","indexed":false,"internalType":"address"},{"name":"faceValue","type":"uint256","indexed":false,"internalType":"uint256"}],"anonymous":false},{"type":"event","name":"Paused","inputs":[{"name":"account","type":"address","indexed":false,"internalType":"address"}],"anonymous":false},{"type":"event","name":"RoleAdminChanged","inputs":[{"name":"role","type":"bytes32","indexed":true,"internalType":"bytes32"},{"name":"previousAdminRole","type":"bytes32","indexed":true,"internalType":"bytes32"},{"name":"newAdminRole","type":"bytes32","indexed":true,"internalType":"bytes32"}],"anonymous":false},{"type":"event","name":"RoleGranted","inputs":[{"name":"role","type":"bytes32","indexed":true,"internalType":"bytes32"},{"name":"account","type":"address","indexed":true,"internalType":"address"},{"name":"sender","type":"address","indexed":true,"internalType":"address"}],"anonymous":false},{"type":"event","name":"RoleRevoked","inputs":[{"name":"role","type":"bytes32","indexed":true,"internalType":"bytes32"},{"name":"account","type":"address","indexed":true,"internalType":"address"},{"name":"sender","type":"address","indexed":true,"internalType":"address"}],"anonymous":false},{"type":"event","name":"Transfer","inputs":[{"name":"from","type":"address","indexed":true,"internalType":"address"},{"name":"to","type":"address","indexed":true,"internalType":"address"},{"name":"tokenId","type":"uint256","indexed":true,"internalType":"uint256"}],"anonymous":false},{"type":"event","name":"Unpaused","inputs":[{"name":"account","type":"address","indexed":false,"internalType":"address"}],"anonymous":false},{"type":"error","name":"AccessControlBadConfirmation","inputs":[]},{"type":"error","name":"AccessControlUnauthorizedAccount","inputs":[{"name":"account","type":"address","internalType":"address"},{"name":"neededRole","type":"bytes32","internalType":"bytes32"}]},{"type":"error","name":"ERC721IncorrectOwner","inputs":[{"name":"sender","type":"address","internalType":"address"},{"name":"tokenId","type":"uint256","internalType":"uint256"},{"name":"owner","type":"address","internalType":"address"}]},{"type":"error","name":"ERC721InsufficientApproval","inputs":[{"name":"operator","type":"address","internalType":"address"},{"name":"tokenId","type":"uint256","internalType":"uint256"}]},{"type":"error","name":"ERC721InvalidApprover","inputs":[{"name":"approver","type":"address","internalType":"address"}]},{"type":"error","name":"ERC721InvalidOperator","inputs":[{"name":"operator","type":"address","internalType":"address"}]},{"type":"error","name":"ERC721InvalidOwner","inputs":[{"name":"owner","type":"address","internalType":"address"}]},{"type":"error","name":"ERC721InvalidReceiver","inputs":[{"name":"receiver","type":"address","internalType":"address"}]},{"type":"error","name":"ERC721InvalidSender","inputs":[{"name":"sender","type":"address","internalType":"address"}]},{"type":"error","name":"ERC721NonexistentToken","inputs":[{"name":"tokenId","type":"uint256","internalType":"uint256"}]},{"type":"error","name":"EnforcedPause","inputs":[]},{"type":"error","name":"ExpectedPause","inputs":[]}],"bytecode":{"object":"0x6080346200038757601f1990601f906001600160401b03620027dd3881900384810186168401838111858210176200037157849282916040528339602093849181010312620003875751926001600160a01b03841684036200038757620000656200038c565b92601884527f5374616e646279204c6574746572206f6620437265646974000000000000000081850152620000996200038c565b90600482526353424c4360e01b8183015284519684881162000371576000978854966001978881811c9116801562000366575b858210146200035257908187849311620002ff575b5084908783116001146200029e578b9262000292575b5050600019600383901b1c191690871b1788555b82519485116200027e5785548681811c9116801562000273575b838210146200025f5784811162000217575b5081938511600114620001ae575050908291620001919692620001a2575b5050600019600383901b1c191690821b1790555b60ff19600754166007556200017e81620003ac565b506200018a816200044f565b50620004ed565b5060405161223190816200058c8239f35b01519050388062000155565b8588528188209497908816915b828210620001ff575050918493918762000191989410620001e5575b505050811b01905562000169565b015160001960f88460031b161c19169055388080620001d7565b808786978294978701518155019601940190620001bb565b8689528289208580880160051c82019285891062000255575b0160051c019087905b8281106200024957505062000137565b8a815501879062000239565b9250819262000230565b634e487b7160e01b89526022600452602489fd5b90607f169062000125565b634e487b7160e01b88526041600452602488fd5b015190503880620000f7565b90848a9416918c8052868d20928d5b88828210620002e85750508411620002ce575b505050811b0188556200010b565b015160001960f88460031b161c19169055388080620002c0565b8385015186558d97909501949384019301620002ad565b9091508a8052848b208780850160051c82019287861062000348575b918b91869594930160051c01915b82811062000339575050620000e1565b8d81558594508b910162000329565b925081926200031b565b634e487b7160e01b8b52602260045260248bfd5b90607f1690620000cc565b634e487b7160e01b600052604160045260246000fd5b600080fd5b60408051919082016001600160401b038111838210176200037157604052565b6001600160a01b031660008181527f31f4bc5980931cfff8fcc0887a354f492c853dee1983bdef4d9cb3e8a5ff876e60205260408120549091907fdf8b4c520ffe197c5343c6f5aec59570151ef9a492f2c624fd45ddde6135ec429060ff166200044a5780835260066020526040832082845260205260408320600160ff19825416179055600080516020620027bd833981519152339380a4600190565b505090565b6001600160a01b031660008181527fc0c6dd4f7aedf943ac46b952a0594f795b891c30544bfc4cb4ae23b82a4d909b60205260408120549091907f76afa8a5929fef1b4c03674b2152ae5aaad1d974b8a4021c59477bcc846ccc1e9060ff166200044a5780835260066020526040832082845260205260408320600160ff19825416179055600080516020620027bd833981519152339380a4600190565b6001600160a01b031660008181527fba39d2e119d4075e56dadcfd5cd5b862305d2c4d32649e4866948958647d49cf60205260408120549091907f8b5b16d04624687fcf0d0228f19993c9157c1ed07b41d8d430fd9100eb099fe89060ff166200044a5780835260066020526040832082845260205260408320600160ff19825416179055600080516020620027bd833981519152339380a460019056fe60806040908082526004918236101561001757600080fd5b600091823560e01c90816301ffc9a7146117805750806306fdde0314611695578063081812fc14611630578063095ea7b3146114df57806323b872dd146114c7578063248a9ca31461147e5780632f2ff15d1461143657806336568abe146113ad5780633b3041471461126e5780633f4ba83a146111af57806340e58ee5146110bc57806342842e0e1461108e5780635c975abb1461104d5780636352211e14610ff257806370a0823114610f595780638456cb5914610ec357806391d1485414610e5257806395d89b4114610ce0578063a217fddf14610ca8578063a22cb46514610ba4578063a2a0e4c314610acf578063b88d4fde14610a1c578063bf81bf43146108b8578063c87b56dd14610849578063d547741f146107eb578063e985e9c5146107735763ff1869371461014e57600080fd5b3461076f5760a07ffffffffffffffffffffffffffffffffffffffffffffffffffffffffffffffffc36011261076f578235610187611927565b93604435906064359467ffffffffffffffff9687871680970361076f576084359688881680980361076b577f76afa8a5929fef1b4c03674b2152ae5aaad1d974b8a4021c59477bcc846ccc1e9889845260209960068b528885203386528b5260ff89862054161561073557506101fb611ffc565b888210156106d957600854917fffffffffffffffffffffffffffffffffffffffffffffffffffffffffffffffff928381146106ad57600101998a60085589519260c084018481108282111761068157918c8c9694928f9a9998969488528c85528a8501948c73ffffffffffffffffffffffffffffffffffffffff998a8a169d8e8952818401928352606084019788526080840196875260a08401958d87528d52600990528b20915182558960018301975116967fffffffffffffffffffffffff000000000000000000000000000000000000000097888254161790555160028201556003019351168d84549351901b6fffffffffffffffff00000000000000001691518a8110156106555770ff000000000000000000000000000000007fffffffffffffffffffffffffffffff00000000000000000000000000000000009160801b1693161717179055895193610351856119aa565b8585528715610626578a8c9260028f8b94868b52828252848b2054169384151597886105d7575b50858b52600382528a2060018154019055858a5252828d8920918254161790557fddf252ad1be2c89b69c2b068fc378daa952ba7f163c4a11628f55a4df523b3ef8780a46105a8573b610404575b50505084927f721dd0a071b55dc1474bd9e3d428d2ecdb8d4093ec1d31ffbfc1d721ae0b38d49260609286519283528883015285820152a251908152f35b8695929793969491945189818061045c7f150b7a0200000000000000000000000000000000000000000000000000000000958683528d33908401528a60248401528960448401526080606484015260848301906118a1565b0381898c5af186918161054c575b506104e35750505050503d6000146104db573d61048681611a36565b90610493845192836119f5565b81528091863d92013e5b805194856104d55750506024935051917f64a0ae92000000000000000000000000000000000000000000000000000000008352820152fd5b85925001fd5b50606061049d565b7fffffffff0000000000000000000000000000000000000000000000000000000091929550979295969397160361051e5750828260606103c6565b6024918551917f64a0ae92000000000000000000000000000000000000000000000000000000008352820152fd5b9091508a81813d83116105a1575b61056481836119f5565b8101031261059d57517fffffffff000000000000000000000000000000000000000000000000000000008116810361059d57903861046a565b8680fd5b503d61055a565b602484848a51917f73c6ac6e000000000000000000000000000000000000000000000000000000008352820152fd5b61061088600052600460205260406000207fffffffffffffffffffffffff00000000000000000000000000000000000000008154169055565b858c5260038352818c2090815401905538610378565b602487878d51917f64a0ae92000000000000000000000000000000000000000000000000000000008352820152fd5b60248a60218d7f4e487b7100000000000000000000000000000000000000000000000000000000835252fd5b60248860418b7f4e487b7100000000000000000000000000000000000000000000000000000000835252fd5b6024866011897f4e487b7100000000000000000000000000000000000000000000000000000000835252fd5b6064858b8a51917f08c379a0000000000000000000000000000000000000000000000000000000008352820152600960248201527f62616420646174657300000000000000000000000000000000000000000000006044820152fd5b856044918a51917fe2517d3f00000000000000000000000000000000000000000000000000000000835233908301526024820152fd5b8280fd5b5080fd5b503461076f57807ffffffffffffffffffffffffffffffffffffffffffffffffffffffffffffffffc36011261076f5760ff816020936107b06118ff565b6107b8611927565b73ffffffffffffffffffffffffffffffffffffffff91821683526005875283832091168252855220549151911615158152f35b5082903461076b57807ffffffffffffffffffffffffffffffffffffffffffffffffffffffffffffffffc36011261076b576108459135610840600161082e611927565b93838752600660205286200154611e87565b611f59565b5080f35b503461076f5760207ffffffffffffffffffffffffffffffffffffffffffffffffffffffffffffffffc36011261076f576108866108b49335611d37565b50818151610893816119aa565b528051916108a0836119aa565b8252519182916020835260208301906118a1565b0390f35b50823461076b5760207ffffffffffffffffffffffffffffffffffffffffffffffffffffffffffffffffc36011261076b578035916108f4611d98565b82845260096020526003818520019182549160ff8360801c16828110156109f05761091f9015611cd2565b67ffffffffffffffff83821c164211156109935750507fffffffffffffffffffffffffffffff00ffffffffffffffffffffffffffffffff167002000000000000000000000000000000001790557f0d342d4f9e1d82472f6c2a2ef783a826b6872f25f69ac443cfdaa3339f4ad0598280a280f35b90602060649251917f08c379a0000000000000000000000000000000000000000000000000000000008352820152600b60248201527f6e6f7420657870697265640000000000000000000000000000000000000000006044820152fd5b6024876021857f4e487b7100000000000000000000000000000000000000000000000000000000835252fd5b5082903461076b5760807ffffffffffffffffffffffffffffffffffffffffffffffffffffffffffffffffc36011261076b57610a566118ff565b610a5e611927565b60443591856064359567ffffffffffffffff871161076f573660238801121561076f5786013595610a9a610a9188611a36565b965196876119f5565b868652366024888301011161076f5786610acc976024602093018389013786010152610ac7838383611a70565b612032565b80f35b503461076f5760207ffffffffffffffffffffffffffffffffffffffffffffffffffffffffffffffffc36011261076f578235825260096020528082209182549273ffffffffffffffffffffffffffffffffffffffff60018201541692600360028301549201549067ffffffffffffffff9260ff8360801c1695825197885260208801528187015282821660608701521c16608084015283821015610b785760c0838360a0820152f35b806021857f4e487b71000000000000000000000000000000000000000000000000000000006024945252fd5b5082903461076b57807ffffffffffffffffffffffffffffffffffffffffffffffffffffffffffffffffc36011261076b57610bdd6118ff565b9060243591821515809303610ca45773ffffffffffffffffffffffffffffffffffffffff16928315610c76575033845260056020528084208385526020528084207fffffffffffffffffffffffffffffffffffffffffffffffffffffffffffffff0081541660ff8416179055519081527f17307eab39ab6107e8899845ad3d59bd9653f200f220920489ca2b5937696c3160203392a380f35b8360249251917f5b08ba18000000000000000000000000000000000000000000000000000000008352820152fd5b8480fd5b503461076f57817ffffffffffffffffffffffffffffffffffffffffffffffffffffffffffffffffc36011261076f5751908152602090f35b509034610e4f57807ffffffffffffffffffffffffffffffffffffffffffffffffffffffffffffffffc360112610e4f5781519181600192600154938460011c9160018616958615610e45575b6020968785108114610e19578899509688969785829a529182600014610dd4575050600114610d78575b5050506108b49291610d699103856119f5565b519282849384528301906118a1565b9190869350600183527fb10e2d527612073b26eecdfd717e6a320cf44b4afac2b0732d9fcbe2b7fa0cf65b828410610dbc5750505082010181610d696108b4610d56565b8054848a018601528895508794909301928101610da3565b7fffffffffffffffffffffffffffffffffffffffffffffffffffffffffffffff00168782015293151560051b86019093019350849250610d6991506108b49050610d56565b60248360228c7f4e487b7100000000000000000000000000000000000000000000000000000000835252fd5b92607f1692610d2c565b80fd5b50823461076b57817ffffffffffffffffffffffffffffffffffffffffffffffffffffffffffffffffc36011261076b578160209360ff92610e91611927565b903582526006865273ffffffffffffffffffffffffffffffffffffffff83832091168252855220541690519015158152f35b503461076f57817ffffffffffffffffffffffffffffffffffffffffffffffffffffffffffffffffc36011261076f5760207f62e78cea01bee320cd4e420270b5ea74000d11b0c9f74754ebdbfc544b05a25891610f1e611e2b565b610f26611ffc565b60017fffffffffffffffffffffffffffffffffffffffffffffffffffffffffffffff00600754161760075551338152a180f35b509034610e4f5760207ffffffffffffffffffffffffffffffffffffffffffffffffffffffffffffffffc360112610e4f5773ffffffffffffffffffffffffffffffffffffffff610fa76118ff565b16928315610fc45750806020938392526003845220549051908152f35b9060249251917f89c62b64000000000000000000000000000000000000000000000000000000008352820152fd5b509034610e4f5760207ffffffffffffffffffffffffffffffffffffffffffffffffffffffffffffffffc360112610e4f575073ffffffffffffffffffffffffffffffffffffffff61104560209335611d37565b915191168152f35b503461076f57817ffffffffffffffffffffffffffffffffffffffffffffffffffffffffffffffffc36011261076f5760209060ff6007541690519015158152f35b503461076f57610acc906110a13661194a565b919251926110ae846119aa565b858452610ac7838383611a70565b50823461076b5760207ffffffffffffffffffffffffffffffffffffffffffffffffffffffffffffffffc36011261076b5760038135926110fa611d98565b83855260096020528420019081549060ff8260801c1690808210156111835750700300000000000000000000000000000000916111587fffffffffffffffffffffffffffffff00ffffffffffffffffffffffffffffffff9215611cd2565b161790557f85190c4a52fc5a654185db6cab8982c895cfc76c54481746d687732c7250378a8280a280f35b8560216024927f4e487b7100000000000000000000000000000000000000000000000000000000835252fd5b50823461076b57827ffffffffffffffffffffffffffffffffffffffffffffffffffffffffffffffffc36011261076b576111e7611e2b565b6007549060ff82161561124757507f5db9ee0a495bf2e6ff9c91a7834c1ba4fdd244a5e8aa4e537bd38aeae4b073aa917fffffffffffffffffffffffffffffffffffffffffffffffffffffffffffffff006020921660075551338152a180f35b82517f8dfc202b000000000000000000000000000000000000000000000000000000008152fd5b50823461076b5760207ffffffffffffffffffffffffffffffffffffffffffffffffffffffffffffffffc36011261076b578035916112aa611d98565b6112b2611ffc565b82845260096020526003818520019182549160ff8360801c16828110156109f0576112dd9015611cd2565b67ffffffffffffffff83821c1642116113505750507fffffffffffffffffffffffffffffff00ffffffffffffffffffffffffffffffff167001000000000000000000000000000000001790557f0e4f5e9c5d6828bae31b2d581d46b4cedc8194aab26b6074ed77e6ba03fa2df88280a280f35b90602060649251917f08c379a0000000000000000000000000000000000000000000000000000000008352820152600760248201527f65787069726564000000000000000000000000000000000000000000000000006044820152fd5b503461076f57807ffffffffffffffffffffffffffffffffffffffffffffffffffffffffffffffffc36011261076f576113e4611927565b903373ffffffffffffffffffffffffffffffffffffffff83160361140e5750610845919235611f59565b8390517f6697b232000000000000000000000000000000000000000000000000000000008152fd5b5082903461076b57807ffffffffffffffffffffffffffffffffffffffffffffffffffffffffffffffffc36011261076b576108459135611479600161082e611927565b611ead565b50823461076b5760207ffffffffffffffffffffffffffffffffffffffffffffffffffffffffffffffffc36011261076b5781602093600192358152600685522001549051908152f35b8234610e4f57610acc6114d93661194a565b91611a70565b5082903461076b57807ffffffffffffffffffffffffffffffffffffffffffffffffffffffffffffffffc36011261076b576115186118ff565b9160243561152581611d37565b33151580611610575b806115db575b6115ac57819073ffffffffffffffffffffffffffffffffffffffff809616958691167f8c5be1e5ebec7d5bd14f71427d1e84f3dd0314c0f7b2291e5b200ac8c7c3b9258880a484526020528220907fffffffffffffffffffffffff000000000000000000000000000000000000000082541617905580f35b83517fa9fbf51f0000000000000000000000000000000000000000000000000000000081523381850152602490fd5b5073ffffffffffffffffffffffffffffffffffffffff81168652600560205283862033875260205260ff848720541615611534565b503373ffffffffffffffffffffffffffffffffffffffff8216141561152e565b50823461076b5760207ffffffffffffffffffffffffffffffffffffffffffffffffffffffffffffffffc36011261076b57816020938273ffffffffffffffffffffffffffffffffffffffff933561168681611d37565b50825285522054169051908152f35b509034610e4f57807ffffffffffffffffffffffffffffffffffffffffffffffffffffffffffffffffc360112610e4f578151918182549260018460011c9160018616958615611776575b6020968785108114610e19578899509688969785829a529182600014610dd457505060011461171b575050506108b49291610d699103856119f5565b91908693508280527f290decd9548b62a8d60345a988386fc84ba6bc95484008f6362f93160ef3e5635b82841061175e5750505082010181610d696108b4610d56565b8054848a018601528895508794909301928101611745565b92607f16926116df565b8390853461076b5760207ffffffffffffffffffffffffffffffffffffffffffffffffffffffffffffffffc36011261076b57357fffffffff00000000000000000000000000000000000000000000000000000000811680910361076b57602092507f7965db0b000000000000000000000000000000000000000000000000000000008114908115611813575b5015158152f35b7f80ac58cd00000000000000000000000000000000000000000000000000000000811491508115611877575b811561184d575b508361180c565b7f01ffc9a70000000000000000000000000000000000000000000000000000000091501483611846565b7f5b5e139f000000000000000000000000000000000000000000000000000000008114915061183f565b919082519283825260005b8481106118eb5750507fffffffffffffffffffffffffffffffffffffffffffffffffffffffffffffffe0601f8460006020809697860101520116010190565b6020818301810151848301820152016118ac565b6004359073ffffffffffffffffffffffffffffffffffffffff8216820361192257565b600080fd5b6024359073ffffffffffffffffffffffffffffffffffffffff8216820361192257565b7ffffffffffffffffffffffffffffffffffffffffffffffffffffffffffffffffc60609101126119225773ffffffffffffffffffffffffffffffffffffffff90600435828116810361192257916024359081168103611922579060443590565b6020810190811067ffffffffffffffff8211176119c657604052565b7f4e487b7100000000000000000000000000000000000000000000000000000000600052604160045260246000fd5b90601f7fffffffffffffffffffffffffffffffffffffffffffffffffffffffffffffffe0910116810190811067ffffffffffffffff8211176119c657604052565b67ffffffffffffffff81116119c657601f017fffffffffffffffffffffffffffffffffffffffffffffffffffffffffffffffe01660200190565b909173ffffffffffffffffffffffffffffffffffffffff809316928315611ca157600092828452826020956002875260409684888820541696879133151580611bd9575b509060027fddf252ad1be2c89b69c2b068fc378daa952ba7f163c4a11628f55a4df523b3ef9284611b6b575b858352600381528b83206001815401905586835252898120847fffffffffffffffffffffffff000000000000000000000000000000000000000082541617905580a41692838303611b315750505050565b6064945051927f64283d7b000000000000000000000000000000000000000000000000000000008452600484015260248301526044820152fd5b611ba487600052600460205260406000207fffffffffffffffffffffffff00000000000000000000000000000000000000008154169055565b848352600381528b83207fffffffffffffffffffffffffffffffffffffffffffffffffffffffffffffffff8154019055611ae0565b91939450915080611c60575b15611bf557859291879138611ab4565b878688611c2b5760249151907f7e2732890000000000000000000000000000000000000000000000000000000082526004820152fd5b60449151907f177e802f0000000000000000000000000000000000000000000000000000000082523360048301526024820152fd5b503387148015611c85575b80611be55750858252600481523385898420541614611be5565b5086825260058152878220338352815260ff8883205416611c6b565b60246040517f64a0ae9200000000000000000000000000000000000000000000000000000000815260006004820152fd5b15611cd957565b60646040517f08c379a000000000000000000000000000000000000000000000000000000000815260206004820152600a60248201527f6e6f7420616374697665000000000000000000000000000000000000000000006044820152fd5b80600052600260205273ffffffffffffffffffffffffffffffffffffffff60406000205416908115611d67575090565b602490604051907f7e2732890000000000000000000000000000000000000000000000000000000082526004820152fd5b3360009081527f31f4bc5980931cfff8fcc0887a354f492c853dee1983bdef4d9cb3e8a5ff876e60205260409020547fdf8b4c520ffe197c5343c6f5aec59570151ef9a492f2c624fd45ddde6135ec429060ff1615611df45750565b604490604051907fe2517d3f0000000000000000000000000000000000000000000000000000000082523360048301526024820152fd5b3360009081527fba39d2e119d4075e56dadcfd5cd5b862305d2c4d32649e4866948958647d49cf60205260409020547f8b5b16d04624687fcf0d0228f19993c9157c1ed07b41d8d430fd9100eb099fe89060ff1615611df45750565b80600052600660205260406000203360005260205260ff6040600020541615611df45750565b90600091808352600660205273ffffffffffffffffffffffffffffffffffffffff6040842092169182845260205260ff60408420541615600014611f54578083526006602052604083208284526020526040832060017fffffffffffffffffffffffffffffffffffffffffffffffffffffffffffffff008254161790557f2f8788117e7eff1d82e926ec794901d17c78024a50270940304540a733656f0d339380a4600190565b505090565b90600091808352600660205273ffffffffffffffffffffffffffffffffffffffff6040842092169182845260205260ff604084205416600014611f5457808352600660205260408320828452602052604083207fffffffffffffffffffffffffffffffffffffffffffffffffffffffffffffff0081541690557ff6391f5c32d9c69d2a47ea670b442974b53935d1edc7fd64eb21e047a839171b339380a4600190565b60ff6007541661200857565b60046040517fd93c0665000000000000000000000000000000000000000000000000000000008152fd5b813b61203f575b50505050565b73ffffffffffffffffffffffffffffffffffffffff949192939480931693604051937f150b7a020000000000000000000000000000000000000000000000000000000092838652336004870152166024850152604484015260806064840152826120af60209660848301906118a1565b039285816000958187895af18491816121a3575b5061213b575050503d600014612133573d6120dd81611a36565b906120eb60405192836119f5565b81528091843d92013e5b8051928361212e57602483604051907f64a0ae920000000000000000000000000000000000000000000000000000000082526004820152fd5b019050fd5b5060606120f5565b9092507fffffffff000000000000000000000000000000000000000000000000000000009194501603612172575038808080612039565b602490604051907f64a0ae920000000000000000000000000000000000000000000000000000000082526004820152fd5b9091508681813d83116121f4575b6121bb81836119f5565b81010312610ca457517fffffffff0000000000000000000000000000000000000000000000000000000081168103610ca45790386120c3565b503d6121b156fea2646970667358221220d4efa2c93f44633ff34510cd9e74be13b00fb11c75906619909050f0e3737db664736f6c634300081800332f8788117e7eff1d82e926ec794901d17c78024a50270940304540a733656f0d","linkReferences":{}},"methodIdentifiers":{"DEFAULT_ADMIN_ROLE()":"a217fddf","approve(address,uint256)":"095ea7b3","balanceOf(address)":"70a08231","cancel(uint256)":"40e58ee5","draw(uint256)":"3b304147","expire(uint256)":"bf81bf43","getApproved(uint256)":"081812fc","getRoleAdmin(bytes32)":"248a9ca3","grantRole(bytes32,address)":"2f2ff15d","hasRole(bytes32,address)":"91d14854","isApprovedForAll(address,address)":"e985e9c5","issue(bytes32,address,uint256,uint64,uint64)":"ff186937","letters(uint256)":"a2a0e4c3","name()":"06fdde03","ownerOf(uint256)":"6352211e","pause()":"8456cb59","paused()":"5c975abb","renounceRole(bytes32,address)":"36568abe","revokeRole(bytes32,address)":"d547741f","safeTransferFrom(address,address,uint256)":"42842e0e","safeTransferFrom(address,address,uint256,bytes)":"b88d4fde","setApprovalForAll(address,bool)":"a22cb465","supportsInterface(bytes4)":"01ffc9a7","symbol()":"95d89b41","tokenURI(uint256)":"c87b56dd","transferFrom(address,address,uint256)":"23b872dd","unpause()":"3f4ba83a"},"id":95}