{
  "_format": "hh-sol-artifact-1",
  "contractName": "PorBroadcaster",
  "sourceName": "contracts/ccip/PorBroadcaster.sol",
  "abi": [
    {
      "inputs": [
        {
          "internalType": "address",
          "name": "router_",
          "type": "address"
        },
        {
          "internalType": "address",
          "name": "reserve_",
          "type": "address"
        },
        {
          "internalType": "address",
          "name": "governor_",
          "type": "address"
        }
      ],
      "stateMutability": "nonpayable",
      "type": "constructor"
    },
    {
      "inputs": [],
      "name": "InvalidParam",
      "type": "error"
    },
    {
      "inputs": [],
      "name": "Paused",
      "type": "error"
    },
    {
      "inputs": [],
      "name": "Unauthorized",
      "type": "error"
    },
    {
      "anonymous": false,
      "inputs": [
        {
          "indexed": false,
          "internalType": "bytes32",
          "name": "messageId",
          "type": "bytes32"
        },
        {
          "indexed": false,
          "internalType": "uint64",
          "name": "dst",
          "type": "uint64"
        },
        {
          "indexed": false,
          "internalType": "address",
          "name": "receiver",
          "type": "address"
        },
        {
          "indexed": false,
          "internalType": "uint64",
          "name": "epoch",
          "type": "uint64"
        },
        {
          "indexed": false,
          "internalType": "uint256",
          "name": "totalAssets1e18",
          "type": "uint256"
        }
      ],
      "name": "Broadcasted",
      "type": "event"
    },
    {
      "anonymous": false,
      "inputs": [
        {
          "indexed": true,
          "internalType": "address",
          "name": "oldGov",
          "type": "address"
        },
        {
          "indexed": true,
          "internalType": "address",
          "name": "newGov",
          "type": "address"
        }
      ],
      "name": "GovernorChanged",
      "type": "event"
    },
    {
      "anonymous": false,
      "inputs": [
        {
          "indexed": false,
          "internalType": "bool",
          "name": "p",
          "type": "bool"
        }
      ],
      "name": "Paused",
      "type": "event"
    },
    {
      "inputs": [
        {
          "internalType": "uint64",
          "name": "dstChain",
          "type": "uint64"
        },
        {
          "internalType": "address",
          "name": "receiver",
          "type": "address"
        }
      ],
      "name": "broadcast",
      "outputs": [
        {
          "internalType": "bytes32",
          "name": "id",
          "type": "bytes32"
        }
      ],
      "stateMutability": "payable",
      "type": "function"
    },
    {
      "inputs": [],
      "name": "governor",
      "outputs": [
        {
          "internalType": "address",
          "name": "",
          "type": "address"
        }
      ],
      "stateMutability": "view",
      "type": "function"
    },
    {
      "inputs": [],
      "name": "paused",
      "outputs": [
        {
          "internalType": "bool",
          "name": "",
          "type": "bool"
        }
      ],
      "stateMutability": "view",
      "type": "function"
    },
    {
      "inputs": [
        {
          "internalType": "uint64",
          "name": "dstChain",
          "type": "uint64"
        },
        {
          "internalType": "address",
          "name": "receiver",
          "type": "address"
        }
      ],
      "name": "quote",
      "outputs": [
        {
          "internalType": "uint256",
          "name": "feeWei",
          "type": "uint256"
        }
      ],
      "stateMutability": "view",
      "type": "function"
    },
    {
      "inputs": [],
      "name": "reserve",
      "outputs": [
        {
          "internalType": "address",
          "name": "",
          "type": "address"
        }
      ],
      "stateMutability": "view",
      "type": "function"
    },
    {
      "inputs": [],
      "name": "router",
      "outputs": [
        {
          "internalType": "address",
          "name": "",
          "type": "address"
        }
      ],
      "stateMutability": "view",
      "type": "function"
    },
    {
      "inputs": [
        {
          "internalType": "address",
          "name": "g",
          "type": "address"
        }
      ],
      "name": "setGovernor",
      "outputs": [],
      "stateMutability": "nonpayable",
      "type": "function"
    },
    {
      "inputs": [
        {
          "internalType": "bool",
          "name": "p",
          "type": "bool"
        }
      ],
      "name": "setPaused",
      "outputs": [],
      "stateMutability": "nonpayable",
      "type": "function"
    }
  ],
  "bytecode": "0x60c0346100c457601f610c7e38819003918201601f19168301916001600160401b038311848410176100c9578084926060946040528339810103126100c457610047816100df565b906100606040610059602084016100df565b92016100df565b60809290925260a052600080546001600160a81b0319166001600160a01b03909216919091179055604051610b8a90816100f482396080518181816098015281816102890152610715015260a0518181816101140152818161048e01526105810152f35b600080fd5b634e487b7160e01b600052604160045260246000fd5b51906001600160a01b03821682036100c45756fe60806040818152600436101561001457600080fd5b600091823560e01c9081630c340a24146108625750806316c38b3c146107da5780635c975abb146107b6578063a6caf0cf1461053f578063c42cf535146104b2578063cd3293de1461046f578063d4447a27146100c05763f887ea401461007a57600080fd5b346100bc57816003193601126100bc57602090516001600160a01b037f0000000000000000000000000000000000000000000000000000000000000000168152f35b5080fd5b50906100cb36610885565b929082546001600160a01b0390818116330361045f5760a01c60ff1661044e576100f3610a4d565b506100fc610a79565b508251635d7e75c960e01b81529061012080836004817f000000000000000000000000000000000000000000000000000000000000000086165afa9283156104445786918794610410575b50508251926020978882015193898489808601516060870151608088015160a08901519160c08a01519367ffffffffffffffff9c8d60e08d01511696519e8f998a019861020099979361012097939a99959196929a6101408a019b7f8685be0e666dc651f8f93dfd71f074b00dc9b3639dcd33a4f54ee5ff5a3f2d068b5267ffffffffffffffff80991660208c015260408b015260608a0152608089015260a088015260c087015260e086015261010085015216910152565b03601f19908181018852610214908861092c565b885190610220826108c1565b62030d4082528b820160019052895180928d82019061024f909160208060408301948051845201511515910152565b03908101825261025f908261092c565b8189519361026c856108f3565b16968784528b8401528883016060905289606084015260808301527f0000000000000000000000000000000000000000000000000000000000000000168751633963bb3560e01b81528a81808a8660048301916102c89261098e565b0381855afa908115610406578a916103d5575b5034106103c457610303918a918951808095819463fc8ef9b960e01b83528c6004840161098e565b039134905af19788156103b9578098610364575b5050518551878152948316888601528486019390935216606083015260808201527ff19744f467001c9a094dc926b8c32a8e934823d69329e33f90bcb7e73f92f37b9060a090a151908152f35b909197508882813d83116103b2575b61037d818361092c565b810103126103af57505195817ff19744f467001c9a094dc926b8c32a8e934823d69329e33f90bcb7e73f92f37b610317565b80fd5b503d610373565b8751903d90823e3d90fd5b8751633494a40d60e21b8152600490fd5b90508a81813d83116103ff575b6103ec818361092c565b810103126103fb5751386102db565b8980fd5b503d6103e2565b89513d8c823e3d90fd5b61043493945080919250903d1061043d575b61042c818361092c565b810190610acc565b91903880610147565b503d610422565b85513d88823e3d90fd5b82516313d0ff5960e31b8152600490fd5b83516282b42960e81b8152600490fd5b50346100bc57816003193601126100bc57602090516001600160a01b037f0000000000000000000000000000000000000000000000000000000000000000168152f35b50346100bc5760203660031901126100bc57600435906001600160a01b039081831680930361053b5783549182169081330361052c575082907fde4b3f61490b74c0ed6237523974fe299126bbbf8a8a7482fd220104c59b0c848580a373ffffffffffffffffffffffffffffffffffffffff191617815580f35b516282b42960e81b8152600490fd5b8380fd5b5090346103af5761054f36610885565b610557610a4d565b50610560610a79565b508351635d7e75c960e01b8152916001600160a01b039061012080856004817f000000000000000000000000000000000000000000000000000000000000000087165afa9485156107ac57918795939161071195938891899661078a575b50506106c5906106d1865161067b60209c898e9a938b809501518383015160608401519060808501519260a08601519467ffffffffffffffff60e060c08901519801511697519b8c9a8b01979361012097939a99959196929a6101408a019b7f8685be0e666dc651f8f93dfd71f074b00dc9b3639dcd33a4f54ee5ff5a3f2d068b5267ffffffffffffffff80991660208c015260408b015260608a0152608089015260a088015260c087015260e086015261010085015216910152565b0361068e601f199182810185528461092c565b8951610699816108c1565b62030d4081526001898201528a519485918a830191909160208060408301948051845201511515910152565b0390810184528361092c565b838851956106de876108f3565b1685528585015260608785015287606085015260808401528551809581948293633963bb3560e01b84526004840161098e565b03917f0000000000000000000000000000000000000000000000000000000000000000165afa92831561077f57809361074d575b505051908152f35b909192508382813d8311610778575b610766818361092c565b810103126103af575051903880610745565b503d61075c565b8251903d90823e3d90fd5b6106c596506107a59250803d1061043d5761042c818361092c565b94386105be565b87513d88823e3d90fd5b50346100bc57816003193601126100bc5760ff6020925460a01c1690519015158152f35b50346100bc5760203660031901126100bc576004359081151580920361085e5782546001600160a01b038116330361084e5760ff60a01b191660a083901b60ff60a01b16178355519081527f0e2fb031ee032dc02d8011dc50b816eb450cf856abd8261680dac74f72165bd290602090a180f35b81516282b42960e81b8152600490fd5b8280fd5b8390346100bc57816003193601126100bc576001600160a01b0360209254168152f35b60409060031901126108bc5760043567ffffffffffffffff811681036108bc57906024356001600160a01b03811681036108bc5790565b600080fd5b6040810190811067ffffffffffffffff8211176108dd57604052565b634e487b7160e01b600052604160045260246000fd5b60a0810190811067ffffffffffffffff8211176108dd57604052565b610100810190811067ffffffffffffffff8211176108dd57604052565b90601f8019910116810190811067ffffffffffffffff8211176108dd57604052565b919082519283825260005b84811061097a575050826000602080949584010152601f8019910116010190565b602081830181015184830182015201610959565b92919267ffffffffffffffff6040921681526020906040828201526001600160a01b03948581511660408301526109d38382015160a0606085015260e084019061094e565b93604082015194603f1994858583030160808601528080885193848152019701926000905b838210610a2b575050505050608081610a289697606060c09401511660a08501520151928285030191015261094e565b90565b845180518c168a528301518984015297880197938201936001909101906109f8565b60405190610a5a826108f3565b6060608083600081528260208201528260408201526000838201520152565b60405190610a868261090f565b8160e06000918281528260208201528260408201528260608201528260808201528260a08201528260c08201520152565b519067ffffffffffffffff821682036108bc57565b809291039161012083126108bc57610ae381610ab7565b926101008091601f1901126108bc57610b4c9060405192610b038461090f565b6020810151845260408101516020850152606081015160408501526080810151606085015260a0810151608085015260c081015160a085015260e081015160c085015201610ab7565b60e08201529056fea2646970667358221220642b5d44e842282002213c4ed5c4d6ddddcefc765cfe98f5eabb1a5875864f7764736f6c63430008180033",
  "linkReferences": {},
  "deployedLinkReferences": {}
}