{"abi":[{"type":"constructor","inputs":[{"name":"admin","type":"address","internalType":"address"}],"stateMutability":"nonpayable"},{"type":"function","name":"DEFAULT_ADMIN_ROLE","inputs":[],"outputs":[{"name":"","type":"bytes32","internalType":"bytes32"}],"stateMutability":"view"},{"type":"function","name":"ROLE_ADMIN","inputs":[],"outputs":[{"name":"","type":"bytes32","internalType":"bytes32"}],"stateMutability":"view"},{"type":"function","name":"ROLE_PUBLISHER","inputs":[],"outputs":[{"name":"","type":"bytes32","internalType":"bytes32"}],"stateMutability":"view"},{"type":"function","name":"ROLE_SIGNER","inputs":[],"outputs":[{"name":"","type":"bytes32","internalType":"bytes32"}],"stateMutability":"view"},{"type":"function","name":"eip712Domain","inputs":[],"outputs":[{"name":"fields","type":"bytes1","internalType":"bytes1"},{"name":"name","type":"string","internalType":"string"},{"name":"version","type":"string","internalType":"string"},{"name":"chainId","type":"uint256","internalType":"uint256"},{"name":"verifyingContract","type":"address","internalType":"address"},{"name":"salt","type":"bytes32","internalType":"bytes32"},{"name":"extensions","type":"uint256[]","internalType":"uint256[]"}],"stateMutability":"view"},{"type":"function","name":"getRoleAdmin","inputs":[{"name":"role","type":"bytes32","internalType":"bytes32"}],"outputs":[{"name":"","type":"bytes32","internalType":"bytes32"}],"stateMutability":"view"},{"type":"function","name":"grantRole","inputs":[{"name":"role","type":"bytes32","internalType":"bytes32"},{"name":"account","type":"address","internalType":"address"}],"outputs":[],"stateMutability":"nonpayable"},{"type":"function","name":"hasRole","inputs":[{"name":"role","type":"bytes32","internalType":"bytes32"},{"name":"account","type":"address","internalType":"address"}],"outputs":[{"name":"","type":"bool","internalType":"bool"}],"stateMutability":"view"},{"type":"function","name":"lastId","inputs":[],"outputs":[{"name":"","type":"uint256","internalType":"uint256"}],"stateMutability":"view"},{"type":"function","name":"latestFor","inputs":[{"name":"accountRef","type":"string","internalType":"string"},{"name":"statementDate","type":"uint64","internalType":"uint64"}],"outputs":[{"name":"id","type":"uint256","internalType":"uint256"},{"name":"p","type":"tuple","internalType":"struct BankAccountProofOracle.Proof","components":[{"name":"bankName","type":"string","internalType":"string"},{"name":"accountRef","type":"string","internalType":"string"},{"name":"ccy","type":"string","internalType":"string"},{"name":"statementDate","type":"uint64","internalType":"uint64"},{"name":"asOf","type":"uint64","internalType":"uint64"},{"name":"closingBalanceMinor","type":"uint256","internalType":"uint256"},{"name":"docHash","type":"bytes32","internalType":"bytes32"},{"name":"docURI","type":"string","internalType":"string"},{"name":"signer","type":"address","internalType":"address"},{"name":"revoked","type":"bool","internalType":"bool"},{"name":"createdAt","type":"uint64","internalType":"uint64"}]}],"stateMutability":"view"},{"type":"function","name":"latestVersionId","inputs":[{"name":"","type":"bytes32","internalType":"bytes32"}],"outputs":[{"name":"","type":"uint256","internalType":"uint256"}],"stateMutability":"view"},{"type":"function","name":"proofs","inputs":[{"name":"","type":"uint256","internalType":"uint256"}],"outputs":[{"name":"bankName","type":"string","internalType":"string"},{"name":"accountRef","type":"string","internalType":"string"},{"name":"ccy","type":"string","internalType":"string"},{"name":"statementDate","type":"uint64","internalType":"uint64"},{"name":"asOf","type":"uint64","internalType":"uint64"},{"name":"closingBalanceMinor","type":"uint256","internalType":"uint256"},{"name":"docHash","type":"bytes32","internalType":"bytes32"},{"name":"docURI","type":"string","internalType":"string"},{"name":"signer","type":"address","internalType":"address"},{"name":"revoked","type":"bool","internalType":"bool"},{"name":"createdAt","type":"uint64","internalType":"uint64"}],"stateMutability":"view"},{"type":"function","name":"renounceRole","inputs":[{"name":"role","type":"bytes32","internalType":"bytes32"},{"name":"callerConfirmation","type":"address","internalType":"address"}],"outputs":[],"stateMutability":"nonpayable"},{"type":"function","name":"revoke","inputs":[{"name":"id","type":"uint256","internalType":"uint256"}],"outputs":[],"stateMutability":"nonpayable"},{"type":"function","name":"revokeRole","inputs":[{"name":"role","type":"bytes32","internalType":"bytes32"},{"name":"account","type":"address","internalType":"address"}],"outputs":[],"stateMutability":"nonpayable"},{"type":"function","name":"setSigner","inputs":[{"name":"s","type":"address","internalType":"address"},{"name":"allowed","type":"bool","internalType":"bool"}],"outputs":[],"stateMutability":"nonpayable"},{"type":"function","name":"submitProof","inputs":[{"name":"bankName","type":"string","internalType":"string"},{"name":"accountRef","type":"string","internalType":"string"},{"name":"ccy","type":"string","internalType":"string"},{"name":"statementDate","type":"uint64","internalType":"uint64"},{"name":"asOf","type":"uint64","internalType":"uint64"},{"name":"closingBalanceMinor","type":"uint256","internalType":"uint256"},{"name":"docHash","type":"bytes32","internalType":"bytes32"},{"name":"docURI","type":"string","internalType":"string"},{"name":"signature","type":"bytes","internalType":"bytes"}],"outputs":[{"name":"id","type":"uint256","internalType":"uint256"}],"stateMutability":"nonpayable"},{"type":"function","name":"supportsInterface","inputs":[{"name":"interfaceId","type":"bytes4","internalType":"bytes4"}],"outputs":[{"name":"","type":"bool","internalType":"bool"}],"stateMutability":"view"},{"type":"event","name":"EIP712DomainChanged","inputs":[],"anonymous":false},{"type":"event","name":"ProofRevoked","inputs":[{"name":"id","type":"uint256","indexed":true,"internalType":"uint256"}],"anonymous":false},{"type":"event","name":"ProofSubmitted","inputs":[{"name":"id","type":"uint256","indexed":true,"internalType":"uint256"},{"name":"bankName","type":"string","indexed":false,"internalType":"string"},{"name":"accountRef","type":"string","indexed":false,"internalType":"string"},{"name":"ccy","type":"string","indexed":false,"internalType":"string"},{"name":"closingBalanceMinor","type":"uint256","indexed":false,"internalType":"uint256"},{"name":"signer","type":"address","indexed":true,"internalType":"address"},{"name":"docHash","type":"bytes32","indexed":false,"internalType":"bytes32"},{"name":"docURI","type":"string","indexed":false,"internalType":"string"}],"anonymous":false},{"type":"event","name":"RoleAdminChanged","inputs":[{"name":"role","type":"bytes32","indexed":true,"internalType":"bytes32"},{"name":"previousAdminRole","type":"bytes32","indexed":true,"internalType":"bytes32"},{"name":"newAdminRole","type":"bytes32","indexed":true,"internalType":"bytes32"}],"anonymous":false},{"type":"event","name":"RoleGranted","inputs":[{"name":"role","type":"bytes32","indexed":true,"internalType":"bytes32"},{"name":"account","type":"address","indexed":true,"internalType":"address"},{"name":"sender","type":"address","indexed":true,"internalType":"address"}],"anonymous":false},{"type":"event","name":"RoleRevoked","inputs":[{"name":"role","type":"bytes32","indexed":true,"internalType":"bytes32"},{"name":"account","type":"address","indexed":true,"internalType":"address"},{"name":"sender","type":"address","indexed":true,"internalType":"address"}],"anonymous":false},{"type":"event","name":"SignerSet","inputs":[{"name":"signer","type":"address","indexed":true,"internalType":"address"},{"name":"allowed","type":"bool","indexed":false,"internalType":"bool"}],"anonymous":false},{"type":"error","name":"AccessControlBadConfirmation","inputs":[]},{"type":"error","name":"AccessControlUnauthorizedAccount","inputs":[{"name":"account","type":"address","internalType":"address"},{"name":"neededRole","type":"bytes32","internalType":"bytes32"}]},{"type":"error","name":"ECDSAInvalidSignature","inputs":[]},{"type":"error","name":"ECDSAInvalidSignatureLength","inputs":[{"name":"length","type":"uint256","internalType":"uint256"}]},{"type":"error","name":"ECDSAInvalidSignatureS","inputs":[{"name":"s","type":"bytes32","internalType":"bytes32"}]},{"type":"error","name":"InvalidShortString","inputs":[]},{"type":"error","name":"StringTooLong","inputs":[{"name":"str","type":"string","internalType":"string"}]}],"bytecode":{"object":"0x61016034620001d157601f62002df238819003918201601f19168301926001600160401b0392909183851183861017620001bb578160209284926040978852833981010312620001d15751916001600160a01b0383168303620001d1578051906200006a82620001d6565b6016825260208201927f42616e6b4163636f756e7450726f6f664f7261636c65000000000000000000008452815194620000a486620001d6565b6001865260208601603160f81b8152620000be85620003ce565b95610120968752620000d088620005a5565b95610140968752519020968760e05251902095610100968088524660a05284519060208201927f8b73c3c69bb8fe3d512ecc4cf759cc79239f7b179b0ffacaa9a75d522b39400f84528683015260608201524660808201523060a082015260a0815260c081019381851090851117620001bb57620001729385525190206080523060c0526200015f81620001f2565b506200016b8162000294565b5062000331565b50519161267493846200075e8539608051846124af015260a0518461257b015260c05184612480015260e051846124fe01525183612524015251826104de015251816105070152f35b634e487b7160e01b600052604160045260246000fd5b600080fd5b604081019081106001600160401b03821117620001bb57604052565b6001600160a01b031660008181527ff2d002f32e1e256ea1e928747b1832023316be30886ca415b888f7c67dd776c360205260408120549091907f2172861495e7b85edac73e3cd5fbb42dd675baadf627720e687bcfdaca0250969060ff166200028f57808352826020526040832082845260205260408320600160ff1982541617905560008051602062002dd2833981519152339380a4600190565b505090565b6001600160a01b031660008181527f196a0959de6d1a45b805591b8abbc43254e0ebb2b662175b4ff4978c0490a81f60205260408120549091907f318ca041382154243e5407309a15dc38a2622542637083fb3fe687f1e73186a29060ff166200028f57808352826020526040832082845260205260408320600160ff1982541617905560008051602062002dd2833981519152339380a4600190565b6001600160a01b031660008181527f275f3c6fe151dd759af4c3c0c738e1302bb73c2037172a2864846fc1df736cb660205260408120549091907f749410edf1177aefa27612b24d2d51e6441f89613f5ddf9be1d11dfc0d3e4fea9060ff166200028f57808352826020526040832082845260205260408320600160ff1982541617905560008051602062002dd2833981519152339380a4600190565b8051602090818110156200046b5750601f8251116200040a5780825192015190808310620003fb57501790565b82600019910360031b1b161790565b90604051809263305a27a960e01b82528060048301528251908160248401526000935b82851062000451575050604492506000838284010152601f80199101168101030190fd5b84810182015186860160440152938101938593506200042d565b9192916001600160401b038111620001bb5760019182548381811c911680156200059a575b828210146200058457601f81116200054b575b5080601f8311600114620004e3575081929394600092620004d7575b5050600019600383901b1c191690821b17905560ff90565b015190503880620004bf565b90601f198316958460005282600020926000905b88821062000533575050838596971062000519575b505050811b01905560ff90565b015160001960f88460031b161c191690553880806200050c565b808785968294968601518155019501930190620004f7565b8360005283601f83600020920160051c820191601f850160051c015b82811062000577575050620004a3565b6000815501849062000567565b634e487b7160e01b600052602260045260246000fd5b90607f169062000490565b805160209081811015620006335750601f825111620005d25780825192015190808310620003fb57501790565b90604051809263305a27a960e01b82528060048301528251908160248401526000935b82851062000619575050604492506000838284010152601f80199101168101030190fd5b8481018201518686016044015293810193859350620005f5565b906001600160401b038211620001bb57600254926001938481811c9116801562000752575b838210146200058457601f811162000718575b5081601f8411600114620006ac5750928293918392600094620006a0575b50501b916000199060031b1c19161760025560ff90565b01519250388062000689565b919083601f198116600260005284600020946000905b88838310620006fd5750505010620006e3575b505050811b0160025560ff90565b015160001960f88460031b161c19169055388080620006d5565b858701518855909601959485019487935090810190620006c2565b600260005284601f84600020920160051c820191601f860160051c015b828110620007455750506200066b565b6000815501859062000735565b90607f16906200065856fe60a080604052600436101561001357600080fd5b60003560e01c90816301ffc9a7146119ac5750806320c5429b14611894578063248a9ca3146118475780632f2ff15d146117ea5780633036a7d1146117a057806331cb6105146116ed57806336568abe1461166357806336e71a021461091e5780637c21edf11461061e57806384b0196e146104aa57806391d14854146104315780639ddaf5aa146102ca578063a217fddf14610290578063ab80e2b314610237578063af2371e3146101de578063c1292cc3146101a2578063d391014b146101495763d547741f146100e557600080fd5b346101445760407ffffffffffffffffffffffffffffffffffffffffffffffffffffffffffffffffc36011261014457610142600435610122611a68565b9080600052600060205261013d600160406000200154611e2b565b6120a9565b005b600080fd5b346101445760007ffffffffffffffffffffffffffffffffffffffffffffffffffffffffffffffffc3601126101445760206040517f2172861495e7b85edac73e3cd5fbb42dd675baadf627720e687bcfdaca0250968152f35b346101445760007ffffffffffffffffffffffffffffffffffffffffffffffffffffffffffffffffc360112610144576020600554604051908152f35b346101445760007ffffffffffffffffffffffffffffffffffffffffffffffffffffffffffffffffc3601126101445760206040517f749410edf1177aefa27612b24d2d51e6441f89613f5ddf9be1d11dfc0d3e4fea8152f35b346101445760007ffffffffffffffffffffffffffffffffffffffffffffffffffffffffffffffffc3601126101445760206040517f318ca041382154243e5407309a15dc38a2622542637083fb3fe687f1e73186a28152f35b346101445760007ffffffffffffffffffffffffffffffffffffffffffffffffffffffffffffffffc36011261014457602060405160008152f35b346101445760207ffffffffffffffffffffffffffffffffffffffffffffffffffffffffffffffffc3601126101445760043560005260046020526103b16040600020604051906103258261031e8184611b6a565b0383611c57565b6040519061033a8261031e8160018501611b6a565b6103f660405191610359836103528160028501611b6a565b0384611c57565b60038101549067ffffffffffffffff936004820154856103cd6005850154936103bf600760405197610399896103928160068501611b6a565b038a611c57565b01549a6040519d8e9d8e610160908181520190611ab9565b8d810360208f015290611ab9565b908b820360408d0152611ab9565b9481811660608b015260401c16608089015260a088015260c087015285820360e0870152611ab9565b9173ffffffffffffffffffffffffffffffffffffffff811661010085015260ff8160a01c16151561012085015260a81c166101408301520390f35b346101445760407ffffffffffffffffffffffffffffffffffffffffffffffffffffffffffffffffc36011261014457610468611a68565b600435600052600060205273ffffffffffffffffffffffffffffffffffffffff60406000209116600052602052602060ff604060002054166040519015158152f35b346101445760007ffffffffffffffffffffffffffffffffffffffffffffffffffffffffffffffffc360112610144576105027f000000000000000000000000000000000000000000000000000000000000000061226d565b61052b7f00000000000000000000000000000000000000000000000000000000000000006123a9565b60405160208082019282841067ffffffffffffffff8511176105ef579160206105a285946105949796604052600084526040519788977f0f00000000000000000000000000000000000000000000000000000000000000895260e0858a015260e0890190611ab9565b908782036040890152611ab9565b91466060870152306080870152600060a087015285830360c0870152519182815201929160005b8281106105d857505050500390f35b8351855286955093810193928101926001016105c9565b7f4e487b7100000000000000000000000000000000000000000000000000000000600052604160045260246000fd5b346101445760407ffffffffffffffffffffffffffffffffffffffffffffffffffffffffffffffffc3601126101445760043567ffffffffffffffff81116101445761066d903690600401611a8b565b6024359067ffffffffffffffff821682036101445761071890600061014060405161069781611c1e565b6060815260606020820152606060408201528260608201528260808201528260a08201528260c0820152606060e0820152826101008201528261012082015201526106ec604051938492602084019687611cfd565b037fffffffffffffffffffffffffffffffffffffffffffffffffffffffffffffffe08101835282611c57565b519020600052600360205260406000205480600052600460205260406000209067ffffffffffffffff60076040519361075085611c1e565b604051610768816107618185611b6a565b0382611c57565b855260405161077e816107618160018601611b6a565b6020860152604051610797816107618160028601611b6a565b6040860152826003820154818116606088015260401c166080860152600481015460a0860152600581015460c08601526040516107db816107618160068601611b6a565b60e0860152015473ffffffffffffffffffffffffffffffffffffffff811661010085015260ff8160a01c16151561012085015260a81c1661014083015260405191829182526040602083015267ffffffffffffffff6101406108e261084e845161016060408801526101a0870190611ab9565b61089f61088b6020870151927fffffffffffffffffffffffffffffffffffffffffffffffffffffffffffffffc093848a83030160608b0152611ab9565b6040870151838983030160808a0152611ab9565b908460608701511660a08801528460808701511660c088015260a086015160e088015260c086015161010088015260e08601519087830301610120880152611ab9565b9273ffffffffffffffffffffffffffffffffffffffff610100820151168286015261012081015115156101608601520151166101808301520390f35b34610144576101207ffffffffffffffffffffffffffffffffffffffffffffffffffffffffffffffffc3601126101445760043567ffffffffffffffff81116101445761096e903690600401611a8b565b9060243567ffffffffffffffff81116101445761098f903690600401611a8b565b91909260443567ffffffffffffffff8111610144576109b2903690600401611a8b565b9067ffffffffffffffff6064351660643503610144576084359167ffffffffffffffff831683036101445767ffffffffffffffff60e43511610144576109fd3660e435600401611a8b565b9790966101043567ffffffffffffffff811161014457610a21903690600401611a8b565b3360009081527f196a0959de6d1a45b805591b8abbc43254e0ebb2b662175b4ff4978c0490a81f60205260409020549096919060ff161561160d57610a6736898b611c98565b968b610a74368688611c98565b98610a8c8d610a84368b8d611c98565b933691611c98565b9060208151910120996020815191012091602081519101209060208151910120916040519a7fcd23231a63aced3ecbe818d8242545fe133a056a922963093f8d4b000252c5ee60208d015260408c015260608b015260808a015267ffffffffffffffff6064351660a08a015267ffffffffffffffff841660c08a015260a43560e08a015260c4356101008a015261012089015261012088528761014081011067ffffffffffffffff6101408a0111176105ef57610b9e610ba49260428a610140610bad9c0160405260208151910120610b63612469565b90604051917f190100000000000000000000000000000000000000000000000000000000000083526002830152602282015220923691611c98565b9061214a565b90979197612186565b73ffffffffffffffffffffffffffffffffffffffff861660009081527f275f3c6fe151dd759af4c3c0c738e1302bb73c2037172a2864846fc1df736cb6602052604090205460ff16156115af576005546080527fffffffffffffffffffffffffffffffffffffffffffffffffffffffffffffffff608051146115805760016080510160055567ffffffffffffffff60405191610c4883611c1e565b610c53368a8c611c98565b8352610c60368587611c98565b6020840152610c70368789611c98565b60408401528160643516606084015216608082015260a43560a082015260c43560c0820152610ca0368b8b611c98565b60e082015273ffffffffffffffffffffffffffffffffffffffff8616610100820152600061012082015267ffffffffffffffff421661014082015260016080510160005260046020526040600020815180519067ffffffffffffffff82116105ef578190610d0e8454611b17565b601f8111611530575b50602090601f831160011461146a5760009261145f575b50507fffffffffffffffffffffffffffffffffffffffffffffffffffffffffffffffff8260011b9260031b1c19161781555b602082015180519067ffffffffffffffff82116105ef578190610d866001850154611b17565b601f811161140c575b50602090601f831160011461134057600092611335575b50507fffffffffffffffffffffffffffffffffffffffffffffffffffffffffffffffff8260011b9260031b1c19161760018201555b604082015180519067ffffffffffffffff82116105ef578190610e016002850154611b17565b601f81116112e2575b50602090601f83116001146112165760009261120b575b50507fffffffffffffffffffffffffffffffffffffffffffffffffffffffffffffffff8260011b9260031b1c19161760028201555b6003810167ffffffffffffffff6060840151168154907fffffffffffffffffffffffffffffffff000000000000000000000000000000006fffffffffffffffff0000000000000000608087015160401b1692161717905560a0820151600482015560c0820151600582015560e082015180519067ffffffffffffffff82116105ef57610ee56006840154611b17565b601f81116111c4575b50602090601f83116001146110b05794611093989460077f9f8474c51db90f366345b4ae5e1c84290cacdad4e80b129c9bb4143fad0eaf799d9c9b99958561105e9673ffffffffffffffffffffffffffffffffffffffff9b9661106c9b6000926110a5575b50507fffffffffffffffffffffffffffffffffffffffffffffffffffffffffffffffff8260011b9260031b1c19161760068201555b01908861010082015116908254917fffffff00000000000000000000000000000000000000000000000000000000007cffffffffffffffff00000000000000000000000000000000000000000061014074ff0000000000000000000000000000000000000000610120860151151560a01b1694015160a81b16931617171790556040516020810190611022816106ec606435868887611cfd565b51902060005260036020526001608051016040600020556110506040519b8c9b60c08d5260c08d0191611d59565b918a830360208c0152611d59565b918783036040890152611d59565b9160a435606086015260c435608086015284830360a0860152169660016080510196611d59565b0390a360206040516001608051018152f35b015190503880610f53565b906006840160005260206000209160005b7fffffffffffffffffffffffffffffffffffffffffffffffffffffffffffffffe0851681106111ac57509460077f9f8474c51db90f366345b4ae5e1c84290cacdad4e80b129c9bb4143fad0eaf799d9c9b999560018673ffffffffffffffffffffffffffffffffffffffff9b9661106c9b966110939f9b837fffffffffffffffffffffffffffffffffffffffffffffffffffffffffffffffe061105e9c1610611175575b505050811b016006820155610f88565b01517fffffffffffffffffffffffffffffffffffffffffffffffffffffffffffffffff60f88460031b161c19169055388080611165565b919260206001819286850151815501940192016110c1565b600684016000526020600020601f840160051c810160208510611204575b601f830160051c820181106111f8575050610eee565b600081556001016111e2565b50806111e2565b015190508d80610e21565b9250600284016000526020600020906000935b7fffffffffffffffffffffffffffffffffffffffffffffffffffffffffffffffe0841685106112c75760019450837fffffffffffffffffffffffffffffffffffffffffffffffffffffffffffffffe0811610611290575b505050811b016002820155610e56565b01517fffffffffffffffffffffffffffffffffffffffffffffffffffffffffffffffff60f88460031b161c191690558d8080611280565b81810151835560209485019460019093019290910190611229565b909150600284016000526020600020601f840160051c81016020851061132e575b90849392915b601f830160051c8201811061131f575050610e0a565b60008155859450600101611309565b5080611303565b015190508d80610da6565b9250600184016000526020600020906000935b7fffffffffffffffffffffffffffffffffffffffffffffffffffffffffffffffe0841685106113f15760019450837fffffffffffffffffffffffffffffffffffffffffffffffffffffffffffffffe08116106113ba575b505050811b016001820155610ddb565b01517fffffffffffffffffffffffffffffffffffffffffffffffffffffffffffffffff60f88460031b161c191690558d80806113aa565b81810151835560209485019460019093019290910190611353565b909150600184016000526020600020601f840160051c810160208510611458575b90849392915b601f830160051c82018110611449575050610d8f565b60008155859450600101611433565b508061142d565b015190508d80610d2e565b9250836000526020600020906000935b7fffffffffffffffffffffffffffffffffffffffffffffffffffffffffffffffe0841685106115155760019450837fffffffffffffffffffffffffffffffffffffffffffffffffffffffffffffffe08116106114de575b505050811b018155610d60565b01517fffffffffffffffffffffffffffffffffffffffffffffffffffffffffffffffff60f88460031b161c191690558d80806114d1565b8181015183556020948501946001909301929091019061147a565b909150836000526020600020601f840160051c810160208510611579575b90849392915b601f830160051c8201811061156a575050610d17565b60008155859450600101611554565b508061154e565b7f4e487b7100000000000000000000000000000000000000000000000000000000600052601160045260246000fd5b60646040517f08c379a000000000000000000000000000000000000000000000000000000000815260206004820152601360248201527f756e617574686f72697a6564207369676e6572000000000000000000000000006044820152fd5b60446040517fe2517d3f0000000000000000000000000000000000000000000000000000000081523360048201527f318ca041382154243e5407309a15dc38a2622542637083fb3fe687f1e73186a26024820152fd5b346101445760407ffffffffffffffffffffffffffffffffffffffffffffffffffffffffffffffffc3601126101445761169a611a68565b3373ffffffffffffffffffffffffffffffffffffffff8216036116c357610142906004356120a9565b60046040517f6697b232000000000000000000000000000000000000000000000000000000008152fd5b346101445760407ffffffffffffffffffffffffffffffffffffffffffffffffffffffffffffffffc3601126101445760043573ffffffffffffffffffffffffffffffffffffffff81169081810361014457602435801515808203610144577ffc4acb499491cd850a8a21ab98c7f128850c0f0e5f1a875a62b7fa055c2ecf1992602092611778611d98565b156117915761178690611e51565b505b604051908152a2005b61179a90611fd3565b50611788565b346101445760207ffffffffffffffffffffffffffffffffffffffffffffffffffffffffffffffffc3601126101445760043560005260036020526020604060002054604051908152f35b346101445760407ffffffffffffffffffffffffffffffffffffffffffffffffffffffffffffffffc36011261014457610142600435611827611a68565b90806000526000602052611842600160406000200154611e2b565b611f2e565b346101445760207ffffffffffffffffffffffffffffffffffffffffffffffffffffffffffffffffc3601126101445760043560005260006020526020600160406000200154604051908152f35b346101445760207ffffffffffffffffffffffffffffffffffffffffffffffffffffffffffffffffc360112610144576004356118ce611d98565b8060005260046020526007604060002001805460ff8160a01c1661194e577fffffffffffffffffffffff00ffffffffffffffffffffffffffffffffffffffff16740100000000000000000000000000000000000000001790557f05ab9739647efc0db15a5c7a6c52b7d428fcb1aa37e3eff425ba5b638836c967600080a2005b60646040517f08c379a000000000000000000000000000000000000000000000000000000000815260206004820152600f60248201527f616c7265616479207265766f6b656400000000000000000000000000000000006044820152fd5b346101445760207ffffffffffffffffffffffffffffffffffffffffffffffffffffffffffffffffc36011261014457600435907fffffffff00000000000000000000000000000000000000000000000000000000821680920361014457817f7965db0b0000000000000000000000000000000000000000000000000000000060209314908115611a3e575b5015158152f35b7f01ffc9a70000000000000000000000000000000000000000000000000000000091501483611a37565b6024359073ffffffffffffffffffffffffffffffffffffffff8216820361014457565b9181601f840112156101445782359167ffffffffffffffff8311610144576020838186019501011161014457565b919082519283825260005b848110611b035750507fffffffffffffffffffffffffffffffffffffffffffffffffffffffffffffffe0601f8460006020809697860101520116010190565b602081830181015184830182015201611ac4565b90600182811c92168015611b60575b6020831014611b3157565b7f4e487b7100000000000000000000000000000000000000000000000000000000600052602260045260246000fd5b91607f1691611b26565b805460009392611b7982611b17565b91828252602093600191600181169081600014611be15750600114611ba0575b5050505050565b90939495506000929192528360002092846000945b838610611bcd57505050500101903880808080611b99565b805485870183015294019385908201611bb5565b7fffffffffffffffffffffffffffffffffffffffffffffffffffffffffffffff00168685015250505090151560051b010191503880808080611b99565b610160810190811067ffffffffffffffff8211176105ef57604052565b6040810190811067ffffffffffffffff8211176105ef57604052565b90601f7fffffffffffffffffffffffffffffffffffffffffffffffffffffffffffffffe0910116810190811067ffffffffffffffff8211176105ef57604052565b92919267ffffffffffffffff82116105ef5760405191611ce060207fffffffffffffffffffffffffffffffffffffffffffffffffffffffffffffffe0601f8401160184611c57565b829481845281830111610144578281602093846000960137010152565b9160099392817fffffffffffffffff00000000000000000000000000000000000000000000000093823701917f3a00000000000000000000000000000000000000000000000000000000000000835260c01b1660018201520190565b601f82602094937fffffffffffffffffffffffffffffffffffffffffffffffffffffffffffffffe0938186528686013760008582860101520116010190565b3360009081527ff2d002f32e1e256ea1e928747b1832023316be30886ca415b888f7c67dd776c360205260409020547f2172861495e7b85edac73e3cd5fbb42dd675baadf627720e687bcfdaca0250969060ff1615611df45750565b604490604051907fe2517d3f0000000000000000000000000000000000000000000000000000000082523360048301526024820152fd5b80600052600060205260406000203360005260205260ff6040600020541615611df45750565b73ffffffffffffffffffffffffffffffffffffffff1660008181527f275f3c6fe151dd759af4c3c0c738e1302bb73c2037172a2864846fc1df736cb660205260408120549091907f749410edf1177aefa27612b24d2d51e6441f89613f5ddf9be1d11dfc0d3e4fea9060ff16611f295780835282602052604083208284526020526040832060017fffffffffffffffffffffffffffffffffffffffffffffffffffffffffffffff008254161790557f2f8788117e7eff1d82e926ec794901d17c78024a50270940304540a733656f0d339380a4600190565b505090565b906000918083528260205273ffffffffffffffffffffffffffffffffffffffff6040842092169182845260205260ff60408420541615600014611f295780835282602052604083208284526020526040832060017fffffffffffffffffffffffffffffffffffffffffffffffffffffffffffffff008254161790557f2f8788117e7eff1d82e926ec794901d17c78024a50270940304540a733656f0d339380a4600190565b73ffffffffffffffffffffffffffffffffffffffff1660008181527f275f3c6fe151dd759af4c3c0c738e1302bb73c2037172a2864846fc1df736cb660205260408120549091907f749410edf1177aefa27612b24d2d51e6441f89613f5ddf9be1d11dfc0d3e4fea9060ff1615611f29578083528260205260408320828452602052604083207fffffffffffffffffffffffffffffffffffffffffffffffffffffffffffffff0081541690557ff6391f5c32d9c69d2a47ea670b442974b53935d1edc7fd64eb21e047a839171b339380a4600190565b906000918083528260205273ffffffffffffffffffffffffffffffffffffffff6040842092169182845260205260ff604084205416600014611f29578083528260205260408320828452602052604083207fffffffffffffffffffffffffffffffffffffffffffffffffffffffffffffff0081541690557ff6391f5c32d9c69d2a47ea670b442974b53935d1edc7fd64eb21e047a839171b339380a4600190565b815191906041830361217b5761217492506020820151906060604084015193015160001a906125a1565b9192909190565b505060009160029190565b600481101561223e5780612198575050565b600181036121ca5760046040517ff645eedf000000000000000000000000000000000000000000000000000000008152fd5b6002810361220357602482604051907ffce698f70000000000000000000000000000000000000000000000000000000082526004820152fd5b60031461220d5750565b602490604051907fd78bce0c0000000000000000000000000000000000000000000000000000000082526004820152fd5b7f4e487b7100000000000000000000000000000000000000000000000000000000600052602160045260246000fd5b60ff81146122c35760ff811690601f8211612299576040519161228f83611c3b565b8252602082015290565b60046040517fb3512b0c000000000000000000000000000000000000000000000000000000008152fd5b506040516000816001916001546122d981611b17565b80845293602091600181169081156123665750600114612305575b505061230292500382611c57565b90565b91509260016000527fb10e2d527612073b26eecdfd717e6a320cf44b4afac2b0732d9fcbe2b7fa0cf6936000925b82841061234e575061230294505050810160200138806122f4565b85548785018301529485019486945092810192612333565b9050602093506123029592507fffffffffffffffffffffffffffffffffffffffffffffffffffffffffffffff0091501682840152151560051b82010138806122f4565b60ff81146123cb5760ff811690601f8211612299576040519161228f83611c3b565b506040516002548160006123de83611b17565b80835292602090600190818116908115612366575060011461240857505061230292500382611c57565b91509260026000527f405787fa12a823e0f2b7631cc41b3ba8828b3321ca811111fa75cd3aa3bb5ace936000925b828410612451575061230294505050810160200138806122f4565b85548785018301529485019486945092810192612436565b73ffffffffffffffffffffffffffffffffffffffff7f000000000000000000000000000000000000000000000000000000000000000016301480612578575b156124d1577f000000000000000000000000000000000000000000000000000000000000000090565b60405160208101907f8b73c3c69bb8fe3d512ecc4cf759cc79239f7b179b0ffacaa9a75d522b39400f82527f000000000000000000000000000000000000000000000000000000000000000060408201527f000000000000000000000000000000000000000000000000000000000000000060608201524660808201523060a082015260a0815260c0810181811067ffffffffffffffff8211176105ef5760405251902090565b507f000000000000000000000000000000000000000000000000000000000000000046146124a8565b91907f7fffffffffffffffffffffffffffffff5d576e7357a4501ddfe92f46681b20a0841161263257926020929160ff608095604051948552168484015260408301526060820152600092839182805260015afa1561262657805173ffffffffffffffffffffffffffffffffffffffff81161561261d57918190565b50809160019190565b604051903d90823e3d90fd5b5050506000916003919056fea26469706673582212204e6bbce193daf4b390b139c4a2647e51c8fad02ad39b708e4652bb5096256d5464736f6c634300081800332f8788117e7eff1d82e926ec794901d17c78024a50270940304540a733656f0d","linkReferences":{}},"methodIdentifiers":{"DEFAULT_ADMIN_ROLE()":"a217fddf","ROLE_ADMIN()":"d391014b","ROLE_PUBLISHER()":"ab80e2b3","ROLE_SIGNER()":"af2371e3","eip712Domain()":"84b0196e","getRoleAdmin(bytes32)":"248a9ca3","grantRole(bytes32,address)":"2f2ff15d","hasRole(bytes32,address)":"91d14854","lastId()":"c1292cc3","latestFor(string,uint64)":"7c21edf1","latestVersionId(bytes32)":"3036a7d1","proofs(uint256)":"9ddaf5aa","renounceRole(bytes32,address)":"36568abe","revoke(uint256)":"20c5429b","revokeRole(bytes32,address)":"d547741f","setSigner(address,bool)":"31cb6105","submitProof(string,string,string,uint64,uint64,uint256,bytes32,string,bytes)":"36e71a02","supportsInterface(bytes4)":"01ffc9a7"},"id":53}