{"abi":[{"type":"constructor","inputs":[],"stateMutability":"nonpayable"},{"type":"function","name":"ATTESTATION_TYPEHASH","inputs":[],"outputs":[{"name":"","type":"bytes32","internalType":"bytes32"}],"stateMutability":"view"},{"type":"function","name":"AUDITOR_ROLE","inputs":[],"outputs":[{"name":"","type":"bytes32","internalType":"bytes32"}],"stateMutability":"view"},{"type":"function","name":"DEFAULT_ADMIN_ROLE","inputs":[],"outputs":[{"name":"","type":"bytes32","internalType":"bytes32"}],"stateMutability":"view"},{"type":"function","name":"GOVERNOR_ROLE","inputs":[],"outputs":[{"name":"","type":"bytes32","internalType":"bytes32"}],"stateMutability":"view"},{"type":"function","name":"REPORTER_ROLE","inputs":[],"outputs":[{"name":"","type":"bytes32","internalType":"bytes32"}],"stateMutability":"view"},{"type":"function","name":"UPGRADE_INTERFACE_VERSION","inputs":[],"outputs":[{"name":"","type":"string","internalType":"string"}],"stateMutability":"view"},{"type":"function","name":"domainSeparator","inputs":[],"outputs":[{"name":"","type":"bytes32","internalType":"bytes32"}],"stateMutability":"view"},{"type":"function","name":"eip712Domain","inputs":[],"outputs":[{"name":"fields","type":"bytes1","internalType":"bytes1"},{"name":"name","type":"string","internalType":"string"},{"name":"version","type":"string","internalType":"string"},{"name":"chainId","type":"uint256","internalType":"uint256"},{"name":"verifyingContract","type":"address","internalType":"address"},{"name":"salt","type":"bytes32","internalType":"bytes32"},{"name":"extensions","type":"uint256[]","internalType":"uint256[]"}],"stateMutability":"view"},{"type":"function","name":"getRoleAdmin","inputs":[{"name":"role","type":"bytes32","internalType":"bytes32"}],"outputs":[{"name":"","type":"bytes32","internalType":"bytes32"}],"stateMutability":"view"},{"type":"function","name":"grantRole","inputs":[{"name":"role","type":"bytes32","internalType":"bytes32"},{"name":"account","type":"address","internalType":"address"}],"outputs":[],"stateMutability":"nonpayable"},{"type":"function","name":"hasRole","inputs":[{"name":"role","type":"bytes32","internalType":"bytes32"},{"name":"account","type":"address","internalType":"address"}],"outputs":[{"name":"","type":"bool","internalType":"bool"}],"stateMutability":"view"},{"type":"function","name":"initialize","inputs":[{"name":"admin","type":"address","internalType":"address"},{"name":"governor","type":"address","internalType":"address"}],"outputs":[],"stateMutability":"nonpayable"},{"type":"function","name":"lastNonce","inputs":[{"name":"","type":"bytes32","internalType":"bytes32"}],"outputs":[{"name":"","type":"uint64","internalType":"uint64"}],"stateMutability":"view"},{"type":"function","name":"latest","inputs":[{"name":"reserveId","type":"bytes32","internalType":"bytes32"}],"outputs":[{"name":"","type":"tuple","internalType":"struct ReserveProofRegistry.StoredAttestation","components":[{"name":"auditor","type":"address","internalType":"address"},{"name":"start","type":"uint64","internalType":"uint64"},{"name":"end","type":"uint64","internalType":"uint64"},{"name":"validUntil","type":"uint64","internalType":"uint64"},{"name":"nonce","type":"uint64","internalType":"uint64"},{"name":"totalAssets","type":"uint256","internalType":"uint256"},{"name":"totalLiabilities","type":"uint256","internalType":"uint256"},{"name":"cid","type":"bytes32","internalType":"bytes32"},{"name":"digest","type":"bytes32","internalType":"bytes32"},{"name":"storedAt","type":"uint64","internalType":"uint64"},{"name":"storedAtBlock","type":"uint64","internalType":"uint64"}]}],"stateMutability":"view"},{"type":"function","name":"pause","inputs":[],"outputs":[],"stateMutability":"nonpayable"},{"type":"function","name":"paused","inputs":[],"outputs":[{"name":"","type":"bool","internalType":"bool"}],"stateMutability":"view"},{"type":"function","name":"pinAuditor","inputs":[{"name":"reserveId","type":"bytes32","internalType":"bytes32"},{"name":"auditor","type":"address","internalType":"address"}],"outputs":[],"stateMutability":"nonpayable"},{"type":"function","name":"pinnedAuditor","inputs":[{"name":"","type":"bytes32","internalType":"bytes32"}],"outputs":[{"name":"","type":"address","internalType":"address"}],"stateMutability":"view"},{"type":"function","name":"proxiableUUID","inputs":[],"outputs":[{"name":"","type":"bytes32","internalType":"bytes32"}],"stateMutability":"view"},{"type":"function","name":"renounceRole","inputs":[{"name":"role","type":"bytes32","internalType":"bytes32"},{"name":"callerConfirmation","type":"address","internalType":"address"}],"outputs":[],"stateMutability":"nonpayable"},{"type":"function","name":"revokeRole","inputs":[{"name":"role","type":"bytes32","internalType":"bytes32"},{"name":"account","type":"address","internalType":"address"}],"outputs":[],"stateMutability":"nonpayable"},{"type":"function","name":"submitReserveAttestation","inputs":[{"name":"att","type":"tuple","internalType":"struct ReserveProofRegistry.ReserveAttestation","components":[{"name":"reserveId","type":"bytes32","internalType":"bytes32"},{"name":"auditor","type":"address","internalType":"address"},{"name":"start","type":"uint64","internalType":"uint64"},{"name":"end","type":"uint64","internalType":"uint64"},{"name":"validUntil","type":"uint64","internalType":"uint64"},{"name":"totalAssets","type":"uint256","internalType":"uint256"},{"name":"totalLiabilities","type":"uint256","internalType":"uint256"},{"name":"cid","type":"bytes32","internalType":"bytes32"},{"name":"nonce","type":"uint64","internalType":"uint64"}]},{"name":"signature","type":"bytes","internalType":"bytes"}],"outputs":[],"stateMutability":"nonpayable"},{"type":"function","name":"supportsInterface","inputs":[{"name":"interfaceId","type":"bytes4","internalType":"bytes4"}],"outputs":[{"name":"","type":"bool","internalType":"bool"}],"stateMutability":"view"},{"type":"function","name":"unpause","inputs":[],"outputs":[],"stateMutability":"nonpayable"},{"type":"function","name":"unpinAuditor","inputs":[{"name":"reserveId","type":"bytes32","internalType":"bytes32"}],"outputs":[],"stateMutability":"nonpayable"},{"type":"function","name":"upgradeToAndCall","inputs":[{"name":"newImplementation","type":"address","internalType":"address"},{"name":"data","type":"bytes","internalType":"bytes"}],"outputs":[],"stateMutability":"payable"},{"type":"event","name":"AttestationSubmitted","inputs":[{"name":"reserveId","type":"bytes32","indexed":true,"internalType":"bytes32"},{"name":"digest","type":"bytes32","indexed":false,"internalType":"bytes32"},{"name":"auditor","type":"address","indexed":true,"internalType":"address"},{"name":"start","type":"uint64","indexed":false,"internalType":"uint64"},{"name":"end","type":"uint64","indexed":false,"internalType":"uint64"},{"name":"validUntil","type":"uint64","indexed":false,"internalType":"uint64"},{"name":"totalAssets","type":"uint256","indexed":false,"internalType":"uint256"},{"name":"totalLiabilities","type":"uint256","indexed":false,"internalType":"uint256"},{"name":"cid","type":"bytes32","indexed":false,"internalType":"bytes32"},{"name":"nonce","type":"uint64","indexed":false,"internalType":"uint64"}],"anonymous":false},{"type":"event","name":"AuditorPinned","inputs":[{"name":"reserveId","type":"bytes32","indexed":true,"internalType":"bytes32"},{"name":"auditor","type":"address","indexed":true,"internalType":"address"}],"anonymous":false},{"type":"event","name":"AuditorUnpinned","inputs":[{"name":"reserveId","type":"bytes32","indexed":true,"internalType":"bytes32"}],"anonymous":false},{"type":"event","name":"EIP712DomainChanged","inputs":[],"anonymous":false},{"type":"event","name":"Initialized","inputs":[{"name":"version","type":"uint64","indexed":false,"internalType":"uint64"}],"anonymous":false},{"type":"event","name":"Paused","inputs":[{"name":"account","type":"address","indexed":false,"internalType":"address"}],"anonymous":false},{"type":"event","name":"RegistryPaused","inputs":[{"name":"by","type":"address","indexed":true,"internalType":"address"}],"anonymous":false},{"type":"event","name":"RegistryUnpaused","inputs":[{"name":"by","type":"address","indexed":true,"internalType":"address"}],"anonymous":false},{"type":"event","name":"RoleAdminChanged","inputs":[{"name":"role","type":"bytes32","indexed":true,"internalType":"bytes32"},{"name":"previousAdminRole","type":"bytes32","indexed":true,"internalType":"bytes32"},{"name":"newAdminRole","type":"bytes32","indexed":true,"internalType":"bytes32"}],"anonymous":false},{"type":"event","name":"RoleGranted","inputs":[{"name":"role","type":"bytes32","indexed":true,"internalType":"bytes32"},{"name":"account","type":"address","indexed":true,"internalType":"address"},{"name":"sender","type":"address","indexed":true,"internalType":"address"}],"anonymous":false},{"type":"event","name":"RoleRevoked","inputs":[{"name":"role","type":"bytes32","indexed":true,"internalType":"bytes32"},{"name":"account","type":"address","indexed":true,"internalType":"address"},{"name":"sender","type":"address","indexed":true,"internalType":"address"}],"anonymous":false},{"type":"event","name":"Unpaused","inputs":[{"name":"account","type":"address","indexed":false,"internalType":"address"}],"anonymous":false},{"type":"event","name":"Upgraded","inputs":[{"name":"implementation","type":"address","indexed":true,"internalType":"address"}],"anonymous":false},{"type":"error","name":"AccessControlBadConfirmation","inputs":[]},{"type":"error","name":"AccessControlUnauthorizedAccount","inputs":[{"name":"account","type":"address","internalType":"address"},{"name":"neededRole","type":"bytes32","internalType":"bytes32"}]},{"type":"error","name":"AddressEmptyCode","inputs":[{"name":"target","type":"address","internalType":"address"}]},{"type":"error","name":"ECDSAInvalidSignature","inputs":[]},{"type":"error","name":"ECDSAInvalidSignatureLength","inputs":[{"name":"length","type":"uint256","internalType":"uint256"}]},{"type":"error","name":"ECDSAInvalidSignatureS","inputs":[{"name":"s","type":"bytes32","internalType":"bytes32"}]},{"type":"error","name":"ERC1967InvalidImplementation","inputs":[{"name":"implementation","type":"address","internalType":"address"}]},{"type":"error","name":"ERC1967NonPayable","inputs":[]},{"type":"error","name":"EnforcedPause","inputs":[]},{"type":"error","name":"ExpectedPause","inputs":[]},{"type":"error","name":"FailedInnerCall","inputs":[]},{"type":"error","name":"InvalidInitialization","inputs":[]},{"type":"error","name":"NotInitializing","inputs":[]},{"type":"error","name":"ReentrancyGuardReentrantCall","inputs":[]},{"type":"error","name":"UUPSUnauthorizedCallContext","inputs":[]},{"type":"error","name":"UUPSUnsupportedProxiableUUID","inputs":[{"name":"slot","type":"bytes32","internalType":"bytes32"}]}],"bytecode":{"object":"0x60a080604052346100cd57306080527ff0c57e16840df040f15088dc2f81fe391c3923bec73e23a9662efc9c229c6a009081549060ff8260401c166100be57506001600160401b036002600160401b031982821601610079575b6040516133149081620000d38239608051818181610a1501526116a10152f35b6001600160401b031990911681179091556040519081527fc7f505b2f371ae2175ee4913f4499e1f2633a7b5936321eed1cdaeb6115181d290602090a1388080610059565b63f92ee8a960e01b8152600490fd5b600080fdfe608080604052600436101561001357600080fd5b60003560e01c90816301ffc9a7146125c05750806307090c1f1461256757806318a1551614612507578063248a9ca31461249b5780632f2ff15d1461241f57806332c467251461230557806336568abe1461227b5780633f4ba83a146121785780633f60d7991461211f578063485cc955146119125780634f1ef2861461162557806350c37a4714610a8f57806352d1902d146109cf5780635c975abb1461096f5780636e1d616e1461091657806379feb107146107575780638456cb591461067c57806384b0196e1461049557806391d14854146103fd578063a217fddf146103c3578063ad3cb1cc14610343578063b369fef1146102ae578063ca7db8301461025a578063ccc5749014610201578063d547741f146101835763f698da251461013d57600080fd5b3461017e5760007ffffffffffffffffffffffffffffffffffffffffffffffffffffffffffffffffc36011261017e57602061017661307c565b604051908152f35b600080fd5b3461017e5760407ffffffffffffffffffffffffffffffffffffffffffffffffffffffffffffffffc36011261017e576101ff6004356101c061267c565b90806000527f02dd7bc7dec4dceedda775e58dd541e08a116c6c53815c0bd028192f7b6268006020526101fa6001604060002001546128e7565b612bcd565b005b3461017e5760007ffffffffffffffffffffffffffffffffffffffffffffffffffffffffffffffffc36011261017e5760206040517f7935bd0ae54bc31f548c14dba4d37c5c64b3f8ca900cb468fb8abd54d5894f558152f35b3461017e5760207ffffffffffffffffffffffffffffffffffffffffffffffffffffffffffffffffc36011261017e576004356000526001602052602067ffffffffffffffff60406000205416604051908152f35b3461017e5760207ffffffffffffffffffffffffffffffffffffffffffffffffffffffffffffffffc36011261017e576004356102e861288b565b80600052600260205260406000207fffffffffffffffffffffffff000000000000000000000000000000000000000081541690557ff3f0cf82d8d3e7a7e2ddf9031ebc24389f8de84b17322e882c1772a6afca5d65600080a2005b3461017e5760007ffffffffffffffffffffffffffffffffffffffffffffffffffffffffffffffffc36011261017e576103bf604051610381816126df565b600581527f352e302e3000000000000000000000000000000000000000000000000000000060208201526040519182916020835260208301906127ad565b0390f35b3461017e5760007ffffffffffffffffffffffffffffffffffffffffffffffffffffffffffffffffc36011261017e57602060405160008152f35b3461017e5760407ffffffffffffffffffffffffffffffffffffffffffffffffffffffffffffffffc36011261017e5761043461267c565b6004356000527f02dd7bc7dec4dceedda775e58dd541e08a116c6c53815c0bd028192f7b62680060205273ffffffffffffffffffffffffffffffffffffffff60406000209116600052602052602060ff604060002054166040519015158152f35b3461017e5760007ffffffffffffffffffffffffffffffffffffffffffffffffffffffffffffffffc36011261017e577fa16a46d94261c7517cc8ff89f61c0ce93598e3c849801011dee649a6a557d100541580610653575b156105f5576104fa612d36565b610502612e3f565b60405160208082019282841067ffffffffffffffff8511176105c657916020610579859461056b9796604052600084526040519788977f0f00000000000000000000000000000000000000000000000000000000000000895260e0858a015260e08901906127ad565b9087820360408901526127ad565b91466060870152306080870152600060a087015285830360c0870152519182815201929160005b8281106105af57505050500390f35b8351855286955093810193928101926001016105a0565b7f4e487b7100000000000000000000000000000000000000000000000000000000600052604160045260246000fd5b60646040517f08c379a000000000000000000000000000000000000000000000000000000000815260206004820152601560248201527f4549503731323a20556e696e697469616c697a656400000000000000000000006044820152fd5b507fa16a46d94261c7517cc8ff89f61c0ce93598e3c849801011dee649a6a557d10154156104ed565b3461017e5760007ffffffffffffffffffffffffffffffffffffffffffffffffffffffffffffffffc36011261017e576106b361288b565b6106bb612c8e565b7fcd5ed15c6e187e77e9aee88184c21f4f2182ab5827cb3b7e07fbedcd63f0330060017fffffffffffffffffffffffffffffffffffffffffffffffffffffffffffffff008254161790557f62e78cea01bee320cd4e420270b5ea74000d11b0c9f74754ebdbfc544b05a2586020604051338152a1337f0791e63d77b61bb6580956f9ccd39556c860ae1c97847fe2ee766e1d361b6baf600080a2005b3461017e5760207ffffffffffffffffffffffffffffffffffffffffffffffffffffffffffffffffc36011261017e576000610140604051610797816126c2565b8281528260208201528260408201528260608201528260808201528260a08201528260c08201528260e0820152826101008201528261012082015201526004356000526000602052610160604060002067ffffffffffffffff6101406040516107ff816126c2565b82600685549573ffffffffffffffffffffffffffffffffffffffff87168452828760a01c1660208501528260018201548181166040870152818160401c16606087015260801c166080850152600281015460a0850152600381015460c0850152600481015460e08501526005810154610100850152015481811661012084015260401c168282015273ffffffffffffffffffffffffffffffffffffffff6040519416845282602082015116602085015282604082015116604085015282606082015116606085015282608082015116608085015260a081015160a085015260c081015160c085015260e081015160e08501526101008101516101008501528261012082015116610120850152015116610140820152f35b3461017e5760007ffffffffffffffffffffffffffffffffffffffffffffffffffffffffffffffffc36011261017e5760206040517f59a1c48e5837ad7a7f3dcedcbe129bf3249ec4fbf651fd4f5e2600ead39fe2f58152f35b3461017e5760007ffffffffffffffffffffffffffffffffffffffffffffffffffffffffffffffffc36011261017e57602060ff7fcd5ed15c6e187e77e9aee88184c21f4f2182ab5827cb3b7e07fbedcd63f0330054166040519015158152f35b3461017e5760007ffffffffffffffffffffffffffffffffffffffffffffffffffffffffffffffffc36011261017e5773ffffffffffffffffffffffffffffffffffffffff7f0000000000000000000000000000000000000000000000000000000000000000163003610a655760206040517f360894a13ba1a3210667c828492db98dca3e2076cc3735a920a3ca505d382bbc8152f35b60046040517fe07c8dba000000000000000000000000000000000000000000000000000000008152fd5b3461017e577ffffffffffffffffffffffffffffffffffffffffffffffffffffffffffffffffc3601610140811261017e576101201361017e5767ffffffffffffffff610124351161017e573660236101243501121561017e5767ffffffffffffffff61012435600401351161017e5736602461012435600401356101243501011161017e5760027f9b779b17422d0df92223018b32b4d1fa46e071723d6817e2486d003becc55f0054146115fb5760027f9b779b17422d0df92223018b32b4d1fa46e071723d6817e2486d003becc55f0055610b69612c8e565b3360009081527f0ccd620bf3d160560a080a952c4e6ce3e60ff6f3efdae66194d44e6af719809560205260409020547f3204c940063673962b481a0395619b3dbbd137589c419e993978c1c71bcf68ec9060ff16156115c457600435156115665773ffffffffffffffffffffffffffffffffffffffff610be761280b565b161561150857610bf561282e565b67ffffffffffffffff80610c07612845565b16911610156114aa57610c1861285c565b67ffffffffffffffff4291161061144c5760e435156113ee576042610c3b61280b565b67ffffffffffffffff610c4c61282e565b81610c55612845565b81610c5e61285c565b9181610c68612873565b9573ffffffffffffffffffffffffffffffffffffffff604051997f2fde04132e18a79df23e05224dcc98208ea0d1f9960ecdf339295eef31a0f85a60208c015260043560408c01521660608a01521660808801521660a08601521660c084015260a43560e084015260c43561010084015260e435610120840152166101408201526101408152610cf7816126c2565b60208151910120610d0661307c565b90604051917f190100000000000000000000000000000000000000000000000000000000000083526002830152602282015220610d66610d5d610d5736610124356004013560246101243501612776565b83612f59565b90929192612f95565b73ffffffffffffffffffffffffffffffffffffffff610d8361280b565b1673ffffffffffffffffffffffffffffffffffffffff8216036113905773ffffffffffffffffffffffffffffffffffffffff811660009081527fc3e71cdf4d6b19b51728813415f497e36084f42794ee08da6ceade2e0e3ab212602052604090205460ff161561133257600435600052600260205273ffffffffffffffffffffffffffffffffffffffff6040600020541690816112b2575b5050600435600052600160205267ffffffffffffffff604060002054166001610e42612873565b910167ffffffffffffffff81116112835767ffffffffffffffff80911691160361122557610e6e612873565b600435600052600160205267ffffffffffffffff604060002091167fffffffffffffffffffffffffffffffffffffffffffffffff0000000000000000825416179055611153610ebb61280b565b67ffffffffffffffff610ecc61282e565b81610ed5612845565b81610ede61285c565b9181610ee8612873565b9573ffffffffffffffffffffffffffffffffffffffff60405199610f0b8b6126c2565b16895216602088015216604086015216606084015216608082015260a43560a082015260c43560c082015260e43560e08201528261010082015267ffffffffffffffff421661012082015267ffffffffffffffff4316610140820152600435600052600060205267ffffffffffffffff6101406006604060002073ffffffffffffffffffffffffffffffffffffffff8551168154907fffffffff000000000000000000000000000000000000000000000000000000007bffffffffffffffff0000000000000000000000000000000000000000602089015160a01b1692161717815560018101846040870151167fffffffffffffffffffffffffffffffffffffffffffffffff000000000000000082541617815561106b8560608801511682907fffffffffffffffffffffffffffffffff0000000000000000ffffffffffffffff6fffffffffffffffff000000000000000083549260401b169116179055565b60808601517fffffffffffffffff0000000000000000ffffffffffffffffffffffffffffffff77ffffffffffffffff0000000000000000000000000000000083549260801b16911617905560a0850151600282015560c0850151600382015560e085015160048201556101008501516005820155019282610120820151167fffffffffffffffffffffffffffffffffffffffffffffffff00000000000000008554161784550151167fffffffffffffffffffffffffffffffff0000000000000000ffffffffffffffff6fffffffffffffffff000000000000000083549260401b169116179055565b73ffffffffffffffffffffffffffffffffffffffff61117061280b565b67ffffffffffffffff61118161282e565b8161118a612845565b8161119361285c565b918161119d612873565b956040519a8b521660208a015216604088015216606086015260a435608086015260c43560a086015260e43560c08601521660e084015216907f7cff104134ba5055952dc9a8e6880eac98076a7f21e444610d02b12ce453472661010060043592a360017f9b779b17422d0df92223018b32b4d1fa46e071723d6817e2486d003becc55f0055005b60646040517f08c379a000000000000000000000000000000000000000000000000000000000815260206004820152600960248201527f626164206e6f6e636500000000000000000000000000000000000000000000006044820152fd5b7f4e487b7100000000000000000000000000000000000000000000000000000000600052601160045260246000fd5b73ffffffffffffffffffffffffffffffffffffffff16036112d4578180610e1b565b60646040517f08c379a000000000000000000000000000000000000000000000000000000000815260206004820152601260248201527f61756469746f72206e6f742070696e6e656400000000000000000000000000006044820152fd5b60646040517f08c379a000000000000000000000000000000000000000000000000000000000815260206004820152601360248201527f61756469746f72206e6f7420616c6c6f776564000000000000000000000000006044820152fd5b60646040517f08c379a000000000000000000000000000000000000000000000000000000000815260206004820152601160248201527f7369676e657220213d2061756469746f720000000000000000000000000000006044820152fd5b60646040517f08c379a000000000000000000000000000000000000000000000000000000000815260206004820152600560248201527f6369643d300000000000000000000000000000000000000000000000000000006044820152fd5b60646040517f08c379a000000000000000000000000000000000000000000000000000000000815260206004820152600560248201527f7374616c650000000000000000000000000000000000000000000000000000006044820152fd5b60646040517f08c379a000000000000000000000000000000000000000000000000000000000815260206004820152600b60248201527f74696d652077696e646f770000000000000000000000000000000000000000006044820152fd5b60646040517f08c379a000000000000000000000000000000000000000000000000000000000815260206004820152600960248201527f61756469746f723d3000000000000000000000000000000000000000000000006044820152fd5b60646040517f08c379a000000000000000000000000000000000000000000000000000000000815260206004820152600b60248201527f7265736572766549643d300000000000000000000000000000000000000000006044820152fd5b604490604051907fe2517d3f0000000000000000000000000000000000000000000000000000000082523360048301526024820152fd5b60046040517f3ee5aeb5000000000000000000000000000000000000000000000000000000008152fd5b60407ffffffffffffffffffffffffffffffffffffffffffffffffffffffffffffffffc36011261017e5761165761269f565b60243567ffffffffffffffff811161017e573660238201121561017e57611688903690602481600401359101612776565b9073ffffffffffffffffffffffffffffffffffffffff807f0000000000000000000000000000000000000000000000000000000000000000168030149081156118e4575b50610a65576116d961288b565b811690604051907f52d1902d0000000000000000000000000000000000000000000000000000000082526020918281600481875afa600091816118b5575b5061174d57602484604051907f4c9c8ce30000000000000000000000000000000000000000000000000000000082526004820152fd5b9284937f360894a13ba1a3210667c828492db98dca3e2076cc3735a920a3ca505d382bbc908181036118845750823b1561185357817fffffffffffffffffffffffff0000000000000000000000000000000000000000825416179055604051907fbc7cd75a20ee27fd9adebab32041f755214dbc6bffa90cc0225b39da2e5c2d3b600080a2835115611820575060008084846101ff96519101845af4903d15611817573d6117fa8161273c565b9061180860405192836126fb565b8152600081943d92013e61323e565b6060925061323e565b925050503461182b57005b807fb398979f0000000000000000000000000000000000000000000000000000000060049252fd5b602482604051907f4c9c8ce30000000000000000000000000000000000000000000000000000000082526004820152fd5b602490604051907faa1d49a40000000000000000000000000000000000000000000000000000000082526004820152fd5b9091508381813d83116118dd575b6118cd81836126fb565b8101031261017e57519086611717565b503d6118c3565b9050817f360894a13ba1a3210667c828492db98dca3e2076cc3735a920a3ca505d382bbc54161415846116cc565b3461017e5760407ffffffffffffffffffffffffffffffffffffffffffffffffffffffffffffffffc36011261017e5761194961269f565b61195161267c565b907ff0c57e16840df040f15088dc2f81fe391c3923bec73e23a9662efc9c229c6a00549067ffffffffffffffff82168015908161210f575b6001149081612105575b1590816120fc575b506120d25760017fffffffffffffffffffffffffffffffffffffffffffffffff00000000000000008316177ff0c57e16840df040f15088dc2f81fe391c3923bec73e23a9662efc9c229c6a005560ff8260401c161561207d575b6119fd612f00565b611a05612f00565b611a0d612f00565b7fcd5ed15c6e187e77e9aee88184c21f4f2182ab5827cb3b7e07fbedcd63f033007fffffffffffffffffffffffffffffffffffffffffffffffffffffffffffffff008154169055611a5c612f00565b611a64612f00565b60017f9b779b17422d0df92223018b32b4d1fa46e071723d6817e2486d003becc55f0055611a90612f00565b604051611a9c816126df565b601481527f5265736572766550726f6f665265676973747279000000000000000000000000602082015260405190611ad3826126df565b600182527f31000000000000000000000000000000000000000000000000000000000000006020830152611b05612f00565b611b0d612f00565b80519067ffffffffffffffff82116105c6578190611b4b7fa16a46d94261c7517cc8ff89f61c0ce93598e3c849801011dee649a6a557d10254612ce3565b601f8111611fb4575b50602090601f8311600114611e9257600092611e87575b50507fffffffffffffffffffffffffffffffffffffffffffffffffffffffffffffffff8260011b9260031b1c1916177fa16a46d94261c7517cc8ff89f61c0ce93598e3c849801011dee649a6a557d102555b805167ffffffffffffffff81116105c6577fa16a46d94261c7517cc8ff89f61c0ce93598e3c849801011dee649a6a557d10391611bfa8354612ce3565b601f8111611e23575b50602090601f8311600114611d58579282611ca893611cae969360ff9996600092611d4d575b50507fffffffffffffffffffffffffffffffffffffffffffffffffffffffffffffffff8260011b9260031b1c19161790555b60007fa16a46d94261c7517cc8ff89f61c0ce93598e3c849801011dee649a6a557d1005560007fa16a46d94261c7517cc8ff89f61c0ce93598e3c849801011dee649a6a557d1015561292c565b50612a09565b5060401c1615611cba57005b7fffffffffffffffffffffffffffffffffffffffffffffff00ffffffffffffffff7ff0c57e16840df040f15088dc2f81fe391c3923bec73e23a9662efc9c229c6a0054167ff0c57e16840df040f15088dc2f81fe391c3923bec73e23a9662efc9c229c6a00557fc7f505b2f371ae2175ee4913f4499e1f2633a7b5936321eed1cdaeb6115181d2602060405160018152a1005b015190508980611c29565b907fffffffffffffffffffffffffffffffffffffffffffffffffffffffffffffffe0831691846000527f5f9ce34815f8e11431c7bb75a8e6886a91478f7ffc1dbb0a98dc240fddd76b759260005b818110611e0b575093611cae969360ff99969360019383611ca89810611dd4575b505050811b019055611c5b565b01517fffffffffffffffffffffffffffffffffffffffffffffffffffffffffffffffff60f88460031b161c19169055898080611dc7565b92936020600181928786015181550195019301611da6565b836000527f5f9ce34815f8e11431c7bb75a8e6886a91478f7ffc1dbb0a98dc240fddd76b75601f840160051c81019160208510611e7d575b601f0160051c01905b818110611e715750611c03565b60008155600101611e64565b9091508190611e5b565b015190508680611b6b565b92507fa16a46d94261c7517cc8ff89f61c0ce93598e3c849801011dee649a6a557d1026000527f42ad5d3e1f2e6e70edcf6d991b8a3023d3fca8047a131592f9edb9fd9b89d57d906000935b7fffffffffffffffffffffffffffffffffffffffffffffffffffffffffffffffe084168510611f995760019450837fffffffffffffffffffffffffffffffffffffffffffffffffffffffffffffffe0811610611f62575b505050811b017fa16a46d94261c7517cc8ff89f61c0ce93598e3c849801011dee649a6a557d10255611bbd565b01517fffffffffffffffffffffffffffffffffffffffffffffffffffffffffffffffff60f88460031b161c19169055868080611f35565b81810151835560209485019460019093019290910190611ede565b9091507fa16a46d94261c7517cc8ff89f61c0ce93598e3c849801011dee649a6a557d102600052601f830160051c7f42ad5d3e1f2e6e70edcf6d991b8a3023d3fca8047a131592f9edb9fd9b89d57d0160208410612056575b908392915b601f820160051c7f42ad5d3e1f2e6e70edcf6d991b8a3023d3fca8047a131592f9edb9fd9b89d57d0181106120475750611b54565b60008155849350600101612012565b507f42ad5d3e1f2e6e70edcf6d991b8a3023d3fca8047a131592f9edb9fd9b89d57d61200d565b680100000000000000017fffffffffffffffffffffffffffffffffffffffffffffff0000000000000000008316177ff0c57e16840df040f15088dc2f81fe391c3923bec73e23a9662efc9c229c6a00556119f5565b60046040517ff92ee8a9000000000000000000000000000000000000000000000000000000008152fd5b9050158461199b565b303b159150611993565b604084901c60ff16159150611989565b3461017e5760007ffffffffffffffffffffffffffffffffffffffffffffffffffffffffffffffffc36011261017e5760206040517f3204c940063673962b481a0395619b3dbbd137589c419e993978c1c71bcf68ec8152f35b3461017e5760007ffffffffffffffffffffffffffffffffffffffffffffffffffffffffffffffffc36011261017e576121af61288b565b7fcd5ed15c6e187e77e9aee88184c21f4f2182ab5827cb3b7e07fbedcd63f03300805460ff811615612251577fffffffffffffffffffffffffffffffffffffffffffffffffffffffffffffff001690557f5db9ee0a495bf2e6ff9c91a7834c1ba4fdd244a5e8aa4e537bd38aeae4b073aa6020604051338152a1337f9ba7d7851c953f6a5f0aad8bccc53ba3ecfe15944a69b407b3be74189f469818600080a2005b60046040517f8dfc202b000000000000000000000000000000000000000000000000000000008152fd5b3461017e5760407ffffffffffffffffffffffffffffffffffffffffffffffffffffffffffffffffc36011261017e576122b261267c565b3373ffffffffffffffffffffffffffffffffffffffff8216036122db576101ff90600435612bcd565b60046040517f6697b232000000000000000000000000000000000000000000000000000000008152fd5b3461017e5760407ffffffffffffffffffffffffffffffffffffffffffffffffffffffffffffffffc36011261017e5760043573ffffffffffffffffffffffffffffffffffffffff61235461267c565b61235c61288b565b169081156123c1578060005260026020526040600020827fffffffffffffffffffffffff00000000000000000000000000000000000000008254161790557fd1a49bf215e13bd1984e522568b8bde12a97da8c3bb090e675c61e7a53bfe72a600080a3005b60646040517f08c379a000000000000000000000000000000000000000000000000000000000815260206004820152600b60248201527f6261642061756469746f720000000000000000000000000000000000000000006044820152fd5b3461017e5760407ffffffffffffffffffffffffffffffffffffffffffffffffffffffffffffffffc36011261017e576101ff60043561245c61267c565b90806000527f02dd7bc7dec4dceedda775e58dd541e08a116c6c53815c0bd028192f7b6268006020526124966001604060002001546128e7565b612b08565b3461017e5760207ffffffffffffffffffffffffffffffffffffffffffffffffffffffffffffffffc36011261017e576004356000527f02dd7bc7dec4dceedda775e58dd541e08a116c6c53815c0bd028192f7b6268006020526020600160406000200154604051908152f35b3461017e5760207ffffffffffffffffffffffffffffffffffffffffffffffffffffffffffffffffc36011261017e576004356000526002602052602073ffffffffffffffffffffffffffffffffffffffff60406000205416604051908152f35b3461017e5760007ffffffffffffffffffffffffffffffffffffffffffffffffffffffffffffffffc36011261017e5760206040517f2fde04132e18a79df23e05224dcc98208ea0d1f9960ecdf339295eef31a0f85a8152f35b3461017e5760207ffffffffffffffffffffffffffffffffffffffffffffffffffffffffffffffffc36011261017e57600435907fffffffff00000000000000000000000000000000000000000000000000000000821680920361017e57817f7965db0b0000000000000000000000000000000000000000000000000000000060209314908115612652575b5015158152f35b7f01ffc9a7000000000000000000000000000000000000000000000000000000009150148361264b565b6024359073ffffffffffffffffffffffffffffffffffffffff8216820361017e57565b6004359073ffffffffffffffffffffffffffffffffffffffff8216820361017e57565b610160810190811067ffffffffffffffff8211176105c657604052565b6040810190811067ffffffffffffffff8211176105c657604052565b90601f7fffffffffffffffffffffffffffffffffffffffffffffffffffffffffffffffe0910116810190811067ffffffffffffffff8211176105c657604052565b67ffffffffffffffff81116105c657601f017fffffffffffffffffffffffffffffffffffffffffffffffffffffffffffffffe01660200190565b9291926127828261273c565b9161279060405193846126fb565b82948184528183011161017e578281602093846000960137010152565b919082519283825260005b8481106127f75750507fffffffffffffffffffffffffffffffffffffffffffffffffffffffffffffffe0601f8460006020809697860101520116010190565b6020818301810151848301820152016127b8565b60243573ffffffffffffffffffffffffffffffffffffffff8116810361017e5790565b60443567ffffffffffffffff8116810361017e5790565b60643567ffffffffffffffff8116810361017e5790565b60843567ffffffffffffffff8116810361017e5790565b6101043567ffffffffffffffff8116810361017e5790565b3360009081527f75e09417c5070057df3eafe5054d52fa0b2a87d64a235e197963b615aedee80360205260409020547f7935bd0ae54bc31f548c14dba4d37c5c64b3f8ca900cb468fb8abd54d5894f559060ff16156115c45750565b806000527f02dd7bc7dec4dceedda775e58dd541e08a116c6c53815c0bd028192f7b62680060205260406000203360005260205260ff60406000205416156115c45750565b73ffffffffffffffffffffffffffffffffffffffff1660008181527fb7db2dd08fcb62d0c9e08c51941cae53c267786a0b75803fb7960902fc8ef97d60205260408120549091907f02dd7bc7dec4dceedda775e58dd541e08a116c6c53815c0bd028192f7b6268009060ff16612a0457828052602052604082208183526020526040822060017fffffffffffffffffffffffffffffffffffffffffffffffffffffffffffffff0082541617905533917f2f8788117e7eff1d82e926ec794901d17c78024a50270940304540a733656f0d8180a4600190565b505090565b73ffffffffffffffffffffffffffffffffffffffff1660008181527f75e09417c5070057df3eafe5054d52fa0b2a87d64a235e197963b615aedee80360205260408120549091907f7935bd0ae54bc31f548c14dba4d37c5c64b3f8ca900cb468fb8abd54d5894f55907f02dd7bc7dec4dceedda775e58dd541e08a116c6c53815c0bd028192f7b6268009060ff16612b0257818452602052604083208284526020526040832060017fffffffffffffffffffffffffffffffffffffffffffffffffffffffffffffff008254161790557f2f8788117e7eff1d82e926ec794901d17c78024a50270940304540a733656f0d339380a4600190565b50505090565b906000918083527f02dd7bc7dec4dceedda775e58dd541e08a116c6c53815c0bd028192f7b6268008060205273ffffffffffffffffffffffffffffffffffffffff6040852093169283855260205260ff60408520541615600014612b0257818452602052604083208284526020526040832060017fffffffffffffffffffffffffffffffffffffffffffffffffffffffffffffff008254161790557f2f8788117e7eff1d82e926ec794901d17c78024a50270940304540a733656f0d339380a4600190565b906000918083527f02dd7bc7dec4dceedda775e58dd541e08a116c6c53815c0bd028192f7b6268008060205273ffffffffffffffffffffffffffffffffffffffff6040852093169283855260205260ff604085205416600014612b025781845260205260408320828452602052604083207fffffffffffffffffffffffffffffffffffffffffffffffffffffffffffffff0081541690557ff6391f5c32d9c69d2a47ea670b442974b53935d1edc7fd64eb21e047a839171b339380a4600190565b60ff7fcd5ed15c6e187e77e9aee88184c21f4f2182ab5827cb3b7e07fbedcd63f033005416612cb957565b60046040517fd93c0665000000000000000000000000000000000000000000000000000000008152fd5b90600182811c92168015612d2c575b6020831014612cfd57565b7f4e487b7100000000000000000000000000000000000000000000000000000000600052602260045260246000fd5b91607f1691612cf2565b604051906000827fa16a46d94261c7517cc8ff89f61c0ce93598e3c849801011dee649a6a557d10291825492612d6b84612ce3565b80845293602091600191828116908115612dfa5750600114612d99575b505050612d97925003836126fb565b565b60009081527f42ad5d3e1f2e6e70edcf6d991b8a3023d3fca8047a131592f9edb9fd9b89d57d9590935091905b828410612de25750612d97945050508101602001388080612d88565b85548885018301529485019487945092810192612dc6565b91505060209350612d979592507fffffffffffffffffffffffffffffffffffffffffffffffffffffffffffffff0091501682840152151560051b820101388080612d88565b604051906000827fa16a46d94261c7517cc8ff89f61c0ce93598e3c849801011dee649a6a557d10391825492612e7484612ce3565b80845293602091600191828116908115612dfa5750600114612e9f57505050612d97925003836126fb565b60009081527f5f9ce34815f8e11431c7bb75a8e6886a91478f7ffc1dbb0a98dc240fddd76b759590935091905b828410612ee85750612d97945050508101602001388080612d88565b85548885018301529485019487945092810192612ecc565b60ff7ff0c57e16840df040f15088dc2f81fe391c3923bec73e23a9662efc9c229c6a005460401c1615612f2f57565b60046040517fd7e6bcf8000000000000000000000000000000000000000000000000000000008152fd5b8151919060418303612f8a57612f8392506020820151906060604084015193015160001a906130f2565b9192909190565b505060009160029190565b600481101561304d5780612fa7575050565b60018103612fd95760046040517ff645eedf000000000000000000000000000000000000000000000000000000008152fd5b6002810361301257602482604051907ffce698f70000000000000000000000000000000000000000000000000000000082526004820152fd5b60031461301c5750565b602490604051907fd78bce0c0000000000000000000000000000000000000000000000000000000082526004820152fd5b7f4e487b7100000000000000000000000000000000000000000000000000000000600052602160045260246000fd5b61308461318f565b61308c6131f9565b6040519060208201927f8b73c3c69bb8fe3d512ecc4cf759cc79239f7b179b0ffacaa9a75d522b39400f8452604083015260608201524660808201523060a082015260a0815260c0810181811067ffffffffffffffff8211176105c65760405251902090565b91907f7fffffffffffffffffffffffffffffff5d576e7357a4501ddfe92f46681b20a0841161318357926020929160ff608095604051948552168484015260408301526060820152600092839182805260015afa1561317757805173ffffffffffffffffffffffffffffffffffffffff81161561316e57918190565b50809160019190565b604051903d90823e3d90fd5b50505060009160039190565b613197612d36565b80519081156131a7576020012090565b50507fa16a46d94261c7517cc8ff89f61c0ce93598e3c849801011dee649a6a557d1005480156131d45790565b507fc5d2460186f7233c927e7db2dcc703c0e500b653ca82273b7bfad8045d85a47090565b613201612e3f565b8051908115613211576020012090565b50507fa16a46d94261c7517cc8ff89f61c0ce93598e3c849801011dee649a6a557d1015480156131d45790565b9061327d575080511561325357805190602001fd5b60046040517f1425ea42000000000000000000000000000000000000000000000000000000008152fd5b815115806132d5575b61328e575090565b60249073ffffffffffffffffffffffffffffffffffffffff604051917f9996b315000000000000000000000000000000000000000000000000000000008352166004820152fd5b50803b1561328656fea264697066735822122034177cd5f083f61a980996a8c7929799234f39ffa768e52808e69daea49bed0d64736f6c63430008180033","linkReferences":{}},"methodIdentifiers":{"ATTESTATION_TYPEHASH()":"07090c1f","AUDITOR_ROLE()":"6e1d616e","DEFAULT_ADMIN_ROLE()":"a217fddf","GOVERNOR_ROLE()":"ccc57490","REPORTER_ROLE()":"3f60d799","UPGRADE_INTERFACE_VERSION()":"ad3cb1cc","domainSeparator()":"f698da25","eip712Domain()":"84b0196e","getRoleAdmin(bytes32)":"248a9ca3","grantRole(bytes32,address)":"2f2ff15d","hasRole(bytes32,address)":"91d14854","initialize(address,address)":"485cc955","lastNonce(bytes32)":"ca7db830","latest(bytes32)":"79feb107","pause()":"8456cb59","paused()":"5c975abb","pinAuditor(bytes32,address)":"32c46725","pinnedAuditor(bytes32)":"18a15516","proxiableUUID()":"52d1902d","renounceRole(bytes32,address)":"36568abe","revokeRole(bytes32,address)":"d547741f","submitReserveAttestation((bytes32,address,uint64,uint64,uint64,uint256,uint256,bytes32,uint64),bytes)":"50c37a47","supportsInterface(bytes4)":"01ffc9a7","unpause()":"3f4ba83a","unpinAuditor(bytes32)":"b369fef1","upgradeToAndCall(address,bytes)":"4f1ef286"},"id":1}