{
  "_format": "hh-sol-artifact-1",
  "contractName": "WrappedShares4626",
  "sourceName": "contracts/token/WrappedShares4626.sol",
  "abi": [
    {
      "inputs": [
        {
          "internalType": "contract IERC20",
          "name": "asset_",
          "type": "address"
        },
        {
          "internalType": "string",
          "name": "name_",
          "type": "string"
        },
        {
          "internalType": "string",
          "name": "symbol_",
          "type": "string"
        },
        {
          "internalType": "address",
          "name": "admin",
          "type": "address"
        }
      ],
      "stateMutability": "nonpayable",
      "type": "constructor"
    },
    {
      "inputs": [],
      "name": "AccessControlBadConfirmation",
      "type": "error"
    },
    {
      "inputs": [
        {
          "internalType": "address",
          "name": "account",
          "type": "address"
        },
        {
          "internalType": "bytes32",
          "name": "neededRole",
          "type": "bytes32"
        }
      ],
      "name": "AccessControlUnauthorizedAccount",
      "type": "error"
    },
    {
      "inputs": [
        {
          "internalType": "address",
          "name": "spender",
          "type": "address"
        },
        {
          "internalType": "uint256",
          "name": "allowance",
          "type": "uint256"
        },
        {
          "internalType": "uint256",
          "name": "needed",
          "type": "uint256"
        }
      ],
      "name": "ERC20InsufficientAllowance",
      "type": "error"
    },
    {
      "inputs": [
        {
          "internalType": "address",
          "name": "sender",
          "type": "address"
        },
        {
          "internalType": "uint256",
          "name": "balance",
          "type": "uint256"
        },
        {
          "internalType": "uint256",
          "name": "needed",
          "type": "uint256"
        }
      ],
      "name": "ERC20InsufficientBalance",
      "type": "error"
    },
    {
      "inputs": [
        {
          "internalType": "address",
          "name": "approver",
          "type": "address"
        }
      ],
      "name": "ERC20InvalidApprover",
      "type": "error"
    },
    {
      "inputs": [
        {
          "internalType": "address",
          "name": "receiver",
          "type": "address"
        }
      ],
      "name": "ERC20InvalidReceiver",
      "type": "error"
    },
    {
      "inputs": [
        {
          "internalType": "address",
          "name": "sender",
          "type": "address"
        }
      ],
      "name": "ERC20InvalidSender",
      "type": "error"
    },
    {
      "inputs": [
        {
          "internalType": "address",
          "name": "spender",
          "type": "address"
        }
      ],
      "name": "ERC20InvalidSpender",
      "type": "error"
    },
    {
      "inputs": [
        {
          "internalType": "address",
          "name": "receiver",
          "type": "address"
        },
        {
          "internalType": "uint256",
          "name": "assets",
          "type": "uint256"
        },
        {
          "internalType": "uint256",
          "name": "max",
          "type": "uint256"
        }
      ],
      "name": "ERC4626ExceededMaxDeposit",
      "type": "error"
    },
    {
      "inputs": [
        {
          "internalType": "address",
          "name": "receiver",
          "type": "address"
        },
        {
          "internalType": "uint256",
          "name": "shares",
          "type": "uint256"
        },
        {
          "internalType": "uint256",
          "name": "max",
          "type": "uint256"
        }
      ],
      "name": "ERC4626ExceededMaxMint",
      "type": "error"
    },
    {
      "inputs": [
        {
          "internalType": "address",
          "name": "owner",
          "type": "address"
        },
        {
          "internalType": "uint256",
          "name": "shares",
          "type": "uint256"
        },
        {
          "internalType": "uint256",
          "name": "max",
          "type": "uint256"
        }
      ],
      "name": "ERC4626ExceededMaxRedeem",
      "type": "error"
    },
    {
      "inputs": [
        {
          "internalType": "address",
          "name": "owner",
          "type": "address"
        },
        {
          "internalType": "uint256",
          "name": "assets",
          "type": "uint256"
        },
        {
          "internalType": "uint256",
          "name": "max",
          "type": "uint256"
        }
      ],
      "name": "ERC4626ExceededMaxWithdraw",
      "type": "error"
    },
    {
      "inputs": [
        {
          "internalType": "address",
          "name": "token",
          "type": "address"
        }
      ],
      "name": "SafeERC20FailedOperation",
      "type": "error"
    },
    {
      "anonymous": false,
      "inputs": [
        {
          "indexed": true,
          "internalType": "address",
          "name": "owner",
          "type": "address"
        },
        {
          "indexed": true,
          "internalType": "address",
          "name": "spender",
          "type": "address"
        },
        {
          "indexed": false,
          "internalType": "uint256",
          "name": "value",
          "type": "uint256"
        }
      ],
      "name": "Approval",
      "type": "event"
    },
    {
      "anonymous": false,
      "inputs": [
        {
          "indexed": true,
          "internalType": "address",
          "name": "sender",
          "type": "address"
        },
        {
          "indexed": true,
          "internalType": "address",
          "name": "owner",
          "type": "address"
        },
        {
          "indexed": false,
          "internalType": "uint256",
          "name": "assets",
          "type": "uint256"
        },
        {
          "indexed": false,
          "internalType": "uint256",
          "name": "shares",
          "type": "uint256"
        }
      ],
      "name": "Deposit",
      "type": "event"
    },
    {
      "anonymous": false,
      "inputs": [
        {
          "indexed": true,
          "internalType": "bytes32",
          "name": "role",
          "type": "bytes32"
        },
        {
          "indexed": true,
          "internalType": "bytes32",
          "name": "previousAdminRole",
          "type": "bytes32"
        },
        {
          "indexed": true,
          "internalType": "bytes32",
          "name": "newAdminRole",
          "type": "bytes32"
        }
      ],
      "name": "RoleAdminChanged",
      "type": "event"
    },
    {
      "anonymous": false,
      "inputs": [
        {
          "indexed": true,
          "internalType": "bytes32",
          "name": "role",
          "type": "bytes32"
        },
        {
          "indexed": true,
          "internalType": "address",
          "name": "account",
          "type": "address"
        },
        {
          "indexed": true,
          "internalType": "address",
          "name": "sender",
          "type": "address"
        }
      ],
      "name": "RoleGranted",
      "type": "event"
    },
    {
      "anonymous": false,
      "inputs": [
        {
          "indexed": true,
          "internalType": "bytes32",
          "name": "role",
          "type": "bytes32"
        },
        {
          "indexed": true,
          "internalType": "address",
          "name": "account",
          "type": "address"
        },
        {
          "indexed": true,
          "internalType": "address",
          "name": "sender",
          "type": "address"
        }
      ],
      "name": "RoleRevoked",
      "type": "event"
    },
    {
      "anonymous": false,
      "inputs": [
        {
          "indexed": true,
          "internalType": "address",
          "name": "from",
          "type": "address"
        },
        {
          "indexed": true,
          "internalType": "address",
          "name": "to",
          "type": "address"
        },
        {
          "indexed": false,
          "internalType": "uint256",
          "name": "value",
          "type": "uint256"
        }
      ],
      "name": "Transfer",
      "type": "event"
    },
    {
      "anonymous": false,
      "inputs": [
        {
          "indexed": true,
          "internalType": "address",
          "name": "sender",
          "type": "address"
        },
        {
          "indexed": true,
          "internalType": "address",
          "name": "receiver",
          "type": "address"
        },
        {
          "indexed": true,
          "internalType": "address",
          "name": "owner",
          "type": "address"
        },
        {
          "indexed": false,
          "internalType": "uint256",
          "name": "assets",
          "type": "uint256"
        },
        {
          "indexed": false,
          "internalType": "uint256",
          "name": "shares",
          "type": "uint256"
        }
      ],
      "name": "Withdraw",
      "type": "event"
    },
    {
      "inputs": [],
      "name": "ADMIN_ROLE",
      "outputs": [
        {
          "internalType": "bytes32",
          "name": "",
          "type": "bytes32"
        }
      ],
      "stateMutability": "view",
      "type": "function"
    },
    {
      "inputs": [],
      "name": "DEFAULT_ADMIN_ROLE",
      "outputs": [
        {
          "internalType": "bytes32",
          "name": "",
          "type": "bytes32"
        }
      ],
      "stateMutability": "view",
      "type": "function"
    },
    {
      "inputs": [
        {
          "internalType": "address",
          "name": "owner",
          "type": "address"
        },
        {
          "internalType": "address",
          "name": "spender",
          "type": "address"
        }
      ],
      "name": "allowance",
      "outputs": [
        {
          "internalType": "uint256",
          "name": "",
          "type": "uint256"
        }
      ],
      "stateMutability": "view",
      "type": "function"
    },
    {
      "inputs": [
        {
          "internalType": "address",
          "name": "spender",
          "type": "address"
        },
        {
          "internalType": "uint256",
          "name": "value",
          "type": "uint256"
        }
      ],
      "name": "approve",
      "outputs": [
        {
          "internalType": "bool",
          "name": "",
          "type": "bool"
        }
      ],
      "stateMutability": "nonpayable",
      "type": "function"
    },
    {
      "inputs": [],
      "name": "asset",
      "outputs": [
        {
          "internalType": "address",
          "name": "",
          "type": "address"
        }
      ],
      "stateMutability": "view",
      "type": "function"
    },
    {
      "inputs": [
        {
          "internalType": "address",
          "name": "account",
          "type": "address"
        }
      ],
      "name": "balanceOf",
      "outputs": [
        {
          "internalType": "uint256",
          "name": "",
          "type": "uint256"
        }
      ],
      "stateMutability": "view",
      "type": "function"
    },
    {
      "inputs": [
        {
          "internalType": "uint256",
          "name": "shares",
          "type": "uint256"
        }
      ],
      "name": "convertToAssets",
      "outputs": [
        {
          "internalType": "uint256",
          "name": "",
          "type": "uint256"
        }
      ],
      "stateMutability": "view",
      "type": "function"
    },
    {
      "inputs": [
        {
          "internalType": "uint256",
          "name": "assets",
          "type": "uint256"
        }
      ],
      "name": "convertToShares",
      "outputs": [
        {
          "internalType": "uint256",
          "name": "",
          "type": "uint256"
        }
      ],
      "stateMutability": "view",
      "type": "function"
    },
    {
      "inputs": [],
      "name": "decimals",
      "outputs": [
        {
          "internalType": "uint8",
          "name": "",
          "type": "uint8"
        }
      ],
      "stateMutability": "view",
      "type": "function"
    },
    {
      "inputs": [
        {
          "internalType": "uint256",
          "name": "assets",
          "type": "uint256"
        },
        {
          "internalType": "address",
          "name": "receiver",
          "type": "address"
        }
      ],
      "name": "deposit",
      "outputs": [
        {
          "internalType": "uint256",
          "name": "",
          "type": "uint256"
        }
      ],
      "stateMutability": "nonpayable",
      "type": "function"
    },
    {
      "inputs": [
        {
          "internalType": "bytes32",
          "name": "role",
          "type": "bytes32"
        }
      ],
      "name": "getRoleAdmin",
      "outputs": [
        {
          "internalType": "bytes32",
          "name": "",
          "type": "bytes32"
        }
      ],
      "stateMutability": "view",
      "type": "function"
    },
    {
      "inputs": [
        {
          "internalType": "bytes32",
          "name": "role",
          "type": "bytes32"
        },
        {
          "internalType": "address",
          "name": "account",
          "type": "address"
        }
      ],
      "name": "grantRole",
      "outputs": [],
      "stateMutability": "nonpayable",
      "type": "function"
    },
    {
      "inputs": [
        {
          "internalType": "bytes32",
          "name": "role",
          "type": "bytes32"
        },
        {
          "internalType": "address",
          "name": "account",
          "type": "address"
        }
      ],
      "name": "hasRole",
      "outputs": [
        {
          "internalType": "bool",
          "name": "",
          "type": "bool"
        }
      ],
      "stateMutability": "view",
      "type": "function"
    },
    {
      "inputs": [
        {
          "internalType": "address",
          "name": "",
          "type": "address"
        }
      ],
      "name": "maxDeposit",
      "outputs": [
        {
          "internalType": "uint256",
          "name": "",
          "type": "uint256"
        }
      ],
      "stateMutability": "view",
      "type": "function"
    },
    {
      "inputs": [
        {
          "internalType": "address",
          "name": "",
          "type": "address"
        }
      ],
      "name": "maxMint",
      "outputs": [
        {
          "internalType": "uint256",
          "name": "",
          "type": "uint256"
        }
      ],
      "stateMutability": "view",
      "type": "function"
    },
    {
      "inputs": [
        {
          "internalType": "address",
          "name": "owner",
          "type": "address"
        }
      ],
      "name": "maxRedeem",
      "outputs": [
        {
          "internalType": "uint256",
          "name": "",
          "type": "uint256"
        }
      ],
      "stateMutability": "view",
      "type": "function"
    },
    {
      "inputs": [
        {
          "internalType": "address",
          "name": "owner",
          "type": "address"
        }
      ],
      "name": "maxWithdraw",
      "outputs": [
        {
          "internalType": "uint256",
          "name": "",
          "type": "uint256"
        }
      ],
      "stateMutability": "view",
      "type": "function"
    },
    {
      "inputs": [
        {
          "internalType": "uint256",
          "name": "shares",
          "type": "uint256"
        },
        {
          "internalType": "address",
          "name": "receiver",
          "type": "address"
        }
      ],
      "name": "mint",
      "outputs": [
        {
          "internalType": "uint256",
          "name": "",
          "type": "uint256"
        }
      ],
      "stateMutability": "nonpayable",
      "type": "function"
    },
    {
      "inputs": [],
      "name": "name",
      "outputs": [
        {
          "internalType": "string",
          "name": "",
          "type": "string"
        }
      ],
      "stateMutability": "view",
      "type": "function"
    },
    {
      "inputs": [
        {
          "internalType": "uint256",
          "name": "assets",
          "type": "uint256"
        }
      ],
      "name": "previewDeposit",
      "outputs": [
        {
          "internalType": "uint256",
          "name": "",
          "type": "uint256"
        }
      ],
      "stateMutability": "view",
      "type": "function"
    },
    {
      "inputs": [
        {
          "internalType": "uint256",
          "name": "shares",
          "type": "uint256"
        }
      ],
      "name": "previewMint",
      "outputs": [
        {
          "internalType": "uint256",
          "name": "",
          "type": "uint256"
        }
      ],
      "stateMutability": "view",
      "type": "function"
    },
    {
      "inputs": [
        {
          "internalType": "uint256",
          "name": "shares",
          "type": "uint256"
        }
      ],
      "name": "previewRedeem",
      "outputs": [
        {
          "internalType": "uint256",
          "name": "",
          "type": "uint256"
        }
      ],
      "stateMutability": "view",
      "type": "function"
    },
    {
      "inputs": [
        {
          "internalType": "uint256",
          "name": "assets",
          "type": "uint256"
        }
      ],
      "name": "previewWithdraw",
      "outputs": [
        {
          "internalType": "uint256",
          "name": "",
          "type": "uint256"
        }
      ],
      "stateMutability": "view",
      "type": "function"
    },
    {
      "inputs": [
        {
          "internalType": "uint256",
          "name": "shares",
          "type": "uint256"
        },
        {
          "internalType": "address",
          "name": "receiver",
          "type": "address"
        },
        {
          "internalType": "address",
          "name": "owner",
          "type": "address"
        }
      ],
      "name": "redeem",
      "outputs": [
        {
          "internalType": "uint256",
          "name": "",
          "type": "uint256"
        }
      ],
      "stateMutability": "nonpayable",
      "type": "function"
    },
    {
      "inputs": [
        {
          "internalType": "bytes32",
          "name": "role",
          "type": "bytes32"
        },
        {
          "internalType": "address",
          "name": "callerConfirmation",
          "type": "address"
        }
      ],
      "name": "renounceRole",
      "outputs": [],
      "stateMutability": "nonpayable",
      "type": "function"
    },
    {
      "inputs": [
        {
          "internalType": "bytes32",
          "name": "role",
          "type": "bytes32"
        },
        {
          "internalType": "address",
          "name": "account",
          "type": "address"
        }
      ],
      "name": "revokeRole",
      "outputs": [],
      "stateMutability": "nonpayable",
      "type": "function"
    },
    {
      "inputs": [
        {
          "internalType": "bytes4",
          "name": "interfaceId",
          "type": "bytes4"
        }
      ],
      "name": "supportsInterface",
      "outputs": [
        {
          "internalType": "bool",
          "name": "",
          "type": "bool"
        }
      ],
      "stateMutability": "view",
      "type": "function"
    },
    {
      "inputs": [],
      "name": "symbol",
      "outputs": [
        {
          "internalType": "string",
          "name": "",
          "type": "string"
        }
      ],
      "stateMutability": "view",
      "type": "function"
    },
    {
      "inputs": [],
      "name": "totalAssets",
      "outputs": [
        {
          "internalType": "uint256",
          "name": "",
          "type": "uint256"
        }
      ],
      "stateMutability": "view",
      "type": "function"
    },
    {
      "inputs": [],
      "name": "totalSupply",
      "outputs": [
        {
          "internalType": "uint256",
          "name": "",
          "type": "uint256"
        }
      ],
      "stateMutability": "view",
      "type": "function"
    },
    {
      "inputs": [
        {
          "internalType": "address",
          "name": "to",
          "type": "address"
        },
        {
          "internalType": "uint256",
          "name": "value",
          "type": "uint256"
        }
      ],
      "name": "transfer",
      "outputs": [
        {
          "internalType": "bool",
          "name": "",
          "type": "bool"
        }
      ],
      "stateMutability": "nonpayable",
      "type": "function"
    },
    {
      "inputs": [
        {
          "internalType": "address",
          "name": "from",
          "type": "address"
        },
        {
          "internalType": "address",
          "name": "to",
          "type": "address"
        },
        {
          "internalType": "uint256",
          "name": "value",
          "type": "uint256"
        }
      ],
      "name": "transferFrom",
      "outputs": [
        {
          "internalType": "bool",
          "name": "",
          "type": "bool"
        }
      ],
      "stateMutability": "nonpayable",
      "type": "function"
    },
    {
      "inputs": [
        {
          "internalType": "uint256",
          "name": "assets",
          "type": "uint256"
        },
        {
          "internalType": "address",
          "name": "receiver",
          "type": "address"
        },
        {
          "internalType": "address",
          "name": "owner",
          "type": "address"
        }
      ],
      "name": "withdraw",
      "outputs": [
        {
          "internalType": "uint256",
          "name": "",
          "type": "uint256"
        }
      ],
      "stateMutability": "nonpayable",
      "type": "function"
    }
  ],
  "bytecode": "0x60c08060405234620003ab57620019ed8038038091620000208285620003b0565b83398101608082820312620003ab5781516001600160a01b03918282168203620003ab5760208481015190916001600160401b0391828111620003ab57816200006b918801620003f0565b906040870151838111620003ab5760609162000089918901620003f0565b9601519485168503620003ab57805190828211620002ab576003918254906001928383811c93168015620003a0575b878410146200038a578190601f9384811162000334575b508790848311600114620002cd57600092620002c1575b505060001982861b1c191690831b1783555b8751938411620002ab5760049485548381811c91168015620002a0575b828210146200028b5782811162000240575b5080918511600114620001d0575083929183916200018399600095620001c4575b50501b92600019911b1c19161790555b62000163816200057f565b9015620001bb575b60a0526080526200017c816200045b565b50620004dc565b50604051611387908162000646823960805181818161065401528181610b5d01528181610feb0152611199015260a051816106d40152f35b5060126200016b565b01519350388062000148565b91939290601f198416988660005283600020936000905b8b82106200022857505084620001839a106200020d575b50505050811b01905562000158565b01519060f884600019921b161c1916905538808080620001fe565b808885978294968601518155019601930190620001e7565b86600052816000208380880160051c82019284891062000281575b0160051c019084905b8281106200027457505062000127565b6000815501849062000264565b925081926200025b565b602287634e487b7160e01b6000525260246000fd5b90607f169062000115565b634e487b7160e01b600052604160045260246000fd5b015190503880620000e6565b90859350601f1983169187600052896000209260005b8b8282106200031d575050841162000304575b505050811b018355620000f8565b015160001983881b60f8161c19169055388080620002f6565b8385015186558997909501949384019301620002e3565b90915085600052876000208480850160051c8201928a861062000380575b918791869594930160051c01915b82811062000370575050620000cf565b6000815585945087910162000360565b9250819262000352565b634e487b7160e01b600052602260045260246000fd5b92607f1692620000b8565b600080fd5b601f909101601f19168101906001600160401b03821190821017620002ab57604052565b6001600160401b038111620002ab57601f01601f191660200190565b9080601f83011215620003ab578151906200040b82620003d4565b926200041b6040519485620003b0565b82845260209160208483010111620003ab5760005b838110620004475750505060206000918301015290565b818101830151858201840152820162000430565b6001600160a01b031660008181527f05b8ccbb9d4d8fb16ea74ce3c29a41f1b461fbdaff4714a0d9a8eb05499746bc602052604081205490919060ff16620004d85781805260056020526040822081835260205260408220600160ff198254161790553391600080516020620019cd8339815191528180a4600190565b5090565b6001600160a01b031660008181527fd8ef4509105c3edb0b04658b4528edc5ddd30ea5a81e623a2623c88db1eb54b660205260408120549091907fa49807205ce4d355092ef5a8a18f56e8913cf4a201fbe287825b095693c217759060ff166200057a5780835260056020526040832082845260205260408320600160ff19825416179055600080516020620019cd833981519152339380a4600190565b505090565b6040805163313ce56760e01b60208201908152600482529293929181016001600160401b03811182821017620002ab576040525160009384928392916001600160a01b03165afa3d156200063c573d90620005da82620003d4565b91620005ea6040519384620003b0565b82523d84602084013e5b806200062f575b62000606575b508190565b6020818051810103126200062b576020015160ff811162000601576001925060ff1690565b8280fd5b50602081511015620005fb565b606090620005f456fe6040608081526004908136101561001557600080fd5b600090813560e01c92836301e1d114146109d557836301ffc9a71461098157836306fdde031461088c57836307a2d13a14610630578363095ea7b3146107e45783630a28a477146107c557836318160ddd146107a757836323b872dd1461076b578363248a9ca3146107425783632f2ff15d1461071a578363313ce567146106be57836336568abe1461067857836338d52e0f14610635578363402d267d146102985783634cdad506146106305783636e553f65146105fd57836370a08231146105dd57836375b238fc146105a357836391d148541461055f57836394bf804d1461052c57836395d89b4114610427578363a217fddf1461040d578363a9059cbb146103dd578363b3d7f6b9146103be578363b460af941461032e578363ba0876521461029d578363c63d75b614610298578363c6e6f59214610190578363ce96cb7714610262578363d547741f1461022057508263d905777e146101e0578263dd62ed3e1461019557505063ef8b30f71461019057600080fd5b610aec565b346101dc57806003193601126101dc57806020926101b1610a65565b6101b9610a7b565b6001600160a01b0391821683526001865283832091168252845220549051908152f35b5080fd5b346101dc5760203660031901126101dc576020906102196101ff610a65565b6001600160a01b0316600052600060205260406000205490565b9051908152f35b903461025e578060031936011261025e5761025a91356102556001610243610a7b565b93838752600560205286200154610e58565b610f1d565b5080f35b8280fd5b50346101dc5760203660031901126101dc57610219816020936001600160a01b0361028b610a65565b1681528085522054610c25565b610a91565b913461032b57506102ad36610ab7565b9291936102ce846001600160a01b0316600052600060205260406000205490565b8086116102f6575050836102f0916102e7602096610c25565b948591336110af565b51908152f35b9251632e52afbb60e21b81526001600160a01b0390941690840190815260208101949094525060408301529081906060010390fd5b80fd5b913461032b575061033e36610ab7565b929193610367610362856001600160a01b0316600052600060205260406000205490565b610c25565b8086116103895750506102f09084610380602096610c50565b948592336110af565b9251633fa733bb60e21b81526001600160a01b0390941690840190815260208101949094525060408301529081906060010390fd5b913461032b57602036600319011261032b575061021960209235610bf7565b50346101dc57806003193601126101dc576020906104066103fc610a65565b6024359033610d7a565b5160018152f35b50346101dc57816003193601126101dc5751908152602090f35b9250346101dc57816003193601126101dc5780519180938054916001908360011c9260018516948515610522575b602095868610811461050f578589529081156104eb5750600114610493575b61048f8787610485828c0383610b0a565b51918291826109f1565b0390f35b81529295507f8a35acfbc15ff81a39ae7d344fd709f28e8600b4aa8c65c6b64bfe7fe36bd19b5b8284106104d8575050508261048f9461048592820101943880610474565b80548685018801529286019281016104ba565b60ff19168887015250505050151560051b83010192506104858261048f3880610474565b634e487b7160e01b845260228352602484fd5b93607f1693610455565b3461025e578160031936011261025e576020925035906102f061054d610a7b565b9261055781610bf7565b809433610f95565b3461025e578160031936011261025e578160209360ff9261057e610a7b565b90358252600586526001600160a01b0383832091168252855220541690519015158152f35b50346101dc57816003193601126101dc57602090517fa49807205ce4d355092ef5a8a18f56e8913cf4a201fbe287825b095693c217758152f35b50346101dc5760203660031901126101dc576020906102196101ff610a65565b3461025e578160031936011261025e576020925035906102f061061e610a7b565b61062784610c7b565b93849133610f95565b610a3a565b50346101dc57816003193601126101dc57602090516001600160a01b037f0000000000000000000000000000000000000000000000000000000000000000168152f35b9250346101dc57806003193601126101dc57610692610a7b565b90336001600160a01b038316036106af575061025a919235610f1d565b5163334bd91960e11b81528390fd5b9250346101dc57816003193601126101dc5760ff7f0000000000000000000000000000000000000000000000000000000000000000169160ff8311610707576020838351908152f35b634e487b7160e01b815260118452602490fd5b903461025e578060031936011261025e5761025a913561073d6001610243610a7b565b610e9c565b3461025e57602036600319011261025e5781602093600192358152600585522001549051908152f35b50346101dc5760603660031901126101dc5760209061040661078b610a65565b610793610a7b565b604435916107a2833383610ca6565b610d7a565b50346101dc57816003193601126101dc576020906002549051908152f35b913461032b57602036600319011261032b575061021960209235610c50565b3461025e578160031936011261025e576107fc610a65565b602435903315610875576001600160a01b031691821561085e57508083602095338152600187528181208582528752205582519081527f8c5be1e5ebec7d5bd14f71427d1e84f3dd0314c0f7b2291e5b200ac8c7c3b925843392a35160018152f35b8351634a1406b160e11b8152908101859052602490fd5b835163e602df0560e01b8152808401869052602490fd5b903461025e578260031936011261025e5780519183600354906001908260011c92600181168015610977575b6020958686108214610964575084885290811561094257506001146108e9575b61048f8686610485828b0383610b0a565b929550600383527fc2575a0e9e593c00f959f8c92f12db2869c3395a3b0502d05e2516446f71f85b5b82841061092f575050508261048f946104859282010194866108d8565b8054868501880152928601928101610912565b60ff191687860152505050151560051b83010192506104858261048f866108d8565b634e487b7160e01b845260229052602483fd5b93607f16936108b8565b3461025e57602036600319011261025e57359063ffffffff60e01b821680920361025e5760209250637965db0b60e01b82149182156109c4575b50519015158152f35b6301ffc9a760e01b149150836109bb565b50346101dc57816003193601126101dc57602090610219610b42565b6020808252825181830181905290939260005b828110610a2657505060409293506000838284010152601f8019910116010190565b818101860151848201604001528501610a04565b34610a60576020366003190112610a60576020610a58600435610c25565b604051908152f35b600080fd5b600435906001600160a01b0382168203610a6057565b602435906001600160a01b0382168203610a6057565b34610a60576020366003190112610a6057610aaa610a65565b5060206040516000198152f35b6060906003190112610a6057600435906001600160a01b03906024358281168103610a6057916044359081168103610a605790565b34610a60576020366003190112610a60576020610a58600435610c7b565b90601f8019910116810190811067ffffffffffffffff821117610b2c57604052565b634e487b7160e01b600052604160045260246000fd5b6040516370a0823160e01b81523060048201526020816024817f00000000000000000000000000000000000000000000000000000000000000006001600160a01b03165afa908115610bc857600091610b99575090565b90506020813d602011610bc0575b81610bb460209383610b0a565b81010312610a60575190565b3d9150610ba7565b6040513d6000823e3d90fd5b91908201809211610be157565b634e487b7160e01b600052601160045260246000fd5b610bff610b42565b60018101809111610be1576002549060018201809211610be157610c2292611221565b90565b610c2d610b42565b60018101809111610be1576002549060018201809211610be157610c2292611257565b60025460018101809111610be157610c66610b42565b9060018201809211610be157610c2292611221565b60025460018101809111610be157610c91610b42565b9060018201809211610be157610c2292611257565b916001600160a01b038093169160009383855260016020526040938486209183169182875260205284862054926000198410610ce6575b50505050505050565b848410610d4a57508015610d32578115610d1a57855260016020528385209085526020520391205538808080808080610cdd565b8451634a1406b160e11b815260048101879052602490fd5b845163e602df0560e01b815260048101879052602490fd5b8551637dc7a0d960e11b81526001600160a01b039190911660048201526024810184905260448101859052606490fd5b916001600160a01b03808416928315610e3f5716928315610e265760009083825281602052604082205490838210610df4575091604082827fddf252ad1be2c89b69c2b068fc378daa952ba7f163c4a11628f55a4df523b3ef958760209652828652038282205586815220818154019055604051908152a3565b60405163391434e360e21b81526001600160a01b03919091166004820152602481019190915260448101839052606490fd5b60405163ec442f0560e01b815260006004820152602490fd5b604051634b637e8f60e11b815260006004820152602490fd5b80600052600560205260406000203360005260205260ff6040600020541615610e7e5750565b6044906040519063e2517d3f60e01b82523360048301526024820152fd5b9060009180835260056020526001600160a01b036040842092169182845260205260ff60408420541615600014610f185780835260056020526040832082845260205260408320600160ff198254161790557f2f8788117e7eff1d82e926ec794901d17c78024a50270940304540a733656f0d339380a4600190565b505090565b9060009180835260056020526001600160a01b036040842092169182845260205260ff604084205416600014610f18578083526005602052604083208284526020526040832060ff1981541690557ff6391f5c32d9c69d2a47ea670b442974b53935d1edc7fd64eb21e047a839171b339380a4600190565b916001600160a01b03604092818451956323b872dd60e01b602088015216948560248201523060448201528360648201526064815260a081019080821067ffffffffffffffff831117610b2c57611010918652837f0000000000000000000000000000000000000000000000000000000000000000166112f5565b169384156110975790816110487fdcbc1c05240f31ff3ad067ef1ee35ce4997762752e3a095284754544f4c709d79493600254610bd4565b600255856000526000602052826000208181540190558560007fddf252ad1be2c89b69c2b068fc378daa952ba7f163c4a11628f55a4df523b3ef60208651858152a382519182526020820152a3565b825163ec442f0560e01b815260006004820152602490fd5b919093926001600160a01b0393848316958585169482888703611210575b50508615610e3f576000958787528660205260409485882054908482106111df57508390898952886020520385882055826002540360025586887fddf252ad1be2c89b69c2b068fc378daa952ba7f163c4a11628f55a4df523b3ef60208851878152a38085519263a9059cbb60e01b6020850152169687602484015284604484015260448352608083019083821067ffffffffffffffff8311176111cb575085527ffbde797d201c681b91056529119e0b02407c7bb96a4a2c75c01fc9667232c8db949392916111be917f0000000000000000000000000000000000000000000000000000000000000000166112f5565b82519182526020820152a4565b634e487b7160e01b81526041600452602490fd5b865163391434e360e21b81526001600160a01b03919091166004820152602481019190915260448101849052606490fd5b61121a9186610ca6565b38826110cd565b9161122d818385611257565b91811561124157610c229309151590610bd4565b634e487b7160e01b600052601260045260246000fd5b909160001983830992808302928380861095039480860395146112e757848311156112ce579082910981600003821680920460028082600302188083028203028083028203028083028203028083028203028083028203028092029003029360018380600003040190848311900302920304170290565b82634e487b71600052156003026011186020526024601cfd5b505080925015611241570490565b906000602091828151910182855af115610bc8576000513d61134857506001600160a01b0381163b155b6113265750565b604051635274afe760e01b81526001600160a01b039091166004820152602490fd5b6001141561131f56fea2646970667358221220c03e8690f263a571b9a975f06c9d2d4be00ed31095dc7a36f2dc57beaf0fdb4e64736f6c634300081800332f8788117e7eff1d82e926ec794901d17c78024a50270940304540a733656f0d",
  "linkReferences": {},
  "deployedLinkReferences": {}
}