{"abi":[{"type":"constructor","inputs":[{"name":"admin","type":"address","internalType":"address"},{"name":"governor","type":"address","internalType":"address"}],"stateMutability":"nonpayable"},{"type":"function","name":"ATTESTOR_ROLE","inputs":[],"outputs":[{"name":"","type":"bytes32","internalType":"bytes32"}],"stateMutability":"view"},{"type":"function","name":"DEFAULT_ADMIN_ROLE","inputs":[],"outputs":[{"name":"","type":"bytes32","internalType":"bytes32"}],"stateMutability":"view"},{"type":"function","name":"GOVERNOR_ROLE","inputs":[],"outputs":[{"name":"","type":"bytes32","internalType":"bytes32"}],"stateMutability":"view"},{"type":"function","name":"attest","inputs":[{"name":"total","type":"uint256","internalType":"uint256"},{"name":"byBucket","type":"uint256[5]","internalType":"uint256[5]"},{"name":"ts","type":"uint64","internalType":"uint64"},{"name":"proofCid","type":"bytes32","internalType":"bytes32"}],"outputs":[],"stateMutability":"nonpayable"},{"type":"function","name":"coverageBps","inputs":[{"name":"liabilities","type":"uint256","internalType":"uint256"}],"outputs":[{"name":"cov","type":"uint16","internalType":"uint16"}],"stateMutability":"view"},{"type":"function","name":"getRoleAdmin","inputs":[{"name":"role","type":"bytes32","internalType":"bytes32"}],"outputs":[{"name":"","type":"bytes32","internalType":"bytes32"}],"stateMutability":"view"},{"type":"function","name":"grantRole","inputs":[{"name":"role","type":"bytes32","internalType":"bytes32"},{"name":"account","type":"address","internalType":"address"}],"outputs":[],"stateMutability":"nonpayable"},{"type":"function","name":"hasRole","inputs":[{"name":"role","type":"bytes32","internalType":"bytes32"},{"name":"account","type":"address","internalType":"address"}],"outputs":[{"name":"","type":"bool","internalType":"bool"}],"stateMutability":"view"},{"type":"function","name":"last","inputs":[],"outputs":[{"name":"total","type":"uint256","internalType":"uint256"},{"name":"ts","type":"uint64","internalType":"uint64"},{"name":"proofCid","type":"bytes32","internalType":"bytes32"}],"stateMutability":"view"},{"type":"function","name":"limits","inputs":[{"name":"","type":"uint8","internalType":"enum ReserveManager.Bucket"}],"outputs":[{"name":"maxBps","type":"uint16","internalType":"uint16"}],"stateMutability":"view"},{"type":"function","name":"renounceRole","inputs":[{"name":"role","type":"bytes32","internalType":"bytes32"},{"name":"callerConfirmation","type":"address","internalType":"address"}],"outputs":[],"stateMutability":"nonpayable"},{"type":"function","name":"revokeRole","inputs":[{"name":"role","type":"bytes32","internalType":"bytes32"},{"name":"account","type":"address","internalType":"address"}],"outputs":[],"stateMutability":"nonpayable"},{"type":"function","name":"setLimit","inputs":[{"name":"b","type":"uint8","internalType":"enum ReserveManager.Bucket"},{"name":"maxBps","type":"uint16","internalType":"uint16"}],"outputs":[],"stateMutability":"nonpayable"},{"type":"function","name":"supportsInterface","inputs":[{"name":"interfaceId","type":"bytes4","internalType":"bytes4"}],"outputs":[{"name":"","type":"bool","internalType":"bool"}],"stateMutability":"view"},{"type":"event","name":"LimitsSet","inputs":[{"name":"bucket","type":"uint8","indexed":false,"internalType":"enum ReserveManager.Bucket"},{"name":"maxBps","type":"uint16","indexed":false,"internalType":"uint16"}],"anonymous":false},{"type":"event","name":"ReservesAttested","inputs":[{"name":"total","type":"uint256","indexed":false,"internalType":"uint256"},{"name":"byBucket","type":"uint256[5]","indexed":false,"internalType":"uint256[5]"},{"name":"ts","type":"uint64","indexed":false,"internalType":"uint64"},{"name":"proofCid","type":"bytes32","indexed":false,"internalType":"bytes32"}],"anonymous":false},{"type":"event","name":"RoleAdminChanged","inputs":[{"name":"role","type":"bytes32","indexed":true,"internalType":"bytes32"},{"name":"previousAdminRole","type":"bytes32","indexed":true,"internalType":"bytes32"},{"name":"newAdminRole","type":"bytes32","indexed":true,"internalType":"bytes32"}],"anonymous":false},{"type":"event","name":"RoleGranted","inputs":[{"name":"role","type":"bytes32","indexed":true,"internalType":"bytes32"},{"name":"account","type":"address","indexed":true,"internalType":"address"},{"name":"sender","type":"address","indexed":true,"internalType":"address"}],"anonymous":false},{"type":"event","name":"RoleRevoked","inputs":[{"name":"role","type":"bytes32","indexed":true,"internalType":"bytes32"},{"name":"account","type":"address","indexed":true,"internalType":"address"},{"name":"sender","type":"address","indexed":true,"internalType":"address"}],"anonymous":false},{"type":"error","name":"AccessControlBadConfirmation","inputs":[]},{"type":"error","name":"AccessControlUnauthorizedAccount","inputs":[{"name":"account","type":"address","internalType":"address"},{"name":"neededRole","type":"bytes32","internalType":"bytes32"}]}],"bytecode":{"object":"0x60803461007557601f610fe238819003918201601f19168301916001600160401b0383118484101761007a578084926040948552833981010312610075578061005f610059602061005261006595610090565b9301610090565b916100a4565b50610122565b50604051610dff90816101c38239f35b600080fd5b634e487b7160e01b600052604160045260246000fd5b51906001600160a01b038216820361007557565b6001600160a01b031660008181527fad3228b676f7d3cd4284a5443f17f1962b36e491b30a40b2405849e597ba5fb5602052604081205490919060ff1661011e57818052816020526040822081835260205260408220600160ff198254161790553391600080516020610fc28339815191528180a4600190565b5090565b6001600160a01b031660008181527f6f3b488caa0dc03e5f3d9fd6a25fa8755afcfd62ccffb6e436c696bfa6b866de60205260408120549091907f7935bd0ae54bc31f548c14dba4d37c5c64b3f8ca900cb468fb8abd54d5894f559060ff166101bd57808352826020526040832082845260205260408320600160ff19825416179055600080516020610fc2833981519152339380a4600190565b50509056fe608060409080825260048036101561001657600080fd5b600091823560e01c90816301ffc9a7146109db5750806314b3211214610986578063248a9ca31461093d5780632f2ff15d1461091f57806336568abe146108be57806347799da8146108665780634cc09eed1461069157806362723644146106385780636b9a6482146105eb57806391d14854146105a5578063a217fddf1461056c578063ccc5749014610513578063d547741f146104de5763db3df45d146100be57600080fd5b346104da5761010090817ffffffffffffffffffffffffffffffffffffffffffffffffffffffffffffffffc3601126104d65780359060c4943660c4116104d25760c4359067ffffffffffffffff928383168093036104ce5760e435937fa7e0cd0f2772b23ee4c329892293a6bd99d48c306b094d6d008c9a8bb8b731e498898952602099898b52848a20338b528b5260ff858b205416156104985750861561043c5786898a5b600581106103f157500361039557885b600581106102bd5750835191608083018381108282111761029157855287835284519360a085019182118583101761026557508452896024845b838210610256575050839150820152838382015284606082015251600255865b6005811061024357505060247f7e2fb528212e640a2c61cd6068fa8e7c48cc5e1ae021609269c8fe20cd6d066a969760a092847fffffffffffffffffffffffffffffffffffffffffffffffff00000000000000006008541617600855856009555195865285013760c083015260e0820152a180f35b81516003820155908801906001016101ce565b813581529082019082016101ae565b8a60416024927f4e487b7100000000000000000000000000000000000000000000000000000000835252fd5b60248b6041877f4e487b7100000000000000000000000000000000000000000000000000000000835252fd5b61ffff6102c982610a98565b5416806102da575b50600101610174565b6102e382610be0565b3561271090818102918183041490151715610369578961030291610b36565b1161030d57386102d1565b6064848c8751917f08c379a0000000000000000000000000000000000000000000000000000000008352820152600d60248201527f636f6e63656e74726174696f6e000000000000000000000000000000000000006044820152fd5b60248c6011887f4e487b7100000000000000000000000000000000000000000000000000000000835252fd5b6064838b8651917f08c379a0000000000000000000000000000000000000000000000000000000008352820152600a60248201527f73756d213d746f74616c000000000000000000000000000000000000000000006044820152fd5b91506103fc82610be0565b358101809111610410578891600101610164565b60248b6011877f4e487b7100000000000000000000000000000000000000000000000000000000835252fd5b6064838b8651917f08c379a0000000000000000000000000000000000000000000000000000000008352820152600760248201527f746f74616c3d30000000000000000000000000000000000000000000000000006044820152fd5b836044918651917fe2517d3f00000000000000000000000000000000000000000000000000000000835233908301526024820152fd5b8680fd5b8480fd5b8280fd5b5080fd5b8284346104da57600161050f9161050a6104f736610ae0565b9390928387528660205286200154610c21565b610d28565b5080f35b8284346104da57817ffffffffffffffffffffffffffffffffffffffffffffffffffffffffffffffffc3601126104da57602090517f7935bd0ae54bc31f548c14dba4d37c5c64b3f8ca900cb468fb8abd54d5894f558152f35b8284346104da57817ffffffffffffffffffffffffffffffffffffffffffffffffffffffffffffffffc3601126104da5751908152602090f35b8284346104da5760ff816020936105bb36610ae0565b90825281865273ffffffffffffffffffffffffffffffffffffffff83832091168252855220541690519015158152f35b509190346106355760207ffffffffffffffffffffffffffffffffffffffffffffffffffffffffffffffffc360112610635575061ffff61062d60209335610b6f565b915191168152f35b80fd5b8284346104da57817ffffffffffffffffffffffffffffffffffffffffffffffffffffffffffffffffc3601126104da57602090517fa7e0cd0f2772b23ee4c329892293a6bd99d48c306b094d6d008c9a8bb8b731e48152f35b5091346104da57807ffffffffffffffffffffffffffffffffffffffffffffffffffffffffffffffffc3601126104da57823560058110156104d65760243561ffff8082168092036104d2577f7935bd0ae54bc31f548c14dba4d37c5c64b3f8ca900cb468fb8abd54d5894f558086528560205284862033875260205260ff858720541615610830575061271082116107d3578351906020820182811067ffffffffffffffff8211176107a7577f0dd8ecddc84f99ffc44aec30ff879aea4b6136d3e31229bf1483e1c1b953abae969750855282825261076f84610a98565b9151167fffffffffffffffffffffffffffffffffffffffffffffffffffffffffffff000082541617905582519182526020820152a180f35b60248760418a7f4e487b7100000000000000000000000000000000000000000000000000000000835252fd5b60648660208651917f08c379a0000000000000000000000000000000000000000000000000000000008352820152600360248201527f62707300000000000000000000000000000000000000000000000000000000006044820152fd5b866044918651917fe2517d3f00000000000000000000000000000000000000000000000000000000835233908301526024820152fd5b8284346104da57817ffffffffffffffffffffffffffffffffffffffffffffffffffffffffffffffffc3601126104da576060906002549067ffffffffffffffff60085416906009549181519384526020840152820152f35b5091346104da576108ce36610ae0565b913373ffffffffffffffffffffffffffffffffffffffff8416036108f757509061050f91610d28565b8490517f6697b232000000000000000000000000000000000000000000000000000000008152fd5b8284346104da57600161050f916109386104f736610ae0565b610c7e565b508290346104d65760207ffffffffffffffffffffffffffffffffffffffffffffffffffffffffffffffffc3601126104d657816020936001923581528085522001549051908152f35b508290346104d65760207ffffffffffffffffffffffffffffffffffffffffffffffffffffffffffffffffc3601126104d65735916005831015610635575061ffff6109d2602093610a98565b54169051908152f35b919050346104d65760207ffffffffffffffffffffffffffffffffffffffffffffffffffffffffffffffffc3601126104d657357fffffffff0000000000000000000000000000000000000000000000000000000081168091036104d657602092507f7965db0b000000000000000000000000000000000000000000000000000000008114908115610a6e575b5015158152f35b7f01ffc9a70000000000000000000000000000000000000000000000000000000091501483610a67565b6005811015610ab1576000526001602052604060002090565b7f4e487b7100000000000000000000000000000000000000000000000000000000600052602160045260246000fd5b7ffffffffffffffffffffffffffffffffffffffffffffffffffffffffffffffffc6040910112610b31576004359060243573ffffffffffffffffffffffffffffffffffffffff81168103610b315790565b600080fd5b8115610b40570490565b7f4e487b7100000000000000000000000000000000000000000000000000000000600052601260045260246000fd5b8015610bd9576002549061271091828102928184041490151715610baa57610b9691610b36565b61ffff9081811115610ba6575090565b1690565b7f4e487b7100000000000000000000000000000000000000000000000000000000600052601160045260246000fd5b5061ffff90565b6005811015610bf25760051b60240190565b7f4e487b7100000000000000000000000000000000000000000000000000000000600052603260045260246000fd5b80600052600060205260406000203360005260205260ff6040600020541615610c475750565b604490604051907fe2517d3f0000000000000000000000000000000000000000000000000000000082523360048301526024820152fd5b906000918083528260205273ffffffffffffffffffffffffffffffffffffffff6040842092169182845260205260ff60408420541615600014610d235780835282602052604083208284526020526040832060017fffffffffffffffffffffffffffffffffffffffffffffffffffffffffffffff008254161790557f2f8788117e7eff1d82e926ec794901d17c78024a50270940304540a733656f0d339380a4600190565b505090565b906000918083528260205273ffffffffffffffffffffffffffffffffffffffff6040842092169182845260205260ff604084205416600014610d23578083528260205260408320828452602052604083207fffffffffffffffffffffffffffffffffffffffffffffffffffffffffffffff0081541690557ff6391f5c32d9c69d2a47ea670b442974b53935d1edc7fd64eb21e047a839171b339380a460019056fea2646970667358221220fa2b05a6a058fd90daf16ddce9641aafdf5b1834bda6be0bd1955d5b9f0983e664736f6c634300081800332f8788117e7eff1d82e926ec794901d17c78024a50270940304540a733656f0d","linkReferences":{}},"methodIdentifiers":{"ATTESTOR_ROLE()":"62723644","DEFAULT_ADMIN_ROLE()":"a217fddf","GOVERNOR_ROLE()":"ccc57490","attest(uint256,uint256[5],uint64,bytes32)":"db3df45d","coverageBps(uint256)":"6b9a6482","getRoleAdmin(bytes32)":"248a9ca3","grantRole(bytes32,address)":"2f2ff15d","hasRole(bytes32,address)":"91d14854","last()":"47799da8","limits(uint8)":"14b32112","renounceRole(bytes32,address)":"36568abe","revokeRole(bytes32,address)":"d547741f","setLimit(uint8,uint16)":"4cc09eed","supportsInterface(bytes4)":"01ffc9a7"},"id":45}