{"abi":[{"type":"constructor","inputs":[],"stateMutability":"nonpayable"},{"type":"function","name":"completeAgoraSettlement","inputs":[{"name":"settlementId","type":"bytes32","internalType":"bytes32"}],"outputs":[],"stateMutability":"nonpayable"},{"type":"function","name":"deposits","inputs":[{"name":"","type":"address","internalType":"address"}],"outputs":[{"name":"depositToken","type":"address","internalType":"address"},{"name":"issuerBank","type":"address","internalType":"address"},{"name":"currency","type":"string","internalType":"string"},{"name":"isCBDC","type":"bool","internalType":"bool"},{"name":"totalSupply","type":"uint256","internalType":"uint256"},{"name":"agoraLedgerRef","type":"bytes32","internalType":"bytes32"}],"stateMutability":"view"},{"type":"function","name":"getDeposit","inputs":[{"name":"depositToken","type":"address","internalType":"address"}],"outputs":[{"name":"","type":"tuple","internalType":"struct AgoraTokenizedDepositAdapter.TokenizedDeposit","components":[{"name":"depositToken","type":"address","internalType":"address"},{"name":"issuerBank","type":"address","internalType":"address"},{"name":"currency","type":"string","internalType":"string"},{"name":"isCBDC","type":"bool","internalType":"bool"},{"name":"totalSupply","type":"uint256","internalType":"uint256"},{"name":"agoraLedgerRef","type":"bytes32","internalType":"bytes32"}]}],"stateMutability":"view"},{"type":"function","name":"getSettlement","inputs":[{"name":"settlementId","type":"bytes32","internalType":"bytes32"}],"outputs":[{"name":"","type":"tuple","internalType":"struct AgoraTokenizedDepositAdapter.AgoraSettlement","components":[{"name":"settlementId","type":"bytes32","internalType":"bytes32"},{"name":"depositTokens","type":"address[]","internalType":"address[]"},{"name":"amounts","type":"uint256[]","internalType":"uint256[]"},{"name":"beneficiary","type":"address","internalType":"address"},{"name":"isAtomic","type":"bool","internalType":"bool"},{"name":"timestamp","type":"uint256","internalType":"uint256"},{"name":"swiftUETR","type":"bytes32","internalType":"bytes32"}]}],"stateMutability":"view"},{"type":"function","name":"initiateAgoraSettlement","inputs":[{"name":"settlementId","type":"bytes32","internalType":"bytes32"},{"name":"depositTokens","type":"address[]","internalType":"address[]"},{"name":"amounts","type":"uint256[]","internalType":"uint256[]"},{"name":"beneficiary","type":"address","internalType":"address"},{"name":"swiftUETR","type":"bytes32","internalType":"bytes32"}],"outputs":[{"name":"","type":"bool","internalType":"bool"}],"stateMutability":"nonpayable"},{"type":"function","name":"owner","inputs":[],"outputs":[{"name":"","type":"address","internalType":"address"}],"stateMutability":"view"},{"type":"function","name":"registerTokenizedDeposit","inputs":[{"name":"depositToken","type":"address","internalType":"address"},{"name":"issuerBank","type":"address","internalType":"address"},{"name":"currency","type":"string","internalType":"string"},{"name":"isCBDC","type":"bool","internalType":"bool"},{"name":"agoraLedgerRef","type":"bytes32","internalType":"bytes32"}],"outputs":[],"stateMutability":"nonpayable"},{"type":"function","name":"renounceOwnership","inputs":[],"outputs":[],"stateMutability":"nonpayable"},{"type":"function","name":"settlements","inputs":[{"name":"","type":"bytes32","internalType":"bytes32"}],"outputs":[{"name":"settlementId","type":"bytes32","internalType":"bytes32"},{"name":"beneficiary","type":"address","internalType":"address"},{"name":"isAtomic","type":"bool","internalType":"bool"},{"name":"timestamp","type":"uint256","internalType":"uint256"},{"name":"swiftUETR","type":"bytes32","internalType":"bytes32"}],"stateMutability":"view"},{"type":"function","name":"transferOwnership","inputs":[{"name":"newOwner","type":"address","internalType":"address"}],"outputs":[],"stateMutability":"nonpayable"},{"type":"event","name":"AgoraSettlementCompleted","inputs":[{"name":"settlementId","type":"bytes32","indexed":true,"internalType":"bytes32"}],"anonymous":false},{"type":"event","name":"AgoraSettlementInitiated","inputs":[{"name":"settlementId","type":"bytes32","indexed":true,"internalType":"bytes32"},{"name":"beneficiary","type":"address","indexed":true,"internalType":"address"}],"anonymous":false},{"type":"event","name":"DepositRegistered","inputs":[{"name":"token","type":"address","indexed":true,"internalType":"address"},{"name":"bank","type":"address","indexed":true,"internalType":"address"},{"name":"currency","type":"string","indexed":false,"internalType":"string"}],"anonymous":false},{"type":"event","name":"OwnershipTransferred","inputs":[{"name":"previousOwner","type":"address","indexed":true,"internalType":"address"},{"name":"newOwner","type":"address","indexed":true,"internalType":"address"}],"anonymous":false},{"type":"error","name":"OwnableInvalidOwner","inputs":[{"name":"owner","type":"address","internalType":"address"}]},{"type":"error","name":"OwnableUnauthorizedAccount","inputs":[{"name":"account","type":"address","internalType":"address"}]}],"bytecode":{"object":"0x6080806040523461007a5733156100645760008054336001600160a01b03198216811783556040519290916001600160a01b0316907f8be0079c531659141344cd1fd0a4f28419497f9722a3daafe3b4186f6b6457e09080a361141690816100808239f35b631e4fbdf760e01b815260006004820152602490fd5b600080fdfe608080604052600436101561001357600080fd5b60003560e01c90816301bc95e21461105a57508063542e78a014610c93578063715018a614610bf75780638da5cb5b14610ba5578063c3e6ace014610951578063e1254fba14610823578063eff28d6c14610656578063f2fde38b14610574578063f76806dc146101515763fc7e286d1461008d57600080fd5b3461014c5760207ffffffffffffffffffffffffffffffffffffffffffffffffffffffffffffffffc36011261014c5773ffffffffffffffffffffffffffffffffffffffff806100da611176565b1660005260016020526040600020908082541690600183015416916101016002820161124a565b60ff6003830154169161013660056004830154920154926040519687968752602087015260c0604087015260c0860190611199565b9215156060850152608084015260a08301520390f35b600080fd5b3461014c5760a07ffffffffffffffffffffffffffffffffffffffffffffffffffffffffffffffffc36011261014c57610188611176565b60243573ffffffffffffffffffffffffffffffffffffffff9182821680920361014c5760443567ffffffffffffffff80821161014c573660238301121561014c5781600401359080821161050a576020917fffffffffffffffffffffffffffffffffffffffffffffffffffffffffffffffe090604051946102108584601f850116018761111d565b818652366024838301011161014c5781600092602487930183890137860101526064359485151580960361014c57879061024861138f565b1694604051917f18160ddd00000000000000000000000000000000000000000000000000000000835284836004818a5afa92831561056857600093610539575b506040519361029685611101565b87855285850199898b526040860192888452606087019485526080870195865260a087019b6084358d528a600052600192838a52806040600020995116907fffffffffffffffffffffffff000000000000000000000000000000000000000091828b5416178a55848a0192511690825416179055600287019351805193841161050a5761032385546111f7565b601f81116104cf575b508891601f851160011461042457509183807f2494291ad96fb8cdf9fae54de3afe924888f492d0a91ee9b2fca1fc06647d00e9c9d9e97959360059997956000936103f9575b50507fffffffffffffffffffffffffffffffffffffffffffffffffffffffffffffffff91921b9260031b1c19161790555b600385019051151560ff7fffffffffffffffffffffffffffffffffffffffffffffffffffffffffffffff008354169116179055516004840155519101556103f4604051928284938452830190611199565b0390a3005b015191507fffffffffffffffffffffffffffffffffffffffffffffffffffffffffffffffff38610372565b849394929192169185600052896000209260005b8181106104ba5750917f2494291ad96fb8cdf9fae54de3afe924888f492d0a91ee9b2fca1fc06647d00e9c9d9e979593918560059a98969410610483575b505050811b0190556103a3565b01517fffffffffffffffffffffffffffffffffffffffffffffffffffffffffffffffff60f88460031b161c191690558d8080610476565b82840151855593860193928b01928b01610438565b6104fa90866000528a600020601f870160051c8101918c8810610500575b601f0160051c019061130e565b8d61032c565b90915081906104ed565b7f4e487b7100000000000000000000000000000000000000000000000000000000600052604160045260246000fd5b9092508481813d8311610561575b610551818361111d565b8101031261014c57519189610288565b503d610547565b6040513d6000823e3d90fd5b3461014c5760207ffffffffffffffffffffffffffffffffffffffffffffffffffffffffffffffffc36011261014c576105ab611176565b6105b361138f565b73ffffffffffffffffffffffffffffffffffffffff80911690811561062557600054827fffffffffffffffffffffffff0000000000000000000000000000000000000000821617600055167f8be0079c531659141344cd1fd0a4f28419497f9722a3daafe3b4186f6b6457e0600080a3005b60246040517f1e4fbdf700000000000000000000000000000000000000000000000000000000815260006004820152fd5b3461014c576020807ffffffffffffffffffffffffffffffffffffffffffffffffffffffffffffffffc36011261014c576004359061069261138f565b816000526002815260406000206004810154156107c5576001919060038082019160009160028201918601865b6106ec575b877f96b6c39e1bf3f1d4ca66adc085ef6f363ef6c3d3f8d16ced6f8486e9358df48a600080a2005b80548410156107c05783610701879583611348565b9054875491851b1c73ffffffffffffffffffffffffffffffffffffffff90811698911660446107308488611348565b905490871b1c9160006040519b8c9485937fa9059cbb000000000000000000000000000000000000000000000000000000008552600485015260248401525af1968715610568578897610788575b50860193956106bf565b9096508481813d83116107b9575b6107a0818361111d565b8101031261014c57518015150361014c5786958961077e565b503d610796565b6106c4565b606482604051907f08c379a00000000000000000000000000000000000000000000000000000000082526004820152601460248201527f536574746c656d656e74206e6f7420666f756e640000000000000000000000006044820152fd5b3461014c576020807ffffffffffffffffffffffffffffffffffffffffffffffffffffffffffffffffc36011261014c5761085b611176565b90600060a060405161086c81611101565b828152828482015260606040820152826060820152826080820152015273ffffffffffffffffffffffffffffffffffffffff809216600052600181526040600020604051916108ba83611101565b83825416835283600183015416918184019283526109386108dd6002830161124a565b604086019081528660ff60038501541695606088019615158752600560048601549560808a0196875201549560a08901968752604051998a99828b52511690890152511660408701525160c0606087015260e0860190611199565b9251151560808501525160a08401525160c08301520390f35b3461014c576020807ffffffffffffffffffffffffffffffffffffffffffffffffffffffffffffffffc36011261014c57600060c0604051610991816110e5565b828152606084820152606060408201528260608201528260808201528260a082015201526004356000526002815260406000206040516109d0816110e5565b81548152600192838301926040518094859184825491828152019160005284600020908860005b828110610b79575050505090610a0e91038561111d565b8183019384526002810191604051928382825491828152019160005282600020908860005b828110610b66575050505083610a4a91038461111d565b6040840192835260038201549073ffffffffffffffffffffffffffffffffffffffff906060860190828416825260ff608088019460a01c1615158452600560048601549560a0890196875201549560c0880196875260405198828a526101008a019851838b0152519760e060408b01528851809152826101208b0199019060005b8c828210610b52575050505051967fffffffffffffffffffffffffffffffffffffffffffffffffffffffffffffffe08982030160608a015281808951928381520198019160005b828110610b3f57505050508697505116608086015251151560a08501525160c08401525160e08301520390f35b83518a5298810198928101928b01610b12565b835188168c529a85019a9285019201610acb565b8354855293850193928101928101610a33565b835473ffffffffffffffffffffffffffffffffffffffff168552899550938701939281019281016109f7565b3461014c5760007ffffffffffffffffffffffffffffffffffffffffffffffffffffffffffffffffc36011261014c57602073ffffffffffffffffffffffffffffffffffffffff60005416604051908152f35b3461014c5760007ffffffffffffffffffffffffffffffffffffffffffffffffffffffffffffffffc36011261014c57610c2e61138f565b600073ffffffffffffffffffffffffffffffffffffffff81547fffffffffffffffffffffffff000000000000000000000000000000000000000081168355167f8be0079c531659141344cd1fd0a4f28419497f9722a3daafe3b4186f6b6457e08280a3005b3461014c5760a07ffffffffffffffffffffffffffffffffffffffffffffffffffffffffffffffffc36011261014c5760243567ffffffffffffffff811161014c573660238201121561014c578060040135610ced8161115e565b91610cfb604051938461111d565b8183526024602084019260051b8201019036821161014c57602401915b81831061102d576044358467ffffffffffffffff821161014c573660238301121561014c57816004013591610d4c8361115e565b92610d5a604051948561111d565b8084526024602085019160051b8301019136831161014c57602401905b82821061101d575050506064359073ffffffffffffffffffffffffffffffffffffffff8216820361014c578051835103610fbf5760405192610db8846110e5565b600435845260208401918252604084015273ffffffffffffffffffffffffffffffffffffffff82166060840152600160808401524260a084015260843560c08401526004356000526002602052604060002090835182555180519067ffffffffffffffff821161050a5768010000000000000000821161050a5760018301805483825560209291610e4a918591611325565b0160018301600052602060002060005b838110610f9557505050506002810160408401519081519167ffffffffffffffff831161050a5768010000000000000000831161050a57602090610ea384845481865585611325565b0190600052602060002060005b838110610f815760208686600560c08b6003840173ffffffffffffffffffffffffffffffffffffffff6060830151168154907fffffffffffffffffffffff00000000000000000000000000000000000000000074ff00000000000000000000000000000000000000006080860151151560a01b1692161717905560a08101516004850155015191015573ffffffffffffffffffffffffffffffffffffffff60405191166004357fb56f5630c16609209824a4d77390449946a2e830b4d0d3be5cd4292566e50aa6600080a360018152f35b600190602084519401938184015501610eb0565b600190602073ffffffffffffffffffffffffffffffffffffffff8551169401938184015501610e5a565b60646040517f08c379a000000000000000000000000000000000000000000000000000000000815260206004820152600f60248201527f4c656e677468206d69736d6174636800000000000000000000000000000000006044820152fd5b8135815260209182019101610d77565b823573ffffffffffffffffffffffffffffffffffffffff8116810361014c57815260209283019201610d18565b3461014c5760207ffffffffffffffffffffffffffffffffffffffffffffffffffffffffffffffffc36011261014c5760a0906004356000526002602052604060002080549060ff60038201546005600484015493015493855273ffffffffffffffffffffffffffffffffffffffff81166020860152851c161515604084015260608301526080820152f35b60e0810190811067ffffffffffffffff82111761050a57604052565b60c0810190811067ffffffffffffffff82111761050a57604052565b90601f7fffffffffffffffffffffffffffffffffffffffffffffffffffffffffffffffe0910116810190811067ffffffffffffffff82111761050a57604052565b67ffffffffffffffff811161050a5760051b60200190565b6004359073ffffffffffffffffffffffffffffffffffffffff8216820361014c57565b919082519283825260005b8481106111e35750507fffffffffffffffffffffffffffffffffffffffffffffffffffffffffffffffe0601f8460006020809697860101520116010190565b6020818301810151848301820152016111a4565b90600182811c92168015611240575b602083101461121157565b7f4e487b7100000000000000000000000000000000000000000000000000000000600052602260045260246000fd5b91607f1691611206565b9060405191826000825461125d816111f7565b908184526020946001916001811690816000146112cd575060011461128e575b50505061128c9250038361111d565b565b600090815285812095935091905b8183106112b557505061128c935082010138808061127d565b8554888401850152948501948794509183019161129c565b91505061128c9593507fffffffffffffffffffffffffffffffffffffffffffffffffffffffffffffff0091501682840152151560051b82010138808061127d565b818110611319575050565b6000815560010161130e565b9181811061133257505050565b61128c926000526020600020918201910161130e565b80548210156113605760005260206000200190600090565b7f4e487b7100000000000000000000000000000000000000000000000000000000600052603260045260246000fd5b73ffffffffffffffffffffffffffffffffffffffff6000541633036113b057565b60246040517f118cdaa7000000000000000000000000000000000000000000000000000000008152336004820152fdfea2646970667358221220caa37e8c40d8943b2146fe39b78cee20db13102c57148bc38d46a37dd6dda74a64736f6c63430008180033","linkReferences":{}},"methodIdentifiers":{"completeAgoraSettlement(bytes32)":"eff28d6c","deposits(address)":"fc7e286d","getDeposit(address)":"e1254fba","getSettlement(bytes32)":"c3e6ace0","initiateAgoraSettlement(bytes32,address[],uint256[],address,bytes32)":"542e78a0","owner()":"8da5cb5b","registerTokenizedDeposit(address,address,string,bool,bytes32)":"f76806dc","renounceOwnership()":"715018a6","settlements(bytes32)":"01bc95e2","transferOwnership(address)":"f2fde38b"},"id":0}