{"abi":[{"type":"constructor","inputs":[{"name":"_admin","type":"address","internalType":"address"}],"stateMutability":"nonpayable"},{"type":"function","name":"RECEIPT_TYPEHASH","inputs":[],"outputs":[{"name":"","type":"bytes32","internalType":"bytes32"}],"stateMutability":"view"},{"type":"function","name":"admin","inputs":[],"outputs":[{"name":"","type":"address","internalType":"address"}],"stateMutability":"view"},{"type":"function","name":"eip712Domain","inputs":[],"outputs":[{"name":"fields","type":"bytes1","internalType":"bytes1"},{"name":"name","type":"string","internalType":"string"},{"name":"version","type":"string","internalType":"string"},{"name":"chainId","type":"uint256","internalType":"uint256"},{"name":"verifyingContract","type":"address","internalType":"address"},{"name":"salt","type":"bytes32","internalType":"bytes32"},{"name":"extensions","type":"uint256[]","internalType":"uint256[]"}],"stateMutability":"view"},{"type":"function","name":"hashReceipt","inputs":[{"name":"id","type":"bytes32","internalType":"bytes32"},{"name":"released","type":"bool","internalType":"bool"},{"name":"settledAt","type":"uint64","internalType":"uint64"}],"outputs":[{"name":"","type":"bytes32","internalType":"bytes32"}],"stateMutability":"view"},{"type":"function","name":"isSigner","inputs":[{"name":"","type":"address","internalType":"address"}],"outputs":[{"name":"","type":"bool","internalType":"bool"}],"stateMutability":"view"},{"type":"function","name":"kind","inputs":[],"outputs":[{"name":"","type":"uint8","internalType":"enum IRail.Kind"}],"stateMutability":"pure"},{"type":"function","name":"markWithReceipt","inputs":[{"name":"t","type":"tuple","internalType":"struct IRail.Transfer","components":[{"name":"asset","type":"address","internalType":"address"},{"name":"from","type":"address","internalType":"address"},{"name":"to","type":"address","internalType":"address"},{"name":"amount","type":"uint256","internalType":"uint256"},{"name":"metadata","type":"bytes","internalType":"bytes"}]},{"name":"released","type":"bool","internalType":"bool"},{"name":"settledAt","type":"uint64","internalType":"uint64"},{"name":"sig","type":"bytes","internalType":"bytes"}],"outputs":[],"stateMutability":"nonpayable"},{"type":"function","name":"prepare","inputs":[{"name":"t","type":"tuple","internalType":"struct IRail.Transfer","components":[{"name":"asset","type":"address","internalType":"address"},{"name":"from","type":"address","internalType":"address"},{"name":"to","type":"address","internalType":"address"},{"name":"amount","type":"uint256","internalType":"uint256"},{"name":"metadata","type":"bytes","internalType":"bytes"}]}],"outputs":[],"stateMutability":"payable"},{"type":"function","name":"refund","inputs":[{"name":"","type":"bytes32","internalType":"bytes32"},{"name":"","type":"tuple","internalType":"struct IRail.Transfer","components":[{"name":"asset","type":"address","internalType":"address"},{"name":"from","type":"address","internalType":"address"},{"name":"to","type":"address","internalType":"address"},{"name":"amount","type":"uint256","internalType":"uint256"},{"name":"metadata","type":"bytes","internalType":"bytes"}]}],"outputs":[],"stateMutability":"nonpayable"},{"type":"function","name":"release","inputs":[{"name":"","type":"bytes32","internalType":"bytes32"},{"name":"","type":"tuple","internalType":"struct IRail.Transfer","components":[{"name":"asset","type":"address","internalType":"address"},{"name":"from","type":"address","internalType":"address"},{"name":"to","type":"address","internalType":"address"},{"name":"amount","type":"uint256","internalType":"uint256"},{"name":"metadata","type":"bytes","internalType":"bytes"}]}],"outputs":[],"stateMutability":"nonpayable"},{"type":"function","name":"setSigner","inputs":[{"name":"s","type":"address","internalType":"address"},{"name":"allowed","type":"bool","internalType":"bool"}],"outputs":[],"stateMutability":"nonpayable"},{"type":"function","name":"status","inputs":[{"name":"id","type":"bytes32","internalType":"bytes32"}],"outputs":[{"name":"","type":"uint8","internalType":"enum IRail.Status"}],"stateMutability":"view"},{"type":"function","name":"transferAdmin","inputs":[{"name":"to","type":"address","internalType":"address"}],"outputs":[],"stateMutability":"nonpayable"},{"type":"function","name":"transferId","inputs":[{"name":"t","type":"tuple","internalType":"struct IRail.Transfer","components":[{"name":"asset","type":"address","internalType":"address"},{"name":"from","type":"address","internalType":"address"},{"name":"to","type":"address","internalType":"address"},{"name":"amount","type":"uint256","internalType":"uint256"},{"name":"metadata","type":"bytes","internalType":"bytes"}]}],"outputs":[{"name":"","type":"bytes32","internalType":"bytes32"}],"stateMutability":"pure"},{"type":"event","name":"AdminTransferred","inputs":[{"name":"from","type":"address","indexed":true,"internalType":"address"},{"name":"to","type":"address","indexed":true,"internalType":"address"}],"anonymous":false},{"type":"event","name":"EIP712DomainChanged","inputs":[],"anonymous":false},{"type":"event","name":"RailCancelled","inputs":[{"name":"id","type":"bytes32","indexed":true,"internalType":"bytes32"}],"anonymous":false},{"type":"event","name":"RailPrepared","inputs":[{"name":"id","type":"bytes32","indexed":true,"internalType":"bytes32"},{"name":"from","type":"address","indexed":true,"internalType":"address"},{"name":"to","type":"address","indexed":true,"internalType":"address"},{"name":"asset","type":"address","indexed":false,"internalType":"address"},{"name":"amount","type":"uint256","indexed":false,"internalType":"uint256"}],"anonymous":false},{"type":"event","name":"RailRefunded","inputs":[{"name":"id","type":"bytes32","indexed":true,"internalType":"bytes32"},{"name":"to","type":"address","indexed":true,"internalType":"address"},{"name":"asset","type":"address","indexed":false,"internalType":"address"},{"name":"amount","type":"uint256","indexed":false,"internalType":"uint256"}],"anonymous":false},{"type":"event","name":"RailReleased","inputs":[{"name":"id","type":"bytes32","indexed":true,"internalType":"bytes32"},{"name":"to","type":"address","indexed":true,"internalType":"address"},{"name":"asset","type":"address","indexed":false,"internalType":"address"},{"name":"amount","type":"uint256","indexed":false,"internalType":"uint256"}],"anonymous":false},{"type":"event","name":"SignerSet","inputs":[{"name":"signer","type":"address","indexed":true,"internalType":"address"},{"name":"allowed","type":"bool","indexed":false,"internalType":"bool"}],"anonymous":false},{"type":"error","name":"ECDSAInvalidSignature","inputs":[]},{"type":"error","name":"ECDSAInvalidSignatureLength","inputs":[{"name":"length","type":"uint256","internalType":"uint256"}]},{"type":"error","name":"ECDSAInvalidSignatureS","inputs":[{"name":"s","type":"bytes32","internalType":"bytes32"}]},{"type":"error","name":"InvalidShortString","inputs":[]},{"type":"error","name":"StringTooLong","inputs":[{"name":"str","type":"string","internalType":"string"}]}],"bytecode":{"object":"0x61016034620001ec576001600160401b0390601f62001b2838819003918201601f1916830192919084841183851017620001d6578160209284926040968752833981010312620001ec57516001600160a01b0381169190829003620001ec578051906200006c82620001f1565b6012825260208201927122bc3a32b93730b62930b4b622a4a81b989960711b84528151946200009b86620001f1565b6001865260208601603160f81b8152620000b5856200020d565b95610120968752620000c788620003e0565b95610140968752519020968760e052519020610100968188524660a05284519160208301917f8b73c3c69bb8fe3d512ecc4cf759cc79239f7b179b0ffacaa9a75d522b39400f83528684015260608301524660808301523060a083015260a0825260c082019282841090841117620001d657828552815190206080523060c0528215620001a857505060018060a01b03196002541617600255519161159a93846200058e8539608051846112b2015260a0518461137e015260c05184611283015260e05184611301015251836113270152518261028f015251816102b90152f35b62461bcd60e51b8252602060c4820152600760e4820152660583731323a20360cc1b61010490910152606490fd5b634e487b7160e01b600052604160045260246000fd5b600080fd5b604081019081106001600160401b03821117620001d657604052565b80516020919082811015620002ac575090601f8251116200024b57808251920151908083106200023c57501790565b82600019910360031b1b161790565b90604051809263305a27a960e01b82528060048301528251908160248401526000935b82851062000292575050604492506000838284010152601f80199101168101030190fd5b84810182015186860160440152938101938593506200026e565b6001600160401b038111620001d6576000928354926001938481811c91168015620003d5575b83821014620003c157601f81116200038b575b5081601f8411600114620003245750928293918392869462000318575b50501b916000199060031b1c191617905560ff90565b01519250388062000302565b919083601f1981168780528488209488905b8883831062000370575050501062000356575b505050811b01905560ff90565b015160001960f88460031b161c1916905538808062000349565b85870151885590960195948501948793509081019062000336565b85805284601f848820920160051c820191601f860160051c015b828110620003b5575050620002e5565b878155018590620003a5565b634e487b7160e01b86526022600452602486fd5b90607f1690620002d2565b8051602090818110156200046e5750601f8251116200040d57808251920151908083106200023c57501790565b90604051809263305a27a960e01b82528060048301528251908160248401526000935b82851062000454575050604492506000838284010152601f80199101168101030190fd5b848101820151868601604401529381019385935062000430565b9192916001600160401b038111620001d65760019182548381811c9116801562000582575b828210146200056c57601f811162000533575b5080601f8311600114620004e6575081929394600092620004da575b5050600019600383901b1c191690821b17905560ff90565b015190503880620004c2565b90601f198316958460005282600020926000905b8882106200051b57505083859697106200035657505050811b01905560ff90565b808785968294968601518155019501930190620004fa565b8360005283601f83600020920160051c820191601f850160051c015b8281106200055f575050620004a6565b600081550184906200054f565b634e487b7160e01b600052602260045260246000fd5b90607f16906200049356fe608060408181526004918236101561001657600080fd5b600092833560e01c91826304baa00b14610b595750816308432d57146109d557816331cb6105146109095781634dd6e2b5146108ee57816352ad0d5e1461086e578163606bf1ee1461054f57816375829def146104375781637df73e27146103d057816384b0196e1461025957816390ee1dfa1461011457816395850f5914610200578163c2cf8203146101aa578163cfcb5b1b14610114575063f851a440146100bf57600080fd5b3461011057817ffffffffffffffffffffffffffffffffffffffffffffffffffffffffffffffffc3601126101105760209073ffffffffffffffffffffffffffffffffffffffff600254169051908152f35b5080fd5b905082346101a75750602060649261012b36610c8e565b505061015073ffffffffffffffffffffffffffffffffffffffff600254163314610d03565b51917f08c379a0000000000000000000000000000000000000000000000000000000008352820152601960248201527f583731323a20757365206d61726b5769746852656365697074000000000000006044820152fd5b80fd5b8284346101a75760607ffffffffffffffffffffffffffffffffffffffffffffffffffffffffffffffffc3601126101a757506101f96020926101ea610c0a565b6101f2610c19565b9135610f76565b9051908152f35b50503461011057817ffffffffffffffffffffffffffffffffffffffffffffffffffffffffffffffffc36011261011057602090517f74ed2632e4fba4a5acc7a04387f0b976bac6dc3c1d6a5fd6cfe236d183b9e9c78152f35b919050346103cc57827ffffffffffffffffffffffffffffffffffffffffffffffffffffffffffffffffc3601126103cc576102b37f000000000000000000000000000000000000000000000000000000000000000061101b565b926102dd7f0000000000000000000000000000000000000000000000000000000000000000611193565b90825192602092602085019585871067ffffffffffffffff8811176103a05750926020610356838896610349998b9996528686528151998a997f0f000000000000000000000000000000000000000000000000000000000000008b5260e0868c015260e08b0190610c30565b91898303908a0152610c30565b924660608801523060808801528460a088015286840360c088015251928381520193925b82811061038957505050500390f35b83518552869550938101939281019260010161037a565b8360416024927f4e487b7100000000000000000000000000000000000000000000000000000000835252fd5b8280fd5b5050346101105760207ffffffffffffffffffffffffffffffffffffffffffffffffffffffffffffffffc3601126101105760ff8160209373ffffffffffffffffffffffffffffffffffffffff610424610be7565b1681526003855220541690519015158152f35b9050346103cc5760207ffffffffffffffffffffffffffffffffffffffffffffffffffffffffffffffffc3601126103cc57610470610be7565b6002549173ffffffffffffffffffffffffffffffffffffffff80841692610498843314610d03565b169384156104f257505090827fffffffffffffffffffffffff0000000000000000000000000000000000000000927ff8ccb027dfcd135e000e9d45e6cc2d662578a8825d4c45b5e32e0adf67e79ec68680a3161760025580f35b90602060649251917f08c379a0000000000000000000000000000000000000000000000000000000008352820152600760248201527f583731323a2030000000000000000000000000000000000000000000000000006044820152fd5b838334610110577ffffffffffffffffffffffffffffffffffffffffffffffffffffffffffffffffc926080843601126103cc5780359167ffffffffffffffff9485841161086a5760a084840191853603011261086a576105ad610c0a565b926105b6610c19565b60643594888611610866573660238701121561086657858301359889116108665760249036828b89010111610862576105ee85610e59565b96878a5260209385855260ff888c2054166005811015610837576001036107dc579a610633610639926106298b9c9d9e866106429c9d610f76565b9286369201610df4565b906113a4565b909791976113e0565b73ffffffffffffffffffffffffffffffffffffffff8096168a526003835260ff878b205416156107815789889160001461071a5752505282862080547fffffffffffffffffffffffffffffffffffffffffffffffffffffffffffffff001660021790557fd246ccc6c6f9471c400e2ef416699d6cef45c429f224da93084d39b3f807286b926107149060646106e26106dc60448a01610ce2565b94610ce2565b915173ffffffffffffffffffffffffffffffffffffffff90921682529096013560208701529116939081906040820190565b0390a380f35b606492610714957f368c9a8588242d513faa21c32bf5aaee15ee1150a43690313e009727607c71d399956106e2946106dc945252848c2060037fffffffffffffffffffffffffffffffffffffffffffffffffffffffffffffff008254161790558a01610ce2565b606484601084868b51937f08c379a00000000000000000000000000000000000000000000000000000000085528401528201527f583731323a20626164207369676e6572000000000000000000000000000000006044820152fd5b606486600f86888c51937f08c379a00000000000000000000000000000000000000000000000000000000085528401528201527f583731323a2062616420737461746500000000000000000000000000000000006044820152fd5b848c6021897f4e487b7100000000000000000000000000000000000000000000000000000000835252fd5b8880fd5b8780fd5b8480fd5b8383346101105760207ffffffffffffffffffffffffffffffffffffffffffffffffffffffffffffffffc36011261011057823582528260205260ff818320541690519160058210156108c257602083838152f35b806021857f4e487b71000000000000000000000000000000000000000000000000000000006024945252fd5b505034610110576020906101f961090436610b92565b610e59565b50503461011057807ffffffffffffffffffffffffffffffffffffffffffffffffffffffffffffffffc360112610110577ffc4acb499491cd850a8a21ab98c7f128850c0f0e5f1a875a62b7fa055c2ecf196020610964610be7565b61096c610c0a565b9073ffffffffffffffffffffffffffffffffffffffff9061099282600254163314610d03565b169384865260038352808620911515917fffffffffffffffffffffffffffffffffffffffffffffffffffffffffffffff0081541660ff841617905551908152a280f35b90506109e036610b92565b906109ea82610e59565b908185528060205260ff84862054166005811015610b2d57610ad05781855260205282842060017fffffffffffffffffffffffffffffffffffffffffffffffffffffffffffffff008254161790557f10876f5ef21c4a7c28973a179a5d95ec8815150f2fbf9c39ba9c73132d2589da610a6560208401610ce2565b93610a71818501610ce2565b610aca610a7d86610ce2565b606073ffffffffffffffffffffffffffffffffffffffff80955195869516991697013590836020909392919373ffffffffffffffffffffffffffffffffffffffff60408201951681520152565b0390a480f35b60649060208551917f08c379a0000000000000000000000000000000000000000000000000000000008352820152600c60248201527f583731323a2065786973747300000000000000000000000000000000000000006044820152fd5b6024866021847f4e487b7100000000000000000000000000000000000000000000000000000000835252fd5b84903461011057817ffffffffffffffffffffffffffffffffffffffffffffffffffffffffffffffffc3601126101105780600260209252f35b7ffffffffffffffffffffffffffffffffffffffffffffffffffffffffffffffffc90602082820112610be2576004359167ffffffffffffffff8311610be2578260a092030112610be25760040190565b600080fd5b6004359073ffffffffffffffffffffffffffffffffffffffff82168203610be257565b602435908115158203610be257565b6044359067ffffffffffffffff82168203610be257565b919082519283825260005b848110610c7a5750507fffffffffffffffffffffffffffffffffffffffffffffffffffffffffffffffe0601f8460006020809697860101520116010190565b602081830181015184830182015201610c3b565b907ffffffffffffffffffffffffffffffffffffffffffffffffffffffffffffffffc604081840112610be257600435926024359167ffffffffffffffff8311610be2578260a092030112610be25760040190565b3573ffffffffffffffffffffffffffffffffffffffff81168103610be25790565b15610d0a57565b60646040517f08c379a000000000000000000000000000000000000000000000000000000000815260206004820152600f60248201527f583731323a206e6f742061646d696e00000000000000000000000000000000006044820152fd5b6040810190811067ffffffffffffffff821117610d8457604052565b7f4e487b7100000000000000000000000000000000000000000000000000000000600052604160045260246000fd5b90601f7fffffffffffffffffffffffffffffffffffffffffffffffffffffffffffffffe0910116810190811067ffffffffffffffff821117610d8457604052565b92919267ffffffffffffffff8211610d845760405191610e3c60207fffffffffffffffffffffffffffffffffffffffffffffffffffffffffffffffe0601f8401160184610db3565b829481845281830111610be2578281602093846000960137010152565b610e6281610ce2565b90610e6f60208201610ce2565b90610e7c60408201610ce2565b9260808201357fffffffffffffffffffffffffffffffffffffffffffffffffffffffffffffffe183360301811215610be257820191823567ffffffffffffffff93848211610be257602001908036038213610be257606091610edf913691610df4565b602081519101209160405195602087019760c08952600460e0890152610100957f5837313200000000000000000000000000000000000000000000000000000000878a015273ffffffffffffffffffffffffffffffffffffffff928380921660408b01521684890152166080870152013560a085015260c0840152825261012082019082821090821117610d845760405251902090565b906040519060208201927f74ed2632e4fba4a5acc7a04387f0b976bac6dc3c1d6a5fd6cfe236d183b9e9c7845260408301521515606082015267ffffffffffffffff80931660808201526080815260a081019281841090841117610d8457604292604052519020610fe561126c565b90604051917f19010000000000000000000000000000000000000000000000000000000000008352600283015260228201522090565b60ff81146110715760ff811690601f8211611047576040519161103d83610d68565b8252602082015290565b60046040517fb3512b0c000000000000000000000000000000000000000000000000000000008152fd5b50604051600080549060018260011c9060018416938415611189575b602094858410811461115c578387528694939291811561111d57506001146110c1575b50506110be92500382610db3565b90565b60008080527f290decd9548b62a8d60345a988386fc84ba6bc95484008f6362f93160ef3e56395935091905b8183106111055750506110be935082010138806110b0565b855487840185015294850194869450918301916110ed565b90506110be9593507fffffffffffffffffffffffffffffffffffffffffffffffffffffffffffffff0091501682840152151560051b82010138806110b0565b6024857f4e487b710000000000000000000000000000000000000000000000000000000081526022600452fd5b91607f169161108d565b60ff81146111b55760ff811690601f8211611047576040519161103d83610d68565b506040516000600190600154918260011c9060018416938415611262575b602094858410811461115c578387528694939291811561111d57506001146112035750506110be92500382610db3565b9093915060016000527fb10e2d527612073b26eecdfd717e6a320cf44b4afac2b0732d9fcbe2b7fa0cf6936000915b81831061124a5750506110be935082010138806110b0565b85548784018501529485019486945091830191611232565b91607f16916111d3565b73ffffffffffffffffffffffffffffffffffffffff7f00000000000000000000000000000000000000000000000000000000000000001630148061137b575b156112d4577f000000000000000000000000000000000000000000000000000000000000000090565b60405160208101907f8b73c3c69bb8fe3d512ecc4cf759cc79239f7b179b0ffacaa9a75d522b39400f82527f000000000000000000000000000000000000000000000000000000000000000060408201527f000000000000000000000000000000000000000000000000000000000000000060608201524660808201523060a082015260a0815260c0810181811067ffffffffffffffff821117610d845760405251902090565b507f000000000000000000000000000000000000000000000000000000000000000046146112ab565b81519190604183036113d5576113ce92506020820151906060604084015193015160001a906114c7565b9192909190565b505060009160029190565b600481101561149857806113f2575050565b600181036114245760046040517ff645eedf000000000000000000000000000000000000000000000000000000008152fd5b6002810361145d57602482604051907ffce698f70000000000000000000000000000000000000000000000000000000082526004820152fd5b6003146114675750565b602490604051907fd78bce0c0000000000000000000000000000000000000000000000000000000082526004820152fd5b7f4e487b7100000000000000000000000000000000000000000000000000000000600052602160045260246000fd5b91907f7fffffffffffffffffffffffffffffff5d576e7357a4501ddfe92f46681b20a0841161155857926020929160ff608095604051948552168484015260408301526060820152600092839182805260015afa1561154c57805173ffffffffffffffffffffffffffffffffffffffff81161561154357918190565b50809160019190565b604051903d90823e3d90fd5b5050506000916003919056fea264697066735822122006d6c4a25bb230db28424b04b913f57f4387874d118ccfd749d7970d9847e05464736f6c63430008180033","linkReferences":{}},"methodIdentifiers":{"RECEIPT_TYPEHASH()":"95850f59","admin()":"f851a440","eip712Domain()":"84b0196e","hashReceipt(bytes32,bool,uint64)":"c2cf8203","isSigner(address)":"7df73e27","kind()":"04baa00b","markWithReceipt((address,address,address,uint256,bytes),bool,uint64,bytes)":"606bf1ee","prepare((address,address,address,uint256,bytes))":"08432d57","refund(bytes32,(address,address,address,uint256,bytes))":"cfcb5b1b","release(bytes32,(address,address,address,uint256,bytes))":"90ee1dfa","setSigner(address,bool)":"31cb6105","status(bytes32)":"52ad0d5e","transferAdmin(address)":"75829def","transferId((address,address,address,uint256,bytes))":"4dd6e2b5"},"id":29}