{"abi":[{"type":"function","name":"ADMIN_ROLE","inputs":[],"outputs":[{"name":"","type":"bytes32","internalType":"bytes32"}],"stateMutability":"view"},{"type":"function","name":"ATTESTOR_ROLE","inputs":[],"outputs":[{"name":"","type":"bytes32","internalType":"bytes32"}],"stateMutability":"view"},{"type":"function","name":"DEFAULT_ADMIN_ROLE","inputs":[],"outputs":[{"name":"","type":"bytes32","internalType":"bytes32"}],"stateMutability":"view"},{"type":"function","name":"UPGRADE_INTERFACE_VERSION","inputs":[],"outputs":[{"name":"","type":"string","internalType":"string"}],"stateMutability":"view"},{"type":"function","name":"allowlist","inputs":[{"name":"","type":"address","internalType":"address"}],"outputs":[{"name":"","type":"bool","internalType":"bool"}],"stateMutability":"view"},{"type":"function","name":"canHold","inputs":[{"name":"user","type":"address","internalType":"address"},{"name":"policyId","type":"bytes32","internalType":"bytes32"}],"outputs":[{"name":"","type":"bool","internalType":"bool"}],"stateMutability":"view"},{"type":"function","name":"getRoleAdmin","inputs":[{"name":"role","type":"bytes32","internalType":"bytes32"}],"outputs":[{"name":"","type":"bytes32","internalType":"bytes32"}],"stateMutability":"view"},{"type":"function","name":"grantRole","inputs":[{"name":"role","type":"bytes32","internalType":"bytes32"},{"name":"account","type":"address","internalType":"address"}],"outputs":[],"stateMutability":"nonpayable"},{"type":"function","name":"hasRole","inputs":[{"name":"role","type":"bytes32","internalType":"bytes32"},{"name":"account","type":"address","internalType":"address"}],"outputs":[{"name":"","type":"bool","internalType":"bool"}],"stateMutability":"view"},{"type":"function","name":"initialize","inputs":[{"name":"admin","type":"address","internalType":"address"}],"outputs":[],"stateMutability":"nonpayable"},{"type":"function","name":"policies","inputs":[{"name":"","type":"bytes32","internalType":"bytes32"}],"outputs":[{"name":"allowUS","type":"bool","internalType":"bool"},{"name":"allowEU","type":"bool","internalType":"bool"},{"name":"allowSG","type":"bool","internalType":"bool"},{"name":"allowUK","type":"bool","internalType":"bool"},{"name":"regD506c","type":"bool","internalType":"bool"},{"name":"regS","type":"bool","internalType":"bool"},{"name":"micaART","type":"bool","internalType":"bool"},{"name":"micaEMT","type":"bool","internalType":"bool"},{"name":"proOnly","type":"bool","internalType":"bool"},{"name":"travelRuleRequired","type":"bool","internalType":"bool"}],"stateMutability":"view"},{"type":"function","name":"profiles","inputs":[{"name":"","type":"address","internalType":"address"}],"outputs":[{"name":"kyc","type":"bool","internalType":"bool"},{"name":"accredited","type":"bool","internalType":"bool"},{"name":"kycAsOf","type":"uint64","internalType":"uint64"},{"name":"kycExpiry","type":"uint64","internalType":"uint64"},{"name":"isoCountry","type":"bytes2","internalType":"bytes2"},{"name":"frozen","type":"bool","internalType":"bool"}],"stateMutability":"view"},{"type":"function","name":"proxiableUUID","inputs":[],"outputs":[{"name":"","type":"bytes32","internalType":"bytes32"}],"stateMutability":"view"},{"type":"function","name":"renounceRole","inputs":[{"name":"role","type":"bytes32","internalType":"bytes32"},{"name":"callerConfirmation","type":"address","internalType":"address"}],"outputs":[],"stateMutability":"nonpayable"},{"type":"function","name":"revokeRole","inputs":[{"name":"role","type":"bytes32","internalType":"bytes32"},{"name":"account","type":"address","internalType":"address"}],"outputs":[],"stateMutability":"nonpayable"},{"type":"function","name":"setAllowlist","inputs":[{"name":"user","type":"address","internalType":"address"},{"name":"ok","type":"bool","internalType":"bool"}],"outputs":[],"stateMutability":"nonpayable"},{"type":"function","name":"setPolicy","inputs":[{"name":"id","type":"bytes32","internalType":"bytes32"},{"name":"p","type":"tuple","internalType":"struct ComplianceRegistryUpgradeable.Policy","components":[{"name":"allowUS","type":"bool","internalType":"bool"},{"name":"allowEU","type":"bool","internalType":"bool"},{"name":"allowSG","type":"bool","internalType":"bool"},{"name":"allowUK","type":"bool","internalType":"bool"},{"name":"regD506c","type":"bool","internalType":"bool"},{"name":"regS","type":"bool","internalType":"bool"},{"name":"micaART","type":"bool","internalType":"bool"},{"name":"micaEMT","type":"bool","internalType":"bool"},{"name":"proOnly","type":"bool","internalType":"bool"},{"name":"travelRuleRequired","type":"bool","internalType":"bool"}]}],"outputs":[],"stateMutability":"nonpayable"},{"type":"function","name":"setProfile","inputs":[{"name":"user","type":"address","internalType":"address"},{"name":"prof","type":"tuple","internalType":"struct ComplianceRegistryUpgradeable.Profile","components":[{"name":"kyc","type":"bool","internalType":"bool"},{"name":"accredited","type":"bool","internalType":"bool"},{"name":"kycAsOf","type":"uint64","internalType":"uint64"},{"name":"kycExpiry","type":"uint64","internalType":"uint64"},{"name":"isoCountry","type":"bytes2","internalType":"bytes2"},{"name":"frozen","type":"bool","internalType":"bool"}]}],"outputs":[],"stateMutability":"nonpayable"},{"type":"function","name":"supportsInterface","inputs":[{"name":"interfaceId","type":"bytes4","internalType":"bytes4"}],"outputs":[{"name":"","type":"bool","internalType":"bool"}],"stateMutability":"view"},{"type":"function","name":"upgradeToAndCall","inputs":[{"name":"newImplementation","type":"address","internalType":"address"},{"name":"data","type":"bytes","internalType":"bytes"}],"outputs":[],"stateMutability":"payable"},{"type":"event","name":"AllowlistSet","inputs":[{"name":"user","type":"address","indexed":true,"internalType":"address"},{"name":"allowed","type":"bool","indexed":false,"internalType":"bool"}],"anonymous":false},{"type":"event","name":"Initialized","inputs":[{"name":"version","type":"uint64","indexed":false,"internalType":"uint64"}],"anonymous":false},{"type":"event","name":"PolicySet","inputs":[{"name":"policyId","type":"bytes32","indexed":true,"internalType":"bytes32"},{"name":"policy","type":"tuple","indexed":false,"internalType":"struct ComplianceRegistryUpgradeable.Policy","components":[{"name":"allowUS","type":"bool","internalType":"bool"},{"name":"allowEU","type":"bool","internalType":"bool"},{"name":"allowSG","type":"bool","internalType":"bool"},{"name":"allowUK","type":"bool","internalType":"bool"},{"name":"regD506c","type":"bool","internalType":"bool"},{"name":"regS","type":"bool","internalType":"bool"},{"name":"micaART","type":"bool","internalType":"bool"},{"name":"micaEMT","type":"bool","internalType":"bool"},{"name":"proOnly","type":"bool","internalType":"bool"},{"name":"travelRuleRequired","type":"bool","internalType":"bool"}]}],"anonymous":false},{"type":"event","name":"ProfileSet","inputs":[{"name":"user","type":"address","indexed":true,"internalType":"address"},{"name":"profile","type":"tuple","indexed":false,"internalType":"struct ComplianceRegistryUpgradeable.Profile","components":[{"name":"kyc","type":"bool","internalType":"bool"},{"name":"accredited","type":"bool","internalType":"bool"},{"name":"kycAsOf","type":"uint64","internalType":"uint64"},{"name":"kycExpiry","type":"uint64","internalType":"uint64"},{"name":"isoCountry","type":"bytes2","internalType":"bytes2"},{"name":"frozen","type":"bool","internalType":"bool"}]}],"anonymous":false},{"type":"event","name":"RoleAdminChanged","inputs":[{"name":"role","type":"bytes32","indexed":true,"internalType":"bytes32"},{"name":"previousAdminRole","type":"bytes32","indexed":true,"internalType":"bytes32"},{"name":"newAdminRole","type":"bytes32","indexed":true,"internalType":"bytes32"}],"anonymous":false},{"type":"event","name":"RoleGranted","inputs":[{"name":"role","type":"bytes32","indexed":true,"internalType":"bytes32"},{"name":"account","type":"address","indexed":true,"internalType":"address"},{"name":"sender","type":"address","indexed":true,"internalType":"address"}],"anonymous":false},{"type":"event","name":"RoleRevoked","inputs":[{"name":"role","type":"bytes32","indexed":true,"internalType":"bytes32"},{"name":"account","type":"address","indexed":true,"internalType":"address"},{"name":"sender","type":"address","indexed":true,"internalType":"address"}],"anonymous":false},{"type":"event","name":"Upgraded","inputs":[{"name":"implementation","type":"address","indexed":true,"internalType":"address"}],"anonymous":false},{"type":"error","name":"AccessControlBadConfirmation","inputs":[]},{"type":"error","name":"AccessControlUnauthorizedAccount","inputs":[{"name":"account","type":"address","internalType":"address"},{"name":"neededRole","type":"bytes32","internalType":"bytes32"}]},{"type":"error","name":"AddressEmptyCode","inputs":[{"name":"target","type":"address","internalType":"address"}]},{"type":"error","name":"ERC1967InvalidImplementation","inputs":[{"name":"implementation","type":"address","internalType":"address"}]},{"type":"error","name":"ERC1967NonPayable","inputs":[]},{"type":"error","name":"FailedInnerCall","inputs":[]},{"type":"error","name":"InvalidInitialization","inputs":[]},{"type":"error","name":"NotInitializing","inputs":[]},{"type":"error","name":"UUPSUnauthorizedCallContext","inputs":[]},{"type":"error","name":"UUPSUnsupportedProxiableUUID","inputs":[{"name":"slot","type":"bytes32","internalType":"bytes32"}]}],"bytecode":{"object":"0x60a0806040523461002a5730608052611e5c90816100308239608051818181610b8f0152610f920152f35b600080fdfe6080604081815260048036101561001557600080fd5b600092833560e01c90816301ffc9a71461141057508063248a9ca3146113a95780632e72ce53146113595780632f2ff15d1461131257806336568abe146112875780634f1ef28614610eeb5780634f4d0bae14610c0757806352d1902d14610b475780636272364414610aee57806375b238fc14610a9557806391d1485414610a06578063a217fddf146109cd578063a7cd52cb14610966578063aac507d61461069d578063ad3cb1cc14610592578063b12527f8146104c7578063bbe15627146103f9578063c4d66de81461023e578063d547741f146101c25763ddbfd8ef146100ff57600080fd5b346101be5760207ffffffffffffffffffffffffffffffffffffffffffffffffffffffffffffffffc3601126101be5761014092829135815280602052205460ff90818184519482821615158652828260081c1615156020870152828260101c16151581870152828260181c1615156060870152828260201c1615156080870152828260281c16151560a0870152828260301c16151560c0870152828260381c16151560e08701521c16151561010084015260481c161515610120820152f35b8280fd5b5090346101be57807ffffffffffffffffffffffffffffffffffffffffffffffffffffffffffffffffc3601126101be5761023a913561023560016102046114f5565b938387527f02dd7bc7dec4dceedda775e58dd541e08a116c6c53815c0bd028192f7b6268006020528620015461198b565b611c6c565b5080f35b50346101be5760207ffffffffffffffffffffffffffffffffffffffffffffffffffffffffffffffffc3601126101be576102766114cd565b907ff0c57e16840df040f15088dc2f81fe391c3923bec73e23a9662efc9c229c6a0091825460ff81861c16159267ffffffffffffffff8216801590816103f1575b60011490816103e7575b1590816103de575b506103b7575090818360017fffffffffffffffffffffffffffffffffffffffffffffffff00000000000000006103229516178655610382575b5061030b611d2d565b610313611d2d565b61031c816119d0565b50611aa8565b5061032b578280f35b7fc7f505b2f371ae2175ee4913f4499e1f2633a7b5936321eed1cdaeb6115181d291817fffffffffffffffffffffffffffffffffffffffffffffff00ffffffffffffffff602093541690555160018152a138808280f35b7fffffffffffffffffffffffffffffffffffffffffffffff000000000000000000166801000000000000000117845538610302565b85517ff92ee8a9000000000000000000000000000000000000000000000000000000008152fd5b905015386102c9565b303b1591506102c1565b8591506102b7565b5050346104c35760207ffffffffffffffffffffffffffffffffffffffffffffffffffffffffffffffffc3601126104c35760ff8160c09373ffffffffffffffffffffffffffffffffffffffff61044d6114cd565b1681526001602052205467ffffffffffffffff83519383831615158552838360081c1615156020860152818360101c16908501528160501c1660608401527fffff0000000000000000000000000000000000000000000000000000000000008160601b16608084015260a01c16151560a0820152f35b5080fd5b5050346104c357807ffffffffffffffffffffffffffffffffffffffffffffffffffffffffffffffffc3601126104c3577fff571df7d74779bb3bc4c418144ed2539441681cec39b558e6639f5faefc069560206105226114cd565b73ffffffffffffffffffffffffffffffffffffffff61053f6115c2565b916105486118f8565b169384865260028352610588828288209060ff7fffffffffffffffffffffffffffffffffffffffffffffffffffffffffffffff0083541691151516179055565b519015158152a280f35b50346101be57827ffffffffffffffffffffffffffffffffffffffffffffffffffffffffffffffffc3601126101be578151908282019082821067ffffffffffffffff83111761067157508252600581526020907f352e302e300000000000000000000000000000000000000000000000000000006020820152825193849260208452825192836020860152825b84811061065b57505050828201840152601f017fffffffffffffffffffffffffffffffffffffffffffffffffffffffffffffffe0168101030190f35b818101830151888201880152879550820161061f565b8460416024927f4e487b7100000000000000000000000000000000000000000000000000000000835252fd5b50346101be576101607ffffffffffffffffffffffffffffffffffffffffffffffffffffffffffffffffc3601126101be573590610140807fffffffffffffffffffffffffffffffffffffffffffffffffffffffffffffffdc360112610962576107046118f8565b828452836020528184209161074b61071a6118cb565b849060ff7fffffffffffffffffffffffffffffffffffffffffffffffffffffffffffffff0083541691151516179055565b6107896107566118da565b84547fffffffffffffffffffffffffffffffffffffffffffffffffffffffffffff00ff1690151560081b61ff0016178455565b6064359283151580940361095e578054906084359485151580960361095a5760a435958615158097036109565765ff00000000006107c56118e9565b151560281b169660e4359182151580930361095257610104359384151580950361094e57610124359586151580970361094a576101443597881515809903610946577f962b110c8e970cd9ed91440ec38c72af20bc987cb0acf1f487c45fe2f280a7ad9b7fffffffffffffffffffffffffffffffffffffffffffff00ffffffffffffffffff69ff0000000000000000008b60481b16927fffffffffffffffffffffffffffffffffffffffffffffff00000000000000ffff7fffffffffffffffffffffffffffffffffffffffffffffff00ffffffffffffffff62ff00008860101b16169116171663ff0000008660181b161764ff000000008760201b16171766ff0000000000008760301b161767ff000000000000008860381b161768ff0000000000000000898c1b16171790558751976108fd6115c2565b151589526109096115d1565b151560208a0152880152606087015260808601526109256115e0565b151560a086015260c085015260e0840152610100830152610120820152a280f35b8d80fd5b8c80fd5b8b80fd5b8a80fd5b8880fd5b8780fd5b8580fd5b8380fd5b5050346104c35760207ffffffffffffffffffffffffffffffffffffffffffffffffffffffffffffffffc3601126104c35760ff8160209373ffffffffffffffffffffffffffffffffffffffff6109ba6114cd565b1681526002855220541690519015158152f35b5050346104c357817ffffffffffffffffffffffffffffffffffffffffffffffffffffffffffffffffc3601126104c35751908152602090f35b50346101be57817ffffffffffffffffffffffffffffffffffffffffffffffffffffffffffffffffc3601126101be578160209360ff92610a446114f5565b903582527f02dd7bc7dec4dceedda775e58dd541e08a116c6c53815c0bd028192f7b626800865273ffffffffffffffffffffffffffffffffffffffff83832091168252855220541690519015158152f35b5050346104c357817ffffffffffffffffffffffffffffffffffffffffffffffffffffffffffffffffc3601126104c357602090517fa49807205ce4d355092ef5a8a18f56e8913cf4a201fbe287825b095693c217758152f35b5050346104c357817ffffffffffffffffffffffffffffffffffffffffffffffffffffffffffffffffc3601126104c357602090517fa7e0cd0f2772b23ee4c329892293a6bd99d48c306b094d6d008c9a8bb8b731e48152f35b509134610c0457807ffffffffffffffffffffffffffffffffffffffffffffffffffffffffffffffffc360112610c04575073ffffffffffffffffffffffffffffffffffffffff7f0000000000000000000000000000000000000000000000000000000000000000163003610bde57602090517f360894a13ba1a3210667c828492db98dca3e2076cc3735a920a3ca505d382bbc8152f35b517fe07c8dba000000000000000000000000000000000000000000000000000000008152fd5b80fd5b50346101be5760e07ffffffffffffffffffffffffffffffffffffffffffffffffffffffffffffffffc3601126101be57610c3f6114cd565b9060c07fffffffffffffffffffffffffffffffffffffffffffffffffffffffffffffffdc360112610962577fa7e0cd0f2772b23ee4c329892293a6bd99d48c306b094d6d008c9a8bb8b731e48085527f02dd7bc7dec4dceedda775e58dd541e08a116c6c53815c0bd028192f7b62680060205283852033865260205260ff848620541615610eb557505073ffffffffffffffffffffffffffffffffffffffff1690818352600160205280832090610d28610cf76118cb565b839060ff7fffffffffffffffffffffffffffffffffffffffffffffffffffffffffffffff0083541691151516179055565b610d66610d336118da565b83547fffffffffffffffffffffffffffffffffffffffffffffffffffffffffffff00ff1690151560081b61ff0016178355565b6064359067ffffffffffffffff9182811693848203610eb157805494608435948516918286036109565760a435937fffff0000000000000000000000000000000000000000000000000000000000008516948581036109525773ffff00000000000000000000000000000000000060c09871ffffffffffffffff000000000000000000007f92cc05d31dffe5b7804268a724fec372d9ea7600315f459c88f843ae8c7d516a9b7fffffffffffffffffffffff00000000000000000000000000000000000000ffff69ffffffffffffffff000074ff0000000000000000000000000000000000000000610e566118e9565b151560a01b169760101b169116179160501b16179160601c1617179055835193610e7e6115c2565b15158552610e8a6115d1565b1515602086015284015260608301526080820152610ea66115e0565b151560a0820152a280f35b8680fd5b604492508351917fe2517d3f00000000000000000000000000000000000000000000000000000000835233908301526024820152fd5b5090807ffffffffffffffffffffffffffffffffffffffffffffffffffffffffffffffffc3601126101be57610f1e6114cd565b90602493843567ffffffffffffffff81116104c357366023820112156104c35780850135610f4b81611588565b94610f5885519687611518565b81865260209182870193368a838301011161095e578186928b86930187378801015273ffffffffffffffffffffffffffffffffffffffff807f000000000000000000000000000000000000000000000000000000000000000016803014908115611259575b50611231578480527f02dd7bc7dec4dceedda775e58dd541e08a116c6c53815c0bd028192f7b6268008352858520338652835260ff8686205416156111fc5781169585517f52d1902d00000000000000000000000000000000000000000000000000000000815283818a818b5afa8691816111cd575b506110685750505050505051917f4c9c8ce3000000000000000000000000000000000000000000000000000000008352820152fd5b9088888894938c7f360894a13ba1a3210667c828492db98dca3e2076cc3735a920a3ca505d382bbc918281036111a05750853b15611173575080547fffffffffffffffffffffffff000000000000000000000000000000000000000016821790558451889392917fbc7cd75a20ee27fd9adebab32041f755214dbc6bffa90cc0225b39da2e5c2d3b8580a282511561113c57505061023a9582915190845af4913d15611132573d61112461111b82611588565b92519283611518565b81528581943d92013e611d86565b5060609250611d86565b95509550505050503461114e57505080f35b7fb398979f000000000000000000000000000000000000000000000000000000008152fd5b83838851917f4c9c8ce3000000000000000000000000000000000000000000000000000000008352820152fd5b84908851917faa1d49a4000000000000000000000000000000000000000000000000000000008352820152fd5b9091508481813d83116111f5575b6111e58183611518565b81010312610eb157519038611033565b503d6111db565b604488868b8951927fe2517d3f0000000000000000000000000000000000000000000000000000000084523390840152820152fd5b8786517fe07c8dba000000000000000000000000000000000000000000000000000000008152fd5b9050817f360894a13ba1a3210667c828492db98dca3e2076cc3735a920a3ca505d382bbc5416141538610fbd565b509190346104c357807ffffffffffffffffffffffffffffffffffffffffffffffffffffffffffffffffc3601126104c3576112c06114f5565b903373ffffffffffffffffffffffffffffffffffffffff8316036112ea575061023a919235611c6c565b8390517f6697b232000000000000000000000000000000000000000000000000000000008152fd5b5090346101be57807ffffffffffffffffffffffffffffffffffffffffffffffffffffffffffffffffc3601126101be5761023a913561135460016102046114f5565b611ba7565b5050346104c357807ffffffffffffffffffffffffffffffffffffffffffffffffffffffffffffffffc3601126104c3576020906113a06113976114cd565b602435906115ef565b90519015158152f35b50346101be5760207ffffffffffffffffffffffffffffffffffffffffffffffffffffffffffffffffc3601126101be57816020936001923581527f02dd7bc7dec4dceedda775e58dd541e08a116c6c53815c0bd028192f7b62680085522001549051908152f35b925050346101be5760207ffffffffffffffffffffffffffffffffffffffffffffffffffffffffffffffffc3601126101be57357fffffffff0000000000000000000000000000000000000000000000000000000081168091036101be57602092507f7965db0b0000000000000000000000000000000000000000000000000000000081149081156114a3575b5015158152f35b7f01ffc9a7000000000000000000000000000000000000000000000000000000009150143861149c565b6004359073ffffffffffffffffffffffffffffffffffffffff821682036114f057565b600080fd5b6024359073ffffffffffffffffffffffffffffffffffffffff821682036114f057565b90601f7fffffffffffffffffffffffffffffffffffffffffffffffffffffffffffffffe0910116810190811067ffffffffffffffff82111761155957604052565b7f4e487b7100000000000000000000000000000000000000000000000000000000600052604160045260246000fd5b67ffffffffffffffff811161155957601f017fffffffffffffffffffffffffffffffffffffffffffffffffffffffffffffffe01660200190565b6024359081151582036114f057565b6044359081151582036114f057565b60c4359081151582036114f057565b73ffffffffffffffffffffffffffffffffffffffff16906000918083526020916002835260ff916040918383872054166118c0578552848452818520825167ffffffffffffffff9291610140820184811183821017611893578552549480861615158252808660081c1615158783015284820194818760101c16151586526060830193828860181c161515855282888a1c1615156080850152828860281c16151560a0850152828860301c16151560c0850152828860381c16151560e0850152826101008501988181851c1615158a5260481c1615156101208501528952600188528089209080519160c0830183811088821117611866579060a09183525496848816159283158552858960081c16159b8c1590860152818960101c16908501528760501c16938460608501527fffff0000000000000000000000000000000000000000000000000000000000008860601b1697886080860152821c161592831591829101529161185e575b5061185457801515908161184a575b50611841577f5553000000000000000000000000000000000000000000000000000000000000831461182d575b507f4742000000000000000000000000000000000000000000000000000000000000821461181a575b507f534700000000000000000000000000000000000000000000000000000000000014611809575b505115159081611801575b506117fe5750600190565b90565b9050386117f3565b511561181557386117e8565b505090565b511561182657386117c0565b5050505090565b51156118395738611797565b505050505090565b50505050505090565b905042113861176a565b5050505050505090565b90503861175b565b60248c7f4e487b710000000000000000000000000000000000000000000000000000000081526041600452fd5b6024897f4e487b710000000000000000000000000000000000000000000000000000000081526041600452fd5b505050505050600190565b60243580151581036114f05790565b60443580151581036114f05790565b60c43580151581036114f05790565b3360009081527fb16e88c42fd4e48df2dd6a2eabd6bc9aec654ec170056b470819f8892cc6431c60205260409020547fa49807205ce4d355092ef5a8a18f56e8913cf4a201fbe287825b095693c217759060ff16156119545750565b604490604051907fe2517d3f0000000000000000000000000000000000000000000000000000000082523360048301526024820152fd5b806000527f02dd7bc7dec4dceedda775e58dd541e08a116c6c53815c0bd028192f7b62680060205260406000203360005260205260ff60406000205416156119545750565b73ffffffffffffffffffffffffffffffffffffffff1660008181527fb7db2dd08fcb62d0c9e08c51941cae53c267786a0b75803fb7960902fc8ef97d60205260408120549091907f02dd7bc7dec4dceedda775e58dd541e08a116c6c53815c0bd028192f7b6268009060ff1661181557828052602052604082208183526020526040822060017fffffffffffffffffffffffffffffffffffffffffffffffffffffffffffffff0082541617905533917f2f8788117e7eff1d82e926ec794901d17c78024a50270940304540a733656f0d8180a4600190565b73ffffffffffffffffffffffffffffffffffffffff1660008181527fb16e88c42fd4e48df2dd6a2eabd6bc9aec654ec170056b470819f8892cc6431c60205260408120549091907fa49807205ce4d355092ef5a8a18f56e8913cf4a201fbe287825b095693c21775907f02dd7bc7dec4dceedda775e58dd541e08a116c6c53815c0bd028192f7b6268009060ff16611ba157818452602052604083208284526020526040832060017fffffffffffffffffffffffffffffffffffffffffffffffffffffffffffffff008254161790557f2f8788117e7eff1d82e926ec794901d17c78024a50270940304540a733656f0d339380a4600190565b50505090565b906000918083527f02dd7bc7dec4dceedda775e58dd541e08a116c6c53815c0bd028192f7b6268008060205273ffffffffffffffffffffffffffffffffffffffff6040852093169283855260205260ff60408520541615600014611ba157818452602052604083208284526020526040832060017fffffffffffffffffffffffffffffffffffffffffffffffffffffffffffffff008254161790557f2f8788117e7eff1d82e926ec794901d17c78024a50270940304540a733656f0d339380a4600190565b906000918083527f02dd7bc7dec4dceedda775e58dd541e08a116c6c53815c0bd028192f7b6268008060205273ffffffffffffffffffffffffffffffffffffffff6040852093169283855260205260ff604085205416600014611ba15781845260205260408320828452602052604083207fffffffffffffffffffffffffffffffffffffffffffffffffffffffffffffff0081541690557ff6391f5c32d9c69d2a47ea670b442974b53935d1edc7fd64eb21e047a839171b339380a4600190565b60ff7ff0c57e16840df040f15088dc2f81fe391c3923bec73e23a9662efc9c229c6a005460401c1615611d5c57565b60046040517fd7e6bcf8000000000000000000000000000000000000000000000000000000008152fd5b90611dc55750805115611d9b57805190602001fd5b60046040517f1425ea42000000000000000000000000000000000000000000000000000000008152fd5b81511580611e1d575b611dd6575090565b60249073ffffffffffffffffffffffffffffffffffffffff604051917f9996b315000000000000000000000000000000000000000000000000000000008352166004820152fd5b50803b15611dce56fea2646970667358221220c1460eeb7315e5e012ab4164d20d5d4b45e965b03dc57d1e14afd4dc747de7b964736f6c63430008180033","linkReferences":{}},"methodIdentifiers":{"ADMIN_ROLE()":"75b238fc","ATTESTOR_ROLE()":"62723644","DEFAULT_ADMIN_ROLE()":"a217fddf","UPGRADE_INTERFACE_VERSION()":"ad3cb1cc","allowlist(address)":"a7cd52cb","canHold(address,bytes32)":"2e72ce53","getRoleAdmin(bytes32)":"248a9ca3","grantRole(bytes32,address)":"2f2ff15d","hasRole(bytes32,address)":"91d14854","initialize(address)":"c4d66de8","policies(bytes32)":"ddbfd8ef","profiles(address)":"bbe15627","proxiableUUID()":"52d1902d","renounceRole(bytes32,address)":"36568abe","revokeRole(bytes32,address)":"d547741f","setAllowlist(address,bool)":"b12527f8","setPolicy(bytes32,(bool,bool,bool,bool,bool,bool,bool,bool,bool,bool))":"aac507d6","setProfile(address,(bool,bool,uint64,uint64,bytes2,bool))":"4f4d0bae","supportsInterface(bytes4)":"01ffc9a7","upgradeToAndCall(address,bytes)":"4f1ef286"},"id":5}