{
  "_format": "hh-sol-artifact-1",
  "contractName": "SettlementHub2PC",
  "sourceName": "contracts/settlement/SettlementHub2PC.sol",
  "abi": [
    {
      "inputs": [
        {
          "internalType": "address",
          "name": "_admin",
          "type": "address"
        },
        {
          "internalType": "address",
          "name": "_registry",
          "type": "address"
        }
      ],
      "stateMutability": "nonpayable",
      "type": "constructor"
    },
    {
      "anonymous": false,
      "inputs": [
        {
          "indexed": true,
          "internalType": "bytes32",
          "name": "id",
          "type": "bytes32"
        },
        {
          "indexed": false,
          "internalType": "enum SettlementHub2PC.State",
          "name": "state",
          "type": "uint8"
        }
      ],
      "name": "Cancelled",
      "type": "event"
    },
    {
      "anonymous": false,
      "inputs": [
        {
          "indexed": true,
          "internalType": "bytes32",
          "name": "id",
          "type": "bytes32"
        },
        {
          "indexed": false,
          "internalType": "bytes16",
          "name": "uetr",
          "type": "bytes16"
        },
        {
          "indexed": false,
          "internalType": "uint64",
          "name": "deadline",
          "type": "uint64"
        }
      ],
      "name": "DealOpened",
      "type": "event"
    },
    {
      "anonymous": false,
      "inputs": [
        {
          "indexed": true,
          "internalType": "bytes32",
          "name": "id",
          "type": "bytes32"
        }
      ],
      "name": "Finalized",
      "type": "event"
    },
    {
      "anonymous": false,
      "inputs": [
        {
          "indexed": true,
          "internalType": "bytes32",
          "name": "id",
          "type": "bytes32"
        },
        {
          "indexed": false,
          "internalType": "uint8",
          "name": "legIdx",
          "type": "uint8"
        },
        {
          "indexed": false,
          "internalType": "bytes32",
          "name": "railKey",
          "type": "bytes32"
        },
        {
          "indexed": false,
          "internalType": "bytes32",
          "name": "railTransferId",
          "type": "bytes32"
        }
      ],
      "name": "LegPrepared",
      "type": "event"
    },
    {
      "inputs": [],
      "name": "admin",
      "outputs": [
        {
          "internalType": "address",
          "name": "",
          "type": "address"
        }
      ],
      "stateMutability": "view",
      "type": "function"
    },
    {
      "inputs": [
        {
          "internalType": "bytes32",
          "name": "id",
          "type": "bytes32"
        }
      ],
      "name": "cancel",
      "outputs": [],
      "stateMutability": "nonpayable",
      "type": "function"
    },
    {
      "inputs": [
        {
          "internalType": "bytes32",
          "name": "",
          "type": "bytes32"
        }
      ],
      "name": "deals",
      "outputs": [
        {
          "internalType": "enum SettlementHub2PC.State",
          "name": "state",
          "type": "uint8"
        },
        {
          "internalType": "uint64",
          "name": "createdAt",
          "type": "uint64"
        },
        {
          "internalType": "uint64",
          "name": "deadline",
          "type": "uint64"
        },
        {
          "components": [
            {
              "internalType": "bytes16",
              "name": "uetr",
              "type": "bytes16"
            },
            {
              "internalType": "bytes32",
              "name": "e2eHash",
              "type": "bytes32"
            },
            {
              "internalType": "bytes32",
              "name": "payloadHash",
              "type": "bytes32"
            }
          ],
          "internalType": "struct SettlementHub2PC.IsoRefs",
          "name": "iso",
          "type": "tuple"
        },
        {
          "components": [
            {
              "internalType": "bytes32",
              "name": "railKey",
              "type": "bytes32"
            },
            {
              "components": [
                {
                  "internalType": "address",
                  "name": "asset",
                  "type": "address"
                },
                {
                  "internalType": "address",
                  "name": "from",
                  "type": "address"
                },
                {
                  "internalType": "address",
                  "name": "to",
                  "type": "address"
                },
                {
                  "internalType": "uint256",
                  "name": "amount",
                  "type": "uint256"
                },
                {
                  "internalType": "bytes",
                  "name": "metadata",
                  "type": "bytes"
                }
              ],
              "internalType": "struct IRail.Transfer",
              "name": "xfer",
              "type": "tuple"
            }
          ],
          "internalType": "struct SettlementHub2PC.Leg",
          "name": "A",
          "type": "tuple"
        },
        {
          "components": [
            {
              "internalType": "bytes32",
              "name": "railKey",
              "type": "bytes32"
            },
            {
              "components": [
                {
                  "internalType": "address",
                  "name": "asset",
                  "type": "address"
                },
                {
                  "internalType": "address",
                  "name": "from",
                  "type": "address"
                },
                {
                  "internalType": "address",
                  "name": "to",
                  "type": "address"
                },
                {
                  "internalType": "uint256",
                  "name": "amount",
                  "type": "uint256"
                },
                {
                  "internalType": "bytes",
                  "name": "metadata",
                  "type": "bytes"
                }
              ],
              "internalType": "struct IRail.Transfer",
              "name": "xfer",
              "type": "tuple"
            }
          ],
          "internalType": "struct SettlementHub2PC.Leg",
          "name": "B",
          "type": "tuple"
        }
      ],
      "stateMutability": "view",
      "type": "function"
    },
    {
      "inputs": [
        {
          "internalType": "bytes32",
          "name": "id",
          "type": "bytes32"
        }
      ],
      "name": "finalize",
      "outputs": [],
      "stateMutability": "nonpayable",
      "type": "function"
    },
    {
      "inputs": [
        {
          "internalType": "bytes32",
          "name": "id",
          "type": "bytes32"
        },
        {
          "components": [
            {
              "internalType": "bytes16",
              "name": "uetr",
              "type": "bytes16"
            },
            {
              "internalType": "bytes32",
              "name": "e2eHash",
              "type": "bytes32"
            },
            {
              "internalType": "bytes32",
              "name": "payloadHash",
              "type": "bytes32"
            }
          ],
          "internalType": "struct SettlementHub2PC.IsoRefs",
          "name": "iso",
          "type": "tuple"
        },
        {
          "components": [
            {
              "internalType": "bytes32",
              "name": "railKey",
              "type": "bytes32"
            },
            {
              "components": [
                {
                  "internalType": "address",
                  "name": "asset",
                  "type": "address"
                },
                {
                  "internalType": "address",
                  "name": "from",
                  "type": "address"
                },
                {
                  "internalType": "address",
                  "name": "to",
                  "type": "address"
                },
                {
                  "internalType": "uint256",
                  "name": "amount",
                  "type": "uint256"
                },
                {
                  "internalType": "bytes",
                  "name": "metadata",
                  "type": "bytes"
                }
              ],
              "internalType": "struct IRail.Transfer",
              "name": "xfer",
              "type": "tuple"
            }
          ],
          "internalType": "struct SettlementHub2PC.Leg",
          "name": "A",
          "type": "tuple"
        },
        {
          "components": [
            {
              "internalType": "bytes32",
              "name": "railKey",
              "type": "bytes32"
            },
            {
              "components": [
                {
                  "internalType": "address",
                  "name": "asset",
                  "type": "address"
                },
                {
                  "internalType": "address",
                  "name": "from",
                  "type": "address"
                },
                {
                  "internalType": "address",
                  "name": "to",
                  "type": "address"
                },
                {
                  "internalType": "uint256",
                  "name": "amount",
                  "type": "uint256"
                },
                {
                  "internalType": "bytes",
                  "name": "metadata",
                  "type": "bytes"
                }
              ],
              "internalType": "struct IRail.Transfer",
              "name": "xfer",
              "type": "tuple"
            }
          ],
          "internalType": "struct SettlementHub2PC.Leg",
          "name": "B",
          "type": "tuple"
        },
        {
          "internalType": "uint64",
          "name": "deadline",
          "type": "uint64"
        }
      ],
      "name": "open",
      "outputs": [],
      "stateMutability": "nonpayable",
      "type": "function"
    },
    {
      "inputs": [
        {
          "internalType": "bytes32",
          "name": "id",
          "type": "bytes32"
        }
      ],
      "name": "prepareA",
      "outputs": [],
      "stateMutability": "nonpayable",
      "type": "function"
    },
    {
      "inputs": [
        {
          "internalType": "bytes32",
          "name": "id",
          "type": "bytes32"
        }
      ],
      "name": "prepareB",
      "outputs": [],
      "stateMutability": "nonpayable",
      "type": "function"
    },
    {
      "inputs": [],
      "name": "registry",
      "outputs": [
        {
          "internalType": "contract RailRegistry",
          "name": "",
          "type": "address"
        }
      ],
      "stateMutability": "view",
      "type": "function"
    }
  ],
  "bytecode": "0x608034620000dd57601f6200186738819003918201601f19168301916001600160401b03831184841017620000e2578084926040948552833981010312620000dd576200005a60206200005283620000f8565b9201620000f8565b6001600160a01b03918216919082151580620000d1575b15620000a35760018060a01b0319928360005416176000551690600154161760015560405161175990816200010e8239f35b60405162461bcd60e51b815260206004820152600660248201526504855423a20360d41b6044820152606490fd5b50818116151562000071565b600080fd5b634e487b7160e01b600052604160045260246000fd5b51906001600160a01b0382168203620000dd5756fe6080604052600436101561001257600080fd5b6000803560e01c80631de40b081461105457806349b1bbff14610e305780637b10399914610e0957806381cd872a14610d1b57806392584d8014610a1f578063c4d252f5146106bf578063cb3d94ff1461009d5763f851a4401461007557600080fd5b3461009a578060031936011261009a576001600160a01b036020915416604051908152f35b80fd5b503461009a5760031960e0368201126106bb5760603660231901126106bb576084359067ffffffffffffffff82116106b75760408183360301126106b75760a4359067ffffffffffffffff82116106b35760409082360301126106b75760c4359067ffffffffffffffff821682036106b3576101246001600160a01b03855416331461155f565b6004358452600260205267ffffffffffffffff604085205460081c1661066e5760405160c0810181811067ffffffffffffffff82111761065857604052848152602081019167ffffffffffffffff421683526040820167ffffffffffffffff851681526040519061019482611251565b602435966fffffffffffffffffffffffffffffffff1988168803610654576101dd6101ef91898552604435602086015260643560408601526060870194855236906004016115bf565b936080860194855236906004016115bf565b60a0850152600435885260026020526040882094845160078110156106405791608094939161022060409489611547565b519068ffffffffffffffff0070ffffffffffffffff0000000000000000008954925160481b169260081b169070ffffffffffffffffffffffffffffffff00191617178655600186019051908151851c6fffffffffffffffffffffffffffffffff1982541617905560208101516002870155015160038501555180516004850155602060058501910151906001600160a01b038251166001600160a01b0319825416179055600684016001600160a01b036020830151166001600160a01b0319825416179055600784016001600160a01b036040830151166001600160a01b031982541617905560608101516008850155015180519067ffffffffffffffff821161062c5761033160098501546112c7565b601f81116105e8575b50602090601f8311600114610577579282600f9360a0936080968b9261056c575b50508160011b916000199060031b1c19161760098601555b0151928351600a8201556020600b8201940151936001600160a01b038551166001600160a01b0319825416179055600c81016001600160a01b036020860151166001600160a01b0319825416179055600d81016001600160a01b036040860151166001600160a01b03198254161790556060840151600e8201550191015180519067ffffffffffffffff82116105585761040d83546112c7565b601f8111610513575b50602090601f83116001146104a45767ffffffffffffffff94939291879183610499575b50508160011b916000199060031b1c19161790555b604051926fffffffffffffffffffffffffffffffff191683521660208201527ff440be9073fdb96ca946dcf9b184d6243636d59991855143ff33bebe76a1a041604060043592a280f35b01519050388061043a565b838752602087209190601f198416885b8181106104fb575091600193918567ffffffffffffffff98979694106104e2575b505050811b01905561044f565b015160001960f88460031b161c191690553880806104d5565b929360206001819287860151815501950193016104b4565b83875260208720601f840160051c8101916020851061054e575b601f0160051c01905b8181106105435750610416565b878155600101610536565b909150819061052d565b634e487b7160e01b86526041600452602486fd5b01519050388061035b565b600985018852602088209190601f198416895b8181106105d057509360a0936080969360019383600f98106105b7575b505050811b016009860155610373565b015160001960f88460031b161c191690553880806105a7565b9293602060018192878601518155019501930161058a565b60098501885260208820601f840160051c810160208510610625575b601f830160051c8201811061061a57505061033a565b898155600101610604565b5080610604565b634e487b7160e01b87526041600452602487fd5b634e487b7160e01b8a52602160045260248afd5b8880fd5b634e487b7160e01b600052604160045260246000fd5b60405162461bcd60e51b815260206004820152600e60248201527f4855423a206964206578697374730000000000000000000000000000000000006044820152606490fd5b8380fd5b8280fd5b5080fd5b503461009a576020806003193601126106bb5760043590818352600281526040832090815467ffffffffffffffff906106fe828260081c1615156114c4565b6001600160a01b03908187541633148015610a11575b156109dd5761072660048601546116a0565b60ff610735600a8801546116a0565b921660078110156109c95788918160018693149081156109be575b506108ea575b50505060ff85541660078110156108d65790816002899493149081156108cb575b506107dd575b5050508260ff917fec9df90ce8bd32071334f03fa0ef614c2b7c5169d9c6aaf40b77b3de01e14c98945460481c1642116000146107d3576107c060065b82611547565b54166107cf604051809261140f565ba280f35b6107c060056107ba565b16600b850160405190634dd6e2b560e01b825285600483015285828061080660248201856114ff565b0381865afa9182156108c0578492610889575b50823b156106b3576108519284928360405180968195829463cfcb5b1b60e01b845260048401526040602484015260448301906114ff565b03925af1801561087e57610866575b8061077d565b61086f9061123d565b61087a578438610860565b8480fd5b6040513d84823e3d90fd5b935090508483813d81116108b9575b6108a281836112a5565b810103126108b4578792519038610819565b600080fd5b503d610898565b6040513d86823e3d90fd5b600391501438610777565b634e487b7160e01b88526021600452602488fd5b166005870160405190634dd6e2b560e01b825287600483015287828061091360248201856114ff565b0381865afa9182156108c057849261098c575b50823b156106b35761095e9284928360405180968195829463cfcb5b1b60e01b845260048401526040602484015260448301906114ff565b03925af1801561087e57610974575b8390610756565b61097d9061123d565b61098857863861096d565b8680fd5b935090508683813d81116109b7575b6109a581836112a5565b810103126108b4578992519038610926565b503d61099b565b600391501438610750565b634e487b7160e01b89526021600452602489fd5b60405162461bcd60e51b815260048101859052600c60248201526b090aa847440dcde40c2eae8d60a31b6044820152606490fd5b50828160481c164211610714565b503461009a576020806003193601126106bb57600435906001600160a01b0390610a4d82855416331461155f565b828452600281526040842091825467ffffffffffffffff90610a75828260081c1615156114c4565b60ff811660078110156108d657600303610cd65760481c164211610ca257908491610aa360048501546116a0565b9080610ab2600a8701546116a0565b921690600586019260405193634dd6e2b560e01b93848652866004870152868680610ae060248201866114ff565b0381845afa958615610c97578896610c65575b50803b15610c6157610b2e88929183926040519485809481936348770efd60e11b9c8d845260048401526040602484015260448301906114ff565b03925af1908115610c56578791610c3e575b505016600b860191604051908152846004820152848180610b6460248201876114ff565b0381855afa948515610c33578695610c00575b5050803b1561087a57610ba99385809460405196879586948593845260048401526040602484015260448301906114ff565b03925af1801561087e57610bec575b5050805460ff191660041790557fd5eaff5f7e00ea5a32e32c0121393190de285e9424ce5485cd0b0a51d6b77d628280a280f35b610bf59061123d565b6106b7578238610bb8565b819650809295503d8311610c2c575b610c1981836112a5565b810103126108b457869351923880610b77565b503d610c0f565b6040513d88823e3d90fd5b610c479061123d565b610c52578538610b40565b8580fd5b6040513d89823e3d90fd5b8780fd5b975094508587813d8111610c90575b610c7e81836112a5565b810103126108b4578996519438610af3565b503d610c74565b6040513d8a823e3d90fd5b60405162461bcd60e51b815260048101839052600c60248201526b1215508e88195e1c1a5c995960a21b6044820152606490fd5b60405162461bcd60e51b815260048101859052601160248201527f4855423a206e6f742070726570617265640000000000000000000000000000006044820152606490fd5b503461009a57602036600319011261009a5760409060043581526002602052208054610e0567ffffffffffffffff91610df760405194610d5a86611251565b6fffffffffffffffffffffffffffffffff199283600183015460801b16875260028201546020880190815260038301549060408901918252610daa600a610da360048701611397565b9501611397565b95604051998a9961010095610dc28c60ff831661140f565b818160081c1660208d015260481c1660408b0152511660608901525160808801525160a08701528060c0870152850190611432565b9083820360e0850152611432565b0390f35b503461009a578060031936011261009a5760206001600160a01b0360015416604051908152f35b503461009a576020806003193601126106bb5760043590818352600281526040832060ff8154610e6e67ffffffffffffffff8260081c1615156114c4565b166007811015611040578015908115611035575b5015610ff057600481016001600160a01b03610e9e82546116a0565b16916005810192803b15610988576040516308432d5760e01b8152600481018690529087808380610ed2602482018a6114ff565b038183865af1928315610fe3578793610fca575b505093610f0f946040518080978194634dd6e2b560e01b835286600484015260248301906114ff565b03915afa928315610c33578693610f9b575b5060ff8154166007811015610f875791610f6b606094927f5dd1b4981f456bad8df7914f6c7894d6639b622777dd1cb3ac3fb68064043c6d969415600014610f7f57600190611547565b54604051928784528301526040820152a280f35b600390611547565b634e487b7160e01b87526021600452602487fd5b9092508381813d8311610fc3575b610fb381836112a5565b810103126108b457519138610f21565b503d610fa9565b610fd69192935061123d565b6109885784908738610ee6565b50604051903d90823e3d90fd5b60405162461bcd60e51b815260048101839052601060248201527f4855423a206261642073746174652041000000000000000000000000000000006044820152606490fd5b600291501438610e82565b634e487b7160e01b85526021600452602485fd5b503461009a576020806003193601126106bb5760043590818352600281526040832060ff815461109267ffffffffffffffff8260081c1615156114c4565b166007811015611040578015908115611232575b50156111ed57600a8101906001600160a01b036110c383546116a0565b16600b820190803b15610988576040516308432d5760e01b8152600481018690528781806110f460248201876114ff565b038183865af18015610c97576111d0575b5061113093929185916040518080978194634dd6e2b560e01b835286600484015260248301906114ff565b03915afa928315610c335786936111a1575b5060ff8154166007811015610f87579161118c606094927f5dd1b4981f456bad8df7914f6c7894d6639b622777dd1cb3ac3fb68064043c6d969415600014610f7f57600290611547565b5460405192600184528301526040820152a280f35b9092508381813d83116111c9575b6111b981836112a5565b810103126108b457519138611142565b503d6111af565b918591976111e261113096959461123d565b979150919293611105565b60405162461bcd60e51b815260048101839052601060248201527f4855423a206261642073746174652042000000000000000000000000000000006044820152606490fd5b6001915014386110a6565b67ffffffffffffffff811161065857604052565b6060810190811067ffffffffffffffff82111761065857604052565b6040810190811067ffffffffffffffff82111761065857604052565b60a0810190811067ffffffffffffffff82111761065857604052565b90601f8019910116810190811067ffffffffffffffff82111761065857604052565b90600182811c921680156112f7575b60208310146112e157565b634e487b7160e01b600052602260045260246000fd5b91607f16916112d6565b805460009392611310826112c7565b918282526020936001916001811690816000146113785750600114611337575b5050505050565b90939495506000929192528360002092846000945b83861061136457505050500101903880808080611330565b80548587018301529401938590820161134c565b60ff19168685015250505090151560051b010191503880808080611330565b90604051916113a58361126d565b602083825481526005611406604051946113be86611289565b6001600160a01b0380600183015416875280600283015416868801526003820154166040870152600481015460608701526113ff6040518094819301611301565b03826112a5565b60808401520152565b90600782101561141c5752565b634e487b7160e01b600052602160045260246000fd5b90815181526080602080930151604060208401526001600160a01b0380825116604085015280602083015116606085015260408201511682840152606081015160a084015201519160a060c08301528251928360e084015260005b8481106114af57505050610100916000838284010152601f8019910116010190565b8181018301518482016101000152820161148d565b156114cb57565b60405162461bcd60e51b815260206004820152600c60248201526b242aa11d103ab735b737bbb760a11b6044820152606490fd5b600460a0611544936001600160a01b03808554168252806001860154166020830152600285015416604082015260038401546060820152816080820152019101611301565b90565b90600781101561141c5760ff80198354169116179055565b1561156657565b60405162461bcd60e51b815260206004820152600e60248201527f4855423a206e6f742061646d696e0000000000000000000000000000000000006044820152606490fd5b35906001600160a01b03821682036108b457565b91909160409081818503126108b45781516115d98161126d565b8094823582526020928381013567ffffffffffffffff918282116108b457019460a0868403126108b45780519561160f87611289565b611618816115ab565b87526116258682016115ab565b868801526116348282016115ab565b82880152606081013560608801526080810135908382116108b457019083601f830112156108b457813592831161065857519261167a601f8401601f19168701856112a5565b8284528583830101116108b4578160009286809301838601378301015260808401520152565b6001600160a01b0390602082600154169160246040518094819363538df79d60e11b835260048301525afa908115611717576000916116de57501690565b6020813d60201161170f575b816116f7602093836112a5565b810103126106bb575190828216820361009a57501690565b3d91506116ea565b6040513d6000823e3d90fdfea264697066735822122043ceb13826f2d1c8025b4e0e14a6be9ebb97e028a62249b7e40a54d0c4e4515d64736f6c63430008180033",
  "linkReferences": {},
  "deployedLinkReferences": {}
}