{"abi":[{"type":"constructor","inputs":[{"name":"asset_","type":"address","internalType":"contract IERC20"},{"name":"name_","type":"string","internalType":"string"},{"name":"symbol_","type":"string","internalType":"string"},{"name":"admin","type":"address","internalType":"address"}],"stateMutability":"nonpayable"},{"type":"function","name":"ADMIN_ROLE","inputs":[],"outputs":[{"name":"","type":"bytes32","internalType":"bytes32"}],"stateMutability":"view"},{"type":"function","name":"DEFAULT_ADMIN_ROLE","inputs":[],"outputs":[{"name":"","type":"bytes32","internalType":"bytes32"}],"stateMutability":"view"},{"type":"function","name":"allowance","inputs":[{"name":"owner","type":"address","internalType":"address"},{"name":"spender","type":"address","internalType":"address"}],"outputs":[{"name":"","type":"uint256","internalType":"uint256"}],"stateMutability":"view"},{"type":"function","name":"approve","inputs":[{"name":"spender","type":"address","internalType":"address"},{"name":"value","type":"uint256","internalType":"uint256"}],"outputs":[{"name":"","type":"bool","internalType":"bool"}],"stateMutability":"nonpayable"},{"type":"function","name":"asset","inputs":[],"outputs":[{"name":"","type":"address","internalType":"address"}],"stateMutability":"view"},{"type":"function","name":"balanceOf","inputs":[{"name":"account","type":"address","internalType":"address"}],"outputs":[{"name":"","type":"uint256","internalType":"uint256"}],"stateMutability":"view"},{"type":"function","name":"convertToAssets","inputs":[{"name":"shares","type":"uint256","internalType":"uint256"}],"outputs":[{"name":"","type":"uint256","internalType":"uint256"}],"stateMutability":"view"},{"type":"function","name":"convertToShares","inputs":[{"name":"assets","type":"uint256","internalType":"uint256"}],"outputs":[{"name":"","type":"uint256","internalType":"uint256"}],"stateMutability":"view"},{"type":"function","name":"decimals","inputs":[],"outputs":[{"name":"","type":"uint8","internalType":"uint8"}],"stateMutability":"view"},{"type":"function","name":"deposit","inputs":[{"name":"assets","type":"uint256","internalType":"uint256"},{"name":"receiver","type":"address","internalType":"address"}],"outputs":[{"name":"","type":"uint256","internalType":"uint256"}],"stateMutability":"nonpayable"},{"type":"function","name":"getRoleAdmin","inputs":[{"name":"role","type":"bytes32","internalType":"bytes32"}],"outputs":[{"name":"","type":"bytes32","internalType":"bytes32"}],"stateMutability":"view"},{"type":"function","name":"grantRole","inputs":[{"name":"role","type":"bytes32","internalType":"bytes32"},{"name":"account","type":"address","internalType":"address"}],"outputs":[],"stateMutability":"nonpayable"},{"type":"function","name":"hasRole","inputs":[{"name":"role","type":"bytes32","internalType":"bytes32"},{"name":"account","type":"address","internalType":"address"}],"outputs":[{"name":"","type":"bool","internalType":"bool"}],"stateMutability":"view"},{"type":"function","name":"maxDeposit","inputs":[{"name":"","type":"address","internalType":"address"}],"outputs":[{"name":"","type":"uint256","internalType":"uint256"}],"stateMutability":"view"},{"type":"function","name":"maxMint","inputs":[{"name":"","type":"address","internalType":"address"}],"outputs":[{"name":"","type":"uint256","internalType":"uint256"}],"stateMutability":"view"},{"type":"function","name":"maxRedeem","inputs":[{"name":"owner","type":"address","internalType":"address"}],"outputs":[{"name":"","type":"uint256","internalType":"uint256"}],"stateMutability":"view"},{"type":"function","name":"maxWithdraw","inputs":[{"name":"owner","type":"address","internalType":"address"}],"outputs":[{"name":"","type":"uint256","internalType":"uint256"}],"stateMutability":"view"},{"type":"function","name":"mint","inputs":[{"name":"shares","type":"uint256","internalType":"uint256"},{"name":"receiver","type":"address","internalType":"address"}],"outputs":[{"name":"","type":"uint256","internalType":"uint256"}],"stateMutability":"nonpayable"},{"type":"function","name":"name","inputs":[],"outputs":[{"name":"","type":"string","internalType":"string"}],"stateMutability":"view"},{"type":"function","name":"previewDeposit","inputs":[{"name":"assets","type":"uint256","internalType":"uint256"}],"outputs":[{"name":"","type":"uint256","internalType":"uint256"}],"stateMutability":"view"},{"type":"function","name":"previewMint","inputs":[{"name":"shares","type":"uint256","internalType":"uint256"}],"outputs":[{"name":"","type":"uint256","internalType":"uint256"}],"stateMutability":"view"},{"type":"function","name":"previewRedeem","inputs":[{"name":"shares","type":"uint256","internalType":"uint256"}],"outputs":[{"name":"","type":"uint256","internalType":"uint256"}],"stateMutability":"view"},{"type":"function","name":"previewWithdraw","inputs":[{"name":"assets","type":"uint256","internalType":"uint256"}],"outputs":[{"name":"","type":"uint256","internalType":"uint256"}],"stateMutability":"view"},{"type":"function","name":"redeem","inputs":[{"name":"shares","type":"uint256","internalType":"uint256"},{"name":"receiver","type":"address","internalType":"address"},{"name":"owner","type":"address","internalType":"address"}],"outputs":[{"name":"","type":"uint256","internalType":"uint256"}],"stateMutability":"nonpayable"},{"type":"function","name":"renounceRole","inputs":[{"name":"role","type":"bytes32","internalType":"bytes32"},{"name":"callerConfirmation","type":"address","internalType":"address"}],"outputs":[],"stateMutability":"nonpayable"},{"type":"function","name":"revokeRole","inputs":[{"name":"role","type":"bytes32","internalType":"bytes32"},{"name":"account","type":"address","internalType":"address"}],"outputs":[],"stateMutability":"nonpayable"},{"type":"function","name":"supportsInterface","inputs":[{"name":"interfaceId","type":"bytes4","internalType":"bytes4"}],"outputs":[{"name":"","type":"bool","internalType":"bool"}],"stateMutability":"view"},{"type":"function","name":"symbol","inputs":[],"outputs":[{"name":"","type":"string","internalType":"string"}],"stateMutability":"view"},{"type":"function","name":"totalAssets","inputs":[],"outputs":[{"name":"","type":"uint256","internalType":"uint256"}],"stateMutability":"view"},{"type":"function","name":"totalSupply","inputs":[],"outputs":[{"name":"","type":"uint256","internalType":"uint256"}],"stateMutability":"view"},{"type":"function","name":"transfer","inputs":[{"name":"to","type":"address","internalType":"address"},{"name":"value","type":"uint256","internalType":"uint256"}],"outputs":[{"name":"","type":"bool","internalType":"bool"}],"stateMutability":"nonpayable"},{"type":"function","name":"transferFrom","inputs":[{"name":"from","type":"address","internalType":"address"},{"name":"to","type":"address","internalType":"address"},{"name":"value","type":"uint256","internalType":"uint256"}],"outputs":[{"name":"","type":"bool","internalType":"bool"}],"stateMutability":"nonpayable"},{"type":"function","name":"withdraw","inputs":[{"name":"assets","type":"uint256","internalType":"uint256"},{"name":"receiver","type":"address","internalType":"address"},{"name":"owner","type":"address","internalType":"address"}],"outputs":[{"name":"","type":"uint256","internalType":"uint256"}],"stateMutability":"nonpayable"},{"type":"event","name":"Approval","inputs":[{"name":"owner","type":"address","indexed":true,"internalType":"address"},{"name":"spender","type":"address","indexed":true,"internalType":"address"},{"name":"value","type":"uint256","indexed":false,"internalType":"uint256"}],"anonymous":false},{"type":"event","name":"Deposit","inputs":[{"name":"sender","type":"address","indexed":true,"internalType":"address"},{"name":"owner","type":"address","indexed":true,"internalType":"address"},{"name":"assets","type":"uint256","indexed":false,"internalType":"uint256"},{"name":"shares","type":"uint256","indexed":false,"internalType":"uint256"}],"anonymous":false},{"type":"event","name":"RoleAdminChanged","inputs":[{"name":"role","type":"bytes32","indexed":true,"internalType":"bytes32"},{"name":"previousAdminRole","type":"bytes32","indexed":true,"internalType":"bytes32"},{"name":"newAdminRole","type":"bytes32","indexed":true,"internalType":"bytes32"}],"anonymous":false},{"type":"event","name":"RoleGranted","inputs":[{"name":"role","type":"bytes32","indexed":true,"internalType":"bytes32"},{"name":"account","type":"address","indexed":true,"internalType":"address"},{"name":"sender","type":"address","indexed":true,"internalType":"address"}],"anonymous":false},{"type":"event","name":"RoleRevoked","inputs":[{"name":"role","type":"bytes32","indexed":true,"internalType":"bytes32"},{"name":"account","type":"address","indexed":true,"internalType":"address"},{"name":"sender","type":"address","indexed":true,"internalType":"address"}],"anonymous":false},{"type":"event","name":"Transfer","inputs":[{"name":"from","type":"address","indexed":true,"internalType":"address"},{"name":"to","type":"address","indexed":true,"internalType":"address"},{"name":"value","type":"uint256","indexed":false,"internalType":"uint256"}],"anonymous":false},{"type":"event","name":"Withdraw","inputs":[{"name":"sender","type":"address","indexed":true,"internalType":"address"},{"name":"receiver","type":"address","indexed":true,"internalType":"address"},{"name":"owner","type":"address","indexed":true,"internalType":"address"},{"name":"assets","type":"uint256","indexed":false,"internalType":"uint256"},{"name":"shares","type":"uint256","indexed":false,"internalType":"uint256"}],"anonymous":false},{"type":"error","name":"AccessControlBadConfirmation","inputs":[]},{"type":"error","name":"AccessControlUnauthorizedAccount","inputs":[{"name":"account","type":"address","internalType":"address"},{"name":"neededRole","type":"bytes32","internalType":"bytes32"}]},{"type":"error","name":"AddressEmptyCode","inputs":[{"name":"target","type":"address","internalType":"address"}]},{"type":"error","name":"AddressInsufficientBalance","inputs":[{"name":"account","type":"address","internalType":"address"}]},{"type":"error","name":"ERC20InsufficientAllowance","inputs":[{"name":"spender","type":"address","internalType":"address"},{"name":"allowance","type":"uint256","internalType":"uint256"},{"name":"needed","type":"uint256","internalType":"uint256"}]},{"type":"error","name":"ERC20InsufficientBalance","inputs":[{"name":"sender","type":"address","internalType":"address"},{"name":"balance","type":"uint256","internalType":"uint256"},{"name":"needed","type":"uint256","internalType":"uint256"}]},{"type":"error","name":"ERC20InvalidApprover","inputs":[{"name":"approver","type":"address","internalType":"address"}]},{"type":"error","name":"ERC20InvalidReceiver","inputs":[{"name":"receiver","type":"address","internalType":"address"}]},{"type":"error","name":"ERC20InvalidSender","inputs":[{"name":"sender","type":"address","internalType":"address"}]},{"type":"error","name":"ERC20InvalidSpender","inputs":[{"name":"spender","type":"address","internalType":"address"}]},{"type":"error","name":"ERC4626ExceededMaxDeposit","inputs":[{"name":"receiver","type":"address","internalType":"address"},{"name":"assets","type":"uint256","internalType":"uint256"},{"name":"max","type":"uint256","internalType":"uint256"}]},{"type":"error","name":"ERC4626ExceededMaxMint","inputs":[{"name":"receiver","type":"address","internalType":"address"},{"name":"shares","type":"uint256","internalType":"uint256"},{"name":"max","type":"uint256","internalType":"uint256"}]},{"type":"error","name":"ERC4626ExceededMaxRedeem","inputs":[{"name":"owner","type":"address","internalType":"address"},{"name":"shares","type":"uint256","internalType":"uint256"},{"name":"max","type":"uint256","internalType":"uint256"}]},{"type":"error","name":"ERC4626ExceededMaxWithdraw","inputs":[{"name":"owner","type":"address","internalType":"address"},{"name":"assets","type":"uint256","internalType":"uint256"},{"name":"max","type":"uint256","internalType":"uint256"}]},{"type":"error","name":"FailedInnerCall","inputs":[]},{"type":"error","name":"MathOverflowedMulDiv","inputs":[]},{"type":"error","name":"SafeERC20FailedOperation","inputs":[{"name":"token","type":"address","internalType":"address"}]}],"bytecode":{"object":"0x60c08060405234620003ab57620023b88038038091620000208285620003b0565b83398101608082820312620003ab5781516001600160a01b03918282168203620003ab5760208481015190916001600160401b0391828111620003ab57816200006b918801620003f0565b906040870151838111620003ab5760609162000089918901620003f0565b9601519485168503620003ab57805190828211620002ab576003918254906001928383811c93168015620003a0575b878410146200038a578190601f9384811162000334575b508790848311600114620002cd57600092620002c1575b505060001982861b1c191690831b1783555b8751938411620002ab5760049485548381811c91168015620002a0575b828210146200028b5782811162000240575b5080918511600114620001d0575083929183916200018399600095620001c4575b50501b92600019911b1c19161790555b62000163816200057f565b9015620001bb575b60a0526080526200017c816200045b565b50620004dc565b50604051611d5290816200064682396080518181816108d60152818161116701528181611775015261195f015260a051816109b80152f35b5060126200016b565b01519350388062000148565b91939290601f198416988660005283600020936000905b8b82106200022857505084620001839a106200020d575b50505050811b01905562000158565b01519060f884600019921b161c1916905538808080620001fe565b808885978294968601518155019601930190620001e7565b86600052816000208380880160051c82019284891062000281575b0160051c019084905b8281106200027457505062000127565b6000815501849062000264565b925081926200025b565b602287634e487b7160e01b6000525260246000fd5b90607f169062000115565b634e487b7160e01b600052604160045260246000fd5b015190503880620000e6565b90859350601f1983169187600052896000209260005b8b8282106200031d575050841162000304575b505050811b018355620000f8565b015160001983881b60f8161c19169055388080620002f6565b8385015186558997909501949384019301620002e3565b90915085600052876000208480850160051c8201928a861062000380575b918791869594930160051c01915b82811062000370575050620000cf565b6000815585945087910162000360565b9250819262000352565b634e487b7160e01b600052602260045260246000fd5b92607f1692620000b8565b600080fd5b601f909101601f19168101906001600160401b03821190821017620002ab57604052565b6001600160401b038111620002ab57601f01601f191660200190565b9080601f83011215620003ab578151906200040b82620003d4565b926200041b6040519485620003b0565b82845260209160208483010111620003ab5760005b838110620004475750505060206000918301015290565b818101830151858201840152820162000430565b6001600160a01b031660008181527f05b8ccbb9d4d8fb16ea74ce3c29a41f1b461fbdaff4714a0d9a8eb05499746bc602052604081205490919060ff16620004d85781805260056020526040822081835260205260408220600160ff198254161790553391600080516020620023988339815191528180a4600190565b5090565b6001600160a01b031660008181527fd8ef4509105c3edb0b04658b4528edc5ddd30ea5a81e623a2623c88db1eb54b660205260408120549091907fa49807205ce4d355092ef5a8a18f56e8913cf4a201fbe287825b095693c217759060ff166200057a5780835260056020526040832082845260205260408320600160ff1982541617905560008051602062002398833981519152339380a4600190565b505090565b6040805163313ce56760e01b60208201908152600482529293929181016001600160401b03811182821017620002ab576040525160009384928392916001600160a01b03165afa3d156200063c573d90620005da82620003d4565b91620005ea6040519384620003b0565b82523d84602084013e5b806200062f575b62000606575b508190565b6020818051810103126200062b576020015160ff811162000601576001925060ff1690565b8280fd5b50602081511015620005fb565b606090620005f456fe6040608081526004908136101561001557600080fd5b600090813560e01c92836301e1d11414610e8157836301ffc9a714610dc457836306fdde0314610c7a57836307a2d13a14610887578363095ea7b314610b775783630a28a47714610b3a57836318160ddd14610afe57836323b872dd14610aa4578363248a9ca314610a5d5783632f2ff15d14610a17578363313ce5671461098457836336568abe146108fa57836338d52e0f1461088c578363402d267d146103375783634cdad506146108875783636e553f651461083657836370a08231146107f857836375b238fc146107a057836391d148541461073157836394bf804d146106e057836395d89b4114610586578363a217fddf1461054e578363a9059cbb14610500578363b3d7f6b9146104c3578363b460af9414610400578363ba0876521461033c578363c63d75b614610337578363c6e6f59214610190578363ce96cb77146102d6578363d547741f1461027657508263d905777e1461020b578263dd62ed3e1461019557505063ef8b30f71461019057600080fd5b611072565b3461020757807ffffffffffffffffffffffffffffffffffffffffffffffffffffffffffffffffc36011261020757806020926101cf610f6a565b6101d7610f8d565b73ffffffffffffffffffffffffffffffffffffffff91821683526001865283832091168252845220549051908152f35b5080fd5b346102075760207ffffffffffffffffffffffffffffffffffffffffffffffffffffffffffffffffc3601126102075760209061026f610248610f6a565b73ffffffffffffffffffffffffffffffffffffffff16600052600060205260406000205490565b9051908152f35b90346102d257807ffffffffffffffffffffffffffffffffffffffffffffffffffffffffffffffffc3601126102d2576102ce91356102c960016102b7610f8d565b9383875260056020528620015461154a565b611653565b5080f35b8280fd5b50346102075760207ffffffffffffffffffffffffffffffffffffffffffffffffffffffffffffffffc3601126102075761026f8160209373ffffffffffffffffffffffffffffffffffffffff61032a610f6a565b1681528085522054611233565b610fb0565b91346103fd575061034c36611012565b92919361037a8473ffffffffffffffffffffffffffffffffffffffff16600052600060205260406000205490565b8086116103a25750508361039c91610393602096611233565b94859133611850565b51908152f35b92517fb94abeec00000000000000000000000000000000000000000000000000000000815273ffffffffffffffffffffffffffffffffffffffff90941690840190815260208101949094525060408301529081906060010390fd5b80fd5b91346103fd575061041036611012565b9291936104466104418573ffffffffffffffffffffffffffffffffffffffff16600052600060205260406000205490565b611233565b80861161046857505061039c908461045f60209661125e565b94859233611850565b92517ffe9cceec00000000000000000000000000000000000000000000000000000000815273ffffffffffffffffffffffffffffffffffffffff90941690840190815260208101949094525060408301529081906060010390fd5b91346103fd5760207ffffffffffffffffffffffffffffffffffffffffffffffffffffffffffffffffc3601126103fd575061026f602092356111d6565b503461020757807ffffffffffffffffffffffffffffffffffffffffffffffffffffffffffffffffc3601126102075760209061054761053d610f6a565b6024359033611409565b5160018152f35b503461020757817ffffffffffffffffffffffffffffffffffffffffffffffffffffffffffffffffc3601126102075751908152602090f35b92503461020757817ffffffffffffffffffffffffffffffffffffffffffffffffffffffffffffffffc3601126102075780519180938054916001908360011c92600185169485156106d6575b60209586861081146106aa578589529081156106685750600114610610575b61060c8787610602828c03836110ae565b5191829182610ebb565b0390f35b81529295507f8a35acfbc15ff81a39ae7d344fd709f28e8600b4aa8c65c6b64bfe7fe36bd19b5b828410610655575050508261060c94610602928201019438806105f1565b8054868501880152928601928101610637565b7fffffffffffffffffffffffffffffffffffffffffffffffffffffffffffffff00168887015250505050151560051b83010192506106028261060c38806105f1565b6024846022857f4e487b7100000000000000000000000000000000000000000000000000000000835252fd5b93607f16936105d2565b346102d257817ffffffffffffffffffffffffffffffffffffffffffffffffffffffffffffffffc3601126102d25760209250359061039c61071f610f8d565b92610729816111d6565b8094336116f6565b346102d257817ffffffffffffffffffffffffffffffffffffffffffffffffffffffffffffffffc3601126102d2578160209360ff9261076e610f8d565b903582526005865273ffffffffffffffffffffffffffffffffffffffff83832091168252855220541690519015158152f35b503461020757817ffffffffffffffffffffffffffffffffffffffffffffffffffffffffffffffffc36011261020757602090517fa49807205ce4d355092ef5a8a18f56e8913cf4a201fbe287825b095693c217758152f35b50346102075760207ffffffffffffffffffffffffffffffffffffffffffffffffffffffffffffffffc3601126102075760209061026f610248610f6a565b346102d257817ffffffffffffffffffffffffffffffffffffffffffffffffffffffffffffffffc3601126102d25760209250359061039c610875610f8d565b61087e84611289565b938491336116f6565b610f21565b503461020757817ffffffffffffffffffffffffffffffffffffffffffffffffffffffffffffffffc360112610207576020905173ffffffffffffffffffffffffffffffffffffffff7f0000000000000000000000000000000000000000000000000000000000000000168152f35b92503461020757807ffffffffffffffffffffffffffffffffffffffffffffffffffffffffffffffffc36011261020757610932610f8d565b903373ffffffffffffffffffffffffffffffffffffffff83160361095c57506102ce919235611653565b8390517f6697b232000000000000000000000000000000000000000000000000000000008152fd5b92503461020757817ffffffffffffffffffffffffffffffffffffffffffffffffffffffffffffffffc3601126102075760ff7f0000000000000000000000000000000000000000000000000000000000000000169160ff83116109eb576020838351908152f35b806011857f4e487b71000000000000000000000000000000000000000000000000000000006024945252fd5b90346102d257807ffffffffffffffffffffffffffffffffffffffffffffffffffffffffffffffffc3601126102d2576102ce9135610a5860016102b7610f8d565b6115a7565b346102d25760207ffffffffffffffffffffffffffffffffffffffffffffffffffffffffffffffffc3601126102d25781602093600192358152600585522001549051908152f35b50346102075760607ffffffffffffffffffffffffffffffffffffffffffffffffffffffffffffffffc36011261020757602090610547610ae2610f6a565b610aea610f8d565b60443591610af98333836112b4565b611409565b503461020757817ffffffffffffffffffffffffffffffffffffffffffffffffffffffffffffffffc360112610207576020906002549051908152f35b91346103fd5760207ffffffffffffffffffffffffffffffffffffffffffffffffffffffffffffffffc3601126103fd575061026f6020923561125e565b346102d257817ffffffffffffffffffffffffffffffffffffffffffffffffffffffffffffffffc3601126102d257610bad610f6a565b602435903315610c4b5773ffffffffffffffffffffffffffffffffffffffff16918215610c1c57508083602095338152600187528181208582528752205582519081527f8c5be1e5ebec7d5bd14f71427d1e84f3dd0314c0f7b2291e5b200ac8c7c3b925843392a35160018152f35b602490858551917f94280d62000000000000000000000000000000000000000000000000000000008352820152fd5b602483868651917fe602df05000000000000000000000000000000000000000000000000000000008352820152fd5b90346102d257827ffffffffffffffffffffffffffffffffffffffffffffffffffffffffffffffffc3601126102d25780519183600354906001908260011c92600181168015610dba575b6020958686108214610d8e5750848852908115610d4e5750600114610cf5575b61060c8686610602828b03836110ae565b929550600383527fc2575a0e9e593c00f959f8c92f12db2869c3395a3b0502d05e2516446f71f85b5b828410610d3b575050508261060c94610602928201019486610ce4565b8054868501880152928601928101610d1e565b7fffffffffffffffffffffffffffffffffffffffffffffffffffffffffffffff001687860152505050151560051b83010192506106028261060c86610ce4565b8360226024927f4e487b7100000000000000000000000000000000000000000000000000000000835252fd5b93607f1693610cc4565b346102d25760207ffffffffffffffffffffffffffffffffffffffffffffffffffffffffffffffffc3601126102d25735907fffffffff0000000000000000000000000000000000000000000000000000000082168092036102d257602092507f7965db0b000000000000000000000000000000000000000000000000000000008214918215610e57575b50519015158152f35b7f01ffc9a70000000000000000000000000000000000000000000000000000000014915083610e4e565b503461020757817ffffffffffffffffffffffffffffffffffffffffffffffffffffffffffffffffc3601126102075760209061026f61111e565b60208082528251818301819052939260005b858110610f0d575050507fffffffffffffffffffffffffffffffffffffffffffffffffffffffffffffffe0601f8460006040809697860101520116010190565b818101830151848201604001528201610ecd565b34610f655760207ffffffffffffffffffffffffffffffffffffffffffffffffffffffffffffffffc360112610f65576020610f5d600435611233565b604051908152f35b600080fd5b6004359073ffffffffffffffffffffffffffffffffffffffff82168203610f6557565b6024359073ffffffffffffffffffffffffffffffffffffffff82168203610f6557565b34610f655760207ffffffffffffffffffffffffffffffffffffffffffffffffffffffffffffffffc360112610f6557610fe7610f6a565b5060206040517fffffffffffffffffffffffffffffffffffffffffffffffffffffffffffffffff8152f35b7ffffffffffffffffffffffffffffffffffffffffffffffffffffffffffffffffc6060910112610f65576004359073ffffffffffffffffffffffffffffffffffffffff906024358281168103610f6557916044359081168103610f655790565b34610f655760207ffffffffffffffffffffffffffffffffffffffffffffffffffffffffffffffffc360112610f65576020610f5d600435611289565b90601f7fffffffffffffffffffffffffffffffffffffffffffffffffffffffffffffffe0910116810190811067ffffffffffffffff8211176110ef57604052565b7f4e487b7100000000000000000000000000000000000000000000000000000000600052604160045260246000fd5b6040517f70a0823100000000000000000000000000000000000000000000000000000000815230600482015260208160248173ffffffffffffffffffffffffffffffffffffffff7f0000000000000000000000000000000000000000000000000000000000000000165afa9081156111ca5760009161119b575090565b90506020813d6020116111c2575b816111b6602093836110ae565b81010312610f65575190565b3d91506111a9565b6040513d6000823e3d90fd5b6111de61111e565b600181018091116112045760025490600182018092116112045761120192611a25565b90565b7f4e487b7100000000000000000000000000000000000000000000000000000000600052601160045260246000fd5b61123b61111e565b600181018091116112045760025490600182018092116112045761120192611a7e565b600254600181018091116112045761127461111e565b90600182018092116112045761120192611a25565b600254600181018091116112045761129f61111e565b90600182018092116112045761120192611a7e565b9173ffffffffffffffffffffffffffffffffffffffff8093169160009383855260016020526040938486209183169182875260205284862054927fffffffffffffffffffffffffffffffffffffffffffffffffffffffffffffffff840361131f575b50505050505050565b8484106113b35750801561138357811561135357855260016020528385209085526020520391205538808080808080611316565b6024868651907f94280d620000000000000000000000000000000000000000000000000000000082526004820152fd5b6024868651907fe602df050000000000000000000000000000000000000000000000000000000082526004820152fd5b85517ffb8f41b200000000000000000000000000000000000000000000000000000000815273ffffffffffffffffffffffffffffffffffffffff9190911660048201526024810184905260448101859052606490fd5b9173ffffffffffffffffffffffffffffffffffffffff80841692831561151957169283156114e85760009083825281602052604082205490838210611490575091604082827fddf252ad1be2c89b69c2b068fc378daa952ba7f163c4a11628f55a4df523b3ef958760209652828652038282205586815220818154019055604051908152a3565b6040517fe450d38c00000000000000000000000000000000000000000000000000000000815273ffffffffffffffffffffffffffffffffffffffff919091166004820152602481019190915260448101839052606490fd5b60246040517fec442f0500000000000000000000000000000000000000000000000000000000815260006004820152fd5b60246040517f96c6fd1e00000000000000000000000000000000000000000000000000000000815260006004820152fd5b80600052600560205260406000203360005260205260ff60406000205416156115705750565b604490604051907fe2517d3f0000000000000000000000000000000000000000000000000000000082523360048301526024820152fd5b90600091808352600560205273ffffffffffffffffffffffffffffffffffffffff6040842092169182845260205260ff6040842054161560001461164e578083526005602052604083208284526020526040832060017fffffffffffffffffffffffffffffffffffffffffffffffffffffffffffffff008254161790557f2f8788117e7eff1d82e926ec794901d17c78024a50270940304540a733656f0d339380a4600190565b505090565b90600091808352600560205273ffffffffffffffffffffffffffffffffffffffff6040842092169182845260205260ff60408420541660001461164e57808352600560205260408320828452602052604083207fffffffffffffffffffffffffffffffffffffffffffffffffffffffffffffff0081541690557ff6391f5c32d9c69d2a47ea670b442974b53935d1edc7fd64eb21e047a839171b339380a4600190565b929091926040908151937f23b872dd00000000000000000000000000000000000000000000000000000000602086015273ffffffffffffffffffffffffffffffffffffffff809216948560248201523060448201528660648201526064815260a081019080821067ffffffffffffffff8311176110ef576117999185527f0000000000000000000000000000000000000000000000000000000000000000611b4a565b169384156118205760025492808401809411611204577fdcbc1c05240f31ff3ad067ef1ee35ce4997762752e3a095284754544f4c709d793600255856000526000602052826000208181540190558560007fddf252ad1be2c89b69c2b068fc378daa952ba7f163c4a11628f55a4df523b3ef60208651858152a382519182526020820152a3565b602482517fec442f0500000000000000000000000000000000000000000000000000000000815260006004820152fd5b9190939273ffffffffffffffffffffffffffffffffffffffff93848316958585169482888703611a14575b50508615611519576000958787528660205260409485882054908482106119bd57508390898952886020520385882055826002540360025586887fddf252ad1be2c89b69c2b068fc378daa952ba7f163c4a11628f55a4df523b3ef60208851878152a38451917fa9059cbb000000000000000000000000000000000000000000000000000000006020840152169586602483015283604483015260448252608082019082821067ffffffffffffffff831117611990575084939291611983917ffbde797d201c681b91056529119e0b02407c7bb96a4a2c75c01fc9667232c8db96527f0000000000000000000000000000000000000000000000000000000000000000611b4a565b82519182526020820152a4565b807f4e487b7100000000000000000000000000000000000000000000000000000000602492526041600452fd5b86517fe450d38c00000000000000000000000000000000000000000000000000000000815273ffffffffffffffffffffffffffffffffffffffff919091166004820152602481019190915260448101849052606490fd5b611a1e91866112b4565b388261187b565b9190611a32828285611a7e565b928215611a4f5709611a415790565b600181018091116112045790565b7f4e487b7100000000000000000000000000000000000000000000000000000000600052601260045260246000fd5b9091828202917fffffffffffffffffffffffffffffffffffffffffffffffffffffffffffffffff84820993838086109503948086039514611b3c5784831115611b125782910981600003821680920460028082600302188083028203028083028203028083028203028083028203028083028203028092029003029360018380600003040190848311900302920304170290565b60046040517f227bc153000000000000000000000000000000000000000000000000000000008152fd5b505080925015611a4f570490565b73ffffffffffffffffffffffffffffffffffffffff1690600080826020829451910182865af13d15611c70573d9067ffffffffffffffff8211611c435790611bd29160405191611bc260207fffffffffffffffffffffffffffffffffffffffffffffffffffffffffffffffe0601f84011601846110ae565b82523d84602084013e5b84611c7c565b908151918215159283611c1b575b505050611bea5750565b602490604051907f5274afe70000000000000000000000000000000000000000000000000000000082526004820152fd5b8192935090602091810103126102075760200151908115918215036103fd5750388080611be0565b6024837f4e487b710000000000000000000000000000000000000000000000000000000081526041600452fd5b611bd290606090611bcc565b90611cbb5750805115611c9157805190602001fd5b60046040517f1425ea42000000000000000000000000000000000000000000000000000000008152fd5b81511580611d13575b611ccc575090565b60249073ffffffffffffffffffffffffffffffffffffffff604051917f9996b315000000000000000000000000000000000000000000000000000000008352166004820152fd5b50803b15611cc456fea2646970667358221220fe8d44d0d8d1d36325f6d1b017f46594c6902569efc5a611b0fcf5898652f5a464736f6c634300081800332f8788117e7eff1d82e926ec794901d17c78024a50270940304540a733656f0d","linkReferences":{}},"methodIdentifiers":{"ADMIN_ROLE()":"75b238fc","DEFAULT_ADMIN_ROLE()":"a217fddf","allowance(address,address)":"dd62ed3e","approve(address,uint256)":"095ea7b3","asset()":"38d52e0f","balanceOf(address)":"70a08231","convertToAssets(uint256)":"07a2d13a","convertToShares(uint256)":"c6e6f592","decimals()":"313ce567","deposit(uint256,address)":"6e553f65","getRoleAdmin(bytes32)":"248a9ca3","grantRole(bytes32,address)":"2f2ff15d","hasRole(bytes32,address)":"91d14854","maxDeposit(address)":"402d267d","maxMint(address)":"c63d75b6","maxRedeem(address)":"d905777e","maxWithdraw(address)":"ce96cb77","mint(uint256,address)":"94bf804d","name()":"06fdde03","previewDeposit(uint256)":"ef8b30f7","previewMint(uint256)":"b3d7f6b9","previewRedeem(uint256)":"4cdad506","previewWithdraw(uint256)":"0a28a477","redeem(uint256,address,address)":"ba087652","renounceRole(bytes32,address)":"36568abe","revokeRole(bytes32,address)":"d547741f","supportsInterface(bytes4)":"01ffc9a7","symbol()":"95d89b41","totalAssets()":"01e1d114","totalSupply()":"18160ddd","transfer(address,uint256)":"a9059cbb","transferFrom(address,address,uint256)":"23b872dd","withdraw(uint256,address,address)":"b460af94"},"id":104}