{"abi":[{"type":"constructor","inputs":[],"stateMutability":"nonpayable"},{"type":"function","name":"assetExposure","inputs":[{"name":"","type":"address","internalType":"address"}],"outputs":[{"name":"","type":"uint256","internalType":"uint256"}],"stateMutability":"view"},{"type":"function","name":"assetRiskCategory","inputs":[{"name":"","type":"address","internalType":"address"}],"outputs":[{"name":"","type":"uint8","internalType":"enum BaselIIIRiskModule.RiskCategory"}],"stateMutability":"view"},{"type":"function","name":"calculateCAR","inputs":[],"outputs":[{"name":"","type":"uint256","internalType":"uint256"}],"stateMutability":"view"},{"type":"function","name":"calculateRWA","inputs":[{"name":"asset","type":"address","internalType":"address"}],"outputs":[{"name":"","type":"uint256","internalType":"uint256"}],"stateMutability":"view"},{"type":"function","name":"calculateTotalRWA","inputs":[{"name":"assets","type":"address[]","internalType":"address[]"}],"outputs":[{"name":"totalRWA","type":"uint256","internalType":"uint256"}],"stateMutability":"view"},{"type":"function","name":"capitalReq","inputs":[],"outputs":[{"name":"tier1Capital","type":"uint256","internalType":"uint256"},{"name":"tier2Capital","type":"uint256","internalType":"uint256"},{"name":"riskWeightedAssets","type":"uint256","internalType":"uint256"},{"name":"capitalAdequacyRatio","type":"uint256","internalType":"uint256"},{"name":"minimumCAR","type":"uint256","internalType":"uint256"}],"stateMutability":"view"},{"type":"function","name":"classifyAsset","inputs":[{"name":"asset","type":"address","internalType":"address"},{"name":"category","type":"uint8","internalType":"enum BaselIIIRiskModule.RiskCategory"}],"outputs":[],"stateMutability":"nonpayable"},{"type":"function","name":"getCapitalRequirement","inputs":[],"outputs":[{"name":"","type":"tuple","internalType":"struct BaselIIIRiskModule.CapitalRequirement","components":[{"name":"tier1Capital","type":"uint256","internalType":"uint256"},{"name":"tier2Capital","type":"uint256","internalType":"uint256"},{"name":"riskWeightedAssets","type":"uint256","internalType":"uint256"},{"name":"capitalAdequacyRatio","type":"uint256","internalType":"uint256"},{"name":"minimumCAR","type":"uint256","internalType":"uint256"}]}],"stateMutability":"view"},{"type":"function","name":"isCapitalAdequate","inputs":[],"outputs":[{"name":"","type":"bool","internalType":"bool"}],"stateMutability":"view"},{"type":"function","name":"owner","inputs":[],"outputs":[{"name":"","type":"address","internalType":"address"}],"stateMutability":"view"},{"type":"function","name":"renounceOwnership","inputs":[],"outputs":[],"stateMutability":"nonpayable"},{"type":"function","name":"riskWeights","inputs":[{"name":"","type":"uint8","internalType":"enum BaselIIIRiskModule.RiskCategory"}],"outputs":[{"name":"","type":"uint16","internalType":"uint16"}],"stateMutability":"view"},{"type":"function","name":"setMinimumCAR","inputs":[{"name":"minCAR","type":"uint256","internalType":"uint256"}],"outputs":[],"stateMutability":"nonpayable"},{"type":"function","name":"setRiskWeight","inputs":[{"name":"category","type":"uint8","internalType":"enum BaselIIIRiskModule.RiskCategory"},{"name":"weight","type":"uint16","internalType":"uint16"}],"outputs":[],"stateMutability":"nonpayable"},{"type":"function","name":"transferOwnership","inputs":[{"name":"newOwner","type":"address","internalType":"address"}],"outputs":[],"stateMutability":"nonpayable"},{"type":"function","name":"updateCapital","inputs":[{"name":"tier1","type":"uint256","internalType":"uint256"},{"name":"tier2","type":"uint256","internalType":"uint256"}],"outputs":[],"stateMutability":"nonpayable"},{"type":"function","name":"updateExposure","inputs":[{"name":"asset","type":"address","internalType":"address"},{"name":"exposure","type":"uint256","internalType":"uint256"}],"outputs":[],"stateMutability":"nonpayable"},{"type":"event","name":"AssetClassified","inputs":[{"name":"asset","type":"address","indexed":true,"internalType":"address"},{"name":"category","type":"uint8","indexed":false,"internalType":"enum BaselIIIRiskModule.RiskCategory"}],"anonymous":false},{"type":"event","name":"CapitalAdequacyViolation","inputs":[{"name":"currentCAR","type":"uint256","indexed":false,"internalType":"uint256"},{"name":"minimumCAR","type":"uint256","indexed":false,"internalType":"uint256"}],"anonymous":false},{"type":"event","name":"CapitalUpdated","inputs":[{"name":"tier1","type":"uint256","indexed":false,"internalType":"uint256"},{"name":"tier2","type":"uint256","indexed":false,"internalType":"uint256"},{"name":"rwa","type":"uint256","indexed":false,"internalType":"uint256"},{"name":"car","type":"uint256","indexed":false,"internalType":"uint256"}],"anonymous":false},{"type":"event","name":"ExposureUpdated","inputs":[{"name":"asset","type":"address","indexed":true,"internalType":"address"},{"name":"exposure","type":"uint256","indexed":false,"internalType":"uint256"}],"anonymous":false},{"type":"event","name":"OwnershipTransferred","inputs":[{"name":"previousOwner","type":"address","indexed":true,"internalType":"address"},{"name":"newOwner","type":"address","indexed":true,"internalType":"address"}],"anonymous":false},{"type":"event","name":"RiskWeightUpdated","inputs":[{"name":"category","type":"uint8","indexed":true,"internalType":"enum BaselIIIRiskModule.RiskCategory"},{"name":"weight","type":"uint16","indexed":false,"internalType":"uint16"}],"anonymous":false},{"type":"error","name":"OwnableInvalidOwner","inputs":[{"name":"owner","type":"address","internalType":"address"}]},{"type":"error","name":"OwnableUnauthorizedAccount","inputs":[{"name":"account","type":"address","internalType":"address"}]}],"bytecode":{"object":"0x6080604090808252346100f85733156100e2575060008054336001600160a01b0319821681178355906001600160a01b03167f8be0079c531659141344cd1fd0a4f28419497f9722a3daafe3b4186f6b6457e08380a3808052600160205261ffff8280832092821993848154169055600181528181206107d08582541617905560028152818120612710908186825416179055600382528282206161a88682541617905560048252828220908582541617905560058152818120613a988582541617905560068152209182541617905561032060085551610ca590816100fe8239f35b631e4fbdf760e01b815260006004820152602490fd5b600080fdfe6040608081526004908136101561001557600080fd5b600091823560e01c80629ccd0e1461091d57806301ef1394146108045780630207584014610730578063066550fe146106ee5780635089bd7e146106a5578063658afdf3146106525780636d64691f14610617578063715018a61461057857806377e9a876146104d15780638da5cb5b146104805780639273ec2814610411578063945532eb146103af578063986031b214610364578063bd03ce15146102c6578063bdb7b29a1461021d578063beedbccb146101c05763f2fde38b146100db57600080fd5b346101bc5760207ffffffffffffffffffffffffffffffffffffffffffffffffffffffffffffffffc3601126101bc576101126109f0565b9061011b610b8e565b73ffffffffffffffffffffffffffffffffffffffff80921692831561018d5750508254827fffffffffffffffffffffffff00000000000000000000000000000000000000008216178455167f8be0079c531659141344cd1fd0a4f28419497f9722a3daafe3b4186f6b6457e08380a380f35b908460249251917f1e4fbdf7000000000000000000000000000000000000000000000000000000008352820152fd5b8280fd5b50346101bc57827ffffffffffffffffffffffffffffffffffffffffffffffffffffffffffffffffc3601126101bc5760a0925054906005549060065460075491600854938151958652602086015284015260608301526080820152f35b50346101bc5760207ffffffffffffffffffffffffffffffffffffffffffffffffffffffffffffffffc3601126101bc57803591610258610b8e565b610320831061026957505060085580f35b90602060649251917f08c379a0000000000000000000000000000000000000000000000000000000008352820152601e60248201527f42524949493a2042656c6f7720426173656c20494949206d696e696d756d00006044820152fd5b50503461036057807ffffffffffffffffffffffffffffffffffffffffffffffffffffffffffffffffc360112610360577f33eda3544d01bf10cb62b6c03a327c1b92088e86551c3da3b17f93f28b8f480660206103216109f0565b73ffffffffffffffffffffffffffffffffffffffff60243591610342610b8e565b169384865260038352818187205551908152a261035d610bdf565b80f35b5080fd5b5050346103605760207ffffffffffffffffffffffffffffffffffffffffffffffffffffffffffffffffc360112610360576020906103a86103a36109f0565b610b36565b9051908152f35b5050346103605760207ffffffffffffffffffffffffffffffffffffffffffffffffffffffffffffffffc360112610360578060209273ffffffffffffffffffffffffffffffffffffffff6104016109f0565b1681526003845220549051908152f35b5050346103605760207ffffffffffffffffffffffffffffffffffffffffffffffffffffffffffffffffc3601126103605760ff8161047c9373ffffffffffffffffffffffffffffffffffffffff6104666109f0565b1681526002602052205416905191829182610a60565b0390f35b50503461036057817ffffffffffffffffffffffffffffffffffffffffffffffffffffffffffffffffc3601126103605773ffffffffffffffffffffffffffffffffffffffff60209254169051908152f35b50346101bc57827ffffffffffffffffffffffffffffffffffffffffffffffffffffffffffffffffc3601126101bc5760a092608061050d610ae7565b8281528260208201528285820152826060820152015261052b610ae7565b905491828252600554906020830191825260065481840190815260075492606085019384526080600854950194855282519586525160208601525190840152516060830152516080820152f35b833461061457807ffffffffffffffffffffffffffffffffffffffffffffffffffffffffffffffffc360112610614576105af610b8e565b8073ffffffffffffffffffffffffffffffffffffffff81547fffffffffffffffffffffffff000000000000000000000000000000000000000081168355167f8be0079c531659141344cd1fd0a4f28419497f9722a3daafe3b4186f6b6457e08280a380f35b80fd5b50503461036057817ffffffffffffffffffffffffffffffffffffffffffffffffffffffffffffffffc360112610360576020906103a8610aaf565b50346101bc5760207ffffffffffffffffffffffffffffffffffffffffffffffffffffffffffffffffc3601126101bc5735916007831015610614575061ffff61069c602093610a18565b54169051908152f35b5090346101bc577ffffffffffffffffffffffffffffffffffffffffffffffffffffffffffffffffc360112610360576106dc610b8e565b8035905560243560055561035d610bdf565b50503461036057817ffffffffffffffffffffffffffffffffffffffffffffffffffffffffffffffffc3601126103605760209060075460085411159051908152f35b50503461036057807ffffffffffffffffffffffffffffffffffffffffffffffffffffffffffffffffc360112610360576107686109f0565b602435906007821015610800577f2363b7dcf917e4acf087ed6999c5fe1d8edc2691d0936d620570650546f397d19173ffffffffffffffffffffffffffffffffffffffff6107fa926107b8610b8e565b169384865260026020528086207fffffffffffffffffffffffffffffffffffffffffffffffffffffffffffffff0081541660ff84161790555191829182610a60565b0390a280f35b8380fd5b50346101bc57817ffffffffffffffffffffffffffffffffffffffffffffffffffffffffffffffffc3601126101bc578035916007831015610800576024359161ffff80841680940361091957610858610b8e565b83116108bd57507f2f267dc9b136fba04d19797c7864c4fe8f2305102b01ef1bfda483d6a65f7d0f9160209161088d85610a18565b827fffffffffffffffffffffffffffffffffffffffffffffffffffffffffffff000082541617905551908152a280f35b602060649251917f08c379a0000000000000000000000000000000000000000000000000000000008352820152601660248201527f42524949493a2057656967687420746f6f2068696768000000000000000000006044820152fd5b8580fd5b5090346101bc5760207ffffffffffffffffffffffffffffffffffffffffffffffffffffffffffffffffc3601126101bc5781359167ffffffffffffffff908184116109ec57366023850112156109ec578301359081116108005760059360243683871b860182011161036057939190809481935b8385106109a2576020878751908152f35b90919293958287891b8301013573ffffffffffffffffffffffffffffffffffffffff811681036109ec576001916109db6109e192610b36565b90610a73565b960193929190610991565b8480fd5b6004359073ffffffffffffffffffffffffffffffffffffffff82168203610a1357565b600080fd5b6007811015610a31576000526001602052604060002090565b7f4e487b7100000000000000000000000000000000000000000000000000000000600052602160045260246000fd5b919060208301926007821015610a315752565b91908201809211610a8057565b7f4e487b7100000000000000000000000000000000000000000000000000000000600052601160045260246000fd5b610abe60045460055490610a73565b600654908115610ae05761271090818102918183041490151715610a80570490565b5050600090565b6040519060a0820182811067ffffffffffffffff821117610b0757604052565b7f4e487b7100000000000000000000000000000000000000000000000000000000600052604160045260246000fd5b73ffffffffffffffffffffffffffffffffffffffff166000526003602052604060002054600260205261ffff610b7360ff60406000205416610a18565b541690818102918183041490151715610a8057612710900490565b73ffffffffffffffffffffffffffffffffffffffff600054163303610baf57565b60246040517f118cdaa7000000000000000000000000000000000000000000000000000000008152336004820152fd5b610be7610aaf565b806007557f9e6e1db2103be4fb56a72300fa995906206709b958e0f5222ba80a6754cf57ba60806004546005546006549060405192835260208301526040820152836060820152a1600854808210610c3d575050565b7fbf6bfeac5c2745d2ec7f506f16e7caa3fbdd5968afe981e95b06062cc2519fde9160409182519182526020820152a156fea2646970667358221220a4c9150f82c0445fcecca1d8857438f1918143a7c5b01b690626aee685924c4864736f6c63430008180033","linkReferences":{}},"methodIdentifiers":{"assetExposure(address)":"945532eb","assetRiskCategory(address)":"9273ec28","calculateCAR()":"6d64691f","calculateRWA(address)":"986031b2","calculateTotalRWA(address[])":"009ccd0e","capitalReq()":"beedbccb","classifyAsset(address,uint8)":"02075840","getCapitalRequirement()":"77e9a876","isCapitalAdequate()":"066550fe","owner()":"8da5cb5b","renounceOwnership()":"715018a6","riskWeights(uint8)":"658afdf3","setMinimumCAR(uint256)":"bdb7b29a","setRiskWeight(uint8,uint16)":"01ef1394","transferOwnership(address)":"f2fde38b","updateCapital(uint256,uint256)":"5089bd7e","updateExposure(address,uint256)":"bd03ce15"},"id":23}