{"abi":[{"type":"constructor","inputs":[{"name":"_admin","type":"address","internalType":"address"},{"name":"_oracle","type":"address","internalType":"address"},{"name":"_erc20Rail","type":"address","internalType":"address"}],"stateMutability":"nonpayable"},{"type":"function","name":"admin","inputs":[],"outputs":[{"name":"","type":"address","internalType":"address"}],"stateMutability":"view"},{"type":"function","name":"erc20Rail","inputs":[],"outputs":[{"name":"","type":"address","internalType":"contract IRail"}],"stateMutability":"view"},{"type":"function","name":"oracle","inputs":[],"outputs":[{"name":"","type":"address","internalType":"contract IPriceOracle"}],"stateMutability":"view"},{"type":"function","name":"prepareBound","inputs":[{"name":"legA","type":"tuple","internalType":"struct IRail.Transfer","components":[{"name":"asset","type":"address","internalType":"address"},{"name":"from","type":"address","internalType":"address"},{"name":"to","type":"address","internalType":"address"},{"name":"amount","type":"uint256","internalType":"uint256"},{"name":"metadata","type":"bytes","internalType":"bytes"}]},{"name":"legB","type":"tuple","internalType":"struct IRail.Transfer","components":[{"name":"asset","type":"address","internalType":"address"},{"name":"from","type":"address","internalType":"address"},{"name":"to","type":"address","internalType":"address"},{"name":"amount","type":"uint256","internalType":"uint256"},{"name":"metadata","type":"bytes","internalType":"bytes"}]},{"name":"maxSlippageBps","type":"uint256","internalType":"uint256"}],"outputs":[],"stateMutability":"nonpayable"},{"type":"function","name":"transferAdmin","inputs":[{"name":"to","type":"address","internalType":"address"}],"outputs":[],"stateMutability":"nonpayable"},{"type":"event","name":"AdminTransferred","inputs":[{"name":"from","type":"address","indexed":true,"internalType":"address"},{"name":"to","type":"address","indexed":true,"internalType":"address"}],"anonymous":false}],"bytecode":{"object":"0x6080346100f957601f610ab238819003918201601f19168301916001600160401b038311848410176100fe578084926060946040528339810103126100f95761004781610114565b61005f604061005860208501610114565b9301610114565b6001600160a01b0391821692831515806100ee575b806100e3575b156100b657829060018060a01b031994856000541617600055168360015416176001551690600254161760025560405161098990816101298239f35b60405162461bcd60e51b8152602060048201526005602482015264046583a20360dc1b6044820152606490fd5b50828216151561007a565b508281161515610074565b600080fd5b634e487b7160e01b600052604160045260246000fd5b51906001600160a01b03821682036100f95756fe608060408181526004918236101561001657600080fd5b600092833560e01c918263492efa76146106355750816375829def1461051c5781637dc0d1d0146104c957816387e32bc4146100af575063f851a4401461005c57600080fd5b346100ab57817ffffffffffffffffffffffffffffffffffffffffffffffffffffffffffffffffc3601126100ab5773ffffffffffffffffffffffffffffffffffffffff60209254169051908152f35b5080fd5b839150346100ab577ffffffffffffffffffffffffffffffffffffffffffffffffffffffffffffffffc926060843601126104c55781359367ffffffffffffffff908186116104c1578584019160a082883603011261031a5760249081359081116104bd5760a08187019382360301126104bd576044359073ffffffffffffffffffffffffffffffffffffffff9861014a8a8a541633146106ab565b8961015487610710565b161515806104aa575b1561044e5789600154169061017187610710565b8851928c7f41976e090000000000000000000000000000000000000000000000000000000092838652168b85015289848881845afa93841561041f578b888f969593948f958e948798610429575b506101c98d610710565b938551998a958694855216908301525afa93841561041f57918c939161022795938c86956103ce575b5050610222939261021661021061021c9460646102109501356107d5565b91610817565b90610828565b906107d5565b610828565b612710908382038281116103a3576102408391836107d5565b04938201908183116103a35760649291610259916107d5565b04910135918210159182610398575b50501561033c5750856002541695863b1561031a5785845180988183816102b57f08432d5700000000000000000000000000000000000000000000000000000000998a83528c8301610861565b03925af180156103325761031e575b85965060025416803b1561031a576102eb9486809486519788958694859384528301610861565b03925af190811561031157506102fe5750f35b61030790610731565b61030e5780f35b80fd5b513d84823e3d90fd5b8580fd5b94909561032a90610731565b9385906102c4565b84513d88823e3d90fd5b84600c60649260208751937f08c379a00000000000000000000000000000000000000000000000000000000085528401528201527f46583a20736c69707061676500000000000000000000000000000000000000006044820152fd5b111590508880610268565b858b60118c7f4e487b7100000000000000000000000000000000000000000000000000000000835252fd5b60649650610222955061021061021c946104066102109597948461021695903d10610418575b6103fe8183610774565b8101906107b5565b9990999850509450505092908c6101f2565b503d6103f4565b8a513d8e823e3d90fd5b909750610444919650843d8611610418576103fe8183610774565b95909596386101bf565b606488600a8660208b51937f08c379a00000000000000000000000000000000000000000000000000000000085528401528201527f46583a20617373657473000000000000000000000000000000000000000000006044820152fd5b50896104b586610710565b16151561015d565b8680fd5b8480fd5b8280fd5b5050346100ab57817ffffffffffffffffffffffffffffffffffffffffffffffffffffffffffffffffc3601126100ab5760209073ffffffffffffffffffffffffffffffffffffffff600154169051908152f35b9050346104c55760207ffffffffffffffffffffffffffffffffffffffffffffffffffffffffffffffffc3601126104c55780359173ffffffffffffffffffffffffffffffffffffffff918284168094036104c1578454928316916105818333146106ab565b84156105d857505090827fffffffffffffffffffffffff0000000000000000000000000000000000000000927ff8ccb027dfcd135e000e9d45e6cc2d662578a8825d4c45b5e32e0adf67e79ec68680a31617815580f35b90602060649251917f08c379a0000000000000000000000000000000000000000000000000000000008352820152600560248201527f46583a20300000000000000000000000000000000000000000000000000000006044820152fd5b8490346100ab57817ffffffffffffffffffffffffffffffffffffffffffffffffffffffffffffffffc3601126100ab5760209073ffffffffffffffffffffffffffffffffffffffff600254168152f35b359073ffffffffffffffffffffffffffffffffffffffff821682036106a657565b600080fd5b156106b257565b60646040517f08c379a000000000000000000000000000000000000000000000000000000000815260206004820152600d60248201527f46583a206e6f742061646d696e000000000000000000000000000000000000006044820152fd5b3573ffffffffffffffffffffffffffffffffffffffff811681036106a65790565b67ffffffffffffffff811161074557604052565b7f4e487b7100000000000000000000000000000000000000000000000000000000600052604160045260246000fd5b90601f7fffffffffffffffffffffffffffffffffffffffffffffffffffffffffffffffe0910116810190811067ffffffffffffffff82111761074557604052565b91908260409103126106a6576020825192015160ff811681036106a65790565b818102929181159184041417156107e857565b7f4e487b7100000000000000000000000000000000000000000000000000000000600052601160045260246000fd5b60ff16604d81116107e857600a0a90565b8115610832570490565b7f4e487b7100000000000000000000000000000000000000000000000000000000600052601260045260246000fd5b906020825273ffffffffffffffffffffffffffffffffffffffff8061088583610685565b1660208401528061089860208401610685565b1660408401526108aa60408301610685565b1660608301526060810135608083015260808101357fffffffffffffffffffffffffffffffffffffffffffffffffffffffffffffffe1823603018112156106a65701906020823592019167ffffffffffffffff81116106a65780360383136106a657601f817fffffffffffffffffffffffffffffffffffffffffffffffffffffffffffffffe09260e09560a0808701528160c0870152868601376000858286010152011601019056fea2646970667358221220d5186eddb1f20f609e810a40fab97ca988e4592a30c5b776ae682daa0383431f64736f6c63430008180033","linkReferences":{}},"methodIdentifiers":{"admin()":"f851a440","erc20Rail()":"492efa76","oracle()":"7dc0d1d0","prepareBound((address,address,address,uint256,bytes),(address,address,address,uint256,bytes),uint256)":"87e32bc4","transferAdmin(address)":"75829def"},"id":74}