{"abi":[{"type":"constructor","inputs":[{"name":"admin","type":"address","internalType":"address"},{"name":"governor","type":"address","internalType":"address"},{"name":"registry_","type":"address","internalType":"address"}],"stateMutability":"nonpayable"},{"type":"function","name":"CONTROLLER_ROLE","inputs":[],"outputs":[{"name":"","type":"bytes32","internalType":"bytes32"}],"stateMutability":"view"},{"type":"function","name":"DEFAULT_ADMIN_ROLE","inputs":[],"outputs":[{"name":"","type":"bytes32","internalType":"bytes32"}],"stateMutability":"view"},{"type":"function","name":"GOVERNOR_ROLE","inputs":[],"outputs":[{"name":"","type":"bytes32","internalType":"bytes32"}],"stateMutability":"view"},{"type":"function","name":"forceRedeem","inputs":[{"name":"orderId","type":"bytes32","internalType":"bytes32"}],"outputs":[],"stateMutability":"nonpayable"},{"type":"function","name":"forceTransfer","inputs":[{"name":"orderId","type":"bytes32","internalType":"bytes32"}],"outputs":[],"stateMutability":"nonpayable"},{"type":"function","name":"getRoleAdmin","inputs":[{"name":"role","type":"bytes32","internalType":"bytes32"}],"outputs":[{"name":"","type":"bytes32","internalType":"bytes32"}],"stateMutability":"view"},{"type":"function","name":"grantController","inputs":[{"name":"who","type":"address","internalType":"address"}],"outputs":[],"stateMutability":"nonpayable"},{"type":"function","name":"grantRole","inputs":[{"name":"role","type":"bytes32","internalType":"bytes32"},{"name":"account","type":"address","internalType":"address"}],"outputs":[],"stateMutability":"nonpayable"},{"type":"function","name":"hasRole","inputs":[{"name":"role","type":"bytes32","internalType":"bytes32"},{"name":"account","type":"address","internalType":"address"}],"outputs":[{"name":"","type":"bool","internalType":"bool"}],"stateMutability":"view"},{"type":"function","name":"registry","inputs":[],"outputs":[{"name":"","type":"address","internalType":"contract ICourtOrderRegistry"}],"stateMutability":"view"},{"type":"function","name":"renounceRole","inputs":[{"name":"role","type":"bytes32","internalType":"bytes32"},{"name":"callerConfirmation","type":"address","internalType":"address"}],"outputs":[],"stateMutability":"nonpayable"},{"type":"function","name":"revokeRole","inputs":[{"name":"role","type":"bytes32","internalType":"bytes32"},{"name":"account","type":"address","internalType":"address"}],"outputs":[],"stateMutability":"nonpayable"},{"type":"function","name":"supportsInterface","inputs":[{"name":"interfaceId","type":"bytes4","internalType":"bytes4"}],"outputs":[{"name":"","type":"bool","internalType":"bool"}],"stateMutability":"view"},{"type":"event","name":"Forced","inputs":[{"name":"token","type":"address","indexed":true,"internalType":"address"},{"name":"from","type":"address","indexed":true,"internalType":"address"},{"name":"to","type":"address","indexed":true,"internalType":"address"},{"name":"amount","type":"uint256","indexed":false,"internalType":"uint256"},{"name":"orderId","type":"bytes32","indexed":false,"internalType":"bytes32"}],"anonymous":false},{"type":"event","name":"ForcedRedeem","inputs":[{"name":"token","type":"address","indexed":true,"internalType":"address"},{"name":"from","type":"address","indexed":true,"internalType":"address"},{"name":"amount","type":"uint256","indexed":false,"internalType":"uint256"},{"name":"orderId","type":"bytes32","indexed":false,"internalType":"bytes32"}],"anonymous":false},{"type":"event","name":"RoleAdminChanged","inputs":[{"name":"role","type":"bytes32","indexed":true,"internalType":"bytes32"},{"name":"previousAdminRole","type":"bytes32","indexed":true,"internalType":"bytes32"},{"name":"newAdminRole","type":"bytes32","indexed":true,"internalType":"bytes32"}],"anonymous":false},{"type":"event","name":"RoleGranted","inputs":[{"name":"role","type":"bytes32","indexed":true,"internalType":"bytes32"},{"name":"account","type":"address","indexed":true,"internalType":"address"},{"name":"sender","type":"address","indexed":true,"internalType":"address"}],"anonymous":false},{"type":"event","name":"RoleRevoked","inputs":[{"name":"role","type":"bytes32","indexed":true,"internalType":"bytes32"},{"name":"account","type":"address","indexed":true,"internalType":"address"},{"name":"sender","type":"address","indexed":true,"internalType":"address"}],"anonymous":false},{"type":"error","name":"AccessControlBadConfirmation","inputs":[]},{"type":"error","name":"AccessControlUnauthorizedAccount","inputs":[{"name":"account","type":"address","internalType":"address"},{"name":"neededRole","type":"bytes32","internalType":"bytes32"}]}],"bytecode":{"object":"0x608034620000b157601f6200145738819003918201601f19168301916001600160401b03831184841017620000b657808492606094604052833981010312620000b157620000806200005182620000cc565b91620000796200007260406200006a60208501620000cc565b9301620000cc565b93620000e1565b5062000161565b50600180546001600160a01b0319166001600160a01b03929092169190911790556040516112339081620002048239f35b600080fd5b634e487b7160e01b600052604160045260246000fd5b51906001600160a01b0382168203620000b157565b6001600160a01b031660008181527fad3228b676f7d3cd4284a5443f17f1962b36e491b30a40b2405849e597ba5fb5602052604081205490919060ff166200015d57818052816020526040822081835260205260408220600160ff198254161790553391600080516020620014378339815191528180a4600190565b5090565b6001600160a01b031660008181527f6f3b488caa0dc03e5f3d9fd6a25fa8755afcfd62ccffb6e436c696bfa6b866de60205260408120549091907f7935bd0ae54bc31f548c14dba4d37c5c64b3f8ca900cb468fb8abd54d5894f559060ff16620001fe57808352826020526040832082845260205260408320600160ff1982541617905560008051602062001437833981519152339380a4600190565b50509056fe608060408181526004908136101561001657600080fd5b600092833560e01c90816301ffc9a714610b3957508063092c5b3b14610ae0578063248a9ca314610a985780632f2ff15d14610a5257806336568abe146109c75780637b1039991461097457806391d1485414610904578063a012025014610836578063a217fddf146107fd578063ae0c6cd8146104bd578063b13dd4561461016e578063ccc57490146101115763d547741f146100b357600080fd5b3461010d57807ffffffffffffffffffffffffffffffffffffffffffffffffffffffffffffffffc36011261010d57610109913561010460016100f3610bf6565b938387528660205286200154610fb4565b61115c565b5080f35b8280fd5b83823461016a57817ffffffffffffffffffffffffffffffffffffffffffffffffffffffffffffffffc36011261016a57602090517f7935bd0ae54bc31f548c14dba4d37c5c64b3f8ca900cb468fb8abd54d5894f558152f35b5080fd5b503461010d57602091827ffffffffffffffffffffffffffffffffffffffffffffffffffffffffffffffffc3601126103a5578035916101ab610f21565b73ffffffffffffffffffffffffffffffffffffffff938460015416938251957f9c3f1e90000000000000000000000000000000000000000000000000000000008752818588015260249588888881845afa97881561048b578998610495575b508387918651928380927f5c36901c000000000000000000000000000000000000000000000000000000008252878b8301525afa801561048b578990610451575b6102559150610e79565b606087015185811015610426576003036103cb5787848801958287511697858a019860a0858b51169b019a8b5191895190888a83015289825261029782610c61565b803b156103c7576102ea938780948d51968795869485937f77ead3090000000000000000000000000000000000000000000000000000000085528c8501528a840152606060448401526064830190610ede565b03925af180156103bd579084916103a9575b5050836001541691823b156103a55783918691838a5195869485937f665d4c610000000000000000000000000000000000000000000000000000000085528401525af1801561039b57610383575b5050807f9f463f29f70dc5f0397f258421c044fdfa7984f81cfa3dca939f6c57762e9c339551169551169551918351928352820152a380f35b61038c90610c1e565b61039757873861034a565b8780fd5b86513d84823e3d90fd5b8380fd5b6103b290610c1e565b61010d5782386102fc565b88513d86823e3d90fd5b8680fd5b606485600a88868851937f08c379a00000000000000000000000000000000000000000000000000000000085528401528201527f6e6f742072656465656d000000000000000000000000000000000000000000006044820152fd5b86896021887f4e487b7100000000000000000000000000000000000000000000000000000000835252fd5b508381813d8311610484575b6104678183610c7d565b810103126104805761047b61025591610cf4565b61024b565b8880fd5b503d61045d565b85513d8b823e3d90fd5b879198506104b585913d808d833e6104ad8183610c7d565b810190610d24565b98915061020a565b503461010d576020807ffffffffffffffffffffffffffffffffffffffffffffffffffffffffffffffffc3601126103a5578235916104f9610f21565b73ffffffffffffffffffffffffffffffffffffffff908160015416928151947f9c3f1e90000000000000000000000000000000000000000000000000000000008652808787015260249488878781845afa9687156107d35789976107dd575b508286918551928380927f5c36901c000000000000000000000000000000000000000000000000000000008252868d8301525afa80156107d357899061079d575b6105a39150610e79565b606086015187811015610772576002036107175782860193808551169783880196828851168b60808b019a60a0868d511691019c8d51918a5194898b8701528a86526105ee86610c61565b823b156107135784906106448d51978896879586947f2dc990dd0000000000000000000000000000000000000000000000000000000086528d8601528b8501526044840152608060648401526084830190610ede565b03925af18015610709576106f4575b50908a91836001541691823b156103a55783918691838a5195869485937f665d4c610000000000000000000000000000000000000000000000000000000085528401525af1801561039b576106e0575b505080807f250d45c6913d2ed3cebbd9f2f1ed34ea201e8675bfcd0765d850d9ef940b31da9651169651169651169651918351928352820152a480f35b6106e990610c1e565b6104805788386106a3565b610701909b91929b610c1e565b999038610653565b87513d8e823e3d90fd5b8480fd5b606487600c87858751937f08c379a00000000000000000000000000000000000000000000000000000000085528401528201527f6e6f74207472616e7366657200000000000000000000000000000000000000006044820152fd5b858960218a7f4e487b7100000000000000000000000000000000000000000000000000000000835252fd5b508281813d83116107cc575b6107b38183610c7d565b81010312610480576107c76105a391610cf4565b610599565b503d6107a9565b84513d8b823e3d90fd5b869197506107f584913d808d833e6104ad8183610c7d565b979150610558565b83823461016a57817ffffffffffffffffffffffffffffffffffffffffffffffffffffffffffffffffc36011261016a5751908152602090f35b50903461010d5760207ffffffffffffffffffffffffffffffffffffffffffffffffffffffffffffffffc36011261010d5780359173ffffffffffffffffffffffffffffffffffffffff831683036103a5577f7935bd0ae54bc31f548c14dba4d37c5c64b3f8ca900cb468fb8abd54d5894f55908185528460205280852033865260205260ff8186205416156108cf578461010985610fda565b6044935051917fe2517d3f00000000000000000000000000000000000000000000000000000000835233908301526024820152fd5b50903461010d57817ffffffffffffffffffffffffffffffffffffffffffffffffffffffffffffffffc36011261010d578160209360ff92610943610bf6565b9035825281865273ffffffffffffffffffffffffffffffffffffffff83832091168252855220541690519015158152f35b83823461016a57817ffffffffffffffffffffffffffffffffffffffffffffffffffffffffffffffffc36011261016a5760209073ffffffffffffffffffffffffffffffffffffffff600154169051908152f35b5082903461016a57807ffffffffffffffffffffffffffffffffffffffffffffffffffffffffffffffffc36011261016a57610a00610bf6565b903373ffffffffffffffffffffffffffffffffffffffff831603610a2a575061010991923561115c565b8390517f6697b232000000000000000000000000000000000000000000000000000000008152fd5b503461010d57807ffffffffffffffffffffffffffffffffffffffffffffffffffffffffffffffffc36011261010d576101099135610a9360016100f3610bf6565b6110b7565b50903461010d5760207ffffffffffffffffffffffffffffffffffffffffffffffffffffffffffffffffc36011261010d57816020936001923581528085522001549051908152f35b83823461016a57817ffffffffffffffffffffffffffffffffffffffffffffffffffffffffffffffffc36011261016a57602090517f7b765e0e932d348852a6f810bfa1ab891e259123f02db8cdcde614c5702233578152f35b8490843461010d5760207ffffffffffffffffffffffffffffffffffffffffffffffffffffffffffffffffc36011261010d57357fffffffff00000000000000000000000000000000000000000000000000000000811680910361010d57602092507f7965db0b000000000000000000000000000000000000000000000000000000008114908115610bcc575b5015158152f35b7f01ffc9a70000000000000000000000000000000000000000000000000000000091501483610bc5565b6024359073ffffffffffffffffffffffffffffffffffffffff82168203610c1957565b600080fd5b67ffffffffffffffff8111610c3257604052565b7f4e487b7100000000000000000000000000000000000000000000000000000000600052604160045260246000fd5b6040810190811067ffffffffffffffff821117610c3257604052565b90601f7fffffffffffffffffffffffffffffffffffffffffffffffffffffffffffffffe0910116810190811067ffffffffffffffff821117610c3257604052565b519073ffffffffffffffffffffffffffffffffffffffff82168203610c1957565b519067ffffffffffffffff82168203610c1957565b51908115158203610c1957565b60005b838110610d145750506000910152565b8181015183820152602001610d04565b9060208083830312610c1957825167ffffffffffffffff93848211610c19570190610160938483850312610c195760405194850185811082821117610c325760405282518552610d75828401610cbe565b82860152610d8560408401610cbe565b604086015260608301516004811015610c19576060860152610da960808401610cbe565b608086015260a083015160a0860152610dc460c08401610cdf565b60c0860152610dd560e08401610cdf565b60e0860152610100610de8818501610cf4565b90860152610120610dfa818501610cf4565b90860152610140928381015190828211610c19570184601f82011215610c19578051918211610c325760405194610e58847fffffffffffffffffffffffffffffffffffffffffffffffffffffffffffffffe0601f8601160187610c7d565b828652838383010111610c195782610e739386019101610d01565b82015290565b15610e8057565b60646040517f08c379a000000000000000000000000000000000000000000000000000000000815260206004820152600860248201527f696e6163746976650000000000000000000000000000000000000000000000006044820152fd5b907fffffffffffffffffffffffffffffffffffffffffffffffffffffffffffffffe0601f602093610f1a81518092818752878088019101610d01565b0116010190565b3360009081527fd4b1ef424fcb83dce82b8e6790fbd9bbcd76978bd34427cec18daa7ab216754360205260409020547f7b765e0e932d348852a6f810bfa1ab891e259123f02db8cdcde614c5702233579060ff1615610f7d5750565b604490604051907fe2517d3f0000000000000000000000000000000000000000000000000000000082523360048301526024820152fd5b80600052600060205260406000203360005260205260ff6040600020541615610f7d5750565b73ffffffffffffffffffffffffffffffffffffffff1660008181527fd4b1ef424fcb83dce82b8e6790fbd9bbcd76978bd34427cec18daa7ab216754360205260408120549091907f7b765e0e932d348852a6f810bfa1ab891e259123f02db8cdcde614c5702233579060ff166110b25780835282602052604083208284526020526040832060017fffffffffffffffffffffffffffffffffffffffffffffffffffffffffffffff008254161790557f2f8788117e7eff1d82e926ec794901d17c78024a50270940304540a733656f0d339380a4600190565b505090565b906000918083528260205273ffffffffffffffffffffffffffffffffffffffff6040842092169182845260205260ff604084205416156000146110b25780835282602052604083208284526020526040832060017fffffffffffffffffffffffffffffffffffffffffffffffffffffffffffffff008254161790557f2f8788117e7eff1d82e926ec794901d17c78024a50270940304540a733656f0d339380a4600190565b906000918083528260205273ffffffffffffffffffffffffffffffffffffffff6040842092169182845260205260ff6040842054166000146110b2578083528260205260408320828452602052604083207fffffffffffffffffffffffffffffffffffffffffffffffffffffffffffffff0081541690557ff6391f5c32d9c69d2a47ea670b442974b53935d1edc7fd64eb21e047a839171b339380a460019056fea26469706673582212204f06ab92b7c2017897e293141bc42cf16053c578fc405fea69cd2207a99432eb64736f6c634300081800332f8788117e7eff1d82e926ec794901d17c78024a50270940304540a733656f0d","linkReferences":{}},"methodIdentifiers":{"CONTROLLER_ROLE()":"092c5b3b","DEFAULT_ADMIN_ROLE()":"a217fddf","GOVERNOR_ROLE()":"ccc57490","forceRedeem(bytes32)":"b13dd456","forceTransfer(bytes32)":"ae0c6cd8","getRoleAdmin(bytes32)":"248a9ca3","grantController(address)":"a0120250","grantRole(bytes32,address)":"2f2ff15d","hasRole(bytes32,address)":"91d14854","registry()":"7b103999","renounceRole(bytes32,address)":"36568abe","revokeRole(bytes32,address)":"d547741f","supportsInterface(bytes4)":"01ffc9a7"},"id":22}