{
  "_format": "hh-sol-artifact-1",
  "contractName": "BankAccountProofOracle",
  "sourceName": "contracts/oracle/BankAccountProofOracle.sol",
  "abi": [
    {
      "inputs": [
        {
          "internalType": "address",
          "name": "admin",
          "type": "address"
        }
      ],
      "stateMutability": "nonpayable",
      "type": "constructor"
    },
    {
      "inputs": [],
      "name": "AccessControlBadConfirmation",
      "type": "error"
    },
    {
      "inputs": [
        {
          "internalType": "address",
          "name": "account",
          "type": "address"
        },
        {
          "internalType": "bytes32",
          "name": "neededRole",
          "type": "bytes32"
        }
      ],
      "name": "AccessControlUnauthorizedAccount",
      "type": "error"
    },
    {
      "inputs": [],
      "name": "ECDSAInvalidSignature",
      "type": "error"
    },
    {
      "inputs": [
        {
          "internalType": "uint256",
          "name": "length",
          "type": "uint256"
        }
      ],
      "name": "ECDSAInvalidSignatureLength",
      "type": "error"
    },
    {
      "inputs": [
        {
          "internalType": "bytes32",
          "name": "s",
          "type": "bytes32"
        }
      ],
      "name": "ECDSAInvalidSignatureS",
      "type": "error"
    },
    {
      "inputs": [],
      "name": "InvalidShortString",
      "type": "error"
    },
    {
      "inputs": [
        {
          "internalType": "string",
          "name": "str",
          "type": "string"
        }
      ],
      "name": "StringTooLong",
      "type": "error"
    },
    {
      "anonymous": false,
      "inputs": [],
      "name": "EIP712DomainChanged",
      "type": "event"
    },
    {
      "anonymous": false,
      "inputs": [
        {
          "indexed": true,
          "internalType": "uint256",
          "name": "id",
          "type": "uint256"
        }
      ],
      "name": "ProofRevoked",
      "type": "event"
    },
    {
      "anonymous": false,
      "inputs": [
        {
          "indexed": true,
          "internalType": "uint256",
          "name": "id",
          "type": "uint256"
        },
        {
          "indexed": false,
          "internalType": "string",
          "name": "bankName",
          "type": "string"
        },
        {
          "indexed": false,
          "internalType": "string",
          "name": "accountRef",
          "type": "string"
        },
        {
          "indexed": false,
          "internalType": "string",
          "name": "ccy",
          "type": "string"
        },
        {
          "indexed": false,
          "internalType": "uint256",
          "name": "closingBalanceMinor",
          "type": "uint256"
        },
        {
          "indexed": true,
          "internalType": "address",
          "name": "signer",
          "type": "address"
        },
        {
          "indexed": false,
          "internalType": "bytes32",
          "name": "docHash",
          "type": "bytes32"
        },
        {
          "indexed": false,
          "internalType": "string",
          "name": "docURI",
          "type": "string"
        }
      ],
      "name": "ProofSubmitted",
      "type": "event"
    },
    {
      "anonymous": false,
      "inputs": [
        {
          "indexed": true,
          "internalType": "bytes32",
          "name": "role",
          "type": "bytes32"
        },
        {
          "indexed": true,
          "internalType": "bytes32",
          "name": "previousAdminRole",
          "type": "bytes32"
        },
        {
          "indexed": true,
          "internalType": "bytes32",
          "name": "newAdminRole",
          "type": "bytes32"
        }
      ],
      "name": "RoleAdminChanged",
      "type": "event"
    },
    {
      "anonymous": false,
      "inputs": [
        {
          "indexed": true,
          "internalType": "bytes32",
          "name": "role",
          "type": "bytes32"
        },
        {
          "indexed": true,
          "internalType": "address",
          "name": "account",
          "type": "address"
        },
        {
          "indexed": true,
          "internalType": "address",
          "name": "sender",
          "type": "address"
        }
      ],
      "name": "RoleGranted",
      "type": "event"
    },
    {
      "anonymous": false,
      "inputs": [
        {
          "indexed": true,
          "internalType": "bytes32",
          "name": "role",
          "type": "bytes32"
        },
        {
          "indexed": true,
          "internalType": "address",
          "name": "account",
          "type": "address"
        },
        {
          "indexed": true,
          "internalType": "address",
          "name": "sender",
          "type": "address"
        }
      ],
      "name": "RoleRevoked",
      "type": "event"
    },
    {
      "anonymous": false,
      "inputs": [
        {
          "indexed": true,
          "internalType": "address",
          "name": "signer",
          "type": "address"
        },
        {
          "indexed": false,
          "internalType": "bool",
          "name": "allowed",
          "type": "bool"
        }
      ],
      "name": "SignerSet",
      "type": "event"
    },
    {
      "inputs": [],
      "name": "DEFAULT_ADMIN_ROLE",
      "outputs": [
        {
          "internalType": "bytes32",
          "name": "",
          "type": "bytes32"
        }
      ],
      "stateMutability": "view",
      "type": "function"
    },
    {
      "inputs": [],
      "name": "ROLE_ADMIN",
      "outputs": [
        {
          "internalType": "bytes32",
          "name": "",
          "type": "bytes32"
        }
      ],
      "stateMutability": "view",
      "type": "function"
    },
    {
      "inputs": [],
      "name": "ROLE_PUBLISHER",
      "outputs": [
        {
          "internalType": "bytes32",
          "name": "",
          "type": "bytes32"
        }
      ],
      "stateMutability": "view",
      "type": "function"
    },
    {
      "inputs": [],
      "name": "ROLE_SIGNER",
      "outputs": [
        {
          "internalType": "bytes32",
          "name": "",
          "type": "bytes32"
        }
      ],
      "stateMutability": "view",
      "type": "function"
    },
    {
      "inputs": [],
      "name": "eip712Domain",
      "outputs": [
        {
          "internalType": "bytes1",
          "name": "fields",
          "type": "bytes1"
        },
        {
          "internalType": "string",
          "name": "name",
          "type": "string"
        },
        {
          "internalType": "string",
          "name": "version",
          "type": "string"
        },
        {
          "internalType": "uint256",
          "name": "chainId",
          "type": "uint256"
        },
        {
          "internalType": "address",
          "name": "verifyingContract",
          "type": "address"
        },
        {
          "internalType": "bytes32",
          "name": "salt",
          "type": "bytes32"
        },
        {
          "internalType": "uint256[]",
          "name": "extensions",
          "type": "uint256[]"
        }
      ],
      "stateMutability": "view",
      "type": "function"
    },
    {
      "inputs": [
        {
          "internalType": "bytes32",
          "name": "role",
          "type": "bytes32"
        }
      ],
      "name": "getRoleAdmin",
      "outputs": [
        {
          "internalType": "bytes32",
          "name": "",
          "type": "bytes32"
        }
      ],
      "stateMutability": "view",
      "type": "function"
    },
    {
      "inputs": [
        {
          "internalType": "bytes32",
          "name": "role",
          "type": "bytes32"
        },
        {
          "internalType": "address",
          "name": "account",
          "type": "address"
        }
      ],
      "name": "grantRole",
      "outputs": [],
      "stateMutability": "nonpayable",
      "type": "function"
    },
    {
      "inputs": [
        {
          "internalType": "bytes32",
          "name": "role",
          "type": "bytes32"
        },
        {
          "internalType": "address",
          "name": "account",
          "type": "address"
        }
      ],
      "name": "hasRole",
      "outputs": [
        {
          "internalType": "bool",
          "name": "",
          "type": "bool"
        }
      ],
      "stateMutability": "view",
      "type": "function"
    },
    {
      "inputs": [],
      "name": "lastId",
      "outputs": [
        {
          "internalType": "uint256",
          "name": "",
          "type": "uint256"
        }
      ],
      "stateMutability": "view",
      "type": "function"
    },
    {
      "inputs": [
        {
          "internalType": "string",
          "name": "accountRef",
          "type": "string"
        },
        {
          "internalType": "uint64",
          "name": "statementDate",
          "type": "uint64"
        }
      ],
      "name": "latestFor",
      "outputs": [
        {
          "internalType": "uint256",
          "name": "id",
          "type": "uint256"
        },
        {
          "components": [
            {
              "internalType": "string",
              "name": "bankName",
              "type": "string"
            },
            {
              "internalType": "string",
              "name": "accountRef",
              "type": "string"
            },
            {
              "internalType": "string",
              "name": "ccy",
              "type": "string"
            },
            {
              "internalType": "uint64",
              "name": "statementDate",
              "type": "uint64"
            },
            {
              "internalType": "uint64",
              "name": "asOf",
              "type": "uint64"
            },
            {
              "internalType": "uint256",
              "name": "closingBalanceMinor",
              "type": "uint256"
            },
            {
              "internalType": "bytes32",
              "name": "docHash",
              "type": "bytes32"
            },
            {
              "internalType": "string",
              "name": "docURI",
              "type": "string"
            },
            {
              "internalType": "address",
              "name": "signer",
              "type": "address"
            },
            {
              "internalType": "bool",
              "name": "revoked",
              "type": "bool"
            },
            {
              "internalType": "uint64",
              "name": "createdAt",
              "type": "uint64"
            }
          ],
          "internalType": "struct BankAccountProofOracle.Proof",
          "name": "p",
          "type": "tuple"
        }
      ],
      "stateMutability": "view",
      "type": "function"
    },
    {
      "inputs": [
        {
          "internalType": "bytes32",
          "name": "",
          "type": "bytes32"
        }
      ],
      "name": "latestVersionId",
      "outputs": [
        {
          "internalType": "uint256",
          "name": "",
          "type": "uint256"
        }
      ],
      "stateMutability": "view",
      "type": "function"
    },
    {
      "inputs": [
        {
          "internalType": "uint256",
          "name": "",
          "type": "uint256"
        }
      ],
      "name": "proofs",
      "outputs": [
        {
          "internalType": "string",
          "name": "bankName",
          "type": "string"
        },
        {
          "internalType": "string",
          "name": "accountRef",
          "type": "string"
        },
        {
          "internalType": "string",
          "name": "ccy",
          "type": "string"
        },
        {
          "internalType": "uint64",
          "name": "statementDate",
          "type": "uint64"
        },
        {
          "internalType": "uint64",
          "name": "asOf",
          "type": "uint64"
        },
        {
          "internalType": "uint256",
          "name": "closingBalanceMinor",
          "type": "uint256"
        },
        {
          "internalType": "bytes32",
          "name": "docHash",
          "type": "bytes32"
        },
        {
          "internalType": "string",
          "name": "docURI",
          "type": "string"
        },
        {
          "internalType": "address",
          "name": "signer",
          "type": "address"
        },
        {
          "internalType": "bool",
          "name": "revoked",
          "type": "bool"
        },
        {
          "internalType": "uint64",
          "name": "createdAt",
          "type": "uint64"
        }
      ],
      "stateMutability": "view",
      "type": "function"
    },
    {
      "inputs": [
        {
          "internalType": "bytes32",
          "name": "role",
          "type": "bytes32"
        },
        {
          "internalType": "address",
          "name": "callerConfirmation",
          "type": "address"
        }
      ],
      "name": "renounceRole",
      "outputs": [],
      "stateMutability": "nonpayable",
      "type": "function"
    },
    {
      "inputs": [
        {
          "internalType": "uint256",
          "name": "id",
          "type": "uint256"
        }
      ],
      "name": "revoke",
      "outputs": [],
      "stateMutability": "nonpayable",
      "type": "function"
    },
    {
      "inputs": [
        {
          "internalType": "bytes32",
          "name": "role",
          "type": "bytes32"
        },
        {
          "internalType": "address",
          "name": "account",
          "type": "address"
        }
      ],
      "name": "revokeRole",
      "outputs": [],
      "stateMutability": "nonpayable",
      "type": "function"
    },
    {
      "inputs": [
        {
          "internalType": "address",
          "name": "s",
          "type": "address"
        },
        {
          "internalType": "bool",
          "name": "allowed",
          "type": "bool"
        }
      ],
      "name": "setSigner",
      "outputs": [],
      "stateMutability": "nonpayable",
      "type": "function"
    },
    {
      "inputs": [
        {
          "internalType": "string",
          "name": "bankName",
          "type": "string"
        },
        {
          "internalType": "string",
          "name": "accountRef",
          "type": "string"
        },
        {
          "internalType": "string",
          "name": "ccy",
          "type": "string"
        },
        {
          "internalType": "uint64",
          "name": "statementDate",
          "type": "uint64"
        },
        {
          "internalType": "uint64",
          "name": "asOf",
          "type": "uint64"
        },
        {
          "internalType": "uint256",
          "name": "closingBalanceMinor",
          "type": "uint256"
        },
        {
          "internalType": "bytes32",
          "name": "docHash",
          "type": "bytes32"
        },
        {
          "internalType": "string",
          "name": "docURI",
          "type": "string"
        },
        {
          "internalType": "bytes",
          "name": "signature",
          "type": "bytes"
        }
      ],
      "name": "submitProof",
      "outputs": [
        {
          "internalType": "uint256",
          "name": "id",
          "type": "uint256"
        }
      ],
      "stateMutability": "nonpayable",
      "type": "function"
    },
    {
      "inputs": [
        {
          "internalType": "bytes4",
          "name": "interfaceId",
          "type": "bytes4"
        }
      ],
      "name": "supportsInterface",
      "outputs": [
        {
          "internalType": "bool",
          "name": "",
          "type": "bool"
        }
      ],
      "stateMutability": "view",
      "type": "function"
    }
  ],
  "bytecode": "0x61016034620001d157601f6200250b38819003918201601f19168301926001600160401b0392909183851183861017620001bb578160209284926040978852833981010312620001d15751916001600160a01b0383168303620001d1578051906200006a82620001d6565b6016825260208201927f42616e6b4163636f756e7450726f6f664f7261636c65000000000000000000008452815194620000a486620001d6565b6001865260208601603160f81b8152620000be85620003ce565b95610120968752620000d088620005a5565b95610140968752519020968760e05251902095610100968088524660a05284519060208201927f8b73c3c69bb8fe3d512ecc4cf759cc79239f7b179b0ffacaa9a75d522b39400f84528683015260608201524660808201523060a082015260a0815260c081019381851090851117620001bb57620001729385525190206080523060c0526200015f81620001f2565b506200016b8162000294565b5062000331565b505191611d8d93846200075e853960805184611bd6015260a05184611ca1015260c05184611ba7015260e05184611c2501525183611c4b015251826103b5015251816103de0152f35b634e487b7160e01b600052604160045260246000fd5b600080fd5b604081019081106001600160401b03821117620001bb57604052565b6001600160a01b031660008181527ff2d002f32e1e256ea1e928747b1832023316be30886ca415b888f7c67dd776c360205260408120549091907f2172861495e7b85edac73e3cd5fbb42dd675baadf627720e687bcfdaca0250969060ff166200028f57808352826020526040832082845260205260408320600160ff19825416179055600080516020620024eb833981519152339380a4600190565b505090565b6001600160a01b031660008181527f196a0959de6d1a45b805591b8abbc43254e0ebb2b662175b4ff4978c0490a81f60205260408120549091907f318ca041382154243e5407309a15dc38a2622542637083fb3fe687f1e73186a29060ff166200028f57808352826020526040832082845260205260408320600160ff19825416179055600080516020620024eb833981519152339380a4600190565b6001600160a01b031660008181527f275f3c6fe151dd759af4c3c0c738e1302bb73c2037172a2864846fc1df736cb660205260408120549091907f749410edf1177aefa27612b24d2d51e6441f89613f5ddf9be1d11dfc0d3e4fea9060ff166200028f57808352826020526040832082845260205260408320600160ff19825416179055600080516020620024eb833981519152339380a4600190565b8051602090818110156200046b5750601f8251116200040a5780825192015190808310620003fb57501790565b82600019910360031b1b161790565b90604051809263305a27a960e01b82528060048301528251908160248401526000935b82851062000451575050604492506000838284010152601f80199101168101030190fd5b84810182015186860160440152938101938593506200042d565b9192916001600160401b038111620001bb5760019182548381811c911680156200059a575b828210146200058457601f81116200054b575b5080601f8311600114620004e3575081929394600092620004d7575b5050600019600383901b1c191690821b17905560ff90565b015190503880620004bf565b90601f198316958460005282600020926000905b88821062000533575050838596971062000519575b505050811b01905560ff90565b015160001960f88460031b161c191690553880806200050c565b808785968294968601518155019501930190620004f7565b8360005283601f83600020920160051c820191601f850160051c015b82811062000577575050620004a3565b6000815501849062000567565b634e487b7160e01b600052602260045260246000fd5b90607f169062000490565b805160209081811015620006335750601f825111620005d25780825192015190808310620003fb57501790565b90604051809263305a27a960e01b82528060048301528251908160248401526000935b82851062000619575050604492506000838284010152601f80199101168101030190fd5b8481018201518686016044015293810193859350620005f5565b906001600160401b038211620001bb57600254926001938481811c9116801562000752575b838210146200058457601f811162000718575b5081601f8411600114620006ac5750928293918392600094620006a0575b50501b916000199060031b1c19161760025560ff90565b01519250388062000689565b919083601f198116600260005284600020946000905b88838310620006fd5750505010620006e3575b505050811b0160025560ff90565b015160001960f88460031b161c19169055388080620006d5565b858701518855909601959485019487935090810190620006c2565b600260005284601f84600020920160051c820191601f860160051c015b828110620007455750506200066b565b6000815501859062000735565b90607f16906200065856fe60a080604052600436101561001357600080fd5b60003560e01c90816301ffc9a71461139b5750806320c5429b146112e6578063248a9ca3146112b75780632f2ff15d146112785780633036a7d11461124c57806331cb6105146111c457806336568abe1461117d57806336e71a02146107475780637c21edf1146104bf57806384b0196e1461039f57806391d14854146103515780639ddaf5aa14610216578063a217fddf146101fa578063ab80e2b3146101bf578063af2371e314610184578063c1292cc314610166578063d391014b1461012b5763d547741f146100e557600080fd5b34610126576040366003190112610126576101246004356101046113ee565b9080600052600060205261011f6001604060002001546116a4565b6118a1565b005b600080fd5b346101265760003660031901126101265760206040517f2172861495e7b85edac73e3cd5fbb42dd675baadf627720e687bcfdaca0250968152f35b34610126576000366003190112610126576020600554604051908152f35b346101265760003660031901126101265760206040517f749410edf1177aefa27612b24d2d51e6441f89613f5ddf9be1d11dfc0d3e4fea8152f35b346101265760003660031901126101265760206040517f318ca041382154243e5407309a15dc38a2622542637083fb3fe687f1e73186a28152f35b3461012657600036600319011261012657602060405160008152f35b346101265760203660031901126101265760043560005260046020526102de6040600020604051906102538261024c81846114ab565b0383611578565b604051906102688261024c81600185016114ab565b610323604051916102878361028081600285016114ab565b0384611578565b6003810154906001600160401b03936004820154856102fa6005850154936102ec6007604051976102c6896102bf81600685016114ab565b038a611578565b01549a6040519d8e9d8e610160908181520190611431565b8d810360208f015290611431565b908b820360408d0152611431565b9481811660608b015260401c16608089015260a088015260c087015285820360e0870152611431565b916001600160a01b03811661010085015260ff8160a01c16151561012085015260a81c166101408301520390f35b346101265760403660031901126101265761036a6113ee565b60043560005260006020526001600160a01b0360406000209116600052602052602060ff604060002054166040519015158152f35b34610126576000366003190112610126576103d97f00000000000000000000000000000000000000000000000000000000000000006119d8565b6104027f0000000000000000000000000000000000000000000000000000000000000000611add565b6040516020808201928284106001600160401b038511176104a95791602061045c859461044e979660405260008452604051978897600f60f81b895260e0858a015260e0890190611431565b908782036040890152611431565b91466060870152306080870152600060a087015285830360c0870152519182815201929160005b82811061049257505050500390f35b835185528695509381019392810192600101610483565b634e487b7160e01b600052604160045260246000fd5b34610126576040366003190112610126576004356001600160401b038111610126576104ef903690600401611404565b602435906001600160401b03821682036101265761057b90600061014060405161051881611541565b6060815260606020820152606060408201528260608201528260808201528260a08201528260c0820152606060e08201528261010082015282610120820152015261056d6040519384926020840196876115df565b03601f198101835282611578565b51902060005260036020526040600020548060005260046020526040600020906001600160401b036007604051936105b285611541565b6040516105ca816105c381856114ab565b0382611578565b85526040516105e0816105c381600186016114ab565b60208601526040516105f9816105c381600286016114ab565b6040860152826003820154818116606088015260401c166080860152600481015460a0860152600581015460c086015260405161063d816105c381600686016114ab565b60e086015201546001600160a01b03811661010085015260ff8160a01c16151561012085015260a81c166101408301526040519182918252604060208301526001600160401b036101406107186106a2845161016060408801526101a0870190611431565b6106d56106c1602087015192603f1993848a83030160608b0152611431565b6040870151838983030160808a0152611431565b908460608701511660a08801528460808701511660c088015260a086015160e088015260c086015161010088015260e08601519087830301610120880152611431565b926001600160a01b03610100820151168286015261012081015115156101608601520151166101808301520390f35b3461012657610120366003190112610126576004356001600160401b03811161012657610778903690600401611404565b906024356001600160401b03811161012657610798903690600401611404565b9190926044356001600160401b038111610126576107ba903690600401611404565b906001600160401b03606435166064350361012657608435916001600160401b0383168303610126576001600160401b0360e43511610126576108023660e435600401611404565b979096610104356001600160401b03811161012657610825903690600401611404565b3360009081527f196a0959de6d1a45b805591b8abbc43254e0ebb2b662175b4ff4978c0490a81f60205260409020549096919060ff161561113f5761086b36898b611599565b968b610878368688611599565b986108908d610888368b8d611599565b933691611599565b9060208151910120996020815191012091602081519101209060208151910120916040519a7fcd23231a63aced3ecbe818d8242545fe133a056a922963093f8d4b000252c5ee60208d015260408c015260608b015260808a01526001600160401b036064351660a08a01526001600160401b03841660c08a015260a43560e08a015260c4356101008a01526101208901526101208852876101408101106001600160401b036101408a0111176104a95761098461098a9260428a6101406109939c0160405260208151910120610964611b9d565b906040519161190160f01b83526002830152602282015220923691611599565b90611917565b90979197611953565b6001600160a01b03861660009081527f275f3c6fe151dd759af4c3c0c738e1302bb73c2037172a2864846fc1df736cb6602052604090205460ff16156110fa576005546080819052600019146110e4576001608051016005556001600160401b0360405191610a0183611541565b610a0c368a8c611599565b8352610a19368587611599565b6020840152610a29368789611599565b60408401528160643516606084015216608082015260a43560a082015260c43560c0820152610a59368b8b611599565b60e08201526001600160a01b03861661010082015260006101208201526001600160401b0342166101408201526001608051016000526004602052604060002081518051906001600160401b0382116104a9578190610ab88454611471565b601f8111611094575b50602090601f83116001146110285760009261101d575b50508160011b916000199060031b1c19161781555b60208201518051906001600160401b0382116104a9578190610b126001850154611471565b601f8111610fca575b50602090601f8311600114610f5857600092610f4d575b50508160011b916000199060031b1c19161760018201555b60408201518051906001600160401b0382116104a9578190610b6f6002850154611471565b601f8111610efa575b50602090601f8311600114610e8857600092610e7d575b50508160011b916000199060031b1c19161760028201555b600381016001600160401b036060840151168154906fffffffffffffffff0000000000000000608086015160401b16916fffffffffffffffffffffffffffffffff19161717905560a0820151600482015560c0820151600582015560e08201518051906001600160401b0382116104a957610c256006840154611471565b601f8111610e36575b50602090601f8311600114610d895794610d6c989460077f9f8474c51db90f366345b4ae5e1c84290cacdad4e80b129c9bb4143fad0eaf799d9c9b999585610d37966001600160a01b039b96610d459b600092610d7e575b50508160011b916000199060031b1c19161760068201555b019088610100820151169082549160ff60a01b610120830151151560a01b16916101406001600160401b0360a81b91015160a81b169262ffffff60e81b1617171790556040516020810190610cfb8161056d6064358688876115df565b5190206000526003602052600160805101604060002055610d296040519b8c9b60c08d5260c08d0191611609565b918a830360208c0152611609565b918783036040890152611609565b9160a435606086015260c435608086015284830360a0860152169660016080510196611609565b0390a360206040516001608051018152f35b015190503880610c86565b906006840160005260206000209160005b601f1985168110610e1e57509460077f9f8474c51db90f366345b4ae5e1c84290cacdad4e80b129c9bb4143fad0eaf799d9c9b99956001866001600160a01b039b96610d459b96610d6c9f9b610d379a601f19811610610e05575b505050811b016006820155610c9e565b015160001960f88460031b161c19169055388080610df5565b91926020600181928685015181550194019201610d9a565b600684016000526020600020601f840160051c810160208510610e76575b601f830160051c82018110610e6a575050610c2e565b60008155600101610e54565b5080610e54565b015190508d80610b8f565b9250600284016000526020600020906000935b601f1984168510610edf576001945083601f19811610610ec6575b505050811b016002820155610ba7565b015160001960f88460031b161c191690558d8080610eb6565b81810151835560209485019460019093019290910190610e9b565b909150600284016000526020600020601f840160051c810160208510610f46575b90849392915b601f830160051c82018110610f37575050610b78565b60008155859450600101610f21565b5080610f1b565b015190508d80610b32565b9250600184016000526020600020906000935b601f1984168510610faf576001945083601f19811610610f96575b505050811b016001820155610b4a565b015160001960f88460031b161c191690558d8080610f86565b81810151835560209485019460019093019290910190610f6b565b909150600184016000526020600020601f840160051c810160208510611016575b90849392915b601f830160051c82018110611007575050610b1b565b60008155859450600101610ff1565b5080610feb565b015190508d80610ad8565b9250836000526020600020906000935b601f1984168510611079576001945083601f19811610611060575b505050811b018155610aed565b015160001960f88460031b161c191690558d8080611053565b81810151835560209485019460019093019290910190611038565b909150836000526020600020601f840160051c8101602085106110dd575b90849392915b601f830160051c820181106110ce575050610ac1565b600081558594506001016110b8565b50806110b2565b634e487b7160e01b600052601160045260246000fd5b60405162461bcd60e51b815260206004820152601360248201527f756e617574686f72697a6564207369676e6572000000000000000000000000006044820152606490fd5b60405163e2517d3f60e01b81523360048201527f318ca041382154243e5407309a15dc38a2622542637083fb3fe687f1e73186a26024820152604490fd5b34610126576040366003190112610126576111966113ee565b336001600160a01b038216036111b257610124906004356118a1565b60405163334bd91960e11b8152600490fd5b34610126576040366003190112610126576004356001600160a01b0381169081810361012657602435801515808203610126577ffc4acb499491cd850a8a21ab98c7f128850c0f0e5f1a875a62b7fa055c2ecf199260209261122461162a565b1561123d57611232906116ca565b505b604051908152a2005b611246906117f6565b50611234565b346101265760203660031901126101265760043560005260036020526020604060002054604051908152f35b34610126576040366003190112610126576101246004356112976113ee565b908060005260006020526112b26001604060002001546116a4565b61177c565b346101265760203660031901126101265760043560005260006020526020600160406000200154604051908152f35b346101265760203660031901126101265760043561130261162a565b8060005260046020526007604060002001805460ff8160a01c166113565760ff60a01b1916600160a01b1790557f05ab9739647efc0db15a5c7a6c52b7d428fcb1aa37e3eff425ba5b638836c967600080a2005b60405162461bcd60e51b815260206004820152600f60248201527f616c7265616479207265766f6b656400000000000000000000000000000000006044820152606490fd5b34610126576020366003190112610126576004359063ffffffff60e01b821680920361012657602091637965db0b60e01b81149081156113dd575b5015158152f35b6301ffc9a760e01b149050836113d6565b602435906001600160a01b038216820361012657565b9181601f84011215610126578235916001600160401b038311610126576020838186019501011161012657565b919082519283825260005b84811061145d575050826000602080949584010152601f8019910116010190565b60208183018101518483018201520161143c565b90600182811c921680156114a1575b602083101461148b57565b634e487b7160e01b600052602260045260246000fd5b91607f1691611480565b8054600093926114ba82611471565b9182825260209360019160018116908160001461152257506001146114e1575b5050505050565b90939495506000929192528360002092846000945b83861061150e575050505001019038808080806114da565b8054858701830152940193859082016114f6565b60ff19168685015250505090151560051b0101915038808080806114da565b61016081019081106001600160401b038211176104a957604052565b604081019081106001600160401b038211176104a957604052565b90601f801991011681019081106001600160401b038211176104a957604052565b9291926001600160401b0382116104a957604051916115c2601f8201601f191660200184611578565b829481845281830111610126578281602093846000960137010152565b82600994939282370190601d60f91b82526001600160401b0360c01b9060c01b1660018201520190565b908060209392818452848401376000828201840152601f01601f1916010190565b3360009081527ff2d002f32e1e256ea1e928747b1832023316be30886ca415b888f7c67dd776c360205260409020547f2172861495e7b85edac73e3cd5fbb42dd675baadf627720e687bcfdaca0250969060ff16156116865750565b6044906040519063e2517d3f60e01b82523360048301526024820152fd5b80600052600060205260406000203360005260205260ff60406000205416156116865750565b6001600160a01b031660008181527f275f3c6fe151dd759af4c3c0c738e1302bb73c2037172a2864846fc1df736cb660205260408120549091907f749410edf1177aefa27612b24d2d51e6441f89613f5ddf9be1d11dfc0d3e4fea9060ff1661177757808352826020526040832082845260205260408320600160ff198254161790557f2f8788117e7eff1d82e926ec794901d17c78024a50270940304540a733656f0d339380a4600190565b505090565b90600091808352826020526001600160a01b036040842092169182845260205260ff6040842054161560001461177757808352826020526040832082845260205260408320600160ff198254161790557f2f8788117e7eff1d82e926ec794901d17c78024a50270940304540a733656f0d339380a4600190565b6001600160a01b031660008181527f275f3c6fe151dd759af4c3c0c738e1302bb73c2037172a2864846fc1df736cb660205260408120549091907f749410edf1177aefa27612b24d2d51e6441f89613f5ddf9be1d11dfc0d3e4fea9060ff16156117775780835282602052604083208284526020526040832060ff1981541690557ff6391f5c32d9c69d2a47ea670b442974b53935d1edc7fd64eb21e047a839171b339380a4600190565b90600091808352826020526001600160a01b036040842092169182845260205260ff6040842054166000146117775780835282602052604083208284526020526040832060ff1981541690557ff6391f5c32d9c69d2a47ea670b442974b53935d1edc7fd64eb21e047a839171b339380a4600190565b81519190604183036119485761194192506020820151906060604084015193015160001a90611cc7565b9192909190565b505060009160029190565b60048110156119c25780611965575050565b6001810361197f5760405163f645eedf60e01b8152600490fd5b600281036119a05760405163fce698f760e01b815260048101839052602490fd5b6003146119aa5750565b602490604051906335e2f38360e21b82526004820152fd5b634e487b7160e01b600052602160045260246000fd5b60ff8114611a165760ff811690601f8211611a0457604051916119fa8361155d565b8252602082015290565b604051632cd44ac360e21b8152600490fd5b50604051600081600191600154611a2c81611471565b8084529360209160018116908115611ab95750600114611a58575b5050611a5592500382611578565b90565b91509260016000527fb10e2d527612073b26eecdfd717e6a320cf44b4afac2b0732d9fcbe2b7fa0cf6936000925b828410611aa15750611a559450505081016020013880611a47565b85548785018301529485019486945092810192611a86565b91505060209250611a5594915060ff191682840152151560051b8201013880611a47565b60ff8114611aff5760ff811690601f8211611a0457604051916119fa8361155d565b50604051600254816000611b1283611471565b80835292602090600190818116908115611ab95750600114611b3c575050611a5592500382611578565b91509260026000527f405787fa12a823e0f2b7631cc41b3ba8828b3321ca811111fa75cd3aa3bb5ace936000925b828410611b855750611a559450505081016020013880611a47565b85548785018301529485019486945092810192611b6a565b6001600160a01b037f000000000000000000000000000000000000000000000000000000000000000016301480611c9e575b15611bf8577f000000000000000000000000000000000000000000000000000000000000000090565b60405160208101907f8b73c3c69bb8fe3d512ecc4cf759cc79239f7b179b0ffacaa9a75d522b39400f82527f000000000000000000000000000000000000000000000000000000000000000060408201527f000000000000000000000000000000000000000000000000000000000000000060608201524660808201523060a082015260a0815260c081018181106001600160401b038211176104a95760405251902090565b507f00000000000000000000000000000000000000000000000000000000000000004614611bcf565b91907f7fffffffffffffffffffffffffffffff5d576e7357a4501ddfe92f46681b20a08411611d4b57926020929160ff608095604051948552168484015260408301526060820152600092839182805260015afa15611d3f5780516001600160a01b03811615611d3657918190565b50809160019190565b604051903d90823e3d90fd5b5050506000916003919056fea2646970667358221220ec27c4b7ce9cd67c5d2d62a4cfc712f18c1a6acefff8be4d14b76c88d80f6c1164736f6c634300081800332f8788117e7eff1d82e926ec794901d17c78024a50270940304540a733656f0d",
  "linkReferences": {},
  "deployedLinkReferences": {}
}