{"abi":[{"type":"constructor","inputs":[],"stateMutability":"nonpayable"},{"type":"function","name":"DEFAULT_ADMIN_ROLE","inputs":[],"outputs":[{"name":"","type":"bytes32","internalType":"bytes32"}],"stateMutability":"view"},{"type":"function","name":"UPGRADE_INTERFACE_VERSION","inputs":[],"outputs":[{"name":"","type":"string","internalType":"string"}],"stateMutability":"view"},{"type":"function","name":"check","inputs":[{"name":"op","type":"bytes32","internalType":"bytes32"},{"name":"country","type":"bytes32","internalType":"bytes32"},{"name":"attAgeSec","type":"uint256","internalType":"uint256"},{"name":"classAllocBp","type":"uint16","internalType":"uint16"},{"name":"issuerAllocBp","type":"uint16","internalType":"uint16"},{"name":"cls","type":"uint8","internalType":"enum PolicyGuard.AssetClass"}],"outputs":[{"name":"","type":"bool","internalType":"bool"},{"name":"","type":"string","internalType":"string"}],"stateMutability":"view"},{"type":"function","name":"freshnessByOp","inputs":[{"name":"","type":"bytes32","internalType":"bytes32"}],"outputs":[{"name":"","type":"uint256","internalType":"uint256"}],"stateMutability":"view"},{"type":"function","name":"getRoleAdmin","inputs":[{"name":"role","type":"bytes32","internalType":"bytes32"}],"outputs":[{"name":"","type":"bytes32","internalType":"bytes32"}],"stateMutability":"view"},{"type":"function","name":"grantRole","inputs":[{"name":"role","type":"bytes32","internalType":"bytes32"},{"name":"account","type":"address","internalType":"address"}],"outputs":[],"stateMutability":"nonpayable"},{"type":"function","name":"hasRole","inputs":[{"name":"role","type":"bytes32","internalType":"bytes32"},{"name":"account","type":"address","internalType":"address"}],"outputs":[{"name":"","type":"bool","internalType":"bool"}],"stateMutability":"view"},{"type":"function","name":"initialize","inputs":[{"name":"governor","type":"address","internalType":"address"},{"name":"guardian","type":"address","internalType":"address"}],"outputs":[],"stateMutability":"nonpayable"},{"type":"function","name":"jurisdiction","inputs":[{"name":"","type":"bytes32","internalType":"bytes32"},{"name":"","type":"bytes32","internalType":"bytes32"}],"outputs":[{"name":"listed","type":"bool","internalType":"bool"},{"name":"whitelist","type":"bool","internalType":"bool"}],"stateMutability":"view"},{"type":"function","name":"kycApproved","inputs":[{"name":"","type":"address","internalType":"address"}],"outputs":[{"name":"","type":"bool","internalType":"bool"}],"stateMutability":"view"},{"type":"function","name":"limitsByClass","inputs":[{"name":"","type":"uint8","internalType":"enum PolicyGuard.AssetClass"}],"outputs":[{"name":"maxBp","type":"uint16","internalType":"uint16"},{"name":"singleIssuerBp","type":"uint16","internalType":"uint16"},{"name":"maxTenorDays","type":"uint32","internalType":"uint32"}],"stateMutability":"view"},{"type":"function","name":"pause","inputs":[],"outputs":[],"stateMutability":"nonpayable"},{"type":"function","name":"paused","inputs":[],"outputs":[{"name":"","type":"bool","internalType":"bool"}],"stateMutability":"view"},{"type":"function","name":"proxiableUUID","inputs":[],"outputs":[{"name":"","type":"bytes32","internalType":"bytes32"}],"stateMutability":"view"},{"type":"function","name":"renounceRole","inputs":[{"name":"role","type":"bytes32","internalType":"bytes32"},{"name":"callerConfirmation","type":"address","internalType":"address"}],"outputs":[],"stateMutability":"nonpayable"},{"type":"function","name":"revokeRole","inputs":[{"name":"role","type":"bytes32","internalType":"bytes32"},{"name":"account","type":"address","internalType":"address"}],"outputs":[],"stateMutability":"nonpayable"},{"type":"function","name":"setClassLimits","inputs":[{"name":"cls","type":"uint8","internalType":"enum PolicyGuard.AssetClass"},{"name":"lim","type":"tuple","internalType":"struct PolicyGuard.ClassLimits","components":[{"name":"maxBp","type":"uint16","internalType":"uint16"},{"name":"singleIssuerBp","type":"uint16","internalType":"uint16"},{"name":"maxTenorDays","type":"uint32","internalType":"uint32"}]}],"outputs":[],"stateMutability":"nonpayable"},{"type":"function","name":"setFreshness","inputs":[{"name":"op","type":"bytes32","internalType":"bytes32"},{"name":"secsValid","type":"uint256","internalType":"uint256"}],"outputs":[],"stateMutability":"nonpayable"},{"type":"function","name":"setJurisdiction","inputs":[{"name":"op","type":"bytes32","internalType":"bytes32"},{"name":"country","type":"bytes32","internalType":"bytes32"},{"name":"listed","type":"bool","internalType":"bool"},{"name":"whitelistMode","type":"bool","internalType":"bool"}],"outputs":[],"stateMutability":"nonpayable"},{"type":"function","name":"setKyc","inputs":[{"name":"user","type":"address","internalType":"address"},{"name":"ok","type":"bool","internalType":"bool"}],"outputs":[],"stateMutability":"nonpayable"},{"type":"function","name":"supportsInterface","inputs":[{"name":"interfaceId","type":"bytes4","internalType":"bytes4"}],"outputs":[{"name":"","type":"bool","internalType":"bool"}],"stateMutability":"view"},{"type":"function","name":"unpause","inputs":[],"outputs":[],"stateMutability":"nonpayable"},{"type":"function","name":"upgradeToAndCall","inputs":[{"name":"newImplementation","type":"address","internalType":"address"},{"name":"data","type":"bytes","internalType":"bytes"}],"outputs":[],"stateMutability":"payable"},{"type":"event","name":"ClassLimitsSet","inputs":[{"name":"cls","type":"uint8","indexed":true,"internalType":"enum PolicyGuard.AssetClass"},{"name":"lim","type":"tuple","indexed":false,"internalType":"struct PolicyGuard.ClassLimits","components":[{"name":"maxBp","type":"uint16","internalType":"uint16"},{"name":"singleIssuerBp","type":"uint16","internalType":"uint16"},{"name":"maxTenorDays","type":"uint32","internalType":"uint32"}]}],"anonymous":false},{"type":"event","name":"FreshnessSet","inputs":[{"name":"op","type":"bytes32","indexed":true,"internalType":"bytes32"},{"name":"secondsValid","type":"uint256","indexed":false,"internalType":"uint256"}],"anonymous":false},{"type":"event","name":"Initialized","inputs":[{"name":"version","type":"uint64","indexed":false,"internalType":"uint64"}],"anonymous":false},{"type":"event","name":"JurisdictionSet","inputs":[{"name":"op","type":"bytes32","indexed":true,"internalType":"bytes32"},{"name":"country","type":"bytes32","indexed":true,"internalType":"bytes32"},{"name":"listed","type":"bool","indexed":false,"internalType":"bool"},{"name":"whitelistMode","type":"bool","indexed":false,"internalType":"bool"}],"anonymous":false},{"type":"event","name":"KycSet","inputs":[{"name":"user","type":"address","indexed":true,"internalType":"address"},{"name":"approved","type":"bool","indexed":false,"internalType":"bool"}],"anonymous":false},{"type":"event","name":"Paused","inputs":[{"name":"account","type":"address","indexed":false,"internalType":"address"}],"anonymous":false},{"type":"event","name":"RoleAdminChanged","inputs":[{"name":"role","type":"bytes32","indexed":true,"internalType":"bytes32"},{"name":"previousAdminRole","type":"bytes32","indexed":true,"internalType":"bytes32"},{"name":"newAdminRole","type":"bytes32","indexed":true,"internalType":"bytes32"}],"anonymous":false},{"type":"event","name":"RoleGranted","inputs":[{"name":"role","type":"bytes32","indexed":true,"internalType":"bytes32"},{"name":"account","type":"address","indexed":true,"internalType":"address"},{"name":"sender","type":"address","indexed":true,"internalType":"address"}],"anonymous":false},{"type":"event","name":"RoleRevoked","inputs":[{"name":"role","type":"bytes32","indexed":true,"internalType":"bytes32"},{"name":"account","type":"address","indexed":true,"internalType":"address"},{"name":"sender","type":"address","indexed":true,"internalType":"address"}],"anonymous":false},{"type":"event","name":"Unpaused","inputs":[{"name":"account","type":"address","indexed":false,"internalType":"address"}],"anonymous":false},{"type":"event","name":"Upgraded","inputs":[{"name":"implementation","type":"address","indexed":true,"internalType":"address"}],"anonymous":false},{"type":"error","name":"AccessControlBadConfirmation","inputs":[]},{"type":"error","name":"AccessControlUnauthorizedAccount","inputs":[{"name":"account","type":"address","internalType":"address"},{"name":"neededRole","type":"bytes32","internalType":"bytes32"}]},{"type":"error","name":"AddressEmptyCode","inputs":[{"name":"target","type":"address","internalType":"address"}]},{"type":"error","name":"ERC1967InvalidImplementation","inputs":[{"name":"implementation","type":"address","internalType":"address"}]},{"type":"error","name":"ERC1967NonPayable","inputs":[]},{"type":"error","name":"EnforcedPause","inputs":[]},{"type":"error","name":"ExpectedPause","inputs":[]},{"type":"error","name":"FailedInnerCall","inputs":[]},{"type":"error","name":"InvalidInitialization","inputs":[]},{"type":"error","name":"NotInitializing","inputs":[]},{"type":"error","name":"UUPSUnauthorizedCallContext","inputs":[]},{"type":"error","name":"UUPSUnsupportedProxiableUUID","inputs":[{"name":"slot","type":"bytes32","internalType":"bytes32"}]}],"bytecode":{"object":"0x60a080604052346100cc57306080527ff0c57e16840df040f15088dc2f81fe391c3923bec73e23a9662efc9c229c6a009081549060ff8260401c166100bd57506001600160401b036002600160401b031982821601610078575b604051611f5a90816100d282396080518181816106b001526107cc0152f35b6001600160401b031990911681179091556040519081527fc7f505b2f371ae2175ee4913f4499e1f2633a7b5936321eed1cdaeb6115181d290602090a1388080610059565b63f92ee8a960e01b8152600490fd5b600080fdfe6040608081526004908136101561001557600080fd5b600091823560e01c80621a49501461123357806301ffc9a714611175578063112ee9621461110157806315508bc414611067578063248a9ca3146110005780632f2ff15d14610fb9578063314db3b714610e8357806336568abe14610df85780633f4ba83a14610d0f578063485cc95514610aeb5780634f1ef2861461072557806352d1902d146106685780635c975abb146106075780636641cc64146105a05780637807aeba146104cc5780637b8935d71461045b5780638456cb591461039b57806391d148541461030c578063a217fddf146102d3578063ad3cb1cc14610254578063b1f5f74c14610210578063d547741f146101945763dea2d6f91461011d57600080fd5b3461019057817ffffffffffffffffffffffffffffffffffffffffffffffffffffffffffffffffc3601126101905761018c9282913581526002602052818120602435825260205220549051918160ff80859460081c169116839092916020906040830194151583521515910152565b0390f35b8280fd5b50903461019057807ffffffffffffffffffffffffffffffffffffffffffffffffffffffffffffffffc3601126101905761020c913561020760016101d66113b5565b938387527f02dd7bc7dec4dceedda775e58dd541e08a116c6c53815c0bd028192f7b6268006020528620015461191a565b611d6a565b5080f35b50346101905760207ffffffffffffffffffffffffffffffffffffffffffffffffffffffffffffffffc36011261019057602092829135815280845220549051908152f35b5050346102cf57817ffffffffffffffffffffffffffffffffffffffffffffffffffffffffffffffffc3601126102cf57805161018c9161029382611400565b600582527f352e302e30000000000000000000000000000000000000000000000000000000602083015251918291602083526020830190611357565b5080fd5b5050346102cf57817ffffffffffffffffffffffffffffffffffffffffffffffffffffffffffffffffc3601126102cf5751908152602090f35b503461019057817ffffffffffffffffffffffffffffffffffffffffffffffffffffffffffffffffc360112610190578160209360ff9261034a6113b5565b903582527f02dd7bc7dec4dceedda775e58dd541e08a116c6c53815c0bd028192f7b626800865273ffffffffffffffffffffffffffffffffffffffff83832091168252855220541690519015158152f35b5050346102cf57817ffffffffffffffffffffffffffffffffffffffffffffffffffffffffffffffffc3601126102cf57602080916103d76118be565b6103df61195f565b7fcd5ed15c6e187e77e9aee88184c21f4f2182ab5827cb3b7e07fbedcd63f0330060017fffffffffffffffffffffffffffffffffffffffffffffffffffffffffffffff0082541617905580513381527f62e78cea01bee320cd4e420270b5ea74000d11b0c9f74754ebdbfc544b05a258938491a151338152a180f35b50346101905760207ffffffffffffffffffffffffffffffffffffffffffffffffffffffffffffffffc36011261019057359160088310156104c957506104a26060926114c6565b549063ffffffff61ffff9282519380821685528160101c16602085015260201c1690820152f35b80fd5b5050346102cf57807ffffffffffffffffffffffffffffffffffffffffffffffffffffffffffffffffc3601126102cf576105046113dd565b906024359182151580840361059c577f7bbd64a7abd041ed0a5722e484fde418f9776ac69c0e67e9652f60ac5ca35dc09261059473ffffffffffffffffffffffffffffffffffffffff602094610558611862565b1695868852600385528288209060ff7fffffffffffffffffffffffffffffffffffffffffffffffffffffffffffffff0083541691151516179055565b51908152a280f35b8480fd5b5050346102cf5760207ffffffffffffffffffffffffffffffffffffffffffffffffffffffffffffffffc3601126102cf5760ff8160209373ffffffffffffffffffffffffffffffffffffffff6105f46113dd565b1681526003855220541690519015158152f35b5050346102cf57817ffffffffffffffffffffffffffffffffffffffffffffffffffffffffffffffffc3601126102cf5760209060ff7fcd5ed15c6e187e77e9aee88184c21f4f2182ab5827cb3b7e07fbedcd63f03300541690519015158152f35b5091346104c957807ffffffffffffffffffffffffffffffffffffffffffffffffffffffffffffffffc3601126104c9575073ffffffffffffffffffffffffffffffffffffffff7f00000000000000000000000000000000000000000000000000000000000000001630036106ff57602090517f360894a13ba1a3210667c828492db98dca3e2076cc3735a920a3ca505d382bbc8152f35b517fe07c8dba000000000000000000000000000000000000000000000000000000008152fd5b5090807ffffffffffffffffffffffffffffffffffffffffffffffffffffffffffffffffc360112610190576107586113dd565b90602493843567ffffffffffffffff81116102cf57366023820112156102cf57808501356107858161148c565b946107928551968761144b565b81865260209182870193368a8383010111610ae7578186928b86930187378801015273ffffffffffffffffffffffffffffffffffffffff807f000000000000000000000000000000000000000000000000000000000000000016803014908115610ab9575b50610a91577fa615a8afb6fffcb8c6809ac0997b5c9c12b8cc97651150f14c8f6203168cff4c8086527f02dd7bc7dec4dceedda775e58dd541e08a116c6c53815c0bd028192f7b6268008452868620338752845260ff878720541615610a5c575081169585517f52d1902d00000000000000000000000000000000000000000000000000000000815283818a818b5afa869181610a29575b506108c45750505050505051917f4c9c8ce3000000000000000000000000000000000000000000000000000000008352820152fd5b9088888894938c7f360894a13ba1a3210667c828492db98dca3e2076cc3735a920a3ca505d382bbc918281036109fc5750853b156109cf575080547fffffffffffffffffffffffff000000000000000000000000000000000000000016821790558451889392917fbc7cd75a20ee27fd9adebab32041f755214dbc6bffa90cc0225b39da2e5c2d3b8580a282511561099857505061020c9582915190845af4913d1561098e573d6109806109778261148c565b9251928361144b565b81528581943d92013e611e84565b5060609250611e84565b9550955050505050346109aa57505080f35b7fb398979f000000000000000000000000000000000000000000000000000000008152fd5b83838851917f4c9c8ce3000000000000000000000000000000000000000000000000000000008352820152fd5b84908851917faa1d49a4000000000000000000000000000000000000000000000000000000008352820152fd5b9091508481813d8311610a55575b610a41818361144b565b81010312610a515751903861088f565b8680fd5b503d610a37565b886044918b8951927fe2517d3f0000000000000000000000000000000000000000000000000000000084523390840152820152fd5b8786517fe07c8dba000000000000000000000000000000000000000000000000000000008152fd5b9050817f360894a13ba1a3210667c828492db98dca3e2076cc3735a920a3ca505d382bbc54161415386107f7565b8580fd5b503461019057817ffffffffffffffffffffffffffffffffffffffffffffffffffffffffffffffffc36011261019057610b226113dd565b90610b2b6113b5565b917ff0c57e16840df040f15088dc2f81fe391c3923bec73e23a9662efc9c229c6a0092835460ff81871c16159367ffffffffffffffff821680159081610d07575b6001149081610cfd575b159081610cf4575b50610ccd5750610c389291818560017fffffffffffffffffffffffffffffffffffffffffffffffff0000000000000000610c329516178855610c98575b50610bc4611e2b565b610bcc611e2b565b7fcd5ed15c6e187e77e9aee88184c21f4f2182ab5827cb3b7e07fbedcd63f033007fffffffffffffffffffffffffffffffffffffffffffffffffffffffffffffff008154169055610c1b611e2b565b610c23611e2b565b610c2c836119b4565b50611ab3565b50611bac565b50610c41578280f35b7fc7f505b2f371ae2175ee4913f4499e1f2633a7b5936321eed1cdaeb6115181d291817fffffffffffffffffffffffffffffffffffffffffffffff00ffffffffffffffff602093541690555160018152a138808280f35b7fffffffffffffffffffffffffffffffffffffffffffffff000000000000000000166801000000000000000117865538610bbb565b86517ff92ee8a9000000000000000000000000000000000000000000000000000000008152fd5b90501538610b7e565b303b159150610b76565b869150610b6c565b503461019057827ffffffffffffffffffffffffffffffffffffffffffffffffffffffffffffffffc36011261019057610d466118be565b7fcd5ed15c6e187e77e9aee88184c21f4f2182ab5827cb3b7e07fbedcd63f033009081549060ff821615610dd1578460208086867fffffffffffffffffffffffffffffffffffffffffffffffffffffffffffffff008716905580513381527f5db9ee0a495bf2e6ff9c91a7834c1ba4fdd244a5e8aa4e537bd38aeae4b073aa938491a151338152a180f35b83517f8dfc202b000000000000000000000000000000000000000000000000000000008152fd5b509190346102cf57807ffffffffffffffffffffffffffffffffffffffffffffffffffffffffffffffffc3601126102cf57610e316113b5565b903373ffffffffffffffffffffffffffffffffffffffff831603610e5b575061020c919235611d6a565b8390517f6697b232000000000000000000000000000000000000000000000000000000008152fd5b50346101905760807ffffffffffffffffffffffffffffffffffffffffffffffffffffffffffffffffc3601126101905735602435916044359081151591828103610ae7576064359182151590818403610fb5577f5e9047ad978391b21fec970a230bd3e5b6328061500c470344f39e984357faef94610faf92610f04611862565b825191610f1083611400565b825260208201908152878a526002602052828a20898b52602052610f65838b2092511515839060ff7fffffffffffffffffffffffffffffffffffffffffffffffffffffffffffffff0083541691151516179055565b5181547fffffffffffffffffffffffffffffffffffffffffffffffffffffffffffff00ff1690151560081b61ff001617905551911515825291151560208201529081906040820190565b0390a380f35b8780fd5b50903461019057807ffffffffffffffffffffffffffffffffffffffffffffffffffffffffffffffffc3601126101905761020c9135610ffb60016101d66113b5565b611ca5565b50346101905760207ffffffffffffffffffffffffffffffffffffffffffffffffffffffffffffffffc36011261019057816020936001923581527f02dd7bc7dec4dceedda775e58dd541e08a116c6c53815c0bd028192f7b62680085522001549051908152f35b508290346102cf5760c07ffffffffffffffffffffffffffffffffffffffffffffffffffffffffffffffffc3601126102cf5760643561ffff9182821682036110fd5760843592831683036110fd5760a4359360088510156104c957509161018c93916110e3936110d561195f565b60443590602435903561150e565b839291925193849315158452806020850152830190611357565b8380fd5b503461019057817ffffffffffffffffffffffffffffffffffffffffffffffffffffffffffffffffc3601126101905760207fa0fea218ba00fedcfe049b2f59f45b8d01c25705e1610e919fbc0f3fabd0a682913592602435906111626117cf565b848652858352818187205551908152a280f35b50346101905760207ffffffffffffffffffffffffffffffffffffffffffffffffffffffffffffffffc3601126101905735907fffffffff00000000000000000000000000000000000000000000000000000000821680920361019057602092507f7965db0b000000000000000000000000000000000000000000000000000000008214918215611209575b50519015158152f35b7f01ffc9a70000000000000000000000000000000000000000000000000000000014915038611200565b50346101905760807ffffffffffffffffffffffffffffffffffffffffffffffffffffffffffffffffc36011261019057359060088210156101905760607fffffffffffffffffffffffffffffffffffffffffffffffffffffffffffffffdc360112610190576112a06117cf565b6112a9826114c6565b60243561ffff92838216809203610ae757825490604435948516808603610fb5576064359463ffffffff861693848703611353577f96d3c249922730669ffa8d3a86be3e6b14711eb0020481f8743a4f660bc7af2f9763ffff0000877fffffffffffffffffffffffffffffffffffffffffffffffff000000000000000067ffffffff0000000060609b60201b169416179160101b161717905581519384526020840152820152a280f35b8980fd5b919082519283825260005b8481106113a15750507fffffffffffffffffffffffffffffffffffffffffffffffffffffffffffffffe0601f8460006020809697860101520116010190565b602081830181015184830182015201611362565b6024359073ffffffffffffffffffffffffffffffffffffffff821682036113d857565b600080fd5b6004359073ffffffffffffffffffffffffffffffffffffffff821682036113d857565b6040810190811067ffffffffffffffff82111761141c57604052565b7f4e487b7100000000000000000000000000000000000000000000000000000000600052604160045260246000fd5b90601f7fffffffffffffffffffffffffffffffffffffffffffffffffffffffffffffffe0910116810190811067ffffffffffffffff82111761141c57604052565b67ffffffffffffffff811161141c57601f017fffffffffffffffffffffffffffffffffffffffffffffffffffffffffffffffe01660200190565b60088110156114df576000526001602052604060002090565b7f4e487b7100000000000000000000000000000000000000000000000000000000600052602160045260246000fd5b9594939291956000938185526020958587526040988987205480151591826117c5575b505061178857611540906114c6565b885167ffffffffffffffff959091606083018781118482101761175b578b52549061ffff92838316908181528c63ffffffff8c830195878160101c1687528d1c1691015283811515928361174f575b5050506117115781905116908115159283611705575b5050506116ca5783526002845285832090835283528482208551906115c982611400565b5460ff8116158015835260ff8684019260081c16151590818352816116c2575b50611687575115908161167c575b5061164357600194805193840191848310908311176116165752815290565b6024837f4e487b710000000000000000000000000000000000000000000000000000000081526041600452fd5b507f6a7572697364696374696f6e5f626c61636b6c697374656400000000000000009093519161167283611400565b6018835282015290565b9050511515386115f7565b5050507f6a7572697364696374696f6e5f6e6f745f77686974656c697374656400000000909351916116b883611400565b601c835282015290565b9050386115e9565b5050507f6973737565725f6c696d69745f65786365656465640000000000000000000000909351916116fb83611400565b6015835282015290565b161190503880806115a5565b5050505050507f636c6173735f6c696d69745f65786365656465640000000000000000000000009093519161174583611400565b6014835282015290565b1611905038838161158f565b6024897f4e487b710000000000000000000000000000000000000000000000000000000081526041600452fd5b50505050507f7374616c655f6174746573746174696f6e000000000000000000000000000000909351916117bb83611400565b6011835282015290565b1190503880611531565b3360009081527f852acfdbd338e0da117a74b68467ee9617605c8469f7ce48961a1a5229d6e83860205260409020547f1a6838efa4183e08fe3607359d1259272af9d4716f65e1a7b5921f78fd5a3c6a9060ff161561182b5750565b604490604051907fe2517d3f0000000000000000000000000000000000000000000000000000000082523360048301526024820152fd5b3360009081527fce0a916639b3a4006e30a06fd5dc76c40e42b16cc285f6f5137157c7432718a760205260409020547fa67a057d728d16e162a15912cbf6e8d4fcd69e5b7b0d1f849a0a10ca6e14741c9060ff161561182b5750565b3360009081527f1dda541eb5c1fa85177342f00c6b5e15359324832b7f80f6738a34decb92f53a60205260409020547f8b5b16d04624687fcf0d0228f19993c9157c1ed07b41d8d430fd9100eb099fe89060ff161561182b5750565b806000527f02dd7bc7dec4dceedda775e58dd541e08a116c6c53815c0bd028192f7b62680060205260406000203360005260205260ff604060002054161561182b5750565b60ff7fcd5ed15c6e187e77e9aee88184c21f4f2182ab5827cb3b7e07fbedcd63f03300541661198a57565b60046040517fd93c0665000000000000000000000000000000000000000000000000000000008152fd5b73ffffffffffffffffffffffffffffffffffffffff1660008181527f852acfdbd338e0da117a74b68467ee9617605c8469f7ce48961a1a5229d6e83860205260408120549091907f1a6838efa4183e08fe3607359d1259272af9d4716f65e1a7b5921f78fd5a3c6a907f02dd7bc7dec4dceedda775e58dd541e08a116c6c53815c0bd028192f7b6268009060ff16611aad57818452602052604083208284526020526040832060017fffffffffffffffffffffffffffffffffffffffffffffffffffffffffffffff008254161790557f2f8788117e7eff1d82e926ec794901d17c78024a50270940304540a733656f0d339380a4600190565b50505090565b73ffffffffffffffffffffffffffffffffffffffff1660008181527f1dda541eb5c1fa85177342f00c6b5e15359324832b7f80f6738a34decb92f53a60205260408120549091907f8b5b16d04624687fcf0d0228f19993c9157c1ed07b41d8d430fd9100eb099fe8907f02dd7bc7dec4dceedda775e58dd541e08a116c6c53815c0bd028192f7b6268009060ff16611aad57818452602052604083208284526020526040832060017fffffffffffffffffffffffffffffffffffffffffffffffffffffffffffffff008254161790557f2f8788117e7eff1d82e926ec794901d17c78024a50270940304540a733656f0d339380a4600190565b73ffffffffffffffffffffffffffffffffffffffff1660008181527f9469a29198efc966024e165efb801c8f2366b78a1c73841aee561d08e7eaddce60205260408120549091907fa615a8afb6fffcb8c6809ac0997b5c9c12b8cc97651150f14c8f6203168cff4c907f02dd7bc7dec4dceedda775e58dd541e08a116c6c53815c0bd028192f7b6268009060ff16611aad57818452602052604083208284526020526040832060017fffffffffffffffffffffffffffffffffffffffffffffffffffffffffffffff008254161790557f2f8788117e7eff1d82e926ec794901d17c78024a50270940304540a733656f0d339380a4600190565b906000918083527f02dd7bc7dec4dceedda775e58dd541e08a116c6c53815c0bd028192f7b6268008060205273ffffffffffffffffffffffffffffffffffffffff6040852093169283855260205260ff60408520541615600014611aad57818452602052604083208284526020526040832060017fffffffffffffffffffffffffffffffffffffffffffffffffffffffffffffff008254161790557f2f8788117e7eff1d82e926ec794901d17c78024a50270940304540a733656f0d339380a4600190565b906000918083527f02dd7bc7dec4dceedda775e58dd541e08a116c6c53815c0bd028192f7b6268008060205273ffffffffffffffffffffffffffffffffffffffff6040852093169283855260205260ff604085205416600014611aad5781845260205260408320828452602052604083207fffffffffffffffffffffffffffffffffffffffffffffffffffffffffffffff0081541690557ff6391f5c32d9c69d2a47ea670b442974b53935d1edc7fd64eb21e047a839171b339380a4600190565b60ff7ff0c57e16840df040f15088dc2f81fe391c3923bec73e23a9662efc9c229c6a005460401c1615611e5a57565b60046040517fd7e6bcf8000000000000000000000000000000000000000000000000000000008152fd5b90611ec35750805115611e9957805190602001fd5b60046040517f1425ea42000000000000000000000000000000000000000000000000000000008152fd5b81511580611f1b575b611ed4575090565b60249073ffffffffffffffffffffffffffffffffffffffff604051917f9996b315000000000000000000000000000000000000000000000000000000008352166004820152fd5b50803b15611ecc56fea2646970667358221220edc8e0412f6f9bbed9a4a628d836cde2fac1aa2105f84eb79d4b66c0b1a8f3ad64736f6c63430008180033","linkReferences":{}},"methodIdentifiers":{"DEFAULT_ADMIN_ROLE()":"a217fddf","UPGRADE_INTERFACE_VERSION()":"ad3cb1cc","check(bytes32,bytes32,uint256,uint16,uint16,uint8)":"15508bc4","freshnessByOp(bytes32)":"b1f5f74c","getRoleAdmin(bytes32)":"248a9ca3","grantRole(bytes32,address)":"2f2ff15d","hasRole(bytes32,address)":"91d14854","initialize(address,address)":"485cc955","jurisdiction(bytes32,bytes32)":"dea2d6f9","kycApproved(address)":"6641cc64","limitsByClass(uint8)":"7b8935d7","pause()":"8456cb59","paused()":"5c975abb","proxiableUUID()":"52d1902d","renounceRole(bytes32,address)":"36568abe","revokeRole(bytes32,address)":"d547741f","setClassLimits(uint8,(uint16,uint16,uint32))":"001a4950","setFreshness(bytes32,uint256)":"112ee962","setJurisdiction(bytes32,bytes32,bool,bool)":"314db3b7","setKyc(address,bool)":"7807aeba","supportsInterface(bytes4)":"01ffc9a7","unpause()":"3f4ba83a","upgradeToAndCall(address,bytes)":"4f1ef286"},"id":64}