{"abi":[{"type":"constructor","inputs":[],"stateMutability":"nonpayable"},{"type":"function","name":"DEFAULT_ADMIN_ROLE","inputs":[],"outputs":[{"name":"","type":"bytes32","internalType":"bytes32"}],"stateMutability":"view"},{"type":"function","name":"OPERATOR_ROLE","inputs":[],"outputs":[{"name":"","type":"bytes32","internalType":"bytes32"}],"stateMutability":"view"},{"type":"function","name":"POLICY_ADMIN_ROLE","inputs":[],"outputs":[{"name":"","type":"bytes32","internalType":"bytes32"}],"stateMutability":"view"},{"type":"function","name":"activityLogs","inputs":[{"name":"","type":"bytes32","internalType":"bytes32"},{"name":"","type":"uint256","internalType":"uint256"}],"outputs":[{"name":"timestamp","type":"uint256","internalType":"uint256"},{"name":"breakerId","type":"bytes32","internalType":"bytes32"},{"name":"reason","type":"string","internalType":"string"},{"name":"triggeredBy","type":"address","internalType":"address"}],"stateMutability":"view"},{"type":"function","name":"circuitBreakers","inputs":[{"name":"","type":"bytes32","internalType":"bytes32"}],"outputs":[{"name":"name","type":"string","internalType":"string"},{"name":"triggerType","type":"uint8","internalType":"enum PolicyCircuitBreaker.TriggerType"},{"name":"threshold","type":"uint256","internalType":"uint256"},{"name":"cooldownPeriod","type":"uint256","internalType":"uint256"},{"name":"isActive","type":"bool","internalType":"bool"},{"name":"lastTriggered","type":"uint256","internalType":"uint256"},{"name":"policyChecker","type":"address","internalType":"address"}],"stateMutability":"view"},{"type":"function","name":"createCircuitBreaker","inputs":[{"name":"name","type":"string","internalType":"string"},{"name":"triggerType","type":"uint8","internalType":"enum PolicyCircuitBreaker.TriggerType"},{"name":"threshold","type":"uint256","internalType":"uint256"},{"name":"cooldownPeriod","type":"uint256","internalType":"uint256"},{"name":"policyChecker","type":"address","internalType":"address"}],"outputs":[{"name":"","type":"bytes32","internalType":"bytes32"}],"stateMutability":"nonpayable"},{"type":"function","name":"getActivityLogs","inputs":[{"name":"id","type":"bytes32","internalType":"bytes32"}],"outputs":[{"name":"","type":"tuple[]","internalType":"struct PolicyCircuitBreaker.ActivityLog[]","components":[{"name":"timestamp","type":"uint256","internalType":"uint256"},{"name":"breakerId","type":"bytes32","internalType":"bytes32"},{"name":"reason","type":"string","internalType":"string"},{"name":"triggeredBy","type":"address","internalType":"address"}]}],"stateMutability":"view"},{"type":"function","name":"getCircuitBreaker","inputs":[{"name":"id","type":"bytes32","internalType":"bytes32"}],"outputs":[{"name":"name","type":"string","internalType":"string"},{"name":"triggerType","type":"uint8","internalType":"enum PolicyCircuitBreaker.TriggerType"},{"name":"threshold","type":"uint256","internalType":"uint256"},{"name":"cooldownPeriod","type":"uint256","internalType":"uint256"},{"name":"isActive","type":"bool","internalType":"bool"},{"name":"lastTriggered","type":"uint256","internalType":"uint256"},{"name":"policyChecker","type":"address","internalType":"address"}],"stateMutability":"view"},{"type":"function","name":"getRoleAdmin","inputs":[{"name":"role","type":"bytes32","internalType":"bytes32"}],"outputs":[{"name":"","type":"bytes32","internalType":"bytes32"}],"stateMutability":"view"},{"type":"function","name":"grantRole","inputs":[{"name":"role","type":"bytes32","internalType":"bytes32"},{"name":"account","type":"address","internalType":"address"}],"outputs":[],"stateMutability":"nonpayable"},{"type":"function","name":"hasRole","inputs":[{"name":"role","type":"bytes32","internalType":"bytes32"},{"name":"account","type":"address","internalType":"address"}],"outputs":[{"name":"","type":"bool","internalType":"bool"}],"stateMutability":"view"},{"type":"function","name":"paused","inputs":[],"outputs":[{"name":"","type":"bool","internalType":"bool"}],"stateMutability":"view"},{"type":"function","name":"renounceRole","inputs":[{"name":"role","type":"bytes32","internalType":"bytes32"},{"name":"callerConfirmation","type":"address","internalType":"address"}],"outputs":[],"stateMutability":"nonpayable"},{"type":"function","name":"resetCircuitBreaker","inputs":[{"name":"id","type":"bytes32","internalType":"bytes32"}],"outputs":[],"stateMutability":"nonpayable"},{"type":"function","name":"revokeRole","inputs":[{"name":"role","type":"bytes32","internalType":"bytes32"},{"name":"account","type":"address","internalType":"address"}],"outputs":[],"stateMutability":"nonpayable"},{"type":"function","name":"supportsInterface","inputs":[{"name":"interfaceId","type":"bytes4","internalType":"bytes4"}],"outputs":[{"name":"","type":"bool","internalType":"bool"}],"stateMutability":"view"},{"type":"function","name":"triggerCircuitBreaker","inputs":[{"name":"id","type":"bytes32","internalType":"bytes32"},{"name":"reason","type":"string","internalType":"string"}],"outputs":[],"stateMutability":"nonpayable"},{"type":"function","name":"updateCircuitBreaker","inputs":[{"name":"id","type":"bytes32","internalType":"bytes32"},{"name":"newThreshold","type":"uint256","internalType":"uint256"},{"name":"newCooldownPeriod","type":"uint256","internalType":"uint256"}],"outputs":[],"stateMutability":"nonpayable"},{"type":"event","name":"CircuitBreakerCreated","inputs":[{"name":"id","type":"bytes32","indexed":true,"internalType":"bytes32"},{"name":"name","type":"string","indexed":false,"internalType":"string"},{"name":"triggerType","type":"uint8","indexed":false,"internalType":"enum PolicyCircuitBreaker.TriggerType"}],"anonymous":false},{"type":"event","name":"CircuitBreakerReset","inputs":[{"name":"id","type":"bytes32","indexed":true,"internalType":"bytes32"},{"name":"resetBy","type":"address","indexed":false,"internalType":"address"}],"anonymous":false},{"type":"event","name":"CircuitBreakerTriggered","inputs":[{"name":"id","type":"bytes32","indexed":true,"internalType":"bytes32"},{"name":"reason","type":"string","indexed":false,"internalType":"string"},{"name":"triggeredBy","type":"address","indexed":false,"internalType":"address"}],"anonymous":false},{"type":"event","name":"CircuitBreakerUpdated","inputs":[{"name":"id","type":"bytes32","indexed":true,"internalType":"bytes32"},{"name":"threshold","type":"uint256","indexed":false,"internalType":"uint256"},{"name":"cooldownPeriod","type":"uint256","indexed":false,"internalType":"uint256"}],"anonymous":false},{"type":"event","name":"Paused","inputs":[{"name":"account","type":"address","indexed":false,"internalType":"address"}],"anonymous":false},{"type":"event","name":"RoleAdminChanged","inputs":[{"name":"role","type":"bytes32","indexed":true,"internalType":"bytes32"},{"name":"previousAdminRole","type":"bytes32","indexed":true,"internalType":"bytes32"},{"name":"newAdminRole","type":"bytes32","indexed":true,"internalType":"bytes32"}],"anonymous":false},{"type":"event","name":"RoleGranted","inputs":[{"name":"role","type":"bytes32","indexed":true,"internalType":"bytes32"},{"name":"account","type":"address","indexed":true,"internalType":"address"},{"name":"sender","type":"address","indexed":true,"internalType":"address"}],"anonymous":false},{"type":"event","name":"RoleRevoked","inputs":[{"name":"role","type":"bytes32","indexed":true,"internalType":"bytes32"},{"name":"account","type":"address","indexed":true,"internalType":"address"},{"name":"sender","type":"address","indexed":true,"internalType":"address"}],"anonymous":false},{"type":"event","name":"Unpaused","inputs":[{"name":"account","type":"address","indexed":false,"internalType":"address"}],"anonymous":false},{"type":"error","name":"AccessControlBadConfirmation","inputs":[]},{"type":"error","name":"AccessControlUnauthorizedAccount","inputs":[{"name":"account","type":"address","internalType":"address"},{"name":"neededRole","type":"bytes32","internalType":"bytes32"}]},{"type":"error","name":"EnforcedPause","inputs":[]},{"type":"error","name":"ExpectedPause","inputs":[]},{"type":"error","name":"ReentrancyGuardReentrantCall","inputs":[]}],"bytecode":{"object":"0x6080604052346200004b576001805460ff19168155600255620000223362000050565b506200002e33620000d0565b506200003a3362000172565b50604051611b509081620002108239f35b600080fd5b6001600160a01b031660008181527fad3228b676f7d3cd4284a5443f17f1962b36e491b30a40b2405849e597ba5fb5602052604081205490919060ff16620000cc57818052816020526040822081835260205260408220600160ff19825416179055339160008051602062001d608339815191528180a4600190565b5090565b6001600160a01b031660008181527fdd387d6be4b96952c83760ef1abeddbae0c0e935d512451e6222f0ce7cb72cb760205260408120549091907face7350211ab645c1937904136ede4855ac3aa1eabb4970e1a51a335d2e199209060ff166200016d57808352826020526040832082845260205260408320600160ff1982541617905560008051602062001d60833981519152339380a4600190565b505090565b6001600160a01b031660008181527fee57cd81e84075558e8fcc182a1f4393f91fc97f963a136e66b7f949a62f319f60205260408120549091907f97667070c54ef182b0f5858b034beac1b6f3089aa2d3188bb1e8929f4fa9b9299060ff166200016d57808352826020526040832082845260205260408320600160ff1982541617905560008051602062001d60833981519152339380a460019056fe608080604052600436101561001357600080fd5b60003560e01c90816301ffc9a71461133f57508063248a9ca3146112f25780632f2ff15d1461129557806336568abe1461120b5780633bdfb87e146111685780635c975abb146111275780637ee44442146110765780638447966914610fe157806391d1485414610f685780639cfdd8fc14610ecf578063a17620c114610e76578063a217fddf14610e3c578063b62d8a69146109b7578063b892b07714610818578063b8a7cf88146102a6578063d547741f14610247578063e6271b55146101435763f5b541a6146100e557600080fd5b3461013e5760007ffffffffffffffffffffffffffffffffffffffffffffffffffffffffffffffffc36011261013e5760206040517f97667070c54ef182b0f5858b034beac1b6f3089aa2d3188bb1e8929f4fa9b9298152f35b600080fd5b3461013e5760207ffffffffffffffffffffffffffffffffffffffffffffffffffffffffffffffffc36011261013e5760043561017d6118e0565b610185611ae3565b8060005260036020526101c16101b960406000206101a960ff6004830154166116d1565b600360058201549101549061179b565b4210156117d7565b6101c9611ae3565b7fffffffffffffffffffffffffffffffffffffffffffffffffffffffffffffff00600154166001557f5db9ee0a495bf2e6ff9c91a7834c1ba4fdd244a5e8aa4e537bd38aeae4b073aa6020604051338152a17f669538ca1f8f0201db72834644c63f3888246fad61d33cbb3d3e728735bd89fd6020604051338152a2005b3461013e5760407ffffffffffffffffffffffffffffffffffffffffffffffffffffffffffffffffc36011261013e576102a46004356102846113fb565b9080600052600060205261029f60016040600020015461193c565b611a0c565b005b3461013e5760a07ffffffffffffffffffffffffffffffffffffffffffffffffffffffffffffffffc36011261013e5760043567ffffffffffffffff811161013e576102f59036906004016116a3565b6005602435101561013e57606435906084359073ffffffffffffffffffffffffffffffffffffffff8216820361013e5761032d6118e0565b80156107ba5761033e831515611736565b600460243514610741575b6040516020810190828683376103726040828581014260208201520360208101845201826114d8565b519020928360005260036020526002604060002001546106e3576040519260e084019184831067ffffffffffffffff8411176106b45773ffffffffffffffffffffffffffffffffffffffff926040526103cc36858961183c565b855260243560208601526044356040860152606085015260016080850152600060a08501521660c0830152826000526003602052604060002093825180519067ffffffffffffffff82116106b45781906104268854611469565b601f8111610664575b50602090601f83116001146105c4576000926105b9575b50507fffffffffffffffffffffffffffffffffffffffffffffffffffffffffffffffff8260011b9260031b1c19161785555b6001850191602084015193600585101561058a5773ffffffffffffffffffffffffffffffffffffffff60c0600660209989987ff617417ada5fa51592f634934c924a244936ee44243c933a09a2c796688ca6fc987fffffffffffffffffffffffffffffffffffffffffffffffffffffffffffffff009160ff8383541691161790556040860151600283015560608601516003830155600482019060ff6080880151151591835416911617905560a0850151600582015501920151167fffffffffffffffffffffffff00000000000000000000000000000000000000008254161790556105716040519283926040845260408401916118a1565b61057f87830160243561163b565b0390a2604051908152f35b7f4e487b7100000000000000000000000000000000000000000000000000000000600052602160045260246000fd5b015190508780610446565b600089815260208120937fffffffffffffffffffffffffffffffffffffffffffffffffffffffffffffffe016905b81811061064c5750908460019594939210610615575b505050811b018555610478565b01517fffffffffffffffffffffffffffffffffffffffffffffffffffffffffffffffff60f88460031b161c19169055878080610608565b929360206001819287860151815501950193016105f2565b909150876000526020600020601f840160051c8101602085106106ad575b90849392915b601f830160051c8201811061069e57505061042f565b60008155859450600101610688565b5080610682565b7f4e487b7100000000000000000000000000000000000000000000000000000000600052604160045260246000fd5b60646040517f08c379a000000000000000000000000000000000000000000000000000000000815260206004820152601660248201527f4369726375697420627265616b657220657869737473000000000000000000006044820152fd5b73ffffffffffffffffffffffffffffffffffffffff82166103495760646040517f08c379a000000000000000000000000000000000000000000000000000000000815260206004820152601660248201527f496e76616c696420706f6c69637920636865636b6572000000000000000000006044820152fd5b60646040517f08c379a000000000000000000000000000000000000000000000000000000000815260206004820152600c60248201527f496e76616c6964206e616d6500000000000000000000000000000000000000006044820152fd5b3461013e576020807ffffffffffffffffffffffffffffffffffffffffffffffffffffffffffffffffc36011261013e5760043560005260048152604060002080549067ffffffffffffffff82116106b45782906040519261087e838260051b01856114d8565b8084528284018092600052836000206000915b8383106109545750505050604051918083019381845251809452604083019360408160051b85010192916000955b8287106108cc5785850386f35b909192938280827fffffffffffffffffffffffffffffffffffffffffffffffffffffffffffffffc0896001950301855287519061092460808351835284840151858401526040840151908060408501528301906115dd565b9173ffffffffffffffffffffffffffffffffffffffff6060809201511691015296019201960195929190926108bf565b600486600192604099989951610969816114bc565b85548152848601548382015261098160028701611519565b604082015273ffffffffffffffffffffffffffffffffffffffff6003870154166060820152815201920192019190959495610891565b3461013e5760407ffffffffffffffffffffffffffffffffffffffffffffffffffffffffffffffffc36011261013e5767ffffffffffffffff60243581811161013e57610a079036906004016116a3565b3360009081527fee57cd81e84075558e8fcc182a1f4393f91fc97f963a136e66b7f949a62f319f60205260409020549092907f97667070c54ef182b0f5858b034beac1b6f3089aa2d3188bb1e8929f4fa9b9299060ff1615610e055750610a6c611aad565b60043560005260036020526040600020610a8c60ff6004830154166116d1565b610aa46101b96005830192600384549101549061179b565b4290556004356000526004602052604060002060405191610ac4836114bc565b42835260208301916004358352610adc36878761183c565b90604085019182523360608601528054680100000000000000008110156106b457610b0c9160018201815561141e565b939093610dd657845184555160018401555180519182116106b457610b346002840154611469565b601f8111610d8b575b50602090601f8311600114610c825760037f07133bc1c184e77bb7d6ca0e9eb5ed2a0aee52c97f275938327ca918ae637bd8969484610c66979573ffffffffffffffffffffffffffffffffffffffff95606095600092610c77575b50507fffffffffffffffffffffffffffffffffffffffffffffffffffffffffffffffff8260011b92851b1c19161760028201555b01920151167fffffffffffffffffffffffff0000000000000000000000000000000000000000825416179055610c00611aad565b60017fffffffffffffffffffffffffffffffffffffffffffffffffffffffffffffff00815416176001557f62e78cea01bee320cd4e420270b5ea74000d11b0c9f74754ebdbfc544b05a2586020604051338152a1604051936040855260408501916118a1565b9133602082015280600435930390a2005b015190508b80610b98565b906002840160005260206000209160005b7fffffffffffffffffffffffffffffffffffffffffffffffffffffffffffffffe085168110610d7357507f07133bc1c184e77bb7d6ca0e9eb5ed2a0aee52c97f275938327ca918ae637bd8969460018573ffffffffffffffffffffffffffffffffffffffff95606095600395837fffffffffffffffffffffffffffffffffffffffffffffffffffffffffffffffe0610c669d9b1610610d3d575b505050811b016002820155610bcc565b01517fffffffffffffffffffffffffffffffffffffffffffffffffffffffffffffffff60f884881b161c191690558b8080610d2d565b91926020600181928685015181550194019201610c93565b600284016000526020600020601f840160051c81019160208510610dcc575b601f0160051c01905b818110610dc05750610b3d565b60008155600101610db3565b9091508190610daa565b7f4e487b7100000000000000000000000000000000000000000000000000000000600052600060045260246000fd5b604490604051907fe2517d3f0000000000000000000000000000000000000000000000000000000082523360048301526024820152fd5b3461013e5760007ffffffffffffffffffffffffffffffffffffffffffffffffffffffffffffffffc36011261013e57602060405160008152f35b3461013e5760007ffffffffffffffffffffffffffffffffffffffffffffffffffffffffffffffffc36011261013e5760206040517face7350211ab645c1937904136ede4855ac3aa1eabb4970e1a51a335d2e199208152f35b3461013e5760207ffffffffffffffffffffffffffffffffffffffffffffffffffffffffffffffffc36011261013e576004356000526003602052604060002060ff60018201541690610f64600282015491600381015460ff600483015416600583015491610f5773ffffffffffffffffffffffffffffffffffffffff60068601541694611519565b9560405197889788611648565b0390f35b3461013e5760407ffffffffffffffffffffffffffffffffffffffffffffffffffffffffffffffffc36011261013e57610f9f6113fb565b600435600052600060205273ffffffffffffffffffffffffffffffffffffffff60406000209116600052602052602060ff604060002054166040519015158152f35b3461013e5760207ffffffffffffffffffffffffffffffffffffffffffffffffffffffffffffffffc36011261013e576004356000526003602052604060002061102981611519565b610f6460ff60018401541692600281015490600381015460ff6004830154169073ffffffffffffffffffffffffffffffffffffffff60066005850154940154169360405197889788611648565b3461013e5760407ffffffffffffffffffffffffffffffffffffffffffffffffffffffffffffffffc36011261013e576024356004356000526004602052604060002090815481101561013e576110cb9161141e565b50805460018201549161111d73ffffffffffffffffffffffffffffffffffffffff60036110fa60028501611519565b9301541691604051948594855260208501526080604085015260808401906115dd565b9060608301520390f35b3461013e5760007ffffffffffffffffffffffffffffffffffffffffffffffffffffffffffffffffc36011261013e57602060ff600154166040519015158152f35b3461013e5760607ffffffffffffffffffffffffffffffffffffffffffffffffffffffffffffffffc36011261013e576004357f4571242b516804cb95f555dff8aa70d9854b73b18f1a9bcfcbb5372a7b5fd47860406024356044356111cb6118e0565b846000526003602052806003846000206111eb60ff6004830154166116d1565b6111f6831515611736565b846002820155015582519182526020820152a2005b3461013e5760407ffffffffffffffffffffffffffffffffffffffffffffffffffffffffffffffffc36011261013e576112426113fb565b3373ffffffffffffffffffffffffffffffffffffffff82160361126b576102a490600435611a0c565b60046040517f6697b232000000000000000000000000000000000000000000000000000000008152fd5b3461013e5760407ffffffffffffffffffffffffffffffffffffffffffffffffffffffffffffffffc36011261013e576102a46004356112d26113fb565b908060005260006020526112ed60016040600020015461193c565b611962565b3461013e5760207ffffffffffffffffffffffffffffffffffffffffffffffffffffffffffffffffc36011261013e5760043560005260006020526020600160406000200154604051908152f35b3461013e5760207ffffffffffffffffffffffffffffffffffffffffffffffffffffffffffffffffc36011261013e57600435907fffffffff00000000000000000000000000000000000000000000000000000000821680920361013e57817f7965db0b00000000000000000000000000000000000000000000000000000000602093149081156113d1575b5015158152f35b7f01ffc9a700000000000000000000000000000000000000000000000000000000915014836113ca565b6024359073ffffffffffffffffffffffffffffffffffffffff8216820361013e57565b805482101561143a5760005260206000209060021b0190600090565b7f4e487b7100000000000000000000000000000000000000000000000000000000600052603260045260246000fd5b90600182811c921680156114b2575b602083101461148357565b7f4e487b7100000000000000000000000000000000000000000000000000000000600052602260045260246000fd5b91607f1691611478565b6080810190811067ffffffffffffffff8211176106b457604052565b90601f7fffffffffffffffffffffffffffffffffffffffffffffffffffffffffffffffe0910116810190811067ffffffffffffffff8211176106b457604052565b9060405191826000825461152c81611469565b9081845260209460019160018116908160001461159c575060011461155d575b50505061155b925003836114d8565b565b600090815285812095935091905b81831061158457505061155b935082010138808061154c565b8554888401850152948501948794509183019161156b565b91505061155b9593507fffffffffffffffffffffffffffffffffffffffffffffffffffffffffffffff0091501682840152151560051b82010138808061154c565b919082519283825260005b8481106116275750507fffffffffffffffffffffffffffffffffffffffffffffffffffffffffffffffe0601f8460006020809697860101520116010190565b6020818301810151848301820152016115e8565b90600582101561058a5752565b95919796929373ffffffffffffffffffffffffffffffffffffffff9461168761167c60c0989460e08b5260e08b01906115dd565b9a60208a019061163b565b604088015260608701521515608086015260a085015216910152565b9181601f8401121561013e5782359167ffffffffffffffff831161013e576020838186019501011161013e57565b156116d857565b60646040517f08c379a000000000000000000000000000000000000000000000000000000000815260206004820152601a60248201527f4369726375697420627265616b6572206e6f74206163746976650000000000006044820152fd5b1561173d57565b60646040517f08c379a000000000000000000000000000000000000000000000000000000000815260206004820152601060248201527f496e76616c696420636f6f6c646f776e000000000000000000000000000000006044820152fd5b919082018092116117a857565b7f4e487b7100000000000000000000000000000000000000000000000000000000600052601160045260246000fd5b156117de57565b60646040517f08c379a000000000000000000000000000000000000000000000000000000000815260206004820152601660248201527f436f6f6c646f776e20706572696f6420616374697665000000000000000000006044820152fd5b92919267ffffffffffffffff82116106b4576040519161188460207fffffffffffffffffffffffffffffffffffffffffffffffffffffffffffffffe0601f84011601846114d8565b82948184528183011161013e578281602093846000960137010152565b601f82602094937fffffffffffffffffffffffffffffffffffffffffffffffffffffffffffffffe0938186528686013760008582860101520116010190565b3360009081527fdd387d6be4b96952c83760ef1abeddbae0c0e935d512451e6222f0ce7cb72cb760205260409020547face7350211ab645c1937904136ede4855ac3aa1eabb4970e1a51a335d2e199209060ff1615610e055750565b80600052600060205260406000203360005260205260ff6040600020541615610e055750565b906000918083528260205273ffffffffffffffffffffffffffffffffffffffff6040842092169182845260205260ff60408420541615600014611a075780835282602052604083208284526020526040832060017fffffffffffffffffffffffffffffffffffffffffffffffffffffffffffffff008254161790557f2f8788117e7eff1d82e926ec794901d17c78024a50270940304540a733656f0d339380a4600190565b505090565b906000918083528260205273ffffffffffffffffffffffffffffffffffffffff6040842092169182845260205260ff604084205416600014611a07578083528260205260408320828452602052604083207fffffffffffffffffffffffffffffffffffffffffffffffffffffffffffffff0081541690557ff6391f5c32d9c69d2a47ea670b442974b53935d1edc7fd64eb21e047a839171b339380a4600190565b60ff60015416611ab957565b60046040517fd93c0665000000000000000000000000000000000000000000000000000000008152fd5b60ff6001541615611af057565b60046040517f8dfc202b000000000000000000000000000000000000000000000000000000008152fdfea2646970667358221220afc32ba02adec5d14590796aedc3d0182ba41deefdd8baa72d8523d5cb2cf5c564736f6c634300081800332f8788117e7eff1d82e926ec794901d17c78024a50270940304540a733656f0d","linkReferences":{}},"methodIdentifiers":{"DEFAULT_ADMIN_ROLE()":"a217fddf","OPERATOR_ROLE()":"f5b541a6","POLICY_ADMIN_ROLE()":"a17620c1","activityLogs(bytes32,uint256)":"7ee44442","circuitBreakers(bytes32)":"84479669","createCircuitBreaker(string,uint8,uint256,uint256,address)":"b8a7cf88","getActivityLogs(bytes32)":"b892b077","getCircuitBreaker(bytes32)":"9cfdd8fc","getRoleAdmin(bytes32)":"248a9ca3","grantRole(bytes32,address)":"2f2ff15d","hasRole(bytes32,address)":"91d14854","paused()":"5c975abb","renounceRole(bytes32,address)":"36568abe","resetCircuitBreaker(bytes32)":"e6271b55","revokeRole(bytes32,address)":"d547741f","supportsInterface(bytes4)":"01ffc9a7","triggerCircuitBreaker(bytes32,string)":"b62d8a69","updateCircuitBreaker(bytes32,uint256,uint256)":"3bdfb87e"},"id":51}