{"abi":[{"type":"constructor","inputs":[{"name":"_registry","type":"address","internalType":"address"}],"stateMutability":"nonpayable"},{"type":"function","name":"activePrivacyGroups","inputs":[{"name":"","type":"bytes32","internalType":"bytes32"}],"outputs":[{"name":"","type":"bool","internalType":"bool"}],"stateMutability":"view"},{"type":"function","name":"besuNodes","inputs":[{"name":"","type":"address","internalType":"address"}],"outputs":[{"name":"nodeAddress","type":"address","internalType":"address"},{"name":"permission","type":"uint8","internalType":"enum Types.BesuPermission"},{"name":"privacyGroup","type":"bytes32","internalType":"bytes32"}],"stateMutability":"view"},{"type":"function","name":"hasAdminPermission","inputs":[{"name":"node","type":"address","internalType":"address"}],"outputs":[{"name":"","type":"bool","internalType":"bool"}],"stateMutability":"view"},{"type":"function","name":"initiateCrossChainSettlement","inputs":[{"name":"railKey","type":"bytes32","internalType":"bytes32"},{"name":"token","type":"address","internalType":"address"},{"name":"from","type":"address","internalType":"address"},{"name":"to","type":"address","internalType":"address"},{"name":"amount","type":"uint256","internalType":"uint256"}],"outputs":[],"stateMutability":"nonpayable"},{"type":"function","name":"owner","inputs":[],"outputs":[{"name":"","type":"address","internalType":"address"}],"stateMutability":"view"},{"type":"function","name":"registerBesuNode","inputs":[{"name":"node","type":"address","internalType":"address"},{"name":"permission","type":"uint8","internalType":"enum Types.BesuPermission"},{"name":"privacyGroup","type":"bytes32","internalType":"bytes32"}],"outputs":[],"stateMutability":"nonpayable"},{"type":"function","name":"registry","inputs":[],"outputs":[{"name":"","type":"address","internalType":"contract RailRegistry"}],"stateMutability":"view"},{"type":"function","name":"renounceOwnership","inputs":[],"outputs":[],"stateMutability":"nonpayable"},{"type":"function","name":"transferOwnership","inputs":[{"name":"newOwner","type":"address","internalType":"address"}],"outputs":[],"stateMutability":"nonpayable"},{"type":"event","name":"BesuNodeRegistered","inputs":[{"name":"node","type":"address","indexed":true,"internalType":"address"},{"name":"permission","type":"uint8","indexed":false,"internalType":"enum Types.BesuPermission"}],"anonymous":false},{"type":"event","name":"CrossChainSettlementInitiated","inputs":[{"name":"railKey","type":"bytes32","indexed":true,"internalType":"bytes32"},{"name":"token","type":"address","indexed":true,"internalType":"address"},{"name":"amount","type":"uint256","indexed":false,"internalType":"uint256"}],"anonymous":false},{"type":"event","name":"OwnershipTransferred","inputs":[{"name":"previousOwner","type":"address","indexed":true,"internalType":"address"},{"name":"newOwner","type":"address","indexed":true,"internalType":"address"}],"anonymous":false},{"type":"event","name":"PrivacyGroupActivated","inputs":[{"name":"groupId","type":"bytes32","indexed":true,"internalType":"bytes32"}],"anonymous":false},{"type":"error","name":"OwnableInvalidOwner","inputs":[{"name":"owner","type":"address","internalType":"address"}]},{"type":"error","name":"OwnableUnauthorizedAccount","inputs":[{"name":"account","type":"address","internalType":"address"}]},{"type":"error","name":"ReentrancyGuardReentrantCall","inputs":[]}],"bytecode":{"object":"0x60a03461010857601f610c8938819003918201601f19168301916001600160401b0383118484101761010d5780849260209460405283398101031261010857516001600160a01b03808216918290036101085733156100ef576000543360018060a01b0319821617600055604051913391167f8be0079c531659141344cd1fd0a4f28419497f9722a3daafe3b4186f6b6457e0600080a36001805581156100c35750608052604051610b65908161012482396080518181816102df01526103c10152f35b62461bcd60e51b81526020600482015260076024820152660554c31423a20360cc1b6044820152606490fd5b604051631e4fbdf760e01b815260006004820152602490fd5b600080fd5b634e487b7160e01b600052604160045260246000fdfe6040608081526004908136101561001557600080fd5b600091823560e01c9081630636f3b21461088f57816320427486146107eb578163715018a61461074c5781637467f37a146103035781637b103999146102945781638da5cb5b14610243578163ed185e2a146101f8578163f2fde38b1461010e575063f6e4c23a1461008657600080fd5b3461010a5760207ffffffffffffffffffffffffffffffffffffffffffffffffffffffffffffffffc36011261010a57908160609273ffffffffffffffffffffffffffffffffffffffff92836100d9610a7a565b1681526002602052209061010560018354930154928251948116855260ff602086019160a01c16610aa2565b820152f35b5080fd5b9050346101f45760207ffffffffffffffffffffffffffffffffffffffffffffffffffffffffffffffffc3601126101f457610147610a7a565b90610150610ade565b73ffffffffffffffffffffffffffffffffffffffff8092169283156101c5575050600054827fffffffffffffffffffffffff0000000000000000000000000000000000000000821617600055167f8be0079c531659141344cd1fd0a4f28419497f9722a3daafe3b4186f6b6457e0600080a380f35b908460249251917f1e4fbdf7000000000000000000000000000000000000000000000000000000008352820152fd5b8280fd5b9050346101f45760207ffffffffffffffffffffffffffffffffffffffffffffffffffffffffffffffffc3601126101f4578160209360ff923581526003855220541690519015158152f35b50503461010a57817ffffffffffffffffffffffffffffffffffffffffffffffffffffffffffffffffc36011261010a5773ffffffffffffffffffffffffffffffffffffffff60209254169051908152f35b50503461010a57817ffffffffffffffffffffffffffffffffffffffffffffffffffffffffffffffffc36011261010a576020905173ffffffffffffffffffffffffffffffffffffffff7f0000000000000000000000000000000000000000000000000000000000000000168152f35b8391503461010a5760a07ffffffffffffffffffffffffffffffffffffffffffffffffffffffffffffffffc36011261010a57803560249384359273ffffffffffffffffffffffffffffffffffffffff918285168095036107485760443591838316809303610744576064359284841680940361074057608435936002600154146107185760026001558351957f8eaa6ac0000000000000000000000000000000000000000000000000000000008752878488015260209687818d81857f0000000000000000000000000000000000000000000000000000000000000000165afa90811561070e579082918c91610671575b501691821561061657338b52600288526001868c20015491865192898401528883528683019167ffffffffffffffff95848410878511176105eb5760e08501848110888211176105c05789528c8452606085019081526080850191825260a08501938a855260c08601958652863b156105bc57928f928f96938a9998959383918f9c989583908f519e8f9b7f08432d57000000000000000000000000000000000000000000000000000000008d528c015251169089015251166044870152511660648501525160848401525160a060a48401528051908160c48501528a855b8381106105a1575050508360e4847fffffffffffffffffffffffffffffffffffffffffffffffffffffffffffffffe0601f858585859886010152011681010301925af1801561059757610554575b505050907fe858ec85b183f7527a3a9e8e25fe9954d1b3700f8c8a029df1bc383cb7347de2929151908152a36001805580f35b829893981161056c5750865294955085878080610521565b8260418a927f4e487b7100000000000000000000000000000000000000000000000000000000835252fd5b84513d8b823e3d90fd5b8083018201518a820160e401528f96508995508c91016104d3565b8e80fd5b8f8f60418b7f4e487b7100000000000000000000000000000000000000000000000000000000835252fd5b8e8e60418a7f4e487b7100000000000000000000000000000000000000000000000000000000835252fd5b60648560148e8b8a51937f08c379a00000000000000000000000000000000000000000000000000000000085528401528201527f554c31423a205261696c206e6f7420666f756e640000000000000000000000006044820152fd5b915050873d8911610707575b7fffffffffffffffffffffffffffffffffffffffffffffffffffffffffffffffe0601f820116820182811067ffffffffffffffff8211176106dc57899183918952810103126106d8575181811681036106d85781908d6103f4565b8a80fd5b8d8d6041897f4e487b7100000000000000000000000000000000000000000000000000000000835252fd5b503d61067d565b86513d8d823e3d90fd5b8284517f3ee5aeb5000000000000000000000000000000000000000000000000000000008152fd5b8780fd5b8680fd5b8580fd5b83346107e857807ffffffffffffffffffffffffffffffffffffffffffffffffffffffffffffffffc3601126107e857610783610ade565b8073ffffffffffffffffffffffffffffffffffffffff81547fffffffffffffffffffffffff000000000000000000000000000000000000000081168355167f8be0079c531659141344cd1fd0a4f28419497f9722a3daafe3b4186f6b6457e08280a380f35b80fd5b905082346107e85760207ffffffffffffffffffffffffffffffffffffffffffffffffffffffffffffffffc3601126107e85773ffffffffffffffffffffffffffffffffffffffff61083a610a7a565b168152600260205260ff8382205460a01c16916003831015610863576020836002865191148152f35b9060216024927f4e487b7100000000000000000000000000000000000000000000000000000000835252fd5b9050346101f45760607ffffffffffffffffffffffffffffffffffffffffffffffffffffffffffffffffc3601126101f4576108c8610a7a565b91602435906003821015610a7657604435936108e2610ade565b8151906060820182811067ffffffffffffffff821117610a4a57835273ffffffffffffffffffffffffffffffffffffffff80911694858352602083019085825284840192888452878a526002602052858a209451169084549251906003821015610a1e57506109f693602096937f67b4b469f0f7de5a884fd6eb965d22d1497168d6fc638a90571ba999c2ecb0a59896937fffffffffffffffffffffff00000000000000000000000000000000000000000074ff000000000000000000000000000000000000000060019560a01b16921617178355519101558688526003845280882060017fffffffffffffffffffffffffffffffffffffffffffffffffffffffffffffff00825416179055518092610aa2565ba27fbf4ac58a89651610cecc904a8a7cfb284acb65def2adc9acb8d672a72ef8ec5d8280a280f35b8a60216024927f4e487b7100000000000000000000000000000000000000000000000000000000835252fd5b6024886041887f4e487b7100000000000000000000000000000000000000000000000000000000835252fd5b8480fd5b6004359073ffffffffffffffffffffffffffffffffffffffff82168203610a9d57565b600080fd5b906003821015610aaf5752565b7f4e487b7100000000000000000000000000000000000000000000000000000000600052602160045260246000fd5b73ffffffffffffffffffffffffffffffffffffffff600054163303610aff57565b60246040517f118cdaa7000000000000000000000000000000000000000000000000000000008152336004820152fdfea264697066735822122005bcf6243c3fd17a18571db9f68fdb57e030d4219d1061d830edd7bf801dc8ae64736f6c63430008180033","linkReferences":{}},"methodIdentifiers":{"activePrivacyGroups(bytes32)":"ed185e2a","besuNodes(address)":"f6e4c23a","hasAdminPermission(address)":"20427486","initiateCrossChainSettlement(bytes32,address,address,address,uint256)":"7467f37a","owner()":"8da5cb5b","registerBesuNode(address,uint8,bytes32)":"0636f3b2","registry()":"7b103999","renounceOwnership()":"715018a6","transferOwnership(address)":"f2fde38b"},"id":17}