{"abi":[{"type":"constructor","inputs":[{"name":"admin","type":"address","internalType":"address"}],"stateMutability":"nonpayable"},{"type":"function","name":"DEFAULT_ADMIN_ROLE","inputs":[],"outputs":[{"name":"","type":"bytes32","internalType":"bytes32"}],"stateMutability":"view"},{"type":"function","name":"approve","inputs":[{"name":"to","type":"address","internalType":"address"},{"name":"tokenId","type":"uint256","internalType":"uint256"}],"outputs":[],"stateMutability":"nonpayable"},{"type":"function","name":"balanceOf","inputs":[{"name":"owner","type":"address","internalType":"address"}],"outputs":[{"name":"","type":"uint256","internalType":"uint256"}],"stateMutability":"view"},{"type":"function","name":"getApproved","inputs":[{"name":"tokenId","type":"uint256","internalType":"uint256"}],"outputs":[{"name":"","type":"address","internalType":"address"}],"stateMutability":"view"},{"type":"function","name":"getRoleAdmin","inputs":[{"name":"role","type":"bytes32","internalType":"bytes32"}],"outputs":[{"name":"","type":"bytes32","internalType":"bytes32"}],"stateMutability":"view"},{"type":"function","name":"grantRole","inputs":[{"name":"role","type":"bytes32","internalType":"bytes32"},{"name":"account","type":"address","internalType":"address"}],"outputs":[],"stateMutability":"nonpayable"},{"type":"function","name":"hasRole","inputs":[{"name":"role","type":"bytes32","internalType":"bytes32"},{"name":"account","type":"address","internalType":"address"}],"outputs":[{"name":"","type":"bool","internalType":"bool"}],"stateMutability":"view"},{"type":"function","name":"isApprovedForAll","inputs":[{"name":"owner","type":"address","internalType":"address"},{"name":"operator","type":"address","internalType":"address"}],"outputs":[{"name":"","type":"bool","internalType":"bool"}],"stateMutability":"view"},{"type":"function","name":"mint","inputs":[{"name":"to","type":"address","internalType":"address"},{"name":"tokenURI_","type":"string","internalType":"string"},{"name":"assetType","type":"bytes32","internalType":"bytes32"},{"name":"jurisdiction","type":"bytes32","internalType":"bytes32"},{"name":"appraisalHash","type":"bytes32","internalType":"bytes32"},{"name":"lienStackHash","type":"bytes32","internalType":"bytes32"}],"outputs":[{"name":"tokenId","type":"uint256","internalType":"uint256"}],"stateMutability":"nonpayable"},{"type":"function","name":"name","inputs":[],"outputs":[{"name":"","type":"string","internalType":"string"}],"stateMutability":"view"},{"type":"function","name":"ownerOf","inputs":[{"name":"tokenId","type":"uint256","internalType":"uint256"}],"outputs":[{"name":"","type":"address","internalType":"address"}],"stateMutability":"view"},{"type":"function","name":"pause","inputs":[],"outputs":[],"stateMutability":"nonpayable"},{"type":"function","name":"paused","inputs":[],"outputs":[{"name":"","type":"bool","internalType":"bool"}],"stateMutability":"view"},{"type":"function","name":"renounceRole","inputs":[{"name":"role","type":"bytes32","internalType":"bytes32"},{"name":"callerConfirmation","type":"address","internalType":"address"}],"outputs":[],"stateMutability":"nonpayable"},{"type":"function","name":"revokeRole","inputs":[{"name":"role","type":"bytes32","internalType":"bytes32"},{"name":"account","type":"address","internalType":"address"}],"outputs":[],"stateMutability":"nonpayable"},{"type":"function","name":"safeTransferFrom","inputs":[{"name":"from","type":"address","internalType":"address"},{"name":"to","type":"address","internalType":"address"},{"name":"tokenId","type":"uint256","internalType":"uint256"}],"outputs":[],"stateMutability":"nonpayable"},{"type":"function","name":"safeTransferFrom","inputs":[{"name":"from","type":"address","internalType":"address"},{"name":"to","type":"address","internalType":"address"},{"name":"tokenId","type":"uint256","internalType":"uint256"},{"name":"data","type":"bytes","internalType":"bytes"}],"outputs":[],"stateMutability":"nonpayable"},{"type":"function","name":"setApprovalForAll","inputs":[{"name":"operator","type":"address","internalType":"address"},{"name":"approved","type":"bool","internalType":"bool"}],"outputs":[],"stateMutability":"nonpayable"},{"type":"function","name":"setLocked","inputs":[{"name":"tokenId","type":"uint256","internalType":"uint256"},{"name":"on","type":"bool","internalType":"bool"}],"outputs":[],"stateMutability":"nonpayable"},{"type":"function","name":"supportsInterface","inputs":[{"name":"iid","type":"bytes4","internalType":"bytes4"}],"outputs":[{"name":"","type":"bool","internalType":"bool"}],"stateMutability":"view"},{"type":"function","name":"symbol","inputs":[],"outputs":[{"name":"","type":"string","internalType":"string"}],"stateMutability":"view"},{"type":"function","name":"tokenURI","inputs":[{"name":"tokenId","type":"uint256","internalType":"uint256"}],"outputs":[{"name":"","type":"string","internalType":"string"}],"stateMutability":"view"},{"type":"function","name":"transferFrom","inputs":[{"name":"from","type":"address","internalType":"address"},{"name":"to","type":"address","internalType":"address"},{"name":"tokenId","type":"uint256","internalType":"uint256"}],"outputs":[],"stateMutability":"nonpayable"},{"type":"function","name":"unpause","inputs":[],"outputs":[],"stateMutability":"nonpayable"},{"type":"function","name":"updateMeta","inputs":[{"name":"tokenId","type":"uint256","internalType":"uint256"},{"name":"appraisalHash","type":"bytes32","internalType":"bytes32"},{"name":"lienStackHash","type":"bytes32","internalType":"bytes32"}],"outputs":[],"stateMutability":"nonpayable"},{"type":"function","name":"vaults","inputs":[{"name":"","type":"uint256","internalType":"uint256"}],"outputs":[{"name":"assetType","type":"bytes32","internalType":"bytes32"},{"name":"jurisdiction","type":"bytes32","internalType":"bytes32"},{"name":"appraisalHash","type":"bytes32","internalType":"bytes32"},{"name":"lienStackHash","type":"bytes32","internalType":"bytes32"},{"name":"locked","type":"bool","internalType":"bool"}],"stateMutability":"view"},{"type":"event","name":"Approval","inputs":[{"name":"owner","type":"address","indexed":true,"internalType":"address"},{"name":"approved","type":"address","indexed":true,"internalType":"address"},{"name":"tokenId","type":"uint256","indexed":true,"internalType":"uint256"}],"anonymous":false},{"type":"event","name":"ApprovalForAll","inputs":[{"name":"owner","type":"address","indexed":true,"internalType":"address"},{"name":"operator","type":"address","indexed":true,"internalType":"address"},{"name":"approved","type":"bool","indexed":false,"internalType":"bool"}],"anonymous":false},{"type":"event","name":"BatchMetadataUpdate","inputs":[{"name":"_fromTokenId","type":"uint256","indexed":false,"internalType":"uint256"},{"name":"_toTokenId","type":"uint256","indexed":false,"internalType":"uint256"}],"anonymous":false},{"type":"event","name":"Locked","inputs":[{"name":"tokenId","type":"uint256","indexed":true,"internalType":"uint256"},{"name":"locked","type":"bool","indexed":false,"internalType":"bool"}],"anonymous":false},{"type":"event","name":"MetaUpdated","inputs":[{"name":"tokenId","type":"uint256","indexed":true,"internalType":"uint256"},{"name":"appraisalHash","type":"bytes32","indexed":false,"internalType":"bytes32"},{"name":"lienStackHash","type":"bytes32","indexed":false,"internalType":"bytes32"}],"anonymous":false},{"type":"event","name":"MetadataUpdate","inputs":[{"name":"_tokenId","type":"uint256","indexed":false,"internalType":"uint256"}],"anonymous":false},{"type":"event","name":"Paused","inputs":[{"name":"account","type":"address","indexed":false,"internalType":"address"}],"anonymous":false},{"type":"event","name":"RoleAdminChanged","inputs":[{"name":"role","type":"bytes32","indexed":true,"internalType":"bytes32"},{"name":"previousAdminRole","type":"bytes32","indexed":true,"internalType":"bytes32"},{"name":"newAdminRole","type":"bytes32","indexed":true,"internalType":"bytes32"}],"anonymous":false},{"type":"event","name":"RoleGranted","inputs":[{"name":"role","type":"bytes32","indexed":true,"internalType":"bytes32"},{"name":"account","type":"address","indexed":true,"internalType":"address"},{"name":"sender","type":"address","indexed":true,"internalType":"address"}],"anonymous":false},{"type":"event","name":"RoleRevoked","inputs":[{"name":"role","type":"bytes32","indexed":true,"internalType":"bytes32"},{"name":"account","type":"address","indexed":true,"internalType":"address"},{"name":"sender","type":"address","indexed":true,"internalType":"address"}],"anonymous":false},{"type":"event","name":"Transfer","inputs":[{"name":"from","type":"address","indexed":true,"internalType":"address"},{"name":"to","type":"address","indexed":true,"internalType":"address"},{"name":"tokenId","type":"uint256","indexed":true,"internalType":"uint256"}],"anonymous":false},{"type":"event","name":"Unpaused","inputs":[{"name":"account","type":"address","indexed":false,"internalType":"address"}],"anonymous":false},{"type":"event","name":"VaultMinted","inputs":[{"name":"tokenId","type":"uint256","indexed":true,"internalType":"uint256"},{"name":"to","type":"address","indexed":false,"internalType":"address"},{"name":"assetType","type":"bytes32","indexed":false,"internalType":"bytes32"},{"name":"jurisdiction","type":"bytes32","indexed":false,"internalType":"bytes32"}],"anonymous":false},{"type":"error","name":"AccessControlBadConfirmation","inputs":[]},{"type":"error","name":"AccessControlUnauthorizedAccount","inputs":[{"name":"account","type":"address","internalType":"address"},{"name":"neededRole","type":"bytes32","internalType":"bytes32"}]},{"type":"error","name":"ERC721IncorrectOwner","inputs":[{"name":"sender","type":"address","internalType":"address"},{"name":"tokenId","type":"uint256","internalType":"uint256"},{"name":"owner","type":"address","internalType":"address"}]},{"type":"error","name":"ERC721InsufficientApproval","inputs":[{"name":"operator","type":"address","internalType":"address"},{"name":"tokenId","type":"uint256","internalType":"uint256"}]},{"type":"error","name":"ERC721InvalidApprover","inputs":[{"name":"approver","type":"address","internalType":"address"}]},{"type":"error","name":"ERC721InvalidOperator","inputs":[{"name":"operator","type":"address","internalType":"address"}]},{"type":"error","name":"ERC721InvalidOwner","inputs":[{"name":"owner","type":"address","internalType":"address"}]},{"type":"error","name":"ERC721InvalidReceiver","inputs":[{"name":"receiver","type":"address","internalType":"address"}]},{"type":"error","name":"ERC721InvalidSender","inputs":[{"name":"sender","type":"address","internalType":"address"}]},{"type":"error","name":"ERC721NonexistentToken","inputs":[{"name":"tokenId","type":"uint256","internalType":"uint256"}]},{"type":"error","name":"EnforcedPause","inputs":[]},{"type":"error","name":"ExpectedPause","inputs":[]}],"bytecode":{"object":"0x6080346200037657601f1990601f906001600160401b03620028d53881900384810186168401838111858210176200036057849282916040528339602093849181010312620003765751926001600160a01b03841684036200037657620000656200037b565b9260098452681495d04815985d5b1d60ba1b81850152620000856200037b565b9060078252661495d04b55931560ca1b8183015284519684881162000360576000978854966001978881811c9116801562000355575b858210146200034157908187849311620002ee575b5084908783116001146200028d578b9262000281575b5050600019600383901b1c191690871b1788555b82519485116200026d5785548681811c9116801562000262575b838210146200024e5784811162000206575b50819385116001146200019d57505090829162000180969262000191575b5050600019600383901b1c191690821b1790555b60ff19600854166008556200016d816200039b565b5062000179816200043e565b50620004dc565b5060405161233a90816200057b8239f35b01519050388062000144565b8588528188209497908816915b828210620001ee575050918493918762000180989410620001d4575b505050811b01905562000158565b015160001960f88460031b161c19169055388080620001c6565b808786978294978701518155019601940190620001aa565b8689528289208580880160051c82019285891062000244575b0160051c019087905b8281106200023857505062000126565b8a815501879062000228565b925081926200021f565b634e487b7160e01b89526022600452602489fd5b90607f169062000114565b634e487b7160e01b88526041600452602488fd5b015190503880620000e6565b90848a9416918c8052868d20928d5b88828210620002d75750508411620002bd575b505050811b018855620000fa565b015160001960f88460031b161c19169055388080620002af565b8385015186558d979095019493840193016200029c565b9091508a8052848b208780850160051c82019287861062000337575b918b91869594930160051c01915b82811062000328575050620000d0565b8d81558594508b910162000318565b925081926200030a565b634e487b7160e01b8b52602260045260248bfd5b90607f1690620000bb565b634e487b7160e01b600052604160045260246000fd5b600080fd5b60408051919082016001600160401b038111838210176200036057604052565b6001600160a01b031660008181527f1970715d775088bdd82c491967377f9a1c75f161dafcdfb627233956ceb59f4860205260408120549091907fdf8b4c520ffe197c5343c6f5aec59570151ef9a492f2c624fd45ddde6135ec429060ff16620004395780835260076020526040832082845260205260408320600160ff19825416179055600080516020620028b5833981519152339380a4600190565b505090565b6001600160a01b031660008181527fe8558604033ad3dba9946672972c04942717a158db0d83df02e81cf671309a1b60205260408120549091907f76afa8a5929fef1b4c03674b2152ae5aaad1d974b8a4021c59477bcc846ccc1e9060ff16620004395780835260076020526040832082845260205260408320600160ff19825416179055600080516020620028b5833981519152339380a4600190565b6001600160a01b031660008181527facd6f2d2c7ba1b8f9664c720c36e9d05ba3b4eb34e7b5df45169ba2eeb92550360205260408120549091907f8b5b16d04624687fcf0d0228f19993c9157c1ed07b41d8d430fd9100eb099fe89060ff16620004395780835260076020526040832082845260205260408320600160ff19825416179055600080516020620028b5833981519152339380a460019056fe608080604052600436101561001357600080fd5b60003560e01c90816301ffc9a7146117fe5750806306fdde0314611735578063081812fc146116cb578063095ea7b31461156d5780630a3cc989146114b957806323b872dd146114a2578063248a9ca3146114555780632f2ff15d146113f857806336568abe1461136e578063383a389f14610a765780633f4ba83a146109b857806342842e0e1461098a5780635c975abb146109495780636352211e146108ef57806370a08231146108535780638456cb59146107bd5780638c64ea4a1461074257806391d14854146106c957806395d89b41146105aa578063a217fddf14610570578063a22cb46514610464578063b88d4fde146103db578063c87b56dd146102ab578063d547741f1461024c578063e5080783146101c45763e985e9c51461013d57600080fd5b346101bf5760407ffffffffffffffffffffffffffffffffffffffffffffffffffffffffffffffffc3601126101bf576101746119af565b61017c6119d2565b9073ffffffffffffffffffffffffffffffffffffffff809116600052600560205260406000209116600052602052602060ff604060002054166040519015158152f35b600080fd5b346101bf5760607ffffffffffffffffffffffffffffffffffffffffffffffffffffffffffffffffc3601126101bf576004357f13da2219b706f76a1c07a1ab5ade2e25383c004e373aa693fc5df7fde9164dbb6040602435604435610227611ed4565b84600052600a60205280600384600020846002820155015582519182526020820152a2005b346101bf5760407ffffffffffffffffffffffffffffffffffffffffffffffffffffffffffffffffc3601126101bf576102a96004356102896119d2565b908060005260076020526102a4600160406000200154611f8c565b61205e565b005b346101bf576020807ffffffffffffffffffffffffffffffffffffffffffffffffffffffffffffffffc3601126101bf576004356102e781611e73565b506000526006815260406000209060405191826000825461030781611b32565b938484526001918660018216918260001461039a57505060011461035b575b505061033492500383611a80565b600060405161034281611a64565b52610357604051928284938452830190611951565b0390f35b85925060005281600020906000915b85831061038257505061033493508201018580610326565b8054838901850152879450869390920191810161036a565b915093506103349592507fffffffffffffffffffffffffffffffffffffffffffffffffffffffffffffff0091501682840152151560051b8201018580610326565b346101bf5760807ffffffffffffffffffffffffffffffffffffffffffffffffffffffffffffffffc3601126101bf576104126119af565b61041a6119d2565b906044356064359267ffffffffffffffff84116101bf57366023850112156101bf576104536102a9943690602481600401359101611afb565b9261045f838383611b85565b612137565b346101bf5760407ffffffffffffffffffffffffffffffffffffffffffffffffffffffffffffffffc3601126101bf5761049b6119af565b73ffffffffffffffffffffffffffffffffffffffff6104b86119f5565b911690811561053f5733600052600560205260406000208260005260205261050f8160406000209060ff7fffffffffffffffffffffffffffffffffffffffffffffffffffffffffffffff0083541691151516179055565b60405190151581527f17307eab39ab6107e8899845ad3d59bd9653f200f220920489ca2b5937696c3160203392a3005b602482604051907f5b08ba180000000000000000000000000000000000000000000000000000000082526004820152fd5b346101bf5760007ffffffffffffffffffffffffffffffffffffffffffffffffffffffffffffffffc3601126101bf57602060405160008152f35b346101bf5760007ffffffffffffffffffffffffffffffffffffffffffffffffffffffffffffffffc3601126101bf576040516000600182600154926105ee84611b32565b928383526020948560018216918260001461068b57505060011461062e575b5061061a92500383611a80565b610357604051928284938452830190611951565b84915060016000527fb10e2d527612073b26eecdfd717e6a320cf44b4afac2b0732d9fcbe2b7fa0cf6906000915b85831061067357505061061a93508201018561060d565b8054838901850152879450869390920191810161065c565b7fffffffffffffffffffffffffffffffffffffffffffffffffffffffffffffff00168582015261061a95151560051b850101925087915061060d9050565b346101bf5760407ffffffffffffffffffffffffffffffffffffffffffffffffffffffffffffffffc3601126101bf576107006119d2565b600435600052600760205273ffffffffffffffffffffffffffffffffffffffff60406000209116600052602052602060ff604060002054166040519015158152f35b346101bf5760207ffffffffffffffffffffffffffffffffffffffffffffffffffffffffffffffffc3601126101bf57600435600052600a60205260a06040600020805490600181015490600281015460ff60046003840154930154169260405194855260208501526040840152606083015215156080820152f35b346101bf5760007ffffffffffffffffffffffffffffffffffffffffffffffffffffffffffffffffc3601126101bf576107f4611f30565b6107fc612101565b60017fffffffffffffffffffffffffffffffffffffffffffffffffffffffffffffff0060085416176008557f62e78cea01bee320cd4e420270b5ea74000d11b0c9f74754ebdbfc544b05a2586020604051338152a1005b346101bf5760207ffffffffffffffffffffffffffffffffffffffffffffffffffffffffffffffffc3601126101bf5773ffffffffffffffffffffffffffffffffffffffff61089f6119af565b1680156108be5760005260036020526020604060002054604051908152f35b60246040517f89c62b6400000000000000000000000000000000000000000000000000000000815260006004820152fd5b346101bf5760207ffffffffffffffffffffffffffffffffffffffffffffffffffffffffffffffffc3601126101bf57602061092b600435611e73565b73ffffffffffffffffffffffffffffffffffffffff60405191168152f35b346101bf5760007ffffffffffffffffffffffffffffffffffffffffffffffffffffffffffffffffc3601126101bf57602060ff600854166040519015158152f35b346101bf576102a961099b36611a04565b90604051926109a984611a64565b6000845261045f838383611b85565b346101bf5760007ffffffffffffffffffffffffffffffffffffffffffffffffffffffffffffffffc3601126101bf576109ef611f30565b60085460ff811615610a4c577fffffffffffffffffffffffffffffffffffffffffffffffffffffffffffffff00166008557f5db9ee0a495bf2e6ff9c91a7834c1ba4fdd244a5e8aa4e537bd38aeae4b073aa6020604051338152a1005b60046040517f8dfc202b000000000000000000000000000000000000000000000000000000008152fd5b346101bf5760c07ffffffffffffffffffffffffffffffffffffffffffffffffffffffffffffffffc3601126101bf57610aad6119af565b67ffffffffffffffff602435116101bf573660236024350112156101bf5767ffffffffffffffff60243560040135116101bf5736602480356004013581350101116101bf573360009081527fe8558604033ad3dba9946672972c04942717a158db0d83df02e81cf671309a1b60205260409020547f76afa8a5929fef1b4c03674b2152ae5aaad1d974b8a4021c59477bcc846ccc1e9060ff16156113375750610b54612101565b600954907fffffffffffffffffffffffffffffffffffffffffffffffffffffffffffffffff82146113085760018201600955604051610b9281611a64565b6000815273ffffffffffffffffffffffffffffffffffffffff8216156112d757610bba612101565b60018301600052600a60205260ff60046040600020015416611243575b60018301600052600260205273ffffffffffffffffffffffffffffffffffffffff6040600020541680151590816111ce575b73ffffffffffffffffffffffffffffffffffffffff84166000526003602052604060002060018154019055600185016000526002602052604060002073ffffffffffffffffffffffffffffffffffffffff85167fffffffffffffffffffffffff0000000000000000000000000000000000000000825416179055600185019073ffffffffffffffffffffffffffffffffffffffff8516907fddf252ad1be2c89b69c2b068fc378daa952ba7f163c4a11628f55a4df523b3ef600080a461119d57813b610fc2575b50610ce636602435600401356024803501611afb565b916001810160005260066020526040600020835167ffffffffffffffff8111610ea257610d138254611b32565b601f8111610f7e575b50602094601f8211600114610edc57948192939495600092610ed1575b50507fffffffffffffffffffffffffffffffffffffffffffffffffffffffffffffffff8260011b9260031b1c19161790555b7ff8e1a15aba9398e019f0b49df1a4fde98ee17ae345cb5f6b5e2c27f5033e8ce76020604051600184018152a16040519160a0830183811067ffffffffffffffff821117610ea257602093610e4391604052604435815260048582016064358152604083016084358152606084019060a435825260808501926000845260018901600052600a8a5260406000209551865551600186015551600285015551600384015551151591019060ff7fffffffffffffffffffffffffffffffffffffffffffffffffffffffffffffff0083541691151516179055565b73ffffffffffffffffffffffffffffffffffffffff604051911681526044358382015260643560408201527f768f88d0f3996420632b10363ea15a43a5b40c28d567f1720e14d998c80aa43360606001840192a2600160405191018152f35b7f4e487b7100000000000000000000000000000000000000000000000000000000600052604160045260246000fd5b015190508580610d39565b7fffffffffffffffffffffffffffffffffffffffffffffffffffffffffffffffe08216958360005260206000209160005b888110610f6657508360019596979810610f2f575b505050811b019055610d6b565b01517fffffffffffffffffffffffffffffffffffffffffffffffffffffffffffffffff60f88460031b161c19169055858080610f22565b91926020600181928685015181550194019201610f0d565b826000526020600020601f830160051c810160208410610fbb575b601f830160051c82018110610faf575050610d1c565b60008155600101610f99565b5080610f99565b604051602081806110187f150b7a02000000000000000000000000000000000000000000000000000000009586835233600484015260006024840152600189016044840152608060648401526084830190611951565b0381600073ffffffffffffffffffffffffffffffffffffffff88165af160009181611140575b506110cc57823d156110c4573d9061105582611ac1565b916110636040519384611a80565b82523d6000602084013e5b815191826110bd5760248273ffffffffffffffffffffffffffffffffffffffff604051917f64a0ae92000000000000000000000000000000000000000000000000000000008352166004820152fd5b9050602001fd5b60609061106e565b7fffffffff0000000000000000000000000000000000000000000000000000000016036110f95782610cd0565b60249073ffffffffffffffffffffffffffffffffffffffff604051917f64a0ae92000000000000000000000000000000000000000000000000000000008352166004820152fd5b9091506020813d602011611195575b8161115c60209383611a80565b810103126101bf57517fffffffff00000000000000000000000000000000000000000000000000000000811681036101bf57908561103e565b3d915061114f565b60246040517f73c6ac6e00000000000000000000000000000000000000000000000000000000815260006004820152fd5b61120a60018601600052600460205260406000207fffffffffffffffffffffffff00000000000000000000000000000000000000008154169055565b80600052600360205260406000207fffffffffffffffffffffffffffffffffffffffffffffffffffffffffffffffff8154019055610c09565b3360009081527f1970715d775088bdd82c491967377f9a1c75f161dafcdfb627233956ceb59f48602052604090205460ff16610bd75760646040517f08c379a000000000000000000000000000000000000000000000000000000000815260206004820152600660248201527f6c6f636b656400000000000000000000000000000000000000000000000000006044820152fd5b60246040517f64a0ae9200000000000000000000000000000000000000000000000000000000815260006004820152fd5b7f4e487b7100000000000000000000000000000000000000000000000000000000600052601160045260246000fd5b604490604051907fe2517d3f0000000000000000000000000000000000000000000000000000000082523360048301526024820152fd5b346101bf5760407ffffffffffffffffffffffffffffffffffffffffffffffffffffffffffffffffc3601126101bf576113a56119d2565b3373ffffffffffffffffffffffffffffffffffffffff8216036113ce576102a99060043561205e565b60046040517f6697b232000000000000000000000000000000000000000000000000000000008152fd5b346101bf5760407ffffffffffffffffffffffffffffffffffffffffffffffffffffffffffffffffc3601126101bf576102a96004356114356119d2565b90806000526007602052611450600160406000200154611f8c565b611fb2565b346101bf5760207ffffffffffffffffffffffffffffffffffffffffffffffffffffffffffffffffc3601126101bf5760043560005260076020526020600160406000200154604051908152f35b346101bf576102a96114b336611a04565b91611b85565b346101bf5760407ffffffffffffffffffffffffffffffffffffffffffffffffffffffffffffffffc3601126101bf576004357f8ed24f7d0c11ab2eef7f3d98a2a8f258a2469819af7e11fe564938715d01e2e560206115166119f5565b61151e611ed4565b83600052600a82526115628160046040600020019060ff7fffffffffffffffffffffffffffffffffffffffffffffffffffffffffffffff0083541691151516179055565b6040519015158152a2005b346101bf5760407ffffffffffffffffffffffffffffffffffffffffffffffffffffffffffffffffc3601126101bf576115a46119af565b6024356115b081611e73565b331515806116ab575b80611670575b61164057819073ffffffffffffffffffffffffffffffffffffffff809416938491167f8c5be1e5ebec7d5bd14f71427d1e84f3dd0314c0f7b2291e5b200ac8c7c3b925600080a460005260046020526040600020907fffffffffffffffffffffffff0000000000000000000000000000000000000000825416179055600080f35b60246040517fa9fbf51f000000000000000000000000000000000000000000000000000000008152336004820152fd5b5073ffffffffffffffffffffffffffffffffffffffff8116600052600560205260406000203360005260205260ff60406000205416156115bf565b503373ffffffffffffffffffffffffffffffffffffffff821614156115b9565b346101bf5760207ffffffffffffffffffffffffffffffffffffffffffffffffffffffffffffffffc3601126101bf5760043561170681611e73565b506000526004602052602073ffffffffffffffffffffffffffffffffffffffff60406000205416604051908152f35b346101bf5760007ffffffffffffffffffffffffffffffffffffffffffffffffffffffffffffffffc3601126101bf5760405160008054908261177683611b32565b918282526020936001908560018216918260001461068b5750506001146117a4575061061a92500383611a80565b6000808052859250907f290decd9548b62a8d60345a988386fc84ba6bc95484008f6362f93160ef3e5635b8583106117e657505061061a93508201018561060d565b805483890185015287945086939092019181016117cf565b346101bf5760207ffffffffffffffffffffffffffffffffffffffffffffffffffffffffffffffffc3601126101bf57600435907fffffffff0000000000000000000000000000000000000000000000000000000082168092036101bf57817f7965db0b0000000000000000000000000000000000000000000000000000000060209314908115611890575b5015158152f35b7f49064906000000000000000000000000000000000000000000000000000000008114915081156118c3575b5083611889565b7f80ac58cd00000000000000000000000000000000000000000000000000000000811491508115611927575b81156118fd575b50836118bc565b7f01ffc9a700000000000000000000000000000000000000000000000000000000915014836118f6565b7f5b5e139f00000000000000000000000000000000000000000000000000000000811491506118ef565b919082519283825260005b84811061199b5750507fffffffffffffffffffffffffffffffffffffffffffffffffffffffffffffffe0601f8460006020809697860101520116010190565b60208183018101518483018201520161195c565b6004359073ffffffffffffffffffffffffffffffffffffffff821682036101bf57565b6024359073ffffffffffffffffffffffffffffffffffffffff821682036101bf57565b6024359081151582036101bf57565b7ffffffffffffffffffffffffffffffffffffffffffffffffffffffffffffffffc60609101126101bf5773ffffffffffffffffffffffffffffffffffffffff9060043582811681036101bf579160243590811681036101bf579060443590565b6020810190811067ffffffffffffffff821117610ea257604052565b90601f7fffffffffffffffffffffffffffffffffffffffffffffffffffffffffffffffe0910116810190811067ffffffffffffffff821117610ea257604052565b67ffffffffffffffff8111610ea257601f017fffffffffffffffffffffffffffffffffffffffffffffffffffffffffffffffe01660200190565b929192611b0782611ac1565b91611b156040519384611a80565b8294818452818301116101bf578281602093846000960137010152565b90600182811c92168015611b7b575b6020831014611b4c57565b7f4e487b7100000000000000000000000000000000000000000000000000000000600052602260045260246000fd5b91607f1691611b41565b9173ffffffffffffffffffffffffffffffffffffffff8092169283156112d757611bad612101565b600092828452602091600a83528360049660409460ff89878a20015416611dd1575b8288526002815284868920541697889133151580611d0c575b509060027fddf252ad1be2c89b69c2b068fc378daa952ba7f163c4a11628f55a4df523b3ef9284611c9e575b858352600381528983206001815401905586835252878120847fffffffffffffffffffffffff000000000000000000000000000000000000000082541617905580a41690818403611c66575050505050565b6064955051937f64283d7b00000000000000000000000000000000000000000000000000000000855284015260248301526044820152fd5b611cd787600052600460205260406000207fffffffffffffffffffffffff00000000000000000000000000000000000000008154169055565b848352600381528983207fffffffffffffffffffffffffffffffffffffffffffffffffffffffffffffffff8154019055611c14565b91939450915080611d91575b15611d2857869291889138611be8565b8589888a611d5d5760249251917f7e273289000000000000000000000000000000000000000000000000000000008352820152fd5b60449251917f177e802f00000000000000000000000000000000000000000000000000000000835233908301526024820152fd5b503388148015611db5575b80611d1857508682528881523385878420541614611d18565b5087825260058152858220338352815260ff8683205416611d9c565b9091507fdf8b4c520ffe197c5343c6f5aec59570151ef9a492f2c624fd45ddde6135ec42875260078152848720338852815260ff858820541615611e1757908591611bcf565b876064918651917f08c379a0000000000000000000000000000000000000000000000000000000008352820152600660248201527f6c6f636b656400000000000000000000000000000000000000000000000000006044820152fd5b80600052600260205273ffffffffffffffffffffffffffffffffffffffff60406000205416908115611ea3575090565b602490604051907f7e2732890000000000000000000000000000000000000000000000000000000082526004820152fd5b3360009081527f1970715d775088bdd82c491967377f9a1c75f161dafcdfb627233956ceb59f4860205260409020547fdf8b4c520ffe197c5343c6f5aec59570151ef9a492f2c624fd45ddde6135ec429060ff16156113375750565b3360009081527facd6f2d2c7ba1b8f9664c720c36e9d05ba3b4eb34e7b5df45169ba2eeb92550360205260409020547f8b5b16d04624687fcf0d0228f19993c9157c1ed07b41d8d430fd9100eb099fe89060ff16156113375750565b80600052600760205260406000203360005260205260ff60406000205416156113375750565b90600091808352600760205273ffffffffffffffffffffffffffffffffffffffff6040842092169182845260205260ff60408420541615600014612059578083526007602052604083208284526020526040832060017fffffffffffffffffffffffffffffffffffffffffffffffffffffffffffffff008254161790557f2f8788117e7eff1d82e926ec794901d17c78024a50270940304540a733656f0d339380a4600190565b505090565b90600091808352600760205273ffffffffffffffffffffffffffffffffffffffff6040842092169182845260205260ff60408420541660001461205957808352600760205260408320828452602052604083207fffffffffffffffffffffffffffffffffffffffffffffffffffffffffffffff0081541690557ff6391f5c32d9c69d2a47ea670b442974b53935d1edc7fd64eb21e047a839171b339380a4600190565b60ff6008541661210d57565b60046040517fd93c0665000000000000000000000000000000000000000000000000000000008152fd5b813b612144575b50505050565b73ffffffffffffffffffffffffffffffffffffffff949192939480931693604051937f150b7a020000000000000000000000000000000000000000000000000000000092838652336004870152166024850152604484015260806064840152826121b46020966084830190611951565b039285816000958187895af18491816122a8575b50612240575050503d600014612238573d6121e281611ac1565b906121f06040519283611a80565b81528091843d92013e5b8051928361223357602483604051907f64a0ae920000000000000000000000000000000000000000000000000000000082526004820152fd5b019050fd5b5060606121fa565b9092507fffffffff00000000000000000000000000000000000000000000000000000000919450160361227757503880808061213e565b602490604051907f64a0ae920000000000000000000000000000000000000000000000000000000082526004820152fd5b9091508681813d83116122fd575b6122c08183611a80565b810103126122f957517fffffffff00000000000000000000000000000000000000000000000000000000811681036122f95790386121c8565b8480fd5b503d6122b656fea2646970667358221220a25cec2dda61ff9a9588ed5fd705e1839e242ce603c5a04bdc80e802e99ddfd564736f6c634300081800332f8788117e7eff1d82e926ec794901d17c78024a50270940304540a733656f0d","linkReferences":{}},"methodIdentifiers":{"DEFAULT_ADMIN_ROLE()":"a217fddf","approve(address,uint256)":"095ea7b3","balanceOf(address)":"70a08231","getApproved(uint256)":"081812fc","getRoleAdmin(bytes32)":"248a9ca3","grantRole(bytes32,address)":"2f2ff15d","hasRole(bytes32,address)":"91d14854","isApprovedForAll(address,address)":"e985e9c5","mint(address,string,bytes32,bytes32,bytes32,bytes32)":"383a389f","name()":"06fdde03","ownerOf(uint256)":"6352211e","pause()":"8456cb59","paused()":"5c975abb","renounceRole(bytes32,address)":"36568abe","revokeRole(bytes32,address)":"d547741f","safeTransferFrom(address,address,uint256)":"42842e0e","safeTransferFrom(address,address,uint256,bytes)":"b88d4fde","setApprovalForAll(address,bool)":"a22cb465","setLocked(uint256,bool)":"0a3cc989","supportsInterface(bytes4)":"01ffc9a7","symbol()":"95d89b41","tokenURI(uint256)":"c87b56dd","transferFrom(address,address,uint256)":"23b872dd","unpause()":"3f4ba83a","updateMeta(uint256,bytes32,bytes32)":"e5080783","vaults(uint256)":"8c64ea4a"},"id":25}