{"abi":[{"type":"constructor","inputs":[{"name":"admin","type":"address","internalType":"address"}],"stateMutability":"nonpayable"},{"type":"function","name":"DEFAULT_ADMIN_ROLE","inputs":[],"outputs":[{"name":"","type":"bytes32","internalType":"bytes32"}],"stateMutability":"view"},{"type":"function","name":"getRoleAdmin","inputs":[{"name":"role","type":"bytes32","internalType":"bytes32"}],"outputs":[{"name":"","type":"bytes32","internalType":"bytes32"}],"stateMutability":"view"},{"type":"function","name":"grantRole","inputs":[{"name":"role","type":"bytes32","internalType":"bytes32"},{"name":"account","type":"address","internalType":"address"}],"outputs":[],"stateMutability":"nonpayable"},{"type":"function","name":"hasQuorum","inputs":[{"name":"reserveId","type":"bytes32","internalType":"bytes32"}],"outputs":[{"name":"","type":"bool","internalType":"bool"}],"stateMutability":"view"},{"type":"function","name":"hasRole","inputs":[{"name":"role","type":"bytes32","internalType":"bytes32"},{"name":"account","type":"address","internalType":"address"}],"outputs":[{"name":"","type":"bool","internalType":"bool"}],"stateMutability":"view"},{"type":"function","name":"latest","inputs":[{"name":"reserveId","type":"bytes32","internalType":"bytes32"}],"outputs":[{"name":"ok","type":"tuple","internalType":"struct IAttestationOracle.ReserveReport","components":[{"name":"reserveId","type":"bytes32","internalType":"bytes32"},{"name":"timestamp","type":"uint256","internalType":"uint256"},{"name":"totalLiabilities","type":"uint256","internalType":"uint256"},{"name":"totalReserves","type":"uint256","internalType":"uint256"},{"name":"uri","type":"string","internalType":"string"},{"name":"auditorSig","type":"bytes","internalType":"bytes"}]},{"name":"exists","type":"bool","internalType":"bool"}],"stateMutability":"view"},{"type":"function","name":"renounceRole","inputs":[{"name":"role","type":"bytes32","internalType":"bytes32"},{"name":"callerConfirmation","type":"address","internalType":"address"}],"outputs":[],"stateMutability":"nonpayable"},{"type":"function","name":"revokeRole","inputs":[{"name":"role","type":"bytes32","internalType":"bytes32"},{"name":"account","type":"address","internalType":"address"}],"outputs":[],"stateMutability":"nonpayable"},{"type":"function","name":"setQuorum","inputs":[{"name":"reserveId","type":"bytes32","internalType":"bytes32"},{"name":"threshold","type":"uint8","internalType":"uint8"},{"name":"signers","type":"address[]","internalType":"address[]"}],"outputs":[],"stateMutability":"nonpayable"},{"type":"function","name":"submit","inputs":[{"name":"rr","type":"tuple","internalType":"struct IAttestationOracle.ReserveReport","components":[{"name":"reserveId","type":"bytes32","internalType":"bytes32"},{"name":"timestamp","type":"uint256","internalType":"uint256"},{"name":"totalLiabilities","type":"uint256","internalType":"uint256"},{"name":"totalReserves","type":"uint256","internalType":"uint256"},{"name":"uri","type":"string","internalType":"string"},{"name":"auditorSig","type":"bytes","internalType":"bytes"}]},{"name":"signersApproved","type":"address[]","internalType":"address[]"}],"outputs":[],"stateMutability":"nonpayable"},{"type":"function","name":"supportsInterface","inputs":[{"name":"interfaceId","type":"bytes4","internalType":"bytes4"}],"outputs":[{"name":"","type":"bool","internalType":"bool"}],"stateMutability":"view"},{"type":"event","name":"QuorumSet","inputs":[{"name":"reserveId","type":"bytes32","indexed":true,"internalType":"bytes32"},{"name":"threshold","type":"uint8","indexed":false,"internalType":"uint8"},{"name":"signers","type":"address[]","indexed":false,"internalType":"address[]"}],"anonymous":false},{"type":"event","name":"ReportSubmitted","inputs":[{"name":"reserveId","type":"bytes32","indexed":true,"internalType":"bytes32"},{"name":"timestamp","type":"uint256","indexed":false,"internalType":"uint256"},{"name":"liabilities","type":"uint256","indexed":false,"internalType":"uint256"},{"name":"reserves","type":"uint256","indexed":false,"internalType":"uint256"},{"name":"uri","type":"string","indexed":false,"internalType":"string"}],"anonymous":false},{"type":"event","name":"RoleAdminChanged","inputs":[{"name":"role","type":"bytes32","indexed":true,"internalType":"bytes32"},{"name":"previousAdminRole","type":"bytes32","indexed":true,"internalType":"bytes32"},{"name":"newAdminRole","type":"bytes32","indexed":true,"internalType":"bytes32"}],"anonymous":false},{"type":"event","name":"RoleGranted","inputs":[{"name":"role","type":"bytes32","indexed":true,"internalType":"bytes32"},{"name":"account","type":"address","indexed":true,"internalType":"address"},{"name":"sender","type":"address","indexed":true,"internalType":"address"}],"anonymous":false},{"type":"event","name":"RoleRevoked","inputs":[{"name":"role","type":"bytes32","indexed":true,"internalType":"bytes32"},{"name":"account","type":"address","indexed":true,"internalType":"address"},{"name":"sender","type":"address","indexed":true,"internalType":"address"}],"anonymous":false},{"type":"error","name":"AccessControlBadConfirmation","inputs":[]},{"type":"error","name":"AccessControlUnauthorizedAccount","inputs":[{"name":"account","type":"address","internalType":"address"},{"name":"neededRole","type":"bytes32","internalType":"bytes32"}]}],"bytecode":{"object":"0x60803461007457601f620015ad38819003918201601f19168301916001600160401b038311848410176100795780849260209460405283398101031261007457516001600160a01b0381168103610074578061005d6100639261008f565b50610130565b506040516113c09081620001cd8239f35b600080fd5b634e487b7160e01b600052604160045260246000fd5b6001600160a01b031660008181527f5cbfc8ee58ca47855df7bcf648dd304ddb6b932f9b87878bdf6318d7ec7ee5b760205260408120549091907fdf8b4c520ffe197c5343c6f5aec59570151ef9a492f2c624fd45ddde6135ec429060ff1661012b57808352826020526040832082845260205260408320600160ff198254161790556000805160206200158d833981519152339380a4600190565b505090565b6001600160a01b031660008181527f56e5822e13686eaa5c46cfa39933133a22208a18ec41a20857fad3e26619a2a860205260408120549091907f352d05fe3946dbe49277552ba941e744d5a96d9c60bc1ba0ea5f1d3ae000f7c89060ff1661012b57808352826020526040832082845260205260408320600160ff198254161790556000805160206200158d833981519152339380a460019056fe608080604052600436101561001357600080fd5b60003560e01c90816301ffc9a714610e38575080630e9b1dfb14610841578063248a9ca3146107f4578063296a8eff146104435780632f2ff15d146103e657806336568abe1461035c57806379feb107146101fe57806391d1485414610185578063a217fddf1461014b578063bfcdc55e146100fc5763d547741f1461009857600080fd5b346100f75760407ffffffffffffffffffffffffffffffffffffffffffffffffffffffffffffffffc3601126100f7576100f56004356100d5610f25565b908060005260006020526100f0600160406000200154611219565b6112e9565b005b600080fd5b346100f75760207ffffffffffffffffffffffffffffffffffffffffffffffffffffffffffffffffc3601126100f7576004356000526002602052602060ff604060002054161515604051908152f35b346100f75760007ffffffffffffffffffffffffffffffffffffffffffffffffffffffffffffffffc3601126100f757602060405160008152f35b346100f75760407ffffffffffffffffffffffffffffffffffffffffffffffffffffffffffffffffc3601126100f7576101bc610f25565b600435600052600060205273ffffffffffffffffffffffffffffffffffffffff60406000209116600052602052602060ff604060002054166040519015158152f35b346100f75760207ffffffffffffffffffffffffffffffffffffffffffffffffffffffffffffffffc3601126100f757606060a060405161023d81611108565b60008152600060208201526000604082015260008382015282608082015201526004356000526001602052604060002060405161027981611108565b81548152600182015491602082019283526103526005610321600284015493604086019485526003810154606087019081526102e1604051926102ca846102c38160048501611165565b0385611124565b608089019384526102c36040518097819301611165565b60a08701938452875115159560405198899860408a525160408a01525160608901525160808801525160a08701525160c080870152610100860190610f48565b90517fffffffffffffffffffffffffffffffffffffffffffffffffffffffffffffffc08583030160e0860152610f48565b9060208301520390f35b346100f75760407ffffffffffffffffffffffffffffffffffffffffffffffffffffffffffffffffc3601126100f757610393610f25565b3373ffffffffffffffffffffffffffffffffffffffff8216036103bc576100f5906004356112e9565b60046040517f6697b232000000000000000000000000000000000000000000000000000000008152fd5b346100f75760407ffffffffffffffffffffffffffffffffffffffffffffffffffffffffffffffffc3601126100f7576100f5600435610423610f25565b9080600052600060205261043e600160406000200154611219565b61123f565b346100f75760607ffffffffffffffffffffffffffffffffffffffffffffffffffffffffffffffffc3601126100f75760043560243560ff81168091036100f75767ffffffffffffffff6044358181116100f7576104a4903690600401610ef4565b3360009081527f5cbfc8ee58ca47855df7bcf648dd304ddb6b932f9b87878bdf6318d7ec7ee5b760209081526040909120549293927fdf8b4c520ffe197c5343c6f5aec59570151ef9a492f2c624fd45ddde6135ec429060ff16156107bd5750841515806107b3575b156107555785600052600281526040600020926000936001948592838084019260028501955b6106ec575b505085116106bd576801000000000000000085116106bd5780548582558086106106a0575b50869594939590600052856000209060005b858110610680575050507fffffffffffffffffffffffffffffffffffffffffffffffffffffffffffffff0090878282541617905560005b838110610635575050508060405195604087019087526040858801525260608501939260005b8281106105fc57877f26156b49492fd8c6d2f06dbc04b5a5e7bd1994b8fdaf45d4bc2a9b3b74575ef988880389a2005b909192939485359073ffffffffffffffffffffffffffffffffffffffff82168092036100f75790815282019482019392919083016105cc565b938473ffffffffffffffffffffffffffffffffffffffff61066261065d8798859a988c610fa6565b610fe5565b166000528385526040600020828482541617905501949392946105a6565b95879596819861068f84610fe5565b93019281850155019695949661056f565b6106b79082600052868660002091820191016110aa565b8961055d565b7f4e487b7100000000000000000000000000000000000000000000000000000000600052604160045260246000fd5b83548110156107505781908460005273ffffffffffffffffffffffffffffffffffffffff818960002001541660005286885260406000207fffffffffffffffffffffffffffffffffffffffffffffffffffffffffffffff0081541690550181610533565b610538565b606490604051907f08c379a00000000000000000000000000000000000000000000000000000000082526004820152600a60248201527f6261642071756f72756d000000000000000000000000000000000000000000006044820152fd5b508185111561050d565b604490604051907fe2517d3f0000000000000000000000000000000000000000000000000000000082523360048301526024820152fd5b346100f75760207ffffffffffffffffffffffffffffffffffffffffffffffffffffffffffffffffc3601126100f75760043560005260006020526020600160406000200154604051908152f35b346100f7577ffffffffffffffffffffffffffffffffffffffffffffffffffffffffffffffffc6040813601126100f75767ffffffffffffffff600435116100f75760c090600435360301126100f75760243567ffffffffffffffff81116100f7576108b0903690600401610ef4565b3360009081527f56e5822e13686eaa5c46cfa39933133a22208a18ec41a20857fad3e26619a2a8602052604090205460ff907f352d05fe3946dbe49277552ba941e744d5a96d9c60bc1ba0ea5f1d3ae000f7c8908216156107bd575060043560040135600052600260205260406000209060ff825416938415610dda5791600093600260009201915b818110610d3a57868610610cdc57600435600401356000526001602052604060002060043560040135815560246004350135600182015560446004350135600282015560646004350135600382015561099c608460043501600435600401611006565b919067ffffffffffffffff83116106bd576109c7836109be6004850154611057565b600485016110c1565b600090601f8411600114610c10579280610a1892600595600092610c05575b50507fffffffffffffffffffffffffffffffffffffffffffffffffffffffffffffffff8260011b9260031b1c19161790565b60048201555b01610a3360a460043501600435600401611006565b67ffffffffffffffff81939293116106bd57610a5981610a538454611057565b846110c1565b6000601f8211600114610b64578190610aa69394600092610b595750507fffffffffffffffffffffffffffffffffffffffffffffffffffffffffffffffff8260011b9260031b1c19161790565b90555b7f2c10f6d97187b26af528400ec603fd96b0f99a882b762aa0d16c3c9551ffee32610ade608460043501600435600401611006565b919082604051916024600435013583526044600435013560208401526064600435013560408401526080606084015281608084015260a0830137600060a0848301015260a0817fffffffffffffffffffffffffffffffffffffffffffffffffffffffffffffffe0601f600435600401359601168101030190a2005b0135905084806109e6565b7fffffffffffffffffffffffffffffffffffffffffffffffffffffffffffffffe08216938360005260206000209160005b868110610bed5750836001959610610bb5575b505050811b019055610aa9565b7fffffffffffffffffffffffffffffffffffffffffffffffffffffffffffffffff60f88560031b161c19910135169055838080610ba8565b90926020600181928686013581550194019101610b95565b0135905085806109e6565b6004830160005260206000209160005b7fffffffffffffffffffffffffffffffffffffffffffffffffffffffffffffffe086168110610cc45750918491600193837fffffffffffffffffffffffffffffffffffffffffffffffffffffffffffffffe06005981610610c8c575b505050811b016004820155610a1e565b7fffffffffffffffffffffffffffffffffffffffffffffffffffffffffffffffff60f88560031b161c19910135169055848080610c7c565b90926020600181928686013581550194019101610c20565b60646040517f08c379a000000000000000000000000000000000000000000000000000000000815260206004820152600b60248201527f71756f72756d206661696c0000000000000000000000000000000000000000006044820152fd5b73ffffffffffffffffffffffffffffffffffffffff610d5d61065d838589610fa6565b16600052826020528360406000205416610d7a575b600101610939565b947fffffffffffffffffffffffffffffffffffffffffffffffffffffffffffffffff8114610dab5760010194610d72565b7f4e487b7100000000000000000000000000000000000000000000000000000000600052601160045260246000fd5b60646040517f08c379a000000000000000000000000000000000000000000000000000000000815260206004820152600960248201527f6e6f2071756f72756d00000000000000000000000000000000000000000000006044820152fd5b346100f75760207ffffffffffffffffffffffffffffffffffffffffffffffffffffffffffffffffc3601126100f757600435907fffffffff0000000000000000000000000000000000000000000000000000000082168092036100f757817f7965db0b0000000000000000000000000000000000000000000000000000000060209314908115610eca575b5015158152f35b7f01ffc9a70000000000000000000000000000000000000000000000000000000091501483610ec3565b9181601f840112156100f75782359167ffffffffffffffff83116100f7576020808501948460051b0101116100f757565b6024359073ffffffffffffffffffffffffffffffffffffffff821682036100f757565b919082519283825260005b848110610f925750507fffffffffffffffffffffffffffffffffffffffffffffffffffffffffffffffe0601f8460006020809697860101520116010190565b602081830181015184830182015201610f53565b9190811015610fb65760051b0190565b7f4e487b7100000000000000000000000000000000000000000000000000000000600052603260045260246000fd5b3573ffffffffffffffffffffffffffffffffffffffff811681036100f75790565b9035907fffffffffffffffffffffffffffffffffffffffffffffffffffffffffffffffe1813603018212156100f7570180359067ffffffffffffffff82116100f7576020019181360383136100f757565b90600182811c921680156110a0575b602083101461107157565b7f4e487b7100000000000000000000000000000000000000000000000000000000600052602260045260246000fd5b91607f1691611066565b8181106110b5575050565b600081556001016110aa565b9190601f81116110d057505050565b6110fc926000526020600020906020601f840160051c830193106110fe575b601f0160051c01906110aa565b565b90915081906110ef565b60c0810190811067ffffffffffffffff8211176106bd57604052565b90601f7fffffffffffffffffffffffffffffffffffffffffffffffffffffffffffffffe0910116810190811067ffffffffffffffff8211176106bd57604052565b80546000939261117482611057565b918282526020936001916001811690816000146111dc575060011461119b575b5050505050565b90939495506000929192528360002092846000945b8386106111c857505050500101903880808080611194565b8054858701830152940193859082016111b0565b7fffffffffffffffffffffffffffffffffffffffffffffffffffffffffffffff00168685015250505090151560051b010191503880808080611194565b80600052600060205260406000203360005260205260ff60406000205416156107bd5750565b906000918083528260205273ffffffffffffffffffffffffffffffffffffffff6040842092169182845260205260ff604084205416156000146112e45780835282602052604083208284526020526040832060017fffffffffffffffffffffffffffffffffffffffffffffffffffffffffffffff008254161790557f2f8788117e7eff1d82e926ec794901d17c78024a50270940304540a733656f0d339380a4600190565b505090565b906000918083528260205273ffffffffffffffffffffffffffffffffffffffff6040842092169182845260205260ff6040842054166000146112e4578083528260205260408320828452602052604083207fffffffffffffffffffffffffffffffffffffffffffffffffffffffffffffff0081541690557ff6391f5c32d9c69d2a47ea670b442974b53935d1edc7fd64eb21e047a839171b339380a460019056fea26469706673582212204426cc59c4135690592e9afd810bbc163ced8cf9688a23f60b82af8711f199d864736f6c634300081800332f8788117e7eff1d82e926ec794901d17c78024a50270940304540a733656f0d","linkReferences":{}},"methodIdentifiers":{"DEFAULT_ADMIN_ROLE()":"a217fddf","getRoleAdmin(bytes32)":"248a9ca3","grantRole(bytes32,address)":"2f2ff15d","hasQuorum(bytes32)":"bfcdc55e","hasRole(bytes32,address)":"91d14854","latest(bytes32)":"79feb107","renounceRole(bytes32,address)":"36568abe","revokeRole(bytes32,address)":"d547741f","setQuorum(bytes32,uint8,address[])":"296a8eff","submit((bytes32,uint256,uint256,uint256,string,bytes),address[])":"0e9b1dfb","supportsInterface(bytes4)":"01ffc9a7"},"id":20}