{
  "_format": "hh-sol-artifact-1",
  "contractName": "ComplianceRegistryUpgradeable",
  "sourceName": "contracts/compliance/ComplianceRegistryUpgradeable.sol",
  "abi": [
    {
      "inputs": [],
      "name": "AccessControlBadConfirmation",
      "type": "error"
    },
    {
      "inputs": [
        {
          "internalType": "address",
          "name": "account",
          "type": "address"
        },
        {
          "internalType": "bytes32",
          "name": "neededRole",
          "type": "bytes32"
        }
      ],
      "name": "AccessControlUnauthorizedAccount",
      "type": "error"
    },
    {
      "inputs": [
        {
          "internalType": "address",
          "name": "target",
          "type": "address"
        }
      ],
      "name": "AddressEmptyCode",
      "type": "error"
    },
    {
      "inputs": [
        {
          "internalType": "address",
          "name": "implementation",
          "type": "address"
        }
      ],
      "name": "ERC1967InvalidImplementation",
      "type": "error"
    },
    {
      "inputs": [],
      "name": "ERC1967NonPayable",
      "type": "error"
    },
    {
      "inputs": [],
      "name": "FailedCall",
      "type": "error"
    },
    {
      "inputs": [],
      "name": "InvalidInitialization",
      "type": "error"
    },
    {
      "inputs": [],
      "name": "NotInitializing",
      "type": "error"
    },
    {
      "inputs": [],
      "name": "UUPSUnauthorizedCallContext",
      "type": "error"
    },
    {
      "inputs": [
        {
          "internalType": "bytes32",
          "name": "slot",
          "type": "bytes32"
        }
      ],
      "name": "UUPSUnsupportedProxiableUUID",
      "type": "error"
    },
    {
      "anonymous": false,
      "inputs": [
        {
          "indexed": true,
          "internalType": "address",
          "name": "user",
          "type": "address"
        },
        {
          "indexed": false,
          "internalType": "bool",
          "name": "ok",
          "type": "bool"
        }
      ],
      "name": "AllowlistSet",
      "type": "event"
    },
    {
      "anonymous": false,
      "inputs": [
        {
          "indexed": false,
          "internalType": "uint64",
          "name": "version",
          "type": "uint64"
        }
      ],
      "name": "Initialized",
      "type": "event"
    },
    {
      "anonymous": false,
      "inputs": [
        {
          "indexed": true,
          "internalType": "bytes32",
          "name": "id",
          "type": "bytes32"
        },
        {
          "components": [
            {
              "internalType": "bool",
              "name": "allowUS",
              "type": "bool"
            },
            {
              "internalType": "bool",
              "name": "allowEU",
              "type": "bool"
            },
            {
              "internalType": "bool",
              "name": "allowSG",
              "type": "bool"
            },
            {
              "internalType": "bool",
              "name": "allowUK",
              "type": "bool"
            },
            {
              "internalType": "bool",
              "name": "regD506c",
              "type": "bool"
            },
            {
              "internalType": "bool",
              "name": "regS",
              "type": "bool"
            },
            {
              "internalType": "bool",
              "name": "micaART",
              "type": "bool"
            },
            {
              "internalType": "bool",
              "name": "micaEMT",
              "type": "bool"
            },
            {
              "internalType": "bool",
              "name": "proOnly",
              "type": "bool"
            },
            {
              "internalType": "bool",
              "name": "travelRuleRequired",
              "type": "bool"
            }
          ],
          "indexed": false,
          "internalType": "struct ComplianceRegistryUpgradeable.Policy",
          "name": "p",
          "type": "tuple"
        }
      ],
      "name": "PolicySet",
      "type": "event"
    },
    {
      "anonymous": false,
      "inputs": [
        {
          "indexed": true,
          "internalType": "address",
          "name": "user",
          "type": "address"
        },
        {
          "components": [
            {
              "internalType": "bool",
              "name": "kyc",
              "type": "bool"
            },
            {
              "internalType": "bool",
              "name": "accredited",
              "type": "bool"
            },
            {
              "internalType": "uint64",
              "name": "kycAsOf",
              "type": "uint64"
            },
            {
              "internalType": "uint64",
              "name": "kycExpiry",
              "type": "uint64"
            },
            {
              "internalType": "bytes2",
              "name": "isoCountry",
              "type": "bytes2"
            },
            {
              "internalType": "bool",
              "name": "frozen",
              "type": "bool"
            }
          ],
          "indexed": false,
          "internalType": "struct ComplianceRegistryUpgradeable.Profile",
          "name": "prof",
          "type": "tuple"
        }
      ],
      "name": "ProfileSet",
      "type": "event"
    },
    {
      "anonymous": false,
      "inputs": [
        {
          "indexed": true,
          "internalType": "bytes32",
          "name": "role",
          "type": "bytes32"
        },
        {
          "indexed": true,
          "internalType": "bytes32",
          "name": "previousAdminRole",
          "type": "bytes32"
        },
        {
          "indexed": true,
          "internalType": "bytes32",
          "name": "newAdminRole",
          "type": "bytes32"
        }
      ],
      "name": "RoleAdminChanged",
      "type": "event"
    },
    {
      "anonymous": false,
      "inputs": [
        {
          "indexed": true,
          "internalType": "bytes32",
          "name": "role",
          "type": "bytes32"
        },
        {
          "indexed": true,
          "internalType": "address",
          "name": "account",
          "type": "address"
        },
        {
          "indexed": true,
          "internalType": "address",
          "name": "sender",
          "type": "address"
        }
      ],
      "name": "RoleGranted",
      "type": "event"
    },
    {
      "anonymous": false,
      "inputs": [
        {
          "indexed": true,
          "internalType": "bytes32",
          "name": "role",
          "type": "bytes32"
        },
        {
          "indexed": true,
          "internalType": "address",
          "name": "account",
          "type": "address"
        },
        {
          "indexed": true,
          "internalType": "address",
          "name": "sender",
          "type": "address"
        }
      ],
      "name": "RoleRevoked",
      "type": "event"
    },
    {
      "anonymous": false,
      "inputs": [
        {
          "indexed": true,
          "internalType": "address",
          "name": "implementation",
          "type": "address"
        }
      ],
      "name": "Upgraded",
      "type": "event"
    },
    {
      "inputs": [],
      "name": "ADMIN_ROLE",
      "outputs": [
        {
          "internalType": "bytes32",
          "name": "",
          "type": "bytes32"
        }
      ],
      "stateMutability": "view",
      "type": "function"
    },
    {
      "inputs": [],
      "name": "ATTESTOR_ROLE",
      "outputs": [
        {
          "internalType": "bytes32",
          "name": "",
          "type": "bytes32"
        }
      ],
      "stateMutability": "view",
      "type": "function"
    },
    {
      "inputs": [],
      "name": "DEFAULT_ADMIN_ROLE",
      "outputs": [
        {
          "internalType": "bytes32",
          "name": "",
          "type": "bytes32"
        }
      ],
      "stateMutability": "view",
      "type": "function"
    },
    {
      "inputs": [],
      "name": "UPGRADE_INTERFACE_VERSION",
      "outputs": [
        {
          "internalType": "string",
          "name": "",
          "type": "string"
        }
      ],
      "stateMutability": "view",
      "type": "function"
    },
    {
      "inputs": [
        {
          "internalType": "address",
          "name": "",
          "type": "address"
        }
      ],
      "name": "allowlist",
      "outputs": [
        {
          "internalType": "bool",
          "name": "",
          "type": "bool"
        }
      ],
      "stateMutability": "view",
      "type": "function"
    },
    {
      "inputs": [
        {
          "internalType": "address",
          "name": "user",
          "type": "address"
        },
        {
          "internalType": "bytes32",
          "name": "policyId",
          "type": "bytes32"
        }
      ],
      "name": "canHold",
      "outputs": [
        {
          "internalType": "bool",
          "name": "",
          "type": "bool"
        }
      ],
      "stateMutability": "view",
      "type": "function"
    },
    {
      "inputs": [
        {
          "internalType": "bytes32",
          "name": "role",
          "type": "bytes32"
        }
      ],
      "name": "getRoleAdmin",
      "outputs": [
        {
          "internalType": "bytes32",
          "name": "",
          "type": "bytes32"
        }
      ],
      "stateMutability": "view",
      "type": "function"
    },
    {
      "inputs": [
        {
          "internalType": "bytes32",
          "name": "role",
          "type": "bytes32"
        },
        {
          "internalType": "address",
          "name": "account",
          "type": "address"
        }
      ],
      "name": "grantRole",
      "outputs": [],
      "stateMutability": "nonpayable",
      "type": "function"
    },
    {
      "inputs": [
        {
          "internalType": "bytes32",
          "name": "role",
          "type": "bytes32"
        },
        {
          "internalType": "address",
          "name": "account",
          "type": "address"
        }
      ],
      "name": "hasRole",
      "outputs": [
        {
          "internalType": "bool",
          "name": "",
          "type": "bool"
        }
      ],
      "stateMutability": "view",
      "type": "function"
    },
    {
      "inputs": [
        {
          "internalType": "address",
          "name": "admin",
          "type": "address"
        }
      ],
      "name": "initialize",
      "outputs": [],
      "stateMutability": "nonpayable",
      "type": "function"
    },
    {
      "inputs": [
        {
          "internalType": "bytes32",
          "name": "",
          "type": "bytes32"
        }
      ],
      "name": "policies",
      "outputs": [
        {
          "internalType": "bool",
          "name": "allowUS",
          "type": "bool"
        },
        {
          "internalType": "bool",
          "name": "allowEU",
          "type": "bool"
        },
        {
          "internalType": "bool",
          "name": "allowSG",
          "type": "bool"
        },
        {
          "internalType": "bool",
          "name": "allowUK",
          "type": "bool"
        },
        {
          "internalType": "bool",
          "name": "regD506c",
          "type": "bool"
        },
        {
          "internalType": "bool",
          "name": "regS",
          "type": "bool"
        },
        {
          "internalType": "bool",
          "name": "micaART",
          "type": "bool"
        },
        {
          "internalType": "bool",
          "name": "micaEMT",
          "type": "bool"
        },
        {
          "internalType": "bool",
          "name": "proOnly",
          "type": "bool"
        },
        {
          "internalType": "bool",
          "name": "travelRuleRequired",
          "type": "bool"
        }
      ],
      "stateMutability": "view",
      "type": "function"
    },
    {
      "inputs": [
        {
          "internalType": "address",
          "name": "",
          "type": "address"
        }
      ],
      "name": "profiles",
      "outputs": [
        {
          "internalType": "bool",
          "name": "kyc",
          "type": "bool"
        },
        {
          "internalType": "bool",
          "name": "accredited",
          "type": "bool"
        },
        {
          "internalType": "uint64",
          "name": "kycAsOf",
          "type": "uint64"
        },
        {
          "internalType": "uint64",
          "name": "kycExpiry",
          "type": "uint64"
        },
        {
          "internalType": "bytes2",
          "name": "isoCountry",
          "type": "bytes2"
        },
        {
          "internalType": "bool",
          "name": "frozen",
          "type": "bool"
        }
      ],
      "stateMutability": "view",
      "type": "function"
    },
    {
      "inputs": [],
      "name": "proxiableUUID",
      "outputs": [
        {
          "internalType": "bytes32",
          "name": "",
          "type": "bytes32"
        }
      ],
      "stateMutability": "view",
      "type": "function"
    },
    {
      "inputs": [
        {
          "internalType": "bytes32",
          "name": "role",
          "type": "bytes32"
        },
        {
          "internalType": "address",
          "name": "callerConfirmation",
          "type": "address"
        }
      ],
      "name": "renounceRole",
      "outputs": [],
      "stateMutability": "nonpayable",
      "type": "function"
    },
    {
      "inputs": [
        {
          "internalType": "bytes32",
          "name": "role",
          "type": "bytes32"
        },
        {
          "internalType": "address",
          "name": "account",
          "type": "address"
        }
      ],
      "name": "revokeRole",
      "outputs": [],
      "stateMutability": "nonpayable",
      "type": "function"
    },
    {
      "inputs": [
        {
          "internalType": "address",
          "name": "user",
          "type": "address"
        },
        {
          "internalType": "bool",
          "name": "ok",
          "type": "bool"
        }
      ],
      "name": "setAllowlist",
      "outputs": [],
      "stateMutability": "nonpayable",
      "type": "function"
    },
    {
      "inputs": [
        {
          "internalType": "bytes32",
          "name": "id",
          "type": "bytes32"
        },
        {
          "components": [
            {
              "internalType": "bool",
              "name": "allowUS",
              "type": "bool"
            },
            {
              "internalType": "bool",
              "name": "allowEU",
              "type": "bool"
            },
            {
              "internalType": "bool",
              "name": "allowSG",
              "type": "bool"
            },
            {
              "internalType": "bool",
              "name": "allowUK",
              "type": "bool"
            },
            {
              "internalType": "bool",
              "name": "regD506c",
              "type": "bool"
            },
            {
              "internalType": "bool",
              "name": "regS",
              "type": "bool"
            },
            {
              "internalType": "bool",
              "name": "micaART",
              "type": "bool"
            },
            {
              "internalType": "bool",
              "name": "micaEMT",
              "type": "bool"
            },
            {
              "internalType": "bool",
              "name": "proOnly",
              "type": "bool"
            },
            {
              "internalType": "bool",
              "name": "travelRuleRequired",
              "type": "bool"
            }
          ],
          "internalType": "struct ComplianceRegistryUpgradeable.Policy",
          "name": "p",
          "type": "tuple"
        }
      ],
      "name": "setPolicy",
      "outputs": [],
      "stateMutability": "nonpayable",
      "type": "function"
    },
    {
      "inputs": [
        {
          "internalType": "address",
          "name": "user",
          "type": "address"
        },
        {
          "components": [
            {
              "internalType": "bool",
              "name": "kyc",
              "type": "bool"
            },
            {
              "internalType": "bool",
              "name": "accredited",
              "type": "bool"
            },
            {
              "internalType": "uint64",
              "name": "kycAsOf",
              "type": "uint64"
            },
            {
              "internalType": "uint64",
              "name": "kycExpiry",
              "type": "uint64"
            },
            {
              "internalType": "bytes2",
              "name": "isoCountry",
              "type": "bytes2"
            },
            {
              "internalType": "bool",
              "name": "frozen",
              "type": "bool"
            }
          ],
          "internalType": "struct ComplianceRegistryUpgradeable.Profile",
          "name": "prof",
          "type": "tuple"
        }
      ],
      "name": "setProfile",
      "outputs": [],
      "stateMutability": "nonpayable",
      "type": "function"
    },
    {
      "inputs": [
        {
          "internalType": "bytes4",
          "name": "interfaceId",
          "type": "bytes4"
        }
      ],
      "name": "supportsInterface",
      "outputs": [
        {
          "internalType": "bool",
          "name": "",
          "type": "bool"
        }
      ],
      "stateMutability": "view",
      "type": "function"
    },
    {
      "inputs": [
        {
          "internalType": "address",
          "name": "newImplementation",
          "type": "address"
        },
        {
          "internalType": "bytes",
          "name": "data",
          "type": "bytes"
        }
      ],
      "name": "upgradeToAndCall",
      "outputs": [],
      "stateMutability": "payable",
      "type": "function"
    }
  ],
  "bytecode": "0x60a06040523060805234801561001457600080fd5b5060805161190361003e60003960008181610cd501528181610cfe0152610e4901526119036000f3fe60806040526004361061011f5760003560e01c806391d14854116100a0578063b12527f811610064578063b12527f81461034a578063bbe156271461036a578063c4d66de81461041e578063d547741f1461043e578063ddbfd8ef1461045e57600080fd5b806391d1485414610287578063a217fddf146102a7578063a7cd52cb146102bc578063aac507d6146102ec578063ad3cb1cc1461030c57600080fd5b80634f1ef286116100e75780634f1ef286146101e95780634f4d0bae146101fc57806352d1902d1461021c578063627236441461023157806375b238fc1461026557600080fd5b806301ffc9a714610124578063248a9ca3146101595780632e72ce53146101875780632f2ff15d146101a757806336568abe146101c9575b600080fd5b34801561013057600080fd5b5061014461013f366004611107565b610546565b60405190151581526020015b60405180910390f35b34801561016557600080fd5b50610179610174366004611131565b61057d565b604051908152602001610150565b34801561019357600080fd5b506101446101a2366004611166565b61059f565b3480156101b357600080fd5b506101c76101c2366004611190565b61081e565b005b3480156101d557600080fd5b506101c76101e4366004611190565b610840565b6101c76101f73660046111d2565b610878565b34801561020857600080fd5b506101c7610217366004611294565b610897565b34801561022857600080fd5b5061017961092e565b34801561023d57600080fd5b506101797fa7e0cd0f2772b23ee4c329892293a6bd99d48c306b094d6d008c9a8bb8b731e481565b34801561027157600080fd5b506101796000805160206118ae83398151915281565b34801561029357600080fd5b506101446102a2366004611190565b61094b565b3480156102b357600080fd5b50610179600081565b3480156102c857600080fd5b506101446102d73660046112d3565b60026020526000908152604090205460ff1681565b3480156102f857600080fd5b506101c76103073660046112ee565b610983565b34801561031857600080fd5b5061033d604051806040016040528060058152602001640352e302e360dc1b81525081565b604051610150919061133e565b34801561035657600080fd5b506101c761036536600461138a565b6109e8565b34801561037657600080fd5b506103d56103853660046112d3565b60016020526000908152604090205460ff80821691610100810482169167ffffffffffffffff620100008304811692600160501b810490911691600160901b820460f01b91600160a01b90041686565b604080519615158752941515602087015267ffffffffffffffff93841694860194909452911660608401526001600160f01b0319166080830152151560a082015260c001610150565b34801561042a57600080fd5b506101c76104393660046112d3565b610a58565b34801561044a57600080fd5b506101c7610459366004611190565b610b80565b34801561046a57600080fd5b506104ec610479366004611131565b60006020819052908152604090205460ff80821691610100810482169162010000820481169163010000008104821691640100000000820481169165010000000000810482169166010000000000008204811691600160381b8104821691600160401b8204811691600160481b9004168a565b604080519a15158b5298151560208b01529615159789019790975293151560608801529115156080870152151560a0860152151560c0850152151560e0840152901515610100830152151561012082015261014001610150565b60006001600160e01b03198216637965db0b60e01b148061057757506301ffc9a760e01b6001600160e01b03198316145b92915050565b600090815260008051602061188e833981519152602052604090206001015490565b6001600160a01b03821660009081526002602052604081205460ff16156105c857506001610577565b600082815260208181526040808320815161014081018352905460ff80821615158352610100808304821615158487015262010000808404831615158587015263010000008404831615156060808701919091526401000000008504841615156080808801919091526501000000000086048516151560a080890191909152660100000000000087048616151560c0808a0191909152600160381b88048716151560e08a0152600160401b880487161515868a0152600160481b909704861615156101208901526001600160a01b038e168b5260018a5299889020885196870189525480861615158752938404851615159886019890985267ffffffffffffffff918304821696850196909652600160501b820416948301949094526001600160f01b0319600160901b850460f01b1694820194909452600160a01b909204909216151592810183905290918061071e57508051155b1561072e57600092505050610577565b606081015167ffffffffffffffff16158015906107585750806060015167ffffffffffffffff1642115b1561076857600092505050610577565b60808101516001600160f01b03191661aaad60f01b0161079357815161079357600092505050610577565b60808101516001600160f01b031916615c5f60f11b016107c15781606001516107c157600092505050610577565b60808101516001600160f01b03191661acb960f01b016107ef5781604001516107ef57600092505050610577565b816101000151801561080357508060200151155b1561081357600092505050610577565b506001949350505050565b6108278261057d565b61083081610b9c565b61083a8383610ba9565b50505050565b6001600160a01b03811633146108695760405163334bd91960e11b815260040160405180910390fd5b6108738282610c4e565b505050565b610880610cca565b61088982610d71565b6108938282610d7c565b5050565b7fa7e0cd0f2772b23ee4c329892293a6bd99d48c306b094d6d008c9a8bb8b731e46108c181610b9c565b6001600160a01b038316600090815260016020526040902082906108e582826113fa565b905050826001600160a01b03167f92cc05d31dffe5b7804268a724fec372d9ea7600315f459c88f843ae8c7d516a836040516109219190611512565b60405180910390a2505050565b6000610938610e3e565b5060008051602061186e83398151915290565b600091825260008051602061188e833981519152602090815260408084206001600160a01b0393909316845291905290205460ff1690565b6000805160206118ae83398151915261099b81610b9c565b600083815260208190526040902082906109b582826115a8565b905050827f962b110c8e970cd9ed91440ec38c72af20bc987cb0acf1f487c45fe2f280a7ad83604051610921919061176c565b6000805160206118ae833981519152610a0081610b9c565b6001600160a01b038316600081815260026020908152604091829020805460ff191686151590811790915591519182527fff571df7d74779bb3bc4c418144ed2539441681cec39b558e6639f5faefc06959101610921565b6000610a62610e87565b805490915060ff600160401b820416159067ffffffffffffffff16600081158015610a8a5750825b905060008267ffffffffffffffff166001148015610aa75750303b155b905081158015610ab5575080155b15610ad35760405163f92ee8a960e01b815260040160405180910390fd5b845467ffffffffffffffff191660011785558315610afd57845460ff60401b1916600160401b1785555b610b05610eb0565b610b0d610eb0565b610b18600087610ba9565b50610b316000805160206118ae83398151915287610ba9565b508315610b7857845460ff60401b19168555604051600181527fc7f505b2f371ae2175ee4913f4499e1f2633a7b5936321eed1cdaeb6115181d29060200160405180910390a15b505050505050565b610b898261057d565b610b9281610b9c565b61083a8383610c4e565b610ba68133610eb8565b50565b600060008051602061188e833981519152610bc4848461094b565b610c44576000848152602082815260408083206001600160a01b03871684529091529020805460ff19166001179055610bfa3390565b6001600160a01b0316836001600160a01b0316857f2f8788117e7eff1d82e926ec794901d17c78024a50270940304540a733656f0d60405160405180910390a46001915050610577565b6000915050610577565b600060008051602061188e833981519152610c69848461094b565b15610c44576000848152602082815260408083206001600160a01b0387168085529252808320805460ff1916905551339287917ff6391f5c32d9c69d2a47ea670b442974b53935d1edc7fd64eb21e047a839171b9190a46001915050610577565b306001600160a01b037f0000000000000000000000000000000000000000000000000000000000000000161480610d5157507f00000000000000000000000000000000000000000000000000000000000000006001600160a01b0316610d4560008051602061186e833981519152546001600160a01b031690565b6001600160a01b031614155b15610d6f5760405163703e46dd60e11b815260040160405180910390fd5b565b600061089381610b9c565b816001600160a01b03166352d1902d6040518163ffffffff1660e01b8152600401602060405180830381865afa925050508015610dd6575060408051601f3d908101601f19168201909252610dd391810190611838565b60015b610e0357604051634c9c8ce360e01b81526001600160a01b03831660048201526024015b60405180910390fd5b60008051602061186e8339815191528114610e3457604051632a87526960e21b815260048101829052602401610dfa565b6108738383610ef1565b306001600160a01b037f00000000000000000000000000000000000000000000000000000000000000001614610d6f5760405163703e46dd60e11b815260040160405180910390fd5b6000807ff0c57e16840df040f15088dc2f81fe391c3923bec73e23a9662efc9c229c6a00610577565b610d6f610f47565b610ec2828261094b565b6108935760405163e2517d3f60e01b81526001600160a01b038216600482015260248101839052604401610dfa565b610efa82610f6c565b6040516001600160a01b038316907fbc7cd75a20ee27fd9adebab32041f755214dbc6bffa90cc0225b39da2e5c2d3b90600090a2805115610f3f576108738282610fd1565b610893611047565b610f4f611066565b610d6f57604051631afcd79f60e31b815260040160405180910390fd5b806001600160a01b03163b600003610fa257604051634c9c8ce360e01b81526001600160a01b0382166004820152602401610dfa565b60008051602061186e83398151915280546001600160a01b0319166001600160a01b0392909216919091179055565b6060600080846001600160a01b031684604051610fee9190611851565b600060405180830381855af49150503d8060008114611029576040519150601f19603f3d011682016040523d82523d6000602084013e61102e565b606091505b509150915061103e858383611080565b95945050505050565b3415610d6f5760405163b398979f60e01b815260040160405180910390fd5b6000611070610e87565b54600160401b900460ff16919050565b60608261109557611090826110df565b6110d8565b81511580156110ac57506001600160a01b0384163b155b156110d557604051639996b31560e01b81526001600160a01b0385166004820152602401610dfa565b50805b9392505050565b8051156110ee57805160208201fd5b60405163d6bda27560e01b815260040160405180910390fd5b60006020828403121561111957600080fd5b81356001600160e01b0319811681146110d857600080fd5b60006020828403121561114357600080fd5b5035919050565b80356001600160a01b038116811461116157600080fd5b919050565b6000806040838503121561117957600080fd5b6111828361114a565b946020939093013593505050565b600080604083850312156111a357600080fd5b823591506111b36020840161114a565b90509250929050565b634e487b7160e01b600052604160045260246000fd5b600080604083850312156111e557600080fd5b6111ee8361114a565b9150602083013567ffffffffffffffff8082111561120b57600080fd5b818501915085601f83011261121f57600080fd5b813581811115611231576112316111bc565b604051601f8201601f19908116603f01168101908382118183101715611259576112596111bc565b8160405282815288602084870101111561127257600080fd5b8260208601602083013760006020848301015280955050505050509250929050565b60008082840360e08112156112a857600080fd5b6112b18461114a565b925060c0601f19820112156112c557600080fd5b506020830190509250929050565b6000602082840312156112e557600080fd5b6110d88261114a565b60008082840361016081121561130357600080fd5b83359250610140601f19820112156112c557600080fd5b60005b8381101561133557818101518382015260200161131d565b50506000910152565b602081526000825180602084015261135d81604085016020870161131a565b601f01601f19169190910160400192915050565b8015158114610ba657600080fd5b803561116181611371565b6000806040838503121561139d57600080fd5b6113a68361114a565b915060208301356113b681611371565b809150509250929050565b6000813561057781611371565b67ffffffffffffffff81168114610ba657600080fd5b6001600160f01b031981168114610ba657600080fd5b813561140581611371565b815460ff191660ff8215151617825550602082013561142381611371565b815461ff00191681151560081b61ff0016178255506040820135611446816113ce565b815469ffffffffffffffff00008260101b1691508169ffffffffffffffff0000198216178355606084013561147a816113ce565b67ffffffffffffffff60501b60509190911b1671ffffffffffffffffffffffffffffffff000019821683178117845560808501356114b7816113e4565b61ffff60901b8160601c168473ffffffffffffffffffffffffffffffffffff0000198516178317178555505050506108936114f460a084016113c1565b82805460ff60a01b191691151560a01b60ff60a01b16919091179055565b60c08101823561152181611371565b15158252602083013561153381611371565b151560208301526040830135611548816113ce565b67ffffffffffffffff9081166040840152606084013590611568826113ce565b166060830152608083013561157c816113e4565b6001600160f01b031916608083015260a083013561159981611371565b80151560a08401525092915050565b81356115b381611371565b815460ff191660ff821515161782555060208201356115d181611371565b815461ff00191681151560081b61ff00161782555060408201356115f481611371565b815462ff0000191690151560101b62ff000016178155611637611619606084016113c1565b82805463ff000000191691151560181b63ff00000016919091179055565b611666611646608084016113c1565b82805464ff00000000191691151560201b64ff0000000016919091179055565b61169761167560a084016113c1565b82805465ff0000000000191691151560281b65ff000000000016919091179055565b6116ca6116a660c084016113c1565b82805466ff000000000000191691151560301b66ff00000000000016919091179055565b6116ff6116d960e084016113c1565b82805467ff00000000000000191691151560381b67ff0000000000000016919091179055565b61173261170f61010084016113c1565b82805460ff60401b191691151560401b68ff000000000000000016919091179055565b61089361174261012084016113c1565b82805469ff000000000000000000191691151560481b69ff00000000000000000016919091179055565b61014081016117848261177e8561137f565b15159052565b6117906020840161137f565b151560208301526117a36040840161137f565b151560408301526117b66060840161137f565b151560608301526117c96080840161137f565b151560808301526117dc60a0840161137f565b151560a08301526117ef60c0840161137f565b151560c083015261180260e0840161137f565b151560e083015261010061181784820161137f565b15159083015261012061182b84820161137f565b1515920191909152919050565b60006020828403121561184a57600080fd5b5051919050565b6000825161186381846020870161131a565b919091019291505056fe360894a13ba1a3210667c828492db98dca3e2076cc3735a920a3ca505d382bbc02dd7bc7dec4dceedda775e58dd541e08a116c6c53815c0bd028192f7b626800a49807205ce4d355092ef5a8a18f56e8913cf4a201fbe287825b095693c21775a26469706673582212209010b0c8166af1c54e0c7d6556da2c997b84564712e03ab9c4bddea4d0cc881e64736f6c63430008180033",
  "linkReferences": {},
  "deployedLinkReferences": {}
}