{"abi":[{"type":"constructor","inputs":[],"stateMutability":"nonpayable"},{"type":"function","name":"cbdcs","inputs":[{"name":"","type":"address","internalType":"address"}],"outputs":[{"name":"tokenAddress","type":"address","internalType":"address"},{"name":"jurisdiction","type":"string","internalType":"string"},{"name":"currencyCode","type":"string","internalType":"string"},{"name":"centralBank","type":"address","internalType":"address"},{"name":"isActive","type":"bool","internalType":"bool"}],"stateMutability":"view"},{"type":"function","name":"completeRLNSettlement","inputs":[{"name":"settlementId","type":"bytes32","internalType":"bytes32"}],"outputs":[],"stateMutability":"nonpayable"},{"type":"function","name":"deactivateCBDC","inputs":[{"name":"tokenAddress","type":"address","internalType":"address"}],"outputs":[],"stateMutability":"nonpayable"},{"type":"function","name":"getCBDC","inputs":[{"name":"tokenAddress","type":"address","internalType":"address"}],"outputs":[{"name":"","type":"tuple","internalType":"struct RLNMultiCBDCAdapter.CBDCToken","components":[{"name":"tokenAddress","type":"address","internalType":"address"},{"name":"jurisdiction","type":"string","internalType":"string"},{"name":"currencyCode","type":"string","internalType":"string"},{"name":"centralBank","type":"address","internalType":"address"},{"name":"isActive","type":"bool","internalType":"bool"}]}],"stateMutability":"view"},{"type":"function","name":"getSettlement","inputs":[{"name":"settlementId","type":"bytes32","internalType":"bytes32"}],"outputs":[{"name":"","type":"tuple","internalType":"struct RLNMultiCBDCAdapter.RLNSettlement","components":[{"name":"settlementId","type":"bytes32","internalType":"bytes32"},{"name":"cbdcTokens","type":"address[]","internalType":"address[]"},{"name":"amounts","type":"uint256[]","internalType":"uint256[]"},{"name":"participants","type":"address[]","internalType":"address[]"},{"name":"fxRate","type":"uint256","internalType":"uint256"},{"name":"isCompleted","type":"bool","internalType":"bool"},{"name":"timestamp","type":"uint256","internalType":"uint256"}]}],"stateMutability":"view"},{"type":"function","name":"initiateRLNSettlement","inputs":[{"name":"settlementId","type":"bytes32","internalType":"bytes32"},{"name":"cbdcTokens","type":"address[]","internalType":"address[]"},{"name":"amounts","type":"uint256[]","internalType":"uint256[]"},{"name":"participants","type":"address[]","internalType":"address[]"},{"name":"fxRate","type":"uint256","internalType":"uint256"}],"outputs":[{"name":"","type":"bool","internalType":"bool"}],"stateMutability":"nonpayable"},{"type":"function","name":"owner","inputs":[],"outputs":[{"name":"","type":"address","internalType":"address"}],"stateMutability":"view"},{"type":"function","name":"registerCBDC","inputs":[{"name":"tokenAddress","type":"address","internalType":"address"},{"name":"jurisdiction","type":"string","internalType":"string"},{"name":"currencyCode","type":"string","internalType":"string"},{"name":"centralBank","type":"address","internalType":"address"}],"outputs":[],"stateMutability":"nonpayable"},{"type":"function","name":"renounceOwnership","inputs":[],"outputs":[],"stateMutability":"nonpayable"},{"type":"function","name":"settlements","inputs":[{"name":"","type":"bytes32","internalType":"bytes32"}],"outputs":[{"name":"settlementId","type":"bytes32","internalType":"bytes32"},{"name":"fxRate","type":"uint256","internalType":"uint256"},{"name":"isCompleted","type":"bool","internalType":"bool"},{"name":"timestamp","type":"uint256","internalType":"uint256"}],"stateMutability":"view"},{"type":"function","name":"transferOwnership","inputs":[{"name":"newOwner","type":"address","internalType":"address"}],"outputs":[],"stateMutability":"nonpayable"},{"type":"event","name":"CBDCRegistered","inputs":[{"name":"token","type":"address","indexed":true,"internalType":"address"},{"name":"jurisdiction","type":"string","indexed":false,"internalType":"string"},{"name":"currency","type":"string","indexed":false,"internalType":"string"}],"anonymous":false},{"type":"event","name":"OwnershipTransferred","inputs":[{"name":"previousOwner","type":"address","indexed":true,"internalType":"address"},{"name":"newOwner","type":"address","indexed":true,"internalType":"address"}],"anonymous":false},{"type":"event","name":"RLNSettlementCompleted","inputs":[{"name":"settlementId","type":"bytes32","indexed":true,"internalType":"bytes32"}],"anonymous":false},{"type":"event","name":"RLNSettlementInitiated","inputs":[{"name":"settlementId","type":"bytes32","indexed":true,"internalType":"bytes32"}],"anonymous":false},{"type":"error","name":"OwnableInvalidOwner","inputs":[{"name":"owner","type":"address","internalType":"address"}]},{"type":"error","name":"OwnableUnauthorizedAccount","inputs":[{"name":"account","type":"address","internalType":"address"}]}],"bytecode":{"object":"0x6080806040523461007a5733156100645760008054336001600160a01b03198216811783556040519290916001600160a01b0316907f8be0079c531659141344cd1fd0a4f28419497f9722a3daafe3b4186f6b6457e09080a361168590816100808239f35b631e4fbdf760e01b815260006004820152602490fd5b600080fdfe608080604052600436101561001357600080fd5b60003560e01c90816301bc95e21461118b57508063270c8c1514610c5d578063715018a614610bc15780638da5cb5b14610b6f57806394224e9d14610aa9578063a74ee5ec14610a19578063ba1f168b1461060b578063c3844ead146104c0578063c3e6ace0146102ea578063e164c9fa1461017f5763f2fde38b1461009857600080fd5b3461017a5760207ffffffffffffffffffffffffffffffffffffffffffffffffffffffffffffffffc36011261017a576100cf6111f8565b6100d76115fe565b73ffffffffffffffffffffffffffffffffffffffff80911690811561014957600054827fffffffffffffffffffffffff0000000000000000000000000000000000000000821617600055167f8be0079c531659141344cd1fd0a4f28419497f9722a3daafe3b4186f6b6457e0600080a3005b60246040517f1e4fbdf700000000000000000000000000000000000000000000000000000000815260006004820152fd5b600080fd5b3461017a5760207ffffffffffffffffffffffffffffffffffffffffffffffffffffffffffffffffc36011261017a576004356101b96115fe565b8060005260026020526040600020600581019081549060ff821661028c57600601541561022e577fffffffffffffffffffffffffffffffffffffffffffffffffffffffffffffff001660011790557ff0a1e0c2d7f458dc1381b4bc37b52e91b83983228011638b91897fb383e0b120600080a2005b60646040517f08c379a000000000000000000000000000000000000000000000000000000000815260206004820152601460248201527f536574746c656d656e74206e6f7420666f756e640000000000000000000000006044820152fd5b60646040517f08c379a000000000000000000000000000000000000000000000000000000000815260206004820152601160248201527f416c726561647920636f6d706c657465640000000000000000000000000000006044820152fd5b3461017a576020807ffffffffffffffffffffffffffffffffffffffffffffffffffffffffffffffffc36011261017a576040519061032782611237565b60008252600060c0606093848482015284604082015284808201528260808201528260a082015201526004356000526002815260406000206040519161036c83611237565b8154835260019161037f60018201611597565b9180850192835260028201906040519182828254918281520191600052826000209060005b8181106104ad57505050826103ba910383611253565b604086019182526103cd60038401611597565b9087870191825260048401549560808801968752610421600660ff6005880154169660a08b01971515885201549660c08a0197885260405199848b5251848b01525160e060408b01526101008a0190611513565b9351937fffffffffffffffffffffffffffffffffffffffffffffffffffffffffffffffe0998a8a830301908a015282808651928381520195019260005b82811061049a575050505050908596610481925190878303016080880152611513565b925160a085015251151560c08401525160e08301520390f35b845187529581019593810193830161045e565b82548452928401929188019188016103a4565b3461017a576020807ffffffffffffffffffffffffffffffffffffffffffffffffffffffffffffffffc36011261017a576104f86111f8565b90600060806040516105098161121b565b82815260608482015260606040820152826060820152015273ffffffffffffffffffffffffffffffffffffffff80921660005260018152604060002090604051916105538361121b565b838154168352836105f76105696001840161135c565b928486019384526105c660036105816002840161135c565b92604089019384520154946060880196858716885260ff60808a019760a01c1615158752604051998a99828b525116908901525160a0604089015260c0880190611420565b90517fffffffffffffffffffffffffffffffffffffffffffffffffffffffffffffffe0878303016060880152611420565b925116608084015251151560a08301520390f35b3461017a5760a07ffffffffffffffffffffffffffffffffffffffffffffffffffffffffffffffffc36011261017a5760243567ffffffffffffffff811161017a5761065a903690600401611496565b60443567ffffffffffffffff811161017a573660238201121561017a578060040135906106868261147e565b916106946040519384611253565b8083526024602084019160051b8301019136831161017a57602401905b828210610a095750505060643567ffffffffffffffff811161017a576106db903690600401611496565b82518251036109ab57600283511061094d57604051916106fa83611237565b600435835260208301938452604083015260608201526084356080820152600060a08201524260c08201526004356000526002602052604060002091815183555180519067ffffffffffffffff82116108e0576801000000000000000082116108e05760018401805483825560209291610775918591611574565b0160018401600052602060002060005b838110610923578585604081015180519067ffffffffffffffff82116108e0576801000000000000000082116108e057600284018054838255602092916107cd918591611574565b0160028401600052602060002060005b83811061090f5785856003820160608201519081519167ffffffffffffffff83116108e0576801000000000000000083116108e05760209061082484845481865585611574565b0190600052602060002060005b8381106108b65785600660c087608081015160048501556005840160a0820151151560ff7fffffffffffffffffffffffffffffffffffffffffffffffffffffffffffffff008354169116179055015191015560206040516004357f4238cbe843b401d8da57ca64e2494dba484044ecb8d1701846fb9061b30f4035600080a260018152f35b600190602073ffffffffffffffffffffffffffffffffffffffff8551169401938184015501610831565b7f4e487b7100000000000000000000000000000000000000000000000000000000600052604160045260246000fd5b6001906020845194019381840155016107dd565b600190602073ffffffffffffffffffffffffffffffffffffffff8551169401938184015501610785565b60646040517f08c379a000000000000000000000000000000000000000000000000000000000815260206004820152601560248201527f4e656564206174206c65617374203220434244437300000000000000000000006044820152fd5b60646040517f08c379a000000000000000000000000000000000000000000000000000000000815260206004820152600f60248201527f4c656e677468206d69736d6174636800000000000000000000000000000000006044820152fd5b81358152602091820191016106b1565b3461017a5760207ffffffffffffffffffffffffffffffffffffffffffffffffffffffffffffffffc36011261017a5773ffffffffffffffffffffffffffffffffffffffff610a656111f8565b610a6d6115fe565b16600052600160205260036040600020017fffffffffffffffffffffff00ffffffffffffffffffffffffffffffffffffffff8154169055600080f35b3461017a5760207ffffffffffffffffffffffffffffffffffffffffffffffffffffffffffffffffc36011261017a5773ffffffffffffffffffffffffffffffffffffffff80610af66111f8565b166000526001602052604060002090808254169060ff610b186001850161135c565b93610b586003610b2a6002840161135c565b92015491610b4a604051978897885260a0602089015260a0880190611420565b908682036040880152611420565b928116606085015260a01c16151560808301520390f35b3461017a5760007ffffffffffffffffffffffffffffffffffffffffffffffffffffffffffffffffc36011261017a57602073ffffffffffffffffffffffffffffffffffffffff60005416604051908152f35b3461017a5760007ffffffffffffffffffffffffffffffffffffffffffffffffffffffffffffffffc36011261017a57610bf86115fe565b600073ffffffffffffffffffffffffffffffffffffffff81547fffffffffffffffffffffffff000000000000000000000000000000000000000081168355167f8be0079c531659141344cd1fd0a4f28419497f9722a3daafe3b4186f6b6457e08280a3005b3461017a5760807ffffffffffffffffffffffffffffffffffffffffffffffffffffffffffffffffc36011261017a57610c946111f8565b60243567ffffffffffffffff811161017a57610cb4903690600401611294565b60443567ffffffffffffffff811161017a57610cd4903690600401611294565b9160643573ffffffffffffffffffffffffffffffffffffffff811680910361017a57610cfe6115fe565b60405190610d0b8261121b565b73ffffffffffffffffffffffffffffffffffffffff83168252602082019084825285604084015260608301526001608083015273ffffffffffffffffffffffffffffffffffffffff8316600052600160205260406000209073ffffffffffffffffffffffffffffffffffffffff8351167fffffffffffffffffffffffff00000000000000000000000000000000000000008354161782555180519067ffffffffffffffff82116108e0578190610dc46001850154611309565b601f8111611156575b50602090601f831160011461108a5760009261107f575b50507fffffffffffffffffffffffffffffffffffffffffffffffffffffffffffffffff8260011b9260031b1c19161760018201555b60028101604083015180519067ffffffffffffffff82116108e057610e3e8354611309565b601f8111611042575b50602090601f8311600114610f715793610f519693837f66c92aac9a9d16354d172b050a94da1f4298b1c967ba37ab2478edbc69128f01999794600394610f6198600092610f66575b50507fffffffffffffffffffffffffffffffffffffffffffffffffffffffffffffffff8260011b92861b1c19161790555b019073ffffffffffffffffffffffffffffffffffffffff6060820151167fffffffffffffffffffffff00000000000000000000000000000000000000000074ff000000000000000000000000000000000000000060808554940151151560a01b1692161717905573ffffffffffffffffffffffffffffffffffffffff604051948594604086526040860190611420565b9184830360208601521695611420565b0390a2005b015190508c80610e90565b907fffffffffffffffffffffffffffffffffffffffffffffffffffffffffffffffe08316918460005260206000209260005b81811061102a575084600394610f619894610f519b98947f66c92aac9a9d16354d172b050a94da1f4298b1c967ba37ab2478edbc69128f019d9b9860019510610ff4575b505050811b019055610ec1565b01517fffffffffffffffffffffffffffffffffffffffffffffffffffffffffffffffff60f884891b161c191690558c8080610fe7565b92936020600181928786015181550195019301610fa3565b61106f90846000526020600020601f850160051c81019160208610611075575b601f0160051c019061155d565b88610e47565b9091508190611062565b015190508780610de4565b9250600184016000526020600020906000935b7fffffffffffffffffffffffffffffffffffffffffffffffffffffffffffffffe08416851061113b5760019450837fffffffffffffffffffffffffffffffffffffffffffffffffffffffffffffffe0811610611104575b505050811b016001820155610e19565b01517fffffffffffffffffffffffffffffffffffffffffffffffffffffffffffffffff60f88460031b161c191690558780806110f4565b8181015183556020948501946001909301929091019061109d565b61118590600186016000526020600020601f850160051c8101916020861061107557601f0160051c019061155d565b88610dcd565b3461017a5760207ffffffffffffffffffffffffffffffffffffffffffffffffffffffffffffffffc36011261017a57608090600435600052600260205260406000208054906004810154600660ff6005840154169201549284526020840152151560408301526060820152f35b6004359073ffffffffffffffffffffffffffffffffffffffff8216820361017a57565b60a0810190811067ffffffffffffffff8211176108e057604052565b60e0810190811067ffffffffffffffff8211176108e057604052565b90601f7fffffffffffffffffffffffffffffffffffffffffffffffffffffffffffffffe0910116810190811067ffffffffffffffff8211176108e057604052565b81601f8201121561017a5780359067ffffffffffffffff82116108e057604051926112e760207fffffffffffffffffffffffffffffffffffffffffffffffffffffffffffffffe0601f8601160185611253565b8284526020838301011161017a57816000926020809301838601378301015290565b90600182811c92168015611352575b602083101461132357565b7f4e487b7100000000000000000000000000000000000000000000000000000000600052602260045260246000fd5b91607f1691611318565b9060405191826000825461136f81611309565b908184526020946001916001811690816000146113df57506001146113a0575b50505061139e92500383611253565b565b600090815285812095935091905b8183106113c757505061139e935082010138808061138f565b855488840185015294850194879450918301916113ae565b91505061139e9593507fffffffffffffffffffffffffffffffffffffffffffffffffffffffffffffff0091501682840152151560051b82010138808061138f565b919082519283825260005b84811061146a5750507fffffffffffffffffffffffffffffffffffffffffffffffffffffffffffffffe0601f8460006020809697860101520116010190565b60208183018101518483018201520161142b565b67ffffffffffffffff81116108e05760051b60200190565b9080601f8301121561017a5760209082356114b08161147e565b936114be6040519586611253565b81855260208086019260051b82010192831161017a57602001905b8282106114e7575050505090565b813573ffffffffffffffffffffffffffffffffffffffff8116810361017a5781529083019083016114d9565b90815180825260208080930193019160005b828110611533575050505090565b835173ffffffffffffffffffffffffffffffffffffffff1685529381019392810192600101611525565b818110611568575050565b6000815560010161155d565b9181811061158157505050565b61139e926000526020600020918201910161155d565b90604051918281549182825260209260208301916000526020600020936000905b8282106115ce5750505061139e92500383611253565b855473ffffffffffffffffffffffffffffffffffffffff16845260019586019588955093810193909101906115b8565b73ffffffffffffffffffffffffffffffffffffffff60005416330361161f57565b60246040517f118cdaa7000000000000000000000000000000000000000000000000000000008152336004820152fdfea26469706673582212203638b386530df7abef03c2391f761ca1f32a9f22c33f0c9e9cc2df763048451c64736f6c63430008180033","linkReferences":{}},"methodIdentifiers":{"cbdcs(address)":"94224e9d","completeRLNSettlement(bytes32)":"e164c9fa","deactivateCBDC(address)":"a74ee5ec","getCBDC(address)":"c3844ead","getSettlement(bytes32)":"c3e6ace0","initiateRLNSettlement(bytes32,address[],uint256[],address[],uint256)":"ba1f168b","owner()":"8da5cb5b","registerCBDC(address,string,string,address)":"270c8c15","renounceOwnership()":"715018a6","settlements(bytes32)":"01bc95e2","transferOwnership(address)":"f2fde38b"},"id":9}