{
  "_format": "hh-sol-artifact-1",
  "contractName": "RoleIds",
  "sourceName": "contracts/compliance/RoleIds.sol",
  "abi": [
    {
      "inputs": [],
      "name": "AP_ROLE",
      "outputs": [
        {
          "internalType": "bytes32",
          "name": "",
          "type": "bytes32"
        }
      ],
      "stateMutability": "view",
      "type": "function"
    },
    {
      "inputs": [],
      "name": "AUDITOR_ROLE",
      "outputs": [
        {
          "internalType": "bytes32",
          "name": "",
          "type": "bytes32"
        }
      ],
      "stateMutability": "view",
      "type": "function"
    },
    {
      "inputs": [],
      "name": "CASHIER_ROLE",
      "outputs": [
        {
          "internalType": "bytes32",
          "name": "",
          "type": "bytes32"
        }
      ],
      "stateMutability": "view",
      "type": "function"
    },
    {
      "inputs": [],
      "name": "GOVERNOR_ROLE",
      "outputs": [
        {
          "internalType": "bytes32",
          "name": "",
          "type": "bytes32"
        }
      ],
      "stateMutability": "view",
      "type": "function"
    },
    {
      "inputs": [],
      "name": "OPERATOR_ROLE",
      "outputs": [
        {
          "internalType": "bytes32",
          "name": "",
          "type": "bytes32"
        }
      ],
      "stateMutability": "view",
      "type": "function"
    },
    {
      "inputs": [],
      "name": "READER_ROLE",
      "outputs": [
        {
          "internalType": "bytes32",
          "name": "",
          "type": "bytes32"
        }
      ],
      "stateMutability": "view",
      "type": "function"
    },
    {
      "inputs": [],
      "name": "SIGNER_ROLE",
      "outputs": [
        {
          "internalType": "bytes32",
          "name": "",
          "type": "bytes32"
        }
      ],
      "stateMutability": "view",
      "type": "function"
    }
  ],
  "bytecode": "0x6080806040523461001a5761021b9081610020823930815050f35b600080fdfe60806040818152600436101561001457600080fd5b600091823560e01c908163458c4458146101b0575080635e27de2b1461017b5780636e1d616e14610146578063a1ebf35d14610111578063b7fd9684146100dc578063ccc57490146100a75763f5b541a61461006f57600080fd5b816003193601126100a357602090517f97667070c54ef182b0f5858b034beac1b6f3089aa2d3188bb1e8929f4fa9b9298152f35b5080fd5b50816003193601126100a357602090517f7935bd0ae54bc31f548c14dba4d37c5c64b3f8ca900cb468fb8abd54d5894f558152f35b50816003193601126100a357602090517fff3317e1e0e8c784290b957ee9b65ea8fe96420c4819db463283b95ecbe4a3fe8152f35b50816003193601126100a357602090517fe2f4eaae4a9751e85a3e4a7b9587827a877f29914755229b07a7b2da98285f708152f35b50816003193601126100a357602090517f59a1c48e5837ad7a7f3dcedcbe129bf3249ec4fbf651fd4f5e2600ead39fe2f58152f35b50816003193601126100a357602090517fd71162bcb954a21e61e075a59207329b4ad08d2acb8e72207197faeda4f5a2b48152f35b8390816003193601126100a357807fc757f485a2bb9eadbad5c86f7618c2a7a2ecb41b29f8610fb0e8bea3ed5ab6cf60209252f3fea2646970667358221220b71e5e360172fb89d9c281187e6a66500e1011a8cf9b9808acec80e60233b62664736f6c63430008180033",
  "linkReferences": {},
  "deployedLinkReferences": {}
}