{
  "_format": "hh-sol-artifact-1",
  "contractName": "HybridQuoteAdapter",
  "sourceName": "contracts/oracle/adapters/HybridQuoteAdapter.sol",
  "abi": [
    {
      "inputs": [
        {
          "internalType": "address",
          "name": "governor",
          "type": "address"
        },
        {
          "internalType": "address",
          "name": "_primary",
          "type": "address"
        },
        {
          "internalType": "address",
          "name": "_secondary",
          "type": "address"
        }
      ],
      "stateMutability": "nonpayable",
      "type": "constructor"
    },
    {
      "inputs": [],
      "name": "AccessControlBadConfirmation",
      "type": "error"
    },
    {
      "inputs": [
        {
          "internalType": "address",
          "name": "account",
          "type": "address"
        },
        {
          "internalType": "bytes32",
          "name": "neededRole",
          "type": "bytes32"
        }
      ],
      "name": "AccessControlUnauthorizedAccount",
      "type": "error"
    },
    {
      "anonymous": false,
      "inputs": [
        {
          "indexed": false,
          "internalType": "address",
          "name": "adapter",
          "type": "address"
        }
      ],
      "name": "PrimarySet",
      "type": "event"
    },
    {
      "anonymous": false,
      "inputs": [
        {
          "indexed": true,
          "internalType": "bytes32",
          "name": "role",
          "type": "bytes32"
        },
        {
          "indexed": true,
          "internalType": "bytes32",
          "name": "previousAdminRole",
          "type": "bytes32"
        },
        {
          "indexed": true,
          "internalType": "bytes32",
          "name": "newAdminRole",
          "type": "bytes32"
        }
      ],
      "name": "RoleAdminChanged",
      "type": "event"
    },
    {
      "anonymous": false,
      "inputs": [
        {
          "indexed": true,
          "internalType": "bytes32",
          "name": "role",
          "type": "bytes32"
        },
        {
          "indexed": true,
          "internalType": "address",
          "name": "account",
          "type": "address"
        },
        {
          "indexed": true,
          "internalType": "address",
          "name": "sender",
          "type": "address"
        }
      ],
      "name": "RoleGranted",
      "type": "event"
    },
    {
      "anonymous": false,
      "inputs": [
        {
          "indexed": true,
          "internalType": "bytes32",
          "name": "role",
          "type": "bytes32"
        },
        {
          "indexed": true,
          "internalType": "address",
          "name": "account",
          "type": "address"
        },
        {
          "indexed": true,
          "internalType": "address",
          "name": "sender",
          "type": "address"
        }
      ],
      "name": "RoleRevoked",
      "type": "event"
    },
    {
      "anonymous": false,
      "inputs": [
        {
          "indexed": false,
          "internalType": "address",
          "name": "adapter",
          "type": "address"
        }
      ],
      "name": "SecondarySet",
      "type": "event"
    },
    {
      "inputs": [],
      "name": "ADMIN",
      "outputs": [
        {
          "internalType": "bytes32",
          "name": "",
          "type": "bytes32"
        }
      ],
      "stateMutability": "view",
      "type": "function"
    },
    {
      "inputs": [],
      "name": "DEFAULT_ADMIN_ROLE",
      "outputs": [
        {
          "internalType": "bytes32",
          "name": "",
          "type": "bytes32"
        }
      ],
      "stateMutability": "view",
      "type": "function"
    },
    {
      "inputs": [
        {
          "internalType": "bytes32",
          "name": "role",
          "type": "bytes32"
        }
      ],
      "name": "getRoleAdmin",
      "outputs": [
        {
          "internalType": "bytes32",
          "name": "",
          "type": "bytes32"
        }
      ],
      "stateMutability": "view",
      "type": "function"
    },
    {
      "inputs": [
        {
          "internalType": "bytes32",
          "name": "role",
          "type": "bytes32"
        },
        {
          "internalType": "address",
          "name": "account",
          "type": "address"
        }
      ],
      "name": "grantRole",
      "outputs": [],
      "stateMutability": "nonpayable",
      "type": "function"
    },
    {
      "inputs": [
        {
          "internalType": "bytes32",
          "name": "role",
          "type": "bytes32"
        },
        {
          "internalType": "address",
          "name": "account",
          "type": "address"
        }
      ],
      "name": "hasRole",
      "outputs": [
        {
          "internalType": "bool",
          "name": "",
          "type": "bool"
        }
      ],
      "stateMutability": "view",
      "type": "function"
    },
    {
      "inputs": [
        {
          "internalType": "address",
          "name": "instrument",
          "type": "address"
        },
        {
          "internalType": "uint64",
          "name": "maxAgeSec",
          "type": "uint64"
        }
      ],
      "name": "isFresh",
      "outputs": [
        {
          "internalType": "bool",
          "name": "",
          "type": "bool"
        }
      ],
      "stateMutability": "view",
      "type": "function"
    },
    {
      "inputs": [],
      "name": "primary",
      "outputs": [
        {
          "internalType": "contract IQuoteAdapter",
          "name": "",
          "type": "address"
        }
      ],
      "stateMutability": "view",
      "type": "function"
    },
    {
      "inputs": [
        {
          "internalType": "address",
          "name": "instrument",
          "type": "address"
        }
      ],
      "name": "quoteInCash",
      "outputs": [
        {
          "internalType": "uint256",
          "name": "price",
          "type": "uint256"
        },
        {
          "internalType": "uint8",
          "name": "decimals",
          "type": "uint8"
        },
        {
          "internalType": "uint64",
          "name": "lastUpdate",
          "type": "uint64"
        }
      ],
      "stateMutability": "view",
      "type": "function"
    },
    {
      "inputs": [
        {
          "internalType": "bytes32",
          "name": "role",
          "type": "bytes32"
        },
        {
          "internalType": "address",
          "name": "callerConfirmation",
          "type": "address"
        }
      ],
      "name": "renounceRole",
      "outputs": [],
      "stateMutability": "nonpayable",
      "type": "function"
    },
    {
      "inputs": [
        {
          "internalType": "bytes32",
          "name": "role",
          "type": "bytes32"
        },
        {
          "internalType": "address",
          "name": "account",
          "type": "address"
        }
      ],
      "name": "revokeRole",
      "outputs": [],
      "stateMutability": "nonpayable",
      "type": "function"
    },
    {
      "inputs": [],
      "name": "secondary",
      "outputs": [
        {
          "internalType": "contract IQuoteAdapter",
          "name": "",
          "type": "address"
        }
      ],
      "stateMutability": "view",
      "type": "function"
    },
    {
      "inputs": [
        {
          "internalType": "address",
          "name": "a",
          "type": "address"
        }
      ],
      "name": "setPrimary",
      "outputs": [],
      "stateMutability": "nonpayable",
      "type": "function"
    },
    {
      "inputs": [
        {
          "internalType": "address",
          "name": "a",
          "type": "address"
        }
      ],
      "name": "setSecondary",
      "outputs": [],
      "stateMutability": "nonpayable",
      "type": "function"
    },
    {
      "inputs": [
        {
          "internalType": "bytes4",
          "name": "interfaceId",
          "type": "bytes4"
        }
      ],
      "name": "supportsInterface",
      "outputs": [
        {
          "internalType": "bool",
          "name": "",
          "type": "bool"
        }
      ],
      "stateMutability": "view",
      "type": "function"
    }
  ],
  "bytecode": "0x6080346100ff57601f610b7d38819003918201601f19168301916001600160401b03831184841017610104578084926060946040528339810103126100ff576020817f20c0b8faa4cc3811cdfa3ddf79184876c83d5e81cbc9926c5156639e6d2618c88261008d7fb45e07e412a3d1ea62293bb78e606e591e12457c6d05b4632792291a0fc89d249561011a565b926100b86100a860406100a185850161011a565b930161011a565b946100b28161012e565b506101ac565b5060018060a01b038091169060018060a01b031994828660015416176001551680946002541617600255604051908152a1604051908152a1604051610910908161024d8239f35b600080fd5b634e487b7160e01b600052604160045260246000fd5b51906001600160a01b03821682036100ff57565b6001600160a01b031660008181527fad3228b676f7d3cd4284a5443f17f1962b36e491b30a40b2405849e597ba5fb5602052604081205490919060ff166101a857818052816020526040822081835260205260408220600160ff198254161790553391600080516020610b5d8339815191528180a4600190565b5090565b6001600160a01b031660008181527f5cbfc8ee58ca47855df7bcf648dd304ddb6b932f9b87878bdf6318d7ec7ee5b760205260408120549091907fdf8b4c520ffe197c5343c6f5aec59570151ef9a492f2c624fd45ddde6135ec429060ff1661024757808352826020526040832082845260205260408320600160ff19825416179055600080516020610b5d833981519152339380a4600190565b50509056fe608060408181526004918236101561001657600080fd5b600092833560e01c91826301ffc9a71461050757508163248a9ca3146104dd5781632a0acc6a146104a25781632f2ff15d1461047857816336568abe1461043257816336af91c9146103ea5781634b93a1d91461028a5781638a827eb91461021f57816391d14854146101da5781639d3c8cc4146101b2578163a217fddf14610197578163c6dbdf611461016f578163d547741f1461012c575063dcd04793146100bf57600080fd5b346101285760203660031901126101285760207f20c0b8faa4cc3811cdfa3ddf79184876c83d5e81cbc9926c5156639e6d2618c8916001600160a01b03610104610575565b61010c610745565b1690816001600160a01b0319600154161760015551908152a180f35b5080fd5b9190503461016b578060031936011261016b576101679135610162600161015161055a565b9383875286602052862001546107bf565b610864565b5080f35b8280fd5b5050346101285781600319360112610128576020906001600160a01b03600154169051908152f35b50503461012857816003193601126101285751908152602090f35b5050346101285781600319360112610128576020906001600160a01b03600254169051908152f35b90503461016b578160031936011261016b578160209360ff926101fb61055a565b903582528186526001600160a01b0383832091168252855220541690519015158152f35b5050346101285760203660031901126101285760207fb45e07e412a3d1ea62293bb78e606e591e12457c6d05b4632792291a0fc89d24916001600160a01b03610266610575565b61026e610745565b1690816001600160a01b0319600254161760025551908152a180f35b8383346101285780600319360112610128576102a4610575565b60243567ffffffffffffffff811681036103e6578380926001600160a01b0390816001541691865198634b93a1d960e01b91828b528a602081819d9781806103108d8b8a889e0190929167ffffffffffffffff6020916001600160a01b03604085019616845216910152565b03915afa8791816103c7575b506103bf575b50600254169161035d8951978895869485948552840190929167ffffffffffffffff6020916001600160a01b03604085019616845216910152565b03915afa909181610390575b50610388575b508215610380575b50519015158152f35b915083610377565b90508461036f565b6103b1919250863d88116103b8575b6103a9818361058b565b81019061072d565b9086610369565b503d61039f565b99508b610322565b6103df919250873d89116103b8576103a9818361058b565b908d61031c565b8380fd5b82843461042f57602036600319011261042f57606060ff8367ffffffffffffffff61041b610416610575565b6105fa565b845192835294166020820152921690820152f35b80fd5b83833461012857806003193601126101285761044c61055a565b90336001600160a01b038316036104695750610167919235610864565b5163334bd91960e11b81528390fd5b9190503461016b578060031936011261016b57610167913561049d600161015161055a565b6107e5565b505034610128578160031936011261012857602090517fdf8b4c520ffe197c5343c6f5aec59570151ef9a492f2c624fd45ddde6135ec428152f35b90503461016b57602036600319011261016b57816020936001923581528085522001549051908152f35b84913461016b57602036600319011261016b573563ffffffff60e01b811680910361016b5760209250637965db0b60e01b8114908115610549575b5015158152f35b6301ffc9a760e01b14905083610542565b602435906001600160a01b038216820361057057565b600080fd5b600435906001600160a01b038216820361057057565b90601f8019910116810190811067ffffffffffffffff8211176105ad57604052565b634e487b7160e01b600052604160045260246000fd5b9081606091031261057057805191602082015160ff811681036105705760409092015167ffffffffffffffff811681036105705790565b6024916001600160a01b0380600154166040519182816336af91c960e01b96878352169283600483015281606098899687935afa600081600093600093610707575b506106e8575b50505060249060025416946040519586938492835260048301525afa91826000916000956000956106b0575b50506106a5575b60405162461bcd60e51b81526020600482015260086024820152676e6f5f71756f746560c01b6044820152606490fd5b801561067557929190565b91945091506106d5929450803d106106e1575b6106cd818361058b565b8101906105c3565b9391909392388061066e565b503d6106c3565b809192939495506106fc5787949392610642565b965090945092915050565b915092506107229150853d87116106e1576106cd818361058b565b92919092913861063c565b90816020910312610570575180151581036105705790565b3360009081527f5cbfc8ee58ca47855df7bcf648dd304ddb6b932f9b87878bdf6318d7ec7ee5b760205260409020547fdf8b4c520ffe197c5343c6f5aec59570151ef9a492f2c624fd45ddde6135ec429060ff16156107a15750565b6044906040519063e2517d3f60e01b82523360048301526024820152fd5b80600052600060205260406000203360005260205260ff60406000205416156107a15750565b90600091808352826020526001600160a01b036040842092169182845260205260ff6040842054161560001461085f57808352826020526040832082845260205260408320600160ff198254161790557f2f8788117e7eff1d82e926ec794901d17c78024a50270940304540a733656f0d339380a4600190565b505090565b90600091808352826020526001600160a01b036040842092169182845260205260ff60408420541660001461085f5780835282602052604083208284526020526040832060ff1981541690557ff6391f5c32d9c69d2a47ea670b442974b53935d1edc7fd64eb21e047a839171b339380a460019056fea26469706673582212209be1f71f5e8104884a44186283291560f3bc68b836ad804adc4f6931abd8352a64736f6c634300081800332f8788117e7eff1d82e926ec794901d17c78024a50270940304540a733656f0d",
  "linkReferences": {},
  "deployedLinkReferences": {}
}