{"abi":[{"type":"constructor","inputs":[{"name":"_admin","type":"address","internalType":"address"},{"name":"_buyer","type":"address","internalType":"address"},{"name":"_seller","type":"address","internalType":"address"},{"name":"_token","type":"address","internalType":"address"},{"name":"_deadline","type":"uint64","internalType":"uint64"},{"name":"amounts","type":"uint256[]","internalType":"uint256[]"}],"stateMutability":"nonpayable"},{"type":"function","name":"admin","inputs":[],"outputs":[{"name":"","type":"address","internalType":"address"}],"stateMutability":"view"},{"type":"function","name":"approve","inputs":[{"name":"idx","type":"uint256","internalType":"uint256"}],"outputs":[],"stateMutability":"nonpayable"},{"type":"function","name":"buyer","inputs":[],"outputs":[{"name":"","type":"address","internalType":"address"}],"stateMutability":"view"},{"type":"function","name":"deadline","inputs":[],"outputs":[{"name":"","type":"uint64","internalType":"uint64"}],"stateMutability":"view"},{"type":"function","name":"fund","inputs":[{"name":"amount","type":"uint256","internalType":"uint256"}],"outputs":[],"stateMutability":"nonpayable"},{"type":"function","name":"funded","inputs":[],"outputs":[{"name":"","type":"uint256","internalType":"uint256"}],"stateMutability":"view"},{"type":"function","name":"milestones","inputs":[{"name":"","type":"uint256","internalType":"uint256"}],"outputs":[{"name":"amount","type":"uint256","internalType":"uint256"},{"name":"buyerApproved","type":"bool","internalType":"bool"},{"name":"sellerApproved","type":"bool","internalType":"bool"},{"name":"released","type":"bool","internalType":"bool"}],"stateMutability":"view"},{"type":"function","name":"refundRemaining","inputs":[{"name":"to","type":"address","internalType":"address"}],"outputs":[],"stateMutability":"nonpayable"},{"type":"function","name":"release","inputs":[{"name":"idx","type":"uint256","internalType":"uint256"},{"name":"to","type":"address","internalType":"address"}],"outputs":[],"stateMutability":"nonpayable"},{"type":"function","name":"seller","inputs":[],"outputs":[{"name":"","type":"address","internalType":"address"}],"stateMutability":"view"},{"type":"function","name":"token","inputs":[],"outputs":[{"name":"","type":"address","internalType":"address"}],"stateMutability":"view"},{"type":"function","name":"transferAdmin","inputs":[{"name":"to","type":"address","internalType":"address"}],"outputs":[],"stateMutability":"nonpayable"},{"type":"event","name":"AdminTransferred","inputs":[{"name":"from","type":"address","indexed":true,"internalType":"address"},{"name":"to","type":"address","indexed":true,"internalType":"address"}],"anonymous":false},{"type":"event","name":"Approved","inputs":[{"name":"idx","type":"uint256","indexed":true,"internalType":"uint256"},{"name":"by","type":"address","indexed":true,"internalType":"address"},{"name":"buyerApproved","type":"bool","indexed":false,"internalType":"bool"},{"name":"sellerApproved","type":"bool","indexed":false,"internalType":"bool"}],"anonymous":false},{"type":"event","name":"Funded","inputs":[{"name":"from","type":"address","indexed":true,"internalType":"address"},{"name":"amount","type":"uint256","indexed":false,"internalType":"uint256"}],"anonymous":false},{"type":"event","name":"Refunded","inputs":[{"name":"amount","type":"uint256","indexed":false,"internalType":"uint256"}],"anonymous":false},{"type":"event","name":"Released","inputs":[{"name":"idx","type":"uint256","indexed":true,"internalType":"uint256"},{"name":"amount","type":"uint256","indexed":false,"internalType":"uint256"}],"anonymous":false}],"bytecode":{"object":"0x60806040523462000310576200123c803803806200001d8162000315565b928339810160c082820312620003105762000038826200033b565b62000046602084016200033b565b9262000055604082016200033b565b9062000064606082016200033b565b9160809560808301519260018060401b0384168403620003105760a0810151906001600160401b0382116200031057019486601f8701121562000310578551966001600160401b0388116200026e576005968860051b90602080620000cb81850162000315565b809c815201928201019283116200031057602001905b828210620002ff575050506001600160a01b031680151580620002ec575b80620002d9575b80620002c6575b156200029457600080546001600160a01b03199081169290921781556001805483166001600160a01b0394851617905560028054909216938316939093179055600380546001600160e01b031916949091169390931760a09290921b600160a01b600160e01b0316919091179091559291905b8151841015620002845783811b82016020015160405194908486016001600160401b038111878210176200026e576040528552602085016000815260408601600081526060870160008152600497885498680100000000000000008a1015620002595760018a018082558a10156200024457906001969798998792600052602060002090831b019051815501925115159160ff62ff000061ff0086549351151560081b169351151560101b1693169062ffffff191617171790550192919062000180565b603290634e487b7160e01b6000525260246000fd5b604190634e487b7160e01b6000525260246000fd5b634e487b7160e01b600052604160045260246000fd5b604051610eeb9081620003518239f35b60405162461bcd60e51b815260206004820152600a60248201526926a29d10181030b2323960b11b6044820152606490fd5b506001600160a01b03851615156200010d565b506001600160a01b038316151562000106565b506001600160a01b0382161515620000ff565b8151815260209182019101620000e1565b600080fd5b6040519190601f01601f191682016001600160401b038111838210176200026e57604052565b51906001600160a01b0382168203620003105756fe608060408181526004918236101561001657600080fd5b600092833560e01c91826308551a5314610ce75750816329dcb0cf14610c9d5781637150d8ae14610c4a57816375829def14610b345781638124fea6146107ba578163b759f954146105a4578163c1e71c7414610413578163ca1d209d14610209578163e89e4ed61461018a57508063f3a504f21461014e578063f851a440146100fe5763fc0c546a146100a957600080fd5b346100fa57817ffffffffffffffffffffffffffffffffffffffffffffffffffffffffffffffffc3601126100fa5760209073ffffffffffffffffffffffffffffffffffffffff600354169051908152f35b5080fd5b50346100fa57817ffffffffffffffffffffffffffffffffffffffffffffffffffffffffffffffffc3601126100fa5773ffffffffffffffffffffffffffffffffffffffff60209254169051908152f35b50346100fa57817ffffffffffffffffffffffffffffffffffffffffffffffffffffffffffffffffc3601126100fa576020906005549051908152f35b8284346102065760207ffffffffffffffffffffffffffffffffffffffffffffffffffffffffffffffffc3601126102065782359254831015610206575060ff6101d4608093610d5f565b50916001835493015490805193845282821615156020850152828260081c1615159084015260101c1615156060820152f35b80fd5b8383346100fa576020807ffffffffffffffffffffffffffffffffffffffffffffffffffffffffffffffffc36011261040f5783359173ffffffffffffffffffffffffffffffffffffffff806001541633036103b3578285916003541660648451809481937f23b872dd000000000000000000000000000000000000000000000000000000008352338c8401523060248401528960448401525af19081156103a957859161037c575b5015610320576005548381018091116102f4576005555191825233917f5af8184bef8e4b45eb9f6ed7734d04da38ced226495548f46e0c8ff8d7d9a5249190a280f35b6024856011887f4e487b7100000000000000000000000000000000000000000000000000000000835252fd5b606491859151917f08c379a0000000000000000000000000000000000000000000000000000000008352820152600d60248201527f4d453a2066756e64206661696c000000000000000000000000000000000000006044820152fd5b61039c9150833d85116103a2575b6103948183610e2d565b810190610e9d565b866102b1565b503d61038a565b82513d87823e3d90fd5b606486848451917f08c379a0000000000000000000000000000000000000000000000000000000008352820152600d60248201527f4d453a206e6f74206275796572000000000000000000000000000000000000006044820152fd5b8280fd5b839150346100fa57602090817ffffffffffffffffffffffffffffffffffffffffffffffffffffffffffffffffc36011261040f5761044f610d37565b906104dd8373ffffffffffffffffffffffffffffffffffffffff610477818854163314610dc8565b600554948591886005556003541690888a518096819582947fa9059cbb0000000000000000000000000000000000000000000000000000000084528a84016020909392919373ffffffffffffffffffffffffffffffffffffffff60408201951681520152565b03925af190811561059a57859161057d575b501561052157507f3d2a04f53164bedf9a8a46353305d6b2d2261410406df3b41f99ce6489dc003c929351908152a180f35b606490838651917f08c379a0000000000000000000000000000000000000000000000000000000008352820152600f60248201527f4d453a20726566756e64206661696c00000000000000000000000000000000006044820152fd5b6105949150843d86116103a2576103948183610e2d565b866104ef565b86513d87823e3d90fd5b9190503461040f5760207ffffffffffffffffffffffffffffffffffffffffffffffffffffffffffffffffc36011261040f57813590825482101561075e5773ffffffffffffffffffffffffffffffffffffffff926001938085541633146000146106975750507f071c524899e3f88fd5ae249a6290796608134326823edf777675d016abf6e5c9908361063684610d5f565b5001847fffffffffffffffffffffffffffffffffffffffffffffffffffffffffffffff008254161790555b60ff808561066e86610d5f565b500154169461067c85610d5f565b50015460081c1681519415158552151560208501523393a380f35b60025416331460001461070257507f071c524899e3f88fd5ae249a6290796608134326823edf777675d016abf6e5c990836106d184610d5f565b50016101007fffffffffffffffffffffffffffffffffffffffffffffffffffffffffffff00ff825416179055610661565b602060649251917f08c379a0000000000000000000000000000000000000000000000000000000008352820152600b60248201527f4d453a206e6f20617574680000000000000000000000000000000000000000006044820152fd5b517f08c379a0000000000000000000000000000000000000000000000000000000008152602081840152600760248201527f4d453a20696478000000000000000000000000000000000000000000000000006044820152606490fd5b9190503461040f57807ffffffffffffffffffffffffffffffffffffffffffffffffffffffffffffffffc36011261040f5781359173ffffffffffffffffffffffffffffffffffffffff90602480358381168103610b305761081f848854163314610dc8565b67ffffffffffffffff60035460a01c164211610ad45761083e86610d5f565b50936001850180549060ff8260101c161580610aca575b80610abd575b15610a6157600554918754809310610a05577fffffffffffffffffffffffffffffffffffffffffffffffffffffffffff00ffff16620100001790556005549081039081116109da579160209161090c93600555600354168654918a89518096819582947fa9059cbb0000000000000000000000000000000000000000000000000000000084528b84016020909392919373ffffffffffffffffffffffffffffffffffffffff60408201951681520152565b03925af19081156109d05787916109b1575b50156109555750507fd5840651550c173a8bf246eede440a59253bc61eadb2e8887168faad2fad631d91602091549051908152a280f35b90600d60649260208651937f08c379a00000000000000000000000000000000000000000000000000000000085528401528201527f4d453a2078666572206661696c000000000000000000000000000000000000006044820152fd5b6109ca915060203d6020116103a2576103948183610e2d565b3861091e565b85513d89823e3d90fd5b83896011877f4e487b7100000000000000000000000000000000000000000000000000000000835252fd5b606487600c8860208d51937f08c379a00000000000000000000000000000000000000000000000000000000085528401528201527f4d453a20756e66756e64656400000000000000000000000000000000000000006044820152fd5b60648660128760208c51937f08c379a00000000000000000000000000000000000000000000000000000000085528401528201527f4d453a206e6f742072656c65617361626c6500000000000000000000000000006044820152fd5b5060ff8260081c1661085b565b5060ff8216610855565b606483600b8460208951937f08c379a00000000000000000000000000000000000000000000000000000000085528401528201527f4d453a20657870697265640000000000000000000000000000000000000000006044820152fd5b8680fd5b90503461040f5760207ffffffffffffffffffffffffffffffffffffffffffffffffffffffffffffffffc36011261040f57610b6d610d37565b83549173ffffffffffffffffffffffffffffffffffffffff80841692610b94843314610dc8565b16938415610bed57505090827fffffffffffffffffffffffff0000000000000000000000000000000000000000927ff8ccb027dfcd135e000e9d45e6cc2d662578a8825d4c45b5e32e0adf67e79ec68680a31617815580f35b90602060649251917f08c379a0000000000000000000000000000000000000000000000000000000008352820152600560248201527f4d453a20300000000000000000000000000000000000000000000000000000006044820152fd5b5050346100fa57817ffffffffffffffffffffffffffffffffffffffffffffffffffffffffffffffffc3601126100fa5760209073ffffffffffffffffffffffffffffffffffffffff600154169051908152f35b5050346100fa57817ffffffffffffffffffffffffffffffffffffffffffffffffffffffffffffffffc3601126100fa5760209067ffffffffffffffff60035460a01c169051908152f35b8490346100fa57817ffffffffffffffffffffffffffffffffffffffffffffffffffffffffffffffffc3601126100fa5760209073ffffffffffffffffffffffffffffffffffffffff600254168152f35b6004359073ffffffffffffffffffffffffffffffffffffffff82168203610d5a57565b600080fd5b600454811015610d9957600460005260011b7f8a35acfbc15ff81a39ae7d344fd709f28e8600b4aa8c65c6b64bfe7fe36bd19b0190600090565b7f4e487b7100000000000000000000000000000000000000000000000000000000600052603260045260246000fd5b15610dcf57565b60646040517f08c379a000000000000000000000000000000000000000000000000000000000815260206004820152600d60248201527f4d453a206e6f742061646d696e000000000000000000000000000000000000006044820152fd5b90601f7fffffffffffffffffffffffffffffffffffffffffffffffffffffffffffffffe0910116810190811067ffffffffffffffff821117610e6e57604052565b7f4e487b7100000000000000000000000000000000000000000000000000000000600052604160045260246000fd5b90816020910312610d5a57518015158103610d5a579056fea2646970667358221220b9230a15c62ca263b3597c673d3aac943a42d9b93480a48b8d61b91892d2e44164736f6c63430008180033","linkReferences":{}},"methodIdentifiers":{"admin()":"f851a440","approve(uint256)":"b759f954","buyer()":"7150d8ae","deadline()":"29dcb0cf","fund(uint256)":"ca1d209d","funded()":"f3a504f2","milestones(uint256)":"e89e4ed6","refundRemaining(address)":"c1e71c74","release(uint256,address)":"8124fea6","seller()":"08551a53","token()":"fc0c546a","transferAdmin(address)":"75829def"},"id":75}