{"abi":[{"type":"constructor","inputs":[{"name":"_admin","type":"address","internalType":"address"}],"stateMutability":"nonpayable"},{"type":"function","name":"admin","inputs":[],"outputs":[{"name":"","type":"address","internalType":"address"}],"stateMutability":"view"},{"type":"function","name":"get","inputs":[{"name":"key","type":"bytes32","internalType":"bytes32"}],"outputs":[{"name":"","type":"address","internalType":"address"}],"stateMutability":"view"},{"type":"function","name":"rails","inputs":[{"name":"","type":"bytes32","internalType":"bytes32"}],"outputs":[{"name":"","type":"address","internalType":"address"}],"stateMutability":"view"},{"type":"function","name":"set","inputs":[{"name":"key","type":"bytes32","internalType":"bytes32"},{"name":"rail","type":"address","internalType":"address"}],"outputs":[],"stateMutability":"nonpayable"},{"type":"function","name":"transferAdmin","inputs":[{"name":"to","type":"address","internalType":"address"}],"outputs":[],"stateMutability":"nonpayable"},{"type":"event","name":"AdminTransferred","inputs":[{"name":"from","type":"address","indexed":true,"internalType":"address"},{"name":"to","type":"address","indexed":true,"internalType":"address"}],"anonymous":false},{"type":"event","name":"RailSet","inputs":[{"name":"key","type":"bytes32","indexed":true,"internalType":"bytes32"},{"name":"rail","type":"address","indexed":true,"internalType":"address"},{"name":"kind","type":"uint8","indexed":false,"internalType":"enum IRail.Kind"}],"anonymous":false}],"bytecode":{"object":"0x6080346100a857601f6105c538819003918201601f19168301916001600160401b038311848410176100ad578084926020946040528339810103126100a857516001600160a01b038116908190036100a857801561007a57600080546001600160a01b03191691909117905560405161050190816100c48239f35b60405162461bcd60e51b815260206004820152600660248201526505245473a20360d41b6044820152606490fd5b600080fd5b634e487b7160e01b600052604160045260246000fdfe6040608081526004908136101561001557600080fd5b600091823560e01c90816375829def1461034d5781638eaa6ac0146102ed578163a71bef3a146102ed578163ba44593c146100ad575063f851a4401461005a57600080fd5b346100a957817ffffffffffffffffffffffffffffffffffffffffffffffffffffffffffffffffc3601126100a95773ffffffffffffffffffffffffffffffffffffffff60209254169051908152f35b5080fd5b8383346100a957807ffffffffffffffffffffffffffffffffffffffffffffffffffffffffffffffffc3601126100a95782356024359173ffffffffffffffffffffffffffffffffffffffff8084168094036102e957610110908554163314610466565b821561028d5780517f04baa00b00000000000000000000000000000000000000000000000000000000815260209182828881885afa9182156102835786926101e6575b5083865260018352808620857fffffffffffffffffffffffff0000000000000000000000000000000000000000825416179055519060038110156101ba5781527f86feb50ccd67116c81c1859a58570fb0664f3c0de45e42eb39bd65e5946573b59190a380f35b6024866021897f4e487b7100000000000000000000000000000000000000000000000000000000835252fd5b909150823d841161027c575b7fffffffffffffffffffffffffffffffffffffffffffffffffffffffffffffffe0601f820116820182811067ffffffffffffffff821117610250578491839185528101031261024c5751600381101561024c579087610153565b8580fd5b60248860418b7f4e487b7100000000000000000000000000000000000000000000000000000000835252fd5b503d6101f2565b81513d88823e3d90fd5b517f08c379a0000000000000000000000000000000000000000000000000000000008152602081860152600b60248201527f5245473a2030207261696c0000000000000000000000000000000000000000006044820152606490fd5b8480fd5b9050346103495760207ffffffffffffffffffffffffffffffffffffffffffffffffffffffffffffffffc360112610349578160209373ffffffffffffffffffffffffffffffffffffffff92358152600185522054169051908152f35b8280fd5b9050346103495760207ffffffffffffffffffffffffffffffffffffffffffffffffffffffffffffffffc3601126103495780359173ffffffffffffffffffffffffffffffffffffffff918284168094036102e9578454928316916103b2833314610466565b841561040957505090827fffffffffffffffffffffffff0000000000000000000000000000000000000000927ff8ccb027dfcd135e000e9d45e6cc2d662578a8825d4c45b5e32e0adf67e79ec68680a31617815580f35b90602060649251917f08c379a0000000000000000000000000000000000000000000000000000000008352820152600660248201527f5245473a203000000000000000000000000000000000000000000000000000006044820152fd5b1561046d57565b60646040517f08c379a000000000000000000000000000000000000000000000000000000000815260206004820152600e60248201527f5245473a206e6f742061646d696e0000000000000000000000000000000000006044820152fdfea264697066735822122010294550631454179fa0e7cbcdc5ca671df882f75f2a60a6ebba0bf315befa3d64736f6c63430008180033","linkReferences":{}},"methodIdentifiers":{"admin()":"f851a440","get(bytes32)":"8eaa6ac0","rails(bytes32)":"a71bef3a","set(bytes32,address)":"ba44593c","transferAdmin(address)":"75829def"},"id":9}