{"abi":[{"type":"constructor","inputs":[],"stateMutability":"nonpayable"},{"type":"function","name":"COOLDOWN_PERIOD","inputs":[],"outputs":[{"name":"","type":"uint256","internalType":"uint256"}],"stateMutability":"view"},{"type":"function","name":"MAX_VOLATILITY_INDEX","inputs":[],"outputs":[{"name":"","type":"uint256","internalType":"uint256"}],"stateMutability":"view"},{"type":"function","name":"MAX_VOLUME_MULTIPLIER","inputs":[],"outputs":[{"name":"","type":"uint256","internalType":"uint256"}],"stateMutability":"view"},{"type":"function","name":"authorizeOracle","inputs":[{"name":"oracle","type":"address","internalType":"address"},{"name":"authorized","type":"bool","internalType":"bool"}],"outputs":[],"stateMutability":"nonpayable"},{"type":"function","name":"authorizedOracles","inputs":[{"name":"","type":"address","internalType":"address"}],"outputs":[{"name":"","type":"bool","internalType":"bool"}],"stateMutability":"view"},{"type":"function","name":"circuitBreakers","inputs":[{"name":"","type":"bytes32","internalType":"bytes32"}],"outputs":[{"name":"isActive","type":"bool","internalType":"bool"},{"name":"triggerThreshold","type":"uint256","internalType":"uint256"},{"name":"recoveryThreshold","type":"uint256","internalType":"uint256"},{"name":"lastTriggered","type":"uint256","internalType":"uint256"},{"name":"cooldownPeriod","type":"uint256","internalType":"uint256"},{"name":"triggerType","type":"uint8","internalType":"enum EmergencyCircuitBreaker.TriggerType"}],"stateMutability":"view"},{"type":"function","name":"configureCircuitBreaker","inputs":[{"name":"breakerId","type":"bytes32","internalType":"bytes32"},{"name":"triggerType","type":"uint8","internalType":"enum EmergencyCircuitBreaker.TriggerType"},{"name":"triggerThreshold","type":"uint256","internalType":"uint256"},{"name":"recoveryThreshold","type":"uint256","internalType":"uint256"},{"name":"cooldownPeriod","type":"uint256","internalType":"uint256"}],"outputs":[],"stateMutability":"nonpayable"},{"type":"function","name":"isSettlementAllowed","inputs":[{"name":"assets","type":"address[]","internalType":"address[]"}],"outputs":[{"name":"","type":"bool","internalType":"bool"}],"stateMutability":"view"},{"type":"function","name":"marketData","inputs":[{"name":"","type":"address","internalType":"address"}],"outputs":[{"name":"price","type":"uint256","internalType":"uint256"},{"name":"volume24h","type":"uint256","internalType":"uint256"},{"name":"volatilityIndex","type":"uint256","internalType":"uint256"},{"name":"lastUpdate","type":"uint256","internalType":"uint256"}],"stateMutability":"view"},{"type":"function","name":"owner","inputs":[],"outputs":[{"name":"","type":"address","internalType":"address"}],"stateMutability":"view"},{"type":"function","name":"paused","inputs":[],"outputs":[{"name":"","type":"bool","internalType":"bool"}],"stateMutability":"view"},{"type":"function","name":"renounceOwnership","inputs":[],"outputs":[],"stateMutability":"nonpayable"},{"type":"function","name":"resetCircuitBreaker","inputs":[{"name":"breakerId","type":"bytes32","internalType":"bytes32"}],"outputs":[],"stateMutability":"nonpayable"},{"type":"function","name":"transferOwnership","inputs":[{"name":"newOwner","type":"address","internalType":"address"}],"outputs":[],"stateMutability":"nonpayable"},{"type":"function","name":"triggerCircuitBreaker","inputs":[{"name":"breakerId","type":"bytes32","internalType":"bytes32"}],"outputs":[],"stateMutability":"nonpayable"},{"type":"function","name":"updateMarketData","inputs":[{"name":"asset","type":"address","internalType":"address"},{"name":"price","type":"uint256","internalType":"uint256"},{"name":"volume24h","type":"uint256","internalType":"uint256"},{"name":"volatilityIndex","type":"uint256","internalType":"uint256"}],"outputs":[],"stateMutability":"nonpayable"},{"type":"event","name":"CircuitBreakerReset","inputs":[{"name":"breakerId","type":"bytes32","indexed":true,"internalType":"bytes32"},{"name":"timestamp","type":"uint256","indexed":false,"internalType":"uint256"}],"anonymous":false},{"type":"event","name":"CircuitBreakerTriggered","inputs":[{"name":"breakerId","type":"bytes32","indexed":true,"internalType":"bytes32"},{"name":"triggerType","type":"uint8","indexed":false,"internalType":"enum EmergencyCircuitBreaker.TriggerType"},{"name":"timestamp","type":"uint256","indexed":false,"internalType":"uint256"}],"anonymous":false},{"type":"event","name":"MarketDataUpdated","inputs":[{"name":"asset","type":"address","indexed":true,"internalType":"address"},{"name":"price","type":"uint256","indexed":false,"internalType":"uint256"},{"name":"volume","type":"uint256","indexed":false,"internalType":"uint256"},{"name":"volatility","type":"uint256","indexed":false,"internalType":"uint256"}],"anonymous":false},{"type":"event","name":"OwnershipTransferred","inputs":[{"name":"previousOwner","type":"address","indexed":true,"internalType":"address"},{"name":"newOwner","type":"address","indexed":true,"internalType":"address"}],"anonymous":false},{"type":"event","name":"Paused","inputs":[{"name":"account","type":"address","indexed":false,"internalType":"address"}],"anonymous":false},{"type":"event","name":"Unpaused","inputs":[{"name":"account","type":"address","indexed":false,"internalType":"address"}],"anonymous":false},{"type":"error","name":"EnforcedPause","inputs":[]},{"type":"error","name":"ExpectedPause","inputs":[]},{"type":"error","name":"OwnableInvalidOwner","inputs":[{"name":"owner","type":"address","internalType":"address"}]},{"type":"error","name":"OwnableUnauthorizedAccount","inputs":[{"name":"account","type":"address","internalType":"address"}]}],"bytecode":{"object":"0x6080806040523461008157331561006b57600080546040519133906001600160a01b038316907f8be0079c531659141344cd1fd0a4f28419497f9722a3daafe3b4186f6b6457e09080a36001600160a81b0319163360ff60a01b19161760005561128690816100878239f35b631e4fbdf760e01b815260006004820152602490fd5b600080fdfe6040608081526004908136101561001557600080fd5b600091823560e01c9081630c2c69fa1461100e57816318d7baed14610fd35781635c975abb14610f9057816361c992a314610f2957816363d50b3614610de35781636e99d52f14610da8578163715018a614610d0c5781638447966914610c7f5781638da5cb5b14610c2e5781639a7372a514610a75578163ae7f1a341461060f578163b0ffb3961461058b578163e6271b551461034f578163f2fde38b1461026c578163f5da068a1461010f575063fefb44f2146100d357600080fd5b3461010b57817ffffffffffffffffffffffffffffffffffffffffffffffffffffffffffffffffc36011261010b5760209051600a8152f35b5080fd5b8284346102695760209060207ffffffffffffffffffffffffffffffffffffffffffffffffffffffffffffffffc3601126102695783359067ffffffffffffffff908183116102695736602384011215610269578286013582811161023d578060051b928651977fffffffffffffffffffffffffffffffffffffffffffffffffffffffffffffffe0603f86011689019189831090831117610211575086528652602460208701928401019236841161010b57602401915b8383106101e1576020866101d8896111cd565b90519015158152f35b823573ffffffffffffffffffffffffffffffffffffffff8116810361020d5781529184019184016101c5565b8280fd5b8360416024927f4e487b7100000000000000000000000000000000000000000000000000000000835252fd5b6024826041897f4e487b7100000000000000000000000000000000000000000000000000000000835252fd5b80fd5b90503461020d5760207ffffffffffffffffffffffffffffffffffffffffffffffffffffffffffffffffc36011261020d576102a56110b2565b906102ae6111ff565b73ffffffffffffffffffffffffffffffffffffffff8092169283156103205750508254827fffffffffffffffffffffffff00000000000000000000000000000000000000008216178455167f8be0079c531659141344cd1fd0a4f28419497f9722a3daafe3b4186f6b6457e08380a380f35b908460249251917f1e4fbdf7000000000000000000000000000000000000000000000000000000008352820152fd5b9190503461020d57602090817ffffffffffffffffffffffffffffffffffffffffffffffffffffffffffffffffc3601126105875782359261038e6111ff565b83855260018352818520805460ff81161561052b576003820154838301546103b68183611191565b42106104cf577fffffffffffffffffffffffffffffffffffffffffffffffffffffffffffffff00929161041d916103eb611116565b916001835260018701548a8401526002870154898401526060830152608082015260a060ff6005870154169101611185565b16905584549060ff8260a01c16156104a85750907fffffffffffffffffffffff00ffffffffffffffffffffffffffffffffffffffff7fbae506d49d64011f4ab0f2dbff3426146fca3939fb6ad48677c5cdbb77be22ab93921685557f5db9ee0a495bf2e6ff9c91a7834c1ba4fdd244a5e8aa4e537bd38aeae4b073aa828251338152a151428152a280f35b82517f8dfc202b000000000000000000000000000000000000000000000000000000008152fd5b606485888851917f08c379a0000000000000000000000000000000000000000000000000000000008352820152600f60248201527f436f6f6c646f776e2061637469766500000000000000000000000000000000006044820152fd5b606483868651917f08c379a0000000000000000000000000000000000000000000000000000000008352820152600a60248201527f4e6f7420616374697665000000000000000000000000000000000000000000006044820152fd5b8380fd5b50503461010b5760207ffffffffffffffffffffffffffffffffffffffffffffffffffffffffffffffffc36011261010b578060809273ffffffffffffffffffffffffffffffffffffffff6105dd6110b2565b168152600260205220908154916001810154916003600283015492015492815194855260208501528301526060820152f35b83833461010b5760807ffffffffffffffffffffffffffffffffffffffffffffffffffffffffffffffffc36011261010b576106486110b2565b90602435936044356064359133865260039660209388855260ff9384878a20541615610a1957918891879361067b611165565b8381528c8982019b838d52878301858152606084019142835273ffffffffffffffffffffffffffffffffffffffff1698888d8b809b526002905220935184556001809e5190850155516002840155519101558851928352878301528782015260607f6f949ad4bac60e9f8b03bc0f1091ab6c7da138d865ba48464b6e0cd7bd3c350391a2865260028352838620610710611165565b90805482528681015491858101928352896002830154928389840152015490606001527f1fdb9315ba4eac8b00ec6b95e7ac82675a9e1d7ca50c147a43632838518632f4908189528786528689209088820154106108e0575b505051967f131f1d08cd63979bee0c9ca96617f6a01bbee766bda7dc1c9952572c3fea07389586885280855285882098818a0154106107a6578780f35b885484811615806108c6575b6107bb57508780f35b7fffffffffffffffffffffffffffffffffffffffffffffffffffffffffffffff00161788554290880155855490828260a01c1661089f57507f1c7aa127f9ed6640cf8f63e4dcf1e243b9724b72fbac87d969cc82b7096ad8b6949596740100000000000000000000000000000000000000007fffffffffffffffffffffff00ffffffffffffffffffffffffffffffffffffffff600593161788557f62e78cea01bee320cd4e420270b5ea74000d11b0c9f74754ebdbfc544b05a258848651338152a10154169061088d835180936110da565b4290820152a280828080808080808780f35b84517fd93c0665000000000000000000000000000000000000000000000000000000008152fd5b506108d8838b0154858c015490611191565b4210156107b2565b87815486811615806109ff575b6108f9575b5050610769565b7fffffffffffffffffffffffffffffffffffffffffffffffffffffffffffffff0016178155428a8201558854858160a01c166109d7578560057f1c7aa127f9ed6640cf8f63e4dcf1e243b9724b72fbac87d969cc82b7096ad8b693740100000000000000000000000000000000000000007fffffffffffffffffffffff00ffffffffffffffffffffffffffffffffffffffff8c9516178d557f62e78cea01bee320cd4e420270b5ea74000d11b0c9f74754ebdbfc544b05a2588a8551338152a10154166109c8825180926110da565b4288820152a2888087816108f2565b8488517fd93c0665000000000000000000000000000000000000000000000000000000008152fd5b50610a118c8401548785015490611191565b4210156108ed565b606484878951917f08c379a0000000000000000000000000000000000000000000000000000000008352820152601360248201527f556e617574686f72697a6564206f7261636c65000000000000000000000000006044820152fd5b9190503461020d5760207ffffffffffffffffffffffffffffffffffffffffffffffffffffffffffffffffc36011261020d57813591610ab26111ff565b828452600160205281842090815460ff8116610bd1577fffffffffffffffffffffffffffffffffffffffffffffffffffffffffffffff006001911617825542600383015584549060ff8260a01c16610baa575060057f1c7aa127f9ed6640cf8f63e4dcf1e243b9724b72fbac87d969cc82b7096ad8b69392740100000000000000000000000000000000000000007fffffffffffffffffffffff00ffffffffffffffffffffffffffffffffffffffff60ff94161787557f62e78cea01bee320cd4e420270b5ea74000d11b0c9f74754ebdbfc544b05a25860208551338152a1015416610ba0825180926110da565b426020820152a280f35b83517fd93c0665000000000000000000000000000000000000000000000000000000008152fd5b60648260208651917f08c379a0000000000000000000000000000000000000000000000000000000008352820152600e60248201527f416c7265616479206163746976650000000000000000000000000000000000006044820152fd5b50503461010b57817ffffffffffffffffffffffffffffffffffffffffffffffffffffffffffffffffc36011261010b5773ffffffffffffffffffffffffffffffffffffffff60209254169051908152f35b9190503461020d5760207ffffffffffffffffffffffffffffffffffffffffffffffffffffffffffffffffc36011261020d5780610d0a9160c0948435815260016020522060ff8154169360018201549260028301549060ff600560038601549486015495015416948151971515885260208801528601526060850152608084015260a08301906110da565bf35b833461026957807ffffffffffffffffffffffffffffffffffffffffffffffffffffffffffffffffc36011261026957610d436111ff565b8073ffffffffffffffffffffffffffffffffffffffff81547fffffffffffffffffffffffff000000000000000000000000000000000000000081168355167f8be0079c531659141344cd1fd0a4f28419497f9722a3daafe3b4186f6b6457e08280a380f35b50503461010b57817ffffffffffffffffffffffffffffffffffffffffffffffffffffffffffffffffc36011261010b5760209051610e108152f35b90503461020d5760a07ffffffffffffffffffffffffffffffffffffffffffffffffffffffffffffffffc36011261020d57602435918183101561058757600590610e2b6111ff565b610e33611116565b9085825260208201604435815281830160643581526060840191888352610eab60808601946084358652610e6b60a088019a8b611185565b88358b5260016020528a2095511515869060ff7fffffffffffffffffffffffffffffffffffffffffffffffffffffffffffffff0083541691151516179055565b51600185015551600284015551600383015551838201550191519080821015610efd575060ff7fffffffffffffffffffffffffffffffffffffffffffffffffffffffffffffff00835416911617905580f35b8360216024927f4e487b7100000000000000000000000000000000000000000000000000000000835252fd5b50503461010b5760207ffffffffffffffffffffffffffffffffffffffffffffffffffffffffffffffffc36011261010b5760ff8160209373ffffffffffffffffffffffffffffffffffffffff610f7d6110b2565b1681526003855220541690519015158152f35b50503461010b57817ffffffffffffffffffffffffffffffffffffffffffffffffffffffffffffffffc36011261010b5760ff6020925460a01c1690519015158152f35b50503461010b57817ffffffffffffffffffffffffffffffffffffffffffffffffffffffffffffffffc36011261010b57602090516127108152f35b50503461010b57807ffffffffffffffffffffffffffffffffffffffffffffffffffffffffffffffffc36011261010b576110466110b2565b906024359081151582036105875773ffffffffffffffffffffffffffffffffffffffff6110af936110756111ff565b168452600360205283209060ff7fffffffffffffffffffffffffffffffffffffffffffffffffffffffffffffff0083541691151516179055565b80f35b6004359073ffffffffffffffffffffffffffffffffffffffff821682036110d557565b600080fd5b9060048210156110e75752565b7f4e487b7100000000000000000000000000000000000000000000000000000000600052602160045260246000fd5b6040519060c0820182811067ffffffffffffffff82111761113657604052565b7f4e487b7100000000000000000000000000000000000000000000000000000000600052604160045260246000fd5b604051906080820182811067ffffffffffffffff82111761113657604052565b60048210156110e75752565b9190820180921161119e57565b7f4e487b7100000000000000000000000000000000000000000000000000000000600052601160045260246000fd5b6000805460a01c60ff16815b83518110156111f657816111ef576001016111d9565b5050905090565b50505050600190565b73ffffffffffffffffffffffffffffffffffffffff60005416330361122057565b60246040517f118cdaa7000000000000000000000000000000000000000000000000000000008152336004820152fdfea264697066735822122068891af2a41e5a6f27d1d3abba10e5bac3b43bde437b031ee0a073d11998c87664736f6c63430008180033","linkReferences":{}},"methodIdentifiers":{"COOLDOWN_PERIOD()":"6e99d52f","MAX_VOLATILITY_INDEX()":"18d7baed","MAX_VOLUME_MULTIPLIER()":"fefb44f2","authorizeOracle(address,bool)":"0c2c69fa","authorizedOracles(address)":"61c992a3","circuitBreakers(bytes32)":"84479669","configureCircuitBreaker(bytes32,uint8,uint256,uint256,uint256)":"63d50b36","isSettlementAllowed(address[])":"f5da068a","marketData(address)":"b0ffb396","owner()":"8da5cb5b","paused()":"5c975abb","renounceOwnership()":"715018a6","resetCircuitBreaker(bytes32)":"e6271b55","transferOwnership(address)":"f2fde38b","triggerCircuitBreaker(bytes32)":"9a7372a5","updateMarketData(address,uint256,uint256,uint256)":"ae7f1a34"},"id":2}