{
  "_format": "hh-sol-artifact-1",
  "contractName": "RiskWeightsMock",
  "sourceName": "contracts/mocks/RiskWeightsMock.sol",
  "abi": [
    {
      "inputs": [
        {
          "internalType": "address",
          "name": "a",
          "type": "address"
        },
        {
          "internalType": "uint16",
          "name": "bps",
          "type": "uint16"
        }
      ],
      "name": "set",
      "outputs": [],
      "stateMutability": "nonpayable",
      "type": "function"
    },
    {
      "inputs": [
        {
          "internalType": "address",
          "name": "",
          "type": "address"
        }
      ],
      "name": "w",
      "outputs": [
        {
          "internalType": "uint16",
          "name": "",
          "type": "uint16"
        }
      ],
      "stateMutability": "view",
      "type": "function"
    },
    {
      "inputs": [
        {
          "internalType": "address",
          "name": "a",
          "type": "address"
        }
      ],
      "name": "weightOf",
      "outputs": [
        {
          "internalType": "uint16",
          "name": "",
          "type": "uint16"
        }
      ],
      "stateMutability": "view",
      "type": "function"
    }
  ],
  "bytecode": "0x608060405234801561001057600080fd5b5061019f806100206000396000f3fe608060405234801561001057600080fd5b50600436106100415760003560e01c80639b82c3cb14610046578063dd4bc10114610085578063f23c19d3146100c9575b600080fd5b610083610054366004610109565b6001600160a01b03919091166000908152602081905260409020805461ffff191661ffff909216919091179055565b005b6100b2610093366004610147565b6001600160a01b031660009081526020819052604090205461ffff1690565b60405161ffff909116815260200160405180910390f35b6100b26100d7366004610147565b60006020819052908152604090205461ffff1681565b80356001600160a01b038116811461010457600080fd5b919050565b6000806040838503121561011c57600080fd5b610125836100ed565b9150602083013561ffff8116811461013c57600080fd5b809150509250929050565b60006020828403121561015957600080fd5b610162826100ed565b939250505056fea2646970667358221220d0904910cfab76865d0cd9f34205818ce207241529cdcbbc626993075ccdfd9564736f6c63430008180033",
  "linkReferences": {},
  "deployedLinkReferences": {}
}