{"abi":[{"type":"constructor","inputs":[],"stateMutability":"nonpayable"},{"type":"function","name":"EXTREME_RISK_THRESHOLD","inputs":[],"outputs":[{"name":"","type":"uint256","internalType":"uint256"}],"stateMutability":"view"},{"type":"function","name":"HIGH_RISK_THRESHOLD","inputs":[],"outputs":[{"name":"","type":"uint256","internalType":"uint256"}],"stateMutability":"view"},{"type":"function","name":"MAX_RISK_SCORE","inputs":[],"outputs":[{"name":"","type":"uint256","internalType":"uint256"}],"stateMutability":"view"},{"type":"function","name":"addSanctionedEntity","inputs":[{"name":"entityId","type":"bytes32","internalType":"bytes32"},{"name":"name","type":"string","internalType":"string"},{"name":"aliases","type":"string[]","internalType":"string[]"},{"name":"jurisdiction","type":"string","internalType":"string"},{"name":"source","type":"uint8","internalType":"enum AdvancedSanctionsEngine.SanctionSource"},{"name":"riskLevel","type":"uint8","internalType":"enum AdvancedSanctionsEngine.RiskLevel"},{"name":"reason","type":"string","internalType":"string"}],"outputs":[],"stateMutability":"nonpayable"},{"type":"function","name":"assessAccountRisk","inputs":[{"name":"account","type":"address","internalType":"address"}],"outputs":[{"name":"riskScore","type":"uint256","internalType":"uint256"},{"name":"riskLevel","type":"uint8","internalType":"enum AdvancedSanctionsEngine.RiskLevel"}],"stateMutability":"nonpayable"},{"type":"function","name":"evaluateTransactionRisk","inputs":[{"name":"txId","type":"bytes32","internalType":"bytes32"},{"name":"from","type":"address","internalType":"address"},{"name":"to","type":"address","internalType":"address"},{"name":"amount","type":"uint256","internalType":"uint256"},{"name":"asset","type":"address","internalType":"address"}],"outputs":[{"name":"isAllowed","type":"bool","internalType":"bool"},{"name":"reason","type":"string","internalType":"string"}],"stateMutability":"nonpayable"},{"type":"function","name":"getRiskProfile","inputs":[{"name":"account","type":"address","internalType":"address"}],"outputs":[{"name":"riskScore","type":"uint256","internalType":"uint256"},{"name":"riskLevel","type":"uint8","internalType":"enum AdvancedSanctionsEngine.RiskLevel"},{"name":"isFrozen","type":"bool","internalType":"bool"},{"name":"lastAssessment","type":"uint256","internalType":"uint256"},{"name":"riskFactors","type":"string[]","internalType":"string[]"}],"stateMutability":"view"},{"type":"function","name":"monitoredAccounts","inputs":[{"name":"","type":"uint256","internalType":"uint256"}],"outputs":[{"name":"","type":"address","internalType":"address"}],"stateMutability":"view"},{"type":"function","name":"owner","inputs":[],"outputs":[{"name":"","type":"address","internalType":"address"}],"stateMutability":"view"},{"type":"function","name":"removeSanctionedEntity","inputs":[{"name":"entityId","type":"bytes32","internalType":"bytes32"}],"outputs":[],"stateMutability":"nonpayable"},{"type":"function","name":"renounceOwnership","inputs":[],"outputs":[],"stateMutability":"nonpayable"},{"type":"function","name":"riskProfiles","inputs":[{"name":"","type":"address","internalType":"address"}],"outputs":[{"name":"account","type":"address","internalType":"address"},{"name":"riskScore","type":"uint256","internalType":"uint256"},{"name":"overallRisk","type":"uint8","internalType":"enum AdvancedSanctionsEngine.RiskLevel"},{"name":"lastAssessment","type":"uint256","internalType":"uint256"},{"name":"isFrozen","type":"bool","internalType":"bool"}],"stateMutability":"view"},{"type":"function","name":"sanctionedEntities","inputs":[{"name":"","type":"bytes32","internalType":"bytes32"}],"outputs":[{"name":"entityId","type":"bytes32","internalType":"bytes32"},{"name":"name","type":"string","internalType":"string"},{"name":"jurisdiction","type":"string","internalType":"string"},{"name":"source","type":"uint8","internalType":"enum AdvancedSanctionsEngine.SanctionSource"},{"name":"riskLevel","type":"uint8","internalType":"enum AdvancedSanctionsEngine.RiskLevel"},{"name":"addedTimestamp","type":"uint256","internalType":"uint256"},{"name":"lastUpdated","type":"uint256","internalType":"uint256"},{"name":"isActive","type":"bool","internalType":"bool"},{"name":"reason","type":"string","internalType":"string"}],"stateMutability":"view"},{"type":"function","name":"sanctionedEntityIds","inputs":[{"name":"","type":"uint256","internalType":"uint256"}],"outputs":[{"name":"","type":"bytes32","internalType":"bytes32"}],"stateMutability":"view"},{"type":"function","name":"setAccountFrozen","inputs":[{"name":"account","type":"address","internalType":"address"},{"name":"frozen","type":"bool","internalType":"bool"},{"name":"reason","type":"string","internalType":"string"}],"outputs":[],"stateMutability":"nonpayable"},{"type":"function","name":"transactionRisks","inputs":[{"name":"","type":"bytes32","internalType":"bytes32"}],"outputs":[{"name":"txId","type":"bytes32","internalType":"bytes32"},{"name":"from","type":"address","internalType":"address"},{"name":"to","type":"address","internalType":"address"},{"name":"amount","type":"uint256","internalType":"uint256"},{"name":"asset","type":"address","internalType":"address"},{"name":"riskScore","type":"uint256","internalType":"uint256"},{"name":"riskLevel","type":"uint8","internalType":"enum AdvancedSanctionsEngine.RiskLevel"},{"name":"isBlocked","type":"bool","internalType":"bool"},{"name":"timestamp","type":"uint256","internalType":"uint256"}],"stateMutability":"view"},{"type":"function","name":"transferOwnership","inputs":[{"name":"newOwner","type":"address","internalType":"address"}],"outputs":[],"stateMutability":"nonpayable"},{"type":"event","name":"AccountFrozen","inputs":[{"name":"account","type":"address","indexed":true,"internalType":"address"},{"name":"reason","type":"string","indexed":false,"internalType":"string"}],"anonymous":false},{"type":"event","name":"AccountUnfrozen","inputs":[{"name":"account","type":"address","indexed":true,"internalType":"address"}],"anonymous":false},{"type":"event","name":"EntityDelisted","inputs":[{"name":"entityId","type":"bytes32","indexed":true,"internalType":"bytes32"}],"anonymous":false},{"type":"event","name":"EntitySanctioned","inputs":[{"name":"entityId","type":"bytes32","indexed":true,"internalType":"bytes32"},{"name":"source","type":"uint8","indexed":false,"internalType":"enum AdvancedSanctionsEngine.SanctionSource"},{"name":"riskLevel","type":"uint8","indexed":false,"internalType":"enum AdvancedSanctionsEngine.RiskLevel"}],"anonymous":false},{"type":"event","name":"OwnershipTransferred","inputs":[{"name":"previousOwner","type":"address","indexed":true,"internalType":"address"},{"name":"newOwner","type":"address","indexed":true,"internalType":"address"}],"anonymous":false},{"type":"event","name":"RiskProfileUpdated","inputs":[{"name":"account","type":"address","indexed":true,"internalType":"address"},{"name":"riskScore","type":"uint256","indexed":false,"internalType":"uint256"},{"name":"riskLevel","type":"uint8","indexed":false,"internalType":"enum AdvancedSanctionsEngine.RiskLevel"}],"anonymous":false},{"type":"event","name":"TransactionBlocked","inputs":[{"name":"txId","type":"bytes32","indexed":true,"internalType":"bytes32"},{"name":"from","type":"address","indexed":true,"internalType":"address"},{"name":"to","type":"address","indexed":true,"internalType":"address"},{"name":"reason","type":"string","indexed":false,"internalType":"string"}],"anonymous":false},{"type":"error","name":"OwnableInvalidOwner","inputs":[{"name":"owner","type":"address","internalType":"address"}]},{"type":"error","name":"OwnableUnauthorizedAccount","inputs":[{"name":"account","type":"address","internalType":"address"}]},{"type":"error","name":"ReentrancyGuardReentrantCall","inputs":[]}],"bytecode":{"object":"0x6080806040523461007e5733156100685760008054336001600160a01b03198216811783556040519290916001600160a01b0316907f8be0079c531659141344cd1fd0a4f28419497f9722a3daafe3b4186f6b6457e09080a3600180556124bb90816100848239f35b631e4fbdf760e01b815260006004820152602490fd5b600080fdfe6080604052600436101561001257600080fd5b60003560e01c80633347825b14610b5357806345f1913114610b18578063491d57ba146109e457806367d848cf1461094c5780636ff177ca14610835578063715018a6146107995780638da5cb5b146107475780639629a3f21461067b5780639948b18d146105d75780639dcbd55c1461059c5780639fa2674b14610561578063a49b5417146104dc578063a85510ca146103e3578063a89161d91461038e578063b2d4fd2c14610336578063baf1e57f146101be5763f2fde38b146100d757600080fd5b346101b95760207ffffffffffffffffffffffffffffffffffffffffffffffffffffffffffffffffc3601126101b95761010e61158a565b610116612434565b73ffffffffffffffffffffffffffffffffffffffff80911690811561018857600054827fffffffffffffffffffffffff0000000000000000000000000000000000000000821617600055167f8be0079c531659141344cd1fd0a4f28419497f9722a3daafe3b4186f6b6457e0600080a3005b60246040517f1e4fbdf700000000000000000000000000000000000000000000000000000000815260006004820152fd5b600080fd5b346101b9576020807ffffffffffffffffffffffffffffffffffffffffffffffffffffffffffffffffc3601126101b95773ffffffffffffffffffffffffffffffffffffffff61020b61158a565b16600052600381526040600020906001808301549160ff6002850154169260ff6005860154166006600487015496019586549161024783611572565b9261025560405194856114bc565b8084528584018099600052866000206000915b83831061030d575050505061028a6040519760a089019589528689019061160b565b15156040870152606086015260a060808601525180915260c084019160c08260051b86010195926000905b8382106102c25786880387f35b909192939483806102fc8a7fffffffffffffffffffffffffffffffffffffffffffffffffffffffffffffff408b869d0301865289516115ad565b9997019594939190910191016102b5565b9089808a819e9c9594610322859d9c9d6116d1565b8152019201920192509a989a979697610268565b346101b95760207ffffffffffffffffffffffffffffffffffffffffffffffffffffffffffffffffc3601126101b957604061038c61037a61037561158a565b612068565b8392919251928352602083019061160b565bf35b346101b95760207ffffffffffffffffffffffffffffffffffffffffffffffffffffffffffffffffc3601126101b9576004356005548110156101b9576103d5602091611618565b90546040519160031b1c8152f35b346101b95760207ffffffffffffffffffffffffffffffffffffffffffffffffffffffffffffffffc3601126101b9576004356000526002602052604060002080546104d8610433600184016116d1565b92610440600382016116d1565b60048201549160058101546006820154906104b961049861046b600860ff60078801541696016116d1565b9561048a6040519b8c809c6020610120928392815201528c01906115ad565b908a820360408c01526115ad565b956104a960608a0160ff8316611795565b60ff60808a019160081c1661160b565b60a087015260c0860152151560e08501528382036101008501526115ad565b0390f35b346101b95760207ffffffffffffffffffffffffffffffffffffffffffffffffffffffffffffffffc3601126101b9576004356006548110156101b95773ffffffffffffffffffffffffffffffffffffffff60209160066000527ff652222313e28459528d920b65115c16c04f3efc82aaedc97be59f3f377c0d3f015416604051908152f35b346101b95760007ffffffffffffffffffffffffffffffffffffffffffffffffffffffffffffffffc3601126101b95760206040516103848152f35b346101b95760007ffffffffffffffffffffffffffffffffffffffffffffffffffffffffffffffffc3601126101b95760206040516102bc8152f35b346101b95760207ffffffffffffffffffffffffffffffffffffffffffffffffffffffffffffffffc3601126101b95760a073ffffffffffffffffffffffffffffffffffffffff8061062661158a565b1660005260036020526040600020908154169060018101549061066d60ff60028301541660ff6005600485015494015416936040519586526020860152604085019061160b565b606083015215156080820152f35b346101b95760207ffffffffffffffffffffffffffffffffffffffffffffffffffffffffffffffffc3601126101b9576004356000526004602052610120604060002080549060ff73ffffffffffffffffffffffffffffffffffffffff9182600182015416928060028301541690600383015490600484015416906005840154926008600686015495015496604051988952602089015260408801526060870152608086015260a085015261073460c0850183831661160b565b60081c16151560e0830152610100820152f35b346101b95760007ffffffffffffffffffffffffffffffffffffffffffffffffffffffffffffffffc3601126101b957602073ffffffffffffffffffffffffffffffffffffffff60005416604051908152f35b346101b95760007ffffffffffffffffffffffffffffffffffffffffffffffffffffffffffffffffc3601126101b9576107d0612434565b600073ffffffffffffffffffffffffffffffffffffffff81547fffffffffffffffffffffffff000000000000000000000000000000000000000081168355167f8be0079c531659141344cd1fd0a4f28419497f9722a3daafe3b4186f6b6457e08280a3005b346101b95760207ffffffffffffffffffffffffffffffffffffffffffffffffffffffffffffffffc3601126101b95760043561086f612434565b80600052600260205260ff60076040600020015416156108ee578060005260026020526040600020600781017fffffffffffffffffffffffffffffffffffffffffffffffffffffffffffffff0081541690556006429101557f0a202e3e3f000c7f9342a9f77775679cf09c2fb305d376751b66d18e43a22bd5600080a2005b60646040517f08c379a000000000000000000000000000000000000000000000000000000000815260206004820152601560248201527f456e74697479206e6f742073616e6374696f6e656400000000000000000000006044820152fd5b346101b95760a07ffffffffffffffffffffffffffffffffffffffffffffffffffffffffffffffffc3601126101b95760243573ffffffffffffffffffffffffffffffffffffffff80821682036101b9576044359181831683036101b95760843591821682036101b9576109c592606435916004356118f8565b906104d8604051928392151583526040602084015260408301906115ad565b346101b95760607ffffffffffffffffffffffffffffffffffffffffffffffffffffffffffffffffc3601126101b957610a1b61158a565b6024359081151582036101b95760443567ffffffffffffffff81116101b957610a5d73ffffffffffffffffffffffffffffffffffffffff9136906004016114fd565b91610a66612434565b1691826000526003602052610aad8160056040600020019060ff7fffffffffffffffffffffffffffffffffffffffffffffffffffffffffffffff0083541691151516179055565b15610af057610aeb7fc71267b66b2c8820cf488bba23c122cee8408eb55e75428bab72cce8d259e6b9916040519182916020835260208301906115ad565b0390a2005b507ff915cd9fe234de6e8d3afe7bf2388d35b2b6d48e8c629a24602019bde79c213a600080a2005b346101b95760007ffffffffffffffffffffffffffffffffffffffffffffffffffffffffffffffffc3601126101b95760206040516103e88152f35b346101b95760e07ffffffffffffffffffffffffffffffffffffffffffffffffffffffffffffffffc3601126101b95760243567ffffffffffffffff81116101b957610ba29036906004016114fd565b6044359067ffffffffffffffff82116101b957366023830112156101b9578160040135610bce81611572565b92610bdc60405194856114bc565b8184526024602085019260051b820101903682116101b95760248101925b82841061145357858560643567ffffffffffffffff81116101b957610c239036906004016114fd565b91600560843510156101b95760a4359260048410156101b95760c43567ffffffffffffffff81116101b957610c5c9036906004016114fd565b90610c65612434565b600435600052600260205260ff600760406000200154166113f55760405192610c8d84611483565b600435845260208401948552604084015260608301526084356080830152610cb88460a084016117a2565b4260c08301524260e083015260016101008301526101208201526004356000526002602052604060002091815183555192835167ffffffffffffffff8111610fec57610d1481610d0b600187015461167e565b600187016117c5565b6020601f821160011461132c578190610d64939495966000926110f7575b50507fffffffffffffffffffffffffffffffffffffffffffffffffffffffffffffffff8260011b9260031b1c19161790565b60018401555b6002830160408301516020815191610d82838561180a565b01916000526020600020916000905b8282106111cb5750505050606082015192835167ffffffffffffffff8111610fec57610dcd81610dc4600385015461167e565b600385016117c5565b6020601f8211600114611102578190610e1c939495966000926110f75750507fffffffffffffffffffffffffffffffffffffffffffffffffffffffffffffffff8260011b9260031b1c19161790565b60038201555b6080830151600482019160058210156110c85782549260a08601519260048410156110c857610120947fffffffffffffffffffffffffffffffffffffffffffffffffffffffffffff000060ff61ff00600897881b16931691161717905560c0850151600582015560e08501516006820155610ed26101008601511515600783019060ff7fffffffffffffffffffffffffffffffffffffffffffffffffffffffffffffff0083541691151516179055565b0192015191825167ffffffffffffffff8111610fec57610efc81610ef6845461167e565b846117c5565b6020601f8211600114611026578190610f4a93949560009261101b5750507fffffffffffffffffffffffffffffffffffffffffffffffffffffffffffffffff8260011b9260031b1c19161790565b90555b60055468010000000000000000811015610fec57806001610f719201600555611618565b81549060031b907fffffffffffffffffffffffffffffffffffffffffffffffffffffffffffffffff600435831b921b1916179055610fc260405191610fb883608435611795565b602083019061160b565b7f34c02c7356c64b0e3842126aba0d8d301683c7b65cd2db586be32a8e3d7d2b6e604060043592a2005b7f4e487b7100000000000000000000000000000000000000000000000000000000600052604160045260246000fd5b015190508580610d32565b7fffffffffffffffffffffffffffffffffffffffffffffffffffffffffffffffe08216908360005260206000209160005b8181106110b057509583600195969710611079575b505050811b019055610f4d565b01517fffffffffffffffffffffffffffffffffffffffffffffffffffffffffffffffff60f88460031b161c1916905584808061106c565b9192602060018192868b015181550194019201611057565b7f4e487b7100000000000000000000000000000000000000000000000000000000600052602160045260246000fd5b015190508680610d32565b6003830160005260206000209060005b7fffffffffffffffffffffffffffffffffffffffffffffffffffffffffffffffe0841681106111b35750600193949596837fffffffffffffffffffffffffffffffffffffffffffffffffffffffffffffffe081161061117c575b505050811b016003820155610e22565b01517fffffffffffffffffffffffffffffffffffffffffffffffffffffffffffffffff60f88460031b161c1916905585808061116c565b9091602060018192858b015181550193019101611112565b805180519067ffffffffffffffff8211610fec576111f3826111ed885461167e565b886117c5565b602090601f83116001146112625792611248836001959460209487966000926112575750507fffffffffffffffffffffffffffffffffffffffffffffffffffffffffffffffff8260011b9260031b1c19161790565b87555b01940191019092610d91565b015190508d80610d32565b908660005260206000209160005b7fffffffffffffffffffffffffffffffffffffffffffffffffffffffffffffffe08516811061131457508360209360019693879693837fffffffffffffffffffffffffffffffffffffffffffffffffffffffffffffffe0899616106112dd575b505050811b01875561124b565b01517fffffffffffffffffffffffffffffffffffffffffffffffffffffffffffffffff60f88460031b161c191690558c80806112d0565b91926020600181928685015181550194019201611270565b6001850160005260206000209060005b7fffffffffffffffffffffffffffffffffffffffffffffffffffffffffffffffe0841681106113dd5750600193949596837fffffffffffffffffffffffffffffffffffffffffffffffffffffffffffffffe08116106113a6575b505050811b016001840155610d6a565b01517fffffffffffffffffffffffffffffffffffffffffffffffffffffffffffffffff60f88460031b161c19169055858080611396565b9091602060018192858b01518155019301910161133c565b60646040517f08c379a000000000000000000000000000000000000000000000000000000000815260206004820152601960248201527f456e7469747920616c72656164792073616e6374696f6e6564000000000000006044820152fd5b833567ffffffffffffffff81116101b9576020916114788392602436918701016114fd565b815201930192610bfa565b610140810190811067ffffffffffffffff821117610fec57604052565b6040810190811067ffffffffffffffff821117610fec57604052565b90601f7fffffffffffffffffffffffffffffffffffffffffffffffffffffffffffffffe0910116810190811067ffffffffffffffff821117610fec57604052565b81601f820112156101b95780359067ffffffffffffffff8211610fec576040519261155060207fffffffffffffffffffffffffffffffffffffffffffffffffffffffffffffffe0601f86011601856114bc565b828452602083830101116101b957816000926020809301838601378301015290565b67ffffffffffffffff8111610fec5760051b60200190565b6004359073ffffffffffffffffffffffffffffffffffffffff821682036101b957565b919082519283825260005b8481106115f75750507fffffffffffffffffffffffffffffffffffffffffffffffffffffffffffffffe0601f8460006020809697860101520116010190565b6020818301810151848301820152016115b8565b9060048210156110c85752565b60055481101561164f5760056000527f036b6384b5eca791c62761152d0c79bb0604c104a5fb6f4eb0703f3154bb3db00190600090565b7f4e487b7100000000000000000000000000000000000000000000000000000000600052603260045260246000fd5b90600182811c921680156116c7575b602083101461169857565b7f4e487b7100000000000000000000000000000000000000000000000000000000600052602260045260246000fd5b91607f169161168d565b906040519182600082546116e48161167e565b908184526020946001916001811690816000146117545750600114611715575b505050611713925003836114bc565b565b600090815285812095935091905b81831061173c5750506117139350820101388080611704565b85548884018501529485019487945091830191611723565b9150506117139593507fffffffffffffffffffffffffffffffffffffffffffffffffffffffffffffff0091501682840152151560051b820101388080611704565b9060058210156110c85752565b60048210156110c85752565b8181106117b9575050565b600081556001016117ae565b9190601f81116117d457505050565b611713926000526020600020906020601f840160051c83019310611800575b601f0160051c01906117ae565b90915081906117f3565b680100000000000000008211610fec5780549180825582811061182c57505050565b60009182526020906020832093840193015b83811061184b5750505050565b80836118596001935461167e565b80611867575b50500161183e565b601f808211851461187e57505081555b833861185f565b61189790848452868420920160051c82018583016117ae565b81835555611877565b80511561164f5760200190565b805182101561164f5760209160051b010190565b9060048110156110c85760ff7fffffffffffffffffffffffffffffffffffffffffffffffffffffffffffffff008354169116179055565b919293909360009160405190610160820182811067ffffffffffffffff82111761203b57604052600a8252835b610140811061202a57508361193988612068565b5060011c9061194788612068565b5060011c8201809211611ffd57508069152d02c7e14af68000008511611f99575b5060648101809111611f6a577fffffffffffffffffffffffffffffffffffffffffffffffffffffffffffffffff8514611f6a576040516119a7816114a0565b601881527f43726f73732d626f72646572207472616e73616374696f6e000000000000000060208201526119db86856118ad565b526119e685846118ad565b506103e89081811115611f625750935b611a0260018201611572565b92611a1060405194856114bc565b6001820184527fffffffffffffffffffffffffffffffffffffffffffffffffffffffffffffffe0611a4360018401611572565b0160005b818110611f5157505060005b600183018110611f245750611ac5929150600090506103848610611ebb575073ffffffffffffffffffffffffffffffffffffffff6003915b60405195611a9887611483565b888752828b166020880152828a16604088015260608701521660808501528460a085015260c084016117a2565b6102bc83101560e083015261010082015242610120820152826000526004602052604060002090805182556001820173ffffffffffffffffffffffffffffffffffffffff602083015116907fffffffffffffffffffffffff000000000000000000000000000000000000000091828254161790556002830173ffffffffffffffffffffffffffffffffffffffff6040840151168282541617905560608201516003840155600483019073ffffffffffffffffffffffffffffffffffffffff6080840151169082541617905560a0810151600583015560c081015160048110156110c857611bb590600684016118c1565b60e081015115157fffffffffffffffffffffffffffffffffffffffffffffffffffffffffffff00ff61ff0060068501549260081b169116176006830155600782016101008201516020815191611c0b838561180a565b01916000526020600020916000905b828210611d6057505050509060086101206102bc949301519101551015611c7a57505050600190604051611c4d816114a0565b601481527f5472616e73616374696f6e20617070726f766564000000000000000000000000602082015290565b7f02a0643b35d25b28cbc5b9052f86408d0c545c1dd77e5a618b51aa709d27e299606073ffffffffffffffffffffffffffffffffffffffff806040519560208752601560208801527f48696768207269736b207472616e73616374696f6e0000000000000000000000604088015216951693a46000906040516060810181811067ffffffffffffffff821117610fec57604052602a81527f5472616e73616374696f6e20626c6f636b65642064756520746f20686967682060208201527f7269736b2073636f726500000000000000000000000000000000000000000000604082015290565b805180519067ffffffffffffffff8211610fec57611d82826111ed885461167e565b602090601f8311600114611df15792611dd783600195946020948796600092611de65750507fffffffffffffffffffffffffffffffffffffffffffffffffffffffffffffffff8260011b9260031b1c19161790565b87555b01940191019092611c1a565b015190503880610d32565b908660005260206000209160005b7fffffffffffffffffffffffffffffffffffffffffffffffffffffffffffffffe085168110611ea357508360209360019693879693837fffffffffffffffffffffffffffffffffffffffffffffffffffffffffffffffe089961610611e6c575b505050811b018755611dda565b01517fffffffffffffffffffffffffffffffffffffffffffffffffffffffffffffffff60f88460031b161c19169055388080611e5f565b91926020600181928685015181550194019201611dff565b6102bc8610611ee3575073ffffffffffffffffffffffffffffffffffffffff60025b91611a8b565b61012c8610611f09575073ffffffffffffffffffffffffffffffffffffffff6001611edd565b73ffffffffffffffffffffffffffffffffffffffff90611edd565b600181611f328293856118ad565b51611f3d82896118ad565b52611f4881886118ad565b50019050611a53565b806060602080938901015201611a47565b9050936119f6565b7f4e487b7100000000000000000000000000000000000000000000000000000000600052601160045260246000fd5b8092955060c8915001809111611f6a5792600193604051611fb9816114a0565b601881527f4c61726765207472616e73616374696f6e20616d6f756e7400000000000000006020820152611fec846118a0565b52611ff6836118a0565b5038611968565b807f4e487b7100000000000000000000000000000000000000000000000000000000602492526011600452fd5b806060602080938601015201611925565b6024857f4e487b710000000000000000000000000000000000000000000000000000000081526041600452fd5b9073ffffffffffffffffffffffffffffffffffffffff82169160009280845260206003815260409081862093600685018054888255806123c7575b508790889285517fffffffffffffffffffffffffffffffffffffffff0000000000000000000000008682019260601b168252601481526120e2816114a0565b51902089526002845260ff6007868b200154166122e2575b508115806122d9576122ac57045b6103e890818111156122a45750935b610384851061227c576003965b847fffffffffffffffffffffffff000000000000000000000000000000000000000083541617825585600183015561215f88600284016118c1565b426004830155600488101561224f5750907f93636c2834c78a41138150d92dde8c63660558740426ed9fc0316d4f0c013a8692916003881480612240575b6121b9575b506121b482519186835282018861160b565ba29190565b60050160017fffffffffffffffffffffffffffffffffffffffffffffffffffffffffffffff00825416179055837fc71267b66b2c8820cf488bba23c122cee8408eb55e75428bab72cce8d259e6b9606084518481526015858201527f45787472656d65207269736b206465746563746564000000000000000000000086820152a2386121a2565b5060ff6005820154161561219d565b807f4e487b7100000000000000000000000000000000000000000000000000000000602492526021600452fd5b6102bc851061228d57600296612124565b61012c851061229e57600196612124565b86612124565b905093612117565b6024887f4e487b710000000000000000000000000000000000000000000000000000000081526012600452fd5b50505085612108565b9150508054906801000000000000000082101561239a576001820180825582101561236d57875281872001612317815461167e565b601f811161234f575b507f4469726563742073616e6374696f6e73206d617463680000000000000000002c905560016103e8386120fa565b81885282882061236791601f0160051c8101906117ae565b38612320565b6024887f4e487b710000000000000000000000000000000000000000000000000000000081526032600452fd5b6024887f4e487b710000000000000000000000000000000000000000000000000000000081526041600452fd5b818952838920908101905b8181106123df57506120a3565b808a6123ed6001935461167e565b806123fb575b5050016123d2565b601f808211851461241257505081555b8a386123f3565b61242b90848452898420920160051c82018583016117ae565b8183555561240b565b73ffffffffffffffffffffffffffffffffffffffff60005416330361245557565b60246040517f118cdaa7000000000000000000000000000000000000000000000000000000008152336004820152fdfea2646970667358221220b3dc586ad4acafa6165bf0c310fbc1f535c588e1a748d0b7272b416cb1ab99ac64736f6c63430008180033","linkReferences":{}},"methodIdentifiers":{"EXTREME_RISK_THRESHOLD()":"9fa2674b","HIGH_RISK_THRESHOLD()":"9dcbd55c","MAX_RISK_SCORE()":"45f19131","addSanctionedEntity(bytes32,string,string[],string,uint8,uint8,string)":"3347825b","assessAccountRisk(address)":"b2d4fd2c","evaluateTransactionRisk(bytes32,address,address,uint256,address)":"67d848cf","getRiskProfile(address)":"baf1e57f","monitoredAccounts(uint256)":"a49b5417","owner()":"8da5cb5b","removeSanctionedEntity(bytes32)":"6ff177ca","renounceOwnership()":"715018a6","riskProfiles(address)":"9948b18d","sanctionedEntities(bytes32)":"a85510ca","sanctionedEntityIds(uint256)":"a89161d9","setAccountFrozen(address,bool,string)":"491d57ba","transactionRisks(bytes32)":"9629a3f2","transferOwnership(address)":"f2fde38b"},"id":0}