{
  "_format": "hh-sol-artifact-1",
  "contractName": "MockRouterClient",
  "sourceName": "contracts/bridge/mocks/MockRouterClient.sol",
  "abi": [
    {
      "inputs": [],
      "name": "InsufficientFeeTokenAmount",
      "type": "error"
    },
    {
      "inputs": [],
      "name": "InvalidMsgValue",
      "type": "error"
    },
    {
      "inputs": [
        {
          "internalType": "uint64",
          "name": "destChainSelector",
          "type": "uint64"
        }
      ],
      "name": "UnsupportedDestinationChain",
      "type": "error"
    },
    {
      "anonymous": false,
      "inputs": [
        {
          "indexed": false,
          "internalType": "bytes32",
          "name": "id",
          "type": "bytes32"
        },
        {
          "indexed": false,
          "internalType": "uint64",
          "name": "chain",
          "type": "uint64"
        },
        {
          "indexed": false,
          "internalType": "address",
          "name": "receiver",
          "type": "address"
        }
      ],
      "name": "Sent",
      "type": "event"
    },
    {
      "inputs": [
        {
          "internalType": "uint64",
          "name": "destinationChainSelector",
          "type": "uint64"
        },
        {
          "components": [
            {
              "internalType": "bytes",
              "name": "receiver",
              "type": "bytes"
            },
            {
              "internalType": "bytes",
              "name": "data",
              "type": "bytes"
            },
            {
              "components": [
                {
                  "internalType": "address",
                  "name": "token",
                  "type": "address"
                },
                {
                  "internalType": "uint256",
                  "name": "amount",
                  "type": "uint256"
                }
              ],
              "internalType": "struct Client.EVMTokenAmount[]",
              "name": "tokenAmounts",
              "type": "tuple[]"
            },
            {
              "internalType": "address",
              "name": "feeToken",
              "type": "address"
            },
            {
              "internalType": "bytes",
              "name": "extraArgs",
              "type": "bytes"
            }
          ],
          "internalType": "struct Client.EVM2AnyMessage",
          "name": "message",
          "type": "tuple"
        }
      ],
      "name": "ccipSend",
      "outputs": [
        {
          "internalType": "bytes32",
          "name": "",
          "type": "bytes32"
        }
      ],
      "stateMutability": "payable",
      "type": "function"
    },
    {
      "inputs": [
        {
          "internalType": "uint64",
          "name": "",
          "type": "uint64"
        },
        {
          "components": [
            {
              "internalType": "bytes",
              "name": "receiver",
              "type": "bytes"
            },
            {
              "internalType": "bytes",
              "name": "data",
              "type": "bytes"
            },
            {
              "components": [
                {
                  "internalType": "address",
                  "name": "token",
                  "type": "address"
                },
                {
                  "internalType": "uint256",
                  "name": "amount",
                  "type": "uint256"
                }
              ],
              "internalType": "struct Client.EVMTokenAmount[]",
              "name": "tokenAmounts",
              "type": "tuple[]"
            },
            {
              "internalType": "address",
              "name": "feeToken",
              "type": "address"
            },
            {
              "internalType": "bytes",
              "name": "extraArgs",
              "type": "bytes"
            }
          ],
          "internalType": "struct Client.EVM2AnyMessage",
          "name": "",
          "type": "tuple"
        }
      ],
      "name": "getFee",
      "outputs": [
        {
          "internalType": "uint256",
          "name": "",
          "type": "uint256"
        }
      ],
      "stateMutability": "view",
      "type": "function"
    },
    {
      "inputs": [
        {
          "internalType": "uint64",
          "name": "",
          "type": "uint64"
        }
      ],
      "name": "isChainSupported",
      "outputs": [
        {
          "internalType": "bool",
          "name": "",
          "type": "bool"
        }
      ],
      "stateMutability": "pure",
      "type": "function"
    },
    {
      "inputs": [
        {
          "internalType": "uint64",
          "name": "",
          "type": "uint64"
        },
        {
          "internalType": "address",
          "name": "",
          "type": "address"
        }
      ],
      "name": "isOfframp",
      "outputs": [
        {
          "internalType": "bool",
          "name": "",
          "type": "bool"
        }
      ],
      "stateMutability": "pure",
      "type": "function"
    },
    {
      "inputs": [],
      "name": "lastChainSelector",
      "outputs": [
        {
          "internalType": "uint64",
          "name": "",
          "type": "uint64"
        }
      ],
      "stateMutability": "view",
      "type": "function"
    },
    {
      "inputs": [],
      "name": "lastMessage",
      "outputs": [
        {
          "internalType": "bytes",
          "name": "receiver",
          "type": "bytes"
        },
        {
          "internalType": "bytes",
          "name": "data",
          "type": "bytes"
        },
        {
          "internalType": "address",
          "name": "feeToken",
          "type": "address"
        },
        {
          "internalType": "bytes",
          "name": "extraArgs",
          "type": "bytes"
        }
      ],
      "stateMutability": "view",
      "type": "function"
    },
    {
      "inputs": [],
      "name": "lastMessageId",
      "outputs": [
        {
          "internalType": "bytes32",
          "name": "",
          "type": "bytes32"
        }
      ],
      "stateMutability": "view",
      "type": "function"
    },
    {
      "inputs": [],
      "name": "quotedFee",
      "outputs": [
        {
          "internalType": "uint256",
          "name": "",
          "type": "uint256"
        }
      ],
      "stateMutability": "view",
      "type": "function"
    },
    {
      "inputs": [
        {
          "internalType": "uint256",
          "name": "fee",
          "type": "uint256"
        }
      ],
      "name": "setFee",
      "outputs": [],
      "stateMutability": "nonpayable",
      "type": "function"
    }
  ],
  "bytecode": "0x6080806040523461001657610c12908161001c8239f35b600080fdfe608060408181526004918236101561001657600080fd5b600092833560e01c91826320487ded14610a6c5750816332970710146107f257816343019e11146107d5578163494e8518146107ac57816360206aab1461078d57816369fe0e2d1461077457816396f4e9f9146100e6575080639c89e74f146100b05763a48a90581461008857600080fd5b346100ac5760203660031901126100ac576020906100a4610a86565b505160018152f35b5080fd5b50346100ac57806003193601126100ac576100c9610a86565b506024356001600160a01b038116036100ac576020905160018152f35b83836100f136610aa2565b9267ffffffffffffffff809216946002958067ffffffffffffffff19600254161760025561011f8680610b95565b939085851161076157600394806101368754610ae3565b92601f938481116106f6575b50849084831160011461067557859261066a575b50508160011b9160001990881b1c19161785555b6020986101798a8a018a610b95565b908882116104785781908c61018e8954610ae3565b868111610600575b505085908d86841160011461057f57508692610574575b50508160011b9160001990891b1c19161785555b87890135601e198a3603018112156105705789019081359188831161056c578b018260061b3603811361056c5768010000000000000000831161047857600554836005558084106104c4575b50600585527f036b6384b5eca791c62761152d0c79bb0604c104a5fb6f4eb0703f3154bb3db085915b8d8c86851061048b57505050505050506001600160a01b03948561025c60608b01610bc8565b166001600160a01b0319600654161760065561027b60808a018a610b95565b929088841161047857908392918c610294600754610ae3565b838111610405575b50508591841160011461037c578593610371575b50508260011b92600019911b1c1916176007555b8551928884019033825283888601524260608601523460808601526080855260a08501968588109088111761035e575061030b899187895285519020988960015580610b95565b90809291810103126100ac573593841680940361035b575085845260c082015260e001527f5060930cd474143d0020909245fa945d888159f4c56dc1bae7128730847f54e490606090a151908152f35b80fd5b634e487b7160e01b835260419052602482fd5b013591508b806102b0565b600786527fa66cc928b5edb82af9bd49922954155ab7b0942694bea4ce44661d9a8736c688935091601f198516868e5b8282106103ed575050908560019695949392106103d3575b50505050811b016007556102c4565b60f885600019921b161c199101351690558a8080806103c4565b806001869882949789013581550197019401906103ac565b90919293945060078752837fa66cc928b5edb82af9bd49922954155ab7b0942694bea4ce44661d9a8736c6889181880160051c830193881061046f575b9487969594939291940160051c01905b818110610461578e915061029c565b878155869550600101610452565b92508192610442565b634e487b7160e01b855260418752602485fd5b8286926001600160a01b036104a1600196610bc8565b166001600160a01b03198754161786558101358486015501920192019190610236565b60017f7fffffffffffffffffffffffffffffffffffffffffffffffffffffffffffffff8083168303610559578516850361054657837f036b6384b5eca791c62761152d0c79bb0604c104a5fb6f4eb0703f3154bb3db09260011b8301928660011b015b8381106105365750505061020d565b8881558883820155018490610527565b634e487b7160e01b875260118952602487fd5b634e487b7160e01b885260118a52602488fd5b8480fd5b8380fd5b013590508c806101ad565b925090601f1984167f8a35acfbc15ff81a39ae7d344fd709f28e8600b4aa8c65c6b64bfe7fe36bd19b9388905b8282106105e85750509084600195949392106105d0575b505050811b0185556101c1565b0135600019838b1b60f8161c191690558c80806105c3565b806001859782949688013581550196019301906105ac565b90919250857f8a35acfbc15ff81a39ae7d344fd709f28e8600b4aa8c65c6b64bfe7fe36bd19b9181860160051c8301938610610661575b9085949392910160051c01905b818110610653578e9150610196565b878155849350600101610644565b92508192610637565b013590508b80610156565b8886527fc2575a0e9e593c00f959f8c92f12db2869c3395a3b0502d05e2516446f71f85b925090601f198416865b8181106106de57509084600195949392106106c6575b505050811b01855561016a565b0135600019838a1b60f8161c191690558b80806106b9565b919360206001819287870135815501950192016106a3565b9091508785527fc2575a0e9e593c00f959f8c92f12db2869c3395a3b0502d05e2516446f71f85b8480850160051c82019260208610610758575b9085949392910160051c01905b81811061074a5750610142565b86815584935060010161073d565b92508192610730565b634e487b7160e01b825260418452602482fd5b8390346100ac5760203660031901126100ac5735815580f35b5050346100ac57816003193601126100ac576020906001549051908152f35b5050346100ac57816003193601126100ac5760209067ffffffffffffffff600254169051908152f35b5050346100ac57816003193601126100ac57602091549051908152f35b91905034610a685782600319360112610a6857805191836003549161081683610ae3565b80865285602093600195858782169182600014610a4b5750506001146109f0575b61084392500386610b1d565b835190818782549261085484610ae3565b938484528688821691826000146109d0575050600114610975575b5061087c92500382610b1d565b6001600160a01b03600654169284519680916007549161089b83610ae3565b808b52928281169081156109555750600114610902575b6108e0896108fe8a8d8b6108ed8c8c6108cd858e0386610b1d565b855198899860808a5260808a0190610b55565b9188830390890152610b55565b928501528382036060850152610b55565b0390f35b9250600783527fa66cc928b5edb82af9bd49922954155ab7b0942694bea4ce44661d9a8736c6885b828410610942575050508601820182826108cd6108b2565b8054848b0187015292850192810161092a565b60ff1916878c0152505050151560051b87018301905082826108cd6108b2565b8952508290508388867f8a35acfbc15ff81a39ae7d344fd709f28e8600b4aa8c65c6b64bfe7fe36bd19b5b8583106109b757505061087c93508201013861086f565b80919294505483858801015201910184908685936109a0565b60ff19168582015261087c95151560051b850101925038915061086f9050565b505060038752858388867fc2575a0e9e593c00f959f8c92f12db2869c3395a3b0502d05e2516446f71f85b5b858310610a325750506108439350820101610837565b80919294505483858c0101520191018490868993610a1c565b60ff19168482015261084394151560051b84010191506108379050565b8280fd5b8490346100ac57602091610a7f36610aa2565b5050548152f35b6004359067ffffffffffffffff82168203610a9d57565b600080fd5b6003199190604083820112610a9d5767ffffffffffffffff906004358281168103610a9d5793602435928311610a9d578260a092030112610a9d5760040190565b90600182811c92168015610b13575b6020831014610afd57565b634e487b7160e01b600052602260045260246000fd5b91607f1691610af2565b90601f8019910116810190811067ffffffffffffffff821117610b3f57604052565b634e487b7160e01b600052604160045260246000fd5b919082519283825260005b848110610b81575050826000602080949584010152601f8019910116010190565b602081830181015184830182015201610b60565b903590601e1981360301821215610a9d570180359067ffffffffffffffff8211610a9d57602001918136038313610a9d57565b356001600160a01b0381168103610a9d579056fea2646970667358221220eb72b8e7122d061e41baa4212422984163ef0e7a729d409091cf9562d454818464736f6c63430008180033",
  "linkReferences": {},
  "deployedLinkReferences": {}
}