{"abi":[{"type":"constructor","inputs":[{"name":"governor","type":"address","internalType":"address"},{"name":"_primary","type":"address","internalType":"address"},{"name":"_secondary","type":"address","internalType":"address"}],"stateMutability":"nonpayable"},{"type":"function","name":"ADMIN","inputs":[],"outputs":[{"name":"","type":"bytes32","internalType":"bytes32"}],"stateMutability":"view"},{"type":"function","name":"DEFAULT_ADMIN_ROLE","inputs":[],"outputs":[{"name":"","type":"bytes32","internalType":"bytes32"}],"stateMutability":"view"},{"type":"function","name":"getRoleAdmin","inputs":[{"name":"role","type":"bytes32","internalType":"bytes32"}],"outputs":[{"name":"","type":"bytes32","internalType":"bytes32"}],"stateMutability":"view"},{"type":"function","name":"grantRole","inputs":[{"name":"role","type":"bytes32","internalType":"bytes32"},{"name":"account","type":"address","internalType":"address"}],"outputs":[],"stateMutability":"nonpayable"},{"type":"function","name":"hasRole","inputs":[{"name":"role","type":"bytes32","internalType":"bytes32"},{"name":"account","type":"address","internalType":"address"}],"outputs":[{"name":"","type":"bool","internalType":"bool"}],"stateMutability":"view"},{"type":"function","name":"isFresh","inputs":[{"name":"instrument","type":"address","internalType":"address"},{"name":"maxAgeSec","type":"uint64","internalType":"uint64"}],"outputs":[{"name":"","type":"bool","internalType":"bool"}],"stateMutability":"view"},{"type":"function","name":"primary","inputs":[],"outputs":[{"name":"","type":"address","internalType":"contract IQuoteAdapter"}],"stateMutability":"view"},{"type":"function","name":"quoteInCash","inputs":[{"name":"instrument","type":"address","internalType":"address"}],"outputs":[{"name":"price","type":"uint256","internalType":"uint256"},{"name":"decimals","type":"uint8","internalType":"uint8"},{"name":"lastUpdate","type":"uint64","internalType":"uint64"}],"stateMutability":"view"},{"type":"function","name":"renounceRole","inputs":[{"name":"role","type":"bytes32","internalType":"bytes32"},{"name":"callerConfirmation","type":"address","internalType":"address"}],"outputs":[],"stateMutability":"nonpayable"},{"type":"function","name":"revokeRole","inputs":[{"name":"role","type":"bytes32","internalType":"bytes32"},{"name":"account","type":"address","internalType":"address"}],"outputs":[],"stateMutability":"nonpayable"},{"type":"function","name":"secondary","inputs":[],"outputs":[{"name":"","type":"address","internalType":"contract IQuoteAdapter"}],"stateMutability":"view"},{"type":"function","name":"setPrimary","inputs":[{"name":"a","type":"address","internalType":"address"}],"outputs":[],"stateMutability":"nonpayable"},{"type":"function","name":"setSecondary","inputs":[{"name":"a","type":"address","internalType":"address"}],"outputs":[],"stateMutability":"nonpayable"},{"type":"function","name":"supportsInterface","inputs":[{"name":"interfaceId","type":"bytes4","internalType":"bytes4"}],"outputs":[{"name":"","type":"bool","internalType":"bool"}],"stateMutability":"view"},{"type":"event","name":"PrimarySet","inputs":[{"name":"adapter","type":"address","indexed":false,"internalType":"address"}],"anonymous":false},{"type":"event","name":"RoleAdminChanged","inputs":[{"name":"role","type":"bytes32","indexed":true,"internalType":"bytes32"},{"name":"previousAdminRole","type":"bytes32","indexed":true,"internalType":"bytes32"},{"name":"newAdminRole","type":"bytes32","indexed":true,"internalType":"bytes32"}],"anonymous":false},{"type":"event","name":"RoleGranted","inputs":[{"name":"role","type":"bytes32","indexed":true,"internalType":"bytes32"},{"name":"account","type":"address","indexed":true,"internalType":"address"},{"name":"sender","type":"address","indexed":true,"internalType":"address"}],"anonymous":false},{"type":"event","name":"RoleRevoked","inputs":[{"name":"role","type":"bytes32","indexed":true,"internalType":"bytes32"},{"name":"account","type":"address","indexed":true,"internalType":"address"},{"name":"sender","type":"address","indexed":true,"internalType":"address"}],"anonymous":false},{"type":"event","name":"SecondarySet","inputs":[{"name":"adapter","type":"address","indexed":false,"internalType":"address"}],"anonymous":false},{"type":"error","name":"AccessControlBadConfirmation","inputs":[]},{"type":"error","name":"AccessControlUnauthorizedAccount","inputs":[{"name":"account","type":"address","internalType":"address"},{"name":"neededRole","type":"bytes32","internalType":"bytes32"}]}],"bytecode":{"object":"0x6080346100ff57601f610f5838819003918201601f19168301916001600160401b03831184841017610104578084926060946040528339810103126100ff576020817f20c0b8faa4cc3811cdfa3ddf79184876c83d5e81cbc9926c5156639e6d2618c88261008d7fb45e07e412a3d1ea62293bb78e606e591e12457c6d05b4632792291a0fc89d249561011a565b926100b86100a860406100a185850161011a565b930161011a565b946100b28161012e565b506101ac565b5060018060a01b038091169060018060a01b031994828660015416176001551680946002541617600255604051908152a1604051908152a1604051610ceb908161024d8239f35b600080fd5b634e487b7160e01b600052604160045260246000fd5b51906001600160a01b03821682036100ff57565b6001600160a01b031660008181527fad3228b676f7d3cd4284a5443f17f1962b36e491b30a40b2405849e597ba5fb5602052604081205490919060ff166101a857818052816020526040822081835260205260408220600160ff198254161790553391600080516020610f388339815191528180a4600190565b5090565b6001600160a01b031660008181527f5cbfc8ee58ca47855df7bcf648dd304ddb6b932f9b87878bdf6318d7ec7ee5b760205260408120549091907fdf8b4c520ffe197c5343c6f5aec59570151ef9a492f2c624fd45ddde6135ec429060ff1661024757808352826020526040832082845260205260408320600160ff19825416179055600080516020610f38833981519152339380a4600190565b50509056fe608060408181526004918236101561001657600080fd5b600092833560e01c91826301ffc9a71461076457508163248a9ca31461071c5781632a0acc6a146106c35781632f2ff15d1461067b57816336568abe146105f157816336af91c91461058b5781634b93a1d9146103cd5781638a827eb91461031f57816391d14854146102af5781639d3c8cc41461025c578163a217fddf14610223578163c6dbdf61146101d0578163d547741f1461016f575063dcd04793146100bf57600080fd5b3461016b5760207ffffffffffffffffffffffffffffffffffffffffffffffffffffffffffffffffc36011261016b5760207f20c0b8faa4cc3811cdfa3ddf79184876c83d5e81cbc9926c5156639e6d2618c89173ffffffffffffffffffffffffffffffffffffffff61012f610848565b610137610ab1565b1690817fffffffffffffffffffffffff0000000000000000000000000000000000000000600154161760015551908152a180f35b5080fd5b919050346101cc57807ffffffffffffffffffffffffffffffffffffffffffffffffffffffffffffffffc3601126101cc576101c891356101c360016101b2610820565b938387528660205286200154610b44565b610c14565b5080f35b8280fd5b50503461016b57817ffffffffffffffffffffffffffffffffffffffffffffffffffffffffffffffffc36011261016b5760209073ffffffffffffffffffffffffffffffffffffffff600154169051908152f35b50503461016b57817ffffffffffffffffffffffffffffffffffffffffffffffffffffffffffffffffc36011261016b5751908152602090f35b50503461016b57817ffffffffffffffffffffffffffffffffffffffffffffffffffffffffffffffffc36011261016b5760209073ffffffffffffffffffffffffffffffffffffffff600254169051908152f35b9050346101cc57817ffffffffffffffffffffffffffffffffffffffffffffffffffffffffffffffffc3601126101cc578160209360ff926102ee610820565b9035825281865273ffffffffffffffffffffffffffffffffffffffff83832091168252855220541690519015158152f35b50503461016b5760207ffffffffffffffffffffffffffffffffffffffffffffffffffffffffffffffffc36011261016b5760207fb45e07e412a3d1ea62293bb78e606e591e12457c6d05b4632792291a0fc89d249173ffffffffffffffffffffffffffffffffffffffff610391610848565b610399610ab1565b1690817fffffffffffffffffffffffff0000000000000000000000000000000000000000600254161760025551908152a180f35b83833461016b57807ffffffffffffffffffffffffffffffffffffffffffffffffffffffffffffffffc36011261016b57610405610848565b60243567ffffffffffffffff811681036105875783809273ffffffffffffffffffffffffffffffffffffffff908160015416918651987f4b93a1d90000000000000000000000000000000000000000000000000000000091828b528a602081819d9781806104a48d8b8a889e0190929167ffffffffffffffff60209173ffffffffffffffffffffffffffffffffffffffff604085019616845216910152565b03915afa879181610568575b50610560575b5060025416916104fe8951978895869485948552840190929167ffffffffffffffff60209173ffffffffffffffffffffffffffffffffffffffff604085019616845216910152565b03915afa909181610531575b50610529575b508215610521575b50519015158152f35b915083610518565b905084610510565b610552919250863d8811610559575b61054a818361086b565b810190610a99565b908661050a565b503d610540565b99508b6104b6565b610580919250873d89116105595761054a818361086b565b908d6104b0565b8380fd5b8284346105ee5760207ffffffffffffffffffffffffffffffffffffffffffffffffffffffffffffffffc3601126105ee57606060ff8367ffffffffffffffff6105da6105d5610848565b610912565b845192835294166020820152921690820152f35b80fd5b83833461016b57807ffffffffffffffffffffffffffffffffffffffffffffffffffffffffffffffffc36011261016b57610629610820565b903373ffffffffffffffffffffffffffffffffffffffff83160361065357506101c8919235610c14565b8390517f6697b232000000000000000000000000000000000000000000000000000000008152fd5b919050346101cc57807ffffffffffffffffffffffffffffffffffffffffffffffffffffffffffffffffc3601126101cc576101c891356106be60016101b2610820565b610b6a565b50503461016b57817ffffffffffffffffffffffffffffffffffffffffffffffffffffffffffffffffc36011261016b57602090517fdf8b4c520ffe197c5343c6f5aec59570151ef9a492f2c624fd45ddde6135ec428152f35b9050346101cc5760207ffffffffffffffffffffffffffffffffffffffffffffffffffffffffffffffffc3601126101cc57816020936001923581528085522001549051908152f35b8491346101cc5760207ffffffffffffffffffffffffffffffffffffffffffffffffffffffffffffffffc3601126101cc57357fffffffff0000000000000000000000000000000000000000000000000000000081168091036101cc57602092507f7965db0b0000000000000000000000000000000000000000000000000000000081149081156107f6575b5015158152f35b7f01ffc9a700000000000000000000000000000000000000000000000000000000915014836107ef565b6024359073ffffffffffffffffffffffffffffffffffffffff8216820361084357565b600080fd5b6004359073ffffffffffffffffffffffffffffffffffffffff8216820361084357565b90601f7fffffffffffffffffffffffffffffffffffffffffffffffffffffffffffffffe0910116810190811067ffffffffffffffff8211176108ac57604052565b7f4e487b7100000000000000000000000000000000000000000000000000000000600052604160045260246000fd5b9081606091031261084357805191602082015160ff811681036108435760409092015167ffffffffffffffff811681036108435790565b60249173ffffffffffffffffffffffffffffffffffffffff80600154166040519182817f36af91c90000000000000000000000000000000000000000000000000000000096878352169283600483015281606098899687935afa600081600093600093610a73575b50610a54575b50505060249060025416946040519586938492835260048301525afa9182600091600095600095610a1c575b5050610a11575b60646040517f08c379a000000000000000000000000000000000000000000000000000000000815260206004820152600860248201527f6e6f5f71756f74650000000000000000000000000000000000000000000000006044820152fd5b80156109b357929190565b9194509150610a41929450803d10610a4d575b610a39818361086b565b8101906108db565b939190939238806109ac565b503d610a2f565b80919293949550610a685787949392610980565b965090945092915050565b91509250610a8e9150853d8711610a4d57610a39818361086b565b92919092913861097a565b90816020910312610843575180151581036108435790565b3360009081527f5cbfc8ee58ca47855df7bcf648dd304ddb6b932f9b87878bdf6318d7ec7ee5b760205260409020547fdf8b4c520ffe197c5343c6f5aec59570151ef9a492f2c624fd45ddde6135ec429060ff1615610b0d5750565b604490604051907fe2517d3f0000000000000000000000000000000000000000000000000000000082523360048301526024820152fd5b80600052600060205260406000203360005260205260ff6040600020541615610b0d5750565b906000918083528260205273ffffffffffffffffffffffffffffffffffffffff6040842092169182845260205260ff60408420541615600014610c0f5780835282602052604083208284526020526040832060017fffffffffffffffffffffffffffffffffffffffffffffffffffffffffffffff008254161790557f2f8788117e7eff1d82e926ec794901d17c78024a50270940304540a733656f0d339380a4600190565b505090565b906000918083528260205273ffffffffffffffffffffffffffffffffffffffff6040842092169182845260205260ff604084205416600014610c0f578083528260205260408320828452602052604083207fffffffffffffffffffffffffffffffffffffffffffffffffffffffffffffff0081541690557ff6391f5c32d9c69d2a47ea670b442974b53935d1edc7fd64eb21e047a839171b339380a460019056fea264697066735822122077d641d978f588910d15c28023d01ade826d4c1319ca744e4b742fcbc90ec36764736f6c634300081800332f8788117e7eff1d82e926ec794901d17c78024a50270940304540a733656f0d","linkReferences":{}},"methodIdentifiers":{"ADMIN()":"2a0acc6a","DEFAULT_ADMIN_ROLE()":"a217fddf","getRoleAdmin(bytes32)":"248a9ca3","grantRole(bytes32,address)":"2f2ff15d","hasRole(bytes32,address)":"91d14854","isFresh(address,uint64)":"4b93a1d9","primary()":"c6dbdf61","quoteInCash(address)":"36af91c9","renounceRole(bytes32,address)":"36568abe","revokeRole(bytes32,address)":"d547741f","secondary()":"9d3c8cc4","setPrimary(address)":"dcd04793","setSecondary(address)":"8a827eb9","supportsInterface(bytes4)":"01ffc9a7"},"id":62}