{"abi":[{"type":"function","name":"AUDITOR","inputs":[],"outputs":[{"name":"","type":"bytes32","internalType":"bytes32"}],"stateMutability":"view"},{"type":"function","name":"BURNER","inputs":[],"outputs":[{"name":"","type":"bytes32","internalType":"bytes32"}],"stateMutability":"view"},{"type":"function","name":"COMPLIANCE","inputs":[],"outputs":[{"name":"","type":"bytes32","internalType":"bytes32"}],"stateMutability":"view"},{"type":"function","name":"GOVERNOR","inputs":[],"outputs":[{"name":"","type":"bytes32","internalType":"bytes32"}],"stateMutability":"view"},{"type":"function","name":"GUARDIAN","inputs":[],"outputs":[{"name":"","type":"bytes32","internalType":"bytes32"}],"stateMutability":"view"},{"type":"function","name":"MINTER","inputs":[],"outputs":[{"name":"","type":"bytes32","internalType":"bytes32"}],"stateMutability":"view"},{"type":"function","name":"PRICE_FEED","inputs":[],"outputs":[{"name":"","type":"bytes32","internalType":"bytes32"}],"stateMutability":"view"},{"type":"function","name":"PROOF_PROVIDER","inputs":[],"outputs":[{"name":"","type":"bytes32","internalType":"bytes32"}],"stateMutability":"view"},{"type":"function","name":"TREASURER","inputs":[],"outputs":[{"name":"","type":"bytes32","internalType":"bytes32"}],"stateMutability":"view"},{"type":"function","name":"UPGRADER","inputs":[],"outputs":[{"name":"","type":"bytes32","internalType":"bytes32"}],"stateMutability":"view"}],"bytecode":{"object":"0x6080806040523461001a576104079081610020823930815050f35b600080fdfe60806040818152600436101561001457600080fd5b600091823560e01c908163118c4f131461037e5750806331eb318a1461032b5780636dc0ae22146102d8578063724c184c1461028557806372eab19314610232578063930c83d5146101df5780639b972d8b1461018c578063aa375a8a14610139578063fb1849ee146100e65763fe6d81241461009057600080fd5b817ffffffffffffffffffffffffffffffffffffffffffffffffffffffffffffffffc3601126100e257602090517ff0887ba65ee2024ea881d91b74c2450ef19e1557f03bed3ea9f16b037cbe2dc98152f35b5080fd5b50817ffffffffffffffffffffffffffffffffffffffffffffffffffffffffffffffffc3601126100e257602090517f8d9233e8f9e0681d692bebdd2fd8c8863336d587e831d84b9bff9f403d549b5f8152f35b50817ffffffffffffffffffffffffffffffffffffffffffffffffffffffffffffffffc3601126100e257602090517fd8994f6d76f930dc5ea8c60e38e6334a87bb8539cc3082ac6828681c33316e3d8152f35b50817ffffffffffffffffffffffffffffffffffffffffffffffffffffffffffffffffc3601126100e257602090517fc0735f38a6f04dde9c1eb54ecf45563aefb29f1c877131a80aa14ff3fcba58a78152f35b50817ffffffffffffffffffffffffffffffffffffffffffffffffffffffffffffffffc3601126100e257602090517fa615a8afb6fffcb8c6809ac0997b5c9c12b8cc97651150f14c8f6203168cff4c8152f35b50817ffffffffffffffffffffffffffffffffffffffffffffffffffffffffffffffffc3601126100e257602090517fa67a057d728d16e162a15912cbf6e8d4fcd69e5b7b0d1f849a0a10ca6e14741c8152f35b50817ffffffffffffffffffffffffffffffffffffffffffffffffffffffffffffffffc3601126100e257602090517f8b5b16d04624687fcf0d0228f19993c9157c1ed07b41d8d430fd9100eb099fe88152f35b50817ffffffffffffffffffffffffffffffffffffffffffffffffffffffffffffffffc3601126100e257602090517f1a6838efa4183e08fe3607359d1259272af9d4716f65e1a7b5921f78fd5a3c6a8152f35b50817ffffffffffffffffffffffffffffffffffffffffffffffffffffffffffffffffc3601126100e257602090517f4fd3e0487a0382fb027c77b1ae4c563672c9fb30a74879855f0c86c376cf96ea8152f35b8390817ffffffffffffffffffffffffffffffffffffffffffffffffffffffffffffffffc3601126100e257807f9667e80708b6eeeb0053fa0cca44e028ff548e2a9f029edfeac87c118b08b7c860209252f3fea264697066735822122033fccfeda8512e1aae880348094e87705821407ad18ce67a3cd4892be697c26464736f6c63430008180033","linkReferences":{}},"methodIdentifiers":{"AUDITOR()":"aa375a8a","BURNER()":"118c4f13","COMPLIANCE()":"72eab193","GOVERNOR()":"6dc0ae22","GUARDIAN()":"724c184c","MINTER()":"fe6d8124","PRICE_FEED()":"31eb318a","PROOF_PROVIDER()":"9b972d8b","TREASURER()":"fb1849ee","UPGRADER()":"930c83d5"},"id":10}