{
  "_format": "hh-sol-artifact-1",
  "contractName": "CCIPAttestationSender",
  "sourceName": "contracts/bridge/CCIPAttestationSender.sol",
  "abi": [
    {
      "inputs": [
        {
          "internalType": "address",
          "name": "router",
          "type": "address"
        }
      ],
      "stateMutability": "nonpayable",
      "type": "constructor"
    },
    {
      "inputs": [],
      "name": "AccessControlBadConfirmation",
      "type": "error"
    },
    {
      "inputs": [
        {
          "internalType": "address",
          "name": "account",
          "type": "address"
        },
        {
          "internalType": "bytes32",
          "name": "neededRole",
          "type": "bytes32"
        }
      ],
      "name": "AccessControlUnauthorizedAccount",
      "type": "error"
    },
    {
      "inputs": [],
      "name": "ReentrancyGuardReentrantCall",
      "type": "error"
    },
    {
      "anonymous": false,
      "inputs": [
        {
          "indexed": true,
          "internalType": "bytes32",
          "name": "messageId",
          "type": "bytes32"
        },
        {
          "indexed": true,
          "internalType": "uint64",
          "name": "destinationChainSelector",
          "type": "uint64"
        },
        {
          "indexed": true,
          "internalType": "address",
          "name": "subject",
          "type": "address"
        },
        {
          "indexed": false,
          "internalType": "bytes32",
          "name": "schemaId",
          "type": "bytes32"
        },
        {
          "indexed": false,
          "internalType": "bytes32",
          "name": "attestationId",
          "type": "bytes32"
        }
      ],
      "name": "AttestationSent",
      "type": "event"
    },
    {
      "anonymous": false,
      "inputs": [
        {
          "indexed": false,
          "internalType": "uint64",
          "name": "chainSelector",
          "type": "uint64"
        },
        {
          "indexed": false,
          "internalType": "bool",
          "name": "supported",
          "type": "bool"
        }
      ],
      "name": "ChainSupported",
      "type": "event"
    },
    {
      "anonymous": false,
      "inputs": [
        {
          "indexed": false,
          "internalType": "uint64",
          "name": "chainSelector",
          "type": "uint64"
        },
        {
          "indexed": false,
          "internalType": "uint64",
          "name": "windowSeconds",
          "type": "uint64"
        },
        {
          "indexed": false,
          "internalType": "uint32",
          "name": "limit",
          "type": "uint32"
        }
      ],
      "name": "RateLimitSet",
      "type": "event"
    },
    {
      "anonymous": false,
      "inputs": [
        {
          "indexed": false,
          "internalType": "uint64",
          "name": "chainSelector",
          "type": "uint64"
        },
        {
          "indexed": false,
          "internalType": "address",
          "name": "receiver",
          "type": "address"
        },
        {
          "indexed": false,
          "internalType": "bool",
          "name": "allowed",
          "type": "bool"
        }
      ],
      "name": "ReceiverAllowed",
      "type": "event"
    },
    {
      "anonymous": false,
      "inputs": [
        {
          "indexed": true,
          "internalType": "bytes32",
          "name": "role",
          "type": "bytes32"
        },
        {
          "indexed": true,
          "internalType": "bytes32",
          "name": "previousAdminRole",
          "type": "bytes32"
        },
        {
          "indexed": true,
          "internalType": "bytes32",
          "name": "newAdminRole",
          "type": "bytes32"
        }
      ],
      "name": "RoleAdminChanged",
      "type": "event"
    },
    {
      "anonymous": false,
      "inputs": [
        {
          "indexed": true,
          "internalType": "bytes32",
          "name": "role",
          "type": "bytes32"
        },
        {
          "indexed": true,
          "internalType": "address",
          "name": "account",
          "type": "address"
        },
        {
          "indexed": true,
          "internalType": "address",
          "name": "sender",
          "type": "address"
        }
      ],
      "name": "RoleGranted",
      "type": "event"
    },
    {
      "anonymous": false,
      "inputs": [
        {
          "indexed": true,
          "internalType": "bytes32",
          "name": "role",
          "type": "bytes32"
        },
        {
          "indexed": true,
          "internalType": "address",
          "name": "account",
          "type": "address"
        },
        {
          "indexed": true,
          "internalType": "address",
          "name": "sender",
          "type": "address"
        }
      ],
      "name": "RoleRevoked",
      "type": "event"
    },
    {
      "inputs": [],
      "name": "ATTESTOR_ROLE",
      "outputs": [
        {
          "internalType": "bytes32",
          "name": "",
          "type": "bytes32"
        }
      ],
      "stateMutability": "view",
      "type": "function"
    },
    {
      "inputs": [],
      "name": "DEFAULT_ADMIN_ROLE",
      "outputs": [
        {
          "internalType": "bytes32",
          "name": "",
          "type": "bytes32"
        }
      ],
      "stateMutability": "view",
      "type": "function"
    },
    {
      "inputs": [
        {
          "internalType": "uint64",
          "name": "",
          "type": "uint64"
        },
        {
          "internalType": "address",
          "name": "",
          "type": "address"
        }
      ],
      "name": "allowedReceivers",
      "outputs": [
        {
          "internalType": "bool",
          "name": "",
          "type": "bool"
        }
      ],
      "stateMutability": "view",
      "type": "function"
    },
    {
      "inputs": [
        {
          "internalType": "uint64",
          "name": "destinationChainSelector",
          "type": "uint64"
        },
        {
          "internalType": "address",
          "name": "receiver",
          "type": "address"
        },
        {
          "components": [
            {
              "internalType": "address",
              "name": "subject",
              "type": "address"
            },
            {
              "internalType": "bytes32",
              "name": "schemaId",
              "type": "bytes32"
            },
            {
              "internalType": "bytes32",
              "name": "attestationId",
              "type": "bytes32"
            },
            {
              "internalType": "bytes",
              "name": "data",
              "type": "bytes"
            }
          ],
          "internalType": "struct CCIPAttestationSender.AttestationMessage",
          "name": "message",
          "type": "tuple"
        }
      ],
      "name": "getFee",
      "outputs": [
        {
          "internalType": "uint256",
          "name": "",
          "type": "uint256"
        }
      ],
      "stateMutability": "view",
      "type": "function"
    },
    {
      "inputs": [
        {
          "internalType": "bytes32",
          "name": "role",
          "type": "bytes32"
        }
      ],
      "name": "getRoleAdmin",
      "outputs": [
        {
          "internalType": "bytes32",
          "name": "",
          "type": "bytes32"
        }
      ],
      "stateMutability": "view",
      "type": "function"
    },
    {
      "inputs": [
        {
          "internalType": "bytes32",
          "name": "role",
          "type": "bytes32"
        },
        {
          "internalType": "address",
          "name": "account",
          "type": "address"
        }
      ],
      "name": "grantRole",
      "outputs": [],
      "stateMutability": "nonpayable",
      "type": "function"
    },
    {
      "inputs": [
        {
          "internalType": "bytes32",
          "name": "role",
          "type": "bytes32"
        },
        {
          "internalType": "address",
          "name": "account",
          "type": "address"
        }
      ],
      "name": "hasRole",
      "outputs": [
        {
          "internalType": "bool",
          "name": "",
          "type": "bool"
        }
      ],
      "stateMutability": "view",
      "type": "function"
    },
    {
      "inputs": [
        {
          "internalType": "bytes32",
          "name": "",
          "type": "bytes32"
        }
      ],
      "name": "processedMessages",
      "outputs": [
        {
          "internalType": "bool",
          "name": "",
          "type": "bool"
        }
      ],
      "stateMutability": "view",
      "type": "function"
    },
    {
      "inputs": [
        {
          "internalType": "uint64",
          "name": "",
          "type": "uint64"
        }
      ],
      "name": "rateCfg",
      "outputs": [
        {
          "internalType": "uint64",
          "name": "windowSeconds",
          "type": "uint64"
        },
        {
          "internalType": "uint32",
          "name": "limit",
          "type": "uint32"
        }
      ],
      "stateMutability": "view",
      "type": "function"
    },
    {
      "inputs": [
        {
          "internalType": "bytes32",
          "name": "role",
          "type": "bytes32"
        },
        {
          "internalType": "address",
          "name": "callerConfirmation",
          "type": "address"
        }
      ],
      "name": "renounceRole",
      "outputs": [],
      "stateMutability": "nonpayable",
      "type": "function"
    },
    {
      "inputs": [
        {
          "internalType": "bytes32",
          "name": "role",
          "type": "bytes32"
        },
        {
          "internalType": "address",
          "name": "account",
          "type": "address"
        }
      ],
      "name": "revokeRole",
      "outputs": [],
      "stateMutability": "nonpayable",
      "type": "function"
    },
    {
      "inputs": [
        {
          "internalType": "uint64",
          "name": "destinationChainSelector",
          "type": "uint64"
        },
        {
          "internalType": "address",
          "name": "receiver",
          "type": "address"
        },
        {
          "internalType": "address",
          "name": "subject",
          "type": "address"
        },
        {
          "internalType": "bytes32",
          "name": "schemaId",
          "type": "bytes32"
        },
        {
          "internalType": "bytes32",
          "name": "attestationId",
          "type": "bytes32"
        },
        {
          "internalType": "bytes",
          "name": "data",
          "type": "bytes"
        }
      ],
      "name": "sendAttestation",
      "outputs": [],
      "stateMutability": "payable",
      "type": "function"
    },
    {
      "inputs": [
        {
          "internalType": "uint64",
          "name": "chainSelector",
          "type": "uint64"
        },
        {
          "internalType": "address",
          "name": "receiver",
          "type": "address"
        },
        {
          "internalType": "bool",
          "name": "allowed",
          "type": "bool"
        }
      ],
      "name": "setAllowedReceiver",
      "outputs": [],
      "stateMutability": "nonpayable",
      "type": "function"
    },
    {
      "inputs": [
        {
          "internalType": "uint64",
          "name": "chainSelector",
          "type": "uint64"
        },
        {
          "internalType": "uint64",
          "name": "windowSeconds",
          "type": "uint64"
        },
        {
          "internalType": "uint32",
          "name": "limit",
          "type": "uint32"
        }
      ],
      "name": "setRateLimit",
      "outputs": [],
      "stateMutability": "nonpayable",
      "type": "function"
    },
    {
      "inputs": [
        {
          "internalType": "uint64",
          "name": "chainSelector",
          "type": "uint64"
        },
        {
          "internalType": "bool",
          "name": "supported",
          "type": "bool"
        }
      ],
      "name": "setSupportedChain",
      "outputs": [],
      "stateMutability": "nonpayable",
      "type": "function"
    },
    {
      "inputs": [
        {
          "internalType": "uint64",
          "name": "",
          "type": "uint64"
        }
      ],
      "name": "supportedChains",
      "outputs": [
        {
          "internalType": "bool",
          "name": "",
          "type": "bool"
        }
      ],
      "stateMutability": "view",
      "type": "function"
    },
    {
      "inputs": [
        {
          "internalType": "bytes4",
          "name": "interfaceId",
          "type": "bytes4"
        }
      ],
      "name": "supportsInterface",
      "outputs": [
        {
          "internalType": "bool",
          "name": "",
          "type": "bool"
        }
      ],
      "stateMutability": "view",
      "type": "function"
    },
    {
      "stateMutability": "payable",
      "type": "receive"
    }
  ],
  "bytecode": "0x60a0346100d857601f6200145d38819003918201601f19168301916001600160401b038311848410176100dd578084926020946040528339810103126100d857516001600160a01b038116908190036100d85760018055801561009357608052610068336100f3565b5061007233610172565b5060405161122990816200021482396080518181816103ff015261083d0152f35b60405162461bcd60e51b815260206004820152601660248201527f496e76616c696420726f757465722061646472657373000000000000000000006044820152606490fd5b600080fd5b634e487b7160e01b600052604160045260246000fd5b6001600160a01b031660008181527fad3228b676f7d3cd4284a5443f17f1962b36e491b30a40b2405849e597ba5fb5602052604081205490919060ff1661016e57818052816020526040822081835260205260408220600160ff1982541617905533916000805160206200143d8339815191528180a4600190565b5090565b6001600160a01b031660008181527f158ce6b8b15b31f27d2e55fc663f1cad7f7703488e44e0532708385221a6677060205260408120549091907fa7e0cd0f2772b23ee4c329892293a6bd99d48c306b094d6d008c9a8bb8b731e49060ff1661020e57808352826020526040832082845260205260408320600160ff198254161790556000805160206200143d833981519152339380a4600190565b50509056fe608080604052600436101561001d575b50361561001b57600080fd5b005b60003560e01c90816301ffc9a714610bf457508063248a9ca314610bc55780632f2ff15d14610b8657806336568abe14610b3f5780634e17099914610a6f5780636272364414610a345780637589d4cd146109d657806388ba16ab146109a557806391d14854146109575780639602bad5146108a457806399920dda146106db578063a217fddf146106bf578063d547741f14610680578063d953dad214610201578063f5b5b80414610173578063f9c3f332146101335763fff08027146100e5573861000f565b3461012e57602036600319011261012e57604067ffffffffffffffff8061010a610c5d565b16600052600560205263ffffffff826000205483519281168352831c166020820152f35b600080fd5b3461012e57602036600319011261012e5767ffffffffffffffff610155610c5d565b166000526002602052602060ff604060002054166040519015158152f35b3461012e57604036600319011261012e5761018c610c5d565b602435908115159182810361012e577f1e0c3057f04400da671fb47f00beb7d5ac4d6ffc2280ddcdf55321419659ebef926101f467ffffffffffffffff6040946101d4610eff565b1692836000526002602052846000209060ff801983541691151516179055565b82519182526020820152a1005b60c036600319011261012e57610215610c5d565b61021d610c47565b604435906001600160a01b038216820361012e576084359160a43567ffffffffffffffff9283821161012e573660238301121561012e57816004013584811161012e576024913683838601011161012e573360009081527f158ce6b8b15b31f27d2e55fc663f1cad7f7703488e44e0532708385221a6677060205260409020547fa7e0cd0f2772b23ee4c329892293a6bd99d48c306b094d6d008c9a8bb8b731e49060ff16156106635750600260015414610651576001600160a01b0390600260015586891660005260026020526102fc60ff60406000205416610d63565b1692831561060d57858816600052600460205260406000208460005260205260ff60406000205416156105c9576103819161036d61038f9261033d8b6110aa565b6040519261034a84610ca6565b6001600160a01b038916845260643560208501528a604085015286369201610d1c565b606082015260405192839160208301610def565b03601f198101835282610cfa565b604051926020840152602083526103a583610c74565b6040516103b181610cc2565b600081526103cf6040516103c481610cc2565b62030d408152611072565b91604051946103dd86610cde565b8552602085015260408401526000606084015260808301526001600160a01b037f000000000000000000000000000000000000000000000000000000000000000016906040516320487ded60e01b81526020818061043f878c60048401610e31565b0381865afa90811561054757600091610597575b503410610553575061048093929160209160405180809781946396f4e9f960e01b83528b60048401610e31565b039134905af1928315610547576000936104f3575b507f24e7f699a359e3d2261dc62de14526549d11a891e535416e88eac2c0dbafbf1c916001600160a01b0360409285600052600360205283600020600160ff198254161790558351966064358852602088015216951693a460018055005b9092506020813d60201161053f575b8161050f60209383610cfa565b8101031261012e5751917f24e7f699a359e3d2261dc62de14526549d11a891e535416e88eac2c0dbafbf1c610495565b3d9150610502565b6040513d6000823e3d90fd5b60649060106040519162461bcd60e51b8352602060048401528201527f696e73756666696369656e7420666565000000000000000000000000000000006044820152fd5b90506020813d6020116105c1575b816105b260209383610cfa565b8101031261012e575188610453565b3d91506105a5565b60405162461bcd60e51b8152602060048201526014818501527f7265636569766572206e6f7420616c6c6f7765640000000000000000000000006044820152606490fd5b60405162461bcd60e51b8152602060048201526010818501527f496e76616c6964207265636569766572000000000000000000000000000000006044820152606490fd5b604051633ee5aeb560e01b8152600490fd5b836044916040519163e2517d3f60e01b8352336004840152820152fd5b3461012e57604036600319011261012e5761001b60043561069f610c47565b908060005260006020526106ba600160406000200154610f57565b610ffc565b3461012e57600036600319011261012e57602060405160008152f35b3461012e5760031960603682011261012e576106f5610c5d565b906106fe610c47565b916044359267ffffffffffffffff9283851161012e57608090853603011261012e576040519161072d83610ca6565b6001600160a01b03906004860135828116810361012e5784526020956024810135878601526044810135604086015260648101359086821161012e5701943660238701121561012e576107c3879561038192610796610839993690602460048201359101610d1c565b60608301528416600052600287526107b560ff60406000205416610d63565b604051928391888301610def565b826040519416858501528484526107d984610c74565b6040516107e581610cc2565b600081526107f86040516103c481610cc2565b916040519561080687610cde565b86528686015260408501526000606085015260808401526040518095819482936320487ded60e01b845260048401610e31565b03917f0000000000000000000000000000000000000000000000000000000000000000165afa90811561054757600091610877575b50604051908152f35b90508181813d831161089d575b61088e8183610cfa565b8101031261012e57518261086e565b503d610884565b3461012e57606036600319011261012e576108bd610c5d565b6108c5610c47565b9060443580151580820361012e577f245ade2460496267c58f569481c96bf38ea7807af4e3070438ebc4a0fb8d1b619361094467ffffffffffffffff60609561090c610eff565b16938460005260046020526001600160a01b0360406000209316928360005260205260406000209060ff801983541691151516179055565b60405192835260208301526040820152a1005b3461012e57604036600319011261012e57610970610c47565b60043560005260006020526001600160a01b0360406000209116600052602052602060ff604060002054166040519015158152f35b3461012e57602036600319011261012e576004356000526003602052602060ff604060002054166040519015158152f35b3461012e57604036600319011261012e576109ef610c5d565b67ffffffffffffffff610a00610c47565b911660005260046020526001600160a01b0360406000209116600052602052602060ff604060002054166040519015158152f35b3461012e57600036600319011261012e5760206040517fa7e0cd0f2772b23ee4c329892293a6bd99d48c306b094d6d008c9a8bb8b731e48152f35b3461012e57606036600319011261012e57610a88610c5d565b6024359067ffffffffffffffff80831680930361012e5760443563ffffffff9384821680920361012e576109446060947f336fafa80b59d983dd249ba46e1adcd9c9ee833aab0483305c0f9909ec78f06696610ae2610eff565b60405191610aef83610c74565b8483528660208401918783521696876000526005602052604060002093511667ffffffffffffffff19845416178355511663ffffffff60401b82549160401b169063ffffffff60401b1916179055565b3461012e57604036600319011261012e57610b58610c47565b336001600160a01b03821603610b745761001b90600435610ffc565b60405163334bd91960e11b8152600490fd5b3461012e57604036600319011261012e5761001b600435610ba5610c47565b90806000526000602052610bc0600160406000200154610f57565b610f7d565b3461012e57602036600319011261012e5760043560005260006020526020600160406000200154604051908152f35b3461012e57602036600319011261012e576004359063ffffffff60e01b821680920361012e57602091637965db0b60e01b8114908115610c36575b5015158152f35b6301ffc9a760e01b14905083610c2f565b602435906001600160a01b038216820361012e57565b6004359067ffffffffffffffff8216820361012e57565b6040810190811067ffffffffffffffff821117610c9057604052565b634e487b7160e01b600052604160045260246000fd5b6080810190811067ffffffffffffffff821117610c9057604052565b6020810190811067ffffffffffffffff821117610c9057604052565b60a0810190811067ffffffffffffffff821117610c9057604052565b90601f8019910116810190811067ffffffffffffffff821117610c9057604052565b92919267ffffffffffffffff8211610c905760405191610d46601f8201601f191660200184610cfa565b82948184528183011161012e578281602093846000960137010152565b15610d6a57565b60405162461bcd60e51b815260206004820152601160248201527f556e737570706f7274656420636861696e0000000000000000000000000000006044820152606490fd5b919082519283825260005b848110610ddb575050826000602080949584010152601f8019910116010190565b602081830181015184830182015201610dba565b60a06060610e2e93602084526001600160a01b038151166020850152602081015160408501526040810151828501520151916080808201520190610daf565b90565b9092919267ffffffffffffffff604091168252602091604083820152610e63855160a0604084015260e0830190610daf565b91610e7f8487015193603f199485858303016060860152610daf565b604087015194848483030160808501528080875193848152019601926000905b838210610ed657505050505060c06080866001600160a01b036060610e2e989901511660a085015201519282850301910152610daf565b845180516001600160a01b03168952830151888401529687019693820193600190910190610e9f565b3360009081527fad3228b676f7d3cd4284a5443f17f1962b36e491b30a40b2405849e597ba5fb5602052604081205460ff1615610f395750565b6044906040519063e2517d3f60e01b82523360048301526024820152fd5b80600052600060205260406000203360005260205260ff6040600020541615610f395750565b90600091808352826020526001600160a01b036040842092169182845260205260ff60408420541615600014610ff757808352826020526040832082845260205260408320600160ff198254161790557f2f8788117e7eff1d82e926ec794901d17c78024a50270940304540a733656f0d339380a4600190565b505090565b90600091808352826020526001600160a01b036040842092169182845260205260ff604084205416600014610ff75780835282602052604083208284526020526040832060ff1981541690557ff6391f5c32d9c69d2a47ea670b442974b53935d1edc7fd64eb21e047a839171b339380a4600190565b604051906397a657c960e01b6020830152516024820152602481526060810181811067ffffffffffffffff821117610c905760405290565b9067ffffffffffffffff8092169160009083825260056020526040808320928151936110d585610c74565b54928084169687865263ffffffff8095851c166020870198818a52159081156111ea575b506111e0578252600660205282822094814216928654928084169283159384156111ae575b50505050611195575b505081808454831c16955116851015611165575060016111639394011663ffffffff60401b82549160401b169063ffffffff60401b1916179055565b565b5162461bcd60e51b815260206004820152600a6024820152691c985d19481b1a5b5a5d60b21b6044820152606490fd5b6bffffffffffffffffffffffff19161783553880611127565b8603935090918284116111cc5750518116911610153880808061111e565b634e487b7160e01b81526011600452602490fd5b5050505050509050565b905015386110f956fea26469706673582212203c789f99e70a43cde4788581cd36dc00279bad11812ba329cc161ae8ee3e9b6464736f6c634300081800332f8788117e7eff1d82e926ec794901d17c78024a50270940304540a733656f0d",
  "linkReferences": {},
  "deployedLinkReferences": {}
}