{"abi":[{"type":"constructor","inputs":[],"stateMutability":"nonpayable"},{"type":"function","name":"DEFAULT_ADMIN_ROLE","inputs":[],"outputs":[{"name":"","type":"bytes32","internalType":"bytes32"}],"stateMutability":"view"},{"type":"function","name":"UPGRADE_INTERFACE_VERSION","inputs":[],"outputs":[{"name":"","type":"string","internalType":"string"}],"stateMutability":"view"},{"type":"function","name":"atts","inputs":[{"name":"","type":"uint256","internalType":"uint256"}],"outputs":[{"name":"schema","type":"bytes32","internalType":"bytes32"},{"name":"contentHash","type":"bytes32","internalType":"bytes32"},{"name":"asOf","type":"uint64","internalType":"uint64"},{"name":"uri","type":"string","internalType":"string"}],"stateMutability":"view"},{"type":"function","name":"eip712Domain","inputs":[],"outputs":[{"name":"fields","type":"bytes1","internalType":"bytes1"},{"name":"name","type":"string","internalType":"string"},{"name":"version","type":"string","internalType":"string"},{"name":"chainId","type":"uint256","internalType":"uint256"},{"name":"verifyingContract","type":"address","internalType":"address"},{"name":"salt","type":"bytes32","internalType":"bytes32"},{"name":"extensions","type":"uint256[]","internalType":"uint256[]"}],"stateMutability":"view"},{"type":"function","name":"getRoleAdmin","inputs":[{"name":"role","type":"bytes32","internalType":"bytes32"}],"outputs":[{"name":"","type":"bytes32","internalType":"bytes32"}],"stateMutability":"view"},{"type":"function","name":"grantRole","inputs":[{"name":"role","type":"bytes32","internalType":"bytes32"},{"name":"account","type":"address","internalType":"address"}],"outputs":[],"stateMutability":"nonpayable"},{"type":"function","name":"hasRole","inputs":[{"name":"role","type":"bytes32","internalType":"bytes32"},{"name":"account","type":"address","internalType":"address"}],"outputs":[{"name":"","type":"bool","internalType":"bool"}],"stateMutability":"view"},{"type":"function","name":"initialize","inputs":[{"name":"governor","type":"address","internalType":"address"}],"outputs":[],"stateMutability":"nonpayable"},{"type":"function","name":"lastId","inputs":[],"outputs":[{"name":"","type":"uint256","internalType":"uint256"}],"stateMutability":"view"},{"type":"function","name":"latest","inputs":[],"outputs":[{"name":"id","type":"uint256","internalType":"uint256"},{"name":"a","type":"tuple","internalType":"struct AttestationRegistry.Attestation","components":[{"name":"schema","type":"bytes32","internalType":"bytes32"},{"name":"contentHash","type":"bytes32","internalType":"bytes32"},{"name":"asOf","type":"uint64","internalType":"uint64"},{"name":"uri","type":"string","internalType":"string"}]}],"stateMutability":"view"},{"type":"function","name":"providers","inputs":[{"name":"","type":"address","internalType":"address"}],"outputs":[{"name":"","type":"bool","internalType":"bool"}],"stateMutability":"view"},{"type":"function","name":"proxiableUUID","inputs":[],"outputs":[{"name":"","type":"bytes32","internalType":"bytes32"}],"stateMutability":"view"},{"type":"function","name":"renounceRole","inputs":[{"name":"role","type":"bytes32","internalType":"bytes32"},{"name":"callerConfirmation","type":"address","internalType":"address"}],"outputs":[],"stateMutability":"nonpayable"},{"type":"function","name":"revokeRole","inputs":[{"name":"role","type":"bytes32","internalType":"bytes32"},{"name":"account","type":"address","internalType":"address"}],"outputs":[],"stateMutability":"nonpayable"},{"type":"function","name":"setProvider","inputs":[{"name":"provider","type":"address","internalType":"address"},{"name":"allowed","type":"bool","internalType":"bool"}],"outputs":[],"stateMutability":"nonpayable"},{"type":"function","name":"submitAttestation","inputs":[{"name":"schema","type":"bytes32","internalType":"bytes32"},{"name":"contentHash","type":"bytes32","internalType":"bytes32"},{"name":"asOf","type":"uint64","internalType":"uint64"},{"name":"uri","type":"string","internalType":"string"},{"name":"sig","type":"bytes","internalType":"bytes"}],"outputs":[{"name":"id","type":"uint256","internalType":"uint256"}],"stateMutability":"nonpayable"},{"type":"function","name":"supportsInterface","inputs":[{"name":"interfaceId","type":"bytes4","internalType":"bytes4"}],"outputs":[{"name":"","type":"bool","internalType":"bool"}],"stateMutability":"view"},{"type":"function","name":"upgradeToAndCall","inputs":[{"name":"newImplementation","type":"address","internalType":"address"},{"name":"data","type":"bytes","internalType":"bytes"}],"outputs":[],"stateMutability":"payable"},{"type":"event","name":"Attested","inputs":[{"name":"id","type":"uint256","indexed":true,"internalType":"uint256"},{"name":"provider","type":"address","indexed":true,"internalType":"address"},{"name":"schema","type":"bytes32","indexed":false,"internalType":"bytes32"},{"name":"contentHash","type":"bytes32","indexed":false,"internalType":"bytes32"},{"name":"asOf","type":"uint64","indexed":false,"internalType":"uint64"},{"name":"uri","type":"string","indexed":false,"internalType":"string"}],"anonymous":false},{"type":"event","name":"EIP712DomainChanged","inputs":[],"anonymous":false},{"type":"event","name":"Initialized","inputs":[{"name":"version","type":"uint64","indexed":false,"internalType":"uint64"}],"anonymous":false},{"type":"event","name":"ProviderSet","inputs":[{"name":"provider","type":"address","indexed":true,"internalType":"address"},{"name":"allowed","type":"bool","indexed":false,"internalType":"bool"}],"anonymous":false},{"type":"event","name":"RoleAdminChanged","inputs":[{"name":"role","type":"bytes32","indexed":true,"internalType":"bytes32"},{"name":"previousAdminRole","type":"bytes32","indexed":true,"internalType":"bytes32"},{"name":"newAdminRole","type":"bytes32","indexed":true,"internalType":"bytes32"}],"anonymous":false},{"type":"event","name":"RoleGranted","inputs":[{"name":"role","type":"bytes32","indexed":true,"internalType":"bytes32"},{"name":"account","type":"address","indexed":true,"internalType":"address"},{"name":"sender","type":"address","indexed":true,"internalType":"address"}],"anonymous":false},{"type":"event","name":"RoleRevoked","inputs":[{"name":"role","type":"bytes32","indexed":true,"internalType":"bytes32"},{"name":"account","type":"address","indexed":true,"internalType":"address"},{"name":"sender","type":"address","indexed":true,"internalType":"address"}],"anonymous":false},{"type":"event","name":"Upgraded","inputs":[{"name":"implementation","type":"address","indexed":true,"internalType":"address"}],"anonymous":false},{"type":"error","name":"AccessControlBadConfirmation","inputs":[]},{"type":"error","name":"AccessControlUnauthorizedAccount","inputs":[{"name":"account","type":"address","internalType":"address"},{"name":"neededRole","type":"bytes32","internalType":"bytes32"}]},{"type":"error","name":"AddressEmptyCode","inputs":[{"name":"target","type":"address","internalType":"address"}]},{"type":"error","name":"ECDSAInvalidSignature","inputs":[]},{"type":"error","name":"ECDSAInvalidSignatureLength","inputs":[{"name":"length","type":"uint256","internalType":"uint256"}]},{"type":"error","name":"ECDSAInvalidSignatureS","inputs":[{"name":"s","type":"bytes32","internalType":"bytes32"}]},{"type":"error","name":"ERC1967InvalidImplementation","inputs":[{"name":"implementation","type":"address","internalType":"address"}]},{"type":"error","name":"ERC1967NonPayable","inputs":[]},{"type":"error","name":"FailedInnerCall","inputs":[]},{"type":"error","name":"InvalidInitialization","inputs":[]},{"type":"error","name":"NotInitializing","inputs":[]},{"type":"error","name":"UUPSUnauthorizedCallContext","inputs":[]},{"type":"error","name":"UUPSUnsupportedProxiableUUID","inputs":[{"name":"slot","type":"bytes32","internalType":"bytes32"}]}],"bytecode":{"object":"0x60a080604052346100cc57306080527ff0c57e16840df040f15088dc2f81fe391c3923bec73e23a9662efc9c229c6a009081549060ff8260401c166100bd57506001600160401b036002600160401b031982821601610078575b60405161288290816100d2823960805181818161140901526115e40152f35b6001600160401b031990911681179091556040519081527fc7f505b2f371ae2175ee4913f4499e1f2633a7b5936321eed1cdaeb6115181d290602090a1388080610059565b63f92ee8a960e01b8152600490fd5b600080fdfe608080604052600436101561001357600080fd5b60003560e01c90816301ffc9a714611ab6575080630787bc2714611a4c578063248a9ca3146119e05780632f2ff15d1461196457806336568abe146118da5780634f1ef2861461156857806352bfe7891461148357806352d1902d146113c3578063767d90991461133a57806384b0196e146111825780638ad14ed01461103057806391d1485414610f98578063a217fddf14610f5e578063ad3cb1cc14610ede578063c1292cc314610ea2578063c4d66de81461074c578063cc36049b146101685763d547741f146100e557600080fd5b346101635760407ffffffffffffffffffffffffffffffffffffffffffffffffffffffffffffffffc36011261016357610161600435610122611b95565b90806000527f02dd7bc7dec4dceedda775e58dd541e08a116c6c53815c0bd028192f7b62680060205261015c600160406000200154612028565b612423565b005b600080fd5b346101635760a07ffffffffffffffffffffffffffffffffffffffffffffffffffffffffffffffffc3601126101635760443567ffffffffffffffff811681036101635760643567ffffffffffffffff8111610163576101cb903690600401611ffa565b90916084359167ffffffffffffffff83116101635761031061030a6101f7610319953690600401611ffa565b9190604261020636878b611c87565b6020815191012060405160208101917fb0576f914f036bdff439a36bc886741fa5e9b696617cfd255f10c57fe064c60683526004356040830152602435606083015267ffffffffffffffff8a16608083015260a082015260a0815261026a81611bf0565b51902061027561279d565b61027d612807565b6040519060208201927f8b73c3c69bb8fe3d512ecc4cf759cc79239f7b179b0ffacaa9a75d522b39400f8452604083015260608201524660808201523060a082015260a081526102cc81611bf0565b51902090604051917f190100000000000000000000000000000000000000000000000000000000000083526002830152602282015220923691611c87565b9061253d565b90949194612579565b73ffffffffffffffffffffffffffffffffffffffff8316600052600060205260ff60406000205416156106ee57600154927fffffffffffffffffffffffffffffffffffffffffffffffffffffffffffffffff84146106bf576001840160015560405161038481611bb8565b60043581526020810160243581526040820167ffffffffffffffff861681526103ae36868a611c87565b916060840192835260018801600052600260205260406000209351845551600184015567ffffffffffffffff600284019151167fffffffffffffffffffffffffffffffffffffffffffffffff00000000000000008254161790555180519067ffffffffffffffff8211610690576104286003840154611d1c565b601f8111610649575b50916020979185938990601f831160011461054557827fb58e10c05aead28411604f0623aae928832f1fb9655bd2fc49e302f278aadbcd97959373ffffffffffffffffffffffffffffffffffffffff97959360039360009261053a575b50507fffffffffffffffffffffffffffffffffffffffffffffffffffffffffffffffff8260011b92841b1c1916179101555b67ffffffffffffffff6040519760043589526024358b8a01521660408801526080606088015281608088015260a0870137600060a08587010152169260a0817fffffffffffffffffffffffffffffffffffffffffffffffffffffffffffffffe0601f600189019601168101030190a3600160405191018152f35b015190508d8061048e565b90600384016000528a6000209160005b7fffffffffffffffffffffffffffffffffffffffffffffffffffffffffffffffe08516811061062f57508373ffffffffffffffffffffffffffffffffffffffff979593600393600193837fffffffffffffffffffffffffffffffffffffffffffffffffffffffffffffffe07fb58e10c05aead28411604f0623aae928832f1fb9655bd2fc49e302f278aadbcd9d9b9916106105f9575b505050811b019101556104c0565b01517fffffffffffffffffffffffffffffffffffffffffffffffffffffffffffffffff60f884871b161c191690558d80806105eb565b818301518455899750600190930192918c01918c01610555565b600384016000526020600020601f840160051c810160208510610689575b601f830160051c8201811061067d575050610431565b60008155600101610667565b5080610667565b7f4e487b7100000000000000000000000000000000000000000000000000000000600052604160045260246000fd5b7f4e487b7100000000000000000000000000000000000000000000000000000000600052601160045260246000fd5b60646040517f08c379a000000000000000000000000000000000000000000000000000000000815260206004820152601560248201527f756e617574686f72697a65645f70726f766964657200000000000000000000006044820152fd5b346101635760207ffffffffffffffffffffffffffffffffffffffffffffffffffffffffffffffffc36011261016357610783611b72565b7ff0c57e16840df040f15088dc2f81fe391c3923bec73e23a9662efc9c229c6a00549067ffffffffffffffff821680159081610e92575b6001149081610e88575b159081610e7f575b50610e555760017fffffffffffffffffffffffffffffffffffffffffffffffff00000000000000008316177ff0c57e16840df040f15088dc2f81fe391c3923bec73e23a9662efc9c229c6a005560ff8260401c1615610e00575b61082e6124e4565b6108366124e4565b6040519161084383611bd4565b601383527f4174746573746174696f6e52656769737472790000000000000000000000000060208401526040519161087a83611bd4565b600183527f310000000000000000000000000000000000000000000000000000000000000060208401526108ac6124e4565b6108b46124e4565b835167ffffffffffffffff8111610690576108ef7fa16a46d94261c7517cc8ff89f61c0ce93598e3c849801011dee649a6a557d10254611d1c565b601f8111610d3e575b50602094601f8211600114610c4057948192939495600092610c35575b50507fffffffffffffffffffffffffffffffffffffffffffffffffffffffffffffffff8260011b9260031b1c1916177fa16a46d94261c7517cc8ff89f61c0ce93598e3c849801011dee649a6a557d102555b825167ffffffffffffffff8111610690577fa16a46d94261c7517cc8ff89f61c0ce93598e3c849801011dee649a6a557d103906109a48254611d1c565b601f8111610bd1575b506020601f8211600114610b0b579080610a6194939260ff97600092610b00575b50507fffffffffffffffffffffffffffffffffffffffffffffffffffffffffffffffff8260011b9260031b1c19161790555b60007fa16a46d94261c7517cc8ff89f61c0ce93598e3c849801011dee649a6a557d1005560007fa16a46d94261c7517cc8ff89f61c0ce93598e3c849801011dee649a6a557d10155610a518161206d565b50610a5b8161216c565b50612265565b5060401c1615610a6d57005b7fffffffffffffffffffffffffffffffffffffffffffffff00ffffffffffffffff7ff0c57e16840df040f15088dc2f81fe391c3923bec73e23a9662efc9c229c6a0054167ff0c57e16840df040f15088dc2f81fe391c3923bec73e23a9662efc9c229c6a00557fc7f505b2f371ae2175ee4913f4499e1f2633a7b5936321eed1cdaeb6115181d2602060405160018152a1005b0151905087806109ce565b7fffffffffffffffffffffffffffffffffffffffffffffffffffffffffffffffe0821695836000527f5f9ce34815f8e11431c7bb75a8e6886a91478f7ffc1dbb0a98dc240fddd76b759660005b818110610bb95750966001928492610a6197969560ff9a10610b82575b505050811b019055610a00565b01517fffffffffffffffffffffffffffffffffffffffffffffffffffffffffffffffff60f88460031b161c19169055878080610b75565b83830151895560019098019760209384019301610b58565b826000527f5f9ce34815f8e11431c7bb75a8e6886a91478f7ffc1dbb0a98dc240fddd76b75601f830160051c81019160208410610c2b575b601f0160051c01905b818110610c1f57506109ad565b60008155600101610c12565b9091508190610c09565b015190508580610915565b7fffffffffffffffffffffffffffffffffffffffffffffffffffffffffffffffe08216957fa16a46d94261c7517cc8ff89f61c0ce93598e3c849801011dee649a6a557d1026000527f42ad5d3e1f2e6e70edcf6d991b8a3023d3fca8047a131592f9edb9fd9b89d57d9160005b888110610d2657508360019596979810610cef575b505050811b017fa16a46d94261c7517cc8ff89f61c0ce93598e3c849801011dee649a6a557d10255610967565b01517fffffffffffffffffffffffffffffffffffffffffffffffffffffffffffffffff60f88460031b161c19169055858080610cc2565b91926020600181928685015181550194019201610cad565b7fa16a46d94261c7517cc8ff89f61c0ce93598e3c849801011dee649a6a557d102600052601f820160051c7f42ad5d3e1f2e6e70edcf6d991b8a3023d3fca8047a131592f9edb9fd9b89d57d019060208310610dd8575b601f0160051c7f42ad5d3e1f2e6e70edcf6d991b8a3023d3fca8047a131592f9edb9fd9b89d57d01905b818110610dcc57506108f8565b60008155600101610dbf565b7f42ad5d3e1f2e6e70edcf6d991b8a3023d3fca8047a131592f9edb9fd9b89d57d9150610d95565b680100000000000000017fffffffffffffffffffffffffffffffffffffffffffffff0000000000000000008316177ff0c57e16840df040f15088dc2f81fe391c3923bec73e23a9662efc9c229c6a0055610826565b60046040517ff92ee8a9000000000000000000000000000000000000000000000000000000008152fd5b905015836107cc565b303b1591506107c4565b604084901c60ff161591506107ba565b346101635760007ffffffffffffffffffffffffffffffffffffffffffffffffffffffffffffffffc360112610163576020600154604051908152f35b346101635760007ffffffffffffffffffffffffffffffffffffffffffffffffffffffffffffffffc36011261016357610f5a604051610f1c81611bd4565b600581527f352e302e300000000000000000000000000000000000000000000000000000006020820152604051918291602083526020830190611cbe565b0390f35b346101635760007ffffffffffffffffffffffffffffffffffffffffffffffffffffffffffffffffc36011261016357602060405160008152f35b346101635760407ffffffffffffffffffffffffffffffffffffffffffffffffffffffffffffffffc36011261016357610fcf611b95565b6004356000527f02dd7bc7dec4dceedda775e58dd541e08a116c6c53815c0bd028192f7b62680060205273ffffffffffffffffffffffffffffffffffffffff60406000209116600052602052602060ff604060002054166040519015158152f35b346101635760407ffffffffffffffffffffffffffffffffffffffffffffffffffffffffffffffffc36011261016357611067611b72565b60243590811515809203610163573360009081527f852acfdbd338e0da117a74b68467ee9617605c8469f7ce48961a1a5229d6e83860205260409020547f1a6838efa4183e08fe3607359d1259272af9d4716f65e1a7b5921f78fd5a3c6a9060ff161561114b5750602073ffffffffffffffffffffffffffffffffffffffff7fb537570c49a628ab18394585f413cb254f1f3a611ba09b120f0978a79c9386fe921692836000526000825260406000207fffffffffffffffffffffffffffffffffffffffffffffffffffffffffffffff0081541660ff8316179055604051908152a2005b604490604051907fe2517d3f0000000000000000000000000000000000000000000000000000000082523360048301526024820152fd5b346101635760007ffffffffffffffffffffffffffffffffffffffffffffffffffffffffffffffffc360112610163577fa16a46d94261c7517cc8ff89f61c0ce93598e3c849801011dee649a6a557d100541580611311575b156112b3576111e7611d6f565b6111ef611e78565b60405160208082019282841067ffffffffffffffff8511176106905791602061126685946112589796604052600084526040519788977f0f00000000000000000000000000000000000000000000000000000000000000895260e0858a015260e0890190611cbe565b908782036040890152611cbe565b91466060870152306080870152600060a087015285830360c0870152519182815201929160005b82811061129c57505050500390f35b83518552869550938101939281019260010161128d565b60646040517f08c379a000000000000000000000000000000000000000000000000000000000815260206004820152601560248201527f4549503731323a20556e696e697469616c697a656400000000000000000000006044820152fd5b507fa16a46d94261c7517cc8ff89f61c0ce93598e3c849801011dee649a6a557d10154156111da565b346101635760207ffffffffffffffffffffffffffffffffffffffffffffffffffffffffffffffffc36011261016357600435600052600260205260406000208054610f5a60018301549261139f600367ffffffffffffffff6002840154169201611f39565b90604051948594855260208501526040840152608060608401526080830190611cbe565b346101635760007ffffffffffffffffffffffffffffffffffffffffffffffffffffffffffffffffc3601126101635773ffffffffffffffffffffffffffffffffffffffff7f00000000000000000000000000000000000000000000000000000000000000001630036114595760206040517f360894a13ba1a3210667c828492db98dca3e2076cc3735a920a3ca505d382bbc8152f35b60046040517fe07c8dba000000000000000000000000000000000000000000000000000000008152fd5b346101635760007ffffffffffffffffffffffffffffffffffffffffffffffffffffffffffffffffc360112610163576060806040516114c181611bb8565b6000815260006020820152600060408201520152600154806000526002602052604060002090610f5a604051926114f784611bb8565b805484526001810154906020850191825267ffffffffffffffff9061152c600383600284015416926040890193845201611f39565b92606087019384526040519687968752604060208801525160408701525160608601525116608084015251608060a084015260c0830190611cbe565b60407ffffffffffffffffffffffffffffffffffffffffffffffffffffffffffffffffc3601126101635761159a611b72565b602490813567ffffffffffffffff81116101635736602382011215610163576115cc9036908481600401359101611c87565b73ffffffffffffffffffffffffffffffffffffffff807f0000000000000000000000000000000000000000000000000000000000000000168030149081156118ac575b50611459573360009081527f9469a29198efc966024e165efb801c8f2366b78a1c73841aee561d08e7eaddce60209081526040909120549091907fa615a8afb6fffcb8c6809ac0997b5c9c12b8cc97651150f14c8f6203168cff4c9060ff161561187657508316926040517f52d1902d0000000000000000000000000000000000000000000000000000000081528281600481885afa60009181611847575b506116e3578585604051907f4c9c8ce30000000000000000000000000000000000000000000000000000000082526004820152fd5b8490867f360894a13ba1a3210667c828492db98dca3e2076cc3735a920a3ca505d382bbc918281036118195750833b156117ea5750817fffffffffffffffffffffffff0000000000000000000000000000000000000000825416179055604051907fbc7cd75a20ee27fd9adebab32041f755214dbc6bffa90cc0225b39da2e5c2d3b600080a28351156117b75750600080848461016196519101845af4903d156117ae573d61179181611c4d565b9061179f6040519283611c0c565b8152600081943d92013e6126fd565b606092506126fd565b92505050346117c257005b807fb398979f0000000000000000000000000000000000000000000000000000000060049252fd5b82604051907f4c9c8ce30000000000000000000000000000000000000000000000000000000082526004820152fd5b604051907faa1d49a40000000000000000000000000000000000000000000000000000000082526004820152fd5b9091508381813d831161186f575b61185f8183611c0c565b81010312610163575190876116ae565b503d611855565b85604491604051917fe2517d3f000000000000000000000000000000000000000000000000000000008352336004840152820152fd5b9050817f360894a13ba1a3210667c828492db98dca3e2076cc3735a920a3ca505d382bbc541614158561160f565b346101635760407ffffffffffffffffffffffffffffffffffffffffffffffffffffffffffffffffc36011261016357611911611b95565b3373ffffffffffffffffffffffffffffffffffffffff82160361193a5761016190600435612423565b60046040517f6697b232000000000000000000000000000000000000000000000000000000008152fd5b346101635760407ffffffffffffffffffffffffffffffffffffffffffffffffffffffffffffffffc360112610163576101616004356119a1611b95565b90806000527f02dd7bc7dec4dceedda775e58dd541e08a116c6c53815c0bd028192f7b6268006020526119db600160406000200154612028565b61235e565b346101635760207ffffffffffffffffffffffffffffffffffffffffffffffffffffffffffffffffc360112610163576004356000527f02dd7bc7dec4dceedda775e58dd541e08a116c6c53815c0bd028192f7b6268006020526020600160406000200154604051908152f35b346101635760207ffffffffffffffffffffffffffffffffffffffffffffffffffffffffffffffffc3601126101635773ffffffffffffffffffffffffffffffffffffffff611a98611b72565b166000526000602052602060ff604060002054166040519015158152f35b346101635760207ffffffffffffffffffffffffffffffffffffffffffffffffffffffffffffffffc36011261016357600435907fffffffff00000000000000000000000000000000000000000000000000000000821680920361016357817f7965db0b0000000000000000000000000000000000000000000000000000000060209314908115611b48575b5015158152f35b7f01ffc9a70000000000000000000000000000000000000000000000000000000091501483611b41565b6004359073ffffffffffffffffffffffffffffffffffffffff8216820361016357565b6024359073ffffffffffffffffffffffffffffffffffffffff8216820361016357565b6080810190811067ffffffffffffffff82111761069057604052565b6040810190811067ffffffffffffffff82111761069057604052565b60c0810190811067ffffffffffffffff82111761069057604052565b90601f7fffffffffffffffffffffffffffffffffffffffffffffffffffffffffffffffe0910116810190811067ffffffffffffffff82111761069057604052565b67ffffffffffffffff811161069057601f017fffffffffffffffffffffffffffffffffffffffffffffffffffffffffffffffe01660200190565b929192611c9382611c4d565b91611ca16040519384611c0c565b829481845281830111610163578281602093846000960137010152565b919082519283825260005b848110611d085750507fffffffffffffffffffffffffffffffffffffffffffffffffffffffffffffffe0601f8460006020809697860101520116010190565b602081830181015184830182015201611cc9565b90600182811c92168015611d65575b6020831014611d3657565b7f4e487b7100000000000000000000000000000000000000000000000000000000600052602260045260246000fd5b91607f1691611d2b565b604051906000827fa16a46d94261c7517cc8ff89f61c0ce93598e3c849801011dee649a6a557d10291825492611da484611d1c565b80845293602091600191828116908115611e335750600114611dd2575b505050611dd092500383611c0c565b565b60009081527f42ad5d3e1f2e6e70edcf6d991b8a3023d3fca8047a131592f9edb9fd9b89d57d9590935091905b828410611e1b5750611dd0945050508101602001388080611dc1565b85548885018301529485019487945092810192611dff565b91505060209350611dd09592507fffffffffffffffffffffffffffffffffffffffffffffffffffffffffffffff0091501682840152151560051b820101388080611dc1565b604051906000827fa16a46d94261c7517cc8ff89f61c0ce93598e3c849801011dee649a6a557d10391825492611ead84611d1c565b80845293602091600191828116908115611e335750600114611ed857505050611dd092500383611c0c565b60009081527f5f9ce34815f8e11431c7bb75a8e6886a91478f7ffc1dbb0a98dc240fddd76b759590935091905b828410611f215750611dd0945050508101602001388080611dc1565b85548885018301529485019487945092810192611f05565b90604051918260008254611f4c81611d1c565b90818452602094600191600181169081600014611fb95750600114611f7a57505050611dd092500383611c0c565b600090815285812095935091905b818310611fa1575050611dd09350820101388080611dc1565b85548884018501529485019487945091830191611f88565b915050611dd09593507fffffffffffffffffffffffffffffffffffffffffffffffffffffffffffffff0091501682840152151560051b820101388080611dc1565b9181601f840112156101635782359167ffffffffffffffff8311610163576020838186019501011161016357565b806000527f02dd7bc7dec4dceedda775e58dd541e08a116c6c53815c0bd028192f7b62680060205260406000203360005260205260ff604060002054161561114b5750565b73ffffffffffffffffffffffffffffffffffffffff1660008181527f852acfdbd338e0da117a74b68467ee9617605c8469f7ce48961a1a5229d6e83860205260408120549091907f1a6838efa4183e08fe3607359d1259272af9d4716f65e1a7b5921f78fd5a3c6a907f02dd7bc7dec4dceedda775e58dd541e08a116c6c53815c0bd028192f7b6268009060ff1661216657818452602052604083208284526020526040832060017fffffffffffffffffffffffffffffffffffffffffffffffffffffffffffffff008254161790557f2f8788117e7eff1d82e926ec794901d17c78024a50270940304540a733656f0d339380a4600190565b50505090565b73ffffffffffffffffffffffffffffffffffffffff1660008181527f9469a29198efc966024e165efb801c8f2366b78a1c73841aee561d08e7eaddce60205260408120549091907fa615a8afb6fffcb8c6809ac0997b5c9c12b8cc97651150f14c8f6203168cff4c907f02dd7bc7dec4dceedda775e58dd541e08a116c6c53815c0bd028192f7b6268009060ff1661216657818452602052604083208284526020526040832060017fffffffffffffffffffffffffffffffffffffffffffffffffffffffffffffff008254161790557f2f8788117e7eff1d82e926ec794901d17c78024a50270940304540a733656f0d339380a4600190565b73ffffffffffffffffffffffffffffffffffffffff1660008181527fce0a916639b3a4006e30a06fd5dc76c40e42b16cc285f6f5137157c7432718a760205260408120549091907fa67a057d728d16e162a15912cbf6e8d4fcd69e5b7b0d1f849a0a10ca6e14741c907f02dd7bc7dec4dceedda775e58dd541e08a116c6c53815c0bd028192f7b6268009060ff1661216657818452602052604083208284526020526040832060017fffffffffffffffffffffffffffffffffffffffffffffffffffffffffffffff008254161790557f2f8788117e7eff1d82e926ec794901d17c78024a50270940304540a733656f0d339380a4600190565b906000918083527f02dd7bc7dec4dceedda775e58dd541e08a116c6c53815c0bd028192f7b6268008060205273ffffffffffffffffffffffffffffffffffffffff6040852093169283855260205260ff6040852054161560001461216657818452602052604083208284526020526040832060017fffffffffffffffffffffffffffffffffffffffffffffffffffffffffffffff008254161790557f2f8788117e7eff1d82e926ec794901d17c78024a50270940304540a733656f0d339380a4600190565b906000918083527f02dd7bc7dec4dceedda775e58dd541e08a116c6c53815c0bd028192f7b6268008060205273ffffffffffffffffffffffffffffffffffffffff6040852093169283855260205260ff6040852054166000146121665781845260205260408320828452602052604083207fffffffffffffffffffffffffffffffffffffffffffffffffffffffffffffff0081541690557ff6391f5c32d9c69d2a47ea670b442974b53935d1edc7fd64eb21e047a839171b339380a4600190565b60ff7ff0c57e16840df040f15088dc2f81fe391c3923bec73e23a9662efc9c229c6a005460401c161561251357565b60046040517fd7e6bcf8000000000000000000000000000000000000000000000000000000008152fd5b815191906041830361256e5761256792506020820151906060604084015193015160001a90612660565b9192909190565b505060009160029190565b6004811015612631578061258b575050565b600181036125bd5760046040517ff645eedf000000000000000000000000000000000000000000000000000000008152fd5b600281036125f657602482604051907ffce698f70000000000000000000000000000000000000000000000000000000082526004820152fd5b6003146126005750565b602490604051907fd78bce0c0000000000000000000000000000000000000000000000000000000082526004820152fd5b7f4e487b7100000000000000000000000000000000000000000000000000000000600052602160045260246000fd5b91907f7fffffffffffffffffffffffffffffff5d576e7357a4501ddfe92f46681b20a084116126f157926020929160ff608095604051948552168484015260408301526060820152600092839182805260015afa156126e557805173ffffffffffffffffffffffffffffffffffffffff8116156126dc57918190565b50809160019190565b604051903d90823e3d90fd5b50505060009160039190565b9061273c575080511561271257805190602001fd5b60046040517f1425ea42000000000000000000000000000000000000000000000000000000008152fd5b81511580612794575b61274d575090565b60249073ffffffffffffffffffffffffffffffffffffffff604051917f9996b315000000000000000000000000000000000000000000000000000000008352166004820152fd5b50803b15612745565b6127a5611d6f565b80519081156127b5576020012090565b50507fa16a46d94261c7517cc8ff89f61c0ce93598e3c849801011dee649a6a557d1005480156127e25790565b507fc5d2460186f7233c927e7db2dcc703c0e500b653ca82273b7bfad8045d85a47090565b61280f611e78565b805190811561281f576020012090565b50507fa16a46d94261c7517cc8ff89f61c0ce93598e3c849801011dee649a6a557d1015480156127e2579056fea2646970667358221220eb0de201bdb9b6481ba84ebd70eec2a2a7a61519564938ddd613b0b2e85da77464736f6c63430008180033","linkReferences":{}},"methodIdentifiers":{"DEFAULT_ADMIN_ROLE()":"a217fddf","UPGRADE_INTERFACE_VERSION()":"ad3cb1cc","atts(uint256)":"767d9099","eip712Domain()":"84b0196e","getRoleAdmin(bytes32)":"248a9ca3","grantRole(bytes32,address)":"2f2ff15d","hasRole(bytes32,address)":"91d14854","initialize(address)":"c4d66de8","lastId()":"c1292cc3","latest()":"52bfe789","providers(address)":"0787bc27","proxiableUUID()":"52d1902d","renounceRole(bytes32,address)":"36568abe","revokeRole(bytes32,address)":"d547741f","setProvider(address,bool)":"8ad14ed0","submitAttestation(bytes32,bytes32,uint64,string,bytes)":"cc36049b","supportsInterface(bytes4)":"01ffc9a7","upgradeToAndCall(address,bytes)":"4f1ef286"},"id":2}