{"abi":[{"type":"function","name":"DEFAULT_ADMIN_ROLE","inputs":[],"outputs":[{"name":"","type":"bytes32","internalType":"bytes32"}],"stateMutability":"view"},{"type":"function","name":"GOVERNOR_ROLE","inputs":[],"outputs":[{"name":"","type":"bytes32","internalType":"bytes32"}],"stateMutability":"view"},{"type":"function","name":"UPGRADE_INTERFACE_VERSION","inputs":[],"outputs":[{"name":"","type":"string","internalType":"string"}],"stateMutability":"view"},{"type":"function","name":"activeOrder","inputs":[{"name":"","type":"bytes32","internalType":"bytes32"}],"outputs":[{"name":"","type":"bool","internalType":"bool"}],"stateMutability":"view"},{"type":"function","name":"getRoleAdmin","inputs":[{"name":"role","type":"bytes32","internalType":"bytes32"}],"outputs":[{"name":"","type":"bytes32","internalType":"bytes32"}],"stateMutability":"view"},{"type":"function","name":"globalFreeze","inputs":[{"name":"token","type":"address","internalType":"address"}],"outputs":[{"name":"","type":"bool","internalType":"bool"}],"stateMutability":"view"},{"type":"function","name":"grantRole","inputs":[{"name":"role","type":"bytes32","internalType":"bytes32"},{"name":"account","type":"address","internalType":"address"}],"outputs":[],"stateMutability":"nonpayable"},{"type":"function","name":"hasRole","inputs":[{"name":"role","type":"bytes32","internalType":"bytes32"},{"name":"account","type":"address","internalType":"address"}],"outputs":[{"name":"","type":"bool","internalType":"bool"}],"stateMutability":"view"},{"type":"function","name":"initialize","inputs":[{"name":"admin","type":"address","internalType":"address"},{"name":"governor","type":"address","internalType":"address"}],"outputs":[],"stateMutability":"nonpayable"},{"type":"function","name":"isActive","inputs":[{"name":"orderId","type":"bytes32","internalType":"bytes32"}],"outputs":[{"name":"","type":"bool","internalType":"bool"}],"stateMutability":"view"},{"type":"function","name":"proxiableUUID","inputs":[],"outputs":[{"name":"","type":"bytes32","internalType":"bytes32"}],"stateMutability":"view"},{"type":"function","name":"renounceRole","inputs":[{"name":"role","type":"bytes32","internalType":"bytes32"},{"name":"callerConfirmation","type":"address","internalType":"address"}],"outputs":[],"stateMutability":"nonpayable"},{"type":"function","name":"revokeRole","inputs":[{"name":"role","type":"bytes32","internalType":"bytes32"},{"name":"account","type":"address","internalType":"address"}],"outputs":[],"stateMutability":"nonpayable"},{"type":"function","name":"setGlobalFreeze","inputs":[{"name":"token","type":"address","internalType":"address"},{"name":"on","type":"bool","internalType":"bool"}],"outputs":[],"stateMutability":"nonpayable"},{"type":"function","name":"setOrder","inputs":[{"name":"id","type":"bytes32","internalType":"bytes32"},{"name":"on","type":"bool","internalType":"bool"}],"outputs":[],"stateMutability":"nonpayable"},{"type":"function","name":"supportsInterface","inputs":[{"name":"interfaceId","type":"bytes4","internalType":"bytes4"}],"outputs":[{"name":"","type":"bool","internalType":"bool"}],"stateMutability":"view"},{"type":"function","name":"tokenGlobalFreeze","inputs":[{"name":"","type":"address","internalType":"address"}],"outputs":[{"name":"","type":"bool","internalType":"bool"}],"stateMutability":"view"},{"type":"function","name":"upgradeToAndCall","inputs":[{"name":"newImplementation","type":"address","internalType":"address"},{"name":"data","type":"bytes","internalType":"bytes"}],"outputs":[],"stateMutability":"payable"},{"type":"event","name":"GlobalFreezeSet","inputs":[{"name":"token","type":"address","indexed":true,"internalType":"address"},{"name":"frozen","type":"bool","indexed":false,"internalType":"bool"}],"anonymous":false},{"type":"event","name":"Initialized","inputs":[{"name":"version","type":"uint64","indexed":false,"internalType":"uint64"}],"anonymous":false},{"type":"event","name":"OrderSet","inputs":[{"name":"id","type":"bytes32","indexed":true,"internalType":"bytes32"},{"name":"active","type":"bool","indexed":false,"internalType":"bool"}],"anonymous":false},{"type":"event","name":"RoleAdminChanged","inputs":[{"name":"role","type":"bytes32","indexed":true,"internalType":"bytes32"},{"name":"previousAdminRole","type":"bytes32","indexed":true,"internalType":"bytes32"},{"name":"newAdminRole","type":"bytes32","indexed":true,"internalType":"bytes32"}],"anonymous":false},{"type":"event","name":"RoleGranted","inputs":[{"name":"role","type":"bytes32","indexed":true,"internalType":"bytes32"},{"name":"account","type":"address","indexed":true,"internalType":"address"},{"name":"sender","type":"address","indexed":true,"internalType":"address"}],"anonymous":false},{"type":"event","name":"RoleRevoked","inputs":[{"name":"role","type":"bytes32","indexed":true,"internalType":"bytes32"},{"name":"account","type":"address","indexed":true,"internalType":"address"},{"name":"sender","type":"address","indexed":true,"internalType":"address"}],"anonymous":false},{"type":"event","name":"Upgraded","inputs":[{"name":"implementation","type":"address","indexed":true,"internalType":"address"}],"anonymous":false},{"type":"error","name":"AccessControlBadConfirmation","inputs":[]},{"type":"error","name":"AccessControlUnauthorizedAccount","inputs":[{"name":"account","type":"address","internalType":"address"},{"name":"neededRole","type":"bytes32","internalType":"bytes32"}]},{"type":"error","name":"AddressEmptyCode","inputs":[{"name":"target","type":"address","internalType":"address"}]},{"type":"error","name":"ERC1967InvalidImplementation","inputs":[{"name":"implementation","type":"address","internalType":"address"}]},{"type":"error","name":"ERC1967NonPayable","inputs":[]},{"type":"error","name":"FailedInnerCall","inputs":[]},{"type":"error","name":"InvalidInitialization","inputs":[]},{"type":"error","name":"NotInitializing","inputs":[]},{"type":"error","name":"UUPSUnauthorizedCallContext","inputs":[]},{"type":"error","name":"UUPSUnsupportedProxiableUUID","inputs":[{"name":"slot","type":"bytes32","internalType":"bytes32"}]}],"bytecode":{"object":"0x60a0806040523461002a57306080526114339081610030823960805181818161055f01526106d30152f35b600080fdfe608060408181526004918236101561001657600080fd5b600092833560e01c91826301ffc9a714610d0a575081630cd24aa5146104cd578163248a9ca314610ca25781632f2ff15d14610c5a57816336568abe14610bd05781633ecd37b014610b2c578163485cc955146109695781634f1ef2861461062b5781634f8a0bfb146105d757816352d1902d146105175781635c36901c146104cd57816391d148541461043d578163a217fddf14610404578163ad3cb1cc146102f8578163ccc574901461029f578163d547741f1461021e57508063d60dc34d146101545763d89ededb146100eb57600080fd5b346101505760207ffffffffffffffffffffffffffffffffffffffffffffffffffffffffffffffffc3601126101505760ff8160209373ffffffffffffffffffffffffffffffffffffffff61013d610dee565b1681526001855220541690519015158152f35b5080fd5b503461015057807ffffffffffffffffffffffffffffffffffffffffffffffffffffffffffffffffc360112610150577f985a5959e6a4e963520a84c0ca8e59cf07727095efb1301a8138e1396a7ae47960206101ae610dee565b73ffffffffffffffffffffffffffffffffffffffff6101cb610e11565b916101d4610eca565b169384865260018352610214828288209060ff7fffffffffffffffffffffffffffffffffffffffffffffffffffffffffffffff0083541691151516179055565b519015158152a280f35b9190503461029b57807ffffffffffffffffffffffffffffffffffffffffffffffffffffffffffffffffc36011261029b5761029791356102926001610261610dc6565b938387527f02dd7bc7dec4dceedda775e58dd541e08a116c6c53815c0bd028192f7b62680060205286200154610f5d565b611243565b5080f35b8280fd5b50503461015057817ffffffffffffffffffffffffffffffffffffffffffffffffffffffffffffffffc36011261015057602090517f7935bd0ae54bc31f548c14dba4d37c5c64b3f8ca900cb468fb8abd54d5894f558152f35b90503461029b57827ffffffffffffffffffffffffffffffffffffffffffffffffffffffffffffffffc36011261029b578151908282019082821067ffffffffffffffff8311176103d857508252600581526020907f352e302e300000000000000000000000000000000000000000000000000000006020820152825193849260208452825192836020860152825b8481106103c257505050828201840152601f017fffffffffffffffffffffffffffffffffffffffffffffffffffffffffffffffe0168101030190f35b8181018301518882018801528795508201610386565b8460416024927f4e487b7100000000000000000000000000000000000000000000000000000000835252fd5b50503461015057817ffffffffffffffffffffffffffffffffffffffffffffffffffffffffffffffffc3601126101505751908152602090f35b90503461029b57817ffffffffffffffffffffffffffffffffffffffffffffffffffffffffffffffffc36011261029b578160209360ff9261047c610dc6565b903582527f02dd7bc7dec4dceedda775e58dd541e08a116c6c53815c0bd028192f7b626800865273ffffffffffffffffffffffffffffffffffffffff83832091168252855220541690519015158152f35b90503461029b5760207ffffffffffffffffffffffffffffffffffffffffffffffffffffffffffffffffc36011261029b578160209360ff9235815280855220541690519015158152f35b8284346105d457807ffffffffffffffffffffffffffffffffffffffffffffffffffffffffffffffffc3601126105d4575073ffffffffffffffffffffffffffffffffffffffff7f00000000000000000000000000000000000000000000000000000000000000001630036105ae57602090517f360894a13ba1a3210667c828492db98dca3e2076cc3735a920a3ca505d382bbc8152f35b517fe07c8dba000000000000000000000000000000000000000000000000000000008152fd5b80fd5b5050346101505760207ffffffffffffffffffffffffffffffffffffffffffffffffffffffffffffffffc3601126101505760ff8160209373ffffffffffffffffffffffffffffffffffffffff61013d610dee565b918091507ffffffffffffffffffffffffffffffffffffffffffffffffffffffffffffffffc36011261029b5761065f610dee565b90602493843567ffffffffffffffff81116101505736602382011215610150578085013561068c81610e90565b9461069985519687610e20565b81865260209182870193368a8383010111610965578186928b86930187378801015273ffffffffffffffffffffffffffffffffffffffff807f000000000000000000000000000000000000000000000000000000000000000016803014908115610937575b5061090f5761070b610eca565b81169585517f52d1902d00000000000000000000000000000000000000000000000000000000815283818a818b5afa8691816108dc575b506107775750505050505051917f4c9c8ce3000000000000000000000000000000000000000000000000000000008352820152fd5b9088888894938c7f360894a13ba1a3210667c828492db98dca3e2076cc3735a920a3ca505d382bbc918281036108af5750853b15610882575080547fffffffffffffffffffffffff000000000000000000000000000000000000000016821790558451889392917fbc7cd75a20ee27fd9adebab32041f755214dbc6bffa90cc0225b39da2e5c2d3b8580a282511561084b5750506102979582915190845af4913d15610841573d61083361082a82610e90565b92519283610e20565b81528581943d92013e61135d565b506060925061135d565b95509550505050503461085d57505080f35b7fb398979f000000000000000000000000000000000000000000000000000000008152fd5b83838851917f4c9c8ce3000000000000000000000000000000000000000000000000000000008352820152fd5b84908851917faa1d49a4000000000000000000000000000000000000000000000000000000008352820152fd5b9091508481813d8311610908575b6108f48183610e20565b8101031261090457519038610742565b8680fd5b503d6108ea565b8786517fe07c8dba000000000000000000000000000000000000000000000000000000008152fd5b9050817f360894a13ba1a3210667c828492db98dca3e2076cc3735a920a3ca505d382bbc54161415386106fe565b8580fd5b90503461029b57817ffffffffffffffffffffffffffffffffffffffffffffffffffffffffffffffffc36011261029b576109a1610dee565b906109aa610dc6565b7ff0c57e16840df040f15088dc2f81fe391c3923bec73e23a9662efc9c229c6a0092835460ff81871c16159367ffffffffffffffff821680159081610b24575b6001149081610b1a575b159081610b11575b50610aea5750610a559291818560017fffffffffffffffffffffffffffffffffffffffffffffffff0000000000000000610a4f9516178855610ab5575b50610a42611304565b610a4a611304565b610fa2565b5061107f565b50610a5e578280f35b7fc7f505b2f371ae2175ee4913f4499e1f2633a7b5936321eed1cdaeb6115181d291817fffffffffffffffffffffffffffffffffffffffffffffff00ffffffffffffffff602093541690555160018152a138808280f35b7fffffffffffffffffffffffffffffffffffffffffffffff000000000000000000166801000000000000000117865538610a39565b86517ff92ee8a9000000000000000000000000000000000000000000000000000000008152fd5b905015386109fc565b303b1591506109f4565b8691506109ea565b90503461029b57817ffffffffffffffffffffffffffffffffffffffffffffffffffffffffffffffffc36011261029b5760207fa0b40329e09c3c4b5693e6a4042f51e778d625def4509c1a23adbd35eea2a402913592610b8a610e11565b90610b93610eca565b848652858352610214828288209060ff7fffffffffffffffffffffffffffffffffffffffffffffffffffffffffffffff0083541691151516179055565b83833461015057807ffffffffffffffffffffffffffffffffffffffffffffffffffffffffffffffffc36011261015057610c08610dc6565b903373ffffffffffffffffffffffffffffffffffffffff831603610c325750610297919235611243565b8390517f6697b232000000000000000000000000000000000000000000000000000000008152fd5b9190503461029b57807ffffffffffffffffffffffffffffffffffffffffffffffffffffffffffffffffc36011261029b576102979135610c9d6001610261610dc6565b61117e565b90503461029b5760207ffffffffffffffffffffffffffffffffffffffffffffffffffffffffffffffffc36011261029b57816020936001923581527f02dd7bc7dec4dceedda775e58dd541e08a116c6c53815c0bd028192f7b62680085522001549051908152f35b84913461029b5760207ffffffffffffffffffffffffffffffffffffffffffffffffffffffffffffffffc36011261029b57357fffffffff00000000000000000000000000000000000000000000000000000000811680910361029b57602092507f7965db0b000000000000000000000000000000000000000000000000000000008114908115610d9c575b5015158152f35b7f01ffc9a70000000000000000000000000000000000000000000000000000000091501483610d95565b6024359073ffffffffffffffffffffffffffffffffffffffff82168203610de957565b600080fd5b6004359073ffffffffffffffffffffffffffffffffffffffff82168203610de957565b602435908115158203610de957565b90601f7fffffffffffffffffffffffffffffffffffffffffffffffffffffffffffffffe0910116810190811067ffffffffffffffff821117610e6157604052565b7f4e487b7100000000000000000000000000000000000000000000000000000000600052604160045260246000fd5b67ffffffffffffffff8111610e6157601f017fffffffffffffffffffffffffffffffffffffffffffffffffffffffffffffffe01660200190565b3360009081527f75e09417c5070057df3eafe5054d52fa0b2a87d64a235e197963b615aedee80360205260409020547f7935bd0ae54bc31f548c14dba4d37c5c64b3f8ca900cb468fb8abd54d5894f559060ff1615610f265750565b604490604051907fe2517d3f0000000000000000000000000000000000000000000000000000000082523360048301526024820152fd5b806000527f02dd7bc7dec4dceedda775e58dd541e08a116c6c53815c0bd028192f7b62680060205260406000203360005260205260ff6040600020541615610f265750565b73ffffffffffffffffffffffffffffffffffffffff1660008181527fb7db2dd08fcb62d0c9e08c51941cae53c267786a0b75803fb7960902fc8ef97d60205260408120549091907f02dd7bc7dec4dceedda775e58dd541e08a116c6c53815c0bd028192f7b6268009060ff1661107a57828052602052604082208183526020526040822060017fffffffffffffffffffffffffffffffffffffffffffffffffffffffffffffff0082541617905533917f2f8788117e7eff1d82e926ec794901d17c78024a50270940304540a733656f0d8180a4600190565b505090565b73ffffffffffffffffffffffffffffffffffffffff1660008181527f75e09417c5070057df3eafe5054d52fa0b2a87d64a235e197963b615aedee80360205260408120549091907f7935bd0ae54bc31f548c14dba4d37c5c64b3f8ca900cb468fb8abd54d5894f55907f02dd7bc7dec4dceedda775e58dd541e08a116c6c53815c0bd028192f7b6268009060ff1661117857818452602052604083208284526020526040832060017fffffffffffffffffffffffffffffffffffffffffffffffffffffffffffffff008254161790557f2f8788117e7eff1d82e926ec794901d17c78024a50270940304540a733656f0d339380a4600190565b50505090565b906000918083527f02dd7bc7dec4dceedda775e58dd541e08a116c6c53815c0bd028192f7b6268008060205273ffffffffffffffffffffffffffffffffffffffff6040852093169283855260205260ff6040852054161560001461117857818452602052604083208284526020526040832060017fffffffffffffffffffffffffffffffffffffffffffffffffffffffffffffff008254161790557f2f8788117e7eff1d82e926ec794901d17c78024a50270940304540a733656f0d339380a4600190565b906000918083527f02dd7bc7dec4dceedda775e58dd541e08a116c6c53815c0bd028192f7b6268008060205273ffffffffffffffffffffffffffffffffffffffff6040852093169283855260205260ff6040852054166000146111785781845260205260408320828452602052604083207fffffffffffffffffffffffffffffffffffffffffffffffffffffffffffffff0081541690557ff6391f5c32d9c69d2a47ea670b442974b53935d1edc7fd64eb21e047a839171b339380a4600190565b60ff7ff0c57e16840df040f15088dc2f81fe391c3923bec73e23a9662efc9c229c6a005460401c161561133357565b60046040517fd7e6bcf8000000000000000000000000000000000000000000000000000000008152fd5b9061139c575080511561137257805190602001fd5b60046040517f1425ea42000000000000000000000000000000000000000000000000000000008152fd5b815115806113f4575b6113ad575090565b60249073ffffffffffffffffffffffffffffffffffffffff604051917f9996b315000000000000000000000000000000000000000000000000000000008352166004820152fd5b50803b156113a556fea2646970667358221220a908f7972e08e146b308602a5ae19c253dae2ea89483e1d7b323d1e72176ee8464736f6c63430008180033","linkReferences":{}},"methodIdentifiers":{"DEFAULT_ADMIN_ROLE()":"a217fddf","GOVERNOR_ROLE()":"ccc57490","UPGRADE_INTERFACE_VERSION()":"ad3cb1cc","activeOrder(bytes32)":"0cd24aa5","getRoleAdmin(bytes32)":"248a9ca3","globalFreeze(address)":"4f8a0bfb","grantRole(bytes32,address)":"2f2ff15d","hasRole(bytes32,address)":"91d14854","initialize(address,address)":"485cc955","isActive(bytes32)":"5c36901c","proxiableUUID()":"52d1902d","renounceRole(bytes32,address)":"36568abe","revokeRole(bytes32,address)":"d547741f","setGlobalFreeze(address,bool)":"d60dc34d","setOrder(bytes32,bool)":"3ecd37b0","supportsInterface(bytes4)":"01ffc9a7","tokenGlobalFreeze(address)":"d89ededb","upgradeToAndCall(address,bytes)":"4f1ef286"},"id":11}