{"abi":[{"type":"constructor","inputs":[],"stateMutability":"nonpayable"},{"type":"function","name":"DEFAULT_ADMIN_ROLE","inputs":[],"outputs":[{"name":"","type":"bytes32","internalType":"bytes32"}],"stateMutability":"view"},{"type":"function","name":"REGISTRAR_ROLE","inputs":[],"outputs":[{"name":"","type":"bytes32","internalType":"bytes32"}],"stateMutability":"view"},{"type":"function","name":"allocateWaterRight","inputs":[{"name":"tokenId","type":"uint256","internalType":"uint256"},{"name":"annualAllocation","type":"uint256","internalType":"uint256"},{"name":"waterSource","type":"string","internalType":"string"},{"name":"priority","type":"uint256","internalType":"uint256"},{"name":"isSenior","type":"bool","internalType":"bool"}],"outputs":[],"stateMutability":"nonpayable"},{"type":"function","name":"approve","inputs":[{"name":"to","type":"address","internalType":"address"},{"name":"tokenId","type":"uint256","internalType":"uint256"}],"outputs":[],"stateMutability":"nonpayable"},{"type":"function","name":"balanceOf","inputs":[{"name":"owner","type":"address","internalType":"address"}],"outputs":[{"name":"","type":"uint256","internalType":"uint256"}],"stateMutability":"view"},{"type":"function","name":"getApproved","inputs":[{"name":"tokenId","type":"uint256","internalType":"uint256"}],"outputs":[{"name":"","type":"address","internalType":"address"}],"stateMutability":"view"},{"type":"function","name":"getMineralRight","inputs":[{"name":"tokenId","type":"uint256","internalType":"uint256"}],"outputs":[{"name":"","type":"tuple","internalType":"struct NaturalResourceRightsToken.MineralRight","components":[{"name":"tokenId","type":"uint256","internalType":"uint256"},{"name":"minerals","type":"string[]","internalType":"string[]"},{"name":"royaltyRate","type":"uint256","internalType":"uint256"},{"name":"includesSubsurface","type":"bool","internalType":"bool"}]}],"stateMutability":"view"},{"type":"function","name":"getResourceRight","inputs":[{"name":"tokenId","type":"uint256","internalType":"uint256"}],"outputs":[{"name":"","type":"tuple","internalType":"struct NaturalResourceRightsToken.ResourceRight","components":[{"name":"tokenId","type":"uint256","internalType":"uint256"},{"name":"resourceType","type":"uint8","internalType":"enum NaturalResourceRightsToken.ResourceType"},{"name":"jurisdiction","type":"string","internalType":"string"},{"name":"legalDescription","type":"string","internalType":"string"},{"name":"deedHash","type":"bytes32","internalType":"bytes32"},{"name":"surveyHash","type":"bytes32","internalType":"bytes32"},{"name":"acreage","type":"uint256","internalType":"uint256"},{"name":"annualYield","type":"uint256","internalType":"uint256"},{"name":"registeredOwner","type":"address","internalType":"address"},{"name":"registrationDate","type":"uint256","internalType":"uint256"},{"name":"isEncumbered","type":"bool","internalType":"bool"}]}],"stateMutability":"view"},{"type":"function","name":"getRoleAdmin","inputs":[{"name":"role","type":"bytes32","internalType":"bytes32"}],"outputs":[{"name":"","type":"bytes32","internalType":"bytes32"}],"stateMutability":"view"},{"type":"function","name":"getWaterRight","inputs":[{"name":"tokenId","type":"uint256","internalType":"uint256"}],"outputs":[{"name":"","type":"tuple","internalType":"struct NaturalResourceRightsToken.WaterRight","components":[{"name":"tokenId","type":"uint256","internalType":"uint256"},{"name":"annualAllocation","type":"uint256","internalType":"uint256"},{"name":"waterSource","type":"string","internalType":"string"},{"name":"priority","type":"uint256","internalType":"uint256"},{"name":"isSenior","type":"bool","internalType":"bool"}]}],"stateMutability":"view"},{"type":"function","name":"grantMineralRight","inputs":[{"name":"tokenId","type":"uint256","internalType":"uint256"},{"name":"minerals","type":"string[]","internalType":"string[]"},{"name":"royaltyRate","type":"uint256","internalType":"uint256"},{"name":"includesSubsurface","type":"bool","internalType":"bool"}],"outputs":[],"stateMutability":"nonpayable"},{"type":"function","name":"grantRole","inputs":[{"name":"role","type":"bytes32","internalType":"bytes32"},{"name":"account","type":"address","internalType":"address"}],"outputs":[],"stateMutability":"nonpayable"},{"type":"function","name":"hasRole","inputs":[{"name":"role","type":"bytes32","internalType":"bytes32"},{"name":"account","type":"address","internalType":"address"}],"outputs":[{"name":"","type":"bool","internalType":"bool"}],"stateMutability":"view"},{"type":"function","name":"isApprovedForAll","inputs":[{"name":"owner","type":"address","internalType":"address"},{"name":"operator","type":"address","internalType":"address"}],"outputs":[{"name":"","type":"bool","internalType":"bool"}],"stateMutability":"view"},{"type":"function","name":"mineralRights","inputs":[{"name":"","type":"uint256","internalType":"uint256"}],"outputs":[{"name":"tokenId","type":"uint256","internalType":"uint256"},{"name":"royaltyRate","type":"uint256","internalType":"uint256"},{"name":"includesSubsurface","type":"bool","internalType":"bool"}],"stateMutability":"view"},{"type":"function","name":"name","inputs":[],"outputs":[{"name":"","type":"string","internalType":"string"}],"stateMutability":"view"},{"type":"function","name":"ownerOf","inputs":[{"name":"tokenId","type":"uint256","internalType":"uint256"}],"outputs":[{"name":"","type":"address","internalType":"address"}],"stateMutability":"view"},{"type":"function","name":"registerResourceRight","inputs":[{"name":"resourceType","type":"uint8","internalType":"enum NaturalResourceRightsToken.ResourceType"},{"name":"jurisdiction","type":"string","internalType":"string"},{"name":"legalDescription","type":"string","internalType":"string"},{"name":"deedHash","type":"bytes32","internalType":"bytes32"},{"name":"surveyHash","type":"bytes32","internalType":"bytes32"},{"name":"acreage","type":"uint256","internalType":"uint256"},{"name":"owner","type":"address","internalType":"address"}],"outputs":[{"name":"","type":"uint256","internalType":"uint256"}],"stateMutability":"nonpayable"},{"type":"function","name":"renounceRole","inputs":[{"name":"role","type":"bytes32","internalType":"bytes32"},{"name":"callerConfirmation","type":"address","internalType":"address"}],"outputs":[],"stateMutability":"nonpayable"},{"type":"function","name":"resourceRights","inputs":[{"name":"","type":"uint256","internalType":"uint256"}],"outputs":[{"name":"tokenId","type":"uint256","internalType":"uint256"},{"name":"resourceType","type":"uint8","internalType":"enum NaturalResourceRightsToken.ResourceType"},{"name":"jurisdiction","type":"string","internalType":"string"},{"name":"legalDescription","type":"string","internalType":"string"},{"name":"deedHash","type":"bytes32","internalType":"bytes32"},{"name":"surveyHash","type":"bytes32","internalType":"bytes32"},{"name":"acreage","type":"uint256","internalType":"uint256"},{"name":"annualYield","type":"uint256","internalType":"uint256"},{"name":"registeredOwner","type":"address","internalType":"address"},{"name":"registrationDate","type":"uint256","internalType":"uint256"},{"name":"isEncumbered","type":"bool","internalType":"bool"}],"stateMutability":"view"},{"type":"function","name":"revokeRole","inputs":[{"name":"role","type":"bytes32","internalType":"bytes32"},{"name":"account","type":"address","internalType":"address"}],"outputs":[],"stateMutability":"nonpayable"},{"type":"function","name":"safeTransferFrom","inputs":[{"name":"from","type":"address","internalType":"address"},{"name":"to","type":"address","internalType":"address"},{"name":"tokenId","type":"uint256","internalType":"uint256"}],"outputs":[],"stateMutability":"nonpayable"},{"type":"function","name":"safeTransferFrom","inputs":[{"name":"from","type":"address","internalType":"address"},{"name":"to","type":"address","internalType":"address"},{"name":"tokenId","type":"uint256","internalType":"uint256"},{"name":"data","type":"bytes","internalType":"bytes"}],"outputs":[],"stateMutability":"nonpayable"},{"type":"function","name":"setApprovalForAll","inputs":[{"name":"operator","type":"address","internalType":"address"},{"name":"approved","type":"bool","internalType":"bool"}],"outputs":[],"stateMutability":"nonpayable"},{"type":"function","name":"setEncumbrance","inputs":[{"name":"tokenId","type":"uint256","internalType":"uint256"},{"name":"encumbered","type":"bool","internalType":"bool"}],"outputs":[],"stateMutability":"nonpayable"},{"type":"function","name":"supportsInterface","inputs":[{"name":"interfaceId","type":"bytes4","internalType":"bytes4"}],"outputs":[{"name":"","type":"bool","internalType":"bool"}],"stateMutability":"view"},{"type":"function","name":"symbol","inputs":[],"outputs":[{"name":"","type":"string","internalType":"string"}],"stateMutability":"view"},{"type":"function","name":"tokenURI","inputs":[{"name":"tokenId","type":"uint256","internalType":"uint256"}],"outputs":[{"name":"","type":"string","internalType":"string"}],"stateMutability":"view"},{"type":"function","name":"transferFrom","inputs":[{"name":"from","type":"address","internalType":"address"},{"name":"to","type":"address","internalType":"address"},{"name":"tokenId","type":"uint256","internalType":"uint256"}],"outputs":[],"stateMutability":"nonpayable"},{"type":"function","name":"waterRights","inputs":[{"name":"","type":"uint256","internalType":"uint256"}],"outputs":[{"name":"tokenId","type":"uint256","internalType":"uint256"},{"name":"annualAllocation","type":"uint256","internalType":"uint256"},{"name":"waterSource","type":"string","internalType":"string"},{"name":"priority","type":"uint256","internalType":"uint256"},{"name":"isSenior","type":"bool","internalType":"bool"}],"stateMutability":"view"},{"type":"event","name":"Approval","inputs":[{"name":"owner","type":"address","indexed":true,"internalType":"address"},{"name":"approved","type":"address","indexed":true,"internalType":"address"},{"name":"tokenId","type":"uint256","indexed":true,"internalType":"uint256"}],"anonymous":false},{"type":"event","name":"ApprovalForAll","inputs":[{"name":"owner","type":"address","indexed":true,"internalType":"address"},{"name":"operator","type":"address","indexed":true,"internalType":"address"},{"name":"approved","type":"bool","indexed":false,"internalType":"bool"}],"anonymous":false},{"type":"event","name":"MineralRightGranted","inputs":[{"name":"tokenId","type":"uint256","indexed":true,"internalType":"uint256"},{"name":"minerals","type":"string[]","indexed":false,"internalType":"string[]"}],"anonymous":false},{"type":"event","name":"ResourceRightRegistered","inputs":[{"name":"tokenId","type":"uint256","indexed":true,"internalType":"uint256"},{"name":"resourceType","type":"uint8","indexed":false,"internalType":"enum NaturalResourceRightsToken.ResourceType"},{"name":"jurisdiction","type":"string","indexed":false,"internalType":"string"}],"anonymous":false},{"type":"event","name":"RoleAdminChanged","inputs":[{"name":"role","type":"bytes32","indexed":true,"internalType":"bytes32"},{"name":"previousAdminRole","type":"bytes32","indexed":true,"internalType":"bytes32"},{"name":"newAdminRole","type":"bytes32","indexed":true,"internalType":"bytes32"}],"anonymous":false},{"type":"event","name":"RoleGranted","inputs":[{"name":"role","type":"bytes32","indexed":true,"internalType":"bytes32"},{"name":"account","type":"address","indexed":true,"internalType":"address"},{"name":"sender","type":"address","indexed":true,"internalType":"address"}],"anonymous":false},{"type":"event","name":"RoleRevoked","inputs":[{"name":"role","type":"bytes32","indexed":true,"internalType":"bytes32"},{"name":"account","type":"address","indexed":true,"internalType":"address"},{"name":"sender","type":"address","indexed":true,"internalType":"address"}],"anonymous":false},{"type":"event","name":"Transfer","inputs":[{"name":"from","type":"address","indexed":true,"internalType":"address"},{"name":"to","type":"address","indexed":true,"internalType":"address"},{"name":"tokenId","type":"uint256","indexed":true,"internalType":"uint256"}],"anonymous":false},{"type":"event","name":"WaterRightAllocated","inputs":[{"name":"tokenId","type":"uint256","indexed":true,"internalType":"uint256"},{"name":"allocation","type":"uint256","indexed":false,"internalType":"uint256"}],"anonymous":false},{"type":"error","name":"AccessControlBadConfirmation","inputs":[]},{"type":"error","name":"AccessControlUnauthorizedAccount","inputs":[{"name":"account","type":"address","internalType":"address"},{"name":"neededRole","type":"bytes32","internalType":"bytes32"}]},{"type":"error","name":"ERC721IncorrectOwner","inputs":[{"name":"sender","type":"address","internalType":"address"},{"name":"tokenId","type":"uint256","internalType":"uint256"},{"name":"owner","type":"address","internalType":"address"}]},{"type":"error","name":"ERC721InsufficientApproval","inputs":[{"name":"operator","type":"address","internalType":"address"},{"name":"tokenId","type":"uint256","internalType":"uint256"}]},{"type":"error","name":"ERC721InvalidApprover","inputs":[{"name":"approver","type":"address","internalType":"address"}]},{"type":"error","name":"ERC721InvalidOperator","inputs":[{"name":"operator","type":"address","internalType":"address"}]},{"type":"error","name":"ERC721InvalidOwner","inputs":[{"name":"owner","type":"address","internalType":"address"}]},{"type":"error","name":"ERC721InvalidReceiver","inputs":[{"name":"receiver","type":"address","internalType":"address"}]},{"type":"error","name":"ERC721InvalidSender","inputs":[{"name":"sender","type":"address","internalType":"address"}]},{"type":"error","name":"ERC721NonexistentToken","inputs":[{"name":"tokenId","type":"uint256","internalType":"uint256"}]}],"bytecode":{"object":"0x6080346200032c576001600160401b03906040908082018381118282101762000316578252601781526020927f4e61747572616c205265736f75726365205269676874730000000000000000008483015282518381018181108382111762000316578452600381526227292960e91b85820152825190828211620003165760008054926001958685811c951680156200030b575b89861014620002f7578190601f95868111620002a4575b5089908683116001146200024057849262000234575b5050600019600383901b1c191690861b1781555b8151938411620002205784548581811c9116801562000215575b888210146200020157838111620001b9575b5086928411600114620001535783949596509262000147575b5050600019600383901b1c191690821b1790555b620001383362000331565b5051612fc29081620003c48239f35b01519050388062000119565b9190601f1984169685845280842093905b888210620001a1575050838596971062000187575b505050811b0190556200012d565b015160001960f88460031b161c1916905538808062000179565b80878596829496860151815501950193019062000164565b8582528782208480870160051c8201928a8810620001f7575b0160051c019086905b828110620001eb57505062000100565b838155018690620001db565b92508192620001d2565b634e487b7160e01b82526022600452602482fd5b90607f1690620000ee565b634e487b7160e01b81526041600452602490fd5b015190503880620000c0565b8480528a85208994509190601f198416865b8d8282106200028d575050841162000273575b505050811b018155620000d4565b015160001960f88460031b161c1916905538808062000265565b8385015186558c9790950194938401930162000252565b9091508380528984208680850160051c8201928c8610620002ed575b918a91869594930160051c01915b828110620002de575050620000aa565b8681558594508a9101620002ce565b92508192620002c0565b634e487b7160e01b83526022600452602483fd5b94607f169462000093565b634e487b7160e01b600052604160045260246000fd5b600080fd5b6001600160a01b031660008181527f54cdd369e4e8a8515e52ca72ec816c2101831ad1f18bf44102ed171459c9b4f8602052604081205490919060ff16620003bf5781805260066020526040822081835260205260408220600160ff1982541617905533917f2f8788117e7eff1d82e926ec794901d17c78024a50270940304540a733656f0d8180a4600190565b509056fe608080604052600436101561001357600080fd5b60003560e01c90816301ffc9a7146123d75750806306fdde031461230e578063081812fc146122a4578063095ea7b314612146578063099483b2146120395780632059e83014611e2757806323b872dd14611e10578063248a9ca314611dc35780632f2ff15d14611d6657806336568abe14611cdc57806342842e0e14611cae5780635cd4d2ce14611bbf5780636352211e14611b6557806370a0823114611ac957806391a3c3e81461111d57806391d14854146110a45780639436004714610f8257806395d89b4114610e635780639cd913cb146109f9578063a217fddf146109bf578063a22cb465146108b3578063a45b63a81461082e578063ac0eac2e1461049f578063b88d4fde14610416578063c4c6d426146103b0578063c87b56dd1461033b578063d547741f146102dc578063e985e9c51461025a578063f68e9553146102015763f9e97ea01461016957600080fd5b346101fc5760207ffffffffffffffffffffffffffffffffffffffffffffffffffffffffffffffffc3601126101fc576004356000526008602052604060002080546001820154916101bc600282016126a0565b6101eb60ff6004600385015494015416916040519586958652602086015260a0604086015260a08501906124f7565b916060840152151560808301520390f35b600080fd5b346101fc5760007ffffffffffffffffffffffffffffffffffffffffffffffffffffffffffffffffc3601126101fc5760206040517fedcc084d3dcd65a1f7f23c65c46722faca6953d28e43150a467cf43e5c3092388152f35b346101fc5760407ffffffffffffffffffffffffffffffffffffffffffffffffffffffffffffffffc3601126101fc57610291612555565b610299612578565b9073ffffffffffffffffffffffffffffffffffffffff809116600052600560205260406000209116600052602052602060ff604060002054166040519015158152f35b346101fc5760407ffffffffffffffffffffffffffffffffffffffffffffffffffffffffffffffffc3601126101fc57610339600435610319612578565b90806000526006602052610334600160406000200154612c4a565b612d1c565b005b346101fc5760207ffffffffffffffffffffffffffffffffffffffffffffffffffffffffffffffffc3601126101fc57610375600435612b56565b50600060405161038481612643565b526103ac60405161039481612643565b600081526040519182916020835260208301906124f7565b0390f35b346101fc5760207ffffffffffffffffffffffffffffffffffffffffffffffffffffffffffffffffc3601126101fc5760043560005260096020526060604060002080549060ff600360028301549201541690604051928352602083015215156040820152f35b346101fc5760807ffffffffffffffffffffffffffffffffffffffffffffffffffffffffffffffffc3601126101fc5761044d612555565b610455612578565b906044356064359267ffffffffffffffff84116101fc57366023850112156101fc5761048e61033994369060248160040135910161280b565b9261049a83838361290e565b612dbf565b346101fc5760a07ffffffffffffffffffffffffffffffffffffffffffffffffffffffffffffffffc3601126101fc5767ffffffffffffffff6004356024356044358381116101fc576104f5903690600401612842565b90608435918215158093036101fc5761050c612bb7565b836000526020926007845260019560ff6001604060002001541660058110156107ff576107a157604051926105408461260b565b86845285840191858352604085019182526060850192606435845260808601948552886000526008885260406000209551865551600186015560028501915198895191821161077257610593835461259b565b601f8111610737575b508790601f831160011461066957509161061782600495936106559897957f319bed9847175594ea3ccfd6d19ec666cf23a9d11da110c21b82b7d6c7d39a7c9c9d60009261065e575b50507fffffffffffffffffffffffffffffffffffffffffffffffffffffffffffffffff8260011b9260031b1c19161790565b90555b51600384015551151591019060ff7fffffffffffffffffffffffffffffffffffffffffffffffffffffffffffffff0083541691151516179055565b604051908152a2005b015190508d806105e5565b997fffffffffffffffffffffffffffffffffffffffffffffffffffffffffffffffe0831684600052896000209b6000905b828210610720575050927f319bed9847175594ea3ccfd6d19ec666cf23a9d11da110c21b82b7d6c7d39a7c9a9b610655989795936001938360049997106106e9575b505050811b01905561061a565b01517fffffffffffffffffffffffffffffffffffffffffffffffffffffffffffffffff60f88460031b161c191690558c80806106dc565b848401518e559c8d019c938b0193908b019061069a565b610762908460005289600020601f850160051c8101918b8610610768575b601f0160051c0190612b3f565b8a61059c565b9091508190610755565b7f4e487b7100000000000000000000000000000000000000000000000000000000600052604160045260246000fd5b606485604051907f08c379a00000000000000000000000000000000000000000000000000000000082526004820152601160248201527f4e6f7420612077617465722072696768740000000000000000000000000000006044820152fd5b7f4e487b7100000000000000000000000000000000000000000000000000000000600052602160045260246000fd5b346101fc5760407ffffffffffffffffffffffffffffffffffffffffffffffffffffffffffffffffc3601126101fc576103396108686128f3565b610870612bb7565b6004356000526007602052600a6040600020019060ff7fffffffffffffffffffffffffffffffffffffffffffffffffffffffffffffff0083541691151516179055565b346101fc5760407ffffffffffffffffffffffffffffffffffffffffffffffffffffffffffffffffc3601126101fc576108ea612555565b73ffffffffffffffffffffffffffffffffffffffff6109076128f3565b911690811561098e5733600052600560205260406000208260005260205261095e8160406000209060ff7fffffffffffffffffffffffffffffffffffffffffffffffffffffffffffffff0083541691151516179055565b60405190151581527f17307eab39ab6107e8899845ad3d59bd9653f200f220920489ca2b5937696c3160203392a3005b602482604051907f5b08ba180000000000000000000000000000000000000000000000000000000082526004820152fd5b346101fc5760007ffffffffffffffffffffffffffffffffffffffffffffffffffffffffffffffffc3601126101fc57602060405160008152f35b346101fc5760807ffffffffffffffffffffffffffffffffffffffffffffffffffffffffffffffffc3601126101fc5760243567ffffffffffffffff81116101fc57366023820112156101fc578060040135610a53816128db565b91610a61604051938461265f565b8183526024602084019260051b820101903682116101fc5760248101925b828410610e3357846064358015158091036101fc57610a9c612bb7565b600435600052600760205260ff6001604060002001541660058110156107ff57600103610dd557604051610acf81612627565b600435815260208101918383526044356040830152606082015260043560005260096020526040600020918151835551805190680100000000000000008211610772576001840154826001860155808310610d5c575b5060200190600184016000526020600020916000905b828210610bcb5786610b8c876003606089604081015160028501550151151591019060ff7fffffffffffffffffffffffffffffffffffffffffffffffffffffffffffffff0083541691151516179055565b7f83ae613d83ba010bb81ffe99176d8487a81e1dd4871407eaf559f13509351f446040516020815280610bc6600435946020830190612860565b0390a2005b805180519067ffffffffffffffff821161077257610be9865461259b565b90601f91828111610d22575b506020918311600114610c585792610c498360019594602094879660009261065e5750507fffffffffffffffffffffffffffffffffffffffffffffffffffffffffffffffff8260011b9260031b1c19161790565b87555b01940191019092610b3b565b908660005260206000209160005b7fffffffffffffffffffffffffffffffffffffffffffffffffffffffffffffffe085168110610d0a57508360209360019693879693837fffffffffffffffffffffffffffffffffffffffffffffffffffffffffffffffe089961610610cd3575b505050811b018755610c4c565b01517fffffffffffffffffffffffffffffffffffffffffffffffffffffffffffffffff60f88460031b161c191690558c8080610cc6565b91926020600181928685015181550194019201610c66565b610d4d908860005260206000208480870160051c82019260208810610d53575b0160051c0190612b3f565b8a610bf5565b92508192610d42565b600185016000526020600020908382015b8183018110610d7d575050610b25565b80610d8a6001925461259b565b80610d97575b5001610d6d565b601f908181118414610db0575050600081555b89610d90565b610dcc60009284845260208420920160051c8201858301612b3f565b81835555610daa565b60646040517f08c379a000000000000000000000000000000000000000000000000000000000815260206004820152601360248201527f4e6f742061206d696e6572616c207269676874000000000000000000000000006044820152fd5b833567ffffffffffffffff81116101fc57602091610e58839260243691870101612842565b815201930192610a7f565b346101fc5760007ffffffffffffffffffffffffffffffffffffffffffffffffffffffffffffffffc3601126101fc57604051600060018260015492610ea78461259b565b9283835260209485600182169182600014610f44575050600114610ee7575b50610ed39250038361265f565b6103ac6040519282849384528301906124f7565b84915060016000527fb10e2d527612073b26eecdfd717e6a320cf44b4afac2b0732d9fcbe2b7fa0cf6906000915b858310610f2c575050610ed3935082010185610ec6565b80548389018501528794508693909201918101610f15565b7fffffffffffffffffffffffffffffffffffffffffffffffffffffffffffffff001685820152610ed395151560051b8501019250879150610ec69050565b346101fc576020807ffffffffffffffffffffffffffffffffffffffffffffffffffffffffffffffffc3601126101fc5760006060604051610fc281612627565b8281528184820152826040820152015260043560005260098152604060002060405190610fee82612627565b805482526001808201908154611003816128db565b92611011604051948561265f565b8184526000908152868120878086015b84841061108757509350505050830190815261107460ff600360028501549460408701958652015416916060850192151583526040519586958187525190860152516080604086015260a0850190612860565b9151606084015251151560808301520390f35b85918291611094856126a0565b8152019201920191908890611021565b346101fc5760407ffffffffffffffffffffffffffffffffffffffffffffffffffffffffffffffffc3601126101fc576110db612578565b600435600052600660205273ffffffffffffffffffffffffffffffffffffffff60406000209116600052602052602060ff604060002054166040519015158152f35b346101fc5760e07ffffffffffffffffffffffffffffffffffffffffffffffffffffffffffffffffc3601126101fc57600560043510156101fc5760243567ffffffffffffffff81116101fc57611177903690600401612842565b60443567ffffffffffffffff81116101fc57611197903690600401612842565b73ffffffffffffffffffffffffffffffffffffffff60c4351660c435036101fc576111c0612bb7565b600a54907fffffffffffffffffffffffffffffffffffffffffffffffffffffffffffffffff8214611a9a5760018201600a55604051906111ff826125ee565b82825261121160043560208401612902565b8360408301526060820152606435608082015260843560a082015260a43560c0820152600060e082015273ffffffffffffffffffffffffffffffffffffffff60c4351661010082015242610120820152600061014082015281600052600760205260406000208151815560018101602083015160058110156107ff5760ff7fffffffffffffffffffffffffffffffffffffffffffffffffffffffffffffff008354169116179055604082015180519067ffffffffffffffff8211610772576112dc600284015461259b565b601f8111611a65575b50602090601f83116001146119995761133392916000918361198e5750507fffffffffffffffffffffffffffffffffffffffffffffffffffffffffffffffff8260011b9260031b1c19161790565b60028201555b606082015180519067ffffffffffffffff82116107725761135d600384015461259b565b601f8111611959575b50602090601f831160011461188b5791806113b99261147895946000926118805750507fffffffffffffffffffffffffffffffffffffffffffffffffffffffffffffffff8260011b9260031b1c19161790565b60038201555b6080830151600482015560a0830151600582015560c0830151600682015560e08301516007820155600a610140600883019473ffffffffffffffffffffffffffffffffffffffff61010082015116957fffffffffffffffffffffffff0000000000000000000000000000000000000000968782541617905561012081015160098501550151151591019060ff7fffffffffffffffffffffffffffffffffffffffffffffffffffffffffffffff0083541691151516179055565b6040519061148582612643565b6000825273ffffffffffffffffffffffffffffffffffffffff60c435161561184f578260005260026020528273ffffffffffffffffffffffffffffffffffffffff6040600020541680151592836117dd575b73ffffffffffffffffffffffffffffffffffffffff60c43516600052600360205260406000206001815401905582600052600260205260406000209073ffffffffffffffffffffffffffffffffffffffff60c435169082541617905573ffffffffffffffffffffffffffffffffffffffff60c43516907fddf252ad1be2c89b69c2b068fc378daa952ba7f163c4a11628f55a4df523b3ef600080a46117ac5760c4353b6115d5575b50807f2b8849ca37923c6775256e071a3667a4b026f73d9861adde414e6cf3892a6e3f6115ca6020946040519182916115ba83600435612764565b60408884015260408301906124f7565b0390a2604051908152f35b604051602081806116287f150b7a020000000000000000000000000000000000000000000000000000000095868352336004840152600060248401528760448401526080606484015260848301906124f7565b0381600073ffffffffffffffffffffffffffffffffffffffff60c435165af16000918161174f575b506116da573d156116d3573d611665816127d1565b90611673604051928361265f565b81523d6000602083013e5b805190816116ce5760246040517f64a0ae9200000000000000000000000000000000000000000000000000000000815273ffffffffffffffffffffffffffffffffffffffff60c435166004820152fd5b602001fd5b606061167e565b7fffffffff000000000000000000000000000000000000000000000000000000001603611707578061157f565b60246040517f64a0ae9200000000000000000000000000000000000000000000000000000000815273ffffffffffffffffffffffffffffffffffffffff60c435166004820152fd5b9091506020813d6020116117a4575b8161176b6020938361265f565b810103126101fc57517fffffffff00000000000000000000000000000000000000000000000000000000811681036101fc579085611650565b3d915061175e565b60246040517f73c6ac6e00000000000000000000000000000000000000000000000000000000815260006004820152fd5b61181683600052600460205260406000207fffffffffffffffffffffffff00000000000000000000000000000000000000008154169055565b81600052600360205260406000207fffffffffffffffffffffffffffffffffffffffffffffffffffffffffffffffff81540190556114d7565b60246040517f64a0ae9200000000000000000000000000000000000000000000000000000000815260006004820152fd5b0151905088806105e5565b906003840160005260206000209160005b7fffffffffffffffffffffffffffffffffffffffffffffffffffffffffffffffe0851681106119415750918391600193837fffffffffffffffffffffffffffffffffffffffffffffffffffffffffffffffe06114789897161061190a575b505050811b0160038201556113bf565b01517fffffffffffffffffffffffffffffffffffffffffffffffffffffffffffffffff60f88460031b161c191690558780806118fa565b9192602060018192868501518155019401920161189c565b61198890600385016000526020600020601f850160051c8101916020861061076857601f0160051c0190612b3f565b86611366565b0151905087806105e5565b9190600284016000526020600020906000935b7fffffffffffffffffffffffffffffffffffffffffffffffffffffffffffffffe084168510611a4a5760019450837fffffffffffffffffffffffffffffffffffffffffffffffffffffffffffffffe0811610611a13575b505050811b016002820155611339565b01517fffffffffffffffffffffffffffffffffffffffffffffffffffffffffffffffff60f88460031b161c19169055868080611a03565b818101518355602094850194600190930192909101906119ac565b611a9490600285016000526020600020601f850160051c8101916020861061076857601f0160051c0190612b3f565b866112e5565b7f4e487b7100000000000000000000000000000000000000000000000000000000600052601160045260246000fd5b346101fc5760207ffffffffffffffffffffffffffffffffffffffffffffffffffffffffffffffffc3601126101fc5773ffffffffffffffffffffffffffffffffffffffff611b15612555565b168015611b345760005260036020526020604060002054604051908152f35b60246040517f89c62b6400000000000000000000000000000000000000000000000000000000815260006004820152fd5b346101fc5760207ffffffffffffffffffffffffffffffffffffffffffffffffffffffffffffffffc3601126101fc576020611ba1600435612b56565b73ffffffffffffffffffffffffffffffffffffffff60405191168152f35b346101fc576020807ffffffffffffffffffffffffffffffffffffffffffffffffffffffffffffffffc3601126101fc5760006080604051611bff8161260b565b828152828482015260606040820152826060820152015260043560005260088152604060002060405190611c328261260b565b805482526001810154838301908152611c9b611c50600284016126a0565b6040850190815260ff6004600386015495606088019687520154169260808601931515845260405196879681885251908701525160408601525160a0606086015260c08501906124f7565b9151608084015251151560a08301520390f35b346101fc57610339611cbf36612771565b9060405192611ccd84612643565b6000845261049a83838361290e565b346101fc5760407ffffffffffffffffffffffffffffffffffffffffffffffffffffffffffffffffc3601126101fc57611d13612578565b3373ffffffffffffffffffffffffffffffffffffffff821603611d3c5761033990600435612d1c565b60046040517f6697b232000000000000000000000000000000000000000000000000000000008152fd5b346101fc5760407ffffffffffffffffffffffffffffffffffffffffffffffffffffffffffffffffc3601126101fc57610339600435611da3612578565b90806000526006602052611dbe600160406000200154612c4a565b612c70565b346101fc5760207ffffffffffffffffffffffffffffffffffffffffffffffffffffffffffffffffc3601126101fc5760043560005260066020526020600160406000200154604051908152f35b346101fc57610339611e2136612771565b9161290e565b346101fc5760207ffffffffffffffffffffffffffffffffffffffffffffffffffffffffffffffffc3601126101fc576000610140604051611e67816125ee565b828152826020820152606060408201526060808201528260808201528260a08201528260c08201528260e0820152826101008201528261012082015201526004356000526007602052604060002060ff600a60405192611ec6846125ee565b80548452611edd8360018301541660208601612902565b611ee9600282016126a0565b6040850152611efa600382016126a0565b606085015260048101546080850152600581015460a0850152600681015460c0850152600781015460e085015273ffffffffffffffffffffffffffffffffffffffff6008820154166101008501526009810154610120850152015416151561014082015260405180916020825280516020830152611f8060208201516040840190612764565b6040810151610140611fd7611fa3610160938460608801526101808701906124f7565b60608501517fffffffffffffffffffffffffffffffffffffffffffffffffffffffffffffffe08783030160808801526124f7565b92608081015160a086015260a081015160c086015260c081015160e086015260e081015161010086015273ffffffffffffffffffffffffffffffffffffffff610100820151166101208601526101208101518286015201511515908301520390f35b346101fc5760207ffffffffffffffffffffffffffffffffffffffffffffffffffffffffffffffffc3601126101fc5760043560005260076020526040600020604081549160ff600182015416612091600283016126a0565b9161209e600382016126a0565b92600482015493600583015460068401549061211960078601549361210b73ffffffffffffffffffffffffffffffffffffffff6008890154169660ff600a60098b01549a015416998c519d8e9d8e61210161016094859483526020830190612764565b01528c01906124f7565b908a820360608c01526124f7565b96608089015260a088015260c087015260e086015261010085015261012084015215156101408301520390f35b346101fc5760407ffffffffffffffffffffffffffffffffffffffffffffffffffffffffffffffffc3601126101fc5761217d612555565b60243561218981612b56565b33151580612284575b80612249575b61221957819073ffffffffffffffffffffffffffffffffffffffff809416938491167f8c5be1e5ebec7d5bd14f71427d1e84f3dd0314c0f7b2291e5b200ac8c7c3b925600080a460005260046020526040600020907fffffffffffffffffffffffff0000000000000000000000000000000000000000825416179055600080f35b60246040517fa9fbf51f000000000000000000000000000000000000000000000000000000008152336004820152fd5b5073ffffffffffffffffffffffffffffffffffffffff8116600052600560205260406000203360005260205260ff6040600020541615612198565b503373ffffffffffffffffffffffffffffffffffffffff82161415612192565b346101fc5760207ffffffffffffffffffffffffffffffffffffffffffffffffffffffffffffffffc3601126101fc576004356122df81612b56565b506000526004602052602073ffffffffffffffffffffffffffffffffffffffff60406000205416604051908152f35b346101fc5760007ffffffffffffffffffffffffffffffffffffffffffffffffffffffffffffffffc3601126101fc5760405160008054908261234f8361259b565b9182825260209360019085600182169182600014610f4457505060011461237d5750610ed39250038361265f565b6000808052859250907f290decd9548b62a8d60345a988386fc84ba6bc95484008f6362f93160ef3e5635b8583106123bf575050610ed3935082010185610ec6565b805483890185015287945086939092019181016123a8565b346101fc5760207ffffffffffffffffffffffffffffffffffffffffffffffffffffffffffffffffc3601126101fc57600435907fffffffff0000000000000000000000000000000000000000000000000000000082168092036101fc57817f7965db0b0000000000000000000000000000000000000000000000000000000060209314908115612469575b5015158152f35b7f80ac58cd000000000000000000000000000000000000000000000000000000008114915081156124cd575b81156124a3575b5083612462565b7f01ffc9a7000000000000000000000000000000000000000000000000000000009150148361249c565b7f5b5e139f0000000000000000000000000000000000000000000000000000000081149150612495565b919082519283825260005b8481106125415750507fffffffffffffffffffffffffffffffffffffffffffffffffffffffffffffffe0601f8460006020809697860101520116010190565b602081830181015184830182015201612502565b6004359073ffffffffffffffffffffffffffffffffffffffff821682036101fc57565b6024359073ffffffffffffffffffffffffffffffffffffffff821682036101fc57565b90600182811c921680156125e4575b60208310146125b557565b7f4e487b7100000000000000000000000000000000000000000000000000000000600052602260045260246000fd5b91607f16916125aa565b610160810190811067ffffffffffffffff82111761077257604052565b60a0810190811067ffffffffffffffff82111761077257604052565b6080810190811067ffffffffffffffff82111761077257604052565b6020810190811067ffffffffffffffff82111761077257604052565b90601f7fffffffffffffffffffffffffffffffffffffffffffffffffffffffffffffffe0910116810190811067ffffffffffffffff82111761077257604052565b906040519182600082546126b38161259b565b9081845260209460019160018116908160001461272357506001146126e4575b5050506126e29250038361265f565b565b600090815285812095935091905b81831061270b5750506126e293508201013880806126d3565b855488840185015294850194879450918301916126f2565b9150506126e29593507fffffffffffffffffffffffffffffffffffffffffffffffffffffffffffffff0091501682840152151560051b8201013880806126d3565b9060058210156107ff5752565b7ffffffffffffffffffffffffffffffffffffffffffffffffffffffffffffffffc60609101126101fc5773ffffffffffffffffffffffffffffffffffffffff9060043582811681036101fc579160243590811681036101fc579060443590565b67ffffffffffffffff811161077257601f017fffffffffffffffffffffffffffffffffffffffffffffffffffffffffffffffe01660200190565b929192612817826127d1565b91612825604051938461265f565b8294818452818301116101fc578281602093846000960137010152565b9080601f830112156101fc5781602061285d9335910161280b565b90565b90808251908181526020809101926020808460051b8301019501936000915b84831061288f5750505050505090565b90919293949584806128cb837fffffffffffffffffffffffffffffffffffffffffffffffffffffffffffffffe086600196030187528a516124f7565b980193019301919493929061287f565b67ffffffffffffffff81116107725760051b60200190565b6024359081151582036101fc57565b60058210156107ff5752565b909173ffffffffffffffffffffffffffffffffffffffff80931692831561184f57600092828452826020956002875260409684888820541696879133151580612a77575b509060027fddf252ad1be2c89b69c2b068fc378daa952ba7f163c4a11628f55a4df523b3ef9284612a09575b858352600381528b83206001815401905586835252898120847fffffffffffffffffffffffff000000000000000000000000000000000000000082541617905580a416928383036129cf5750505050565b6064945051927f64283d7b000000000000000000000000000000000000000000000000000000008452600484015260248301526044820152fd5b612a4287600052600460205260406000207fffffffffffffffffffffffff00000000000000000000000000000000000000008154169055565b848352600381528b83207fffffffffffffffffffffffffffffffffffffffffffffffffffffffffffffffff815401905561297e565b91939450915080612afe575b15612a9357859291879138612952565b878688612ac95760249151907f7e2732890000000000000000000000000000000000000000000000000000000082526004820152fd5b60449151907f177e802f0000000000000000000000000000000000000000000000000000000082523360048301526024820152fd5b503387148015612b23575b80612a835750858252600481523385898420541614612a83565b5086825260058152878220338352815260ff8883205416612b09565b818110612b4a575050565b60008155600101612b3f565b80600052600260205273ffffffffffffffffffffffffffffffffffffffff60406000205416908115612b86575090565b602490604051907f7e2732890000000000000000000000000000000000000000000000000000000082526004820152fd5b3360009081527f827ad982763bf2f282f43324cd3a5f6cdfdb70b1feb6870da9693db6590b7f6b60205260409020547fedcc084d3dcd65a1f7f23c65c46722faca6953d28e43150a467cf43e5c3092389060ff1615612c135750565b604490604051907fe2517d3f0000000000000000000000000000000000000000000000000000000082523360048301526024820152fd5b80600052600660205260406000203360005260205260ff6040600020541615612c135750565b90600091808352600660205273ffffffffffffffffffffffffffffffffffffffff6040842092169182845260205260ff60408420541615600014612d17578083526006602052604083208284526020526040832060017fffffffffffffffffffffffffffffffffffffffffffffffffffffffffffffff008254161790557f2f8788117e7eff1d82e926ec794901d17c78024a50270940304540a733656f0d339380a4600190565b505090565b90600091808352600660205273ffffffffffffffffffffffffffffffffffffffff6040842092169182845260205260ff604084205416600014612d1757808352600660205260408320828452602052604083207fffffffffffffffffffffffffffffffffffffffffffffffffffffffffffffff0081541690557ff6391f5c32d9c69d2a47ea670b442974b53935d1edc7fd64eb21e047a839171b339380a4600190565b813b612dcc575b50505050565b73ffffffffffffffffffffffffffffffffffffffff949192939480931693604051937f150b7a02000000000000000000000000000000000000000000000000000000009283865233600487015216602485015260448401526080606484015282612e3c60209660848301906124f7565b039285816000958187895af1849181612f30575b50612ec8575050503d600014612ec0573d612e6a816127d1565b90612e78604051928361265f565b81528091843d92013e5b80519283612ebb57602483604051907f64a0ae920000000000000000000000000000000000000000000000000000000082526004820152fd5b019050fd5b506060612e82565b9092507fffffffff000000000000000000000000000000000000000000000000000000009194501603612eff575038808080612dc6565b602490604051907f64a0ae920000000000000000000000000000000000000000000000000000000082526004820152fd5b9091508681813d8311612f85575b612f48818361265f565b81010312612f8157517fffffffff0000000000000000000000000000000000000000000000000000000081168103612f81579038612e50565b8480fd5b503d612f3e56fea26469706673582212201eab2939ba7fd31473eb32c4befc5491d046d84a5f41dcd2648bbed5e2c1a54664736f6c63430008180033","linkReferences":{}},"methodIdentifiers":{"DEFAULT_ADMIN_ROLE()":"a217fddf","REGISTRAR_ROLE()":"f68e9553","allocateWaterRight(uint256,uint256,string,uint256,bool)":"ac0eac2e","approve(address,uint256)":"095ea7b3","balanceOf(address)":"70a08231","getApproved(uint256)":"081812fc","getMineralRight(uint256)":"94360047","getResourceRight(uint256)":"2059e830","getRoleAdmin(bytes32)":"248a9ca3","getWaterRight(uint256)":"5cd4d2ce","grantMineralRight(uint256,string[],uint256,bool)":"9cd913cb","grantRole(bytes32,address)":"2f2ff15d","hasRole(bytes32,address)":"91d14854","isApprovedForAll(address,address)":"e985e9c5","mineralRights(uint256)":"c4c6d426","name()":"06fdde03","ownerOf(uint256)":"6352211e","registerResourceRight(uint8,string,string,bytes32,bytes32,uint256,address)":"91a3c3e8","renounceRole(bytes32,address)":"36568abe","resourceRights(uint256)":"099483b2","revokeRole(bytes32,address)":"d547741f","safeTransferFrom(address,address,uint256)":"42842e0e","safeTransferFrom(address,address,uint256,bytes)":"b88d4fde","setApprovalForAll(address,bool)":"a22cb465","setEncumbrance(uint256,bool)":"a45b63a8","supportsInterface(bytes4)":"01ffc9a7","symbol()":"95d89b41","tokenURI(uint256)":"c87b56dd","transferFrom(address,address,uint256)":"23b872dd","waterRights(uint256)":"f9e97ea0"},"id":11}