{
  "_format": "hh-sol-artifact-1",
  "contractName": "AccessRegistryUpgradeable",
  "sourceName": "contracts/compliance/AccessRegistryUpgradeable.sol",
  "abi": [
    {
      "inputs": [],
      "name": "AccessControlBadConfirmation",
      "type": "error"
    },
    {
      "inputs": [
        {
          "internalType": "address",
          "name": "account",
          "type": "address"
        },
        {
          "internalType": "bytes32",
          "name": "neededRole",
          "type": "bytes32"
        }
      ],
      "name": "AccessControlUnauthorizedAccount",
      "type": "error"
    },
    {
      "inputs": [
        {
          "internalType": "address",
          "name": "target",
          "type": "address"
        }
      ],
      "name": "AddressEmptyCode",
      "type": "error"
    },
    {
      "inputs": [],
      "name": "ECDSAInvalidSignature",
      "type": "error"
    },
    {
      "inputs": [
        {
          "internalType": "uint256",
          "name": "length",
          "type": "uint256"
        }
      ],
      "name": "ECDSAInvalidSignatureLength",
      "type": "error"
    },
    {
      "inputs": [
        {
          "internalType": "bytes32",
          "name": "s",
          "type": "bytes32"
        }
      ],
      "name": "ECDSAInvalidSignatureS",
      "type": "error"
    },
    {
      "inputs": [
        {
          "internalType": "address",
          "name": "implementation",
          "type": "address"
        }
      ],
      "name": "ERC1967InvalidImplementation",
      "type": "error"
    },
    {
      "inputs": [],
      "name": "ERC1967NonPayable",
      "type": "error"
    },
    {
      "inputs": [],
      "name": "Expired",
      "type": "error"
    },
    {
      "inputs": [],
      "name": "FailedCall",
      "type": "error"
    },
    {
      "inputs": [],
      "name": "InvalidInitialization",
      "type": "error"
    },
    {
      "inputs": [],
      "name": "InvalidParam",
      "type": "error"
    },
    {
      "inputs": [],
      "name": "JurisdictionBlocked",
      "type": "error"
    },
    {
      "inputs": [],
      "name": "NotInitializing",
      "type": "error"
    },
    {
      "inputs": [],
      "name": "Paused",
      "type": "error"
    },
    {
      "inputs": [],
      "name": "Replay",
      "type": "error"
    },
    {
      "inputs": [],
      "name": "Sanctioned",
      "type": "error"
    },
    {
      "inputs": [],
      "name": "Signature",
      "type": "error"
    },
    {
      "inputs": [],
      "name": "UUPSUnauthorizedCallContext",
      "type": "error"
    },
    {
      "inputs": [
        {
          "internalType": "bytes32",
          "name": "slot",
          "type": "bytes32"
        }
      ],
      "name": "UUPSUnsupportedProxiableUUID",
      "type": "error"
    },
    {
      "anonymous": false,
      "inputs": [],
      "name": "EIP712DomainChanged",
      "type": "event"
    },
    {
      "anonymous": false,
      "inputs": [
        {
          "indexed": false,
          "internalType": "uint64",
          "name": "version",
          "type": "uint64"
        }
      ],
      "name": "Initialized",
      "type": "event"
    },
    {
      "anonymous": false,
      "inputs": [
        {
          "indexed": false,
          "internalType": "uint16",
          "name": "iso",
          "type": "uint16"
        },
        {
          "indexed": false,
          "internalType": "bool",
          "name": "blocked",
          "type": "bool"
        }
      ],
      "name": "JurisdictionBlocked",
      "type": "event"
    },
    {
      "anonymous": false,
      "inputs": [
        {
          "indexed": false,
          "internalType": "bool",
          "name": "p",
          "type": "bool"
        }
      ],
      "name": "Paused",
      "type": "event"
    },
    {
      "anonymous": false,
      "inputs": [
        {
          "indexed": true,
          "internalType": "bytes32",
          "name": "role",
          "type": "bytes32"
        },
        {
          "indexed": true,
          "internalType": "bytes32",
          "name": "previousAdminRole",
          "type": "bytes32"
        },
        {
          "indexed": true,
          "internalType": "bytes32",
          "name": "newAdminRole",
          "type": "bytes32"
        }
      ],
      "name": "RoleAdminChanged",
      "type": "event"
    },
    {
      "anonymous": false,
      "inputs": [
        {
          "indexed": true,
          "internalType": "bytes32",
          "name": "role",
          "type": "bytes32"
        },
        {
          "indexed": true,
          "internalType": "address",
          "name": "account",
          "type": "address"
        },
        {
          "indexed": true,
          "internalType": "address",
          "name": "sender",
          "type": "address"
        }
      ],
      "name": "RoleGranted",
      "type": "event"
    },
    {
      "anonymous": false,
      "inputs": [
        {
          "indexed": true,
          "internalType": "bytes32",
          "name": "role",
          "type": "bytes32"
        },
        {
          "indexed": true,
          "internalType": "address",
          "name": "account",
          "type": "address"
        },
        {
          "indexed": true,
          "internalType": "address",
          "name": "sender",
          "type": "address"
        }
      ],
      "name": "RoleRevoked",
      "type": "event"
    },
    {
      "anonymous": false,
      "inputs": [
        {
          "indexed": true,
          "internalType": "address",
          "name": "subject",
          "type": "address"
        }
      ],
      "name": "StatusRevoked",
      "type": "event"
    },
    {
      "anonymous": false,
      "inputs": [
        {
          "indexed": true,
          "internalType": "address",
          "name": "subject",
          "type": "address"
        },
        {
          "components": [
            {
              "internalType": "bool",
              "name": "kyc",
              "type": "bool"
            },
            {
              "internalType": "bool",
              "name": "kyb",
              "type": "bool"
            },
            {
              "internalType": "bool",
              "name": "accredited",
              "type": "bool"
            },
            {
              "internalType": "bool",
              "name": "pep",
              "type": "bool"
            },
            {
              "internalType": "bool",
              "name": "sanctioned",
              "type": "bool"
            },
            {
              "internalType": "uint8",
              "name": "riskTier",
              "type": "uint8"
            },
            {
              "internalType": "uint16",
              "name": "countryISO",
              "type": "uint16"
            },
            {
              "internalType": "uint64",
              "name": "expiresAt",
              "type": "uint64"
            },
            {
              "internalType": "bytes32",
              "name": "metadataCid",
              "type": "bytes32"
            }
          ],
          "indexed": false,
          "internalType": "struct AccessRegistryUpgradeable.Status",
          "name": "s",
          "type": "tuple"
        }
      ],
      "name": "StatusSet",
      "type": "event"
    },
    {
      "anonymous": false,
      "inputs": [
        {
          "indexed": true,
          "internalType": "address",
          "name": "implementation",
          "type": "address"
        }
      ],
      "name": "Upgraded",
      "type": "event"
    },
    {
      "inputs": [],
      "name": "DEFAULT_ADMIN_ROLE",
      "outputs": [
        {
          "internalType": "bytes32",
          "name": "",
          "type": "bytes32"
        }
      ],
      "stateMutability": "view",
      "type": "function"
    },
    {
      "inputs": [],
      "name": "DOMAIN_SEPARATOR",
      "outputs": [
        {
          "internalType": "bytes32",
          "name": "",
          "type": "bytes32"
        }
      ],
      "stateMutability": "view",
      "type": "function"
    },
    {
      "inputs": [],
      "name": "UPGRADE_INTERFACE_VERSION",
      "outputs": [
        {
          "internalType": "string",
          "name": "",
          "type": "string"
        }
      ],
      "stateMutability": "view",
      "type": "function"
    },
    {
      "inputs": [
        {
          "components": [
            {
              "internalType": "address",
              "name": "subject",
              "type": "address"
            },
            {
              "components": [
                {
                  "internalType": "bool",
                  "name": "kyc",
                  "type": "bool"
                },
                {
                  "internalType": "bool",
                  "name": "kyb",
                  "type": "bool"
                },
                {
                  "internalType": "bool",
                  "name": "accredited",
                  "type": "bool"
                },
                {
                  "internalType": "bool",
                  "name": "pep",
                  "type": "bool"
                },
                {
                  "internalType": "bool",
                  "name": "sanctioned",
                  "type": "bool"
                },
                {
                  "internalType": "uint8",
                  "name": "riskTier",
                  "type": "uint8"
                },
                {
                  "internalType": "uint16",
                  "name": "countryISO",
                  "type": "uint16"
                },
                {
                  "internalType": "uint64",
                  "name": "expiresAt",
                  "type": "uint64"
                },
                {
                  "internalType": "bytes32",
                  "name": "metadataCid",
                  "type": "bytes32"
                }
              ],
              "internalType": "struct AccessRegistryUpgradeable.Status",
              "name": "s",
              "type": "tuple"
            },
            {
              "internalType": "uint256",
              "name": "nonce",
              "type": "uint256"
            },
            {
              "internalType": "uint64",
              "name": "issuedAt",
              "type": "uint64"
            },
            {
              "internalType": "uint64",
              "name": "expiresAt",
              "type": "uint64"
            }
          ],
          "internalType": "struct AccessRegistryUpgradeable.StatusAttestation",
          "name": "a",
          "type": "tuple"
        },
        {
          "internalType": "bytes",
          "name": "sig",
          "type": "bytes"
        }
      ],
      "name": "attestBySig",
      "outputs": [],
      "stateMutability": "nonpayable",
      "type": "function"
    },
    {
      "inputs": [
        {
          "internalType": "address",
          "name": "subject",
          "type": "address"
        },
        {
          "internalType": "enum AccessRegistryUpgradeable.Gate",
          "name": "gate",
          "type": "uint8"
        }
      ],
      "name": "check",
      "outputs": [
        {
          "internalType": "bool",
          "name": "",
          "type": "bool"
        }
      ],
      "stateMutability": "view",
      "type": "function"
    },
    {
      "inputs": [],
      "name": "eip712Domain",
      "outputs": [
        {
          "internalType": "bytes1",
          "name": "fields",
          "type": "bytes1"
        },
        {
          "internalType": "string",
          "name": "name",
          "type": "string"
        },
        {
          "internalType": "string",
          "name": "version",
          "type": "string"
        },
        {
          "internalType": "uint256",
          "name": "chainId",
          "type": "uint256"
        },
        {
          "internalType": "address",
          "name": "verifyingContract",
          "type": "address"
        },
        {
          "internalType": "bytes32",
          "name": "salt",
          "type": "bytes32"
        },
        {
          "internalType": "uint256[]",
          "name": "extensions",
          "type": "uint256[]"
        }
      ],
      "stateMutability": "view",
      "type": "function"
    },
    {
      "inputs": [
        {
          "internalType": "bytes32",
          "name": "role",
          "type": "bytes32"
        }
      ],
      "name": "getRoleAdmin",
      "outputs": [
        {
          "internalType": "bytes32",
          "name": "",
          "type": "bytes32"
        }
      ],
      "stateMutability": "view",
      "type": "function"
    },
    {
      "inputs": [
        {
          "internalType": "bytes32",
          "name": "role",
          "type": "bytes32"
        },
        {
          "internalType": "address",
          "name": "account",
          "type": "address"
        }
      ],
      "name": "grantRole",
      "outputs": [],
      "stateMutability": "nonpayable",
      "type": "function"
    },
    {
      "inputs": [
        {
          "internalType": "bytes32",
          "name": "role",
          "type": "bytes32"
        },
        {
          "internalType": "address",
          "name": "account",
          "type": "address"
        }
      ],
      "name": "hasRole",
      "outputs": [
        {
          "internalType": "bool",
          "name": "",
          "type": "bool"
        }
      ],
      "stateMutability": "view",
      "type": "function"
    },
    {
      "inputs": [
        {
          "internalType": "address",
          "name": "admin",
          "type": "address"
        },
        {
          "internalType": "address",
          "name": "governor",
          "type": "address"
        },
        {
          "internalType": "string",
          "name": "name_",
          "type": "string"
        }
      ],
      "name": "initialize",
      "outputs": [],
      "stateMutability": "nonpayable",
      "type": "function"
    },
    {
      "inputs": [
        {
          "internalType": "uint16",
          "name": "",
          "type": "uint16"
        }
      ],
      "name": "isoBlocked",
      "outputs": [
        {
          "internalType": "bool",
          "name": "",
          "type": "bool"
        }
      ],
      "stateMutability": "view",
      "type": "function"
    },
    {
      "inputs": [
        {
          "internalType": "address",
          "name": "",
          "type": "address"
        }
      ],
      "name": "nonces",
      "outputs": [
        {
          "internalType": "uint256",
          "name": "",
          "type": "uint256"
        }
      ],
      "stateMutability": "view",
      "type": "function"
    },
    {
      "inputs": [],
      "name": "paused",
      "outputs": [
        {
          "internalType": "bool",
          "name": "",
          "type": "bool"
        }
      ],
      "stateMutability": "view",
      "type": "function"
    },
    {
      "inputs": [],
      "name": "proxiableUUID",
      "outputs": [
        {
          "internalType": "bytes32",
          "name": "",
          "type": "bytes32"
        }
      ],
      "stateMutability": "view",
      "type": "function"
    },
    {
      "inputs": [
        {
          "internalType": "bytes32",
          "name": "role",
          "type": "bytes32"
        },
        {
          "internalType": "address",
          "name": "callerConfirmation",
          "type": "address"
        }
      ],
      "name": "renounceRole",
      "outputs": [],
      "stateMutability": "nonpayable",
      "type": "function"
    },
    {
      "inputs": [
        {
          "internalType": "address",
          "name": "subject",
          "type": "address"
        }
      ],
      "name": "revoke",
      "outputs": [],
      "stateMutability": "nonpayable",
      "type": "function"
    },
    {
      "inputs": [
        {
          "internalType": "bytes32",
          "name": "role",
          "type": "bytes32"
        },
        {
          "internalType": "address",
          "name": "account",
          "type": "address"
        }
      ],
      "name": "revokeRole",
      "outputs": [],
      "stateMutability": "nonpayable",
      "type": "function"
    },
    {
      "inputs": [
        {
          "internalType": "uint16",
          "name": "iso",
          "type": "uint16"
        },
        {
          "internalType": "bool",
          "name": "blocked",
          "type": "bool"
        }
      ],
      "name": "setJurisdictionBlocked",
      "outputs": [],
      "stateMutability": "nonpayable",
      "type": "function"
    },
    {
      "inputs": [
        {
          "internalType": "bool",
          "name": "p",
          "type": "bool"
        }
      ],
      "name": "setPaused",
      "outputs": [],
      "stateMutability": "nonpayable",
      "type": "function"
    },
    {
      "inputs": [
        {
          "internalType": "address",
          "name": "subject",
          "type": "address"
        },
        {
          "components": [
            {
              "internalType": "bool",
              "name": "kyc",
              "type": "bool"
            },
            {
              "internalType": "bool",
              "name": "kyb",
              "type": "bool"
            },
            {
              "internalType": "bool",
              "name": "accredited",
              "type": "bool"
            },
            {
              "internalType": "bool",
              "name": "pep",
              "type": "bool"
            },
            {
              "internalType": "bool",
              "name": "sanctioned",
              "type": "bool"
            },
            {
              "internalType": "uint8",
              "name": "riskTier",
              "type": "uint8"
            },
            {
              "internalType": "uint16",
              "name": "countryISO",
              "type": "uint16"
            },
            {
              "internalType": "uint64",
              "name": "expiresAt",
              "type": "uint64"
            },
            {
              "internalType": "bytes32",
              "name": "metadataCid",
              "type": "bytes32"
            }
          ],
          "internalType": "struct AccessRegistryUpgradeable.Status",
          "name": "s",
          "type": "tuple"
        }
      ],
      "name": "setStatus",
      "outputs": [],
      "stateMutability": "nonpayable",
      "type": "function"
    },
    {
      "inputs": [
        {
          "internalType": "address",
          "name": "",
          "type": "address"
        }
      ],
      "name": "statusOf",
      "outputs": [
        {
          "internalType": "bool",
          "name": "kyc",
          "type": "bool"
        },
        {
          "internalType": "bool",
          "name": "kyb",
          "type": "bool"
        },
        {
          "internalType": "bool",
          "name": "accredited",
          "type": "bool"
        },
        {
          "internalType": "bool",
          "name": "pep",
          "type": "bool"
        },
        {
          "internalType": "bool",
          "name": "sanctioned",
          "type": "bool"
        },
        {
          "internalType": "uint8",
          "name": "riskTier",
          "type": "uint8"
        },
        {
          "internalType": "uint16",
          "name": "countryISO",
          "type": "uint16"
        },
        {
          "internalType": "uint64",
          "name": "expiresAt",
          "type": "uint64"
        },
        {
          "internalType": "bytes32",
          "name": "metadataCid",
          "type": "bytes32"
        }
      ],
      "stateMutability": "view",
      "type": "function"
    },
    {
      "inputs": [
        {
          "internalType": "bytes4",
          "name": "interfaceId",
          "type": "bytes4"
        }
      ],
      "name": "supportsInterface",
      "outputs": [
        {
          "internalType": "bool",
          "name": "",
          "type": "bool"
        }
      ],
      "stateMutability": "view",
      "type": "function"
    },
    {
      "inputs": [
        {
          "internalType": "address",
          "name": "newImplementation",
          "type": "address"
        },
        {
          "internalType": "bytes",
          "name": "data",
          "type": "bytes"
        }
      ],
      "name": "upgradeToAndCall",
      "outputs": [],
      "stateMutability": "payable",
      "type": "function"
    }
  ],
  "bytecode": "0x60a0806040523461002a573060805261255f90816100308239608051818181610cbd0152610d700152f35b600080fdfe608080604052600436101561001357600080fd5b60003560e01c90816301ffc9a7146116c35750806316c38b3c1461166157806319db130b146115de578063248a9ca3146115a25780632f2ff15d146115565780633644e5151461153357806336568abe146114ec5780634571e3a614610f5b5780634f1ef28614610d1f57806352d1902d14610ca25780635c975abb14610c7f57806361e728b114610c4357806374a8f10314610bdc5780637ecebe0014610ba257806384b0196e14610a3d578063882740dc14610a035780638ba98384146108b257806391d148541461085757806397a5d5b5146107ab578063a217fddf1461078f578063ad3cb1cc14610745578063b9ad4e471461016f5763d547741f1461011c57600080fd5b3461016a57604036600319011261016a5761016860043561013b611736565b908060005260008051602061250a833981519152602052610163600160406000200154611bf1565b611f86565b005b600080fd5b3461016a5736600319016101c0811261016a576101a01361016a5767ffffffffffffffff6101a4351161016a573660236101a43501121561016a5767ffffffffffffffff6101a435600401351161016a573660246101a435600401356101a43501011161016a5760ff60035416610733576001600160a01b036101f0611b05565b16156107215767ffffffffffffffff610184351680610184350361016a57421161070f576001600160a01b03610224611b05565b16600052600160205260406000205461014435036106fd5760405160a0810181811067ffffffffffffffff8211176106e75760405261026161174c565b815261012036602319011261016a5760405161027c81611762565b610284611716565b8152604435801515810361016a576020820152606435801515810361016a57604082015260843515156084350361016a57608435606082015260a435801515810361016a57608082015260ff60c4351660c4350361016a5760c43560a082015261ffff60e4351660e4350361016a5760e43560c082015267ffffffffffffffff6101043516610104350361016a576101043560e08201526101243561010082015280602083015261014435604083015267ffffffffffffffff6101643516610164350361016a576101643560608301526101843560808301526001600160a01b03825116918151151591602081015115159060408101511515606082015115156080830151151560ff60a0850151169161ffff60c0860151169361010067ffffffffffffffff60e08801511696015196604051997f02b1c622de69beabc08c511e4c6022dbe6e7ebd9eb0e0a175fa9219e6b9f527860208c015260408b015260608a0152608089015260a088015260c087015260e0860152610100850152610120840152610140908184015282528161016081011067ffffffffffffffff610160840111176106e75761016082016040528151602083012090604081015167ffffffffffffffff60808160608501511693015116926101808501957f7999e60dbf8d4872f03810a839d6c39722a4c45857755b18d13014646a05ffb487526101a08601526101c08501526101e084015261020083015261022082015260c06101608201526102408101906101608101821067ffffffffffffffff8311176106e7576105219261016060429261051894604052015190206104e26121ef565b906040519161190160f01b83526002830152602282015220610512366101a4356004013560246101a435016117d9565b906122a6565b909291926122e2565b6001600160a01b031660009081527fed82e8858f919528fd86c81da277f0812ef4876fae8bc5251645af9640d3f49f602052604090205460ff16156106d557600161014435018061014435116106bf576001600160a01b03610581611b05565b1660005260016020526040600020556001600160a01b036105a0611b05565b16600052600060205260406000206105cb6105b96119f6565b829060ff801983541691151516179055565b6105d3611a05565b1515815462ff00006105e3611a14565b151560101b1663ff0000006105f6611a23565b151560181b169064ff0000000061060b611a32565b151560201b169261ff006fffffffffffffffff000000000000000061062e611a41565b60401b169560081b16906fffffffffffffffffffffffffffffff0019161717171765ff000000000060c43560281b161767ffff00000000000060e43560301b16171781556001610124359101556001600160a01b0361068b611b05565b167fe730079b62595e25c463c2f4f0f76487c4c4fa13bba0bdf76edb3c6a8a0c0ffd604051806106ba81611a59565b0390a2005b634e487b7160e01b600052601160045260246000fd5b60405163f942385760e01b8152600490fd5b634e487b7160e01b600052604160045260246000fd5b604051632d69e00160e21b8152600490fd5b604051630407b05b60e31b8152600490fd5b604051633494a40d60e21b8152600490fd5b6040516313d0ff5960e31b8152600490fd5b3461016a57600036600319011261016a5761078b6040516107658161177f565b60058152640352e302e360dc1b6020820152604051918291602083526020830190611810565b0390f35b3461016a57600036600319011261016a57602060405160008152f35b3461016a57602036600319011261016a576001600160a01b036107cc61174c565b1660005260006020526101206040600020805467ffffffffffffffff600160ff930154916040519380821615158552808260081c1615156020860152808260101c1615156040860152808260181c1615156060860152808260201c16151560808601528160281c1660a085015261ffff8160301c1660c085015260401c1660e0830152610100820152f35b3461016a57604036600319011261016a57610870611736565b60043560005260008051602061250a8339815191526020526001600160a01b0360406000209116600052602052602060ff604060002054166040519015158152f35b3461016a5761014036600319011261016a576108cc61174c565b61012036602319011261016a576001600160a01b03906108ea611b95565b16801561072157806000526000602052604060002061090a6105b96119f6565b610912611a05565b1515815462ff0000610922611a14565b151560101b1663ff000000610935611a23565b151560181b169164ff0000000061094a611a32565b151560201b169060c4359160ff8316830361016a5760e4359461ffff8616860361016a5767ffff0000000000009465ff00000000009361ff006fffffffffffffffff000000000000000061099c611a41565b60401b169960081b16906fffffffffffffffffffffffffffffff001916171717179160281b16179160301b16171781556001610124359101557fe730079b62595e25c463c2f4f0f76487c4c4fa13bba0bdf76edb3c6a8a0c0ffd604051806106ba81611a59565b3461016a57602036600319011261016a5761ffff610a1f611725565b166000526002602052602060ff604060002054166040519015158152f35b3461016a57600036600319011261016a577fa16a46d94261c7517cc8ff89f61c0ce93598e3c849801011dee649a6a557d100541580610b79575b15610b3457610a84612044565b610a8c61212e565b60405160208082019282841067ffffffffffffffff8511176106e757916020610ae78594610ad9979660405260008452604051978897600f60f81b895260e0858a015260e0890190611810565b908782036040890152611810565b91466060870152306080870152600060a087015285830360c0870152519182815201929160005b828110610b1d57505050500390f35b835185528695509381019392810192600101610b0e565b60405162461bcd60e51b815260206004820152601560248201527f4549503731323a20556e696e697469616c697a656400000000000000000000006044820152606490fd5b507fa16a46d94261c7517cc8ff89f61c0ce93598e3c849801011dee649a6a557d1015415610a77565b3461016a57602036600319011261016a576001600160a01b03610bc361174c565b1660005260016020526020604060002054604051908152f35b3461016a57602036600319011261016a576001600160a01b03610bfd61174c565b610c05611b95565b16806000526000602052600060016040822082815501557f4e90f8d197a20eff02e5ce335729ae378c06743d07dbe0f596b454e2a1670709600080a2005b3461016a57604036600319011261016a57610c5c61174c565b60243590600582101561016a57602091610c7591611850565b6040519015158152f35b3461016a57600036600319011261016a57602060ff600354166040519015158152f35b3461016a57600036600319011261016a576001600160a01b037f0000000000000000000000000000000000000000000000000000000000000000163003610d0d5760206040517f360894a13ba1a3210667c828492db98dca3e2076cc3735a920a3ca505d382bbc8152f35b60405163703e46dd60e11b8152600490fd5b604036600319011261016a57610d3361174c565b60243567ffffffffffffffff811161016a573660238201121561016a57610d649036906024816004013591016117d9565b906001600160a01b03807f000000000000000000000000000000000000000000000000000000000000000016803014908115610f2d575b50610d0d57610da8611b1b565b6040516352d1902d60e01b8152908216916020918281600481875afa60009181610efe575b50610deb57604051634c9c8ce360e01b815260048101859052602490fd5b9284937f360894a13ba1a3210667c828492db98dca3e2076cc3735a920a3ca505d382bbc90818103610ee65750823b15610ecd57805473ffffffffffffffffffffffffffffffffffffffff191682179055604051907fbc7cd75a20ee27fd9adebab32041f755214dbc6bffa90cc0225b39da2e5c2d3b600080a2835115610eb35750600080848461016896519101845af4903d15610eaa573d610e8d816117bd565b90610e9b604051928361179b565b8152600081943d92013e6124a6565b606092506124a6565b9250505034610ebe57005b63b398979f60e01b8152600490fd5b604051634c9c8ce360e01b815260048101839052602490fd5b60249060405190632a87526960e21b82526004820152fd5b9091508381813d8311610f26575b610f16818361179b565b8101031261016a57519086610dcd565b503d610f0c565b9050817f360894a13ba1a3210667c828492db98dca3e2076cc3735a920a3ca505d382bbc5416141584610d9b565b3461016a57606036600319011261016a57610f7461174c565b610f7c611736565b67ffffffffffffffff60443581811161016a573660238201121561016a57610fae9036906024816004013591016117d9565b917ff0c57e16840df040f15088dc2f81fe391c3923bec73e23a9662efc9c229c6a009283549260ff8460401c161593818116968715806114e5575b600180991490816114db575b1590816114d2575b506114c05767ffffffffffffffff1982168817875561103291866114a1575b50611025612265565b61102d612265565b611c24565b50604051916110408361177f565b868352603160f81b6020840152611055612265565b61105d612265565b80518281116106e757807fa16a46d94261c7517cc8ff89f61c0ce93598e3c849801011dee649a6a557d10292611093845461200a565b601f8111611430575b50602090601f83116001146113b0576000926113a5575b5050600019600383901b1c191690881b1790555b81519081116106e7577fa16a46d94261c7517cc8ff89f61c0ce93598e3c849801011dee649a6a557d103916110fc835461200a565b601f811161133e575b50602090601f83116001146112b85761125e94939291600091836112ad575b5050600019600383901b1c191690871b1790555b60007fa16a46d94261c7517cc8ff89f61c0ce93598e3c849801011dee649a6a557d1005560007fa16a46d94261c7517cc8ff89f61c0ce93598e3c849801011dee649a6a557d101557f97667070c54ef182b0f5858b034beac1b6f3089aa2d3188bb1e8929f4fa9b9298060005260008051602061250a83398151915260205285604060002001908154917f7935bd0ae54bc31f548c14dba4d37c5c64b3f8ca900cb468fb8abd54d5894f5592838092557fbd79b86ffe0ab8e8776151514217cd7cacd52c909f66475c3af44e129f0b00ff9283600080a47fe2f4eaae4a9751e85a3e4a7b9587827a877f29914755229b07a7b2da98285f708060005287604060002001918383549355600080a461124e81611cc4565b5061125881611d86565b50611e42565b5060ff196003541660035561126f57005b805468ff0000000000000000191690556040519081527fc7f505b2f371ae2175ee4913f4499e1f2633a7b5936321eed1cdaeb6115181d290602090a1005b015190508880611124565b9392918791601f19821690846000527f5f9ce34815f8e11431c7bb75a8e6886a91478f7ffc1dbb0a98dc240fddd76b759160005b8181106113265750968361125e981061130d575b505050811b019055611138565b015160001960f88460031b161c19169055888080611300565b8289015184558b9590930192602092830192016112ec565b836000527f5f9ce34815f8e11431c7bb75a8e6886a91478f7ffc1dbb0a98dc240fddd76b75601f840160051c8101916020851061139b575b601f0160051c019088905b82811061138f575050611105565b60008155018890611381565b9091508190611376565b0151905089806110b3565b908a9350601f19831691856000527f42ad5d3e1f2e6e70edcf6d991b8a3023d3fca8047a131592f9edb9fd9b89d57d9260005b818110611418575084116113ff575b505050811b0190556110c7565b015160001960f88460031b161c191690558980806113f2565b8284015185558d9690940193602093840193016113e3565b909150836000527f42ad5d3e1f2e6e70edcf6d991b8a3023d3fca8047a131592f9edb9fd9b89d57d601f840160051c81019160208510611497575b84939291601f8d920160051c01915b82811061148857505061109c565b600081558594508c910161147a565b909150819061146b565b68ffffffffffffffffff1916680100000000000000011787558861101c565b60405163f92ee8a960e01b8152600490fd5b90501589610ffd565b303b159150610ff5565b5085610fe9565b3461016a57604036600319011261016a57611505611736565b336001600160a01b038216036115215761016890600435611f86565b60405163334bd91960e11b8152600490fd5b3461016a57600036600319011261016a57602061154e6121ef565b604051908152f35b3461016a57604036600319011261016a57610168600435611575611736565b908060005260008051602061250a83398151915260205261159d600160406000200154611bf1565b611efe565b3461016a57602036600319011261016a5760043560005260008051602061250a8339815191526020526020600160406000200154604051908152f35b3461016a57604036600319011261016a577fcbc432d9838cab3aa35a07c421dd770473090efd47c5cdc885fdca21b2bed382604061161a611725565b61ffff611625611716565b9161162e611b95565b169081600052600260205261165281846000209060ff801983541691151516179055565b825191825215156020820152a1005b3461016a57602036600319011261016a5760043580151580910361016a5760207f0e2fb031ee032dc02d8011dc50b816eb450cf856abd8261680dac74f72165bd2916116ab611b1b565b60ff196003541660ff821617600355604051908152a1005b3461016a57602036600319011261016a576004359063ffffffff60e01b821680920361016a57602091637965db0b60e01b8114908115611705575b5015158152f35b6301ffc9a760e01b149050836116fe565b60243590811515820361016a57565b6004359061ffff8216820361016a57565b602435906001600160a01b038216820361016a57565b600435906001600160a01b038216820361016a57565b610120810190811067ffffffffffffffff8211176106e757604052565b6040810190811067ffffffffffffffff8211176106e757604052565b90601f8019910116810190811067ffffffffffffffff8211176106e757604052565b67ffffffffffffffff81116106e757601f01601f191660200190565b9291926117e5826117bd565b916117f3604051938461179b565b82948184528183011161016a578281602093846000960137010152565b919082519283825260005b84811061183c575050826000602080949584010152601f8019910116010190565b60208183018101518483018201520161181b565b906001600160a01b03600092168252816020526040908183209082519161187683611762565b805460ff90818116151585526020850195828260081c161515875260e081870192848160101c1615158452848160181c1615156060890152848160201c1615158060808a015260a0890196868360281c16885261ffff91600160c08c0192848660301c1684528c67ffffffffffffffff9788910196891c16865201546101008c01526119e55751168a52600260205284838b2054166119d457511642116119c4575060058410156119b05783156119a45760018414611997576002841461198357506003831461196457505060041461194e57505090565b51158015925061195c575090565b905051151590565b939250935050511515918261197857505090565b600592505116111590565b95505050509050511515908161195c575090565b5050505091505051151590565b50505050505050600190565b634e487b7160e01b87526021600452602487fd5b51630407b05b60e31b8152600490fd5b8251633c03149960e11b8152600490fd5b84516320cf996960e11b8152600490fd5b602435801515810361016a5790565b604435801515810361016a5790565b606435801515810361016a5790565b608435801515810361016a5790565b60a435801515810361016a5790565b6101043567ffffffffffffffff8116810361016a5790565b9061012082019160243580151580910361016a57815260443580151580910361016a57602082015260643580151580910361016a57604082015260843580151580910361016a57606082015260a43580151580910361016a57608082015260c43560ff811680910361016a5760a082015260e43561ffff811680910361016a5760c08201526101043567ffffffffffffffff811680910361016a5760e082015261010061012435910152565b6004356001600160a01b038116810361016a5790565b3360009081527f75e09417c5070057df3eafe5054d52fa0b2a87d64a235e197963b615aedee80360205260409020547f7935bd0ae54bc31f548c14dba4d37c5c64b3f8ca900cb468fb8abd54d5894f559060ff1615611b775750565b6044906040519063e2517d3f60e01b82523360048301526024820152fd5b3360009081527f448256db8f8fb95ee3eaaf89c1051414494e85cebb6057fcf996cc3d0ccfb45660205260409020547f97667070c54ef182b0f5858b034beac1b6f3089aa2d3188bb1e8929f4fa9b9299060ff1615611b775750565b8060005260008051602061250a83398151915260205260406000203360005260205260ff6040600020541615611b775750565b6001600160a01b031660008181527fb7db2dd08fcb62d0c9e08c51941cae53c267786a0b75803fb7960902fc8ef97d602052604081205490919060008051602061250a8339815191529060ff16611cbf578280526020526040822081835260205260408220600160ff1982541617905533917f2f8788117e7eff1d82e926ec794901d17c78024a50270940304540a733656f0d8180a4600190565b505090565b6001600160a01b031660008181527f75e09417c5070057df3eafe5054d52fa0b2a87d64a235e197963b615aedee80360205260408120549091907f7935bd0ae54bc31f548c14dba4d37c5c64b3f8ca900cb468fb8abd54d5894f559060008051602061250a8339815191529060ff16611d80578184526020526040832082845260205260408320600160ff198254161790557f2f8788117e7eff1d82e926ec794901d17c78024a50270940304540a733656f0d339380a4600190565b50505090565b6001600160a01b031660008181527f448256db8f8fb95ee3eaaf89c1051414494e85cebb6057fcf996cc3d0ccfb45660205260408120549091907f97667070c54ef182b0f5858b034beac1b6f3089aa2d3188bb1e8929f4fa9b9299060008051602061250a8339815191529060ff16611d80578184526020526040832082845260205260408320600160ff198254161790557f2f8788117e7eff1d82e926ec794901d17c78024a50270940304540a733656f0d339380a4600190565b6001600160a01b031660008181527fed82e8858f919528fd86c81da277f0812ef4876fae8bc5251645af9640d3f49f60205260408120549091907fe2f4eaae4a9751e85a3e4a7b9587827a877f29914755229b07a7b2da98285f709060008051602061250a8339815191529060ff16611d80578184526020526040832082845260205260408320600160ff198254161790557f2f8788117e7eff1d82e926ec794901d17c78024a50270940304540a733656f0d339380a4600190565b9060009180835260008051602061250a833981519152806020526001600160a01b036040852093169283855260205260ff60408520541615600014611d80578184526020526040832082845260205260408320600160ff198254161790557f2f8788117e7eff1d82e926ec794901d17c78024a50270940304540a733656f0d339380a4600190565b9060009180835260008051602061250a833981519152806020526001600160a01b036040852093169283855260205260ff604085205416600014611d8057818452602052604083208284526020526040832060ff1981541690557ff6391f5c32d9c69d2a47ea670b442974b53935d1edc7fd64eb21e047a839171b339380a4600190565b90600182811c9216801561203a575b602083101461202457565b634e487b7160e01b600052602260045260246000fd5b91607f1691612019565b604051906000827fa16a46d94261c7517cc8ff89f61c0ce93598e3c849801011dee649a6a557d102918254926120798461200a565b8084529360209160019182811690811561210857506001146120a7575b5050506120a59250038361179b565b565b60009081527f42ad5d3e1f2e6e70edcf6d991b8a3023d3fca8047a131592f9edb9fd9b89d57d9590935091905b8284106120f057506120a5945050508101602001388080612096565b855488850183015294850194879450928101926120d4565b92505050602092506120a594915060ff191682840152151560051b820101388080612096565b604051906000827fa16a46d94261c7517cc8ff89f61c0ce93598e3c849801011dee649a6a557d103918254926121638461200a565b80845293602091600191828116908115612108575060011461218e575050506120a59250038361179b565b60009081527f5f9ce34815f8e11431c7bb75a8e6886a91478f7ffc1dbb0a98dc240fddd76b759590935091905b8284106121d757506120a5945050508101602001388080612096565b855488850183015294850194879450928101926121bb565b6121f7612367565b6121ff6123d1565b6040519060208201927f8b73c3c69bb8fe3d512ecc4cf759cc79239f7b179b0ffacaa9a75d522b39400f8452604083015260608201524660808201523060a082015260a0815260c0810181811067ffffffffffffffff8211176106e75760405251902090565b60ff7ff0c57e16840df040f15088dc2f81fe391c3923bec73e23a9662efc9c229c6a005460401c161561229457565b604051631afcd79f60e31b8152600490fd5b81519190604183036122d7576122d092506020820151906060604084015193015160001a90612416565b9192909190565b505060009160029190565b600481101561235157806122f4575050565b6001810361230e5760405163f645eedf60e01b8152600490fd5b6002810361232f5760405163fce698f760e01b815260048101839052602490fd5b6003146123395750565b602490604051906335e2f38360e21b82526004820152fd5b634e487b7160e01b600052602160045260246000fd5b61236f612044565b805190811561237f576020012090565b50507fa16a46d94261c7517cc8ff89f61c0ce93598e3c849801011dee649a6a557d1005480156123ac5790565b507fc5d2460186f7233c927e7db2dcc703c0e500b653ca82273b7bfad8045d85a47090565b6123d961212e565b80519081156123e9576020012090565b50507fa16a46d94261c7517cc8ff89f61c0ce93598e3c849801011dee649a6a557d1015480156123ac5790565b91907f7fffffffffffffffffffffffffffffff5d576e7357a4501ddfe92f46681b20a0841161249a57926020929160ff608095604051948552168484015260408301526060820152600092839182805260015afa1561248e5780516001600160a01b0381161561248557918190565b50809160019190565b604051903d90823e3d90fd5b50505060009160039190565b906124cd57508051156124bb57602081519101fd5b60405163d6bda27560e01b8152600490fd5b81511580612500575b6124de575090565b604051639996b31560e01b81526001600160a01b039091166004820152602490fd5b50803b156124d656fe02dd7bc7dec4dceedda775e58dd541e08a116c6c53815c0bd028192f7b626800a2646970667358221220f788485502bef5021fc7ed8c4fdf603a8b73c9e725c8c90abd7e9a6088f0f63f64736f6c63430008180033",
  "linkReferences": {},
  "deployedLinkReferences": {}
}