{"abi":[{"type":"constructor","inputs":[{"name":"_railRegistry","type":"address","internalType":"address"},{"name":"_stablecoinRegistry","type":"address","internalType":"address"},{"name":"_complianceRegistry","type":"address","internalType":"address"}],"stateMutability":"nonpayable"},{"type":"function","name":"besuBridgeRegistry","inputs":[],"outputs":[{"name":"","type":"address","internalType":"address"}],"stateMutability":"view"},{"type":"function","name":"complianceRegistry","inputs":[],"outputs":[{"name":"","type":"address","internalType":"contract ComplianceRegistryUpgradeable"}],"stateMutability":"view"},{"type":"function","name":"getAllRegistries","inputs":[],"outputs":[{"name":"rail","type":"address","internalType":"address"},{"name":"stablecoin","type":"address","internalType":"address"},{"name":"compliance","type":"address","internalType":"address"},{"name":"rwa","type":"address","internalType":"address"},{"name":"oracle","type":"address","internalType":"address"},{"name":"swift","type":"address","internalType":"address"},{"name":"besuBridge","type":"address","internalType":"address"}],"stateMutability":"view"},{"type":"function","name":"getRail","inputs":[{"name":"railKey","type":"bytes32","internalType":"bytes32"}],"outputs":[{"name":"","type":"address","internalType":"address"}],"stateMutability":"view"},{"type":"function","name":"getStablecoin","inputs":[{"name":"token","type":"address","internalType":"address"}],"outputs":[{"name":"","type":"tuple","internalType":"struct StablecoinRegistry.Meta","components":[{"name":"supported","type":"bool","internalType":"bool"},{"name":"reserveId","type":"bytes32","internalType":"bytes32"},{"name":"por","type":"address","internalType":"address"},{"name":"minReserveRatioBps","type":"uint16","internalType":"uint16"},{"name":"defaultRailKey","type":"bytes32","internalType":"bytes32"},{"name":"cctpRailKey","type":"bytes32","internalType":"bytes32"},{"name":"ccipRailKey","type":"bytes32","internalType":"bytes32"}]}],"stateMutability":"view"},{"type":"function","name":"getSystemInfo","inputs":[],"outputs":[{"name":"","type":"tuple","internalType":"struct MasterRegistry.SystemInfo","components":[{"name":"chainName","type":"string","internalType":"string"},{"name":"chainId","type":"uint256","internalType":"uint256"},{"name":"version","type":"string","internalType":"string"},{"name":"deployedAt","type":"uint256","internalType":"uint256"}]}],"stateMutability":"view"},{"type":"function","name":"isCompliant","inputs":[{"name":"account","type":"address","internalType":"address"}],"outputs":[{"name":"","type":"bool","internalType":"bool"}],"stateMutability":"view"},{"type":"function","name":"oracleRegistry","inputs":[],"outputs":[{"name":"","type":"address","internalType":"address"}],"stateMutability":"view"},{"type":"function","name":"owner","inputs":[],"outputs":[{"name":"","type":"address","internalType":"address"}],"stateMutability":"view"},{"type":"function","name":"railRegistry","inputs":[],"outputs":[{"name":"","type":"address","internalType":"contract RailRegistry"}],"stateMutability":"view"},{"type":"function","name":"renounceOwnership","inputs":[],"outputs":[],"stateMutability":"nonpayable"},{"type":"function","name":"rwaRegistry","inputs":[],"outputs":[{"name":"","type":"address","internalType":"address"}],"stateMutability":"view"},{"type":"function","name":"setBesuBridgeRegistry","inputs":[{"name":"registry","type":"address","internalType":"address"}],"outputs":[],"stateMutability":"nonpayable"},{"type":"function","name":"setOracleRegistry","inputs":[{"name":"registry","type":"address","internalType":"address"}],"outputs":[],"stateMutability":"nonpayable"},{"type":"function","name":"setRWARegistry","inputs":[{"name":"registry","type":"address","internalType":"address"}],"outputs":[],"stateMutability":"nonpayable"},{"type":"function","name":"setSWIFTRegistry","inputs":[{"name":"registry","type":"address","internalType":"address"}],"outputs":[],"stateMutability":"nonpayable"},{"type":"function","name":"stablecoinRegistry","inputs":[],"outputs":[{"name":"","type":"address","internalType":"contract StablecoinRegistry"}],"stateMutability":"view"},{"type":"function","name":"swiftRegistry","inputs":[],"outputs":[{"name":"","type":"address","internalType":"address"}],"stateMutability":"view"},{"type":"function","name":"systemInfo","inputs":[],"outputs":[{"name":"chainName","type":"string","internalType":"string"},{"name":"chainId","type":"uint256","internalType":"uint256"},{"name":"version","type":"string","internalType":"string"},{"name":"deployedAt","type":"uint256","internalType":"uint256"}],"stateMutability":"view"},{"type":"function","name":"transferOwnership","inputs":[{"name":"newOwner","type":"address","internalType":"address"}],"outputs":[],"stateMutability":"nonpayable"},{"type":"function","name":"updateSystemInfo","inputs":[{"name":"chainName","type":"string","internalType":"string"},{"name":"chainId","type":"uint256","internalType":"uint256"},{"name":"version","type":"string","internalType":"string"}],"outputs":[],"stateMutability":"nonpayable"},{"type":"event","name":"BesuBridgeRegistrySet","inputs":[{"name":"registry","type":"address","indexed":true,"internalType":"address"}],"anonymous":false},{"type":"event","name":"ComplianceRegistrySet","inputs":[{"name":"registry","type":"address","indexed":true,"internalType":"address"}],"anonymous":false},{"type":"event","name":"OracleRegistrySet","inputs":[{"name":"registry","type":"address","indexed":true,"internalType":"address"}],"anonymous":false},{"type":"event","name":"OwnershipTransferred","inputs":[{"name":"previousOwner","type":"address","indexed":true,"internalType":"address"},{"name":"newOwner","type":"address","indexed":true,"internalType":"address"}],"anonymous":false},{"type":"event","name":"RWARegistrySet","inputs":[{"name":"registry","type":"address","indexed":true,"internalType":"address"}],"anonymous":false},{"type":"event","name":"RailRegistrySet","inputs":[{"name":"registry","type":"address","indexed":true,"internalType":"address"}],"anonymous":false},{"type":"event","name":"SWIFTRegistrySet","inputs":[{"name":"registry","type":"address","indexed":true,"internalType":"address"}],"anonymous":false},{"type":"event","name":"StablecoinRegistrySet","inputs":[{"name":"registry","type":"address","indexed":true,"internalType":"address"}],"anonymous":false},{"type":"event","name":"SystemInfoUpdated","inputs":[{"name":"chainName","type":"string","indexed":false,"internalType":"string"},{"name":"chainId","type":"uint256","indexed":false,"internalType":"uint256"},{"name":"version","type":"string","indexed":false,"internalType":"string"}],"anonymous":false},{"type":"error","name":"OwnableInvalidOwner","inputs":[{"name":"owner","type":"address","internalType":"address"}]},{"type":"error","name":"OwnableUnauthorizedAccount","inputs":[{"name":"account","type":"address","internalType":"address"}]}],"bytecode":{"object":"0x608034620005e857601f62001b3f38819003918201601f19168301916001600160401b038311848410176200040657808492606094604052833981010312620005e8576200004d816200060d565b906200006a604062000062602084016200060d565b92016200060d565b3315620005cf57600080546001600160a01b03198082163390811784556040516001600160a01b03969492939092908716907f8be0079c531659141344cd1fd0a4f28419497f9722a3daafe3b4186f6b6457e09080a384861615620005985750838216156200055357838316156200050e57838516816001541617600155838216816002541617600255838316906003541617600355604051906080820182811060018060401b03821117620004065760405262000127620005ed565b600f81526e556e796b6f726e204c61796572203160881b60208201528252611e61602083015262000157620005ed565b60058152640312e302e360dc1b6020820152604083015242606083015281518051906001600160401b038211620004065760085490600182811c9216801562000503575b6020831014620003e55781601f849311620004a2575b50602090601f831160011462000428576000926200041c575b50508160011b916000199060031b1c1916176008555b6020820151600955604082015180519092906001600160401b0381116200040657600a5493600185811c95168015620003fb575b6020861014620003e55784601f88961162000386575b50602090601f8311600114620002f457606093929160009183620002e8575b50508160011b916000199060031b1c191617600a555b0151600b558160405195167f6bfbb729494f9c00b522b4d5c5bc106eb15fb007cb10e8ef882e0fd1224e938d600080a2167f0f68ba16059c80585a5c1bc7d7fec12e2baa5a984dc0a8b7ded990c4484f68cc600080a2167f3cba656a7f02cb03fde8d213d435245094d0d722d36c6a15b97508c1367b88a7600080a26114fc9081620006238239f35b01519050388062000249565b600a60009081527fc65a7bb8d6351c1cf70c95a316cc6a92839c986682d98bc35f958f4883f9d2a8929190601f198516905b8181106200036a575091600193918560609796941062000350575b505050811b01600a556200025f565b015160001960f88460031b161c1916905538808062000341565b8284015185558a98506001909401936020938401930162000326565b909192939450600a6000526020600020601f840160051c81019160208510620003da575b90601f899796959493920160051c01905b818110620003ca57506200022a565b60008155889650600101620003bb565b9091508190620003aa565b634e487b7160e01b600052602260045260246000fd5b94607f169462000214565b634e487b7160e01b600052604160045260246000fd5b015190503880620001ca565b6008600090815260008051602062001b1f8339815191529350601f198516905b8181106200048957509084600195949392106200046f575b505050811b01600855620001e0565b015160001960f88460031b161c1916905538808062000460565b9293602060018192878601518155019501930162000448565b600860005290915060008051602062001b1f833981519152601f840160051c810160208510620004fb575b90849392915b601f830160051c82018110620004eb575050620001b1565b60008155859450600101620004d3565b5080620004cd565b91607f16916200019b565b60405162461bcd60e51b815260206004820152601860248201527f4d523a20436f6d706c69616e63655265676973747279203000000000000000006044820152606490fd5b60405162461bcd60e51b815260206004820152601860248201527f4d523a20537461626c65636f696e5265676973747279203000000000000000006044820152606490fd5b62461bcd60e51b815260206004820152601260248201527104d523a205261696c526567697374727920360741b6044820152606490fd5b604051631e4fbdf760e01b815260006004820152602490fd5b600080fd5b60408051919082016001600160401b038111838210176200040657604052565b51906001600160a01b0382168203620005e85756fe60406080815260048036101561001457600080fd5b60009160e0908335821c9182630a0d91271461105b5782632a12408e14610fdd5782633de90fe814610f8a57826344bdf77514610eb55782634575624b14610cfb5782634bb93ab114610ca85782634cbc2e8c14610c555782635c85715c1461080b5782636cb69f4214610722578263712cc8a914610678578263715018a6146105dc5782638165354e146105325782638da5cb5b146104e15782639baa99b41461048e578263a0a3727d146103fa57508163a200e5d01461039c578163cac89c5c14610349578163e314add7146102f6578163f2fde38b1461020a578163fb85687a146101b7575063fef9b8e51461010c57600080fd5b346101b35760207ffffffffffffffffffffffffffffffffffffffffffffffffffffffffffffffffc3601126101b3573573ffffffffffffffffffffffffffffffffffffffff81168091036101b357610162611475565b807fffffffffffffffffffffffff000000000000000000000000000000000000000060065416176006557fd321806f0f908afe88a3c9005f4145f839d34c64ac8f5ad6a4a4507e92df8e428280a280f35b5080fd5b8390346101b357817ffffffffffffffffffffffffffffffffffffffffffffffffffffffffffffffffc3601126101b35760209073ffffffffffffffffffffffffffffffffffffffff600254169051908152f35b9050346102f25760207ffffffffffffffffffffffffffffffffffffffffffffffffffffffffffffffffc3601126102f25781359173ffffffffffffffffffffffffffffffffffffffff918284168094036102ee57610266611475565b83156102bf5750508254827fffffffffffffffffffffffff00000000000000000000000000000000000000008216178455167f8be0079c531659141344cd1fd0a4f28419497f9722a3daafe3b4186f6b6457e08380a380f35b908460249251917f1e4fbdf7000000000000000000000000000000000000000000000000000000008352820152fd5b8480fd5b8280fd5b8390346101b357817ffffffffffffffffffffffffffffffffffffffffffffffffffffffffffffffffc3601126101b35760209073ffffffffffffffffffffffffffffffffffffffff600754169051908152f35b8390346101b357817ffffffffffffffffffffffffffffffffffffffffffffffffffffffffffffffffc3601126101b35760209073ffffffffffffffffffffffffffffffffffffffff600354169051908152f35b919050346102f25760207ffffffffffffffffffffffffffffffffffffffffffffffffffffffffffffffffc3601126102f257359073ffffffffffffffffffffffffffffffffffffffff82168092036102f25760209250519015158152f35b9083853461048b57807ffffffffffffffffffffffffffffffffffffffffffffffffffffffffffffffffc36011261048b575073ffffffffffffffffffffffffffffffffffffffff806001541692816002541692828060035416915416908360055416928460065416946007541695815197885260208801528601526060850152608084015260a083015260c0820152f35b80fd5b8482346101b357817ffffffffffffffffffffffffffffffffffffffffffffffffffffffffffffffffc3601126101b35760209073ffffffffffffffffffffffffffffffffffffffff600154169051908152f35b8482346101b357817ffffffffffffffffffffffffffffffffffffffffffffffffffffffffffffffffc3601126101b35773ffffffffffffffffffffffffffffffffffffffff60209254169051908152f35b505050346101b35760207ffffffffffffffffffffffffffffffffffffffffffffffffffffffffffffffffc3601126101b3573573ffffffffffffffffffffffffffffffffffffffff81168091036101b35761058b611475565b807fffffffffffffffffffffffff000000000000000000000000000000000000000060055416176005557f82540ac6cd91a834e79e860e8cdd0293470f3b23ee2a567f78d27eeeec83d2368280a280f35b843461048b57807ffffffffffffffffffffffffffffffffffffffffffffffffffffffffffffffffc36011261048b57610613611475565b8073ffffffffffffffffffffffffffffffffffffffff81547fffffffffffffffffffffffff000000000000000000000000000000000000000081168355167f8be0079c531659141344cd1fd0a4f28419497f9722a3daafe3b4186f6b6457e08280a380f35b505050346101b35760207ffffffffffffffffffffffffffffffffffffffffffffffffffffffffffffffffc3601126101b35780359073ffffffffffffffffffffffffffffffffffffffff82168092036102f2576106d3611475565b817fffffffffffffffffffffffff00000000000000000000000000000000000000008254161790557f1bb09b3a5d5735c97379942222155130c33bd5d054e015f56636dc42067c89aa8280a280f35b8482346101b357817ffffffffffffffffffffffffffffffffffffffffffffffffffffffffffffffffc3601126101b3576107ca9160608251610763816111a3565b8181528260208201528184820152015280519061077f826111a3565b610787611200565b82526108006009546020840190815261079e6112e5565b838501908152600b549360608601948552805196879660208852516080602089015260a0880190611384565b925190860152517fffffffffffffffffffffffffffffffffffffffffffffffffffffffffffffffe0858303016060860152611384565b905160808301520390f35b508383346101b35760607ffffffffffffffffffffffffffffffffffffffffffffffffffffffffffffffffc3601126101b35767ffffffffffffffff8135818111610c515761085c90369084016113e2565b91909260243595604435838111610c4d5761087a90369084016113e2565b939092610885611475565b818611610af857610897600854611105565b91601f92838111610bed575b508689848211600114610b2f578a91610b24575b508760011b907fffffffffffffffffffffffffffffffffffffffffffffffffffffffffffffffff8960031b1c1916176008555b896009558511610af85750610900600a54611105565b818111610a98575b50869084116001146109b2579183916109a1948899947fc01035cee2741bbb5338d3e77a1eb133d0a5a861f7b6513c2c90fb4b5899658599916109a7575b508360011b907fffffffffffffffffffffffffffffffffffffffffffffffffffffffffffffffff8560031b1c191617600a555b61098f8151978897606089526060890191611436565b93602087015285840390860152611436565b0390a180f35b90508201358a610946565b600a87527fc65a7bb8d6351c1cf70c95a316cc6a92839c986682d98bc35f958f4883f9d2a8907fffffffffffffffffffffffffffffffffffffffffffffffffffffffffffffffe08516885b818110610a805750918593916109a1967fc01035cee2741bbb5338d3e77a1eb133d0a5a861f7b6513c2c90fb4b589965859a9b969410610a48575b5050600183811b01600a55610979565b7fffffffffffffffffffffffffffffffffffffffffffffffffffffffffffffffff60f88660031b161c19908401351690558980610a38565b919260206001819286890135815501940192016109fd565b600a88527fc65a7bb8d6351c1cf70c95a316cc6a92839c986682d98bc35f958f4883f9d2a88280870160051c82019260208810610aef575b0160051c01905b818110610ae45750610908565b888155600101610ad7565b92508192610ad0565b8760416024927f4e487b7100000000000000000000000000000000000000000000000000000000835252fd5b90508801358b6108b7565b60088b527ff3f7a9fe364faab93b216da50a3214154f22a0a2b415b23a84c8169e8b636ee39189907fffffffffffffffffffffffffffffffffffffffffffffffffffffffffffffffe0168c5b8c828210610bd357505010610b9b575b5050600187811b016008556108ea565b7fffffffffffffffffffffffffffffffffffffffffffffffffffffffffffffffff60f88a60031b161c19908a01351690558a80610b8b565b84013585556001909401936020938401938c935001610b7b565b60088a527ff3f7a9fe364faab93b216da50a3214154f22a0a2b415b23a84c8169e8b636ee384808a0160051c82019260208b10610c44575b0160051c01905b818110610c3957506108a3565b8a8155600101610c2c565b92508192610c25565b8680fd5b8380fd5b8382863461048b57807ffffffffffffffffffffffffffffffffffffffffffffffffffffffffffffffffc36011261048b575073ffffffffffffffffffffffffffffffffffffffff60209254169051908152f35b8482346101b357817ffffffffffffffffffffffffffffffffffffffffffffffffffffffffffffffffc3601126101b35760209073ffffffffffffffffffffffffffffffffffffffff600554169051908152f35b9150833461048b57602091827ffffffffffffffffffffffffffffffffffffffffffffffffffffffffffffffffc3601126101b357843573ffffffffffffffffffffffffffffffffffffffff90818116809103610c515785908460c08551610d6181611158565b828152828982015282878201528260608201528260808201528260a0820152015260248360025416988551998a9384927fc2bc2efc0000000000000000000000000000000000000000000000000000000084528301525afa928315610eaa578093610e12575b509060c09291815194835115158652808401519086015281830151169084015261ffff60608201511660608401526080810151608084015260a081015160a0840152015160c0820152f35b9092508486813d8311610ea3575b610e2a81836111bf565b8101031261048b57815190610e3e82611158565b865180151581036101b35782528487015185830152610e5e838801611415565b8383015260608701519061ffff8216820361048b575060c0949596859160608401526080810151608084015260a081015160a084015201518482015291859493610dc7565b503d610e20565b8251903d90823e3d90fd5b508383346101b357602092837ffffffffffffffffffffffffffffffffffffffffffffffffffffffffffffffffc3601126102f25773ffffffffffffffffffffffffffffffffffffffff918483600154169160248451809481937f8eaa6ac00000000000000000000000000000000000000000000000000000000083528035908301525afa938415610eaa578094610f50575b50505191168152f35b909193508482813d8311610f83575b610f6981836111bf565b8101031261048b5750610f7b90611415565b918480610f47565b503d610f5f565b8482346101b357817ffffffffffffffffffffffffffffffffffffffffffffffffffffffffffffffffc3601126101b35760209073ffffffffffffffffffffffffffffffffffffffff600654169051908152f35b8482346101b357817ffffffffffffffffffffffffffffffffffffffffffffffffffffffffffffffffc3601126101b35761103f90611019611200565b906110516009546110286112e5565b600b54938051968796608088526080880190611384565b92602087015285830390860152611384565b9060608301520390f35b505050346101b35760207ffffffffffffffffffffffffffffffffffffffffffffffffffffffffffffffffc3601126101b3573573ffffffffffffffffffffffffffffffffffffffff81168091036101b3576110b4611475565b807fffffffffffffffffffffffff000000000000000000000000000000000000000060075416176007557fe7c3c6c42ad7d2ebb94cb93db300d757f6dcec30633e6d996d425589f5b2bec28280a280f35b90600182811c9216801561114e575b602083101461111f57565b7f4e487b7100000000000000000000000000000000000000000000000000000000600052602260045260246000fd5b91607f1691611114565b60e0810190811067ffffffffffffffff82111761117457604052565b7f4e487b7100000000000000000000000000000000000000000000000000000000600052604160045260246000fd5b6080810190811067ffffffffffffffff82111761117457604052565b90601f7fffffffffffffffffffffffffffffffffffffffffffffffffffffffffffffffe0910116810190811067ffffffffffffffff82111761117457604052565b604051906000826008549161121483611105565b808352926020906001908181169081156112a25750600114611241575b505061123f925003836111bf565b565b91509260086000527ff3f7a9fe364faab93b216da50a3214154f22a0a2b415b23a84c8169e8b636ee3936000925b82841061128a575061123f9450505081016020013880611231565b8554888501830152948501948794509281019261126f565b90506020935061123f9592507fffffffffffffffffffffffffffffffffffffffffffffffffffffffffffffff0091501682840152151560051b8201013880611231565b60405190600082600a54916112f983611105565b808352926020906001908181169081156112a2575060011461132357505061123f925003836111bf565b915092600a6000527fc65a7bb8d6351c1cf70c95a316cc6a92839c986682d98bc35f958f4883f9d2a8936000925b82841061136c575061123f9450505081016020013880611231565b85548885018301529485019487945092810192611351565b919082519283825260005b8481106113ce5750507fffffffffffffffffffffffffffffffffffffffffffffffffffffffffffffffe0601f8460006020809697860101520116010190565b60208183018101518483018201520161138f565b9181601f840112156114105782359167ffffffffffffffff8311611410576020838186019501011161141057565b600080fd5b519073ffffffffffffffffffffffffffffffffffffffff8216820361141057565b601f82602094937fffffffffffffffffffffffffffffffffffffffffffffffffffffffffffffffe0938186528686013760008582860101520116010190565b73ffffffffffffffffffffffffffffffffffffffff60005416330361149657565b60246040517f118cdaa7000000000000000000000000000000000000000000000000000000008152336004820152fdfea2646970667358221220c28b1ce6ea234335904df08df3d15dafe66e0fca67e0f1d44384269512bbbccd64736f6c63430008180033f3f7a9fe364faab93b216da50a3214154f22a0a2b415b23a84c8169e8b636ee3","linkReferences":{}},"methodIdentifiers":{"besuBridgeRegistry()":"e314add7","complianceRegistry()":"cac89c5c","getAllRegistries()":"a0a3727d","getRail(bytes32)":"44bdf775","getStablecoin(address)":"4575624b","getSystemInfo()":"6cb69f42","isCompliant(address)":"a200e5d0","oracleRegistry()":"4bb93ab1","owner()":"8da5cb5b","railRegistry()":"9baa99b4","renounceOwnership()":"715018a6","rwaRegistry()":"4cbc2e8c","setBesuBridgeRegistry(address)":"0a0d9127","setOracleRegistry(address)":"8165354e","setRWARegistry(address)":"712cc8a9","setSWIFTRegistry(address)":"fef9b8e5","stablecoinRegistry()":"fb85687a","swiftRegistry()":"3de90fe8","systemInfo()":"2a12408e","transferOwnership(address)":"f2fde38b","updateSystemInfo(string,uint256,string)":"5c85715c"},"id":22}