{"abi":[{"type":"function","name":"ccipSend","inputs":[{"name":"destinationChainSelector","type":"uint64","internalType":"uint64"},{"name":"message","type":"tuple","internalType":"struct Client.EVM2AnyMessage","components":[{"name":"receiver","type":"bytes","internalType":"bytes"},{"name":"data","type":"bytes","internalType":"bytes"},{"name":"tokenAmounts","type":"tuple[]","internalType":"struct Client.EVMTokenAmount[]","components":[{"name":"token","type":"address","internalType":"address"},{"name":"amount","type":"uint256","internalType":"uint256"}]},{"name":"extraArgs","type":"bytes","internalType":"bytes"},{"name":"feeToken","type":"address","internalType":"address"}]}],"outputs":[{"name":"","type":"bytes32","internalType":"bytes32"}],"stateMutability":"payable"},{"type":"function","name":"getFee","inputs":[{"name":"","type":"uint64","internalType":"uint64"},{"name":"","type":"tuple","internalType":"struct Client.EVM2AnyMessage","components":[{"name":"receiver","type":"bytes","internalType":"bytes"},{"name":"data","type":"bytes","internalType":"bytes"},{"name":"tokenAmounts","type":"tuple[]","internalType":"struct Client.EVMTokenAmount[]","components":[{"name":"token","type":"address","internalType":"address"},{"name":"amount","type":"uint256","internalType":"uint256"}]},{"name":"extraArgs","type":"bytes","internalType":"bytes"},{"name":"feeToken","type":"address","internalType":"address"}]}],"outputs":[{"name":"","type":"uint256","internalType":"uint256"}],"stateMutability":"view"},{"type":"function","name":"isChainSupported","inputs":[{"name":"","type":"uint64","internalType":"uint64"}],"outputs":[{"name":"","type":"bool","internalType":"bool"}],"stateMutability":"pure"},{"type":"function","name":"isOfframp","inputs":[{"name":"","type":"uint64","internalType":"uint64"},{"name":"","type":"address","internalType":"address"}],"outputs":[{"name":"","type":"bool","internalType":"bool"}],"stateMutability":"pure"},{"type":"function","name":"lastChainSelector","inputs":[],"outputs":[{"name":"","type":"uint64","internalType":"uint64"}],"stateMutability":"view"},{"type":"function","name":"lastMessage","inputs":[],"outputs":[{"name":"receiver","type":"bytes","internalType":"bytes"},{"name":"data","type":"bytes","internalType":"bytes"},{"name":"extraArgs","type":"bytes","internalType":"bytes"},{"name":"feeToken","type":"address","internalType":"address"}],"stateMutability":"view"},{"type":"function","name":"lastMessageId","inputs":[],"outputs":[{"name":"","type":"bytes32","internalType":"bytes32"}],"stateMutability":"view"},{"type":"function","name":"quotedFee","inputs":[],"outputs":[{"name":"","type":"uint256","internalType":"uint256"}],"stateMutability":"view"},{"type":"function","name":"setFee","inputs":[{"name":"fee","type":"uint256","internalType":"uint256"}],"outputs":[],"stateMutability":"nonpayable"},{"type":"event","name":"Sent","inputs":[{"name":"id","type":"bytes32","indexed":false,"internalType":"bytes32"},{"name":"chain","type":"uint64","indexed":false,"internalType":"uint64"},{"name":"receiver","type":"address","indexed":false,"internalType":"address"}],"anonymous":false}],"bytecode":{"object":"0x6080806040523461001657611064908161001c8239f35b600080fdfe6040608081526004908136101561001557600080fd5b600091823560e01c9081632809f93114610542578163329707101461023f57816343019e1114610204578163494e8518146101bd57816360206aab1461018057816369fe0e2d146101495750806384293a741461012d5780639c89e74f146100cc5763a48a90581461008657600080fd5b346100c85760207ffffffffffffffffffffffffffffffffffffffffffffffffffffffffffffffffc3601126100c8576020906100c0610e20565b505160018152f35b5080fd5b50346100c857807ffffffffffffffffffffffffffffffffffffffffffffffffffffffffffffffffc3601126100c857610103610e20565b5060243573ffffffffffffffffffffffffffffffffffffffff8116036100c8576020905160018152f35b50346100c85760209161013f36610e3c565b5050549051908152f35b8390346100c85760207ffffffffffffffffffffffffffffffffffffffffffffffffffffffffffffffffc3601126100c85735815580f35b5050346100c857817ffffffffffffffffffffffffffffffffffffffffffffffffffffffffffffffffc3601126100c8576020906001549051908152f35b5050346100c857817ffffffffffffffffffffffffffffffffffffffffffffffffffffffffffffffffc3601126100c85760209067ffffffffffffffff600254169051908152f35b5050346100c857817ffffffffffffffffffffffffffffffffffffffffffffffffffffffffffffffffc3601126100c857602091549051908152f35b90503461053e57827ffffffffffffffffffffffffffffffffffffffffffffffffffffffffffffffffc36011261053e578151918360035461027f81610e9b565b808652856020978892600194858116908160001461050257506001146104a8575b506102ad92500386610eee565b858351809584908054906102c082610e9b565b80855291868116908115610468575060011461040f575b50506102e592500385610eee565b8251918091600654916102f783610e9b565b808652928281169081156103cf575060011461037a575b50505090610363610356966103298361037096950384610eee565b73ffffffffffffffffffffffffffffffffffffffff6007541695845198899860808a5260808a0190610f5e565b9188830390890152610f5e565b9185830390860152610f5e565b9060608301520390f35b9250600683527ff652222313e28459528d920b65115c16c04f3efc82aaedc97be59f3f377c0d3f5b8284106103bc57505050810185016103638661032961030e565b80548585018a01529288019281016103a2565b7fffffffffffffffffffffffffffffffffffffffffffffffffffffffffffffff00168a870152505050151560051b8201860190506103638661032961030e565b8652859150847f8a35acfbc15ff81a39ae7d344fd709f28e8600b4aa8c65c6b64bfe7fe36bd19b5b82841061045157505050916102e5928201018892386102d7565b80548a850187015289945092850192869101610437565b90506102e59593507fffffffffffffffffffffffffffffffffffffffffffffffffffffffffffffff0091501682840152151560051b8201018892386102d7565b60038652859150847fc2575a0e9e593c00f959f8c92f12db2869c3395a3b0502d05e2516446f71f85b5b8284106104eb57505050916102ad9282010188926102a0565b80548b85018701528a9450928501928691016104d2565b7fffffffffffffffffffffffffffffffffffffffffffffffffffffffffffffff00168486015250899390151560051b83010190506102ad6102a0565b8280fd5b838361054d36610e3c565b9267ffffffffffffffff80921694600295807fffffffffffffffffffffffffffffffffffffffffffffffff000000000000000060025416176002556105928680610fbc565b9790858911610df457600398806105a98b54610e9b565b92601f93848111610d89575b508790848311600114610cc6578892610cbb575b50507fffffffffffffffffffffffffffffffffffffffffffffffffffffffffffffffff8260011b928c1b1c19161789555b6020986106098a8a018a610fbc565b908882116109ec5781908c61061e8954610e9b565b868111610c51575b505088908d868411600114610b9457508992610b89575b50507fffffffffffffffffffffffffffffffffffffffffffffffffffffffffffffffff8260011b92841b1c19161785555b878901357fffffffffffffffffffffffffffffffffffffffffffffffffffffffffffffffe18a360301811215610b85578901803590888211610b81578b019360069482861b36038113610b7d57680100000000000000008311610b515760055483600555808410610a77575b506005895288907f036b6384b5eca791c62761152d0c79bb0604c104a5fb6f4eb0703f3154bb3db0908e5b8d868510610a18575050505050505061072160608a018a610fbc565b92908884116109ec578b6107358654610e9b565b83811161098c575b5050879184116001146108c5579083929391889361089a575b5050807fffffffffffffffffffffffffffffffffffffffffffffffffffffffffffffffff9160011b931b1c19161790555b73ffffffffffffffffffffffffffffffffffffffff92836107aa6080890161100d565b167fffffffffffffffffffffffff000000000000000000000000000000000000000060075416176007558551928884019033825283888601524260608601523460808601526080855260a08501968588109088111761086e575061081b899187895285519020988960015580610fbc565b90809291810103126100c8573593841680940361086b575085845260c082015260e001527f5060930cd474143d0020909245fa945d888159f4c56dc1bae7128730847f54e490606090a151908152f35b80fd5b8260416024927f4e487b7100000000000000000000000000000000000000000000000000000000835252fd5b013591507fffffffffffffffffffffffffffffffffffffffffffffffffffffffffffffffff8c610756565b907fffffffffffffffffffffffffffffffffffffffffffffffffffffffffffffffe08416928589527ff652222313e28459528d920b65115c16c04f3efc82aaedc97be59f3f377c0d3f938d8a905b828210610974575050948094939291816001971061093b575b5050505050811b019055610787565b7fffffffffffffffffffffffffffffffffffffffffffffffffffffffffffffffff9160f8911b161c199101351690558a8080838161092c565b80600186988294978901358155019701940190610913565b868a52837ff652222313e28459528d920b65115c16c04f3efc82aaedc97be59f3f377c0d3f9181880160051c83019388106109e3575b0160051c01905b8181106109d8578d915061073d565b8981556001016109c9565b925081926109c2565b6024886041897f4e487b7100000000000000000000000000000000000000000000000000000000835252fd5b82869273ffffffffffffffffffffffffffffffffffffffff610a3b60019661100d565b167fffffffffffffffffffffffff000000000000000000000000000000000000000087541617865581013584860155019201920191908e610705565b60017f7fffffffffffffffffffffffffffffffffffffffffffffffffffffffffffffff8083168303610b255785168503610af957837f036b6384b5eca791c62761152d0c79bb0604c104a5fb6f4eb0703f3154bb3db09260011b8301928660011b015b838110610ae9575050506106da565b8c81558c83820155018490610ada565b60248b60118c7f4e487b7100000000000000000000000000000000000000000000000000000000835252fd5b60248c60118d7f4e487b7100000000000000000000000000000000000000000000000000000000835252fd5b60248960418a7f4e487b7100000000000000000000000000000000000000000000000000000000835252fd5b8880fd5b8780fd5b8680fd5b013590508c8061063d565b7f8a35acfbc15ff81a39ae7d344fd709f28e8600b4aa8c65c6b64bfe7fe36bd19b939192917fffffffffffffffffffffffffffffffffffffffffffffffffffffffffffffffe016908b905b828210610c39575050908460019594939210610c03575b505050811b01855561066e565b01357fffffffffffffffffffffffffffffffffffffffffffffffffffffffffffffffff83861b60f8161c191690558c8080610bf6565b80600185978294968801358155019601930190610bdf565b90919250857f8a35acfbc15ff81a39ae7d344fd709f28e8600b4aa8c65c6b64bfe7fe36bd19b9181860160051c8301938610610cb2575b9085949392910160051c01905b818110610ca4578e9150610626565b8a8155849350600101610c95565b92508192610c88565b013590508b806105c9565b7fffffffffffffffffffffffffffffffffffffffffffffffffffffffffffffffe08d941691848a527fc2575a0e9e593c00f959f8c92f12db2869c3395a3b0502d05e2516446f71f85b928a5b818110610d6e575060019585809210610d35575b5050505050811b0189556105fa565b7fffffffffffffffffffffffffffffffffffffffffffffffffffffffffffffffff9160f8911b161c199101351690558b8080838e610d26565b8284013585558f965060019094019360209283019201610d12565b9091508b88527fc2575a0e9e593c00f959f8c92f12db2869c3395a3b0502d05e2516446f71f85b8480850160051c82019260208610610deb575b9085949392910160051c01905b818110610ddd57506105b5565b898155849350600101610dd0565b92508192610dc3565b6024856041867f4e487b7100000000000000000000000000000000000000000000000000000000835252fd5b6004359067ffffffffffffffff82168203610e3757565b600080fd5b907ffffffffffffffffffffffffffffffffffffffffffffffffffffffffffffffffc91604083820112610e375767ffffffffffffffff906004358281168103610e375793602435928311610e37578260a092030112610e375760040190565b90600182811c92168015610ee4575b6020831014610eb557565b7f4e487b7100000000000000000000000000000000000000000000000000000000600052602260045260246000fd5b91607f1691610eaa565b90601f7fffffffffffffffffffffffffffffffffffffffffffffffffffffffffffffffe0910116810190811067ffffffffffffffff821117610f2f57604052565b7f4e487b7100000000000000000000000000000000000000000000000000000000600052604160045260246000fd5b919082519283825260005b848110610fa85750507fffffffffffffffffffffffffffffffffffffffffffffffffffffffffffffffe0601f8460006020809697860101520116010190565b602081830181015184830182015201610f69565b9035907fffffffffffffffffffffffffffffffffffffffffffffffffffffffffffffffe181360301821215610e37570180359067ffffffffffffffff8211610e3757602001918136038313610e3757565b3573ffffffffffffffffffffffffffffffffffffffff81168103610e37579056fea264697066735822122056d30675343358f10b6788491dc97a23c994495e110ee8eb16c8b5e792771d4e64736f6c63430008180033","linkReferences":{}},"methodIdentifiers":{"ccipSend(uint64,(bytes,bytes,(address,uint256)[],bytes,address))":"2809f931","getFee(uint64,(bytes,bytes,(address,uint256)[],bytes,address))":"84293a74","isChainSupported(uint64)":"a48a9058","isOfframp(uint64,address)":"9c89e74f","lastChainSelector()":"494e8518","lastMessage()":"32970710","lastMessageId()":"60206aab","quotedFee()":"43019e11","setFee(uint256)":"69fe0e2d"},"id":6}