{"abi":[{"type":"constructor","inputs":[],"stateMutability":"nonpayable"},{"type":"function","name":"cancelSettlement","inputs":[{"name":"settlementId","type":"bytes32","internalType":"bytes32"}],"outputs":[],"stateMutability":"nonpayable"},{"type":"function","name":"executeAtomicSettlement","inputs":[{"name":"settlementId","type":"bytes32","internalType":"bytes32"}],"outputs":[],"stateMutability":"nonpayable"},{"type":"function","name":"getAssetCount","inputs":[{"name":"settlementId","type":"bytes32","internalType":"bytes32"},{"name":"isInput","type":"bool","internalType":"bool"}],"outputs":[{"name":"","type":"uint256","internalType":"uint256"}],"stateMutability":"view"},{"type":"function","name":"getSettlement","inputs":[{"name":"settlementId","type":"bytes32","internalType":"bytes32"}],"outputs":[{"name":"","type":"tuple","internalType":"struct AtomicCrossAssetSettlement.AtomicSettlement","components":[{"name":"settlementId","type":"bytes32","internalType":"bytes32"},{"name":"assetsIn","type":"tuple[]","internalType":"struct AtomicCrossAssetSettlement.Asset[]","components":[{"name":"assetType","type":"uint8","internalType":"enum AtomicCrossAssetSettlement.AssetType"},{"name":"assetAddress","type":"address","internalType":"address"},{"name":"amountOrTokenId","type":"uint256","internalType":"uint256"},{"name":"owner","type":"address","internalType":"address"},{"name":"externalRef","type":"bytes32","internalType":"bytes32"}]},{"name":"assetsOut","type":"tuple[]","internalType":"struct AtomicCrossAssetSettlement.Asset[]","components":[{"name":"assetType","type":"uint8","internalType":"enum AtomicCrossAssetSettlement.AssetType"},{"name":"assetAddress","type":"address","internalType":"address"},{"name":"amountOrTokenId","type":"uint256","internalType":"uint256"},{"name":"owner","type":"address","internalType":"address"},{"name":"externalRef","type":"bytes32","internalType":"bytes32"}]},{"name":"participants","type":"address[]","internalType":"address[]"},{"name":"isCompleted","type":"bool","internalType":"bool"},{"name":"isCancelled","type":"bool","internalType":"bool"},{"name":"timestamp","type":"uint256","internalType":"uint256"},{"name":"expiryTime","type":"uint256","internalType":"uint256"}]}],"stateMutability":"view"},{"type":"function","name":"initiateAtomicSettlement","inputs":[{"name":"settlementId","type":"bytes32","internalType":"bytes32"},{"name":"assetsIn","type":"tuple[]","internalType":"struct AtomicCrossAssetSettlement.Asset[]","components":[{"name":"assetType","type":"uint8","internalType":"enum AtomicCrossAssetSettlement.AssetType"},{"name":"assetAddress","type":"address","internalType":"address"},{"name":"amountOrTokenId","type":"uint256","internalType":"uint256"},{"name":"owner","type":"address","internalType":"address"},{"name":"externalRef","type":"bytes32","internalType":"bytes32"}]},{"name":"assetsOut","type":"tuple[]","internalType":"struct AtomicCrossAssetSettlement.Asset[]","components":[{"name":"assetType","type":"uint8","internalType":"enum AtomicCrossAssetSettlement.AssetType"},{"name":"assetAddress","type":"address","internalType":"address"},{"name":"amountOrTokenId","type":"uint256","internalType":"uint256"},{"name":"owner","type":"address","internalType":"address"},{"name":"externalRef","type":"bytes32","internalType":"bytes32"}]},{"name":"participants","type":"address[]","internalType":"address[]"},{"name":"expiryTime","type":"uint256","internalType":"uint256"}],"outputs":[{"name":"","type":"bool","internalType":"bool"}],"stateMutability":"nonpayable"},{"type":"function","name":"owner","inputs":[],"outputs":[{"name":"","type":"address","internalType":"address"}],"stateMutability":"view"},{"type":"function","name":"renounceOwnership","inputs":[],"outputs":[],"stateMutability":"nonpayable"},{"type":"function","name":"settlements","inputs":[{"name":"","type":"bytes32","internalType":"bytes32"}],"outputs":[{"name":"settlementId","type":"bytes32","internalType":"bytes32"},{"name":"isCompleted","type":"bool","internalType":"bool"},{"name":"isCancelled","type":"bool","internalType":"bool"},{"name":"timestamp","type":"uint256","internalType":"uint256"},{"name":"expiryTime","type":"uint256","internalType":"uint256"}],"stateMutability":"view"},{"type":"function","name":"transferOwnership","inputs":[{"name":"newOwner","type":"address","internalType":"address"}],"outputs":[],"stateMutability":"nonpayable"},{"type":"event","name":"OwnershipTransferred","inputs":[{"name":"previousOwner","type":"address","indexed":true,"internalType":"address"},{"name":"newOwner","type":"address","indexed":true,"internalType":"address"}],"anonymous":false},{"type":"event","name":"SettlementCancelled","inputs":[{"name":"settlementId","type":"bytes32","indexed":true,"internalType":"bytes32"}],"anonymous":false},{"type":"event","name":"SettlementCompleted","inputs":[{"name":"settlementId","type":"bytes32","indexed":true,"internalType":"bytes32"}],"anonymous":false},{"type":"event","name":"SettlementInitiated","inputs":[{"name":"settlementId","type":"bytes32","indexed":true,"internalType":"bytes32"},{"name":"participants","type":"address[]","indexed":false,"internalType":"address[]"}],"anonymous":false},{"type":"error","name":"OwnableInvalidOwner","inputs":[{"name":"owner","type":"address","internalType":"address"}]},{"type":"error","name":"OwnableUnauthorizedAccount","inputs":[{"name":"account","type":"address","internalType":"address"}]},{"type":"error","name":"ReentrancyGuardReentrantCall","inputs":[]}],"bytecode":{"object":"0x6080806040523461007f57600160005533156100695760018054336001600160a01b03198216811790925560405191906001600160a01b03167f8be0079c531659141344cd1fd0a4f28419497f9722a3daafe3b4186f6b6457e0600080a361153f90816100858239f35b631e4fbdf760e01b815260006004820152602490fd5b600080fdfe608060408181526004908136101561001657600080fd5b600092833560e01c90816301bc95e214610ce35750806361f35a3d14610c7b578063715018a614610bda5780638a184b83146109a45780638da5cb5b14610951578063963c68d014610747578063c3e6ace014610563578063c8409cc3146101735763f2fde38b1461008757600080fd5b3461016f5760207ffffffffffffffffffffffffffffffffffffffffffffffffffffffffffffffffc36011261016f5781359173ffffffffffffffffffffffffffffffffffffffff9182841680940361016b576100e16112db565b831561013c575050600154827fffffffffffffffffffffffff0000000000000000000000000000000000000000821617600155167f8be0079c531659141344cd1fd0a4f28419497f9722a3daafe3b4186f6b6457e08380a380f35b908460249251917f1e4fbdf7000000000000000000000000000000000000000000000000000000008352820152fd5b8480fd5b8280fd5b5082903461055f5760a07ffffffffffffffffffffffffffffffffffffffffffffffffffffffffffffffffc36011261055f5782359160249283359467ffffffffffffffff9586811161055b576101cc9036908301610f41565b9460443587811161016b576101e49036908401610f41565b60643597808911610557573660238a01121561055757888401359361020885610f03565b9461021589519687610ec2565b80865260209a8b870186819360051b830101913683116105535790878e9201905b83821061053c57505050506084359461024d61132c565b8a51151580610532575b156104d757600287511061047c57428611156104215787895260028c52898920958887554260058801556006870155600386019287519485116103f7576801000000000000000085116103f757505081548383558084106103d2575b509695949396908652898620865b8381106103aa57505050508394600197888097818401915b61036c575b5050509085916002869101925b610333575b5050506103297fececbec8aef92dce43019c515e4e6a4b7c30fe686222cc035331471527a6587d9186519182918a83528a830190610e10565b0390a25551908152f35b819693949596518110156103625780610357610350869385611194565b51856111a8565b0183969594936102eb565b95949392956102f0565b829395969798925181101561039e578061039161038a859387611194565b51846111a8565b01829897969593926102d9565b829897969593506102de565b825173ffffffffffffffffffffffffffffffffffffffff1682820155918b01916001016102c1565b828952838c8a2091820191015b8181106103ec57506102b3565b8981556001016103df565b60418a917f4e487b7100000000000000000000000000000000000000000000000000000000835252fd5b82600e6064928e8d51937f08c379a00000000000000000000000000000000000000000000000000000000085528401528201527f496e76616c6964206578706972790000000000000000000000000000000000006044820152fd5b82601c6064928e8d51937f08c379a00000000000000000000000000000000000000000000000000000000085528401528201527f4e656564206174206c656173742032207061727469636970616e7473000000006044820152fd5b82600c6064928e8d51937f08c379a00000000000000000000000000000000000000000000000000000000085528401528201527f456d7074792061737365747300000000000000000000000000000000000000006044820152fd5b5084511515610257565b82809161054884610f1b565b815201910190610236565b8a80fd5b8580fd5b8380fd5b5080fd5b5091903461055f57602092837ffffffffffffffffffffffffffffffffffffffffffffffffffffffffffffffffc36011261016f5780929192516105a581610e5a565b8281528260e06060928388820152838582015283808201528260808201528260a08201528260c08201520152833583526002855281832092825180956105ea82610e5a565b8554825260016105fc6001880161113e565b9489840195865261060f6002890161113e565b928785019384526003890188519687948d8354998a8152019282528d80832092905b8a821061071a57505050506106fa9495965090610653846106e9930385610ec2565b828701938452890154946106b76006608089019b60ff891615158d5260ff60a08b019960081c161515895260c060058201549a01998a5201549860e08d01998a528a518e819f9e829f835251910152518c6101009b8c9101526101208d0190610d5a565b90517fffffffffffffffffffffffffffffffffffffffffffffffffffffffffffffffe093848d840301908d0152610d5a565b9151908983030160808a0152610e10565b9451151560a087015251151560c08601525160e085015251908301520390f35b835473ffffffffffffffffffffffffffffffffffffffff1685528e9950909301929181019181018e610631565b503461016f5760209060207ffffffffffffffffffffffffffffffffffffffffffffffffffffffffffffffffc36011261055b578235928385526002602052818520918183019384549361079d60ff861615610ffb565b60ff8560081c166108f45787918890600383018054925b8381106108b5575b5050505073ffffffffffffffffffffffffffffffffffffffff6001541633149182156108ad575b50811561089f575b50156108425750507fffffffffffffffffffffffffffffffffffffffffffffffffffffffffffff00ff166101001790557f44b757e305fb984e622bd5b6c8bbacdd202b2613d5af5e833ca8e3e36c357a8e8280a280f35b90602060649251917f08c379a0000000000000000000000000000000000000000000000000000000008352820152600e60248201527f4e6f7420617574686f72697a65640000000000000000000000000000000000006044820152fd5b6006915001544211386107eb565b9150386107e3565b818c52828c2081015473ffffffffffffffffffffffffffffffffffffffff1633146108e2576001016107b4565b505050509050600190388080806107bc565b60648460208551917f08c379a0000000000000000000000000000000000000000000000000000000008352820152601160248201527f416c72656164792063616e63656c6c65640000000000000000000000000000006044820152fd5b83823461055f57817ffffffffffffffffffffffffffffffffffffffffffffffffffffffffffffffffc36011261055f5760209073ffffffffffffffffffffffffffffffffffffffff600154169051908152f35b503461016f5760207ffffffffffffffffffffffffffffffffffffffffffffffffffffffffffffffffc36011261016f578135906109df61132c565b6109e76112db565b8184526002926002602052818520908082019260ff8454610a0a82821615610ffb565b60081c16610b7d5760068301544211610b20575060019485915082820187835b610ae9575b505081926002889101925b610a92575b5050507fffffffffffffffffffffffffffffffffffffffffffffffffffffffffffffff008254161790557f8f8e4282282289ac763e7c91c2d5c20f74a70124744a5a3eb01bf6b37ffd48c18380a2815580f35b8254811015610ae45780610add610aaa869386611060565b50610ad873ffffffffffffffffffffffffffffffffffffffff86610ace868a611060565b50015416916110ab565b611367565b0183610a3a565b610a3f565b8193929354811015610b185780610b0f610b04859385611060565b50610ad830916110ab565b01829392610a2a565b929192610a2f565b90602060649251917f08c379a0000000000000000000000000000000000000000000000000000000008352820152600760248201527f45787069726564000000000000000000000000000000000000000000000000006044820152fd5b90602060649251917f08c379a0000000000000000000000000000000000000000000000000000000008352820152600960248201527f43616e63656c6c656400000000000000000000000000000000000000000000006044820152fd5b8334610c7857807ffffffffffffffffffffffffffffffffffffffffffffffffffffffffffffffffc360112610c7857610c116112db565b8073ffffffffffffffffffffffffffffffffffffffff6001547fffffffffffffffffffffffff00000000000000000000000000000000000000008116600155167f8be0079c531659141344cd1fd0a4f28419497f9722a3daafe3b4186f6b6457e08280a380f35b80fd5b508234610c7857817ffffffffffffffffffffffffffffffffffffffffffffffffffffffffffffffffc360112610c7857602435801515810361055f57602093358252600284528282209150600014610cd95760010154905b51908152f35b6002015490610cd3565b929190503461055b5760207ffffffffffffffffffffffffffffffffffffffffffffffffffffffffffffffffc36011261055b578060a094833581526002602052209060ff825493830154600660058501549401549486528181161515602087015260081c1615159084015260608301526080820152f35b9081518082526020808093019301916000805b838210610d7c57505050505090565b9091929394855180516006811015610de35782528085015173ffffffffffffffffffffffffffffffffffffffff9081168684015260408083015190840152606080830151909116908301526080908101519082015260a00194830193929160010190610d6d565b6024847f4e487b710000000000000000000000000000000000000000000000000000000081526021600452fd5b90815180825260208080930193019160005b828110610e30575050505090565b835173ffffffffffffffffffffffffffffffffffffffff1685529381019392810192600101610e22565b610100810190811067ffffffffffffffff821117610e7757604052565b7f4e487b7100000000000000000000000000000000000000000000000000000000600052604160045260246000fd5b60a0810190811067ffffffffffffffff821117610e7757604052565b90601f7fffffffffffffffffffffffffffffffffffffffffffffffffffffffffffffffe0910116810190811067ffffffffffffffff821117610e7757604052565b67ffffffffffffffff8111610e775760051b60200190565b359073ffffffffffffffffffffffffffffffffffffffff82168203610f3c57565b600080fd5b81601f82011215610f3c578035906020610f5a83610f03565b936040610f6a6040519687610ec2565b848652828601918360a080970286010194818611610f3c578401925b858410610f97575050505050505090565b8684830312610f3c57825190610fac82610ea6565b8435906006821015610f3c578287928a9452610fc9838801610f1b565b8382015285870135868201526060610fe2818901610f1b565b9082015260808088013590820152815201930192610f86565b1561100257565b60646040517f08c379a000000000000000000000000000000000000000000000000000000000815260206004820152601160248201527f416c726561647920636f6d706c657465640000000000000000000000000000006044820152fd5b805482101561107c5760005260206000209060021b0190600090565b7f4e487b7100000000000000000000000000000000000000000000000000000000600052603260045260246000fd5b906040516110b881610ea6565b809280549060ff821690600682101561110f57608092600392855273ffffffffffffffffffffffffffffffffffffffff809160081c1660208601526001820154604086015260028201541660608501520154910152565b7f4e487b7100000000000000000000000000000000000000000000000000000000600052602160045260246000fd5b90815461114a81610f03565b926111586040519485610ec2565b818452600090815260208082208186015b848410611177575050505050565b600483600192611186856110ab565b815201920193019290611169565b805182101561107c5760209160051b010190565b805468010000000000000000811015610e77576111ca91600182018155611060565b9190916112ac578051600681101561110f5760039160809160ff85549116807fffffffffffffffffffffffffffffffffffffffffffffffffffffffffffffff0083161786557fffffffffffffffffffffff00000000000000000000000000000000000000000074ffffffffffffffffffffffffffffffffffffffff00602085015160081b16921617178455604081015160018501556002840173ffffffffffffffffffffffffffffffffffffffff6060830151167fffffffffffffffffffffffff00000000000000000000000000000000000000008254161790550151910155565b7f4e487b7100000000000000000000000000000000000000000000000000000000600052600060045260246000fd5b73ffffffffffffffffffffffffffffffffffffffff6001541633036112fc57565b60246040517f118cdaa7000000000000000000000000000000000000000000000000000000008152336004820152fd5b60026000541461133d576002600055565b60046040517f3ee5aeb5000000000000000000000000000000000000000000000000000000008152fd5b8051600681101561110f5761143757602081810151606083015160409384015193517f23b872dd00000000000000000000000000000000000000000000000000000000815273ffffffffffffffffffffffffffffffffffffffff91821660048201529481166024860152604485019390935260009392839160649183918791165af1801561142c576113f7575050565b6020813d602011611424575b8161141060209383610ec2565b8101031261055f575180151503610c785750565b3d9150611403565b6040513d84823e3d90fd5b8051600681101561110f5760011461144d575050565b73ffffffffffffffffffffffffffffffffffffffff6040816020840151169160608401511692015190803b15610f3c576040517f23b872dd00000000000000000000000000000000000000000000000000000000815273ffffffffffffffffffffffffffffffffffffffff938416600482015293909216602484015260448301526000908290606490829084905af180156114fd576114e95750565b67ffffffffffffffff8111610e7757604052565b6040513d6000823e3d90fdfea264697066735822122028c700568f84b3c5e2201d7766957345e09ae71239c5f1ac8b32bdc91c13621d64736f6c63430008180033","linkReferences":{}},"methodIdentifiers":{"cancelSettlement(bytes32)":"963c68d0","executeAtomicSettlement(bytes32)":"8a184b83","getAssetCount(bytes32,bool)":"61f35a3d","getSettlement(bytes32)":"c3e6ace0","initiateAtomicSettlement(bytes32,(uint8,address,uint256,address,bytes32)[],(uint8,address,uint256,address,bytes32)[],address[],uint256)":"c8409cc3","owner()":"8da5cb5b","renounceOwnership()":"715018a6","settlements(bytes32)":"01bc95e2","transferOwnership(address)":"f2fde38b"},"id":12}