{"abi":[{"type":"constructor","inputs":[{"name":"admin","type":"address","internalType":"address"}],"stateMutability":"nonpayable"},{"type":"function","name":"ADMIN_ROLE","inputs":[],"outputs":[{"name":"","type":"bytes32","internalType":"bytes32"}],"stateMutability":"view"},{"type":"function","name":"DEFAULT_ADMIN_ROLE","inputs":[],"outputs":[{"name":"","type":"bytes32","internalType":"bytes32"}],"stateMutability":"view"},{"type":"function","name":"getRoleAdmin","inputs":[{"name":"role","type":"bytes32","internalType":"bytes32"}],"outputs":[{"name":"","type":"bytes32","internalType":"bytes32"}],"stateMutability":"view"},{"type":"function","name":"grantRole","inputs":[{"name":"role","type":"bytes32","internalType":"bytes32"},{"name":"account","type":"address","internalType":"address"}],"outputs":[],"stateMutability":"nonpayable"},{"type":"function","name":"hasRole","inputs":[{"name":"role","type":"bytes32","internalType":"bytes32"},{"name":"account","type":"address","internalType":"address"}],"outputs":[{"name":"","type":"bool","internalType":"bool"}],"stateMutability":"view"},{"type":"function","name":"instrument","inputs":[],"outputs":[{"name":"","type":"bytes32","internalType":"bytes32"}],"stateMutability":"view"},{"type":"function","name":"isHalted","inputs":[],"outputs":[{"name":"","type":"bool","internalType":"bool"}],"stateMutability":"view"},{"type":"function","name":"maxNavAge","inputs":[],"outputs":[{"name":"","type":"uint64","internalType":"uint64"}],"stateMutability":"view"},{"type":"function","name":"maxNavDriftBps","inputs":[],"outputs":[{"name":"","type":"uint256","internalType":"uint256"}],"stateMutability":"view"},{"type":"function","name":"nav","inputs":[],"outputs":[{"name":"","type":"address","internalType":"contract INavOracleRouter"}],"stateMutability":"view"},{"type":"function","name":"por","inputs":[],"outputs":[{"name":"","type":"address","internalType":"contract IPorAggregator"}],"stateMutability":"view"},{"type":"function","name":"referenceNav18","inputs":[],"outputs":[{"name":"","type":"uint256","internalType":"uint256"}],"stateMutability":"view"},{"type":"function","name":"renounceRole","inputs":[{"name":"role","type":"bytes32","internalType":"bytes32"},{"name":"callerConfirmation","type":"address","internalType":"address"}],"outputs":[],"stateMutability":"nonpayable"},{"type":"function","name":"reserveId","inputs":[],"outputs":[{"name":"","type":"bytes32","internalType":"bytes32"}],"stateMutability":"view"},{"type":"function","name":"revokeRole","inputs":[{"name":"role","type":"bytes32","internalType":"bytes32"},{"name":"account","type":"address","internalType":"address"}],"outputs":[],"stateMutability":"nonpayable"},{"type":"function","name":"setConfig","inputs":[{"name":"por_","type":"address","internalType":"address"},{"name":"nav_","type":"address","internalType":"address"},{"name":"reserveId_","type":"bytes32","internalType":"bytes32"},{"name":"instrument_","type":"bytes32","internalType":"bytes32"}],"outputs":[],"stateMutability":"nonpayable"},{"type":"function","name":"setThresholds","inputs":[{"name":"maxAge","type":"uint64","internalType":"uint64"},{"name":"maxDriftBps","type":"uint256","internalType":"uint256"},{"name":"refNav18","type":"uint256","internalType":"uint256"}],"outputs":[],"stateMutability":"nonpayable"},{"type":"function","name":"supportsInterface","inputs":[{"name":"interfaceId","type":"bytes4","internalType":"bytes4"}],"outputs":[{"name":"","type":"bool","internalType":"bool"}],"stateMutability":"view"},{"type":"event","name":"ConfigSet","inputs":[{"name":"por","type":"address","indexed":false,"internalType":"address"},{"name":"nav","type":"address","indexed":false,"internalType":"address"},{"name":"reserveId","type":"bytes32","indexed":false,"internalType":"bytes32"},{"name":"instrument","type":"bytes32","indexed":false,"internalType":"bytes32"}],"anonymous":false},{"type":"event","name":"RoleAdminChanged","inputs":[{"name":"role","type":"bytes32","indexed":true,"internalType":"bytes32"},{"name":"previousAdminRole","type":"bytes32","indexed":true,"internalType":"bytes32"},{"name":"newAdminRole","type":"bytes32","indexed":true,"internalType":"bytes32"}],"anonymous":false},{"type":"event","name":"RoleGranted","inputs":[{"name":"role","type":"bytes32","indexed":true,"internalType":"bytes32"},{"name":"account","type":"address","indexed":true,"internalType":"address"},{"name":"sender","type":"address","indexed":true,"internalType":"address"}],"anonymous":false},{"type":"event","name":"RoleRevoked","inputs":[{"name":"role","type":"bytes32","indexed":true,"internalType":"bytes32"},{"name":"account","type":"address","indexed":true,"internalType":"address"},{"name":"sender","type":"address","indexed":true,"internalType":"address"}],"anonymous":false},{"type":"event","name":"ThresholdsSet","inputs":[{"name":"maxAge","type":"uint64","indexed":false,"internalType":"uint64"},{"name":"maxDriftBps","type":"uint256","indexed":false,"internalType":"uint256"},{"name":"refNav","type":"uint256","indexed":false,"internalType":"uint256"}],"anonymous":false},{"type":"error","name":"AccessControlBadConfirmation","inputs":[]},{"type":"error","name":"AccessControlUnauthorizedAccount","inputs":[{"name":"account","type":"address","internalType":"address"},{"name":"neededRole","type":"bytes32","internalType":"bytes32"}]}],"bytecode":{"object":"0x60803461007257601f610f3e38819003918201601f19168301916001600160401b038311848410176100775780849260209460405283398101031261007257516001600160a01b0381168103610072578061005c6100629261008d565b5061010b565b50604051610d7290816101ac8239f35b600080fd5b634e487b7160e01b600052604160045260246000fd5b6001600160a01b031660008181527fad3228b676f7d3cd4284a5443f17f1962b36e491b30a40b2405849e597ba5fb5602052604081205490919060ff1661010757818052816020526040822081835260205260408220600160ff198254161790553391600080516020610f1e8339815191528180a4600190565b5090565b6001600160a01b031660008181527f7d7ffb7a348e1c6a02869081a26547b49160dd3df72d1d75a570eb9b698292ec60205260408120549091907fa49807205ce4d355092ef5a8a18f56e8913cf4a201fbe287825b095693c217759060ff166101a657808352826020526040832082845260205260408320600160ff19825416179055600080516020610f1e833981519152339380a4600190565b50509056fe608060408181526004918236101561001657600080fd5b600092833560e01c91826301ffc9a7146107335750816308ae13bc146106e0578163248a9ca3146106985781632f2ff15d146106505781632f4580e11461061357816336568abe146105895781635767d5341461054d57816375b238fc146104f457816391d1485414610484578163a217fddf1461044b578163a98e90af1461040e578163b9beed0814610352578163bf017f5814610269578163c1590cd714610216578163c7ff1584146101d2578163d3d860521461018b578163d547741f1461012a575063ea8d1f0a146100eb57600080fd5b3461012657817ffffffffffffffffffffffffffffffffffffffffffffffffffffffffffffffffc360112610126576020906003549051908152f35b5080fd5b9190503461018757807ffffffffffffffffffffffffffffffffffffffffffffffffffffffffffffffffc36011261018757610183913561017e600161016d6107ef565b938387528660205286200154610bcb565b610c9b565b5080f35b8280fd5b50503461012657817ffffffffffffffffffffffffffffffffffffffffffffffffffffffffffffffffc3601126101265760209067ffffffffffffffff600554169051908152f35b50503461012657817ffffffffffffffffffffffffffffffffffffffffffffffffffffffffffffffffc3601126101265760209061020d6108f9565b90519015158152f35b50503461012657817ffffffffffffffffffffffffffffffffffffffffffffffffffffffffffffffffc3601126101265760209073ffffffffffffffffffffffffffffffffffffffff600254169051908152f35b919050346101875760807ffffffffffffffffffffffffffffffffffffffffffffffffffffffffffffffffc36011261018757813573ffffffffffffffffffffffffffffffffffffffff9283821680920361034e577f26a77e5dcadfd9f27a4093c58e4606a89a8000bc4caa999e466dcce27bb51cff936080936102ea6107ef565b604435926064359485916102fc610b38565b7fffffffffffffffffffffffff0000000000000000000000000000000000000000938885600154161760015516809360025416176002558460035555815194855260208501528301526060820152a180f35b8480fd5b9050346101875760607ffffffffffffffffffffffffffffffffffffffffffffffffffffffffffffffffc36011261018757359067ffffffffffffffff8216809203610187577fa9f0629caf36dec7b23a91518d6564e3e8809853b85957d32885b4633c5ae8f991606091604435906024356103cb610b38565b837fffffffffffffffffffffffffffffffffffffffffffffffff00000000000000006005541617600555806006558260075581519384526020840152820152a180f35b50503461012657817ffffffffffffffffffffffffffffffffffffffffffffffffffffffffffffffffc360112610126576020906007549051908152f35b50503461012657817ffffffffffffffffffffffffffffffffffffffffffffffffffffffffffffffffc3601126101265751908152602090f35b90503461018757817ffffffffffffffffffffffffffffffffffffffffffffffffffffffffffffffffc360112610187578160209360ff926104c36107ef565b9035825281865273ffffffffffffffffffffffffffffffffffffffff83832091168252855220541690519015158152f35b50503461012657817ffffffffffffffffffffffffffffffffffffffffffffffffffffffffffffffffc36011261012657602090517fa49807205ce4d355092ef5a8a18f56e8913cf4a201fbe287825b095693c217758152f35b90503461018757827ffffffffffffffffffffffffffffffffffffffffffffffffffffffffffffffffc3601126101875760209250549051908152f35b83833461012657807ffffffffffffffffffffffffffffffffffffffffffffffffffffffffffffffffc360112610126576105c16107ef565b903373ffffffffffffffffffffffffffffffffffffffff8316036105eb5750610183919235610c9b565b8390517f6697b232000000000000000000000000000000000000000000000000000000008152fd5b50503461012657817ffffffffffffffffffffffffffffffffffffffffffffffffffffffffffffffffc360112610126576020906006549051908152f35b9190503461018757807ffffffffffffffffffffffffffffffffffffffffffffffffffffffffffffffffc360112610187576101839135610693600161016d6107ef565b610bf1565b9050346101875760207ffffffffffffffffffffffffffffffffffffffffffffffffffffffffffffffffc36011261018757816020936001923581528085522001549051908152f35b50503461012657817ffffffffffffffffffffffffffffffffffffffffffffffffffffffffffffffffc3601126101265760209073ffffffffffffffffffffffffffffffffffffffff600154169051908152f35b8491346101875760207ffffffffffffffffffffffffffffffffffffffffffffffffffffffffffffffffc36011261018757357fffffffff00000000000000000000000000000000000000000000000000000000811680910361018757602092507f7965db0b0000000000000000000000000000000000000000000000000000000081149081156107c5575b5015158152f35b7f01ffc9a700000000000000000000000000000000000000000000000000000000915014836107be565b6024359073ffffffffffffffffffffffffffffffffffffffff8216820361081257565b600080fd5b90601f7fffffffffffffffffffffffffffffffffffffffffffffffffffffffffffffffe0910116810190811067ffffffffffffffff82111761085857604052565b7f4e487b7100000000000000000000000000000000000000000000000000000000600052604160045260246000fd5b519067ffffffffffffffff8216820361081257565b519073ffffffffffffffffffffffffffffffffffffffff8216820361081257565b919082039182116108ca57565b7f4e487b7100000000000000000000000000000000000000000000000000000000600052601160045260246000fd5b73ffffffffffffffffffffffffffffffffffffffff806001541680610a8f575b50600254168061092a575b50600090565b60606004546024604051809481937f8eaa6ac000000000000000000000000000000000000000000000000000000000835260048301525afa8015610a83576000918291610a31575b5067ffffffffffffffff9081600554168015159182610a1a575b50509050610a145760075490811590811580610a09575b6109af575b5050610924565b82808211156109f9576109c1916108bd565b905b612710918281029281840414901517156108ca576006548084029384041417156108ca57116109f4573880806109a8565b600190565b90610a03916108bd565b906109c3565b5060065415156109a3565b50600190565b83160190508181116108ca5716421180388061098c565b9190506060823d606011610a7b575b81610a4d60609383610817565b81010312610a7857508051610a706040610a6960208501610887565b930161089c565b509038610972565b80fd5b3d9150610a40565b6040513d6000823e3d90fd5b60606003546024604051809481937f8eaa6ac000000000000000000000000000000000000000000000000000000000835260048301525afa908115610a8357600091610ae2575b5015610a145738610919565b6060813d606011610b30575b81610afb60609383610817565b81010312610126578051918215158303610a785750604081610b226020610b299401610887565b500161089c565b5038610ad6565b3d9150610aee565b3360009081527f7d7ffb7a348e1c6a02869081a26547b49160dd3df72d1d75a570eb9b698292ec60205260409020547fa49807205ce4d355092ef5a8a18f56e8913cf4a201fbe287825b095693c217759060ff1615610b945750565b604490604051907fe2517d3f0000000000000000000000000000000000000000000000000000000082523360048301526024820152fd5b80600052600060205260406000203360005260205260ff6040600020541615610b945750565b906000918083528260205273ffffffffffffffffffffffffffffffffffffffff6040842092169182845260205260ff60408420541615600014610c965780835282602052604083208284526020526040832060017fffffffffffffffffffffffffffffffffffffffffffffffffffffffffffffff008254161790557f2f8788117e7eff1d82e926ec794901d17c78024a50270940304540a733656f0d339380a4600190565b505090565b906000918083528260205273ffffffffffffffffffffffffffffffffffffffff6040842092169182845260205260ff604084205416600014610c96578083528260205260408320828452602052604083207fffffffffffffffffffffffffffffffffffffffffffffffffffffffffffffff0081541690557ff6391f5c32d9c69d2a47ea670b442974b53935d1edc7fd64eb21e047a839171b339380a460019056fea264697066735822122005cbec40ad509da7ca290e975e2e85da3f686635d0b679b4c55700793457d9bd64736f6c634300081800332f8788117e7eff1d82e926ec794901d17c78024a50270940304540a733656f0d","linkReferences":{}},"methodIdentifiers":{"ADMIN_ROLE()":"75b238fc","DEFAULT_ADMIN_ROLE()":"a217fddf","getRoleAdmin(bytes32)":"248a9ca3","grantRole(bytes32,address)":"2f2ff15d","hasRole(bytes32,address)":"91d14854","instrument()":"5767d534","isHalted()":"c7ff1584","maxNavAge()":"d3d86052","maxNavDriftBps()":"2f4580e1","nav()":"c1590cd7","por()":"08ae13bc","referenceNav18()":"a98e90af","renounceRole(bytes32,address)":"36568abe","reserveId()":"ea8d1f0a","revokeRole(bytes32,address)":"d547741f","setConfig(address,address,bytes32,bytes32)":"bf017f58","setThresholds(uint64,uint256,uint256)":"b9beed08","supportsInterface(bytes4)":"01ffc9a7"},"id":49}