{
  "_format": "hh-sol-artifact-1",
  "contractName": "Roles",
  "sourceName": "contracts/common/Roles.sol",
  "abi": [
    {
      "inputs": [],
      "name": "AUDITOR",
      "outputs": [
        {
          "internalType": "bytes32",
          "name": "",
          "type": "bytes32"
        }
      ],
      "stateMutability": "view",
      "type": "function"
    },
    {
      "inputs": [],
      "name": "BURNER",
      "outputs": [
        {
          "internalType": "bytes32",
          "name": "",
          "type": "bytes32"
        }
      ],
      "stateMutability": "view",
      "type": "function"
    },
    {
      "inputs": [],
      "name": "COMPLIANCE",
      "outputs": [
        {
          "internalType": "bytes32",
          "name": "",
          "type": "bytes32"
        }
      ],
      "stateMutability": "view",
      "type": "function"
    },
    {
      "inputs": [],
      "name": "GOVERNOR",
      "outputs": [
        {
          "internalType": "bytes32",
          "name": "",
          "type": "bytes32"
        }
      ],
      "stateMutability": "view",
      "type": "function"
    },
    {
      "inputs": [],
      "name": "GUARDIAN",
      "outputs": [
        {
          "internalType": "bytes32",
          "name": "",
          "type": "bytes32"
        }
      ],
      "stateMutability": "view",
      "type": "function"
    },
    {
      "inputs": [],
      "name": "MINTER",
      "outputs": [
        {
          "internalType": "bytes32",
          "name": "",
          "type": "bytes32"
        }
      ],
      "stateMutability": "view",
      "type": "function"
    },
    {
      "inputs": [],
      "name": "PRICE_FEED",
      "outputs": [
        {
          "internalType": "bytes32",
          "name": "",
          "type": "bytes32"
        }
      ],
      "stateMutability": "view",
      "type": "function"
    },
    {
      "inputs": [],
      "name": "PROOF_PROVIDER",
      "outputs": [
        {
          "internalType": "bytes32",
          "name": "",
          "type": "bytes32"
        }
      ],
      "stateMutability": "view",
      "type": "function"
    },
    {
      "inputs": [],
      "name": "TREASURER",
      "outputs": [
        {
          "internalType": "bytes32",
          "name": "",
          "type": "bytes32"
        }
      ],
      "stateMutability": "view",
      "type": "function"
    },
    {
      "inputs": [],
      "name": "UPGRADER",
      "outputs": [
        {
          "internalType": "bytes32",
          "name": "",
          "type": "bytes32"
        }
      ],
      "stateMutability": "view",
      "type": "function"
    }
  ],
  "bytecode": "0x6080806040523461001a576102db9081610020823930815050f35b600080fdfe60806040818152600436101561001457600080fd5b600091823560e01c908163118c4f13146102705750806331eb318a1461023b5780636dc0ae2214610206578063724c184c146101d157806372eab1931461019c578063930c83d5146101675780639b972d8b14610132578063aa375a8a146100fd578063fb1849ee146100c85763fe6d81241461009057600080fd5b816003193601126100c457602090517ff0887ba65ee2024ea881d91b74c2450ef19e1557f03bed3ea9f16b037cbe2dc98152f35b5080fd5b50816003193601126100c457602090517f8d9233e8f9e0681d692bebdd2fd8c8863336d587e831d84b9bff9f403d549b5f8152f35b50816003193601126100c457602090517fd8994f6d76f930dc5ea8c60e38e6334a87bb8539cc3082ac6828681c33316e3d8152f35b50816003193601126100c457602090517fc0735f38a6f04dde9c1eb54ecf45563aefb29f1c877131a80aa14ff3fcba58a78152f35b50816003193601126100c457602090517fa615a8afb6fffcb8c6809ac0997b5c9c12b8cc97651150f14c8f6203168cff4c8152f35b50816003193601126100c457602090517fa67a057d728d16e162a15912cbf6e8d4fcd69e5b7b0d1f849a0a10ca6e14741c8152f35b50816003193601126100c457602090517f8b5b16d04624687fcf0d0228f19993c9157c1ed07b41d8d430fd9100eb099fe88152f35b50816003193601126100c457602090517f1a6838efa4183e08fe3607359d1259272af9d4716f65e1a7b5921f78fd5a3c6a8152f35b50816003193601126100c457602090517f4fd3e0487a0382fb027c77b1ae4c563672c9fb30a74879855f0c86c376cf96ea8152f35b8390816003193601126100c457807f9667e80708b6eeeb0053fa0cca44e028ff548e2a9f029edfeac87c118b08b7c860209252f3fea2646970667358221220c252270fcbb175464ba1a919340f30b0d892a3cd15ff028527b4172693697a4864736f6c63430008180033",
  "linkReferences": {},
  "deployedLinkReferences": {}
}