{"abi":[{"type":"function","name":"DEFAULT_ADMIN_ROLE","inputs":[],"outputs":[{"name":"","type":"bytes32","internalType":"bytes32"}],"stateMutability":"view"},{"type":"function","name":"GOVERNOR_ROLE","inputs":[],"outputs":[{"name":"","type":"bytes32","internalType":"bytes32"}],"stateMutability":"view"},{"type":"function","name":"UPDATER_ROLE","inputs":[],"outputs":[{"name":"","type":"bytes32","internalType":"bytes32"}],"stateMutability":"view"},{"type":"function","name":"applyDelta","inputs":[{"name":"id","type":"bytes32","internalType":"bytes32"},{"name":"delta","type":"int256","internalType":"int256"}],"outputs":[],"stateMutability":"nonpayable"},{"type":"function","name":"etfDecimals","inputs":[],"outputs":[{"name":"","type":"uint8","internalType":"uint8"}],"stateMutability":"view"},{"type":"function","name":"etfFallback","inputs":[],"outputs":[{"name":"","type":"address","internalType":"address"}],"stateMutability":"view"},{"type":"function","name":"getRoleAdmin","inputs":[{"name":"role","type":"bytes32","internalType":"bytes32"}],"outputs":[{"name":"","type":"bytes32","internalType":"bytes32"}],"stateMutability":"view"},{"type":"function","name":"grantRole","inputs":[{"name":"role","type":"bytes32","internalType":"bytes32"},{"name":"account","type":"address","internalType":"address"}],"outputs":[],"stateMutability":"nonpayable"},{"type":"function","name":"hasRole","inputs":[{"name":"role","type":"bytes32","internalType":"bytes32"},{"name":"account","type":"address","internalType":"address"}],"outputs":[{"name":"","type":"bool","internalType":"bool"}],"stateMutability":"view"},{"type":"function","name":"ids","inputs":[{"name":"","type":"uint256","internalType":"uint256"}],"outputs":[{"name":"","type":"bytes32","internalType":"bytes32"}],"stateMutability":"view"},{"type":"function","name":"initialize","inputs":[{"name":"admin","type":"address","internalType":"address"},{"name":"governor","type":"address","internalType":"address"}],"outputs":[],"stateMutability":"nonpayable"},{"type":"function","name":"nav1e18","inputs":[],"outputs":[{"name":"nav","type":"uint256","internalType":"uint256"},{"name":"asOf","type":"uint64","internalType":"uint64"}],"stateMutability":"view"},{"type":"function","name":"positions","inputs":[{"name":"","type":"bytes32","internalType":"bytes32"}],"outputs":[{"name":"assetId","type":"bytes32","internalType":"bytes32"},{"name":"qty","type":"int256","internalType":"int256"},{"name":"adapter","type":"address","internalType":"address"}],"stateMutability":"view"},{"type":"function","name":"renounceRole","inputs":[{"name":"role","type":"bytes32","internalType":"bytes32"},{"name":"callerConfirmation","type":"address","internalType":"address"}],"outputs":[],"stateMutability":"nonpayable"},{"type":"function","name":"revokeRole","inputs":[{"name":"role","type":"bytes32","internalType":"bytes32"},{"name":"account","type":"address","internalType":"address"}],"outputs":[],"stateMutability":"nonpayable"},{"type":"function","name":"setFallback","inputs":[{"name":"agg","type":"address","internalType":"address"}],"outputs":[],"stateMutability":"nonpayable"},{"type":"function","name":"setPosition","inputs":[{"name":"id","type":"bytes32","internalType":"bytes32"},{"name":"assetId","type":"bytes32","internalType":"bytes32"},{"name":"qty","type":"int256","internalType":"int256"},{"name":"adapter","type":"address","internalType":"address"}],"outputs":[],"stateMutability":"nonpayable"},{"type":"function","name":"supportsInterface","inputs":[{"name":"interfaceId","type":"bytes4","internalType":"bytes4"}],"outputs":[{"name":"","type":"bool","internalType":"bool"}],"stateMutability":"view"},{"type":"event","name":"FallbackSet","inputs":[{"name":"agg","type":"address","indexed":false,"internalType":"address"},{"name":"decimals","type":"uint8","indexed":false,"internalType":"uint8"}],"anonymous":false},{"type":"event","name":"Initialized","inputs":[{"name":"version","type":"uint64","indexed":false,"internalType":"uint64"}],"anonymous":false},{"type":"event","name":"PositionDelta","inputs":[{"name":"id","type":"bytes32","indexed":true,"internalType":"bytes32"},{"name":"delta","type":"int256","indexed":false,"internalType":"int256"}],"anonymous":false},{"type":"event","name":"PositionSet","inputs":[{"name":"id","type":"bytes32","indexed":true,"internalType":"bytes32"},{"name":"assetId","type":"bytes32","indexed":false,"internalType":"bytes32"},{"name":"qty","type":"int256","indexed":false,"internalType":"int256"},{"name":"adapter","type":"address","indexed":false,"internalType":"address"}],"anonymous":false},{"type":"event","name":"RoleAdminChanged","inputs":[{"name":"role","type":"bytes32","indexed":true,"internalType":"bytes32"},{"name":"previousAdminRole","type":"bytes32","indexed":true,"internalType":"bytes32"},{"name":"newAdminRole","type":"bytes32","indexed":true,"internalType":"bytes32"}],"anonymous":false},{"type":"event","name":"RoleGranted","inputs":[{"name":"role","type":"bytes32","indexed":true,"internalType":"bytes32"},{"name":"account","type":"address","indexed":true,"internalType":"address"},{"name":"sender","type":"address","indexed":true,"internalType":"address"}],"anonymous":false},{"type":"event","name":"RoleRevoked","inputs":[{"name":"role","type":"bytes32","indexed":true,"internalType":"bytes32"},{"name":"account","type":"address","indexed":true,"internalType":"address"},{"name":"sender","type":"address","indexed":true,"internalType":"address"}],"anonymous":false},{"type":"error","name":"AccessControlBadConfirmation","inputs":[]},{"type":"error","name":"AccessControlUnauthorizedAccount","inputs":[{"name":"account","type":"address","internalType":"address"},{"name":"neededRole","type":"bytes32","internalType":"bytes32"}]},{"type":"error","name":"InvalidInitialization","inputs":[]},{"type":"error","name":"NotInitializing","inputs":[]}],"bytecode":{"object":"0x6080806040523461001657611899908161001c8239f35b600080fdfe6080604081815260048036101561001557600080fd5b600092833560e01c90816301ffc9a7146111d8575080630deb919314611195578063248a9ca31461112e5780632f2ff15d146110e757806332b12eac14610eba57806336568abe14610e2f57806347e6338014610dd6578063485cc95514610bf0578063514ea4bf14610b7e5780637526b89a1461065657806391d14854146105c7578063a217fddf1461058e578063bf567dab14610395578063ccc574901461033c578063d547741f146102c0578063e88551ed1461019c578063f3ffd1bc146101455763fac333ac146100e957600080fd5b346101415760207ffffffffffffffffffffffffffffffffffffffffffffffffffffffffffffffffc36011261014157359160015483101561013e57506101306020926112e0565b91905490519160031b1c8152f35b80fd5b8280fd5b50503461019857817ffffffffffffffffffffffffffffffffffffffffffffffffffffffffffffffffc3601126101985760209073ffffffffffffffffffffffffffffffffffffffff600254169051908152f35b5080fd5b503461014157817ffffffffffffffffffffffffffffffffffffffffffffffffffffffffffffffffc36011261014157803591602435916101da611429565b838552846020528185208054156102635760010180549184830192878685129112908015821691151617610237575055519081527f331afba49ebeb472620db1faf97d436af693b092e947bd70d581d64db5569a4590602090a280f35b8660116024927f4e487b7100000000000000000000000000000000000000000000000000000000835252fd5b50602060649251917f08c379a0000000000000000000000000000000000000000000000000000000008352820152600360248201527f706f7300000000000000000000000000000000000000000000000000000000006044820152fd5b50903461014157807ffffffffffffffffffffffffffffffffffffffffffffffffffffffffffffffffc3601126101415761033891356103336001610302611295565b938387527f02dd7bc7dec4dceedda775e58dd541e08a116c6c53815c0bd028192f7b626800602052862001546114bc565b6117a2565b5080f35b50503461019857817ffffffffffffffffffffffffffffffffffffffffffffffffffffffffffffffffc36011261019857602090517f7935bd0ae54bc31f548c14dba4d37c5c64b3f8ca900cb468fb8abd54d5894f558152f35b509190346101985760807ffffffffffffffffffffffffffffffffffffffffffffffffffffffffffffffffc36011261019857823590602435604435916064359073ffffffffffffffffffffffffffffffffffffffff968783169081840361058a576103fe611429565b8688528760205282882054156104cf575b50906104c992917ff5c4a3cb00f933ef67e51d970f63838d4f00bb1e96ee3630148cb8100b675b379697986002835161044781611346565b878152602081018981528582019485528b8d528c602052858d2091518255516001820155019151167fffffffffffffffffffffffff0000000000000000000000000000000000000000825416179055519384938491604091949373ffffffffffffffffffffffffffffffffffffffff9160608501968552602085015216910152565b0390a280f35b976001546801000000000000000081101561055e577ff5c4a3cb00f933ef67e51d970f63838d4f00bb1e96ee3630148cb8100b675b3797989950906105208260016104c997969594016001556112e0565b81549060031b907fffffffffffffffffffffffffffffffffffffffffffffffffffffffffffffffff8c831b921b19161790559897965090919261040f565b60248960418c7f4e487b7100000000000000000000000000000000000000000000000000000000835252fd5b8780fd5b50503461019857817ffffffffffffffffffffffffffffffffffffffffffffffffffffffffffffffffc3601126101985751908152602090f35b503461014157817ffffffffffffffffffffffffffffffffffffffffffffffffffffffffffffffffc360112610141578160209360ff92610605611295565b903582527f02dd7bc7dec4dceedda775e58dd541e08a116c6c53815c0bd028192f7b626800865273ffffffffffffffffffffffffffffffffffffffff83832091168252855220541690519015158152f35b5082903461019857817ffffffffffffffffffffffffffffffffffffffffffffffffffffffffffffffffc360112610198578167ffffffffffffffff918482600190600154905b8181106109375750505050831580610916575b6106f1575b505067ffffffffffffffff818116036106e2575067ffffffffffffffff8042165b8351928352166020820152f35b67ffffffffffffffff906106d5565b925090506002548351927ffeaf968c00000000000000000000000000000000000000000000000000000000845260a084828173ffffffffffffffffffffffffffffffffffffffff86165afa93841561090c57839084956108b9575b509160a01c60ff168260128210156107f1575060120360ff81116107c557610773906113e9565b91828102928184041490151715610799575067ffffffffffffffff905b921690846106b4565b8260116024927f4e487b7100000000000000000000000000000000000000000000000000000000835252fd5b6024846011847f4e487b7100000000000000000000000000000000000000000000000000000000835252fd5b9060128194939411610810575b505067ffffffffffffffff9150610790565b7fffffffffffffffffffffffffffffffffffffffffffffffffffffffffffffffee9192500160ff811161088d57610846906113e9565b91821561086157509067ffffffffffffffff910485806107fe565b8360126024927f4e487b7100000000000000000000000000000000000000000000000000000000835252fd5b6024846011857f4e487b7100000000000000000000000000000000000000000000000000000000835252fd5b94505060a0843d60a011610904575b816108d560a09383611391565b81010312610141576108e6846113d2565b5060208401516108fd6080606087015196016113d2565b508661074c565b3d91506108c8565b85513d85823e3d90fd5b5073ffffffffffffffffffffffffffffffffffffffff6002541615156106af565b90919296610944826112e0565b90549060031b1c865260208681528887209089519161096283611346565b80549283815273ffffffffffffffffffffffffffffffffffffffff600289840154938584019485520154169b8c9101528b8051809c81957f65a255c90000000000000000000000000000000000000000000000000000000083528b83015260249586915afa9a8b15610b745789928a9c610b27575b5050517f800000000000000000000000000000000000000000000000000000000000000091808202918a821284821416610afc578183051490151715610ad157670de0b6b3a7640000900590888212610a9157508201809211610a6757505b9667ffffffffffffffff871667ffffffffffffffff821610610a5f575b5082019087929161069c565b955082610a53565b866011877f4e487b7100000000000000000000000000000000000000000000000000000000835252fd5b8114610aa6578201918211610a675750610a36565b50866011877f4e487b7100000000000000000000000000000000000000000000000000000000835252fd5b828960118a7f4e487b7100000000000000000000000000000000000000000000000000000000835252fd5b848b60118c7f4e487b7100000000000000000000000000000000000000000000000000000000835252fd5b919b5091508b82813d8311610b6d575b610b418183611391565b81010312610b695781519101519067ffffffffffffffff82168203610b695790998c806109d7565b8880fd5b503d610b37565b8c513d8b823e3d90fd5b50346101415760207ffffffffffffffffffffffffffffffffffffffffffffffffffffffffffffffffc360112610141573582526020828152918190208054600182015460029092015492519081529283015273ffffffffffffffffffffffffffffffffffffffff166040820152606090f35b503461014157817ffffffffffffffffffffffffffffffffffffffffffffffffffffffffffffffffc36011261014157610c276112bd565b90610c30611295565b7ff0c57e16840df040f15088dc2f81fe391c3923bec73e23a9662efc9c229c6a009283549260ff84871c16159367ffffffffffffffff811680159081610dce575b6001149081610dc4575b159081610dbb575b50610d93578460017fffffffffffffffffffffffffffffffffffffffffffffffff00000000000000008316178755610d5e575b5060ff8554871c1615610d37575090610cd1610cd792611501565b506115de565b50610ce0578280f35b7fc7f505b2f371ae2175ee4913f4499e1f2633a7b5936321eed1cdaeb6115181d291817fffffffffffffffffffffffffffffffffffffffffffffff00ffffffffffffffff602093541690555160018152a138808280f35b85517fd7e6bcf8000000000000000000000000000000000000000000000000000000008152fd5b7fffffffffffffffffffffffffffffffffffffffffffffff000000000000000000166801000000000000000117855538610cb6565b5085517ff92ee8a9000000000000000000000000000000000000000000000000000000008152fd5b90501538610c83565b303b159150610c7b565b869150610c71565b50503461019857817ffffffffffffffffffffffffffffffffffffffffffffffffffffffffffffffffc36011261019857602090517f73e573f9566d61418a34d5de3ff49360f9c51fec37f7486551670290f6285dab8152f35b5091903461019857807ffffffffffffffffffffffffffffffffffffffffffffffffffffffffffffffffc36011261019857610e68611295565b903373ffffffffffffffffffffffffffffffffffffffff831603610e9257506103389192356117a2565b8390517f6697b232000000000000000000000000000000000000000000000000000000008152fd5b509034610141576020807ffffffffffffffffffffffffffffffffffffffffffffffffffffffffffffffffc3601126110e357610ef46112bd565b7f7935bd0ae54bc31f548c14dba4d37c5c64b3f8ca900cb468fb8abd54d5894f558086527f02dd7bc7dec4dceedda775e58dd541e08a116c6c53815c0bd028192f7b6268008352838620338752835260ff8487205416156110ad575073ffffffffffffffffffffffffffffffffffffffff169060025493827fffffffffffffffffffffffff000000000000000000000000000000000000000086161760025581845180927f313ce56700000000000000000000000000000000000000000000000000000000825281865afa9081156110a3578691611048575b507fc153f11cb7e75c7a2077f7e35e525c70289389fb9bba13cc36858f416057a61494837fffffffffffffffffffffff00000000000000000000000000000000000000000074ff000000000000000000000000000000000000000060ff9460a01b169216171780600255845193845260a01c1690820152a180f35b90508181813d831161109c575b61105f8183611391565b81010312611098575160ff81168103611098577fc153f11cb7e75c7a2077f7e35e525c70289389fb9bba13cc36858f416057a614610fcd565b8580fd5b503d611055565b84513d88823e3d90fd5b846044918551917fe2517d3f00000000000000000000000000000000000000000000000000000000835233908301526024820152fd5b8380fd5b50903461014157807ffffffffffffffffffffffffffffffffffffffffffffffffffffffffffffffffc3601126101415761033891356111296001610302611295565b6116dd565b50346101415760207ffffffffffffffffffffffffffffffffffffffffffffffffffffffffffffffffc36011261014157816020936001923581527f02dd7bc7dec4dceedda775e58dd541e08a116c6c53815c0bd028192f7b62680085522001549051908152f35b50503461019857817ffffffffffffffffffffffffffffffffffffffffffffffffffffffffffffffffc3601126101985760209060ff60025460a01c169051908152f35b925050346101415760207ffffffffffffffffffffffffffffffffffffffffffffffffffffffffffffffffc36011261014157357fffffffff00000000000000000000000000000000000000000000000000000000811680910361014157602092507f7965db0b00000000000000000000000000000000000000000000000000000000811490811561126b575b5015158152f35b7f01ffc9a70000000000000000000000000000000000000000000000000000000091501438611264565b6024359073ffffffffffffffffffffffffffffffffffffffff821682036112b857565b600080fd5b6004359073ffffffffffffffffffffffffffffffffffffffff821682036112b857565b6001548110156113175760016000527fb10e2d527612073b26eecdfd717e6a320cf44b4afac2b0732d9fcbe2b7fa0cf60190600090565b7f4e487b7100000000000000000000000000000000000000000000000000000000600052603260045260246000fd5b6060810190811067ffffffffffffffff82111761136257604052565b7f4e487b7100000000000000000000000000000000000000000000000000000000600052604160045260246000fd5b90601f7fffffffffffffffffffffffffffffffffffffffffffffffffffffffffffffffe0910116810190811067ffffffffffffffff82111761136257604052565b519069ffffffffffffffffffff821682036112b857565b60ff16604d81116113fa57600a0a90565b7f4e487b7100000000000000000000000000000000000000000000000000000000600052601160045260246000fd5b3360009081527f268477d1c17bf7595397186358fec802c44c92bb39292de205ad03cbfe096e0260205260409020547f73e573f9566d61418a34d5de3ff49360f9c51fec37f7486551670290f6285dab9060ff16156114855750565b604490604051907fe2517d3f0000000000000000000000000000000000000000000000000000000082523360048301526024820152fd5b806000527f02dd7bc7dec4dceedda775e58dd541e08a116c6c53815c0bd028192f7b62680060205260406000203360005260205260ff60406000205416156114855750565b73ffffffffffffffffffffffffffffffffffffffff1660008181527fb7db2dd08fcb62d0c9e08c51941cae53c267786a0b75803fb7960902fc8ef97d60205260408120549091907f02dd7bc7dec4dceedda775e58dd541e08a116c6c53815c0bd028192f7b6268009060ff166115d957828052602052604082208183526020526040822060017fffffffffffffffffffffffffffffffffffffffffffffffffffffffffffffff0082541617905533917f2f8788117e7eff1d82e926ec794901d17c78024a50270940304540a733656f0d8180a4600190565b505090565b73ffffffffffffffffffffffffffffffffffffffff1660008181527f75e09417c5070057df3eafe5054d52fa0b2a87d64a235e197963b615aedee80360205260408120549091907f7935bd0ae54bc31f548c14dba4d37c5c64b3f8ca900cb468fb8abd54d5894f55907f02dd7bc7dec4dceedda775e58dd541e08a116c6c53815c0bd028192f7b6268009060ff166116d757818452602052604083208284526020526040832060017fffffffffffffffffffffffffffffffffffffffffffffffffffffffffffffff008254161790557f2f8788117e7eff1d82e926ec794901d17c78024a50270940304540a733656f0d339380a4600190565b50505090565b906000918083527f02dd7bc7dec4dceedda775e58dd541e08a116c6c53815c0bd028192f7b6268008060205273ffffffffffffffffffffffffffffffffffffffff6040852093169283855260205260ff604085205416156000146116d757818452602052604083208284526020526040832060017fffffffffffffffffffffffffffffffffffffffffffffffffffffffffffffff008254161790557f2f8788117e7eff1d82e926ec794901d17c78024a50270940304540a733656f0d339380a4600190565b906000918083527f02dd7bc7dec4dceedda775e58dd541e08a116c6c53815c0bd028192f7b6268008060205273ffffffffffffffffffffffffffffffffffffffff6040852093169283855260205260ff6040852054166000146116d75781845260205260408320828452602052604083207fffffffffffffffffffffffffffffffffffffffffffffffffffffffffffffff0081541690557ff6391f5c32d9c69d2a47ea670b442974b53935d1edc7fd64eb21e047a839171b339380a460019056fea2646970667358221220ccd591f89112876835d019a68c15cf3ed95c89c9e20f37ff98b03c0e6a17521364736f6c63430008180033","linkReferences":{}},"methodIdentifiers":{"DEFAULT_ADMIN_ROLE()":"a217fddf","GOVERNOR_ROLE()":"ccc57490","UPDATER_ROLE()":"47e63380","applyDelta(bytes32,int256)":"e88551ed","etfDecimals()":"0deb9193","etfFallback()":"f3ffd1bc","getRoleAdmin(bytes32)":"248a9ca3","grantRole(bytes32,address)":"2f2ff15d","hasRole(bytes32,address)":"91d14854","ids(uint256)":"fac333ac","initialize(address,address)":"485cc955","nav1e18()":"7526b89a","positions(bytes32)":"514ea4bf","renounceRole(bytes32,address)":"36568abe","revokeRole(bytes32,address)":"d547741f","setFallback(address)":"32b12eac","setPosition(bytes32,bytes32,int256,address)":"bf567dab","supportsInterface(bytes4)":"01ffc9a7"},"id":21}