{"abi":[{"type":"constructor","inputs":[{"name":"_threshold","type":"uint256","internalType":"uint256"}],"stateMutability":"nonpayable"},{"type":"function","name":"deactivateVASP","inputs":[{"name":"vasp","type":"address","internalType":"address"}],"outputs":[],"stateMutability":"nonpayable"},{"type":"function","name":"enforceTravelRule","inputs":[{"name":"txHash","type":"bytes32","internalType":"bytes32"},{"name":"originator","type":"address","internalType":"address"},{"name":"beneficiary","type":"address","internalType":"address"},{"name":"amount","type":"uint256","internalType":"uint256"}],"outputs":[{"name":"compliant","type":"bool","internalType":"bool"},{"name":"reason","type":"string","internalType":"string"}],"stateMutability":"view"},{"type":"function","name":"getTravelRuleData","inputs":[{"name":"txHash","type":"bytes32","internalType":"bytes32"}],"outputs":[{"name":"","type":"tuple","internalType":"struct TravelRuleEngine.TravelRuleData","components":[{"name":"originator","type":"address","internalType":"address"},{"name":"beneficiary","type":"address","internalType":"address"},{"name":"originatorInfo","type":"string","internalType":"string"},{"name":"beneficiaryInfo","type":"string","internalType":"string"},{"name":"amount","type":"uint256","internalType":"uint256"},{"name":"currency","type":"string","internalType":"string"},{"name":"timestamp","type":"uint256","internalType":"uint256"},{"name":"reported","type":"bool","internalType":"bool"}]}],"stateMutability":"view"},{"type":"function","name":"isReported","inputs":[{"name":"txHash","type":"bytes32","internalType":"bytes32"}],"outputs":[{"name":"","type":"bool","internalType":"bool"}],"stateMutability":"view"},{"type":"function","name":"isVASP","inputs":[{"name":"","type":"address","internalType":"address"}],"outputs":[{"name":"","type":"bool","internalType":"bool"}],"stateMutability":"view"},{"type":"function","name":"owner","inputs":[],"outputs":[{"name":"","type":"address","internalType":"address"}],"stateMutability":"view"},{"type":"function","name":"registerVASP","inputs":[{"name":"vasp","type":"address","internalType":"address"},{"name":"name","type":"string","internalType":"string"},{"name":"jurisdiction","type":"string","internalType":"string"},{"name":"licenseHash","type":"bytes32","internalType":"bytes32"}],"outputs":[],"stateMutability":"nonpayable"},{"type":"function","name":"renounceOwnership","inputs":[],"outputs":[],"stateMutability":"nonpayable"},{"type":"function","name":"reportTransaction","inputs":[{"name":"txHash","type":"bytes32","internalType":"bytes32"},{"name":"originator","type":"address","internalType":"address"},{"name":"beneficiary","type":"address","internalType":"address"},{"name":"originatorInfo","type":"string","internalType":"string"},{"name":"beneficiaryInfo","type":"string","internalType":"string"},{"name":"amount","type":"uint256","internalType":"uint256"},{"name":"currency","type":"string","internalType":"string"}],"outputs":[],"stateMutability":"nonpayable"},{"type":"function","name":"requiresTravelRule","inputs":[{"name":"amount","type":"uint256","internalType":"uint256"}],"outputs":[{"name":"","type":"bool","internalType":"bool"}],"stateMutability":"view"},{"type":"function","name":"setTravelRuleThreshold","inputs":[{"name":"newThreshold","type":"uint256","internalType":"uint256"}],"outputs":[],"stateMutability":"nonpayable"},{"type":"function","name":"transferOwnership","inputs":[{"name":"newOwner","type":"address","internalType":"address"}],"outputs":[],"stateMutability":"nonpayable"},{"type":"function","name":"travelRuleReports","inputs":[{"name":"","type":"bytes32","internalType":"bytes32"}],"outputs":[{"name":"originator","type":"address","internalType":"address"},{"name":"beneficiary","type":"address","internalType":"address"},{"name":"originatorInfo","type":"string","internalType":"string"},{"name":"beneficiaryInfo","type":"string","internalType":"string"},{"name":"amount","type":"uint256","internalType":"uint256"},{"name":"currency","type":"string","internalType":"string"},{"name":"timestamp","type":"uint256","internalType":"uint256"},{"name":"reported","type":"bool","internalType":"bool"}],"stateMutability":"view"},{"type":"function","name":"travelRuleThreshold","inputs":[],"outputs":[{"name":"","type":"uint256","internalType":"uint256"}],"stateMutability":"view"},{"type":"function","name":"vasps","inputs":[{"name":"","type":"address","internalType":"address"}],"outputs":[{"name":"name","type":"string","internalType":"string"},{"name":"jurisdiction","type":"string","internalType":"string"},{"name":"licenseHash","type":"bytes32","internalType":"bytes32"},{"name":"active","type":"bool","internalType":"bool"},{"name":"registeredAt","type":"uint256","internalType":"uint256"}],"stateMutability":"view"},{"type":"event","name":"OwnershipTransferred","inputs":[{"name":"previousOwner","type":"address","indexed":true,"internalType":"address"},{"name":"newOwner","type":"address","indexed":true,"internalType":"address"}],"anonymous":false},{"type":"event","name":"TravelRuleReported","inputs":[{"name":"txHash","type":"bytes32","indexed":true,"internalType":"bytes32"},{"name":"originator","type":"address","indexed":true,"internalType":"address"},{"name":"beneficiary","type":"address","indexed":true,"internalType":"address"},{"name":"amount","type":"uint256","indexed":false,"internalType":"uint256"}],"anonymous":false},{"type":"event","name":"TravelRuleThresholdUpdated","inputs":[{"name":"oldThreshold","type":"uint256","indexed":false,"internalType":"uint256"},{"name":"newThreshold","type":"uint256","indexed":false,"internalType":"uint256"}],"anonymous":false},{"type":"event","name":"TravelRuleViolation","inputs":[{"name":"txHash","type":"bytes32","indexed":true,"internalType":"bytes32"},{"name":"violator","type":"address","indexed":true,"internalType":"address"},{"name":"reason","type":"string","indexed":false,"internalType":"string"}],"anonymous":false},{"type":"event","name":"VASPDeactivated","inputs":[{"name":"vasp","type":"address","indexed":true,"internalType":"address"}],"anonymous":false},{"type":"event","name":"VASPRegistered","inputs":[{"name":"vasp","type":"address","indexed":true,"internalType":"address"},{"name":"name","type":"string","indexed":false,"internalType":"string"},{"name":"jurisdiction","type":"string","indexed":false,"internalType":"string"}],"anonymous":false},{"type":"error","name":"OwnableInvalidOwner","inputs":[{"name":"owner","type":"address","internalType":"address"}]},{"type":"error","name":"OwnableUnauthorizedAccount","inputs":[{"name":"account","type":"address","internalType":"address"}]},{"type":"error","name":"ReentrancyGuardReentrantCall","inputs":[]}],"bytecode":{"object":"0x6080346100ba57601f611f5338819003918201601f19168301916001600160401b038311848410176100bf578084926020946040528339810103126100ba575133156100a15760008054336001600160a01b0319821681178355604051939290916001600160a01b0316907f8be0079c531659141344cd1fd0a4f28419497f9722a3daafe3b4186f6b6457e09080a360018055600255611e7d90816100d68239f35b604051631e4fbdf760e01b815260006004820152602490fd5b600080fd5b634e487b7160e01b600052604160045260246000fdfe608080604052600436101561001357600080fd5b60003560e01c9081630787416a146118ab575080631e1f1d1c1461184157806323c7268e146117195780633e11f89d1461157157806366002875146114ff57806369c4058c146114be5780636ce3894d146113fc578063715018a6146113605780638da5cb5b1461130e578063a518e48e1461121a578063a63b3f2e146111de578063c15c5e93146108a6578063e1b84b301461021c578063f2fde38b1461013a5763fbcef144146100c457600080fd5b346101355760807ffffffffffffffffffffffffffffffffffffffffffffffffffffffffffffffffc360112610135576101126100fe61191c565b61010661193f565b60643591600435611c23565b9061013160405192839215158352604060208401526040830190611962565b0390f35b600080fd5b346101355760207ffffffffffffffffffffffffffffffffffffffffffffffffffffffffffffffffc360112610135576101716118f9565b610179611df6565b73ffffffffffffffffffffffffffffffffffffffff8091169081156101eb57600054827fffffffffffffffffffffffff0000000000000000000000000000000000000000821617600055167f8be0079c531659141344cd1fd0a4f28419497f9722a3daafe3b4186f6b6457e0600080a3005b60246040517f1e4fbdf700000000000000000000000000000000000000000000000000000000815260006004820152fd5b346101355760807ffffffffffffffffffffffffffffffffffffffffffffffffffffffffffffffffc360112610135576102536118f9565b60243567ffffffffffffffff811161013557610273903690600401611b51565b919060443567ffffffffffffffff811161013557610295903690600401611b51565b9390926102a0611df6565b73ffffffffffffffffffffffffffffffffffffffff8116156108485773ffffffffffffffffffffffffffffffffffffffff8116600052600460205260ff604060002054166107ea576040519460a0860186811067ffffffffffffffff82111761069a57604052610311368486611b7f565b865261031e368287611b7f565b602087015260643560408701526001606087015242608087015273ffffffffffffffffffffffffffffffffffffffff821660005260036020526040600020865180519067ffffffffffffffff821161069a57819061037c84546119c0565b601f811161079a575b50602090601f83116001146106d4576000926106c9575b50507fffffffffffffffffffffffffffffffffffffffffffffffffffffffffffffffff8260011b9260031b1c19161781555b602087015196875167ffffffffffffffff811161069a576103f260018401546119c0565b601f8111610653575b506020601f821160011461055d5761054d95949392826004936080937fdd6592b2cd729aac456de2f3d853589313fb7e69bbf1bcc89686952c2eb368529c9d600092610552575b50507fffffffffffffffffffffffffffffffffffffffffffffffffffffffffffffffff8260011b9260031b1c19161760018501555b604081015160028501556104bf60608201511515600386019060ff7fffffffffffffffffffffffffffffffffffffffffffffffffffffffffffffff0083541691151516179055565b015191015573ffffffffffffffffffffffffffffffffffffffff82166000526004602052604060002060017fffffffffffffffffffffffffffffffffffffffffffffffffffffffffffffff0082541617905573ffffffffffffffffffffffffffffffffffffffff61053d604051968796604088526040880191611be4565b9285840360208701521696611be4565b0390a2005b015190508d80610442565b6001840160005260206000209960005b7fffffffffffffffffffffffffffffffffffffffffffffffffffffffffffffffe08416811061063b5750926001837fdd6592b2cd729aac456de2f3d853589313fb7e69bbf1bcc89686952c2eb368529b9c60809461054d9a999897837fffffffffffffffffffffffffffffffffffffffffffffffffffffffffffffffe06004991610610604575b505050811b016001850155610477565b01517fffffffffffffffffffffffffffffffffffffffffffffffffffffffffffffffff60f88460031b161c191690558d80806105f4565b828201518c556001909b019a6020928301920161056d565b600184016000526020600020601f830160051c810160208410610693575b601f830160051c820181106106875750506103fb565b60008155600101610671565b5080610671565b7f4e487b7100000000000000000000000000000000000000000000000000000000600052604160045260246000fd5b01519050898061039c565b9250836000526020600020906000935b7fffffffffffffffffffffffffffffffffffffffffffffffffffffffffffffffe08416851061077f5760019450837fffffffffffffffffffffffffffffffffffffffffffffffffffffffffffffffe0811610610748575b505050811b0181556103ce565b01517fffffffffffffffffffffffffffffffffffffffffffffffffffffffffffffffff60f88460031b161c1916905589808061073b565b818101518355602094850194600190930192909101906106e4565b909150836000526020600020601f840160051c8101602085106107e3575b90849392915b601f830160051c820181106107d4575050610385565b600081558594506001016107be565b50806107b8565b60646040517f08c379a000000000000000000000000000000000000000000000000000000000815260206004820152601760248201527f5452453a20416c726561647920726567697374657265640000000000000000006044820152fd5b60646040517f08c379a000000000000000000000000000000000000000000000000000000000815260206004820152600660248201527f5452453a203000000000000000000000000000000000000000000000000000006044820152fd5b346101355760e07ffffffffffffffffffffffffffffffffffffffffffffffffffffffffffffffffc360112610135576108dd61191c565b6108e561193f565b60643567ffffffffffffffff811161013557610905903690600401611b51565b9060843567ffffffffffffffff811161013557610926903690600401611b51565b9160c43567ffffffffffffffff811161013557610947903690600401611b51565b9190926002600154146111b457600260015533600052600460205260ff60406000205416156111565733600052600360205260ff60036040600020015416156110f85760025460a4351061109a57600435600052600560205260066040600020015461103c57610a2194610a01610a0d93604051986109c58a611a13565b73ffffffffffffffffffffffffffffffffffffffff8c168a5273ffffffffffffffffffffffffffffffffffffffff8b1660208b01523691611b7f565b60408801523691611b7f565b606085015260a43560808501523691611b7f565b60a08201524260c0820152600160e0820152600435600052600560205260406000209073ffffffffffffffffffffffffffffffffffffffff8151167fffffffffffffffffffffffff00000000000000000000000000000000000000009081845416178355600183019073ffffffffffffffffffffffffffffffffffffffff60208401511690825416179055604081015180519067ffffffffffffffff821161069a578190610ad260028601546119c0565b601f8111610fe9575b50602090601f8311600114610f1d57600092610f12575b50507fffffffffffffffffffffffffffffffffffffffffffffffffffffffffffffffff8260011b9260031b1c19161760028301555b606081015180519067ffffffffffffffff821161069a578190610b4d60038601546119c0565b601f8111610ebf575b50602090601f8311600114610df357600092610de8575b50507fffffffffffffffffffffffffffffffffffffffffffffffffffffffffffffffff8260011b9260031b1c19161760038301555b6080810151600483015560a081015180519067ffffffffffffffff821161069a57610bd060058501546119c0565b601f8111610da1575b50602090601f8311600114610cce57928260079360e093610c729796600092610cc3575b50507fffffffffffffffffffffffffffffffffffffffffffffffffffffffffffffffff8260011b9260031b1c19161760058501555b60c081015160068501550151151591019060ff7fffffffffffffffffffffffffffffffffffffffffffffffffffffffffffffff0083541691151516179055565b73ffffffffffffffffffffffffffffffffffffffff806040519260a4358452169216907f022c79040fc1b33d579512496bbabaef85ecc5d8b1d72e8b40c1a1a93f7387ea602060043592a460018055005b015190508980610bfd565b906005850160005260206000209160005b7fffffffffffffffffffffffffffffffffffffffffffffffffffffffffffffffe085168110610d8957508360e093610c72979693600193837fffffffffffffffffffffffffffffffffffffffffffffffffffffffffffffffe06007991610610d52575b505050811b016005850155610c32565b01517fffffffffffffffffffffffffffffffffffffffffffffffffffffffffffffffff60f88460031b161c19169055898080610d42565b91926020600181928685015181550194019201610cdf565b600585016000526020600020601f840160051c810160208510610de1575b601f830160051c82018110610dd5575050610bd9565b60008155600101610dbf565b5080610dbf565b015190508680610b6d565b9250600385016000526020600020906000935b7fffffffffffffffffffffffffffffffffffffffffffffffffffffffffffffffe084168510610ea45760019450837fffffffffffffffffffffffffffffffffffffffffffffffffffffffffffffffe0811610610e6d575b505050811b016003830155610ba2565b01517fffffffffffffffffffffffffffffffffffffffffffffffffffffffffffffffff60f88460031b161c19169055868080610e5d565b81810151835560209485019460019093019290910190610e06565b909150600385016000526020600020601f840160051c810160208510610f0b575b90849392915b601f830160051c82018110610efc575050610b56565b60008155859450600101610ee6565b5080610ee0565b015190508680610af2565b9250600285016000526020600020906000935b7fffffffffffffffffffffffffffffffffffffffffffffffffffffffffffffffe084168510610fce5760019450837fffffffffffffffffffffffffffffffffffffffffffffffffffffffffffffffe0811610610f97575b505050811b016002830155610b27565b01517fffffffffffffffffffffffffffffffffffffffffffffffffffffffffffffffff60f88460031b161c19169055868080610f87565b81810151835560209485019460019093019290910190610f30565b909150600285016000526020600020601f840160051c810160208510611035575b90849392915b601f830160051c82018110611026575050610adb565b60008155859450600101611010565b508061100a565b60646040517f08c379a000000000000000000000000000000000000000000000000000000000815260206004820152601560248201527f5452453a20416c7265616479207265706f7274656400000000000000000000006044820152fd5b60646040517f08c379a000000000000000000000000000000000000000000000000000000000815260206004820152601460248201527f5452453a2042656c6f77207468726573686f6c640000000000000000000000006044820152fd5b60646040517f08c379a000000000000000000000000000000000000000000000000000000000815260206004820152601260248201527f5452453a205641535020696e61637469766500000000000000000000000000006044820152fd5b60646040517f08c379a000000000000000000000000000000000000000000000000000000000815260206004820152600d60248201527f5452453a204e6f742056415350000000000000000000000000000000000000006044820152fd5b60046040517f3ee5aeb5000000000000000000000000000000000000000000000000000000008152fd5b346101355760007ffffffffffffffffffffffffffffffffffffffffffffffffffffffffffffffffc360112610135576020600254604051908152f35b346101355760207ffffffffffffffffffffffffffffffffffffffffffffffffffffffffffffffffc360112610135576004356000526005602052604060002073ffffffffffffffffffffffffffffffffffffffff9081815416916001820154169061128760028201611a8d565b6112fd61129660038401611a8d565b6004840154906112ea6112ab60058701611a8d565b916112dc60ff600760068a015499015416966040519a8b9a610100918c5260208c01528060408c01528a0190611962565b9088820360608a0152611962565b91608087015285820360a0870152611962565b9160c0840152151560e08301520390f35b346101355760007ffffffffffffffffffffffffffffffffffffffffffffffffffffffffffffffffc36011261013557602073ffffffffffffffffffffffffffffffffffffffff60005416604051908152f35b346101355760007ffffffffffffffffffffffffffffffffffffffffffffffffffffffffffffffffc36011261013557611397611df6565b600073ffffffffffffffffffffffffffffffffffffffff81547fffffffffffffffffffffffff000000000000000000000000000000000000000081168355167f8be0079c531659141344cd1fd0a4f28419497f9722a3daafe3b4186f6b6457e08280a3005b346101355760207ffffffffffffffffffffffffffffffffffffffffffffffffffffffffffffffffc3601126101355773ffffffffffffffffffffffffffffffffffffffff6114486118f9565b16600052600360205261149a604060002061146281611a8d565b9061146f60018201611a8d565b6002820154916114a8600460ff6003840154169201549260405196879660a0885260a0880190611962565b908682036020880152611962565b9260408501521515606084015260808301520390f35b346101355760207ffffffffffffffffffffffffffffffffffffffffffffffffffffffffffffffffc3601126101355760206002546004351015604051908152f35b346101355760207ffffffffffffffffffffffffffffffffffffffffffffffffffffffffffffffffc360112610135577f1f05fb6a80d10460ee898cd6bfc85864992e1fb5b8e4c6aaf8059bc37306fd49604060043561155c611df6565b600254908060025582519182526020820152a1005b34610135576020807ffffffffffffffffffffffffffffffffffffffffffffffffffffffffffffffffc360112610135576040516115ad81611a13565b60008152600082820152600060e060609283604082015283808201528260808201528360a08201528260c08201520152600435600052600582526040600020604051916115f983611a13565b73ffffffffffffffffffffffffffffffffffffffff928383541681526117078385600182015416878401908152836116f06116bc61163960028601611a8d565b604084019081528a61164d60038801611a8d565b958a860196875260ff6007600660048b01549a60808a019b8c5260a061167560058301611a8d565b9a01998a5201549d60c08d019e8f520154169960e081019a15158b526040519e8f9e8f928284525116910152511660408c01525161010080998c01526101208b0190611962565b9251927fffffffffffffffffffffffffffffffffffffffffffffffffffffffffffffffe093848b83030160808c0152611962565b925160a089015251908783030160c0880152611962565b925160e0850152511515908301520390f35b346101355760207ffffffffffffffffffffffffffffffffffffffffffffffffffffffffffffffffc3601126101355773ffffffffffffffffffffffffffffffffffffffff6117656118f9565b61176d611df6565b1680600052600460205260ff60406000205416156117e35780600052600360205260036040600020017fffffffffffffffffffffffffffffffffffffffffffffffffffffffffffffff0081541690557f9d91315c1b6f13edc9fab98fe3f016e0cc5baeb05a604728cb483fa375aea1b6600080a2005b60646040517f08c379a000000000000000000000000000000000000000000000000000000000815260206004820152601360248201527f5452453a204e6f742072656769737465726564000000000000000000000000006044820152fd5b346101355760207ffffffffffffffffffffffffffffffffffffffffffffffffffffffffffffffffc3601126101355773ffffffffffffffffffffffffffffffffffffffff61188d6118f9565b166000526004602052602060ff604060002054166040519015158152f35b346101355760207ffffffffffffffffffffffffffffffffffffffffffffffffffffffffffffffffc360112610135576020906004356000526005825260ff6007604060002001541615158152f35b6004359073ffffffffffffffffffffffffffffffffffffffff8216820361013557565b6024359073ffffffffffffffffffffffffffffffffffffffff8216820361013557565b6044359073ffffffffffffffffffffffffffffffffffffffff8216820361013557565b919082519283825260005b8481106119ac5750507fffffffffffffffffffffffffffffffffffffffffffffffffffffffffffffffe0601f8460006020809697860101520116010190565b60208183018101518483018201520161196d565b90600182811c92168015611a09575b60208310146119da57565b7f4e487b7100000000000000000000000000000000000000000000000000000000600052602260045260246000fd5b91607f16916119cf565b610100810190811067ffffffffffffffff82111761069a57604052565b6040810190811067ffffffffffffffff82111761069a57604052565b90601f7fffffffffffffffffffffffffffffffffffffffffffffffffffffffffffffffe0910116810190811067ffffffffffffffff82111761069a57604052565b90604051918260008254611aa0816119c0565b90818452602094600191600181169081600014611b105750600114611ad1575b505050611acf92500383611a4c565b565b600090815285812095935091905b818310611af8575050611acf9350820101388080611ac0565b85548884018501529485019487945091830191611adf565b915050611acf9593507fffffffffffffffffffffffffffffffffffffffffffffffffffffffffffffff0091501682840152151560051b820101388080611ac0565b9181601f840112156101355782359167ffffffffffffffff8311610135576020838186019501011161013557565b92919267ffffffffffffffff821161069a5760405191611bc760207fffffffffffffffffffffffffffffffffffffffffffffffffffffffffffffffe0601f8401160184611a4c565b829481845281830111610135578281602093846000960137010152565b601f82602094937fffffffffffffffffffffffffffffffffffffffffffffffffffffffffffffffe0938186528686013760008582860101520116010190565b939260025411611db7576000908482526020926005845260409560ff600788862001541615611d7c5783526005845285832091865190611c6282611a13565b73ffffffffffffffffffffffffffffffffffffffff80809381875416815260ff60078360018a015416988b8401998a528d611c9f60028301611a8d565b90850152611caf60038201611a8d565b606085015260048101546080850152611cca60058201611a8d565b60a0850152600681015460c0850152015416151560e0820152511691161492831593611d6a575b505050611d3257507f436f6d706c69616e7400000000000000000000000000000000000000000000006001935191611d2883611a30565b6009835282015290565b7f4f726967696e61746f722f62656e6566696369617279206d69736d617463680090935191611d6083611a30565b601f835282015290565b81929350511691161415388080611cf1565b5050507f54726176656c2072756c65206e6f74207265706f72746564000000000000000090935191611dad83611a30565b6018835282015290565b505060405160019250611dc981611a30565b600f81527f42656c6f77207468726573686f6c640000000000000000000000000000000000602082015290565b73ffffffffffffffffffffffffffffffffffffffff600054163303611e1757565b60246040517f118cdaa7000000000000000000000000000000000000000000000000000000008152336004820152fdfea2646970667358221220e0bf285f83126718ab66c716ddf2da988db9b921e18456cae4efc32db187f13564736f6c63430008180033","linkReferences":{}},"methodIdentifiers":{"deactivateVASP(address)":"23c7268e","enforceTravelRule(bytes32,address,address,uint256)":"fbcef144","getTravelRuleData(bytes32)":"3e11f89d","isReported(bytes32)":"0787416a","isVASP(address)":"1e1f1d1c","owner()":"8da5cb5b","registerVASP(address,string,string,bytes32)":"e1b84b30","renounceOwnership()":"715018a6","reportTransaction(bytes32,address,address,string,string,uint256,string)":"c15c5e93","requiresTravelRule(uint256)":"69c4058c","setTravelRuleThreshold(uint256)":"66002875","transferOwnership(address)":"f2fde38b","travelRuleReports(bytes32)":"a518e48e","travelRuleThreshold()":"a63b3f2e","vasps(address)":"6ce3894d"},"id":10}