{
  "_format": "hh-sol-artifact-1",
  "contractName": "StablecoinRegistry",
  "sourceName": "contracts/settlement/stable/StablecoinRegistry.sol",
  "abi": [
    {
      "inputs": [
        {
          "internalType": "address",
          "name": "_admin",
          "type": "address"
        }
      ],
      "stateMutability": "nonpayable",
      "type": "constructor"
    },
    {
      "anonymous": false,
      "inputs": [
        {
          "indexed": true,
          "internalType": "address",
          "name": "from",
          "type": "address"
        },
        {
          "indexed": true,
          "internalType": "address",
          "name": "to",
          "type": "address"
        }
      ],
      "name": "AdminTransferred",
      "type": "event"
    },
    {
      "anonymous": false,
      "inputs": [
        {
          "indexed": true,
          "internalType": "address",
          "name": "token",
          "type": "address"
        },
        {
          "components": [
            {
              "internalType": "bool",
              "name": "supported",
              "type": "bool"
            },
            {
              "internalType": "bytes32",
              "name": "reserveId",
              "type": "bytes32"
            },
            {
              "internalType": "address",
              "name": "por",
              "type": "address"
            },
            {
              "internalType": "uint16",
              "name": "minReserveRatioBps",
              "type": "uint16"
            },
            {
              "internalType": "bytes32",
              "name": "defaultRailKey",
              "type": "bytes32"
            },
            {
              "internalType": "bytes32",
              "name": "cctpRailKey",
              "type": "bytes32"
            },
            {
              "internalType": "bytes32",
              "name": "ccipRailKey",
              "type": "bytes32"
            }
          ],
          "indexed": false,
          "internalType": "struct StablecoinRegistry.Meta",
          "name": "meta",
          "type": "tuple"
        }
      ],
      "name": "StablecoinSet",
      "type": "event"
    },
    {
      "inputs": [],
      "name": "admin",
      "outputs": [
        {
          "internalType": "address",
          "name": "",
          "type": "address"
        }
      ],
      "stateMutability": "view",
      "type": "function"
    },
    {
      "inputs": [
        {
          "internalType": "address",
          "name": "token",
          "type": "address"
        }
      ],
      "name": "get",
      "outputs": [
        {
          "components": [
            {
              "internalType": "bool",
              "name": "supported",
              "type": "bool"
            },
            {
              "internalType": "bytes32",
              "name": "reserveId",
              "type": "bytes32"
            },
            {
              "internalType": "address",
              "name": "por",
              "type": "address"
            },
            {
              "internalType": "uint16",
              "name": "minReserveRatioBps",
              "type": "uint16"
            },
            {
              "internalType": "bytes32",
              "name": "defaultRailKey",
              "type": "bytes32"
            },
            {
              "internalType": "bytes32",
              "name": "cctpRailKey",
              "type": "bytes32"
            },
            {
              "internalType": "bytes32",
              "name": "ccipRailKey",
              "type": "bytes32"
            }
          ],
          "internalType": "struct StablecoinRegistry.Meta",
          "name": "",
          "type": "tuple"
        }
      ],
      "stateMutability": "view",
      "type": "function"
    },
    {
      "inputs": [
        {
          "internalType": "address",
          "name": "token",
          "type": "address"
        },
        {
          "internalType": "bool",
          "name": "supported",
          "type": "bool"
        },
        {
          "internalType": "bytes32",
          "name": "reserveId",
          "type": "bytes32"
        },
        {
          "internalType": "address",
          "name": "por",
          "type": "address"
        },
        {
          "internalType": "uint16",
          "name": "minReserveRatioBps",
          "type": "uint16"
        },
        {
          "internalType": "bytes32",
          "name": "defaultRailKey",
          "type": "bytes32"
        },
        {
          "internalType": "bytes32",
          "name": "cctpRailKey",
          "type": "bytes32"
        },
        {
          "internalType": "bytes32",
          "name": "ccipRailKey",
          "type": "bytes32"
        }
      ],
      "name": "setStablecoin",
      "outputs": [],
      "stateMutability": "nonpayable",
      "type": "function"
    },
    {
      "inputs": [
        {
          "internalType": "address",
          "name": "to",
          "type": "address"
        }
      ],
      "name": "transferAdmin",
      "outputs": [],
      "stateMutability": "nonpayable",
      "type": "function"
    }
  ],
  "bytecode": "0x6080346100aa57601f61056538819003918201601f19168301916001600160401b038311848410176100af578084926020946040528339810103126100aa57516001600160a01b038116908190036100aa57801561007a57600080546001600160a01b03191691909117905560405161049f90816100c68239f35b60405162461bcd60e51b8152602060048201526008602482015267053435245473a20360c41b6044820152606490fd5b600080fd5b634e487b7160e01b600052604160045260246000fdfe604060808152600436101561001357600080fd5b600090813560e01c828163504c5ef0146102355750806375829def14610187578063c2bc2efc146100755763f851a4401461004d57600080fd5b346100715781600319360112610071576001600160a01b0360209254169051908152f35b5080fd5b50346100715760203660031901126100715790816005610183936100976103cc565b938060c06100a3610433565b82815282602082015282858201528260608201528260808201528260a082015201526001600160a01b03809516815260016020522061ffff6100e3610433565b9460ff835416151586526001830154602087015260028301549081168587015260a01c16606085015260038101546080850152600481015460a0850152015460c0830152519182918291909160c08060e0830194805115158452602081015160208501526001600160a01b03604082015116604085015261ffff60608201511660608501526080810151608085015260a081015160a08501520151910152565b0390f35b5034610071576020366003190112610071576101a16103cc565b8254906001600160a01b03808316916101bb8333146103e7565b16928315610207575082907ff8ccb027dfcd135e000e9d45e6cc2d662578a8825d4c45b5e32e0adf67e79ec68580a373ffffffffffffffffffffffffffffffffffffffff191617815580f35b5162461bcd60e51b8152602060048201526008602482015267053435245473a20360c41b6044820152606490fd5b8083346103c9576101003660031901126103c9576102516103cc565b906024358015158091036103c457606435916001600160a01b03928381168091036103c05760843561ffff81168091036103bc577f62d894215fb7514da8a55c6148270c273b1ed551f3fdedee0a2a5a3be27e9fc795856005926102bc6103b6988b541633146103e7565b6102c4610433565b9687526020870194604435865286880190815260608801918252608088019160a435835260a089019360c4358552888160c08c019760e4358952169d8e8152600160205220978a51151560ff80198b541691161789555160018901556002880192511682549161ffff60a01b905160a01b169169ffffffffffffffffffff60b01b161717905551600385015551600484015551910155519182918291909160c08060e0830194805115158452602081015160208501526001600160a01b03604082015116604085015261ffff60608201511660608501526080810151608085015260a081015160a08501520151910152565b0390a280f35b8680fd5b8580fd5b505050fd5b50fd5b600435906001600160a01b03821682036103e257565b600080fd5b156103ee57565b60405162461bcd60e51b815260206004820152601060248201527f53435245473a206e6f742061646d696e000000000000000000000000000000006044820152606490fd5b6040519060e0820182811067ffffffffffffffff82111761045357604052565b634e487b7160e01b600052604160045260246000fdfea264697066735822122061127ae3f241bbe254b495fa949a42cfa18df8e18d1b9016866702b78c393e3764736f6c63430008180033",
  "linkReferences": {},
  "deployedLinkReferences": {}
}