{"abi":[{"type":"constructor","inputs":[{"name":"admin","type":"address","internalType":"address"}],"stateMutability":"nonpayable"},{"type":"function","name":"DEFAULT_ADMIN_ROLE","inputs":[],"outputs":[{"name":"","type":"bytes32","internalType":"bytes32"}],"stateMutability":"view"},{"type":"function","name":"approve","inputs":[{"name":"to","type":"address","internalType":"address"},{"name":"tokenId","type":"uint256","internalType":"uint256"}],"outputs":[],"stateMutability":"nonpayable"},{"type":"function","name":"availableCoverage","inputs":[{"name":"tokenId","type":"uint256","internalType":"uint256"}],"outputs":[{"name":"","type":"uint256","internalType":"uint256"}],"stateMutability":"view"},{"type":"function","name":"balanceOf","inputs":[{"name":"owner","type":"address","internalType":"address"}],"outputs":[{"name":"","type":"uint256","internalType":"uint256"}],"stateMutability":"view"},{"type":"function","name":"claims","inputs":[{"name":"","type":"uint256","internalType":"uint256"},{"name":"","type":"uint256","internalType":"uint256"}],"outputs":[{"name":"amount","type":"uint256","internalType":"uint256"},{"name":"filedAt","type":"uint64","internalType":"uint64"},{"name":"evidence","type":"string","internalType":"string"},{"name":"status","type":"uint8","internalType":"enum InsurancePolicyNFT.ClaimStatus"},{"name":"paidAmount","type":"uint256","internalType":"uint256"}],"stateMutability":"view"},{"type":"function","name":"fileClaim","inputs":[{"name":"tokenId","type":"uint256","internalType":"uint256"},{"name":"amount","type":"uint256","internalType":"uint256"},{"name":"evidence","type":"string","internalType":"string"}],"outputs":[],"stateMutability":"nonpayable"},{"type":"function","name":"getApproved","inputs":[{"name":"tokenId","type":"uint256","internalType":"uint256"}],"outputs":[{"name":"","type":"address","internalType":"address"}],"stateMutability":"view"},{"type":"function","name":"getRoleAdmin","inputs":[{"name":"role","type":"bytes32","internalType":"bytes32"}],"outputs":[{"name":"","type":"bytes32","internalType":"bytes32"}],"stateMutability":"view"},{"type":"function","name":"grantRole","inputs":[{"name":"role","type":"bytes32","internalType":"bytes32"},{"name":"account","type":"address","internalType":"address"}],"outputs":[],"stateMutability":"nonpayable"},{"type":"function","name":"hasRole","inputs":[{"name":"role","type":"bytes32","internalType":"bytes32"},{"name":"account","type":"address","internalType":"address"}],"outputs":[{"name":"","type":"bool","internalType":"bool"}],"stateMutability":"view"},{"type":"function","name":"isApprovedForAll","inputs":[{"name":"owner","type":"address","internalType":"address"},{"name":"operator","type":"address","internalType":"address"}],"outputs":[{"name":"","type":"bool","internalType":"bool"}],"stateMutability":"view"},{"type":"function","name":"issue","inputs":[{"name":"to","type":"address","internalType":"address"},{"name":"coverage","type":"uint256","internalType":"uint256"},{"name":"premium","type":"uint256","internalType":"uint256"},{"name":"startDate","type":"uint64","internalType":"uint64"},{"name":"endDate","type":"uint64","internalType":"uint64"}],"outputs":[{"name":"tokenId","type":"uint256","internalType":"uint256"}],"stateMutability":"nonpayable"},{"type":"function","name":"name","inputs":[],"outputs":[{"name":"","type":"string","internalType":"string"}],"stateMutability":"view"},{"type":"function","name":"ownerOf","inputs":[{"name":"tokenId","type":"uint256","internalType":"uint256"}],"outputs":[{"name":"","type":"address","internalType":"address"}],"stateMutability":"view"},{"type":"function","name":"pause","inputs":[],"outputs":[],"stateMutability":"nonpayable"},{"type":"function","name":"paused","inputs":[],"outputs":[{"name":"","type":"bool","internalType":"bool"}],"stateMutability":"view"},{"type":"function","name":"policies","inputs":[{"name":"","type":"uint256","internalType":"uint256"}],"outputs":[{"name":"coverage","type":"uint256","internalType":"uint256"},{"name":"premium","type":"uint256","internalType":"uint256"},{"name":"startDate","type":"uint64","internalType":"uint64"},{"name":"endDate","type":"uint64","internalType":"uint64"},{"name":"active","type":"bool","internalType":"bool"}],"stateMutability":"view"},{"type":"function","name":"renounceRole","inputs":[{"name":"role","type":"bytes32","internalType":"bytes32"},{"name":"callerConfirmation","type":"address","internalType":"address"}],"outputs":[],"stateMutability":"nonpayable"},{"type":"function","name":"revokeRole","inputs":[{"name":"role","type":"bytes32","internalType":"bytes32"},{"name":"account","type":"address","internalType":"address"}],"outputs":[],"stateMutability":"nonpayable"},{"type":"function","name":"safeTransferFrom","inputs":[{"name":"from","type":"address","internalType":"address"},{"name":"to","type":"address","internalType":"address"},{"name":"tokenId","type":"uint256","internalType":"uint256"}],"outputs":[],"stateMutability":"nonpayable"},{"type":"function","name":"safeTransferFrom","inputs":[{"name":"from","type":"address","internalType":"address"},{"name":"to","type":"address","internalType":"address"},{"name":"tokenId","type":"uint256","internalType":"uint256"},{"name":"data","type":"bytes","internalType":"bytes"}],"outputs":[],"stateMutability":"nonpayable"},{"type":"function","name":"setApprovalForAll","inputs":[{"name":"operator","type":"address","internalType":"address"},{"name":"approved","type":"bool","internalType":"bool"}],"outputs":[],"stateMutability":"nonpayable"},{"type":"function","name":"setPolicyStatus","inputs":[{"name":"tokenId","type":"uint256","internalType":"uint256"},{"name":"active","type":"bool","internalType":"bool"}],"outputs":[],"stateMutability":"nonpayable"},{"type":"function","name":"supportsInterface","inputs":[{"name":"interfaceId","type":"bytes4","internalType":"bytes4"}],"outputs":[{"name":"","type":"bool","internalType":"bool"}],"stateMutability":"view"},{"type":"function","name":"symbol","inputs":[],"outputs":[{"name":"","type":"string","internalType":"string"}],"stateMutability":"view"},{"type":"function","name":"tokenURI","inputs":[{"name":"tokenId","type":"uint256","internalType":"uint256"}],"outputs":[{"name":"","type":"string","internalType":"string"}],"stateMutability":"view"},{"type":"function","name":"totalClaimed","inputs":[{"name":"","type":"uint256","internalType":"uint256"}],"outputs":[{"name":"","type":"uint256","internalType":"uint256"}],"stateMutability":"view"},{"type":"function","name":"transferFrom","inputs":[{"name":"from","type":"address","internalType":"address"},{"name":"to","type":"address","internalType":"address"},{"name":"tokenId","type":"uint256","internalType":"uint256"}],"outputs":[],"stateMutability":"nonpayable"},{"type":"function","name":"unpause","inputs":[],"outputs":[],"stateMutability":"nonpayable"},{"type":"function","name":"updateClaimStatus","inputs":[{"name":"tokenId","type":"uint256","internalType":"uint256"},{"name":"claimIdx","type":"uint256","internalType":"uint256"},{"name":"status","type":"uint8","internalType":"enum InsurancePolicyNFT.ClaimStatus"},{"name":"paidAmount","type":"uint256","internalType":"uint256"}],"outputs":[],"stateMutability":"nonpayable"},{"type":"event","name":"Approval","inputs":[{"name":"owner","type":"address","indexed":true,"internalType":"address"},{"name":"approved","type":"address","indexed":true,"internalType":"address"},{"name":"tokenId","type":"uint256","indexed":true,"internalType":"uint256"}],"anonymous":false},{"type":"event","name":"ApprovalForAll","inputs":[{"name":"owner","type":"address","indexed":true,"internalType":"address"},{"name":"operator","type":"address","indexed":true,"internalType":"address"},{"name":"approved","type":"bool","indexed":false,"internalType":"bool"}],"anonymous":false},{"type":"event","name":"ClaimFiled","inputs":[{"name":"tokenId","type":"uint256","indexed":true,"internalType":"uint256"},{"name":"claimIdx","type":"uint256","indexed":false,"internalType":"uint256"},{"name":"amount","type":"uint256","indexed":false,"internalType":"uint256"}],"anonymous":false},{"type":"event","name":"ClaimPaid","inputs":[{"name":"tokenId","type":"uint256","indexed":true,"internalType":"uint256"},{"name":"claimIdx","type":"uint256","indexed":false,"internalType":"uint256"},{"name":"amount","type":"uint256","indexed":false,"internalType":"uint256"}],"anonymous":false},{"type":"event","name":"ClaimStatusChanged","inputs":[{"name":"tokenId","type":"uint256","indexed":true,"internalType":"uint256"},{"name":"claimIdx","type":"uint256","indexed":false,"internalType":"uint256"},{"name":"status","type":"uint8","indexed":false,"internalType":"enum InsurancePolicyNFT.ClaimStatus"}],"anonymous":false},{"type":"event","name":"Paused","inputs":[{"name":"account","type":"address","indexed":false,"internalType":"address"}],"anonymous":false},{"type":"event","name":"PolicyIssued","inputs":[{"name":"tokenId","type":"uint256","indexed":true,"internalType":"uint256"},{"name":"coverage","type":"uint256","indexed":false,"internalType":"uint256"},{"name":"premium","type":"uint256","indexed":false,"internalType":"uint256"}],"anonymous":false},{"type":"event","name":"PolicyStatusChanged","inputs":[{"name":"tokenId","type":"uint256","indexed":true,"internalType":"uint256"},{"name":"active","type":"bool","indexed":false,"internalType":"bool"}],"anonymous":false},{"type":"event","name":"RoleAdminChanged","inputs":[{"name":"role","type":"bytes32","indexed":true,"internalType":"bytes32"},{"name":"previousAdminRole","type":"bytes32","indexed":true,"internalType":"bytes32"},{"name":"newAdminRole","type":"bytes32","indexed":true,"internalType":"bytes32"}],"anonymous":false},{"type":"event","name":"RoleGranted","inputs":[{"name":"role","type":"bytes32","indexed":true,"internalType":"bytes32"},{"name":"account","type":"address","indexed":true,"internalType":"address"},{"name":"sender","type":"address","indexed":true,"internalType":"address"}],"anonymous":false},{"type":"event","name":"RoleRevoked","inputs":[{"name":"role","type":"bytes32","indexed":true,"internalType":"bytes32"},{"name":"account","type":"address","indexed":true,"internalType":"address"},{"name":"sender","type":"address","indexed":true,"internalType":"address"}],"anonymous":false},{"type":"event","name":"Transfer","inputs":[{"name":"from","type":"address","indexed":true,"internalType":"address"},{"name":"to","type":"address","indexed":true,"internalType":"address"},{"name":"tokenId","type":"uint256","indexed":true,"internalType":"uint256"}],"anonymous":false},{"type":"event","name":"Unpaused","inputs":[{"name":"account","type":"address","indexed":false,"internalType":"address"}],"anonymous":false},{"type":"error","name":"AccessControlBadConfirmation","inputs":[]},{"type":"error","name":"AccessControlUnauthorizedAccount","inputs":[{"name":"account","type":"address","internalType":"address"},{"name":"neededRole","type":"bytes32","internalType":"bytes32"}]},{"type":"error","name":"ERC721IncorrectOwner","inputs":[{"name":"sender","type":"address","internalType":"address"},{"name":"tokenId","type":"uint256","internalType":"uint256"},{"name":"owner","type":"address","internalType":"address"}]},{"type":"error","name":"ERC721InsufficientApproval","inputs":[{"name":"operator","type":"address","internalType":"address"},{"name":"tokenId","type":"uint256","internalType":"uint256"}]},{"type":"error","name":"ERC721InvalidApprover","inputs":[{"name":"approver","type":"address","internalType":"address"}]},{"type":"error","name":"ERC721InvalidOperator","inputs":[{"name":"operator","type":"address","internalType":"address"}]},{"type":"error","name":"ERC721InvalidOwner","inputs":[{"name":"owner","type":"address","internalType":"address"}]},{"type":"error","name":"ERC721InvalidReceiver","inputs":[{"name":"receiver","type":"address","internalType":"address"}]},{"type":"error","name":"ERC721InvalidSender","inputs":[{"name":"sender","type":"address","internalType":"address"}]},{"type":"error","name":"ERC721NonexistentToken","inputs":[{"name":"tokenId","type":"uint256","internalType":"uint256"}]},{"type":"error","name":"EnforcedPause","inputs":[]},{"type":"error","name":"ExpectedPause","inputs":[]}],"bytecode":{"object":"0x6080346200037c57601f1990601f906001600160401b036200319f38819003848101861684018381118582101762000366578492829160405283396020938491810103126200037c5751926001600160a01b03841684036200037c576200006562000381565b92601084526f496e737572616e636520506f6c69637960801b818501526200008c62000381565b906006825265494e5355524560d01b8183015284519684881162000366576000978854966001978881811c911680156200035b575b858210146200034757908187849311620002f4575b50849087831160011462000293578b9262000287575b5050600019600383901b1c191690871b1788555b8251948511620002735785548681811c9116801562000268575b8382101462000254578481116200020c575b5081938511600114620001a357505090829162000186969262000197575b5050600019600383901b1c191690821b1790555b60ff19600754166007556200017381620003a1565b506200017f8162000444565b50620004e2565b50604051612bfe9081620005818239f35b0151905038806200014a565b8588528188209497908816915b828210620001f4575050918493918762000186989410620001da575b505050811b0190556200015e565b015160001960f88460031b161c19169055388080620001cc565b808786978294978701518155019601940190620001b0565b8689528289208580880160051c8201928589106200024a575b0160051c019087905b8281106200023e5750506200012c565b8a81550187906200022e565b9250819262000225565b634e487b7160e01b89526022600452602489fd5b90607f16906200011a565b634e487b7160e01b88526041600452602488fd5b015190503880620000ec565b90848a9416918c8052868d20928d5b88828210620002dd5750508411620002c3575b505050811b01885562000100565b015160001960f88460031b161c19169055388080620002b5565b8385015186558d97909501949384019301620002a2565b9091508a8052848b208780850160051c8201928786106200033d575b918b91869594930160051c01915b8281106200032e575050620000d6565b8d81558594508b91016200031e565b9250819262000310565b634e487b7160e01b8b52602260045260248bfd5b90607f1690620000c1565b634e487b7160e01b600052604160045260246000fd5b600080fd5b60408051919082016001600160401b038111838210176200036657604052565b6001600160a01b031660008181527f31f4bc5980931cfff8fcc0887a354f492c853dee1983bdef4d9cb3e8a5ff876e60205260408120549091907fdf8b4c520ffe197c5343c6f5aec59570151ef9a492f2c624fd45ddde6135ec429060ff166200043f5780835260066020526040832082845260205260408320600160ff198254161790556000805160206200317f833981519152339380a4600190565b505090565b6001600160a01b031660008181527fc0c6dd4f7aedf943ac46b952a0594f795b891c30544bfc4cb4ae23b82a4d909b60205260408120549091907f76afa8a5929fef1b4c03674b2152ae5aaad1d974b8a4021c59477bcc846ccc1e9060ff166200043f5780835260066020526040832082845260205260408320600160ff198254161790556000805160206200317f833981519152339380a4600190565b6001600160a01b031660008181527fba39d2e119d4075e56dadcfd5cd5b862305d2c4d32649e4866948958647d49cf60205260408120549091907f8b5b16d04624687fcf0d0228f19993c9157c1ed07b41d8d430fd9100eb099fe89060ff166200043f5780835260066020526040832082845260205260408320600160ff198254161790556000805160206200317f833981519152339380a460019056fe6080604052600436101561001257600080fd5b60003560e01c806298b37914611d9a57806301ffc9a714611c7757806306fdde0314611bae578063081812fc14611b72578063095ea7b314611a1457806323b872dd146119fd578063248a9ca3146119b05780632f2ff15d1461195357806336568abe146118c95780633f4ba83a1461180b57806342842e0e146117dd5780635c975abb1461179c5780636352211e1461174257806369879f43146116b457806370a082311461161857806378cdd588146110065780638456cb5914610f7057806391d1485414610ef757806395d89b4114610dd8578063a217fddf14610d9e578063a22cb46514610c99578063a3a5dcf614610645578063b88d4fde146105bc578063bef98d9d146104fc578063c87b56dd14610487578063d3e8948314610402578063d547741f146103a3578063e985e9c514610321578063eaab2c3f146102d75763f894160e1461016557600080fd5b346102d25760407ffffffffffffffffffffffffffffffffffffffffffffffffffffffffffffffffc3601126102d257602435600435600052602090600a825260406000209081548110156102d2576101bc9161224f565b50805490600167ffffffffffffffff60018301541690600283019085604051926000928154916101eb8361229a565b80875292600181169081156102925750600114610258575b505050508161021a61024f9361024493038261219d565b600460ff60038701541695015493604051978897885287015260a0604087015260a0860190612023565b9260608501906122ed565b60808301520390f35b6000908152838120939450925b82841061027f575050508201018561021a83610244610203565b8054868501860152928401928101610265565b7fffffffffffffffffffffffffffffffffffffffffffffffffffffffffffffff001685880152505050151560051b83010190508561021a83610244610203565b600080fd5b346102d25760207ffffffffffffffffffffffffffffffffffffffffffffffffffffffffffffffffc3601126102d257600435600052600b6020526020604060002054604051908152f35b346102d25760407ffffffffffffffffffffffffffffffffffffffffffffffffffffffffffffffffc3601126102d257610358612081565b6103606120a4565b9073ffffffffffffffffffffffffffffffffffffffff809116600052600560205260406000209116600052602052602060ff604060002054166040519015158152f35b346102d25760407ffffffffffffffffffffffffffffffffffffffffffffffffffffffffffffffffc3601126102d2576104006004356103e06120a4565b908060005260066020526103fb6001604060002001546127ef565b612958565b005b346102d25760207ffffffffffffffffffffffffffffffffffffffffffffffffffffffffffffffffc3601126102d257600435600052600960205260a0604060002060ff815491600260018201549101549067ffffffffffffffff90604051948552602085015280821660408501528160401c16606084015260801c1615156080820152f35b346102d25760207ffffffffffffffffffffffffffffffffffffffffffffffffffffffffffffffffc3601126102d2576104c160043561284b565b5060006040516104d081612181565b526104f86040516104e081612181565b60008152604051918291602083526020830190612023565b0390f35b346102d25760407ffffffffffffffffffffffffffffffffffffffffffffffffffffffffffffffffc3601126102d2576004357fcf60b536196d555e04ffb5cff8f6c45650258cbd8f1344f104201e20cbf004af6020610559612127565b610561612700565b6000848152600983526040902060020180547fffffffffffffffffffffffffffffff00ffffffffffffffffffffffffffffffff1682151560801b70ff00000000000000000000000000000000161790556040519015158152a2005b346102d25760807ffffffffffffffffffffffffffffffffffffffffffffffffffffffffffffffffc3601126102d2576105f3612081565b6105fb6120a4565b906044356064359267ffffffffffffffff84116102d257366023850112156102d257610634610400943690602481600401359101612218565b9261064083838361249e565b6129fb565b346102d25760607ffffffffffffffffffffffffffffffffffffffffffffffffffffffffffffffffc3601126102d25767ffffffffffffffff60246044358281116102d257366023820112156102d2578060040135908382116102d257368383830101116102d2576106b4612815565b6040517f6352211e00000000000000000000000000000000000000000000000000000000815260043560048201526020818581305afa60009181610c48575b50610756576064846009604051917f08c379a0000000000000000000000000000000000000000000000000000000008352602060048401528201527f6e6f20706f6c69637900000000000000000000000000000000000000000000006044820152fd5b73ffffffffffffffffffffffffffffffffffffffff809116338114918215610c2f575b508115610c0a575b5015610bac576107938335151561235f565b6004356000526009602052604060002060028101546107b760ff8260801c166122fa565b858082164210159182610b9c575b505015610b3e576107f490600435600052600b6020526107eb60406000205486356123c4565b905410156123d1565b600435600052600a602052604060002080549461082e6040519361081785612136565b863585526020850195834216875287369201612218565b916040840192835260608401926001918285526000608087015268010000000000000000891015610b10578861086891848201815561224f565b969096610ae25785518755838388019151167fffffffffffffffffffffffffffffffffffffffffffffffff0000000000000000825416179055518051928311610ab4576108b8600287015461229a565b601f8111610a66575b50602090601f84116001146109be57600091849182610993575b50507fffffffffffffffffffffffffffffffffffffffffffffffffffffffffffffffff91921b9260031b1c19161760028401555b5160068110156109655760049161092b60809260038601612436565b01519101556040519182523560208201527e16b36dc742e36d40c93764b5d2448ab23f153dbfde9a2e22261968924f511e604060043592a2005b837f4e487b710000000000000000000000000000000000000000000000000000000060005260216004526000fd5b015191507fffffffffffffffffffffffffffffffffffffffffffffffffffffffffffffffff8a6108db565b907fffffffffffffffffffffffffffffffffffffffffffffffffffffffffffffffe08493941691600288016000528360206000209360005b87828210610a4d57505010610a16575b505050811b01600284015561090f565b01517fffffffffffffffffffffffffffffffffffffffffffffffffffffffffffffffff60f88460031b161c19169055878080610a06565b84860151875590950194602094850194879350016109f6565b600287016000526020600020601f850160051c81019160208610610aaa575b601f0160051c019083905b828110610a9e5750506108c1565b60008155018390610a90565b9091508190610a85565b867f4e487b710000000000000000000000000000000000000000000000000000000060005260416004526000fd5b877f4e487b710000000000000000000000000000000000000000000000000000000060005260006004526000fd5b877f4e487b710000000000000000000000000000000000000000000000000000000060005260416004526000fd5b606484600d604051917f08c379a0000000000000000000000000000000000000000000000000000000008352602060048401528201527f6e6f7420696e20656666656374000000000000000000000000000000000000006044820152fd5b60401c16421115905085876107c5565b6064836011604051917f08c379a0000000000000000000000000000000000000000000000000000000008352602060048401528201527f6e6f7420706f6c69637920686f6c6465720000000000000000000000000000006044820152fd5b9050600052600560205260406000203360005260205260ff6040600020541685610781565b9091503390610c3f60043561246d565b16149086610779565b9091506020813d602011610c91575b81610c646020938361219d565b810103126102d2575173ffffffffffffffffffffffffffffffffffffffff811681036102d25790866106f3565b3d9150610c57565b346102d25760407ffffffffffffffffffffffffffffffffffffffffffffffffffffffffffffffffc3601126102d257610cd0612081565b73ffffffffffffffffffffffffffffffffffffffff610ced612127565b9116908115610d6d573360005260056020526040600020826000526020526040600020901515907fffffffffffffffffffffffffffffffffffffffffffffffffffffffffffffff0081541660ff83161790556040519081527f17307eab39ab6107e8899845ad3d59bd9653f200f220920489ca2b5937696c3160203392a3005b602482604051907f5b08ba180000000000000000000000000000000000000000000000000000000082526004820152fd5b346102d25760007ffffffffffffffffffffffffffffffffffffffffffffffffffffffffffffffffc3601126102d257602060405160008152f35b346102d25760007ffffffffffffffffffffffffffffffffffffffffffffffffffffffffffffffffc3601126102d257604051600060018260015492610e1c8461229a565b9283835260209485600182169182600014610eb9575050600114610e5c575b50610e489250038361219d565b6104f8604051928284938452830190612023565b84915060016000527fb10e2d527612073b26eecdfd717e6a320cf44b4afac2b0732d9fcbe2b7fa0cf6906000915b858310610ea1575050610e48935082010185610e3b565b80548389018501528794508693909201918101610e8a565b7fffffffffffffffffffffffffffffffffffffffffffffffffffffffffffffff001685820152610e4895151560051b8501019250879150610e3b9050565b346102d25760407ffffffffffffffffffffffffffffffffffffffffffffffffffffffffffffffffc3601126102d257610f2e6120a4565b600435600052600660205273ffffffffffffffffffffffffffffffffffffffff60406000209116600052602052602060ff604060002054166040519015158152f35b346102d25760007ffffffffffffffffffffffffffffffffffffffffffffffffffffffffffffffffc3601126102d257610fa7612793565b610faf612815565b60017fffffffffffffffffffffffffffffffffffffffffffffffffffffffffffffff0060075416176007557f62e78cea01bee320cd4e420270b5ea74000d11b0c9f74754ebdbfc544b05a2586020604051338152a1005b346102d25760a07ffffffffffffffffffffffffffffffffffffffffffffffffffffffffffffffffc3601126102d25761103d612081565b60249081356044356064359367ffffffffffffffff8086168096036102d257608435948186168096036102d2573360009081527fc0c6dd4f7aedf943ac46b952a0594f795b891c30544bfc4cb4ae23b82a4d909b60209081526040909120549097907f76afa8a5929fef1b4c03674b2152ae5aaad1d974b8a4021c59477bcc846ccc1e9060ff16156115e257506110d2612815565b8681101561158557600854927fffffffffffffffffffffffffffffffffffffffffffffffffffffffffffffffff93848114611557579060016111e693920198899182600855600260405161112581612136565b8b81528d6009818301918d8352604084019889526060840196875260808401976001895260005252604060002091518255516001820155019351167fffffffffffffffffffffffffffffffff000000000000000000000000000000006fffffffffffffffff00000000000000008554935160401b169216171782555115157fffffffffffffffffffffffffffffff00ffffffffffffffffffffffffffffffff70ff00000000000000000000000000000000835492151560801b169116179055565b604051906111f382612181565b6000825273ffffffffffffffffffffffffffffffffffffffff92838216938415611527578489918260005260028c526040600020541680151593846114d5575b508160005260038c526040600020600181540190558260005260028c526040600020827fffffffffffffffffffffffff00000000000000000000000000000000000000008254161790557fddf252ad1be2c89b69c2b068fc378daa952ba7f163c4a11628f55a4df523b3ef600080a46114a5573b6112e7575b505050604083927f1ecff895f616217e21a16c9da1bafce0314f24fa81cf272c22349b5c7b371b5092825191825286820152a2604051908152f35b60409694929695939195518581806113407f150b7a02000000000000000000000000000000000000000000000000000000009586835233600484015260008d840152896044840152608060648401526084830190612023565b038160008b5af16000918161144d575b506113c3578787873d156113bc573d611368816121de565b90611376604051928361219d565b81523d60008383013e5b805191826113b957505050604051907f64a0ae920000000000000000000000000000000000000000000000000000000082526004820152fd5b01fd5b6060611380565b7fffffffff00000000000000000000000000000000000000000000000000000000909793959796929496160361141f575060409050827f1ecff895f616217e21a16c9da1bafce0314f24fa81cf272c22349b5c7b371b506112ac565b604051907f64a0ae920000000000000000000000000000000000000000000000000000000082526004820152fd5b9091508681813d831161149e575b611465818361219d565b810103126102d257517fffffffff00000000000000000000000000000000000000000000000000000000811681036102d2579089611350565b503d61145b565b836040517f73c6ac6e00000000000000000000000000000000000000000000000000000000815260006004820152fd5b61150e84600052600460205260406000207fffffffffffffffffffffffff00000000000000000000000000000000000000008154169055565b8160005260038d5260406000209081540190558c611233565b856040517f64a0ae9200000000000000000000000000000000000000000000000000000000815260006004820152fd5b857f4e487b710000000000000000000000000000000000000000000000000000000060005260116004526000fd5b606488600986604051927f08c379a000000000000000000000000000000000000000000000000000000000845260048401528201527f62616420646174657300000000000000000000000000000000000000000000006044820152fd5b84604491604051917fe2517d3f000000000000000000000000000000000000000000000000000000008352336004840152820152fd5b346102d25760207ffffffffffffffffffffffffffffffffffffffffffffffffffffffffffffffffc3601126102d25773ffffffffffffffffffffffffffffffffffffffff611664612081565b1680156116835760005260036020526020604060002054604051908152f35b60246040517f89c62b6400000000000000000000000000000000000000000000000000000000815260006004820152fd5b346102d25760207ffffffffffffffffffffffffffffffffffffffffffffffffffffffffffffffffc3601126102d2576004356000526009602052604060002054600b602052604060002054810390811161171357602090604051908152f35b7f4e487b7100000000000000000000000000000000000000000000000000000000600052601160045260246000fd5b346102d25760207ffffffffffffffffffffffffffffffffffffffffffffffffffffffffffffffffc3601126102d257602061177e60043561284b565b73ffffffffffffffffffffffffffffffffffffffff60405191168152f35b346102d25760007ffffffffffffffffffffffffffffffffffffffffffffffffffffffffffffffffc3601126102d257602060ff600754166040519015158152f35b346102d2576104006117ee366120c7565b90604051926117fc84612181565b6000845261064083838361249e565b346102d25760007ffffffffffffffffffffffffffffffffffffffffffffffffffffffffffffffffc3601126102d257611842612793565b60075460ff81161561189f577fffffffffffffffffffffffffffffffffffffffffffffffffffffffffffffff00166007557f5db9ee0a495bf2e6ff9c91a7834c1ba4fdd244a5e8aa4e537bd38aeae4b073aa6020604051338152a1005b60046040517f8dfc202b000000000000000000000000000000000000000000000000000000008152fd5b346102d25760407ffffffffffffffffffffffffffffffffffffffffffffffffffffffffffffffffc3601126102d2576119006120a4565b3373ffffffffffffffffffffffffffffffffffffffff8216036119295761040090600435612958565b60046040517f6697b232000000000000000000000000000000000000000000000000000000008152fd5b346102d25760407ffffffffffffffffffffffffffffffffffffffffffffffffffffffffffffffffc3601126102d2576104006004356119906120a4565b908060005260066020526119ab6001604060002001546127ef565b6128ac565b346102d25760207ffffffffffffffffffffffffffffffffffffffffffffffffffffffffffffffffc3601126102d25760043560005260066020526020600160406000200154604051908152f35b346102d257610400611a0e366120c7565b9161249e565b346102d25760407ffffffffffffffffffffffffffffffffffffffffffffffffffffffffffffffffc3601126102d257611a4b612081565b602435611a578161284b565b33151580611b52575b80611b17575b611ae757819073ffffffffffffffffffffffffffffffffffffffff809416938491167f8c5be1e5ebec7d5bd14f71427d1e84f3dd0314c0f7b2291e5b200ac8c7c3b925600080a460005260046020526040600020907fffffffffffffffffffffffff0000000000000000000000000000000000000000825416179055600080f35b60246040517fa9fbf51f000000000000000000000000000000000000000000000000000000008152336004820152fd5b5073ffffffffffffffffffffffffffffffffffffffff8116600052600560205260406000203360005260205260ff6040600020541615611a66565b503373ffffffffffffffffffffffffffffffffffffffff82161415611a60565b346102d25760207ffffffffffffffffffffffffffffffffffffffffffffffffffffffffffffffffc3601126102d257602061177e60043561246d565b346102d25760007ffffffffffffffffffffffffffffffffffffffffffffffffffffffffffffffffc3601126102d257604051600080549082611bef8361229a565b9182825260209360019085600182169182600014610eb9575050600114611c1d5750610e489250038361219d565b6000808052859250907f290decd9548b62a8d60345a988386fc84ba6bc95484008f6362f93160ef3e5635b858310611c5f575050610e48935082010185610e3b565b80548389018501528794508693909201918101611c48565b346102d25760207ffffffffffffffffffffffffffffffffffffffffffffffffffffffffffffffffc3601126102d2576004357fffffffff0000000000000000000000000000000000000000000000000000000081168091036102d257807f7965db0b0000000000000000000000000000000000000000000000000000000060209214908115611d0c575b506040519015158152f35b7f80ac58cd00000000000000000000000000000000000000000000000000000000811491508115611d70575b8115611d46575b5082611d01565b7f01ffc9a70000000000000000000000000000000000000000000000000000000091501482611d3f565b7f5b5e139f0000000000000000000000000000000000000000000000000000000081149150611d38565b346102d25760807ffffffffffffffffffffffffffffffffffffffffffffffffffffffffffffffffc3601126102d25760043560243560443560068110156102d257606435611de6612700565b611dee612815565b83600052602090600982526040600020611e1160ff600283015460801c166122fa565b85600052600a8352604060002054851015611fc55785600052600a8352611e3c85604060002061224f565b5090600382019260ff8454166006811015611f9657600514611f385785611ea9948982957fabb642d862da81928d52f6af51c57ac89a0e964c3b401beb18e7cd2ee2ee801c9a9895611e9c95600560409c14611eac575b50505050612436565b84519384528301906122ed565ba2005b8060047fc924f7d4b202a644b3425a0d1a284d3124e9bd83af2189d9930c9fdc80fe55bb94611efe8f9584151580611f2d575b611ee89061235f565b88600052600b8d526107eb8760002054866123c4565b015583600052600b885281600020611f178282546123c4565b90558151908b825288820152a2898b8080611e93565b508254851115611edf565b606485604051907f08c379a00000000000000000000000000000000000000000000000000000000082526004820152600c60248201527f616c7265616479207061696400000000000000000000000000000000000000006044820152fd5b7f4e487b7100000000000000000000000000000000000000000000000000000000600052602160045260246000fd5b606483604051907f08c379a00000000000000000000000000000000000000000000000000000000082526004820152600f60248201527f62616420636c61696d20696e64657800000000000000000000000000000000006044820152fd5b919082519283825260005b84811061206d5750507fffffffffffffffffffffffffffffffffffffffffffffffffffffffffffffffe0601f8460006020809697860101520116010190565b60208183018101518483018201520161202e565b6004359073ffffffffffffffffffffffffffffffffffffffff821682036102d257565b6024359073ffffffffffffffffffffffffffffffffffffffff821682036102d257565b7ffffffffffffffffffffffffffffffffffffffffffffffffffffffffffffffffc60609101126102d25773ffffffffffffffffffffffffffffffffffffffff9060043582811681036102d2579160243590811681036102d2579060443590565b6024359081151582036102d257565b60a0810190811067ffffffffffffffff82111761215257604052565b7f4e487b7100000000000000000000000000000000000000000000000000000000600052604160045260246000fd5b6020810190811067ffffffffffffffff82111761215257604052565b90601f7fffffffffffffffffffffffffffffffffffffffffffffffffffffffffffffffe0910116810190811067ffffffffffffffff82111761215257604052565b67ffffffffffffffff811161215257601f017fffffffffffffffffffffffffffffffffffffffffffffffffffffffffffffffe01660200190565b929192612224826121de565b91612232604051938461219d565b8294818452818301116102d2578281602093846000960137010152565b805482101561226b576000526005602060002091020190600090565b7f4e487b7100000000000000000000000000000000000000000000000000000000600052603260045260246000fd5b90600182811c921680156122e3575b60208310146122b457565b7f4e487b7100000000000000000000000000000000000000000000000000000000600052602260045260246000fd5b91607f16916122a9565b906006821015611f965752565b1561230157565b60646040517f08c379a000000000000000000000000000000000000000000000000000000000815260206004820152600a60248201527f6e6f7420616374697665000000000000000000000000000000000000000000006044820152fd5b1561236657565b60646040517f08c379a000000000000000000000000000000000000000000000000000000000815260206004820152600e60248201527f696e76616c696420616d6f756e740000000000000000000000000000000000006044820152fd5b9190820180921161171357565b156123d857565b60646040517f08c379a000000000000000000000000000000000000000000000000000000000815260206004820152601060248201527f6578636565647320636f766572616765000000000000000000000000000000006044820152fd5b906006811015611f965760ff7fffffffffffffffffffffffffffffffffffffffffffffffffffffffffffffff008354169116179055565b6124768161284b565b50600052600460205273ffffffffffffffffffffffffffffffffffffffff6040600020541690565b909173ffffffffffffffffffffffffffffffffffffffff8093169283156126cf57600092828452826020956002875260409684888820541696879133151580612607575b509060027fddf252ad1be2c89b69c2b068fc378daa952ba7f163c4a11628f55a4df523b3ef9284612599575b858352600381528b83206001815401905586835252898120847fffffffffffffffffffffffff000000000000000000000000000000000000000082541617905580a4169283830361255f5750505050565b6064945051927f64283d7b000000000000000000000000000000000000000000000000000000008452600484015260248301526044820152fd5b6125d287600052600460205260406000207fffffffffffffffffffffffff00000000000000000000000000000000000000008154169055565b848352600381528b83207fffffffffffffffffffffffffffffffffffffffffffffffffffffffffffffffff815401905561250e565b9193945091508061268e575b15612623578592918791386124e2565b8786886126595760249151907f7e2732890000000000000000000000000000000000000000000000000000000082526004820152fd5b60449151907f177e802f0000000000000000000000000000000000000000000000000000000082523360048301526024820152fd5b5033871480156126b3575b806126135750858252600481523385898420541614612613565b5086825260058152878220338352815260ff8883205416612699565b60246040517f64a0ae9200000000000000000000000000000000000000000000000000000000815260006004820152fd5b3360009081527f31f4bc5980931cfff8fcc0887a354f492c853dee1983bdef4d9cb3e8a5ff876e60205260409020547fdf8b4c520ffe197c5343c6f5aec59570151ef9a492f2c624fd45ddde6135ec429060ff161561275c5750565b604490604051907fe2517d3f0000000000000000000000000000000000000000000000000000000082523360048301526024820152fd5b3360009081527fba39d2e119d4075e56dadcfd5cd5b862305d2c4d32649e4866948958647d49cf60205260409020547f8b5b16d04624687fcf0d0228f19993c9157c1ed07b41d8d430fd9100eb099fe89060ff161561275c5750565b80600052600660205260406000203360005260205260ff604060002054161561275c5750565b60ff6007541661282157565b60046040517fd93c0665000000000000000000000000000000000000000000000000000000008152fd5b80600052600260205273ffffffffffffffffffffffffffffffffffffffff6040600020541690811561287b575090565b602490604051907f7e2732890000000000000000000000000000000000000000000000000000000082526004820152fd5b90600091808352600660205273ffffffffffffffffffffffffffffffffffffffff6040842092169182845260205260ff60408420541615600014612953578083526006602052604083208284526020526040832060017fffffffffffffffffffffffffffffffffffffffffffffffffffffffffffffff008254161790557f2f8788117e7eff1d82e926ec794901d17c78024a50270940304540a733656f0d339380a4600190565b505090565b90600091808352600660205273ffffffffffffffffffffffffffffffffffffffff6040842092169182845260205260ff60408420541660001461295357808352600660205260408320828452602052604083207fffffffffffffffffffffffffffffffffffffffffffffffffffffffffffffff0081541690557ff6391f5c32d9c69d2a47ea670b442974b53935d1edc7fd64eb21e047a839171b339380a4600190565b813b612a08575b50505050565b73ffffffffffffffffffffffffffffffffffffffff949192939480931693604051937f150b7a02000000000000000000000000000000000000000000000000000000009283865233600487015216602485015260448401526080606484015282612a786020966084830190612023565b039285816000958187895af1849181612b6c575b50612b04575050503d600014612afc573d612aa6816121de565b90612ab4604051928361219d565b81528091843d92013e5b80519283612af757602483604051907f64a0ae920000000000000000000000000000000000000000000000000000000082526004820152fd5b019050fd5b506060612abe565b9092507fffffffff000000000000000000000000000000000000000000000000000000009194501603612b3b575038808080612a02565b602490604051907f64a0ae920000000000000000000000000000000000000000000000000000000082526004820152fd5b9091508681813d8311612bc1575b612b84818361219d565b81010312612bbd57517fffffffff0000000000000000000000000000000000000000000000000000000081168103612bbd579038612a8c565b8480fd5b503d612b7a56fea264697066735822122060ddcf5c7bace8a11eb38a2bd6ac6e96fbd3236d7ab3bfad0a72fc3e45ee082d64736f6c634300081800332f8788117e7eff1d82e926ec794901d17c78024a50270940304540a733656f0d","linkReferences":{}},"methodIdentifiers":{"DEFAULT_ADMIN_ROLE()":"a217fddf","approve(address,uint256)":"095ea7b3","availableCoverage(uint256)":"69879f43","balanceOf(address)":"70a08231","claims(uint256,uint256)":"f894160e","fileClaim(uint256,uint256,string)":"a3a5dcf6","getApproved(uint256)":"081812fc","getRoleAdmin(bytes32)":"248a9ca3","grantRole(bytes32,address)":"2f2ff15d","hasRole(bytes32,address)":"91d14854","isApprovedForAll(address,address)":"e985e9c5","issue(address,uint256,uint256,uint64,uint64)":"78cdd588","name()":"06fdde03","ownerOf(uint256)":"6352211e","pause()":"8456cb59","paused()":"5c975abb","policies(uint256)":"d3e89483","renounceRole(bytes32,address)":"36568abe","revokeRole(bytes32,address)":"d547741f","safeTransferFrom(address,address,uint256)":"42842e0e","safeTransferFrom(address,address,uint256,bytes)":"b88d4fde","setApprovalForAll(address,bool)":"a22cb465","setPolicyStatus(uint256,bool)":"bef98d9d","supportsInterface(bytes4)":"01ffc9a7","symbol()":"95d89b41","tokenURI(uint256)":"c87b56dd","totalClaimed(uint256)":"eaab2c3f","transferFrom(address,address,uint256)":"23b872dd","unpause()":"3f4ba83a","updateClaimStatus(uint256,uint256,uint8,uint256)":"0098b379"},"id":34}