{
  "_format": "hh-sol-artifact-1",
  "contractName": "NAVEventOracleUpgradeable",
  "sourceName": "contracts/oracle/NAVEventOracleUpgradeable.sol",
  "abi": [
    {
      "inputs": [],
      "name": "AccessControlBadConfirmation",
      "type": "error"
    },
    {
      "inputs": [
        {
          "internalType": "address",
          "name": "account",
          "type": "address"
        },
        {
          "internalType": "bytes32",
          "name": "neededRole",
          "type": "bytes32"
        }
      ],
      "name": "AccessControlUnauthorizedAccount",
      "type": "error"
    },
    {
      "inputs": [],
      "name": "InvalidInitialization",
      "type": "error"
    },
    {
      "inputs": [],
      "name": "NotInitializing",
      "type": "error"
    },
    {
      "anonymous": false,
      "inputs": [
        {
          "indexed": false,
          "internalType": "address",
          "name": "agg",
          "type": "address"
        },
        {
          "indexed": false,
          "internalType": "uint8",
          "name": "decimals",
          "type": "uint8"
        }
      ],
      "name": "FallbackSet",
      "type": "event"
    },
    {
      "anonymous": false,
      "inputs": [
        {
          "indexed": false,
          "internalType": "uint64",
          "name": "version",
          "type": "uint64"
        }
      ],
      "name": "Initialized",
      "type": "event"
    },
    {
      "anonymous": false,
      "inputs": [
        {
          "indexed": true,
          "internalType": "bytes32",
          "name": "id",
          "type": "bytes32"
        },
        {
          "indexed": false,
          "internalType": "int256",
          "name": "delta",
          "type": "int256"
        }
      ],
      "name": "PositionDelta",
      "type": "event"
    },
    {
      "anonymous": false,
      "inputs": [
        {
          "indexed": true,
          "internalType": "bytes32",
          "name": "id",
          "type": "bytes32"
        },
        {
          "indexed": false,
          "internalType": "bytes32",
          "name": "assetId",
          "type": "bytes32"
        },
        {
          "indexed": false,
          "internalType": "int256",
          "name": "qty",
          "type": "int256"
        },
        {
          "indexed": false,
          "internalType": "address",
          "name": "adapter",
          "type": "address"
        }
      ],
      "name": "PositionSet",
      "type": "event"
    },
    {
      "anonymous": false,
      "inputs": [
        {
          "indexed": true,
          "internalType": "bytes32",
          "name": "role",
          "type": "bytes32"
        },
        {
          "indexed": true,
          "internalType": "bytes32",
          "name": "previousAdminRole",
          "type": "bytes32"
        },
        {
          "indexed": true,
          "internalType": "bytes32",
          "name": "newAdminRole",
          "type": "bytes32"
        }
      ],
      "name": "RoleAdminChanged",
      "type": "event"
    },
    {
      "anonymous": false,
      "inputs": [
        {
          "indexed": true,
          "internalType": "bytes32",
          "name": "role",
          "type": "bytes32"
        },
        {
          "indexed": true,
          "internalType": "address",
          "name": "account",
          "type": "address"
        },
        {
          "indexed": true,
          "internalType": "address",
          "name": "sender",
          "type": "address"
        }
      ],
      "name": "RoleGranted",
      "type": "event"
    },
    {
      "anonymous": false,
      "inputs": [
        {
          "indexed": true,
          "internalType": "bytes32",
          "name": "role",
          "type": "bytes32"
        },
        {
          "indexed": true,
          "internalType": "address",
          "name": "account",
          "type": "address"
        },
        {
          "indexed": true,
          "internalType": "address",
          "name": "sender",
          "type": "address"
        }
      ],
      "name": "RoleRevoked",
      "type": "event"
    },
    {
      "inputs": [],
      "name": "DEFAULT_ADMIN_ROLE",
      "outputs": [
        {
          "internalType": "bytes32",
          "name": "",
          "type": "bytes32"
        }
      ],
      "stateMutability": "view",
      "type": "function"
    },
    {
      "inputs": [],
      "name": "GOVERNOR_ROLE",
      "outputs": [
        {
          "internalType": "bytes32",
          "name": "",
          "type": "bytes32"
        }
      ],
      "stateMutability": "view",
      "type": "function"
    },
    {
      "inputs": [],
      "name": "UPDATER_ROLE",
      "outputs": [
        {
          "internalType": "bytes32",
          "name": "",
          "type": "bytes32"
        }
      ],
      "stateMutability": "view",
      "type": "function"
    },
    {
      "inputs": [
        {
          "internalType": "bytes32",
          "name": "id",
          "type": "bytes32"
        },
        {
          "internalType": "int256",
          "name": "delta",
          "type": "int256"
        }
      ],
      "name": "applyDelta",
      "outputs": [],
      "stateMutability": "nonpayable",
      "type": "function"
    },
    {
      "inputs": [],
      "name": "etfDecimals",
      "outputs": [
        {
          "internalType": "uint8",
          "name": "",
          "type": "uint8"
        }
      ],
      "stateMutability": "view",
      "type": "function"
    },
    {
      "inputs": [],
      "name": "etfFallback",
      "outputs": [
        {
          "internalType": "address",
          "name": "",
          "type": "address"
        }
      ],
      "stateMutability": "view",
      "type": "function"
    },
    {
      "inputs": [
        {
          "internalType": "bytes32",
          "name": "role",
          "type": "bytes32"
        }
      ],
      "name": "getRoleAdmin",
      "outputs": [
        {
          "internalType": "bytes32",
          "name": "",
          "type": "bytes32"
        }
      ],
      "stateMutability": "view",
      "type": "function"
    },
    {
      "inputs": [
        {
          "internalType": "bytes32",
          "name": "role",
          "type": "bytes32"
        },
        {
          "internalType": "address",
          "name": "account",
          "type": "address"
        }
      ],
      "name": "grantRole",
      "outputs": [],
      "stateMutability": "nonpayable",
      "type": "function"
    },
    {
      "inputs": [
        {
          "internalType": "bytes32",
          "name": "role",
          "type": "bytes32"
        },
        {
          "internalType": "address",
          "name": "account",
          "type": "address"
        }
      ],
      "name": "hasRole",
      "outputs": [
        {
          "internalType": "bool",
          "name": "",
          "type": "bool"
        }
      ],
      "stateMutability": "view",
      "type": "function"
    },
    {
      "inputs": [
        {
          "internalType": "uint256",
          "name": "",
          "type": "uint256"
        }
      ],
      "name": "ids",
      "outputs": [
        {
          "internalType": "bytes32",
          "name": "",
          "type": "bytes32"
        }
      ],
      "stateMutability": "view",
      "type": "function"
    },
    {
      "inputs": [
        {
          "internalType": "address",
          "name": "admin",
          "type": "address"
        },
        {
          "internalType": "address",
          "name": "governor",
          "type": "address"
        }
      ],
      "name": "initialize",
      "outputs": [],
      "stateMutability": "nonpayable",
      "type": "function"
    },
    {
      "inputs": [],
      "name": "nav1e18",
      "outputs": [
        {
          "internalType": "uint256",
          "name": "nav",
          "type": "uint256"
        },
        {
          "internalType": "uint64",
          "name": "asOf",
          "type": "uint64"
        }
      ],
      "stateMutability": "view",
      "type": "function"
    },
    {
      "inputs": [
        {
          "internalType": "bytes32",
          "name": "",
          "type": "bytes32"
        }
      ],
      "name": "positions",
      "outputs": [
        {
          "internalType": "bytes32",
          "name": "assetId",
          "type": "bytes32"
        },
        {
          "internalType": "int256",
          "name": "qty",
          "type": "int256"
        },
        {
          "internalType": "address",
          "name": "adapter",
          "type": "address"
        }
      ],
      "stateMutability": "view",
      "type": "function"
    },
    {
      "inputs": [
        {
          "internalType": "bytes32",
          "name": "role",
          "type": "bytes32"
        },
        {
          "internalType": "address",
          "name": "callerConfirmation",
          "type": "address"
        }
      ],
      "name": "renounceRole",
      "outputs": [],
      "stateMutability": "nonpayable",
      "type": "function"
    },
    {
      "inputs": [
        {
          "internalType": "bytes32",
          "name": "role",
          "type": "bytes32"
        },
        {
          "internalType": "address",
          "name": "account",
          "type": "address"
        }
      ],
      "name": "revokeRole",
      "outputs": [],
      "stateMutability": "nonpayable",
      "type": "function"
    },
    {
      "inputs": [
        {
          "internalType": "address",
          "name": "agg",
          "type": "address"
        }
      ],
      "name": "setFallback",
      "outputs": [],
      "stateMutability": "nonpayable",
      "type": "function"
    },
    {
      "inputs": [
        {
          "internalType": "bytes32",
          "name": "id",
          "type": "bytes32"
        },
        {
          "internalType": "bytes32",
          "name": "assetId",
          "type": "bytes32"
        },
        {
          "internalType": "int256",
          "name": "qty",
          "type": "int256"
        },
        {
          "internalType": "address",
          "name": "adapter",
          "type": "address"
        }
      ],
      "name": "setPosition",
      "outputs": [],
      "stateMutability": "nonpayable",
      "type": "function"
    },
    {
      "inputs": [
        {
          "internalType": "bytes4",
          "name": "interfaceId",
          "type": "bytes4"
        }
      ],
      "name": "supportsInterface",
      "outputs": [
        {
          "internalType": "bool",
          "name": "",
          "type": "bool"
        }
      ],
      "stateMutability": "view",
      "type": "function"
    }
  ],
  "bytecode": "0x608080604052346100165761111c908161001c8239f35b600080fdfe6080604081815260048036101561001557600080fd5b600092833560e01c90816301ffc9a714610c47575080630deb919314610c22578063248a9ca314610beb5780632f2ff15d14610bc257806332b12eac14610a3e57806336568abe146109f757806347e63380146109bc578063485cc95514610869578063514ea4bf146108225780637526b89a1461047357806391d1485414610421578063a217fddf14610406578063bf567dab14610293578063ccc5749014610258578063d547741f1461020c578063e88551ed14610153578063f3ffd1bc146101275763fac333ac146100e957600080fd5b346101235760203660031901126101235735916001548310156101205750610112602092610ccc565b91905490519160031b1c8152f35b80fd5b8280fd5b50503461014f578160031936011261014f576020906001600160a01b03600254169051908152f35b5080fd5b503461012357816003193601126101235780359160243591610173610dab565b838552846020528185208054156101e357600101805491848301928786851291129080158216911516176101d0575055519081527f331afba49ebeb472620db1faf97d436af693b092e947bd70d581d64db5569a4590602090a280f35b634e487b7160e01b875260119052602486fd5b506020606492519162461bcd60e51b83528201526003602482015262706f7360e81b6044820152fd5b509034610123578060031936011261012357610254913561024f6001610230610c9b565b938387526000805160206110c783398151915260205286200154610e25565b611042565b5080f35b50503461014f578160031936011261014f57602090517f7935bd0ae54bc31f548c14dba4d37c5c64b3f8ca900cb468fb8abd54d5894f558152f35b5091903461014f57608036600319011261014f5782359060243560443591606435906001600160a01b039687831690818403610402576102d1610dab565b86885287602052828820541561037d575b509061037792917ff5c4a3cb00f933ef67e51d970f63838d4f00bb1e96ee3630148cb8100b675b379697986002835161031a81610d19565b878152602081018981528582019485528b8d528c602052858d2091518255516001820155019151166001600160a01b031982541617905551938493849160409194936001600160a01b039160608501968552602085015216910152565b0390a280f35b97600154680100000000000000008110156103ef577ff5c4a3cb00f933ef67e51d970f63838d4f00bb1e96ee3630148cb8100b675b3797989950906103ce8260016103779796959401600155610ccc565b81549060031b908b821b91600019901b1916179055989796509091926102e2565b634e487b7160e01b895260418a52602489fd5b8780fd5b50503461014f578160031936011261014f5751908152602090f35b50346101235781600319360112610123578160209360ff92610441610c9b565b903582526000805160206110c783398151915286526001600160a01b0383832091168252855220541690519015158152f35b5082903461014f578160031936011261014f578167ffffffffffffffff918482600190600154905b818110610681575050505083158061066d575b6104f0575b505067ffffffffffffffff818116036104e1575067ffffffffffffffff8042165b8351928352166020820152f35b67ffffffffffffffff906104d4565b6002548551633fabe5a360e21b8152945091925060a08482816001600160a01b0386165afa9384156106635783908495610610575b509160a01c60ff16826012821015610598575060120360ff81116105855761054c90610d84565b91828102928184041490151715610572575067ffffffffffffffff905b921690846104b3565b634e487b7160e01b835260119052602482fd5b634e487b7160e01b845260118252602484fd5b90601281949394116105b7575b505067ffffffffffffffff9150610569565b9091506011190160ff81116105fd576105cf90610d84565b9182156105ea57509067ffffffffffffffff910485806105a5565b634e487b7160e01b845260129052602483fd5b634e487b7160e01b845260118352602484fd5b94505060a0843d60a01161065b575b8161062c60a09383610d4b565b810103126101235761063d84610d6d565b506020840151610654608060608701519601610d6d565b5086610525565b3d915061061f565b85513d85823e3d90fd5b506001600160a01b036002541615156104ae565b9091929661068e82610ccc565b90549060031b1c86526020868152888720908951916106ac83610d19565b8054928381526001600160a01b03600289840154938584019485520154169b8c9101528b8051809c81956365a255c960e01b83528b83015260249586915afa9a8b156108185789928a9c6107cb575b505051600160ff1b91808202918a8212848214166107b95781830514901517156107a757670de0b6b3a76400009005908882126107805750820180921161076f57505b9667ffffffffffffffff871667ffffffffffffffff821610610767575b5082019087929161049b565b95508261075b565b634e487b7160e01b87526011865286fd5b811461079557820191821161076f575061073e565b50634e487b7160e01b87526011865286fd5b634e487b7160e01b8952601188528289fd5b634e487b7160e01b8b5260118a52848bfd5b919b5091508b82813d8311610811575b6107e58183610d4b565b8101031261080d5781519101519067ffffffffffffffff8216820361080d5790998c806106fb565b8880fd5b503d6107db565b8c513d8b823e3d90fd5b503461012357602036600319011261012357358252602082815291819020805460018201546002909201549251908152928301526001600160a01b03166040820152606090f35b5034610123578160031936011261012357610882610cb6565b9061088b610c9b565b7ff0c57e16840df040f15088dc2f81fe391c3923bec73e23a9662efc9c229c6a009283549260ff84871c16159367ffffffffffffffff8116801590816109b4575b60011490816109aa575b1590816109a1575b506109925767ffffffffffffffff198116600117865584610973575b5060ff8554871c161561096557509061091561091b92610e58565b50610ef8565b50610924578280f35b805468ff00000000000000001916905551600181527fc7f505b2f371ae2175ee4913f4499e1f2633a7b5936321eed1cdaeb6115181d290602090a138808280f35b8551631afcd79f60e31b8152fd5b68ffffffffffffffffff191668010000000000000001178555386108fa565b50855163f92ee8a960e01b8152fd5b905015386108de565b303b1591506108d6565b8691506108cc565b50503461014f578160031936011261014f57602090517f73e573f9566d61418a34d5de3ff49360f9c51fec37f7486551670290f6285dab8152f35b5091903461014f578060031936011261014f57610a12610c9b565b90336001600160a01b03831603610a2f5750610254919235611042565b5163334bd91960e11b81528390fd5b50903461012357602080600319360112610bbe57610a5a610cb6565b7f7935bd0ae54bc31f548c14dba4d37c5c64b3f8ca900cb468fb8abd54d5894f558086526000805160206110c78339815191528352838620338752835260ff848720541615610ba057506001600160a01b03169060025493826001600160a01b0319861617600255818451809263313ce56760e01b825281865afa908115610b96578691610b3b575b507fc153f11cb7e75c7a2077f7e35e525c70289389fb9bba13cc36858f416057a614948360ff928360a01b9060a01b16916affffffffffffffffffffff60a81b16171780600255845193845260a01c1690820152a180f35b90508181813d8311610b8f575b610b528183610d4b565b81010312610b8b575160ff81168103610b8b577fc153f11cb7e75c7a2077f7e35e525c70289389fb9bba13cc36858f416057a614610ae3565b8580fd5b503d610b48565b84513d88823e3d90fd5b835163e2517d3f60e01b815233818701526024810191909152604490fd5b8380fd5b5090346101235780600319360112610123576102549135610be66001610230610c9b565b610fba565b503461012357602036600319011261012357816020936001923581526000805160206110c783398151915285522001549051908152f35b50503461014f578160031936011261014f5760209060ff60025460a01c169051908152f35b92505034610123576020366003190112610123573563ffffffff60e01b81168091036101235760209250637965db0b60e01b8114908115610c8a575b5015158152f35b6301ffc9a760e01b14905038610c83565b602435906001600160a01b0382168203610cb157565b600080fd5b600435906001600160a01b0382168203610cb157565b600154811015610d035760016000527fb10e2d527612073b26eecdfd717e6a320cf44b4afac2b0732d9fcbe2b7fa0cf60190600090565b634e487b7160e01b600052603260045260246000fd5b6060810190811067ffffffffffffffff821117610d3557604052565b634e487b7160e01b600052604160045260246000fd5b90601f8019910116810190811067ffffffffffffffff821117610d3557604052565b519069ffffffffffffffffffff82168203610cb157565b60ff16604d8111610d9557600a0a90565b634e487b7160e01b600052601160045260246000fd5b3360009081527f268477d1c17bf7595397186358fec802c44c92bb39292de205ad03cbfe096e0260205260409020547f73e573f9566d61418a34d5de3ff49360f9c51fec37f7486551670290f6285dab9060ff1615610e075750565b6044906040519063e2517d3f60e01b82523360048301526024820152fd5b806000526000805160206110c783398151915260205260406000203360005260205260ff6040600020541615610e075750565b6001600160a01b031660008181527fb7db2dd08fcb62d0c9e08c51941cae53c267786a0b75803fb7960902fc8ef97d60205260408120549091906000805160206110c78339815191529060ff16610ef3578280526020526040822081835260205260408220600160ff1982541617905533917f2f8788117e7eff1d82e926ec794901d17c78024a50270940304540a733656f0d8180a4600190565b505090565b6001600160a01b031660008181527f75e09417c5070057df3eafe5054d52fa0b2a87d64a235e197963b615aedee80360205260408120549091907f7935bd0ae54bc31f548c14dba4d37c5c64b3f8ca900cb468fb8abd54d5894f55906000805160206110c78339815191529060ff16610fb4578184526020526040832082845260205260408320600160ff198254161790557f2f8788117e7eff1d82e926ec794901d17c78024a50270940304540a733656f0d339380a4600190565b50505090565b906000918083526000805160206110c7833981519152806020526001600160a01b036040852093169283855260205260ff60408520541615600014610fb4578184526020526040832082845260205260408320600160ff198254161790557f2f8788117e7eff1d82e926ec794901d17c78024a50270940304540a733656f0d339380a4600190565b906000918083526000805160206110c7833981519152806020526001600160a01b036040852093169283855260205260ff604085205416600014610fb457818452602052604083208284526020526040832060ff1981541690557ff6391f5c32d9c69d2a47ea670b442974b53935d1edc7fd64eb21e047a839171b339380a460019056fe02dd7bc7dec4dceedda775e58dd541e08a116c6c53815c0bd028192f7b626800a264697066735822122016c9c6879bef6645d733bb893374cadf9972ab636988c2f77ce30a06147a3fdc64736f6c63430008180033",
  "linkReferences": {},
  "deployedLinkReferences": {}
}