{"abi":[{"type":"constructor","inputs":[{"name":"router","type":"address","internalType":"address"},{"name":"admin","type":"address","internalType":"address"}],"stateMutability":"nonpayable"},{"type":"receive","stateMutability":"payable"},{"type":"function","name":"DEFAULT_ADMIN_ROLE","inputs":[],"outputs":[{"name":"","type":"bytes32","internalType":"bytes32"}],"stateMutability":"view"},{"type":"function","name":"GOVERNOR_ROLE","inputs":[],"outputs":[{"name":"","type":"bytes32","internalType":"bytes32"}],"stateMutability":"view"},{"type":"function","name":"allowedReceivers","inputs":[{"name":"","type":"uint64","internalType":"uint64"},{"name":"","type":"address","internalType":"address"}],"outputs":[{"name":"","type":"bool","internalType":"bool"}],"stateMutability":"view"},{"type":"function","name":"getRoleAdmin","inputs":[{"name":"role","type":"bytes32","internalType":"bytes32"}],"outputs":[{"name":"","type":"bytes32","internalType":"bytes32"}],"stateMutability":"view"},{"type":"function","name":"grantRole","inputs":[{"name":"role","type":"bytes32","internalType":"bytes32"},{"name":"account","type":"address","internalType":"address"}],"outputs":[],"stateMutability":"nonpayable"},{"type":"function","name":"hasRole","inputs":[{"name":"role","type":"bytes32","internalType":"bytes32"},{"name":"account","type":"address","internalType":"address"}],"outputs":[{"name":"","type":"bool","internalType":"bool"}],"stateMutability":"view"},{"type":"function","name":"renounceRole","inputs":[{"name":"role","type":"bytes32","internalType":"bytes32"},{"name":"callerConfirmation","type":"address","internalType":"address"}],"outputs":[],"stateMutability":"nonpayable"},{"type":"function","name":"revokeRole","inputs":[{"name":"role","type":"bytes32","internalType":"bytes32"},{"name":"account","type":"address","internalType":"address"}],"outputs":[],"stateMutability":"nonpayable"},{"type":"function","name":"send","inputs":[{"name":"dstChain","type":"uint64","internalType":"uint64"},{"name":"receiver","type":"address","internalType":"address"},{"name":"payload","type":"bytes","internalType":"bytes"}],"outputs":[{"name":"","type":"bytes32","internalType":"bytes32"}],"stateMutability":"payable"},{"type":"function","name":"setAllowedReceiver","inputs":[{"name":"chainSelector","type":"uint64","internalType":"uint64"},{"name":"receiver","type":"address","internalType":"address"},{"name":"allowed","type":"bool","internalType":"bool"}],"outputs":[],"stateMutability":"nonpayable"},{"type":"function","name":"setSupportedChain","inputs":[{"name":"chainSelector","type":"uint64","internalType":"uint64"},{"name":"supported","type":"bool","internalType":"bool"}],"outputs":[],"stateMutability":"nonpayable"},{"type":"function","name":"supportedChains","inputs":[{"name":"","type":"uint64","internalType":"uint64"}],"outputs":[{"name":"","type":"bool","internalType":"bool"}],"stateMutability":"view"},{"type":"function","name":"supportsInterface","inputs":[{"name":"interfaceId","type":"bytes4","internalType":"bytes4"}],"outputs":[{"name":"","type":"bool","internalType":"bool"}],"stateMutability":"view"},{"type":"event","name":"ChainSupported","inputs":[{"name":"chainSelector","type":"uint64","indexed":false,"internalType":"uint64"},{"name":"supported","type":"bool","indexed":false,"internalType":"bool"}],"anonymous":false},{"type":"event","name":"ReceiverAllowed","inputs":[{"name":"chainSelector","type":"uint64","indexed":false,"internalType":"uint64"},{"name":"receiver","type":"address","indexed":false,"internalType":"address"},{"name":"allowed","type":"bool","indexed":false,"internalType":"bool"}],"anonymous":false},{"type":"event","name":"RoleAdminChanged","inputs":[{"name":"role","type":"bytes32","indexed":true,"internalType":"bytes32"},{"name":"previousAdminRole","type":"bytes32","indexed":true,"internalType":"bytes32"},{"name":"newAdminRole","type":"bytes32","indexed":true,"internalType":"bytes32"}],"anonymous":false},{"type":"event","name":"RoleGranted","inputs":[{"name":"role","type":"bytes32","indexed":true,"internalType":"bytes32"},{"name":"account","type":"address","indexed":true,"internalType":"address"},{"name":"sender","type":"address","indexed":true,"internalType":"address"}],"anonymous":false},{"type":"event","name":"RoleRevoked","inputs":[{"name":"role","type":"bytes32","indexed":true,"internalType":"bytes32"},{"name":"account","type":"address","indexed":true,"internalType":"address"},{"name":"sender","type":"address","indexed":true,"internalType":"address"}],"anonymous":false},{"type":"event","name":"Sent","inputs":[{"name":"msgId","type":"bytes32","indexed":false,"internalType":"bytes32"},{"name":"dst","type":"uint64","indexed":false,"internalType":"uint64"},{"name":"receiver","type":"address","indexed":false,"internalType":"address"},{"name":"payload","type":"bytes","indexed":false,"internalType":"bytes"}],"anonymous":false},{"type":"error","name":"AccessControlBadConfirmation","inputs":[]},{"type":"error","name":"AccessControlUnauthorizedAccount","inputs":[{"name":"account","type":"address","internalType":"address"},{"name":"neededRole","type":"bytes32","internalType":"bytes32"}]},{"type":"error","name":"ReentrancyGuardReentrantCall","inputs":[]}],"bytecode":{"object":"0x60a034620000d357601f620012f238819003918201601f19168301916001600160401b03831184841017620000d8578084926040948552833981010312620000d3576200005a60206200005283620000ee565b9201620000ee565b600180556001600160a01b03909116908115620000a5576200008b91608052620000848162000103565b5062000183565b506040516110ac9081620002268239608051816107130152f35b60405162461bcd60e51b81526020600482015260066024820152653937baba32b960d11b6044820152606490fd5b600080fd5b634e487b7160e01b600052604160045260246000fd5b51906001600160a01b0382168203620000d357565b6001600160a01b031660008181527fad3228b676f7d3cd4284a5443f17f1962b36e491b30a40b2405849e597ba5fb5602052604081205490919060ff166200017f57818052816020526040822081835260205260408220600160ff198254161790553391600080516020620012d28339815191528180a4600190565b5090565b6001600160a01b031660008181527f6f3b488caa0dc03e5f3d9fd6a25fa8755afcfd62ccffb6e436c696bfa6b866de60205260408120549091907f7935bd0ae54bc31f548c14dba4d37c5c64b3f8ca900cb468fb8abd54d5894f559060ff166200022057808352826020526040832082845260205260408320600160ff19825416179055600080516020620012d2833981519152339380a4600190565b50509056fe608080604052600436101561001d575b50361561001b57600080fd5b005b60003560e01c90816301ffc9a714610bba57508063248a9ca314610b6d5780632f2ff15d14610b1057806336568abe14610a8657806367914f6e146104d65780637589d4cd1461044d57806391d14854146103d45780639602bad5146102d7578063a217fddf1461029d578063ccc5749014610244578063d547741f146101e7578063f5b5b8041461011c5763f9c3f332146100b9573861000f565b346101175760207ffffffffffffffffffffffffffffffffffffffffffffffffffffffffffffffffc3601126101175767ffffffffffffffff6100f9610c99565b166000526002602052602060ff604060002054166040519015158152f35b600080fd5b346101175760407ffffffffffffffffffffffffffffffffffffffffffffffffffffffffffffffffc36011261011757610153610c99565b6024359081151591828103610117577f1e0c3057f04400da671fb47f00beb7d5ac4d6ffc2280ddcdf55321419659ebef926101da67ffffffffffffffff60409461019b610e72565b1692836000526002602052846000209060ff7fffffffffffffffffffffffffffffffffffffffffffffffffffffffffffffff0083541691151516179055565b82519182526020820152a1005b346101175760407ffffffffffffffffffffffffffffffffffffffffffffffffffffffffffffffffc3601126101175761001b600435610224610c76565b9080600052600060205261023f600160406000200154610f05565b610fd5565b346101175760007ffffffffffffffffffffffffffffffffffffffffffffffffffffffffffffffffc3601126101175760206040517f7935bd0ae54bc31f548c14dba4d37c5c64b3f8ca900cb468fb8abd54d5894f558152f35b346101175760007ffffffffffffffffffffffffffffffffffffffffffffffffffffffffffffffffc36011261011757602060405160008152f35b346101175760607ffffffffffffffffffffffffffffffffffffffffffffffffffffffffffffffffc3601126101175761030e610c99565b610316610c76565b90604435801515808203610117577f245ade2460496267c58f569481c96bf38ea7807af4e3070438ebc4a0fb8d1b61936103c167ffffffffffffffff60609561035d610e72565b169384600052600360205273ffffffffffffffffffffffffffffffffffffffff60406000209316928360005260205260406000209060ff7fffffffffffffffffffffffffffffffffffffffffffffffffffffffffffffff0083541691151516179055565b60405192835260208301526040820152a1005b346101175760407ffffffffffffffffffffffffffffffffffffffffffffffffffffffffffffffffc3601126101175761040b610c76565b600435600052600060205273ffffffffffffffffffffffffffffffffffffffff60406000209116600052602052602060ff604060002054166040519015158152f35b346101175760407ffffffffffffffffffffffffffffffffffffffffffffffffffffffffffffffffc36011261011757610484610c99565b67ffffffffffffffff610495610c76565b9116600052600360205273ffffffffffffffffffffffffffffffffffffffff60406000209116600052602052602060ff604060002054166040519015158152f35b60607ffffffffffffffffffffffffffffffffffffffffffffffffffffffffffffffffc36011261011757610508610c99565b610510610c76565b906044359067ffffffffffffffff821161011757366023830112156101175767ffffffffffffffff826004013511610117573660248360040135840101116101175761055a610e72565b600260015414610a5c57600260015567ffffffffffffffff8116600052600260205260ff60406000205416156109fe5767ffffffffffffffff81166000526003602052604060002073ffffffffffffffffffffffffffffffffffffffff841660005260205260ff60406000205416156109a0576040519173ffffffffffffffffffffffffffffffffffffffff84166020840152602083526105fa83610cb0565b6040516020810181811067ffffffffffffffff82111761097157604052600081526040519361062885610cb0565b60006020620493e0968781520152604051946020860152600060408601526040855284606081011067ffffffffffffffff606087011117610971576060850161010086011067ffffffffffffffff6101008701111761097157610100850160405260608501526040516106c760207fffffffffffffffffffffffffffffffffffffffffffffffffffffffffffffffe0601f866004013501160182610ccc565b600483013580825260248401602083013760006020846004013583010152608085015260a08401528260c0810152600060e084015273ffffffffffffffffffffffffffffffffffffffff7f0000000000000000000000000000000000000000000000000000000000000000166040517f84293a740000000000000000000000000000000000000000000000000000000081526020818061076e606089018860048401610d6b565b0381855afa9081156108d55760009161093f575b5034106108e15760606020916107c9956040518097819482937f2809f931000000000000000000000000000000000000000000000000000000008452018860048401610d6b565b039134905af19283156108d55760009361089e575b5060a07f8cdcaac7bebd0c951a7450b3f3b461efbf75b15854d8a8dbf7252180f45110f7927fffffffffffffffffffffffffffffffffffffffffffffffffffffffffffffffe0601f67ffffffffffffffff9473ffffffffffffffffffffffffffffffffffffffff6020996040519788968b8852168b8701521660408501526080606085015280600401356080850152806004013560248201868601376000858260040135860101526004013501168101030190a160018055604051908152f35b9392506020843d6020116108cd575b816108ba60209383610ccc565b81010312610117579251919260a06107de565b3d91506108ad565b6040513d6000823e3d90fd5b60646040517f08c379a000000000000000000000000000000000000000000000000000000000815260206004820152600360248201527f66656500000000000000000000000000000000000000000000000000000000006044820152fd5b90506020813d602011610969575b8161095a60209383610ccc565b81010312610117575186610782565b3d915061094d565b7f4e487b7100000000000000000000000000000000000000000000000000000000600052604160045260246000fd5b60646040517f08c379a000000000000000000000000000000000000000000000000000000000815260206004820152600460248201527f72656376000000000000000000000000000000000000000000000000000000006044820152fd5b60646040517f08c379a000000000000000000000000000000000000000000000000000000000815260206004820152600560248201527f636861696e0000000000000000000000000000000000000000000000000000006044820152fd5b60046040517f3ee5aeb5000000000000000000000000000000000000000000000000000000008152fd5b346101175760407ffffffffffffffffffffffffffffffffffffffffffffffffffffffffffffffffc36011261011757610abd610c76565b3373ffffffffffffffffffffffffffffffffffffffff821603610ae65761001b90600435610fd5565b60046040517f6697b232000000000000000000000000000000000000000000000000000000008152fd5b346101175760407ffffffffffffffffffffffffffffffffffffffffffffffffffffffffffffffffc3601126101175761001b600435610b4d610c76565b90806000526000602052610b68600160406000200154610f05565b610f2b565b346101175760207ffffffffffffffffffffffffffffffffffffffffffffffffffffffffffffffffc3601126101175760043560005260006020526020600160406000200154604051908152f35b346101175760207ffffffffffffffffffffffffffffffffffffffffffffffffffffffffffffffffc36011261011757600435907fffffffff00000000000000000000000000000000000000000000000000000000821680920361011757817f7965db0b0000000000000000000000000000000000000000000000000000000060209314908115610c4c575b5015158152f35b7f01ffc9a70000000000000000000000000000000000000000000000000000000091501483610c45565b6024359073ffffffffffffffffffffffffffffffffffffffff8216820361011757565b6004359067ffffffffffffffff8216820361011757565b6040810190811067ffffffffffffffff82111761097157604052565b90601f7fffffffffffffffffffffffffffffffffffffffffffffffffffffffffffffffe0910116810190811067ffffffffffffffff82111761097157604052565b919082519283825260005b848110610d575750507fffffffffffffffffffffffffffffffffffffffffffffffffffffffffffffffe0601f8460006020809697860101520116010190565b602081830181015184830182015201610d18565b9067ffffffffffffffff604091168252602090604082840152610d9a845160a0604086015260e0850190610d0d565b90610dd483860151927fffffffffffffffffffffffffffffffffffffffffffffffffffffffffffffffc09384878303016060880152610d0d565b604086015193838683030160808701528080865193848152019501926000905b838210610e3c5750505050506080610e3260c09373ffffffffffffffffffffffffffffffffffffffff936060880151908783030160a0880152610d0d565b9401511691015290565b8451805173ffffffffffffffffffffffffffffffffffffffff168852830151878401529586019593820193600190910190610df4565b3360009081527f6f3b488caa0dc03e5f3d9fd6a25fa8755afcfd62ccffb6e436c696bfa6b866de60205260409020547f7935bd0ae54bc31f548c14dba4d37c5c64b3f8ca900cb468fb8abd54d5894f559060ff1615610ece5750565b604490604051907fe2517d3f0000000000000000000000000000000000000000000000000000000082523360048301526024820152fd5b80600052600060205260406000203360005260205260ff6040600020541615610ece5750565b906000918083528260205273ffffffffffffffffffffffffffffffffffffffff6040842092169182845260205260ff60408420541615600014610fd05780835282602052604083208284526020526040832060017fffffffffffffffffffffffffffffffffffffffffffffffffffffffffffffff008254161790557f2f8788117e7eff1d82e926ec794901d17c78024a50270940304540a733656f0d339380a4600190565b505090565b906000918083528260205273ffffffffffffffffffffffffffffffffffffffff6040842092169182845260205260ff604084205416600014610fd0578083528260205260408320828452602052604083207fffffffffffffffffffffffffffffffffffffffffffffffffffffffffffffff0081541690557ff6391f5c32d9c69d2a47ea670b442974b53935d1edc7fd64eb21e047a839171b339380a460019056fea26469706673582212203d16b938a4a3e7eac2522efa4eb866fe1621dc2095e1455a6fcffdf668aac43064736f6c634300081800332f8788117e7eff1d82e926ec794901d17c78024a50270940304540a733656f0d","linkReferences":{}},"methodIdentifiers":{"DEFAULT_ADMIN_ROLE()":"a217fddf","GOVERNOR_ROLE()":"ccc57490","allowedReceivers(uint64,address)":"7589d4cd","getRoleAdmin(bytes32)":"248a9ca3","grantRole(bytes32,address)":"2f2ff15d","hasRole(bytes32,address)":"91d14854","renounceRole(bytes32,address)":"36568abe","revokeRole(bytes32,address)":"d547741f","send(uint64,address,bytes)":"67914f6e","setAllowedReceiver(uint64,address,bool)":"9602bad5","setSupportedChain(uint64,bool)":"f5b5b804","supportedChains(uint64)":"f9c3f332","supportsInterface(bytes4)":"01ffc9a7"},"id":4}