{
  "_format": "hh-sol-artifact-1",
  "contractName": "ReserveManager",
  "sourceName": "contracts/mica/ReserveManager.sol",
  "abi": [
    {
      "inputs": [
        {
          "internalType": "address",
          "name": "admin",
          "type": "address"
        },
        {
          "internalType": "address",
          "name": "governor",
          "type": "address"
        }
      ],
      "stateMutability": "nonpayable",
      "type": "constructor"
    },
    {
      "inputs": [],
      "name": "AccessControlBadConfirmation",
      "type": "error"
    },
    {
      "inputs": [
        {
          "internalType": "address",
          "name": "account",
          "type": "address"
        },
        {
          "internalType": "bytes32",
          "name": "neededRole",
          "type": "bytes32"
        }
      ],
      "name": "AccessControlUnauthorizedAccount",
      "type": "error"
    },
    {
      "anonymous": false,
      "inputs": [
        {
          "indexed": false,
          "internalType": "enum ReserveManager.Bucket",
          "name": "bucket",
          "type": "uint8"
        },
        {
          "indexed": false,
          "internalType": "uint16",
          "name": "maxBps",
          "type": "uint16"
        }
      ],
      "name": "LimitsSet",
      "type": "event"
    },
    {
      "anonymous": false,
      "inputs": [
        {
          "indexed": false,
          "internalType": "uint256",
          "name": "total",
          "type": "uint256"
        },
        {
          "indexed": false,
          "internalType": "uint256[5]",
          "name": "byBucket",
          "type": "uint256[5]"
        },
        {
          "indexed": false,
          "internalType": "uint64",
          "name": "ts",
          "type": "uint64"
        },
        {
          "indexed": false,
          "internalType": "bytes32",
          "name": "proofCid",
          "type": "bytes32"
        }
      ],
      "name": "ReservesAttested",
      "type": "event"
    },
    {
      "anonymous": false,
      "inputs": [
        {
          "indexed": true,
          "internalType": "bytes32",
          "name": "role",
          "type": "bytes32"
        },
        {
          "indexed": true,
          "internalType": "bytes32",
          "name": "previousAdminRole",
          "type": "bytes32"
        },
        {
          "indexed": true,
          "internalType": "bytes32",
          "name": "newAdminRole",
          "type": "bytes32"
        }
      ],
      "name": "RoleAdminChanged",
      "type": "event"
    },
    {
      "anonymous": false,
      "inputs": [
        {
          "indexed": true,
          "internalType": "bytes32",
          "name": "role",
          "type": "bytes32"
        },
        {
          "indexed": true,
          "internalType": "address",
          "name": "account",
          "type": "address"
        },
        {
          "indexed": true,
          "internalType": "address",
          "name": "sender",
          "type": "address"
        }
      ],
      "name": "RoleGranted",
      "type": "event"
    },
    {
      "anonymous": false,
      "inputs": [
        {
          "indexed": true,
          "internalType": "bytes32",
          "name": "role",
          "type": "bytes32"
        },
        {
          "indexed": true,
          "internalType": "address",
          "name": "account",
          "type": "address"
        },
        {
          "indexed": true,
          "internalType": "address",
          "name": "sender",
          "type": "address"
        }
      ],
      "name": "RoleRevoked",
      "type": "event"
    },
    {
      "inputs": [],
      "name": "ATTESTOR_ROLE",
      "outputs": [
        {
          "internalType": "bytes32",
          "name": "",
          "type": "bytes32"
        }
      ],
      "stateMutability": "view",
      "type": "function"
    },
    {
      "inputs": [],
      "name": "DEFAULT_ADMIN_ROLE",
      "outputs": [
        {
          "internalType": "bytes32",
          "name": "",
          "type": "bytes32"
        }
      ],
      "stateMutability": "view",
      "type": "function"
    },
    {
      "inputs": [],
      "name": "GOVERNOR_ROLE",
      "outputs": [
        {
          "internalType": "bytes32",
          "name": "",
          "type": "bytes32"
        }
      ],
      "stateMutability": "view",
      "type": "function"
    },
    {
      "inputs": [
        {
          "internalType": "uint256",
          "name": "total",
          "type": "uint256"
        },
        {
          "internalType": "uint256[5]",
          "name": "byBucket",
          "type": "uint256[5]"
        },
        {
          "internalType": "uint64",
          "name": "ts",
          "type": "uint64"
        },
        {
          "internalType": "bytes32",
          "name": "proofCid",
          "type": "bytes32"
        }
      ],
      "name": "attest",
      "outputs": [],
      "stateMutability": "nonpayable",
      "type": "function"
    },
    {
      "inputs": [
        {
          "internalType": "uint256",
          "name": "liabilities",
          "type": "uint256"
        }
      ],
      "name": "coverageBps",
      "outputs": [
        {
          "internalType": "uint16",
          "name": "cov",
          "type": "uint16"
        }
      ],
      "stateMutability": "view",
      "type": "function"
    },
    {
      "inputs": [
        {
          "internalType": "bytes32",
          "name": "role",
          "type": "bytes32"
        }
      ],
      "name": "getRoleAdmin",
      "outputs": [
        {
          "internalType": "bytes32",
          "name": "",
          "type": "bytes32"
        }
      ],
      "stateMutability": "view",
      "type": "function"
    },
    {
      "inputs": [
        {
          "internalType": "bytes32",
          "name": "role",
          "type": "bytes32"
        },
        {
          "internalType": "address",
          "name": "account",
          "type": "address"
        }
      ],
      "name": "grantRole",
      "outputs": [],
      "stateMutability": "nonpayable",
      "type": "function"
    },
    {
      "inputs": [
        {
          "internalType": "bytes32",
          "name": "role",
          "type": "bytes32"
        },
        {
          "internalType": "address",
          "name": "account",
          "type": "address"
        }
      ],
      "name": "hasRole",
      "outputs": [
        {
          "internalType": "bool",
          "name": "",
          "type": "bool"
        }
      ],
      "stateMutability": "view",
      "type": "function"
    },
    {
      "inputs": [],
      "name": "last",
      "outputs": [
        {
          "internalType": "uint256",
          "name": "total",
          "type": "uint256"
        },
        {
          "internalType": "uint64",
          "name": "ts",
          "type": "uint64"
        },
        {
          "internalType": "bytes32",
          "name": "proofCid",
          "type": "bytes32"
        }
      ],
      "stateMutability": "view",
      "type": "function"
    },
    {
      "inputs": [
        {
          "internalType": "enum ReserveManager.Bucket",
          "name": "",
          "type": "uint8"
        }
      ],
      "name": "limits",
      "outputs": [
        {
          "internalType": "uint16",
          "name": "maxBps",
          "type": "uint16"
        }
      ],
      "stateMutability": "view",
      "type": "function"
    },
    {
      "inputs": [
        {
          "internalType": "bytes32",
          "name": "role",
          "type": "bytes32"
        },
        {
          "internalType": "address",
          "name": "callerConfirmation",
          "type": "address"
        }
      ],
      "name": "renounceRole",
      "outputs": [],
      "stateMutability": "nonpayable",
      "type": "function"
    },
    {
      "inputs": [
        {
          "internalType": "bytes32",
          "name": "role",
          "type": "bytes32"
        },
        {
          "internalType": "address",
          "name": "account",
          "type": "address"
        }
      ],
      "name": "revokeRole",
      "outputs": [],
      "stateMutability": "nonpayable",
      "type": "function"
    },
    {
      "inputs": [
        {
          "internalType": "enum ReserveManager.Bucket",
          "name": "b",
          "type": "uint8"
        },
        {
          "internalType": "uint16",
          "name": "maxBps",
          "type": "uint16"
        }
      ],
      "name": "setLimit",
      "outputs": [],
      "stateMutability": "nonpayable",
      "type": "function"
    },
    {
      "inputs": [
        {
          "internalType": "bytes4",
          "name": "interfaceId",
          "type": "bytes4"
        }
      ],
      "name": "supportsInterface",
      "outputs": [
        {
          "internalType": "bool",
          "name": "",
          "type": "bool"
        }
      ],
      "stateMutability": "view",
      "type": "function"
    }
  ],
  "bytecode": "0x60803461007557601f610ba138819003918201601f19168301916001600160401b0383118484101761007a578084926040948552833981010312610075578061005f610059602061005261006595610090565b9301610090565b916100a4565b50610122565b506040516109be90816101c38239f35b600080fd5b634e487b7160e01b600052604160045260246000fd5b51906001600160a01b038216820361007557565b6001600160a01b031660008181527fad3228b676f7d3cd4284a5443f17f1962b36e491b30a40b2405849e597ba5fb5602052604081205490919060ff1661011e57818052816020526040822081835260205260408220600160ff198254161790553391600080516020610b818339815191528180a4600190565b5090565b6001600160a01b031660008181527f6f3b488caa0dc03e5f3d9fd6a25fa8755afcfd62ccffb6e436c696bfa6b866de60205260408120549091907f7935bd0ae54bc31f548c14dba4d37c5c64b3f8ca900cb468fb8abd54d5894f559060ff166101bd57808352826020526040832082845260205260408320600160ff19825416179055600080516020610b81833981519152339380a4600190565b50509056fe608060409080825260048036101561001657600080fd5b600091823560e01c90816301ffc9a7146107015750806314b32112146106ca578063248a9ca31461069f5780632f2ff15d1461068157806336568abe1461064657806347799da81461060c5780634cc09eed146104d7578063627236441461049c5780636b9a64821461046d57806391d1485414610434578063a217fddf14610419578063ccc57490146103de578063d547741f146103a95763db3df45d146100be57600080fd5b346103a55761010090816003193601126103a15780359060c4943660c41161039d5760c4359067ffffffffffffffff928383168093036103995760e435937fa7e0cd0f2772b23ee4c329892293a6bd99d48c306b094d6d008c9a8bb8b731e498898952602099898b52848a20338b528b5260ff858b2054161561037b5750861561034e5786898a5b6005811061031c5750036102ec57885b600581106102565750835191608083018381108282111761024357855287835284519360a085019182118583101761023057508452896024845b838210610221575050839150820152838382015284606082015251600255865b6005811061020e57505060247f7e2fb528212e640a2c61cd6068fa8e7c48cc5e1ae021609269c8fe20cd6d066a969760a0928467ffffffffffffffff196008541617600855856009555195865285013760c083015260e0820152a180f35b81516003820155908801906001016101b0565b81358152908201908201610190565b634e487b7160e01b8b526041905260248afd5b634e487b7160e01b8b526041855260248bfd5b61ffff61026282610755565b541680610273575b50600101610156565b61027c82610827565b35612710908181029181830414901517156102d9578961029b916107af565b116102a6573861026a565b845162461bcd60e51b81528085018c9052600d60248201526c31b7b731b2b73a3930ba34b7b760991b6044820152606490fd5b634e487b7160e01b8c526011865260248cfd5b835162461bcd60e51b81528084018b9052600a6024820152691cdd5b484f5d1bdd185b60b21b6044820152606490fd5b915061032782610827565b35810180911161033b578891600101610146565b634e487b7160e01b8b526011855260248bfd5b835162461bcd60e51b81528084018b905260076024820152660746f74616c3d360cc1b6044820152606490fd5b845163e2517d3f60e01b815233818601526024810191909152604490fd5b8680fd5b8480fd5b8280fd5b5080fd5b8284346103a55760016103da916103d56103c236610784565b939092838752866020528620015461084f565b610912565b5080f35b8284346103a557816003193601126103a557602090517f7935bd0ae54bc31f548c14dba4d37c5c64b3f8ca900cb468fb8abd54d5894f558152f35b8284346103a557816003193601126103a55751908152602090f35b8284346103a55760ff8160209361044a36610784565b9082528186526001600160a01b0383832091168252855220541690519015158152f35b50919034610499576020366003190112610499575061ffff610491602093356107cf565b915191168152f35b80fd5b8284346103a557816003193601126103a557602090517fa7e0cd0f2772b23ee4c329892293a6bd99d48c306b094d6d008c9a8bb8b731e48152f35b5091346103a557806003193601126103a557823560058110156103a15760243561ffff80821680920361039d577f7935bd0ae54bc31f548c14dba4d37c5c64b3f8ca900cb468fb8abd54d5894f558086528560205284862033875260205260ff8587205416156105ee575061271082116105c5578351906020820182811067ffffffffffffffff8211176105b2577f0dd8ecddc84f99ffc44aec30ff879aea4b6136d3e31229bf1483e1c1b953abae969750855282825261059784610755565b91511661ffff1982541617905582519182526020820152a180f35b634e487b7160e01b875260418852602487fd5b835162461bcd60e51b8152602081880152600360248201526262707360e81b6044820152606490fd5b845163e2517d3f60e01b815233818901526024810191909152604490fd5b8284346103a557816003193601126103a5576060906002549067ffffffffffffffff60085416906009549181519384526020840152820152f35b5091346103a55761065636610784565b91336001600160a01b038416036106725750906103da91610912565b5163334bd91960e11b81528490fd5b8284346103a55760016103da9161069a6103c236610784565b610893565b508290346103a15760203660031901126103a157816020936001923581528085522001549051908152f35b508290346103a15760203660031901126103a15735916005831015610499575061ffff6106f8602093610755565b54169051908152f35b919050346103a15760203660031901126103a1573563ffffffff60e01b81168091036103a15760209250637965db0b60e01b8114908115610744575b5015158152f35b6301ffc9a760e01b1490508361073d565b600581101561076e576000526001602052604060002090565b634e487b7160e01b600052602160045260246000fd5b60409060031901126107aa57600435906024356001600160a01b03811681036107aa5790565b600080fd5b81156107b9570490565b634e487b7160e01b600052601260045260246000fd5b801561082057600254906127109182810292818404149015171561080a576107f6916107af565b61ffff9081811115610806575090565b1690565b634e487b7160e01b600052601160045260246000fd5b5061ffff90565b60058110156108395760051b60240190565b634e487b7160e01b600052603260045260246000fd5b80600052600060205260406000203360005260205260ff60406000205416156108755750565b6044906040519063e2517d3f60e01b82523360048301526024820152fd5b90600091808352826020526001600160a01b036040842092169182845260205260ff6040842054161560001461090d57808352826020526040832082845260205260408320600160ff198254161790557f2f8788117e7eff1d82e926ec794901d17c78024a50270940304540a733656f0d339380a4600190565b505090565b90600091808352826020526001600160a01b036040842092169182845260205260ff60408420541660001461090d5780835282602052604083208284526020526040832060ff1981541690557ff6391f5c32d9c69d2a47ea670b442974b53935d1edc7fd64eb21e047a839171b339380a460019056fea2646970667358221220f9c92617262fc6b5a0c8407d71b54c42dac4aed7e17bbf589d997d5eaa6aeb7864736f6c634300081800332f8788117e7eff1d82e926ec794901d17c78024a50270940304540a733656f0d",
  "linkReferences": {},
  "deployedLinkReferences": {}
}