{
  "_format": "hh-sol-artifact-1",
  "contractName": "Iso20022Bridge",
  "sourceName": "contracts/iso20022/Iso20022Bridge.sol",
  "abi": [
    {
      "inputs": [
        {
          "internalType": "address",
          "name": "_admin",
          "type": "address"
        }
      ],
      "stateMutability": "nonpayable",
      "type": "constructor"
    },
    {
      "anonymous": false,
      "inputs": [
        {
          "indexed": true,
          "internalType": "address",
          "name": "from",
          "type": "address"
        },
        {
          "indexed": true,
          "internalType": "address",
          "name": "to",
          "type": "address"
        }
      ],
      "name": "AdminTransferred",
      "type": "event"
    },
    {
      "anonymous": false,
      "inputs": [
        {
          "indexed": true,
          "internalType": "bytes32",
          "name": "id",
          "type": "bytes32"
        },
        {
          "indexed": true,
          "internalType": "bytes16",
          "name": "uetr",
          "type": "bytes16"
        },
        {
          "indexed": false,
          "internalType": "string",
          "name": "status",
          "type": "string"
        },
        {
          "indexed": false,
          "internalType": "uint256",
          "name": "timestamp",
          "type": "uint256"
        }
      ],
      "name": "GPIPaymentStatusUpdate",
      "type": "event"
    },
    {
      "anonymous": false,
      "inputs": [
        {
          "indexed": true,
          "internalType": "bytes32",
          "name": "id",
          "type": "bytes32"
        },
        {
          "indexed": true,
          "internalType": "bytes16",
          "name": "uetr",
          "type": "bytes16"
        },
        {
          "indexed": false,
          "internalType": "string",
          "name": "trackerEventCode",
          "type": "string"
        },
        {
          "indexed": false,
          "internalType": "bytes32",
          "name": "eventData",
          "type": "bytes32"
        }
      ],
      "name": "GPITrackerUpdate",
      "type": "event"
    },
    {
      "anonymous": false,
      "inputs": [
        {
          "indexed": true,
          "internalType": "bytes32",
          "name": "id",
          "type": "bytes32"
        },
        {
          "indexed": true,
          "internalType": "bytes16",
          "name": "uetr",
          "type": "bytes16"
        },
        {
          "indexed": false,
          "internalType": "bytes32",
          "name": "payloadHash",
          "type": "bytes32"
        },
        {
          "indexed": false,
          "internalType": "bytes32",
          "name": "e2eIdHash",
          "type": "bytes32"
        }
      ],
      "name": "IsoBound",
      "type": "event"
    },
    {
      "anonymous": false,
      "inputs": [
        {
          "indexed": true,
          "internalType": "bytes32",
          "name": "id",
          "type": "bytes32"
        },
        {
          "indexed": true,
          "internalType": "bytes16",
          "name": "uetr",
          "type": "bytes16"
        },
        {
          "indexed": false,
          "internalType": "string",
          "name": "messageType",
          "type": "string"
        },
        {
          "indexed": false,
          "internalType": "bytes32",
          "name": "payloadHash",
          "type": "bytes32"
        }
      ],
      "name": "IsoEvent",
      "type": "event"
    },
    {
      "inputs": [],
      "name": "admin",
      "outputs": [
        {
          "internalType": "address",
          "name": "",
          "type": "address"
        }
      ],
      "stateMutability": "view",
      "type": "function"
    },
    {
      "inputs": [
        {
          "internalType": "bytes32",
          "name": "id",
          "type": "bytes32"
        },
        {
          "internalType": "bytes16",
          "name": "uetr",
          "type": "bytes16"
        },
        {
          "internalType": "bytes32",
          "name": "payloadHash",
          "type": "bytes32"
        },
        {
          "internalType": "bytes32",
          "name": "e2eIdHash",
          "type": "bytes32"
        }
      ],
      "name": "bind",
      "outputs": [],
      "stateMutability": "nonpayable",
      "type": "function"
    },
    {
      "inputs": [
        {
          "internalType": "bytes32",
          "name": "",
          "type": "bytes32"
        }
      ],
      "name": "bindings",
      "outputs": [
        {
          "internalType": "bytes16",
          "name": "uetr",
          "type": "bytes16"
        },
        {
          "internalType": "bytes32",
          "name": "payloadHash",
          "type": "bytes32"
        },
        {
          "internalType": "bytes32",
          "name": "e2eIdHash",
          "type": "bytes32"
        },
        {
          "internalType": "uint64",
          "name": "boundAt",
          "type": "uint64"
        }
      ],
      "stateMutability": "view",
      "type": "function"
    },
    {
      "inputs": [
        {
          "internalType": "bytes32",
          "name": "id",
          "type": "bytes32"
        },
        {
          "internalType": "bytes16",
          "name": "uetr",
          "type": "bytes16"
        },
        {
          "internalType": "string",
          "name": "status",
          "type": "string"
        }
      ],
      "name": "emitGPIStatus",
      "outputs": [],
      "stateMutability": "nonpayable",
      "type": "function"
    },
    {
      "inputs": [
        {
          "internalType": "bytes32",
          "name": "id",
          "type": "bytes32"
        },
        {
          "internalType": "bytes16",
          "name": "uetr",
          "type": "bytes16"
        },
        {
          "internalType": "string",
          "name": "trackerEventCode",
          "type": "string"
        },
        {
          "internalType": "bytes32",
          "name": "eventData",
          "type": "bytes32"
        }
      ],
      "name": "emitGPITracker",
      "outputs": [],
      "stateMutability": "nonpayable",
      "type": "function"
    },
    {
      "inputs": [
        {
          "internalType": "bytes32",
          "name": "id",
          "type": "bytes32"
        },
        {
          "internalType": "bytes16",
          "name": "uetr",
          "type": "bytes16"
        },
        {
          "internalType": "string",
          "name": "messageType",
          "type": "string"
        },
        {
          "internalType": "bytes32",
          "name": "payloadHash",
          "type": "bytes32"
        }
      ],
      "name": "emitMessage",
      "outputs": [],
      "stateMutability": "nonpayable",
      "type": "function"
    },
    {
      "inputs": [
        {
          "internalType": "address",
          "name": "to",
          "type": "address"
        }
      ],
      "name": "transferAdmin",
      "outputs": [],
      "stateMutability": "nonpayable",
      "type": "function"
    }
  ],
  "bytecode": "0x6080346100ae57601f61061238819003918201601f19168301916001600160401b038311848410176100b3578084926020946040528339810103126100ae57516001600160a01b038116908190036100ae57801561007a57600080546001600160a01b03191691909117905560405161054890816100ca8239f35b60405162461bcd60e51b815260206004820152600c60248201526b049534f3a2061646d696e20360a41b6044820152606490fd5b600080fd5b634e487b7160e01b600052604160045260246000fdfe608060408181526004918236101561001657600080fd5b600092833560e01c9182632680c7d81461039c575081632ded43f91461029e57816375829def146101ed57816377a775381461014357508063a6f7db9114610110578063d5dd16b81461009a5763f851a4401461007257600080fd5b346100965781600319360112610096576001600160a01b0360209254169051908152f35b5080fd5b5034610096576100f97f797d70fd851191d3bbe428d1470f5468a18f0075851897211a9e1cc589df8fcf6100cd36610450565b9692916100e96001600160a01b038a98939698541633146104a5565b83519484869586528501916104f1565b9560208301526001600160801b031916940390a380f35b5034610096576100f97fabcaa3146d803b00112a76cc9cc12b0cdd47dd6d50f1db7ff40e54a11fc1c35a6100cd36610450565b919050346101e95760603660031901126101e95761015f6103fd565b9060443567ffffffffffffffff81116101e5577f97955fd53d2e13c42d3375a1318b2496e08ddd90b3844b0380d46916a5318879916101a46101cb9236908701610422565b92906101bb6001600160a01b0389541633146104a5565b82519383859485528401916104f1565b934260208301526001600160801b0319169435930390a380f35b8480fd5b8280fd5b9050346101e95760203660031901126101e9578035916001600160a01b03918284168094036101e5578454928316916102278333146104a5565b841561027257505082907ff8ccb027dfcd135e000e9d45e6cc2d662578a8825d4c45b5e32e0adf67e79ec68580a373ffffffffffffffffffffffffffffffffffffffff191617815580f35b906020606492519162461bcd60e51b83528201526006602482015265049534f3a20360d41b6044820152fd5b8383346100965760803660031901126100965782356102bb6103fd565b916044356064356102d76001600160a01b0387541633146104a5565b67ffffffffffffffff83516080810181811083821117610389579160038992879695947f5852c9bbffc360617435279fd81e2f2000e2e2b9731afb0605a658cdff51504598526001600160801b0319809a16998a8252602082018781528883019187835289606085019787421689528d8152600160205220935160801c908454161783555160018301555160028201550191511667ffffffffffffffff1982541617905582519182526020820152a380f35b634e487b7160e01b895260418a52602489fd5b929150346103f95760203660031901126103f9576080938291358152600160205220805491600182015467ffffffffffffffff6003600285015494015416936001600160801b031990871b16855260208501528301526060820152f35b8380fd5b602435906fffffffffffffffffffffffffffffffff198216820361041d57565b600080fd5b9181601f8401121561041d5782359167ffffffffffffffff831161041d576020838186019501011161041d57565b608060031982011261041d57600435916024356fffffffffffffffffffffffffffffffff198116810361041d57916044359067ffffffffffffffff821161041d5761049d91600401610422565b909160643590565b156104ac57565b60405162461bcd60e51b815260206004820152600e60248201527f49534f3a206e6f742061646d696e0000000000000000000000000000000000006044820152606490fd5b908060209392818452848401376000828201840152601f01601f191601019056fea26469706673582212201a6a6e6691a1c774555e09d7b1ef68f67af386c87fdf5833d44093fbc05d66af64736f6c63430008180033",
  "linkReferences": {},
  "deployedLinkReferences": {}
}