{"abi":[{"type":"constructor","inputs":[{"name":"_admin","type":"address","internalType":"address"},{"name":"_registry","type":"address","internalType":"address"}],"stateMutability":"nonpayable"},{"type":"function","name":"admin","inputs":[],"outputs":[{"name":"","type":"address","internalType":"address"}],"stateMutability":"view"},{"type":"function","name":"cancel","inputs":[{"name":"id","type":"bytes32","internalType":"bytes32"}],"outputs":[],"stateMutability":"nonpayable"},{"type":"function","name":"deals","inputs":[{"name":"","type":"bytes32","internalType":"bytes32"}],"outputs":[{"name":"state","type":"uint8","internalType":"enum SettlementHub2PC.State"},{"name":"createdAt","type":"uint64","internalType":"uint64"},{"name":"deadline","type":"uint64","internalType":"uint64"},{"name":"iso","type":"tuple","internalType":"struct SettlementHub2PC.IsoRefs","components":[{"name":"uetr","type":"bytes16","internalType":"bytes16"},{"name":"e2eHash","type":"bytes32","internalType":"bytes32"},{"name":"payloadHash","type":"bytes32","internalType":"bytes32"}]},{"name":"A","type":"tuple","internalType":"struct SettlementHub2PC.Leg","components":[{"name":"railKey","type":"bytes32","internalType":"bytes32"},{"name":"xfer","type":"tuple","internalType":"struct IRail.Transfer","components":[{"name":"asset","type":"address","internalType":"address"},{"name":"from","type":"address","internalType":"address"},{"name":"to","type":"address","internalType":"address"},{"name":"amount","type":"uint256","internalType":"uint256"},{"name":"metadata","type":"bytes","internalType":"bytes"}]}]},{"name":"B","type":"tuple","internalType":"struct SettlementHub2PC.Leg","components":[{"name":"railKey","type":"bytes32","internalType":"bytes32"},{"name":"xfer","type":"tuple","internalType":"struct IRail.Transfer","components":[{"name":"asset","type":"address","internalType":"address"},{"name":"from","type":"address","internalType":"address"},{"name":"to","type":"address","internalType":"address"},{"name":"amount","type":"uint256","internalType":"uint256"},{"name":"metadata","type":"bytes","internalType":"bytes"}]}]}],"stateMutability":"view"},{"type":"function","name":"finalize","inputs":[{"name":"id","type":"bytes32","internalType":"bytes32"}],"outputs":[],"stateMutability":"nonpayable"},{"type":"function","name":"open","inputs":[{"name":"id","type":"bytes32","internalType":"bytes32"},{"name":"iso","type":"tuple","internalType":"struct SettlementHub2PC.IsoRefs","components":[{"name":"uetr","type":"bytes16","internalType":"bytes16"},{"name":"e2eHash","type":"bytes32","internalType":"bytes32"},{"name":"payloadHash","type":"bytes32","internalType":"bytes32"}]},{"name":"A","type":"tuple","internalType":"struct SettlementHub2PC.Leg","components":[{"name":"railKey","type":"bytes32","internalType":"bytes32"},{"name":"xfer","type":"tuple","internalType":"struct IRail.Transfer","components":[{"name":"asset","type":"address","internalType":"address"},{"name":"from","type":"address","internalType":"address"},{"name":"to","type":"address","internalType":"address"},{"name":"amount","type":"uint256","internalType":"uint256"},{"name":"metadata","type":"bytes","internalType":"bytes"}]}]},{"name":"B","type":"tuple","internalType":"struct SettlementHub2PC.Leg","components":[{"name":"railKey","type":"bytes32","internalType":"bytes32"},{"name":"xfer","type":"tuple","internalType":"struct IRail.Transfer","components":[{"name":"asset","type":"address","internalType":"address"},{"name":"from","type":"address","internalType":"address"},{"name":"to","type":"address","internalType":"address"},{"name":"amount","type":"uint256","internalType":"uint256"},{"name":"metadata","type":"bytes","internalType":"bytes"}]}]},{"name":"deadline","type":"uint64","internalType":"uint64"}],"outputs":[],"stateMutability":"nonpayable"},{"type":"function","name":"prepareA","inputs":[{"name":"id","type":"bytes32","internalType":"bytes32"}],"outputs":[],"stateMutability":"nonpayable"},{"type":"function","name":"prepareB","inputs":[{"name":"id","type":"bytes32","internalType":"bytes32"}],"outputs":[],"stateMutability":"nonpayable"},{"type":"function","name":"registry","inputs":[],"outputs":[{"name":"","type":"address","internalType":"contract RailRegistry"}],"stateMutability":"view"},{"type":"event","name":"Cancelled","inputs":[{"name":"id","type":"bytes32","indexed":true,"internalType":"bytes32"},{"name":"state","type":"uint8","indexed":false,"internalType":"enum SettlementHub2PC.State"}],"anonymous":false},{"type":"event","name":"DealOpened","inputs":[{"name":"id","type":"bytes32","indexed":true,"internalType":"bytes32"},{"name":"uetr","type":"bytes16","indexed":false,"internalType":"bytes16"},{"name":"deadline","type":"uint64","indexed":false,"internalType":"uint64"}],"anonymous":false},{"type":"event","name":"Finalized","inputs":[{"name":"id","type":"bytes32","indexed":true,"internalType":"bytes32"}],"anonymous":false},{"type":"event","name":"LegPrepared","inputs":[{"name":"id","type":"bytes32","indexed":true,"internalType":"bytes32"},{"name":"legIdx","type":"uint8","indexed":false,"internalType":"uint8"},{"name":"railKey","type":"bytes32","indexed":false,"internalType":"bytes32"},{"name":"railTransferId","type":"bytes32","indexed":false,"internalType":"bytes32"}],"anonymous":false}],"bytecode":{"object":"0x608034620000dd57601f62001fa038819003918201601f19168301916001600160401b03831184841017620000e2578084926040948552833981010312620000dd576200005a60206200005283620000f8565b9201620000f8565b6001600160a01b03918216919082151580620000d1575b15620000a35760018060a01b03199283600054161760005516906001541617600155604051611e9290816200010e8239f35b60405162461bcd60e51b815260206004820152600660248201526504855423a20360d41b6044820152606490fd5b50818116151562000071565b600080fd5b634e487b7160e01b600052604160045260246000fd5b51906001600160a01b0382168203620000dd5756fe6080604052600436101561001257600080fd5b6000803560e01c80631de40b08146115b157806349b1bbff146112e65780637b1039991461129457806381cd872a1461117957806392584d8014610dbf578063c4d252f514610970578063cb3d94ff146100c85763f851a4401461007557600080fd5b346100c557807ffffffffffffffffffffffffffffffffffffffffffffffffffffffffffffffffc3601126100c55773ffffffffffffffffffffffffffffffffffffffff6020915416604051908152f35b80fd5b50346100c5577ffffffffffffffffffffffffffffffffffffffffffffffffffffffffffffffffc60e08136011261096c5760607fffffffffffffffffffffffffffffffffffffffffffffffffffffffffffffffdc36011261096c5767ffffffffffffffff6084351161096c576040816084353603011261096c5767ffffffffffffffff60a4351161096c5760409060a435360301126100c55760c4359067ffffffffffffffff821682036100c55761019873ffffffffffffffffffffffffffffffffffffffff8254163314611c2e565b6004358152600260205267ffffffffffffffff604082205460081c1661090e576040519160c0830183811067ffffffffffffffff8211176108df5760405281835267ffffffffffffffff4216602084015267ffffffffffffffff811660408401526040519261020684611823565b7fffffffffffffffffffffffffffffffff0000000000000000000000000000000060243516602435036108db576024358452604435602085015260643560408501526060810193845261025e36608435600401611cb4565b608082019081526102743660a435600401611cb4565b60a0830152600435845260026020526040842094825160078110156108ae57608092916102a360409289611bf7565b602085015188547fffffffffffffffffffffffffffffff00000000000000000000000000000000ff68ffffffffffffffff0070ffffffffffffffff000000000000000000868a015160481b169360081b16911617178855600188019051908151851c7fffffffffffffffffffffffffffffffff00000000000000000000000000000000825416179055602081015160028901550151600387015551805160048701556020600587019101519073ffffffffffffffffffffffffffffffffffffffff8251167fffffffffffffffffffffffff00000000000000000000000000000000000000008254161790556006860173ffffffffffffffffffffffffffffffffffffffff6020830151167fffffffffffffffffffffffff00000000000000000000000000000000000000008254161790556007860173ffffffffffffffffffffffffffffffffffffffff6040830151167fffffffffffffffffffffffff000000000000000000000000000000000000000082541617905560608101516008870155015180519067ffffffffffffffff82116108815761044560098701546118b8565b601f811161083d575b50602090601f8311600114610790579282600f9360a0936080968992610785575b50507fffffffffffffffffffffffffffffffffffffffffffffffffffffffffffffffff8260011b9260031b1c19161760098801555b0151948551600a8201556020600b82019601519573ffffffffffffffffffffffffffffffffffffffff8751167fffffffffffffffffffffffff0000000000000000000000000000000000000000825416179055600c810173ffffffffffffffffffffffffffffffffffffffff6020880151167fffffffffffffffffffffffff0000000000000000000000000000000000000000825416179055600d810173ffffffffffffffffffffffffffffffffffffffff6040880151167fffffffffffffffffffffffff00000000000000000000000000000000000000008254161790556060860151600e8201550193015192835167ffffffffffffffff8111610758576105ad82546118b8565b601f8111610713575b50602094601f8211600114610674579484958293949592610669575b50507fffffffffffffffffffffffffffffffffffffffffffffffffffffffffffffffff8260011b9260031b1c19161790555b67ffffffffffffffff604051917fffffffffffffffffffffffffffffffff000000000000000000000000000000006024351683521660208201527ff440be9073fdb96ca946dcf9b184d6243636d59991855143ff33bebe76a1a041604060043592a280f35b0151905038806105d2565b7fffffffffffffffffffffffffffffffffffffffffffffffffffffffffffffffe08216958386526020862091865b8881106106fb575083600195969798106106c4575b505050811b019055610604565b01517fffffffffffffffffffffffffffffffffffffffffffffffffffffffffffffffff60f88460031b161c191690553880806106b7565b919260206001819286850151815501940192016106a2565b82855260208520601f830160051c8101916020841061074e575b601f0160051c01905b81811061074357506105b6565b858155600101610736565b909150819061072d565b6024847f4e487b710000000000000000000000000000000000000000000000000000000081526041600452fd5b01519050388061046f565b6009870186526020862091907fffffffffffffffffffffffffffffffffffffffffffffffffffffffffffffffe08416875b81811061082557509360a0936080969360019383600f98106107ee575b505050811b0160098801556104a4565b01517fffffffffffffffffffffffffffffffffffffffffffffffffffffffffffffffff60f88460031b161c191690553880806107de565b929360206001819287860151815501950193016107c1565b60098701865260208620601f840160051c81016020851061087a575b601f830160051c8201811061086f57505061044e565b878155600101610859565b5080610859565b6024857f4e487b710000000000000000000000000000000000000000000000000000000081526041600452fd5b6024867f4e487b710000000000000000000000000000000000000000000000000000000081526021600452fd5b8280fd5b7f4e487b7100000000000000000000000000000000000000000000000000000000600052604160045260246000fd5b60646040517f08c379a000000000000000000000000000000000000000000000000000000000815260206004820152600e60248201527f4855423a206964206578697374730000000000000000000000000000000000006044820152fd5b5080fd5b50346100c5576020807ffffffffffffffffffffffffffffffffffffffffffffffffffffffffffffffffc36011261096c5760043590818352600281526040832090815467ffffffffffffffff906109cd828260081c161515611b3d565b73ffffffffffffffffffffffffffffffffffffffff908187541633148015610db1575b15610d5357610a026004860154611db3565b60ff610a11600a880154611db3565b92166007811015610d26578891816001869314908115610d1b575b50610c15575b50505060ff8554166007811015610be8579081600289949314908115610bdd575b50610ab9575b5050508260ff917fec9df90ce8bd32071334f03fa0ef614c2b7c5169d9c6aaf40b77b3de01e14c98945460481c164211600014610aaf57610a9c60065b82611bf7565b5416610aab6040518092611a44565ba280f35b610a9c6005610a96565b16600b8501604051907f4dd6e2b5000000000000000000000000000000000000000000000000000000008252856004830152858280610afb6024820185611ba2565b0381865afa918215610bd2578492610b9b575b50823b15610b9757610b5f928492836040518096819582947fcfcb5b1b0000000000000000000000000000000000000000000000000000000084526004840152604060248401526044830190611ba2565b03925af18015610b8c57610b74575b80610a59565b610b7d9061180f565b610b88578438610b6e565b8480fd5b6040513d84823e3d90fd5b8380fd5b935090508483813d8111610bcb575b610bb48183611877565b81010312610bc6578792519038610b0e565b600080fd5b503d610baa565b6040513d86823e3d90fd5b600391501438610a53565b6024887f4e487b710000000000000000000000000000000000000000000000000000000081526021600452fd5b1660058701604051907f4dd6e2b5000000000000000000000000000000000000000000000000000000008252876004830152878280610c576024820185611ba2565b0381865afa918215610bd2578492610ce9575b50823b15610b9757610cbb928492836040518096819582947fcfcb5b1b0000000000000000000000000000000000000000000000000000000084526004840152604060248401526044830190611ba2565b03925af18015610b8c57610cd1575b8390610a32565b610cda9061180f565b610ce5578638610cca565b8680fd5b935090508683813d8111610d14575b610d028183611877565b81010312610bc6578992519038610c6a565b503d610cf8565b600391501438610a2c565b6024897f4e487b710000000000000000000000000000000000000000000000000000000081526021600452fd5b606484604051907f08c379a00000000000000000000000000000000000000000000000000000000082526004820152600c60248201527f4855423a206e6f206175746800000000000000000000000000000000000000006044820152fd5b50828160481c1642116109f0565b50346100c5576020807ffffffffffffffffffffffffffffffffffffffffffffffffffffffffffffffffc36011261096c576004359073ffffffffffffffffffffffffffffffffffffffff90610e18828554163314611c2e565b828452600281526040842091825467ffffffffffffffff90610e40828260081c161515611b3d565b60ff81166007811015610be85760030361111b5760481c1642116110bd57908491610e6e6004850154611db3565b9080610e7d600a870154611db3565b9216906005860192604051937f4dd6e2b50000000000000000000000000000000000000000000000000000000093848652866004870152868680610ec46024820186611ba2565b0381845afa9586156110b2578896611080575b50803b1561107c57610f2b88929183926040519485809481937f90ee1dfa000000000000000000000000000000000000000000000000000000009c8d84526004840152604060248401526044830190611ba2565b03925af1908115611071578791611059575b505016600b860191604051908152846004820152848180610f616024820187611ba2565b0381855afa94851561104e57869561101b575b5050803b15610b8857610fa6938580946040519687958694859384526004840152604060248401526044830190611ba2565b03925af18015610b8c57611007575b505060047fffffffffffffffffffffffffffffffffffffffffffffffffffffffffffffff008254161790557fd5eaff5f7e00ea5a32e32c0121393190de285e9424ce5485cd0b0a51d6b77d628280a280f35b6110109061180f565b6108db578238610fb5565b819650809295503d8311611047575b6110348183611877565b81010312610bc657869351923880610f74565b503d61102a565b6040513d88823e3d90fd5b6110629061180f565b61106d578538610f3d565b8580fd5b6040513d89823e3d90fd5b8780fd5b975094508587813d81116110ab575b6110998183611877565b81010312610bc6578996519438610ed7565b503d61108f565b6040513d8a823e3d90fd5b606482604051907f08c379a00000000000000000000000000000000000000000000000000000000082526004820152600c60248201527f4855423a206578706972656400000000000000000000000000000000000000006044820152fd5b606484604051907f08c379a00000000000000000000000000000000000000000000000000000000082526004820152601160248201527f4855423a206e6f742070726570617265640000000000000000000000000000006044820152fd5b50346100c55760207ffffffffffffffffffffffffffffffffffffffffffffffffffffffffffffffffc3601126100c5576040906004358152600260205220805461129067ffffffffffffffff91611282604051946111d686611823565b7fffffffffffffffffffffffffffffffff000000000000000000000000000000009283600183015460801b16875260028201546020880190815260038301549060408901918252611235600a61122e600487016119bf565b95016119bf565b95604051998a996101009561124d8c60ff8316611a44565b818160081c1660208d015260481c1660408b0152511660608901525160808801525160a08701528060c0870152850190611a80565b9083820360e0850152611a80565b0390f35b50346100c557807ffffffffffffffffffffffffffffffffffffffffffffffffffffffffffffffffc3601126100c557602073ffffffffffffffffffffffffffffffffffffffff60015416604051908152f35b50346100c5576020807ffffffffffffffffffffffffffffffffffffffffffffffffffffffffffffffffc36011261096c5760043590818352600281526040832060ff815461134267ffffffffffffffff8260081c161515611b3d565b166007811015611584578015908115611579575b501561151b576004810173ffffffffffffffffffffffffffffffffffffffff61137f8254611db3565b16916005810192803b15610ce557604051907f08432d57000000000000000000000000000000000000000000000000000000008252856004830152878083806113cb602482018a611ba2565b038183865af192831561150e5787936114f5575b5050936114219460405180809781947f4dd6e2b50000000000000000000000000000000000000000000000000000000083528660048401526024830190611ba2565b03915afa92831561104e5786936114c6575b5060ff8154166007811015611499579161147d606094927f5dd1b4981f456bad8df7914f6c7894d6639b622777dd1cb3ac3fb68064043c6d96941560001461149157600190611bf7565b54604051928784528301526040820152a280f35b600390611bf7565b6024877f4e487b710000000000000000000000000000000000000000000000000000000081526021600452fd5b9092508381813d83116114ee575b6114de8183611877565b81010312610bc657519138611433565b503d6114d4565b6115019192935061180f565b610ce557849087386113df565b50604051903d90823e3d90fd5b606482604051907f08c379a00000000000000000000000000000000000000000000000000000000082526004820152601060248201527f4855423a206261642073746174652041000000000000000000000000000000006044820152fd5b600291501438611356565b6024857f4e487b710000000000000000000000000000000000000000000000000000000081526021600452fd5b50346100c5576020807ffffffffffffffffffffffffffffffffffffffffffffffffffffffffffffffffc36011261096c5760043590818352600281526040832060ff815461160d67ffffffffffffffff8260081c161515611b3d565b166007811015611584578015908115611804575b50156117a657600a81019073ffffffffffffffffffffffffffffffffffffffff61164b8354611db3565b16600b820190803b15610ce5576040517f08432d570000000000000000000000000000000000000000000000000000000081528560048201528781806116946024820187611ba2565b038183865af180156110b257611789575b506116e9939291859160405180809781947f4dd6e2b50000000000000000000000000000000000000000000000000000000083528660048401526024830190611ba2565b03915afa92831561104e57869361175a575b5060ff81541660078110156114995791611745606094927f5dd1b4981f456bad8df7914f6c7894d6639b622777dd1cb3ac3fb68064043c6d96941560001461149157600290611bf7565b5460405192600184528301526040820152a280f35b9092508381813d8311611782575b6117728183611877565b81010312610bc6575191386116fb565b503d611768565b9185919761179b6116e996959461180f565b9791509192936116a5565b606482604051907f08c379a00000000000000000000000000000000000000000000000000000000082526004820152601060248201527f4855423a206261642073746174652042000000000000000000000000000000006044820152fd5b600191501438611621565b67ffffffffffffffff81116108df57604052565b6060810190811067ffffffffffffffff8211176108df57604052565b6040810190811067ffffffffffffffff8211176108df57604052565b60a0810190811067ffffffffffffffff8211176108df57604052565b90601f7fffffffffffffffffffffffffffffffffffffffffffffffffffffffffffffffe0910116810190811067ffffffffffffffff8211176108df57604052565b90600182811c92168015611901575b60208310146118d257565b7f4e487b7100000000000000000000000000000000000000000000000000000000600052602260045260246000fd5b91607f16916118c7565b80546000939261191a826118b8565b918282526020936001916001811690816000146119825750600114611941575b5050505050565b90939495506000929192528360002092846000945b83861061196e5750505050010190388080808061193a565b805485870183015294019385908201611956565b7fffffffffffffffffffffffffffffffffffffffffffffffffffffffffffffff00168685015250505090151560051b01019150388080808061193a565b90604051916119cd8361183f565b602083825481526005611a3b604051946119e68661185b565b73ffffffffffffffffffffffffffffffffffffffff8060018301541687528060028301541686880152600382015416604087015260048101546060870152611a34604051809481930161190b565b0382611877565b60808401520152565b906007821015611a515752565b7f4e487b7100000000000000000000000000000000000000000000000000000000600052602160045260246000fd5b908151815260806020809301516040602084015273ffffffffffffffffffffffffffffffffffffffff80825116604085015280602083015116606085015260408201511682840152606081015160a084015201519160a060c08301528251928360e084015260005b848110611b28575050507fffffffffffffffffffffffffffffffffffffffffffffffffffffffffffffffe0601f6101009360008582860101520116010190565b81810183015184820161010001528201611ae8565b15611b4457565b60646040517f08c379a000000000000000000000000000000000000000000000000000000000815260206004820152600c60248201527f4855423a20756e6b6e6f776e00000000000000000000000000000000000000006044820152fd5b600460a0611bf49373ffffffffffffffffffffffffffffffffffffffff80855416825280600186015416602083015260028501541660408201526003840154606082015281608082015201910161190b565b90565b906007811015611a515760ff7fffffffffffffffffffffffffffffffffffffffffffffffffffffffffffffff008354169116179055565b15611c3557565b60646040517f08c379a000000000000000000000000000000000000000000000000000000000815260206004820152600e60248201527f4855423a206e6f742061646d696e0000000000000000000000000000000000006044820152fd5b359073ffffffffffffffffffffffffffffffffffffffff82168203610bc657565b9190916040908181850312610bc6578151611cce8161183f565b8094823582526020928381013567ffffffffffffffff91828211610bc657019460a086840312610bc657805195611d048761185b565b611d0d81611c93565b8752611d1a868201611c93565b86880152611d29828201611c93565b8288015260608101356060880152608081013590838211610bc657019083601f83011215610bc65781359283116108df575192611d8d867fffffffffffffffffffffffffffffffffffffffffffffffffffffffffffffffe0601f8601160185611877565b828452858383010111610bc6578160009286809301838601378301015260808401520152565b73ffffffffffffffffffffffffffffffffffffffff9060208260015416916024604051809481937fa71bef3a00000000000000000000000000000000000000000000000000000000835260048301525afa908115611e5057600091611e1757501690565b6020813d602011611e48575b81611e3060209383611877565b8101031261096c57519082821682036100c557501690565b3d9150611e23565b6040513d6000823e3d90fdfea26469706673582212200559b61ffeca521a787c717d7fd1c29ef047142228b66cab2348175a10d0958064736f6c63430008180033","linkReferences":{}},"methodIdentifiers":{"admin()":"f851a440","cancel(bytes32)":"c4d252f5","deals(bytes32)":"81cd872a","finalize(bytes32)":"92584d80","open(bytes32,(bytes16,bytes32,bytes32),(bytes32,(address,address,address,uint256,bytes)),(bytes32,(address,address,address,uint256,bytes)),uint64)":"cb3d94ff","prepareA(bytes32)":"49b1bbff","prepareB(bytes32)":"1de40b08","registry()":"7b103999"},"id":26}