{
  "_format": "hh-sol-artifact-1",
  "contractName": "ISO20022EventEmitter",
  "sourceName": "contracts/iso20022/ISO20022EventEmitter.sol",
  "abi": [
    {
      "inputs": [
        {
          "internalType": "address",
          "name": "admin",
          "type": "address"
        }
      ],
      "stateMutability": "nonpayable",
      "type": "constructor"
    },
    {
      "inputs": [],
      "name": "AccessControlBadConfirmation",
      "type": "error"
    },
    {
      "inputs": [
        {
          "internalType": "address",
          "name": "account",
          "type": "address"
        },
        {
          "internalType": "bytes32",
          "name": "neededRole",
          "type": "bytes32"
        }
      ],
      "name": "AccessControlUnauthorizedAccount",
      "type": "error"
    },
    {
      "anonymous": false,
      "inputs": [
        {
          "indexed": true,
          "internalType": "bytes32",
          "name": "correlationId",
          "type": "bytes32"
        },
        {
          "indexed": false,
          "internalType": "string",
          "name": "accountRef",
          "type": "string"
        },
        {
          "indexed": false,
          "internalType": "int256",
          "name": "bookingAmount",
          "type": "int256"
        },
        {
          "indexed": false,
          "internalType": "string",
          "name": "ccy",
          "type": "string"
        },
        {
          "indexed": false,
          "internalType": "string",
          "name": "txnRef",
          "type": "string"
        },
        {
          "indexed": false,
          "internalType": "string",
          "name": "narrative",
          "type": "string"
        },
        {
          "indexed": false,
          "internalType": "uint64",
          "name": "bookingDate",
          "type": "uint64"
        },
        {
          "indexed": false,
          "internalType": "uint64",
          "name": "createdAt",
          "type": "uint64"
        }
      ],
      "name": "Camt053Statement",
      "type": "event"
    },
    {
      "anonymous": false,
      "inputs": [
        {
          "indexed": true,
          "internalType": "bytes32",
          "name": "correlationId",
          "type": "bytes32"
        },
        {
          "indexed": true,
          "internalType": "address",
          "name": "payer",
          "type": "address"
        },
        {
          "indexed": true,
          "internalType": "address",
          "name": "payee",
          "type": "address"
        },
        {
          "indexed": false,
          "internalType": "uint256",
          "name": "amount",
          "type": "uint256"
        },
        {
          "indexed": false,
          "internalType": "string",
          "name": "ccy",
          "type": "string"
        },
        {
          "indexed": false,
          "internalType": "string",
          "name": "debtorIban",
          "type": "string"
        },
        {
          "indexed": false,
          "internalType": "string",
          "name": "creditorIban",
          "type": "string"
        },
        {
          "indexed": false,
          "internalType": "string",
          "name": "purpose",
          "type": "string"
        },
        {
          "indexed": false,
          "internalType": "uint64",
          "name": "valueDate",
          "type": "uint64"
        },
        {
          "indexed": false,
          "internalType": "uint64",
          "name": "createdAt",
          "type": "uint64"
        }
      ],
      "name": "Pacs008Payment",
      "type": "event"
    },
    {
      "anonymous": false,
      "inputs": [
        {
          "indexed": true,
          "internalType": "bytes32",
          "name": "role",
          "type": "bytes32"
        },
        {
          "indexed": true,
          "internalType": "bytes32",
          "name": "previousAdminRole",
          "type": "bytes32"
        },
        {
          "indexed": true,
          "internalType": "bytes32",
          "name": "newAdminRole",
          "type": "bytes32"
        }
      ],
      "name": "RoleAdminChanged",
      "type": "event"
    },
    {
      "anonymous": false,
      "inputs": [
        {
          "indexed": true,
          "internalType": "bytes32",
          "name": "role",
          "type": "bytes32"
        },
        {
          "indexed": true,
          "internalType": "address",
          "name": "account",
          "type": "address"
        },
        {
          "indexed": true,
          "internalType": "address",
          "name": "sender",
          "type": "address"
        }
      ],
      "name": "RoleGranted",
      "type": "event"
    },
    {
      "anonymous": false,
      "inputs": [
        {
          "indexed": true,
          "internalType": "bytes32",
          "name": "role",
          "type": "bytes32"
        },
        {
          "indexed": true,
          "internalType": "address",
          "name": "account",
          "type": "address"
        },
        {
          "indexed": true,
          "internalType": "address",
          "name": "sender",
          "type": "address"
        }
      ],
      "name": "RoleRevoked",
      "type": "event"
    },
    {
      "anonymous": false,
      "inputs": [
        {
          "indexed": true,
          "internalType": "bytes32",
          "name": "correlationId",
          "type": "bytes32"
        },
        {
          "indexed": false,
          "internalType": "string",
          "name": "isinOrCusip",
          "type": "string"
        },
        {
          "indexed": false,
          "internalType": "string",
          "name": "side",
          "type": "string"
        },
        {
          "indexed": false,
          "internalType": "uint256",
          "name": "quantity",
          "type": "uint256"
        },
        {
          "indexed": false,
          "internalType": "uint256",
          "name": "priceMinor",
          "type": "uint256"
        },
        {
          "indexed": false,
          "internalType": "string",
          "name": "ccy",
          "type": "string"
        },
        {
          "indexed": false,
          "internalType": "string",
          "name": "accountRef",
          "type": "string"
        },
        {
          "indexed": false,
          "internalType": "uint64",
          "name": "settlementDate",
          "type": "uint64"
        },
        {
          "indexed": false,
          "internalType": "uint64",
          "name": "createdAt",
          "type": "uint64"
        }
      ],
      "name": "Sese023SecuritiesSettlement",
      "type": "event"
    },
    {
      "inputs": [],
      "name": "DEFAULT_ADMIN_ROLE",
      "outputs": [
        {
          "internalType": "bytes32",
          "name": "",
          "type": "bytes32"
        }
      ],
      "stateMutability": "view",
      "type": "function"
    },
    {
      "inputs": [],
      "name": "ROLE_ADMIN",
      "outputs": [
        {
          "internalType": "bytes32",
          "name": "",
          "type": "bytes32"
        }
      ],
      "stateMutability": "view",
      "type": "function"
    },
    {
      "inputs": [],
      "name": "ROLE_PUBLISHER",
      "outputs": [
        {
          "internalType": "bytes32",
          "name": "",
          "type": "bytes32"
        }
      ],
      "stateMutability": "view",
      "type": "function"
    },
    {
      "inputs": [
        {
          "internalType": "bytes32",
          "name": "role",
          "type": "bytes32"
        }
      ],
      "name": "getRoleAdmin",
      "outputs": [
        {
          "internalType": "bytes32",
          "name": "",
          "type": "bytes32"
        }
      ],
      "stateMutability": "view",
      "type": "function"
    },
    {
      "inputs": [
        {
          "internalType": "bytes32",
          "name": "role",
          "type": "bytes32"
        },
        {
          "internalType": "address",
          "name": "account",
          "type": "address"
        }
      ],
      "name": "grantRole",
      "outputs": [],
      "stateMutability": "nonpayable",
      "type": "function"
    },
    {
      "inputs": [
        {
          "internalType": "bytes32",
          "name": "role",
          "type": "bytes32"
        },
        {
          "internalType": "address",
          "name": "account",
          "type": "address"
        }
      ],
      "name": "hasRole",
      "outputs": [
        {
          "internalType": "bool",
          "name": "",
          "type": "bool"
        }
      ],
      "stateMutability": "view",
      "type": "function"
    },
    {
      "inputs": [
        {
          "internalType": "bytes32",
          "name": "correlationId",
          "type": "bytes32"
        },
        {
          "internalType": "string",
          "name": "accountRef",
          "type": "string"
        },
        {
          "internalType": "int256",
          "name": "bookingAmountMinor",
          "type": "int256"
        },
        {
          "internalType": "string",
          "name": "ccy",
          "type": "string"
        },
        {
          "internalType": "string",
          "name": "txnRef",
          "type": "string"
        },
        {
          "internalType": "string",
          "name": "narrative",
          "type": "string"
        },
        {
          "internalType": "uint64",
          "name": "bookingDate",
          "type": "uint64"
        }
      ],
      "name": "publishCamt053",
      "outputs": [],
      "stateMutability": "nonpayable",
      "type": "function"
    },
    {
      "inputs": [
        {
          "internalType": "bytes32",
          "name": "correlationId",
          "type": "bytes32"
        },
        {
          "internalType": "address",
          "name": "payer",
          "type": "address"
        },
        {
          "internalType": "address",
          "name": "payee",
          "type": "address"
        },
        {
          "internalType": "uint256",
          "name": "amountMinor",
          "type": "uint256"
        },
        {
          "internalType": "string",
          "name": "ccy",
          "type": "string"
        },
        {
          "internalType": "string",
          "name": "debtorIban",
          "type": "string"
        },
        {
          "internalType": "string",
          "name": "creditorIban",
          "type": "string"
        },
        {
          "internalType": "string",
          "name": "purpose",
          "type": "string"
        },
        {
          "internalType": "uint64",
          "name": "valueDate",
          "type": "uint64"
        }
      ],
      "name": "publishPacs008",
      "outputs": [],
      "stateMutability": "nonpayable",
      "type": "function"
    },
    {
      "inputs": [
        {
          "internalType": "bytes32",
          "name": "correlationId",
          "type": "bytes32"
        },
        {
          "internalType": "string",
          "name": "isinOrCusip",
          "type": "string"
        },
        {
          "internalType": "string",
          "name": "side",
          "type": "string"
        },
        {
          "internalType": "uint256",
          "name": "quantity",
          "type": "uint256"
        },
        {
          "internalType": "uint256",
          "name": "priceMinor",
          "type": "uint256"
        },
        {
          "internalType": "string",
          "name": "ccy",
          "type": "string"
        },
        {
          "internalType": "string",
          "name": "accountRef",
          "type": "string"
        },
        {
          "internalType": "uint64",
          "name": "settlementDate",
          "type": "uint64"
        }
      ],
      "name": "publishSese023",
      "outputs": [],
      "stateMutability": "nonpayable",
      "type": "function"
    },
    {
      "inputs": [
        {
          "internalType": "bytes32",
          "name": "role",
          "type": "bytes32"
        },
        {
          "internalType": "address",
          "name": "callerConfirmation",
          "type": "address"
        }
      ],
      "name": "renounceRole",
      "outputs": [],
      "stateMutability": "nonpayable",
      "type": "function"
    },
    {
      "inputs": [
        {
          "internalType": "bytes32",
          "name": "role",
          "type": "bytes32"
        },
        {
          "internalType": "address",
          "name": "account",
          "type": "address"
        }
      ],
      "name": "revokeRole",
      "outputs": [],
      "stateMutability": "nonpayable",
      "type": "function"
    },
    {
      "inputs": [
        {
          "internalType": "bytes4",
          "name": "interfaceId",
          "type": "bytes4"
        }
      ],
      "name": "supportsInterface",
      "outputs": [
        {
          "internalType": "bool",
          "name": "",
          "type": "bool"
        }
      ],
      "stateMutability": "view",
      "type": "function"
    }
  ],
  "bytecode": "0x60803461007257601f610a9738819003918201601f19168301916001600160401b038311848410176100775780849260209460405283398101031261007257516001600160a01b0381168103610072578061005c6100629261008d565b5061012d565b506040516108ae90816101c98239f35b600080fd5b634e487b7160e01b600052604160045260246000fd5b6001600160a01b031660008181527ff2d002f32e1e256ea1e928747b1832023316be30886ca415b888f7c67dd776c360205260408120549091907f2172861495e7b85edac73e3cd5fbb42dd675baadf627720e687bcfdaca0250969060ff1661012857808352826020526040832082845260205260408320600160ff19825416179055600080516020610a77833981519152339380a4600190565b505090565b6001600160a01b031660008181527f196a0959de6d1a45b805591b8abbc43254e0ebb2b662175b4ff4978c0490a81f60205260408120549091907f318ca041382154243e5407309a15dc38a2622542637083fb3fe687f1e73186a29060ff1661012857808352826020526040832082845260205260408320600160ff19825416179055600080516020610a77833981519152339380a460019056fe6080604081815260048036101561001557600080fd5b60009260e0908435821c90816301ffc9a71461062457508063248a9ca3146105fa5780632f2ff15d146105d057806336568abe1461058957806391d1485414610544578063a1ce1800146103fd578063a217fddf146103e1578063ab80e2b3146103a5578063cf14511414610261578063d391014b14610221578063d547741f146101de5763d5c0b211146100a957600080fd5b346101da57806003193601126101da5767ffffffffffffffff916024358381116101d6576100da9036908301610694565b9390946064358281116101d2576100f49036908501610694565b91906084358481116101ce5761010d9036908701610694565b909160a4358681116101ca576101269036908901610694565b94909560c4359b888d16809d036101c65761013f6106e3565b82519b8b8d9c8d528c0190610153926106c2565b9160443560208c01528a8303908b015261016c926106c2565b90878203606089015261017e926106c2565b908582036080870152610190926106c2565b9460a0840152421660c08301523592037fe426230a9be2452dcdbd624fdaee60027ce17f090ba871b7b2261723f709b9ab91a280f35b8d80fd5b8b80fd5b8980fd5b8780fd5b8580fd5b8380fd5b5050903461021d578060031936011261021d5761021991356102146001610203610679565b93838752866020528620015461075d565b610802565b5080f35b8280fd5b5050503461025d578160031936011261025d57602090517f2172861495e7b85edac73e3cd5fbb42dd675baadf627720e687bcfdaca0250968152f35b5080fd5b5091346101da5761010091826003193601126103a15767ffffffffffffffff9360243585811161039d576102989036908401610694565b9390604435878111610399576102b19036908601610694565b909260a435898111610395576102ca9036908801610694565b60c492919235958b8711610391576102e68c9736908b01610694565b95909660e4359d8e16809e0361038d578c9b6103006106e3565b85519d8e9d8e528d0190610313926106c2565b908b820360208d0152610325926106c2565b91606435908a015260843560608a015288820360808a0152610346926106c2565b9086820360a0880152610358926106c2565b9560c08501524216908301523592037ff19e674db9d5855ed3bd6c7728316046febe5819ebbee384ce787200565787ba91a280f35b8e80fd5b8c80fd5b8a80fd5b8880fd5b8680fd5b8480fd5b5050503461025d578160031936011261025d57602090517f318ca041382154243e5407309a15dc38a2622542637083fb3fe687f1e73186a28152f35b5050503461025d578160031936011261025d5751908152602090f35b50346101da576101203660031901126101da57610418610679565b90604435936001600160a01b0380861680960361039d5767ffffffffffffffff93608435858111610399576104509036908801610694565b939060a435878111610395576104699036908a01610694565b9060c435898111610391576104819036908c01610694565b909160e435958b871161038d5761049c8d8d98369101610694565b959096610104359d8e16809e0361053f578c9b6104b76106e3565b83519d8e9d8e6064358152602001528d01906104d2926106c2565b918b8303908c01526104e3926106c2565b9088820360608a01526104f5926106c2565b908682036080880152610507926106c2565b9560a0850152421660c084015216933592037fab70f4688e634b9d50cc2749f0a6f6229a8b7154b6a50251eca1f5f4c4d7bb6f91a480f35b508f80fd5b50503461021d578160031936011261021d578160209360ff92610565610679565b903582528186526001600160a01b0383832091168252855220541690519015158152f35b8285853461025d578060031936011261025d576105a4610679565b90336001600160a01b038316036105c15750610219919235610802565b5163334bd91960e11b81528390fd5b5050903461021d578060031936011261021d5761021991356105f56001610203610679565b610783565b50503461021d57602036600319011261021d57816020936001923581528085522001549051908152f35b935050503461021d57602036600319011261021d573563ffffffff60e01b811680910361021d5760209250637965db0b60e01b8114908115610668575b5015158152f35b6301ffc9a760e01b14905038610661565b602435906001600160a01b038216820361068f57565b600080fd5b9181601f8401121561068f5782359167ffffffffffffffff831161068f576020838186019501011161068f57565b908060209392818452848401376000828201840152601f01601f1916010190565b3360009081527f196a0959de6d1a45b805591b8abbc43254e0ebb2b662175b4ff4978c0490a81f60205260409020547f318ca041382154243e5407309a15dc38a2622542637083fb3fe687f1e73186a29060ff161561073f5750565b6044906040519063e2517d3f60e01b82523360048301526024820152fd5b80600052600060205260406000203360005260205260ff604060002054161561073f5750565b90600091808352826020526001600160a01b036040842092169182845260205260ff604084205416156000146107fd57808352826020526040832082845260205260408320600160ff198254161790557f2f8788117e7eff1d82e926ec794901d17c78024a50270940304540a733656f0d339380a4600190565b505090565b90600091808352826020526001600160a01b036040842092169182845260205260ff6040842054166000146107fd5780835282602052604083208284526020526040832060ff1981541690557ff6391f5c32d9c69d2a47ea670b442974b53935d1edc7fd64eb21e047a839171b339380a460019056fea2646970667358221220b89de8ed41acc1ac5992ba0c90f0c87c2853588db273a2f8d289e6f240023e9264736f6c634300081800332f8788117e7eff1d82e926ec794901d17c78024a50270940304540a733656f0d",
  "linkReferences": {},
  "deployedLinkReferences": {}
}