{"abi":[{"type":"constructor","inputs":[{"name":"_registry","type":"address","internalType":"address"}],"stateMutability":"nonpayable"},{"type":"function","name":"canRelease","inputs":[{"name":"token","type":"address","internalType":"address"},{"name":"","type":"address","internalType":"address"},{"name":"amount","type":"uint256","internalType":"uint256"}],"outputs":[{"name":"ok","type":"bool","internalType":"bool"},{"name":"reason","type":"bytes","internalType":"bytes"}],"stateMutability":"view"},{"type":"function","name":"registry","inputs":[],"outputs":[{"name":"","type":"address","internalType":"contract StablecoinRegistry"}],"stateMutability":"view"}],"bytecode":{"object":"0x60a0346100a757601f6105f238819003918201601f19168301916001600160401b038311848410176100ac578084926020946040528339810103126100a757516001600160a01b038116908190036100a75780156100785760805260405161052f90816100c38239608051818181607d015261027f0152f35b60405162461bcd60e51b81526020600482015260076024820152660504f52473a20360cc1b6044820152606490fd5b600080fd5b634e487b7160e01b600052604160045260246000fdfe6080604052600436101561001257600080fd5b6000803560e01c806332077463146100a457637b1039991461003357600080fd5b346100a157807ffffffffffffffffffffffffffffffffffffffffffffffffffffffffffffffffc3601126100a157602060405173ffffffffffffffffffffffffffffffffffffffff7f0000000000000000000000000000000000000000000000000000000000000000168152f35b80fd5b50346100a1576060807ffffffffffffffffffffffffffffffffffffffffffffffffffffffffffffffffc36011261018b5760043573ffffffffffffffffffffffffffffffffffffffff808216820361018757602435908116036101835761010e906044359061022d565b926040519384921515835260209060406020850152805194856040860152835b86811061016d57856060817fffffffffffffffffffffffffffffffffffffffffffffffffffffffffffffffe0601f8b8a85828601015201168101030190f35b828101840151888201830152879550830161012e565b8280fd5b8380fd5b5080fd5b6040810190811067ffffffffffffffff8211176101ab57604052565b7f4e487b7100000000000000000000000000000000000000000000000000000000600052604160045260246000fd5b90601f7fffffffffffffffffffffffffffffffffffffffffffffffffffffffffffffffe0910116810190811067ffffffffffffffff8211176101ab57604052565b5190811515820361022857565b600080fd5b91909173ffffffffffffffffffffffffffffffffffffffff92604091848351917fc2bc2efc00000000000000000000000000000000000000000000000000000000835216600482015260e081602481887f0000000000000000000000000000000000000000000000000000000000000000165afa9081156104ee5760009161041a575b50805115801561040d575b6103cf576044948382015116916020958680930151855194859384927ff6fdb9f4000000000000000000000000000000000000000000000000000000008452600484015260248301525afa9081156103c45760009161038f575b5015610355577f6f6b0000000000000000000000000000000000000000000000000000000000009051926103488461018f565b6002845283015260019190565b7f706f722d64656e790000000000000000000000000000000000000000000000009051926103828461018f565b6008845283015260009190565b90508381813d83116103bd575b6103a681836101da565b81010312610228576103b79061021b565b38610315565b503d61039c565b82513d6000823e3d90fd5b50505191506103dd8261018f565b600682527f6e6f2d706f720000000000000000000000000000000000000000000000000000602083015260019190565b50848382015116156102bb565b60e0813d60e0116104e6575b8161043360e093836101da565b8101031261018b5783519160e0830183811067ffffffffffffffff8211176104b95785526104608261021b565b83526020820151602084015284820151878116810361018b578584015260608201519061ffff821682036100a157509060c09160608401526080810151608084015260a081015160a0840152015160c0820152386102b0565b6024827f4e487b710000000000000000000000000000000000000000000000000000000081526041600452fd5b3d9150610426565b83513d6000823e3d90fdfea26469706673582212203dade9b42e6ad9d906dd50372311574dfd0765956da815cceb218414ee7ab75364736f6c63430008180033","linkReferences":{}},"methodIdentifiers":{"canRelease(address,address,uint256)":"32077463","registry()":"7b103999"},"id":36}