{"abi":[{"type":"constructor","inputs":[{"name":"_admin","type":"address","internalType":"address"}],"stateMutability":"nonpayable"},{"type":"function","name":"admin","inputs":[],"outputs":[{"name":"","type":"address","internalType":"address"}],"stateMutability":"view"},{"type":"function","name":"isSanctioned","inputs":[{"name":"a","type":"address","internalType":"address"}],"outputs":[{"name":"","type":"bool","internalType":"bool"}],"stateMutability":"view"},{"type":"function","name":"set","inputs":[{"name":"a","type":"address","internalType":"address"},{"name":"flagged","type":"bool","internalType":"bool"}],"outputs":[],"stateMutability":"nonpayable"},{"type":"function","name":"transferAdmin","inputs":[{"name":"to","type":"address","internalType":"address"}],"outputs":[],"stateMutability":"nonpayable"},{"type":"event","name":"AdminTransferred","inputs":[{"name":"from","type":"address","indexed":true,"internalType":"address"},{"name":"to","type":"address","indexed":true,"internalType":"address"}],"anonymous":false},{"type":"event","name":"SanctionSet","inputs":[{"name":"account","type":"address","indexed":true,"internalType":"address"},{"name":"flagged","type":"bool","indexed":false,"internalType":"bool"}],"anonymous":false}],"bytecode":{"object":"0x6080346100ad57601f61047538819003918201601f19168301916001600160401b038311848410176100b2578084926020946040528339810103126100ad57516001600160a01b038116908190036100ad57801561007a57600080546001600160a01b0319169190911790556040516103ac90816100c98239f35b60405162461bcd60e51b815260206004820152600b60248201526a0534f3a2061646d696e20360ac1b6044820152606490fd5b600080fd5b634e487b7160e01b600052604160045260246000fdfe604060808152600436101561001357600080fd5b600090813560e01c806335e3b25a1461021857806375829def14610104578063df592f7d1461009e5763f851a4401461004b57600080fd5b3461009a57817ffffffffffffffffffffffffffffffffffffffffffffffffffffffffffffffffc36011261009a5773ffffffffffffffffffffffffffffffffffffffff60209254169051908152f35b5080fd5b503461009a5760207ffffffffffffffffffffffffffffffffffffffffffffffffffffffffffffffffc36011261009a5760ff8160209373ffffffffffffffffffffffffffffffffffffffff6100f16102e9565b1681526001855220541690519015158152f35b503461009a5760207ffffffffffffffffffffffffffffffffffffffffffffffffffffffffffffffffc36011261009a5761013c6102e9565b82549073ffffffffffffffffffffffffffffffffffffffff80831691610163833314610311565b169283156101bb575090827fffffffffffffffffffffffff0000000000000000000000000000000000000000927ff8ccb027dfcd135e000e9d45e6cc2d662578a8825d4c45b5e32e0adf67e79ec68680a31617815580f35b606490517f08c379a000000000000000000000000000000000000000000000000000000000815260206004820152600560248201527f534f3a20300000000000000000000000000000000000000000000000000000006044820152fd5b503461009a57807ffffffffffffffffffffffffffffffffffffffffffffffffffffffffffffffffc36011261009a5761024f6102e9565b602435908115158092036102e5577f136d7a722ab47b70411cb0d7b80198df8d273731d7fad15853eb7d95643629f89160209173ffffffffffffffffffffffffffffffffffffffff906102a6828854163314610311565b1693848652600183528086207fffffffffffffffffffffffffffffffffffffffffffffffffffffffffffffff0081541660ff841617905551908152a280f35b8380fd5b6004359073ffffffffffffffffffffffffffffffffffffffff8216820361030c57565b600080fd5b1561031857565b60646040517f08c379a000000000000000000000000000000000000000000000000000000000815260206004820152600d60248201527f534f3a206e6f742061646d696e000000000000000000000000000000000000006044820152fdfea264697066735822122084d26cc3df83ba82641d703bdc0c5a10b7462ccaa0ff46788f0b3210545b0f3364736f6c63430008180033","linkReferences":{}},"methodIdentifiers":{"admin()":"f851a440","isSanctioned(address)":"df592f7d","set(address,bool)":"35e3b25a","transferAdmin(address)":"75829def"},"id":2}