{"contracts/mocks/ReserveOracleMock.sol":{"ReserveOracleMock":{"abi":[{"inputs":[],"name":"fresh","outputs":[{"internalType":"bool","name":"","type":"bool"}],"stateMutability":"view","type":"function"},{"inputs":[],"name":"isFresh","outputs":[{"internalType":"bool","name":"","type":"bool"}],"stateMutability":"view","type":"function"},{"inputs":[],"name":"liab","outputs":[{"internalType":"uint256","name":"","type":"uint256"}],"stateMutability":"view","type":"function"},{"inputs":[],"name":"liabilitiesUSD","outputs":[{"internalType":"uint256","name":"","type":"uint256"}],"stateMutability":"view","type":"function"},{"inputs":[],"name":"nav","outputs":[{"internalType":"uint256","name":"","type":"uint256"}],"stateMutability":"view","type":"function"},{"inputs":[],"name":"navUSD","outputs":[{"internalType":"uint256","name":"","type":"uint256"}],"stateMutability":"view","type":"function"},{"inputs":[{"internalType":"uint256","name":"_nav","type":"uint256"},{"internalType":"uint256","name":"_liab","type":"uint256"},{"internalType":"bool","name":"_fresh","type":"bool"}],"name":"set","outputs":[],"stateMutability":"nonpayable","type":"function"}],"evm":{"bytecode":{"linkReferences":{},"object":"60806040526000805460ff1916600117905534801561001d57600080fd5b506101778061002d6000396000f3fe608060405234801561001057600080fd5b506004361061007d5760003560e01c806364482f791161005b57806364482f79146100b9578063b466b76f146100e5578063c1590cd7146100f2578063e5dfbf54146100fb57600080fd5b8063074b63a9146100825780633319999c146100995780636268ceaa146100a2575b600080fd5b6001545b6040519081526020015b60405180910390f35b61008660025481565b60005460ff165b6040519015158152602001610090565b6100e36100c7366004610103565b6001929092556002556000805460ff1916911515919091179055565b005b6000546100a99060ff1681565b61008660015481565b600254610086565b60008060006060848603121561011857600080fd5b83359250602084013591506040840135801515811461013657600080fd5b80915050925092509256fea26469706673582212207aeabe392c6a63bc8843942894048e0bee35ac0b7364eb9655f004cfcd6de27864736f6c63430008180033","opcodes":"PUSH1 0x80 PUSH1 0x40 MSTORE PUSH1 0x0 DUP1 SLOAD PUSH1 0xFF NOT AND PUSH1 0x1 OR SWAP1 SSTORE CALLVALUE DUP1 ISZERO PUSH2 0x1D JUMPI PUSH1 0x0 DUP1 REVERT JUMPDEST POP PUSH2 0x177 DUP1 PUSH2 0x2D PUSH1 0x0 CODECOPY PUSH1 0x0 RETURN INVALID PUSH1 0x80 PUSH1 0x40 MSTORE CALLVALUE DUP1 ISZERO PUSH2 0x10 JUMPI PUSH1 0x0 DUP1 REVERT JUMPDEST POP PUSH1 0x4 CALLDATASIZE LT PUSH2 0x7D JUMPI PUSH1 0x0 CALLDATALOAD PUSH1 0xE0 SHR DUP1 PUSH4 0x64482F79 GT PUSH2 0x5B JUMPI DUP1 PUSH4 0x64482F79 EQ PUSH2 0xB9 JUMPI DUP1 PUSH4 0xB466B76F EQ PUSH2 0xE5 JUMPI DUP1 PUSH4 0xC1590CD7 EQ PUSH2 0xF2 JUMPI DUP1 PUSH4 0xE5DFBF54 EQ PUSH2 0xFB JUMPI PUSH1 0x0 DUP1 REVERT JUMPDEST DUP1 PUSH4 0x74B63A9 EQ PUSH2 0x82 JUMPI DUP1 PUSH4 0x3319999C EQ PUSH2 0x99 JUMPI DUP1 PUSH4 0x6268CEAA EQ PUSH2 0xA2 JUMPI JUMPDEST PUSH1 0x0 DUP1 REVERT JUMPDEST PUSH1 0x1 SLOAD JUMPDEST PUSH1 0x40 MLOAD SWAP1 DUP2 MSTORE PUSH1 0x20 ADD JUMPDEST PUSH1 0x40 MLOAD DUP1 SWAP2 SUB SWAP1 RETURN JUMPDEST PUSH2 0x86 PUSH1 0x2 SLOAD DUP2 JUMP JUMPDEST PUSH1 0x0 SLOAD PUSH1 0xFF AND JUMPDEST PUSH1 0x40 MLOAD SWAP1 ISZERO ISZERO DUP2 MSTORE PUSH1 0x20 ADD PUSH2 0x90 JUMP JUMPDEST PUSH2 0xE3 PUSH2 0xC7 CALLDATASIZE PUSH1 0x4 PUSH2 0x103 JUMP JUMPDEST PUSH1 0x1 SWAP3 SWAP1 SWAP3 SSTORE PUSH1 0x2 SSTORE PUSH1 0x0 DUP1 SLOAD PUSH1 0xFF NOT AND SWAP2 ISZERO ISZERO SWAP2 SWAP1 SWAP2 OR SWAP1 SSTORE JUMP JUMPDEST STOP JUMPDEST PUSH1 0x0 SLOAD PUSH2 0xA9 SWAP1 PUSH1 0xFF AND DUP2 JUMP JUMPDEST PUSH2 0x86 PUSH1 0x1 SLOAD DUP2 JUMP JUMPDEST PUSH1 0x2 SLOAD PUSH2 0x86 JUMP JUMPDEST PUSH1 0x0 DUP1 PUSH1 0x0 PUSH1 0x60 DUP5 DUP7 SUB SLT ISZERO PUSH2 0x118 JUMPI PUSH1 0x0 DUP1 REVERT JUMPDEST DUP4 CALLDATALOAD SWAP3 POP PUSH1 0x20 DUP5 ADD CALLDATALOAD SWAP2 POP PUSH1 0x40 DUP5 ADD CALLDATALOAD DUP1 ISZERO ISZERO DUP2 EQ PUSH2 0x136 JUMPI PUSH1 0x0 DUP1 REVERT JUMPDEST DUP1 SWAP2 POP POP SWAP3 POP SWAP3 POP SWAP3 JUMP INVALID LOG2 PUSH5 0x6970667358 0x22 SLT KECCAK256 PUSH27 0xEABE392C6A63BC8843942894048E0BEE35AC0B7364EB9655F004CF 0xCD PUSH14 0xE27864736F6C6343000818003300 "},"methodIdentifiers":{"fresh()":"b466b76f","isFresh()":"6268ceaa","liab()":"3319999c","liabilitiesUSD()":"e5dfbf54","nav()":"c1590cd7","navUSD()":"074b63a9","set(uint256,uint256,bool)":"64482f79"}},"storageLayout":{"storage":[{"astId":9242,"contract":"contracts/mocks/ReserveOracleMock.sol:ReserveOracleMock","label":"fresh","offset":0,"slot":"0","type":"t_bool"},{"astId":9244,"contract":"contracts/mocks/ReserveOracleMock.sol:ReserveOracleMock","label":"nav","offset":0,"slot":"1","type":"t_uint256"},{"astId":9246,"contract":"contracts/mocks/ReserveOracleMock.sol:ReserveOracleMock","label":"liab","offset":0,"slot":"2","type":"t_uint256"}],"types":{"t_bool":{"encoding":"inplace","label":"bool","numberOfBytes":"1"},"t_uint256":{"encoding":"inplace","label":"uint256","numberOfBytes":"32"}}}}}}