{"contracts/mocks/EligibleReserveMock.sol":{"EligibleReserveMock":{"abi":[{"inputs":[],"name":"eligibleValueUSD","outputs":[{"internalType":"uint256","name":"","type":"uint256"}],"stateMutability":"view","type":"function"},{"inputs":[{"internalType":"uint256","name":"v","type":"uint256"}],"name":"set","outputs":[],"stateMutability":"nonpayable","type":"function"},{"inputs":[],"name":"val","outputs":[{"internalType":"uint256","name":"","type":"uint256"}],"stateMutability":"view","type":"function"}],"evm":{"bytecode":{"linkReferences":{},"object":"608060405234801561001057600080fd5b5060c28061001f6000396000f3fe6080604052348015600f57600080fd5b5060043610603c5760003560e01c80633c6bb436146041578063466bc7a014605b57806360fe47b1146062575b600080fd5b604960005481565b60405190815260200160405180910390f35b6000546049565b6072606d3660046074565b600055565b005b600060208284031215608557600080fd5b503591905056fea264697066735822122080d8e9c6abdc77a9b5b8f13bbbc970a5e24dba52538a6278fadc967aa417e42d64736f6c63430008180033","opcodes":"PUSH1 0x80 PUSH1 0x40 MSTORE CALLVALUE DUP1 ISZERO PUSH2 0x10 JUMPI PUSH1 0x0 DUP1 REVERT JUMPDEST POP PUSH1 0xC2 DUP1 PUSH2 0x1F PUSH1 0x0 CODECOPY PUSH1 0x0 RETURN INVALID PUSH1 0x80 PUSH1 0x40 MSTORE CALLVALUE DUP1 ISZERO PUSH1 0xF JUMPI PUSH1 0x0 DUP1 REVERT JUMPDEST POP PUSH1 0x4 CALLDATASIZE LT PUSH1 0x3C JUMPI PUSH1 0x0 CALLDATALOAD PUSH1 0xE0 SHR DUP1 PUSH4 0x3C6BB436 EQ PUSH1 0x41 JUMPI DUP1 PUSH4 0x466BC7A0 EQ PUSH1 0x5B JUMPI DUP1 PUSH4 0x60FE47B1 EQ PUSH1 0x62 JUMPI JUMPDEST PUSH1 0x0 DUP1 REVERT JUMPDEST PUSH1 0x49 PUSH1 0x0 SLOAD DUP2 JUMP JUMPDEST PUSH1 0x40 MLOAD SWAP1 DUP2 MSTORE PUSH1 0x20 ADD PUSH1 0x40 MLOAD DUP1 SWAP2 SUB SWAP1 RETURN JUMPDEST PUSH1 0x0 SLOAD PUSH1 0x49 JUMP JUMPDEST PUSH1 0x72 PUSH1 0x6D CALLDATASIZE PUSH1 0x4 PUSH1 0x74 JUMP JUMPDEST PUSH1 0x0 SSTORE JUMP JUMPDEST STOP JUMPDEST PUSH1 0x0 PUSH1 0x20 DUP3 DUP5 SUB SLT ISZERO PUSH1 0x85 JUMPI PUSH1 0x0 DUP1 REVERT JUMPDEST POP CALLDATALOAD SWAP2 SWAP1 POP JUMP INVALID LOG2 PUSH5 0x6970667358 0x22 SLT KECCAK256 DUP1 0xD8 0xE9 0xC6 0xAB 0xDC PUSH24 0xA9B5B8F13BBBC970A5E24DBA52538A6278FADC967AA417E4 0x2D PUSH5 0x736F6C6343 STOP ADDMOD XOR STOP CALLER "},"methodIdentifiers":{"eligibleValueUSD()":"466bc7a0","set(uint256)":"60fe47b1","val()":"3c6bb436"}},"storageLayout":{"storage":[{"astId":9214,"contract":"contracts/mocks/EligibleReserveMock.sol:EligibleReserveMock","label":"val","offset":0,"slot":"0","type":"t_uint256"}],"types":{"t_uint256":{"encoding":"inplace","label":"uint256","numberOfBytes":"32"}}}}}}