{"contracts/mocks/RiskWeightsMock.sol":{"RiskWeightsMock":{"abi":[{"inputs":[{"internalType":"address","name":"a","type":"address"},{"internalType":"uint16","name":"bps","type":"uint16"}],"name":"set","outputs":[],"stateMutability":"nonpayable","type":"function"},{"inputs":[{"internalType":"address","name":"","type":"address"}],"name":"w","outputs":[{"internalType":"uint16","name":"","type":"uint16"}],"stateMutability":"view","type":"function"},{"inputs":[{"internalType":"address","name":"a","type":"address"}],"name":"weightOf","outputs":[{"internalType":"uint16","name":"","type":"uint16"}],"stateMutability":"view","type":"function"}],"evm":{"bytecode":{"linkReferences":{},"object":"608060405234801561001057600080fd5b5061019f806100206000396000f3fe608060405234801561001057600080fd5b50600436106100415760003560e01c80639b82c3cb14610046578063dd4bc10114610085578063f23c19d3146100c9575b600080fd5b610083610054366004610109565b6001600160a01b03919091166000908152602081905260409020805461ffff191661ffff909216919091179055565b005b6100b2610093366004610147565b6001600160a01b031660009081526020819052604090205461ffff1690565b60405161ffff909116815260200160405180910390f35b6100b26100d7366004610147565b60006020819052908152604090205461ffff1681565b80356001600160a01b038116811461010457600080fd5b919050565b6000806040838503121561011c57600080fd5b610125836100ed565b9150602083013561ffff8116811461013c57600080fd5b809150509250929050565b60006020828403121561015957600080fd5b610162826100ed565b939250505056fea2646970667358221220d0904910cfab76865d0cd9f34205818ce207241529cdcbbc626993075ccdfd9564736f6c63430008180033","opcodes":"PUSH1 0x80 PUSH1 0x40 MSTORE CALLVALUE DUP1 ISZERO PUSH2 0x10 JUMPI PUSH1 0x0 DUP1 REVERT JUMPDEST POP PUSH2 0x19F DUP1 PUSH2 0x20 PUSH1 0x0 CODECOPY PUSH1 0x0 RETURN INVALID PUSH1 0x80 PUSH1 0x40 MSTORE CALLVALUE DUP1 ISZERO PUSH2 0x10 JUMPI PUSH1 0x0 DUP1 REVERT JUMPDEST POP PUSH1 0x4 CALLDATASIZE LT PUSH2 0x41 JUMPI PUSH1 0x0 CALLDATALOAD PUSH1 0xE0 SHR DUP1 PUSH4 0x9B82C3CB EQ PUSH2 0x46 JUMPI DUP1 PUSH4 0xDD4BC101 EQ PUSH2 0x85 JUMPI DUP1 PUSH4 0xF23C19D3 EQ PUSH2 0xC9 JUMPI JUMPDEST PUSH1 0x0 DUP1 REVERT JUMPDEST PUSH2 0x83 PUSH2 0x54 CALLDATASIZE PUSH1 0x4 PUSH2 0x109 JUMP JUMPDEST PUSH1 0x1 PUSH1 0x1 PUSH1 0xA0 SHL SUB SWAP2 SWAP1 SWAP2 AND PUSH1 0x0 SWAP1 DUP2 MSTORE PUSH1 0x20 DUP2 SWAP1 MSTORE PUSH1 0x40 SWAP1 KECCAK256 DUP1 SLOAD PUSH2 0xFFFF NOT AND PUSH2 0xFFFF SWAP1 SWAP3 AND SWAP2 SWAP1 SWAP2 OR SWAP1 SSTORE JUMP JUMPDEST STOP JUMPDEST PUSH2 0xB2 PUSH2 0x93 CALLDATASIZE PUSH1 0x4 PUSH2 0x147 JUMP JUMPDEST PUSH1 0x1 PUSH1 0x1 PUSH1 0xA0 SHL SUB AND PUSH1 0x0 SWAP1 DUP2 MSTORE PUSH1 0x20 DUP2 SWAP1 MSTORE PUSH1 0x40 SWAP1 KECCAK256 SLOAD PUSH2 0xFFFF AND SWAP1 JUMP JUMPDEST PUSH1 0x40 MLOAD PUSH2 0xFFFF SWAP1 SWAP2 AND DUP2 MSTORE PUSH1 0x20 ADD PUSH1 0x40 MLOAD DUP1 SWAP2 SUB SWAP1 RETURN JUMPDEST PUSH2 0xB2 PUSH2 0xD7 CALLDATASIZE PUSH1 0x4 PUSH2 0x147 JUMP JUMPDEST PUSH1 0x0 PUSH1 0x20 DUP2 SWAP1 MSTORE SWAP1 DUP2 MSTORE PUSH1 0x40 SWAP1 KECCAK256 SLOAD PUSH2 0xFFFF AND DUP2 JUMP JUMPDEST DUP1 CALLDATALOAD PUSH1 0x1 PUSH1 0x1 PUSH1 0xA0 SHL SUB DUP2 AND DUP2 EQ PUSH2 0x104 JUMPI PUSH1 0x0 DUP1 REVERT JUMPDEST SWAP2 SWAP1 POP JUMP JUMPDEST PUSH1 0x0 DUP1 PUSH1 0x40 DUP4 DUP6 SUB SLT ISZERO PUSH2 0x11C JUMPI PUSH1 0x0 DUP1 REVERT JUMPDEST PUSH2 0x125 DUP4 PUSH2 0xED JUMP JUMPDEST SWAP2 POP PUSH1 0x20 DUP4 ADD CALLDATALOAD PUSH2 0xFFFF DUP2 AND DUP2 EQ PUSH2 0x13C JUMPI PUSH1 0x0 DUP1 REVERT JUMPDEST DUP1 SWAP2 POP POP SWAP3 POP SWAP3 SWAP1 POP JUMP JUMPDEST PUSH1 0x0 PUSH1 0x20 DUP3 DUP5 SUB SLT ISZERO PUSH2 0x159 JUMPI PUSH1 0x0 DUP1 REVERT JUMPDEST PUSH2 0x162 DUP3 PUSH2 0xED JUMP JUMPDEST SWAP4 SWAP3 POP POP POP JUMP INVALID LOG2 PUSH5 0x6970667358 0x22 SLT KECCAK256 0xD0 SWAP1 BLOBHASH LT 0xCF 0xAB PUSH23 0x865D0CD9F34205818CE207241529CDCBBC626993075CCD REVERT SWAP6 PUSH5 0x736F6C6343 STOP ADDMOD XOR STOP CALLER "},"methodIdentifiers":{"set(address,uint16)":"9b82c3cb","w(address)":"f23c19d3","weightOf(address)":"dd4bc101"}},"storageLayout":{"storage":[{"astId":9303,"contract":"contracts/mocks/RiskWeightsMock.sol:RiskWeightsMock","label":"w","offset":0,"slot":"0","type":"t_mapping(t_address,t_uint16)"}],"types":{"t_address":{"encoding":"inplace","label":"address","numberOfBytes":"20"},"t_mapping(t_address,t_uint16)":{"encoding":"mapping","key":"t_address","label":"mapping(address => uint16)","numberOfBytes":"32","value":"t_uint16"},"t_uint16":{"encoding":"inplace","label":"uint16","numberOfBytes":"2"}}}}}}