{"contracts/mocks/TravelRuleMock.sol":{"TravelRuleMock":{"abi":[{"inputs":[{"internalType":"address","name":"f","type":"address"},{"internalType":"address","name":"t","type":"address"},{"internalType":"uint256","name":"a","type":"uint256"},{"internalType":"uint64","name":"ttl","type":"uint64"}],"name":"hasPermit","outputs":[{"internalType":"bool","name":"","type":"bool"}],"stateMutability":"view","type":"function"},{"inputs":[{"internalType":"bytes32","name":"","type":"bytes32"}],"name":"ok","outputs":[{"internalType":"bool","name":"","type":"bool"}],"stateMutability":"view","type":"function"},{"inputs":[{"internalType":"address","name":"f","type":"address"},{"internalType":"address","name":"t","type":"address"},{"internalType":"uint256","name":"amt","type":"uint256"},{"internalType":"uint64","name":"ttl","type":"uint64"},{"internalType":"bool","name":"yes","type":"bool"}],"name":"set","outputs":[],"stateMutability":"nonpayable","type":"function"}],"evm":{"bytecode":{"linkReferences":{},"object":"608060405234801561001057600080fd5b506102b1806100206000396000f3fe608060405234801561001057600080fd5b50600436106100415760003560e01c8063516e6ed2146100465780639e285fed146100ce578063e5673ffa14610157575b600080fd5b6100ba6100543660046101ae565b604080516001600160a01b039586166020808301919091529490951685820152606085019290925267ffffffffffffffff166080808501919091528151808503909101815260a09093018152825192820192909220600090815290819052205460ff1690565b604051901515815260200160405180910390f35b6101556100dc3660046101fb565b604080516001600160a01b0380881660208301528616918101919091526060810184905267ffffffffffffffff831660808201528190600090819060a00160408051808303601f19018152918152815160209283012083529082019290925201600020805460ff19169115159190911790555050505050565b005b6100ba610165366004610262565b60006020819052908152604090205460ff1681565b80356001600160a01b038116811461019157600080fd5b919050565b803567ffffffffffffffff8116811461019157600080fd5b600080600080608085870312156101c457600080fd5b6101cd8561017a565b93506101db6020860161017a565b9250604085013591506101f060608601610196565b905092959194509250565b600080600080600060a0868803121561021357600080fd5b61021c8661017a565b945061022a6020870161017a565b93506040860135925061023f60608701610196565b91506080860135801515811461025457600080fd5b809150509295509295909350565b60006020828403121561027457600080fd5b503591905056fea264697066735822122095d9cdea9b69445e7689ce28526ea7c9520ecf24a6caecdc44983bea9e7e1d2d64736f6c63430008180033","opcodes":"PUSH1 0x80 PUSH1 0x40 MSTORE CALLVALUE DUP1 ISZERO PUSH2 0x10 JUMPI PUSH1 0x0 DUP1 REVERT JUMPDEST POP PUSH2 0x2B1 DUP1 PUSH2 0x20 PUSH1 0x0 CODECOPY PUSH1 0x0 RETURN INVALID PUSH1 0x80 PUSH1 0x40 MSTORE CALLVALUE DUP1 ISZERO PUSH2 0x10 JUMPI PUSH1 0x0 DUP1 REVERT JUMPDEST POP PUSH1 0x4 CALLDATASIZE LT PUSH2 0x41 JUMPI PUSH1 0x0 CALLDATALOAD PUSH1 0xE0 SHR DUP1 PUSH4 0x516E6ED2 EQ PUSH2 0x46 JUMPI DUP1 PUSH4 0x9E285FED EQ PUSH2 0xCE JUMPI DUP1 PUSH4 0xE5673FFA EQ PUSH2 0x157 JUMPI JUMPDEST PUSH1 0x0 DUP1 REVERT JUMPDEST PUSH2 0xBA PUSH2 0x54 CALLDATASIZE PUSH1 0x4 PUSH2 0x1AE JUMP JUMPDEST PUSH1 0x40 DUP1 MLOAD PUSH1 0x1 PUSH1 0x1 PUSH1 0xA0 SHL SUB SWAP6 DUP7 AND PUSH1 0x20 DUP1 DUP4 ADD SWAP2 SWAP1 SWAP2 MSTORE SWAP5 SWAP1 SWAP6 AND DUP6 DUP3 ADD MSTORE PUSH1 0x60 DUP6 ADD SWAP3 SWAP1 SWAP3 MSTORE PUSH8 0xFFFFFFFFFFFFFFFF AND PUSH1 0x80 DUP1 DUP6 ADD SWAP2 SWAP1 SWAP2 MSTORE DUP2 MLOAD DUP1 DUP6 SUB SWAP1 SWAP2 ADD DUP2 MSTORE PUSH1 0xA0 SWAP1 SWAP4 ADD DUP2 MSTORE DUP3 MLOAD SWAP3 DUP3 ADD SWAP3 SWAP1 SWAP3 KECCAK256 PUSH1 0x0 SWAP1 DUP2 MSTORE SWAP1 DUP2 SWAP1 MSTORE KECCAK256 SLOAD PUSH1 0xFF AND SWAP1 JUMP JUMPDEST PUSH1 0x40 MLOAD SWAP1 ISZERO ISZERO DUP2 MSTORE PUSH1 0x20 ADD PUSH1 0x40 MLOAD DUP1 SWAP2 SUB SWAP1 RETURN JUMPDEST PUSH2 0x155 PUSH2 0xDC CALLDATASIZE PUSH1 0x4 PUSH2 0x1FB JUMP JUMPDEST PUSH1 0x40 DUP1 MLOAD PUSH1 0x1 PUSH1 0x1 PUSH1 0xA0 SHL SUB DUP1 DUP9 AND PUSH1 0x20 DUP4 ADD MSTORE DUP7 AND SWAP2 DUP2 ADD SWAP2 SWAP1 SWAP2 MSTORE PUSH1 0x60 DUP2 ADD DUP5 SWAP1 MSTORE PUSH8 0xFFFFFFFFFFFFFFFF DUP4 AND PUSH1 0x80 DUP3 ADD MSTORE DUP2 SWAP1 PUSH1 0x0 SWAP1 DUP2 SWAP1 PUSH1 0xA0 ADD PUSH1 0x40 DUP1 MLOAD DUP1 DUP4 SUB PUSH1 0x1F NOT ADD DUP2 MSTORE SWAP2 DUP2 MSTORE DUP2 MLOAD PUSH1 0x20 SWAP3 DUP4 ADD KECCAK256 DUP4 MSTORE SWAP1 DUP3 ADD SWAP3 SWAP1 SWAP3 MSTORE ADD PUSH1 0x0 KECCAK256 DUP1 SLOAD PUSH1 0xFF NOT AND SWAP2 ISZERO ISZERO SWAP2 SWAP1 SWAP2 OR SWAP1 SSTORE POP POP POP POP POP JUMP JUMPDEST STOP JUMPDEST PUSH2 0xBA PUSH2 0x165 CALLDATASIZE PUSH1 0x4 PUSH2 0x262 JUMP JUMPDEST PUSH1 0x0 PUSH1 0x20 DUP2 SWAP1 MSTORE SWAP1 DUP2 MSTORE PUSH1 0x40 SWAP1 KECCAK256 SLOAD PUSH1 0xFF AND DUP2 JUMP JUMPDEST DUP1 CALLDATALOAD PUSH1 0x1 PUSH1 0x1 PUSH1 0xA0 SHL SUB DUP2 AND DUP2 EQ PUSH2 0x191 JUMPI PUSH1 0x0 DUP1 REVERT JUMPDEST SWAP2 SWAP1 POP JUMP JUMPDEST DUP1 CALLDATALOAD PUSH8 0xFFFFFFFFFFFFFFFF DUP2 AND DUP2 EQ PUSH2 0x191 JUMPI PUSH1 0x0 DUP1 REVERT JUMPDEST PUSH1 0x0 DUP1 PUSH1 0x0 DUP1 PUSH1 0x80 DUP6 DUP8 SUB SLT ISZERO PUSH2 0x1C4 JUMPI PUSH1 0x0 DUP1 REVERT JUMPDEST PUSH2 0x1CD DUP6 PUSH2 0x17A JUMP JUMPDEST SWAP4 POP PUSH2 0x1DB PUSH1 0x20 DUP7 ADD PUSH2 0x17A JUMP JUMPDEST SWAP3 POP PUSH1 0x40 DUP6 ADD CALLDATALOAD SWAP2 POP PUSH2 0x1F0 PUSH1 0x60 DUP7 ADD PUSH2 0x196 JUMP JUMPDEST SWAP1 POP SWAP3 SWAP6 SWAP2 SWAP5 POP SWAP3 POP JUMP JUMPDEST PUSH1 0x0 DUP1 PUSH1 0x0 DUP1 PUSH1 0x0 PUSH1 0xA0 DUP7 DUP9 SUB SLT ISZERO PUSH2 0x213 JUMPI PUSH1 0x0 DUP1 REVERT JUMPDEST PUSH2 0x21C DUP7 PUSH2 0x17A JUMP JUMPDEST SWAP5 POP PUSH2 0x22A PUSH1 0x20 DUP8 ADD PUSH2 0x17A JUMP JUMPDEST SWAP4 POP PUSH1 0x40 DUP7 ADD CALLDATALOAD SWAP3 POP PUSH2 0x23F PUSH1 0x60 DUP8 ADD PUSH2 0x196 JUMP JUMPDEST SWAP2 POP PUSH1 0x80 DUP7 ADD CALLDATALOAD DUP1 ISZERO ISZERO DUP2 EQ PUSH2 0x254 JUMPI PUSH1 0x0 DUP1 REVERT JUMPDEST DUP1 SWAP2 POP POP SWAP3 SWAP6 POP SWAP3 SWAP6 SWAP1 SWAP4 POP JUMP JUMPDEST PUSH1 0x0 PUSH1 0x20 DUP3 DUP5 SUB SLT ISZERO PUSH2 0x274 JUMPI PUSH1 0x0 DUP1 REVERT JUMPDEST POP CALLDATALOAD SWAP2 SWAP1 POP JUMP INVALID LOG2 PUSH5 0x6970667358 0x22 SLT KECCAK256 SWAP6 0xD9 0xCD 0xEA SWAP12 PUSH10 0x445E7689CE28526EA7C9 MSTORE 0xE 0xCF 0x24 0xA6 0xCA 0xEC 0xDC PREVRANDAO SWAP9 EXTCODESIZE 0xEA SWAP15 PUSH31 0x1D2D64736F6C63430008180033000000000000000000000000000000000000 "},"methodIdentifiers":{"hasPermit(address,address,uint256,uint64)":"516e6ed2","ok(bytes32)":"e5673ffa","set(address,address,uint256,uint64,bool)":"9e285fed"}},"storageLayout":{"storage":[{"astId":9340,"contract":"contracts/mocks/TravelRuleMock.sol:TravelRuleMock","label":"ok","offset":0,"slot":"0","type":"t_mapping(t_bytes32,t_bool)"}],"types":{"t_bool":{"encoding":"inplace","label":"bool","numberOfBytes":"1"},"t_bytes32":{"encoding":"inplace","label":"bytes32","numberOfBytes":"32"},"t_mapping(t_bytes32,t_bool)":{"encoding":"mapping","key":"t_bytes32","label":"mapping(bytes32 => bool)","numberOfBytes":"32","value":"t_bool"}}}}}}