{"contracts/compliance/ComplianceRegistryUpgradeable.sol":{"ComplianceRegistryUpgradeable":{"abi":[{"inputs":[],"name":"AccessControlBadConfirmation","type":"error"},{"inputs":[{"internalType":"address","name":"account","type":"address"},{"internalType":"bytes32","name":"neededRole","type":"bytes32"}],"name":"AccessControlUnauthorizedAccount","type":"error"},{"inputs":[{"internalType":"address","name":"target","type":"address"}],"name":"AddressEmptyCode","type":"error"},{"inputs":[{"internalType":"address","name":"implementation","type":"address"}],"name":"ERC1967InvalidImplementation","type":"error"},{"inputs":[],"name":"ERC1967NonPayable","type":"error"},{"inputs":[],"name":"FailedCall","type":"error"},{"inputs":[],"name":"InvalidInitialization","type":"error"},{"inputs":[],"name":"NotInitializing","type":"error"},{"inputs":[],"name":"UUPSUnauthorizedCallContext","type":"error"},{"inputs":[{"internalType":"bytes32","name":"slot","type":"bytes32"}],"name":"UUPSUnsupportedProxiableUUID","type":"error"},{"anonymous":false,"inputs":[{"indexed":true,"internalType":"address","name":"user","type":"address"},{"indexed":false,"internalType":"bool","name":"ok","type":"bool"}],"name":"AllowlistSet","type":"event"},{"anonymous":false,"inputs":[{"indexed":false,"internalType":"uint64","name":"version","type":"uint64"}],"name":"Initialized","type":"event"},{"anonymous":false,"inputs":[{"indexed":true,"internalType":"bytes32","name":"id","type":"bytes32"},{"components":[{"internalType":"bool","name":"allowUS","type":"bool"},{"internalType":"bool","name":"allowEU","type":"bool"},{"internalType":"bool","name":"allowSG","type":"bool"},{"internalType":"bool","name":"allowUK","type":"bool"},{"internalType":"bool","name":"regD506c","type":"bool"},{"internalType":"bool","name":"regS","type":"bool"},{"internalType":"bool","name":"micaART","type":"bool"},{"internalType":"bool","name":"micaEMT","type":"bool"},{"internalType":"bool","name":"proOnly","type":"bool"},{"internalType":"bool","name":"travelRuleRequired","type":"bool"}],"indexed":false,"internalType":"struct ComplianceRegistryUpgradeable.Policy","name":"p","type":"tuple"}],"name":"PolicySet","type":"event"},{"anonymous":false,"inputs":[{"indexed":true,"internalType":"address","name":"user","type":"address"},{"components":[{"internalType":"bool","name":"kyc","type":"bool"},{"internalType":"bool","name":"accredited","type":"bool"},{"internalType":"uint64","name":"kycAsOf","type":"uint64"},{"internalType":"uint64","name":"kycExpiry","type":"uint64"},{"internalType":"bytes2","name":"isoCountry","type":"bytes2"},{"internalType":"bool","name":"frozen","type":"bool"}],"indexed":false,"internalType":"struct ComplianceRegistryUpgradeable.Profile","name":"prof","type":"tuple"}],"name":"ProfileSet","type":"event"},{"anonymous":false,"inputs":[{"indexed":true,"internalType":"bytes32","name":"role","type":"bytes32"},{"indexed":true,"internalType":"bytes32","name":"previousAdminRole","type":"bytes32"},{"indexed":true,"internalType":"bytes32","name":"newAdminRole","type":"bytes32"}],"name":"RoleAdminChanged","type":"event"},{"anonymous":false,"inputs":[{"indexed":true,"internalType":"bytes32","name":"role","type":"bytes32"},{"indexed":true,"internalType":"address","name":"account","type":"address"},{"indexed":true,"internalType":"address","name":"sender","type":"address"}],"name":"RoleGranted","type":"event"},{"anonymous":false,"inputs":[{"indexed":true,"internalType":"bytes32","name":"role","type":"bytes32"},{"indexed":true,"internalType":"address","name":"account","type":"address"},{"indexed":true,"internalType":"address","name":"sender","type":"address"}],"name":"RoleRevoked","type":"event"},{"anonymous":false,"inputs":[{"indexed":true,"internalType":"address","name":"implementation","type":"address"}],"name":"Upgraded","type":"event"},{"inputs":[],"name":"ADMIN_ROLE","outputs":[{"internalType":"bytes32","name":"","type":"bytes32"}],"stateMutability":"view","type":"function"},{"inputs":[],"name":"ATTESTOR_ROLE","outputs":[{"internalType":"bytes32","name":"","type":"bytes32"}],"stateMutability":"view","type":"function"},{"inputs":[],"name":"DEFAULT_ADMIN_ROLE","outputs":[{"internalType":"bytes32","name":"","type":"bytes32"}],"stateMutability":"view","type":"function"},{"inputs":[],"name":"UPGRADE_INTERFACE_VERSION","outputs":[{"internalType":"string","name":"","type":"string"}],"stateMutability":"view","type":"function"},{"inputs":[{"internalType":"address","name":"","type":"address"}],"name":"allowlist","outputs":[{"internalType":"bool","name":"","type":"bool"}],"stateMutability":"view","type":"function"},{"inputs":[{"internalType":"address","name":"user","type":"address"},{"internalType":"bytes32","name":"policyId","type":"bytes32"}],"name":"canHold","outputs":[{"internalType":"bool","name":"","type":"bool"}],"stateMutability":"view","type":"function"},{"inputs":[{"internalType":"bytes32","name":"role","type":"bytes32"}],"name":"getRoleAdmin","outputs":[{"internalType":"bytes32","name":"","type":"bytes32"}],"stateMutability":"view","type":"function"},{"inputs":[{"internalType":"bytes32","name":"role","type":"bytes32"},{"internalType":"address","name":"account","type":"address"}],"name":"grantRole","outputs":[],"stateMutability":"nonpayable","type":"function"},{"inputs":[{"internalType":"bytes32","name":"role","type":"bytes32"},{"internalType":"address","name":"account","type":"address"}],"name":"hasRole","outputs":[{"internalType":"bool","name":"","type":"bool"}],"stateMutability":"view","type":"function"},{"inputs":[{"internalType":"address","name":"admin","type":"address"}],"name":"initialize","outputs":[],"stateMutability":"nonpayable","type":"function"},{"inputs":[{"internalType":"bytes32","name":"","type":"bytes32"}],"name":"policies","outputs":[{"internalType":"bool","name":"allowUS","type":"bool"},{"internalType":"bool","name":"allowEU","type":"bool"},{"internalType":"bool","name":"allowSG","type":"bool"},{"internalType":"bool","name":"allowUK","type":"bool"},{"internalType":"bool","name":"regD506c","type":"bool"},{"internalType":"bool","name":"regS","type":"bool"},{"internalType":"bool","name":"micaART","type":"bool"},{"internalType":"bool","name":"micaEMT","type":"bool"},{"internalType":"bool","name":"proOnly","type":"bool"},{"internalType":"bool","name":"travelRuleRequired","type":"bool"}],"stateMutability":"view","type":"function"},{"inputs":[{"internalType":"address","name":"","type":"address"}],"name":"profiles","outputs":[{"internalType":"bool","name":"kyc","type":"bool"},{"internalType":"bool","name":"accredited","type":"bool"},{"internalType":"uint64","name":"kycAsOf","type":"uint64"},{"internalType":"uint64","name":"kycExpiry","type":"uint64"},{"internalType":"bytes2","name":"isoCountry","type":"bytes2"},{"internalType":"bool","name":"frozen","type":"bool"}],"stateMutability":"view","type":"function"},{"inputs":[],"name":"proxiableUUID","outputs":[{"internalType":"bytes32","name":"","type":"bytes32"}],"stateMutability":"view","type":"function"},{"inputs":[{"internalType":"bytes32","name":"role","type":"bytes32"},{"internalType":"address","name":"callerConfirmation","type":"address"}],"name":"renounceRole","outputs":[],"stateMutability":"nonpayable","type":"function"},{"inputs":[{"internalType":"bytes32","name":"role","type":"bytes32"},{"internalType":"address","name":"account","type":"address"}],"name":"revokeRole","outputs":[],"stateMutability":"nonpayable","type":"function"},{"inputs":[{"internalType":"address","name":"user","type":"address"},{"internalType":"bool","name":"ok","type":"bool"}],"name":"setAllowlist","outputs":[],"stateMutability":"nonpayable","type":"function"},{"inputs":[{"internalType":"bytes32","name":"id","type":"bytes32"},{"components":[{"internalType":"bool","name":"allowUS","type":"bool"},{"internalType":"bool","name":"allowEU","type":"bool"},{"internalType":"bool","name":"allowSG","type":"bool"},{"internalType":"bool","name":"allowUK","type":"bool"},{"internalType":"bool","name":"regD506c","type":"bool"},{"internalType":"bool","name":"regS","type":"bool"},{"internalType":"bool","name":"micaART","type":"bool"},{"internalType":"bool","name":"micaEMT","type":"bool"},{"internalType":"bool","name":"proOnly","type":"bool"},{"internalType":"bool","name":"travelRuleRequired","type":"bool"}],"internalType":"struct ComplianceRegistryUpgradeable.Policy","name":"p","type":"tuple"}],"name":"setPolicy","outputs":[],"stateMutability":"nonpayable","type":"function"},{"inputs":[{"internalType":"address","name":"user","type":"address"},{"components":[{"internalType":"bool","name":"kyc","type":"bool"},{"internalType":"bool","name":"accredited","type":"bool"},{"internalType":"uint64","name":"kycAsOf","type":"uint64"},{"internalType":"uint64","name":"kycExpiry","type":"uint64"},{"internalType":"bytes2","name":"isoCountry","type":"bytes2"},{"internalType":"bool","name":"frozen","type":"bool"}],"internalType":"struct ComplianceRegistryUpgradeable.Profile","name":"prof","type":"tuple"}],"name":"setProfile","outputs":[],"stateMutability":"nonpayable","type":"function"},{"inputs":[{"internalType":"bytes4","name":"interfaceId","type":"bytes4"}],"name":"supportsInterface","outputs":[{"internalType":"bool","name":"","type":"bool"}],"stateMutability":"view","type":"function"},{"inputs":[{"internalType":"address","name":"newImplementation","type":"address"},{"internalType":"bytes","name":"data","type":"bytes"}],"name":"upgradeToAndCall","outputs":[],"stateMutability":"payable","type":"function"}],"evm":{"bytecode":{"linkReferences":{},"object":"60a06040523060805234801561001457600080fd5b5060805161190361003e60003960008181610cd501528181610cfe0152610e4901526119036000f3fe60806040526004361061011f5760003560e01c806391d14854116100a0578063b12527f811610064578063b12527f81461034a578063bbe156271461036a578063c4d66de81461041e578063d547741f1461043e578063ddbfd8ef1461045e57600080fd5b806391d1485414610287578063a217fddf146102a7578063a7cd52cb146102bc578063aac507d6146102ec578063ad3cb1cc1461030c57600080fd5b80634f1ef286116100e75780634f1ef286146101e95780634f4d0bae146101fc57806352d1902d1461021c578063627236441461023157806375b238fc1461026557600080fd5b806301ffc9a714610124578063248a9ca3146101595780632e72ce53146101875780632f2ff15d146101a757806336568abe146101c9575b600080fd5b34801561013057600080fd5b5061014461013f366004611107565b610546565b60405190151581526020015b60405180910390f35b34801561016557600080fd5b50610179610174366004611131565b61057d565b604051908152602001610150565b34801561019357600080fd5b506101446101a2366004611166565b61059f565b3480156101b357600080fd5b506101c76101c2366004611190565b61081e565b005b3480156101d557600080fd5b506101c76101e4366004611190565b610840565b6101c76101f73660046111d2565b610878565b34801561020857600080fd5b506101c7610217366004611294565b610897565b34801561022857600080fd5b5061017961092e565b34801561023d57600080fd5b506101797fa7e0cd0f2772b23ee4c329892293a6bd99d48c306b094d6d008c9a8bb8b731e481565b34801561027157600080fd5b506101796000805160206118ae83398151915281565b34801561029357600080fd5b506101446102a2366004611190565b61094b565b3480156102b357600080fd5b50610179600081565b3480156102c857600080fd5b506101446102d73660046112d3565b60026020526000908152604090205460ff1681565b3480156102f857600080fd5b506101c76103073660046112ee565b610983565b34801561031857600080fd5b5061033d604051806040016040528060058152602001640352e302e360dc1b81525081565b604051610150919061133e565b34801561035657600080fd5b506101c761036536600461138a565b6109e8565b34801561037657600080fd5b506103d56103853660046112d3565b60016020526000908152604090205460ff80821691610100810482169167ffffffffffffffff620100008304811692600160501b810490911691600160901b820460f01b91600160a01b90041686565b604080519615158752941515602087015267ffffffffffffffff93841694860194909452911660608401526001600160f01b0319166080830152151560a082015260c001610150565b34801561042a57600080fd5b506101c76104393660046112d3565b610a58565b34801561044a57600080fd5b506101c7610459366004611190565b610b80565b34801561046a57600080fd5b506104ec610479366004611131565b60006020819052908152604090205460ff80821691610100810482169162010000820481169163010000008104821691640100000000820481169165010000000000810482169166010000000000008204811691600160381b8104821691600160401b8204811691600160481b9004168a565b604080519a15158b5298151560208b01529615159789019790975293151560608801529115156080870152151560a0860152151560c0850152151560e0840152901515610100830152151561012082015261014001610150565b60006001600160e01b03198216637965db0b60e01b148061057757506301ffc9a760e01b6001600160e01b03198316145b92915050565b600090815260008051602061188e833981519152602052604090206001015490565b6001600160a01b03821660009081526002602052604081205460ff16156105c857506001610577565b600082815260208181526040808320815161014081018352905460ff80821615158352610100808304821615158487015262010000808404831615158587015263010000008404831615156060808701919091526401000000008504841615156080808801919091526501000000000086048516151560a080890191909152660100000000000087048616151560c0808a0191909152600160381b88048716151560e08a0152600160401b880487161515868a0152600160481b909704861615156101208901526001600160a01b038e168b5260018a5299889020885196870189525480861615158752938404851615159886019890985267ffffffffffffffff918304821696850196909652600160501b820416948301949094526001600160f01b0319600160901b850460f01b1694820194909452600160a01b909204909216151592810183905290918061071e57508051155b1561072e57600092505050610577565b606081015167ffffffffffffffff16158015906107585750806060015167ffffffffffffffff1642115b1561076857600092505050610577565b60808101516001600160f01b03191661aaad60f01b0161079357815161079357600092505050610577565b60808101516001600160f01b031916615c5f60f11b016107c15781606001516107c157600092505050610577565b60808101516001600160f01b03191661acb960f01b016107ef5781604001516107ef57600092505050610577565b816101000151801561080357508060200151155b1561081357600092505050610577565b506001949350505050565b6108278261057d565b61083081610b9c565b61083a8383610ba9565b50505050565b6001600160a01b03811633146108695760405163334bd91960e11b815260040160405180910390fd5b6108738282610c4e565b505050565b610880610cca565b61088982610d71565b6108938282610d7c565b5050565b7fa7e0cd0f2772b23ee4c329892293a6bd99d48c306b094d6d008c9a8bb8b731e46108c181610b9c565b6001600160a01b038316600090815260016020526040902082906108e582826113fa565b905050826001600160a01b03167f92cc05d31dffe5b7804268a724fec372d9ea7600315f459c88f843ae8c7d516a836040516109219190611512565b60405180910390a2505050565b6000610938610e3e565b5060008051602061186e83398151915290565b600091825260008051602061188e833981519152602090815260408084206001600160a01b0393909316845291905290205460ff1690565b6000805160206118ae83398151915261099b81610b9c565b600083815260208190526040902082906109b582826115a8565b905050827f962b110c8e970cd9ed91440ec38c72af20bc987cb0acf1f487c45fe2f280a7ad83604051610921919061176c565b6000805160206118ae833981519152610a0081610b9c565b6001600160a01b038316600081815260026020908152604091829020805460ff191686151590811790915591519182527fff571df7d74779bb3bc4c418144ed2539441681cec39b558e6639f5faefc06959101610921565b6000610a62610e87565b805490915060ff600160401b820416159067ffffffffffffffff16600081158015610a8a5750825b905060008267ffffffffffffffff166001148015610aa75750303b155b905081158015610ab5575080155b15610ad35760405163f92ee8a960e01b815260040160405180910390fd5b845467ffffffffffffffff191660011785558315610afd57845460ff60401b1916600160401b1785555b610b05610eb0565b610b0d610eb0565b610b18600087610ba9565b50610b316000805160206118ae83398151915287610ba9565b508315610b7857845460ff60401b19168555604051600181527fc7f505b2f371ae2175ee4913f4499e1f2633a7b5936321eed1cdaeb6115181d29060200160405180910390a15b505050505050565b610b898261057d565b610b9281610b9c565b61083a8383610c4e565b610ba68133610eb8565b50565b600060008051602061188e833981519152610bc4848461094b565b610c44576000848152602082815260408083206001600160a01b03871684529091529020805460ff19166001179055610bfa3390565b6001600160a01b0316836001600160a01b0316857f2f8788117e7eff1d82e926ec794901d17c78024a50270940304540a733656f0d60405160405180910390a46001915050610577565b6000915050610577565b600060008051602061188e833981519152610c69848461094b565b15610c44576000848152602082815260408083206001600160a01b0387168085529252808320805460ff1916905551339287917ff6391f5c32d9c69d2a47ea670b442974b53935d1edc7fd64eb21e047a839171b9190a46001915050610577565b306001600160a01b037f0000000000000000000000000000000000000000000000000000000000000000161480610d5157507f00000000000000000000000000000000000000000000000000000000000000006001600160a01b0316610d4560008051602061186e833981519152546001600160a01b031690565b6001600160a01b031614155b15610d6f5760405163703e46dd60e11b815260040160405180910390fd5b565b600061089381610b9c565b816001600160a01b03166352d1902d6040518163ffffffff1660e01b8152600401602060405180830381865afa925050508015610dd6575060408051601f3d908101601f19168201909252610dd391810190611838565b60015b610e0357604051634c9c8ce360e01b81526001600160a01b03831660048201526024015b60405180910390fd5b60008051602061186e8339815191528114610e3457604051632a87526960e21b815260048101829052602401610dfa565b6108738383610ef1565b306001600160a01b037f00000000000000000000000000000000000000000000000000000000000000001614610d6f5760405163703e46dd60e11b815260040160405180910390fd5b6000807ff0c57e16840df040f15088dc2f81fe391c3923bec73e23a9662efc9c229c6a00610577565b610d6f610f47565b610ec2828261094b565b6108935760405163e2517d3f60e01b81526001600160a01b038216600482015260248101839052604401610dfa565b610efa82610f6c565b6040516001600160a01b038316907fbc7cd75a20ee27fd9adebab32041f755214dbc6bffa90cc0225b39da2e5c2d3b90600090a2805115610f3f576108738282610fd1565b610893611047565b610f4f611066565b610d6f57604051631afcd79f60e31b815260040160405180910390fd5b806001600160a01b03163b600003610fa257604051634c9c8ce360e01b81526001600160a01b0382166004820152602401610dfa565b60008051602061186e83398151915280546001600160a01b0319166001600160a01b0392909216919091179055565b6060600080846001600160a01b031684604051610fee9190611851565b600060405180830381855af49150503d8060008114611029576040519150601f19603f3d011682016040523d82523d6000602084013e61102e565b606091505b509150915061103e858383611080565b95945050505050565b3415610d6f5760405163b398979f60e01b815260040160405180910390fd5b6000611070610e87565b54600160401b900460ff16919050565b60608261109557611090826110df565b6110d8565b81511580156110ac57506001600160a01b0384163b155b156110d557604051639996b31560e01b81526001600160a01b0385166004820152602401610dfa565b50805b9392505050565b8051156110ee57805160208201fd5b60405163d6bda27560e01b815260040160405180910390fd5b60006020828403121561111957600080fd5b81356001600160e01b0319811681146110d857600080fd5b60006020828403121561114357600080fd5b5035919050565b80356001600160a01b038116811461116157600080fd5b919050565b6000806040838503121561117957600080fd5b6111828361114a565b946020939093013593505050565b600080604083850312156111a357600080fd5b823591506111b36020840161114a565b90509250929050565b634e487b7160e01b600052604160045260246000fd5b600080604083850312156111e557600080fd5b6111ee8361114a565b9150602083013567ffffffffffffffff8082111561120b57600080fd5b818501915085601f83011261121f57600080fd5b813581811115611231576112316111bc565b604051601f8201601f19908116603f01168101908382118183101715611259576112596111bc565b8160405282815288602084870101111561127257600080fd5b8260208601602083013760006020848301015280955050505050509250929050565b60008082840360e08112156112a857600080fd5b6112b18461114a565b925060c0601f19820112156112c557600080fd5b506020830190509250929050565b6000602082840312156112e557600080fd5b6110d88261114a565b60008082840361016081121561130357600080fd5b83359250610140601f19820112156112c557600080fd5b60005b8381101561133557818101518382015260200161131d565b50506000910152565b602081526000825180602084015261135d81604085016020870161131a565b601f01601f19169190910160400192915050565b8015158114610ba657600080fd5b803561116181611371565b6000806040838503121561139d57600080fd5b6113a68361114a565b915060208301356113b681611371565b809150509250929050565b6000813561057781611371565b67ffffffffffffffff81168114610ba657600080fd5b6001600160f01b031981168114610ba657600080fd5b813561140581611371565b815460ff191660ff8215151617825550602082013561142381611371565b815461ff00191681151560081b61ff0016178255506040820135611446816113ce565b815469ffffffffffffffff00008260101b1691508169ffffffffffffffff0000198216178355606084013561147a816113ce565b67ffffffffffffffff60501b60509190911b1671ffffffffffffffffffffffffffffffff000019821683178117845560808501356114b7816113e4565b61ffff60901b8160601c168473ffffffffffffffffffffffffffffffffffff0000198516178317178555505050506108936114f460a084016113c1565b82805460ff60a01b191691151560a01b60ff60a01b16919091179055565b60c08101823561152181611371565b15158252602083013561153381611371565b151560208301526040830135611548816113ce565b67ffffffffffffffff9081166040840152606084013590611568826113ce565b166060830152608083013561157c816113e4565b6001600160f01b031916608083015260a083013561159981611371565b80151560a08401525092915050565b81356115b381611371565b815460ff191660ff821515161782555060208201356115d181611371565b815461ff00191681151560081b61ff00161782555060408201356115f481611371565b815462ff0000191690151560101b62ff000016178155611637611619606084016113c1565b82805463ff000000191691151560181b63ff00000016919091179055565b611666611646608084016113c1565b82805464ff00000000191691151560201b64ff0000000016919091179055565b61169761167560a084016113c1565b82805465ff0000000000191691151560281b65ff000000000016919091179055565b6116ca6116a660c084016113c1565b82805466ff000000000000191691151560301b66ff00000000000016919091179055565b6116ff6116d960e084016113c1565b82805467ff00000000000000191691151560381b67ff0000000000000016919091179055565b61173261170f61010084016113c1565b82805460ff60401b191691151560401b68ff000000000000000016919091179055565b61089361174261012084016113c1565b82805469ff000000000000000000191691151560481b69ff00000000000000000016919091179055565b61014081016117848261177e8561137f565b15159052565b6117906020840161137f565b151560208301526117a36040840161137f565b151560408301526117b66060840161137f565b151560608301526117c96080840161137f565b151560808301526117dc60a0840161137f565b151560a08301526117ef60c0840161137f565b151560c083015261180260e0840161137f565b151560e083015261010061181784820161137f565b15159083015261012061182b84820161137f565b1515920191909152919050565b60006020828403121561184a57600080fd5b5051919050565b6000825161186381846020870161131a565b919091019291505056fe360894a13ba1a3210667c828492db98dca3e2076cc3735a920a3ca505d382bbc02dd7bc7dec4dceedda775e58dd541e08a116c6c53815c0bd028192f7b626800a49807205ce4d355092ef5a8a18f56e8913cf4a201fbe287825b095693c21775a26469706673582212209010b0c8166af1c54e0c7d6556da2c997b84564712e03ab9c4bddea4d0cc881e64736f6c63430008180033","opcodes":"PUSH1 0xA0 PUSH1 0x40 MSTORE ADDRESS PUSH1 0x80 MSTORE CALLVALUE DUP1 ISZERO PUSH2 0x14 JUMPI PUSH1 0x0 DUP1 REVERT JUMPDEST POP PUSH1 0x80 MLOAD PUSH2 0x1903 PUSH2 0x3E PUSH1 0x0 CODECOPY PUSH1 0x0 DUP2 DUP2 PUSH2 0xCD5 ADD MSTORE DUP2 DUP2 PUSH2 0xCFE ADD MSTORE PUSH2 0xE49 ADD MSTORE PUSH2 0x1903 PUSH1 0x0 RETURN INVALID PUSH1 0x80 PUSH1 0x40 MSTORE PUSH1 0x4 CALLDATASIZE LT PUSH2 0x11F JUMPI PUSH1 0x0 CALLDATALOAD PUSH1 0xE0 SHR DUP1 PUSH4 0x91D14854 GT PUSH2 0xA0 JUMPI DUP1 PUSH4 0xB12527F8 GT PUSH2 0x64 JUMPI DUP1 PUSH4 0xB12527F8 EQ PUSH2 0x34A JUMPI DUP1 PUSH4 0xBBE15627 EQ PUSH2 0x36A JUMPI DUP1 PUSH4 0xC4D66DE8 EQ PUSH2 0x41E JUMPI DUP1 PUSH4 0xD547741F EQ PUSH2 0x43E JUMPI DUP1 PUSH4 0xDDBFD8EF EQ PUSH2 0x45E JUMPI PUSH1 0x0 DUP1 REVERT JUMPDEST DUP1 PUSH4 0x91D14854 EQ PUSH2 0x287 JUMPI DUP1 PUSH4 0xA217FDDF EQ PUSH2 0x2A7 JUMPI DUP1 PUSH4 0xA7CD52CB EQ PUSH2 0x2BC JUMPI DUP1 PUSH4 0xAAC507D6 EQ PUSH2 0x2EC JUMPI DUP1 PUSH4 0xAD3CB1CC EQ PUSH2 0x30C JUMPI PUSH1 0x0 DUP1 REVERT JUMPDEST DUP1 PUSH4 0x4F1EF286 GT PUSH2 0xE7 JUMPI DUP1 PUSH4 0x4F1EF286 EQ PUSH2 0x1E9 JUMPI DUP1 PUSH4 0x4F4D0BAE EQ PUSH2 0x1FC JUMPI DUP1 PUSH4 0x52D1902D EQ PUSH2 0x21C JUMPI DUP1 PUSH4 0x62723644 EQ PUSH2 0x231 JUMPI DUP1 PUSH4 0x75B238FC EQ PUSH2 0x265 JUMPI PUSH1 0x0 DUP1 REVERT JUMPDEST DUP1 PUSH4 0x1FFC9A7 EQ PUSH2 0x124 JUMPI DUP1 PUSH4 0x248A9CA3 EQ PUSH2 0x159 JUMPI DUP1 PUSH4 0x2E72CE53 EQ PUSH2 0x187 JUMPI DUP1 PUSH4 0x2F2FF15D EQ PUSH2 0x1A7 JUMPI DUP1 PUSH4 0x36568ABE EQ PUSH2 0x1C9 JUMPI JUMPDEST PUSH1 0x0 DUP1 REVERT JUMPDEST CALLVALUE DUP1 ISZERO PUSH2 0x130 JUMPI PUSH1 0x0 DUP1 REVERT JUMPDEST POP PUSH2 0x144 PUSH2 0x13F CALLDATASIZE PUSH1 0x4 PUSH2 0x1107 JUMP JUMPDEST PUSH2 0x546 JUMP JUMPDEST PUSH1 0x40 MLOAD SWAP1 ISZERO ISZERO DUP2 MSTORE PUSH1 0x20 ADD JUMPDEST PUSH1 0x40 MLOAD DUP1 SWAP2 SUB SWAP1 RETURN JUMPDEST CALLVALUE DUP1 ISZERO PUSH2 0x165 JUMPI PUSH1 0x0 DUP1 REVERT JUMPDEST POP PUSH2 0x179 PUSH2 0x174 CALLDATASIZE PUSH1 0x4 PUSH2 0x1131 JUMP JUMPDEST PUSH2 0x57D JUMP JUMPDEST PUSH1 0x40 MLOAD SWAP1 DUP2 MSTORE PUSH1 0x20 ADD PUSH2 0x150 JUMP JUMPDEST CALLVALUE DUP1 ISZERO PUSH2 0x193 JUMPI PUSH1 0x0 DUP1 REVERT JUMPDEST POP PUSH2 0x144 PUSH2 0x1A2 CALLDATASIZE PUSH1 0x4 PUSH2 0x1166 JUMP JUMPDEST PUSH2 0x59F JUMP JUMPDEST CALLVALUE DUP1 ISZERO PUSH2 0x1B3 JUMPI PUSH1 0x0 DUP1 REVERT JUMPDEST POP PUSH2 0x1C7 PUSH2 0x1C2 CALLDATASIZE PUSH1 0x4 PUSH2 0x1190 JUMP JUMPDEST PUSH2 0x81E JUMP JUMPDEST STOP JUMPDEST CALLVALUE DUP1 ISZERO PUSH2 0x1D5 JUMPI PUSH1 0x0 DUP1 REVERT JUMPDEST POP PUSH2 0x1C7 PUSH2 0x1E4 CALLDATASIZE PUSH1 0x4 PUSH2 0x1190 JUMP JUMPDEST PUSH2 0x840 JUMP JUMPDEST PUSH2 0x1C7 PUSH2 0x1F7 CALLDATASIZE PUSH1 0x4 PUSH2 0x11D2 JUMP JUMPDEST PUSH2 0x878 JUMP JUMPDEST CALLVALUE DUP1 ISZERO PUSH2 0x208 JUMPI PUSH1 0x0 DUP1 REVERT JUMPDEST POP PUSH2 0x1C7 PUSH2 0x217 CALLDATASIZE PUSH1 0x4 PUSH2 0x1294 JUMP JUMPDEST PUSH2 0x897 JUMP JUMPDEST CALLVALUE DUP1 ISZERO PUSH2 0x228 JUMPI PUSH1 0x0 DUP1 REVERT JUMPDEST POP PUSH2 0x179 PUSH2 0x92E JUMP JUMPDEST CALLVALUE DUP1 ISZERO PUSH2 0x23D JUMPI PUSH1 0x0 DUP1 REVERT JUMPDEST POP PUSH2 0x179 PUSH32 0xA7E0CD0F2772B23EE4C329892293A6BD99D48C306B094D6D008C9A8BB8B731E4 DUP2 JUMP JUMPDEST CALLVALUE DUP1 ISZERO PUSH2 0x271 JUMPI PUSH1 0x0 DUP1 REVERT JUMPDEST POP PUSH2 0x179 PUSH1 0x0 DUP1 MLOAD PUSH1 0x20 PUSH2 0x18AE DUP4 CODECOPY DUP2 MLOAD SWAP2 MSTORE DUP2 JUMP JUMPDEST CALLVALUE DUP1 ISZERO PUSH2 0x293 JUMPI PUSH1 0x0 DUP1 REVERT JUMPDEST POP PUSH2 0x144 PUSH2 0x2A2 CALLDATASIZE PUSH1 0x4 PUSH2 0x1190 JUMP JUMPDEST PUSH2 0x94B JUMP JUMPDEST CALLVALUE DUP1 ISZERO PUSH2 0x2B3 JUMPI PUSH1 0x0 DUP1 REVERT JUMPDEST POP PUSH2 0x179 PUSH1 0x0 DUP2 JUMP JUMPDEST CALLVALUE DUP1 ISZERO PUSH2 0x2C8 JUMPI PUSH1 0x0 DUP1 REVERT JUMPDEST POP PUSH2 0x144 PUSH2 0x2D7 CALLDATASIZE PUSH1 0x4 PUSH2 0x12D3 JUMP JUMPDEST PUSH1 0x2 PUSH1 0x20 MSTORE PUSH1 0x0 SWAP1 DUP2 MSTORE PUSH1 0x40 SWAP1 KECCAK256 SLOAD PUSH1 0xFF AND DUP2 JUMP JUMPDEST CALLVALUE DUP1 ISZERO PUSH2 0x2F8 JUMPI PUSH1 0x0 DUP1 REVERT JUMPDEST POP PUSH2 0x1C7 PUSH2 0x307 CALLDATASIZE PUSH1 0x4 PUSH2 0x12EE JUMP JUMPDEST PUSH2 0x983 JUMP JUMPDEST CALLVALUE DUP1 ISZERO PUSH2 0x318 JUMPI PUSH1 0x0 DUP1 REVERT JUMPDEST POP PUSH2 0x33D PUSH1 0x40 MLOAD DUP1 PUSH1 0x40 ADD PUSH1 0x40 MSTORE DUP1 PUSH1 0x5 DUP2 MSTORE PUSH1 0x20 ADD PUSH5 0x352E302E3 PUSH1 0xDC SHL DUP2 MSTORE POP DUP2 JUMP JUMPDEST PUSH1 0x40 MLOAD PUSH2 0x150 SWAP2 SWAP1 PUSH2 0x133E JUMP JUMPDEST CALLVALUE DUP1 ISZERO PUSH2 0x356 JUMPI PUSH1 0x0 DUP1 REVERT JUMPDEST POP PUSH2 0x1C7 PUSH2 0x365 CALLDATASIZE PUSH1 0x4 PUSH2 0x138A JUMP JUMPDEST PUSH2 0x9E8 JUMP JUMPDEST CALLVALUE DUP1 ISZERO PUSH2 0x376 JUMPI PUSH1 0x0 DUP1 REVERT JUMPDEST POP PUSH2 0x3D5 PUSH2 0x385 CALLDATASIZE PUSH1 0x4 PUSH2 0x12D3 JUMP JUMPDEST PUSH1 0x1 PUSH1 0x20 MSTORE PUSH1 0x0 SWAP1 DUP2 MSTORE PUSH1 0x40 SWAP1 KECCAK256 SLOAD PUSH1 0xFF DUP1 DUP3 AND SWAP2 PUSH2 0x100 DUP2 DIV DUP3 AND SWAP2 PUSH8 0xFFFFFFFFFFFFFFFF PUSH3 0x10000 DUP4 DIV DUP2 AND SWAP3 PUSH1 0x1 PUSH1 0x50 SHL DUP2 DIV SWAP1 SWAP2 AND SWAP2 PUSH1 0x1 PUSH1 0x90 SHL DUP3 DIV PUSH1 0xF0 SHL SWAP2 PUSH1 0x1 PUSH1 0xA0 SHL SWAP1 DIV AND DUP7 JUMP JUMPDEST PUSH1 0x40 DUP1 MLOAD SWAP7 ISZERO ISZERO DUP8 MSTORE SWAP5 ISZERO ISZERO PUSH1 0x20 DUP8 ADD MSTORE PUSH8 0xFFFFFFFFFFFFFFFF SWAP4 DUP5 AND SWAP5 DUP7 ADD SWAP5 SWAP1 SWAP5 MSTORE SWAP2 AND PUSH1 0x60 DUP5 ADD MSTORE PUSH1 0x1 PUSH1 0x1 PUSH1 0xF0 SHL SUB NOT AND PUSH1 0x80 DUP4 ADD MSTORE ISZERO ISZERO PUSH1 0xA0 DUP3 ADD MSTORE PUSH1 0xC0 ADD PUSH2 0x150 JUMP JUMPDEST CALLVALUE DUP1 ISZERO PUSH2 0x42A JUMPI PUSH1 0x0 DUP1 REVERT JUMPDEST POP PUSH2 0x1C7 PUSH2 0x439 CALLDATASIZE PUSH1 0x4 PUSH2 0x12D3 JUMP JUMPDEST PUSH2 0xA58 JUMP JUMPDEST CALLVALUE DUP1 ISZERO PUSH2 0x44A JUMPI PUSH1 0x0 DUP1 REVERT JUMPDEST POP PUSH2 0x1C7 PUSH2 0x459 CALLDATASIZE PUSH1 0x4 PUSH2 0x1190 JUMP JUMPDEST PUSH2 0xB80 JUMP JUMPDEST CALLVALUE DUP1 ISZERO PUSH2 0x46A JUMPI PUSH1 0x0 DUP1 REVERT JUMPDEST POP PUSH2 0x4EC PUSH2 0x479 CALLDATASIZE PUSH1 0x4 PUSH2 0x1131 JUMP JUMPDEST PUSH1 0x0 PUSH1 0x20 DUP2 SWAP1 MSTORE SWAP1 DUP2 MSTORE PUSH1 0x40 SWAP1 KECCAK256 SLOAD PUSH1 0xFF DUP1 DUP3 AND SWAP2 PUSH2 0x100 DUP2 DIV DUP3 AND SWAP2 PUSH3 0x10000 DUP3 DIV DUP2 AND SWAP2 PUSH4 0x1000000 DUP2 DIV DUP3 AND SWAP2 PUSH5 0x100000000 DUP3 DIV DUP2 AND SWAP2 PUSH6 0x10000000000 DUP2 DIV DUP3 AND SWAP2 PUSH7 0x1000000000000 DUP3 DIV DUP2 AND SWAP2 PUSH1 0x1 PUSH1 0x38 SHL DUP2 DIV DUP3 AND SWAP2 PUSH1 0x1 PUSH1 0x40 SHL DUP3 DIV DUP2 AND SWAP2 PUSH1 0x1 PUSH1 0x48 SHL SWAP1 DIV AND DUP11 JUMP JUMPDEST PUSH1 0x40 DUP1 MLOAD SWAP11 ISZERO ISZERO DUP12 MSTORE SWAP9 ISZERO ISZERO PUSH1 0x20 DUP12 ADD MSTORE SWAP7 ISZERO ISZERO SWAP8 DUP10 ADD SWAP8 SWAP1 SWAP8 MSTORE SWAP4 ISZERO ISZERO PUSH1 0x60 DUP9 ADD MSTORE SWAP2 ISZERO ISZERO PUSH1 0x80 DUP8 ADD MSTORE ISZERO ISZERO PUSH1 0xA0 DUP7 ADD MSTORE ISZERO ISZERO PUSH1 0xC0 DUP6 ADD MSTORE ISZERO ISZERO PUSH1 0xE0 DUP5 ADD MSTORE SWAP1 ISZERO ISZERO PUSH2 0x100 DUP4 ADD MSTORE ISZERO ISZERO PUSH2 0x120 DUP3 ADD MSTORE PUSH2 0x140 ADD PUSH2 0x150 JUMP JUMPDEST PUSH1 0x0 PUSH1 0x1 PUSH1 0x1 PUSH1 0xE0 SHL SUB NOT DUP3 AND PUSH4 0x7965DB0B PUSH1 0xE0 SHL EQ DUP1 PUSH2 0x577 JUMPI POP PUSH4 0x1FFC9A7 PUSH1 0xE0 SHL PUSH1 0x1 PUSH1 0x1 PUSH1 0xE0 SHL SUB NOT DUP4 AND EQ JUMPDEST SWAP3 SWAP2 POP POP JUMP JUMPDEST PUSH1 0x0 SWAP1 DUP2 MSTORE PUSH1 0x0 DUP1 MLOAD PUSH1 0x20 PUSH2 0x188E DUP4 CODECOPY DUP2 MLOAD SWAP2 MSTORE PUSH1 0x20 MSTORE PUSH1 0x40 SWAP1 KECCAK256 PUSH1 0x1 ADD SLOAD SWAP1 JUMP JUMPDEST PUSH1 0x1 PUSH1 0x1 PUSH1 0xA0 SHL SUB DUP3 AND PUSH1 0x0 SWAP1 DUP2 MSTORE PUSH1 0x2 PUSH1 0x20 MSTORE PUSH1 0x40 DUP2 KECCAK256 SLOAD PUSH1 0xFF AND ISZERO PUSH2 0x5C8 JUMPI POP PUSH1 0x1 PUSH2 0x577 JUMP JUMPDEST PUSH1 0x0 DUP3 DUP2 MSTORE PUSH1 0x20 DUP2 DUP2 MSTORE PUSH1 0x40 DUP1 DUP4 KECCAK256 DUP2 MLOAD PUSH2 0x140 DUP2 ADD DUP4 MSTORE SWAP1 SLOAD PUSH1 0xFF DUP1 DUP3 AND ISZERO ISZERO DUP4 MSTORE PUSH2 0x100 DUP1 DUP4 DIV DUP3 AND ISZERO ISZERO DUP5 DUP8 ADD MSTORE PUSH3 0x10000 DUP1 DUP5 DIV DUP4 AND ISZERO ISZERO DUP6 DUP8 ADD MSTORE PUSH4 0x1000000 DUP5 DIV DUP4 AND ISZERO ISZERO PUSH1 0x60 DUP1 DUP8 ADD SWAP2 SWAP1 SWAP2 MSTORE PUSH5 0x100000000 DUP6 DIV DUP5 AND ISZERO ISZERO PUSH1 0x80 DUP1 DUP9 ADD SWAP2 SWAP1 SWAP2 MSTORE PUSH6 0x10000000000 DUP7 DIV DUP6 AND ISZERO ISZERO PUSH1 0xA0 DUP1 DUP10 ADD SWAP2 SWAP1 SWAP2 MSTORE PUSH7 0x1000000000000 DUP8 DIV DUP7 AND ISZERO ISZERO PUSH1 0xC0 DUP1 DUP11 ADD SWAP2 SWAP1 SWAP2 MSTORE PUSH1 0x1 PUSH1 0x38 SHL DUP9 DIV DUP8 AND ISZERO ISZERO PUSH1 0xE0 DUP11 ADD MSTORE PUSH1 0x1 PUSH1 0x40 SHL DUP9 DIV DUP8 AND ISZERO ISZERO DUP7 DUP11 ADD MSTORE PUSH1 0x1 PUSH1 0x48 SHL SWAP1 SWAP8 DIV DUP7 AND ISZERO ISZERO PUSH2 0x120 DUP10 ADD MSTORE PUSH1 0x1 PUSH1 0x1 PUSH1 0xA0 SHL SUB DUP15 AND DUP12 MSTORE PUSH1 0x1 DUP11 MSTORE SWAP10 DUP9 SWAP1 KECCAK256 DUP9 MLOAD SWAP7 DUP8 ADD DUP10 MSTORE SLOAD DUP1 DUP7 AND ISZERO ISZERO DUP8 MSTORE SWAP4 DUP5 DIV DUP6 AND ISZERO ISZERO SWAP9 DUP7 ADD SWAP9 SWAP1 SWAP9 MSTORE PUSH8 0xFFFFFFFFFFFFFFFF SWAP2 DUP4 DIV DUP3 AND SWAP7 DUP6 ADD SWAP7 SWAP1 SWAP7 MSTORE PUSH1 0x1 PUSH1 0x50 SHL DUP3 DIV AND SWAP5 DUP4 ADD SWAP5 SWAP1 SWAP5 MSTORE PUSH1 0x1 PUSH1 0x1 PUSH1 0xF0 SHL SUB NOT PUSH1 0x1 PUSH1 0x90 SHL DUP6 DIV PUSH1 0xF0 SHL AND SWAP5 DUP3 ADD SWAP5 SWAP1 SWAP5 MSTORE PUSH1 0x1 PUSH1 0xA0 SHL SWAP1 SWAP3 DIV SWAP1 SWAP3 AND ISZERO ISZERO SWAP3 DUP2 ADD DUP4 SWAP1 MSTORE SWAP1 SWAP2 DUP1 PUSH2 0x71E JUMPI POP DUP1 MLOAD ISZERO JUMPDEST ISZERO PUSH2 0x72E JUMPI PUSH1 0x0 SWAP3 POP POP POP PUSH2 0x577 JUMP JUMPDEST PUSH1 0x60 DUP2 ADD MLOAD PUSH8 0xFFFFFFFFFFFFFFFF AND ISZERO DUP1 ISZERO SWAP1 PUSH2 0x758 JUMPI POP DUP1 PUSH1 0x60 ADD MLOAD PUSH8 0xFFFFFFFFFFFFFFFF AND TIMESTAMP GT JUMPDEST ISZERO PUSH2 0x768 JUMPI PUSH1 0x0 SWAP3 POP POP POP PUSH2 0x577 JUMP JUMPDEST PUSH1 0x80 DUP2 ADD MLOAD PUSH1 0x1 PUSH1 0x1 PUSH1 0xF0 SHL SUB NOT AND PUSH2 0xAAAD PUSH1 0xF0 SHL ADD PUSH2 0x793 JUMPI DUP2 MLOAD PUSH2 0x793 JUMPI PUSH1 0x0 SWAP3 POP POP POP PUSH2 0x577 JUMP JUMPDEST PUSH1 0x80 DUP2 ADD MLOAD PUSH1 0x1 PUSH1 0x1 PUSH1 0xF0 SHL SUB NOT AND PUSH2 0x5C5F PUSH1 0xF1 SHL ADD PUSH2 0x7C1 JUMPI DUP2 PUSH1 0x60 ADD MLOAD PUSH2 0x7C1 JUMPI PUSH1 0x0 SWAP3 POP POP POP PUSH2 0x577 JUMP JUMPDEST PUSH1 0x80 DUP2 ADD MLOAD PUSH1 0x1 PUSH1 0x1 PUSH1 0xF0 SHL SUB NOT AND PUSH2 0xACB9 PUSH1 0xF0 SHL ADD PUSH2 0x7EF JUMPI DUP2 PUSH1 0x40 ADD MLOAD PUSH2 0x7EF JUMPI PUSH1 0x0 SWAP3 POP POP POP PUSH2 0x577 JUMP JUMPDEST DUP2 PUSH2 0x100 ADD MLOAD DUP1 ISZERO PUSH2 0x803 JUMPI POP DUP1 PUSH1 0x20 ADD MLOAD ISZERO JUMPDEST ISZERO PUSH2 0x813 JUMPI PUSH1 0x0 SWAP3 POP POP POP PUSH2 0x577 JUMP JUMPDEST POP PUSH1 0x1 SWAP5 SWAP4 POP POP POP POP JUMP JUMPDEST PUSH2 0x827 DUP3 PUSH2 0x57D JUMP JUMPDEST PUSH2 0x830 DUP2 PUSH2 0xB9C JUMP JUMPDEST PUSH2 0x83A DUP4 DUP4 PUSH2 0xBA9 JUMP JUMPDEST POP POP POP POP JUMP JUMPDEST PUSH1 0x1 PUSH1 0x1 PUSH1 0xA0 SHL SUB DUP2 AND CALLER EQ PUSH2 0x869 JUMPI PUSH1 0x40 MLOAD PUSH4 0x334BD919 PUSH1 0xE1 SHL DUP2 MSTORE PUSH1 0x4 ADD PUSH1 0x40 MLOAD DUP1 SWAP2 SUB SWAP1 REVERT JUMPDEST PUSH2 0x873 DUP3 DUP3 PUSH2 0xC4E JUMP JUMPDEST POP POP POP JUMP JUMPDEST PUSH2 0x880 PUSH2 0xCCA JUMP JUMPDEST PUSH2 0x889 DUP3 PUSH2 0xD71 JUMP JUMPDEST PUSH2 0x893 DUP3 DUP3 PUSH2 0xD7C JUMP JUMPDEST POP POP JUMP JUMPDEST PUSH32 0xA7E0CD0F2772B23EE4C329892293A6BD99D48C306B094D6D008C9A8BB8B731E4 PUSH2 0x8C1 DUP2 PUSH2 0xB9C JUMP JUMPDEST PUSH1 0x1 PUSH1 0x1 PUSH1 0xA0 SHL SUB DUP4 AND PUSH1 0x0 SWAP1 DUP2 MSTORE PUSH1 0x1 PUSH1 0x20 MSTORE PUSH1 0x40 SWAP1 KECCAK256 DUP3 SWAP1 PUSH2 0x8E5 DUP3 DUP3 PUSH2 0x13FA JUMP JUMPDEST SWAP1 POP POP DUP3 PUSH1 0x1 PUSH1 0x1 PUSH1 0xA0 SHL SUB AND PUSH32 0x92CC05D31DFFE5B7804268A724FEC372D9EA7600315F459C88F843AE8C7D516A DUP4 PUSH1 0x40 MLOAD PUSH2 0x921 SWAP2 SWAP1 PUSH2 0x1512 JUMP JUMPDEST PUSH1 0x40 MLOAD DUP1 SWAP2 SUB SWAP1 LOG2 POP POP POP JUMP JUMPDEST PUSH1 0x0 PUSH2 0x938 PUSH2 0xE3E JUMP JUMPDEST POP PUSH1 0x0 DUP1 MLOAD PUSH1 0x20 PUSH2 0x186E DUP4 CODECOPY DUP2 MLOAD SWAP2 MSTORE SWAP1 JUMP JUMPDEST PUSH1 0x0 SWAP2 DUP3 MSTORE PUSH1 0x0 DUP1 MLOAD PUSH1 0x20 PUSH2 0x188E DUP4 CODECOPY DUP2 MLOAD SWAP2 MSTORE PUSH1 0x20 SWAP1 DUP2 MSTORE PUSH1 0x40 DUP1 DUP5 KECCAK256 PUSH1 0x1 PUSH1 0x1 PUSH1 0xA0 SHL SUB SWAP4 SWAP1 SWAP4 AND DUP5 MSTORE SWAP2 SWAP1 MSTORE SWAP1 KECCAK256 SLOAD PUSH1 0xFF AND SWAP1 JUMP JUMPDEST PUSH1 0x0 DUP1 MLOAD PUSH1 0x20 PUSH2 0x18AE DUP4 CODECOPY DUP2 MLOAD SWAP2 MSTORE PUSH2 0x99B DUP2 PUSH2 0xB9C JUMP JUMPDEST PUSH1 0x0 DUP4 DUP2 MSTORE PUSH1 0x20 DUP2 SWAP1 MSTORE PUSH1 0x40 SWAP1 KECCAK256 DUP3 SWAP1 PUSH2 0x9B5 DUP3 DUP3 PUSH2 0x15A8 JUMP JUMPDEST SWAP1 POP POP DUP3 PUSH32 0x962B110C8E970CD9ED91440EC38C72AF20BC987CB0ACF1F487C45FE2F280A7AD DUP4 PUSH1 0x40 MLOAD PUSH2 0x921 SWAP2 SWAP1 PUSH2 0x176C JUMP JUMPDEST PUSH1 0x0 DUP1 MLOAD PUSH1 0x20 PUSH2 0x18AE DUP4 CODECOPY DUP2 MLOAD SWAP2 MSTORE PUSH2 0xA00 DUP2 PUSH2 0xB9C JUMP JUMPDEST PUSH1 0x1 PUSH1 0x1 PUSH1 0xA0 SHL SUB DUP4 AND PUSH1 0x0 DUP2 DUP2 MSTORE PUSH1 0x2 PUSH1 0x20 SWAP1 DUP2 MSTORE PUSH1 0x40 SWAP2 DUP3 SWAP1 KECCAK256 DUP1 SLOAD PUSH1 0xFF NOT AND DUP7 ISZERO ISZERO SWAP1 DUP2 OR SWAP1 SWAP2 SSTORE SWAP2 MLOAD SWAP2 DUP3 MSTORE PUSH32 0xFF571DF7D74779BB3BC4C418144ED2539441681CEC39B558E6639F5FAEFC0695 SWAP2 ADD PUSH2 0x921 JUMP JUMPDEST PUSH1 0x0 PUSH2 0xA62 PUSH2 0xE87 JUMP JUMPDEST DUP1 SLOAD SWAP1 SWAP2 POP PUSH1 0xFF PUSH1 0x1 PUSH1 0x40 SHL DUP3 DIV AND ISZERO SWAP1 PUSH8 0xFFFFFFFFFFFFFFFF AND PUSH1 0x0 DUP2 ISZERO DUP1 ISZERO PUSH2 0xA8A JUMPI POP DUP3 JUMPDEST SWAP1 POP PUSH1 0x0 DUP3 PUSH8 0xFFFFFFFFFFFFFFFF AND PUSH1 0x1 EQ DUP1 ISZERO PUSH2 0xAA7 JUMPI POP ADDRESS EXTCODESIZE ISZERO JUMPDEST SWAP1 POP DUP2 ISZERO DUP1 ISZERO PUSH2 0xAB5 JUMPI POP DUP1 ISZERO JUMPDEST ISZERO PUSH2 0xAD3 JUMPI PUSH1 0x40 MLOAD PUSH4 0xF92EE8A9 PUSH1 0xE0 SHL DUP2 MSTORE PUSH1 0x4 ADD PUSH1 0x40 MLOAD DUP1 SWAP2 SUB SWAP1 REVERT JUMPDEST DUP5 SLOAD PUSH8 0xFFFFFFFFFFFFFFFF NOT AND PUSH1 0x1 OR DUP6 SSTORE DUP4 ISZERO PUSH2 0xAFD JUMPI DUP5 SLOAD PUSH1 0xFF PUSH1 0x40 SHL NOT AND PUSH1 0x1 PUSH1 0x40 SHL OR DUP6 SSTORE JUMPDEST PUSH2 0xB05 PUSH2 0xEB0 JUMP JUMPDEST PUSH2 0xB0D PUSH2 0xEB0 JUMP JUMPDEST PUSH2 0xB18 PUSH1 0x0 DUP8 PUSH2 0xBA9 JUMP JUMPDEST POP PUSH2 0xB31 PUSH1 0x0 DUP1 MLOAD PUSH1 0x20 PUSH2 0x18AE DUP4 CODECOPY DUP2 MLOAD SWAP2 MSTORE DUP8 PUSH2 0xBA9 JUMP JUMPDEST POP DUP4 ISZERO PUSH2 0xB78 JUMPI DUP5 SLOAD PUSH1 0xFF PUSH1 0x40 SHL NOT AND DUP6 SSTORE PUSH1 0x40 MLOAD PUSH1 0x1 DUP2 MSTORE PUSH32 0xC7F505B2F371AE2175EE4913F4499E1F2633A7B5936321EED1CDAEB6115181D2 SWAP1 PUSH1 0x20 ADD PUSH1 0x40 MLOAD DUP1 SWAP2 SUB SWAP1 LOG1 JUMPDEST POP POP POP POP POP POP JUMP JUMPDEST PUSH2 0xB89 DUP3 PUSH2 0x57D JUMP JUMPDEST PUSH2 0xB92 DUP2 PUSH2 0xB9C JUMP JUMPDEST PUSH2 0x83A DUP4 DUP4 PUSH2 0xC4E JUMP JUMPDEST PUSH2 0xBA6 DUP2 CALLER PUSH2 0xEB8 JUMP JUMPDEST POP JUMP JUMPDEST PUSH1 0x0 PUSH1 0x0 DUP1 MLOAD PUSH1 0x20 PUSH2 0x188E DUP4 CODECOPY DUP2 MLOAD SWAP2 MSTORE PUSH2 0xBC4 DUP5 DUP5 PUSH2 0x94B JUMP JUMPDEST PUSH2 0xC44 JUMPI PUSH1 0x0 DUP5 DUP2 MSTORE PUSH1 0x20 DUP3 DUP2 MSTORE PUSH1 0x40 DUP1 DUP4 KECCAK256 PUSH1 0x1 PUSH1 0x1 PUSH1 0xA0 SHL SUB DUP8 AND DUP5 MSTORE SWAP1 SWAP2 MSTORE SWAP1 KECCAK256 DUP1 SLOAD PUSH1 0xFF NOT AND PUSH1 0x1 OR SWAP1 SSTORE PUSH2 0xBFA CALLER SWAP1 JUMP JUMPDEST PUSH1 0x1 PUSH1 0x1 PUSH1 0xA0 SHL SUB AND DUP4 PUSH1 0x1 PUSH1 0x1 PUSH1 0xA0 SHL SUB AND DUP6 PUSH32 0x2F8788117E7EFF1D82E926EC794901D17C78024A50270940304540A733656F0D PUSH1 0x40 MLOAD PUSH1 0x40 MLOAD DUP1 SWAP2 SUB SWAP1 LOG4 PUSH1 0x1 SWAP2 POP POP PUSH2 0x577 JUMP JUMPDEST PUSH1 0x0 SWAP2 POP POP PUSH2 0x577 JUMP JUMPDEST PUSH1 0x0 PUSH1 0x0 DUP1 MLOAD PUSH1 0x20 PUSH2 0x188E DUP4 CODECOPY DUP2 MLOAD SWAP2 MSTORE PUSH2 0xC69 DUP5 DUP5 PUSH2 0x94B JUMP JUMPDEST ISZERO PUSH2 0xC44 JUMPI PUSH1 0x0 DUP5 DUP2 MSTORE PUSH1 0x20 DUP3 DUP2 MSTORE PUSH1 0x40 DUP1 DUP4 KECCAK256 PUSH1 0x1 PUSH1 0x1 PUSH1 0xA0 SHL SUB DUP8 AND DUP1 DUP6 MSTORE SWAP3 MSTORE DUP1 DUP4 KECCAK256 DUP1 SLOAD PUSH1 0xFF NOT AND SWAP1 SSTORE MLOAD CALLER SWAP3 DUP8 SWAP2 PUSH32 0xF6391F5C32D9C69D2A47EA670B442974B53935D1EDC7FD64EB21E047A839171B SWAP2 SWAP1 LOG4 PUSH1 0x1 SWAP2 POP POP PUSH2 0x577 JUMP JUMPDEST ADDRESS PUSH1 0x1 PUSH1 0x1 PUSH1 0xA0 SHL SUB PUSH32 0x0 AND EQ DUP1 PUSH2 0xD51 JUMPI POP PUSH32 0x0 PUSH1 0x1 PUSH1 0x1 PUSH1 0xA0 SHL SUB AND PUSH2 0xD45 PUSH1 0x0 DUP1 MLOAD PUSH1 0x20 PUSH2 0x186E DUP4 CODECOPY DUP2 MLOAD SWAP2 MSTORE SLOAD PUSH1 0x1 PUSH1 0x1 PUSH1 0xA0 SHL SUB AND SWAP1 JUMP JUMPDEST PUSH1 0x1 PUSH1 0x1 PUSH1 0xA0 SHL SUB AND EQ ISZERO JUMPDEST ISZERO PUSH2 0xD6F JUMPI PUSH1 0x40 MLOAD PUSH4 0x703E46DD PUSH1 0xE1 SHL DUP2 MSTORE PUSH1 0x4 ADD PUSH1 0x40 MLOAD DUP1 SWAP2 SUB SWAP1 REVERT JUMPDEST JUMP JUMPDEST PUSH1 0x0 PUSH2 0x893 DUP2 PUSH2 0xB9C JUMP JUMPDEST DUP2 PUSH1 0x1 PUSH1 0x1 PUSH1 0xA0 SHL SUB AND PUSH4 0x52D1902D PUSH1 0x40 MLOAD DUP2 PUSH4 0xFFFFFFFF AND PUSH1 0xE0 SHL DUP2 MSTORE PUSH1 0x4 ADD PUSH1 0x20 PUSH1 0x40 MLOAD DUP1 DUP4 SUB DUP2 DUP7 GAS STATICCALL SWAP3 POP POP POP DUP1 ISZERO PUSH2 0xDD6 JUMPI POP PUSH1 0x40 DUP1 MLOAD PUSH1 0x1F RETURNDATASIZE SWAP1 DUP2 ADD PUSH1 0x1F NOT AND DUP3 ADD SWAP1 SWAP3 MSTORE PUSH2 0xDD3 SWAP2 DUP2 ADD SWAP1 PUSH2 0x1838 JUMP JUMPDEST PUSH1 0x1 JUMPDEST PUSH2 0xE03 JUMPI PUSH1 0x40 MLOAD PUSH4 0x4C9C8CE3 PUSH1 0xE0 SHL DUP2 MSTORE PUSH1 0x1 PUSH1 0x1 PUSH1 0xA0 SHL SUB DUP4 AND PUSH1 0x4 DUP3 ADD MSTORE PUSH1 0x24 ADD JUMPDEST PUSH1 0x40 MLOAD DUP1 SWAP2 SUB SWAP1 REVERT JUMPDEST PUSH1 0x0 DUP1 MLOAD PUSH1 0x20 PUSH2 0x186E DUP4 CODECOPY DUP2 MLOAD SWAP2 MSTORE DUP2 EQ PUSH2 0xE34 JUMPI PUSH1 0x40 MLOAD PUSH4 0x2A875269 PUSH1 0xE2 SHL DUP2 MSTORE PUSH1 0x4 DUP2 ADD DUP3 SWAP1 MSTORE PUSH1 0x24 ADD PUSH2 0xDFA JUMP JUMPDEST PUSH2 0x873 DUP4 DUP4 PUSH2 0xEF1 JUMP JUMPDEST ADDRESS PUSH1 0x1 PUSH1 0x1 PUSH1 0xA0 SHL SUB PUSH32 0x0 AND EQ PUSH2 0xD6F JUMPI PUSH1 0x40 MLOAD PUSH4 0x703E46DD PUSH1 0xE1 SHL DUP2 MSTORE PUSH1 0x4 ADD PUSH1 0x40 MLOAD DUP1 SWAP2 SUB SWAP1 REVERT JUMPDEST PUSH1 0x0 DUP1 PUSH32 0xF0C57E16840DF040F15088DC2F81FE391C3923BEC73E23A9662EFC9C229C6A00 PUSH2 0x577 JUMP JUMPDEST PUSH2 0xD6F PUSH2 0xF47 JUMP JUMPDEST PUSH2 0xEC2 DUP3 DUP3 PUSH2 0x94B JUMP JUMPDEST PUSH2 0x893 JUMPI PUSH1 0x40 MLOAD PUSH4 0xE2517D3F PUSH1 0xE0 SHL DUP2 MSTORE PUSH1 0x1 PUSH1 0x1 PUSH1 0xA0 SHL SUB DUP3 AND PUSH1 0x4 DUP3 ADD MSTORE PUSH1 0x24 DUP2 ADD DUP4 SWAP1 MSTORE PUSH1 0x44 ADD PUSH2 0xDFA JUMP JUMPDEST PUSH2 0xEFA DUP3 PUSH2 0xF6C JUMP JUMPDEST PUSH1 0x40 MLOAD PUSH1 0x1 PUSH1 0x1 PUSH1 0xA0 SHL SUB DUP4 AND SWAP1 PUSH32 0xBC7CD75A20EE27FD9ADEBAB32041F755214DBC6BFFA90CC0225B39DA2E5C2D3B SWAP1 PUSH1 0x0 SWAP1 LOG2 DUP1 MLOAD ISZERO PUSH2 0xF3F JUMPI PUSH2 0x873 DUP3 DUP3 PUSH2 0xFD1 JUMP JUMPDEST PUSH2 0x893 PUSH2 0x1047 JUMP JUMPDEST PUSH2 0xF4F PUSH2 0x1066 JUMP JUMPDEST PUSH2 0xD6F JUMPI PUSH1 0x40 MLOAD PUSH4 0x1AFCD79F PUSH1 0xE3 SHL DUP2 MSTORE PUSH1 0x4 ADD PUSH1 0x40 MLOAD DUP1 SWAP2 SUB SWAP1 REVERT JUMPDEST DUP1 PUSH1 0x1 PUSH1 0x1 PUSH1 0xA0 SHL SUB AND EXTCODESIZE PUSH1 0x0 SUB PUSH2 0xFA2 JUMPI PUSH1 0x40 MLOAD PUSH4 0x4C9C8CE3 PUSH1 0xE0 SHL DUP2 MSTORE PUSH1 0x1 PUSH1 0x1 PUSH1 0xA0 SHL SUB DUP3 AND PUSH1 0x4 DUP3 ADD MSTORE PUSH1 0x24 ADD PUSH2 0xDFA JUMP JUMPDEST PUSH1 0x0 DUP1 MLOAD PUSH1 0x20 PUSH2 0x186E DUP4 CODECOPY DUP2 MLOAD SWAP2 MSTORE DUP1 SLOAD PUSH1 0x1 PUSH1 0x1 PUSH1 0xA0 SHL SUB NOT AND PUSH1 0x1 PUSH1 0x1 PUSH1 0xA0 SHL SUB SWAP3 SWAP1 SWAP3 AND SWAP2 SWAP1 SWAP2 OR SWAP1 SSTORE JUMP JUMPDEST PUSH1 0x60 PUSH1 0x0 DUP1 DUP5 PUSH1 0x1 PUSH1 0x1 PUSH1 0xA0 SHL SUB AND DUP5 PUSH1 0x40 MLOAD PUSH2 0xFEE SWAP2 SWAP1 PUSH2 0x1851 JUMP JUMPDEST PUSH1 0x0 PUSH1 0x40 MLOAD DUP1 DUP4 SUB DUP2 DUP6 GAS DELEGATECALL SWAP2 POP POP RETURNDATASIZE DUP1 PUSH1 0x0 DUP2 EQ PUSH2 0x1029 JUMPI PUSH1 0x40 MLOAD SWAP2 POP PUSH1 0x1F NOT PUSH1 0x3F RETURNDATASIZE ADD AND DUP3 ADD PUSH1 0x40 MSTORE RETURNDATASIZE DUP3 MSTORE RETURNDATASIZE PUSH1 0x0 PUSH1 0x20 DUP5 ADD RETURNDATACOPY PUSH2 0x102E JUMP JUMPDEST PUSH1 0x60 SWAP2 POP JUMPDEST POP SWAP2 POP SWAP2 POP PUSH2 0x103E DUP6 DUP4 DUP4 PUSH2 0x1080 JUMP JUMPDEST SWAP6 SWAP5 POP POP POP POP POP JUMP JUMPDEST CALLVALUE ISZERO PUSH2 0xD6F JUMPI PUSH1 0x40 MLOAD PUSH4 0xB398979F PUSH1 0xE0 SHL DUP2 MSTORE PUSH1 0x4 ADD PUSH1 0x40 MLOAD DUP1 SWAP2 SUB SWAP1 REVERT JUMPDEST PUSH1 0x0 PUSH2 0x1070 PUSH2 0xE87 JUMP JUMPDEST SLOAD PUSH1 0x1 PUSH1 0x40 SHL SWAP1 DIV PUSH1 0xFF AND SWAP2 SWAP1 POP JUMP JUMPDEST PUSH1 0x60 DUP3 PUSH2 0x1095 JUMPI PUSH2 0x1090 DUP3 PUSH2 0x10DF JUMP JUMPDEST PUSH2 0x10D8 JUMP JUMPDEST DUP2 MLOAD ISZERO DUP1 ISZERO PUSH2 0x10AC JUMPI POP PUSH1 0x1 PUSH1 0x1 PUSH1 0xA0 SHL SUB DUP5 AND EXTCODESIZE ISZERO JUMPDEST ISZERO PUSH2 0x10D5 JUMPI PUSH1 0x40 MLOAD PUSH4 0x9996B315 PUSH1 0xE0 SHL DUP2 MSTORE PUSH1 0x1 PUSH1 0x1 PUSH1 0xA0 SHL SUB DUP6 AND PUSH1 0x4 DUP3 ADD MSTORE PUSH1 0x24 ADD PUSH2 0xDFA JUMP JUMPDEST POP DUP1 JUMPDEST SWAP4 SWAP3 POP POP POP JUMP JUMPDEST DUP1 MLOAD ISZERO PUSH2 0x10EE JUMPI DUP1 MLOAD PUSH1 0x20 DUP3 ADD REVERT JUMPDEST PUSH1 0x40 MLOAD PUSH4 0xD6BDA275 PUSH1 0xE0 SHL DUP2 MSTORE PUSH1 0x4 ADD PUSH1 0x40 MLOAD DUP1 SWAP2 SUB SWAP1 REVERT JUMPDEST PUSH1 0x0 PUSH1 0x20 DUP3 DUP5 SUB SLT ISZERO PUSH2 0x1119 JUMPI PUSH1 0x0 DUP1 REVERT JUMPDEST DUP2 CALLDATALOAD PUSH1 0x1 PUSH1 0x1 PUSH1 0xE0 SHL SUB NOT DUP2 AND DUP2 EQ PUSH2 0x10D8 JUMPI PUSH1 0x0 DUP1 REVERT JUMPDEST PUSH1 0x0 PUSH1 0x20 DUP3 DUP5 SUB SLT ISZERO PUSH2 0x1143 JUMPI PUSH1 0x0 DUP1 REVERT JUMPDEST POP CALLDATALOAD SWAP2 SWAP1 POP JUMP JUMPDEST DUP1 CALLDATALOAD PUSH1 0x1 PUSH1 0x1 PUSH1 0xA0 SHL SUB DUP2 AND DUP2 EQ PUSH2 0x1161 JUMPI PUSH1 0x0 DUP1 REVERT JUMPDEST SWAP2 SWAP1 POP JUMP JUMPDEST PUSH1 0x0 DUP1 PUSH1 0x40 DUP4 DUP6 SUB SLT ISZERO PUSH2 0x1179 JUMPI PUSH1 0x0 DUP1 REVERT JUMPDEST PUSH2 0x1182 DUP4 PUSH2 0x114A JUMP JUMPDEST SWAP5 PUSH1 0x20 SWAP4 SWAP1 SWAP4 ADD CALLDATALOAD SWAP4 POP POP POP JUMP JUMPDEST PUSH1 0x0 DUP1 PUSH1 0x40 DUP4 DUP6 SUB SLT ISZERO PUSH2 0x11A3 JUMPI PUSH1 0x0 DUP1 REVERT JUMPDEST DUP3 CALLDATALOAD SWAP2 POP PUSH2 0x11B3 PUSH1 0x20 DUP5 ADD PUSH2 0x114A JUMP JUMPDEST SWAP1 POP SWAP3 POP SWAP3 SWAP1 POP JUMP JUMPDEST PUSH4 0x4E487B71 PUSH1 0xE0 SHL PUSH1 0x0 MSTORE PUSH1 0x41 PUSH1 0x4 MSTORE PUSH1 0x24 PUSH1 0x0 REVERT JUMPDEST PUSH1 0x0 DUP1 PUSH1 0x40 DUP4 DUP6 SUB SLT ISZERO PUSH2 0x11E5 JUMPI PUSH1 0x0 DUP1 REVERT JUMPDEST PUSH2 0x11EE DUP4 PUSH2 0x114A JUMP JUMPDEST SWAP2 POP PUSH1 0x20 DUP4 ADD CALLDATALOAD PUSH8 0xFFFFFFFFFFFFFFFF DUP1 DUP3 GT ISZERO PUSH2 0x120B JUMPI PUSH1 0x0 DUP1 REVERT JUMPDEST DUP2 DUP6 ADD SWAP2 POP DUP6 PUSH1 0x1F DUP4 ADD SLT PUSH2 0x121F JUMPI PUSH1 0x0 DUP1 REVERT JUMPDEST DUP2 CALLDATALOAD DUP2 DUP2 GT ISZERO PUSH2 0x1231 JUMPI PUSH2 0x1231 PUSH2 0x11BC JUMP JUMPDEST PUSH1 0x40 MLOAD PUSH1 0x1F DUP3 ADD PUSH1 0x1F NOT SWAP1 DUP2 AND PUSH1 0x3F ADD AND DUP2 ADD SWAP1 DUP4 DUP3 GT DUP2 DUP4 LT OR ISZERO PUSH2 0x1259 JUMPI PUSH2 0x1259 PUSH2 0x11BC JUMP JUMPDEST DUP2 PUSH1 0x40 MSTORE DUP3 DUP2 MSTORE DUP9 PUSH1 0x20 DUP5 DUP8 ADD ADD GT ISZERO PUSH2 0x1272 JUMPI PUSH1 0x0 DUP1 REVERT JUMPDEST DUP3 PUSH1 0x20 DUP7 ADD PUSH1 0x20 DUP4 ADD CALLDATACOPY PUSH1 0x0 PUSH1 0x20 DUP5 DUP4 ADD ADD MSTORE DUP1 SWAP6 POP POP POP POP POP POP SWAP3 POP SWAP3 SWAP1 POP JUMP JUMPDEST PUSH1 0x0 DUP1 DUP3 DUP5 SUB PUSH1 0xE0 DUP2 SLT ISZERO PUSH2 0x12A8 JUMPI PUSH1 0x0 DUP1 REVERT JUMPDEST PUSH2 0x12B1 DUP5 PUSH2 0x114A JUMP JUMPDEST SWAP3 POP PUSH1 0xC0 PUSH1 0x1F NOT DUP3 ADD SLT ISZERO PUSH2 0x12C5 JUMPI PUSH1 0x0 DUP1 REVERT JUMPDEST POP PUSH1 0x20 DUP4 ADD SWAP1 POP SWAP3 POP SWAP3 SWAP1 POP JUMP JUMPDEST PUSH1 0x0 PUSH1 0x20 DUP3 DUP5 SUB SLT ISZERO PUSH2 0x12E5 JUMPI PUSH1 0x0 DUP1 REVERT JUMPDEST PUSH2 0x10D8 DUP3 PUSH2 0x114A JUMP JUMPDEST PUSH1 0x0 DUP1 DUP3 DUP5 SUB PUSH2 0x160 DUP2 SLT ISZERO PUSH2 0x1303 JUMPI PUSH1 0x0 DUP1 REVERT JUMPDEST DUP4 CALLDATALOAD SWAP3 POP PUSH2 0x140 PUSH1 0x1F NOT DUP3 ADD SLT ISZERO PUSH2 0x12C5 JUMPI PUSH1 0x0 DUP1 REVERT JUMPDEST PUSH1 0x0 JUMPDEST DUP4 DUP2 LT ISZERO PUSH2 0x1335 JUMPI DUP2 DUP2 ADD MLOAD DUP4 DUP3 ADD MSTORE PUSH1 0x20 ADD PUSH2 0x131D JUMP JUMPDEST POP POP PUSH1 0x0 SWAP2 ADD MSTORE JUMP JUMPDEST PUSH1 0x20 DUP2 MSTORE PUSH1 0x0 DUP3 MLOAD DUP1 PUSH1 0x20 DUP5 ADD MSTORE PUSH2 0x135D DUP2 PUSH1 0x40 DUP6 ADD PUSH1 0x20 DUP8 ADD PUSH2 0x131A JUMP JUMPDEST PUSH1 0x1F ADD PUSH1 0x1F NOT AND SWAP2 SWAP1 SWAP2 ADD PUSH1 0x40 ADD SWAP3 SWAP2 POP POP JUMP JUMPDEST DUP1 ISZERO ISZERO DUP2 EQ PUSH2 0xBA6 JUMPI PUSH1 0x0 DUP1 REVERT JUMPDEST DUP1 CALLDATALOAD PUSH2 0x1161 DUP2 PUSH2 0x1371 JUMP JUMPDEST PUSH1 0x0 DUP1 PUSH1 0x40 DUP4 DUP6 SUB SLT ISZERO PUSH2 0x139D JUMPI PUSH1 0x0 DUP1 REVERT JUMPDEST PUSH2 0x13A6 DUP4 PUSH2 0x114A JUMP JUMPDEST SWAP2 POP PUSH1 0x20 DUP4 ADD CALLDATALOAD PUSH2 0x13B6 DUP2 PUSH2 0x1371 JUMP JUMPDEST DUP1 SWAP2 POP POP SWAP3 POP SWAP3 SWAP1 POP JUMP JUMPDEST PUSH1 0x0 DUP2 CALLDATALOAD PUSH2 0x577 DUP2 PUSH2 0x1371 JUMP JUMPDEST PUSH8 0xFFFFFFFFFFFFFFFF DUP2 AND DUP2 EQ PUSH2 0xBA6 JUMPI PUSH1 0x0 DUP1 REVERT JUMPDEST PUSH1 0x1 PUSH1 0x1 PUSH1 0xF0 SHL SUB NOT DUP2 AND DUP2 EQ PUSH2 0xBA6 JUMPI PUSH1 0x0 DUP1 REVERT JUMPDEST DUP2 CALLDATALOAD PUSH2 0x1405 DUP2 PUSH2 0x1371 JUMP JUMPDEST DUP2 SLOAD PUSH1 0xFF NOT AND PUSH1 0xFF DUP3 ISZERO ISZERO AND OR DUP3 SSTORE POP PUSH1 0x20 DUP3 ADD CALLDATALOAD PUSH2 0x1423 DUP2 PUSH2 0x1371 JUMP JUMPDEST DUP2 SLOAD PUSH2 0xFF00 NOT AND DUP2 ISZERO ISZERO PUSH1 0x8 SHL PUSH2 0xFF00 AND OR DUP3 SSTORE POP PUSH1 0x40 DUP3 ADD CALLDATALOAD PUSH2 0x1446 DUP2 PUSH2 0x13CE JUMP JUMPDEST DUP2 SLOAD PUSH10 0xFFFFFFFFFFFFFFFF0000 DUP3 PUSH1 0x10 SHL AND SWAP2 POP DUP2 PUSH10 0xFFFFFFFFFFFFFFFF0000 NOT DUP3 AND OR DUP4 SSTORE PUSH1 0x60 DUP5 ADD CALLDATALOAD PUSH2 0x147A DUP2 PUSH2 0x13CE JUMP JUMPDEST PUSH8 0xFFFFFFFFFFFFFFFF PUSH1 0x50 SHL PUSH1 0x50 SWAP2 SWAP1 SWAP2 SHL AND PUSH18 0xFFFFFFFFFFFFFFFFFFFFFFFFFFFFFFFF0000 NOT DUP3 AND DUP4 OR DUP2 OR DUP5 SSTORE PUSH1 0x80 DUP6 ADD CALLDATALOAD PUSH2 0x14B7 DUP2 PUSH2 0x13E4 JUMP JUMPDEST PUSH2 0xFFFF PUSH1 0x90 SHL DUP2 PUSH1 0x60 SHR AND DUP5 PUSH20 0xFFFFFFFFFFFFFFFFFFFFFFFFFFFFFFFFFFFF0000 NOT DUP6 AND OR DUP4 OR OR DUP6 SSTORE POP POP POP POP PUSH2 0x893 PUSH2 0x14F4 PUSH1 0xA0 DUP5 ADD PUSH2 0x13C1 JUMP JUMPDEST DUP3 DUP1 SLOAD PUSH1 0xFF PUSH1 0xA0 SHL NOT AND SWAP2 ISZERO ISZERO PUSH1 0xA0 SHL PUSH1 0xFF PUSH1 0xA0 SHL AND SWAP2 SWAP1 SWAP2 OR SWAP1 SSTORE JUMP JUMPDEST PUSH1 0xC0 DUP2 ADD DUP3 CALLDATALOAD PUSH2 0x1521 DUP2 PUSH2 0x1371 JUMP JUMPDEST ISZERO ISZERO DUP3 MSTORE PUSH1 0x20 DUP4 ADD CALLDATALOAD PUSH2 0x1533 DUP2 PUSH2 0x1371 JUMP JUMPDEST ISZERO ISZERO PUSH1 0x20 DUP4 ADD MSTORE PUSH1 0x40 DUP4 ADD CALLDATALOAD PUSH2 0x1548 DUP2 PUSH2 0x13CE JUMP JUMPDEST PUSH8 0xFFFFFFFFFFFFFFFF SWAP1 DUP2 AND PUSH1 0x40 DUP5 ADD MSTORE PUSH1 0x60 DUP5 ADD CALLDATALOAD SWAP1 PUSH2 0x1568 DUP3 PUSH2 0x13CE JUMP JUMPDEST AND PUSH1 0x60 DUP4 ADD MSTORE PUSH1 0x80 DUP4 ADD CALLDATALOAD PUSH2 0x157C DUP2 PUSH2 0x13E4 JUMP JUMPDEST PUSH1 0x1 PUSH1 0x1 PUSH1 0xF0 SHL SUB NOT AND PUSH1 0x80 DUP4 ADD MSTORE PUSH1 0xA0 DUP4 ADD CALLDATALOAD PUSH2 0x1599 DUP2 PUSH2 0x1371 JUMP JUMPDEST DUP1 ISZERO ISZERO PUSH1 0xA0 DUP5 ADD MSTORE POP SWAP3 SWAP2 POP POP JUMP JUMPDEST DUP2 CALLDATALOAD PUSH2 0x15B3 DUP2 PUSH2 0x1371 JUMP JUMPDEST DUP2 SLOAD PUSH1 0xFF NOT AND PUSH1 0xFF DUP3 ISZERO ISZERO AND OR DUP3 SSTORE POP PUSH1 0x20 DUP3 ADD CALLDATALOAD PUSH2 0x15D1 DUP2 PUSH2 0x1371 JUMP JUMPDEST DUP2 SLOAD PUSH2 0xFF00 NOT AND DUP2 ISZERO ISZERO PUSH1 0x8 SHL PUSH2 0xFF00 AND OR DUP3 SSTORE POP PUSH1 0x40 DUP3 ADD CALLDATALOAD PUSH2 0x15F4 DUP2 PUSH2 0x1371 JUMP JUMPDEST DUP2 SLOAD PUSH3 0xFF0000 NOT AND SWAP1 ISZERO ISZERO PUSH1 0x10 SHL PUSH3 0xFF0000 AND OR DUP2 SSTORE PUSH2 0x1637 PUSH2 0x1619 PUSH1 0x60 DUP5 ADD PUSH2 0x13C1 JUMP JUMPDEST DUP3 DUP1 SLOAD PUSH4 0xFF000000 NOT AND SWAP2 ISZERO ISZERO PUSH1 0x18 SHL PUSH4 0xFF000000 AND SWAP2 SWAP1 SWAP2 OR SWAP1 SSTORE JUMP JUMPDEST PUSH2 0x1666 PUSH2 0x1646 PUSH1 0x80 DUP5 ADD PUSH2 0x13C1 JUMP JUMPDEST DUP3 DUP1 SLOAD PUSH5 0xFF00000000 NOT AND SWAP2 ISZERO ISZERO PUSH1 0x20 SHL PUSH5 0xFF00000000 AND SWAP2 SWAP1 SWAP2 OR SWAP1 SSTORE JUMP JUMPDEST PUSH2 0x1697 PUSH2 0x1675 PUSH1 0xA0 DUP5 ADD PUSH2 0x13C1 JUMP JUMPDEST DUP3 DUP1 SLOAD PUSH6 0xFF0000000000 NOT AND SWAP2 ISZERO ISZERO PUSH1 0x28 SHL PUSH6 0xFF0000000000 AND SWAP2 SWAP1 SWAP2 OR SWAP1 SSTORE JUMP JUMPDEST PUSH2 0x16CA PUSH2 0x16A6 PUSH1 0xC0 DUP5 ADD PUSH2 0x13C1 JUMP JUMPDEST DUP3 DUP1 SLOAD PUSH7 0xFF000000000000 NOT AND SWAP2 ISZERO ISZERO PUSH1 0x30 SHL PUSH7 0xFF000000000000 AND SWAP2 SWAP1 SWAP2 OR SWAP1 SSTORE JUMP JUMPDEST PUSH2 0x16FF PUSH2 0x16D9 PUSH1 0xE0 DUP5 ADD PUSH2 0x13C1 JUMP JUMPDEST DUP3 DUP1 SLOAD PUSH8 0xFF00000000000000 NOT AND SWAP2 ISZERO ISZERO PUSH1 0x38 SHL PUSH8 0xFF00000000000000 AND SWAP2 SWAP1 SWAP2 OR SWAP1 SSTORE JUMP JUMPDEST PUSH2 0x1732 PUSH2 0x170F PUSH2 0x100 DUP5 ADD PUSH2 0x13C1 JUMP JUMPDEST DUP3 DUP1 SLOAD PUSH1 0xFF PUSH1 0x40 SHL NOT AND SWAP2 ISZERO ISZERO PUSH1 0x40 SHL PUSH9 0xFF0000000000000000 AND SWAP2 SWAP1 SWAP2 OR SWAP1 SSTORE JUMP JUMPDEST PUSH2 0x893 PUSH2 0x1742 PUSH2 0x120 DUP5 ADD PUSH2 0x13C1 JUMP JUMPDEST DUP3 DUP1 SLOAD PUSH10 0xFF000000000000000000 NOT AND SWAP2 ISZERO ISZERO PUSH1 0x48 SHL PUSH10 0xFF000000000000000000 AND SWAP2 SWAP1 SWAP2 OR SWAP1 SSTORE JUMP JUMPDEST PUSH2 0x140 DUP2 ADD PUSH2 0x1784 DUP3 PUSH2 0x177E DUP6 PUSH2 0x137F JUMP JUMPDEST ISZERO ISZERO SWAP1 MSTORE JUMP JUMPDEST PUSH2 0x1790 PUSH1 0x20 DUP5 ADD PUSH2 0x137F JUMP JUMPDEST ISZERO ISZERO PUSH1 0x20 DUP4 ADD MSTORE PUSH2 0x17A3 PUSH1 0x40 DUP5 ADD PUSH2 0x137F JUMP JUMPDEST ISZERO ISZERO PUSH1 0x40 DUP4 ADD MSTORE PUSH2 0x17B6 PUSH1 0x60 DUP5 ADD PUSH2 0x137F JUMP JUMPDEST ISZERO ISZERO PUSH1 0x60 DUP4 ADD MSTORE PUSH2 0x17C9 PUSH1 0x80 DUP5 ADD PUSH2 0x137F JUMP JUMPDEST ISZERO ISZERO PUSH1 0x80 DUP4 ADD MSTORE PUSH2 0x17DC PUSH1 0xA0 DUP5 ADD PUSH2 0x137F JUMP JUMPDEST ISZERO ISZERO PUSH1 0xA0 DUP4 ADD MSTORE PUSH2 0x17EF PUSH1 0xC0 DUP5 ADD PUSH2 0x137F JUMP JUMPDEST ISZERO ISZERO PUSH1 0xC0 DUP4 ADD MSTORE PUSH2 0x1802 PUSH1 0xE0 DUP5 ADD PUSH2 0x137F JUMP JUMPDEST ISZERO ISZERO PUSH1 0xE0 DUP4 ADD MSTORE PUSH2 0x100 PUSH2 0x1817 DUP5 DUP3 ADD PUSH2 0x137F JUMP JUMPDEST ISZERO ISZERO SWAP1 DUP4 ADD MSTORE PUSH2 0x120 PUSH2 0x182B DUP5 DUP3 ADD PUSH2 0x137F JUMP JUMPDEST ISZERO ISZERO SWAP3 ADD SWAP2 SWAP1 SWAP2 MSTORE SWAP2 SWAP1 POP JUMP JUMPDEST PUSH1 0x0 PUSH1 0x20 DUP3 DUP5 SUB SLT ISZERO PUSH2 0x184A JUMPI PUSH1 0x0 DUP1 REVERT JUMPDEST POP MLOAD SWAP2 SWAP1 POP JUMP JUMPDEST PUSH1 0x0 DUP3 MLOAD PUSH2 0x1863 DUP2 DUP5 PUSH1 0x20 DUP8 ADD PUSH2 0x131A JUMP JUMPDEST SWAP2 SWAP1 SWAP2 ADD SWAP3 SWAP2 POP POP JUMP INVALID CALLDATASIZE ADDMOD SWAP5 LOG1 EXTCODESIZE LOG1 LOG3 0x21 MOD PUSH8 0xC828492DB98DCA3E KECCAK256 PUSH23 0xCC3735A920A3CA505D382BBC02DD7BC7DEC4DCEEDDA775 0xE5 DUP14 0xD5 COINBASE 0xE0 DUP11 GT PUSH13 0x6C53815C0BD028192F7B626800 LOG4 SWAP9 SMOD KECCAK256 TLOAD 0xE4 0xD3 SSTORE MULMOD 0x2E CREATE2 0xA8 LOG1 DUP16 JUMP 0xE8 SWAP2 EXTCODECOPY DELEGATECALL LOG2 ADD 0xFB 0xE2 DUP8 DUP3 JUMPDEST MULMOD JUMP SWAP4 0xC2 OR PUSH22 0xA26469706673582212209010B0C8166AF1C54E0C7D65 JUMP 0xDA 0x2C SWAP10 PUSH28 0x84564712E03AB9C4BDDEA4D0CC881E64736F6C634300081800330000 "},"methodIdentifiers":{"ADMIN_ROLE()":"75b238fc","ATTESTOR_ROLE()":"62723644","DEFAULT_ADMIN_ROLE()":"a217fddf","UPGRADE_INTERFACE_VERSION()":"ad3cb1cc","allowlist(address)":"a7cd52cb","canHold(address,bytes32)":"2e72ce53","getRoleAdmin(bytes32)":"248a9ca3","grantRole(bytes32,address)":"2f2ff15d","hasRole(bytes32,address)":"91d14854","initialize(address)":"c4d66de8","policies(bytes32)":"ddbfd8ef","profiles(address)":"bbe15627","proxiableUUID()":"52d1902d","renounceRole(bytes32,address)":"36568abe","revokeRole(bytes32,address)":"d547741f","setAllowlist(address,bool)":"b12527f8","setPolicy(bytes32,(bool,bool,bool,bool,bool,bool,bool,bool,bool,bool))":"aac507d6","setProfile(address,(bool,bool,uint64,uint64,bytes2,bool))":"4f4d0bae","supportsInterface(bytes4)":"01ffc9a7","upgradeToAndCall(address,bytes)":"4f1ef286"}},"storageLayout":{"storage":[{"astId":8920,"contract":"contracts/compliance/ComplianceRegistryUpgradeable.sol:ComplianceRegistryUpgradeable","label":"policies","offset":0,"slot":"0","type":"t_mapping(t_bytes32,t_struct(Policy)8902_storage)"},{"astId":8925,"contract":"contracts/compliance/ComplianceRegistryUpgradeable.sol:ComplianceRegistryUpgradeable","label":"profiles","offset":0,"slot":"1","type":"t_mapping(t_address,t_struct(Profile)8915_storage)"},{"astId":8929,"contract":"contracts/compliance/ComplianceRegistryUpgradeable.sol:ComplianceRegistryUpgradeable","label":"allowlist","offset":0,"slot":"2","type":"t_mapping(t_address,t_bool)"}],"types":{"t_address":{"encoding":"inplace","label":"address","numberOfBytes":"20"},"t_bool":{"encoding":"inplace","label":"bool","numberOfBytes":"1"},"t_bytes2":{"encoding":"inplace","label":"bytes2","numberOfBytes":"2"},"t_bytes32":{"encoding":"inplace","label":"bytes32","numberOfBytes":"32"},"t_mapping(t_address,t_bool)":{"encoding":"mapping","key":"t_address","label":"mapping(address => bool)","numberOfBytes":"32","value":"t_bool"},"t_mapping(t_address,t_struct(Profile)8915_storage)":{"encoding":"mapping","key":"t_address","label":"mapping(address => struct ComplianceRegistryUpgradeable.Profile)","numberOfBytes":"32","value":"t_struct(Profile)8915_storage"},"t_mapping(t_bytes32,t_struct(Policy)8902_storage)":{"encoding":"mapping","key":"t_bytes32","label":"mapping(bytes32 => struct ComplianceRegistryUpgradeable.Policy)","numberOfBytes":"32","value":"t_struct(Policy)8902_storage"},"t_struct(Policy)8902_storage":{"encoding":"inplace","label":"struct ComplianceRegistryUpgradeable.Policy","members":[{"astId":8883,"contract":"contracts/compliance/ComplianceRegistryUpgradeable.sol:ComplianceRegistryUpgradeable","label":"allowUS","offset":0,"slot":"0","type":"t_bool"},{"astId":8885,"contract":"contracts/compliance/ComplianceRegistryUpgradeable.sol:ComplianceRegistryUpgradeable","label":"allowEU","offset":1,"slot":"0","type":"t_bool"},{"astId":8887,"contract":"contracts/compliance/ComplianceRegistryUpgradeable.sol:ComplianceRegistryUpgradeable","label":"allowSG","offset":2,"slot":"0","type":"t_bool"},{"astId":8889,"contract":"contracts/compliance/ComplianceRegistryUpgradeable.sol:ComplianceRegistryUpgradeable","label":"allowUK","offset":3,"slot":"0","type":"t_bool"},{"astId":8891,"contract":"contracts/compliance/ComplianceRegistryUpgradeable.sol:ComplianceRegistryUpgradeable","label":"regD506c","offset":4,"slot":"0","type":"t_bool"},{"astId":8893,"contract":"contracts/compliance/ComplianceRegistryUpgradeable.sol:ComplianceRegistryUpgradeable","label":"regS","offset":5,"slot":"0","type":"t_bool"},{"astId":8895,"contract":"contracts/compliance/ComplianceRegistryUpgradeable.sol:ComplianceRegistryUpgradeable","label":"micaART","offset":6,"slot":"0","type":"t_bool"},{"astId":8897,"contract":"contracts/compliance/ComplianceRegistryUpgradeable.sol:ComplianceRegistryUpgradeable","label":"micaEMT","offset":7,"slot":"0","type":"t_bool"},{"astId":8899,"contract":"contracts/compliance/ComplianceRegistryUpgradeable.sol:ComplianceRegistryUpgradeable","label":"proOnly","offset":8,"slot":"0","type":"t_bool"},{"astId":8901,"contract":"contracts/compliance/ComplianceRegistryUpgradeable.sol:ComplianceRegistryUpgradeable","label":"travelRuleRequired","offset":9,"slot":"0","type":"t_bool"}],"numberOfBytes":"32"},"t_struct(Profile)8915_storage":{"encoding":"inplace","label":"struct ComplianceRegistryUpgradeable.Profile","members":[{"astId":8904,"contract":"contracts/compliance/ComplianceRegistryUpgradeable.sol:ComplianceRegistryUpgradeable","label":"kyc","offset":0,"slot":"0","type":"t_bool"},{"astId":8906,"contract":"contracts/compliance/ComplianceRegistryUpgradeable.sol:ComplianceRegistryUpgradeable","label":"accredited","offset":1,"slot":"0","type":"t_bool"},{"astId":8908,"contract":"contracts/compliance/ComplianceRegistryUpgradeable.sol:ComplianceRegistryUpgradeable","label":"kycAsOf","offset":2,"slot":"0","type":"t_uint64"},{"astId":8910,"contract":"contracts/compliance/ComplianceRegistryUpgradeable.sol:ComplianceRegistryUpgradeable","label":"kycExpiry","offset":10,"slot":"0","type":"t_uint64"},{"astId":8912,"contract":"contracts/compliance/ComplianceRegistryUpgradeable.sol:ComplianceRegistryUpgradeable","label":"isoCountry","offset":18,"slot":"0","type":"t_bytes2"},{"astId":8914,"contract":"contracts/compliance/ComplianceRegistryUpgradeable.sol:ComplianceRegistryUpgradeable","label":"frozen","offset":20,"slot":"0","type":"t_bool"}],"numberOfBytes":"32"},"t_uint64":{"encoding":"inplace","label":"uint64","numberOfBytes":"8"}}}}}}