{
  "_format": "hh-sol-artifact-1",
  "contractName": "CCTPExternalRail",
  "sourceName": "contracts/settlement/stable/CCTPExternalRail.sol",
  "abi": [
    {
      "inputs": [
        {
          "internalType": "address",
          "name": "_admin",
          "type": "address"
        },
        {
          "internalType": "address",
          "name": "_executor",
          "type": "address"
        },
        {
          "internalType": "uint32",
          "name": "_domain",
          "type": "uint32"
        }
      ],
      "stateMutability": "nonpayable",
      "type": "constructor"
    },
    {
      "anonymous": false,
      "inputs": [
        {
          "indexed": false,
          "internalType": "uint32",
          "name": "domain",
          "type": "uint32"
        }
      ],
      "name": "DomainSet",
      "type": "event"
    },
    {
      "anonymous": false,
      "inputs": [
        {
          "indexed": true,
          "internalType": "address",
          "name": "executor",
          "type": "address"
        }
      ],
      "name": "ExecutorSet",
      "type": "event"
    },
    {
      "anonymous": false,
      "inputs": [
        {
          "indexed": true,
          "internalType": "bytes32",
          "name": "id",
          "type": "bytes32"
        }
      ],
      "name": "RailCancelled",
      "type": "event"
    },
    {
      "anonymous": false,
      "inputs": [
        {
          "indexed": true,
          "internalType": "bytes32",
          "name": "id",
          "type": "bytes32"
        },
        {
          "indexed": true,
          "internalType": "address",
          "name": "from",
          "type": "address"
        },
        {
          "indexed": true,
          "internalType": "address",
          "name": "to",
          "type": "address"
        },
        {
          "indexed": false,
          "internalType": "address",
          "name": "asset",
          "type": "address"
        },
        {
          "indexed": false,
          "internalType": "uint256",
          "name": "amount",
          "type": "uint256"
        }
      ],
      "name": "RailPrepared",
      "type": "event"
    },
    {
      "anonymous": false,
      "inputs": [
        {
          "indexed": true,
          "internalType": "bytes32",
          "name": "id",
          "type": "bytes32"
        },
        {
          "indexed": true,
          "internalType": "address",
          "name": "to",
          "type": "address"
        },
        {
          "indexed": false,
          "internalType": "address",
          "name": "asset",
          "type": "address"
        },
        {
          "indexed": false,
          "internalType": "uint256",
          "name": "amount",
          "type": "uint256"
        }
      ],
      "name": "RailRefunded",
      "type": "event"
    },
    {
      "anonymous": false,
      "inputs": [
        {
          "indexed": true,
          "internalType": "bytes32",
          "name": "id",
          "type": "bytes32"
        },
        {
          "indexed": true,
          "internalType": "address",
          "name": "to",
          "type": "address"
        },
        {
          "indexed": false,
          "internalType": "address",
          "name": "asset",
          "type": "address"
        },
        {
          "indexed": false,
          "internalType": "uint256",
          "name": "amount",
          "type": "uint256"
        }
      ],
      "name": "RailReleased",
      "type": "event"
    },
    {
      "inputs": [],
      "name": "admin",
      "outputs": [
        {
          "internalType": "address",
          "name": "",
          "type": "address"
        }
      ],
      "stateMutability": "view",
      "type": "function"
    },
    {
      "inputs": [],
      "name": "domain",
      "outputs": [
        {
          "internalType": "uint32",
          "name": "",
          "type": "uint32"
        }
      ],
      "stateMutability": "view",
      "type": "function"
    },
    {
      "inputs": [],
      "name": "executor",
      "outputs": [
        {
          "internalType": "address",
          "name": "",
          "type": "address"
        }
      ],
      "stateMutability": "view",
      "type": "function"
    },
    {
      "inputs": [],
      "name": "kind",
      "outputs": [
        {
          "internalType": "enum IRail.Kind",
          "name": "",
          "type": "uint8"
        }
      ],
      "stateMutability": "pure",
      "type": "function"
    },
    {
      "inputs": [
        {
          "internalType": "bytes32",
          "name": "id",
          "type": "bytes32"
        },
        {
          "components": [
            {
              "internalType": "address",
              "name": "asset",
              "type": "address"
            },
            {
              "internalType": "address",
              "name": "from",
              "type": "address"
            },
            {
              "internalType": "address",
              "name": "to",
              "type": "address"
            },
            {
              "internalType": "uint256",
              "name": "amount",
              "type": "uint256"
            },
            {
              "internalType": "bytes",
              "name": "metadata",
              "type": "bytes"
            }
          ],
          "internalType": "struct IRail.Transfer",
          "name": "t",
          "type": "tuple"
        }
      ],
      "name": "markRefunded",
      "outputs": [],
      "stateMutability": "nonpayable",
      "type": "function"
    },
    {
      "inputs": [
        {
          "internalType": "bytes32",
          "name": "id",
          "type": "bytes32"
        },
        {
          "components": [
            {
              "internalType": "address",
              "name": "asset",
              "type": "address"
            },
            {
              "internalType": "address",
              "name": "from",
              "type": "address"
            },
            {
              "internalType": "address",
              "name": "to",
              "type": "address"
            },
            {
              "internalType": "uint256",
              "name": "amount",
              "type": "uint256"
            },
            {
              "internalType": "bytes",
              "name": "metadata",
              "type": "bytes"
            }
          ],
          "internalType": "struct IRail.Transfer",
          "name": "t",
          "type": "tuple"
        }
      ],
      "name": "markReleased",
      "outputs": [],
      "stateMutability": "nonpayable",
      "type": "function"
    },
    {
      "inputs": [
        {
          "components": [
            {
              "internalType": "address",
              "name": "asset",
              "type": "address"
            },
            {
              "internalType": "address",
              "name": "from",
              "type": "address"
            },
            {
              "internalType": "address",
              "name": "to",
              "type": "address"
            },
            {
              "internalType": "uint256",
              "name": "amount",
              "type": "uint256"
            },
            {
              "internalType": "bytes",
              "name": "metadata",
              "type": "bytes"
            }
          ],
          "internalType": "struct IRail.Transfer",
          "name": "t",
          "type": "tuple"
        }
      ],
      "name": "prepare",
      "outputs": [],
      "stateMutability": "payable",
      "type": "function"
    },
    {
      "inputs": [
        {
          "internalType": "bytes32",
          "name": "",
          "type": "bytes32"
        },
        {
          "components": [
            {
              "internalType": "address",
              "name": "asset",
              "type": "address"
            },
            {
              "internalType": "address",
              "name": "from",
              "type": "address"
            },
            {
              "internalType": "address",
              "name": "to",
              "type": "address"
            },
            {
              "internalType": "uint256",
              "name": "amount",
              "type": "uint256"
            },
            {
              "internalType": "bytes",
              "name": "metadata",
              "type": "bytes"
            }
          ],
          "internalType": "struct IRail.Transfer",
          "name": "",
          "type": "tuple"
        }
      ],
      "name": "refund",
      "outputs": [],
      "stateMutability": "nonpayable",
      "type": "function"
    },
    {
      "inputs": [
        {
          "internalType": "bytes32",
          "name": "",
          "type": "bytes32"
        },
        {
          "components": [
            {
              "internalType": "address",
              "name": "asset",
              "type": "address"
            },
            {
              "internalType": "address",
              "name": "from",
              "type": "address"
            },
            {
              "internalType": "address",
              "name": "to",
              "type": "address"
            },
            {
              "internalType": "uint256",
              "name": "amount",
              "type": "uint256"
            },
            {
              "internalType": "bytes",
              "name": "metadata",
              "type": "bytes"
            }
          ],
          "internalType": "struct IRail.Transfer",
          "name": "",
          "type": "tuple"
        }
      ],
      "name": "release",
      "outputs": [],
      "stateMutability": "nonpayable",
      "type": "function"
    },
    {
      "inputs": [
        {
          "internalType": "uint32",
          "name": "d",
          "type": "uint32"
        }
      ],
      "name": "setDomain",
      "outputs": [],
      "stateMutability": "nonpayable",
      "type": "function"
    },
    {
      "inputs": [
        {
          "internalType": "address",
          "name": "e",
          "type": "address"
        }
      ],
      "name": "setExecutor",
      "outputs": [],
      "stateMutability": "nonpayable",
      "type": "function"
    },
    {
      "inputs": [
        {
          "internalType": "bytes32",
          "name": "id",
          "type": "bytes32"
        }
      ],
      "name": "status",
      "outputs": [
        {
          "internalType": "enum IRail.Status",
          "name": "",
          "type": "uint8"
        }
      ],
      "stateMutability": "view",
      "type": "function"
    },
    {
      "inputs": [
        {
          "components": [
            {
              "internalType": "address",
              "name": "asset",
              "type": "address"
            },
            {
              "internalType": "address",
              "name": "from",
              "type": "address"
            },
            {
              "internalType": "address",
              "name": "to",
              "type": "address"
            },
            {
              "internalType": "uint256",
              "name": "amount",
              "type": "uint256"
            },
            {
              "internalType": "bytes",
              "name": "metadata",
              "type": "bytes"
            }
          ],
          "internalType": "struct IRail.Transfer",
          "name": "t",
          "type": "tuple"
        }
      ],
      "name": "transferId",
      "outputs": [
        {
          "internalType": "bytes32",
          "name": "",
          "type": "bytes32"
        }
      ],
      "stateMutability": "pure",
      "type": "function"
    }
  ],
  "bytecode": "0x60803461010157601f6109f438819003918201601f19168301916001600160401b0383118484101761010657808492606094604052833981010312610101576100478161011c565b60406100556020840161011c565b9201519063ffffffff82168203610101576001600160a01b03908116801515806100f6575b156100c757600080546001600160a01b031916919091179055600180546001600160c01b031916919093161760a09190911b63ffffffff60a01b161790556040516108c390816101318239f35b60405162461bcd60e51b81526020600482015260076024820152660434354503a20360cc1b6044820152606490fd5b50818416151561007a565b600080fd5b634e487b7160e01b600052604160045260246000fd5b51906001600160a01b03821682036101015756fe608060408181526004918236101561001657600080fd5b600092833560e01c91826304baa00b146106175750816307c150e71461058357816308432d57146104775781631c3c0ea8146103cf5781634dd6e2b5146103ad57816352ad0d5e1461036357816359b6b1031461028457816390ee1dfa14610225578163bf8d22341461019a578163c2fb26a614610172578163c34c08e51461014a578163cfcb5b1b146100dc575063f851a440146100b457600080fd5b346100d857816003193601126100d8576001600160a01b0360209254169051908152f35b5080fd5b91905034610146576020906101096001600160a01b036064956100fe36610632565b50505416331461074b565b5162461bcd60e51b815291820152601660248201527f434354503a20757365206d61726b526566756e646564000000000000000000006044820152fd5b8280fd5b5050346100d857816003193601126100d8576020906001600160a01b03600154169051908152f35b5050346100d857816003193601126100d85760209063ffffffff60015460a01c169051908152f35b905034610146576020366003190112610146573563ffffffff8116808203610221577fc7be9211ec952c9e28c7dcfa4006637b033650e4b706a83f53aab6e4f18f5d41926020926101f66001600160a01b03875416331461074b565b6001805463ffffffff60a01b191660a09290921b63ffffffff60a01b1691909117905551908152a180f35b8380fd5b91905034610146576020906102476001600160a01b036064956100fe36610632565b5162461bcd60e51b815291820152601660248201527f434354503a20757365206d61726b52656c6561736564000000000000000000006044820152fd5b8383346100d85761029436610632565b916001600160a01b03906102ad8260015416331461069f565b828552600260205260ff8186205416600581101561035057906102f460017f368c9a8588242d513faa21c32bf5aaee15ee1150a43690313e009727607c71d39493146106eb565b8386526002602052808620600360ff1982541617905561034a61031960208701610737565b91606061032588610737565b91516001600160a01b0390921682529096013560208701529116939081906040820190565b0390a380f35b634e487b7160e01b865260218752602486fd5b8383346100d85760203660031901126100d85782358252600260205260ff8183205416905191600582101561039a57602083838152f35b634e487b7160e01b815260218452602490fd5b5050346100d8576020906103c86103c33661066d565b610797565b9051908152f35b905034610146576020366003190112610146578035916001600160a01b038084168094036104735761040590855416331461074b565b8215610446575050806001600160a01b031960015416176001557f3e3c5e6d5b512eaa5d5a80669846cfbaf8bde70fc6f7a3be9828cffc9ba5f1db8280a280f35b906020606492519162461bcd60e51b835282015260076024820152660434354503a20360cc1b6044820152fd5b8480fd5b90506104823661066d565b9061048c82610797565b90818552600260205260ff848620541660058110156105705761053e57508084526002602052828420600160ff198254161790557f10876f5ef21c4a7c28973a179a5d95ec8815150f2fbf9c39ba9c73132d2589da6104ed60208401610737565b936104f9818501610737565b61053861050586610737565b60606001600160a01b038095519586951699169701359083602090939291936001600160a01b0360408201951681520152565b0390a480f35b606490602085519162461bcd60e51b8352820152600c60248201526b434354503a2065786973747360a01b6044820152fd5b634e487b7160e01b865260218252602486fd5b8383346100d85761059336610632565b916001600160a01b03906105ac8260015416331461069f565b828552600260205260ff8186205416600581101561035057906105f360017fd246ccc6c6f9471c400e2ef416699d6cef45c429f224da93084d39b3f807286b9493146106eb565b8386526002602052808620600260ff1982541617905561034a610319828701610737565b8490346100d857816003193601126100d85780600260209252f35b9060031960408184011261066857600435926024359167ffffffffffffffff8311610668578260a0920301126106685760040190565b600080fd5b60031990602081830112610668576004359167ffffffffffffffff8311610668578260a0920301126106685760040190565b156106a657565b60405162461bcd60e51b815260206004820152600e60248201527f434354503a206e6f7420657865630000000000000000000000000000000000006044820152606490fd5b156106f257565b60405162461bcd60e51b815260206004820152600f60248201527f434354503a2062616420737461746500000000000000000000000000000000006044820152606490fd5b356001600160a01b03811681036106685790565b1561075257565b60405162461bcd60e51b815260206004820152600f60248201527f434354503a206e6f742061646d696e00000000000000000000000000000000006044820152606490fd5b6107a360208201610737565b906107b060408201610737565b6080820135601e19833603018112156106685782019081359067ffffffffffffffff928383116106685760200190823603821361066857606094601f93600061013f94604051988994602086019b60a08d52600460c0880152630434354560e41b60e0880152610100976001600160a01b03809216604089015216828701520135608085015260e060a08501528285850152826101209182860137838301015284019319938416810103908101855201168201908111828210176108775760405251902090565b634e487b7160e01b600052604160045260246000fdfea2646970667358221220f646c5799fe26b02fe68ce96d5571c4b63fa28affcb51d940eadfadc0808b46b64736f6c63430008180033",
  "linkReferences": {},
  "deployedLinkReferences": {}
}