{"abi":[{"type":"constructor","inputs":[{"name":"admin","type":"address","internalType":"address"}],"stateMutability":"nonpayable"},{"type":"function","name":"DEFAULT_ADMIN_ROLE","inputs":[],"outputs":[{"name":"","type":"bytes32","internalType":"bytes32"}],"stateMutability":"view"},{"type":"function","name":"approve","inputs":[{"name":"to","type":"address","internalType":"address"},{"name":"tokenId","type":"uint256","internalType":"uint256"}],"outputs":[],"stateMutability":"nonpayable"},{"type":"function","name":"balanceOf","inputs":[{"name":"owner","type":"address","internalType":"address"}],"outputs":[{"name":"","type":"uint256","internalType":"uint256"}],"stateMutability":"view"},{"type":"function","name":"bonds","inputs":[{"name":"","type":"uint256","internalType":"uint256"}],"outputs":[{"name":"principal","type":"address","internalType":"address"},{"name":"obligee","type":"address","internalType":"address"},{"name":"penalSum","type":"uint256","internalType":"uint256"},{"name":"issueDate","type":"uint64","internalType":"uint64"},{"name":"expiry","type":"uint64","internalType":"uint64"},{"name":"active","type":"bool","internalType":"bool"}],"stateMutability":"view"},{"type":"function","name":"claims","inputs":[{"name":"","type":"uint256","internalType":"uint256"},{"name":"","type":"uint256","internalType":"uint256"}],"outputs":[{"name":"amount","type":"uint256","internalType":"uint256"},{"name":"filedAt","type":"uint64","internalType":"uint64"},{"name":"evidence","type":"string","internalType":"string"},{"name":"status","type":"uint8","internalType":"enum SuretyBondNFT.ClaimStatus"}],"stateMutability":"view"},{"type":"function","name":"fileClaim","inputs":[{"name":"tokenId","type":"uint256","internalType":"uint256"},{"name":"amount","type":"uint256","internalType":"uint256"},{"name":"evidence","type":"string","internalType":"string"}],"outputs":[],"stateMutability":"nonpayable"},{"type":"function","name":"getApproved","inputs":[{"name":"tokenId","type":"uint256","internalType":"uint256"}],"outputs":[{"name":"","type":"address","internalType":"address"}],"stateMutability":"view"},{"type":"function","name":"getRoleAdmin","inputs":[{"name":"role","type":"bytes32","internalType":"bytes32"}],"outputs":[{"name":"","type":"bytes32","internalType":"bytes32"}],"stateMutability":"view"},{"type":"function","name":"grantRole","inputs":[{"name":"role","type":"bytes32","internalType":"bytes32"},{"name":"account","type":"address","internalType":"address"}],"outputs":[],"stateMutability":"nonpayable"},{"type":"function","name":"hasRole","inputs":[{"name":"role","type":"bytes32","internalType":"bytes32"},{"name":"account","type":"address","internalType":"address"}],"outputs":[{"name":"","type":"bool","internalType":"bool"}],"stateMutability":"view"},{"type":"function","name":"isApprovedForAll","inputs":[{"name":"owner","type":"address","internalType":"address"},{"name":"operator","type":"address","internalType":"address"}],"outputs":[{"name":"","type":"bool","internalType":"bool"}],"stateMutability":"view"},{"type":"function","name":"issue","inputs":[{"name":"principal","type":"address","internalType":"address"},{"name":"obligee","type":"address","internalType":"address"},{"name":"penalSum","type":"uint256","internalType":"uint256"},{"name":"issueDate","type":"uint64","internalType":"uint64"},{"name":"expiry","type":"uint64","internalType":"uint64"}],"outputs":[{"name":"tokenId","type":"uint256","internalType":"uint256"}],"stateMutability":"nonpayable"},{"type":"function","name":"name","inputs":[],"outputs":[{"name":"","type":"string","internalType":"string"}],"stateMutability":"view"},{"type":"function","name":"ownerOf","inputs":[{"name":"tokenId","type":"uint256","internalType":"uint256"}],"outputs":[{"name":"","type":"address","internalType":"address"}],"stateMutability":"view"},{"type":"function","name":"pause","inputs":[],"outputs":[],"stateMutability":"nonpayable"},{"type":"function","name":"paused","inputs":[],"outputs":[{"name":"","type":"bool","internalType":"bool"}],"stateMutability":"view"},{"type":"function","name":"renounceRole","inputs":[{"name":"role","type":"bytes32","internalType":"bytes32"},{"name":"callerConfirmation","type":"address","internalType":"address"}],"outputs":[],"stateMutability":"nonpayable"},{"type":"function","name":"revokeRole","inputs":[{"name":"role","type":"bytes32","internalType":"bytes32"},{"name":"account","type":"address","internalType":"address"}],"outputs":[],"stateMutability":"nonpayable"},{"type":"function","name":"safeTransferFrom","inputs":[{"name":"from","type":"address","internalType":"address"},{"name":"to","type":"address","internalType":"address"},{"name":"tokenId","type":"uint256","internalType":"uint256"}],"outputs":[],"stateMutability":"nonpayable"},{"type":"function","name":"safeTransferFrom","inputs":[{"name":"from","type":"address","internalType":"address"},{"name":"to","type":"address","internalType":"address"},{"name":"tokenId","type":"uint256","internalType":"uint256"},{"name":"data","type":"bytes","internalType":"bytes"}],"outputs":[],"stateMutability":"nonpayable"},{"type":"function","name":"setApprovalForAll","inputs":[{"name":"operator","type":"address","internalType":"address"},{"name":"approved","type":"bool","internalType":"bool"}],"outputs":[],"stateMutability":"nonpayable"},{"type":"function","name":"setBondStatus","inputs":[{"name":"tokenId","type":"uint256","internalType":"uint256"},{"name":"active","type":"bool","internalType":"bool"}],"outputs":[],"stateMutability":"nonpayable"},{"type":"function","name":"setClaimStatus","inputs":[{"name":"tokenId","type":"uint256","internalType":"uint256"},{"name":"claimIdx","type":"uint256","internalType":"uint256"},{"name":"status","type":"uint8","internalType":"enum SuretyBondNFT.ClaimStatus"}],"outputs":[],"stateMutability":"nonpayable"},{"type":"function","name":"supportsInterface","inputs":[{"name":"interfaceId","type":"bytes4","internalType":"bytes4"}],"outputs":[{"name":"","type":"bool","internalType":"bool"}],"stateMutability":"view"},{"type":"function","name":"symbol","inputs":[],"outputs":[{"name":"","type":"string","internalType":"string"}],"stateMutability":"view"},{"type":"function","name":"tokenURI","inputs":[{"name":"tokenId","type":"uint256","internalType":"uint256"}],"outputs":[{"name":"","type":"string","internalType":"string"}],"stateMutability":"view"},{"type":"function","name":"transferFrom","inputs":[{"name":"from","type":"address","internalType":"address"},{"name":"to","type":"address","internalType":"address"},{"name":"tokenId","type":"uint256","internalType":"uint256"}],"outputs":[],"stateMutability":"nonpayable"},{"type":"function","name":"unpause","inputs":[],"outputs":[],"stateMutability":"nonpayable"},{"type":"event","name":"Approval","inputs":[{"name":"owner","type":"address","indexed":true,"internalType":"address"},{"name":"approved","type":"address","indexed":true,"internalType":"address"},{"name":"tokenId","type":"uint256","indexed":true,"internalType":"uint256"}],"anonymous":false},{"type":"event","name":"ApprovalForAll","inputs":[{"name":"owner","type":"address","indexed":true,"internalType":"address"},{"name":"operator","type":"address","indexed":true,"internalType":"address"},{"name":"approved","type":"bool","indexed":false,"internalType":"bool"}],"anonymous":false},{"type":"event","name":"BondIssued","inputs":[{"name":"tokenId","type":"uint256","indexed":true,"internalType":"uint256"},{"name":"principal","type":"address","indexed":false,"internalType":"address"},{"name":"obligee","type":"address","indexed":false,"internalType":"address"},{"name":"penalSum","type":"uint256","indexed":false,"internalType":"uint256"}],"anonymous":false},{"type":"event","name":"BondStatusChanged","inputs":[{"name":"tokenId","type":"uint256","indexed":true,"internalType":"uint256"},{"name":"active","type":"bool","indexed":false,"internalType":"bool"}],"anonymous":false},{"type":"event","name":"ClaimFiled","inputs":[{"name":"tokenId","type":"uint256","indexed":true,"internalType":"uint256"},{"name":"claimIdx","type":"uint256","indexed":false,"internalType":"uint256"},{"name":"amount","type":"uint256","indexed":false,"internalType":"uint256"}],"anonymous":false},{"type":"event","name":"ClaimStatusChanged","inputs":[{"name":"tokenId","type":"uint256","indexed":true,"internalType":"uint256"},{"name":"claimIdx","type":"uint256","indexed":false,"internalType":"uint256"},{"name":"status","type":"uint8","indexed":false,"internalType":"enum SuretyBondNFT.ClaimStatus"}],"anonymous":false},{"type":"event","name":"Paused","inputs":[{"name":"account","type":"address","indexed":false,"internalType":"address"}],"anonymous":false},{"type":"event","name":"RoleAdminChanged","inputs":[{"name":"role","type":"bytes32","indexed":true,"internalType":"bytes32"},{"name":"previousAdminRole","type":"bytes32","indexed":true,"internalType":"bytes32"},{"name":"newAdminRole","type":"bytes32","indexed":true,"internalType":"bytes32"}],"anonymous":false},{"type":"event","name":"RoleGranted","inputs":[{"name":"role","type":"bytes32","indexed":true,"internalType":"bytes32"},{"name":"account","type":"address","indexed":true,"internalType":"address"},{"name":"sender","type":"address","indexed":true,"internalType":"address"}],"anonymous":false},{"type":"event","name":"RoleRevoked","inputs":[{"name":"role","type":"bytes32","indexed":true,"internalType":"bytes32"},{"name":"account","type":"address","indexed":true,"internalType":"address"},{"name":"sender","type":"address","indexed":true,"internalType":"address"}],"anonymous":false},{"type":"event","name":"Transfer","inputs":[{"name":"from","type":"address","indexed":true,"internalType":"address"},{"name":"to","type":"address","indexed":true,"internalType":"address"},{"name":"tokenId","type":"uint256","indexed":true,"internalType":"uint256"}],"anonymous":false},{"type":"event","name":"Unpaused","inputs":[{"name":"account","type":"address","indexed":false,"internalType":"address"}],"anonymous":false},{"type":"error","name":"AccessControlBadConfirmation","inputs":[]},{"type":"error","name":"AccessControlUnauthorizedAccount","inputs":[{"name":"account","type":"address","internalType":"address"},{"name":"neededRole","type":"bytes32","internalType":"bytes32"}]},{"type":"error","name":"ERC721IncorrectOwner","inputs":[{"name":"sender","type":"address","internalType":"address"},{"name":"tokenId","type":"uint256","internalType":"uint256"},{"name":"owner","type":"address","internalType":"address"}]},{"type":"error","name":"ERC721InsufficientApproval","inputs":[{"name":"operator","type":"address","internalType":"address"},{"name":"tokenId","type":"uint256","internalType":"uint256"}]},{"type":"error","name":"ERC721InvalidApprover","inputs":[{"name":"approver","type":"address","internalType":"address"}]},{"type":"error","name":"ERC721InvalidOperator","inputs":[{"name":"operator","type":"address","internalType":"address"}]},{"type":"error","name":"ERC721InvalidOwner","inputs":[{"name":"owner","type":"address","internalType":"address"}]},{"type":"error","name":"ERC721InvalidReceiver","inputs":[{"name":"receiver","type":"address","internalType":"address"}]},{"type":"error","name":"ERC721InvalidSender","inputs":[{"name":"sender","type":"address","internalType":"address"}]},{"type":"error","name":"ERC721NonexistentToken","inputs":[{"name":"tokenId","type":"uint256","internalType":"uint256"}]},{"type":"error","name":"EnforcedPause","inputs":[]},{"type":"error","name":"ExpectedPause","inputs":[]}],"bytecode":{"object":"0x6080346200037757601f1990601f906001600160401b0362002ea83881900384810186168401838111858210176200036157849282916040528339602093849181010312620003775751926001600160a01b03841684036200037757620000656200037c565b92600b84526a14dd5c995d1e48109bdb9960aa1b81850152620000876200037c565b90600682526553555245545960d01b8183015284519684881162000361576000978854966001978881811c9116801562000356575b858210146200034257908187849311620002ef575b5084908783116001146200028e578b9262000282575b5050600019600383901b1c191690871b1788555b82519485116200026e5785548681811c9116801562000263575b838210146200024f5784811162000207575b50819385116001146200019e57505090829162000181969262000192575b5050600019600383901b1c191690821b1790555b60ff19600754166007556200016e816200039c565b506200017a816200043f565b50620004dd565b5060405161290c90816200057c8239f35b01519050388062000145565b8588528188209497908816915b828210620001ef575050918493918762000181989410620001d5575b505050811b01905562000159565b015160001960f88460031b161c19169055388080620001c7565b808786978294978701518155019601940190620001ab565b8689528289208580880160051c82019285891062000245575b0160051c019087905b8281106200023957505062000127565b8a815501879062000229565b9250819262000220565b634e487b7160e01b89526022600452602489fd5b90607f169062000115565b634e487b7160e01b88526041600452602488fd5b015190503880620000e7565b90848a9416918c8052868d20928d5b88828210620002d85750508411620002be575b505050811b018855620000fb565b015160001960f88460031b161c19169055388080620002b0565b8385015186558d979095019493840193016200029d565b9091508a8052848b208780850160051c82019287861062000338575b918b91869594930160051c01915b82811062000329575050620000d1565b8d81558594508b910162000319565b925081926200030b565b634e487b7160e01b8b52602260045260248bfd5b90607f1690620000bc565b634e487b7160e01b600052604160045260246000fd5b600080fd5b60408051919082016001600160401b038111838210176200036157604052565b6001600160a01b031660008181527f31f4bc5980931cfff8fcc0887a354f492c853dee1983bdef4d9cb3e8a5ff876e60205260408120549091907fdf8b4c520ffe197c5343c6f5aec59570151ef9a492f2c624fd45ddde6135ec429060ff166200043a5780835260066020526040832082845260205260408320600160ff1982541617905560008051602062002e88833981519152339380a4600190565b505090565b6001600160a01b031660008181527fc0c6dd4f7aedf943ac46b952a0594f795b891c30544bfc4cb4ae23b82a4d909b60205260408120549091907f76afa8a5929fef1b4c03674b2152ae5aaad1d974b8a4021c59477bcc846ccc1e9060ff166200043a5780835260066020526040832082845260205260408320600160ff1982541617905560008051602062002e88833981519152339380a4600190565b6001600160a01b031660008181527fba39d2e119d4075e56dadcfd5cd5b862305d2c4d32649e4866948958647d49cf60205260408120549091907f8b5b16d04624687fcf0d0228f19993c9157c1ed07b41d8d430fd9100eb099fe89060ff166200043a5780835260066020526040832082845260205260408320600160ff1982541617905560008051602062002e88833981519152339380a460019056fe608080604052600436101561001357600080fd5b60003560e01c90816301ffc9a714611dcc5750806306fdde0314611d03578063081812fc14611c99578063095ea7b314611b3b57806311b91d2414611a7b57806323b872dd14611a64578063248a9ca314611a175780632f2ff15d146119ba57806336568abe146119305780633f4ba83a1461187257806342842e0e146118445780635c975abb146118035780635f1c17c01461175b57806361b3381f14610f7d5780636352211e14610f2357806370a0823114610e875780638456cb5914610df1578063910291e714610c7f57806391d1485414610c0657806395d89b4114610ae7578063a217fddf14610aad578063a22cb465146109a8578063a3a5dcf614610494578063b88d4fde1461040b578063c87b56dd1461039a578063d547741f1461033b578063e985e9c5146102b95763f894160e1461015357600080fd5b346102b45760407ffffffffffffffffffffffffffffffffffffffffffffffffffffffffffffffffc3601126102b457602435600435600052602090600a825260406000209081548110156102b4576101aa916120cd565b50805490600167ffffffffffffffff60018301541691600281019185604051936000928154916101d983612118565b8088529260018116908115610275575060011461023c575b505050509160ff600361022d9361020d8461023897038561201b565b015416936040519687968752860152608060408601526080850190611eec565b91606084019061216b565b0390f35b6000908152838120939450925b828410610262575050508301018560038361020d6101f1565b8054878501860152928401928101610249565b7fffffffffffffffffffffffffffffffffffffffffffffffffffffffffffffff001685890152505050151560051b84010190508560038361020d6101f1565b600080fd5b346102b45760407ffffffffffffffffffffffffffffffffffffffffffffffffffffffffffffffffc3601126102b4576102f0611f4a565b6102f8611f6d565b9073ffffffffffffffffffffffffffffffffffffffff809116600052600560205260406000209116600052602052602060ff604060002054166040519015158152f35b346102b45760407ffffffffffffffffffffffffffffffffffffffffffffffffffffffffffffffffc3601126102b457610398600435610378611f6d565b9080600052600660205261039360016040600020015461255e565b612630565b005b346102b45760207ffffffffffffffffffffffffffffffffffffffffffffffffffffffffffffffffc3601126102b4576103d4600435612445565b5060006040516103e381611fff565b526102386040516103f381611fff565b60008152604051918291602083526020830190611eec565b346102b45760807ffffffffffffffffffffffffffffffffffffffffffffffffffffffffffffffffc3601126102b457610442611f4a565b61044a611f6d565b906044356064359267ffffffffffffffff84116102b457366023850112156102b457610483610398943690602481600401359101612096565b9261048f838383612178565b612709565b346102b45760607ffffffffffffffffffffffffffffffffffffffffffffffffffffffffffffffffc3601126102b457600435602480356044359167ffffffffffffffff908184116102b457366023850112156102b4578360040135938285116102b457368286830101116102b45761050a6126d3565b856000526020926009845260406000209560019673ffffffffffffffffffffffffffffffffffffffff8882015416330361094b5782600382015461055360ff8260801c166123a9565b60401c1642116108ee576002015486116108915787600052600a855260406000209182549760405194608086018681108482111761086357906105a89160405289875288870194844216865288369201612096565b92604086019384526060860194828652680100000000000000008b1015610863578a6105d89184820181556120cd565b96909661083557518655828287019151167fffffffffffffffffffffffffffffffffffffffffffffffff00000000000000008254161790556002850192518051928311610807576106298454612118565b601f81116107be575b508790601f841160011461071d576000918491826106f2575b50507fffffffffffffffffffffffffffffffffffffffffffffffffffffffffffffffff91921b9260031b1c19161790555b519160058310156106c55750916106ba6040949260037e16b36dc742e36d40c93764b5d2448ab23f153dbfde9a2e22261968924f511e97950161240e565b8351928352820152a2005b7f4e487b710000000000000000000000000000000000000000000000000000000060005260216004526000fd5b015191507fffffffffffffffffffffffffffffffffffffffffffffffffffffffffffffffff8d61064b565b907fffffffffffffffffffffffffffffffffffffffffffffffffffffffffffffffe0849394169185600052838a6000209360005b8c888383106107a75750505010610770575b505050811b01905561067c565b01517fffffffffffffffffffffffffffffffffffffffffffffffffffffffffffffffff60f88460031b161c191690558a8080610763565b868601518855909601959485019487935001610751565b8460005288600020601f850160051c8101918a86106107fd575b601f0160051c019083905b8281106107f1575050610632565b600081550183906107e3565b90915081906107d8565b867f4e487b710000000000000000000000000000000000000000000000000000000060005260416004526000fd5b877f4e487b710000000000000000000000000000000000000000000000000000000060005260006004526000fd5b877f4e487b710000000000000000000000000000000000000000000000000000000060005260416004526000fd5b606485601186604051927f08c379a000000000000000000000000000000000000000000000000000000000845260048401528201527f657863656564732070656e616c2073756d0000000000000000000000000000006044820152fd5b606486600787604051927f08c379a000000000000000000000000000000000000000000000000000000000845260048401528201527f65787069726564000000000000000000000000000000000000000000000000006044820152fd5b606486600b87604051927f08c379a000000000000000000000000000000000000000000000000000000000845260048401528201527f6e6f74206f626c696765650000000000000000000000000000000000000000006044820152fd5b346102b45760407ffffffffffffffffffffffffffffffffffffffffffffffffffffffffffffffffc3601126102b4576109df611f4a565b73ffffffffffffffffffffffffffffffffffffffff6109fc611f90565b9116908115610a7c573360005260056020526040600020826000526020526040600020901515907fffffffffffffffffffffffffffffffffffffffffffffffffffffffffffffff0081541660ff83161790556040519081527f17307eab39ab6107e8899845ad3d59bd9653f200f220920489ca2b5937696c3160203392a3005b602482604051907f5b08ba180000000000000000000000000000000000000000000000000000000082526004820152fd5b346102b45760007ffffffffffffffffffffffffffffffffffffffffffffffffffffffffffffffffc3601126102b457602060405160008152f35b346102b45760007ffffffffffffffffffffffffffffffffffffffffffffffffffffffffffffffffc3601126102b457604051600060018260015492610b2b84612118565b9283835260209485600182169182600014610bc8575050600114610b6b575b50610b579250038361201b565b610238604051928284938452830190611eec565b84915060016000527fb10e2d527612073b26eecdfd717e6a320cf44b4afac2b0732d9fcbe2b7fa0cf6906000915b858310610bb0575050610b57935082010185610b4a565b80548389018501528794508693909201918101610b99565b7fffffffffffffffffffffffffffffffffffffffffffffffffffffffffffffff001685820152610b5795151560051b8501019250879150610b4a9050565b346102b45760407ffffffffffffffffffffffffffffffffffffffffffffffffffffffffffffffffc3601126102b457610c3d611f6d565b600435600052600660205273ffffffffffffffffffffffffffffffffffffffff60406000209116600052602052602060ff604060002054166040519015158152f35b346102b45760607ffffffffffffffffffffffffffffffffffffffffffffffffffffffffffffffffc3601126102b45760043560243560443560058110156102b457610cc86124a6565b610cd06126d3565b826000526009602052610cf060ff60036040600020015460801c166123a9565b82600052600a6020526003610d098360406000206120cd565b50019160ff8354166005811015610dc257600103610d6457610d6182610d526040947fabb642d862da81928d52f6af51c57ac89a0e964c3b401beb18e7cd2ee2ee801c9661240e565b8351928352602083019061216b565ba2005b60646040517f08c379a000000000000000000000000000000000000000000000000000000000815260206004820152600960248201527f6e6f742066696c656400000000000000000000000000000000000000000000006044820152fd5b7f4e487b7100000000000000000000000000000000000000000000000000000000600052602160045260246000fd5b346102b45760007ffffffffffffffffffffffffffffffffffffffffffffffffffffffffffffffffc3601126102b457610e28612502565b610e306126d3565b60017fffffffffffffffffffffffffffffffffffffffffffffffffffffffffffffff0060075416176007557f62e78cea01bee320cd4e420270b5ea74000d11b0c9f74754ebdbfc544b05a2586020604051338152a1005b346102b45760207ffffffffffffffffffffffffffffffffffffffffffffffffffffffffffffffffc3601126102b45773ffffffffffffffffffffffffffffffffffffffff610ed3611f4a565b168015610ef25760005260036020526020604060002054604051908152f35b60246040517f89c62b6400000000000000000000000000000000000000000000000000000000815260006004820152fd5b346102b45760207ffffffffffffffffffffffffffffffffffffffffffffffffffffffffffffffffc3601126102b4576020610f5f600435612445565b73ffffffffffffffffffffffffffffffffffffffff60405191168152f35b346102b45760a07ffffffffffffffffffffffffffffffffffffffffffffffffffffffffffffffffc3601126102b457610fb4611f4a565b610fbc611f6d565b6064359067ffffffffffffffff821682036102b4576084359167ffffffffffffffff831683036102b4573360009081527fc0c6dd4f7aedf943ac46b952a0594f795b891c30544bfc4cb4ae23b82a4d909b60205260409020547f76afa8a5929fef1b4c03674b2152ae5aaad1d974b8a4021c59477bcc846ccc1e9060ff161561172457506110486126d3565b67ffffffffffffffff831667ffffffffffffffff821610156116c657600854927fffffffffffffffffffffffffffffffffffffffffffffffffffffffffffffffff841461169757600184016008556040519160c083019183831067ffffffffffffffff841117611668576112389260405273ffffffffffffffffffffffffffffffffffffffff8716845273ffffffffffffffffffffffffffffffffffffffff851660208501526040840190604435825267ffffffffffffffff606086019316835267ffffffffffffffff608086019116815267ffffffffffffffff600360a08701936001855260018a01600052600960205260406000209073ffffffffffffffffffffffffffffffffffffffff895116987fffffffffffffffffffffffff0000000000000000000000000000000000000000998a84541617835573ffffffffffffffffffffffffffffffffffffffff602060018501920151168a825416179055516002820155019351167fffffffffffffffffffffffffffffffff000000000000000000000000000000006fffffffffffffffff00000000000000008554935160401b169216171782555115157fffffffffffffffffffffffffffffff00ffffffffffffffffffffffffffffffff70ff00000000000000000000000000000000835492151560801b169116179055565b6040519061124582611fff565b6000825273ffffffffffffffffffffffffffffffffffffffff8516156116375760018401600052600260205273ffffffffffffffffffffffffffffffffffffffff6040600020541680151591826115c2575b73ffffffffffffffffffffffffffffffffffffffff8716600052600360205260406000206001815401905560018601600052600260205260406000209073ffffffffffffffffffffffffffffffffffffffff881690825416179055600185019073ffffffffffffffffffffffffffffffffffffffff8716907fddf252ad1be2c89b69c2b068fc378daa952ba7f163c4a11628f55a4df523b3ef600080a461159157833b6113a2575b509173ffffffffffffffffffffffffffffffffffffffff6020938160405193168352168382015260443560408201527f039f88044d6bbaed701c293f868e06e8a8935a6bc53a0528fe94d6822995696e60606001840192a2600160405191018152f35b604051602081806113f87f150b7a02000000000000000000000000000000000000000000000000000000009586835233600484015260006024840152600189016044840152608060648401526084830190611eec565b0381600073ffffffffffffffffffffffffffffffffffffffff8a165af160009181611534575b506114ac57843d156114a4573d906114358261205c565b91611443604051938461201b565b82523d6000602084013e5b8151918261149d5760248273ffffffffffffffffffffffffffffffffffffffff604051917f64a0ae92000000000000000000000000000000000000000000000000000000008352166004820152fd5b9050602001fd5b60609061144e565b7fffffffff0000000000000000000000000000000000000000000000000000000016036114ed5773ffffffffffffffffffffffffffffffffffffffff61133f565b60248373ffffffffffffffffffffffffffffffffffffffff604051917f64a0ae92000000000000000000000000000000000000000000000000000000008352166004820152fd5b9091506020813d602011611589575b816115506020938361201b565b810103126102b457517fffffffff00000000000000000000000000000000000000000000000000000000811681036102b457908661141e565b3d9150611543565b60246040517f73c6ac6e00000000000000000000000000000000000000000000000000000000815260006004820152fd5b6115fe60018701600052600460205260406000207fffffffffffffffffffffffff00000000000000000000000000000000000000008154169055565b81600052600360205260406000207fffffffffffffffffffffffffffffffffffffffffffffffffffffffffffffffff8154019055611297565b60246040517f64a0ae9200000000000000000000000000000000000000000000000000000000815260006004820152fd5b7f4e487b7100000000000000000000000000000000000000000000000000000000600052604160045260246000fd5b7f4e487b7100000000000000000000000000000000000000000000000000000000600052601160045260246000fd5b60646040517f08c379a000000000000000000000000000000000000000000000000000000000815260206004820152600960248201527f62616420646174657300000000000000000000000000000000000000000000006044820152fd5b604490604051907fe2517d3f0000000000000000000000000000000000000000000000000000000082523360048301526024820152fd5b346102b45760207ffffffffffffffffffffffffffffffffffffffffffffffffffffffffffffffffc3601126102b457600435600052600960205260c0604060002060ff73ffffffffffffffffffffffffffffffffffffffff918281541692600182015416600360028301549201549167ffffffffffffffff916040519586526020860152604085015280821660608501528160401c16608084015260801c16151560a0820152f35b346102b45760007ffffffffffffffffffffffffffffffffffffffffffffffffffffffffffffffffc3601126102b457602060ff600754166040519015158152f35b346102b45761039861185536611f9f565b906040519261186384611fff565b6000845261048f838383612178565b346102b45760007ffffffffffffffffffffffffffffffffffffffffffffffffffffffffffffffffc3601126102b4576118a9612502565b60075460ff811615611906577fffffffffffffffffffffffffffffffffffffffffffffffffffffffffffffff00166007557f5db9ee0a495bf2e6ff9c91a7834c1ba4fdd244a5e8aa4e537bd38aeae4b073aa6020604051338152a1005b60046040517f8dfc202b000000000000000000000000000000000000000000000000000000008152fd5b346102b45760407ffffffffffffffffffffffffffffffffffffffffffffffffffffffffffffffffc3601126102b457611967611f6d565b3373ffffffffffffffffffffffffffffffffffffffff8216036119905761039890600435612630565b60046040517f6697b232000000000000000000000000000000000000000000000000000000008152fd5b346102b45760407ffffffffffffffffffffffffffffffffffffffffffffffffffffffffffffffffc3601126102b4576103986004356119f7611f6d565b90806000526006602052611a1260016040600020015461255e565b612584565b346102b45760207ffffffffffffffffffffffffffffffffffffffffffffffffffffffffffffffffc3601126102b45760043560005260066020526020600160406000200154604051908152f35b346102b457610398611a7536611f9f565b91612178565b346102b45760407ffffffffffffffffffffffffffffffffffffffffffffffffffffffffffffffffc3601126102b4576004357fa0596a4b7a3b268f6f13d7ccab90449ee9d0dcc4f876967851a03e191019593f6020611ad8611f90565b611ae06124a6565b6000848152600983526040902060030180547fffffffffffffffffffffffffffffff00ffffffffffffffffffffffffffffffff1682151560801b70ff00000000000000000000000000000000161790556040519015158152a2005b346102b45760407ffffffffffffffffffffffffffffffffffffffffffffffffffffffffffffffffc3601126102b457611b72611f4a565b602435611b7e81612445565b33151580611c79575b80611c3e575b611c0e57819073ffffffffffffffffffffffffffffffffffffffff809416938491167f8c5be1e5ebec7d5bd14f71427d1e84f3dd0314c0f7b2291e5b200ac8c7c3b925600080a460005260046020526040600020907fffffffffffffffffffffffff0000000000000000000000000000000000000000825416179055600080f35b60246040517fa9fbf51f000000000000000000000000000000000000000000000000000000008152336004820152fd5b5073ffffffffffffffffffffffffffffffffffffffff8116600052600560205260406000203360005260205260ff6040600020541615611b8d565b503373ffffffffffffffffffffffffffffffffffffffff82161415611b87565b346102b45760207ffffffffffffffffffffffffffffffffffffffffffffffffffffffffffffffffc3601126102b457600435611cd481612445565b506000526004602052602073ffffffffffffffffffffffffffffffffffffffff60406000205416604051908152f35b346102b45760007ffffffffffffffffffffffffffffffffffffffffffffffffffffffffffffffffc3601126102b457604051600080549082611d4483612118565b9182825260209360019085600182169182600014610bc8575050600114611d725750610b579250038361201b565b6000808052859250907f290decd9548b62a8d60345a988386fc84ba6bc95484008f6362f93160ef3e5635b858310611db4575050610b57935082010185610b4a565b80548389018501528794508693909201918101611d9d565b346102b45760207ffffffffffffffffffffffffffffffffffffffffffffffffffffffffffffffffc3601126102b457600435907fffffffff0000000000000000000000000000000000000000000000000000000082168092036102b457817f7965db0b0000000000000000000000000000000000000000000000000000000060209314908115611e5e575b5015158152f35b7f80ac58cd00000000000000000000000000000000000000000000000000000000811491508115611ec2575b8115611e98575b5083611e57565b7f01ffc9a70000000000000000000000000000000000000000000000000000000091501483611e91565b7f5b5e139f0000000000000000000000000000000000000000000000000000000081149150611e8a565b919082519283825260005b848110611f365750507fffffffffffffffffffffffffffffffffffffffffffffffffffffffffffffffe0601f8460006020809697860101520116010190565b602081830181015184830182015201611ef7565b6004359073ffffffffffffffffffffffffffffffffffffffff821682036102b457565b6024359073ffffffffffffffffffffffffffffffffffffffff821682036102b457565b6024359081151582036102b457565b7ffffffffffffffffffffffffffffffffffffffffffffffffffffffffffffffffc60609101126102b45773ffffffffffffffffffffffffffffffffffffffff9060043582811681036102b4579160243590811681036102b4579060443590565b6020810190811067ffffffffffffffff82111761166857604052565b90601f7fffffffffffffffffffffffffffffffffffffffffffffffffffffffffffffffe0910116810190811067ffffffffffffffff82111761166857604052565b67ffffffffffffffff811161166857601f017fffffffffffffffffffffffffffffffffffffffffffffffffffffffffffffffe01660200190565b9291926120a28261205c565b916120b0604051938461201b565b8294818452818301116102b4578281602093846000960137010152565b80548210156120e95760005260206000209060021b0190600090565b7f4e487b7100000000000000000000000000000000000000000000000000000000600052603260045260246000fd5b90600182811c92168015612161575b602083101461213257565b7f4e487b7100000000000000000000000000000000000000000000000000000000600052602260045260246000fd5b91607f1691612127565b906005821015610dc25752565b909173ffffffffffffffffffffffffffffffffffffffff809316928315611637576000928284528260209560028752604096848888205416968791331515806122e1575b509060027fddf252ad1be2c89b69c2b068fc378daa952ba7f163c4a11628f55a4df523b3ef9284612273575b858352600381528b83206001815401905586835252898120847fffffffffffffffffffffffff000000000000000000000000000000000000000082541617905580a416928383036122395750505050565b6064945051927f64283d7b000000000000000000000000000000000000000000000000000000008452600484015260248301526044820152fd5b6122ac87600052600460205260406000207fffffffffffffffffffffffff00000000000000000000000000000000000000008154169055565b848352600381528b83207fffffffffffffffffffffffffffffffffffffffffffffffffffffffffffffffff81540190556121e8565b91939450915080612368575b156122fd578592918791386121bc565b8786886123335760249151907f7e2732890000000000000000000000000000000000000000000000000000000082526004820152fd5b60449151907f177e802f0000000000000000000000000000000000000000000000000000000082523360048301526024820152fd5b50338714801561238d575b806122ed57508582526004815233858984205416146122ed565b5086825260058152878220338352815260ff8883205416612373565b156123b057565b60646040517f08c379a000000000000000000000000000000000000000000000000000000000815260206004820152600a60248201527f6e6f7420616374697665000000000000000000000000000000000000000000006044820152fd5b906005811015610dc25760ff7fffffffffffffffffffffffffffffffffffffffffffffffffffffffffffffff008354169116179055565b80600052600260205273ffffffffffffffffffffffffffffffffffffffff60406000205416908115612475575090565b602490604051907f7e2732890000000000000000000000000000000000000000000000000000000082526004820152fd5b3360009081527f31f4bc5980931cfff8fcc0887a354f492c853dee1983bdef4d9cb3e8a5ff876e60205260409020547fdf8b4c520ffe197c5343c6f5aec59570151ef9a492f2c624fd45ddde6135ec429060ff16156117245750565b3360009081527fba39d2e119d4075e56dadcfd5cd5b862305d2c4d32649e4866948958647d49cf60205260409020547f8b5b16d04624687fcf0d0228f19993c9157c1ed07b41d8d430fd9100eb099fe89060ff16156117245750565b80600052600660205260406000203360005260205260ff60406000205416156117245750565b90600091808352600660205273ffffffffffffffffffffffffffffffffffffffff6040842092169182845260205260ff6040842054161560001461262b578083526006602052604083208284526020526040832060017fffffffffffffffffffffffffffffffffffffffffffffffffffffffffffffff008254161790557f2f8788117e7eff1d82e926ec794901d17c78024a50270940304540a733656f0d339380a4600190565b505090565b90600091808352600660205273ffffffffffffffffffffffffffffffffffffffff6040842092169182845260205260ff60408420541660001461262b57808352600660205260408320828452602052604083207fffffffffffffffffffffffffffffffffffffffffffffffffffffffffffffff0081541690557ff6391f5c32d9c69d2a47ea670b442974b53935d1edc7fd64eb21e047a839171b339380a4600190565b60ff600754166126df57565b60046040517fd93c0665000000000000000000000000000000000000000000000000000000008152fd5b813b612716575b50505050565b73ffffffffffffffffffffffffffffffffffffffff949192939480931693604051937f150b7a020000000000000000000000000000000000000000000000000000000092838652336004870152166024850152604484015260806064840152826127866020966084830190611eec565b039285816000958187895af184918161287a575b50612812575050503d60001461280a573d6127b48161205c565b906127c2604051928361201b565b81528091843d92013e5b8051928361280557602483604051907f64a0ae920000000000000000000000000000000000000000000000000000000082526004820152fd5b019050fd5b5060606127cc565b9092507fffffffff000000000000000000000000000000000000000000000000000000009194501603612849575038808080612710565b602490604051907f64a0ae920000000000000000000000000000000000000000000000000000000082526004820152fd5b9091508681813d83116128cf575b612892818361201b565b810103126128cb57517fffffffff00000000000000000000000000000000000000000000000000000000811681036128cb57903861279a565b8480fd5b503d61288856fea264697066735822122090eb704d5afd8a7855b47f9776b01708af18bbd6819241170eb969cdbe6910bc64736f6c634300081800332f8788117e7eff1d82e926ec794901d17c78024a50270940304540a733656f0d","linkReferences":{}},"methodIdentifiers":{"DEFAULT_ADMIN_ROLE()":"a217fddf","approve(address,uint256)":"095ea7b3","balanceOf(address)":"70a08231","bonds(uint256)":"5f1c17c0","claims(uint256,uint256)":"f894160e","fileClaim(uint256,uint256,string)":"a3a5dcf6","getApproved(uint256)":"081812fc","getRoleAdmin(bytes32)":"248a9ca3","grantRole(bytes32,address)":"2f2ff15d","hasRole(bytes32,address)":"91d14854","isApprovedForAll(address,address)":"e985e9c5","issue(address,address,uint256,uint64,uint64)":"61b3381f","name()":"06fdde03","ownerOf(uint256)":"6352211e","pause()":"8456cb59","paused()":"5c975abb","renounceRole(bytes32,address)":"36568abe","revokeRole(bytes32,address)":"d547741f","safeTransferFrom(address,address,uint256)":"42842e0e","safeTransferFrom(address,address,uint256,bytes)":"b88d4fde","setApprovalForAll(address,bool)":"a22cb465","setBondStatus(uint256,bool)":"11b91d24","setClaimStatus(uint256,uint256,uint8)":"910291e7","supportsInterface(bytes4)":"01ffc9a7","symbol()":"95d89b41","tokenURI(uint256)":"c87b56dd","transferFrom(address,address,uint256)":"23b872dd","unpause()":"3f4ba83a"},"id":96}