{"abi":[{"type":"constructor","inputs":[{"name":"admin","type":"address","internalType":"address"}],"stateMutability":"nonpayable"},{"type":"function","name":"DEFAULT_ADMIN_ROLE","inputs":[],"outputs":[{"name":"","type":"bytes32","internalType":"bytes32"}],"stateMutability":"view"},{"type":"function","name":"ROLE_ADMIN_ID","inputs":[],"outputs":[{"name":"","type":"bytes32","internalType":"bytes32"}],"stateMutability":"pure"},{"type":"function","name":"ROLE_AUDITOR_ID","inputs":[],"outputs":[{"name":"","type":"bytes32","internalType":"bytes32"}],"stateMutability":"pure"},{"type":"function","name":"docOf","inputs":[{"name":"","type":"bytes32","internalType":"bytes32"}],"outputs":[{"name":"uri","type":"string","internalType":"string"},{"name":"asOf","type":"uint64","internalType":"uint64"},{"name":"signer","type":"address","internalType":"address"}],"stateMutability":"view"},{"type":"function","name":"get","inputs":[{"name":"key","type":"bytes32","internalType":"bytes32"}],"outputs":[{"name":"uri","type":"string","internalType":"string"},{"name":"asOf","type":"uint64","internalType":"uint64"},{"name":"signer","type":"address","internalType":"address"}],"stateMutability":"view"},{"type":"function","name":"getRoleAdmin","inputs":[{"name":"role","type":"bytes32","internalType":"bytes32"}],"outputs":[{"name":"","type":"bytes32","internalType":"bytes32"}],"stateMutability":"view"},{"type":"function","name":"grantRole","inputs":[{"name":"role","type":"bytes32","internalType":"bytes32"},{"name":"account","type":"address","internalType":"address"}],"outputs":[],"stateMutability":"nonpayable"},{"type":"function","name":"hasRole","inputs":[{"name":"role","type":"bytes32","internalType":"bytes32"},{"name":"account","type":"address","internalType":"address"}],"outputs":[{"name":"","type":"bool","internalType":"bool"}],"stateMutability":"view"},{"type":"function","name":"keyOf","inputs":[{"name":"issuerOrVault","type":"address","internalType":"address"},{"name":"instrumentOrCategory","type":"bytes32","internalType":"bytes32"},{"name":"docType","type":"bytes32","internalType":"bytes32"}],"outputs":[{"name":"","type":"bytes32","internalType":"bytes32"}],"stateMutability":"pure"},{"type":"function","name":"pause","inputs":[],"outputs":[],"stateMutability":"nonpayable"},{"type":"function","name":"paused","inputs":[],"outputs":[{"name":"","type":"bool","internalType":"bool"}],"stateMutability":"view"},{"type":"function","name":"renounceRole","inputs":[{"name":"role","type":"bytes32","internalType":"bytes32"},{"name":"callerConfirmation","type":"address","internalType":"address"}],"outputs":[],"stateMutability":"nonpayable"},{"type":"function","name":"revokeRole","inputs":[{"name":"role","type":"bytes32","internalType":"bytes32"},{"name":"account","type":"address","internalType":"address"}],"outputs":[],"stateMutability":"nonpayable"},{"type":"function","name":"set","inputs":[{"name":"issuerOrVault","type":"address","internalType":"address"},{"name":"instrumentOrCategory","type":"bytes32","internalType":"bytes32"},{"name":"docType","type":"bytes32","internalType":"bytes32"},{"name":"uri","type":"string","internalType":"string"},{"name":"asOf","type":"uint64","internalType":"uint64"}],"outputs":[],"stateMutability":"nonpayable"},{"type":"function","name":"supportsInterface","inputs":[{"name":"interfaceId","type":"bytes4","internalType":"bytes4"}],"outputs":[{"name":"","type":"bool","internalType":"bool"}],"stateMutability":"view"},{"type":"function","name":"unpause","inputs":[],"outputs":[],"stateMutability":"nonpayable"},{"type":"event","name":"DisclosureSet","inputs":[{"name":"key","type":"bytes32","indexed":true,"internalType":"bytes32"},{"name":"uri","type":"string","indexed":false,"internalType":"string"},{"name":"asOf","type":"uint64","indexed":false,"internalType":"uint64"},{"name":"by","type":"address","indexed":true,"internalType":"address"}],"anonymous":false},{"type":"event","name":"Paused","inputs":[{"name":"account","type":"address","indexed":false,"internalType":"address"}],"anonymous":false},{"type":"event","name":"RoleAdminChanged","inputs":[{"name":"role","type":"bytes32","indexed":true,"internalType":"bytes32"},{"name":"previousAdminRole","type":"bytes32","indexed":true,"internalType":"bytes32"},{"name":"newAdminRole","type":"bytes32","indexed":true,"internalType":"bytes32"}],"anonymous":false},{"type":"event","name":"RoleGranted","inputs":[{"name":"role","type":"bytes32","indexed":true,"internalType":"bytes32"},{"name":"account","type":"address","indexed":true,"internalType":"address"},{"name":"sender","type":"address","indexed":true,"internalType":"address"}],"anonymous":false},{"type":"event","name":"RoleRevoked","inputs":[{"name":"role","type":"bytes32","indexed":true,"internalType":"bytes32"},{"name":"account","type":"address","indexed":true,"internalType":"address"},{"name":"sender","type":"address","indexed":true,"internalType":"address"}],"anonymous":false},{"type":"event","name":"Unpaused","inputs":[{"name":"account","type":"address","indexed":false,"internalType":"address"}],"anonymous":false},{"type":"error","name":"AccessControlBadConfirmation","inputs":[]},{"type":"error","name":"AccessControlUnauthorizedAccount","inputs":[{"name":"account","type":"address","internalType":"address"},{"name":"neededRole","type":"bytes32","internalType":"bytes32"}]},{"type":"error","name":"EnforcedPause","inputs":[]},{"type":"error","name":"ExpectedPause","inputs":[]}],"bytecode":{"object":"0x6080346200009257601f6200140838819003918201601f19168301916001600160401b0383118484101762000097578084926020946040528339810103126200009257516001600160a01b03811681036200009257620000819060ff19600154166001556200006e81620000ad565b506200007a816200012d565b50620001cf565b5060405161117b90816200026d8239f35b600080fd5b634e487b7160e01b600052604160045260246000fd5b6001600160a01b031660008181527fad3228b676f7d3cd4284a5443f17f1962b36e491b30a40b2405849e597ba5fb5602052604081205490919060ff166200012957818052816020526040822081835260205260408220600160ff198254161790553391600080516020620013e88339815191528180a4600190565b5090565b6001600160a01b031660008181527f5cbfc8ee58ca47855df7bcf648dd304ddb6b932f9b87878bdf6318d7ec7ee5b760205260408120549091907fdf8b4c520ffe197c5343c6f5aec59570151ef9a492f2c624fd45ddde6135ec429060ff16620001ca57808352826020526040832082845260205260408320600160ff19825416179055600080516020620013e8833981519152339380a4600190565b505090565b6001600160a01b031660008181527fdf6a4f015919d4c86460def26d9452194a7e9a2a83f0564149a51dba14c4008560205260408120549091907fd8994f6d76f930dc5ea8c60e38e6334a87bb8539cc3082ac6828681c33316e3d9060ff16620001ca57808352826020526040832082845260205260408320600160ff19825416179055600080516020620013e8833981519152339380a460019056fe6080806040526004908136101561001557600080fd5b60003560e01c90816301ffc9a714610ba5575080630ffa2d3614610b4c5780631daf833114610679578063248a9ca31461062d5780632f2ff15d146105d0578063364fe0491461057f57806336568abe146104f75780633f4ba83a146104395780634bcdf9d7146103b75780635c975abb1461037657806368ca63fa1461031d5780638456cb59146102885780638eaa6ac0146101e757806391d148541461016e578063a217fddf146101345763d547741f146100d157600080fd5b3461012f5760407ffffffffffffffffffffffffffffffffffffffffffffffffffffffffffffffffc36011261012f5761012d903561010d610c83565b90806000526000602052610128600160406000200154610fd4565b6110a4565b005b600080fd5b3461012f5760007ffffffffffffffffffffffffffffffffffffffffffffffffffffffffffffffffc36011261012f57602060405160008152f35b503461012f5760407ffffffffffffffffffffffffffffffffffffffffffffffffffffffffffffffffc36011261012f576101a6610c83565b9035600052600060205273ffffffffffffffffffffffffffffffffffffffff60406000209116600052602052602060ff604060002054166040519015158152f35b503461012f5760207ffffffffffffffffffffffffffffffffffffffffffffffffffffffffffffffffc36011261012f5735600052600260205260406000206040519061023282610cf9565b6102846040600161024284610d85565b9384865201549373ffffffffffffffffffffffffffffffffffffffff67ffffffffffffffff861695866020840152831c16918291015260405193849384610e49565b0390f35b3461012f5760007ffffffffffffffffffffffffffffffffffffffffffffffffffffffffffffffffc36011261012f576102bf610f63565b6102c7610f2d565b60017fffffffffffffffffffffffffffffffffffffffffffffffffffffffffffffff00815416176001557f62e78cea01bee320cd4e420270b5ea74000d11b0c9f74754ebdbfc544b05a2586020604051338152a1005b3461012f5760007ffffffffffffffffffffffffffffffffffffffffffffffffffffffffffffffffc36011261012f5760206040517fdf8b4c520ffe197c5343c6f5aec59570151ef9a492f2c624fd45ddde6135ec428152f35b3461012f5760007ffffffffffffffffffffffffffffffffffffffffffffffffffffffffffffffffc36011261012f57602060ff600154166040519015158152f35b503461012f5760207ffffffffffffffffffffffffffffffffffffffffffffffffffffffffffffffffc36011261012f573560005260026020526040600020600161040082610d85565b9101549061028460405192839267ffffffffffffffff73ffffffffffffffffffffffffffffffffffffffff8360401c1692169084610e49565b503461012f5760007ffffffffffffffffffffffffffffffffffffffffffffffffffffffffffffffffc36011261012f57610471610f63565b60015460ff8116156104ce577fffffffffffffffffffffffffffffffffffffffffffffffffffffffffffffff00166001557f5db9ee0a495bf2e6ff9c91a7834c1ba4fdd244a5e8aa4e537bd38aeae4b073aa6020604051338152a1005b506040517f8dfc202b000000000000000000000000000000000000000000000000000000008152fd5b503461012f5760407ffffffffffffffffffffffffffffffffffffffffffffffffffffffffffffffffc36011261012f5761052f610c83565b3373ffffffffffffffffffffffffffffffffffffffff8216036105565761012d91356110a4565b506040517f6697b232000000000000000000000000000000000000000000000000000000008152fd5b3461012f5760607ffffffffffffffffffffffffffffffffffffffffffffffffffffffffffffffffc36011261012f5760206105c86105bb610c60565b6044359060243590610edd565b604051908152f35b503461012f5760407ffffffffffffffffffffffffffffffffffffffffffffffffffffffffffffffffc36011261012f5761012d903561060d610c83565b90806000526000602052610628600160406000200154610fd4565b610ffa565b503461012f5760207ffffffffffffffffffffffffffffffffffffffffffffffffffffffffffffffffc36011261012f573560005260006020526020600160406000200154604051908152f35b503461012f5760a07ffffffffffffffffffffffffffffffffffffffffffffffffffffffffffffffffc36011261012f576106b1610c60565b6064359067ffffffffffffffff821161012f573660238301121561012f5767ffffffffffffffff828401351161012f57366024838501358401011161012f576084359067ffffffffffffffff8216820361012f5761070d610f2d565b3360009081527f5cbfc8ee58ca47855df7bcf648dd304ddb6b932f9b87878bdf6318d7ec7ee5b7602052604090205460ff168015610b14575b15610ab65761075c906044359060243590610edd565b9160405161076981610cf9565b6040516107a160207fffffffffffffffffffffffffffffffffffffffffffffffffffffffffffffffe0601f868a013501160182610d44565b85830135808252602484016020830137600060208488013583010152815267ffffffffffffffff831660208201523360408201528360005260026020526040600020815180519067ffffffffffffffff8211610a88576108018354610ca6565b601f8111610a44575b50602090601f831160011461094c579460609460017fffffeec3a1cb32a8080106931a85567c702dcac4739ebb3c650ac1e8a979e59f9895857fffffffffffffffffffffffffffffffffffffffffffffffffffffffffffffffe096601f9667ffffffffffffffff9b600092610941575b50507fffffffffffffffffffffffffffffffffffffffffffffffffffffffffffffffff82851b9260031b1c19161781555b0190876020820151167fffffffff000000000000000000000000000000000000000000000000000000007bffffffffffffffffffffffffffffffffffffffff00000000000000006040855494015160401b1692161717905560405195869460408652828b01356040870152828b01356024840188880137600087848d0135880101521660208501523398013501168101030190a3005b01519050388061087a565b908360005260206000209160005b7fffffffffffffffffffffffffffffffffffffffffffffffffffffffffffffffe085168110610a2c57509460017fffffeec3a1cb32a8080106931a85567c702dcac4739ebb3c650ac1e8a979e59f98958186601f9667ffffffffffffffff9b9660609b837fffffffffffffffffffffffffffffffffffffffffffffffffffffffffffffffe0809c16106109f5575b505050811b0181556108ab565b01517fffffffffffffffffffffffffffffffffffffffffffffffffffffffffffffffff60f88460031b161c191690553880806109e8565b9192602060018192868501518155019401920161095a565b836000526020600020601f840160051c810160208510610a81575b601f830160051c82018110610a7557505061080a565b60008155600101610a5f565b5080610a5f565b6041887f4e487b71000000000000000000000000000000000000000000000000000000006000525260246000fd5b6064846020604051917f08c379a0000000000000000000000000000000000000000000000000000000008352820152600e60248201527f6e6f7420617574686f72697a65640000000000000000000000000000000000006044820152fd5b503360009081527fdf6a4f015919d4c86460def26d9452194a7e9a2a83f0564149a51dba14c40085602052604090205460ff16610746565b3461012f5760007ffffffffffffffffffffffffffffffffffffffffffffffffffffffffffffffffc36011261012f5760206040517fd8994f6d76f930dc5ea8c60e38e6334a87bb8539cc3082ac6828681c33316e3d8152f35b823461012f5760207ffffffffffffffffffffffffffffffffffffffffffffffffffffffffffffffffc36011261012f5735907fffffffff00000000000000000000000000000000000000000000000000000000821680920361012f57817f7965db0b0000000000000000000000000000000000000000000000000000000060209314908115610c36575b5015158152f35b7f01ffc9a70000000000000000000000000000000000000000000000000000000091501483610c2f565b6004359073ffffffffffffffffffffffffffffffffffffffff8216820361012f57565b6024359073ffffffffffffffffffffffffffffffffffffffff8216820361012f57565b90600182811c92168015610cef575b6020831014610cc057565b7f4e487b7100000000000000000000000000000000000000000000000000000000600052602260045260246000fd5b91607f1691610cb5565b6060810190811067ffffffffffffffff821117610d1557604052565b7f4e487b7100000000000000000000000000000000000000000000000000000000600052604160045260246000fd5b90601f7fffffffffffffffffffffffffffffffffffffffffffffffffffffffffffffffe0910116810190811067ffffffffffffffff821117610d1557604052565b90604051918260008254610d9881610ca6565b90818452602094600191600181169081600014610e085750600114610dc9575b505050610dc792500383610d44565b565b600090815285812095935091905b818310610df0575050610dc79350820101388080610db8565b85548884018501529485019487945091830191610dd7565b915050610dc79593507fffffffffffffffffffffffffffffffffffffffffffffffffffffffffffffff0091501682840152151560051b820101388080610db8565b919392906060835280519081606085015260005b828110610ec757505060409167ffffffffffffffff60807fffffffffffffffffffffffffffffffffffffffffffffffffffffffffffffffe0601f8560008473ffffffffffffffffffffffffffffffffffffffff988b01015201168601019616602085015216910152565b8060208092840101516080828801015201610e5d565b916040519173ffffffffffffffffffffffffffffffffffffffff602084019416845260408301526060820152606081526080810181811067ffffffffffffffff821117610d155760405251902090565b60ff60015416610f3957565b60046040517fd93c0665000000000000000000000000000000000000000000000000000000008152fd5b3360009081527fad3228b676f7d3cd4284a5443f17f1962b36e491b30a40b2405849e597ba5fb5602052604081205460ff1615610f9d5750565b604490604051907fe2517d3f0000000000000000000000000000000000000000000000000000000082523360048301526024820152fd5b80600052600060205260406000203360005260205260ff6040600020541615610f9d5750565b906000918083528260205273ffffffffffffffffffffffffffffffffffffffff6040842092169182845260205260ff6040842054161560001461109f5780835282602052604083208284526020526040832060017fffffffffffffffffffffffffffffffffffffffffffffffffffffffffffffff008254161790557f2f8788117e7eff1d82e926ec794901d17c78024a50270940304540a733656f0d339380a4600190565b505090565b906000918083528260205273ffffffffffffffffffffffffffffffffffffffff6040842092169182845260205260ff60408420541660001461109f578083528260205260408320828452602052604083207fffffffffffffffffffffffffffffffffffffffffffffffffffffffffffffff0081541690557ff6391f5c32d9c69d2a47ea670b442974b53935d1edc7fd64eb21e047a839171b339380a460019056fea264697066735822122072ff9b9f43ad43951b581e4f0911f33b9da30d752e74c8eed96d3ad3a4d64c6564736f6c634300081800332f8788117e7eff1d82e926ec794901d17c78024a50270940304540a733656f0d","linkReferences":{}},"methodIdentifiers":{"DEFAULT_ADMIN_ROLE()":"a217fddf","ROLE_ADMIN_ID()":"68ca63fa","ROLE_AUDITOR_ID()":"0ffa2d36","docOf(bytes32)":"4bcdf9d7","get(bytes32)":"8eaa6ac0","getRoleAdmin(bytes32)":"248a9ca3","grantRole(bytes32,address)":"2f2ff15d","hasRole(bytes32,address)":"91d14854","keyOf(address,bytes32,bytes32)":"364fe049","pause()":"8456cb59","paused()":"5c975abb","renounceRole(bytes32,address)":"36568abe","revokeRole(bytes32,address)":"d547741f","set(address,bytes32,bytes32,string,uint64)":"1daf8331","supportsInterface(bytes4)":"01ffc9a7","unpause()":"3f4ba83a"},"id":67}