{"abi":[{"type":"constructor","inputs":[],"stateMutability":"nonpayable"},{"type":"function","name":"activatePrivacyGroup","inputs":[{"name":"groupId","type":"bytes32","internalType":"bytes32"}],"outputs":[],"stateMutability":"nonpayable"},{"type":"function","name":"activePrivacyGroups","inputs":[{"name":"","type":"bytes32","internalType":"bytes32"}],"outputs":[{"name":"","type":"bool","internalType":"bool"}],"stateMutability":"view"},{"type":"function","name":"kind","inputs":[],"outputs":[{"name":"","type":"uint8","internalType":"enum IRail.Kind"}],"stateMutability":"pure"},{"type":"function","name":"owner","inputs":[],"outputs":[{"name":"","type":"address","internalType":"address"}],"stateMutability":"view"},{"type":"function","name":"prepare","inputs":[{"name":"xfer","type":"tuple","internalType":"struct IRail.Transfer","components":[{"name":"asset","type":"address","internalType":"address"},{"name":"from","type":"address","internalType":"address"},{"name":"to","type":"address","internalType":"address"},{"name":"amount","type":"uint256","internalType":"uint256"},{"name":"metadata","type":"bytes","internalType":"bytes"}]}],"outputs":[],"stateMutability":"payable"},{"type":"function","name":"receiptHashes","inputs":[{"name":"","type":"bytes32","internalType":"bytes32"}],"outputs":[{"name":"","type":"bytes32","internalType":"bytes32"}],"stateMutability":"view"},{"type":"function","name":"refund","inputs":[{"name":"id","type":"bytes32","internalType":"bytes32"},{"name":"t","type":"tuple","internalType":"struct IRail.Transfer","components":[{"name":"asset","type":"address","internalType":"address"},{"name":"from","type":"address","internalType":"address"},{"name":"to","type":"address","internalType":"address"},{"name":"amount","type":"uint256","internalType":"uint256"},{"name":"metadata","type":"bytes","internalType":"bytes"}]}],"outputs":[],"stateMutability":"nonpayable"},{"type":"function","name":"release","inputs":[{"name":"id","type":"bytes32","internalType":"bytes32"},{"name":"t","type":"tuple","internalType":"struct IRail.Transfer","components":[{"name":"asset","type":"address","internalType":"address"},{"name":"from","type":"address","internalType":"address"},{"name":"to","type":"address","internalType":"address"},{"name":"amount","type":"uint256","internalType":"uint256"},{"name":"metadata","type":"bytes","internalType":"bytes"}]}],"outputs":[],"stateMutability":"nonpayable"},{"type":"function","name":"renounceOwnership","inputs":[],"outputs":[],"stateMutability":"nonpayable"},{"type":"function","name":"setTrustedExecutor","inputs":[{"name":"executor","type":"address","internalType":"address"},{"name":"trusted","type":"bool","internalType":"bool"}],"outputs":[],"stateMutability":"nonpayable"},{"type":"function","name":"status","inputs":[{"name":"id","type":"bytes32","internalType":"bytes32"}],"outputs":[{"name":"","type":"uint8","internalType":"enum IRail.Status"}],"stateMutability":"view"},{"type":"function","name":"transferId","inputs":[{"name":"t","type":"tuple","internalType":"struct IRail.Transfer","components":[{"name":"asset","type":"address","internalType":"address"},{"name":"from","type":"address","internalType":"address"},{"name":"to","type":"address","internalType":"address"},{"name":"amount","type":"uint256","internalType":"uint256"},{"name":"metadata","type":"bytes","internalType":"bytes"}]}],"outputs":[{"name":"","type":"bytes32","internalType":"bytes32"}],"stateMutability":"pure"},{"type":"function","name":"transferOwnership","inputs":[{"name":"newOwner","type":"address","internalType":"address"}],"outputs":[],"stateMutability":"nonpayable"},{"type":"function","name":"transferStatus","inputs":[{"name":"","type":"bytes32","internalType":"bytes32"}],"outputs":[{"name":"","type":"uint8","internalType":"enum IRail.Status"}],"stateMutability":"view"},{"type":"function","name":"transfers","inputs":[{"name":"","type":"bytes32","internalType":"bytes32"}],"outputs":[{"name":"asset","type":"address","internalType":"address"},{"name":"from","type":"address","internalType":"address"},{"name":"to","type":"address","internalType":"address"},{"name":"amount","type":"uint256","internalType":"uint256"},{"name":"metadata","type":"bytes","internalType":"bytes"}],"stateMutability":"view"},{"type":"function","name":"trustedExecutors","inputs":[{"name":"","type":"address","internalType":"address"}],"outputs":[{"name":"","type":"bool","internalType":"bool"}],"stateMutability":"view"},{"type":"event","name":"OwnershipTransferred","inputs":[{"name":"previousOwner","type":"address","indexed":true,"internalType":"address"},{"name":"newOwner","type":"address","indexed":true,"internalType":"address"}],"anonymous":false},{"type":"event","name":"PrivacyGroupActivated","inputs":[{"name":"groupId","type":"bytes32","indexed":true,"internalType":"bytes32"}],"anonymous":false},{"type":"event","name":"RailCancelled","inputs":[{"name":"id","type":"bytes32","indexed":true,"internalType":"bytes32"}],"anonymous":false},{"type":"event","name":"RailPrepared","inputs":[{"name":"id","type":"bytes32","indexed":true,"internalType":"bytes32"},{"name":"from","type":"address","indexed":true,"internalType":"address"},{"name":"to","type":"address","indexed":true,"internalType":"address"},{"name":"asset","type":"address","indexed":false,"internalType":"address"},{"name":"amount","type":"uint256","indexed":false,"internalType":"uint256"}],"anonymous":false},{"type":"event","name":"RailRefunded","inputs":[{"name":"id","type":"bytes32","indexed":true,"internalType":"bytes32"},{"name":"to","type":"address","indexed":true,"internalType":"address"},{"name":"asset","type":"address","indexed":false,"internalType":"address"},{"name":"amount","type":"uint256","indexed":false,"internalType":"uint256"}],"anonymous":false},{"type":"event","name":"RailReleased","inputs":[{"name":"id","type":"bytes32","indexed":true,"internalType":"bytes32"},{"name":"to","type":"address","indexed":true,"internalType":"address"},{"name":"asset","type":"address","indexed":false,"internalType":"address"},{"name":"amount","type":"uint256","indexed":false,"internalType":"uint256"}],"anonymous":false},{"type":"event","name":"ReceiptPosted","inputs":[{"name":"transferId","type":"bytes32","indexed":true,"internalType":"bytes32"},{"name":"receiptHash","type":"bytes32","indexed":false,"internalType":"bytes32"}],"anonymous":false},{"type":"event","name":"TrustedExecutorSet","inputs":[{"name":"executor","type":"address","indexed":true,"internalType":"address"},{"name":"trusted","type":"bool","indexed":false,"internalType":"bool"}],"anonymous":false},{"type":"error","name":"OwnableInvalidOwner","inputs":[{"name":"owner","type":"address","internalType":"address"}]},{"type":"error","name":"OwnableUnauthorizedAccount","inputs":[{"name":"account","type":"address","internalType":"address"}]},{"type":"error","name":"ReentrancyGuardReentrantCall","inputs":[]}],"bytecode":{"object":"0x6080806040523461007e5733156100685760008054336001600160a01b03198216811783556040519290916001600160a01b0316907f8be0079c531659141344cd1fd0a4f28419497f9722a3daafe3b4186f6b6457e09080a36001805561150990816100848239f35b631e4fbdf760e01b815260006004820152602490fd5b600080fdfe6080604081815260048036101561001557600080fd5b600092833560e01c90816304baa00b14610fa85750806308432d5714610a78578063326f9d2e14610a335780633c64f04b1461093b5780634dd6e2b5146108aa57806352ad0d5e14610383578063715018a61461080b57806374440b8a146107775780637a81d91b146107105780638da5cb5b146106bf57806390ee1dfa146104a45780639472c8c9146103d5578063bfd7903014610383578063cfcb5b1b14610202578063ed185e2a146101b85763f2fde38b146100d357600080fd5b346101b45760207ffffffffffffffffffffffffffffffffffffffffffffffffffffffffffffffffc3601126101b45761010a61121b565b90610113611482565b73ffffffffffffffffffffffffffffffffffffffff8092169283156101855750508254827fffffffffffffffffffffffff00000000000000000000000000000000000000008216178455167f8be0079c531659141344cd1fd0a4f28419497f9722a3daafe3b4186f6b6457e08380a380f35b908460249251917f1e4fbdf7000000000000000000000000000000000000000000000000000000008352820152fd5b8280fd5b50346101b45760207ffffffffffffffffffffffffffffffffffffffffffffffffffffffffffffffffc3601126101b4578160209360ff923581526002855220541690519015158152f35b5090346101b4576102123661123e565b509061021c611447565b338452600360205261023360ff828620541661137d565b818452600560205260ff81852054166005811015610357579061027960017f368c9a8588242d513faa21c32bf5aaee15ee1150a43690313e009727607c71d393146113e2565b8285528360205280852061034d82519561029287611089565b73ffffffffffffffffffffffffffffffffffffffff80918185541689526102df826001870154169160208b0192835283600288015416888c015260038701549660608c0197885201611115565b60808a0152878a526005602052858a2060037fffffffffffffffffffffffffffffffffffffffffffffffffffffffffffffff00825416179055511696511691519251928392836020909392919373ffffffffffffffffffffffffffffffffffffffff60408201951681520152565b0390a36001805580f35b6024856021867f4e487b7100000000000000000000000000000000000000000000000000000000835252fd5b50346101b45760207ffffffffffffffffffffffffffffffffffffffffffffffffffffffffffffffffc3601126101b457816103d19360ff9235815260056020522054169051918291826111d9565b0390f35b5050346104a057807ffffffffffffffffffffffffffffffffffffffffffffffffffffffffffffffffc3601126104a05761040d61121b565b6024359081151580920361049c577fc7f02c5d28a49197a3805b45759ee4c36bf1625d8c99bc3cdc0a6a51b84662cd9173ffffffffffffffffffffffffffffffffffffffff60209261045d611482565b1693848652600383528086207fffffffffffffffffffffffffffffffffffffffffffffffffffffffffffffff0081541660ff841617905551908152a280f35b8380fd5b5080fd5b5090346101b4576104b43661123e565b90916104be611447565b338552602091600383526104d760ff838820541661137d565b8386526005835260ff828720541660058110156106935760016104fa91146113e2565b8386528483528186209082519561051087611089565b8773ffffffffffffffffffffffffffffffffffffffff9283855416895283600186015416878a015261055c8460028701541693878b0194855260038701549660608c0197885201611115565b60808a015260808101908761057183836112b3565b9050101561060b575b505091809160057fd246ccc6c6f9471c400e2ef416699d6cef45c429f224da93084d39b3f807286b978961034d965252858a2060027fffffffffffffffffffffffffffffffffffffffffffffffffffffffffffffff00825416179055511696511691519251928392836020909392919373ffffffffffffffffffffffffffffffffffffffff60408201951681520152565b87949391610618916112b3565b90809891810103126104a057600584897f429fd50f854d8f1a9bad75d5449aeb1cf2de4499c4ec7a827ba6f704d1931cef61034d978a88977fd246ccc6c6f9471c400e2ef416699d6cef45c429f224da93084d39b3f807286b9d359181868493526006855220558b51908152a297508193508a92945061057a565b6024876021887f4e487b7100000000000000000000000000000000000000000000000000000000835252fd5b5050346104a057817ffffffffffffffffffffffffffffffffffffffffffffffffffffffffffffffffc3601126104a05773ffffffffffffffffffffffffffffffffffffffff60209254169051908152f35b5050346104a05760207ffffffffffffffffffffffffffffffffffffffffffffffffffffffffffffffffc3601126104a05760ff8160209373ffffffffffffffffffffffffffffffffffffffff61076461121b565b1681526003855220541690519015158152f35b50346101b45760207ffffffffffffffffffffffffffffffffffffffffffffffffffffffffffffffffc3601126101b45735906107b1611482565b8183526002602052822060017fffffffffffffffffffffffffffffffffffffffffffffffffffffffffffffff008254161790557fbf4ac58a89651610cecc904a8a7cfb284acb65def2adc9acb8d672a72ef8ec5d8280a280f35b83346108a757807ffffffffffffffffffffffffffffffffffffffffffffffffffffffffffffffffc3601126108a757610842611482565b8073ffffffffffffffffffffffffffffffffffffffff81547fffffffffffffffffffffffff000000000000000000000000000000000000000081168355167f8be0079c531659141344cd1fd0a4f28419497f9722a3daafe3b4186f6b6457e08280a380f35b80fd5b5050346104a0576020906108bd36610fe1565b6108c681611292565b6109316108d4858401611292565b6109056108e2868601611292565b936108f060808701876112b3565b91885196879560608c88019a0135928a611304565b037fffffffffffffffffffffffffffffffffffffffffffffffffffffffffffffffe081018352826110d4565b5190209051908152f35b5082346108a7576020807ffffffffffffffffffffffffffffffffffffffffffffffffffffffffffffffffc3601126104a05792919081358152816020528281209373ffffffffffffffffffffffffffffffffffffffff9485815416936109b587600184015416976002840154169160038401549301611115565b95805197889687526020870152850152606084015260a060808401528351938460a0850152825b858110610a1c57505050601f837fffffffffffffffffffffffffffffffffffffffffffffffffffffffffffffffe09260c080968601015201168101030190f35b81810183015187820160c0015286945082016109dc565b50346101b45760207ffffffffffffffffffffffffffffffffffffffffffffffffffffffffffffffffc3601126101b45760209282913581526006845220549051908152f35b5090610a8336610fe1565b91610a8c611447565b610a9583611292565b60209384810191610aa583611292565b9285830196610ab388611292565b946060850135936080860191610add610acc84896112b3565b90888d519b8c958987019788611304565b0396610b0f7fffffffffffffffffffffffffffffffffffffffffffffffffffffffffffffffe0988981018352826110d4565b51902096878b526005835260ff898c2054166005811015610f7c57610f205782610b3983886112b3565b90501015610e84575b878b52808352888b2096610bd58273ffffffffffffffffffffffffffffffffffffffff998d8b610b718c611292565b167fffffffffffffffffffffffff00000000000000000000000000000000000000009081845416178355600183018d610ba98c611292565b16828254161790558c610bbf6002850193611292565b16908254161790558860038201550193886112b3565b9267ffffffffffffffff8411610e585750928a94928a928e95610bf88454611036565b601f8111610ded575b508691601f8411600114610d0d5750956005610cc696610cc096610cba967f10876f5ef21c4a7c28973a179a5d95ec8815150f2fbf9c39ba9c73132d2589da9f9e9d9b95968f9b610cf89e9882918892610d02575b50507fffffffffffffffffffffffffffffffffffffffffffffffffffffffffffffffff8260011b9260031b1c19161790555b8352522060017fffffffffffffffffffffffffffffffffffffffffffffffffffffffffffffff00825416179055611292565b9a611292565b94611292565b975194859416981696836020909392919373ffffffffffffffffffffffffffffffffffffffff60408201951681520152565b0390a46001805580f35b013590503880610c56565b909b9a99989796959493929183875285872091875b8185168110610db9575095610cba95610cf89b9a957f10876f5ef21c4a7c28973a179a5d95ec8815150f2fbf9c39ba9c73132d2589da9f8f9b96610cc69b9660019260059783610cc09e811610610d81575b505050811b019055610c88565b7fffffffffffffffffffffffffffffffffffffffffffffffffffffffffffffffff60f88560031b161c19910135169055388080610d74565b949850929650948c9450600181999a9b9c9d92878394013581550195019201938f9591928e97938e959d9c9b9a9996610d22565b9295975092958791945086815220601f850160051c810191878610610e4e575b928f9693928d95928f999794601f0160051c01905b818110610e2f5750610c01565b80929598919497995060019396505501928e95928d9795928d95610e22565b9091508190610e0d565b8d60416024927f4e487b7100000000000000000000000000000000000000000000000000000000835252fd5b82610e8f83886112b3565b9080929181010312610f1c573580610ea8575b50610b42565b8b526002835260ff898c20541615610ec05738610ea2565b606490838a51917f08c379a0000000000000000000000000000000000000000000000000000000008352820152601a60248201527f53534c3a20496e76616c696420707269766163792067726f75700000000000006044820152fd5b8b80fd5b606490838a51917f08c379a0000000000000000000000000000000000000000000000000000000008352820152601560248201527f53534c3a20416c726561647920707265706172656400000000000000000000006044820152fd5b60248c6021847f4e487b7100000000000000000000000000000000000000000000000000000000835252fd5b8490346104a057817ffffffffffffffffffffffffffffffffffffffffffffffffffffffffffffffffc3601126104a05780600260209252f35b7ffffffffffffffffffffffffffffffffffffffffffffffffffffffffffffffffc90602082820112611031576004359167ffffffffffffffff8311611031578260a0920301126110315760040190565b600080fd5b90600182811c9216801561107f575b602083101461105057565b7f4e487b7100000000000000000000000000000000000000000000000000000000600052602260045260246000fd5b91607f1691611045565b60a0810190811067ffffffffffffffff8211176110a557604052565b7f4e487b7100000000000000000000000000000000000000000000000000000000600052604160045260246000fd5b90601f7fffffffffffffffffffffffffffffffffffffffffffffffffffffffffffffffe0910116810190811067ffffffffffffffff8211176110a557604052565b9060405191826000825461112881611036565b908184526020946001916001811690816000146111985750600114611159575b505050611157925003836110d4565b565b600090815285812095935091905b8183106111805750506111579350820101388080611148565b85548884018501529485019487945091830191611167565b9150506111579593507fffffffffffffffffffffffffffffffffffffffffffffffffffffffffffffff0091501682840152151560051b820101388080611148565b9190602083019260058210156111ec5752565b7f4e487b7100000000000000000000000000000000000000000000000000000000600052602160045260246000fd5b6004359073ffffffffffffffffffffffffffffffffffffffff8216820361103157565b907ffffffffffffffffffffffffffffffffffffffffffffffffffffffffffffffffc60408184011261103157600435926024359167ffffffffffffffff8311611031578260a0920301126110315760040190565b3573ffffffffffffffffffffffffffffffffffffffff811681036110315790565b9035907fffffffffffffffffffffffffffffffffffffffffffffffffffffffffffffffe181360301821215611031570180359067ffffffffffffffff82116110315760200191813603831361103157565b947fffffffffffffffffffffffffffffffffffffffffffffffffffffffffffffffe0948793601f9560c0999473ffffffffffffffffffffffffffffffffffffffff92838092168b521660208a0152166040880152606087015260a060808701528160a08701528686013760008582860101520116010190565b1561138457565b60646040517f08c379a000000000000000000000000000000000000000000000000000000000815260206004820152601960248201527f53534c3a204e6f742074727573746564206578656375746f72000000000000006044820152fd5b156113e957565b60646040517f08c379a000000000000000000000000000000000000000000000000000000000815260206004820152601160248201527f53534c3a204e6f742070726570617265640000000000000000000000000000006044820152fd5b600260015414611458576002600155565b60046040517f3ee5aeb5000000000000000000000000000000000000000000000000000000008152fd5b73ffffffffffffffffffffffffffffffffffffffff6000541633036114a357565b60246040517f118cdaa7000000000000000000000000000000000000000000000000000000008152336004820152fdfea26469706673582212204106b2694b31fc8f702b74071e30e434a198b996dc96f3bca8e8d3923a6fe33064736f6c63430008180033","linkReferences":{}},"methodIdentifiers":{"activatePrivacyGroup(bytes32)":"74440b8a","activePrivacyGroups(bytes32)":"ed185e2a","kind()":"04baa00b","owner()":"8da5cb5b","prepare((address,address,address,uint256,bytes))":"08432d57","receiptHashes(bytes32)":"326f9d2e","refund(bytes32,(address,address,address,uint256,bytes))":"cfcb5b1b","release(bytes32,(address,address,address,uint256,bytes))":"90ee1dfa","renounceOwnership()":"715018a6","setTrustedExecutor(address,bool)":"9472c8c9","status(bytes32)":"52ad0d5e","transferId((address,address,address,uint256,bytes))":"4dd6e2b5","transferOwnership(address)":"f2fde38b","transferStatus(bytes32)":"bfd79030","transfers(bytes32)":"3c64f04b","trustedExecutors(address)":"7a81d91b"},"id":42}