{"abi":[{"type":"constructor","inputs":[{"name":"_admin","type":"address","internalType":"address"},{"name":"_kyc","type":"address","internalType":"address"},{"name":"_sanctions","type":"address","internalType":"address"}],"stateMutability":"nonpayable"},{"type":"function","name":"admin","inputs":[],"outputs":[{"name":"","type":"address","internalType":"address"}],"stateMutability":"view"},{"type":"function","name":"assetAllowed","inputs":[{"name":"","type":"address","internalType":"address"}],"outputs":[{"name":"","type":"bool","internalType":"bool"}],"stateMutability":"view"},{"type":"function","name":"check","inputs":[{"name":"from","type":"address","internalType":"address"},{"name":"to","type":"address","internalType":"address"},{"name":"asset","type":"address","internalType":"address"},{"name":"","type":"uint256","internalType":"uint256"},{"name":"","type":"bytes","internalType":"bytes"}],"outputs":[{"name":"ok","type":"bool","internalType":"bool"},{"name":"reason","type":"bytes","internalType":"bytes"}],"stateMutability":"view"},{"type":"function","name":"kyc","inputs":[],"outputs":[{"name":"","type":"address","internalType":"contract IKYC"}],"stateMutability":"view"},{"type":"function","name":"sanctions","inputs":[],"outputs":[{"name":"","type":"address","internalType":"contract ISanctionsView"}],"stateMutability":"view"},{"type":"function","name":"setAssetAllowed","inputs":[{"name":"asset","type":"address","internalType":"address"},{"name":"allowed","type":"bool","internalType":"bool"}],"outputs":[],"stateMutability":"nonpayable"},{"type":"function","name":"setKYC","inputs":[{"name":"k","type":"address","internalType":"address"}],"outputs":[],"stateMutability":"nonpayable"},{"type":"function","name":"setSanctions","inputs":[{"name":"s","type":"address","internalType":"address"}],"outputs":[],"stateMutability":"nonpayable"},{"type":"function","name":"transferAdmin","inputs":[{"name":"to","type":"address","internalType":"address"}],"outputs":[],"stateMutability":"nonpayable"},{"type":"event","name":"AdminTransferred","inputs":[{"name":"from","type":"address","indexed":true,"internalType":"address"},{"name":"to","type":"address","indexed":true,"internalType":"address"}],"anonymous":false},{"type":"event","name":"AssetAllowed","inputs":[{"name":"asset","type":"address","indexed":true,"internalType":"address"},{"name":"allowed","type":"bool","indexed":false,"internalType":"bool"}],"anonymous":false},{"type":"event","name":"KYCSet","inputs":[{"name":"kyc","type":"address","indexed":true,"internalType":"address"}],"anonymous":false},{"type":"event","name":"SanctionsSet","inputs":[{"name":"oracle","type":"address","indexed":true,"internalType":"address"}],"anonymous":false}],"bytecode":{"object":"0x6080346100db57601f610c1838819003918201601f19168301916001600160401b038311848410176100e0578084926060946040528339810103126100db57610047816100f6565b61005f6040610058602085016100f6565b93016100f6565b6001600160a01b039182169283156100a857829060018060a01b0319948560005416176000551683600154161760015516906002541617600255604051610b0d908161010b8239f35b60405162461bcd60e51b815260206004820152600b60248201526a0434d3a2061646d696e20360ac1b6044820152606490fd5b600080fd5b634e487b7160e01b600052604160045260246000fd5b51906001600160a01b03821682036100db5756fe60806040818152600436101561001457600080fd5b600091823560e01c9081631a12d585146105f257508063483a83df14610544578063716d3dcb146104de57806375829def146103ca57806390d6b45f14610378578063b4ead4771461025a578063d948ec90146101a9578063e53c0456146100d85763f851a4401461008557600080fd5b346100d457817ffffffffffffffffffffffffffffffffffffffffffffffffffffffffffffffffc3601126100d45773ffffffffffffffffffffffffffffffffffffffff60209254169051908152f35b5080fd5b50346100d457807ffffffffffffffffffffffffffffffffffffffffffffffffffffffffffffffffc3601126100d45761010f610642565b602435908115158092036101a5577fa918a4160e8216eca57d47b5ff3d7d37f630f73f4df2077816c15786f8fe296e9160209173ffffffffffffffffffffffffffffffffffffffff9061016682885416331461066a565b1693848652600383528086207fffffffffffffffffffffffffffffffffffffffffffffffffffffffffffffff0081541660ff841617905551908152a280f35b8380fd5b82346102575760207ffffffffffffffffffffffffffffffffffffffffffffffffffffffffffffffffc360112610257576101e1610642565b73ffffffffffffffffffffffffffffffffffffffff9061020582845416331461066a565b16807fffffffffffffffffffffffff000000000000000000000000000000000000000060025416176002557f18a450cd8009c61d77f925767179fd4e5048a80fa3b84a9843c8088920dcb63f8280a280f35b80fd5b50346100d45760a07ffffffffffffffffffffffffffffffffffffffffffffffffffffffffffffffffc3601126100d457610292610642565b73ffffffffffffffffffffffffffffffffffffffff60243581811681036103705760443591821682036103705760843567ffffffffffffffff80821161037457366023830112156103745781600401359081116103745736910160240111610370576102fd926107a2565b9282519384921515835260209084602085015280518095850152825b85811061035957505050601f837fffffffffffffffffffffffffffffffffffffffffffffffffffffffffffffffe092606080968601015201168101030190f35b818101830151878201606001528694508201610319565b8480fd5b8680fd5b50346100d457817ffffffffffffffffffffffffffffffffffffffffffffffffffffffffffffffffc3601126100d45760209073ffffffffffffffffffffffffffffffffffffffff600154169051908152f35b50346100d45760207ffffffffffffffffffffffffffffffffffffffffffffffffffffffffffffffffc3601126100d457610402610642565b82549073ffffffffffffffffffffffffffffffffffffffff8083169161042983331461066a565b16928315610481575090827fffffffffffffffffffffffff0000000000000000000000000000000000000000927ff8ccb027dfcd135e000e9d45e6cc2d662578a8825d4c45b5e32e0adf67e79ec68680a31617815580f35b606490517f08c379a000000000000000000000000000000000000000000000000000000000815260206004820152600560248201527f434d3a20300000000000000000000000000000000000000000000000000000006044820152fd5b50346100d45760207ffffffffffffffffffffffffffffffffffffffffffffffffffffffffffffffffc3601126100d45760ff8160209373ffffffffffffffffffffffffffffffffffffffff610531610642565b1681526003855220541690519015158152f35b82346102575760207ffffffffffffffffffffffffffffffffffffffffffffffffffffffffffffffffc3601126102575761057c610642565b73ffffffffffffffffffffffffffffffffffffffff906105a082845416331461066a565b16807fffffffffffffffffffffffff000000000000000000000000000000000000000060015416176001557fe3330756cea6e0de3d0f98435fba14523b866b22dbbeebd022b23c6e4ccdecab8280a280f35b8390346100d457817ffffffffffffffffffffffffffffffffffffffffffffffffffffffffffffffffc3601126100d45760209073ffffffffffffffffffffffffffffffffffffffff600254168152f35b6004359073ffffffffffffffffffffffffffffffffffffffff8216820361066557565b600080fd5b1561067157565b60646040517f08c379a000000000000000000000000000000000000000000000000000000000815260206004820152600d60248201527f434d3a206e6f742061646d696e000000000000000000000000000000000000006044820152fd5b6040810190811067ffffffffffffffff8211176106eb57604052565b7f4e487b7100000000000000000000000000000000000000000000000000000000600052604160045260246000fd5b90601f7fffffffffffffffffffffffffffffffffffffffffffffffffffffffffffffffe0910116810190811067ffffffffffffffff8211176106eb57604052565b5190811515820361066557565b91908260809103126106655761077d8261075b565b916020810151916060604083015192015167ffffffffffffffff811681036106655790565b919073ffffffffffffffffffffffffffffffffffffffff9283600254168061099b575b50836001541680610863575b505050168015159081610849575b5061080c57604051906020820182811067ffffffffffffffff8211176106eb576040526000825260019190565b60405190610819826106cf565b601182527f41535345545f4e4f545f414c4c4f574544000000000000000000000000000000602083015260009190565b9050600052600360205260ff6040600020541615386107df565b604051857f469e906700000000000000000000000000000000000000000000000000000000938483521660048201526080938482602481865afa9384156109685787938693600096610974575b5090602491604051958694859384521660048301525afa92831561096857600093610936575b50501590811561092d575b506108ee573880806107d1565b5050604051906108fd826106cf565b601082527f4b59435f4e4f545f415050524f56454400000000000000000000000000000000602083015260009190565b905015386108e1565b610956929350803d10610961575b61094e818361071a565b810190610768565b5050509038806108d6565b503d610944565b6040513d6000823e3d90fd5b60249291965061099090853d87116109615761094e818361071a565b5050509590916108b0565b604051907fdf592f7d000000000000000000000000000000000000000000000000000000009081835286841660048401526020928381602481855afa928315610968578491600094610a9f575b508315610a39575b505050156107c5579493505050507f53414e4354494f4e45440000000000000000000000000000000000000000000060405192610a2c846106cf565b600a845283015260009190565b9091925060246040518094819382528a891660048301525afa90811561096857600091610a6a575b503882816109f0565b90508181813d8311610a98575b610a81818361071a565b8101031261066557610a929061075b565b38610a61565b503d610a77565b8281939295503d8311610ad0575b610ab7818361071a565b8101031261066557610ac9849161075b565b92386109e8565b503d610aad56fea26469706673582212202d570ea258ef8ef0ca2fc73804e55bbb8491c616d1c0babfa18bbcc2d9681c2764736f6c63430008180033","linkReferences":{}},"methodIdentifiers":{"admin()":"f851a440","assetAllowed(address)":"716d3dcb","check(address,address,address,uint256,bytes)":"b4ead477","kyc()":"90d6b45f","sanctions()":"1a12d585","setAssetAllowed(address,bool)":"e53c0456","setKYC(address)":"483a83df","setSanctions(address)":"d948ec90","transferAdmin(address)":"75829def"},"id":4}