{"abi":[{"type":"constructor","inputs":[{"name":"admin","type":"address","internalType":"address"},{"name":"reg","type":"address","internalType":"contract IComplianceRegistry"}],"stateMutability":"nonpayable"},{"type":"function","name":"DEFAULT_ADMIN_ROLE","inputs":[],"outputs":[{"name":"","type":"bytes32","internalType":"bytes32"}],"stateMutability":"view"},{"type":"function","name":"ROLE_ADMIN","inputs":[],"outputs":[{"name":"","type":"bytes32","internalType":"bytes32"}],"stateMutability":"view"},{"type":"function","name":"ROLE_MANAGER","inputs":[],"outputs":[{"name":"","type":"bytes32","internalType":"bytes32"}],"stateMutability":"view"},{"type":"function","name":"claim","inputs":[{"name":"id","type":"uint256","internalType":"uint256"},{"name":"index","type":"uint256","internalType":"uint256"},{"name":"account","type":"address","internalType":"address"},{"name":"amount","type":"uint256","internalType":"uint256"},{"name":"merkleProof","type":"bytes32[]","internalType":"bytes32[]"}],"outputs":[],"stateMutability":"nonpayable"},{"type":"function","name":"compliance","inputs":[],"outputs":[{"name":"","type":"address","internalType":"contract IComplianceRegistry"}],"stateMutability":"view"},{"type":"function","name":"createDistribution","inputs":[{"name":"asset","type":"address","internalType":"contract IERC20"},{"name":"partition","type":"bytes32","internalType":"bytes32"},{"name":"merkleRoot","type":"bytes32","internalType":"bytes32"},{"name":"totalAmount","type":"uint256","internalType":"uint256"},{"name":"deadline","type":"uint64","internalType":"uint64"},{"name":"uri","type":"string","internalType":"string"},{"name":"fundFrom","type":"address","internalType":"address"}],"outputs":[{"name":"id","type":"uint256","internalType":"uint256"}],"stateMutability":"nonpayable"},{"type":"function","name":"dists","inputs":[{"name":"","type":"uint256","internalType":"uint256"}],"outputs":[{"name":"asset","type":"address","internalType":"contract IERC20"},{"name":"partition","type":"bytes32","internalType":"bytes32"},{"name":"merkleRoot","type":"bytes32","internalType":"bytes32"},{"name":"totalAmount","type":"uint256","internalType":"uint256"},{"name":"claimedAmount","type":"uint256","internalType":"uint256"},{"name":"createdAt","type":"uint64","internalType":"uint64"},{"name":"deadline","type":"uint64","internalType":"uint64"},{"name":"active","type":"bool","internalType":"bool"},{"name":"uri","type":"string","internalType":"string"}],"stateMutability":"view"},{"type":"function","name":"getRoleAdmin","inputs":[{"name":"role","type":"bytes32","internalType":"bytes32"}],"outputs":[{"name":"","type":"bytes32","internalType":"bytes32"}],"stateMutability":"view"},{"type":"function","name":"grantRole","inputs":[{"name":"role","type":"bytes32","internalType":"bytes32"},{"name":"account","type":"address","internalType":"address"}],"outputs":[],"stateMutability":"nonpayable"},{"type":"function","name":"hasRole","inputs":[{"name":"role","type":"bytes32","internalType":"bytes32"},{"name":"account","type":"address","internalType":"address"}],"outputs":[{"name":"","type":"bool","internalType":"bool"}],"stateMutability":"view"},{"type":"function","name":"isClaimed","inputs":[{"name":"id","type":"uint256","internalType":"uint256"},{"name":"index","type":"uint256","internalType":"uint256"}],"outputs":[{"name":"","type":"bool","internalType":"bool"}],"stateMutability":"view"},{"type":"function","name":"lastId","inputs":[],"outputs":[{"name":"","type":"uint256","internalType":"uint256"}],"stateMutability":"view"},{"type":"function","name":"pause","inputs":[],"outputs":[],"stateMutability":"nonpayable"},{"type":"function","name":"paused","inputs":[],"outputs":[{"name":"","type":"bool","internalType":"bool"}],"stateMutability":"view"},{"type":"function","name":"renounceRole","inputs":[{"name":"role","type":"bytes32","internalType":"bytes32"},{"name":"callerConfirmation","type":"address","internalType":"address"}],"outputs":[],"stateMutability":"nonpayable"},{"type":"function","name":"revokeRole","inputs":[{"name":"role","type":"bytes32","internalType":"bytes32"},{"name":"account","type":"address","internalType":"address"}],"outputs":[],"stateMutability":"nonpayable"},{"type":"function","name":"setCompliance","inputs":[{"name":"reg","type":"address","internalType":"contract IComplianceRegistry"}],"outputs":[],"stateMutability":"nonpayable"},{"type":"function","name":"supportsInterface","inputs":[{"name":"interfaceId","type":"bytes4","internalType":"bytes4"}],"outputs":[{"name":"","type":"bool","internalType":"bool"}],"stateMutability":"view"},{"type":"function","name":"sweep","inputs":[{"name":"id","type":"uint256","internalType":"uint256"},{"name":"to","type":"address","internalType":"address"}],"outputs":[],"stateMutability":"nonpayable"},{"type":"function","name":"unpause","inputs":[],"outputs":[],"stateMutability":"nonpayable"},{"type":"event","name":"Claimed","inputs":[{"name":"id","type":"uint256","indexed":true,"internalType":"uint256"},{"name":"index","type":"uint256","indexed":true,"internalType":"uint256"},{"name":"account","type":"address","indexed":true,"internalType":"address"},{"name":"amount","type":"uint256","indexed":false,"internalType":"uint256"}],"anonymous":false},{"type":"event","name":"ComplianceSet","inputs":[{"name":"registry","type":"address","indexed":false,"internalType":"address"}],"anonymous":false},{"type":"event","name":"DistributionCreated","inputs":[{"name":"id","type":"uint256","indexed":true,"internalType":"uint256"},{"name":"asset","type":"address","indexed":true,"internalType":"address"},{"name":"partition","type":"bytes32","indexed":true,"internalType":"bytes32"},{"name":"merkleRoot","type":"bytes32","indexed":false,"internalType":"bytes32"},{"name":"totalAmount","type":"uint256","indexed":false,"internalType":"uint256"},{"name":"deadline","type":"uint64","indexed":false,"internalType":"uint64"},{"name":"uri","type":"string","indexed":false,"internalType":"string"}],"anonymous":false},{"type":"event","name":"Paused","inputs":[],"anonymous":false},{"type":"event","name":"Paused","inputs":[{"name":"account","type":"address","indexed":false,"internalType":"address"}],"anonymous":false},{"type":"event","name":"RoleAdminChanged","inputs":[{"name":"role","type":"bytes32","indexed":true,"internalType":"bytes32"},{"name":"previousAdminRole","type":"bytes32","indexed":true,"internalType":"bytes32"},{"name":"newAdminRole","type":"bytes32","indexed":true,"internalType":"bytes32"}],"anonymous":false},{"type":"event","name":"RoleGranted","inputs":[{"name":"role","type":"bytes32","indexed":true,"internalType":"bytes32"},{"name":"account","type":"address","indexed":true,"internalType":"address"},{"name":"sender","type":"address","indexed":true,"internalType":"address"}],"anonymous":false},{"type":"event","name":"RoleRevoked","inputs":[{"name":"role","type":"bytes32","indexed":true,"internalType":"bytes32"},{"name":"account","type":"address","indexed":true,"internalType":"address"},{"name":"sender","type":"address","indexed":true,"internalType":"address"}],"anonymous":false},{"type":"event","name":"Swept","inputs":[{"name":"id","type":"uint256","indexed":true,"internalType":"uint256"},{"name":"to","type":"address","indexed":false,"internalType":"address"},{"name":"amount","type":"uint256","indexed":false,"internalType":"uint256"}],"anonymous":false},{"type":"event","name":"Unpaused","inputs":[],"anonymous":false},{"type":"event","name":"Unpaused","inputs":[{"name":"account","type":"address","indexed":false,"internalType":"address"}],"anonymous":false},{"type":"error","name":"AccessControlBadConfirmation","inputs":[]},{"type":"error","name":"AccessControlUnauthorizedAccount","inputs":[{"name":"account","type":"address","internalType":"address"},{"name":"neededRole","type":"bytes32","internalType":"bytes32"}]},{"type":"error","name":"AddressEmptyCode","inputs":[{"name":"target","type":"address","internalType":"address"}]},{"type":"error","name":"AddressInsufficientBalance","inputs":[{"name":"account","type":"address","internalType":"address"}]},{"type":"error","name":"EnforcedPause","inputs":[]},{"type":"error","name":"ExpectedPause","inputs":[]},{"type":"error","name":"FailedInnerCall","inputs":[]},{"type":"error","name":"SafeERC20FailedOperation","inputs":[{"name":"token","type":"address","internalType":"address"}]}],"bytecode":{"object":"0x608034620000ab57601f62001fba38819003918201601f19168301916001600160401b03831184841017620000b0578084926040948552833981010312620000ab5780516001600160a01b03918282168203620000ab5760200151918216809203620000ab57620000869060ff19600154166001556200007f81620000c6565b5062000168565b50600480546001600160a01b031916919091179055604051611d949081620002068239f35b600080fd5b634e487b7160e01b600052604160045260246000fd5b6001600160a01b031660008181527ff2d002f32e1e256ea1e928747b1832023316be30886ca415b888f7c67dd776c360205260408120549091907f2172861495e7b85edac73e3cd5fbb42dd675baadf627720e687bcfdaca0250969060ff166200016357808352826020526040832082845260205260408320600160ff1982541617905560008051602062001f9a833981519152339380a4600190565b505090565b6001600160a01b031660008181527fe179d4413806b7976dede8a47cbca96dcaa3e2e45cab2f4c6e4986ac667e82a560205260408120549091907ff206625bad3d9112d5609b8d356e6fbd514cd1f69980d4ce2b3e6e68e1789ace9060ff166200016357808352826020526040832082845260205260408320600160ff1982541617905560008051602062001f9a833981519152339380a460019056fe608080604052600436101561001357600080fd5b60003560e01c90816301ffc9a7146116ab57508063248a9ca31461165e5780632f2ff15d1461160157806336568abe146115775780633f4ba83a146114945780635c975abb146114535780635d4df3bf14610ef55780636290865d14610ea35780638456cb5914610de95780638ee091e3146107cb57806391d1485414610752578063a217fddf14610718578063c1292cc3146106dc578063cbf9b84b1461050f578063d391014b146104b6578063d547741f14610457578063dc8999b414610276578063f364c90c14610208578063f5b944eb146101af5763f8981789146100fb57600080fd5b346101aa5760207ffffffffffffffffffffffffffffffffffffffffffffffffffffffffffffffffc3601126101aa5760043573ffffffffffffffffffffffffffffffffffffffff81168091036101aa5760207fa970409706553acbb8c86c1bc79621a1e9decfe2e5f083d3ee9dc215d07cea399161017761189b565b807fffffffffffffffffffffffff00000000000000000000000000000000000000006004541617600455604051908152a1005b600080fd5b346101aa5760007ffffffffffffffffffffffffffffffffffffffffffffffffffffffffffffffffc3601126101aa5760206040517ff206625bad3d9112d5609b8d356e6fbd514cd1f69980d4ce2b3e6e68e1789ace8152f35b346101aa5760407ffffffffffffffffffffffffffffffffffffffffffffffffffffffffffffffffc3601126101aa57602061026c602435600435600052600360205260406000208160081c600052602052600160ff60406000205492161b16151590565b6040519015158152f35b346101aa576020807ffffffffffffffffffffffffffffffffffffffffffffffffffffffffffffffffc3601126101aa5760043560005260028152604060002073ffffffffffffffffffffffffffffffffffffffff8154166001926001830154926002810154906003810154906004810154600582015492600667ffffffffffffffff9301946040519560009a81549161030e8361178a565b808a52926001811690811561041857506001146103de575b50505061033b8660ff9798999a9b03886117dd565b60405199610120998b52888b015260408a01526060890152608088015280821660a08801528160401c1660c087015260801c16151560e0850152826101008501528051809385015260005b8381106103c957505050817fffffffffffffffffffffffffffffffffffffffffffffffffffffffffffffffe0601f61014093600085828601015201168101030190f35b81810183015185820161014001528201610386565b6000908152898120909c505b828d106104055750505098850186019861033b8660ff610326565b8054898e018b01529b89019b81016103ea565b7fffffffffffffffffffffffffffffffffffffffffffffffffffffffffffffff00168a8c0152505050151560051b86018701995061033b8660ff610326565b346101aa5760407ffffffffffffffffffffffffffffffffffffffffffffffffffffffffffffffffc3601126101aa576104b4600435610494611767565b908060005260006020526104af60016040600020015461198a565b611a5a565b005b346101aa5760007ffffffffffffffffffffffffffffffffffffffffffffffffffffffffffffffffc3601126101aa5760206040517f2172861495e7b85edac73e3cd5fbb42dd675baadf627720e687bcfdaca0250968152f35b346101aa5760407ffffffffffffffffffffffffffffffffffffffffffffffffffffffffffffffffc3601126101aa57600435610549611767565b61055161192e565b610559611afb565b816000526002602052604060002090600582019081549161057f60ff8460801c1661181e565b67ffffffffffffffff8360401c1680610671575b50600384015460048501549182820394828611610642577fffffffffffffffffffffffffffffff00ffffffffffffffffffffffffffffffff169055036105d557005b610618828273ffffffffffffffffffffffffffffffffffffffff7f635115695722305cd48dbad76225961b39079f2cf952cc198f13fb4904cf3512965416611b31565b6040805173ffffffffffffffffffffffffffffffffffffffff9290921682526020820192909252a2005b7f4e487b7100000000000000000000000000000000000000000000000000000000600052601160045260246000fd5b42111561067e5785610593565b60646040517f08c379a000000000000000000000000000000000000000000000000000000000815260206004820152600b60248201527f6e6f7420657870697265640000000000000000000000000000000000000000006044820152fd5b346101aa5760007ffffffffffffffffffffffffffffffffffffffffffffffffffffffffffffffffc3601126101aa576020600554604051908152f35b346101aa5760007ffffffffffffffffffffffffffffffffffffffffffffffffffffffffffffffffc3601126101aa57602060405160008152f35b346101aa5760407ffffffffffffffffffffffffffffffffffffffffffffffffffffffffffffffffc3601126101aa57610789611767565b600435600052600060205273ffffffffffffffffffffffffffffffffffffffff60406000209116600052602052602060ff604060002054166040519015158152f35b346101aa5760e07ffffffffffffffffffffffffffffffffffffffffffffffffffffffffffffffffc3601126101aa5773ffffffffffffffffffffffffffffffffffffffff8060043516600435036101aa5767ffffffffffffffff60843516608435036101aa5767ffffffffffffffff60a435116101aa5736602360a4350112156101aa5767ffffffffffffffff60a43560040135116101aa5736602460a4356004013560a4350101116101aa5760c4359080821682036101aa5761088d61192e565b610895611afb565b806004351615610d8b5760443515610d2d5760643515610ccf57600554907fffffffffffffffffffffffffffffffffffffffffffffffffffffffffffffffff82146106425760018201600555600182016000526002602052604060002081600435167fffffffffffffffffffffffff00000000000000000000000000000000000000008254161781556024356001820155604435600282015560643560038201556005810170010000000000000000000000000000000081547fffffffffffffffffffffffffffffff000000000000000000000000000000000067ffffffffffffffff42169116176fffffffffffffffff000000000000000060843560401b16171790556109a6600682015461178a565b601f8111610c7c575b506000601f60a4356004013511600114610b945760069060009060a43560040135610b84575b5060a4356004013560011b907fffffffffffffffffffffffffffffffffffffffffffffffffffffffffffffffff60a4356004013560031b1c1916179101555b808316610ae4575b6020925060405160443581526064358482015267ffffffffffffffff6084351660408201526080606082015260a43560040135608082015260a43560040135602460a4350160a0830137600060a060a43560040135830101526024359160043516907f48283461462e1db18220221c916e8f92490ace3c89165c3913abaca3d1f23f3d600185019160a0817fffffffffffffffffffffffffffffffffffffffffffffffffffffffffffffffe0601f60a4356004013501168101030190a4600160405191018152f35b80604051937f23b872dd00000000000000000000000000000000000000000000000000000000602086015216602484015230604484015260643560648401526064835260a0830183811067ffffffffffffffff821117610b5557602093610b5091604052600435611b9a565b610a1c565b7f4e487b7100000000000000000000000000000000000000000000000000000000600052604160045260246000fd5b6024915060a435010135866109d5565b6006820160005260206000209060005b7fffffffffffffffffffffffffffffffffffffffffffffffffffffffffffffffe060a43560040135168110610c5f5750600460a43501357fffffffffffffffffffffffffffffffffffffffffffffffffffffffffffffffe0811610610c1c575b50506006600160a43560040135811b01910155610a14565b60247fffffffffffffffffffffffffffffffffffffffffffffffffffffffffffffffff60f860a4356004013560031b161c199160a4350101351690558480610c04565b909160206001819260248660a43501013581550193019101610ba4565b600682016000526020600020601f60a435600401350160051c8101602060a4356004013510610cc8575b601f830160051c82018110610cbc5750506109af565b60008155600101610ca6565b5080610ca6565b60646040517f08c379a000000000000000000000000000000000000000000000000000000000815260206004820152600860248201527f616d6f756e743d300000000000000000000000000000000000000000000000006044820152fd5b60646040517f08c379a000000000000000000000000000000000000000000000000000000000815260206004820152600660248201527f726f6f743d3000000000000000000000000000000000000000000000000000006044820152fd5b60646040517f08c379a000000000000000000000000000000000000000000000000000000000815260206004820152600760248201527f61737365743d30000000000000000000000000000000000000000000000000006044820152fd5b346101aa5760007ffffffffffffffffffffffffffffffffffffffffffffffffffffffffffffffffc3601126101aa57610e2061189b565b610e28611afb565b60017fffffffffffffffffffffffffffffffffffffffffffffffffffffffffffffff00815416176001557f62e78cea01bee320cd4e420270b5ea74000d11b0c9f74754ebdbfc544b05a2586020604051338152a17f9e87fac88ff661f02d44f95383c817fece4bce600a3dab7a54406878b965e752600080a1005b346101aa5760007ffffffffffffffffffffffffffffffffffffffffffffffffffffffffffffffffc3601126101aa57602073ffffffffffffffffffffffffffffffffffffffff60045416604051908152f35b346101aa5760a07ffffffffffffffffffffffffffffffffffffffffffffffffffffffffffffffffc3601126101aa5773ffffffffffffffffffffffffffffffffffffffff60443516604435036101aa5767ffffffffffffffff608435116101aa573660236084350112156101aa5767ffffffffffffffff60843560040135116101aa573660246084356004013560051b6084350101116101aa57610f97611afb565b6004356000526002602052604060002067ffffffffffffffff6005820154610fc460ff8260801c1661181e565b60401c16806113e9575b50611002602435600435600052600360205260406000208160081c600052602052600160ff60406000205492161b16151590565b61138b5773ffffffffffffffffffffffffffffffffffffffff6004541680611288575b5060405190602435602083015273ffffffffffffffffffffffffffffffffffffffff60443516604083015260643560608301526060825281608081011067ffffffffffffffff608084011117610b5557608082016040528151602083012060a0830152602060808301526080820160c083011067ffffffffffffffff60c084011117610b555760c08201604052608082015160a0830120906002810154916110dc60206084356004013560051b0160c086016117dd565b608435600481013560c086015260240160e085015b60246084356004013560051b60843501018210611278575050906000915b60c08501518310156111595760e08360051b860101519081811060001461114657600052602052600160406000205b92019161110f565b906000526020526001604060002061113e565b830361121a576004356000526003602052604060002060243560081c6000526020526040600020600160ff602435161b8154179055600481019081546064358101809111610642576111ca92556064359073ffffffffffffffffffffffffffffffffffffffff604435915416611b31565b604051606435815273ffffffffffffffffffffffffffffffffffffffff6044351690602435907fb94bf7f9302edf52a596286915a69b4b0685574cffdedd0712e3c62f2550f0ba602060043592a4005b60646040517f08c379a000000000000000000000000000000000000000000000000000000000815260206004820152600960248201527f6261642070726f6f6600000000000000000000000000000000000000000000006044820152fd5b81358152602091820191016110f1565b6020602491604051928380927fa200e5d000000000000000000000000000000000000000000000000000000000825273ffffffffffffffffffffffffffffffffffffffff6044351660048301525afa90811561137f57600091611350575b50156112f25781611025565b60646040517f08c379a000000000000000000000000000000000000000000000000000000000815260206004820152600a60248201527f636f6d706c69616e6365000000000000000000000000000000000000000000006044820152fd5b611372915060203d602011611378575b61136a81836117dd565b810190611883565b826112e6565b503d611360565b6040513d6000823e3d90fd5b60646040517f08c379a000000000000000000000000000000000000000000000000000000000815260206004820152600760248201527f636c61696d6564000000000000000000000000000000000000000000000000006044820152fd5b42116113f55781610fce565b60646040517f08c379a000000000000000000000000000000000000000000000000000000000815260206004820152600760248201527f65787069726564000000000000000000000000000000000000000000000000006044820152fd5b346101aa5760007ffffffffffffffffffffffffffffffffffffffffffffffffffffffffffffffffc3601126101aa57602060ff600154166040519015158152f35b346101aa5760007ffffffffffffffffffffffffffffffffffffffffffffffffffffffffffffffffc3601126101aa576114cb61189b565b60015460ff81161561154d577fffffffffffffffffffffffffffffffffffffffffffffffffffffffffffffff00166001557f5db9ee0a495bf2e6ff9c91a7834c1ba4fdd244a5e8aa4e537bd38aeae4b073aa6020604051338152a17fa45f47fdea8a1efdd9029a5691c7f759c32b7c698632b563573e155625d16933600080a1005b60046040517f8dfc202b000000000000000000000000000000000000000000000000000000008152fd5b346101aa5760407ffffffffffffffffffffffffffffffffffffffffffffffffffffffffffffffffc3601126101aa576115ae611767565b3373ffffffffffffffffffffffffffffffffffffffff8216036115d7576104b490600435611a5a565b60046040517f6697b232000000000000000000000000000000000000000000000000000000008152fd5b346101aa5760407ffffffffffffffffffffffffffffffffffffffffffffffffffffffffffffffffc3601126101aa576104b460043561163e611767565b9080600052600060205261165960016040600020015461198a565b6119b0565b346101aa5760207ffffffffffffffffffffffffffffffffffffffffffffffffffffffffffffffffc3601126101aa5760043560005260006020526020600160406000200154604051908152f35b346101aa5760207ffffffffffffffffffffffffffffffffffffffffffffffffffffffffffffffffc3601126101aa57600435907fffffffff0000000000000000000000000000000000000000000000000000000082168092036101aa57817f7965db0b000000000000000000000000000000000000000000000000000000006020931490811561173d575b5015158152f35b7f01ffc9a70000000000000000000000000000000000000000000000000000000091501483611736565b6024359073ffffffffffffffffffffffffffffffffffffffff821682036101aa57565b90600182811c921680156117d3575b60208310146117a457565b7f4e487b7100000000000000000000000000000000000000000000000000000000600052602260045260246000fd5b91607f1691611799565b90601f7fffffffffffffffffffffffffffffffffffffffffffffffffffffffffffffffe0910116810190811067ffffffffffffffff821117610b5557604052565b1561182557565b60646040517f08c379a000000000000000000000000000000000000000000000000000000000815260206004820152600860248201527f696e6163746976650000000000000000000000000000000000000000000000006044820152fd5b908160209103126101aa575180151581036101aa5790565b3360009081527ff2d002f32e1e256ea1e928747b1832023316be30886ca415b888f7c67dd776c360205260409020547f2172861495e7b85edac73e3cd5fbb42dd675baadf627720e687bcfdaca0250969060ff16156118f75750565b604490604051907fe2517d3f0000000000000000000000000000000000000000000000000000000082523360048301526024820152fd5b3360009081527fe179d4413806b7976dede8a47cbca96dcaa3e2e45cab2f4c6e4986ac667e82a560205260409020547ff206625bad3d9112d5609b8d356e6fbd514cd1f69980d4ce2b3e6e68e1789ace9060ff16156118f75750565b80600052600060205260406000203360005260205260ff60406000205416156118f75750565b906000918083528260205273ffffffffffffffffffffffffffffffffffffffff6040842092169182845260205260ff60408420541615600014611a555780835282602052604083208284526020526040832060017fffffffffffffffffffffffffffffffffffffffffffffffffffffffffffffff008254161790557f2f8788117e7eff1d82e926ec794901d17c78024a50270940304540a733656f0d339380a4600190565b505090565b906000918083528260205273ffffffffffffffffffffffffffffffffffffffff6040842092169182845260205260ff604084205416600014611a55578083528260205260408320828452602052604083207fffffffffffffffffffffffffffffffffffffffffffffffffffffffffffffff0081541690557ff6391f5c32d9c69d2a47ea670b442974b53935d1edc7fd64eb21e047a839171b339380a4600190565b60ff60015416611b0757565b60046040517fd93c0665000000000000000000000000000000000000000000000000000000008152fd5b6040517fa9059cbb00000000000000000000000000000000000000000000000000000000602082015273ffffffffffffffffffffffffffffffffffffffff929092166024830152604480830193909352918152611b9891611b936064836117dd565b611b9a565b565b73ffffffffffffffffffffffffffffffffffffffff1690600080826020829451910182865af13d15611cb1573d67ffffffffffffffff8111611c8457604051611c22939291611c11601f82017fffffffffffffffffffffffffffffffffffffffffffffffffffffffffffffffe016602001836117dd565b8152809260203d92013e5b83611cbe565b8051908115159182611c69575b5050611c385750565b602490604051907f5274afe70000000000000000000000000000000000000000000000000000000082526004820152fd5b611c7c9250602080918301019101611883565b153880611c2f565b6024837f4e487b710000000000000000000000000000000000000000000000000000000081526041600452fd5b611c229150606090611c1c565b90611cfd5750805115611cd357805190602001fd5b60046040517f1425ea42000000000000000000000000000000000000000000000000000000008152fd5b81511580611d55575b611d0e575090565b60249073ffffffffffffffffffffffffffffffffffffffff604051917f9996b315000000000000000000000000000000000000000000000000000000008352166004820152fd5b50803b15611d0656fea264697066735822122042626c3dee89a327f4c642b7e12dd6b92ab8cdab2820dedbdadc7ab76f5fe3f864736f6c634300081800332f8788117e7eff1d82e926ec794901d17c78024a50270940304540a733656f0d","linkReferences":{}},"methodIdentifiers":{"DEFAULT_ADMIN_ROLE()":"a217fddf","ROLE_ADMIN()":"d391014b","ROLE_MANAGER()":"f5b944eb","claim(uint256,uint256,address,uint256,bytes32[])":"5d4df3bf","compliance()":"6290865d","createDistribution(address,bytes32,bytes32,uint256,uint64,string,address)":"8ee091e3","dists(uint256)":"dc8999b4","getRoleAdmin(bytes32)":"248a9ca3","grantRole(bytes32,address)":"2f2ff15d","hasRole(bytes32,address)":"91d14854","isClaimed(uint256,uint256)":"f364c90c","lastId()":"c1292cc3","pause()":"8456cb59","paused()":"5c975abb","renounceRole(bytes32,address)":"36568abe","revokeRole(bytes32,address)":"d547741f","setCompliance(address)":"f8981789","supportsInterface(bytes4)":"01ffc9a7","sweep(uint256,address)":"cbf9b84b","unpause()":"3f4ba83a"},"id":23}