{"abi":[{"type":"constructor","inputs":[{"name":"admin","type":"address","internalType":"address"},{"name":"governor","type":"address","internalType":"address"}],"stateMutability":"nonpayable"},{"type":"function","name":"DEFAULT_ADMIN_ROLE","inputs":[],"outputs":[{"name":"","type":"bytes32","internalType":"bytes32"}],"stateMutability":"view"},{"type":"function","name":"GOVERNOR_ROLE","inputs":[],"outputs":[{"name":"","type":"bytes32","internalType":"bytes32"}],"stateMutability":"view"},{"type":"function","name":"claim","inputs":[{"name":"id","type":"uint256","internalType":"uint256"},{"name":"index","type":"uint256","internalType":"uint256"},{"name":"account","type":"address","internalType":"address"},{"name":"totalAmount","type":"uint256","internalType":"uint256"},{"name":"proof","type":"bytes32[]","internalType":"bytes32[]"}],"outputs":[],"stateMutability":"nonpayable"},{"type":"function","name":"claimed","inputs":[{"name":"","type":"uint256","internalType":"uint256"},{"name":"","type":"uint256","internalType":"uint256"}],"outputs":[{"name":"","type":"uint256","internalType":"uint256"}],"stateMutability":"view"},{"type":"function","name":"createEpoch","inputs":[{"name":"root","type":"bytes32","internalType":"bytes32"},{"name":"token","type":"address","internalType":"address"},{"name":"start","type":"uint64","internalType":"uint64"},{"name":"end","type":"uint64","internalType":"uint64"},{"name":"total","type":"uint256","internalType":"uint256"}],"outputs":[{"name":"id","type":"uint256","internalType":"uint256"}],"stateMutability":"nonpayable"},{"type":"function","name":"epochCount","inputs":[],"outputs":[{"name":"","type":"uint256","internalType":"uint256"}],"stateMutability":"view"},{"type":"function","name":"epochs","inputs":[{"name":"","type":"uint256","internalType":"uint256"}],"outputs":[{"name":"root","type":"bytes32","internalType":"bytes32"},{"name":"token","type":"address","internalType":"contract IERC20"},{"name":"start","type":"uint64","internalType":"uint64"},{"name":"end","type":"uint64","internalType":"uint64"},{"name":"total","type":"uint256","internalType":"uint256"},{"name":"active","type":"bool","internalType":"bool"}],"stateMutability":"view"},{"type":"function","name":"getRoleAdmin","inputs":[{"name":"role","type":"bytes32","internalType":"bytes32"}],"outputs":[{"name":"","type":"bytes32","internalType":"bytes32"}],"stateMutability":"view"},{"type":"function","name":"grantRole","inputs":[{"name":"role","type":"bytes32","internalType":"bytes32"},{"name":"account","type":"address","internalType":"address"}],"outputs":[],"stateMutability":"nonpayable"},{"type":"function","name":"hasRole","inputs":[{"name":"role","type":"bytes32","internalType":"bytes32"},{"name":"account","type":"address","internalType":"address"}],"outputs":[{"name":"","type":"bool","internalType":"bool"}],"stateMutability":"view"},{"type":"function","name":"renounceRole","inputs":[{"name":"role","type":"bytes32","internalType":"bytes32"},{"name":"callerConfirmation","type":"address","internalType":"address"}],"outputs":[],"stateMutability":"nonpayable"},{"type":"function","name":"revokeRole","inputs":[{"name":"role","type":"bytes32","internalType":"bytes32"},{"name":"account","type":"address","internalType":"address"}],"outputs":[],"stateMutability":"nonpayable"},{"type":"function","name":"supportsInterface","inputs":[{"name":"interfaceId","type":"bytes4","internalType":"bytes4"}],"outputs":[{"name":"","type":"bool","internalType":"bool"}],"stateMutability":"view"},{"type":"function","name":"vested","inputs":[{"name":"id","type":"uint256","internalType":"uint256"},{"name":"totalAmount","type":"uint256","internalType":"uint256"}],"outputs":[{"name":"v","type":"uint256","internalType":"uint256"}],"stateMutability":"view"},{"type":"event","name":"Claimed","inputs":[{"name":"id","type":"uint256","indexed":true,"internalType":"uint256"},{"name":"index","type":"uint256","indexed":true,"internalType":"uint256"},{"name":"account","type":"address","indexed":true,"internalType":"address"},{"name":"amount","type":"uint256","indexed":false,"internalType":"uint256"},{"name":"cumulative","type":"uint256","indexed":false,"internalType":"uint256"}],"anonymous":false},{"type":"event","name":"EpochCreated","inputs":[{"name":"id","type":"uint256","indexed":true,"internalType":"uint256"},{"name":"root","type":"bytes32","indexed":false,"internalType":"bytes32"},{"name":"token","type":"address","indexed":false,"internalType":"address"},{"name":"start","type":"uint64","indexed":false,"internalType":"uint64"},{"name":"end","type":"uint64","indexed":false,"internalType":"uint64"},{"name":"total","type":"uint256","indexed":false,"internalType":"uint256"}],"anonymous":false},{"type":"event","name":"RoleAdminChanged","inputs":[{"name":"role","type":"bytes32","indexed":true,"internalType":"bytes32"},{"name":"previousAdminRole","type":"bytes32","indexed":true,"internalType":"bytes32"},{"name":"newAdminRole","type":"bytes32","indexed":true,"internalType":"bytes32"}],"anonymous":false},{"type":"event","name":"RoleGranted","inputs":[{"name":"role","type":"bytes32","indexed":true,"internalType":"bytes32"},{"name":"account","type":"address","indexed":true,"internalType":"address"},{"name":"sender","type":"address","indexed":true,"internalType":"address"}],"anonymous":false},{"type":"event","name":"RoleRevoked","inputs":[{"name":"role","type":"bytes32","indexed":true,"internalType":"bytes32"},{"name":"account","type":"address","indexed":true,"internalType":"address"},{"name":"sender","type":"address","indexed":true,"internalType":"address"}],"anonymous":false},{"type":"error","name":"AccessControlBadConfirmation","inputs":[]},{"type":"error","name":"AccessControlUnauthorizedAccount","inputs":[{"name":"account","type":"address","internalType":"address"},{"name":"neededRole","type":"bytes32","internalType":"bytes32"}]}],"bytecode":{"object":"0x6080346200008257601f620013c538819003918201601f19168301916001600160401b03831184841017620000875780849260409485528339810103126200008257806200006a6200006360206200005b62000071956200009d565b93016200009d565b91620000b2565b5062000132565b506040516111d09081620001d58239f35b600080fd5b634e487b7160e01b600052604160045260246000fd5b51906001600160a01b03821682036200008257565b6001600160a01b031660008181527fad3228b676f7d3cd4284a5443f17f1962b36e491b30a40b2405849e597ba5fb5602052604081205490919060ff166200012e57818052816020526040822081835260205260408220600160ff198254161790553391600080516020620013a58339815191528180a4600190565b5090565b6001600160a01b031660008181527f6f3b488caa0dc03e5f3d9fd6a25fa8755afcfd62ccffb6e436c696bfa6b866de60205260408120549091907f7935bd0ae54bc31f548c14dba4d37c5c64b3f8ca900cb468fb8abd54d5894f559060ff16620001cf57808352826020526040832082845260205260408320600160ff19825416179055600080516020620013a5833981519152339380a4600190565b50509056fe608080604052600436101561001357600080fd5b60003560e01c90816301ffc9a714610d4c57508063064a301714610a26578063248a9ca3146109d95780632cfb415a146109b85780632f2ff15d1461095b57806336568abe146108d15780635d4df3bf1461033f578063829965cc1461030357806391d148541461028a578063a217fddf14610250578063a54ab4571461021d578063c6b61e4c14610176578063ccc574901461011d5763d547741f146100b957600080fd5b346101185760407ffffffffffffffffffffffffffffffffffffffffffffffffffffffffffffffffc360112610118576101166004356100f6610e08565b90806000526000602052610111600160406000200154611029565b6110f9565b005b600080fd5b346101185760007ffffffffffffffffffffffffffffffffffffffffffffffffffffffffffffffffc3601126101185760206040517f7935bd0ae54bc31f548c14dba4d37c5c64b3f8ca900cb468fb8abd54d5894f558152f35b346101185760207ffffffffffffffffffffffffffffffffffffffffffffffffffffffffffffffffc36011261011857600435600052600260205260c0604060002080549060018101549067ffffffffffffffff806002830154169060ff60046003850154940154169360405195865273ffffffffffffffffffffffffffffffffffffffff8116602087015260a01c16604085015260608401526080830152151560a0820152f35b346101185761022b36610e2b565b9060005260016020526040600020906000526020526020604060002054604051908152f35b346101185760007ffffffffffffffffffffffffffffffffffffffffffffffffffffffffffffffffc36011261011857602060405160008152f35b346101185760407ffffffffffffffffffffffffffffffffffffffffffffffffffffffffffffffffc360112610118576102c1610e08565b600435600052600060205273ffffffffffffffffffffffffffffffffffffffff60406000209116600052602052602060ff604060002054166040519015158152f35b346101185760007ffffffffffffffffffffffffffffffffffffffffffffffffffffffffffffffffc360112610118576020600354604051908152f35b346101185760a07ffffffffffffffffffffffffffffffffffffffffffffffffffffffffffffffffc3601126101185760443573ffffffffffffffffffffffffffffffffffffffff811681036101185767ffffffffffffffff60843511610118573660236084350112156101185767ffffffffffffffff6084356004013511610118573660246084356004013560051b6084350101116101185760043560005260026020526040600020604051906103f582610e5f565b60ff600482549283855267ffffffffffffffff600182015473ffffffffffffffffffffffffffffffffffffffff8116602088015260a01c16604086015267ffffffffffffffff6002820154166060860152600381015460808601520154161515908160a0840152816108c7575b501561086957604051602435602082015273ffffffffffffffffffffffffffffffffffffffff8316604082015260643560608201526060815280608081011067ffffffffffffffff60808301111761083a57608081016040528051602082012060a0820152602060808201526080810160c082011067ffffffffffffffff60c08301111761083a5760c08101604052608081015160a08201209180519261051860206084356004013560051b0160c08501610e7b565b608435600481013560c085015260240160e084015b60246084356004013560051b6084350101821061082a575050936000945b60c08401518610156105955760e08660051b850101519081811060001461058257600052602052600160406000205b95019461054b565b906000526020526001604060002061057a565b84036107cc576105a9606435600435610ec9565b90600435600052600160205260406000206024356000526020526040600020548083111561076e57602073ffffffffffffffffffffffffffffffffffffffff816105f560009487610ebc565b9660043585526001825260408520602435865282528660408620550151166044604051809481937fa9059cbb00000000000000000000000000000000000000000000000000000000835273ffffffffffffffffffffffffffffffffffffffff881660048401528960248401525af190811561076257600091610727575b50156106c95773ffffffffffffffffffffffffffffffffffffffff9160405193845260208401521690602435907fa189bd50040d146e005d64d0eb3ae648a95712a6c5633c1de9020a0c3f3f9d11604060043592a4005b60646040517f08c379a000000000000000000000000000000000000000000000000000000000815260206004820152600860248201527f7472616e736665720000000000000000000000000000000000000000000000006044820152fd5b90506020813d60201161075a575b8161074260209383610e7b565b81010312610118575180151581036101185784610672565b3d9150610735565b6040513d6000823e3d90fd5b60646040517f08c379a000000000000000000000000000000000000000000000000000000000815260206004820152600760248201527f6e6f7468696e67000000000000000000000000000000000000000000000000006044820152fd5b60646040517f08c379a000000000000000000000000000000000000000000000000000000000815260206004820152600560248201527f70726f6f660000000000000000000000000000000000000000000000000000006044820152fd5b813581526020918201910161052d565b7f4e487b7100000000000000000000000000000000000000000000000000000000600052604160045260246000fd5b60646040517f08c379a000000000000000000000000000000000000000000000000000000000815260206004820152600560248201527f65706f63680000000000000000000000000000000000000000000000000000006044820152fd5b9050151583610462565b346101185760407ffffffffffffffffffffffffffffffffffffffffffffffffffffffffffffffffc36011261011857610908610e08565b3373ffffffffffffffffffffffffffffffffffffffff82160361093157610116906004356110f9565b60046040517f6697b232000000000000000000000000000000000000000000000000000000008152fd5b346101185760407ffffffffffffffffffffffffffffffffffffffffffffffffffffffffffffffffc36011261011857610116600435610998610e08565b908060005260006020526109b3600160406000200154611029565b61104f565b346101185760206109d16109cb36610e2b565b90610ec9565b604051908152f35b346101185760207ffffffffffffffffffffffffffffffffffffffffffffffffffffffffffffffffc3601126101185760043560005260006020526020600160406000200154604051908152f35b346101185760a07ffffffffffffffffffffffffffffffffffffffffffffffffffffffffffffffffc36011261011857600435610a60610e08565b6044359067ffffffffffffffff80831680930361011857606435818116809103610118573360009081527f6f3b488caa0dc03e5f3d9fd6a25fa8755afcfd62ccffb6e436c696bfa6b866de6020908152604090912054909590608435907f7935bd0ae54bc31f548c14dba4d37c5c64b3f8ca900cb468fb8abd54d5894f559060ff1615610d15575085831115610cb757600354927fffffffffffffffffffffffffffffffffffffffffffffffffffffffffffffffff8414610c88576004967f32c12f4b1256e221a86134ffa134222340d27662730fa3ff87811355add7900295600160a096018099819982600355868d73ffffffffffffffffffffffffffffffffffffffff8093169560405193610b7685610e5f565b8b85528285019088825260408601908a8252600260608801958d87526080890197885260a089019a60018c5260005252604060002096518755600187019251167fffffffff000000000000000000000000000000000000000000000000000000007bffffffffffffffff00000000000000000000000000000000000000008454935160a01b16921617179055600284019151167fffffffffffffffffffffffffffffffffffffffffffffffff0000000000000000825416179055516003820155019051151560ff7fffffffffffffffffffffffffffffffffffffffffffffffffffffffffffffff00835416911617905560405194855289850152604084015260608301526080820152a2604051908152f35b7f4e487b7100000000000000000000000000000000000000000000000000000000600052601160045260246000fd5b606487604051907f08c379a00000000000000000000000000000000000000000000000000000000082526004820152600460248201527f74696d65000000000000000000000000000000000000000000000000000000006044820152fd5b604490604051907fe2517d3f0000000000000000000000000000000000000000000000000000000082523360048301526024820152fd5b346101185760207ffffffffffffffffffffffffffffffffffffffffffffffffffffffffffffffffc36011261011857600435907fffffffff00000000000000000000000000000000000000000000000000000000821680920361011857817f7965db0b0000000000000000000000000000000000000000000000000000000060209314908115610dde575b5015158152f35b7f01ffc9a70000000000000000000000000000000000000000000000000000000091501483610dd7565b6024359073ffffffffffffffffffffffffffffffffffffffff8216820361011857565b7ffffffffffffffffffffffffffffffffffffffffffffffffffffffffffffffffc6040910112610118576004359060243590565b60c0810190811067ffffffffffffffff82111761083a57604052565b90601f7fffffffffffffffffffffffffffffffffffffffffffffffffffffffffffffffe0910116810190811067ffffffffffffffff82111761083a57604052565b91908203918211610c8857565b600090815260026020526040812090604051610ee481610e5f565b8254815260018301549073ffffffffffffffffffffffffffffffffffffffff8216602082015267ffffffffffffffff809260a01c166040820191818352836002870154169060a060ff60046060840199858b526003810154608086015201541615159101528142111561101f574210156110175782610f64819242610ebc565b9551169151169003818111610fea571692828102928184041490151715610fbd578215610f9057500490565b807f4e487b7100000000000000000000000000000000000000000000000000000000602492526012600452fd5b807f4e487b7100000000000000000000000000000000000000000000000000000000602492526011600452fd5b6024837f4e487b710000000000000000000000000000000000000000000000000000000081526011600452fd5b505050505090565b5050505091505090565b80600052600060205260406000203360005260205260ff6040600020541615610d155750565b906000918083528260205273ffffffffffffffffffffffffffffffffffffffff6040842092169182845260205260ff604084205416156000146110f45780835282602052604083208284526020526040832060017fffffffffffffffffffffffffffffffffffffffffffffffffffffffffffffff008254161790557f2f8788117e7eff1d82e926ec794901d17c78024a50270940304540a733656f0d339380a4600190565b505090565b906000918083528260205273ffffffffffffffffffffffffffffffffffffffff6040842092169182845260205260ff6040842054166000146110f4578083528260205260408320828452602052604083207fffffffffffffffffffffffffffffffffffffffffffffffffffffffffffffff0081541690557ff6391f5c32d9c69d2a47ea670b442974b53935d1edc7fd64eb21e047a839171b339380a460019056fea2646970667358221220800b0c4e2fec8b5d28c49ff9485da7c742cae4ba421aa0af5432755de303d7f964736f6c634300081800332f8788117e7eff1d82e926ec794901d17c78024a50270940304540a733656f0d","linkReferences":{}},"methodIdentifiers":{"DEFAULT_ADMIN_ROLE()":"a217fddf","GOVERNOR_ROLE()":"ccc57490","claim(uint256,uint256,address,uint256,bytes32[])":"5d4df3bf","claimed(uint256,uint256)":"a54ab457","createEpoch(bytes32,address,uint64,uint64,uint256)":"064a3017","epochCount()":"829965cc","epochs(uint256)":"c6b61e4c","getRoleAdmin(bytes32)":"248a9ca3","grantRole(bytes32,address)":"2f2ff15d","hasRole(bytes32,address)":"91d14854","renounceRole(bytes32,address)":"36568abe","revokeRole(bytes32,address)":"d547741f","supportsInterface(bytes4)":"01ffc9a7","vested(uint256,uint256)":"2cfb415a"},"id":24}