{
  "_format": "hh-sol-artifact-1",
  "contractName": "EligibleReserveMock",
  "sourceName": "contracts/mocks/EligibleReserveMock.sol",
  "abi": [
    {
      "inputs": [],
      "name": "eligibleValueUSD",
      "outputs": [
        {
          "internalType": "uint256",
          "name": "",
          "type": "uint256"
        }
      ],
      "stateMutability": "view",
      "type": "function"
    },
    {
      "inputs": [
        {
          "internalType": "uint256",
          "name": "v",
          "type": "uint256"
        }
      ],
      "name": "set",
      "outputs": [],
      "stateMutability": "nonpayable",
      "type": "function"
    },
    {
      "inputs": [],
      "name": "val",
      "outputs": [
        {
          "internalType": "uint256",
          "name": "",
          "type": "uint256"
        }
      ],
      "stateMutability": "view",
      "type": "function"
    }
  ],
  "bytecode": "0x608060405234801561001057600080fd5b5060c28061001f6000396000f3fe6080604052348015600f57600080fd5b5060043610603c5760003560e01c80633c6bb436146041578063466bc7a014605b57806360fe47b1146062575b600080fd5b604960005481565b60405190815260200160405180910390f35b6000546049565b6072606d3660046074565b600055565b005b600060208284031215608557600080fd5b503591905056fea264697066735822122080d8e9c6abdc77a9b5b8f13bbbc970a5e24dba52538a6278fadc967aa417e42d64736f6c63430008180033",
  "linkReferences": {},
  "deployedLinkReferences": {}
}