{"abi":[{"type":"constructor","inputs":[{"name":"_uUSD","type":"address","internalType":"address"},{"name":"_porOracle","type":"address","internalType":"address"},{"name":"_complianceRegistry","type":"address","internalType":"address"}],"stateMutability":"nonpayable"},{"type":"function","name":"activatePrivacyGroup","inputs":[{"name":"groupId","type":"bytes32","internalType":"bytes32"}],"outputs":[],"stateMutability":"nonpayable"},{"type":"function","name":"activePrivacyGroups","inputs":[{"name":"","type":"bytes32","internalType":"bytes32"}],"outputs":[{"name":"","type":"bool","internalType":"bool"}],"stateMutability":"view"},{"type":"function","name":"complianceRegistry","inputs":[],"outputs":[{"name":"","type":"address","internalType":"address"}],"stateMutability":"view"},{"type":"function","name":"kind","inputs":[],"outputs":[{"name":"","type":"uint8","internalType":"enum IRail.Kind"}],"stateMutability":"pure"},{"type":"function","name":"owner","inputs":[],"outputs":[{"name":"","type":"address","internalType":"address"}],"stateMutability":"view"},{"type":"function","name":"porOracle","inputs":[],"outputs":[{"name":"","type":"address","internalType":"address"}],"stateMutability":"view"},{"type":"function","name":"prepare","inputs":[{"name":"xfer","type":"tuple","internalType":"struct IRail.Transfer","components":[{"name":"asset","type":"address","internalType":"address"},{"name":"from","type":"address","internalType":"address"},{"name":"to","type":"address","internalType":"address"},{"name":"amount","type":"uint256","internalType":"uint256"},{"name":"metadata","type":"bytes","internalType":"bytes"}]}],"outputs":[],"stateMutability":"payable"},{"type":"function","name":"refund","inputs":[{"name":"id","type":"bytes32","internalType":"bytes32"},{"name":"t","type":"tuple","internalType":"struct IRail.Transfer","components":[{"name":"asset","type":"address","internalType":"address"},{"name":"from","type":"address","internalType":"address"},{"name":"to","type":"address","internalType":"address"},{"name":"amount","type":"uint256","internalType":"uint256"},{"name":"metadata","type":"bytes","internalType":"bytes"}]}],"outputs":[],"stateMutability":"nonpayable"},{"type":"function","name":"release","inputs":[{"name":"id","type":"bytes32","internalType":"bytes32"},{"name":"t","type":"tuple","internalType":"struct IRail.Transfer","components":[{"name":"asset","type":"address","internalType":"address"},{"name":"from","type":"address","internalType":"address"},{"name":"to","type":"address","internalType":"address"},{"name":"amount","type":"uint256","internalType":"uint256"},{"name":"metadata","type":"bytes","internalType":"bytes"}]}],"outputs":[],"stateMutability":"nonpayable"},{"type":"function","name":"renounceOwnership","inputs":[],"outputs":[],"stateMutability":"nonpayable"},{"type":"function","name":"setComplianceRegistry","inputs":[{"name":"newRegistry","type":"address","internalType":"address"}],"outputs":[],"stateMutability":"nonpayable"},{"type":"function","name":"setPoROracle","inputs":[{"name":"newOracle","type":"address","internalType":"address"}],"outputs":[],"stateMutability":"nonpayable"},{"type":"function","name":"status","inputs":[{"name":"id","type":"bytes32","internalType":"bytes32"}],"outputs":[{"name":"","type":"uint8","internalType":"enum IRail.Status"}],"stateMutability":"view"},{"type":"function","name":"transferId","inputs":[{"name":"t","type":"tuple","internalType":"struct IRail.Transfer","components":[{"name":"asset","type":"address","internalType":"address"},{"name":"from","type":"address","internalType":"address"},{"name":"to","type":"address","internalType":"address"},{"name":"amount","type":"uint256","internalType":"uint256"},{"name":"metadata","type":"bytes","internalType":"bytes"}]}],"outputs":[{"name":"","type":"bytes32","internalType":"bytes32"}],"stateMutability":"pure"},{"type":"function","name":"transferOwnership","inputs":[{"name":"newOwner","type":"address","internalType":"address"}],"outputs":[],"stateMutability":"nonpayable"},{"type":"function","name":"transferStatus","inputs":[{"name":"","type":"bytes32","internalType":"bytes32"}],"outputs":[{"name":"","type":"uint8","internalType":"enum IRail.Status"}],"stateMutability":"view"},{"type":"function","name":"transfers","inputs":[{"name":"","type":"bytes32","internalType":"bytes32"}],"outputs":[{"name":"asset","type":"address","internalType":"address"},{"name":"from","type":"address","internalType":"address"},{"name":"to","type":"address","internalType":"address"},{"name":"amount","type":"uint256","internalType":"uint256"},{"name":"metadata","type":"bytes","internalType":"bytes"}],"stateMutability":"view"},{"type":"function","name":"uUSD","inputs":[],"outputs":[{"name":"","type":"address","internalType":"address"}],"stateMutability":"view"},{"type":"event","name":"ComplianceRegistryUpdated","inputs":[{"name":"oldRegistry","type":"address","indexed":true,"internalType":"address"},{"name":"newRegistry","type":"address","indexed":true,"internalType":"address"}],"anonymous":false},{"type":"event","name":"OwnershipTransferred","inputs":[{"name":"previousOwner","type":"address","indexed":true,"internalType":"address"},{"name":"newOwner","type":"address","indexed":true,"internalType":"address"}],"anonymous":false},{"type":"event","name":"PoROracleUpdated","inputs":[{"name":"oldOracle","type":"address","indexed":true,"internalType":"address"},{"name":"newOracle","type":"address","indexed":true,"internalType":"address"}],"anonymous":false},{"type":"event","name":"PrivacyGroupActivated","inputs":[{"name":"groupId","type":"bytes32","indexed":true,"internalType":"bytes32"}],"anonymous":false},{"type":"event","name":"RailCancelled","inputs":[{"name":"id","type":"bytes32","indexed":true,"internalType":"bytes32"}],"anonymous":false},{"type":"event","name":"RailPrepared","inputs":[{"name":"id","type":"bytes32","indexed":true,"internalType":"bytes32"},{"name":"from","type":"address","indexed":true,"internalType":"address"},{"name":"to","type":"address","indexed":true,"internalType":"address"},{"name":"asset","type":"address","indexed":false,"internalType":"address"},{"name":"amount","type":"uint256","indexed":false,"internalType":"uint256"}],"anonymous":false},{"type":"event","name":"RailRefunded","inputs":[{"name":"id","type":"bytes32","indexed":true,"internalType":"bytes32"},{"name":"to","type":"address","indexed":true,"internalType":"address"},{"name":"asset","type":"address","indexed":false,"internalType":"address"},{"name":"amount","type":"uint256","indexed":false,"internalType":"uint256"}],"anonymous":false},{"type":"event","name":"RailReleased","inputs":[{"name":"id","type":"bytes32","indexed":true,"internalType":"bytes32"},{"name":"to","type":"address","indexed":true,"internalType":"address"},{"name":"asset","type":"address","indexed":false,"internalType":"address"},{"name":"amount","type":"uint256","indexed":false,"internalType":"uint256"}],"anonymous":false},{"type":"error","name":"AddressEmptyCode","inputs":[{"name":"target","type":"address","internalType":"address"}]},{"type":"error","name":"AddressInsufficientBalance","inputs":[{"name":"account","type":"address","internalType":"address"}]},{"type":"error","name":"FailedInnerCall","inputs":[]},{"type":"error","name":"OwnableInvalidOwner","inputs":[{"name":"owner","type":"address","internalType":"address"}]},{"type":"error","name":"OwnableUnauthorizedAccount","inputs":[{"name":"account","type":"address","internalType":"address"}]},{"type":"error","name":"ReentrancyGuardReentrantCall","inputs":[]},{"type":"error","name":"SafeERC20FailedOperation","inputs":[{"name":"token","type":"address","internalType":"address"}]}],"bytecode":{"object":"0x60a0346200016c57601f62001be838819003918201601f19168301916001600160401b0383118484101762000171578084926060946040528339810103126200016c576200004d8162000187565b620000696040620000616020850162000187565b930162000187565b33156200015357600080546001600160a01b031980821633908117845560405191966001600160a01b0396909490938716907f8be0079c531659141344cd1fd0a4f28419497f9722a3daafe3b4186f6b6457e09080a360018055848216156200012357509083916080521683600554161760055516906006541617600655604051611a4b90816200019d823960805181818161021801528181610366015281816106730152818161073901528181610c4f0152610dae0152f35b62461bcd60e51b815260206004820152600b60248201526a05553523a207555534420360ac1b6044820152606490fd5b604051631e4fbdf760e01b815260006004820152602490fd5b600080fd5b634e487b7160e01b600052604160045260246000fd5b51906001600160a01b03821682036200016c5756fe608080604052600436101561001357600080fd5b60003560e01c90816304baa00b1461139b5750806308432d5714610c1d57806324ccbf7f14610b715780633644334014610b1f5780633c64f04b14610a215780634dd6e2b51461099057806352ad0d5e14610486578063715018a6146108f457806374440b8a1461085c5780638da5cb5b1461080a57806390ee1dfa14610588578063af791e15146104dc578063bfd7903014610486578063cac89c5c14610434578063cfcb5b1b1461028b578063ed185e2a1461023c578063f073235d146101cd5763f2fde38b146100e557600080fd5b346101c85760207ffffffffffffffffffffffffffffffffffffffffffffffffffffffffffffffffc3601126101c85760043573ffffffffffffffffffffffffffffffffffffffff8082168092036101c85761013e611789565b811561019757600054827fffffffffffffffffffffffff0000000000000000000000000000000000000000821617600055167f8be0079c531659141344cd1fd0a4f28419497f9722a3daafe3b4186f6b6457e0600080a3005b60246040517f1e4fbdf700000000000000000000000000000000000000000000000000000000815260006004820152fd5b600080fd5b346101c85760007ffffffffffffffffffffffffffffffffffffffffffffffffffffffffffffffffc3601126101c857602060405173ffffffffffffffffffffffffffffffffffffffff7f0000000000000000000000000000000000000000000000000000000000000000168152f35b346101c85760207ffffffffffffffffffffffffffffffffffffffffffffffffffffffffffffffffc3601126101c8576004356000526002602052602060ff604060002054166040519015158152f35b346101c857610299366115aa565b506102a261174e565b80600052600460205260ff6040600020541660058110156104055760016102c991146116e9565b8060005260036020526040600020907f368c9a8588242d513faa21c32bf5aaee15ee1150a43690313e009727607c71d36040519261030684611476565b73ffffffffffffffffffffffffffffffffffffffff808254168552808060018401541660208701908152816002850154166040880152610354600460038601549560608a01968752016114d3565b608088015261038b82825116855190847f0000000000000000000000000000000000000000000000000000000000000000166117da565b856000526004602052604060002060037fffffffffffffffffffffffffffffffffffffffffffffffffffffffffffffff0082541617905551169451169051906103fc604051928392836020909392919373ffffffffffffffffffffffffffffffffffffffff60408201951681520152565b0390a360018055005b7f4e487b7100000000000000000000000000000000000000000000000000000000600052602160045260246000fd5b346101c85760007ffffffffffffffffffffffffffffffffffffffffffffffffffffffffffffffffc3601126101c857602073ffffffffffffffffffffffffffffffffffffffff60065416604051908152f35b346101c85760207ffffffffffffffffffffffffffffffffffffffffffffffffffffffffffffffffc3601126101c85760043560005260046020526104d860ff6040600020541660405191829182611597565b0390f35b346101c85760207ffffffffffffffffffffffffffffffffffffffffffffffffffffffffffffffffc3601126101c85760043573ffffffffffffffffffffffffffffffffffffffff8082168092036101c857610535611789565b600554827fffffffffffffffffffffffff0000000000000000000000000000000000000000821617600555167fd44f811d821690f493458a7315e318f52b7a7ea7aa54fbb4e6ab4e5967c11c2c600080a3005b346101c857610596366115aa565b5061059f61174e565b806000526020906004825260ff6040600020541660058110156104055760016105c891146116e9565b8060005260038252604060002090604051916105e383611476565b73ffffffffffffffffffffffffffffffffffffffff8082541684528060018301541685850152806002830154166040850190815261062f600460038501549460608801958652016114d3565b60808601528160055416610705575b8060047fd246ccc6c6f9471c400e2ef416699d6cef45c429f224da93084d39b3f807286b9596976106988580955116875190867f0000000000000000000000000000000000000000000000000000000000000000166117da565b8760005252604060002060027fffffffffffffffffffffffffffffffffffffffffffffffffffffffffffffff0082541617905551169451169051906103fc604051928392836020909392919373ffffffffffffffffffffffffffffffffffffffff60408201951681520152565b6040517f70a082310000000000000000000000000000000000000000000000000000000081523060048201528681602481867f0000000000000000000000000000000000000000000000000000000000000000165afa9081156107fe576000916107d1575b508351111561063e57606486604051907f08c379a00000000000000000000000000000000000000000000000000000000082526004820152601a60248201527f5553523a20496e73756666696369656e742072657365727665730000000000006044820152fd5b90508681813d83116107f7575b6107e88183611492565b810103126101c857518761076a565b503d6107de565b6040513d6000823e3d90fd5b346101c85760007ffffffffffffffffffffffffffffffffffffffffffffffffffffffffffffffffc3601126101c857602073ffffffffffffffffffffffffffffffffffffffff60005416604051908152f35b346101c85760207ffffffffffffffffffffffffffffffffffffffffffffffffffffffffffffffffc3601126101c857600435610896611789565b806000526002602052604060002060017fffffffffffffffffffffffffffffffffffffffffffffffffffffffffffffff008254161790557fbf4ac58a89651610cecc904a8a7cfb284acb65def2adc9acb8d672a72ef8ec5d600080a2005b346101c85760007ffffffffffffffffffffffffffffffffffffffffffffffffffffffffffffffffc3601126101c85761092b611789565b600073ffffffffffffffffffffffffffffffffffffffff81547fffffffffffffffffffffffff000000000000000000000000000000000000000081168355167f8be0079c531659141344cd1fd0a4f28419497f9722a3daafe3b4186f6b6457e08280a3005b346101c85760206109a0366113d3565b6109a9816115fe565b610a166109b78484016115fe565b6109ea6109c6604086016115fe565b936109d4608087018761161f565b9160405196879560608b88019a0135928a611670565b037fffffffffffffffffffffffffffffffffffffffffffffffffffffffffffffffe08101835282611492565b519020604051908152f35b346101c8576020807ffffffffffffffffffffffffffffffffffffffffffffffffffffffffffffffffc3601126101c8576004356000526003602052604060002073ffffffffffffffffffffffffffffffffffffffff918282541690836001840154169360028401541692610a9c6004600383015492016114d3565b93604051958694855260208501526040840152606083015260a060808301528251928360a084015260005b848110610b08575050507fffffffffffffffffffffffffffffffffffffffffffffffffffffffffffffffe0601f83600060c080968601015201168101030190f35b81810183015186820160c001528593508201610ac7565b346101c85760007ffffffffffffffffffffffffffffffffffffffffffffffffffffffffffffffffc3601126101c857602073ffffffffffffffffffffffffffffffffffffffff60055416604051908152f35b346101c85760207ffffffffffffffffffffffffffffffffffffffffffffffffffffffffffffffffc3601126101c85760043573ffffffffffffffffffffffffffffffffffffffff8082168092036101c857610bca611789565b600654827fffffffffffffffffffffffff0000000000000000000000000000000000000000821617600655167fc7140e0388e25bee371a14064d6653138195a2ae2f2ffcd9ef90c4e8677dae8d600080a3005b610c26366113d3565b610c2e61174e565b610c37816115fe565b73ffffffffffffffffffffffffffffffffffffffff807f00000000000000000000000000000000000000000000000000000000000000001691160361133d576060810135156112df57610c89816115fe565b90610c96602082016115fe565b610ca2604083016115fe565b92610cd060808401946109ea610cb8878761161f565b90604051958694602086019860608b0135928a611670565b5190209182600052600460205260ff60406000205416600581101561040557611281576020610cff828461161f565b905010156111e2575b73ffffffffffffffffffffffffffffffffffffffff6006541661112c575b610dd3610d35602084016115fe565b73ffffffffffffffffffffffffffffffffffffffff604051917f23b872dd0000000000000000000000000000000000000000000000000000000060208401521660248201523060448201526060840135606482015260648152610d9781611476565b73ffffffffffffffffffffffffffffffffffffffff7f00000000000000000000000000000000000000000000000000000000000000001661183c565b826000526003602052610e9860406000209173ffffffffffffffffffffffffffffffffffffffff610e03856115fe565b167fffffffffffffffffffffffff000000000000000000000000000000000000000090818554161784556001840173ffffffffffffffffffffffffffffffffffffffff610e52602088016115fe565b1682825416179055600284019073ffffffffffffffffffffffffffffffffffffffff610e80604088016115fe565b1690825416179055606084013560038401558361161f565b9067ffffffffffffffff82116110fd57610eb56004840154611423565b601f81116110b6575b50600090601f8311600114610fec576004929160009183610fe1575b50507fffffffffffffffffffffffffffffffffffffffffffffffffffffffffffffffff8260011b9260031b1c1916179101555b816000526004602052604060002060017fffffffffffffffffffffffffffffffffffffffffffffffffffffffffffffff00825416179055610f50602082016115fe565b917f10876f5ef21c4a7c28973a179a5d95ec8815150f2fbf9c39ba9c73132d2589da73ffffffffffffffffffffffffffffffffffffffff610f93604085016115fe565b610fd8610f9f866115fe565b60608460405195869516991697013590836020909392919373ffffffffffffffffffffffffffffffffffffffff60408201951681520152565b0390a460018055005b013590508680610eda565b6004840160005260206000209160005b7fffffffffffffffffffffffffffffffffffffffffffffffffffffffffffffffe08516811061109e5750918391600193837fffffffffffffffffffffffffffffffffffffffffffffffffffffffffffffffe06004971610611066575b505050811b01910155610f0d565b7fffffffffffffffffffffffffffffffffffffffffffffffffffffffffffffffff60f88560031b161c19910135169055868080611058565b90926020600181928686013581550194019101610ffc565b600484016000526020600020601f840160051c8101602085106110f6575b601f830160051c820181106110ea575050610ebe565b600081556001016110d4565b50806110d4565b7f4e487b7100000000000000000000000000000000000000000000000000000000600052604160045260246000fd5b73ffffffffffffffffffffffffffffffffffffffff61114d602084016115fe565b161515806111b8575b610d265760646040517f08c379a000000000000000000000000000000000000000000000000000000000815260206004820152601660248201527f5553523a20496e76616c696420616464726573736573000000000000000000006044820152fd5b5073ffffffffffffffffffffffffffffffffffffffff6111da604084016115fe565b161515611156565b60206111ee828461161f565b90809291810103126101c8573580611207575b50610d08565b600052600260205260ff60406000205416156112235783611201565b60646040517f08c379a000000000000000000000000000000000000000000000000000000000815260206004820152601a60248201527f5553523a20496e76616c696420707269766163792067726f75700000000000006044820152fd5b60646040517f08c379a000000000000000000000000000000000000000000000000000000000815260206004820152601560248201527f5553523a20416c726561647920707265706172656400000000000000000000006044820152fd5b60646040517f08c379a000000000000000000000000000000000000000000000000000000000815260206004820152601060248201527f5553523a205a65726f20616d6f756e74000000000000000000000000000000006044820152fd5b60646040517f08c379a000000000000000000000000000000000000000000000000000000000815260206004820152600d60248201527f5553523a204e6f742075555344000000000000000000000000000000000000006044820152fd5b346101c85760007ffffffffffffffffffffffffffffffffffffffffffffffffffffffffffffffffc3601126101c85780600060209252f35b7ffffffffffffffffffffffffffffffffffffffffffffffffffffffffffffffffc906020828201126101c8576004359167ffffffffffffffff83116101c8578260a0920301126101c85760040190565b90600182811c9216801561146c575b602083101461143d57565b7f4e487b7100000000000000000000000000000000000000000000000000000000600052602260045260246000fd5b91607f1691611432565b60a0810190811067ffffffffffffffff8211176110fd57604052565b90601f7fffffffffffffffffffffffffffffffffffffffffffffffffffffffffffffffe0910116810190811067ffffffffffffffff8211176110fd57604052565b906040519182600082546114e681611423565b908184526020946001916001811690816000146115565750600114611517575b50505061151592500383611492565b565b600090815285812095935091905b81831061153e5750506115159350820101388080611506565b85548884018501529485019487945091830191611525565b9150506115159593507fffffffffffffffffffffffffffffffffffffffffffffffffffffffffffffff0091501682840152151560051b820101388080611506565b9190602083019260058210156104055752565b907ffffffffffffffffffffffffffffffffffffffffffffffffffffffffffffffffc6040818401126101c857600435926024359167ffffffffffffffff83116101c8578260a0920301126101c85760040190565b3573ffffffffffffffffffffffffffffffffffffffff811681036101c85790565b9035907fffffffffffffffffffffffffffffffffffffffffffffffffffffffffffffffe1813603018212156101c8570180359067ffffffffffffffff82116101c8576020019181360383136101c857565b947fffffffffffffffffffffffffffffffffffffffffffffffffffffffffffffffe0948793601f9560c0999473ffffffffffffffffffffffffffffffffffffffff92838092168b521660208a0152166040880152606087015260a060808701528160a08701528686013760008582860101520116010190565b156116f057565b60646040517f08c379a000000000000000000000000000000000000000000000000000000000815260206004820152601160248201527f5553523a204e6f742070726570617265640000000000000000000000000000006044820152fd5b60026001541461175f576002600155565b60046040517f3ee5aeb5000000000000000000000000000000000000000000000000000000008152fd5b73ffffffffffffffffffffffffffffffffffffffff6000541633036117aa57565b60246040517f118cdaa7000000000000000000000000000000000000000000000000000000008152336004820152fd5b6040517fa9059cbb00000000000000000000000000000000000000000000000000000000602082015273ffffffffffffffffffffffffffffffffffffffff9290921660248301526044808301939093529181526115159161183c606483611492565b73ffffffffffffffffffffffffffffffffffffffff1690600080826020829451910182865af13d15611969573d9067ffffffffffffffff821161193c57906118c491604051916118b460207fffffffffffffffffffffffffffffffffffffffffffffffffffffffffffffffe0601f8401160184611492565b82523d84602084013e5b84611975565b90815191821515928361190d575b5050506118dc5750565b602490604051907f5274afe70000000000000000000000000000000000000000000000000000000082526004820152fd5b81929350906020918101031261193857602001519081159182150361193557503880806118d2565b80fd5b5080fd5b6024837f4e487b710000000000000000000000000000000000000000000000000000000081526041600452fd5b6118c4906060906118be565b906119b4575080511561198a57805190602001fd5b60046040517f1425ea42000000000000000000000000000000000000000000000000000000008152fd5b81511580611a0c575b6119c5575090565b60249073ffffffffffffffffffffffffffffffffffffffff604051917f9996b315000000000000000000000000000000000000000000000000000000008352166004820152fd5b50803b156119bd56fea2646970667358221220d01e431005b0767ed67f21873372c55b62cf403f6283b4b35345817097afc37264736f6c63430008180033","linkReferences":{}},"methodIdentifiers":{"activatePrivacyGroup(bytes32)":"74440b8a","activePrivacyGroups(bytes32)":"ed185e2a","complianceRegistry()":"cac89c5c","kind()":"04baa00b","owner()":"8da5cb5b","porOracle()":"36443340","prepare((address,address,address,uint256,bytes))":"08432d57","refund(bytes32,(address,address,address,uint256,bytes))":"cfcb5b1b","release(bytes32,(address,address,address,uint256,bytes))":"90ee1dfa","renounceOwnership()":"715018a6","setComplianceRegistry(address)":"24ccbf7f","setPoROracle(address)":"af791e15","status(bytes32)":"52ad0d5e","transferId((address,address,address,uint256,bytes))":"4dd6e2b5","transferOwnership(address)":"f2fde38b","transferStatus(bytes32)":"bfd79030","transfers(bytes32)":"3c64f04b","uUSD()":"f073235d"},"id":40}