{"abi":[{"type":"function","name":"ADMIN_ROLE","inputs":[],"outputs":[{"name":"","type":"bytes32","internalType":"bytes32"}],"stateMutability":"view"},{"type":"function","name":"BURN_ROLE","inputs":[],"outputs":[{"name":"","type":"bytes32","internalType":"bytes32"}],"stateMutability":"view"},{"type":"function","name":"DEFAULT_ADMIN_ROLE","inputs":[],"outputs":[{"name":"","type":"bytes32","internalType":"bytes32"}],"stateMutability":"view"},{"type":"function","name":"DOMAIN_SEPARATOR","inputs":[],"outputs":[{"name":"","type":"bytes32","internalType":"bytes32"}],"stateMutability":"view"},{"type":"function","name":"MINT_ROLE","inputs":[],"outputs":[{"name":"","type":"bytes32","internalType":"bytes32"}],"stateMutability":"view"},{"type":"function","name":"ONE","inputs":[],"outputs":[{"name":"","type":"uint256","internalType":"uint256"}],"stateMutability":"view"},{"type":"function","name":"ORACLE_ROLE","inputs":[],"outputs":[{"name":"","type":"bytes32","internalType":"bytes32"}],"stateMutability":"view"},{"type":"function","name":"REBASE_ROLE","inputs":[],"outputs":[{"name":"","type":"bytes32","internalType":"bytes32"}],"stateMutability":"view"},{"type":"function","name":"UPGRADE_INTERFACE_VERSION","inputs":[],"outputs":[{"name":"","type":"string","internalType":"string"}],"stateMutability":"view"},{"type":"function","name":"activePolicy","inputs":[],"outputs":[{"name":"","type":"bytes32","internalType":"bytes32"}],"stateMutability":"view"},{"type":"function","name":"allowance","inputs":[{"name":"owner","type":"address","internalType":"address"},{"name":"spender","type":"address","internalType":"address"}],"outputs":[{"name":"","type":"uint256","internalType":"uint256"}],"stateMutability":"view"},{"type":"function","name":"approve","inputs":[{"name":"spender","type":"address","internalType":"address"},{"name":"amount","type":"uint256","internalType":"uint256"}],"outputs":[{"name":"","type":"bool","internalType":"bool"}],"stateMutability":"nonpayable"},{"type":"function","name":"balanceOf","inputs":[{"name":"account","type":"address","internalType":"address"}],"outputs":[{"name":"","type":"uint256","internalType":"uint256"}],"stateMutability":"view"},{"type":"function","name":"burn","inputs":[{"name":"from","type":"address","internalType":"address"},{"name":"amount","type":"uint256","internalType":"uint256"},{"name":"isoDocHash","type":"bytes32","internalType":"bytes32"},{"name":"uri","type":"string","internalType":"string"},{"name":"lei","type":"bytes32","internalType":"bytes32"}],"outputs":[],"stateMutability":"nonpayable"},{"type":"function","name":"carModule","inputs":[],"outputs":[{"name":"","type":"address","internalType":"contract BaselCARModule"}],"stateMutability":"view"},{"type":"function","name":"decimals","inputs":[],"outputs":[{"name":"","type":"uint8","internalType":"uint8"}],"stateMutability":"view"},{"type":"function","name":"eip712Domain","inputs":[],"outputs":[{"name":"fields","type":"bytes1","internalType":"bytes1"},{"name":"name","type":"string","internalType":"string"},{"name":"version","type":"string","internalType":"string"},{"name":"chainId","type":"uint256","internalType":"uint256"},{"name":"verifyingContract","type":"address","internalType":"address"},{"name":"salt","type":"bytes32","internalType":"bytes32"},{"name":"extensions","type":"uint256[]","internalType":"uint256[]"}],"stateMutability":"view"},{"type":"function","name":"getRoleAdmin","inputs":[{"name":"role","type":"bytes32","internalType":"bytes32"}],"outputs":[{"name":"","type":"bytes32","internalType":"bytes32"}],"stateMutability":"view"},{"type":"function","name":"grantRole","inputs":[{"name":"role","type":"bytes32","internalType":"bytes32"},{"name":"account","type":"address","internalType":"address"}],"outputs":[],"stateMutability":"nonpayable"},{"type":"function","name":"hasRole","inputs":[{"name":"role","type":"bytes32","internalType":"bytes32"},{"name":"account","type":"address","internalType":"address"}],"outputs":[{"name":"","type":"bool","internalType":"bool"}],"stateMutability":"view"},{"type":"function","name":"index","inputs":[],"outputs":[{"name":"","type":"uint256","internalType":"uint256"}],"stateMutability":"view"},{"type":"function","name":"initialize","inputs":[{"name":"admin","type":"address","internalType":"address"},{"name":"name_","type":"string","internalType":"string"},{"name":"symbol_","type":"string","internalType":"string"},{"name":"registry_","type":"address","internalType":"address"},{"name":"activePolicy_","type":"bytes32","internalType":"bytes32"},{"name":"reserveOracle_","type":"address","internalType":"address"},{"name":"carModule_","type":"address","internalType":"address"}],"outputs":[],"stateMutability":"nonpayable"},{"type":"function","name":"maxRebaseStepBps","inputs":[],"outputs":[{"name":"","type":"uint16","internalType":"uint16"}],"stateMutability":"view"},{"type":"function","name":"minReserveRatioBps","inputs":[],"outputs":[{"name":"","type":"uint16","internalType":"uint16"}],"stateMutability":"view"},{"type":"function","name":"mint","inputs":[{"name":"to","type":"address","internalType":"address"},{"name":"amount","type":"uint256","internalType":"uint256"},{"name":"isoDocHash","type":"bytes32","internalType":"bytes32"},{"name":"uri","type":"string","internalType":"string"},{"name":"lei","type":"bytes32","internalType":"bytes32"}],"outputs":[],"stateMutability":"nonpayable"},{"type":"function","name":"name","inputs":[],"outputs":[{"name":"","type":"string","internalType":"string"}],"stateMutability":"view"},{"type":"function","name":"nonces","inputs":[{"name":"owner","type":"address","internalType":"address"}],"outputs":[{"name":"","type":"uint256","internalType":"uint256"}],"stateMutability":"view"},{"type":"function","name":"pause","inputs":[],"outputs":[],"stateMutability":"nonpayable"},{"type":"function","name":"paused","inputs":[],"outputs":[{"name":"","type":"bool","internalType":"bool"}],"stateMutability":"view"},{"type":"function","name":"permit","inputs":[{"name":"owner","type":"address","internalType":"address"},{"name":"spender","type":"address","internalType":"address"},{"name":"value","type":"uint256","internalType":"uint256"},{"name":"deadline","type":"uint256","internalType":"uint256"},{"name":"v","type":"uint8","internalType":"uint8"},{"name":"r","type":"bytes32","internalType":"bytes32"},{"name":"s","type":"bytes32","internalType":"bytes32"}],"outputs":[],"stateMutability":"nonpayable"},{"type":"function","name":"proxiableUUID","inputs":[],"outputs":[{"name":"","type":"bytes32","internalType":"bytes32"}],"stateMutability":"view"},{"type":"function","name":"rebase","inputs":[{"name":"pctBps","type":"int256","internalType":"int256"},{"name":"stmtHash","type":"bytes32","internalType":"bytes32"},{"name":"uri","type":"string","internalType":"string"}],"outputs":[],"stateMutability":"nonpayable"},{"type":"function","name":"registry","inputs":[],"outputs":[{"name":"","type":"address","internalType":"contract ComplianceRegistryUpgradeable"}],"stateMutability":"view"},{"type":"function","name":"renounceRole","inputs":[{"name":"role","type":"bytes32","internalType":"bytes32"},{"name":"callerConfirmation","type":"address","internalType":"address"}],"outputs":[],"stateMutability":"nonpayable"},{"type":"function","name":"reserveOracle","inputs":[],"outputs":[{"name":"","type":"address","internalType":"contract IReserveOracle"}],"stateMutability":"view"},{"type":"function","name":"revokeRole","inputs":[{"name":"role","type":"bytes32","internalType":"bytes32"},{"name":"account","type":"address","internalType":"address"}],"outputs":[],"stateMutability":"nonpayable"},{"type":"function","name":"setCARModule","inputs":[{"name":"c","type":"address","internalType":"address"}],"outputs":[],"stateMutability":"nonpayable"},{"type":"function","name":"setGuards","inputs":[{"name":"_maxRebaseStepBps","type":"uint16","internalType":"uint16"},{"name":"_minReserveRatioBps","type":"uint16","internalType":"uint16"}],"outputs":[],"stateMutability":"nonpayable"},{"type":"function","name":"setPolicy","inputs":[{"name":"pid","type":"bytes32","internalType":"bytes32"}],"outputs":[],"stateMutability":"nonpayable"},{"type":"function","name":"setReserveOracle","inputs":[{"name":"o","type":"address","internalType":"address"}],"outputs":[],"stateMutability":"nonpayable"},{"type":"function","name":"setTravelRule","inputs":[{"name":"t","type":"address","internalType":"address"},{"name":"on","type":"bool","internalType":"bool"},{"name":"ttlSec","type":"uint64","internalType":"uint64"}],"outputs":[],"stateMutability":"nonpayable"},{"type":"function","name":"supportsInterface","inputs":[{"name":"interfaceId","type":"bytes4","internalType":"bytes4"}],"outputs":[{"name":"","type":"bool","internalType":"bool"}],"stateMutability":"view"},{"type":"function","name":"symbol","inputs":[],"outputs":[{"name":"","type":"string","internalType":"string"}],"stateMutability":"view"},{"type":"function","name":"totalSupply","inputs":[],"outputs":[{"name":"","type":"uint256","internalType":"uint256"}],"stateMutability":"view"},{"type":"function","name":"transfer","inputs":[{"name":"to","type":"address","internalType":"address"},{"name":"amount","type":"uint256","internalType":"uint256"}],"outputs":[{"name":"","type":"bool","internalType":"bool"}],"stateMutability":"nonpayable"},{"type":"function","name":"transferFrom","inputs":[{"name":"from","type":"address","internalType":"address"},{"name":"to","type":"address","internalType":"address"},{"name":"amount","type":"uint256","internalType":"uint256"}],"outputs":[{"name":"","type":"bool","internalType":"bool"}],"stateMutability":"nonpayable"},{"type":"function","name":"transfersRestricted","inputs":[],"outputs":[{"name":"","type":"bool","internalType":"bool"}],"stateMutability":"view"},{"type":"function","name":"travelRule","inputs":[],"outputs":[{"name":"","type":"address","internalType":"contract ITravelRule"}],"stateMutability":"view"},{"type":"function","name":"travelRuleTTLSeconds","inputs":[],"outputs":[{"name":"","type":"uint64","internalType":"uint64"}],"stateMutability":"view"},{"type":"function","name":"unpause","inputs":[],"outputs":[],"stateMutability":"nonpayable"},{"type":"function","name":"upgradeToAndCall","inputs":[{"name":"newImplementation","type":"address","internalType":"address"},{"name":"data","type":"bytes","internalType":"bytes"}],"outputs":[],"stateMutability":"payable"},{"type":"event","name":"Approval","inputs":[{"name":"owner","type":"address","indexed":true,"internalType":"address"},{"name":"spender","type":"address","indexed":true,"internalType":"address"},{"name":"value","type":"uint256","indexed":false,"internalType":"uint256"}],"anonymous":false},{"type":"event","name":"Burned","inputs":[{"name":"from","type":"address","indexed":true,"internalType":"address"},{"name":"shares","type":"uint256","indexed":false,"internalType":"uint256"},{"name":"amount","type":"uint256","indexed":false,"internalType":"uint256"}],"anonymous":false},{"type":"event","name":"CARModuleSet","inputs":[{"name":"car","type":"address","indexed":false,"internalType":"address"}],"anonymous":false},{"type":"event","name":"EIP712DomainChanged","inputs":[],"anonymous":false},{"type":"event","name":"ISO20022Camt053","inputs":[{"name":"stmtHash","type":"bytes32","indexed":true,"internalType":"bytes32"},{"name":"uri","type":"string","indexed":false,"internalType":"string"},{"name":"asOfTs","type":"uint64","indexed":false,"internalType":"uint64"}],"anonymous":false},{"type":"event","name":"ISO20022Pacs009","inputs":[{"name":"docHash","type":"bytes32","indexed":true,"internalType":"bytes32"},{"name":"uri","type":"string","indexed":false,"internalType":"string"},{"name":"msgId","type":"uint64","indexed":false,"internalType":"uint64"},{"name":"txnTs","type":"uint64","indexed":false,"internalType":"uint64"},{"name":"participantLEI","type":"bytes32","indexed":true,"internalType":"bytes32"}],"anonymous":false},{"type":"event","name":"Initialized","inputs":[{"name":"version","type":"uint64","indexed":false,"internalType":"uint64"}],"anonymous":false},{"type":"event","name":"Minted","inputs":[{"name":"to","type":"address","indexed":true,"internalType":"address"},{"name":"shares","type":"uint256","indexed":false,"internalType":"uint256"},{"name":"amount","type":"uint256","indexed":false,"internalType":"uint256"}],"anonymous":false},{"type":"event","name":"OracleSet","inputs":[{"name":"reserveOracle","type":"address","indexed":false,"internalType":"address"}],"anonymous":false},{"type":"event","name":"Paused","inputs":[{"name":"account","type":"address","indexed":false,"internalType":"address"}],"anonymous":false},{"type":"event","name":"PolicyChanged","inputs":[{"name":"policyId","type":"bytes32","indexed":false,"internalType":"bytes32"}],"anonymous":false},{"type":"event","name":"Rebased","inputs":[{"name":"oldIndex","type":"uint256","indexed":false,"internalType":"uint256"},{"name":"newIndex","type":"uint256","indexed":false,"internalType":"uint256"},{"name":"pctBps","type":"int256","indexed":false,"internalType":"int256"}],"anonymous":false},{"type":"event","name":"RegistrySet","inputs":[{"name":"registry","type":"address","indexed":false,"internalType":"address"}],"anonymous":false},{"type":"event","name":"RoleAdminChanged","inputs":[{"name":"role","type":"bytes32","indexed":true,"internalType":"bytes32"},{"name":"previousAdminRole","type":"bytes32","indexed":true,"internalType":"bytes32"},{"name":"newAdminRole","type":"bytes32","indexed":true,"internalType":"bytes32"}],"anonymous":false},{"type":"event","name":"RoleGranted","inputs":[{"name":"role","type":"bytes32","indexed":true,"internalType":"bytes32"},{"name":"account","type":"address","indexed":true,"internalType":"address"},{"name":"sender","type":"address","indexed":true,"internalType":"address"}],"anonymous":false},{"type":"event","name":"RoleRevoked","inputs":[{"name":"role","type":"bytes32","indexed":true,"internalType":"bytes32"},{"name":"account","type":"address","indexed":true,"internalType":"address"},{"name":"sender","type":"address","indexed":true,"internalType":"address"}],"anonymous":false},{"type":"event","name":"Transfer","inputs":[{"name":"from","type":"address","indexed":true,"internalType":"address"},{"name":"to","type":"address","indexed":true,"internalType":"address"},{"name":"value","type":"uint256","indexed":false,"internalType":"uint256"}],"anonymous":false},{"type":"event","name":"TransfersRestricted","inputs":[{"name":"on","type":"bool","indexed":false,"internalType":"bool"},{"name":"ttlSec","type":"uint64","indexed":false,"internalType":"uint64"}],"anonymous":false},{"type":"event","name":"TravelRuleSet","inputs":[{"name":"tr","type":"address","indexed":false,"internalType":"address"}],"anonymous":false},{"type":"event","name":"Unpaused","inputs":[{"name":"account","type":"address","indexed":false,"internalType":"address"}],"anonymous":false},{"type":"event","name":"Upgraded","inputs":[{"name":"implementation","type":"address","indexed":true,"internalType":"address"}],"anonymous":false},{"type":"error","name":"AccessControlBadConfirmation","inputs":[]},{"type":"error","name":"AccessControlUnauthorizedAccount","inputs":[{"name":"account","type":"address","internalType":"address"},{"name":"neededRole","type":"bytes32","internalType":"bytes32"}]},{"type":"error","name":"AddressEmptyCode","inputs":[{"name":"target","type":"address","internalType":"address"}]},{"type":"error","name":"ECDSAInvalidSignature","inputs":[]},{"type":"error","name":"ECDSAInvalidSignatureLength","inputs":[{"name":"length","type":"uint256","internalType":"uint256"}]},{"type":"error","name":"ECDSAInvalidSignatureS","inputs":[{"name":"s","type":"bytes32","internalType":"bytes32"}]},{"type":"error","name":"ERC1967InvalidImplementation","inputs":[{"name":"implementation","type":"address","internalType":"address"}]},{"type":"error","name":"ERC1967NonPayable","inputs":[]},{"type":"error","name":"ERC20InsufficientAllowance","inputs":[{"name":"spender","type":"address","internalType":"address"},{"name":"allowance","type":"uint256","internalType":"uint256"},{"name":"needed","type":"uint256","internalType":"uint256"}]},{"type":"error","name":"ERC20InsufficientBalance","inputs":[{"name":"sender","type":"address","internalType":"address"},{"name":"balance","type":"uint256","internalType":"uint256"},{"name":"needed","type":"uint256","internalType":"uint256"}]},{"type":"error","name":"ERC20InvalidApprover","inputs":[{"name":"approver","type":"address","internalType":"address"}]},{"type":"error","name":"ERC20InvalidReceiver","inputs":[{"name":"receiver","type":"address","internalType":"address"}]},{"type":"error","name":"ERC20InvalidSender","inputs":[{"name":"sender","type":"address","internalType":"address"}]},{"type":"error","name":"ERC20InvalidSpender","inputs":[{"name":"spender","type":"address","internalType":"address"}]},{"type":"error","name":"ERC2612ExpiredSignature","inputs":[{"name":"deadline","type":"uint256","internalType":"uint256"}]},{"type":"error","name":"ERC2612InvalidSigner","inputs":[{"name":"signer","type":"address","internalType":"address"},{"name":"owner","type":"address","internalType":"address"}]},{"type":"error","name":"EnforcedPause","inputs":[]},{"type":"error","name":"ExpectedPause","inputs":[]},{"type":"error","name":"FailedInnerCall","inputs":[]},{"type":"error","name":"InvalidAccountNonce","inputs":[{"name":"account","type":"address","internalType":"address"},{"name":"currentNonce","type":"uint256","internalType":"uint256"}]},{"type":"error","name":"InvalidInitialization","inputs":[]},{"type":"error","name":"NotInitializing","inputs":[]},{"type":"error","name":"UUPSUnauthorizedCallContext","inputs":[]},{"type":"error","name":"UUPSUnsupportedProxiableUUID","inputs":[{"name":"slot","type":"bytes32","internalType":"bytes32"}]}],"bytecode":{"object":"0x60a0806040523461002a5730608052614f37908161003082396080518181816127d201526128c80152f35b600080fdfe608080604052600436101561001357600080fd5b60e0600035811c91826301ffc9a7146134f15750816306fdde031461340557816307e2cea5146133ac578163095ea7b3146133685781630b870eba1461331f57816318160ddd146132d657816323b872dd146130d257816323d14cc914612fe2578163248a9ca314612f765781632986c0e514612f3a5781632f17ddcd14612dfa5781632f2ff15d14612d7e578163313ce56714612d445781633644e51514612d0357816336568abe14612c795781633f4ba83a14612b9c5781634f1ef2861461284c57816352d1902d1461278c5781635c975abb1461272c5781635e63b675146126da5781636965942b146125e55781636ca826f21461253a57816370a08231146124bf57816375b238fc146124665781637b103999146124145781637ecebe0014612390578163816bc90b1461233e5781638423df79146122fa5781638456cb591461221a57816384b0196e1461206157816391d1485414611fc957816395d89b4114611e875781639d01e58b14610eb1578163a217fddf14610e77578163a9059cbb14610e20578163ad3cb1cc14610da0578163b2dbdbf014610c1a578163b930908f14610bc1578163be7f754514610b81578163bfb0fb8614610ad6578163c05eb11c14610a93578163c2ee3a0814610a52578163cf6a1fa014610a16578163d505accf146107fb57508063d547741f1461077d578063dc27151e14610713578063dd62ed3e1461065e578063e2a4aed71461035b578063e9a9c85014610302578063edaefc31146102a95763f93f30fc1461025257600080fd5b346102a45760007ffffffffffffffffffffffffffffffffffffffffffffffffffffffffffffffffc3601126102a457602073ffffffffffffffffffffffffffffffffffffffff60045416604051908152f35b600080fd5b346102a45760007ffffffffffffffffffffffffffffffffffffffffffffffffffffffffffffffffc3601126102a45760206040517f2cb8fee3430f011f8ea5df36a120dd5a293aa25c9ca88cc51159a94f41f768bb8152f35b346102a45760007ffffffffffffffffffffffffffffffffffffffffffffffffffffffffffffffffc3601126102a45760206040517f154c00819833dac601ee5ddded6fda79d9d8b506b911b3dbd54cdb95fe6c36868152f35b346102a4576103693661376b565b927f154c00819833dac601ee5ddded6fda79d9d8b506b911b3dbd54cdb95fe6c3686959294919592836000526020937f02dd7bc7dec4dceedda775e58dd541e08a116c6c53815c0bd028192f7b6268008552604060002033600052855260ff6040600020541615610627575073ffffffffffffffffffffffffffffffffffffffff948560025416906040517f6268ceaa0000000000000000000000000000000000000000000000000000000081528681600481865afa80156105e5576000906105f1575b6104379150613a23565b6004600754918761045d88670de0b6b3a764000061045760055488613a03565b04613ac2565b94604051938480927f074b63a90000000000000000000000000000000000000000000000000000000082525afa9182156105e5576000926105b6575b5061271091828102928184041490151715610587576000997fddf252ad1be2c89b69c2b068fc378daa952ba7f163c4a11628f55a4df523b3ef997f25b428dfde728ccfaddad7e29e4ac23c24ed7fd1a6e3e3f91894a9a073f5dfff966105196105739561051260409961ffff60085460101c1690613a03565b11156145f9565b61052c6105258b613f7e565b8097613ac2565b600755169b8c97888d5260068b52868d20610548878254613ac2565b90556105526149c0565b61056d67ffffffffffffffff93844216944316933691613716565b90614a5b565b81519081528486820152a2604051908152a3005b7f4e487b7100000000000000000000000000000000000000000000000000000000600052601160045260246000fd5b9091508781813d83116105de575b6105ce818361369b565b810103126102a45751908b610499565b503d6105c4565b6040513d6000823e3d90fd5b508681813d8311610620575b610607818361369b565b810103126102a45761061b61043791613a16565b61042d565b503d6105fd565b604490604051907fe2517d3f0000000000000000000000000000000000000000000000000000000082523360048301526024820152fd5b346102a45760407ffffffffffffffffffffffffffffffffffffffffffffffffffffffffffffffffc3601126102a45761069561360b565b73ffffffffffffffffffffffffffffffffffffffff6106fb6106b561362e565b9273ffffffffffffffffffffffffffffffffffffffff166000527f52c63247e1f47db19d5ce0460030c497f067ca4cebf71ba98eeadabe20bace01602052604060002090565b91166000526020526020604060002054604051908152f35b346102a45760207ffffffffffffffffffffffffffffffffffffffffffffffffffffffffffffffffc3601126102a4577f1d522f904a49b4288df957789eaa654550162d5ddf6e2d8aa163b9f7a1286fbe60206004356107706144cf565b80600155604051908152a1005b346102a45760407ffffffffffffffffffffffffffffffffffffffffffffffffffffffffffffffffc3601126102a4576107f96004356107ba61362e565b90806000527f02dd7bc7dec4dceedda775e58dd541e08a116c6c53815c0bd028192f7b6268006020526107f460016040600020015461452b565b6148ff565b005b346102a457807ffffffffffffffffffffffffffffffffffffffffffffffffffffffffffffffffc3601126102a45761083161360b565b61083961362e565b60443591606435936084359460ff861686036102a4578042116109e55773ffffffffffffffffffffffffffffffffffffffff9182841696876000527f5ab42ced628888259c08ac98db1eb0cf702fc1501344311d8b100cd1bfe4bb006020526040600020918254926001840190556040519360208501937f6e71edae12b1b97f4d1f60370fef10105fa2faae0126114a169c64845d6126c985528a6040870152868916606087015289608087015260a086015260c085015260c0845283019183831067ffffffffffffffff8411176109b65761096c9361096393604052519020610921614b5f565b90604051917f190100000000000000000000000000000000000000000000000000000000000083526002830152602282015260c43591604260a4359220614c2e565b90929192614ccb565b1684810361097f57506107f99350614ab4565b60449085604051917f4b800e4600000000000000000000000000000000000000000000000000000000835260048301526024820152fd5b7f4e487b7100000000000000000000000000000000000000000000000000000000600052604160045260246000fd5b602490604051907f627913020000000000000000000000000000000000000000000000000000000082526004820152fd5b346102a45760007ffffffffffffffffffffffffffffffffffffffffffffffffffffffffffffffffc3601126102a4576020600154604051908152f35b346102a45760007ffffffffffffffffffffffffffffffffffffffffffffffffffffffffffffffffc3601126102a4576020604051670de0b6b3a76400008152f35b346102a45760007ffffffffffffffffffffffffffffffffffffffffffffffffffffffffffffffffc3601126102a457602061ffff60085460101c16604051908152f35b346102a45760207ffffffffffffffffffffffffffffffffffffffffffffffffffffffffffffffffc3601126102a4577f3f32684a32a11dabdbb8c0177de80aa3ae36a004d75210335b49e544e48cd0aa602073ffffffffffffffffffffffffffffffffffffffff610b4561360b565b610b4d6144cf565b16807fffffffffffffffffffffffff00000000000000000000000000000000000000006002541617600255604051908152a1005b346102a45760007ffffffffffffffffffffffffffffffffffffffffffffffffffffffffffffffffc3601126102a457602061ffff60085416604051908152f35b346102a45760007ffffffffffffffffffffffffffffffffffffffffffffffffffffffffffffffffc3601126102a45760206040517fe97b137254058bd94f28d2f3eb79e2d34074ffb488d042e3bc958e0a57d2fa228152f35b346102a457610c283661376b565b3360009081527f5a9c57bd7b5011b34bc70988dc11c44b0d52e6a1a9ec425ce2d00d4b0dd2822c60209081526040909120549096949594939192907fe97b137254058bd94f28d2f3eb79e2d34074ffb488d042e3bc958e0a57d2fa229060ff1615610627575073ffffffffffffffffffffffffffffffffffffffff610cac86613f7e565b94169586600052600688528460406000205410610d4257600097946105737fddf252ad1be2c89b69c2b068fc378daa952ba7f163c4a11628f55a4df523b3ef979589957f23ff0e75edf108e3d0392d92e13e8c8a868ef19001bd49f9e94876dc46dff87f95604095888e5260068b52868e20610d29878254613ab5565b9055610d3786600754613ab5565b6007556105526149c0565b606488604051907f08c379a00000000000000000000000000000000000000000000000000000000082526004820152600c60248201527f696e73756666696369656e7400000000000000000000000000000000000000006044820152fd5b346102a45760007ffffffffffffffffffffffffffffffffffffffffffffffffffffffffffffffffc3601126102a457610e1c604051610dde8161367f565b600581527f352e302e3000000000000000000000000000000000000000000000000000000060208201526040519182916020835260208301906135ad565b0390f35b346102a45760407ffffffffffffffffffffffffffffffffffffffffffffffffffffffffffffffffc3601126102a457610e6c610e5a61360b565b610e65602435613f7e565b9033613fd5565b602060405160018152f35b346102a45760007ffffffffffffffffffffffffffffffffffffffffffffffffffffffffffffffffc3601126102a457602060405160008152f35b346102a4577ffffffffffffffffffffffffffffffffffffffffffffffffffffffffffffffffc3601126102a457610ee661360b565b60243567ffffffffffffffff81116102a457610f0690369060040161374d565b60443567ffffffffffffffff81116102a457610f2690369060040161374d565b906064359273ffffffffffffffffffffffffffffffffffffffff9081851685036102a45760a4359082821682036102a45760c4359383851685036102a4577ff0c57e16840df040f15088dc2f81fe391c3923bec73e23a9662efc9c229c6a00549567ffffffffffffffff871680159081611e77575b6001149081611e6d575b159081611e64575b50611e3a5760017fffffffffffffffffffffffffffffffffffffffffffffffff00000000000000008816177ff0c57e16840df040f15088dc2f81fe391c3923bec73e23a9662efc9c229c6a005560ff8760401c1615611de5575b61100f614bd5565b611017614bd5565b815167ffffffffffffffff81116109b6576110527f52c63247e1f47db19d5ce0460030c497f067ca4cebf71ba98eeadabe20bace03546137e6565b601f8111611d27575b50806020601f8211600114611c0a57600091611bff575b507fffffffffffffffffffffffffffffffffffffffffffffffffffffffffffffffff8260011b9260031b1c1916177f52c63247e1f47db19d5ce0460030c497f067ca4cebf71ba98eeadabe20bace03555b80519067ffffffffffffffff82116109b65781906111017f52c63247e1f47db19d5ce0460030c497f067ca4cebf71ba98eeadabe20bace04546137e6565b601f8111611b36575b50602090601f8311600114611a1457600092611a09575b50507fffffffffffffffffffffffffffffffffffffffffffffffffffffffffffffffff8260011b9260031b1c1916177f52c63247e1f47db19d5ce0460030c497f067ca4cebf71ba98eeadabe20bace04555b61117b614bd5565b604051906111888261367f565b600182527f310000000000000000000000000000000000000000000000000000000000000060208301526111ba614bd5565b80519067ffffffffffffffff82116109b65781906111f87fa16a46d94261c7517cc8ff89f61c0ce93598e3c849801011dee649a6a557d102546137e6565b601f8111611940575b50602090601f831160011461181e57600092611813575b50507fffffffffffffffffffffffffffffffffffffffffffffffffffffffffffffffff8260011b9260031b1c1916177fa16a46d94261c7517cc8ff89f61c0ce93598e3c849801011dee649a6a557d102555b80519067ffffffffffffffff82116109b6576112a67fa16a46d94261c7517cc8ff89f61c0ce93598e3c849801011dee649a6a557d103546137e6565b601f8111611751575b50602090601f83116001146115c057937f27fe5f0c1c3b1ed427cc63d0f05759ffdecf9aec9e18d31ef366fc8a6cb5dc3b602060ff9a61144b829997877f3f32684a32a11dabdbb8c0177de80aa3ae36a004d75210335b49e544e48cd0aa9885987fd2a65cdd97d41c6340e72a70c21ef7c3ab2f1c9cd3eba46e2f6f24b18fad98579e9c6000926115b5575b50507fffffffffffffffffffffffffffffffffffffffffffffffffffffffffffffffff8260011b9260031b1c1916177fa16a46d94261c7517cc8ff89f61c0ce93598e3c849801011dee649a6a557d103555b60007fa16a46d94261c7517cc8ff89f61c0ce93598e3c849801011dee649a6a557d1005560007fa16a46d94261c7517cc8ff89f61c0ce93598e3c849801011dee649a6a557d101556113dd614bd5565b6113e5614bd5565b6113ed614bd5565b7fcd5ed15c6e187e77e9aee88184c21f4f2182ab5827cb3b7e07fbedcd63f033007fffffffffffffffffffffffffffffffffffffffffffffffffffffffffffffff00815416905561143c614bd5565b6114458161465e565b5061473b565b507fffffffffffffffffffffffff0000000000000000000000000000000000000000878216816000541617600055608435600155878516816002541617600255878916906003541617600355670de0b6b3a764000060055563271000c87fffffffffffffffffffffffffffffffffffffffffffffffffffffffff0000000060085416176008558660405191168152a18360405191168152a160405191168152a17f1d522f904a49b4288df957789eaa654550162d5ddf6e2d8aa163b9f7a1286fbe60206040516084358152a160401c161561152257005b7fffffffffffffffffffffffffffffffffffffffffffffff00ffffffffffffffff7ff0c57e16840df040f15088dc2f81fe391c3923bec73e23a9662efc9c229c6a0054167ff0c57e16840df040f15088dc2f81fe391c3923bec73e23a9662efc9c229c6a00557fc7f505b2f371ae2175ee4913f4499e1f2633a7b5936321eed1cdaeb6115181d2602060405160018152a1005b01519050388061133b565b907fa16a46d94261c7517cc8ff89f61c0ce93598e3c849801011dee649a6a557d1036000527f5f9ce34815f8e11431c7bb75a8e6886a91478f7ffc1dbb0a98dc240fddd76b759160005b7fffffffffffffffffffffffffffffffffffffffffffffffffffffffffffffffe0851681106117395750602060ff9a61144b82999760018885987fd2a65cdd97d41c6340e72a70c21ef7c3ab2f1c9cd3eba46e2f6f24b18fad98579e9c987f27fe5f0c1c3b1ed427cc63d0f05759ffdecf9aec9e18d31ef366fc8a6cb5dc3b98837fffffffffffffffffffffffffffffffffffffffffffffffffffffffffffffffe07f3f32684a32a11dabdbb8c0177de80aa3ae36a004d75210335b49e544e48cd0aa9e1610611702575b505050811b017fa16a46d94261c7517cc8ff89f61c0ce93598e3c849801011dee649a6a557d1035561138d565b01517fffffffffffffffffffffffffffffffffffffffffffffffffffffffffffffffff60f88460031b161c191690553880806116d5565b9192602060018192868501518155019401920161160a565b7fa16a46d94261c7517cc8ff89f61c0ce93598e3c849801011dee649a6a557d103600052601f830160051c7f5f9ce34815f8e11431c7bb75a8e6886a91478f7ffc1dbb0a98dc240fddd76b750190602084106117eb575b601f0160051c7f5f9ce34815f8e11431c7bb75a8e6886a91478f7ffc1dbb0a98dc240fddd76b7501905b8181106117df57506112af565b600081556001016117d2565b7f5f9ce34815f8e11431c7bb75a8e6886a91478f7ffc1dbb0a98dc240fddd76b7591506117a8565b015190508980611218565b92507fa16a46d94261c7517cc8ff89f61c0ce93598e3c849801011dee649a6a557d1026000527f42ad5d3e1f2e6e70edcf6d991b8a3023d3fca8047a131592f9edb9fd9b89d57d906000935b7fffffffffffffffffffffffffffffffffffffffffffffffffffffffffffffffe0841685106119255760019450837fffffffffffffffffffffffffffffffffffffffffffffffffffffffffffffffe08116106118ee575b505050811b017fa16a46d94261c7517cc8ff89f61c0ce93598e3c849801011dee649a6a557d1025561126a565b01517fffffffffffffffffffffffffffffffffffffffffffffffffffffffffffffffff60f88460031b161c191690558980806118c1565b8181015183556020948501946001909301929091019061186a565b9091507fa16a46d94261c7517cc8ff89f61c0ce93598e3c849801011dee649a6a557d102600052601f830160051c7f42ad5d3e1f2e6e70edcf6d991b8a3023d3fca8047a131592f9edb9fd9b89d57d01602084106119e2575b908392915b601f820160051c7f42ad5d3e1f2e6e70edcf6d991b8a3023d3fca8047a131592f9edb9fd9b89d57d0181106119d35750611201565b6000815584935060010161199e565b507f42ad5d3e1f2e6e70edcf6d991b8a3023d3fca8047a131592f9edb9fd9b89d57d611999565b015190508980611121565b92507f52c63247e1f47db19d5ce0460030c497f067ca4cebf71ba98eeadabe20bace046000527f46a2803e59a4de4e7a4c574b1243f25977ac4c77d5a1a4a609b5394cebb4a2aa906000935b7fffffffffffffffffffffffffffffffffffffffffffffffffffffffffffffffe084168510611b1b5760019450837fffffffffffffffffffffffffffffffffffffffffffffffffffffffffffffffe0811610611ae4575b505050811b017f52c63247e1f47db19d5ce0460030c497f067ca4cebf71ba98eeadabe20bace0455611173565b01517fffffffffffffffffffffffffffffffffffffffffffffffffffffffffffffffff60f88460031b161c19169055898080611ab7565b81810151835560209485019460019093019290910190611a60565b9091507f52c63247e1f47db19d5ce0460030c497f067ca4cebf71ba98eeadabe20bace04600052601f830160051c7f46a2803e59a4de4e7a4c574b1243f25977ac4c77d5a1a4a609b5394cebb4a2aa0160208410611bd8575b908392915b601f820160051c7f46a2803e59a4de4e7a4c574b1243f25977ac4c77d5a1a4a609b5394cebb4a2aa018110611bc9575061110a565b60008155849350600101611b94565b507f46a2803e59a4de4e7a4c574b1243f25977ac4c77d5a1a4a609b5394cebb4a2aa611b8f565b90508301518a611072565b91507f52c63247e1f47db19d5ce0460030c497f067ca4cebf71ba98eeadabe20bace036000527f2ae08a8e29253f69ac5d979a101956ab8f8d9d7ded63fa7a83b16fc47648eab06000925b7fffffffffffffffffffffffffffffffffffffffffffffffffffffffffffffffe083168410611d0f5760019350827fffffffffffffffffffffffffffffffffffffffffffffffffffffffffffffffe0811610611cd8575b5050811b017f52c63247e1f47db19d5ce0460030c497f067ca4cebf71ba98eeadabe20bace03556110c3565b8501517fffffffffffffffffffffffffffffffffffffffffffffffffffffffffffffffff60f88460031b161c191690558a80611cac565b85810151825560209384019360019092019101611c55565b7f52c63247e1f47db19d5ce0460030c497f067ca4cebf71ba98eeadabe20bace03600052601f820160051c7f2ae08a8e29253f69ac5d979a101956ab8f8d9d7ded63fa7a83b16fc47648eab00160208310611dbe575b601f820160051c7f2ae08a8e29253f69ac5d979a101956ab8f8d9d7ded63fa7a83b16fc47648eab0018110611db2575061105b565b60008155600101611d7d565b507f2ae08a8e29253f69ac5d979a101956ab8f8d9d7ded63fa7a83b16fc47648eab0611d7d565b680100000000000000017fffffffffffffffffffffffffffffffffffffffffffffff0000000000000000008816177ff0c57e16840df040f15088dc2f81fe391c3923bec73e23a9662efc9c229c6a0055611007565b60046040517ff92ee8a9000000000000000000000000000000000000000000000000000000008152fd5b90501589610fad565b303b159150610fa5565b604089901c60ff16159150610f9b565b346102a45760007ffffffffffffffffffffffffffffffffffffffffffffffffffffffffffffffffc3601126102a4576040517f52c63247e1f47db19d5ce0460030c497f067ca4cebf71ba98eeadabe20bace048054826000611ee8836137e6565b9283835260209460019186600182169182600014611f88575050600114611f2c575b5050611f189250038361369b565b610e1c6040519282849384528301906135ad565b8592506000527f46a2803e59a4de4e7a4c574b1243f25977ac4c77d5a1a4a609b5394cebb4a2aa906000915b858310611f70575050611f1893508201018580611f0a565b80548389018501528794508693909201918101611f58565b91509350611f189592507fffffffffffffffffffffffffffffffffffffffffffffffffffffffffffffff0091501682840152151560051b8201018580611f0a565b346102a45760407ffffffffffffffffffffffffffffffffffffffffffffffffffffffffffffffffc3601126102a45761200061362e565b6004356000527f02dd7bc7dec4dceedda775e58dd541e08a116c6c53815c0bd028192f7b62680060205273ffffffffffffffffffffffffffffffffffffffff60406000209116600052602052602060ff604060002054166040519015158152f35b346102a45760007ffffffffffffffffffffffffffffffffffffffffffffffffffffffffffffffffc3601126102a4577fa16a46d94261c7517cc8ff89f61c0ce93598e3c849801011dee649a6a557d1005415806121f1575b15612193576120c6613839565b6120ce613942565b60405190602090602083019383851067ffffffffffffffff8611176109b6579493929061214660209185604052600084526121386040519889987f0f000000000000000000000000000000000000000000000000000000000000008a5280868b01528901906135ad565b9087820360408901526135ad565b91466060870152306080870152600060a087015285830360c0870152519182815201929160005b82811061217c57505050500390f35b83518552869550938101939281019260010161216d565b60646040517f08c379a000000000000000000000000000000000000000000000000000000000815260206004820152601560248201527f4549503731323a20556e696e697469616c697a656400000000000000000000006044820152fd5b507fa16a46d94261c7517cc8ff89f61c0ce93598e3c849801011dee649a6a557d10154156120b9565b346102a45760007ffffffffffffffffffffffffffffffffffffffffffffffffffffffffffffffffc3601126102a4576122516144cf565b7fcd5ed15c6e187e77e9aee88184c21f4f2182ab5827cb3b7e07fbedcd63f03300805460ff81166122d0577fffffffffffffffffffffffffffffffffffffffffffffffffffffffffffffff00600191161790557f62e78cea01bee320cd4e420270b5ea74000d11b0c9f74754ebdbfc544b05a2586020604051338152a1005b60046040517fd93c0665000000000000000000000000000000000000000000000000000000008152fd5b346102a45760007ffffffffffffffffffffffffffffffffffffffffffffffffffffffffffffffffc3601126102a457602060ff60045460a01c166040519015158152f35b346102a45760007ffffffffffffffffffffffffffffffffffffffffffffffffffffffffffffffffc3601126102a457602073ffffffffffffffffffffffffffffffffffffffff60025416604051908152f35b346102a45760207ffffffffffffffffffffffffffffffffffffffffffffffffffffffffffffffffc3601126102a45773ffffffffffffffffffffffffffffffffffffffff6123dc61360b565b166000527f5ab42ced628888259c08ac98db1eb0cf702fc1501344311d8b100cd1bfe4bb006020526020604060002054604051908152f35b346102a45760007ffffffffffffffffffffffffffffffffffffffffffffffffffffffffffffffffc3601126102a457602073ffffffffffffffffffffffffffffffffffffffff60005416604051908152f35b346102a45760007ffffffffffffffffffffffffffffffffffffffffffffffffffffffffffffffffc3601126102a45760206040517fa49807205ce4d355092ef5a8a18f56e8913cf4a201fbe287825b095693c217758152f35b346102a45760207ffffffffffffffffffffffffffffffffffffffffffffffffffffffffffffffffc3601126102a45773ffffffffffffffffffffffffffffffffffffffff61250b61360b565b1660005260066020526020670de0b6b3a764000061253160406000205460055490613a03565b04604051908152f35b346102a45760207ffffffffffffffffffffffffffffffffffffffffffffffffffffffffffffffffc3601126102a4577fd2a65cdd97d41c6340e72a70c21ef7c3ab2f1c9cd3eba46e2f6f24b18fad9857602073ffffffffffffffffffffffffffffffffffffffff6125a961360b565b6125b16144cf565b16807fffffffffffffffffffffffff00000000000000000000000000000000000000006003541617600355604051908152a1005b346102a45760407ffffffffffffffffffffffffffffffffffffffffffffffffffffffffffffffffc3601126102a45760043561ffff908181168091036102a45760243591821682036102a4576126396144cf565b6107d0811161267c577fffffffffffffffffffffffffffffffffffffffffffffffffffffffff0000000063ffff00006008549360101b1692161717600855600080f35b60646040517f08c379a000000000000000000000000000000000000000000000000000000000815260206004820152601460248201527f726562617365207374657020746f6f20686967680000000000000000000000006044820152fd5b346102a45760007ffffffffffffffffffffffffffffffffffffffffffffffffffffffffffffffffc3601126102a457602073ffffffffffffffffffffffffffffffffffffffff60035416604051908152f35b346102a45760007ffffffffffffffffffffffffffffffffffffffffffffffffffffffffffffffffc3601126102a457602060ff7fcd5ed15c6e187e77e9aee88184c21f4f2182ab5827cb3b7e07fbedcd63f0330054166040519015158152f35b346102a45760007ffffffffffffffffffffffffffffffffffffffffffffffffffffffffffffffffc3601126102a45773ffffffffffffffffffffffffffffffffffffffff7f00000000000000000000000000000000000000000000000000000000000000001630036128225760206040517f360894a13ba1a3210667c828492db98dca3e2076cc3735a920a3ca505d382bbc8152f35b60046040517fe07c8dba000000000000000000000000000000000000000000000000000000008152fd5b60407ffffffffffffffffffffffffffffffffffffffffffffffffffffffffffffffffc3601126102a45761287e61360b565b602490813567ffffffffffffffff81116102a457366023820112156102a4576128b09036908481600401359101613716565b73ffffffffffffffffffffffffffffffffffffffff807f000000000000000000000000000000000000000000000000000000000000000016803014908115612b6e575b50612822573360009081527fb7db2dd08fcb62d0c9e08c51941cae53c267786a0b75803fb7960902fc8ef97d602090815260409091205490919060ff1615612b37578316926040517f52d1902d0000000000000000000000000000000000000000000000000000000081528281600481885afa60009181612b08575b506129a4578585604051907f4c9c8ce30000000000000000000000000000000000000000000000000000000082526004820152fd5b8490867f360894a13ba1a3210667c828492db98dca3e2076cc3735a920a3ca505d382bbc91828103612ada5750833b15612aab5750817fffffffffffffffffffffffff0000000000000000000000000000000000000000825416179055604051907fbc7cd75a20ee27fd9adebab32041f755214dbc6bffa90cc0225b39da2e5c2d3b600080a2835115612a78575060008084846107f996519101845af4903d15612a6f573d612a52816136dc565b90612a60604051928361369b565b8152600081943d92013e614e61565b60609250614e61565b9250505034612a8357005b807fb398979f0000000000000000000000000000000000000000000000000000000060049252fd5b82604051907f4c9c8ce30000000000000000000000000000000000000000000000000000000082526004820152fd5b604051907faa1d49a40000000000000000000000000000000000000000000000000000000082526004820152fd5b9091508381813d8311612b30575b612b20818361369b565b810103126102a45751908761296f565b503d612b16565b6044856000604051917fe2517d3f000000000000000000000000000000000000000000000000000000008352336004840152820152fd5b9050817f360894a13ba1a3210667c828492db98dca3e2076cc3735a920a3ca505d382bbc54161415856128f3565b346102a45760007ffffffffffffffffffffffffffffffffffffffffffffffffffffffffffffffffc3601126102a457612bd36144cf565b7fcd5ed15c6e187e77e9aee88184c21f4f2182ab5827cb3b7e07fbedcd63f03300805460ff811615612c4f577fffffffffffffffffffffffffffffffffffffffffffffffffffffffffffffff001690557f5db9ee0a495bf2e6ff9c91a7834c1ba4fdd244a5e8aa4e537bd38aeae4b073aa6020604051338152a1005b60046040517f8dfc202b000000000000000000000000000000000000000000000000000000008152fd5b346102a45760407ffffffffffffffffffffffffffffffffffffffffffffffffffffffffffffffffc3601126102a457612cb061362e565b3373ffffffffffffffffffffffffffffffffffffffff821603612cd9576107f9906004356148ff565b60046040517f6697b232000000000000000000000000000000000000000000000000000000008152fd5b346102a45760007ffffffffffffffffffffffffffffffffffffffffffffffffffffffffffffffffc3601126102a4576020612d3c614b5f565b604051908152f35b346102a45760007ffffffffffffffffffffffffffffffffffffffffffffffffffffffffffffffffc3601126102a457602060405160128152f35b346102a45760407ffffffffffffffffffffffffffffffffffffffffffffffffffffffffffffffffc3601126102a4576107f9600435612dbb61362e565b90806000527f02dd7bc7dec4dceedda775e58dd541e08a116c6c53815c0bd028192f7b626800602052612df560016040600020015461452b565b61483a565b346102a45760607ffffffffffffffffffffffffffffffffffffffffffffffffffffffffffffffffc3601126102a457612e3161360b565b602435908115158092036102a4576044359167ffffffffffffffff83168084036102a4577f059aef42dd1e3eb533e688e5eab20bc56ddd2ebf73489ec835ca99aa1909facc60207ffa91b74fb34a7424994d360b663bf64461fd91b61676ed44a0dd244d0b4311c89573ffffffffffffffffffffffffffffffffffffffff604096612eba6144cf565b1690817fffffff00000000000000000000000000000000000000000000000000000000007cffffffffffffffff0000000000000000000000000000000000000000006004549360a81b1692161774ff00000000000000000000000000000000000000008760a01b1617176004558551908152a182519182526020820152a1005b346102a45760007ffffffffffffffffffffffffffffffffffffffffffffffffffffffffffffffffc3601126102a4576020600554604051908152f35b346102a45760207ffffffffffffffffffffffffffffffffffffffffffffffffffffffffffffffffc3601126102a4576004356000527f02dd7bc7dec4dceedda775e58dd541e08a116c6c53815c0bd028192f7b6268006020526020600160406000200154604051908152f35b346102a45760607ffffffffffffffffffffffffffffffffffffffffffffffffffffffffffffffffc3601126102a45760443567ffffffffffffffff81116102a457613031903690600401613651565b3360009081527f66746938f9dc5670aae9d045b022febae6d19241e6a6af37f79720d57145c85d60205260409020547f2cb8fee3430f011f8ea5df36a120dd5a293aa25c9ca88cc51159a94f41f768bb929060ff161561309b576107f99250602435600435613acf565b604483604051907fe2517d3f0000000000000000000000000000000000000000000000000000000082523360048301526024820152fd5b346102a45760607ffffffffffffffffffffffffffffffffffffffffffffffffffffffffffffffffc3601126102a45761310961360b565b61311161362e565b906044359161315f8273ffffffffffffffffffffffffffffffffffffffff166000527f52c63247e1f47db19d5ce0460030c497f067ca4cebf71ba98eeadabe20bace01602052604060002090565b336000526020526040600020547fffffffffffffffffffffffffffffffffffffffffffffffffffffffffffffffff81036131a7575b506131a1610e6c93613f7e565b91613fd5565b8381106132995773ffffffffffffffffffffffffffffffffffffffff8316156132685733156132375783610e6c946131a1926132228673ffffffffffffffffffffffffffffffffffffffff166000527f52c63247e1f47db19d5ce0460030c497f067ca4cebf71ba98eeadabe20bace01602052604060002090565b33600052602052036040600020559350613194565b60246040517f94280d6200000000000000000000000000000000000000000000000000000000815260006004820152fd5b60246040517fe602df0500000000000000000000000000000000000000000000000000000000815260006004820152fd5b60649084604051917ffb8f41b200000000000000000000000000000000000000000000000000000000835233600484015260248301526044820152fd5b346102a45760007ffffffffffffffffffffffffffffffffffffffffffffffffffffffffffffffffc3601126102a4576020670de0b6b3a764000061253160075460055490613a03565b346102a45760007ffffffffffffffffffffffffffffffffffffffffffffffffffffffffffffffffc3601126102a457602067ffffffffffffffff60045460a81c16604051908152f35b346102a45760407ffffffffffffffffffffffffffffffffffffffffffffffffffffffffffffffffc3601126102a457610e6c6133a261360b565b6024359033614ab4565b346102a45760007ffffffffffffffffffffffffffffffffffffffffffffffffffffffffffffffffc3601126102a45760206040517f68e79a7bf1e0bc45d0a330c573bc367f9cf464fd326078812f301165fbda4ef18152f35b346102a45760007ffffffffffffffffffffffffffffffffffffffffffffffffffffffffffffffffc3601126102a4576040517f52c63247e1f47db19d5ce0460030c497f067ca4cebf71ba98eeadabe20bace038054826000613466836137e6565b9283835260209460019186600182169182600014611f88575050600114613495575050611f189250038361369b565b8592506000527f2ae08a8e29253f69ac5d979a101956ab8f8d9d7ded63fa7a83b16fc47648eab0906000915b8583106134d9575050611f1893508201018580611f0a565b805483890185015287945086939092019181016134c1565b346102a45760207ffffffffffffffffffffffffffffffffffffffffffffffffffffffffffffffffc3601126102a457600435907fffffffff0000000000000000000000000000000000000000000000000000000082168092036102a457817f7965db0b0000000000000000000000000000000000000000000000000000000060209314908115613583575b5015158152f35b7f01ffc9a7000000000000000000000000000000000000000000000000000000009150148361357c565b919082519283825260005b8481106135f75750507fffffffffffffffffffffffffffffffffffffffffffffffffffffffffffffffe0601f8460006020809697860101520116010190565b6020818301810151848301820152016135b8565b6004359073ffffffffffffffffffffffffffffffffffffffff821682036102a457565b6024359073ffffffffffffffffffffffffffffffffffffffff821682036102a457565b9181601f840112156102a45782359167ffffffffffffffff83116102a457602083818601950101116102a457565b6040810190811067ffffffffffffffff8211176109b657604052565b90601f7fffffffffffffffffffffffffffffffffffffffffffffffffffffffffffffffe0910116810190811067ffffffffffffffff8211176109b657604052565b67ffffffffffffffff81116109b657601f017fffffffffffffffffffffffffffffffffffffffffffffffffffffffffffffffe01660200190565b929192613722826136dc565b91613730604051938461369b565b8294818452818301116102a4578281602093846000960137010152565b9080601f830112156102a45781602061376893359101613716565b90565b9060a07ffffffffffffffffffffffffffffffffffffffffffffffffffffffffffffffffc8301126102a45760043573ffffffffffffffffffffffffffffffffffffffff811681036102a4579160243591604435916064359067ffffffffffffffff82116102a4576137de91600401613651565b909160843590565b90600182811c9216801561382f575b602083101461380057565b7f4e487b7100000000000000000000000000000000000000000000000000000000600052602260045260246000fd5b91607f16916137f5565b604051906000827fa16a46d94261c7517cc8ff89f61c0ce93598e3c849801011dee649a6a557d1029182549261386e846137e6565b808452936020916001918281169081156138fd575060011461389c575b50505061389a9250038361369b565b565b60009081527f42ad5d3e1f2e6e70edcf6d991b8a3023d3fca8047a131592f9edb9fd9b89d57d9590935091905b8284106138e5575061389a94505050810160200138808061388b565b855488850183015294850194879450928101926138c9565b9150506020935061389a9592507fffffffffffffffffffffffffffffffffffffffffffffffffffffffffffffff0091501682840152151560051b82010138808061388b565b604051906000827fa16a46d94261c7517cc8ff89f61c0ce93598e3c849801011dee649a6a557d10391825492613977846137e6565b808452936020916001918281169081156138fd57506001146139a25750505061389a9250038361369b565b60009081527f5f9ce34815f8e11431c7bb75a8e6886a91478f7ffc1dbb0a98dc240fddd76b759590935091905b8284106139eb575061389a94505050810160200138808061388b565b855488850183015294850194879450928101926139cf565b8181029291811591840414171561058757565b519081151582036102a457565b15613a2a57565b60646040517f08c379a000000000000000000000000000000000000000000000000000000000815260206004820152600960248201527f7374616c6520506f5200000000000000000000000000000000000000000000006044820152fd5b7f800000000000000000000000000000000000000000000000000000000000000081146105875760000390565b9190820391821161058757565b9190820180921161058757565b9392919373ffffffffffffffffffffffffffffffffffffffff92836002541692604096875180807f6268ceaa0000000000000000000000000000000000000000000000000000000097888252602092839160049586915afa8015613d9057600090613f48575b613b3f9150613a23565b61ffff978860085416808813159081613f35575b5015613ed957600554978715613e74576000881315613e4d57613b86600554612710613b7f8b83613a03565b0490613ac2565b6005555b8160025416908c5190815283818681855afa918215613e425785928592600091613e04575b50613bb990613a23565b8d51928380927f074b63a90000000000000000000000000000000000000000000000000000000082525afa908115613df957600091613dc9575b5060075499670de0b6b3a7640000613c0e600554809d613a03565b049061271092838102938185041490151715613d9b57613c3a92916105129160085460101c1690613a03565b6003541680613cb0575b505050613cab93927fb4b244fd0ec857c7c24b70d410f26cad51714cdd6f19db372eca9e8aafd802e4979892613c8a613c909367ffffffffffffffff4216933691613716565b906145a9565b51938493846040919493926060820195825260208201520152565b0390a1565b606083918c51928380927ff6e9a3650000000000000000000000000000000000000000000000000000000082525afa908115613d9057600091613d56575b5015613cfa5780613c44565b606492508951917f08c379a0000000000000000000000000000000000000000000000000000000008352820152600960248201527f43415220666c6f6f7200000000000000000000000000000000000000000000006044820152fd5b90506060813d606011613d88575b81613d716060938361369b565b810103126102a457613d8290613a16565b38613cee565b3d9150613d64565b8b513d6000823e3d90fd5b6011867f4e487b71000000000000000000000000000000000000000000000000000000006000525260246000fd5b908382813d8311613df2575b613ddf818361369b565b81010312613def57505138613bf3565b80fd5b503d613dd5565b8c513d6000823e3d90fd5b92809294508391503d8311613e3b575b613e1e818361369b565b810103126102a4578491613bb9613e358693613a16565b90613baf565b503d613e14565b8d513d6000823e3d90fd5b613e6c612710613e65613e5f8b613a88565b8c613a03565b048a613ab5565b600555613b8a565b50505050613cab93955091613ebd91613c8a7fb4b244fd0ec857c7c24b70d410f26cad51714cdd6f19db372eca9e8aafd802e498999467ffffffffffffffff4216933691613716565b5192828493846040919493926060820195825260208201520152565b606483838d51917f08c379a0000000000000000000000000000000000000000000000000000000008352820152600e60248201527f7374657020746f6f206c617267650000000000000000000000000000000000006044820152fd5b613f3f9150613a88565b87121538613b53565b508181813d8311613f77575b613f5e818361369b565b810103126102a457613f72613b3f91613a16565b613b35565b503d613f54565b670de0b6b3a76400009081810291818304149015171561058757600554908115613fa6570490565b7f4e487b7100000000000000000000000000000000000000000000000000000000600052601260045260246000fd5b909160ff7fcd5ed15c6e187e77e9aee88184c21f4f2182ab5827cb3b7e07fbedcd63f0330054166144715773ffffffffffffffffffffffffffffffffffffffff908183169283151580614466575b614112575b506000938385526006602052816040862054106140b4576140aa60209260407fddf252ad1be2c89b69c2b068fc378daa952ba7f163c4a11628f55a4df523b3ef95670de0b6b3a764000094888a5260068752828a20614088858254613ab5565b90551697888152600686522061409f828254613ac2565b905560055490613a03565b04604051908152a3565b60646040517f08c379a000000000000000000000000000000000000000000000000000000000815260206004820152600760248201527f62616c616e6365000000000000000000000000000000000000000000000000006044820152fd5b60008381541690600154906040918251937f2e72ce530000000000000000000000000000000000000000000000000000000080865260209586818061417f8760049c8d84016020909392919373ffffffffffffffffffffffffffffffffffffffff60408201951681520152565b0381865afa90811561445c578591614423575b50156143c757845190815273ffffffffffffffffffffffffffffffffffffffff8b16878201908152602081019390935291859183918290819060400103915afa9081156143bd578291614384575b501561432857858789865460ff8160a01c168061431d575b614209575b50505050505050614028565b869284608492885196879586947f516e6ed20000000000000000000000000000000000000000000000000000000086528d8601521660248401526001604484015267ffffffffffffffff8160a81c166064840152165afa9182156143125780926142da575b50501561427f5780858789836141fd565b6064935051917f08c379a0000000000000000000000000000000000000000000000000000000008352820152600b60248201527f74726176656c2072756c650000000000000000000000000000000000000000006044820152fd5b9091508382813d831161430b575b6142f2818361369b565b81010312613def575061430490613a16565b388061426e565b503d6142e8565b8351903d90823e3d90fd5b5083811615156141f8565b506064935051917f08c379a0000000000000000000000000000000000000000000000000000000008352820152600a60248201527f746f20626c6f636b6564000000000000000000000000000000000000000000006044820152fd5b90508381813d83116143b6575b61439b818361369b565b810103126143b2576143ac90613a16565b386141e0565b5080fd5b503d614391565b83513d84823e3d90fd5b606487878751917f08c379a0000000000000000000000000000000000000000000000000000000008352820152600c60248201527f66726f6d20626c6f636b656400000000000000000000000000000000000000006044820152fd5b90508681813d8311614455575b61443a818361369b565b810103126144515761444b90613a16565b38614192565b8480fd5b503d614430565b86513d87823e3d90fd5b508285161515614023565b60646040517f08c379a000000000000000000000000000000000000000000000000000000000815260206004820152600660248201527f70617573656400000000000000000000000000000000000000000000000000006044820152fd5b3360009081527fb16e88c42fd4e48df2dd6a2eabd6bc9aec654ec170056b470819f8892cc6431c60205260409020547fa49807205ce4d355092ef5a8a18f56e8913cf4a201fbe287825b095693c217759060ff16156106275750565b806000527f02dd7bc7dec4dceedda775e58dd541e08a116c6c53815c0bd028192f7b62680060205260406000203360005260205260ff60406000205416156145705750565b6040517fe2517d3f0000000000000000000000000000000000000000000000000000000081523360048201526024810191909152604490fd5b917f5a704327e31956bf96aff8ee22aee48745a3d9589bdd741383a753f5f0ebfe2a916145ed9167ffffffffffffffff6040519384936040855260408501906135ad565b911660208301520390a2565b1561460057565b60646040517f08c379a000000000000000000000000000000000000000000000000000000000815260206004820152600d60248201527f7265736572766520726174696f000000000000000000000000000000000000006044820152fd5b73ffffffffffffffffffffffffffffffffffffffff1660008181527fb7db2dd08fcb62d0c9e08c51941cae53c267786a0b75803fb7960902fc8ef97d60205260408120549091907f02dd7bc7dec4dceedda775e58dd541e08a116c6c53815c0bd028192f7b6268009060ff1661473657828052602052604082208183526020526040822060017fffffffffffffffffffffffffffffffffffffffffffffffffffffffffffffff0082541617905533917f2f8788117e7eff1d82e926ec794901d17c78024a50270940304540a733656f0d8180a4600190565b505090565b73ffffffffffffffffffffffffffffffffffffffff1660008181527fb16e88c42fd4e48df2dd6a2eabd6bc9aec654ec170056b470819f8892cc6431c60205260408120549091907fa49807205ce4d355092ef5a8a18f56e8913cf4a201fbe287825b095693c21775907f02dd7bc7dec4dceedda775e58dd541e08a116c6c53815c0bd028192f7b6268009060ff1661483457818452602052604083208284526020526040832060017fffffffffffffffffffffffffffffffffffffffffffffffffffffffffffffff008254161790557f2f8788117e7eff1d82e926ec794901d17c78024a50270940304540a733656f0d339380a4600190565b50505090565b906000918083527f02dd7bc7dec4dceedda775e58dd541e08a116c6c53815c0bd028192f7b6268008060205273ffffffffffffffffffffffffffffffffffffffff6040852093169283855260205260ff6040852054161560001461483457818452602052604083208284526020526040832060017fffffffffffffffffffffffffffffffffffffffffffffffffffffffffffffff008254161790557f2f8788117e7eff1d82e926ec794901d17c78024a50270940304540a733656f0d339380a4600190565b906000918083527f02dd7bc7dec4dceedda775e58dd541e08a116c6c53815c0bd028192f7b6268008060205273ffffffffffffffffffffffffffffffffffffffff6040852093169283855260205260ff6040852054166000146148345781845260205260408320828452602052604083207fffffffffffffffffffffffffffffffffffffffffffffffffffffffffffffff0081541690557ff6391f5c32d9c69d2a47ea670b442974b53935d1edc7fd64eb21e047a839171b339380a4600190565b73ffffffffffffffffffffffffffffffffffffffff60035416806149e15750565b670de0b6b3a76400006149f960075460055490613a03565b04813b156102a4576000916024839260405194859384927fdddc547400000000000000000000000000000000000000000000000000000000845260048401525af180156105e557614a475750565b67ffffffffffffffff81116109b657604052565b9290614a97917fa81ce2ee306fb37a4d3708e17224d7964f22391ac3c44680e09383a2a9f05bb4936040519384936060855260608501906135ad565b9167ffffffffffffffff80921660208501521660408301520390a3565b9173ffffffffffffffffffffffffffffffffffffffff8084169283156132685716928315613237577f8c5be1e5ebec7d5bd14f71427d1e84f3dd0314c0f7b2291e5b200ac8c7c3b92591614b4960209273ffffffffffffffffffffffffffffffffffffffff166000527f52c63247e1f47db19d5ce0460030c497f067ca4cebf71ba98eeadabe20bace01602052604060002090565b85600052825280604060002055604051908152a3565b614b67614db2565b614b6f614e1c565b6040519060208201927f8b73c3c69bb8fe3d512ecc4cf759cc79239f7b179b0ffacaa9a75d522b39400f8452604083015260608201524660808201523060a082015260a0815260c0810181811067ffffffffffffffff8211176109b65760405251902090565b60ff7ff0c57e16840df040f15088dc2f81fe391c3923bec73e23a9662efc9c229c6a005460401c1615614c0457565b60046040517fd7e6bcf8000000000000000000000000000000000000000000000000000000008152fd5b91907f7fffffffffffffffffffffffffffffff5d576e7357a4501ddfe92f46681b20a08411614cbf57926020929160ff608095604051948552168484015260408301526060820152600092839182805260015afa15614cb357805173ffffffffffffffffffffffffffffffffffffffff811615614caa57918190565b50809160019190565b604051903d90823e3d90fd5b50505060009160039190565b6004811015614d835780614cdd575050565b60018103614d0f5760046040517ff645eedf000000000000000000000000000000000000000000000000000000008152fd5b60028103614d4857602482604051907ffce698f70000000000000000000000000000000000000000000000000000000082526004820152fd5b600314614d525750565b602490604051907fd78bce0c0000000000000000000000000000000000000000000000000000000082526004820152fd5b7f4e487b7100000000000000000000000000000000000000000000000000000000600052602160045260246000fd5b614dba613839565b8051908115614dca576020012090565b50507fa16a46d94261c7517cc8ff89f61c0ce93598e3c849801011dee649a6a557d100548015614df75790565b507fc5d2460186f7233c927e7db2dcc703c0e500b653ca82273b7bfad8045d85a47090565b614e24613942565b8051908115614e34576020012090565b50507fa16a46d94261c7517cc8ff89f61c0ce93598e3c849801011dee649a6a557d101548015614df75790565b90614ea05750805115614e7657805190602001fd5b60046040517f1425ea42000000000000000000000000000000000000000000000000000000008152fd5b81511580614ef8575b614eb1575090565b60249073ffffffffffffffffffffffffffffffffffffffff604051917f9996b315000000000000000000000000000000000000000000000000000000008352166004820152fd5b50803b15614ea956fea264697066735822122008bc7831d55e59ba23f43d7979df22b075560ef0a28ea238c9ca49f036672f9364736f6c63430008180033","linkReferences":{}},"methodIdentifiers":{"ADMIN_ROLE()":"75b238fc","BURN_ROLE()":"b930908f","DEFAULT_ADMIN_ROLE()":"a217fddf","DOMAIN_SEPARATOR()":"3644e515","MINT_ROLE()":"e9a9c850","ONE()":"c2ee3a08","ORACLE_ROLE()":"07e2cea5","REBASE_ROLE()":"edaefc31","UPGRADE_INTERFACE_VERSION()":"ad3cb1cc","activePolicy()":"cf6a1fa0","allowance(address,address)":"dd62ed3e","approve(address,uint256)":"095ea7b3","balanceOf(address)":"70a08231","burn(address,uint256,bytes32,string,bytes32)":"b2dbdbf0","carModule()":"5e63b675","decimals()":"313ce567","eip712Domain()":"84b0196e","getRoleAdmin(bytes32)":"248a9ca3","grantRole(bytes32,address)":"2f2ff15d","hasRole(bytes32,address)":"91d14854","index()":"2986c0e5","initialize(address,string,string,address,bytes32,address,address)":"9d01e58b","maxRebaseStepBps()":"be7f7545","minReserveRatioBps()":"c05eb11c","mint(address,uint256,bytes32,string,bytes32)":"e2a4aed7","name()":"06fdde03","nonces(address)":"7ecebe00","pause()":"8456cb59","paused()":"5c975abb","permit(address,address,uint256,uint256,uint8,bytes32,bytes32)":"d505accf","proxiableUUID()":"52d1902d","rebase(int256,bytes32,string)":"23d14cc9","registry()":"7b103999","renounceRole(bytes32,address)":"36568abe","reserveOracle()":"816bc90b","revokeRole(bytes32,address)":"d547741f","setCARModule(address)":"6ca826f2","setGuards(uint16,uint16)":"6965942b","setPolicy(bytes32)":"dc27151e","setReserveOracle(address)":"bfb0fb86","setTravelRule(address,bool,uint64)":"2f17ddcd","supportsInterface(bytes4)":"01ffc9a7","symbol()":"95d89b41","totalSupply()":"18160ddd","transfer(address,uint256)":"a9059cbb","transferFrom(address,address,uint256)":"23b872dd","transfersRestricted()":"8423df79","travelRule()":"f93f30fc","travelRuleTTLSeconds()":"0b870eba","unpause()":"3f4ba83a","upgradeToAndCall(address,bytes)":"4f1ef286"},"id":102}