{
  "_format": "hh-sol-artifact-1",
  "contractName": "MockComplianceRegistry",
  "sourceName": "contracts/mocks/MockComplianceRegistry.sol",
  "abi": [
    {
      "inputs": [
        {
          "internalType": "address",
          "name": "account",
          "type": "address"
        }
      ],
      "name": "isCompliant",
      "outputs": [
        {
          "internalType": "bool",
          "name": "",
          "type": "bool"
        }
      ],
      "stateMutability": "view",
      "type": "function"
    },
    {
      "inputs": [
        {
          "internalType": "address",
          "name": "account",
          "type": "address"
        },
        {
          "internalType": "bool",
          "name": "status",
          "type": "bool"
        }
      ],
      "name": "setCompliant",
      "outputs": [],
      "stateMutability": "nonpayable",
      "type": "function"
    }
  ],
  "bytecode": "0x6080806040523461001657610109908161001c8239f35b600080fdfe6080806040526004361015601257600080fd5b600090813560e01c908163a200e5d0146080575063e4d58fd714603457600080fd5b34607d576040366003190112607d57604960b9565b602435908115158092036079576001600160a01b0316825281602052604082209060ff8019835416911617905580f35b8280fd5b80fd5b90503460b557602036600319011260b55760ff60406020936001600160a01b0360a660b9565b16815280855220541615158152f35b5080fd5b600435906001600160a01b038216820360ce57565b600080fdfea26469706673582212202b3ad3d88bc4cc0ffb32c441a57d6c79c013fb8fe189d7e362099e73692e7e9c64736f6c63430008180033",
  "linkReferences": {},
  "deployedLinkReferences": {}
}