{"abi":[{"type":"constructor","inputs":[{"name":"_admin","type":"address","internalType":"address"}],"stateMutability":"nonpayable"},{"type":"function","name":"addObligation","inputs":[{"name":"token","type":"address","internalType":"address"},{"name":"from","type":"address","internalType":"address"},{"name":"to","type":"address","internalType":"address"},{"name":"amount","type":"uint256","internalType":"uint256"}],"outputs":[],"stateMutability":"nonpayable"},{"type":"function","name":"admin","inputs":[],"outputs":[{"name":"","type":"address","internalType":"address"}],"stateMutability":"view"},{"type":"function","name":"obls","inputs":[{"name":"","type":"address","internalType":"address"},{"name":"","type":"uint256","internalType":"uint256"}],"outputs":[{"name":"from","type":"address","internalType":"address"},{"name":"to","type":"address","internalType":"address"},{"name":"amount","type":"uint256","internalType":"uint256"}],"stateMutability":"view"},{"type":"function","name":"settle","inputs":[{"name":"token","type":"address","internalType":"address"}],"outputs":[],"stateMutability":"nonpayable"},{"type":"function","name":"transferAdmin","inputs":[{"name":"to","type":"address","internalType":"address"}],"outputs":[],"stateMutability":"nonpayable"},{"type":"event","name":"AdminTransferred","inputs":[{"name":"from","type":"address","indexed":true,"internalType":"address"},{"name":"to","type":"address","indexed":true,"internalType":"address"}],"anonymous":false},{"type":"event","name":"ObligationAdded","inputs":[{"name":"token","type":"address","indexed":true,"internalType":"address"},{"name":"from","type":"address","indexed":true,"internalType":"address"},{"name":"to","type":"address","indexed":true,"internalType":"address"},{"name":"amount","type":"uint256","indexed":false,"internalType":"uint256"}],"anonymous":false},{"type":"event","name":"Settled","inputs":[{"name":"token","type":"address","indexed":true,"internalType":"address"}],"anonymous":false}],"bytecode":{"object":"0x6080346100ad57601f61099c38819003918201601f19168301916001600160401b038311848410176100b2578084926020946040528339810103126100ad57516001600160a01b038116908190036100ad57801561007a57600080546001600160a01b0319169190911790556040516108d390816100c98239f35b60405162461bcd60e51b815260206004820152600b60248201526a04e503a2061646d696e20360ac1b6044820152606490fd5b600080fd5b634e487b7160e01b600052604160045260246000fdfe6040608081526004908136101561001557600080fd5b600091823560e01c908163391f5718146106ff5781636a256b291461046f57816375829def14610359578163ec5186fa146100ad575063f851a4401461005a57600080fd5b346100a957817ffffffffffffffffffffffffffffffffffffffffffffffffffffffffffffffffc3601126100a95773ffffffffffffffffffffffffffffffffffffffff60209254169051908152f35b5080fd5b919050346103555760807ffffffffffffffffffffffffffffffffffffffffffffffffffffffffffffffffc360112610355576100e76107c5565b60249081359273ffffffffffffffffffffffffffffffffffffffff94858516809503610351576044359580871680970361034d576064359361012d828a54163314610838565b84156102f1578787146102955781169485895260016020528389209184516060810181811067ffffffffffffffff82111761026a57865288815260208101928a8452868201948886528054906801000000000000000082101561023f579061019a916001820181556107ed565b969096610216575050927f84522dc083581a89e79e9c01a26433f2e8ca3470b82101003b671dbc7adb3c3d96949282600293602098965116907fffffffffffffffffffffffff0000000000000000000000000000000000000000918287541617865560018601925116908254161790555191015551908152a480f35b8c80917f4e487b7100000000000000000000000000000000000000000000000000000000825252fd5b828e60418a7f4e487b7100000000000000000000000000000000000000000000000000000000835252fd5b838c6041887f4e487b7100000000000000000000000000000000000000000000000000000000835252fd5b60648360088860208851937f08c379a00000000000000000000000000000000000000000000000000000000085528401528201527f4e503a2073616d650000000000000000000000000000000000000000000000006044820152fd5b60648360098860208851937f08c379a00000000000000000000000000000000000000000000000000000000085528401528201527f4e503a20616d74203000000000000000000000000000000000000000000000006044820152fd5b8780fd5b8680fd5b8280fd5b9050346103555760207ffffffffffffffffffffffffffffffffffffffffffffffffffffffffffffffffc360112610355576103926107c5565b83549173ffffffffffffffffffffffffffffffffffffffff808416926103b9843314610838565b1693841561041257505090827fffffffffffffffffffffffff0000000000000000000000000000000000000000927ff8ccb027dfcd135e000e9d45e6cc2d662578a8825d4c45b5e32e0adf67e79ec68680a31617815580f35b90602060649251917f08c379a0000000000000000000000000000000000000000000000000000000008352820152600560248201527f4e503a20300000000000000000000000000000000000000000000000000000006044820152fd5b905034610355576020807ffffffffffffffffffffffffffffffffffffffffffffffffffffffffffffffffc3601126106fb576104a96107c5565b73ffffffffffffffffffffffffffffffffffffffff80916104ce828854163314610838565b1693848652600191828452818720908388905b610591575b50505084865281835285209182549286815583610527575b86867fefb6205dbe155ded2c6cd1c00ae5941f650b076f7ea0823645364b1aa1b418a48280a280f35b60039484600302946003860403610565575086528520918201915b82811061054f57806104fe565b8086859255868382015586600282015501610542565b8760116024927f4e487b7100000000000000000000000000000000000000000000000000000000835252fd5b82548110156106f657816105a582856107ed565b5054168683876105b585886107ed565b50015416918961062960026105ca878a6107ed565b500154895195869485947f23b872dd000000000000000000000000000000000000000000000000000000008652850160409194939294606082019573ffffffffffffffffffffffffffffffffffffffff80921683521660208201520152565b03818d8d5af180156106ec5790869493929161064b575b5083019091926104e1565b909350863d88116106e5575b7fffffffffffffffffffffffffffffffffffffffffffffffffffffffffffffffe0601f820116820182811067ffffffffffffffff8211176106b957889183918852810103126106b55751801515036106b157849238610640565b8880fd5b8980fd5b60248c60418c7f4e487b7100000000000000000000000000000000000000000000000000000000835252fd5b503d610657565b85513d8c823e3d90fd5b6104e6565b8380fd5b8284346107c257817ffffffffffffffffffffffffffffffffffffffffffffffffffffffffffffffffc3601126107c2576107376107c5565b906024359073ffffffffffffffffffffffffffffffffffffffff809316815260016020528381209081548310156107c257506107be91610776916107ed565b50926002838554169360018601541694015490519384938460409194939294606082019573ffffffffffffffffffffffffffffffffffffffff80921683521660208201520152565b0390f35b80fd5b6004359073ffffffffffffffffffffffffffffffffffffffff821682036107e857565b600080fd5b8054821015610809576000526003602060002091020190600090565b7f4e487b7100000000000000000000000000000000000000000000000000000000600052603260045260246000fd5b1561083f57565b60646040517f08c379a000000000000000000000000000000000000000000000000000000000815260206004820152600d60248201527f4e503a206e6f742061646d696e000000000000000000000000000000000000006044820152fdfea2646970667358221220de2bdb259699939aa7bae886ea17c602653ae438c340d22ff3edafdabf77256564736f6c63430008180033","linkReferences":{}},"methodIdentifiers":{"addObligation(address,address,address,uint256)":"ec5186fa","admin()":"f851a440","obls(address,uint256)":"391f5718","settle(address)":"6a256b29","transferAdmin(address)":"75829def"},"id":76}