{"abi":[{"type":"constructor","inputs":[{"name":"_verifier","type":"address","internalType":"address"}],"stateMutability":"nonpayable"},{"type":"function","name":"currentMerkleRoot","inputs":[],"outputs":[{"name":"","type":"bytes32","internalType":"bytes32"}],"stateMutability":"view"},{"type":"function","name":"emergencyReveal","inputs":[{"name":"settlementId","type":"bytes32","internalType":"bytes32"}],"outputs":[],"stateMutability":"nonpayable"},{"type":"function","name":"executePrivateSettlement","inputs":[{"name":"settlementId","type":"bytes32","internalType":"bytes32"},{"name":"nullifierHashes","type":"bytes32[]","internalType":"bytes32[]"},{"name":"merkleProofs","type":"bytes32[]","internalType":"bytes32[]"},{"name":"leafIndices","type":"uint256[]","internalType":"uint256[]"}],"outputs":[],"stateMutability":"nonpayable"},{"type":"function","name":"initiatePrivateSettlement","inputs":[{"name":"settlementId","type":"bytes32","internalType":"bytes32"},{"name":"merkleRoot","type":"bytes32","internalType":"bytes32"},{"name":"proof","type":"tuple","internalType":"struct QuantumResistantZKSettlement.ZKProof","components":[{"name":"a","type":"uint256[2]","internalType":"uint256[2]"},{"name":"b","type":"uint256[2][2]","internalType":"uint256[2][2]"},{"name":"c","type":"uint256[2]","internalType":"uint256[2]"},{"name":"inputs","type":"uint256[8]","internalType":"uint256[8]"}]},{"name":"qrProof","type":"tuple","internalType":"struct QuantumResistantZKSettlement.QuantumResistantProof","components":[{"name":"latticeCommitment","type":"bytes32","internalType":"bytes32"},{"name":"hashCommitment","type":"bytes32","internalType":"bytes32"},{"name":"timestamp","type":"uint256","internalType":"uint256"},{"name":"publicKey","type":"bytes32","internalType":"bytes32"}]},{"name":"participants","type":"address[]","internalType":"address[]"},{"name":"amounts","type":"uint256[]","internalType":"uint256[]"},{"name":"assets","type":"address[]","internalType":"address[]"}],"outputs":[],"stateMutability":"nonpayable"},{"type":"function","name":"nullifiers","inputs":[{"name":"","type":"bytes32","internalType":"bytes32"}],"outputs":[{"name":"","type":"bool","internalType":"bool"}],"stateMutability":"view"},{"type":"function","name":"owner","inputs":[],"outputs":[{"name":"","type":"address","internalType":"address"}],"stateMutability":"view"},{"type":"function","name":"renounceOwnership","inputs":[],"outputs":[],"stateMutability":"nonpayable"},{"type":"function","name":"settlements","inputs":[{"name":"","type":"bytes32","internalType":"bytes32"}],"outputs":[{"name":"settlementId","type":"bytes32","internalType":"bytes32"},{"name":"merkleRoot","type":"bytes32","internalType":"bytes32"},{"name":"proof","type":"tuple","internalType":"struct QuantumResistantZKSettlement.ZKProof","components":[{"name":"a","type":"uint256[2]","internalType":"uint256[2]"},{"name":"b","type":"uint256[2][2]","internalType":"uint256[2][2]"},{"name":"c","type":"uint256[2]","internalType":"uint256[2]"},{"name":"inputs","type":"uint256[8]","internalType":"uint256[8]"}]},{"name":"qrProof","type":"tuple","internalType":"struct QuantumResistantZKSettlement.QuantumResistantProof","components":[{"name":"latticeCommitment","type":"bytes32","internalType":"bytes32"},{"name":"hashCommitment","type":"bytes32","internalType":"bytes32"},{"name":"timestamp","type":"uint256","internalType":"uint256"},{"name":"publicKey","type":"bytes32","internalType":"bytes32"}]},{"name":"isExecuted","type":"bool","internalType":"bool"},{"name":"timestamp","type":"uint256","internalType":"uint256"}],"stateMutability":"view"},{"type":"function","name":"transferOwnership","inputs":[{"name":"newOwner","type":"address","internalType":"address"}],"outputs":[],"stateMutability":"nonpayable"},{"type":"function","name":"updateMerkleRoot","inputs":[{"name":"newRoot","type":"bytes32","internalType":"bytes32"}],"outputs":[],"stateMutability":"nonpayable"},{"type":"function","name":"verifier","inputs":[],"outputs":[{"name":"","type":"address","internalType":"address"}],"stateMutability":"view"},{"type":"event","name":"EmergencyReveal","inputs":[{"name":"settlementId","type":"bytes32","indexed":true,"internalType":"bytes32"},{"name":"participants","type":"address[]","indexed":false,"internalType":"address[]"},{"name":"amounts","type":"uint256[]","indexed":false,"internalType":"uint256[]"}],"anonymous":false},{"type":"event","name":"NullifierUsed","inputs":[{"name":"nullifier","type":"bytes32","indexed":true,"internalType":"bytes32"}],"anonymous":false},{"type":"event","name":"OwnershipTransferred","inputs":[{"name":"previousOwner","type":"address","indexed":true,"internalType":"address"},{"name":"newOwner","type":"address","indexed":true,"internalType":"address"}],"anonymous":false},{"type":"event","name":"PrivateSettlementExecuted","inputs":[{"name":"settlementId","type":"bytes32","indexed":true,"internalType":"bytes32"}],"anonymous":false},{"type":"event","name":"PrivateSettlementInitiated","inputs":[{"name":"settlementId","type":"bytes32","indexed":true,"internalType":"bytes32"},{"name":"merkleRoot","type":"bytes32","indexed":false,"internalType":"bytes32"}],"anonymous":false},{"type":"event","name":"PrivateTransferExecuted","inputs":[{"name":"settlementId","type":"bytes32","indexed":true,"internalType":"bytes32"},{"name":"participant","type":"address","indexed":true,"internalType":"address"},{"name":"amount","type":"uint256","indexed":false,"internalType":"uint256"},{"name":"asset","type":"address","indexed":false,"internalType":"address"}],"anonymous":false},{"type":"error","name":"OwnableInvalidOwner","inputs":[{"name":"owner","type":"address","internalType":"address"}]},{"type":"error","name":"OwnableUnauthorizedAccount","inputs":[{"name":"account","type":"address","internalType":"address"}]},{"type":"error","name":"ReentrancyGuardReentrantCall","inputs":[]}],"bytecode":{"object":"0x6080346100ca57601f6116ff38819003918201601f19168301916001600160401b038311848410176100cf578084926020946040528339810103126100ca57516001600160a01b0390818116908190036100ca5733156100b15760005460018060a01b0319903382821617600055604051933391167f8be0079c531659141344cd1fd0a4f28419497f9722a3daafe3b4186f6b6457e0600080a360018055600454161760045561161990816100e68239f35b604051631e4fbdf760e01b815260006004820152602490fd5b600080fd5b634e487b7160e01b600052604160045260246000fdfe608080604052600436101561001357600080fd5b60003560e01c90816301bc95e21461100a5750806317c51ef3146108555780632997e86b146108065780632b7ac3f3146107b45780634783f0ef14610775578063555e4743146103f0578063715018a6146103545780638da5cb5b146103025780639ea97190146102c6578063b37de900146101805763f2fde38b1461009857600080fd5b3461017b5760207ffffffffffffffffffffffffffffffffffffffffffffffffffffffffffffffffc36011261017b5760043573ffffffffffffffffffffffffffffffffffffffff80821680920361017b576100f1611592565b811561014a57600054827fffffffffffffffffffffffff0000000000000000000000000000000000000000821617600055167f8be0079c531659141344cd1fd0a4f28419497f9722a3daafe3b4186f6b6457e0600080a3005b60246040517f1e4fbdf700000000000000000000000000000000000000000000000000000000815260006004820152fd5b600080fd5b3461017b576020807ffffffffffffffffffffffffffffffffffffffffffffffffffffffffffffffffc36011261017b57600435906101bc611592565b816000526002815260406000209060198201908154916101df60ff841615611497565b60017fffffffffffffffffffffffffffffffffffffffffffffffffffffffffffffff0081941617905560176016840193019160405193604085016040865281548091526060860191600052836000209060005b81811061029d575050508481038386015282845491828152019360005282600020926000905b82821061028857877ff8f21eef67edc0157a7859a8a615dbb650282ad37aa3c5e55d6c7eba71b5ead088880389a2005b84548652948501949383019390830190610258565b825473ffffffffffffffffffffffffffffffffffffffff16845292850192918401918401610232565b3461017b5760007ffffffffffffffffffffffffffffffffffffffffffffffffffffffffffffffffc36011261017b576020600554604051908152f35b3461017b5760007ffffffffffffffffffffffffffffffffffffffffffffffffffffffffffffffffc36011261017b57602073ffffffffffffffffffffffffffffffffffffffff60005416604051908152f35b3461017b5760007ffffffffffffffffffffffffffffffffffffffffffffffffffffffffffffffffc36011261017b5761038b611592565b600073ffffffffffffffffffffffffffffffffffffffff81547fffffffffffffffffffffffff000000000000000000000000000000000000000081168355167f8be0079c531659141344cd1fd0a4f28419497f9722a3daafe3b4186f6b6457e08280a3005b3461017b5760807ffffffffffffffffffffffffffffffffffffffffffffffffffffffffffffffffc36011261017b57602467ffffffffffffffff600435823582811161017b5761044490369060040161139c565b9260449260443581811161017b5761046090369060040161139c565b9360649160643590811161017b5761047c90369060040161139c565b92610485611557565b8460005260209360028552604060002096601988019660ff976104ac60ff82541615611497565b601a8a0154610e1081018091116107465742106106e85760005b8b518110156105c0576104d9818d6114fc565b516000526003808a528a604060002054166105655790610539818e60019461050183836114fc565b516000528d526040600020857fffffffffffffffffffffffffffffffffffffffffffffffffffffffffffffff008254161790556114fc565b517f4aac17bcf1974f8ba294b28aaf75fe627cdcc9a03ac55bda3bfe158ab067383c600080a2016104c6565b888a7f4e756c6c696669657220616c72656164792075736564000000000000000000008a60168b604051947f08c379a00000000000000000000000000000000000000000000000000000000086526004860152840152820152fd5b50879394508960005b84518110156105f157806105df600192876114fc565b506105ea81896114fc565b50016105c9565b50849060009060168101928354936018601784019301935b8581106106655786547fffffffffffffffffffffffffffffffffffffffffffffffffffffffffffffff00166001178755877f471a6429a2eb8744b3f107ea84c05e903c5965905539fbc443f0743b15ddb796600080a260018055005b8085897f36347afa0cf4618d79445a683136782fd7e379b17f9193c25b4c3efbc499869260406106976001968861153f565b73ffffffffffffffffffffffffffffffffffffffff9154908b836106cd8a6106c18160039561153f565b905490851b1c9a61153f565b905490831b1c1685519889528c8901521b1c1693a301610609565b606488604051907f08c379a00000000000000000000000000000000000000000000000000000000082526004820152601460248201527f546f6f206561726c7920746f20657865637574650000000000000000000000006044820152fd5b7f4e487b7100000000000000000000000000000000000000000000000000000000600052601160045260246000fd5b3461017b5760207ffffffffffffffffffffffffffffffffffffffffffffffffffffffffffffffffc36011261017b576107ac611592565b600435600555005b3461017b5760007ffffffffffffffffffffffffffffffffffffffffffffffffffffffffffffffffc36011261017b57602073ffffffffffffffffffffffffffffffffffffffff60045416604051908152f35b3461017b5760207ffffffffffffffffffffffffffffffffffffffffffffffffffffffffffffffffc36011261017b576004356000526003602052602060ff604060002054166040519015158152f35b3461017b576103207ffffffffffffffffffffffffffffffffffffffffffffffffffffffffffffffffc36011261017b576102007fffffffffffffffffffffffffffffffffffffffffffffffffffffffffffffffbc36011261017b576040516108bc81611214565b366063121561017b576040516108d18161124d565b60848136821161017b576044905b828210610ffa5750505081523660a3121561017b576040516109008161124d565b806101049136831161017b576084905b838210610fa9575050602083015236610123121561017b576040516109348161124d565b806101449236841161017b57905b838210610f99575050604083015236610163121561017b5760405161096681611230565b806102449236841161017b57905b838210610f89575050606083015260807ffffffffffffffffffffffffffffffffffffffffffffffffffffffffffffffdbc36011261017b57604051906109b982611214565b358152602081019061026435825260408101906102843582526102a43560608201526102c43567ffffffffffffffff811161017b576109fc90369060040161131f565b906102e43567ffffffffffffffff811161017b57610a1e90369060040161139c565b926103043567ffffffffffffffff811161017b57610a4090369060040161131f565b94610a49611557565b6004356000526002602052601a60406000200154610f2b57610a6e84518651146113fc565b610a7b85518751146113fc565b825115610ecd575115610e6f5751420342811161074657610e101115610e115760405194610120860186811067ffffffffffffffff821117610d29576040526004358652602435602087015260408601526060850152608084015260a083015260c0820152600060e082015242610100820152600435600052600260205260406000209080518255602081015160018301556040810151805160005b60028110610dfa575050602081015160048401906000905b60028210610dc457505050604081015160005b60028110610dad5750506060015160005b60088110610d9657505060608082015180516012850155602081015160138501556040810151601485015501516015830155608081015180519067ffffffffffffffff8211610d2957680100000000000000008211610d295760168401805483825560209291610bc4918591611461565b0160168401600052602060002060005b838110610d6c57858560a081015180519067ffffffffffffffff8211610d2957680100000000000000008211610d295760178401805483825560209291610c1c918591611461565b0160178401600052602060002060005b838110610d585785856018820160c08201519081519167ffffffffffffffff8311610d2957680100000000000000008311610d2957602090610c7384845481865585611461565b0190600052602060002060005b838110610cff5785601a610100876019840160e0820151151560ff7fffffffffffffffffffffffffffffffffffffffffffffffffffffffffffffff008354169116179055015191015560405160243581527f84c6075f97000eb5f6911d63f33f2babf1646be4050ff8a8f0be48c1b16794aa602060043592a260018055005b600190602073ffffffffffffffffffffffffffffffffffffffff8551169401938184015501610c80565b7f4e487b7100000000000000000000000000000000000000000000000000000000600052604160045260246000fd5b600190602084519401938184015501610c2c565b600190602073ffffffffffffffffffffffffffffffffffffffff8551169401938184015501610bd4565b60019060208351930192600a828701015501610b53565b600190602083519301926008828801015501610b42565b805160005b60028110610de65750506002602060019201930191019091610b2f565b600190602083519301928187015501610dc9565b600190602083519301926002828801015501610b17565b60646040517f08c379a000000000000000000000000000000000000000000000000000000000815260206004820152600d60248201527f50726f6f6620746f6f206f6c64000000000000000000000000000000000000006044820152fd5b60646040517f08c379a000000000000000000000000000000000000000000000000000000000815260206004820152601760248201527f496e76616c6964206861736820636f6d6d69746d656e740000000000000000006044820152fd5b60646040517f08c379a000000000000000000000000000000000000000000000000000000000815260206004820152601a60248201527f496e76616c6964206c61747469636520636f6d6d69746d656e740000000000006044820152fd5b60646040517f08c379a000000000000000000000000000000000000000000000000000000000815260206004820152601960248201527f536574746c656d656e7420616c726561647920657869737473000000000000006044820152fd5b8135815260209182019101610974565b8135815260209182019101610942565b36601f8301121561017b57604051610fc08161124d565b806040840136811161017b5784915b818310610fea57505050816020916040935201910190610910565b8235815260209283019201610fcf565b81358152602091820191016108df565b3461017b5760207ffffffffffffffffffffffffffffffffffffffffffffffffffffffffffffffffc36011261017b576004356000526002602052604060002080549060018101549061105b84611214565b611067600282016112aa565b8452604051936040850185811067ffffffffffffffff821117610d2957604052600482016000865b600282106111f657505050602081019485526110ad600883016112aa565b604082015260405180600a8401906000905b600882106111e0575050506110d381611230565b6060820152604051946110e586611214565b60128301548652601383015460208701526014830154604087015260158301546060870152601a60ff6019850154169301549360405195865260208601526111316040860183516112df565b516000608086015b600282106111c2575050508061115a604060609301516101008701906112df565b015193600061014085015b600882106111ac575050805161024085015260208101516102608501526040810151610280850152606001516102a084015215156102c08301526102e08201526103009150f35b6020806001928951815201970191019095611165565b60206040826111d460019487516112df565b01930191019091611139565b60016020819285548152019301910190916110bf565b60026020600192611206866112aa565b81520193019101909161108f565b6080810190811067ffffffffffffffff821117610d2957604052565b610100810190811067ffffffffffffffff821117610d2957604052565b6040810190811067ffffffffffffffff821117610d2957604052565b90601f7fffffffffffffffffffffffffffffffffffffffffffffffffffffffffffffffe0910116810190811067ffffffffffffffff821117610d2957604052565b60405191906000835b600282106112c9575050506112c78261124d565b565b60016020819285548152019301910190916112b3565b6000915b600283106112f057505050565b6001908251815260208091019201920191906112e3565b67ffffffffffffffff8111610d295760051b60200190565b9080601f8301121561017b57602090823561133981611307565b936113476040519586611269565b81855260208086019260051b82010192831161017b57602001905b828210611370575050505090565b813573ffffffffffffffffffffffffffffffffffffffff8116810361017b578152908301908301611362565b9080601f8301121561017b5760209082356113b681611307565b936113c46040519586611269565b81855260208086019260051b82010192831161017b57602001905b8282106113ed575050505090565b813581529083019083016113df565b1561140357565b60646040517f08c379a000000000000000000000000000000000000000000000000000000000815260206004820152601560248201527f4172726179206c656e677468206d69736d6174636800000000000000000000006044820152fd5b909182811061146f57505050565b600091600052602060002092830192015b82811061148c57505050565b818155600101611480565b1561149e57565b60646040517f08c379a000000000000000000000000000000000000000000000000000000000815260206004820152601060248201527f416c7265616479206578656375746564000000000000000000000000000000006044820152fd5b80518210156115105760209160051b010190565b7f4e487b7100000000000000000000000000000000000000000000000000000000600052603260045260246000fd5b80548210156115105760005260206000200190600090565b600260015414611568576002600155565b60046040517f3ee5aeb5000000000000000000000000000000000000000000000000000000008152fd5b73ffffffffffffffffffffffffffffffffffffffff6000541633036115b357565b60246040517f118cdaa7000000000000000000000000000000000000000000000000000000008152336004820152fdfea264697066735822122004d6b6a7e993b667993c7d85dbc2b44b0219cad2490fea73a4cf6150f2c79fca64736f6c63430008180033","linkReferences":{}},"methodIdentifiers":{"currentMerkleRoot()":"9ea97190","emergencyReveal(bytes32)":"b37de900","executePrivateSettlement(bytes32,bytes32[],bytes32[],uint256[])":"555e4743","initiatePrivateSettlement(bytes32,bytes32,(uint256[2],uint256[2][2],uint256[2],uint256[8]),(bytes32,bytes32,uint256,bytes32),address[],uint256[],address[])":"17c51ef3","nullifiers(bytes32)":"2997e86b","owner()":"8da5cb5b","renounceOwnership()":"715018a6","settlements(bytes32)":"01bc95e2","transferOwnership(address)":"f2fde38b","updateMerkleRoot(bytes32)":"4783f0ef","verifier()":"2b7ac3f3"},"id":3}