{"abi":[{"type":"constructor","inputs":[],"stateMutability":"nonpayable"},{"type":"function","name":"BASIS_POINTS","inputs":[],"outputs":[{"name":"","type":"uint256","internalType":"uint256"}],"stateMutability":"view"},{"type":"function","name":"CONFIDENCE_95","inputs":[],"outputs":[{"name":"","type":"uint256","internalType":"uint256"}],"stateMutability":"view"},{"type":"function","name":"CONFIDENCE_99","inputs":[],"outputs":[{"name":"","type":"uint256","internalType":"uint256"}],"stateMutability":"view"},{"type":"function","name":"DAYS_PER_YEAR","inputs":[],"outputs":[{"name":"","type":"uint256","internalType":"uint256"}],"stateMutability":"view"},{"type":"function","name":"DECIMAL_PRECISION","inputs":[],"outputs":[{"name":"","type":"uint256","internalType":"uint256"}],"stateMutability":"view"},{"type":"function","name":"addHistoricalReturn","inputs":[{"name":"portfolio","type":"address","internalType":"address"},{"name":"dailyReturn","type":"int256","internalType":"int256"},{"name":"portfolioValue","type":"uint256","internalType":"uint256"}],"outputs":[],"stateMutability":"nonpayable"},{"type":"function","name":"addPosition","inputs":[{"name":"portfolio","type":"address","internalType":"address"},{"name":"asset","type":"address","internalType":"address"},{"name":"quantity","type":"uint256","internalType":"uint256"},{"name":"entryPrice","type":"uint256","internalType":"uint256"},{"name":"volatility","type":"uint256","internalType":"uint256"},{"name":"correlation","type":"int256","internalType":"int256"}],"outputs":[],"stateMutability":"nonpayable"},{"type":"function","name":"addStressScenario","inputs":[{"name":"portfolio","type":"address","internalType":"address"},{"name":"name","type":"string","internalType":"string"},{"name":"assetShocks","type":"int256[]","internalType":"int256[]"},{"name":"probability","type":"uint256","internalType":"uint256"}],"outputs":[],"stateMutability":"nonpayable"},{"type":"function","name":"calculateRiskMetrics","inputs":[{"name":"portfolio","type":"address","internalType":"address"}],"outputs":[{"name":"","type":"tuple","internalType":"struct PortfolioRiskEngine.RiskMetrics","components":[{"name":"portfolioValue","type":"uint256","internalType":"uint256"},{"name":"var95","type":"uint256","internalType":"uint256"},{"name":"var99","type":"uint256","internalType":"uint256"},{"name":"expectedShortfall95","type":"uint256","internalType":"uint256"},{"name":"expectedShortfall99","type":"uint256","internalType":"uint256"},{"name":"maxDrawdown","type":"uint256","internalType":"uint256"},{"name":"volatility","type":"uint256","internalType":"uint256"},{"name":"sharpeRatio","type":"uint256","internalType":"uint256"},{"name":"overallRisk","type":"uint8","internalType":"enum PortfolioRiskEngine.RiskLevel"},{"name":"lastCalculated","type":"uint256","internalType":"uint256"}]}],"stateMutability":"nonpayable"},{"type":"function","name":"createPortfolio","inputs":[{"name":"portfolio","type":"address","internalType":"address"}],"outputs":[],"stateMutability":"nonpayable"},{"type":"function","name":"executeStressTest","inputs":[{"name":"portfolio","type":"address","internalType":"address"},{"name":"scenarioName","type":"string","internalType":"string"}],"outputs":[{"name":"loss","type":"uint256","internalType":"uint256"}],"stateMutability":"nonpayable"},{"type":"function","name":"getPortfolioPositions","inputs":[{"name":"portfolio","type":"address","internalType":"address"}],"outputs":[{"name":"","type":"tuple[]","internalType":"struct PortfolioRiskEngine.PortfolioPosition[]","components":[{"name":"asset","type":"address","internalType":"address"},{"name":"quantity","type":"uint256","internalType":"uint256"},{"name":"entryPrice","type":"uint256","internalType":"uint256"},{"name":"currentPrice","type":"uint256","internalType":"uint256"},{"name":"volatility","type":"uint256","internalType":"uint256"},{"name":"correlation","type":"int256","internalType":"int256"},{"name":"lastUpdate","type":"uint256","internalType":"uint256"}]}],"stateMutability":"view"},{"type":"function","name":"getRiskMetrics","inputs":[{"name":"portfolio","type":"address","internalType":"address"}],"outputs":[{"name":"","type":"tuple","internalType":"struct PortfolioRiskEngine.RiskMetrics","components":[{"name":"portfolioValue","type":"uint256","internalType":"uint256"},{"name":"var95","type":"uint256","internalType":"uint256"},{"name":"var99","type":"uint256","internalType":"uint256"},{"name":"expectedShortfall95","type":"uint256","internalType":"uint256"},{"name":"expectedShortfall99","type":"uint256","internalType":"uint256"},{"name":"maxDrawdown","type":"uint256","internalType":"uint256"},{"name":"volatility","type":"uint256","internalType":"uint256"},{"name":"sharpeRatio","type":"uint256","internalType":"uint256"},{"name":"overallRisk","type":"uint8","internalType":"enum PortfolioRiskEngine.RiskLevel"},{"name":"lastCalculated","type":"uint256","internalType":"uint256"}]}],"stateMutability":"view"},{"type":"function","name":"historicalReturns","inputs":[{"name":"","type":"address","internalType":"address"},{"name":"","type":"uint256","internalType":"uint256"}],"outputs":[{"name":"dailyReturn","type":"int256","internalType":"int256"},{"name":"timestamp","type":"uint256","internalType":"uint256"},{"name":"portfolioValue","type":"uint256","internalType":"uint256"}],"stateMutability":"view"},{"type":"function","name":"maxDrawdownThreshold","inputs":[],"outputs":[{"name":"","type":"uint256","internalType":"uint256"}],"stateMutability":"view"},{"type":"function","name":"owner","inputs":[],"outputs":[{"name":"","type":"address","internalType":"address"}],"stateMutability":"view"},{"type":"function","name":"portfolioPositions","inputs":[{"name":"","type":"address","internalType":"address"},{"name":"","type":"uint256","internalType":"uint256"}],"outputs":[{"name":"asset","type":"address","internalType":"address"},{"name":"quantity","type":"uint256","internalType":"uint256"},{"name":"entryPrice","type":"uint256","internalType":"uint256"},{"name":"currentPrice","type":"uint256","internalType":"uint256"},{"name":"volatility","type":"uint256","internalType":"uint256"},{"name":"correlation","type":"int256","internalType":"int256"},{"name":"lastUpdate","type":"uint256","internalType":"uint256"}],"stateMutability":"view"},{"type":"function","name":"portfolioRiskMetrics","inputs":[{"name":"","type":"address","internalType":"address"}],"outputs":[{"name":"portfolioValue","type":"uint256","internalType":"uint256"},{"name":"var95","type":"uint256","internalType":"uint256"},{"name":"var99","type":"uint256","internalType":"uint256"},{"name":"expectedShortfall95","type":"uint256","internalType":"uint256"},{"name":"expectedShortfall99","type":"uint256","internalType":"uint256"},{"name":"maxDrawdown","type":"uint256","internalType":"uint256"},{"name":"volatility","type":"uint256","internalType":"uint256"},{"name":"sharpeRatio","type":"uint256","internalType":"uint256"},{"name":"overallRisk","type":"uint8","internalType":"enum PortfolioRiskEngine.RiskLevel"},{"name":"lastCalculated","type":"uint256","internalType":"uint256"}],"stateMutability":"view"},{"type":"function","name":"portfolios","inputs":[{"name":"","type":"uint256","internalType":"uint256"}],"outputs":[{"name":"","type":"address","internalType":"address"}],"stateMutability":"view"},{"type":"function","name":"renounceOwnership","inputs":[],"outputs":[],"stateMutability":"nonpayable"},{"type":"function","name":"stressScenarios","inputs":[{"name":"","type":"address","internalType":"address"},{"name":"","type":"uint256","internalType":"uint256"}],"outputs":[{"name":"name","type":"string","internalType":"string"},{"name":"probability","type":"uint256","internalType":"uint256"},{"name":"isActive","type":"bool","internalType":"bool"}],"stateMutability":"view"},{"type":"function","name":"transferOwnership","inputs":[{"name":"newOwner","type":"address","internalType":"address"}],"outputs":[],"stateMutability":"nonpayable"},{"type":"function","name":"updatePosition","inputs":[{"name":"portfolio","type":"address","internalType":"address"},{"name":"positionIndex","type":"uint256","internalType":"uint256"},{"name":"newQuantity","type":"uint256","internalType":"uint256"},{"name":"currentPrice","type":"uint256","internalType":"uint256"}],"outputs":[],"stateMutability":"nonpayable"},{"type":"function","name":"updateRiskThresholds","inputs":[{"name":"_var95Threshold","type":"uint256","internalType":"uint256"},{"name":"_maxDrawdownThreshold","type":"uint256","internalType":"uint256"},{"name":"_volatilityThreshold","type":"uint256","internalType":"uint256"}],"outputs":[],"stateMutability":"nonpayable"},{"type":"function","name":"var95Threshold","inputs":[],"outputs":[{"name":"","type":"uint256","internalType":"uint256"}],"stateMutability":"view"},{"type":"function","name":"volatilityThreshold","inputs":[],"outputs":[{"name":"","type":"uint256","internalType":"uint256"}],"stateMutability":"view"},{"type":"event","name":"OwnershipTransferred","inputs":[{"name":"previousOwner","type":"address","indexed":true,"internalType":"address"},{"name":"newOwner","type":"address","indexed":true,"internalType":"address"}],"anonymous":false},{"type":"event","name":"PortfolioCreated","inputs":[{"name":"portfolio","type":"address","indexed":true,"internalType":"address"}],"anonymous":false},{"type":"event","name":"PositionAdded","inputs":[{"name":"portfolio","type":"address","indexed":true,"internalType":"address"},{"name":"asset","type":"address","indexed":false,"internalType":"address"},{"name":"quantity","type":"uint256","indexed":false,"internalType":"uint256"}],"anonymous":false},{"type":"event","name":"PositionUpdated","inputs":[{"name":"portfolio","type":"address","indexed":true,"internalType":"address"},{"name":"asset","type":"address","indexed":false,"internalType":"address"},{"name":"newQuantity","type":"uint256","indexed":false,"internalType":"uint256"}],"anonymous":false},{"type":"event","name":"RiskMetricsCalculated","inputs":[{"name":"portfolio","type":"address","indexed":true,"internalType":"address"},{"name":"var95","type":"uint256","indexed":false,"internalType":"uint256"},{"name":"riskLevel","type":"uint8","indexed":false,"internalType":"enum PortfolioRiskEngine.RiskLevel"}],"anonymous":false},{"type":"event","name":"RiskThresholdBreached","inputs":[{"name":"portfolio","type":"address","indexed":true,"internalType":"address"},{"name":"measure","type":"uint8","indexed":false,"internalType":"enum PortfolioRiskEngine.RiskMeasure"},{"name":"value","type":"uint256","indexed":false,"internalType":"uint256"}],"anonymous":false},{"type":"event","name":"StressTestExecuted","inputs":[{"name":"portfolio","type":"address","indexed":true,"internalType":"address"},{"name":"scenario","type":"string","indexed":false,"internalType":"string"},{"name":"loss","type":"uint256","indexed":false,"internalType":"uint256"}],"anonymous":false},{"type":"error","name":"OwnableInvalidOwner","inputs":[{"name":"owner","type":"address","internalType":"address"}]},{"type":"error","name":"OwnableUnauthorizedAccount","inputs":[{"name":"account","type":"address","internalType":"address"}]},{"type":"error","name":"ReentrancyGuardReentrantCall","inputs":[]}],"bytecode":{"object":"0x608080604052346100985733156100825760008054336001600160a01b03198216811783556040519290916001600160a01b0316907f8be0079c531659141344cd1fd0a4f28419497f9722a3daafe3b4186f6b6457e09080a3600180556969e10de76676d08000006007556107d060085561138860095561376e908161009e8239f35b631e4fbdf760e01b815260006004820152602490fd5b600080fdfe6080604052600436101561001257600080fd5b6000803560e01c80631b60a26a14611aa857806331b5402f14611a6d578063367ca914146119ff57806343c4bd91146118495780634fd220141461180d57806362d2d3c61461175c5780636f36941a146115e6578063715018a61461154a5780637527ed1c146110d457806379949526146110995780638da5cb5b146110485780638f0196d614610e715780639fe88c8414610e35578063a13b1dd014610d1a578063a20baee614610cd9578063b5a68c6014610c8c578063c6846ef814610c51578063c866b74a14610995578063d97b9a4e146108c2578063d9a04679146104d7578063e1f1c4a71461049c578063ead0581d146103b1578063ec702de5146102ee578063f2fde38b1461020d578063f6526db0146101795763f7bb8ab91461013b57600080fd5b3461017657807ffffffffffffffffffffffffffffffffffffffffffffffffffffffffffffffffc360112610176576020600754604051908152f35b80fd5b50346101765760407ffffffffffffffffffffffffffffffffffffffffffffffffffffffffffffffffc360112610176576101b1611eea565b73ffffffffffffffffffffffffffffffffffffffff168152600460205260408120805460243592908310156101765760606101ec8484612341565b50805490600260018201549101549060405192835260208301526040820152f35b50346101765760207ffffffffffffffffffffffffffffffffffffffffffffffffffffffffffffffffc36011261017657610245611eea565b61024d61247e565b73ffffffffffffffffffffffffffffffffffffffff8091169081156102bd578254827fffffffffffffffffffffffff00000000000000000000000000000000000000008216178455167f8be0079c531659141344cd1fd0a4f28419497f9722a3daafe3b4186f6b6457e08380a380f35b602483604051907f1e4fbdf70000000000000000000000000000000000000000000000000000000082526004820152fd5b50346101765760407ffffffffffffffffffffffffffffffffffffffffffffffffffffffffffffffffc36011261017657610326611eea565b6024359173ffffffffffffffffffffffffffffffffffffffff8092168152600260205260408120908154841015610176575060e09261036491612325565b509081541690600181015490600281015460038201546004830154916006600585015494015494604051968752602087015260408601526060850152608084015260a083015260c0820152f35b50346101765760207ffffffffffffffffffffffffffffffffffffffffffffffffffffffffffffffffc3601126101765760406104989173ffffffffffffffffffffffffffffffffffffffff610404611eea565b61040c612426565b5016815260036020522060096040519161042583611f95565b8054835260018101546020840152600281015460408401526003810154606084015260048101546080840152600581015460a0840152600681015460c0840152600781015460e084015261048460ff6008830154166101008501612472565b0154610120820152604051918291826122b3565b0390f35b503461017657807ffffffffffffffffffffffffffffffffffffffffffffffffffffffffffffffffc3601126101765760206040516127108152f35b50346101765760207ffffffffffffffffffffffffffffffffffffffffffffffffffffffffffffffffc3601126101765761050f611eea565b610517612426565b5073ffffffffffffffffffffffffffffffffffffffff90818116835260029160026020526040842080549061054b8261225f565b946105596040519687611fb2565b82865260208601918752602087209087925b84841061086257505050505082511561080457610587836124cf565b9161059181612518565b9261059b82612788565b906105a583612cd3565b956105af84612e92565b966105b985612fd4565b916105c3906131bc565b92896105ce8761324b565b956105da86868c6134fb565b966040519b8c946105ea86611f95565b855260208501958c875260408601938452606086019081526080860191825260a0860197885260c0860198895260e0860192835261010086019361062e8b86612472565b6101208701954287528d8d1681526003602052604090209651875587516001880155516002870155516003860155516004850155855160058501558651600685015551600784015560088301905160048110156107d757936040989693600961071e97946104989f947f4842573e45472aa5c73d328f329c6063c231a930d8af9a6e7d76e9a5e65fe99f9d9b9860ff7fffffffffffffffffffffffffffffffffffffffffffffffffffffffffffffff0083541691161790555191015551600754811161079f575b5050516008548111610766575b5051600954811161072d575b5084519687526020870190612277565b1692a2604051918291826122b3565b8551906005825260208201527f42177200f830e9a42b66bd2c07b61b5c8c4d3925a391c7d70ff0c530d1d0d9868686861692a23861070e565b8651906004825260208201527f42177200f830e9a42b66bd2c07b61b5c8c4d3925a391c7d70ff0c530d1d0d9868787871692a238610702565b885191825260208201527f42177200f830e9a42b66bd2c07b61b5c8c4d3925a391c7d70ff0c530d1d0d9868888881692a238806106f5565b60248d7f4e487b710000000000000000000000000000000000000000000000000000000081526021600452fd5b60646040517f08c379a000000000000000000000000000000000000000000000000000000000815260206004820152601a60248201527f506f7274666f6c696f20686173206e6f20706f736974696f6e730000000000006044820152fd5b6007602060019260405161087581611f5d565b89875416815284870154838201528587015460408201526003870154606082015260048701546080820152600587015460a0820152600687015460c082015281520193019301929161056b565b50346101765760207ffffffffffffffffffffffffffffffffffffffffffffffffffffffffffffffffc3601126101765760406101409173ffffffffffffffffffffffffffffffffffffffff610915611eea565b16815260036020522080549061098d600182015491600281015460038201546004830154600584015490600685015492600786015494600960ff600889015416970154986040519a8b5260208b015260408a01526060890152608088015260a087015260c086015260e0850152610100840190612277565b610120820152f35b50346101765760c07ffffffffffffffffffffffffffffffffffffffffffffffffffffffffffffffffc360112610176576109cd611eea565b9073ffffffffffffffffffffffffffffffffffffffff60243581811690818103610c4d5760443591606435610a0061247e565b8315610bef578015610b915760405191610a1983611f5d565b825260208201908482526040830190808252606084019081526080840191608435835260a085019360a43585528860c087019b428d521698898b52600260205260408b2080549068010000000000000000821015610b645790610a8191600182018155612325565b979097610b3857917ffd9106994bd21922698b77d9fb5442fda81c54cabe507d8a17aae8a024594ab19a9b9c959391600697959351167fffffffffffffffffffffffff000000000000000000000000000000000000000089541617885551600188015551600287015551600386015551600485015551600584015551910155610b32604051928392836020909392919373ffffffffffffffffffffffffffffffffffffffff60408201951681520152565b0390a280f35b60248c7f4e487b7100000000000000000000000000000000000000000000000000000000815280600452fd5b60248d7f4e487b710000000000000000000000000000000000000000000000000000000081526041600452fd5b60646040517f08c379a000000000000000000000000000000000000000000000000000000000815260206004820152601760248201527f456e747279207072696365206d757374206265203e20300000000000000000006044820152fd5b60646040517f08c379a000000000000000000000000000000000000000000000000000000000815260206004820152601460248201527f5175616e74697479206d757374206265203e20300000000000000000000000006044820152fd5b8380fd5b503461017657807ffffffffffffffffffffffffffffffffffffffffffffffffffffffffffffffffc36011261017657602060405161016d8152f35b50346101765760607ffffffffffffffffffffffffffffffffffffffffffffffffffffffffffffffffc36011261017657610cc461247e565b60043560075560243560085560443560095580f35b503461017657807ffffffffffffffffffffffffffffffffffffffffffffffffffffffffffffffffc360112610176576020604051670de0b6b3a76400008152f35b50346101765760607ffffffffffffffffffffffffffffffffffffffffffffffffffffffffffffffffc36011261017657610d52611eea565b610d5a61247e565b60405190610d6782611f79565b60243582526020820142815273ffffffffffffffffffffffffffffffffffffffff6040840192604435845216845260046020526040842080549068010000000000000000821015610e085790610dc291600182018155612341565b939093610ddc575183555160018301555160029091015580f35b6024857f4e487b7100000000000000000000000000000000000000000000000000000000815280600452fd5b6024867f4e487b710000000000000000000000000000000000000000000000000000000081526041600452fd5b503461017657807ffffffffffffffffffffffffffffffffffffffffffffffffffffffffffffffffc360112610176576020600954604051908152f35b5034610176576020807ffffffffffffffffffffffffffffffffffffffffffffffffffffffffffffffffc36011261104457610eaa611eea565b610eb261247e565b73ffffffffffffffffffffffffffffffffffffffff809116918215610fe65760065490845b828110610f6857505068010000000000000000811015610f3b57806001610f019201600655612068565b819291549060031b9184831b921b19161790557fa5944e921786e13d5dc58c0ca531d7d45ea1dee4e7a394e9e0a01f294cf61d448280a280f35b6024847f4e487b710000000000000000000000000000000000000000000000000000000081526041600452fd5b8484610f7383612068565b90549060031b1c1614610f8857600101610ed7565b606482604051907f08c379a00000000000000000000000000000000000000000000000000000000082526004820152601860248201527f506f7274666f6c696f20616c72656164792065786973747300000000000000006044820152fd5b60646040517f08c379a000000000000000000000000000000000000000000000000000000000815260206004820152601960248201527f496e76616c696420706f7274666f6c696f2061646472657373000000000000006044820152fd5b5080fd5b503461017657807ffffffffffffffffffffffffffffffffffffffffffffffffffffffffffffffffc3601126101765773ffffffffffffffffffffffffffffffffffffffff6020915416604051908152f35b503461017657807ffffffffffffffffffffffffffffffffffffffffffffffffffffffffffffffffc3601126101765760206040516126ac8152f35b50346101765760807ffffffffffffffffffffffffffffffffffffffffffffffffffffffffffffffffc3601126101765761110c611eea565b60249067ffffffffffffffff82358181116115465761112f903690600401611ff3565b91604435918083116115425736602384011215611542578260040135926111558461225f565b906111636040519283611fb2565b848252602094878684019160051b8301019136831161153e5788879101915b83831061152e57505050506064359361119961247e565b61271085116114d157604051956111af87611f12565b865280860191825260408601948552606086019673ffffffffffffffffffffffffffffffffffffffff600195868a52168952600582526040892090815468010000000000000000928382101561147a579061120e9188820181556120ce565b9890986114a6575180519086821161147a57819061122c8b546120ea565b601f8111611427575b5085908d601f841160011461138e5792611383575b50507fffffffffffffffffffffffffffffffffffffffffffffffffffffffffffffffff82891b9260031b1c19161788555b858801935191825195861161135757851161132c575081908354858555808610611302575b500191885280882090885b8481106112f157898960038a8a516002820155019051151560ff7fffffffffffffffffffffffffffffffffffffffffffffffffffffffffffffff00835416911617905580f35b8351838201559281019285016112ab565b848b528686848d2092830192015b82811061131e5750506112a0565b8c8155859450889101611310565b897f4e487b710000000000000000000000000000000000000000000000000000000081526041600452fd5b50897f4e487b710000000000000000000000000000000000000000000000000000000081526041600452fd5b01519050388061124a565b91907fffffffffffffffffffffffffffffffffffffffffffffffffffffffffffffffe08b95168d8452888420935b8982821061141157505084116113da575b505050811b01885561127b565b01517fffffffffffffffffffffffffffffffffffffffffffffffffffffffffffffffff60f88460031b161c191690553880806113cd565b8385015186558d979095019493840193016113bc565b9091508a8d52858d20601f840160051c810191878510611470575b8e85949392601f8d930160051c0192905b83821061146257505050611235565b81558594508b91018f611453565b9091508190611442565b828c7f4e487b710000000000000000000000000000000000000000000000000000000081526041600452fd5b50897f4e487b7100000000000000000000000000000000000000000000000000000000815280600452fd5b606490601388604051927f08c379a000000000000000000000000000000000000000000000000000000000845260048401528201527f496e76616c69642070726f626162696c697479000000000000000000000000006044820152fd5b8235815291810191879101611182565b8980fd5b8580fd5b8480fd5b503461017657807ffffffffffffffffffffffffffffffffffffffffffffffffffffffffffffffffc3601126101765761158161247e565b8073ffffffffffffffffffffffffffffffffffffffff81547fffffffffffffffffffffffff000000000000000000000000000000000000000081168355167f8be0079c531659141344cd1fd0a4f28419497f9722a3daafe3b4186f6b6457e08280a380f35b503461017657602090817ffffffffffffffffffffffffffffffffffffffffffffffffffffffffffffffffc360112610176579073ffffffffffffffffffffffffffffffffffffffff9182611638611eea565b16815260029060028352604081209182546116528161225f565b916116606040519384611fb2565b81835285830190819585528685209085925b8484106116f55750505050506040519380850191818652518092526040850193925b8281106116a15785850386f35b8351805188168652808301518684015260408082015190870152606080820151908701526080808201519087015260a0808201519087015260c0908101519086015260e09094019392810192600101611694565b60078960019260409b98999b5161170b81611f5d565b8d875416815284870154838201528587015460408201526003870154606082015260048701546080820152600587015460a0820152600687015460c082015281520193019301929197959497611672565b50346101765760407ffffffffffffffffffffffffffffffffffffffffffffffffffffffffffffffffc36011261017657611794611eea565b73ffffffffffffffffffffffffffffffffffffffff16815260056020526040812080546024359290831015610176576117fc6117d084846120ce565b506117da8161213d565b9060ff6003600283015492015416604051938493606085526060850190612201565b916020840152151560408301520390f35b503461017657807ffffffffffffffffffffffffffffffffffffffffffffffffffffffffffffffffc360112610176576020600854604051908152f35b50346101765760807ffffffffffffffffffffffffffffffffffffffffffffffffffffffffffffffffc36011261017657611881611eea565b6024356044356064359261189361247e565b73ffffffffffffffffffffffffffffffffffffffff80911693848652600260205260408620548410156119a1578015611943576118fc7fbf578ab622d11c6e1ebbbb307edd8725c3fbbc3b40b893132c1b6d331e9da15594868852600260205260408820612325565b509083600183015560038201554260068201555416610b32604051928392836020909392919373ffffffffffffffffffffffffffffffffffffffff60408201951681520152565b60646040517f08c379a000000000000000000000000000000000000000000000000000000000815260206004820152601960248201527f43757272656e74207072696365206d757374206265203e2030000000000000006044820152fd5b60646040517f08c379a000000000000000000000000000000000000000000000000000000000815260206004820152601660248201527f496e76616c696420706f736974696f6e20696e646578000000000000000000006044820152fd5b50346101765760207ffffffffffffffffffffffffffffffffffffffffffffffffffffffffffffffffc360112610176576004359060065482101561017657602073ffffffffffffffffffffffffffffffffffffffff611a5d84612068565b9190546040519260031b1c168152f35b503461017657807ffffffffffffffffffffffffffffffffffffffffffffffffffffffffffffffffc36011261017657602060405161251c8152f35b50346101765760407ffffffffffffffffffffffffffffffffffffffffffffffffffffffffffffffffc36011261017657611ae0611eea565b9060243567ffffffffffffffff811161104457611b01903690600401611ff3565b9073ffffffffffffffffffffffffffffffffffffffff908184168152600560205260408120928354611b328161225f565b94611b406040519687611fb2565b81865283526020808420849187015b838310611e56575050505060405194611b6786611f12565b6060958681528660208201528360408201528387820152948360208401905b8251811015611e4a57611b99818461235d565b5151602081519101208551832014611bb357600101611b86565b919050611bc492939495965061235d565b515b8581015115611dc6578482168452600291600260205260408520805490611bec8261225f565b94611bfa6040519687611fb2565b82865260208601918852602088209088925b8a8c868610611d6557505050505050506020835192019182515103611d07578493855b8451811015611cb657611c76611c4682865161235d565b516020611c53848961235d565b510151670de0b6b3a76400009283918d611c6d878c61235d565b51015190612371565b0490898112611c8b575b505050600101611c2f565b91611ca66001949992611ca0611cad956123ec565b90612371565b0490612419565b95903880611c80565b602086847f189a9071deae1ce2c294ead90e4d2c8e9e4e69ced1e15ae5601f3544d80ace80611cf4868d604051928392604084526040840190612201565b94868884015216930390a2604051908152f35b60646040517f08c379a000000000000000000000000000000000000000000000000000000000815260206004820152601d60248201527f5363656e6172696f20617373657420636f756e74206d69736d617463680000006044820152fd5b60019260079260209260405191611d7b83611f5d565b8854168252858801548483015286880154604083015260038801549082015260048701546080820152600587015460a0820152600687015460c0820152815201930193019291611c0c565b60846040517f08c379a000000000000000000000000000000000000000000000000000000000815260206004820152602560248201527f537472657373207363656e6172696f206e6f7420666f756e64206f7220696e6160448201527f63746976650000000000000000000000000000000000000000000000000000006064820152fd5b50505090919293611bc6565b604051611e6281611f12565b611e6b8361213d565b81526040516001840180548083529089526020808a20908301918a905b808210611ed2575050509260049282611ea76020946001970382611fb2565b838201526002860154604082015260ff60038701541615156060820152815201920192019190611b4f565b90919260016020819286548152019401920190611e88565b6004359073ffffffffffffffffffffffffffffffffffffffff82168203611f0d57565b600080fd5b6080810190811067ffffffffffffffff821117611f2e57604052565b7f4e487b7100000000000000000000000000000000000000000000000000000000600052604160045260246000fd5b60e0810190811067ffffffffffffffff821117611f2e57604052565b6060810190811067ffffffffffffffff821117611f2e57604052565b610140810190811067ffffffffffffffff821117611f2e57604052565b90601f7fffffffffffffffffffffffffffffffffffffffffffffffffffffffffffffffe0910116810190811067ffffffffffffffff821117611f2e57604052565b81601f82011215611f0d5780359067ffffffffffffffff8211611f2e576040519261204660207fffffffffffffffffffffffffffffffffffffffffffffffffffffffffffffffe0601f8601160185611fb2565b82845260208383010111611f0d57816000926020809301838601378301015290565b60065481101561209f5760066000527ff652222313e28459528d920b65115c16c04f3efc82aaedc97be59f3f377c0d3f0190600090565b7f4e487b7100000000000000000000000000000000000000000000000000000000600052603260045260246000fd5b805482101561209f5760005260206000209060021b0190600090565b90600182811c92168015612133575b602083101461210457565b7f4e487b7100000000000000000000000000000000000000000000000000000000600052602260045260246000fd5b91607f16916120f9565b90604051918260008254612150816120ea565b908184526020946001916001811690816000146121c05750600114612181575b50505061217f92500383611fb2565b565b600090815285812095935091905b8183106121a857505061217f9350820101388080612170565b8554888401850152948501948794509183019161218f565b91505061217f9593507fffffffffffffffffffffffffffffffffffffffffffffffffffffffffffffff0091501682840152151560051b820101388080612170565b919082519283825260005b84811061224b5750507fffffffffffffffffffffffffffffffffffffffffffffffffffffffffffffffe0601f8460006020809697860101520116010190565b60208183018101518483018201520161220c565b67ffffffffffffffff8111611f2e5760051b60200190565b9060048210156122845752565b7f4e487b7100000000000000000000000000000000000000000000000000000000600052602160045260246000fd5b919091610140810192805182526020810151602083015260408101516040830152606081015160608301526080810151608083015260a081015160a083015260c081015160c083015260e081015160e08301526123196101008083015190840190612277565b61012080910151910152565b805482101561209f576000526007602060002091020190600090565b805482101561209f576000526003602060002091020190600090565b805182101561209f5760209160051b010190565b8181029291811591840414171561238457565b7f4e487b7100000000000000000000000000000000000000000000000000000000600052601160045260246000fd5b81156123bd570490565b7f4e487b7100000000000000000000000000000000000000000000000000000000600052601260045260246000fd5b7f800000000000000000000000000000000000000000000000000000000000000081146123845760000390565b9190820180921161238457565b6040519061243382611f95565b816101206000918281528260208201528260408201528260608201528260808201528260a08201528260c08201528260e0820152826101008201520152565b60048210156122845752565b73ffffffffffffffffffffffffffffffffffffffff60005416330361249f57565b60246040517f118cdaa7000000000000000000000000000000000000000000000000000000008152336004820152fd5b600090815b81518310156125125761250a600191670de0b6b3a7640000611ca660206124fb888861235d565b5101516060611c6d898961235d565b9201916124d4565b91505090565b73ffffffffffffffffffffffffffffffffffffffff1690600090828252600491602092600484526040928383209586546125518161225f565b9761255e8751998a611fb2565b8189528552868520859088808b015b848410612752575050505050865194601e8610612747577fffffffffffffffffffffffffffffffffffffffffffffffffffffffffffffffe06125c66125b18861225f565b976125be8451998a611fb2565b80895261225f565b013688880137845b88518110156125f757806125e46001928b61235d565b51516125f0828a61235d565b52016125ce565b50909192939695875b86518110156126b857600180820180831161268c57815b612626575b5050600101612600565b88518110156126875781809161263c858c61235d565b51612647828d61235d565b5112612655575b0190612617565b61265f858c61235d565b518b6126768761266f858461235d565b519261235d565b52612681828d61235d565b5261264e565b61261c565b60248b60118a7f4e487b7100000000000000000000000000000000000000000000000000000000835252fd5b50929695909350939093516101f49081810291818304149015171561271a57600392916127106126e992049061235d565b5193855252822054908281126126fe57505090565b670de0b6b3a7640000925090611ca0612716926123ec565b0490565b6024867f4e487b710000000000000000000000000000000000000000000000000000000081526011600452fd5b505094505091505090565b6001916003918b5161276381611f79565b85548152848601548382015260028601548d820152815201920192019190899061256d565b73ffffffffffffffffffffffffffffffffffffffff1690600090828252600491602092600484526040928383209586546127c18161225f565b976127ce8751998a611fb2565b8189528552868520859088808b015b848410612910575050505050865194601e8610612747577fffffffffffffffffffffffffffffffffffffffffffffffffffffffffffffffe06128216125b18861225f565b013688880137845b8851811015612852578061283f6001928b61235d565b515161284b828a61235d565b5201612829565b50909192939695875b86518110156128e057600180820180831161268c57815b612881575b505060010161285b565b88518110156128db57818091612897858c61235d565b516128a2828d61235d565b51126128b0575b0190612872565b6128ba858c61235d565b518b6128ca8761266f858461235d565b526128d5828d61235d565b526128a9565b612877565b509296959093509390935160648102908082046064149015171561271a57600392916127106126e992049061235d565b6001916003918b5161292181611f79565b85548152848601548382015260028601548d82015281520192019201919089906127dd565b73ffffffffffffffffffffffffffffffffffffffff16906000908282526004916020926004845260409283832095865461297f8161225f565b9761298c8751998a611fb2565b8189528552868520859088808b015b848410612a9e575050505050865194601e8610612747577fffffffffffffffffffffffffffffffffffffffffffffffffffffffffffffffe06129df6125b18861225f565b013688880137845b8851811015612a1057806129fd6001928b61235d565b5151612a09828a61235d565b52016129e7565b50909192939695875b86518110156126b857600180820180831161268c57815b612a3f575b5050600101612a19565b8851811015612a9957818091612a55858c61235d565b51612a60828d61235d565b5112612a6e575b0190612a30565b612a78858c61235d565b518b612a888761266f858461235d565b52612a93828d61235d565b52612a67565b612a35565b6001916003918b51612aaf81611f79565b85548152848601548382015260028601548d820152815201920192019190899061299b565b73ffffffffffffffffffffffffffffffffffffffff169060009082825260049160209260048452604092838320958654612b0d8161225f565b97612b1a8751998a611fb2565b8189528552868520859088808b015b848410612c2c575050505050865194601e8610612747577fffffffffffffffffffffffffffffffffffffffffffffffffffffffffffffffe0612b6d6125b18861225f565b013688880137845b8851811015612b9e5780612b8b6001928b61235d565b5151612b97828a61235d565b5201612b75565b50909192939695875b86518110156128e057600180820180831161268c57815b612bcd575b5050600101612ba7565b8851811015612c2757818091612be3858c61235d565b51612bee828d61235d565b5112612bfc575b0190612bbe565b612c06858c61235d565b518b612c168761266f858461235d565b52612c21828d61235d565b52612bf5565b612bc3565b6001916003918b51612c3d81611f79565b85548152848601548382015260028601548d8201528152019201920191908990612b29565b9190916000838201938412911290801582169115161761238457565b81156123bd577fffffffffffffffffffffffffffffffffffffffffffffffffffffffffffffffff82147f8000000000000000000000000000000000000000000000000000000000000000821416612384570590565b9073ffffffffffffffffffffffffffffffffffffffff8216600090808252600490602094600486526040808520918254612d0c8161225f565b93612d1984519586611fb2565b818552875288872087908a8087015b848410612e5c575050505050601e835110612e5257612d4690612946565b908115612e525785978693875b8151811015612e0b57612d66818361235d565b5151898112612d79575b50600101612d53565b878a526003845285670de0b6b3a7640000612d9a878d2054611ca0856123ec565b0410612d7057612dab919b96612c62565b947fffffffffffffffffffffffffffffffffffffffffffffffffffffffffffffffff8114612ddf5760018091019a90612d70565b60248960118a7f4e487b7100000000000000000000000000000000000000000000000000000000835252fd5b50509396979291909594508215612e485750926003611ca093612e3c6127169794670de0b6b3a76400009997612c7e565b958352522054916123ec565b9550505050505090565b5093955050505050565b6001916003918851612e6d81611f79565b85548152848601548382015260028601548a8201528152019201920191908b90612d28565b9073ffffffffffffffffffffffffffffffffffffffff8216600090808252600490602094600486526040808520918254612ecb8161225f565b93612ed884519586611fb2565b818552875288872087908a8087015b848410612f9e575050505050601e835110612e5257612f0590612ad4565b908115612e525785978693875b8151811015612e0b57612f25818361235d565b5151898112612f38575b50600101612f12565b878a526003845285670de0b6b3a7640000612f59878d2054611ca0856123ec565b0410612f2f57612f6a919b96612c62565b947fffffffffffffffffffffffffffffffffffffffffffffffffffffffffffffffff8114612ddf5760018091019a90612f2f565b6001916003918851612faf81611f79565b85548152848601548382015260028601548a8201528152019201920191908b90612ee7565b73ffffffffffffffffffffffffffffffffffffffff60009116815260046020600460205260409182842080546130098161225f565b9361301686519586611fb2565b8185526020850190819388526020882088925b84841061318857505050505082516002811061318057156131535792809493510151908360019586946001975b613066575b505050505050905090565b805188101561314e57848261307b8a8461235d565b51015111613138575b84613094575b9685019685613056565b8161309f898361235d565b5101518086039086821161310c576127108083029283041490871417156130e057856130ca916123b3565b8781116130d8575b5061308a565b9650856130d2565b6024846011877f4e487b7100000000000000000000000000000000000000000000000000000000835252fd5b6024856011887f4e487b7100000000000000000000000000000000000000000000000000000000835252fd5b935080613145888661235d565b51015193613084565b61305b565b6024857f4e487b710000000000000000000000000000000000000000000000000000000081526032600452fd5b505050505090565b6003836001928b5161319981611f79565b85548152848601548382015260028601548d820152815201920193019290613029565b90815115613245576131cd826124cf565b6000805b845182101561323f576132059060206131ea848861235d565b510151670de0b6b3a76400009283916060611c6d878b61235d565b04908282029180830484149015171561238457600192611ca661322b87613237956123b3565b6080611c6d888c61235d565b9101906131d1565b93505050565b60009150565b9073ffffffffffffffffffffffffffffffffffffffff600092168252600491602083602052604090604083208054916132838361225f565b936132916040519586611fb2565b83855260208501928652602086209086935b8585106134c757505050505050601e8151106134c25781805b82518410156132e5576132dd6001916132d5868661235d565b515190612c62565b9301926132bc565b6132f3919350825190612c7e565b828112918391831591835b815187101561340657613311878361235d565b51518381039080821288168183138716176133da57818002917f80000000000000000000000000000000000000000000000000000000000000008114888212166133ae578086918405149114171561338257600191670de0b6b3a764000061337a920490612c62565b9601956132fe565b60248660118c7f4e487b7100000000000000000000000000000000000000000000000000000000835252fd5b60248860118e7f4e487b7100000000000000000000000000000000000000000000000000000000835252fd5b60248760118d7f4e487b7100000000000000000000000000000000000000000000000000000000835252fd5b925090945061341892935051906123b3565b90670de0b6b3a764000091828102908082048414901517156134965761343d906135f5565b92831561348f5782810292818404149015171561346357506134609293506123b3565b90565b806011867f4e487b71000000000000000000000000000000000000000000000000000000006024945252fd5b5093505050565b6024826011887f4e487b7100000000000000000000000000000000000000000000000000000000835252fd5b509150565b60038460019284516134d881611f79565b8654815284870154838201526002870154868201528152019301940193916132a3565b9190916000906007548082116000146135e05750506028810180911161238457915b600854808211156135c5575050906023810180911161238457905b6009548082111561358157505060198101809111612384575b605081101561357b576032811015613575576019111561357057600090565b600190565b50600290565b50600390565b60011c101561355157600a810180911115613551577f4e487b7100000000000000000000000000000000000000000000000000000000600052601160045260246000fd5b60011c10156135385790600f81018091116123845790613538565b60019492941c101561351d576014925061351d565b8015613732576136c0816000908360801c80613726575b508060401c80613719575b508060201c8061370c575b508060101c806136ff575b508060081c806136f2575b508060041c806136e5575b508060021c806136d8575b50600191828092811c6136d1575b1c1b61366881856123b3565b01811c61367581856123b3565b01811c61368281856123b3565b01811c61368f81856123b3565b01811c61369c81856123b3565b01811c6136a981856123b3565b01811c6136b681856123b3565b01901c80926123b3565b808210156136cc575090565b905090565b018161365c565b600291509101903861364e565b6004915091019038613643565b6008915091019038613638565b601091509101903861362d565b6020915091019038613622565b6040915091019038613617565b9150506080903861360c565b5060009056fea2646970667358221220d35e28064677a9a86b2ca82722f1450f3ed9900ec8e1ca7015ad2d87e036830264736f6c63430008180033","linkReferences":{}},"methodIdentifiers":{"BASIS_POINTS()":"e1f1c4a7","CONFIDENCE_95()":"31b5402f","CONFIDENCE_99()":"79949526","DAYS_PER_YEAR()":"c6846ef8","DECIMAL_PRECISION()":"a20baee6","addHistoricalReturn(address,int256,uint256)":"a13b1dd0","addPosition(address,address,uint256,uint256,uint256,int256)":"c866b74a","addStressScenario(address,string,int256[],uint256)":"7527ed1c","calculateRiskMetrics(address)":"d9a04679","createPortfolio(address)":"8f0196d6","executeStressTest(address,string)":"1b60a26a","getPortfolioPositions(address)":"6f36941a","getRiskMetrics(address)":"ead0581d","historicalReturns(address,uint256)":"f6526db0","maxDrawdownThreshold()":"4fd22014","owner()":"8da5cb5b","portfolioPositions(address,uint256)":"ec702de5","portfolioRiskMetrics(address)":"d97b9a4e","portfolios(uint256)":"367ca914","renounceOwnership()":"715018a6","stressScenarios(address,uint256)":"62d2d3c6","transferOwnership(address)":"f2fde38b","updatePosition(address,uint256,uint256,uint256)":"43c4bd91","updateRiskThresholds(uint256,uint256,uint256)":"b5a68c60","var95Threshold()":"f7bb8ab9","volatilityThreshold()":"9fe88c84"},"id":24}