{"abi":[{"type":"function","name":"CONTROLLER_ROLE","inputs":[],"outputs":[{"name":"","type":"bytes32","internalType":"bytes32"}],"stateMutability":"view"},{"type":"function","name":"DEFAULT_ADMIN_ROLE","inputs":[],"outputs":[{"name":"","type":"bytes32","internalType":"bytes32"}],"stateMutability":"view"},{"type":"function","name":"DOMAIN_SEPARATOR","inputs":[],"outputs":[{"name":"","type":"bytes32","internalType":"bytes32"}],"stateMutability":"view"},{"type":"function","name":"GOVERNOR_ROLE","inputs":[],"outputs":[{"name":"","type":"bytes32","internalType":"bytes32"}],"stateMutability":"view"},{"type":"function","name":"MINTER_ROLE","inputs":[],"outputs":[{"name":"","type":"bytes32","internalType":"bytes32"}],"stateMutability":"view"},{"type":"function","name":"PAUSER_ROLE","inputs":[],"outputs":[{"name":"","type":"bytes32","internalType":"bytes32"}],"stateMutability":"view"},{"type":"function","name":"UPGRADE_INTERFACE_VERSION","inputs":[],"outputs":[{"name":"","type":"string","internalType":"string"}],"stateMutability":"view"},{"type":"function","name":"allowance","inputs":[{"name":"owner","type":"address","internalType":"address"},{"name":"spender","type":"address","internalType":"address"}],"outputs":[{"name":"","type":"uint256","internalType":"uint256"}],"stateMutability":"view"},{"type":"function","name":"approve","inputs":[{"name":"spender","type":"address","internalType":"address"},{"name":"value","type":"uint256","internalType":"uint256"}],"outputs":[{"name":"","type":"bool","internalType":"bool"}],"stateMutability":"nonpayable"},{"type":"function","name":"balanceOf","inputs":[{"name":"account","type":"address","internalType":"address"}],"outputs":[{"name":"","type":"uint256","internalType":"uint256"}],"stateMutability":"view"},{"type":"function","name":"controllerRedeem","inputs":[{"name":"from","type":"address","internalType":"address"},{"name":"value","type":"uint256","internalType":"uint256"},{"name":"","type":"bytes","internalType":"bytes"}],"outputs":[],"stateMutability":"nonpayable"},{"type":"function","name":"controllerTransfer","inputs":[{"name":"from","type":"address","internalType":"address"},{"name":"to","type":"address","internalType":"address"},{"name":"value","type":"uint256","internalType":"uint256"},{"name":"","type":"bytes","internalType":"bytes"}],"outputs":[],"stateMutability":"nonpayable"},{"type":"function","name":"dailySpent","inputs":[{"name":"","type":"address","internalType":"address"}],"outputs":[{"name":"","type":"uint256","internalType":"uint256"}],"stateMutability":"view"},{"type":"function","name":"dailyWindow","inputs":[{"name":"","type":"address","internalType":"address"}],"outputs":[{"name":"","type":"uint256","internalType":"uint256"}],"stateMutability":"view"},{"type":"function","name":"decimals","inputs":[],"outputs":[{"name":"","type":"uint8","internalType":"uint8"}],"stateMutability":"view"},{"type":"function","name":"eip712Domain","inputs":[],"outputs":[{"name":"fields","type":"bytes1","internalType":"bytes1"},{"name":"name","type":"string","internalType":"string"},{"name":"version","type":"string","internalType":"string"},{"name":"chainId","type":"uint256","internalType":"uint256"},{"name":"verifyingContract","type":"address","internalType":"address"},{"name":"salt","type":"bytes32","internalType":"bytes32"},{"name":"extensions","type":"uint256[]","internalType":"uint256[]"}],"stateMutability":"view"},{"type":"function","name":"getRoleAdmin","inputs":[{"name":"role","type":"bytes32","internalType":"bytes32"}],"outputs":[{"name":"","type":"bytes32","internalType":"bytes32"}],"stateMutability":"view"},{"type":"function","name":"grantRole","inputs":[{"name":"role","type":"bytes32","internalType":"bytes32"},{"name":"account","type":"address","internalType":"address"}],"outputs":[],"stateMutability":"nonpayable"},{"type":"function","name":"hasRole","inputs":[{"name":"role","type":"bytes32","internalType":"bytes32"},{"name":"account","type":"address","internalType":"address"}],"outputs":[{"name":"","type":"bool","internalType":"bool"}],"stateMutability":"view"},{"type":"function","name":"initialize","inputs":[{"name":"admin","type":"address","internalType":"address"},{"name":"governor","type":"address","internalType":"address"},{"name":"name_","type":"string","internalType":"string"},{"name":"symbol_","type":"string","internalType":"string"},{"name":"policy_","type":"address","internalType":"address"}],"outputs":[],"stateMutability":"nonpayable"},{"type":"function","name":"mint","inputs":[{"name":"to","type":"address","internalType":"address"},{"name":"amt","type":"uint256","internalType":"uint256"}],"outputs":[],"stateMutability":"nonpayable"},{"type":"function","name":"name","inputs":[],"outputs":[{"name":"","type":"string","internalType":"string"}],"stateMutability":"view"},{"type":"function","name":"nonces","inputs":[{"name":"owner","type":"address","internalType":"address"}],"outputs":[{"name":"","type":"uint256","internalType":"uint256"}],"stateMutability":"view"},{"type":"function","name":"pause","inputs":[],"outputs":[],"stateMutability":"nonpayable"},{"type":"function","name":"paused","inputs":[],"outputs":[{"name":"","type":"bool","internalType":"bool"}],"stateMutability":"view"},{"type":"function","name":"permit","inputs":[{"name":"owner","type":"address","internalType":"address"},{"name":"spender","type":"address","internalType":"address"},{"name":"value","type":"uint256","internalType":"uint256"},{"name":"deadline","type":"uint256","internalType":"uint256"},{"name":"v","type":"uint8","internalType":"uint8"},{"name":"r","type":"bytes32","internalType":"bytes32"},{"name":"s","type":"bytes32","internalType":"bytes32"}],"outputs":[],"stateMutability":"nonpayable"},{"type":"function","name":"policy","inputs":[],"outputs":[{"name":"","type":"address","internalType":"contract IPolicyEngine"}],"stateMutability":"view"},{"type":"function","name":"proxiableUUID","inputs":[],"outputs":[{"name":"","type":"bytes32","internalType":"bytes32"}],"stateMutability":"view"},{"type":"function","name":"redeem","inputs":[{"name":"amt","type":"uint256","internalType":"uint256"}],"outputs":[],"stateMutability":"nonpayable"},{"type":"function","name":"renounceRole","inputs":[{"name":"role","type":"bytes32","internalType":"bytes32"},{"name":"callerConfirmation","type":"address","internalType":"address"}],"outputs":[],"stateMutability":"nonpayable"},{"type":"function","name":"revokeRole","inputs":[{"name":"role","type":"bytes32","internalType":"bytes32"},{"name":"account","type":"address","internalType":"address"}],"outputs":[],"stateMutability":"nonpayable"},{"type":"function","name":"setPolicy","inputs":[{"name":"policy_","type":"address","internalType":"address"}],"outputs":[],"stateMutability":"nonpayable"},{"type":"function","name":"supportsInterface","inputs":[{"name":"interfaceId","type":"bytes4","internalType":"bytes4"}],"outputs":[{"name":"","type":"bool","internalType":"bool"}],"stateMutability":"view"},{"type":"function","name":"symbol","inputs":[],"outputs":[{"name":"","type":"string","internalType":"string"}],"stateMutability":"view"},{"type":"function","name":"totalSupply","inputs":[],"outputs":[{"name":"","type":"uint256","internalType":"uint256"}],"stateMutability":"view"},{"type":"function","name":"transfer","inputs":[{"name":"to","type":"address","internalType":"address"},{"name":"value","type":"uint256","internalType":"uint256"}],"outputs":[{"name":"","type":"bool","internalType":"bool"}],"stateMutability":"nonpayable"},{"type":"function","name":"transferFrom","inputs":[{"name":"from","type":"address","internalType":"address"},{"name":"to","type":"address","internalType":"address"},{"name":"value","type":"uint256","internalType":"uint256"}],"outputs":[{"name":"","type":"bool","internalType":"bool"}],"stateMutability":"nonpayable"},{"type":"function","name":"unpause","inputs":[],"outputs":[],"stateMutability":"nonpayable"},{"type":"function","name":"upgradeToAndCall","inputs":[{"name":"newImplementation","type":"address","internalType":"address"},{"name":"data","type":"bytes","internalType":"bytes"}],"outputs":[],"stateMutability":"payable"},{"type":"event","name":"Approval","inputs":[{"name":"owner","type":"address","indexed":true,"internalType":"address"},{"name":"spender","type":"address","indexed":true,"internalType":"address"},{"name":"value","type":"uint256","indexed":false,"internalType":"uint256"}],"anonymous":false},{"type":"event","name":"EIP712DomainChanged","inputs":[],"anonymous":false},{"type":"event","name":"Initialized","inputs":[{"name":"version","type":"uint64","indexed":false,"internalType":"uint64"}],"anonymous":false},{"type":"event","name":"Paused","inputs":[{"name":"account","type":"address","indexed":false,"internalType":"address"}],"anonymous":false},{"type":"event","name":"RoleAdminChanged","inputs":[{"name":"role","type":"bytes32","indexed":true,"internalType":"bytes32"},{"name":"previousAdminRole","type":"bytes32","indexed":true,"internalType":"bytes32"},{"name":"newAdminRole","type":"bytes32","indexed":true,"internalType":"bytes32"}],"anonymous":false},{"type":"event","name":"RoleGranted","inputs":[{"name":"role","type":"bytes32","indexed":true,"internalType":"bytes32"},{"name":"account","type":"address","indexed":true,"internalType":"address"},{"name":"sender","type":"address","indexed":true,"internalType":"address"}],"anonymous":false},{"type":"event","name":"RoleRevoked","inputs":[{"name":"role","type":"bytes32","indexed":true,"internalType":"bytes32"},{"name":"account","type":"address","indexed":true,"internalType":"address"},{"name":"sender","type":"address","indexed":true,"internalType":"address"}],"anonymous":false},{"type":"event","name":"Transfer","inputs":[{"name":"from","type":"address","indexed":true,"internalType":"address"},{"name":"to","type":"address","indexed":true,"internalType":"address"},{"name":"value","type":"uint256","indexed":false,"internalType":"uint256"}],"anonymous":false},{"type":"event","name":"Unpaused","inputs":[{"name":"account","type":"address","indexed":false,"internalType":"address"}],"anonymous":false},{"type":"event","name":"Upgraded","inputs":[{"name":"implementation","type":"address","indexed":true,"internalType":"address"}],"anonymous":false},{"type":"error","name":"AccessControlBadConfirmation","inputs":[]},{"type":"error","name":"AccessControlUnauthorizedAccount","inputs":[{"name":"account","type":"address","internalType":"address"},{"name":"neededRole","type":"bytes32","internalType":"bytes32"}]},{"type":"error","name":"AddressEmptyCode","inputs":[{"name":"target","type":"address","internalType":"address"}]},{"type":"error","name":"ECDSAInvalidSignature","inputs":[]},{"type":"error","name":"ECDSAInvalidSignatureLength","inputs":[{"name":"length","type":"uint256","internalType":"uint256"}]},{"type":"error","name":"ECDSAInvalidSignatureS","inputs":[{"name":"s","type":"bytes32","internalType":"bytes32"}]},{"type":"error","name":"ERC1967InvalidImplementation","inputs":[{"name":"implementation","type":"address","internalType":"address"}]},{"type":"error","name":"ERC1967NonPayable","inputs":[]},{"type":"error","name":"ERC20InsufficientAllowance","inputs":[{"name":"spender","type":"address","internalType":"address"},{"name":"allowance","type":"uint256","internalType":"uint256"},{"name":"needed","type":"uint256","internalType":"uint256"}]},{"type":"error","name":"ERC20InsufficientBalance","inputs":[{"name":"sender","type":"address","internalType":"address"},{"name":"balance","type":"uint256","internalType":"uint256"},{"name":"needed","type":"uint256","internalType":"uint256"}]},{"type":"error","name":"ERC20InvalidApprover","inputs":[{"name":"approver","type":"address","internalType":"address"}]},{"type":"error","name":"ERC20InvalidReceiver","inputs":[{"name":"receiver","type":"address","internalType":"address"}]},{"type":"error","name":"ERC20InvalidSender","inputs":[{"name":"sender","type":"address","internalType":"address"}]},{"type":"error","name":"ERC20InvalidSpender","inputs":[{"name":"spender","type":"address","internalType":"address"}]},{"type":"error","name":"ERC2612ExpiredSignature","inputs":[{"name":"deadline","type":"uint256","internalType":"uint256"}]},{"type":"error","name":"ERC2612InvalidSigner","inputs":[{"name":"signer","type":"address","internalType":"address"},{"name":"owner","type":"address","internalType":"address"}]},{"type":"error","name":"EnforcedPause","inputs":[]},{"type":"error","name":"ExpectedPause","inputs":[]},{"type":"error","name":"FailedInnerCall","inputs":[]},{"type":"error","name":"InvalidAccountNonce","inputs":[{"name":"account","type":"address","internalType":"address"},{"name":"currentNonce","type":"uint256","internalType":"uint256"}]},{"type":"error","name":"InvalidInitialization","inputs":[]},{"type":"error","name":"NotInitializing","inputs":[]},{"type":"error","name":"ReentrancyGuardReentrantCall","inputs":[]},{"type":"error","name":"UUPSUnauthorizedCallContext","inputs":[]},{"type":"error","name":"UUPSUnsupportedProxiableUUID","inputs":[{"name":"slot","type":"bytes32","internalType":"bytes32"}]}],"bytecode":{"object":"0x60a0806040523461002a573060805261402990816100308239608051818181610eea0152610fe00152f35b600080fdfe608080604052600436101561001357600080fd5b60003560e01c90816301ffc9a714612ad6575080630505c8c914612a8457806306fdde0314612998578063092c5b3b1461293f578063095ea7b3146128fb57806318160ddd146128a057806323b872dd146126a9578063248a9ca31461263d5780632dc990dd146125c65780632f2ff15d1461254a578063313ce56714612510578063362925c2146117955780633644e5151461175457806336568abe146116ca5780633f4ba83a146115ed57806340c10f19146112b6578063423bbfbe146112515780634f1ef28614610f6457806352d1902d14610ea45780635c975abb14610e4457806370a0823114610dc057806377ead30914610d525780637d4163d314610ccf5780637ecebe0014610c4b5780638456cb5914610b9657806384b0196e146109de57806391d148541461094657806395d89b4114610804578063a217fddf146107ca578063a9059cbb1461077b578063ad3cb1cc146106fb578063ccc57490146106a2578063d505accf14610484578063d53913931461042b578063d547741f146103ad578063db006a7514610344578063dd62ed3e1461028f578063e63ab1e9146102365763ffc8ada6146101cc57600080fd5b346102315760207ffffffffffffffffffffffffffffffffffffffffffffffffffffffffffffffffc3601126102315773ffffffffffffffffffffffffffffffffffffffff610218612bf0565b1660005260016020526020604060002054604051908152f35b600080fd5b346102315760007ffffffffffffffffffffffffffffffffffffffffffffffffffffffffffffffffc3601126102315760206040517f65d7a28e3265b37a6474929f336521b332c1681b933f6cb9f3376673440d862a8152f35b346102315760407ffffffffffffffffffffffffffffffffffffffffffffffffffffffffffffffffc360112610231576102c6612bf0565b73ffffffffffffffffffffffffffffffffffffffff61032c6102e6612c13565b9273ffffffffffffffffffffffffffffffffffffffff166000527f52c63247e1f47db19d5ce0460030c497f067ca4cebf71ba98eeadabe20bace01602052604060002090565b91166000526020526020604060002054604051908152f35b346102315760207ffffffffffffffffffffffffffffffffffffffffffffffffffffffffffffffffc3601126102315761037b6138c5565b6103876004353361391f565b60017f9b779b17422d0df92223018b32b4d1fa46e071723d6817e2486d003becc55f0055005b346102315760407ffffffffffffffffffffffffffffffffffffffffffffffffffffffffffffffffc360112610231576104296004356103ea612c13565b90806000527f02dd7bc7dec4dceedda775e58dd541e08a116c6c53815c0bd028192f7b626800602052610424600160406000200154613111565b613804565b005b346102315760007ffffffffffffffffffffffffffffffffffffffffffffffffffffffffffffffffc3601126102315760206040517f9f2df0fed2c77648de5860a4cc508cd0818c85b8b8a1ab4ceeef8d981c8956a68152f35b346102315760e07ffffffffffffffffffffffffffffffffffffffffffffffffffffffffffffffffc360112610231576104bb612bf0565b6104c3612c13565b60443590606435926084359360ff85168503610231578042116106715773ffffffffffffffffffffffffffffffffffffffff9081831695866000527f5ab42ced628888259c08ac98db1eb0cf702fc1501344311d8b100cd1bfe4bb006020526040600020908154916001830190556040519260208401927f6e71edae12b1b97f4d1f60370fef10105fa2faae0126114a169c64845d6126c98452896040860152858816606086015288608086015260a085015260c084015260c0835260e083019183831067ffffffffffffffff841117610642576105f8936105ef936040525190206105ad613c55565b90604051917f190100000000000000000000000000000000000000000000000000000000000083526002830152602282015260c43591604260a4359220613d20565b90929192613dbd565b1684810361060b57506104299350613b51565b60449085604051917f4b800e4600000000000000000000000000000000000000000000000000000000835260048301526024820152fd5b7f4e487b7100000000000000000000000000000000000000000000000000000000600052604160045260246000fd5b602490604051907f627913020000000000000000000000000000000000000000000000000000000082526004820152fd5b346102315760007ffffffffffffffffffffffffffffffffffffffffffffffffffffffffffffffffc3601126102315760206040517f7935bd0ae54bc31f548c14dba4d37c5c64b3f8ca900cb468fb8abd54d5894f558152f35b346102315760007ffffffffffffffffffffffffffffffffffffffffffffffffffffffffffffffffc3601126102315761077760405161073981612c94565b600581527f352e302e300000000000000000000000000000000000000000000000000000006020820152604051918291602083526020830190612b92565b0390f35b346102315760407ffffffffffffffffffffffffffffffffffffffffffffffffffffffffffffffffc360112610231576107bf6107b5612bf0565b6024359033612f9d565b602060405160018152f35b346102315760007ffffffffffffffffffffffffffffffffffffffffffffffffffffffffffffffffc36011261023157602060405160008152f35b346102315760007ffffffffffffffffffffffffffffffffffffffffffffffffffffffffffffffffc360112610231576040517f52c63247e1f47db19d5ce0460030c497f067ca4cebf71ba98eeadabe20bace04805482600061086583612d80565b92838352602094600191866001821691826000146109055750506001146108a9575b505061089592500383612cb0565b610777604051928284938452830190612b92565b8592506000527f46a2803e59a4de4e7a4c574b1243f25977ac4c77d5a1a4a609b5394cebb4a2aa906000915b8583106108ed57505061089593508201018580610887565b805483890185015287945086939092019181016108d5565b915093506108959592507fffffffffffffffffffffffffffffffffffffffffffffffffffffffffffffff0091501682840152151560051b8201018580610887565b346102315760407ffffffffffffffffffffffffffffffffffffffffffffffffffffffffffffffffc3601126102315761097d612c13565b6004356000527f02dd7bc7dec4dceedda775e58dd541e08a116c6c53815c0bd028192f7b62680060205273ffffffffffffffffffffffffffffffffffffffff60406000209116600052602052602060ff604060002054166040519015158152f35b346102315760007ffffffffffffffffffffffffffffffffffffffffffffffffffffffffffffffffc360112610231577fa16a46d94261c7517cc8ff89f61c0ce93598e3c849801011dee649a6a557d100541580610b6d575b15610b0f57610a43612dd3565b610a4b612edc565b60405160208082019282841067ffffffffffffffff85111761064257916020610ac28594610ab49796604052600084526040519788977f0f00000000000000000000000000000000000000000000000000000000000000895260e0858a015260e0890190612b92565b908782036040890152612b92565b91466060870152306080870152600060a087015285830360c0870152519182815201929160005b828110610af857505050500390f35b835185528695509381019392810192600101610ae9565b60646040517f08c379a000000000000000000000000000000000000000000000000000000000815260206004820152601560248201527f4549503731323a20556e696e697469616c697a656400000000000000000000006044820152fd5b507fa16a46d94261c7517cc8ff89f61c0ce93598e3c849801011dee649a6a557d1015415610a36565b346102315760007ffffffffffffffffffffffffffffffffffffffffffffffffffffffffffffffffc36011261023157610bcd613059565b610bd5613ccb565b7fcd5ed15c6e187e77e9aee88184c21f4f2182ab5827cb3b7e07fbedcd63f0330060017fffffffffffffffffffffffffffffffffffffffffffffffffffffffffffffff008254161790557f62e78cea01bee320cd4e420270b5ea74000d11b0c9f74754ebdbfc544b05a2586020604051338152a1005b346102315760207ffffffffffffffffffffffffffffffffffffffffffffffffffffffffffffffffc3601126102315773ffffffffffffffffffffffffffffffffffffffff610c97612bf0565b166000527f5ab42ced628888259c08ac98db1eb0cf702fc1501344311d8b100cd1bfe4bb006020526020604060002054604051908152f35b346102315760207ffffffffffffffffffffffffffffffffffffffffffffffffffffffffffffffffc3601126102315773ffffffffffffffffffffffffffffffffffffffff610d1b612bf0565b610d236130b5565b167fffffffffffffffffffffffff00000000000000000000000000000000000000006000541617600055600080f35b346102315760607ffffffffffffffffffffffffffffffffffffffffffffffffffffffffffffffffc36011261023157610d89612bf0565b6044359067ffffffffffffffff821161023157610dad610429923690600401612c36565b5050610db7612ffd565b6024359061391f565b346102315760207ffffffffffffffffffffffffffffffffffffffffffffffffffffffffffffffffc3601126102315773ffffffffffffffffffffffffffffffffffffffff610e0c612bf0565b166000527f52c63247e1f47db19d5ce0460030c497f067ca4cebf71ba98eeadabe20bace006020526020604060002054604051908152f35b346102315760007ffffffffffffffffffffffffffffffffffffffffffffffffffffffffffffffffc36011261023157602060ff7fcd5ed15c6e187e77e9aee88184c21f4f2182ab5827cb3b7e07fbedcd63f0330054166040519015158152f35b346102315760007ffffffffffffffffffffffffffffffffffffffffffffffffffffffffffffffffc3601126102315773ffffffffffffffffffffffffffffffffffffffff7f0000000000000000000000000000000000000000000000000000000000000000163003610f3a5760206040517f360894a13ba1a3210667c828492db98dca3e2076cc3735a920a3ca505d382bbc8152f35b60046040517fe07c8dba000000000000000000000000000000000000000000000000000000008152fd5b60407ffffffffffffffffffffffffffffffffffffffffffffffffffffffffffffffffc36011261023157610f96612bf0565b60243567ffffffffffffffff8111610231573660238201121561023157610fc7903690602481600401359101612d2b565b9073ffffffffffffffffffffffffffffffffffffffff807f000000000000000000000000000000000000000000000000000000000000000016803014908115611223575b50610f3a576110186130b5565b811690604051907f52d1902d0000000000000000000000000000000000000000000000000000000082526020918281600481875afa600091816111f4575b5061108c57602484604051907f4c9c8ce30000000000000000000000000000000000000000000000000000000082526004820152fd5b9284937f360894a13ba1a3210667c828492db98dca3e2076cc3735a920a3ca505d382bbc908181036111c35750823b1561119257817fffffffffffffffffffffffff0000000000000000000000000000000000000000825416179055604051907fbc7cd75a20ee27fd9adebab32041f755214dbc6bffa90cc0225b39da2e5c2d3b600080a283511561115f5750600080848461042996519101845af4903d15611156573d61113981612cf1565b906111476040519283612cb0565b8152600081943d92013e613f53565b60609250613f53565b925050503461116a57005b807fb398979f0000000000000000000000000000000000000000000000000000000060049252fd5b602482604051907f4c9c8ce30000000000000000000000000000000000000000000000000000000082526004820152fd5b602490604051907faa1d49a40000000000000000000000000000000000000000000000000000000082526004820152fd5b9091508381813d831161121c575b61120c8183612cb0565b8101031261023157519086611056565b503d611202565b9050817f360894a13ba1a3210667c828492db98dca3e2076cc3735a920a3ca505d382bbc541614158461100b565b346102315760207ffffffffffffffffffffffffffffffffffffffffffffffffffffffffffffffffc3601126102315773ffffffffffffffffffffffffffffffffffffffff61129d612bf0565b1660005260026020526020604060002054604051908152f35b346102315760407ffffffffffffffffffffffffffffffffffffffffffffffffffffffffffffffffc360112610231576112ed612bf0565b3360009081527f549fe2656c81d2947b3b913f0a53b9ea86c71e049f3a1b8aa23c09a8a05cb8d460209081526040909120546024359291907f9f2df0fed2c77648de5860a4cc508cd0818c85b8b8a1ab4ceeef8d981c8956a69060ff16156115b657506113586138c5565b73ffffffffffffffffffffffffffffffffffffffff80921692831561158557600083819460005416908115158061157d575b80611575575b6114b2575b505061147f575b6113a4613ccb565b7f52c63247e1f47db19d5ce0460030c497f067ca4cebf71ba98eeadabe20bace0280549082820180921161145257558383527f52c63247e1f47db19d5ce0460030c497f067ca4cebf71ba98eeadabe20bace0082526040808420805483019055519081527fddf252ad1be2c89b69c2b068fc378daa952ba7f163c4a11628f55a4df523b3ef9190a360017f9b779b17422d0df92223018b32b4d1fa46e071723d6817e2486d003becc55f0055005b6024857f4e487b710000000000000000000000000000000000000000000000000000000081526011600452fd5b6201518042048380526002835260408420818154036114a0575b505061139c565b55600182528260408120558480611499565b6040519192506114c182612c64565b30825284820192338452604083019260008452606081019189835260808201878152813b15610231578460a49481600098816040519b8c9a8b997f68d0d000000000000000000000000000000000000000000000000000000000008b52511660048a01525116602488015251166044860152511660648401525160848301525afa801561156957611555575b808491611395565b611560919350612c80565b6000918461154d565b6040513d6000823e3d90fd5b506001611390565b50600061138a565b60246040517fec442f0500000000000000000000000000000000000000000000000000000000815260006004820152fd5b604490604051907fe2517d3f0000000000000000000000000000000000000000000000000000000082523360048301526024820152fd5b346102315760007ffffffffffffffffffffffffffffffffffffffffffffffffffffffffffffffffc36011261023157611624613059565b7fcd5ed15c6e187e77e9aee88184c21f4f2182ab5827cb3b7e07fbedcd63f03300805460ff8116156116a0577fffffffffffffffffffffffffffffffffffffffffffffffffffffffffffffff001690557f5db9ee0a495bf2e6ff9c91a7834c1ba4fdd244a5e8aa4e537bd38aeae4b073aa6020604051338152a1005b60046040517f8dfc202b000000000000000000000000000000000000000000000000000000008152fd5b346102315760407ffffffffffffffffffffffffffffffffffffffffffffffffffffffffffffffffc36011261023157611701612c13565b3373ffffffffffffffffffffffffffffffffffffffff82160361172a5761042990600435613804565b60046040517f6697b232000000000000000000000000000000000000000000000000000000008152fd5b346102315760007ffffffffffffffffffffffffffffffffffffffffffffffffffffffffffffffffc36011261023157602061178d613c55565b604051908152f35b346102315760a07ffffffffffffffffffffffffffffffffffffffffffffffffffffffffffffffffc360112610231576117cc612bf0565b6117d4612c13565b60443567ffffffffffffffff8111610231576117f4903690600401612d62565b9160643567ffffffffffffffff811161023157611815903690600401612d62565b916084359173ffffffffffffffffffffffffffffffffffffffff83168303610231577ff0c57e16840df040f15088dc2f81fe391c3923bec73e23a9662efc9c229c6a00549367ffffffffffffffff851680159081612500575b60011490816124f6575b1590816124ed575b506124c35760017fffffffffffffffffffffffffffffffffffffffffffffffff00000000000000008616177ff0c57e16840df040f15088dc2f81fe391c3923bec73e23a9662efc9c229c6a005560ff8560401c161561246e575b6118e2613bfc565b6118ea613bfc565b855167ffffffffffffffff8111610642576119257f52c63247e1f47db19d5ce0460030c497f067ca4cebf71ba98eeadabe20bace0354612d80565b601f81116123b0575b50806020601f82116001146122b1576000916122a6575b507fffffffffffffffffffffffffffffffffffffffffffffffffffffffffffffffff8260011b9260031b1c1916177f52c63247e1f47db19d5ce0460030c497f067ca4cebf71ba98eeadabe20bace03555b80519067ffffffffffffffff82116106425781906119d47f52c63247e1f47db19d5ce0460030c497f067ca4cebf71ba98eeadabe20bace0454612d80565b601f81116121dd575b50602090601f83116001146120de576000926120d3575b50507fffffffffffffffffffffffffffffffffffffffffffffffffffffffffffffffff8260011b9260031b1c1916177f52c63247e1f47db19d5ce0460030c497f067ca4cebf71ba98eeadabe20bace04555b611a4e613bfc565b60405194611a5b86612c94565b600186527f31000000000000000000000000000000000000000000000000000000000000006020870152611a8d613bfc565b80519067ffffffffffffffff8211610642578190611acb7fa16a46d94261c7517cc8ff89f61c0ce93598e3c849801011dee649a6a557d10254612d80565b601f811161200a575b50602090601f8311600114611f0b57600092611f00575b50507fffffffffffffffffffffffffffffffffffffffffffffffffffffffffffffffff8260011b9260031b1c1916177fa16a46d94261c7517cc8ff89f61c0ce93598e3c849801011dee649a6a557d102555b845167ffffffffffffffff8111610642577fa16a46d94261c7517cc8ff89f61c0ce93598e3c849801011dee649a6a557d10390611b7a8254612d80565b601f8111611e9c575b506020601f8211600114611dbc579273ffffffffffffffffffffffffffffffffffffffff95949282611ca493611ce89660ff9b600092611db1575b50507fffffffffffffffffffffffffffffffffffffffffffffffffffffffffffffffff8260011b9260031b1c19161790555b60007fa16a46d94261c7517cc8ff89f61c0ce93598e3c849801011dee649a6a557d1005560007fa16a46d94261c7517cc8ff89f61c0ce93598e3c849801011dee649a6a557d10155611c40613bfc565b611c48613bfc565b7fcd5ed15c6e187e77e9aee88184c21f4f2182ab5827cb3b7e07fbedcd63f033007fffffffffffffffffffffffffffffffffffffffffffffffffffffffffffffff008154169055611c97613bfc565b611c9f613bfc565b61346a565b50611cad613bfc565b611cb5613bfc565b60017f9b779b17422d0df92223018b32b4d1fa46e071723d6817e2486d003becc55f0055611ce281613547565b50613646565b50167fffffffffffffffffffffffff0000000000000000000000000000000000000000600054161760005560401c1615611d1e57005b7fffffffffffffffffffffffffffffffffffffffffffffff00ffffffffffffffff7ff0c57e16840df040f15088dc2f81fe391c3923bec73e23a9662efc9c229c6a0054167ff0c57e16840df040f15088dc2f81fe391c3923bec73e23a9662efc9c229c6a00557fc7f505b2f371ae2175ee4913f4499e1f2633a7b5936321eed1cdaeb6115181d2602060405160018152a1005b015190508b80611bbe565b7fffffffffffffffffffffffffffffffffffffffffffffffffffffffffffffffe0821697836000527f5f9ce34815f8e11431c7bb75a8e6886a91478f7ffc1dbb0a98dc240fddd76b759860005b818110611e8457508360ff9a611ce8979473ffffffffffffffffffffffffffffffffffffffff9a999794611ca49760019510611e4d575b505050811b019055611bf0565b01517fffffffffffffffffffffffffffffffffffffffffffffffffffffffffffffffff60f88460031b161c191690558b8080611e40565b838301518b556001909a019960209384019301611e09565b826000527f5f9ce34815f8e11431c7bb75a8e6886a91478f7ffc1dbb0a98dc240fddd76b75601f830160051c81019160208410611ef6575b601f0160051c01905b818110611eea5750611b83565b60008155600101611edd565b9091508190611ed4565b015190508780611aeb565b917fffffffffffffffffffffffffffffffffffffffffffffffffffffffffffffffe016917fa16a46d94261c7517cc8ff89f61c0ce93598e3c849801011dee649a6a557d1026000527f42ad5d3e1f2e6e70edcf6d991b8a3023d3fca8047a131592f9edb9fd9b89d57d9260005b818110611ff25750908460019594939210611fbb575b505050811b017fa16a46d94261c7517cc8ff89f61c0ce93598e3c849801011dee649a6a557d10255611b3d565b01517fffffffffffffffffffffffffffffffffffffffffffffffffffffffffffffffff60f88460031b161c19169055878080611f8e565b92936020600181928786015181550195019301611f78565b9091507fa16a46d94261c7517cc8ff89f61c0ce93598e3c849801011dee649a6a557d102600052601f830160051c7f42ad5d3e1f2e6e70edcf6d991b8a3023d3fca8047a131592f9edb9fd9b89d57d01602084106120ac575b908392915b601f820160051c7f42ad5d3e1f2e6e70edcf6d991b8a3023d3fca8047a131592f9edb9fd9b89d57d01811061209d5750611ad4565b60008155849350600101612068565b507f42ad5d3e1f2e6e70edcf6d991b8a3023d3fca8047a131592f9edb9fd9b89d57d612063565b0151905087806119f4565b917fffffffffffffffffffffffffffffffffffffffffffffffffffffffffffffffe016917f52c63247e1f47db19d5ce0460030c497f067ca4cebf71ba98eeadabe20bace046000527f46a2803e59a4de4e7a4c574b1243f25977ac4c77d5a1a4a609b5394cebb4a2aa9260005b8181106121c5575090846001959493921061218e575b505050811b017f52c63247e1f47db19d5ce0460030c497f067ca4cebf71ba98eeadabe20bace0455611a46565b01517fffffffffffffffffffffffffffffffffffffffffffffffffffffffffffffffff60f88460031b161c19169055878080612161565b9293602060018192878601518155019501930161214b565b9091507f52c63247e1f47db19d5ce0460030c497f067ca4cebf71ba98eeadabe20bace04600052601f830160051c7f46a2803e59a4de4e7a4c574b1243f25977ac4c77d5a1a4a609b5394cebb4a2aa016020841061227f575b908392915b601f820160051c7f46a2803e59a4de4e7a4c574b1243f25977ac4c77d5a1a4a609b5394cebb4a2aa01811061227057506119dd565b6000815584935060010161223b565b507f46a2803e59a4de4e7a4c574b1243f25977ac4c77d5a1a4a609b5394cebb4a2aa612236565b905087015188611945565b907fffffffffffffffffffffffffffffffffffffffffffffffffffffffffffffffe016907f52c63247e1f47db19d5ce0460030c497f067ca4cebf71ba98eeadabe20bace036000527f2ae08a8e29253f69ac5d979a101956ab8f8d9d7ded63fa7a83b16fc47648eab09160005b8a8282106123985750509083600194939210612361575b5050811b017f52c63247e1f47db19d5ce0460030c497f067ca4cebf71ba98eeadabe20bace0355611996565b8901517fffffffffffffffffffffffffffffffffffffffffffffffffffffffffffffffff60f88460031b161c191690558880612335565b6001849560209395849301518155019401920161231e565b7f52c63247e1f47db19d5ce0460030c497f067ca4cebf71ba98eeadabe20bace03600052601f820160051c7f2ae08a8e29253f69ac5d979a101956ab8f8d9d7ded63fa7a83b16fc47648eab00160208310612447575b601f820160051c7f2ae08a8e29253f69ac5d979a101956ab8f8d9d7ded63fa7a83b16fc47648eab001811061243b575061192e565b60008155600101612406565b507f2ae08a8e29253f69ac5d979a101956ab8f8d9d7ded63fa7a83b16fc47648eab0612406565b680100000000000000017fffffffffffffffffffffffffffffffffffffffffffffff0000000000000000008616177ff0c57e16840df040f15088dc2f81fe391c3923bec73e23a9662efc9c229c6a00556118da565b60046040517ff92ee8a9000000000000000000000000000000000000000000000000000000008152fd5b90501587611880565b303b159150611878565b604087901c60ff1615915061186e565b346102315760007ffffffffffffffffffffffffffffffffffffffffffffffffffffffffffffffffc36011261023157602060405160128152f35b346102315760407ffffffffffffffffffffffffffffffffffffffffffffffffffffffffffffffffc36011261023157610429600435612587612c13565b90806000527f02dd7bc7dec4dceedda775e58dd541e08a116c6c53815c0bd028192f7b6268006020526125c1600160406000200154613111565b61373f565b346102315760807ffffffffffffffffffffffffffffffffffffffffffffffffffffffffffffffffc360112610231576125fd612bf0565b612605612c13565b906064359167ffffffffffffffff83116102315761262a610429933690600401612c36565b5050612634612ffd565b60443591613156565b346102315760207ffffffffffffffffffffffffffffffffffffffffffffffffffffffffffffffffc360112610231576004356000527f02dd7bc7dec4dceedda775e58dd541e08a116c6c53815c0bd028192f7b6268006020526020600160406000200154604051908152f35b346102315760607ffffffffffffffffffffffffffffffffffffffffffffffffffffffffffffffffc360112610231576126e0612bf0565b6126e8612c13565b604435906127358373ffffffffffffffffffffffffffffffffffffffff166000527f52c63247e1f47db19d5ce0460030c497f067ca4cebf71ba98eeadabe20bace01602052604060002090565b33600052602052604060002054927fffffffffffffffffffffffffffffffffffffffffffffffffffffffffffffffff8403612775575b6107bf9350612f9d565b8284106128615773ffffffffffffffffffffffffffffffffffffffff8116156128305733156127ff57826107bf946127ec8373ffffffffffffffffffffffffffffffffffffffff166000527f52c63247e1f47db19d5ce0460030c497f067ca4cebf71ba98eeadabe20bace01602052604060002090565b336000526020520360406000205561276b565b60246040517f94280d6200000000000000000000000000000000000000000000000000000000815260006004820152fd5b60246040517fe602df0500000000000000000000000000000000000000000000000000000000815260006004820152fd5b6040517ffb8f41b20000000000000000000000000000000000000000000000000000000081523360048201526024810185905260448101849052606490fd5b346102315760007ffffffffffffffffffffffffffffffffffffffffffffffffffffffffffffffffc3601126102315760207f52c63247e1f47db19d5ce0460030c497f067ca4cebf71ba98eeadabe20bace0254604051908152f35b346102315760407ffffffffffffffffffffffffffffffffffffffffffffffffffffffffffffffffc360112610231576107bf612935612bf0565b6024359033613b51565b346102315760007ffffffffffffffffffffffffffffffffffffffffffffffffffffffffffffffffc3601126102315760206040517f7b765e0e932d348852a6f810bfa1ab891e259123f02db8cdcde614c5702233578152f35b346102315760007ffffffffffffffffffffffffffffffffffffffffffffffffffffffffffffffffc360112610231576040517f52c63247e1f47db19d5ce0460030c497f067ca4cebf71ba98eeadabe20bace0380548260006129f983612d80565b9283835260209460019186600182169182600014610905575050600114612a2857505061089592500383612cb0565b8592506000527f2ae08a8e29253f69ac5d979a101956ab8f8d9d7ded63fa7a83b16fc47648eab0906000915b858310612a6c57505061089593508201018580610887565b80548389018501528794508693909201918101612a54565b346102315760007ffffffffffffffffffffffffffffffffffffffffffffffffffffffffffffffffc36011261023157602073ffffffffffffffffffffffffffffffffffffffff60005416604051908152f35b346102315760207ffffffffffffffffffffffffffffffffffffffffffffffffffffffffffffffffc36011261023157600435907fffffffff00000000000000000000000000000000000000000000000000000000821680920361023157817f7965db0b0000000000000000000000000000000000000000000000000000000060209314908115612b68575b5015158152f35b7f01ffc9a70000000000000000000000000000000000000000000000000000000091501483612b61565b919082519283825260005b848110612bdc5750507fffffffffffffffffffffffffffffffffffffffffffffffffffffffffffffffe0601f8460006020809697860101520116010190565b602081830181015184830182015201612b9d565b6004359073ffffffffffffffffffffffffffffffffffffffff8216820361023157565b6024359073ffffffffffffffffffffffffffffffffffffffff8216820361023157565b9181601f840112156102315782359167ffffffffffffffff8311610231576020838186019501011161023157565b60a0810190811067ffffffffffffffff82111761064257604052565b67ffffffffffffffff811161064257604052565b6040810190811067ffffffffffffffff82111761064257604052565b90601f7fffffffffffffffffffffffffffffffffffffffffffffffffffffffffffffffe0910116810190811067ffffffffffffffff82111761064257604052565b67ffffffffffffffff811161064257601f017fffffffffffffffffffffffffffffffffffffffffffffffffffffffffffffffe01660200190565b929192612d3782612cf1565b91612d456040519384612cb0565b829481845281830111610231578281602093846000960137010152565b9080601f8301121561023157816020612d7d93359101612d2b565b90565b90600182811c92168015612dc9575b6020831014612d9a57565b7f4e487b7100000000000000000000000000000000000000000000000000000000600052602260045260246000fd5b91607f1691612d8f565b604051906000827fa16a46d94261c7517cc8ff89f61c0ce93598e3c849801011dee649a6a557d10291825492612e0884612d80565b80845293602091600191828116908115612e975750600114612e36575b505050612e3492500383612cb0565b565b60009081527f42ad5d3e1f2e6e70edcf6d991b8a3023d3fca8047a131592f9edb9fd9b89d57d9590935091905b828410612e7f5750612e34945050508101602001388080612e25565b85548885018301529485019487945092810192612e63565b91505060209350612e349592507fffffffffffffffffffffffffffffffffffffffffffffffffffffffffffffff0091501682840152151560051b820101388080612e25565b604051906000827fa16a46d94261c7517cc8ff89f61c0ce93598e3c849801011dee649a6a557d10391825492612f1184612d80565b80845293602091600191828116908115612e975750600114612f3c57505050612e3492500383612cb0565b60009081527f5f9ce34815f8e11431c7bb75a8e6886a91478f7ffc1dbb0a98dc240fddd76b759590935091905b828410612f855750612e34945050508101602001388080612e25565b85548885018301529485019487945092810192612f69565b919073ffffffffffffffffffffffffffffffffffffffff80841615612fcc5781161561158557612e3492613156565b60246040517f96c6fd1e00000000000000000000000000000000000000000000000000000000815260006004820152fd5b3360009081527f6a9e2d30c9502d2e64654936f9966c37f5208e723166202f23831d0d37f1338360205260409020547f7b765e0e932d348852a6f810bfa1ab891e259123f02db8cdcde614c5702233579060ff16156115b65750565b3360009081527f75442b0a96088b5456bc4ed01394c96a4feec0f883c9494257d76b96ab1c9b6b60205260409020547f65d7a28e3265b37a6474929f336521b332c1681b933f6cb9f3376673440d862a9060ff16156115b65750565b3360009081527f75e09417c5070057df3eafe5054d52fa0b2a87d64a235e197963b615aedee80360205260409020547f7935bd0ae54bc31f548c14dba4d37c5c64b3f8ca900cb468fb8abd54d5894f559060ff16156115b65750565b806000527f02dd7bc7dec4dceedda775e58dd541e08a116c6c53815c0bd028192f7b62680060205260406000203360005260205260ff60406000205416156115b65750565b909160009273ffffffffffffffffffffffffffffffffffffffff90818554168015158061345f575b80613454575b613394575b50818416938415801561335f575b61319f613ccb565b1561329757507f52c63247e1f47db19d5ce0460030c497f067ca4cebf71ba98eeadabe20bace0280549084820180921161326a57557fddf252ad1be2c89b69c2b068fc378daa952ba7f163c4a11628f55a4df523b3ef9260209290915b16948561323557507f52c63247e1f47db19d5ce0460030c497f067ca4cebf71ba98eeadabe20bace028181540390555b604051908152a3565b8086604092527f52c63247e1f47db19d5ce0460030c497f067ca4cebf71ba98eeadabe20bace0084522081815401905561322c565b6024877f4e487b710000000000000000000000000000000000000000000000000000000081526011600452fd5b8486527f52c63247e1f47db19d5ce0460030c497f067ca4cebf71ba98eeadabe20bace008060205260408720549185831061330657509184602094927fddf252ad1be2c89b69c2b068fc378daa952ba7f163c4a11628f55a4df523b3ef9694888a5286520360408820556131fc565b6040517fe450d38c00000000000000000000000000000000000000000000000000000000815273ffffffffffffffffffffffffffffffffffffffff91909116600482015260248101929092525060448101849052606490fd5b62015180420486885260026020526040882081815403613381575b5050613197565b556001602052866040812055388061337a565b6040516133a081612c64565b30815260208101913383526040820185881681526060830186861681526080840191888352833b15613450579260a492888c9693818097816040519b8c9a8b997f68d0d000000000000000000000000000000000000000000000000000000000008b52511660048a01525116602488015251166044860152511660648401525160848301525afa801561344557156131895761343e90959195612c80565b9338613189565b6040513d88823e3d90fd5b8a80fd5b508282161515613184565b50828516151561317e565b73ffffffffffffffffffffffffffffffffffffffff1660008181527fb7db2dd08fcb62d0c9e08c51941cae53c267786a0b75803fb7960902fc8ef97d60205260408120549091907f02dd7bc7dec4dceedda775e58dd541e08a116c6c53815c0bd028192f7b6268009060ff1661354257828052602052604082208183526020526040822060017fffffffffffffffffffffffffffffffffffffffffffffffffffffffffffffff0082541617905533917f2f8788117e7eff1d82e926ec794901d17c78024a50270940304540a733656f0d8180a4600190565b505090565b73ffffffffffffffffffffffffffffffffffffffff1660008181527f75e09417c5070057df3eafe5054d52fa0b2a87d64a235e197963b615aedee80360205260408120549091907f7935bd0ae54bc31f548c14dba4d37c5c64b3f8ca900cb468fb8abd54d5894f55907f02dd7bc7dec4dceedda775e58dd541e08a116c6c53815c0bd028192f7b6268009060ff1661364057818452602052604083208284526020526040832060017fffffffffffffffffffffffffffffffffffffffffffffffffffffffffffffff008254161790557f2f8788117e7eff1d82e926ec794901d17c78024a50270940304540a733656f0d339380a4600190565b50505090565b73ffffffffffffffffffffffffffffffffffffffff1660008181527f75442b0a96088b5456bc4ed01394c96a4feec0f883c9494257d76b96ab1c9b6b60205260408120549091907f65d7a28e3265b37a6474929f336521b332c1681b933f6cb9f3376673440d862a907f02dd7bc7dec4dceedda775e58dd541e08a116c6c53815c0bd028192f7b6268009060ff1661364057818452602052604083208284526020526040832060017fffffffffffffffffffffffffffffffffffffffffffffffffffffffffffffff008254161790557f2f8788117e7eff1d82e926ec794901d17c78024a50270940304540a733656f0d339380a4600190565b906000918083527f02dd7bc7dec4dceedda775e58dd541e08a116c6c53815c0bd028192f7b6268008060205273ffffffffffffffffffffffffffffffffffffffff6040852093169283855260205260ff6040852054161560001461364057818452602052604083208284526020526040832060017fffffffffffffffffffffffffffffffffffffffffffffffffffffffffffffff008254161790557f2f8788117e7eff1d82e926ec794901d17c78024a50270940304540a733656f0d339380a4600190565b906000918083527f02dd7bc7dec4dceedda775e58dd541e08a116c6c53815c0bd028192f7b6268008060205273ffffffffffffffffffffffffffffffffffffffff6040852093169283855260205260ff6040852054166000146136405781845260205260408320828452602052604083207fffffffffffffffffffffffffffffffffffffffffffffffffffffffffffffff0081541690557ff6391f5c32d9c69d2a47ea670b442974b53935d1edc7fd64eb21e047a839171b339380a4600190565b7f9b779b17422d0df92223018b32b4d1fa46e071723d6817e2486d003becc55f0060028154146138f55760029055565b60046040517f3ee5aeb5000000000000000000000000000000000000000000000000000000008152fd5b73ffffffffffffffffffffffffffffffffffffffff91828216918215612fcc57600093808554169081151580613b49575b80613b42575b613a84575b505062015180420490838552600260205260409182862081815403613a72575b5050613985613ccb565b8385527f52c63247e1f47db19d5ce0460030c497f067ca4cebf71ba98eeadabe20bace00806020528286205491848310613a1a575091837fddf252ad1be2c89b69c2b068fc378daa952ba7f163c4a11628f55a4df523b3ef9492602094878952855203818720557f52c63247e1f47db19d5ce0460030c497f067ca4cebf71ba98eeadabe20bace0282815403905551908152a3565b83517fe450d38c00000000000000000000000000000000000000000000000000000000815273ffffffffffffffffffffffffffffffffffffffff91909116600482015260248101929092525060448101839052606490fd5b5560016020528482812055388061397b565b604051613a9081612c64565b308152602081019233845260408201878152606083018981526080840191888352833b1561345057918560a49492818097958e996040519b8c9a8b997f68d0d000000000000000000000000000000000000000000000000000000000008b52511660048a01525116602488015251166044860152511660648401525160848301525afa8015613b3757613b24575b8061395b565b613b3090949194612c80565b9238613b1e565b6040513d87823e3d90fd5b5085613956565b506001613950565b9173ffffffffffffffffffffffffffffffffffffffff80841692831561283057169283156127ff577f8c5be1e5ebec7d5bd14f71427d1e84f3dd0314c0f7b2291e5b200ac8c7c3b92591613be660209273ffffffffffffffffffffffffffffffffffffffff166000527f52c63247e1f47db19d5ce0460030c497f067ca4cebf71ba98eeadabe20bace01602052604060002090565b85600052825280604060002055604051908152a3565b60ff7ff0c57e16840df040f15088dc2f81fe391c3923bec73e23a9662efc9c229c6a005460401c1615613c2b57565b60046040517fd7e6bcf8000000000000000000000000000000000000000000000000000000008152fd5b613c5d613ea4565b613c65613f0e565b6040519060208201927f8b73c3c69bb8fe3d512ecc4cf759cc79239f7b179b0ffacaa9a75d522b39400f8452604083015260608201524660808201523060a082015260a0815260c0810181811067ffffffffffffffff8211176106425760405251902090565b60ff7fcd5ed15c6e187e77e9aee88184c21f4f2182ab5827cb3b7e07fbedcd63f033005416613cf657565b60046040517fd93c0665000000000000000000000000000000000000000000000000000000008152fd5b91907f7fffffffffffffffffffffffffffffff5d576e7357a4501ddfe92f46681b20a08411613db157926020929160ff608095604051948552168484015260408301526060820152600092839182805260015afa15613da557805173ffffffffffffffffffffffffffffffffffffffff811615613d9c57918190565b50809160019190565b604051903d90823e3d90fd5b50505060009160039190565b6004811015613e755780613dcf575050565b60018103613e015760046040517ff645eedf000000000000000000000000000000000000000000000000000000008152fd5b60028103613e3a57602482604051907ffce698f70000000000000000000000000000000000000000000000000000000082526004820152fd5b600314613e445750565b602490604051907fd78bce0c0000000000000000000000000000000000000000000000000000000082526004820152fd5b7f4e487b7100000000000000000000000000000000000000000000000000000000600052602160045260246000fd5b613eac612dd3565b8051908115613ebc576020012090565b50507fa16a46d94261c7517cc8ff89f61c0ce93598e3c849801011dee649a6a557d100548015613ee95790565b507fc5d2460186f7233c927e7db2dcc703c0e500b653ca82273b7bfad8045d85a47090565b613f16612edc565b8051908115613f26576020012090565b50507fa16a46d94261c7517cc8ff89f61c0ce93598e3c849801011dee649a6a557d101548015613ee95790565b90613f925750805115613f6857805190602001fd5b60046040517f1425ea42000000000000000000000000000000000000000000000000000000008152fd5b81511580613fea575b613fa3575090565b60249073ffffffffffffffffffffffffffffffffffffffff604051917f9996b315000000000000000000000000000000000000000000000000000000008352166004820152fd5b50803b15613f9b56fea2646970667358221220cafbec4396738fdb518a805bf8a857a497d42f09d1b941dc70cf3e538226134064736f6c63430008180033","linkReferences":{}},"methodIdentifiers":{"CONTROLLER_ROLE()":"092c5b3b","DEFAULT_ADMIN_ROLE()":"a217fddf","DOMAIN_SEPARATOR()":"3644e515","GOVERNOR_ROLE()":"ccc57490","MINTER_ROLE()":"d5391393","PAUSER_ROLE()":"e63ab1e9","UPGRADE_INTERFACE_VERSION()":"ad3cb1cc","allowance(address,address)":"dd62ed3e","approve(address,uint256)":"095ea7b3","balanceOf(address)":"70a08231","controllerRedeem(address,uint256,bytes)":"77ead309","controllerTransfer(address,address,uint256,bytes)":"2dc990dd","dailySpent(address)":"ffc8ada6","dailyWindow(address)":"423bbfbe","decimals()":"313ce567","eip712Domain()":"84b0196e","getRoleAdmin(bytes32)":"248a9ca3","grantRole(bytes32,address)":"2f2ff15d","hasRole(bytes32,address)":"91d14854","initialize(address,address,string,string,address)":"362925c2","mint(address,uint256)":"40c10f19","name()":"06fdde03","nonces(address)":"7ecebe00","pause()":"8456cb59","paused()":"5c975abb","permit(address,address,uint256,uint256,uint8,bytes32,bytes32)":"d505accf","policy()":"0505c8c9","proxiableUUID()":"52d1902d","redeem(uint256)":"db006a75","renounceRole(bytes32,address)":"36568abe","revokeRole(bytes32,address)":"d547741f","setPolicy(address)":"7d4163d3","supportsInterface(bytes4)":"01ffc9a7","symbol()":"95d89b41","totalSupply()":"18160ddd","transfer(address,uint256)":"a9059cbb","transferFrom(address,address,uint256)":"23b872dd","unpause()":"3f4ba83a","upgradeToAndCall(address,bytes)":"4f1ef286"},"id":43}