{
  "_format": "hh-sol-artifact-1",
  "contractName": "PriceOracleMock",
  "sourceName": "contracts/stable/mocks/PriceOracleMock.sol",
  "abi": [
    {
      "inputs": [
        {
          "internalType": "address",
          "name": "",
          "type": "address"
        }
      ],
      "name": "price",
      "outputs": [
        {
          "internalType": "uint256",
          "name": "",
          "type": "uint256"
        }
      ],
      "stateMutability": "view",
      "type": "function"
    },
    {
      "inputs": [
        {
          "internalType": "address",
          "name": "asset",
          "type": "address"
        }
      ],
      "name": "priceE18",
      "outputs": [
        {
          "internalType": "uint256",
          "name": "p",
          "type": "uint256"
        },
        {
          "internalType": "uint64",
          "name": "ts",
          "type": "uint64"
        }
      ],
      "stateMutability": "view",
      "type": "function"
    },
    {
      "inputs": [
        {
          "internalType": "address",
          "name": "asset",
          "type": "address"
        },
        {
          "internalType": "uint256",
          "name": "p",
          "type": "uint256"
        }
      ],
      "name": "set",
      "outputs": [],
      "stateMutability": "nonpayable",
      "type": "function"
    }
  ],
  "bytecode": "0x608060405234801561001057600080fd5b5061018c806100206000396000f3fe608060405234801561001057600080fd5b50600436106100415760003560e01c80633825d828146100465780633a697cad14610072578063aea91078146100c0575b600080fd5b61007061005436600461010a565b6001600160a01b03909116600090815260208190526040902055565b005b61009d610080366004610134565b6001600160a01b0316600090815260208190526040902054904290565b6040805192835267ffffffffffffffff9091166020830152015b60405180910390f35b6100e06100ce366004610134565b60006020819052908152604090205481565b6040519081526020016100b7565b80356001600160a01b038116811461010557600080fd5b919050565b6000806040838503121561011d57600080fd5b610126836100ee565b946020939093013593505050565b60006020828403121561014657600080fd5b61014f826100ee565b939250505056fea2646970667358221220e43cc22c38cd851fb4a8d58c514668abac110bec4cb053878cf44c6a1cfe37ed64736f6c63430008180033",
  "linkReferences": {},
  "deployedLinkReferences": {}
}