{
  "_format": "hh-sol-artifact-1",
  "contractName": "SuretyBondNFT",
  "sourceName": "contracts/surety/SuretyBondNFT.sol",
  "abi": [
    {
      "inputs": [
        {
          "internalType": "address",
          "name": "admin",
          "type": "address"
        }
      ],
      "stateMutability": "nonpayable",
      "type": "constructor"
    },
    {
      "inputs": [],
      "name": "AccessControlBadConfirmation",
      "type": "error"
    },
    {
      "inputs": [
        {
          "internalType": "address",
          "name": "account",
          "type": "address"
        },
        {
          "internalType": "bytes32",
          "name": "neededRole",
          "type": "bytes32"
        }
      ],
      "name": "AccessControlUnauthorizedAccount",
      "type": "error"
    },
    {
      "inputs": [
        {
          "internalType": "address",
          "name": "sender",
          "type": "address"
        },
        {
          "internalType": "uint256",
          "name": "tokenId",
          "type": "uint256"
        },
        {
          "internalType": "address",
          "name": "owner",
          "type": "address"
        }
      ],
      "name": "ERC721IncorrectOwner",
      "type": "error"
    },
    {
      "inputs": [
        {
          "internalType": "address",
          "name": "operator",
          "type": "address"
        },
        {
          "internalType": "uint256",
          "name": "tokenId",
          "type": "uint256"
        }
      ],
      "name": "ERC721InsufficientApproval",
      "type": "error"
    },
    {
      "inputs": [
        {
          "internalType": "address",
          "name": "approver",
          "type": "address"
        }
      ],
      "name": "ERC721InvalidApprover",
      "type": "error"
    },
    {
      "inputs": [
        {
          "internalType": "address",
          "name": "operator",
          "type": "address"
        }
      ],
      "name": "ERC721InvalidOperator",
      "type": "error"
    },
    {
      "inputs": [
        {
          "internalType": "address",
          "name": "owner",
          "type": "address"
        }
      ],
      "name": "ERC721InvalidOwner",
      "type": "error"
    },
    {
      "inputs": [
        {
          "internalType": "address",
          "name": "receiver",
          "type": "address"
        }
      ],
      "name": "ERC721InvalidReceiver",
      "type": "error"
    },
    {
      "inputs": [
        {
          "internalType": "address",
          "name": "sender",
          "type": "address"
        }
      ],
      "name": "ERC721InvalidSender",
      "type": "error"
    },
    {
      "inputs": [
        {
          "internalType": "uint256",
          "name": "tokenId",
          "type": "uint256"
        }
      ],
      "name": "ERC721NonexistentToken",
      "type": "error"
    },
    {
      "inputs": [],
      "name": "EnforcedPause",
      "type": "error"
    },
    {
      "inputs": [],
      "name": "ExpectedPause",
      "type": "error"
    },
    {
      "anonymous": false,
      "inputs": [
        {
          "indexed": true,
          "internalType": "address",
          "name": "owner",
          "type": "address"
        },
        {
          "indexed": true,
          "internalType": "address",
          "name": "approved",
          "type": "address"
        },
        {
          "indexed": true,
          "internalType": "uint256",
          "name": "tokenId",
          "type": "uint256"
        }
      ],
      "name": "Approval",
      "type": "event"
    },
    {
      "anonymous": false,
      "inputs": [
        {
          "indexed": true,
          "internalType": "address",
          "name": "owner",
          "type": "address"
        },
        {
          "indexed": true,
          "internalType": "address",
          "name": "operator",
          "type": "address"
        },
        {
          "indexed": false,
          "internalType": "bool",
          "name": "approved",
          "type": "bool"
        }
      ],
      "name": "ApprovalForAll",
      "type": "event"
    },
    {
      "anonymous": false,
      "inputs": [
        {
          "indexed": true,
          "internalType": "uint256",
          "name": "tokenId",
          "type": "uint256"
        },
        {
          "indexed": false,
          "internalType": "address",
          "name": "principal",
          "type": "address"
        },
        {
          "indexed": false,
          "internalType": "address",
          "name": "obligee",
          "type": "address"
        },
        {
          "indexed": false,
          "internalType": "uint256",
          "name": "penalSum",
          "type": "uint256"
        }
      ],
      "name": "BondIssued",
      "type": "event"
    },
    {
      "anonymous": false,
      "inputs": [
        {
          "indexed": true,
          "internalType": "uint256",
          "name": "tokenId",
          "type": "uint256"
        },
        {
          "indexed": false,
          "internalType": "bool",
          "name": "active",
          "type": "bool"
        }
      ],
      "name": "BondStatusChanged",
      "type": "event"
    },
    {
      "anonymous": false,
      "inputs": [
        {
          "indexed": true,
          "internalType": "uint256",
          "name": "tokenId",
          "type": "uint256"
        },
        {
          "indexed": false,
          "internalType": "uint256",
          "name": "claimIdx",
          "type": "uint256"
        },
        {
          "indexed": false,
          "internalType": "uint256",
          "name": "amount",
          "type": "uint256"
        }
      ],
      "name": "ClaimFiled",
      "type": "event"
    },
    {
      "anonymous": false,
      "inputs": [
        {
          "indexed": true,
          "internalType": "uint256",
          "name": "tokenId",
          "type": "uint256"
        },
        {
          "indexed": false,
          "internalType": "uint256",
          "name": "claimIdx",
          "type": "uint256"
        },
        {
          "indexed": false,
          "internalType": "enum SuretyBondNFT.ClaimStatus",
          "name": "status",
          "type": "uint8"
        }
      ],
      "name": "ClaimStatusChanged",
      "type": "event"
    },
    {
      "anonymous": false,
      "inputs": [
        {
          "indexed": false,
          "internalType": "address",
          "name": "account",
          "type": "address"
        }
      ],
      "name": "Paused",
      "type": "event"
    },
    {
      "anonymous": false,
      "inputs": [
        {
          "indexed": true,
          "internalType": "bytes32",
          "name": "role",
          "type": "bytes32"
        },
        {
          "indexed": true,
          "internalType": "bytes32",
          "name": "previousAdminRole",
          "type": "bytes32"
        },
        {
          "indexed": true,
          "internalType": "bytes32",
          "name": "newAdminRole",
          "type": "bytes32"
        }
      ],
      "name": "RoleAdminChanged",
      "type": "event"
    },
    {
      "anonymous": false,
      "inputs": [
        {
          "indexed": true,
          "internalType": "bytes32",
          "name": "role",
          "type": "bytes32"
        },
        {
          "indexed": true,
          "internalType": "address",
          "name": "account",
          "type": "address"
        },
        {
          "indexed": true,
          "internalType": "address",
          "name": "sender",
          "type": "address"
        }
      ],
      "name": "RoleGranted",
      "type": "event"
    },
    {
      "anonymous": false,
      "inputs": [
        {
          "indexed": true,
          "internalType": "bytes32",
          "name": "role",
          "type": "bytes32"
        },
        {
          "indexed": true,
          "internalType": "address",
          "name": "account",
          "type": "address"
        },
        {
          "indexed": true,
          "internalType": "address",
          "name": "sender",
          "type": "address"
        }
      ],
      "name": "RoleRevoked",
      "type": "event"
    },
    {
      "anonymous": false,
      "inputs": [
        {
          "indexed": true,
          "internalType": "address",
          "name": "from",
          "type": "address"
        },
        {
          "indexed": true,
          "internalType": "address",
          "name": "to",
          "type": "address"
        },
        {
          "indexed": true,
          "internalType": "uint256",
          "name": "tokenId",
          "type": "uint256"
        }
      ],
      "name": "Transfer",
      "type": "event"
    },
    {
      "anonymous": false,
      "inputs": [
        {
          "indexed": false,
          "internalType": "address",
          "name": "account",
          "type": "address"
        }
      ],
      "name": "Unpaused",
      "type": "event"
    },
    {
      "inputs": [],
      "name": "DEFAULT_ADMIN_ROLE",
      "outputs": [
        {
          "internalType": "bytes32",
          "name": "",
          "type": "bytes32"
        }
      ],
      "stateMutability": "view",
      "type": "function"
    },
    {
      "inputs": [
        {
          "internalType": "address",
          "name": "to",
          "type": "address"
        },
        {
          "internalType": "uint256",
          "name": "tokenId",
          "type": "uint256"
        }
      ],
      "name": "approve",
      "outputs": [],
      "stateMutability": "nonpayable",
      "type": "function"
    },
    {
      "inputs": [
        {
          "internalType": "address",
          "name": "owner",
          "type": "address"
        }
      ],
      "name": "balanceOf",
      "outputs": [
        {
          "internalType": "uint256",
          "name": "",
          "type": "uint256"
        }
      ],
      "stateMutability": "view",
      "type": "function"
    },
    {
      "inputs": [
        {
          "internalType": "uint256",
          "name": "",
          "type": "uint256"
        }
      ],
      "name": "bonds",
      "outputs": [
        {
          "internalType": "address",
          "name": "principal",
          "type": "address"
        },
        {
          "internalType": "address",
          "name": "obligee",
          "type": "address"
        },
        {
          "internalType": "uint256",
          "name": "penalSum",
          "type": "uint256"
        },
        {
          "internalType": "uint64",
          "name": "issueDate",
          "type": "uint64"
        },
        {
          "internalType": "uint64",
          "name": "expiry",
          "type": "uint64"
        },
        {
          "internalType": "bool",
          "name": "active",
          "type": "bool"
        }
      ],
      "stateMutability": "view",
      "type": "function"
    },
    {
      "inputs": [
        {
          "internalType": "uint256",
          "name": "",
          "type": "uint256"
        },
        {
          "internalType": "uint256",
          "name": "",
          "type": "uint256"
        }
      ],
      "name": "claims",
      "outputs": [
        {
          "internalType": "uint256",
          "name": "amount",
          "type": "uint256"
        },
        {
          "internalType": "uint64",
          "name": "filedAt",
          "type": "uint64"
        },
        {
          "internalType": "string",
          "name": "evidence",
          "type": "string"
        },
        {
          "internalType": "enum SuretyBondNFT.ClaimStatus",
          "name": "status",
          "type": "uint8"
        }
      ],
      "stateMutability": "view",
      "type": "function"
    },
    {
      "inputs": [
        {
          "internalType": "uint256",
          "name": "tokenId",
          "type": "uint256"
        },
        {
          "internalType": "uint256",
          "name": "amount",
          "type": "uint256"
        },
        {
          "internalType": "string",
          "name": "evidence",
          "type": "string"
        }
      ],
      "name": "fileClaim",
      "outputs": [],
      "stateMutability": "nonpayable",
      "type": "function"
    },
    {
      "inputs": [
        {
          "internalType": "uint256",
          "name": "tokenId",
          "type": "uint256"
        }
      ],
      "name": "getApproved",
      "outputs": [
        {
          "internalType": "address",
          "name": "",
          "type": "address"
        }
      ],
      "stateMutability": "view",
      "type": "function"
    },
    {
      "inputs": [
        {
          "internalType": "bytes32",
          "name": "role",
          "type": "bytes32"
        }
      ],
      "name": "getRoleAdmin",
      "outputs": [
        {
          "internalType": "bytes32",
          "name": "",
          "type": "bytes32"
        }
      ],
      "stateMutability": "view",
      "type": "function"
    },
    {
      "inputs": [
        {
          "internalType": "bytes32",
          "name": "role",
          "type": "bytes32"
        },
        {
          "internalType": "address",
          "name": "account",
          "type": "address"
        }
      ],
      "name": "grantRole",
      "outputs": [],
      "stateMutability": "nonpayable",
      "type": "function"
    },
    {
      "inputs": [
        {
          "internalType": "bytes32",
          "name": "role",
          "type": "bytes32"
        },
        {
          "internalType": "address",
          "name": "account",
          "type": "address"
        }
      ],
      "name": "hasRole",
      "outputs": [
        {
          "internalType": "bool",
          "name": "",
          "type": "bool"
        }
      ],
      "stateMutability": "view",
      "type": "function"
    },
    {
      "inputs": [
        {
          "internalType": "address",
          "name": "owner",
          "type": "address"
        },
        {
          "internalType": "address",
          "name": "operator",
          "type": "address"
        }
      ],
      "name": "isApprovedForAll",
      "outputs": [
        {
          "internalType": "bool",
          "name": "",
          "type": "bool"
        }
      ],
      "stateMutability": "view",
      "type": "function"
    },
    {
      "inputs": [
        {
          "internalType": "address",
          "name": "principal",
          "type": "address"
        },
        {
          "internalType": "address",
          "name": "obligee",
          "type": "address"
        },
        {
          "internalType": "uint256",
          "name": "penalSum",
          "type": "uint256"
        },
        {
          "internalType": "uint64",
          "name": "issueDate",
          "type": "uint64"
        },
        {
          "internalType": "uint64",
          "name": "expiry",
          "type": "uint64"
        }
      ],
      "name": "issue",
      "outputs": [
        {
          "internalType": "uint256",
          "name": "tokenId",
          "type": "uint256"
        }
      ],
      "stateMutability": "nonpayable",
      "type": "function"
    },
    {
      "inputs": [],
      "name": "name",
      "outputs": [
        {
          "internalType": "string",
          "name": "",
          "type": "string"
        }
      ],
      "stateMutability": "view",
      "type": "function"
    },
    {
      "inputs": [
        {
          "internalType": "uint256",
          "name": "tokenId",
          "type": "uint256"
        }
      ],
      "name": "ownerOf",
      "outputs": [
        {
          "internalType": "address",
          "name": "",
          "type": "address"
        }
      ],
      "stateMutability": "view",
      "type": "function"
    },
    {
      "inputs": [],
      "name": "pause",
      "outputs": [],
      "stateMutability": "nonpayable",
      "type": "function"
    },
    {
      "inputs": [],
      "name": "paused",
      "outputs": [
        {
          "internalType": "bool",
          "name": "",
          "type": "bool"
        }
      ],
      "stateMutability": "view",
      "type": "function"
    },
    {
      "inputs": [
        {
          "internalType": "bytes32",
          "name": "role",
          "type": "bytes32"
        },
        {
          "internalType": "address",
          "name": "callerConfirmation",
          "type": "address"
        }
      ],
      "name": "renounceRole",
      "outputs": [],
      "stateMutability": "nonpayable",
      "type": "function"
    },
    {
      "inputs": [
        {
          "internalType": "bytes32",
          "name": "role",
          "type": "bytes32"
        },
        {
          "internalType": "address",
          "name": "account",
          "type": "address"
        }
      ],
      "name": "revokeRole",
      "outputs": [],
      "stateMutability": "nonpayable",
      "type": "function"
    },
    {
      "inputs": [
        {
          "internalType": "address",
          "name": "from",
          "type": "address"
        },
        {
          "internalType": "address",
          "name": "to",
          "type": "address"
        },
        {
          "internalType": "uint256",
          "name": "tokenId",
          "type": "uint256"
        }
      ],
      "name": "safeTransferFrom",
      "outputs": [],
      "stateMutability": "nonpayable",
      "type": "function"
    },
    {
      "inputs": [
        {
          "internalType": "address",
          "name": "from",
          "type": "address"
        },
        {
          "internalType": "address",
          "name": "to",
          "type": "address"
        },
        {
          "internalType": "uint256",
          "name": "tokenId",
          "type": "uint256"
        },
        {
          "internalType": "bytes",
          "name": "data",
          "type": "bytes"
        }
      ],
      "name": "safeTransferFrom",
      "outputs": [],
      "stateMutability": "nonpayable",
      "type": "function"
    },
    {
      "inputs": [
        {
          "internalType": "address",
          "name": "operator",
          "type": "address"
        },
        {
          "internalType": "bool",
          "name": "approved",
          "type": "bool"
        }
      ],
      "name": "setApprovalForAll",
      "outputs": [],
      "stateMutability": "nonpayable",
      "type": "function"
    },
    {
      "inputs": [
        {
          "internalType": "uint256",
          "name": "tokenId",
          "type": "uint256"
        },
        {
          "internalType": "bool",
          "name": "active",
          "type": "bool"
        }
      ],
      "name": "setBondStatus",
      "outputs": [],
      "stateMutability": "nonpayable",
      "type": "function"
    },
    {
      "inputs": [
        {
          "internalType": "uint256",
          "name": "tokenId",
          "type": "uint256"
        },
        {
          "internalType": "uint256",
          "name": "claimIdx",
          "type": "uint256"
        },
        {
          "internalType": "enum SuretyBondNFT.ClaimStatus",
          "name": "status",
          "type": "uint8"
        }
      ],
      "name": "setClaimStatus",
      "outputs": [],
      "stateMutability": "nonpayable",
      "type": "function"
    },
    {
      "inputs": [
        {
          "internalType": "bytes4",
          "name": "interfaceId",
          "type": "bytes4"
        }
      ],
      "name": "supportsInterface",
      "outputs": [
        {
          "internalType": "bool",
          "name": "",
          "type": "bool"
        }
      ],
      "stateMutability": "view",
      "type": "function"
    },
    {
      "inputs": [],
      "name": "symbol",
      "outputs": [
        {
          "internalType": "string",
          "name": "",
          "type": "string"
        }
      ],
      "stateMutability": "view",
      "type": "function"
    },
    {
      "inputs": [
        {
          "internalType": "uint256",
          "name": "tokenId",
          "type": "uint256"
        }
      ],
      "name": "tokenURI",
      "outputs": [
        {
          "internalType": "string",
          "name": "",
          "type": "string"
        }
      ],
      "stateMutability": "view",
      "type": "function"
    },
    {
      "inputs": [
        {
          "internalType": "address",
          "name": "from",
          "type": "address"
        },
        {
          "internalType": "address",
          "name": "to",
          "type": "address"
        },
        {
          "internalType": "uint256",
          "name": "tokenId",
          "type": "uint256"
        }
      ],
      "name": "transferFrom",
      "outputs": [],
      "stateMutability": "nonpayable",
      "type": "function"
    },
    {
      "inputs": [],
      "name": "unpause",
      "outputs": [],
      "stateMutability": "nonpayable",
      "type": "function"
    }
  ],
  "bytecode": "0x6080346200036d57601f1990601f906001600160401b036200224338819003848101861684018381118582101762000357578492829160405283396020938491810103126200036d5751926001600160a01b03841684036200036d576200006562000372565b92600b84526a14dd5c995d1e48109bdb9960aa1b818501526200008762000372565b90600682526553555245545960d01b8183015284519684881162000357576000978854966001978881811c911680156200034c575b858210146200033857908187849311620002e5575b50849087831160011462000284578b9262000278575b5050600019600383901b1c191690871b1788555b8251948511620002645785548681811c9116801562000259575b838210146200024557848111620001fd575b50819385116001146200019457505090829162000177969262000188575b5050600019600383901b1c191690821b1790555b620001648162000392565b50620001708162000435565b50620004d3565b50604051611cb19081620005728239f35b01519050388062000145565b8588528188209497908816915b828210620001e5575050918493918762000177989410620001cb575b505050811b01905562000159565b015160001960f88460031b161c19169055388080620001bd565b808786978294978701518155019601940190620001a1565b8689528289208580880160051c8201928589106200023b575b0160051c019087905b8281106200022f57505062000127565b8a81550187906200021f565b9250819262000216565b634e487b7160e01b89526022600452602489fd5b90607f169062000115565b634e487b7160e01b88526041600452602488fd5b015190503880620000e7565b90848a9416918c8052868d20928d5b88828210620002ce5750508411620002b4575b505050811b018855620000fb565b015160001960f88460031b161c19169055388080620002a6565b8385015186558d9790950194938401930162000293565b9091508a8052848b208780850160051c8201928786106200032e575b918b91869594930160051c01915b8281106200031f575050620000d1565b8d81558594508b91016200030f565b9250819262000301565b634e487b7160e01b8b52602260045260248bfd5b90607f1690620000bc565b634e487b7160e01b600052604160045260246000fd5b600080fd5b60408051919082016001600160401b038111838210176200035757604052565b6001600160a01b031660008181527f31f4bc5980931cfff8fcc0887a354f492c853dee1983bdef4d9cb3e8a5ff876e60205260408120549091907fdf8b4c520ffe197c5343c6f5aec59570151ef9a492f2c624fd45ddde6135ec429060ff16620004305780835260066020526040832082845260205260408320600160ff1982541617905560008051602062002223833981519152339380a4600190565b505090565b6001600160a01b031660008181527fc0c6dd4f7aedf943ac46b952a0594f795b891c30544bfc4cb4ae23b82a4d909b60205260408120549091907f76afa8a5929fef1b4c03674b2152ae5aaad1d974b8a4021c59477bcc846ccc1e9060ff16620004305780835260066020526040832082845260205260408320600160ff1982541617905560008051602062002223833981519152339380a4600190565b6001600160a01b031660008181527fba39d2e119d4075e56dadcfd5cd5b862305d2c4d32649e4866948958647d49cf60205260408120549091907f8b5b16d04624687fcf0d0228f19993c9157c1ed07b41d8d430fd9100eb099fe89060ff16620004305780835260066020526040832082845260205260408320600160ff1982541617905560008051602062002223833981519152339380a460019056fe608080604052600436101561001357600080fd5b60003560e01c90816301ffc9a7146114d75750806306fdde031461142c578063081812fc146113ed578063095ea7b31461130457806311b91d241461127d57806323b872dd14611266578063248a9ca3146112375780632f2ff15d146111f857806336568abe146111b15780633f4ba83a1461114757806342842e0e146111195780635c975abb146110f65780635f1c17c01461107957806361b3381f14610b355780636352211e14610b0657806370a0823114610aad5780638456cb5914610a53578063910291e71461094557806391d14854146108f757806395d89b4114610814578063a217fddf146107f8578063a22cb46514610754578063a3a5dcf6146103d4578063b88d4fde14610368578063c87b56dd14610315578063d547741f146102d4578063e985e9c51461027d5763f894160e1461015357600080fd5b3461027857604036600319011261027857602435600435600052602090600a825260406000209081548110156102785761018c9161169d565b50805490600167ffffffffffffffff60018301541691600281019185604051936000928154916101bb836116cf565b8088529260018116908115610257575060011461021e575b505050509160ff600361020f936101ef8461021a970385611628565b01541693604051968796875286015260806040860152608085019061155c565b916060840190611709565b0390f35b6000908152838120939450925b82841061024457505050830101856003836101ef6101d3565b805487850186015292840192810161022b565b60ff191685890152505050151560051b8401019050856003836101ef6101d3565b600080fd5b346102785760403660031901126102785761029661159c565b61029e6115b2565b906001600160a01b03809116600052600560205260406000209116600052602052602060ff604060002054166040519015158152f35b34610278576040366003190112610278576103136004356102f36115b2565b9080600052600660205261030e6001604060002001546119f2565b611a99565b005b34610278576020366003190112610278576103316004356118ff565b5060006040516103408161160c565b5261021a6040516103508161160c565b6000815260405191829160208352602083019061155c565b346102785760803660031901126102785761038161159c565b6103896115b2565b906044356064359267ffffffffffffffff84116102785736602385011215610278576103c2610313943690602481600401359101611666565b926103ce838383611716565b33611b2f565b34610278576060366003190112610278576004356024803560443567ffffffffffffffff9283821161027857366023830112156102785781600401359184831161027857368284830101116102785761042b611b11565b85600052602092600984526040600020906001916001600160a01b03838201541633036107225787600382015461046760ff8260801c166118ae565b60401c1642116106f4576002015486116106b05787600052600a855260406000209182549760405194608086018681108382111761069b57906104bc9160405289875288870194834216865288369201611666565b92604086019384526060860194838652680100000000000000008b101561069b578a6104ec91858201815561169d565b969096610686575186558183870191511667ffffffffffffffff1982541617905560028501925180519182116106715761052684546116cf565b601f8111610628575b508790601f83116001146105c5579282939183926000946105ba575b50501b916000199060031b1c19161790555b519160058310156105a657509161059b6040949260037e16b36dc742e36d40c93764b5d2448ab23f153dbfde9a2e22261968924f511e9795016118e7565b8351928352820152a2005b634e487b7160e01b60009081526021600452fd5b015192508c8061054b565b90601f1983169185600052838a6000209360005b8c8883831061061157505050106105f8575b505050811b01905561055d565b015160001960f88460031b161c191690558a80806105eb565b8686015188559096019594850194879350016105d9565b8460005288600020601f840160051c8101918a8510610667575b601f0160051c019084905b82811061065b57505061052f565b6000815501849061064d565b9091508190610642565b86634e487b7160e01b60005260416004526000fd5b87634e487b7160e01b60005260006004526000fd5b87634e487b7160e01b60005260416004526000fd5b60405162461bcd60e51b8152600481018690526011818601527f657863656564732070656e616c2073756d0000000000000000000000000000006044820152606490fd5b60405162461bcd60e51b81526004810187905260078187015266195e1c1a5c995960ca1b6044820152606490fd5b60405162461bcd60e51b815260048101879052600b818701526a6e6f74206f626c6967656560a81b6044820152606490fd5b346102785760403660031901126102785761076d61159c565b6001600160a01b0361077d6115c8565b91169081156107df5733600052600560205260406000208260005260205260406000209015159060ff1981541660ff83161790556040519081527f17307eab39ab6107e8899845ad3d59bd9653f200f220920489ca2b5937696c3160203392a3005b604051630b61174360e31b815260048101839052602490fd5b3461027857600036600319011261027857602060405160008152f35b346102785760003660031901126102785760405160006001826001549261083a846116cf565b92838352602094856001821691826000146108d757505060011461087a575b5061086692500383611628565b61021a60405192828493845283019061155c565b84915060016000527fb10e2d527612073b26eecdfd717e6a320cf44b4afac2b0732d9fcbe2b7fa0cf6906000915b8583106108bf575050610866935082010185610859565b805483890185015287945086939092019181016108a8565b60ff19168582015261086695151560051b85010192508791506108599050565b34610278576040366003190112610278576109106115b2565b60043560005260066020526001600160a01b0360406000209116600052602052602060ff604060002054166040519015158152f35b346102785760603660031901126102785760043560243560443560058110156102785761097061193a565b610978611b11565b82600052600960205261099860ff60036040600020015460801c166118ae565b82600052600a60205260036109b183604060002061169d565b50019160ff8354166005811015610a3d57600103610a0c57610a09826109fa6040947fabb642d862da81928d52f6af51c57ac89a0e964c3b401beb18e7cd2ee2ee801c966118e7565b83519283526020830190611709565ba2005b60405162461bcd60e51b81526020600482015260096024820152681b9bdd08199a5b195960ba1b6044820152606490fd5b634e487b7160e01b600052602160045260246000fd5b3461027857600036600319011261027857610a6c611996565b610a74611b11565b600160ff1960075416176007557f62e78cea01bee320cd4e420270b5ea74000d11b0c9f74754ebdbfc544b05a2586020604051338152a1005b34610278576020366003190112610278576001600160a01b03610ace61159c565b168015610aed5760005260036020526020604060002054604051908152f35b6040516322718ad960e21b815260006004820152602490fd5b34610278576020366003190112610278576020610b246004356118ff565b6001600160a01b0360405191168152f35b346102785760a036600319011261027857610b4e61159c565b610b566115b2565b6064359067ffffffffffffffff82168203610278576084359167ffffffffffffffff83168303610278573360009081527fc0c6dd4f7aedf943ac46b952a0594f795b891c30544bfc4cb4ae23b82a4d909b60205260409020547f76afa8a5929fef1b4c03674b2152ae5aaad1d974b8a4021c59477bcc846ccc1e9060ff161561105b5750610be2611b11565b67ffffffffffffffff831667ffffffffffffffff8216101561102a5760085492600019841461101457600184016008556040519160c083019183831067ffffffffffffffff841117610ffe57610d31926040526001600160a01b03871684526001600160a01b03851660208501526040840190604435825267ffffffffffffffff606086019316835267ffffffffffffffff608086019116815267ffffffffffffffff600360a08701936001855260018a0160005260096020526040600020906001600160a01b03895116986001600160a01b0319998a8454161783556001600160a01b03602060018501920151168a825416179055516002820155019351166fffffffffffffffff00000000000000008454925160401b16916fffffffffffffffffffffffffffffffff19161717825551151560ff60801b825491151560801b169060ff60801b1916179055565b60405190610d3e8261160c565b600082526001600160a01b03851615610fe5576001840160005260026020526001600160a01b03604060002054168015159182610fa6575b6001600160a01b03871660005260036020526040600020600181540190556001860160005260026020526040600020906001600160a01b0388169082541617905560018501906001600160a01b038716907fddf252ad1be2c89b69c2b068fc378daa952ba7f163c4a11628f55a4df523b3ef600080a4610f8d57833b610e4d575b50916001600160a01b036020938160405193168352168382015260443560408201527f039f88044d6bbaed701c293f868e06e8a8935a6bc53a0528fe94d6822995696e60606001840192a2600160405191018152f35b60405160208180610e8a630a85bd0160e11b958683523360048401526000602484015260018901604484015260806064840152608483019061155c565b038160006001600160a01b038a165af160009181610f48575b50610f0b57843d15610f03573d90610eba8261164a565b91610ec86040519384611628565b82523d6000602084013e5b81519182610efc57604051633250574960e11b81526001600160a01b0383166004820152602490fd5b6020915001fd5b606090610ed3565b6001600160e01b03191603610f27576001600160a01b03610df7565b604051633250574960e11b81526001600160a01b0384166004820152602490fd5b9091506020813d602011610f85575b81610f6460209383611628565b8101031261027857516001600160e01b031981168103610278579086610ea3565b3d9150610f57565b6040516339e3563760e11b815260006004820152602490fd5b610fca60018701600052600460205260406000206001600160a01b03198154169055565b81600052600360205260406000206000198154019055610d76565b604051633250574960e11b815260006004820152602490fd5b634e487b7160e01b600052604160045260246000fd5b634e487b7160e01b600052601160045260246000fd5b60405162461bcd60e51b815260206004820152600960248201526862616420646174657360b81b6044820152606490fd5b6044906040519063e2517d3f60e01b82523360048301526024820152fd5b3461027857602036600319011261027857600435600052600960205260c0604060002060ff6001600160a01b03918281541692600182015416600360028301549201549167ffffffffffffffff916040519586526020860152604085015280821660608501528160401c16608084015260801c16151560a0820152f35b3461027857600036600319011261027857602060ff600754166040519015158152f35b346102785761031361112a366115d7565b90604051926111388461160c565b600084526103ce838383611716565b3461027857600036600319011261027857611160611996565b60075460ff81161561119f5760ff19166007557f5db9ee0a495bf2e6ff9c91a7834c1ba4fdd244a5e8aa4e537bd38aeae4b073aa6020604051338152a1005b604051638dfc202b60e01b8152600490fd5b34610278576040366003190112610278576111ca6115b2565b336001600160a01b038216036111e65761031390600435611a99565b60405163334bd91960e11b8152600490fd5b34610278576040366003190112610278576103136004356112176115b2565b908060005260066020526112326001604060002001546119f2565b611a18565b346102785760203660031901126102785760043560005260066020526020600160406000200154604051908152f35b3461027857610313611277366115d7565b91611716565b34610278576040366003190112610278576004357fa0596a4b7a3b268f6f13d7ccab90449ee9d0dcc4f876967851a03e191019593f60206112bc6115c8565b6112c461193a565b60008481526009835260409020600301805470ff00000000000000000000000000000000191682151560801b60ff60801b161790556040519015158152a2005b346102785760403660031901126102785761131d61159c565b602435611329816118ff565b331515806113da575b806113ac575b6113945781906001600160a01b03809416938491167f8c5be1e5ebec7d5bd14f71427d1e84f3dd0314c0f7b2291e5b200ac8c7c3b925600080a460005260046020526040600020906001600160a01b0319825416179055600080f35b60405163a9fbf51f60e01b8152336004820152602490fd5b506001600160a01b038116600052600560205260406000203360005260205260ff6040600020541615611338565b50336001600160a01b0382161415611332565b346102785760203660031901126102785760043561140a816118ff565b50600052600460205260206001600160a01b0360406000205416604051908152f35b346102785760003660031901126102785760405160008054908261144f836116cf565b91828252602093600190856001821691826000146108d757505060011461147d575061086692500383611628565b6000808052859250907f290decd9548b62a8d60345a988386fc84ba6bc95484008f6362f93160ef3e5635b8583106114bf575050610866935082010185610859565b805483890185015287945086939092019181016114a8565b34610278576020366003190112610278576004359063ffffffff60e01b821680920361027857602091637965db0b60e01b8114908115611519575b5015158152f35b6380ac58cd60e01b81149150811561154b575b811561153a575b5083611512565b6301ffc9a760e01b14905083611533565b635b5e139f60e01b8114915061152c565b919082519283825260005b848110611588575050826000602080949584010152601f8019910116010190565b602081830181015184830182015201611567565b600435906001600160a01b038216820361027857565b602435906001600160a01b038216820361027857565b60243590811515820361027857565b6060906003190112610278576001600160a01b0390600435828116810361027857916024359081168103610278579060443590565b6020810190811067ffffffffffffffff821117610ffe57604052565b90601f8019910116810190811067ffffffffffffffff821117610ffe57604052565b67ffffffffffffffff8111610ffe57601f01601f191660200190565b9291926116728261164a565b916116806040519384611628565b829481845281830111610278578281602093846000960137010152565b80548210156116b95760005260206000209060021b0190600090565b634e487b7160e01b600052603260045260246000fd5b90600182811c921680156116ff575b60208310146116e957565b634e487b7160e01b600052602260045260246000fd5b91607f16916116de565b906005821015610a3d5752565b90916001600160a01b03809316928315610fe557600092828452826020956002875260409684888820541696879133151580611818575b509060027fddf252ad1be2c89b69c2b068fc378daa952ba7f163c4a11628f55a4df523b3ef92846117e0575b858352600381528b83208054600101905586835252898120805473ffffffffffffffffffffffffffffffffffffffff19168517905580a416928383036117bf5750505050565b6064945051926364283d7b60e01b8452600484015260248301526044820152fd5b61180187600052600460205260406000206001600160a01b03198154169055565b848352600381528b83208054600019019055611779565b9193945091508061186d575b156118345785929187913861174d565b878688611851576024915190637e27328960e01b82526004820152fd5b604491519063177e802f60e01b82523360048301526024820152fd5b503387148015611892575b806118245750858252600481523385898420541614611824565b5086825260058152878220338352815260ff8883205416611878565b156118b557565b60405162461bcd60e51b815260206004820152600a6024820152696e6f742061637469766560b01b6044820152606490fd5b906005811015610a3d5760ff80198354169116179055565b8060005260026020526001600160a01b0360406000205416908115611922575090565b60249060405190637e27328960e01b82526004820152fd5b3360009081527f31f4bc5980931cfff8fcc0887a354f492c853dee1983bdef4d9cb3e8a5ff876e60205260409020547fdf8b4c520ffe197c5343c6f5aec59570151ef9a492f2c624fd45ddde6135ec429060ff161561105b5750565b3360009081527fba39d2e119d4075e56dadcfd5cd5b862305d2c4d32649e4866948958647d49cf60205260409020547f8b5b16d04624687fcf0d0228f19993c9157c1ed07b41d8d430fd9100eb099fe89060ff161561105b5750565b80600052600660205260406000203360005260205260ff604060002054161561105b5750565b9060009180835260066020526001600160a01b036040842092169182845260205260ff60408420541615600014611a945780835260066020526040832082845260205260408320600160ff198254161790557f2f8788117e7eff1d82e926ec794901d17c78024a50270940304540a733656f0d339380a4600190565b505090565b9060009180835260066020526001600160a01b036040842092169182845260205260ff604084205416600014611a94578083526006602052604083208284526020526040832060ff1981541690557ff6391f5c32d9c69d2a47ea670b442974b53935d1edc7fd64eb21e047a839171b339380a4600190565b60ff60075416611b1d57565b60405163d93c066560e01b8152600490fd5b90939192833b611b41575b5050505050565b6001600160a01b039592939495809516946040519681630a85bd0160e11b94858a5216600489015216602487015260448601526080606486015284611b8c602094608483019061155c565b039483816000978189895af1869181611c37575b50611c01575050503d600014611bf8573d611bba8161164a565b90611bc86040519283611628565b81528093823d92013e5b82519283611bf357604051633250574960e11b815260048101849052602490fd5b019050fd5b60609250611bd2565b919450915063ffffffff60e01b1603611c1f57503880808080611b3a565b60249060405190633250574960e11b82526004820152fd5b9091508481813d8311611c74575b611c4f8183611628565b81010312611c7057516001600160e01b031981168103611c70579038611ba0565b8680fd5b503d611c4556fea264697066735822122088bf286a72c377be77c68bb7ea70e0990fed4bfe4eec6f51c4bbd0e9d99fb72464736f6c634300081800332f8788117e7eff1d82e926ec794901d17c78024a50270940304540a733656f0d",
  "linkReferences": {},
  "deployedLinkReferences": {}
}