{"abi":[{"type":"function","name":"DEFAULT_ADMIN_ROLE","inputs":[],"outputs":[{"name":"","type":"bytes32","internalType":"bytes32"}],"stateMutability":"view"},{"type":"function","name":"PAUSER_ROLE","inputs":[],"outputs":[{"name":"","type":"bytes32","internalType":"bytes32"}],"stateMutability":"view"},{"type":"function","name":"SETTLER_ROLE","inputs":[],"outputs":[{"name":"","type":"bytes32","internalType":"bytes32"}],"stateMutability":"view"},{"type":"function","name":"UPGRADE_INTERFACE_VERSION","inputs":[],"outputs":[{"name":"","type":"string","internalType":"string"}],"stateMutability":"view"},{"type":"function","name":"cancel","inputs":[{"name":"id","type":"bytes32","internalType":"bytes32"}],"outputs":[],"stateMutability":"nonpayable"},{"type":"function","name":"compliance","inputs":[],"outputs":[{"name":"","type":"address","internalType":"contract IComplianceGate"}],"stateMutability":"view"},{"type":"function","name":"createDvP1155","inputs":[{"name":"id","type":"bytes32","internalType":"bytes32"},{"name":"isoRefs","type":"tuple","internalType":"struct SrCompliantDvP.IsoRefs","components":[{"name":"uetr","type":"bytes16","internalType":"bytes16"},{"name":"e2eIdHash","type":"bytes32","internalType":"bytes32"},{"name":"isoPayloadHash","type":"bytes32","internalType":"bytes32"}]},{"name":"seller","type":"address","internalType":"address"},{"name":"nft","type":"address","internalType":"address"},{"name":"tokenId","type":"uint256","internalType":"uint256"},{"name":"amount","type":"uint256","internalType":"uint256"},{"name":"buyer","type":"address","internalType":"address"},{"name":"payToken","type":"address","internalType":"address"},{"name":"price","type":"uint256","internalType":"uint256"},{"name":"deadline","type":"uint64","internalType":"uint64"},{"name":"complianceCtx","type":"bytes","internalType":"bytes"}],"outputs":[],"stateMutability":"nonpayable"},{"type":"function","name":"createDvP721","inputs":[{"name":"id","type":"bytes32","internalType":"bytes32"},{"name":"isoRefs","type":"tuple","internalType":"struct SrCompliantDvP.IsoRefs","components":[{"name":"uetr","type":"bytes16","internalType":"bytes16"},{"name":"e2eIdHash","type":"bytes32","internalType":"bytes32"},{"name":"isoPayloadHash","type":"bytes32","internalType":"bytes32"}]},{"name":"seller","type":"address","internalType":"address"},{"name":"nft","type":"address","internalType":"address"},{"name":"tokenId","type":"uint256","internalType":"uint256"},{"name":"buyer","type":"address","internalType":"address"},{"name":"payToken","type":"address","internalType":"address"},{"name":"price","type":"uint256","internalType":"uint256"},{"name":"deadline","type":"uint64","internalType":"uint64"},{"name":"complianceCtx","type":"bytes","internalType":"bytes"}],"outputs":[],"stateMutability":"nonpayable"},{"type":"function","name":"createPvP20","inputs":[{"name":"id","type":"bytes32","internalType":"bytes32"},{"name":"isoRefs","type":"tuple","internalType":"struct SrCompliantDvP.IsoRefs","components":[{"name":"uetr","type":"bytes16","internalType":"bytes16"},{"name":"e2eIdHash","type":"bytes32","internalType":"bytes32"},{"name":"isoPayloadHash","type":"bytes32","internalType":"bytes32"}]},{"name":"partyA","type":"address","internalType":"address"},{"name":"tokenA","type":"address","internalType":"address"},{"name":"amtA","type":"uint256","internalType":"uint256"},{"name":"partyB","type":"address","internalType":"address"},{"name":"tokenB","type":"address","internalType":"address"},{"name":"amtB","type":"uint256","internalType":"uint256"},{"name":"deadline","type":"uint64","internalType":"uint64"},{"name":"complianceCtx","type":"bytes","internalType":"bytes"}],"outputs":[],"stateMutability":"nonpayable"},{"type":"function","name":"depositERC1155","inputs":[{"name":"id","type":"bytes32","internalType":"bytes32"}],"outputs":[],"stateMutability":"nonpayable"},{"type":"function","name":"depositERC721","inputs":[{"name":"id","type":"bytes32","internalType":"bytes32"}],"outputs":[],"stateMutability":"nonpayable"},{"type":"function","name":"fee","inputs":[],"outputs":[{"name":"bps","type":"uint16","internalType":"uint16"},{"name":"recipient","type":"address","internalType":"address"}],"stateMutability":"view"},{"type":"function","name":"fundErc20","inputs":[{"name":"id","type":"bytes32","internalType":"bytes32"},{"name":"amount","type":"uint256","internalType":"uint256"},{"name":"sideA","type":"bool","internalType":"bool"}],"outputs":[],"stateMutability":"nonpayable"},{"type":"function","name":"fundErc20WithPermit","inputs":[{"name":"id","type":"bytes32","internalType":"bytes32"},{"name":"sideA","type":"bool","internalType":"bool"},{"name":"amount","type":"uint256","internalType":"uint256"},{"name":"deadline","type":"uint256","internalType":"uint256"},{"name":"v","type":"uint8","internalType":"uint8"},{"name":"r","type":"bytes32","internalType":"bytes32"},{"name":"s","type":"bytes32","internalType":"bytes32"}],"outputs":[],"stateMutability":"nonpayable"},{"type":"function","name":"getRoleAdmin","inputs":[{"name":"role","type":"bytes32","internalType":"bytes32"}],"outputs":[{"name":"","type":"bytes32","internalType":"bytes32"}],"stateMutability":"view"},{"type":"function","name":"grantRole","inputs":[{"name":"role","type":"bytes32","internalType":"bytes32"},{"name":"account","type":"address","internalType":"address"}],"outputs":[],"stateMutability":"nonpayable"},{"type":"function","name":"hasRole","inputs":[{"name":"role","type":"bytes32","internalType":"bytes32"},{"name":"account","type":"address","internalType":"address"}],"outputs":[{"name":"","type":"bool","internalType":"bool"}],"stateMutability":"view"},{"type":"function","name":"initialize","inputs":[{"name":"admin","type":"address","internalType":"address"},{"name":"_compliance","type":"address","internalType":"address"},{"name":"_sanctions","type":"address","internalType":"address"},{"name":"feeBps","type":"uint16","internalType":"uint16"},{"name":"feeRecipient","type":"address","internalType":"address"}],"outputs":[],"stateMutability":"nonpayable"},{"type":"function","name":"instructions","inputs":[{"name":"","type":"bytes32","internalType":"bytes32"}],"outputs":[{"name":"kind","type":"uint8","internalType":"enum SrCompliantDvP.Kind"},{"name":"state","type":"uint8","internalType":"enum SrCompliantDvP.State"},{"name":"createdAt","type":"uint64","internalType":"uint64"},{"name":"deadline","type":"uint64","internalType":"uint64"},{"name":"iso","type":"tuple","internalType":"struct SrCompliantDvP.IsoRefs","components":[{"name":"uetr","type":"bytes16","internalType":"bytes16"},{"name":"e2eIdHash","type":"bytes32","internalType":"bytes32"},{"name":"isoPayloadHash","type":"bytes32","internalType":"bytes32"}]},{"name":"complianceCtx","type":"bytes","internalType":"bytes"},{"name":"erc20FundedSideA","type":"bool","internalType":"bool"},{"name":"erc20FundedSideB","type":"bool","internalType":"bool"},{"name":"nftEscrowed","type":"bool","internalType":"bool"},{"name":"pvp","type":"tuple","internalType":"struct SrCompliantDvP.PvP20","components":[{"name":"partyA","type":"address","internalType":"address"},{"name":"tokenA","type":"address","internalType":"address"},{"name":"amtA","type":"uint256","internalType":"uint256"},{"name":"partyB","type":"address","internalType":"address"},{"name":"tokenB","type":"address","internalType":"address"},{"name":"amtB","type":"uint256","internalType":"uint256"}]},{"name":"dvp721","type":"tuple","internalType":"struct SrCompliantDvP.DvP721","components":[{"name":"seller","type":"address","internalType":"address"},{"name":"nft","type":"address","internalType":"address"},{"name":"tokenId","type":"uint256","internalType":"uint256"},{"name":"buyer","type":"address","internalType":"address"},{"name":"payToken","type":"address","internalType":"address"},{"name":"price","type":"uint256","internalType":"uint256"}]},{"name":"dvp1155","type":"tuple","internalType":"struct SrCompliantDvP.DvP1155","components":[{"name":"seller","type":"address","internalType":"address"},{"name":"nft","type":"address","internalType":"address"},{"name":"tokenId","type":"uint256","internalType":"uint256"},{"name":"amount","type":"uint256","internalType":"uint256"},{"name":"buyer","type":"address","internalType":"address"},{"name":"payToken","type":"address","internalType":"address"},{"name":"price","type":"uint256","internalType":"uint256"}]}],"stateMutability":"view"},{"type":"function","name":"onERC1155BatchReceived","inputs":[{"name":"","type":"address","internalType":"address"},{"name":"","type":"address","internalType":"address"},{"name":"","type":"uint256[]","internalType":"uint256[]"},{"name":"","type":"uint256[]","internalType":"uint256[]"},{"name":"","type":"bytes","internalType":"bytes"}],"outputs":[{"name":"","type":"bytes4","internalType":"bytes4"}],"stateMutability":"pure"},{"type":"function","name":"onERC1155Received","inputs":[{"name":"","type":"address","internalType":"address"},{"name":"","type":"address","internalType":"address"},{"name":"","type":"uint256","internalType":"uint256"},{"name":"","type":"uint256","internalType":"uint256"},{"name":"","type":"bytes","internalType":"bytes"}],"outputs":[{"name":"","type":"bytes4","internalType":"bytes4"}],"stateMutability":"pure"},{"type":"function","name":"pause","inputs":[],"outputs":[],"stateMutability":"nonpayable"},{"type":"function","name":"paused","inputs":[],"outputs":[{"name":"","type":"bool","internalType":"bool"}],"stateMutability":"view"},{"type":"function","name":"proxiableUUID","inputs":[],"outputs":[{"name":"","type":"bytes32","internalType":"bytes32"}],"stateMutability":"view"},{"type":"function","name":"renounceRole","inputs":[{"name":"role","type":"bytes32","internalType":"bytes32"},{"name":"callerConfirmation","type":"address","internalType":"address"}],"outputs":[],"stateMutability":"nonpayable"},{"type":"function","name":"revokeRole","inputs":[{"name":"role","type":"bytes32","internalType":"bytes32"},{"name":"account","type":"address","internalType":"address"}],"outputs":[],"stateMutability":"nonpayable"},{"type":"function","name":"sanctions","inputs":[],"outputs":[{"name":"","type":"address","internalType":"contract ISanctionsOracle"}],"stateMutability":"view"},{"type":"function","name":"setComplianceModule","inputs":[{"name":"m","type":"address","internalType":"address"}],"outputs":[],"stateMutability":"nonpayable"},{"type":"function","name":"setFee","inputs":[{"name":"bps","type":"uint16","internalType":"uint16"},{"name":"recipient","type":"address","internalType":"address"}],"outputs":[],"stateMutability":"nonpayable"},{"type":"function","name":"setSanctionsOracle","inputs":[{"name":"o","type":"address","internalType":"address"}],"outputs":[],"stateMutability":"nonpayable"},{"type":"function","name":"settle","inputs":[{"name":"id","type":"bytes32","internalType":"bytes32"}],"outputs":[],"stateMutability":"nonpayable"},{"type":"function","name":"supportsInterface","inputs":[{"name":"interfaceId","type":"bytes4","internalType":"bytes4"}],"outputs":[{"name":"","type":"bool","internalType":"bool"}],"stateMutability":"view"},{"type":"function","name":"unpause","inputs":[],"outputs":[],"stateMutability":"nonpayable"},{"type":"function","name":"updateIsoRefs","inputs":[{"name":"id","type":"bytes32","internalType":"bytes32"},{"name":"isoRefs","type":"tuple","internalType":"struct SrCompliantDvP.IsoRefs","components":[{"name":"uetr","type":"bytes16","internalType":"bytes16"},{"name":"e2eIdHash","type":"bytes32","internalType":"bytes32"},{"name":"isoPayloadHash","type":"bytes32","internalType":"bytes32"}]}],"outputs":[],"stateMutability":"nonpayable"},{"type":"function","name":"upgradeToAndCall","inputs":[{"name":"newImplementation","type":"address","internalType":"address"},{"name":"data","type":"bytes","internalType":"bytes"}],"outputs":[],"stateMutability":"payable"},{"type":"event","name":"Cancelled","inputs":[{"name":"id","type":"bytes32","indexed":true,"internalType":"bytes32"},{"name":"by","type":"address","indexed":true,"internalType":"address"},{"name":"reason","type":"uint8","indexed":false,"internalType":"enum SrCompliantDvP.State"}],"anonymous":false},{"type":"event","name":"ComplianceModuleUpdated","inputs":[{"name":"module","type":"address","indexed":false,"internalType":"address"}],"anonymous":false},{"type":"event","name":"EscrowedERC1155","inputs":[{"name":"id","type":"bytes32","indexed":true,"internalType":"bytes32"},{"name":"from","type":"address","indexed":true,"internalType":"address"},{"name":"nft","type":"address","indexed":true,"internalType":"address"},{"name":"tokenId","type":"uint256","indexed":false,"internalType":"uint256"},{"name":"amount","type":"uint256","indexed":false,"internalType":"uint256"}],"anonymous":false},{"type":"event","name":"EscrowedERC721","inputs":[{"name":"id","type":"bytes32","indexed":true,"internalType":"bytes32"},{"name":"from","type":"address","indexed":true,"internalType":"address"},{"name":"nft","type":"address","indexed":true,"internalType":"address"},{"name":"tokenId","type":"uint256","indexed":false,"internalType":"uint256"}],"anonymous":false},{"type":"event","name":"FeeUpdated","inputs":[{"name":"bps","type":"uint16","indexed":false,"internalType":"uint16"},{"name":"recipient","type":"address","indexed":false,"internalType":"address"}],"anonymous":false},{"type":"event","name":"FundedERC20","inputs":[{"name":"id","type":"bytes32","indexed":true,"internalType":"bytes32"},{"name":"from","type":"address","indexed":true,"internalType":"address"},{"name":"token","type":"address","indexed":true,"internalType":"address"},{"name":"amount","type":"uint256","indexed":false,"internalType":"uint256"},{"name":"sideA","type":"bool","indexed":false,"internalType":"bool"}],"anonymous":false},{"type":"event","name":"Initialized","inputs":[{"name":"version","type":"uint64","indexed":false,"internalType":"uint64"}],"anonymous":false},{"type":"event","name":"InstructionCreated","inputs":[{"name":"id","type":"bytes32","indexed":true,"internalType":"bytes32"},{"name":"kind","type":"uint8","indexed":false,"internalType":"enum SrCompliantDvP.Kind"},{"name":"uetr","type":"bytes16","indexed":false,"internalType":"bytes16"},{"name":"creator","type":"address","indexed":true,"internalType":"address"},{"name":"deadline","type":"uint64","indexed":false,"internalType":"uint64"}],"anonymous":false},{"type":"event","name":"IsoRefsUpdated","inputs":[{"name":"id","type":"bytes32","indexed":true,"internalType":"bytes32"},{"name":"uetr","type":"bytes16","indexed":false,"internalType":"bytes16"},{"name":"e2eIdHash","type":"bytes32","indexed":false,"internalType":"bytes32"},{"name":"isoPayloadHash","type":"bytes32","indexed":false,"internalType":"bytes32"}],"anonymous":false},{"type":"event","name":"Paused","inputs":[{"name":"account","type":"address","indexed":false,"internalType":"address"}],"anonymous":false},{"type":"event","name":"RoleAdminChanged","inputs":[{"name":"role","type":"bytes32","indexed":true,"internalType":"bytes32"},{"name":"previousAdminRole","type":"bytes32","indexed":true,"internalType":"bytes32"},{"name":"newAdminRole","type":"bytes32","indexed":true,"internalType":"bytes32"}],"anonymous":false},{"type":"event","name":"RoleGranted","inputs":[{"name":"role","type":"bytes32","indexed":true,"internalType":"bytes32"},{"name":"account","type":"address","indexed":true,"internalType":"address"},{"name":"sender","type":"address","indexed":true,"internalType":"address"}],"anonymous":false},{"type":"event","name":"RoleRevoked","inputs":[{"name":"role","type":"bytes32","indexed":true,"internalType":"bytes32"},{"name":"account","type":"address","indexed":true,"internalType":"address"},{"name":"sender","type":"address","indexed":true,"internalType":"address"}],"anonymous":false},{"type":"event","name":"SanctionsOracleUpdated","inputs":[{"name":"oracle","type":"address","indexed":false,"internalType":"address"}],"anonymous":false},{"type":"event","name":"Settled","inputs":[{"name":"id","type":"bytes32","indexed":true,"internalType":"bytes32"},{"name":"uetr","type":"bytes16","indexed":false,"internalType":"bytes16"},{"name":"by","type":"address","indexed":true,"internalType":"address"}],"anonymous":false},{"type":"event","name":"Unpaused","inputs":[{"name":"account","type":"address","indexed":false,"internalType":"address"}],"anonymous":false},{"type":"event","name":"Upgraded","inputs":[{"name":"implementation","type":"address","indexed":true,"internalType":"address"}],"anonymous":false},{"type":"error","name":"AccessControlBadConfirmation","inputs":[]},{"type":"error","name":"AccessControlUnauthorizedAccount","inputs":[{"name":"account","type":"address","internalType":"address"},{"name":"neededRole","type":"bytes32","internalType":"bytes32"}]},{"type":"error","name":"AddressEmptyCode","inputs":[{"name":"target","type":"address","internalType":"address"}]},{"type":"error","name":"ERC1967InvalidImplementation","inputs":[{"name":"implementation","type":"address","internalType":"address"}]},{"type":"error","name":"ERC1967NonPayable","inputs":[]},{"type":"error","name":"EnforcedPause","inputs":[]},{"type":"error","name":"ExpectedPause","inputs":[]},{"type":"error","name":"FailedInnerCall","inputs":[]},{"type":"error","name":"InvalidInitialization","inputs":[]},{"type":"error","name":"NotInitializing","inputs":[]},{"type":"error","name":"ReentrancyGuardReentrantCall","inputs":[]},{"type":"error","name":"UUPSUnauthorizedCallContext","inputs":[]},{"type":"error","name":"UUPSUnsupportedProxiableUUID","inputs":[{"name":"slot","type":"bytes32","internalType":"bytes32"}]}],"bytecode":{"object":"0x60a0806040523461002b57306080526162df908162000031823960805181818161264601526127680152f35b600080fdfe608080604052600436101561001357600080fd5b600090813560e01c90816301ffc9a71461474257508063111f1a1c1461405f578063133fdc1a14613e075780631a12d58514613db55780631c5b268114613aac578063248a9ca314613a425780632f2ff15d146139c757806330b9642b1461358057806330f738be1461352557806336568abe1461349a57806336a4797b1461316d5780633f4ba83a1461308f578063419b92ae14612a7c578063423db9c7146129cf5780634f1ef286146126c057806352d1902d146126005780635a42116e14611f225780635c975abb14611ec25780636290865d14611e705780637265c8ce14611aaa5780637445e85c14611a515780638456cb591461199b57806391d1485414611904578063987757dd1461141e5780639ddd898214611371578063a217fddf14611337578063ad3cb1cc146112bb578063af717ef2146110c9578063bc197c8114611002578063c4d252f51461085d578063d547741f146107de578063d65e8052146102f2578063ddca3f431461028f578063e63ab1e9146102365763f23a6e61146101a257600080fd5b346102335760a07ffffffffffffffffffffffffffffffffffffffffffffffffffffffffffffffffc360112610233576101d9614800565b506101e2614823565b5060843567ffffffffffffffff811161022f57610203903690600401614869565b505060206040517ff23a6e61000000000000000000000000000000000000000000000000000000008152f35b5080fd5b80fd5b503461023357807ffffffffffffffffffffffffffffffffffffffffffffffffffffffffffffffffc3601126102335760206040517f65d7a28e3265b37a6474929f336521b332c1681b933f6cb9f3376673440d862a8152f35b503461023357807ffffffffffffffffffffffffffffffffffffffffffffffffffffffffffffffffc36011261023357546040805161ffff8316815260109290921c73ffffffffffffffffffffffffffffffffffffffff16602083015290f35b0390f35b50346102335761034967ffffffffffffffff60408361031036614897565b939697959a8a9e93999d929c919a61032661512e565b61032e6150d4565b61033661593a565b81526003602052205460101c1615614e72565b61035283615c56565b61035b82615c56565b8a8c52600360205260408c20805471ffffffffffffffff0000000000000000000060508c901b167fffffffffffffffffffffffffffff00000000000000000000000000000000000090911669ffffffffffffffff00004260101b1617178155966103c48b614f06565b60801c7fffffffffffffffffffffffffffffffff0000000000000000000000000000000060018a01541617600189015560208b0135600289015560408b0135600389015567ffffffffffffffff82116107b1576104246004890154614a5c565b8d601f821161076a575b9050908d601f84116001146106745792807f4555bfe4abfdde6aa8cfea2917eeb39b39c1f462f2854ed354bf7859b91ae49f9d9c9b99969360069996936105829c999692610669575b50507fffffffffffffffffffffffffffffffffffffffffffffffffffffffffffffffff8260011b9260031b1c19161760048701555b604051976104b98961498d565b73ffffffffffffffffffffffffffffffffffffffff8095818095168b521660208a0152604089015216606087015216608085015260a0840152019060a060059173ffffffffffffffffffffffffffffffffffffffff808251167fffffffffffffffffffffffff00000000000000000000000000000000000000009081875416178655600186018260208501511682825416179055604083015160028701556003860182606085015116828254161790556004860191608084015116908254161790550151910155565b67ffffffffffffffff61059483614f06565b917fffffffffffffffffffffffffffffffff000000000000000000000000000000006040519360008552166020840152166040820152837f85020037de9e29f2eb219dcc7f17083912a8e630cea2f2c38df7cce07cc3391c60603393a36105fa81614f06565b604080517fffffffffffffffffffffffffffffffff00000000000000000000000000000000909216825260208084013590830152918201359181019190915280606081015b0390a260017f9b779b17422d0df92223018b32b4d1fa46e071723d6817e2486d003becc55f005580f35b013590503880610477565b9160048a01835260208320925b7fffffffffffffffffffffffffffffffffffffffffffffffffffffffffffffffe0851681106107525750837f4555bfe4abfdde6aa8cfea2917eeb39b39c1f462f2854ed354bf7859b91ae49f9d9c9b9996936006999693600193837fffffffffffffffffffffffffffffffffffffffffffffffffffffffffffffffe06105829f9c99161061071a575b505050811b0160048701556104ac565b7fffffffffffffffffffffffffffffffffffffffffffffffffffffffffffffffff60f88560031b161c1991013516905538808061070a565b90926020600181928686013581550194019101610681565b60209060048b01815220601f840160051c8101602085106107aa575b8f5b601f840160051c8301821061079f5791505061042e565b81556001018f610788565b5080610786565b60248d7f4e487b710000000000000000000000000000000000000000000000000000000081526041600452fd5b50346102335760407ffffffffffffffffffffffffffffffffffffffffffffffffffffffffffffffffc3601126102335761085960043561081c614823565b908084527f02dd7bc7dec4dceedda775e58dd541e08a116c6c53815c0bd028192f7b62680060205261085460016040862001546159f2565b615b95565b5080f35b5034610233576020807ffffffffffffffffffffffffffffffffffffffffffffffffffffffffffffffffc36011261022f576004356108996150d4565b6108a161512e565b8083526003825267ffffffffffffffff6108c581604086205460101c161515614c79565b81845260038352604084209283549360ff94858160081c166005811015610fd5576108f0901561506f565b8680527f02dd7bc7dec4dceedda775e58dd541e08a116c6c53815c0bd028192f7b626800808452604088203360005284528660406000205416908115610f96575b5061093c33846160d7565b8115610f8e575b508015610f80575b15610f225785166003811015610ef55780610bdc5750846005820181815416610b18575b5460081c16610a5b575b8054928360501c164211600014610a53576004905b6005821015610a24577ff9f0d2ebd8d8a894b77825adf3cb89e2c738fe50217cac1d546662a95f54eef3937fffffffffffffffffffffffffffffffffffffffffffffffffffffffffffff00ff61ff006109fa9460081b1691161780915560405195869160081c16614bd5565b3393a360017f9b779b17422d0df92223018b32b4d1fa46e071723d6817e2486d003becc55f005580f35b7f4e487b7100000000000000000000000000000000000000000000000000000000600052602160045260246000fd5b60039061098e565b600a8101546009820154600b8301546040517fa9059cbb00000000000000000000000000000000000000000000000000000000815273ffffffffffffffffffffffffffffffffffffffff92831660048201526024810191909152918491839160449183918c91165af18015610b0d57610ad5575b50610979565b8281813d8311610b06575b610aea81836149e1565b81010312610b0257610afb90614f98565b5038610acf565b8680fd5b503d610ae0565b6040513d89823e3d90fd5b6007830154600684015460088501546040517fa9059cbb00000000000000000000000000000000000000000000000000000000815273ffffffffffffffffffffffffffffffffffffffff9283166004820152602481019190915293508591849160449183918d91165af1918215610bd1578792610b96575b5061096f565b91508382813d8311610bca575b610bad81836149e1565b81010312610bc657610bbf8792614f98565b5038610b90565b8780fd5b503d610ba3565b6040513d8a823e3d90fd5b600103610d7857846005820181815416610cc3575b5460101c1615610979578573ffffffffffffffffffffffffffffffffffffffff80600d8401541690600c84015416600e840154823b15610cbf576040517f23b872dd00000000000000000000000000000000000000000000000000000000815230600482015273ffffffffffffffffffffffffffffffffffffffff909216602483015260448201529082908290818381606481015b03925af18015610cb457610c9c575b5050610979565b610ca590614979565b610cb0578538610c95565b8580fd5b6040513d84823e3d90fd5b8380fd5b6010830154600f84015460118501546040517fa9059cbb00000000000000000000000000000000000000000000000000000000815273ffffffffffffffffffffffffffffffffffffffff9283166004820152602481019190915293508591849160449183918d91165af1918215610bd1578792610d41575b50610bf1565b91508382813d8311610d71575b610d5881836149e1565b81010312610bc657610d6a8792614f98565b5038610d3b565b503d610d4e565b846005820181815416610e40575b5460101c1615610979578573ffffffffffffffffffffffffffffffffffffffff8060138401541690601284015416601484015491601585015490803b15610e3c576040517ff242432a00000000000000000000000000000000000000000000000000000000815230600482015273ffffffffffffffffffffffffffffffffffffffff90931660248401526044830193909352606482015260a06084820152600060a4820152908290829081838160c48101610c86565b8480fd5b6017830154601684015460188501546040517fa9059cbb00000000000000000000000000000000000000000000000000000000815273ffffffffffffffffffffffffffffffffffffffff9283166004820152602481019190915293508591849160449183918d91165af1918215610bd1578792610ebe575b50610d86565b91508382813d8311610eee575b610ed581836149e1565b81010312610bc657610ee78792614f98565b5038610eb8565b503d610ecb565b6024877f4e487b710000000000000000000000000000000000000000000000000000000081526021600452fd5b606483604051907f08c379a00000000000000000000000000000000000000000000000000000000082526004820152600d60248201527f53523a206e6f2063616e63656c000000000000000000000000000000000000006044820152fd5b50838160501c16421161094b565b905038610943565b90507f6666bf5bfee463d10a7fc50448047f8a53b7762d7e28fbc5c643182785f3fd3f8852835260408720336000528352856040600020541638610931565b6024887f4e487b710000000000000000000000000000000000000000000000000000000081526021600452fd5b50346102335760a07ffffffffffffffffffffffffffffffffffffffffffffffffffffffffffffffffc3601126102335761103a614800565b50611043614823565b5067ffffffffffffffff6044358181116110c557611065903690600401614c48565b50506064358181116110c55761107f903690600401614c48565b505060843590811161022f57611099903690600401614869565b505060206040517fbc197c81000000000000000000000000000000000000000000000000000000008152f35b8280fd5b50346102335760807ffffffffffffffffffffffffffffffffffffffffffffffffffffffffffffffffc3601126102335760043560607fffffffffffffffffffffffffffffffffffffffffffffffffffffffffffffffdc36011261022f5761112e61593a565b808252600360205261115267ffffffffffffffff604084205460101c161515614c79565b80825260036020526040822060ff815460081c16600581101561128e57611230578060017f4555bfe4abfdde6aa8cfea2917eeb39b39c1f462f2854ed354bf7859b91ae49f92016111a1614ed7565b60801c7fffffffffffffffffffffffffffffffff00000000000000000000000000000000825416179055600360443591826002820155606435918291015561122a6111ea614ed7565b91604051938493846040919493927fffffffffffffffffffffffffffffffff00000000000000000000000000000000606083019616825260208201520152565b0390a280f35b60646040517f08c379a000000000000000000000000000000000000000000000000000000000815260206004820152600a60248201527f53523a206c6f636b6564000000000000000000000000000000000000000000006044820152fd5b6024847f4e487b710000000000000000000000000000000000000000000000000000000081526021600452fd5b503461023357807ffffffffffffffffffffffffffffffffffffffffffffffffffffffffffffffffc360112610233576102ee6040516112f9816149c5565b600581527f352e302e300000000000000000000000000000000000000000000000000000006020820152604051918291602083526020830190614c05565b503461023357807ffffffffffffffffffffffffffffffffffffffffffffffffffffffffffffffffc36011261023357602090604051908152f35b50346102335760207ffffffffffffffffffffffffffffffffffffffffffffffffffffffffffffffffc360112610233577fb38a333aa1abdecffc660b02c1253fc1436182e3a124b86a9d39591bf88242fd602073ffffffffffffffffffffffffffffffffffffffff6113e1614800565b6113e96158c9565b16807fffffffffffffffffffffffff00000000000000000000000000000000000000006002541617600255604051908152a180f35b5034610233576020807ffffffffffffffffffffffffffffffffffffffffffffffffffffffffffffffffc36011261022f5760043561145a6150d4565b61146261512e565b8083526003825267ffffffffffffffff61148681604086205460101c161515614c79565b81845260038352604084209061149b82615183565b8154908160501c1642116118a65760ff8091166003811015611879578061163257506005820154908082169182611625575b5050156115c75760017f4f457edf05129834bda7dc59c1338663193cb52920b1c0fdac30f67a497d0c3a9161154573ffffffffffffffffffffffffffffffffffffffff61152c8160078501541682600986015416600886015491615dc7565b80600a8401541690600684015416600b84015491615dc7565b6102007fffffffffffffffffffffffffffffffffffffffffffffffffffffffffffff00ff825416178155015460801b927fffffffffffffffffffffffffffffffff00000000000000000000000000000000604051941684523393a360017f9b779b17422d0df92223018b32b4d1fa46e071723d6817e2486d003becc55f005580f35b606483604051907f08c379a00000000000000000000000000000000000000000000000000000000082526004820152600d60248201527f53523a2066756e6420626f7468000000000000000000000000000000000000006044820152fd5b60081c16905038806114cd565b600103611754576005820154611653918181169182611747575b505061500a565b73ffffffffffffffffffffffffffffffffffffffff8481600d8401541682600f85015416600e850154823b15610cbf576040517f23b872dd00000000000000000000000000000000000000000000000000000000815230600482015273ffffffffffffffffffffffffffffffffffffffff92909216602483015260448201529082908290606490829084905af18015610cb457611733575b50508161172e8260019360107f4f457edf05129834bda7dc59c1338663193cb52920b1c0fdac30f67a497d0c3a9601541690600c84015416601184015491615dc7565b611545565b61173c90614979565b610e3c5784386116eb565b60101c169050388061164c565b600582015461176d91818116918261174757505061500a565b73ffffffffffffffffffffffffffffffffffffffff848160138401541682601685015416601485015491601586015490803b15610e3c576040517ff242432a00000000000000000000000000000000000000000000000000000000815230600482015273ffffffffffffffffffffffffffffffffffffffff9390931660248401526044830193909352606482015260a06084820152600060a4820152908290829060c490829084905af18015610cb457611865575b50508161172e8260019360177f4f457edf05129834bda7dc59c1338663193cb52920b1c0fdac30f67a497d0c3a9601541690601284015416601884015491615dc7565b61186e90614979565b610e3c578438611822565b6024867f4e487b710000000000000000000000000000000000000000000000000000000081526021600452fd5b606484604051907f08c379a00000000000000000000000000000000000000000000000000000000082526004820152600b60248201527f53523a20657870697265640000000000000000000000000000000000000000006044820152fd5b50346102335760407ffffffffffffffffffffffffffffffffffffffffffffffffffffffffffffffffc3601126102335773ffffffffffffffffffffffffffffffffffffffff6040611953614823565b9260043581527f02dd7bc7dec4dceedda775e58dd541e08a116c6c53815c0bd028192f7b626800602052209116600052602052602060ff604060002054166040519015158152f35b503461023357807ffffffffffffffffffffffffffffffffffffffffffffffffffffffffffffffffc360112610233576119d2615996565b6119da61512e565b7fcd5ed15c6e187e77e9aee88184c21f4f2182ab5827cb3b7e07fbedcd63f0330060017fffffffffffffffffffffffffffffffffffffffffffffffffffffffffffffff008254161790557f62e78cea01bee320cd4e420270b5ea74000d11b0c9f74754ebdbfc544b05a2586020604051338152a180f35b503461023357807ffffffffffffffffffffffffffffffffffffffffffffffffffffffffffffffffc3601126102335760206040517f6666bf5bfee463d10a7fc50448047f8a53b7762d7e28fbc5c643182785f3fd3f8152f35b50346102335760207ffffffffffffffffffffffffffffffffffffffffffffffffffffffffffffffffc360112610233576040906004358152600360205220805490604051906060820182811067ffffffffffffffff821117611e41576040527fffffffffffffffffffffffffffffffff00000000000000000000000000000000600182015460801b1682526002810154602083015260038101546040830152611b5560048201614aaf565b92600582015491611b6860068201614b73565b93611b75600c8301614b73565b601860405193611b84856149a9565b73ffffffffffffffffffffffffffffffffffffffff601282015416855273ffffffffffffffffffffffffffffffffffffffff6013820154166020860152601481015460408601526015810154606086015273ffffffffffffffffffffffffffffffffffffffff601682015416608086015273ffffffffffffffffffffffffffffffffffffffff60178201541660a0860152015460c084015260405196600360ff86161015610a2457879660ff611cc2611d41936040611d9e978c606067ffffffffffffffff8d8860c09f168452611c63602085018a8360081c16614bd5565b818160101c168685015260501c169101528c60807fffffffffffffffffffffffffffffffff000000000000000000000000000000008351169101528c60a060208301519101520151898c01526103c060e08c01526103c08b0190614c05565b9781811615156101008b0152818160081c1615156101208b015260101c16151561014089015261016088019060a0809173ffffffffffffffffffffffffffffffffffffffff8082511685528060208301511660208601526040820151604086015280606083015116606086015260808201511660808501520151910152565b805173ffffffffffffffffffffffffffffffffffffffff908116610220880152602082015181166102408801526040820151610260880152606082015181166102808801526080820151166102a087015260a001516102c0860152565b73ffffffffffffffffffffffffffffffffffffffff8151166102e085015273ffffffffffffffffffffffffffffffffffffffff6020820151166103008501526040810151610320850152606081015161034085015273ffffffffffffffffffffffffffffffffffffffff60808201511661036085015273ffffffffffffffffffffffffffffffffffffffff60a08201511661038085015201516103a08301520390f35b7f4e487b7100000000000000000000000000000000000000000000000000000000600052604160045260246000fd5b503461023357807ffffffffffffffffffffffffffffffffffffffffffffffffffffffffffffffffc36011261023357602073ffffffffffffffffffffffffffffffffffffffff60015416604051908152f35b503461023357807ffffffffffffffffffffffffffffffffffffffffffffffffffffffffffffffffc36011261023357602060ff7fcd5ed15c6e187e77e9aee88184c21f4f2182ab5827cb3b7e07fbedcd63f0330054166040519015158152f35b50346102335760607ffffffffffffffffffffffffffffffffffffffffffffffffffffffffffffffffc360112610233576024803560043560443580151581036125fb57611f6d6150d4565b611f7561512e565b81855260209360038552611f9b67ffffffffffffffff604088205460101c161515614c79565b828652600385526040862091611fb083615183565b60ff83541660038110156125cf57806124115750156122095773ffffffffffffffffffffffffffffffffffffffff91611ff0836006830154163314614da8565b600881015485036121ac57826009820154169160078201926120258585541691888361201e60048801614aaf565b923361519d565b6040517f23b872dd00000000000000000000000000000000000000000000000000000000815233600482015230602482015260448101889052908890829060649082908d905af19081156121a1578991612168575b501561210b57509060056001939201837fffffffffffffffffffffffffffffffffffffffffffffffffffffffffffffff008254161790555416936040519384528301527f9ed975bfd8f01acb9f16ce3466ba2d3272885100db5f4b02d1b5dd6674505ce460403393a45b60017f9b779b17422d0df92223018b32b4d1fa46e071723d6817e2486d003becc55f005580f35b86600e606492604051927f08c379a000000000000000000000000000000000000000000000000000000000845260048401528201527f53523a207866657246726f6d20410000000000000000000000000000000000006044820152fd5b90508781813d831161219a575b61217f81836149e1565b810103126121965761219090614f98565b3861207a565b8880fd5b503d612175565b6040513d8b823e3d90fd5b606486600884604051927f08c379a000000000000000000000000000000000000000000000000000000000845260048401528201527f53523a20616d74410000000000000000000000000000000000000000000000006044820152fd5b73ffffffffffffffffffffffffffffffffffffffff91612230836009830154163314614d43565b600b81015485036123b4578260068201541691600a82019261225e8585541691888361201e60048801614aaf565b6040517f23b872dd00000000000000000000000000000000000000000000000000000000815233600482015230602482015260448101889052908890829060649082908d905af19081156121a157899161237f575b50156123225750906005879392016101007fffffffffffffffffffffffffffffffffffffffffffffffffffffffffffff00ff8254161790555416936040519384528301527f9ed975bfd8f01acb9f16ce3466ba2d3272885100db5f4b02d1b5dd6674505ce460403393a46120e4565b86600e606492604051927f08c379a000000000000000000000000000000000000000000000000000000000845260048401528201527f53523a207866657246726f6d20420000000000000000000000000000000000006044820152fd5b90508781813d83116123ad575b61239681836149e1565b81010312612196576123a790614f98565b386122b3565b503d61238c565b606486600884604051927f08c379a000000000000000000000000000000000000000000000000000000000845260048401528201527f53523a20616d74420000000000000000000000000000000000000000000000006044820152fd5b60011415915061257890505773ffffffffffffffffffffffffffffffffffffffff61244381600f840154163314614cde565b61245260118301548514614f33565b80600c8301541660108301906124748383541691878361201e60048901614aaf565b6040517f23b872dd00000000000000000000000000000000000000000000000000000000815233600482015230602482015260448101879052908790829060649082908c905af1908115610bd1578891612538575b506001936124d8600592614fa5565b01837fffffffffffffffffffffffffffffffffffffffffffffffffffffffffffffff008254161790555416936040519384528301527f9ed975bfd8f01acb9f16ce3466ba2d3272885100db5f4b02d1b5dd6674505ce460403393a46120e4565b90508681813d8311612571575b61254f81836149e1565b81010312610bc6576001936124d8612568600593614f98565b925050936124c9565b503d612545565b73ffffffffffffffffffffffffffffffffffffffff61259e816016840154163314614cde565b6125ad60188301548514614f33565b8060128301541660178301906124748383541691878361201e60048901614aaf565b82887f4e487b710000000000000000000000000000000000000000000000000000000081526021600452fd5b600080fd5b503461023357807ffffffffffffffffffffffffffffffffffffffffffffffffffffffffffffffffc3601126102335773ffffffffffffffffffffffffffffffffffffffff7f00000000000000000000000000000000000000000000000000000000000000001630036126965760206040517f360894a13ba1a3210667c828492db98dca3e2076cc3735a920a3ca505d382bbc8152f35b60046040517fe07c8dba000000000000000000000000000000000000000000000000000000008152fd5b5060407ffffffffffffffffffffffffffffffffffffffffffffffffffffffffffffffffc360112610233576126f3614800565b602491823567ffffffffffffffff811161022f573660238201121561022f57806004013561272081614a22565b9361272e60405195866149e1565b8185526020918286019336888383010111610cb0578186928986930187378701015273ffffffffffffffffffffffffffffffffffffffff807f0000000000000000000000000000000000000000000000000000000000000000168030149081156129a1575b50612696576127a06158c9565b8116946040517f52d1902d00000000000000000000000000000000000000000000000000000000815283816004818a5afa869181612972575b5061280e578787604051907f4c9c8ce30000000000000000000000000000000000000000000000000000000082526004820152fd5b8690887f360894a13ba1a3210667c828492db98dca3e2076cc3735a920a3ca505d382bbc918281036129445750843b15612915575080547fffffffffffffffffffffffff000000000000000000000000000000000000000016821790556040518692917fbc7cd75a20ee27fd9adebab32041f755214dbc6bffa90cc0225b39da2e5c2d3b8480a28151156128de57506108599482915190845af4903d156128d5573d6128b981614a22565b906128c760405192836149e1565b81528581943d92013e616209565b60609250616209565b945050505050346128ed575080f35b807fb398979f0000000000000000000000000000000000000000000000000000000060049252fd5b82604051907f4c9c8ce30000000000000000000000000000000000000000000000000000000082526004820152fd5b604051907faa1d49a40000000000000000000000000000000000000000000000000000000082526004820152fd5b9091508481813d831161299a575b61298a81836149e1565b81010312610b02575190386127d9565b503d612980565b9050817f360894a13ba1a3210667c828492db98dca3e2076cc3735a920a3ca505d382bbc5416141538612793565b50346102335760207ffffffffffffffffffffffffffffffffffffffffffffffffffffffffffffffffc360112610233577f10c61adae5a6200b8a1573dca2ff51d27de5c2071bc89a0de321393f68ef5c5c602073ffffffffffffffffffffffffffffffffffffffff612a3f614800565b612a476158c9565b16807fffffffffffffffffffffffff00000000000000000000000000000000000000006001541617600155604051908152a180f35b5034610233576101a07ffffffffffffffffffffffffffffffffffffffffffffffffffffffffffffffffc3601126102335760607fffffffffffffffffffffffffffffffffffffffffffffffffffffffffffffffdc36011261023357612adf614846565b60a4359073ffffffffffffffffffffffffffffffffffffffff821682036125fb5773ffffffffffffffffffffffffffffffffffffffff610104351661010435036125fb57610124359073ffffffffffffffffffffffffffffffffffffffff821682036125fb5767ffffffffffffffff610164351661016435036125fb576101843567ffffffffffffffff8111610e3c57612b7d903690600401614869565b612b8894919461512e565b612b906150d4565b612b9861593a565b60043586526003602052612bbd67ffffffffffffffff604088205460101c1615614e72565b612bc683615c56565b612bd261010435615c56565b600435865260036020526040862080547fffffffffffffffffffffffffffffffffffffffffffff00000000000000000000164260101b69ffffffffffffffff0000161760021781559485547fffffffffffffffffffffffffffff0000000000000000ffffffffffffffffffff166101643560501b71ffffffffffffffff0000000000000000000016178655612c65614ed7565b60801c7fffffffffffffffffffffffffffffffff000000000000000000000000000000006001880154161760018701556044356002870155606435600387015567ffffffffffffffff8211613062578190612cc36004880154614a5c565b601f8111613012575b508790601f8311600114612f4c578892612f41575b50507fffffffffffffffffffffffffffffffffffffffffffffffffffffffffffffffff8260011b9260031b1c19161760048501555b73ffffffffffffffffffffffffffffffffffffffff60405192612d38846149a9565b169182815273ffffffffffffffffffffffffffffffffffffffff8216602082015260c435604082015260e435606082015273ffffffffffffffffffffffffffffffffffffffff6101043516608082015273ffffffffffffffffffffffffffffffffffffffff841660a082015260c061014435910152601284017fffffffffffffffffffffffff0000000000000000000000000000000000000000928382541617905573ffffffffffffffffffffffffffffffffffffffff6013850191168282541617905560c435601484015560e43560158401556016830173ffffffffffffffffffffffffffffffffffffffff61010435168282541617905573ffffffffffffffffffffffffffffffffffffffff60178401921690825416179055601861014435910155612e64614ed7565b7fffffffffffffffffffffffffffffffff00000000000000000000000000000000604051916002835216602082015267ffffffffffffffff6101643516604082015233907f85020037de9e29f2eb219dcc7f17083912a8e630cea2f2c38df7cce07cc3391c606060043592a3612ed8614ed7565b604080517fffffffffffffffffffffffffffffffff000000000000000000000000000000009092168252604435602083015260643590820152600435907f4555bfe4abfdde6aa8cfea2917eeb39b39c1f462f2854ed354bf7859b91ae49f90806060810161063f565b013590503880612ce1565b60048801895260208920899450915b7fffffffffffffffffffffffffffffffffffffffffffffffffffffffffffffffe084168510612ffa5760019450837fffffffffffffffffffffffffffffffffffffffffffffffffffffffffffffffe0811610612fc2575b505050811b016004850155612d16565b7fffffffffffffffffffffffffffffffffffffffffffffffffffffffffffffffff60f88560031b161c19910135169055388080612fb2565b81810135835560209485019460019093019201612f5b565b90915060048701885260208820601f840160051c81016020851061305b575b90849392915b601f830160051c8201811061304d575050612ccc565b8a8155859450600101613037565b5080613031565b6024877f4e487b710000000000000000000000000000000000000000000000000000000081526041600452fd5b503461023357807ffffffffffffffffffffffffffffffffffffffffffffffffffffffffffffffffc360112610233576130c6615996565b7fcd5ed15c6e187e77e9aee88184c21f4f2182ab5827cb3b7e07fbedcd63f03300805460ff811615613143577fffffffffffffffffffffffffffffffffffffffffffffffffffffffffffffff001690557f5db9ee0a495bf2e6ff9c91a7834c1ba4fdd244a5e8aa4e537bd38aeae4b073aa6020604051338152a180f35b60046040517f8dfc202b000000000000000000000000000000000000000000000000000000008152fd5b50346102335761318b67ffffffffffffffff60408361031036614897565b61319483615c56565b61319d82615c56565b8a8c52600360205260408c2080547fffffffffffffffffffffffffffffffffffffffffffff00000000000000000000164260101b69ffffffffffffffff0000161760011781559687547fffffffffffffffffffffffffffff0000000000000000ffffffffffffffffffff1660508b901b71ffffffffffffffff0000000000000000000016178855600188016132318c614f06565b60801c7fffffffffffffffffffffffffffffffff0000000000000000000000000000000082541617905560208b0135600289015560408b0135600389015567ffffffffffffffff82116107b15761328b6004890154614a5c565b8d601f8211613453575b9050908d601f84116001146133965792807f4555bfe4abfdde6aa8cfea2917eeb39b39c1f462f2854ed354bf7859b91ae49f9d9c9b999693600c99969361331e9c9996926106695750507fffffffffffffffffffffffffffffffffffffffffffffffffffffffffffffffff8260011b9260031b1c1916176004870155604051976104b98961498d565b67ffffffffffffffff61333083614f06565b917fffffffffffffffffffffffffffffffff000000000000000000000000000000006040519360018552166020840152166040820152837f85020037de9e29f2eb219dcc7f17083912a8e630cea2f2c38df7cce07cc3391c60603393a36105fa81614f06565b9160048a01835260208320925b7fffffffffffffffffffffffffffffffffffffffffffffffffffffffffffffffe08516811061343b5750837f4555bfe4abfdde6aa8cfea2917eeb39b39c1f462f2854ed354bf7859b91ae49f9d9c9b999693600c999693600193837fffffffffffffffffffffffffffffffffffffffffffffffffffffffffffffffe061331e9f9c99161061071a57505050811b0160048701556104ac565b909260206001819286860135815501940191016133a3565b60209060048b01815220601f840160051c810160208510613493575b8f5b601f840160051c8301821061348857915050613295565b81556001018f613471565b508061346f565b50346102335760407ffffffffffffffffffffffffffffffffffffffffffffffffffffffffffffffffc360112610233576134d2614823565b3373ffffffffffffffffffffffffffffffffffffffff8216036134fb5761085990600435615b95565b60046040517f6697b232000000000000000000000000000000000000000000000000000000008152fd5b50346102335760407ffffffffffffffffffffffffffffffffffffffffffffffffffffffffffffffffc3601126102335760043561ffff811681036125fb5761357d9061356f614823565b906135786158c9565b615714565b80f35b5034610233576020807ffffffffffffffffffffffffffffffffffffffffffffffffffffffffffffffffc36011261022f57600435906135bd6150d4565b6135c561512e565b8183526003815267ffffffffffffffff916135ea83604086205460101c161515614c79565b80845260038252604084206135fe81615183565b60ff8154166003811015611879576001036139695773ffffffffffffffffffffffffffffffffffffffff61363981600c840154163314614e0d565b80600f830154169481600d840154169561365560048501614aaf565b9261365f33615c56565b61366882615c56565b6001541692836137d8575b50505050600e8101549261368984338730615a37565b1561377a57843b15610cb0576040517f23b872dd0000000000000000000000000000000000000000000000000000000081523360048201523060248201526044810185905286908181606481838b5af18015610cb457613766575b505060057fd310099c116f5fc69e22b8cc05e11fab8b03b828017c08126e14524ee12bf3569201620100007fffffffffffffffffffffffffffffffffffffffffffffffffffffffffff00ffff8254161790556040519384523393a460017f9b779b17422d0df92223018b32b4d1fa46e071723d6817e2486d003becc55f005580f35b61376f90614979565b610cb05785386136e4565b606490604051907f08c379a00000000000000000000000000000000000000000000000000000000082526004820152601560248201527f53523a20617070726f7665204e465420666972737400000000000000000000006044820152fd5b613834936000926040518096819482937fb4ead47700000000000000000000000000000000000000000000000000000000845233600485015260248401528c60448401526001606484015260a0608484015260a4830190614c05565b03915afa90811561395d5760009283926138dd575b50508051156138a157905b1561386157808080613673565b8361389d6040519283927f08c379a000000000000000000000000000000000000000000000000000000000845260048401526024830190614c05565b0390fd5b506040516138ae816149c5565b600e81527f53523a20636f6d706c69616e63650000000000000000000000000000000000008582015290613854565b9150913d8082843e6138ef81846149e1565b82019260408385031261022f5761390583614f98565b92878101519182116110c5570183601f8201121561022f5780519161392983614a22565b9461393760405196876149e1565b83865288848401011161023357509061395591878086019101614be2565b903880613849565b6040513d6000823e3d90fd5b606483604051907f08c379a00000000000000000000000000000000000000000000000000000000082526004820152600b60248201527f53523a206e6f74203732310000000000000000000000000000000000000000006044820152fd5b50346102335760407ffffffffffffffffffffffffffffffffffffffffffffffffffffffffffffffffc36011261023357610859600435613a05614823565b908084527f02dd7bc7dec4dceedda775e58dd541e08a116c6c53815c0bd028192f7b626800602052613a3d60016040862001546159f2565b61564f565b50346102335760207ffffffffffffffffffffffffffffffffffffffffffffffffffffffffffffffffc360112610233576001604060209260043581527f02dd7bc7dec4dceedda775e58dd541e08a116c6c53815c0bd028192f7b6268008452200154604051908152f35b50346102335760a07ffffffffffffffffffffffffffffffffffffffffffffffffffffffffffffffffc36011261023357613ae4614800565b613aec614823565b6044359073ffffffffffffffffffffffffffffffffffffffff928383168093036125fb5760643561ffff811681036125fb57613b26614846565b907ff0c57e16840df040f15088dc2f81fe391c3923bec73e23a9662efc9c229c6a009485549660ff8860401c16159567ffffffffffffffff891698891580613dae575b6001809b149081613da4575b159081613d9b575b50613d7157613c809681898c7fffffffffffffffffffffffffffffffffffffffffffffffff0000000000000000613c6b9516178c55613d3c575b50613bc06161b0565b613bc86161b0565b8a7f9b779b17422d0df92223018b32b4d1fa46e071723d6817e2486d003becc55f0055613bf36161b0565b613bfb6161b0565b7fcd5ed15c6e187e77e9aee88184c21f4f2182ab5827cb3b7e07fbedcd63f033007fffffffffffffffffffffffffffffffffffffffffffffffffffffffffffffff008154169055613c4a6161b0565b613c526161b0565b613c5b8161537a565b50613c6581615457565b50615556565b501680613d0f575b5080613ce0575b50615714565b613c88578280f35b7fc7f505b2f371ae2175ee4913f4499e1f2633a7b5936321eed1cdaeb6115181d291817fffffffffffffffffffffffffffffffffffffffffffffff00ffffffffffffffff60209354169055604051908152a138808280f35b7fffffffffffffffffffffffff0000000000000000000000000000000000000000600254161760025538613c7a565b7fffffffffffffffffffffffff000000000000000000000000000000000000000088541617875538613c73565b7fffffffffffffffffffffffffffffffffffffffffffffff0000000000000000001668010000000000000001178a5538613bb7565b60046040517ff92ee8a9000000000000000000000000000000000000000000000000000000008152fd5b90501538613b7d565b303b159150613b75565b5087613b69565b503461023357807ffffffffffffffffffffffffffffffffffffffffffffffffffffffffffffffffc36011261023357602073ffffffffffffffffffffffffffffffffffffffff60025416604051908152f35b50346102335760207ffffffffffffffffffffffffffffffffffffffffffffffffffffffffffffffffc36011261023357600435613e426150d4565b613e4a61512e565b8082526003602052613e6e67ffffffffffffffff604084205460101c161515614c79565b808252600360205260408220613e8381615183565b60ff815416600381101561128e576002036140015773ffffffffffffffffffffffffffffffffffffffff91613ebf836012840154163314614e0d565b8260168301541692601383018181541693866015820195613eea875498898361201e60048801614aaf565b6014830197885490823b15610cbf576040517ff242432a0000000000000000000000000000000000000000000000000000000081523360048201523060248201526044810192909252606482015260a06084820152600060a4820152908290829060c490829084905af18015610cb457613fed575b5050600501620100007fffffffffffffffffffffffffffffffffffffffffffffffffffffffffff00ffff82541617905554169254915460405192835260208301527f2e9f1c761c223d6c5fdf9be72096681beb7d409d0630f88a84027d5a6dc6099860403393a460017f9b779b17422d0df92223018b32b4d1fa46e071723d6817e2486d003becc55f005580f35b613ff690614979565b610b02578638613f5f565b60646040517f08c379a000000000000000000000000000000000000000000000000000000000815260206004820152600c60248201527f53523a206e6f74203131353500000000000000000000000000000000000000006044820152fd5b50346102335760e07ffffffffffffffffffffffffffffffffffffffffffffffffffffffffffffffffc3601126102335760043560248035918215158303610cbf5760448035926064916084359260ff8416809403610bc6576140bf6150d4565b6140c761512e565b84885260039160209783895267ffffffffffffffff6140f08160408d205460101c161515614c79565b878b52848a5260408b209660ff8854168681101561471657806146b15750821561467d578b73ffffffffffffffffffffffffffffffffffffffff60068160078c0154169a01541691614143338414614da8565b73ffffffffffffffffffffffffffffffffffffffff809a16803b156110c55789938360e4928f948e9560405198899788967fd505accf00000000000000000000000000000000000000000000000000000000885216600487015230908601528b8501528b358c850152608484015260a43560a484015260c43560c48401525af180156146725761465d575b506141f9906141db6150d4565b6141e361512e565b888c52858b5260408c205460101c161515614c79565b868a5283895260408a209361420d85615183565b60ff8554169081101561463157806145fd57501561444d57614236856006850154163314614da8565b600883015487036143f357846009840154169389896142b160078701976142698a8a5416918d8361201e60048d01614aaf565b6040517f23b872dd000000000000000000000000000000000000000000000000000000008152336004820152306024820152604481018d905293849283919082906064820190565b03925af19081156143e8578b916143af575b5015614355575050509060056001939201837fffffffffffffffffffffffffffffffffffffffffffffffffffffffffffffff008254161790555416936040519384528301527f9ed975bfd8f01acb9f16ce3466ba2d3272885100db5f4b02d1b5dd6674505ce460403393a460017f9b779b17422d0df92223018b32b4d1fa46e071723d6817e2486d003becc55f005580f35b8891600e7f53523a207866657246726f6d204100000000000000000000000000000000000092604051947f08c379a00000000000000000000000000000000000000000000000000000000086526004860152840152820152fd5b90508981813d83116143e1575b6143c681836149e1565b810103126143dd576143d790614f98565b386142c3565b8a80fd5b503d6143bc565b6040513d8d823e3d90fd5b7f53523a20616d74410000000000000000000000000000000000000000000000008891600886604051947f08c379a00000000000000000000000000000000000000000000000000000000086526004860152840152820152fd5b61445e856009850154163314614d43565b600b83015487036145a35784600684015416938989614491600a8701976142698a8a5416918d8361201e60048d01614aaf565b03925af19081156143e8578b9161456e575b501561451457505050906005879392016101007fffffffffffffffffffffffffffffffffffffffffffffffffffffffffffff00ff8254161790555416936040519384528301527f9ed975bfd8f01acb9f16ce3466ba2d3272885100db5f4b02d1b5dd6674505ce460403393a46120e4565b8891600e7f53523a207866657246726f6d204200000000000000000000000000000000000092604051947f08c379a00000000000000000000000000000000000000000000000000000000086526004860152840152820152fd5b90508981813d831161459c575b61458581836149e1565b810103126143dd5761459690614f98565b386144a3565b503d61457b565b7f53523a20616d74420000000000000000000000000000000000000000000000008891600886604051947f08c379a00000000000000000000000000000000000000000000000000000000086526004860152840152820152fd5b92505050600191939250146000146146205761244381600f840154163314614cde565b61259e816016840154163314614cde565b858b7f4e487b710000000000000000000000000000000000000000000000000000000081526021600452fd5b9a61466b6141f9929c614979565b9a906141ce565b6040513d8e823e3d90fd5b8b73ffffffffffffffffffffffffffffffffffffffff600981600a8c0154169a015416916146ac338414614d43565b614143565b6001036146e7578b73ffffffffffffffffffffffffffffffffffffffff600f8160108c0154169a015416916146ac338414614cde565b8b73ffffffffffffffffffffffffffffffffffffffff60168160178c0154169a015416916146ac338414614cde565b878d7f4e487b710000000000000000000000000000000000000000000000000000000081526021600452fd5b90503461022f5760207ffffffffffffffffffffffffffffffffffffffffffffffffffffffffffffffffc36011261022f576004357fffffffff0000000000000000000000000000000000000000000000000000000081168091036110c557602092507f7965db0b0000000000000000000000000000000000000000000000000000000081149081156147d6575b5015158152f35b7f01ffc9a700000000000000000000000000000000000000000000000000000000915014386147cf565b6004359073ffffffffffffffffffffffffffffffffffffffff821682036125fb57565b6024359073ffffffffffffffffffffffffffffffffffffffff821682036125fb57565b6084359073ffffffffffffffffffffffffffffffffffffffff821682036125fb57565b9181601f840112156125fb5782359167ffffffffffffffff83116125fb57602083818601950101116125fb57565b6101807ffffffffffffffffffffffffffffffffffffffffffffffffffffffffffffffffc8201126125fb576004359160607fffffffffffffffffffffffffffffffffffffffffffffffffffffffffffffffdc8301126125fb5760249173ffffffffffffffffffffffffffffffffffffffff9160843583811681036125fb579260a43581811681036125fb579260c4359260e43583811681036125fb57926101043590811681036125fb5791610124359167ffffffffffffffff6101443581811681036125fb5792610164359182116125fb5761497591600401614869565b9091565b67ffffffffffffffff8111611e4157604052565b60c0810190811067ffffffffffffffff821117611e4157604052565b60e0810190811067ffffffffffffffff821117611e4157604052565b6040810190811067ffffffffffffffff821117611e4157604052565b90601f7fffffffffffffffffffffffffffffffffffffffffffffffffffffffffffffffe0910116810190811067ffffffffffffffff821117611e4157604052565b67ffffffffffffffff8111611e4157601f017fffffffffffffffffffffffffffffffffffffffffffffffffffffffffffffffe01660200190565b90600182811c92168015614aa5575b6020831014614a7657565b7f4e487b7100000000000000000000000000000000000000000000000000000000600052602260045260246000fd5b91607f1691614a6b565b90604051918260008254614ac281614a5c565b90818452602094600191600181169081600014614b325750600114614af3575b505050614af1925003836149e1565b565b600090815285812095935091905b818310614b1a575050614af19350820101388080614ae2565b85548884018501529485019487945091830191614b01565b915050614af19593507fffffffffffffffffffffffffffffffffffffffffffffffffffffffffffffff0091501682840152151560051b820101388080614ae2565b90604051614b808161498d565b60a06005829473ffffffffffffffffffffffffffffffffffffffff8082541685528060018301541660208601526002820154604086015280600383015416606086015260048201541660808501520154910152565b906005821015610a245752565b60005b838110614bf55750506000910152565b8181015183820152602001614be5565b907fffffffffffffffffffffffffffffffffffffffffffffffffffffffffffffffe0601f602093614c4181518092818752878088019101614be2565b0116010190565b9181601f840112156125fb5782359167ffffffffffffffff83116125fb576020808501948460051b0101116125fb57565b15614c8057565b60646040517f08c379a000000000000000000000000000000000000000000000000000000000815260206004820152600e60248201527f53523a20756e6b6e6f776e2069640000000000000000000000000000000000006044820152fd5b15614ce557565b60646040517f08c379a000000000000000000000000000000000000000000000000000000000815260206004820152600d60248201527f53523a206e6f74206275796572000000000000000000000000000000000000006044820152fd5b15614d4a57565b60646040517f08c379a000000000000000000000000000000000000000000000000000000000815260206004820152600960248201527f53523a206e6f74204200000000000000000000000000000000000000000000006044820152fd5b15614daf57565b60646040517f08c379a000000000000000000000000000000000000000000000000000000000815260206004820152600960248201527f53523a206e6f74204100000000000000000000000000000000000000000000006044820152fd5b15614e1457565b60646040517f08c379a000000000000000000000000000000000000000000000000000000000815260206004820152600e60248201527f53523a206e6f742073656c6c65720000000000000000000000000000000000006044820152fd5b15614e7957565b60646040517f08c379a000000000000000000000000000000000000000000000000000000000815260206004820152600d60248201527f53523a20696420657869737473000000000000000000000000000000000000006044820152fd5b6024357fffffffffffffffffffffffffffffffff00000000000000000000000000000000811681036125fb5790565b357fffffffffffffffffffffffffffffffff00000000000000000000000000000000811681036125fb5790565b15614f3a57565b60646040517f08c379a000000000000000000000000000000000000000000000000000000000815260206004820152600960248201527f53523a20707269636500000000000000000000000000000000000000000000006044820152fd5b519081151582036125fb57565b15614fac57565b60646040517f08c379a000000000000000000000000000000000000000000000000000000000815260206004820152601060248201527f53523a207866657246726f6d20706179000000000000000000000000000000006044820152fd5b1561501157565b60646040517f08c379a000000000000000000000000000000000000000000000000000000000815260206004820152600e60248201527f53523a206e6f742066756e6465640000000000000000000000000000000000006044820152fd5b1561507657565b60646040517f08c379a000000000000000000000000000000000000000000000000000000000815260206004820152600c60248201527f53523a206e6f74206f70656e00000000000000000000000000000000000000006044820152fd5b7f9b779b17422d0df92223018b32b4d1fa46e071723d6817e2486d003becc55f0060028154146151045760029055565b60046040517f3ee5aeb5000000000000000000000000000000000000000000000000000000008152fd5b60ff7fcd5ed15c6e187e77e9aee88184c21f4f2182ab5827cb3b7e07fbedcd63f03300541661515957565b60046040517fd93c0665000000000000000000000000000000000000000000000000000000008152fd5b5460081c60ff166005811015610a2457614af1901561506f565b939092936151aa81615c56565b6151b384615c56565b73ffffffffffffffffffffffffffffffffffffffff94856001541690816151de575b50505050505050565b8661523e958160409889519a8b977fb4ead477000000000000000000000000000000000000000000000000000000008952166004880152166024860152166044840152606483015260a060848301528180600095869560a4830190614c05565b03915afa90811561536f57809381926152e5575b50508051156152a957915b1561526c5780808080806151d5565b61389d9250519182917f08c379a0000000000000000000000000000000000000000000000000000000008352602060048401526024830190614c05565b5080516152b5816149c5565b600e81527f53523a20636f6d706c69616e636500000000000000000000000000000000000060208201529161525d565b935090503d8082853e6152f881856149e1565b830192828185031261022f5761530d81614f98565b9060208101519067ffffffffffffffff8211610cbf570184601f820112156110c55780519061533b82614a22565b95615348865197886149e1565b82875260208383010111610cbf57906153679160208088019101614be2565b929038615252565b8251903d90823e3d90fd5b73ffffffffffffffffffffffffffffffffffffffff1660008181527fb7db2dd08fcb62d0c9e08c51941cae53c267786a0b75803fb7960902fc8ef97d60205260408120549091907f02dd7bc7dec4dceedda775e58dd541e08a116c6c53815c0bd028192f7b6268009060ff1661545257828052602052604082208183526020526040822060017fffffffffffffffffffffffffffffffffffffffffffffffffffffffffffffff0082541617905533917f2f8788117e7eff1d82e926ec794901d17c78024a50270940304540a733656f0d8180a4600190565b505090565b73ffffffffffffffffffffffffffffffffffffffff1660008181527f75442b0a96088b5456bc4ed01394c96a4feec0f883c9494257d76b96ab1c9b6b60205260408120549091907f65d7a28e3265b37a6474929f336521b332c1681b933f6cb9f3376673440d862a907f02dd7bc7dec4dceedda775e58dd541e08a116c6c53815c0bd028192f7b6268009060ff1661555057818452602052604083208284526020526040832060017fffffffffffffffffffffffffffffffffffffffffffffffffffffffffffffff008254161790557f2f8788117e7eff1d82e926ec794901d17c78024a50270940304540a733656f0d339380a4600190565b50505090565b73ffffffffffffffffffffffffffffffffffffffff1660008181527f56c0826db07abda8b109e354b33d71292576ac95c10faa346fe587912b1a2b9260205260408120549091907f6666bf5bfee463d10a7fc50448047f8a53b7762d7e28fbc5c643182785f3fd3f907f02dd7bc7dec4dceedda775e58dd541e08a116c6c53815c0bd028192f7b6268009060ff1661555057818452602052604083208284526020526040832060017fffffffffffffffffffffffffffffffffffffffffffffffffffffffffffffff008254161790557f2f8788117e7eff1d82e926ec794901d17c78024a50270940304540a733656f0d339380a4600190565b906000918083527f02dd7bc7dec4dceedda775e58dd541e08a116c6c53815c0bd028192f7b6268008060205273ffffffffffffffffffffffffffffffffffffffff6040852093169283855260205260ff6040852054161560001461555057818452602052604083208284526020526040832060017fffffffffffffffffffffffffffffffffffffffffffffffffffffffffffffff008254161790557f2f8788117e7eff1d82e926ec794901d17c78024a50270940304540a733656f0d339380a4600190565b9061ffff8216916107d0831161586b5773ffffffffffffffffffffffffffffffffffffffff821692831561580d57604051936040850185811067ffffffffffffffff821117611e41577f9e2f5c2330afb3c7cfcf473e62546420851afccbeaf15b45b799f048243170aa956020916040528381520152600054907fffffffffffffffffffff0000000000000000000000000000000000000000000075ffffffffffffffffffffffffffffffffffffffff00008560101b16921617176000556158086040519283928390929173ffffffffffffffffffffffffffffffffffffffff60209161ffff604085019616845216910152565b0390a1565b60646040517f08c379a000000000000000000000000000000000000000000000000000000000815260206004820152600a60248201527f53523a2066656520746f000000000000000000000000000000000000000000006044820152fd5b60646040517f08c379a000000000000000000000000000000000000000000000000000000000815260206004820152600c60248201527f53523a20666565206869676800000000000000000000000000000000000000006044820152fd5b3360009081527fb7db2dd08fcb62d0c9e08c51941cae53c267786a0b75803fb7960902fc8ef97d602052604081205460ff16156159035750565b604490604051907fe2517d3f0000000000000000000000000000000000000000000000000000000082523360048301526024820152fd5b3360009081527f56c0826db07abda8b109e354b33d71292576ac95c10faa346fe587912b1a2b9260205260409020547f6666bf5bfee463d10a7fc50448047f8a53b7762d7e28fbc5c643182785f3fd3f9060ff16156159035750565b3360009081527f75442b0a96088b5456bc4ed01394c96a4feec0f883c9494257d76b96ab1c9b6b60205260409020547f65d7a28e3265b37a6474929f336521b332c1681b933f6cb9f3376673440d862a9060ff16156159035750565b806000527f02dd7bc7dec4dceedda775e58dd541e08a116c6c53815c0bd028192f7b62680060205260406000203360005260205260ff60406000205416156159035750565b919093929373ffffffffffffffffffffffffffffffffffffffff80911691604051957f081812fc00000000000000000000000000000000000000000000000000000000875260048701526020928387602481845afa60009781615b5f575b509684959697615b3e575b50906044918360405197889586947fe985e9c50000000000000000000000000000000000000000000000000000000086521660048501521660248301525afa918291600093615b06575b5050615af7575b50600090565b615b015738615af1565b600190565b9080929350813d8311615b37575b615b1e81836149e1565b810103126125fb57615b2f90614f98565b903880615aea565b503d615b14565b91935090821685831614615b555791839238615aa0565b5050505050600190565b8581813d8311615b8e575b615b7481836149e1565b810103126121965751848116810361219657975084615a95565b503d615b6a565b906000918083527f02dd7bc7dec4dceedda775e58dd541e08a116c6c53815c0bd028192f7b6268008060205273ffffffffffffffffffffffffffffffffffffffff6040852093169283855260205260ff6040852054166000146155505781845260205260408320828452602052604083207fffffffffffffffffffffffffffffffffffffffffffffffffffffffffffffff0081541690557ff6391f5c32d9c69d2a47ea670b442974b53935d1edc7fd64eb21e047a839171b339380a4600190565b73ffffffffffffffffffffffffffffffffffffffff9081600254169182615c7c57505050565b602460209260405194859384927fdf592f7d0000000000000000000000000000000000000000000000000000000084521660048301525afa90811561395d57600091615d28575b50615cca57565b60646040517f08c379a000000000000000000000000000000000000000000000000000000000815260206004820152600e60248201527f53523a2073616e6374696f6e65640000000000000000000000000000000000006044820152fd5b90506020813d602011615d5a575b81615d43602093836149e1565b810103126125fb57615d5490614f98565b38615cc3565b3d9150615d36565b15615d6957565b60646040517f08c379a000000000000000000000000000000000000000000000000000000000815260206004820152600a60248201527f53523a207061796f7574000000000000000000000000000000000000000000006044820152fd5b919091600092835461ffff90818116151590816160b4575b501561605257845490811680850290858204148515171561602557612710869104918280615f06575b5050508303928311615ed9576040517fa9059cbb00000000000000000000000000000000000000000000000000000000815273ffffffffffffffffffffffffffffffffffffffff9182166004820152602481019390935291929160209184918290859082604481015b0393165af1908115615ecd578091615e8f575b50614af19150615d62565b90506020823d602011615ec5575b81615eaa602093836149e1565b810103126102335750615ebf614af191614f98565b38615e84565b3d9150615e9d565b604051903d90823e3d90fd5b6024847f4e487b710000000000000000000000000000000000000000000000000000000081526011600452fd5b6040517fa9059cbb00000000000000000000000000000000000000000000000000000000815273ffffffffffffffffffffffffffffffffffffffff60109390931c83166004820152602481019190915291602091839160449183919089165af190811561601a578691615fe0575b5015615f8257843882615e08565b60646040517f08c379a000000000000000000000000000000000000000000000000000000000815260206004820152600c60248201527f53523a20666565207866657200000000000000000000000000000000000000006044820152fd5b90506020813d602011616012575b81615ffb602093836149e1565b81010312610cb05761600c90614f98565b38615f74565b3d9150615fee565b6040513d88823e3d90fd5b6024867f4e487b710000000000000000000000000000000000000000000000000000000081526011600452fd5b506040517fa9059cbb00000000000000000000000000000000000000000000000000000000815273ffffffffffffffffffffffffffffffffffffffff918216600482015260248101939093529192916020918491829085908260448101615e71565b73ffffffffffffffffffffffffffffffffffffffff915060101c16151538615ddf565b9060ff8254166003811015610a24578061612b575073ffffffffffffffffffffffffffffffffffffffff8080600685015416921691821492831561611b5750505090565b6009015416149050388080615550565b6001036161715773ffffffffffffffffffffffffffffffffffffffff8080600c8501541692169182149283156161615750505090565b600f015416149050388080615550565b73ffffffffffffffffffffffffffffffffffffffff808060128501541692169182149283156161a05750505090565b6016015416149050388080615550565b60ff7ff0c57e16840df040f15088dc2f81fe391c3923bec73e23a9662efc9c229c6a005460401c16156161df57565b60046040517fd7e6bcf8000000000000000000000000000000000000000000000000000000008152fd5b90616248575080511561621e57805190602001fd5b60046040517f1425ea42000000000000000000000000000000000000000000000000000000008152fd5b815115806162a0575b616259575090565b60249073ffffffffffffffffffffffffffffffffffffffff604051917f9996b315000000000000000000000000000000000000000000000000000000008352166004820152fd5b50803b1561625156fea2646970667358221220fe66881a2ae0d1207271f2c384d9edf65a77e356544a9a42d5c4752b0de1a85c64736f6c63430008180033","linkReferences":{}},"methodIdentifiers":{"DEFAULT_ADMIN_ROLE()":"a217fddf","PAUSER_ROLE()":"e63ab1e9","SETTLER_ROLE()":"7445e85c","UPGRADE_INTERFACE_VERSION()":"ad3cb1cc","cancel(bytes32)":"c4d252f5","compliance()":"6290865d","createDvP1155(bytes32,(bytes16,bytes32,bytes32),address,address,uint256,uint256,address,address,uint256,uint64,bytes)":"419b92ae","createDvP721(bytes32,(bytes16,bytes32,bytes32),address,address,uint256,address,address,uint256,uint64,bytes)":"36a4797b","createPvP20(bytes32,(bytes16,bytes32,bytes32),address,address,uint256,address,address,uint256,uint64,bytes)":"d65e8052","depositERC1155(bytes32)":"133fdc1a","depositERC721(bytes32)":"30b9642b","fee()":"ddca3f43","fundErc20(bytes32,uint256,bool)":"5a42116e","fundErc20WithPermit(bytes32,bool,uint256,uint256,uint8,bytes32,bytes32)":"111f1a1c","getRoleAdmin(bytes32)":"248a9ca3","grantRole(bytes32,address)":"2f2ff15d","hasRole(bytes32,address)":"91d14854","initialize(address,address,address,uint16,address)":"1c5b2681","instructions(bytes32)":"7265c8ce","onERC1155BatchReceived(address,address,uint256[],uint256[],bytes)":"bc197c81","onERC1155Received(address,address,uint256,uint256,bytes)":"f23a6e61","pause()":"8456cb59","paused()":"5c975abb","proxiableUUID()":"52d1902d","renounceRole(bytes32,address)":"36568abe","revokeRole(bytes32,address)":"d547741f","sanctions()":"1a12d585","setComplianceModule(address)":"423db9c7","setFee(uint16,address)":"30f738be","setSanctionsOracle(address)":"9ddd8982","settle(bytes32)":"987757dd","supportsInterface(bytes4)":"01ffc9a7","unpause()":"3f4ba83a","updateIsoRefs(bytes32,(bytes16,bytes32,bytes32))":"af717ef2","upgradeToAndCall(address,bytes)":"4f1ef286"},"id":78}