{"abi":[{"type":"function","name":"isCompliant","inputs":[{"name":"account","type":"address","internalType":"address"}],"outputs":[{"name":"","type":"bool","internalType":"bool"}],"stateMutability":"view"},{"type":"function","name":"setCompliant","inputs":[{"name":"account","type":"address","internalType":"address"},{"name":"status","type":"bool","internalType":"bool"}],"outputs":[],"stateMutability":"nonpayable"}],"bytecode":{"object":"0x6080806040523461001657610198908161001c8239f35b600080fdfe608080604052600436101561001357600080fd5b600090813560e01c908163a200e5d0146100d2575063e4d58fd71461003757600080fd5b346100cf5760407ffffffffffffffffffffffffffffffffffffffffffffffffffffffffffffffffc3601126100cf5761006e61013a565b602435908115158092036100cb5773ffffffffffffffffffffffffffffffffffffffff16825281602052604082209060ff7fffffffffffffffffffffffffffffffffffffffffffffffffffffffffffffff00835416911617905580f35b8280fd5b80fd5b9050346101365760207ffffffffffffffffffffffffffffffffffffffffffffffffffffffffffffffffc3601126101365760ff604060209373ffffffffffffffffffffffffffffffffffffffff61012761013a565b16815280855220541615158152f35b5080fd5b6004359073ffffffffffffffffffffffffffffffffffffffff8216820361015d57565b600080fdfea2646970667358221220b82ce10fe1ad38a299c9f0eb8443e791b92e04f6e303f6e2217a60fb4446926e64736f6c63430008180033","linkReferences":{}},"methodIdentifiers":{"isCompliant(address)":"a200e5d0","setCompliant(address,bool)":"e4d58fd7"},"id":47}