{"abi":[{"type":"constructor","inputs":[],"stateMutability":"nonpayable"},{"type":"function","name":"CONSENSUS_THRESHOLD","inputs":[],"outputs":[{"name":"","type":"uint256","internalType":"uint256"}],"stateMutability":"view"},{"type":"function","name":"MAX_DEVIATION_PERCENT","inputs":[],"outputs":[{"name":"","type":"uint256","internalType":"uint256"}],"stateMutability":"view"},{"type":"function","name":"MAX_REPUTATION_SCORE","inputs":[],"outputs":[{"name":"","type":"uint256","internalType":"uint256"}],"stateMutability":"view"},{"type":"function","name":"MIN_REPUTATION_SCORE","inputs":[],"outputs":[{"name":"","type":"uint256","internalType":"uint256"}],"stateMutability":"view"},{"type":"function","name":"SUBMISSION_TIMEOUT","inputs":[],"outputs":[{"name":"","type":"uint256","internalType":"uint256"}],"stateMutability":"view"},{"type":"function","name":"activateEmergencyMode","inputs":[{"name":"asset","type":"address","internalType":"address"}],"outputs":[],"stateMutability":"nonpayable"},{"type":"function","name":"assets","inputs":[{"name":"","type":"address","internalType":"address"}],"outputs":[{"name":"consensusPrice","type":"tuple","internalType":"struct DecentralizedOracleNetwork.PriceFeed","components":[{"name":"price","type":"uint256","internalType":"uint256"},{"name":"timestamp","type":"uint256","internalType":"uint256"},{"name":"confidence","type":"uint256","internalType":"uint256"},{"name":"decimalPlaces","type":"uint8","internalType":"uint8"}]},{"name":"lastUpdate","type":"uint256","internalType":"uint256"},{"name":"emergencyMode","type":"bool","internalType":"bool"}],"stateMutability":"view"},{"type":"function","name":"authorizeAsset","inputs":[{"name":"asset","type":"address","internalType":"address"},{"name":"authorized","type":"bool","internalType":"bool"}],"outputs":[],"stateMutability":"nonpayable"},{"type":"function","name":"authorizedAssets","inputs":[{"name":"","type":"address","internalType":"address"}],"outputs":[{"name":"","type":"bool","internalType":"bool"}],"stateMutability":"view"},{"type":"function","name":"deactivateEmergencyMode","inputs":[{"name":"asset","type":"address","internalType":"address"}],"outputs":[],"stateMutability":"nonpayable"},{"type":"function","name":"getNodePrice","inputs":[{"name":"asset","type":"address","internalType":"address"},{"name":"node","type":"address","internalType":"address"}],"outputs":[{"name":"price","type":"uint256","internalType":"uint256"},{"name":"timestamp","type":"uint256","internalType":"uint256"},{"name":"confidence","type":"uint256","internalType":"uint256"}],"stateMutability":"view"},{"type":"function","name":"getPrice","inputs":[{"name":"asset","type":"address","internalType":"address"}],"outputs":[{"name":"price","type":"uint256","internalType":"uint256"},{"name":"timestamp","type":"uint256","internalType":"uint256"},{"name":"confidence","type":"uint256","internalType":"uint256"},{"name":"isValid","type":"bool","internalType":"bool"}],"stateMutability":"view"},{"type":"function","name":"nodes","inputs":[{"name":"","type":"address","internalType":"address"}],"outputs":[{"name":"nodeAddress","type":"address","internalType":"address"},{"name":"reputationScore","type":"uint256","internalType":"uint256"},{"name":"lastSubmission","type":"uint256","internalType":"uint256"},{"name":"totalSubmissions","type":"uint256","internalType":"uint256"},{"name":"successfulSubmissions","type":"uint256","internalType":"uint256"},{"name":"isActive","type":"bool","internalType":"bool"}],"stateMutability":"view"},{"type":"function","name":"owner","inputs":[],"outputs":[{"name":"","type":"address","internalType":"address"}],"stateMutability":"view"},{"type":"function","name":"registerOracleNode","inputs":[{"name":"nodeAddress","type":"address","internalType":"address"},{"name":"initialReputation","type":"uint256","internalType":"uint256"}],"outputs":[],"stateMutability":"nonpayable"},{"type":"function","name":"renounceOwnership","inputs":[],"outputs":[],"stateMutability":"nonpayable"},{"type":"function","name":"submitPriceData","inputs":[{"name":"asset","type":"address","internalType":"address"},{"name":"price","type":"uint256","internalType":"uint256"},{"name":"confidence","type":"uint256","internalType":"uint256"},{"name":"decimalPlaces","type":"uint8","internalType":"uint8"}],"outputs":[],"stateMutability":"nonpayable"},{"type":"function","name":"transferOwnership","inputs":[{"name":"newOwner","type":"address","internalType":"address"}],"outputs":[],"stateMutability":"nonpayable"},{"type":"event","name":"ConsensusReached","inputs":[{"name":"asset","type":"address","indexed":true,"internalType":"address"},{"name":"price","type":"uint256","indexed":false,"internalType":"uint256"},{"name":"confidence","type":"uint256","indexed":false,"internalType":"uint256"},{"name":"timestamp","type":"uint256","indexed":false,"internalType":"uint256"}],"anonymous":false},{"type":"event","name":"EmergencyModeActivated","inputs":[{"name":"asset","type":"address","indexed":true,"internalType":"address"}],"anonymous":false},{"type":"event","name":"EmergencyModeDeactivated","inputs":[{"name":"asset","type":"address","indexed":true,"internalType":"address"}],"anonymous":false},{"type":"event","name":"OracleNodeRegistered","inputs":[{"name":"node","type":"address","indexed":true,"internalType":"address"},{"name":"initialReputation","type":"uint256","indexed":false,"internalType":"uint256"}],"anonymous":false},{"type":"event","name":"OwnershipTransferred","inputs":[{"name":"previousOwner","type":"address","indexed":true,"internalType":"address"},{"name":"newOwner","type":"address","indexed":true,"internalType":"address"}],"anonymous":false},{"type":"event","name":"PriceSubmitted","inputs":[{"name":"node","type":"address","indexed":true,"internalType":"address"},{"name":"asset","type":"address","indexed":true,"internalType":"address"},{"name":"price","type":"uint256","indexed":false,"internalType":"uint256"},{"name":"confidence","type":"uint256","indexed":false,"internalType":"uint256"}],"anonymous":false},{"type":"error","name":"OwnableInvalidOwner","inputs":[{"name":"owner","type":"address","internalType":"address"}]},{"type":"error","name":"OwnableUnauthorizedAccount","inputs":[{"name":"account","type":"address","internalType":"address"}]},{"type":"error","name":"ReentrancyGuardReentrantCall","inputs":[]}],"bytecode":{"object":"0x6080806040523461007e5733156100685760008054336001600160a01b03198216811783556040519290916001600160a01b0316907f8be0079c531659141344cd1fd0a4f28419497f9722a3daafe3b4186f6b6457e09080a3600180556118d590816100848239f35b631e4fbdf760e01b815260006004820152602490fd5b600080fdfe6080604081815260048036101561001557600080fd5b600092833560e01c908163189a5a1714610eba5750806341976e0914610da15780634511354814610d665780635fd7a9ed14610cc557806367544f1214610c10578063715018a614610b715780637346993014610abf5780638da5cb5b14610a6e5780638f61c928146109c957806395c5890914610964578063997597f6146105e9578063ad958b2c14610364578063bca125f01461032a578063bca3eabc146102ef578063c77943c0146102b5578063f11b81881461020d578063f247a4d0146101ce5763f2fde38b146100e957600080fd5b346101ca5760207ffffffffffffffffffffffffffffffffffffffffffffffffffffffffffffffffc3601126101ca57610120610f5a565b906101296110c8565b73ffffffffffffffffffffffffffffffffffffffff80921692831561019b5750508254827fffffffffffffffffffffffff00000000000000000000000000000000000000008216178455167f8be0079c531659141344cd1fd0a4f28419497f9722a3daafe3b4186f6b6457e08380a380f35b908460249251917f1e4fbdf7000000000000000000000000000000000000000000000000000000008352820152fd5b8280fd5b50503461020957817ffffffffffffffffffffffffffffffffffffffffffffffffffffffffffffffffc3601126102095760209051610e108152f35b5080fd5b5050346102095760207ffffffffffffffffffffffffffffffffffffffffffffffffffffffffffffffffc360112610209578060c09273ffffffffffffffffffffffffffffffffffffffff61025f610f5a565b1681526003602052206102746002820161102a565b9060ff6060816007600685015494015416938551958151875260208201516020880152808201519087015201511660608401526080830152151560a0820152f35b50503461020957817ffffffffffffffffffffffffffffffffffffffffffffffffffffffffffffffffc360112610209576020905160648152f35b50503461020957817ffffffffffffffffffffffffffffffffffffffffffffffffffffffffffffffffc36011261020957602090516101f48152f35b50503461020957817ffffffffffffffffffffffffffffffffffffffffffffffffffffffffffffffffc360112610209576020905160468152f35b5090346101ca57807ffffffffffffffffffffffffffffffffffffffffffffffffffffffffffffffffc3601126101ca5761039c610f5a565b90602435916103a96110c8565b6064831061058c576103e8831161052f5773ffffffffffffffffffffffffffffffffffffffff80911693848652600260205260ff60058488200154166104d257916104ca7f71a74251cbe39166997284a33fe4cbd6804961b31e312765f32c834e6be8fbab94926005876020968a86519461042386610fcd565b8386528986018981528887019083825260608801928484528a60808a019580875260a08b019860018a52815260028f52209851167fffffffffffffffffffffffff0000000000000000000000000000000000000000895416178855516001880155516002870155516003860155519084015551151591019060ff7fffffffffffffffffffffffffffffffffffffffffffffffffffffffffffffff0083541691151516179055565b51908152a280f35b60649060208451917f08c379a0000000000000000000000000000000000000000000000000000000008352820152601760248201527f4e6f646520616c726561647920726567697374657265640000000000000000006044820152fd5b60648460208451917f08c379a0000000000000000000000000000000000000000000000000000000008352820152601360248201527f52657075746174696f6e20746f6f2068696768000000000000000000000000006044820152fd5b60648460208451917f08c379a0000000000000000000000000000000000000000000000000000000008352820152601260248201527f52657075746174696f6e20746f6f206c6f7700000000000000000000000000006044820152fd5b508290346102095760807ffffffffffffffffffffffffffffffffffffffffffffffffffffffffffffffffc36011261020957610623610f5a565b602480356044356064359260ff8416809403610960576002600196818854146109395781885533895260209282845260ff60058c8c20015416156108de5773ffffffffffffffffffffffffffffffffffffffff881696878b5282855260ff8c8c2054161561088257851561082657908a8a8995949360ff8f8b8b8b6003933389528b82528089209c8952848252808920988151946106c086610f82565b8552898386019342855283870195865260608701998a523383525220925183555180968301555189820155019151167fffffffffffffffffffffffffffffffffffffffffffffffffffffffffffffff0082541617905515610773575b5050509160037fbca43b93628bddf0dc6f7ff586857b89be2f4b927e090c07893f600637733bac949261076e999a9b9442908201550161075c815461109b565b905582519485528401523392a3611285565b805580f35b8a0190815492680100000000000000008410156107fc578b84018084558410156107d25750508a52838a200180547fffffffffffffffffffffffff0000000000000000000000000000000000000000163317905560038261076e61071c565b60328d917f4e487b7100000000000000000000000000000000000000000000000000000000835252fd5b60418d917f4e487b7100000000000000000000000000000000000000000000000000000000835252fd5b50906012606492858d51937f08c379a00000000000000000000000000000000000000000000000000000000085528401528201527f496e76616c696420636f6e666964656e636500000000000000000000000000006044820152fd5b50906014606492858d51937f08c379a00000000000000000000000000000000000000000000000000000000085528401528201527f4173736574206e6f7420617574686f72697a65640000000000000000000000006044820152fd5b90600f606492858d51937f08c379a00000000000000000000000000000000000000000000000000000000085528401528201527f4e6f6465206e6f742061637469766500000000000000000000000000000000006044820152fd5b89517f3ee5aeb5000000000000000000000000000000000000000000000000000000008152fd5b8680fd5b50346101ca5760207ffffffffffffffffffffffffffffffffffffffffffffffffffffffffffffffffc3601126101ca578160209360ff9273ffffffffffffffffffffffffffffffffffffffff6109b8610f5a565b168252855220541690519015158152f35b50346101ca57817ffffffffffffffffffffffffffffffffffffffffffffffffffffffffffffffffc3601126101ca57610a00610f5a565b91602435918215158303610a6a5773ffffffffffffffffffffffffffffffffffffffff610a6794610a2f6110c8565b16855260205283209060ff7fffffffffffffffffffffffffffffffffffffffffffffffffffffffffffffff0083541691151516179055565b80f35b8480fd5b50503461020957817ffffffffffffffffffffffffffffffffffffffffffffffffffffffffffffffffc3601126102095773ffffffffffffffffffffffffffffffffffffffff60209254169051908152f35b5050346102095760207ffffffffffffffffffffffffffffffffffffffffffffffffffffffffffffffffc36011261020957600773ffffffffffffffffffffffffffffffffffffffff610b0f610f5a565b610b176110c8565b169182845260036020528320017fffffffffffffffffffffffffffffffffffffffffffffffffffffffffffffff0081541690557fbd95437b04432c9bbcf6d10c00e0e1cdc482151ffe5da10870858d456ee9fc238280a280f35b8334610c0d57807ffffffffffffffffffffffffffffffffffffffffffffffffffffffffffffffffc360112610c0d57610ba86110c8565b8073ffffffffffffffffffffffffffffffffffffffff81547fffffffffffffffffffffffff000000000000000000000000000000000000000081168355167f8be0079c531659141344cd1fd0a4f28419497f9722a3daafe3b4186f6b6457e08280a380f35b80fd5b5050346102095760207ffffffffffffffffffffffffffffffffffffffffffffffffffffffffffffffffc36011261020957600773ffffffffffffffffffffffffffffffffffffffff610c60610f5a565b610c686110c8565b1691828452600360205283200160017fffffffffffffffffffffffffffffffffffffffffffffffffffffffffffffff008254161790557f43f3e8d1092da4d3201e4d117b99bf80e75127516bc6523bd8cdb4464a923cde8280a280f35b828434610c0d57817ffffffffffffffffffffffffffffffffffffffffffffffffffffffffffffffffc360112610c0d57610cfd610f5a565b6024359073ffffffffffffffffffffffffffffffffffffffff90818316809303610d62571682526003602090815283832091835252819020610d3e9061102a565b80516020808301519284015193519182528101919091526040810191909152606090f35b8380fd5b50503461020957817ffffffffffffffffffffffffffffffffffffffffffffffffffffffffffffffffc36011261020957602090516103e88152f35b509134610c0d5760207ffffffffffffffffffffffffffffffffffffffffffffffffffffffffffffffffc360112610c0d57819073ffffffffffffffffffffffffffffffffffffffff610df1610f5a565b168152600360205220600681015415610e5d5760809250610e146002820161102a565b9081519260ff600782602086015195015193015416159283610e47575b8151948552602085015283015215156060820152f35b9250610e10610e56844261105f565b1092610e31565b60648360208451917f08c379a0000000000000000000000000000000000000000000000000000000008352820152600d60248201527f4e6f2070726963652064617461000000000000000000000000000000000000006044820152fd5b9291905034610d625760207ffffffffffffffffffffffffffffffffffffffffffffffffffffffffffffffffc360112610d62579260c0938273ffffffffffffffffffffffffffffffffffffffff9283610f11610f5a565b168152600260205220918254169260018301549060028401549160ff600560038701549587015496015416958752602087015285015260608401526080830152151560a0820152f35b6004359073ffffffffffffffffffffffffffffffffffffffff82168203610f7d57565b600080fd5b6080810190811067ffffffffffffffff821117610f9e57604052565b7f4e487b7100000000000000000000000000000000000000000000000000000000600052604160045260246000fd5b60c0810190811067ffffffffffffffff821117610f9e57604052565b90601f7fffffffffffffffffffffffffffffffffffffffffffffffffffffffffffffffe0910116810190811067ffffffffffffffff821117610f9e57604052565b9060405161103781610f82565b606060ff60038395805485526001810154602086015260028101546040860152015416910152565b9190820391821161106c57565b7f4e487b7100000000000000000000000000000000000000000000000000000000600052601160045260246000fd5b7fffffffffffffffffffffffffffffffffffffffffffffffffffffffffffffffff811461106c5760010190565b73ffffffffffffffffffffffffffffffffffffffff6000541633036110e957565b60246040517f118cdaa7000000000000000000000000000000000000000000000000000000008152336004820152fd5b90604051918281549182825260209260208301916000526020600020936000905b8282106111525750505061115092500383610fe9565b565b855473ffffffffffffffffffffffffffffffffffffffff168452600195860195889550938101939091019061113a565b67ffffffffffffffff8111610f9e5760051b60200190565b906111a482611182565b6111b16040519182610fe9565b8281527fffffffffffffffffffffffffffffffffffffffffffffffffffffffffffffffe06111df8294611182565b0190602036910137565b80518210156111fd5760209160051b010190565b7f4e487b7100000000000000000000000000000000000000000000000000000000600052603260045260246000fd5b8181029291811591840414171561106c57565b8115611249570490565b7f4e487b7100000000000000000000000000000000000000000000000000000000600052601260045260246000fd5b9190820180921161106c57565b73ffffffffffffffffffffffffffffffffffffffff80911690600082815260039060209060038252604091828220916001926112c2848201611119565b968751600381106113615796856112da819a9961119a565b998a926112e78b5161119a565b9a8b878c8b8b988c985b61178f575b505050505050505050801561136157838087805b611751575b50509061131b9161123f565b97858498859286925b611623575b5050506064976064820291808304606414811517156115f657611356929161135091611278565b9061123f565b96604688101561136d575b50505050505050505050565b9091929360086060885161138081610f82565b8b815242848201528a8a8201520152600289600286015542600386015560049489868201556005810160087fffffffffffffffffffffffffffffffffffffffffffffffffffffffffffffff008254161790556006429101558a865260038252878620936113ee888601611119565b87895b611448575b50509751998a525050505060208601949094525050426040840152507f7c5e579357044dd30aade731da5c1beef8f4060ff2042cfc8c8f0c10c913b5989160609150a238808080808080808080611361565b81518110156115f1578261145c82846111e9565b511689528385528a89208786528d6114758d8c2061102a565b908c88830151156115dd57508151808211156115aa575061149791519061105f565b6127109081810291818304149015171561150957906101f48f6114bb908e9461123f565b11611549578981016114cd815461109b565b90550180548b6103e8808310156115355750810180911161150957918b9a9998979695949392918b92905b555b019091929394959697986113f1565b60248b60118c7f4e487b7100000000000000000000000000000000000000000000000000000000835252fd5b909b9a999897969594938c939092506114f8565b0180548b8882111561159657507ffffffffffffffffffffffffffffffffffffffffffffffffffffffffffffffffb810190811161150957918b9a9998979695949392918b92905b556114fa565b9a999897969594939290508a918790611590565b6115b4925061105f565b6127109081810291818304149015171561150957906101f48f6115d8908e9461123f565b6114bb565b9b9a999897969594939150508a91506114fa565b6113f6565b6024867f4e487b710000000000000000000000000000000000000000000000000000000081526011600452fd5b909192815184101561174b578861163a85846111e9565b5115611741575061164b84836111e9565b518c111561170a5761166761166085846111e9565b518d61105f565b612710908181029181830414901517156116dd578c6116859161123f565b6101f481116116b1575090886116a884936116a18784976111e9565b5190611278565b945b0192611324565b6116d7859c6116d18c96959497936116ca8895886111e9565b519061122c565b90611278565b9b6116aa565b6024887f4e487b710000000000000000000000000000000000000000000000000000000081526011600452fd5b61171e8c61171886856111e9565b5161105f565b612710908181029181830414901517156116dd578c61173c9161123f565b611685565b80939291946116aa565b92611329565b90918a8c805185101561178557916116d161177c926116ca876117758189986111e9565b51926111e9565b9201908061130a565b505091508061130f565b8a8d8798999a9b97518c10156118925760ff60058c60a0938f6117b387918f6111e9565b5116998a825288526117c689822061102a565b99815288600291828a5220918951966117de88610fcd565b8354168752820154978601978852810154888601528c81015460608601526004810154608086015201541615159101528d840151801590811561187c575b5061186f5793606461184c856116a1958d9561185d996118418f9c9a899051926111e9565b52519101519061122c565b0461185783836111e9565b526111e9565b945b019291908b878c8f8c90876112f1565b505050505093839061185f565b610e10915061188b904261105f565b113861181c565b50508599508897506112f656fea2646970667358221220ce08940fd474b37a7e528b738755ccfd3dd4a2434f9f026a2d756a9379dcd65e64736f6c63430008180033","linkReferences":{}},"methodIdentifiers":{"CONSENSUS_THRESHOLD()":"bca125f0","MAX_DEVIATION_PERCENT()":"bca3eabc","MAX_REPUTATION_SCORE()":"45113548","MIN_REPUTATION_SCORE()":"c77943c0","SUBMISSION_TIMEOUT()":"f247a4d0","activateEmergencyMode(address)":"67544f12","assets(address)":"f11b8188","authorizeAsset(address,bool)":"8f61c928","authorizedAssets(address)":"95c58909","deactivateEmergencyMode(address)":"73469930","getNodePrice(address,address)":"5fd7a9ed","getPrice(address)":"41976e09","nodes(address)":"189a5a17","owner()":"8da5cb5b","registerOracleNode(address,uint256)":"ad958b2c","renounceOwnership()":"715018a6","submitPriceData(address,uint256,uint256,uint8)":"997597f6","transferOwnership(address)":"f2fde38b"},"id":1}