{"abi":[{"type":"constructor","inputs":[{"name":"governor","type":"address","internalType":"address"}],"stateMutability":"nonpayable"},{"type":"function","name":"ADMIN","inputs":[],"outputs":[{"name":"","type":"bytes32","internalType":"bytes32"}],"stateMutability":"view"},{"type":"function","name":"DEFAULT_ADMIN_ROLE","inputs":[],"outputs":[{"name":"","type":"bytes32","internalType":"bytes32"}],"stateMutability":"view"},{"type":"function","name":"WRITER","inputs":[],"outputs":[{"name":"","type":"bytes32","internalType":"bytes32"}],"stateMutability":"view"},{"type":"function","name":"clear","inputs":[{"name":"instrument","type":"address","internalType":"address"}],"outputs":[],"stateMutability":"nonpayable"},{"type":"function","name":"daysToMaturity","inputs":[{"name":"instrument","type":"address","internalType":"address"}],"outputs":[{"name":"","type":"uint16","internalType":"uint16"}],"stateMutability":"view"},{"type":"function","name":"getRoleAdmin","inputs":[{"name":"role","type":"bytes32","internalType":"bytes32"}],"outputs":[{"name":"","type":"bytes32","internalType":"bytes32"}],"stateMutability":"view"},{"type":"function","name":"grantRole","inputs":[{"name":"role","type":"bytes32","internalType":"bytes32"},{"name":"account","type":"address","internalType":"address"}],"outputs":[],"stateMutability":"nonpayable"},{"type":"function","name":"hasRole","inputs":[{"name":"role","type":"bytes32","internalType":"bytes32"},{"name":"account","type":"address","internalType":"address"}],"outputs":[{"name":"","type":"bool","internalType":"bool"}],"stateMutability":"view"},{"type":"function","name":"lots","inputs":[{"name":"instrument","type":"address","internalType":"address"}],"outputs":[{"name":"","type":"tuple[]","internalType":"struct ShareMaturityOracleCatalog.LotInfo[]","components":[{"name":"maturity","type":"uint64","internalType":"uint64"},{"name":"weight","type":"uint128","internalType":"uint128"}]}],"stateMutability":"view"},{"type":"function","name":"pushLot","inputs":[{"name":"instrument","type":"address","internalType":"address"},{"name":"maturity","type":"uint64","internalType":"uint64"},{"name":"weight","type":"uint128","internalType":"uint128"}],"outputs":[],"stateMutability":"nonpayable"},{"type":"function","name":"renounceRole","inputs":[{"name":"role","type":"bytes32","internalType":"bytes32"},{"name":"callerConfirmation","type":"address","internalType":"address"}],"outputs":[],"stateMutability":"nonpayable"},{"type":"function","name":"revokeRole","inputs":[{"name":"role","type":"bytes32","internalType":"bytes32"},{"name":"account","type":"address","internalType":"address"}],"outputs":[],"stateMutability":"nonpayable"},{"type":"function","name":"setLots","inputs":[{"name":"instrument","type":"address","internalType":"address"},{"name":"lotInfos","type":"tuple[]","internalType":"struct ShareMaturityOracleCatalog.LotInfo[]","components":[{"name":"maturity","type":"uint64","internalType":"uint64"},{"name":"weight","type":"uint128","internalType":"uint128"}]}],"outputs":[],"stateMutability":"nonpayable"},{"type":"function","name":"supportsInterface","inputs":[{"name":"interfaceId","type":"bytes4","internalType":"bytes4"}],"outputs":[{"name":"","type":"bool","internalType":"bool"}],"stateMutability":"view"},{"type":"event","name":"Cleared","inputs":[{"name":"instrument","type":"address","indexed":true,"internalType":"address"}],"anonymous":false},{"type":"event","name":"LotPushed","inputs":[{"name":"instrument","type":"address","indexed":true,"internalType":"address"},{"name":"maturity","type":"uint64","indexed":false,"internalType":"uint64"},{"name":"weight","type":"uint128","indexed":false,"internalType":"uint128"}],"anonymous":false},{"type":"event","name":"LotsSet","inputs":[{"name":"instrument","type":"address","indexed":true,"internalType":"address"},{"name":"lotCount","type":"uint256","indexed":false,"internalType":"uint256"},{"name":"asOf","type":"uint64","indexed":false,"internalType":"uint64"}],"anonymous":false},{"type":"event","name":"RoleAdminChanged","inputs":[{"name":"role","type":"bytes32","indexed":true,"internalType":"bytes32"},{"name":"previousAdminRole","type":"bytes32","indexed":true,"internalType":"bytes32"},{"name":"newAdminRole","type":"bytes32","indexed":true,"internalType":"bytes32"}],"anonymous":false},{"type":"event","name":"RoleGranted","inputs":[{"name":"role","type":"bytes32","indexed":true,"internalType":"bytes32"},{"name":"account","type":"address","indexed":true,"internalType":"address"},{"name":"sender","type":"address","indexed":true,"internalType":"address"}],"anonymous":false},{"type":"event","name":"RoleRevoked","inputs":[{"name":"role","type":"bytes32","indexed":true,"internalType":"bytes32"},{"name":"account","type":"address","indexed":true,"internalType":"address"},{"name":"sender","type":"address","indexed":true,"internalType":"address"}],"anonymous":false},{"type":"error","name":"AccessControlBadConfirmation","inputs":[]},{"type":"error","name":"AccessControlUnauthorizedAccount","inputs":[{"name":"account","type":"address","internalType":"address"},{"name":"neededRole","type":"bytes32","internalType":"bytes32"}]}],"bytecode":{"object":"0x6080346200008857601f620014c238819003918201601f19168301916001600160401b038311848410176200008d578084926020946040528339810103126200008857516001600160a01b0381168103620000885780620000646200007792620000a3565b50620000708162000123565b50620001c5565b5060405161123f9081620002638239f35b600080fd5b634e487b7160e01b600052604160045260246000fd5b6001600160a01b031660008181527fad3228b676f7d3cd4284a5443f17f1962b36e491b30a40b2405849e597ba5fb5602052604081205490919060ff166200011f57818052816020526040822081835260205260408220600160ff198254161790553391600080516020620014a28339815191528180a4600190565b5090565b6001600160a01b031660008181527f5cbfc8ee58ca47855df7bcf648dd304ddb6b932f9b87878bdf6318d7ec7ee5b760205260408120549091907fdf8b4c520ffe197c5343c6f5aec59570151ef9a492f2c624fd45ddde6135ec429060ff16620001c057808352826020526040832082845260205260408320600160ff19825416179055600080516020620014a2833981519152339380a4600190565b505090565b6001600160a01b031660008181527f1816ada9a09cf56e60ab9e1d7078ac4b20985458636fd775408bfa0bd406a6fd60205260408120549091907f73a9985316cd4cbfd13dadcaa0e6f773c85e933a0d88efbe60e4dc49da9176a09060ff16620001c057808352826020526040832082845260205260408320600160ff19825416179055600080516020620014a2833981519152339380a460019056fe608060408181526004908136101561001657600080fd5b600092833560e01c90816301ffc9a714610acc5750806311b00b4414610a7d5780631367f44714610885578063248a9ca31461083d5780632a0acc6a146107e45780632f2ff15d1461079e57806336568abe146107135780633aa38bb2146106ba5780633d0a4061146105ba5780635e7884051461033e5780639038801c146101c957806391d1485414610159578063a217fddf1461011c5763d547741f146100be57600080fd5b3461011857807ffffffffffffffffffffffffffffffffffffffffffffffffffffffffffffffffc36011261011857610114913561010f60016100fe610bb1565b938387528660205286200154611098565b611168565b5080f35b8280fd5b83823461015557817ffffffffffffffffffffffffffffffffffffffffffffffffffffffffffffffffc3601126101555751908152602090f35b5080fd5b50903461011857817ffffffffffffffffffffffffffffffffffffffffffffffffffffffffffffffffc360112610118578160209360ff92610198610bb1565b9035825281865273ffffffffffffffffffffffffffffffffffffffff83832091168252855220541690519015158152f35b50913461033b57602092837ffffffffffffffffffffffffffffffffffffffffffffffffffffffffffffffffc3601126101555773ffffffffffffffffffffffffffffffffffffffff610219610b89565b168252600193600181528183209283549267ffffffffffffffff9586851161030f575092828661024e89958460051b01610c23565b928084528284018098865283862086915b8383106102be575050505085519582870193838852518094528087019794915b84831061028c5787890388f35b8551805182168a528401516fffffffffffffffffffffffffffffffff168985015297810197948301949186019161027f565b90888087819d9b9594886fffffffffffffffffffffffffffffffff999e996102e89d9b9c9d610bd4565b91875490811683528b1c16838201528152019201920192509997999893989695949661025f565b8260416024927f4e487b7100000000000000000000000000000000000000000000000000000000835252fd5b80fd5b5091903461015557827ffffffffffffffffffffffffffffffffffffffffffffffffffffffffffffffffc36011261015557610377610b89565b926024936024359467ffffffffffffffff908187116105b657366023880112156105b65786850135928284116105b2576024880197602436918660061b0101116105b25773ffffffffffffffffffffffffffffffffffffffff906103d9611005565b169485875260019760209060016020526103f4878a20610f8b565b885b8681106104335789897faf02a1f7e795d5d2252a85e8a9ee13e1355e69e933b51902cc8345d55587449e8a8a8a825191825242166020820152a280f35b85610447610442838a86610fc3565b610fd3565b1615158061057e575b61045990610f0e565b888a528a8352878a2061046d828985610fc3565b90805490680100000000000000008210156105535790610491918e82018155610f73565b919091610529578c92916104db86838b6104ad61052396610fd3565b167fffffffffffffffffffffffffffffffffffffffffffffffff000000000000000085541617845501610fe8565b7fffffffffffffffff00000000000000000000000000000000ffffffffffffffff77ffffffffffffffffffffffffffffffff000000000000000083549260401b169116179055565b016103f6565b868c80887f4e487b7100000000000000000000000000000000000000000000000000000000825252fd5b878d6041897f4e487b7100000000000000000000000000000000000000000000000000000000835252fd5b506104596fffffffffffffffffffffffffffffffff6105a8856105a2858c88610fc3565b01610fe8565b1615159050610450565b8680fd5b8580fd5b5090346101185760207ffffffffffffffffffffffffffffffffffffffffffffffffffffffffffffffffc360112610118576105f3610b89565b907fdf8b4c520ffe197c5343c6f5aec59570151ef9a492f2c624fd45ddde6135ec428085528460205283852033865260205260ff84862054161561068457505073ffffffffffffffffffffffffffffffffffffffff61065d91169182845260016020528320610f8b565b7f8149fda9906b1fb15b92f20b43fb25bfb197ed66698fe3ac37ca8818112cd1048280a280f35b604492508351917fe2517d3f00000000000000000000000000000000000000000000000000000000835233908301526024820152fd5b83823461015557817ffffffffffffffffffffffffffffffffffffffffffffffffffffffffffffffffc36011261015557602090517f73a9985316cd4cbfd13dadcaa0e6f773c85e933a0d88efbe60e4dc49da9176a08152f35b5082903461015557807ffffffffffffffffffffffffffffffffffffffffffffffffffffffffffffffffc3601126101555761074c610bb1565b903373ffffffffffffffffffffffffffffffffffffffff8316036107765750610114919235611168565b8390517f6697b232000000000000000000000000000000000000000000000000000000008152fd5b503461011857807ffffffffffffffffffffffffffffffffffffffffffffffffffffffffffffffffc3601126101185761011491356107df60016100fe610bb1565b6110be565b83823461015557817ffffffffffffffffffffffffffffffffffffffffffffffffffffffffffffffffc36011261015557602090517fdf8b4c520ffe197c5343c6f5aec59570151ef9a492f2c624fd45ddde6135ec428152f35b5090346101185760207ffffffffffffffffffffffffffffffffffffffffffffffffffffffffffffffffc36011261011857816020936001923581528085522001549051908152f35b508290346101555760607ffffffffffffffffffffffffffffffffffffffffffffffffffffffffffffffffc360112610155576108bf610b89565b9060243567ffffffffffffffff808216809203610a7957604435906fffffffffffffffffffffffffffffffff948583168093036105b25773ffffffffffffffffffffffffffffffffffffffff90610914611005565b84151580610a70575b61092690610f0e565b1694858752600160205284872061093b610bd4565b92858452602084019185835280549068010000000000000000821015610a44579061096b91600182018155610f73565b949094610a195751845492517fffffffffffffffff00000000000000000000000000000000ffffffffffffffff91909216167fffffffffffffffff00000000000000000000000000000000000000000000000090921691909117911660401b77ffffffffffffffffffffffffffffffff0000000000000000161790557fa2ad579a2c111151415d558d6b0cc19f443b912ea5b326c36f409110d5f272df92919082519182526020820152a280f35b60248a808d7f4e487b7100000000000000000000000000000000000000000000000000000000825252fd5b60248b60418e7f4e487b7100000000000000000000000000000000000000000000000000000000835252fd5b5083151561091d565b8480fd5b8382346101555760207ffffffffffffffffffffffffffffffffffffffffffffffffffffffffffffffffc3601126101555760209061ffff610ac4610abf610b89565b610ce6565b915191168152f35b849084346101185760207ffffffffffffffffffffffffffffffffffffffffffffffffffffffffffffffffc36011261011857357fffffffff00000000000000000000000000000000000000000000000000000000811680910361011857602092507f7965db0b000000000000000000000000000000000000000000000000000000008114908115610b5f575b5015158152f35b7f01ffc9a70000000000000000000000000000000000000000000000000000000091501483610b58565b6004359073ffffffffffffffffffffffffffffffffffffffff82168203610bac57565b600080fd5b6024359073ffffffffffffffffffffffffffffffffffffffff82168203610bac57565b604051906040820182811067ffffffffffffffff821117610bf457604052565b7f4e487b7100000000000000000000000000000000000000000000000000000000600052604160045260246000fd5b907fffffffffffffffffffffffffffffffffffffffffffffffffffffffffffffffe0601f604051930116820182811067ffffffffffffffff821117610bf457604052565b8051821015610c7b5760209160051b010190565b7f4e487b7100000000000000000000000000000000000000000000000000000000600052603260045260246000fd5b91908201809211610cb757565b7f4e487b7100000000000000000000000000000000000000000000000000000000600052601160045260246000fd5b73ffffffffffffffffffffffffffffffffffffffff6000911681526001602091600183526040916040822090815467ffffffffffffffff94858211610ee15792610d34878360051b01610c23565b93828552878501918652878620908487935b8a868610610ea75750505050505050815115610e9f5790818395849585945b610d90575b50505050508215610d8a57500461ffff90818111610d86571690565b5090565b91505090565b90919293968451881015610e99574282610daa8a88610c67565b5151161115610e8f5781610dbe8987610c67565b515116428103908111610e625762015180905b046fffffffffffffffffffffffffffffffff978885610df08c8a610c67565b51015116828102928184041490151715610e355785949392610e168693610e2c93610caa565b9985610e228d8b610c67565b5101511690610caa565b98019493610d65565b6024887f4e487b710000000000000000000000000000000000000000000000000000000081526011600452fd5b6024877f4e487b710000000000000000000000000000000000000000000000000000000081526011600452fd5b6201518086610dd1565b96610d6a565b505091505090565b8291610eb1610bd4565b6fffffffffffffffffffffffffffffffff8d88549081168352871c16838201528152019301930192918590610d46565b6024857f4e487b710000000000000000000000000000000000000000000000000000000081526041600452fd5b15610f1557565b60646040517f08c379a000000000000000000000000000000000000000000000000000000000815260206004820152600760248201527f6261645f6c6f74000000000000000000000000000000000000000000000000006044820152fd5b8054821015610c7b5760005260206000200190600090565b8054906000906000815582610f9f57505050565b6000526020600020918201915b828110610fb857505050565b818155600101610fac565b9190811015610c7b5760061b0190565b3567ffffffffffffffff81168103610bac5790565b356fffffffffffffffffffffffffffffffff81168103610bac5790565b3360009081527f1816ada9a09cf56e60ab9e1d7078ac4b20985458636fd775408bfa0bd406a6fd60205260409020547f73a9985316cd4cbfd13dadcaa0e6f773c85e933a0d88efbe60e4dc49da9176a09060ff16156110615750565b604490604051907fe2517d3f0000000000000000000000000000000000000000000000000000000082523360048301526024820152fd5b80600052600060205260406000203360005260205260ff60406000205416156110615750565b906000918083528260205273ffffffffffffffffffffffffffffffffffffffff6040842092169182845260205260ff604084205416156000146111635780835282602052604083208284526020526040832060017fffffffffffffffffffffffffffffffffffffffffffffffffffffffffffffff008254161790557f2f8788117e7eff1d82e926ec794901d17c78024a50270940304540a733656f0d339380a4600190565b505090565b906000918083528260205273ffffffffffffffffffffffffffffffffffffffff6040842092169182845260205260ff604084205416600014611163578083528260205260408320828452602052604083207fffffffffffffffffffffffffffffffffffffffffffffffffffffffffffffff0081541690557ff6391f5c32d9c69d2a47ea670b442974b53935d1edc7fd64eb21e047a839171b339380a460019056fea2646970667358221220c7d6f1b5dbc96e8fa8659bd8ec67a31f00e07462316a125e98f605a45776acb864736f6c634300081800332f8788117e7eff1d82e926ec794901d17c78024a50270940304540a733656f0d","linkReferences":{}},"methodIdentifiers":{"ADMIN()":"2a0acc6a","DEFAULT_ADMIN_ROLE()":"a217fddf","WRITER()":"3aa38bb2","clear(address)":"3d0a4061","daysToMaturity(address)":"11b00b44","getRoleAdmin(bytes32)":"248a9ca3","grantRole(bytes32,address)":"2f2ff15d","hasRole(bytes32,address)":"91d14854","lots(address)":"9038801c","pushLot(address,uint64,uint128)":"1367f447","renounceRole(bytes32,address)":"36568abe","revokeRole(bytes32,address)":"d547741f","setLots(address,(uint64,uint128)[])":"5e788405","supportsInterface(bytes4)":"01ffc9a7"},"id":60}