{"abi":[{"type":"function","name":"DEFAULT_ADMIN_ROLE","inputs":[],"outputs":[{"name":"","type":"bytes32","internalType":"bytes32"}],"stateMutability":"view"},{"type":"function","name":"DOMAIN_SEPARATOR","inputs":[],"outputs":[{"name":"","type":"bytes32","internalType":"bytes32"}],"stateMutability":"view"},{"type":"function","name":"UPGRADE_INTERFACE_VERSION","inputs":[],"outputs":[{"name":"","type":"string","internalType":"string"}],"stateMutability":"view"},{"type":"function","name":"attestBySig","inputs":[{"name":"a","type":"tuple","internalType":"struct AccessRegistryUpgradeable.StatusAttestation","components":[{"name":"subject","type":"address","internalType":"address"},{"name":"s","type":"tuple","internalType":"struct AccessRegistryUpgradeable.Status","components":[{"name":"kyc","type":"bool","internalType":"bool"},{"name":"kyb","type":"bool","internalType":"bool"},{"name":"accredited","type":"bool","internalType":"bool"},{"name":"pep","type":"bool","internalType":"bool"},{"name":"sanctioned","type":"bool","internalType":"bool"},{"name":"riskTier","type":"uint8","internalType":"uint8"},{"name":"countryISO","type":"uint16","internalType":"uint16"},{"name":"expiresAt","type":"uint64","internalType":"uint64"},{"name":"metadataCid","type":"bytes32","internalType":"bytes32"}]},{"name":"nonce","type":"uint256","internalType":"uint256"},{"name":"issuedAt","type":"uint64","internalType":"uint64"},{"name":"expiresAt","type":"uint64","internalType":"uint64"}]},{"name":"sig","type":"bytes","internalType":"bytes"}],"outputs":[],"stateMutability":"nonpayable"},{"type":"function","name":"check","inputs":[{"name":"subject","type":"address","internalType":"address"},{"name":"gate","type":"uint8","internalType":"enum AccessRegistryUpgradeable.Gate"}],"outputs":[{"name":"","type":"bool","internalType":"bool"}],"stateMutability":"view"},{"type":"function","name":"eip712Domain","inputs":[],"outputs":[{"name":"fields","type":"bytes1","internalType":"bytes1"},{"name":"name","type":"string","internalType":"string"},{"name":"version","type":"string","internalType":"string"},{"name":"chainId","type":"uint256","internalType":"uint256"},{"name":"verifyingContract","type":"address","internalType":"address"},{"name":"salt","type":"bytes32","internalType":"bytes32"},{"name":"extensions","type":"uint256[]","internalType":"uint256[]"}],"stateMutability":"view"},{"type":"function","name":"getRoleAdmin","inputs":[{"name":"role","type":"bytes32","internalType":"bytes32"}],"outputs":[{"name":"","type":"bytes32","internalType":"bytes32"}],"stateMutability":"view"},{"type":"function","name":"grantRole","inputs":[{"name":"role","type":"bytes32","internalType":"bytes32"},{"name":"account","type":"address","internalType":"address"}],"outputs":[],"stateMutability":"nonpayable"},{"type":"function","name":"hasRole","inputs":[{"name":"role","type":"bytes32","internalType":"bytes32"},{"name":"account","type":"address","internalType":"address"}],"outputs":[{"name":"","type":"bool","internalType":"bool"}],"stateMutability":"view"},{"type":"function","name":"initialize","inputs":[{"name":"admin","type":"address","internalType":"address"},{"name":"governor","type":"address","internalType":"address"},{"name":"name_","type":"string","internalType":"string"}],"outputs":[],"stateMutability":"nonpayable"},{"type":"function","name":"isoBlocked","inputs":[{"name":"","type":"uint16","internalType":"uint16"}],"outputs":[{"name":"","type":"bool","internalType":"bool"}],"stateMutability":"view"},{"type":"function","name":"nonces","inputs":[{"name":"","type":"address","internalType":"address"}],"outputs":[{"name":"","type":"uint256","internalType":"uint256"}],"stateMutability":"view"},{"type":"function","name":"paused","inputs":[],"outputs":[{"name":"","type":"bool","internalType":"bool"}],"stateMutability":"view"},{"type":"function","name":"proxiableUUID","inputs":[],"outputs":[{"name":"","type":"bytes32","internalType":"bytes32"}],"stateMutability":"view"},{"type":"function","name":"renounceRole","inputs":[{"name":"role","type":"bytes32","internalType":"bytes32"},{"name":"callerConfirmation","type":"address","internalType":"address"}],"outputs":[],"stateMutability":"nonpayable"},{"type":"function","name":"revoke","inputs":[{"name":"subject","type":"address","internalType":"address"}],"outputs":[],"stateMutability":"nonpayable"},{"type":"function","name":"revokeRole","inputs":[{"name":"role","type":"bytes32","internalType":"bytes32"},{"name":"account","type":"address","internalType":"address"}],"outputs":[],"stateMutability":"nonpayable"},{"type":"function","name":"setJurisdictionBlocked","inputs":[{"name":"iso","type":"uint16","internalType":"uint16"},{"name":"blocked","type":"bool","internalType":"bool"}],"outputs":[],"stateMutability":"nonpayable"},{"type":"function","name":"setPaused","inputs":[{"name":"p","type":"bool","internalType":"bool"}],"outputs":[],"stateMutability":"nonpayable"},{"type":"function","name":"setStatus","inputs":[{"name":"subject","type":"address","internalType":"address"},{"name":"s","type":"tuple","internalType":"struct AccessRegistryUpgradeable.Status","components":[{"name":"kyc","type":"bool","internalType":"bool"},{"name":"kyb","type":"bool","internalType":"bool"},{"name":"accredited","type":"bool","internalType":"bool"},{"name":"pep","type":"bool","internalType":"bool"},{"name":"sanctioned","type":"bool","internalType":"bool"},{"name":"riskTier","type":"uint8","internalType":"uint8"},{"name":"countryISO","type":"uint16","internalType":"uint16"},{"name":"expiresAt","type":"uint64","internalType":"uint64"},{"name":"metadataCid","type":"bytes32","internalType":"bytes32"}]}],"outputs":[],"stateMutability":"nonpayable"},{"type":"function","name":"statusOf","inputs":[{"name":"","type":"address","internalType":"address"}],"outputs":[{"name":"kyc","type":"bool","internalType":"bool"},{"name":"kyb","type":"bool","internalType":"bool"},{"name":"accredited","type":"bool","internalType":"bool"},{"name":"pep","type":"bool","internalType":"bool"},{"name":"sanctioned","type":"bool","internalType":"bool"},{"name":"riskTier","type":"uint8","internalType":"uint8"},{"name":"countryISO","type":"uint16","internalType":"uint16"},{"name":"expiresAt","type":"uint64","internalType":"uint64"},{"name":"metadataCid","type":"bytes32","internalType":"bytes32"}],"stateMutability":"view"},{"type":"function","name":"supportsInterface","inputs":[{"name":"interfaceId","type":"bytes4","internalType":"bytes4"}],"outputs":[{"name":"","type":"bool","internalType":"bool"}],"stateMutability":"view"},{"type":"function","name":"upgradeToAndCall","inputs":[{"name":"newImplementation","type":"address","internalType":"address"},{"name":"data","type":"bytes","internalType":"bytes"}],"outputs":[],"stateMutability":"payable"},{"type":"event","name":"EIP712DomainChanged","inputs":[],"anonymous":false},{"type":"event","name":"Initialized","inputs":[{"name":"version","type":"uint64","indexed":false,"internalType":"uint64"}],"anonymous":false},{"type":"event","name":"JurisdictionBlocked","inputs":[{"name":"iso","type":"uint16","indexed":false,"internalType":"uint16"},{"name":"blocked","type":"bool","indexed":false,"internalType":"bool"}],"anonymous":false},{"type":"event","name":"Paused","inputs":[{"name":"p","type":"bool","indexed":false,"internalType":"bool"}],"anonymous":false},{"type":"event","name":"RoleAdminChanged","inputs":[{"name":"role","type":"bytes32","indexed":true,"internalType":"bytes32"},{"name":"previousAdminRole","type":"bytes32","indexed":true,"internalType":"bytes32"},{"name":"newAdminRole","type":"bytes32","indexed":true,"internalType":"bytes32"}],"anonymous":false},{"type":"event","name":"RoleGranted","inputs":[{"name":"role","type":"bytes32","indexed":true,"internalType":"bytes32"},{"name":"account","type":"address","indexed":true,"internalType":"address"},{"name":"sender","type":"address","indexed":true,"internalType":"address"}],"anonymous":false},{"type":"event","name":"RoleRevoked","inputs":[{"name":"role","type":"bytes32","indexed":true,"internalType":"bytes32"},{"name":"account","type":"address","indexed":true,"internalType":"address"},{"name":"sender","type":"address","indexed":true,"internalType":"address"}],"anonymous":false},{"type":"event","name":"StatusRevoked","inputs":[{"name":"subject","type":"address","indexed":true,"internalType":"address"}],"anonymous":false},{"type":"event","name":"StatusSet","inputs":[{"name":"subject","type":"address","indexed":true,"internalType":"address"},{"name":"s","type":"tuple","indexed":false,"internalType":"struct AccessRegistryUpgradeable.Status","components":[{"name":"kyc","type":"bool","internalType":"bool"},{"name":"kyb","type":"bool","internalType":"bool"},{"name":"accredited","type":"bool","internalType":"bool"},{"name":"pep","type":"bool","internalType":"bool"},{"name":"sanctioned","type":"bool","internalType":"bool"},{"name":"riskTier","type":"uint8","internalType":"uint8"},{"name":"countryISO","type":"uint16","internalType":"uint16"},{"name":"expiresAt","type":"uint64","internalType":"uint64"},{"name":"metadataCid","type":"bytes32","internalType":"bytes32"}]}],"anonymous":false},{"type":"event","name":"Upgraded","inputs":[{"name":"implementation","type":"address","indexed":true,"internalType":"address"}],"anonymous":false},{"type":"error","name":"AccessControlBadConfirmation","inputs":[]},{"type":"error","name":"AccessControlUnauthorizedAccount","inputs":[{"name":"account","type":"address","internalType":"address"},{"name":"neededRole","type":"bytes32","internalType":"bytes32"}]},{"type":"error","name":"AddressEmptyCode","inputs":[{"name":"target","type":"address","internalType":"address"}]},{"type":"error","name":"ECDSAInvalidSignature","inputs":[]},{"type":"error","name":"ECDSAInvalidSignatureLength","inputs":[{"name":"length","type":"uint256","internalType":"uint256"}]},{"type":"error","name":"ECDSAInvalidSignatureS","inputs":[{"name":"s","type":"bytes32","internalType":"bytes32"}]},{"type":"error","name":"ERC1967InvalidImplementation","inputs":[{"name":"implementation","type":"address","internalType":"address"}]},{"type":"error","name":"ERC1967NonPayable","inputs":[]},{"type":"error","name":"Expired","inputs":[]},{"type":"error","name":"FailedInnerCall","inputs":[]},{"type":"error","name":"InvalidInitialization","inputs":[]},{"type":"error","name":"InvalidParam","inputs":[]},{"type":"error","name":"JurisdictionBlocked","inputs":[]},{"type":"error","name":"NotInitializing","inputs":[]},{"type":"error","name":"Paused","inputs":[]},{"type":"error","name":"Replay","inputs":[]},{"type":"error","name":"Sanctioned","inputs":[]},{"type":"error","name":"Signature","inputs":[]},{"type":"error","name":"UUPSUnauthorizedCallContext","inputs":[]},{"type":"error","name":"UUPSUnsupportedProxiableUUID","inputs":[{"name":"slot","type":"bytes32","internalType":"bytes32"}]}],"bytecode":{"object":"0x60a0806040523461002a57306080526130a2908161003082396080518181816110b901526111af0152f35b600080fdfe608080604052600436101561001357600080fd5b60003560e01c90816301ffc9a714611e375750806316c38b3c14611d9957806319db130b14611cd9578063248a9ca314611c6d5780632f2ff15d14611bf15780633644e51514611bb057806336568abe14611b265780634571e3a6146114205780634f1ef2861461113357806352d1902d146110735780635c975abb1461103257806361e728b114610fd857806374a8f10314610f465780637ecebe0014610ee157806384b0196e14610d29578063882740dc14610cd15780638ba9838414610b2857806391d1485414610a9057806397a5d5b5146109b9578063a217fddf1461097f578063ad3cb1cc146108ff578063b9ad4e471461019f5763d547741f1461011c57600080fd5b3461019a5760407ffffffffffffffffffffffffffffffffffffffffffffffffffffffffffffffffc36011261019a57610198600435610159611f13565b90806000527f02dd7bc7dec4dceedda775e58dd541e08a116c6c53815c0bd028192f7b6268006020526101936001604060002001546124d8565b6129b0565b005b600080fd5b3461019a577ffffffffffffffffffffffffffffffffffffffffffffffffffffffffffffffffc36016101c0811261019a576101a01361019a5767ffffffffffffffff6101a4351161019a573660236101a43501121561019a5767ffffffffffffffff6101a435600401351161019a573660246101a435600401356101a43501011161019a5760ff600354166108d55773ffffffffffffffffffffffffffffffffffffffff61024b6123c6565b16156108ab5767ffffffffffffffff610184351680610184350361019a5742116108815773ffffffffffffffffffffffffffffffffffffffff61028c6123c6565b16600052600160205260406000205461014435036108575760405160a0810181811067ffffffffffffffff821117610828576040526102c9611f36565b81526101207fffffffffffffffffffffffffffffffffffffffffffffffffffffffffffffffdc36011261019a5760405161030281611f59565b61030a611ef3565b8152604435801515810361019a576020820152606435801515810361019a57604082015260843515156084350361019a57608435606082015260a435801515810361019a57608082015260ff60c4351660c4350361019a5760c43560a082015261ffff60e4351660e4350361019a5760e43560c082015267ffffffffffffffff6101043516610104350361019a576101043560e08201526101243561010082015280602083015261014435604083015267ffffffffffffffff6101643516610164350361019a5761016435606083015261018435608083015273ffffffffffffffffffffffffffffffffffffffff825116918151151591602081015115159060408101511515606082015115156080830151151560ff60a0850151169161ffff60c0860151169361010067ffffffffffffffff60e08801511696015196604051997f02b1c622de69beabc08c511e4c6022dbe6e7ebd9eb0e0a175fa9219e6b9f527860208c015260408b015260608a0152608089015260a088015260c087015260e0860152610100850152610120840152610140908184015282528161016081011067ffffffffffffffff610160840111176108285761016082016040528151602083012090604081015167ffffffffffffffff60808160608501511693015116926101808501957f7999e60dbf8d4872f03810a839d6c39722a4c45857755b18d13014646a05ffb487526101a08601526101c08501526101e084015261020083015261022082015260c06101608201526102408101906101608101821067ffffffffffffffff831117610828576105cf926101606042926105c69460405201519020610575612c8e565b90604051917f1901000000000000000000000000000000000000000000000000000000000000835260028301526022820152206105c0366101a4356004013560246101a4350161200d565b90612d5d565b90929192612d99565b73ffffffffffffffffffffffffffffffffffffffff1660009081527fed82e8858f919528fd86c81da277f0812ef4876fae8bc5251645af9640d3f49f602052604090205460ff16156107fe57600161014435018061014435116107cf5773ffffffffffffffffffffffffffffffffffffffff6106496123c6565b16600052600160205260406000205573ffffffffffffffffffffffffffffffffffffffff6106756123c6565b16600052600060205260406000206106bf61068e6122b7565b829060ff7fffffffffffffffffffffffffffffffffffffffffffffffffffffffffffffff0083541691151516179055565b6106c76122c6565b1515815462ff00006106d76122d5565b151560101b1663ff0000006106ea6122e4565b151560181b169064ff000000006106ff6122f3565b151560201b16927fffffffffffffffffffffffffffffffff000000000000000000000000000000ff61ff006fffffffffffffffff0000000000000000610743612302565b60401b169660081b1691161717171765ff000000000060c43560281b161767ffff00000000000060e43560301b161717815560016101243591015573ffffffffffffffffffffffffffffffffffffffff61079b6123c6565b167fe730079b62595e25c463c2f4f0f76487c4c4fa13bba0bdf76edb3c6a8a0c0ffd604051806107ca8161231a565b0390a2005b7f4e487b7100000000000000000000000000000000000000000000000000000000600052601160045260246000fd5b60046040517ff9423857000000000000000000000000000000000000000000000000000000008152fd5b7f4e487b7100000000000000000000000000000000000000000000000000000000600052604160045260246000fd5b60046040517fb5a78004000000000000000000000000000000000000000000000000000000008152fd5b60046040517f203d82d8000000000000000000000000000000000000000000000000000000008152fd5b60046040517fd2529034000000000000000000000000000000000000000000000000000000008152fd5b60046040517f9e87fac8000000000000000000000000000000000000000000000000000000008152fd5b3461019a5760007ffffffffffffffffffffffffffffffffffffffffffffffffffffffffffffffffc36011261019a5761097b60405161093d81611f76565b600581527f352e302e300000000000000000000000000000000000000000000000000000006020820152604051918291602083526020830190612044565b0390f35b3461019a5760007ffffffffffffffffffffffffffffffffffffffffffffffffffffffffffffffffc36011261019a57602060405160008152f35b3461019a5760207ffffffffffffffffffffffffffffffffffffffffffffffffffffffffffffffffc36011261019a5773ffffffffffffffffffffffffffffffffffffffff610a05611f36565b1660005260006020526101206040600020805467ffffffffffffffff600160ff930154916040519380821615158552808260081c1615156020860152808260101c1615156040860152808260181c1615156060860152808260201c16151560808601528160281c1660a085015261ffff8160301c1660c085015260401c1660e0830152610100820152f35b3461019a5760407ffffffffffffffffffffffffffffffffffffffffffffffffffffffffffffffffc36011261019a57610ac7611f13565b6004356000527f02dd7bc7dec4dceedda775e58dd541e08a116c6c53815c0bd028192f7b62680060205273ffffffffffffffffffffffffffffffffffffffff60406000209116600052602052602060ff604060002054166040519015158152f35b3461019a576101407ffffffffffffffffffffffffffffffffffffffffffffffffffffffffffffffffc36011261019a57610b60611f36565b6101207fffffffffffffffffffffffffffffffffffffffffffffffffffffffffffffffdc36011261019a5773ffffffffffffffffffffffffffffffffffffffff90610ba961247c565b1680156108ab578060005260006020526040600020610bc961068e6122b7565b610bd16122c6565b1515815462ff0000610be16122d5565b151560101b1663ff000000610bf46122e4565b151560181b169164ff00000000610c096122f3565b151560201b169060c4359160ff8316830361019a5760e4359461ffff8616860361019a5767ffff0000000000009465ff0000000000937fffffffffffffffffffffffffffffffff000000000000000000000000000000ff61ff006fffffffffffffffff0000000000000000610c7c612302565b60401b169a60081b169116171717179160281b16179160301b16171781556001610124359101557fe730079b62595e25c463c2f4f0f76487c4c4fa13bba0bdf76edb3c6a8a0c0ffd604051806107ca8161231a565b3461019a5760207ffffffffffffffffffffffffffffffffffffffffffffffffffffffffffffffffc36011261019a5761ffff610d0b611f02565b166000526002602052602060ff604060002054166040519015158152f35b3461019a5760007ffffffffffffffffffffffffffffffffffffffffffffffffffffffffffffffffc36011261019a577fa16a46d94261c7517cc8ff89f61c0ce93598e3c849801011dee649a6a557d100541580610eb8575b15610e5a57610d8e612ac4565b610d96612bcd565b60405160208082019282841067ffffffffffffffff85111761082857916020610e0d8594610dff9796604052600084526040519788977f0f00000000000000000000000000000000000000000000000000000000000000895260e0858a015260e0890190612044565b908782036040890152612044565b91466060870152306080870152600060a087015285830360c0870152519182815201929160005b828110610e4357505050500390f35b835185528695509381019392810192600101610e34565b60646040517f08c379a000000000000000000000000000000000000000000000000000000000815260206004820152601560248201527f4549503731323a20556e696e697469616c697a656400000000000000000000006044820152fd5b507fa16a46d94261c7517cc8ff89f61c0ce93598e3c849801011dee649a6a557d1015415610d81565b3461019a5760207ffffffffffffffffffffffffffffffffffffffffffffffffffffffffffffffffc36011261019a5773ffffffffffffffffffffffffffffffffffffffff610f2d611f36565b1660005260016020526020604060002054604051908152f35b3461019a5760207ffffffffffffffffffffffffffffffffffffffffffffffffffffffffffffffffc36011261019a5773ffffffffffffffffffffffffffffffffffffffff610f92611f36565b610f9a61247c565b16806000526000602052600060016040822082815501557f4e90f8d197a20eff02e5ce335729ae378c06743d07dbe0f596b454e2a1670709600080a2005b3461019a5760407ffffffffffffffffffffffffffffffffffffffffffffffffffffffffffffffffc36011261019a5761100f611f36565b60243590600582101561019a57602091611028916120a2565b6040519015158152f35b3461019a5760007ffffffffffffffffffffffffffffffffffffffffffffffffffffffffffffffffc36011261019a57602060ff600354166040519015158152f35b3461019a5760007ffffffffffffffffffffffffffffffffffffffffffffffffffffffffffffffffc36011261019a5773ffffffffffffffffffffffffffffffffffffffff7f00000000000000000000000000000000000000000000000000000000000000001630036111095760206040517f360894a13ba1a3210667c828492db98dca3e2076cc3735a920a3ca505d382bbc8152f35b60046040517fe07c8dba000000000000000000000000000000000000000000000000000000008152fd5b60407ffffffffffffffffffffffffffffffffffffffffffffffffffffffffffffffffc36011261019a57611165611f36565b60243567ffffffffffffffff811161019a573660238201121561019a5761119690369060248160040135910161200d565b9073ffffffffffffffffffffffffffffffffffffffff807f0000000000000000000000000000000000000000000000000000000000000000168030149081156113f2575b50611109576111e76123e9565b811690604051907f52d1902d0000000000000000000000000000000000000000000000000000000082526020918281600481875afa600091816113c3575b5061125b57602484604051907f4c9c8ce30000000000000000000000000000000000000000000000000000000082526004820152fd5b9284937f360894a13ba1a3210667c828492db98dca3e2076cc3735a920a3ca505d382bbc908181036113925750823b1561136157817fffffffffffffffffffffffff0000000000000000000000000000000000000000825416179055604051907fbc7cd75a20ee27fd9adebab32041f755214dbc6bffa90cc0225b39da2e5c2d3b600080a283511561132e5750600080848461019896519101845af4903d15611325573d61130881611fd3565b906113166040519283611f92565b8152600081943d92013e612fcc565b60609250612fcc565b925050503461133957005b807fb398979f0000000000000000000000000000000000000000000000000000000060049252fd5b602482604051907f4c9c8ce30000000000000000000000000000000000000000000000000000000082526004820152fd5b602490604051907faa1d49a40000000000000000000000000000000000000000000000000000000082526004820152fd5b9091508381813d83116113eb575b6113db8183611f92565b8101031261019a57519086611225565b503d6113d1565b9050817f360894a13ba1a3210667c828492db98dca3e2076cc3735a920a3ca505d382bbc54161415846111da565b3461019a5760607ffffffffffffffffffffffffffffffffffffffffffffffffffffffffffffffffc36011261019a57611457611f36565b61145f611f13565b67ffffffffffffffff60443581811161019a573660238201121561019a5761149190369060248160040135910161200d565b917ff0c57e16840df040f15088dc2f81fe391c3923bec73e23a9662efc9c229c6a009283549260ff8460401c16159381811696871580611b1f575b60018099149081611b15575b159081611b0c575b50611ae2578186897fffffffffffffffffffffffffffffffffffffffffffffffff000000000000000061152c9516178955611aad575b5061151f612d04565b611527612d04565b61251d565b506040519161153a83611f76565b8683527f3100000000000000000000000000000000000000000000000000000000000000602084015261156b612d04565b611573612d04565b805182811161082857807fa16a46d94261c7517cc8ff89f61c0ce93598e3c849801011dee649a6a557d102926115a98454612a71565b601f8111611a3c575b50602090601f831160011461198257600092611977575b50507fffffffffffffffffffffffffffffffffffffffffffffffffffffffffffffffff828a1b9260031b1c19161790555b8151908111610828577fa16a46d94261c7517cc8ff89f61c0ce93598e3c849801011dee649a6a557d1039161162f8354612a71565b601f8111611910575b50602090601f831160011461184e576117c09493929160009183611843575b50507fffffffffffffffffffffffffffffffffffffffffffffffffffffffffffffffff82891b9260031b1c19161790555b60007fa16a46d94261c7517cc8ff89f61c0ce93598e3c849801011dee649a6a557d1005560007fa16a46d94261c7517cc8ff89f61c0ce93598e3c849801011dee649a6a557d101557f97667070c54ef182b0f5858b034beac1b6f3089aa2d3188bb1e8929f4fa9b929806000527f02dd7bc7dec4dceedda775e58dd541e08a116c6c53815c0bd028192f7b62680060205285604060002001908154917f7935bd0ae54bc31f548c14dba4d37c5c64b3f8ca900cb468fb8abd54d5894f5592838092557fbd79b86ffe0ab8e8776151514217cd7cacd52c909f66475c3af44e129f0b00ff9283600080a47fe2f4eaae4a9751e85a3e4a7b9587827a877f29914755229b07a7b2da98285f708060005287604060002001918383549355600080a46117b0816125fa565b506117ba816126f9565b506127f2565b507fffffffffffffffffffffffffffffffffffffffffffffffffffffffffffffff00600354166003556117ef57005b7fc7f505b2f371ae2175ee4913f4499e1f2633a7b5936321eed1cdaeb6115181d291817fffffffffffffffffffffffffffffffffffffffffffffff00ffffffffffffffff60209354169055604051908152a1005b015190508880611657565b93929187917fffffffffffffffffffffffffffffffffffffffffffffffffffffffffffffffe0821690846000527f5f9ce34815f8e11431c7bb75a8e6886a91478f7ffc1dbb0a98dc240fddd76b759160005b8181106118f8575096836117c098106118c1575b505050811b019055611688565b01517fffffffffffffffffffffffffffffffffffffffffffffffffffffffffffffffff60f88460031b161c191690558880806118b4565b8289015184558b9590930192602092830192016118a0565b836000527f5f9ce34815f8e11431c7bb75a8e6886a91478f7ffc1dbb0a98dc240fddd76b75601f840160051c8101916020851061196d575b601f0160051c019088905b828110611961575050611638565b60008155018890611953565b9091508190611948565b0151905089806115c9565b907fffffffffffffffffffffffffffffffffffffffffffffffffffffffffffffffe08b941691856000527f42ad5d3e1f2e6e70edcf6d991b8a3023d3fca8047a131592f9edb9fd9b89d57d9260005b818110611a24575084116119ed575b505050811b0190556115fa565b01517fffffffffffffffffffffffffffffffffffffffffffffffffffffffffffffffff60f88460031b161c191690558980806119e0565b8284015185558d9690940193602093840193016119d1565b909150836000527f42ad5d3e1f2e6e70edcf6d991b8a3023d3fca8047a131592f9edb9fd9b89d57d601f840160051c81019160208510611aa3575b84939291601f8d920160051c01915b828110611a945750506115b2565b600081558594508c9101611a86565b9091508190611a77565b7fffffffffffffffffffffffffffffffffffffffffffffff000000000000000000166801000000000000000117875588611516565b60046040517ff92ee8a9000000000000000000000000000000000000000000000000000000008152fd5b905015896114e0565b303b1591506114d8565b50856114cc565b3461019a5760407ffffffffffffffffffffffffffffffffffffffffffffffffffffffffffffffffc36011261019a57611b5d611f13565b3373ffffffffffffffffffffffffffffffffffffffff821603611b8657610198906004356129b0565b60046040517f6697b232000000000000000000000000000000000000000000000000000000008152fd5b3461019a5760007ffffffffffffffffffffffffffffffffffffffffffffffffffffffffffffffffc36011261019a576020611be9612c8e565b604051908152f35b3461019a5760407ffffffffffffffffffffffffffffffffffffffffffffffffffffffffffffffffc36011261019a57610198600435611c2e611f13565b90806000527f02dd7bc7dec4dceedda775e58dd541e08a116c6c53815c0bd028192f7b626800602052611c686001604060002001546124d8565b6128eb565b3461019a5760207ffffffffffffffffffffffffffffffffffffffffffffffffffffffffffffffffc36011261019a576004356000527f02dd7bc7dec4dceedda775e58dd541e08a116c6c53815c0bd028192f7b6268006020526020600160406000200154604051908152f35b3461019a5760407ffffffffffffffffffffffffffffffffffffffffffffffffffffffffffffffffc36011261019a577fcbc432d9838cab3aa35a07c421dd770473090efd47c5cdc885fdca21b2bed3826040611d33611f02565b61ffff611d3e611ef3565b91611d4761247c565b1690816000526002602052611d8a81846000209060ff7fffffffffffffffffffffffffffffffffffffffffffffffffffffffffffffff0083541691151516179055565b825191825215156020820152a1005b3461019a5760207ffffffffffffffffffffffffffffffffffffffffffffffffffffffffffffffffc36011261019a5760043580151580910361019a5760207f0e2fb031ee032dc02d8011dc50b816eb450cf856abd8261680dac74f72165bd291611e016123e9565b7fffffffffffffffffffffffffffffffffffffffffffffffffffffffffffffff006003541660ff821617600355604051908152a1005b3461019a5760207ffffffffffffffffffffffffffffffffffffffffffffffffffffffffffffffffc36011261019a57600435907fffffffff00000000000000000000000000000000000000000000000000000000821680920361019a57817f7965db0b0000000000000000000000000000000000000000000000000000000060209314908115611ec9575b5015158152f35b7f01ffc9a70000000000000000000000000000000000000000000000000000000091501483611ec2565b60243590811515820361019a57565b6004359061ffff8216820361019a57565b6024359073ffffffffffffffffffffffffffffffffffffffff8216820361019a57565b6004359073ffffffffffffffffffffffffffffffffffffffff8216820361019a57565b610120810190811067ffffffffffffffff82111761082857604052565b6040810190811067ffffffffffffffff82111761082857604052565b90601f7fffffffffffffffffffffffffffffffffffffffffffffffffffffffffffffffe0910116810190811067ffffffffffffffff82111761082857604052565b67ffffffffffffffff811161082857601f017fffffffffffffffffffffffffffffffffffffffffffffffffffffffffffffffe01660200190565b92919261201982611fd3565b916120276040519384611f92565b82948184528183011161019a578281602093846000960137010152565b919082519283825260005b84811061208e5750507fffffffffffffffffffffffffffffffffffffffffffffffffffffffffffffffe0601f8460006020809697860101520116010190565b60208183018101518483018201520161204f565b9073ffffffffffffffffffffffffffffffffffffffff60009216825281602052604090818320908251916120d583611f59565b805460ff90818116151585526020850195828260081c161515875260e081870192848160101c1615158452848160181c1615156060890152848160201c1615158060808a015260a0890196868360281c16885261ffff91600160c08c0192848660301c1684528c67ffffffffffffffff9788910196891c16865201546101008c015261228e5751168a52600260205284838b205416612265575116421161223c5750600584101561220f57831561220357600184146121f657600284146121e25750600383146121c35750506004146121ad57505090565b5115801592506121bb575090565b905051151590565b93925093505051151591826121d757505090565b600592505116111590565b9550505050905051151590816121bb575090565b5050505091505051151590565b50505050505050600190565b6024877f4e487b710000000000000000000000000000000000000000000000000000000081526021600452fd5b600490517f203d82d8000000000000000000000000000000000000000000000000000000008152fd5b600483517f78062932000000000000000000000000000000000000000000000000000000008152fd5b600485517f419f32d2000000000000000000000000000000000000000000000000000000008152fd5b602435801515810361019a5790565b604435801515810361019a5790565b606435801515810361019a5790565b608435801515810361019a5790565b60a435801515810361019a5790565b6101043567ffffffffffffffff8116810361019a5790565b9061012082019160243580151580910361019a57815260443580151580910361019a57602082015260643580151580910361019a57604082015260843580151580910361019a57606082015260a43580151580910361019a57608082015260c43560ff811680910361019a5760a082015260e43561ffff811680910361019a5760c08201526101043567ffffffffffffffff811680910361019a5760e082015261010061012435910152565b60043573ffffffffffffffffffffffffffffffffffffffff8116810361019a5790565b3360009081527f75e09417c5070057df3eafe5054d52fa0b2a87d64a235e197963b615aedee80360205260409020547f7935bd0ae54bc31f548c14dba4d37c5c64b3f8ca900cb468fb8abd54d5894f559060ff16156124455750565b604490604051907fe2517d3f0000000000000000000000000000000000000000000000000000000082523360048301526024820152fd5b3360009081527f448256db8f8fb95ee3eaaf89c1051414494e85cebb6057fcf996cc3d0ccfb45660205260409020547f97667070c54ef182b0f5858b034beac1b6f3089aa2d3188bb1e8929f4fa9b9299060ff16156124455750565b806000527f02dd7bc7dec4dceedda775e58dd541e08a116c6c53815c0bd028192f7b62680060205260406000203360005260205260ff60406000205416156124455750565b73ffffffffffffffffffffffffffffffffffffffff1660008181527fb7db2dd08fcb62d0c9e08c51941cae53c267786a0b75803fb7960902fc8ef97d60205260408120549091907f02dd7bc7dec4dceedda775e58dd541e08a116c6c53815c0bd028192f7b6268009060ff166125f557828052602052604082208183526020526040822060017fffffffffffffffffffffffffffffffffffffffffffffffffffffffffffffff0082541617905533917f2f8788117e7eff1d82e926ec794901d17c78024a50270940304540a733656f0d8180a4600190565b505090565b73ffffffffffffffffffffffffffffffffffffffff1660008181527f75e09417c5070057df3eafe5054d52fa0b2a87d64a235e197963b615aedee80360205260408120549091907f7935bd0ae54bc31f548c14dba4d37c5c64b3f8ca900cb468fb8abd54d5894f55907f02dd7bc7dec4dceedda775e58dd541e08a116c6c53815c0bd028192f7b6268009060ff166126f357818452602052604083208284526020526040832060017fffffffffffffffffffffffffffffffffffffffffffffffffffffffffffffff008254161790557f2f8788117e7eff1d82e926ec794901d17c78024a50270940304540a733656f0d339380a4600190565b50505090565b73ffffffffffffffffffffffffffffffffffffffff1660008181527f448256db8f8fb95ee3eaaf89c1051414494e85cebb6057fcf996cc3d0ccfb45660205260408120549091907f97667070c54ef182b0f5858b034beac1b6f3089aa2d3188bb1e8929f4fa9b929907f02dd7bc7dec4dceedda775e58dd541e08a116c6c53815c0bd028192f7b6268009060ff166126f357818452602052604083208284526020526040832060017fffffffffffffffffffffffffffffffffffffffffffffffffffffffffffffff008254161790557f2f8788117e7eff1d82e926ec794901d17c78024a50270940304540a733656f0d339380a4600190565b73ffffffffffffffffffffffffffffffffffffffff1660008181527fed82e8858f919528fd86c81da277f0812ef4876fae8bc5251645af9640d3f49f60205260408120549091907fe2f4eaae4a9751e85a3e4a7b9587827a877f29914755229b07a7b2da98285f70907f02dd7bc7dec4dceedda775e58dd541e08a116c6c53815c0bd028192f7b6268009060ff166126f357818452602052604083208284526020526040832060017fffffffffffffffffffffffffffffffffffffffffffffffffffffffffffffff008254161790557f2f8788117e7eff1d82e926ec794901d17c78024a50270940304540a733656f0d339380a4600190565b906000918083527f02dd7bc7dec4dceedda775e58dd541e08a116c6c53815c0bd028192f7b6268008060205273ffffffffffffffffffffffffffffffffffffffff6040852093169283855260205260ff604085205416156000146126f357818452602052604083208284526020526040832060017fffffffffffffffffffffffffffffffffffffffffffffffffffffffffffffff008254161790557f2f8788117e7eff1d82e926ec794901d17c78024a50270940304540a733656f0d339380a4600190565b906000918083527f02dd7bc7dec4dceedda775e58dd541e08a116c6c53815c0bd028192f7b6268008060205273ffffffffffffffffffffffffffffffffffffffff6040852093169283855260205260ff6040852054166000146126f35781845260205260408320828452602052604083207fffffffffffffffffffffffffffffffffffffffffffffffffffffffffffffff0081541690557ff6391f5c32d9c69d2a47ea670b442974b53935d1edc7fd64eb21e047a839171b339380a4600190565b90600182811c92168015612aba575b6020831014612a8b57565b7f4e487b7100000000000000000000000000000000000000000000000000000000600052602260045260246000fd5b91607f1691612a80565b604051906000827fa16a46d94261c7517cc8ff89f61c0ce93598e3c849801011dee649a6a557d10291825492612af984612a71565b80845293602091600191828116908115612b885750600114612b27575b505050612b2592500383611f92565b565b60009081527f42ad5d3e1f2e6e70edcf6d991b8a3023d3fca8047a131592f9edb9fd9b89d57d9590935091905b828410612b705750612b25945050508101602001388080612b16565b85548885018301529485019487945092810192612b54565b91505060209350612b259592507fffffffffffffffffffffffffffffffffffffffffffffffffffffffffffffff0091501682840152151560051b820101388080612b16565b604051906000827fa16a46d94261c7517cc8ff89f61c0ce93598e3c849801011dee649a6a557d10391825492612c0284612a71565b80845293602091600191828116908115612b885750600114612c2d57505050612b2592500383611f92565b60009081527f5f9ce34815f8e11431c7bb75a8e6886a91478f7ffc1dbb0a98dc240fddd76b759590935091905b828410612c765750612b25945050508101602001388080612b16565b85548885018301529485019487945092810192612c5a565b612c96612e80565b612c9e612eea565b6040519060208201927f8b73c3c69bb8fe3d512ecc4cf759cc79239f7b179b0ffacaa9a75d522b39400f8452604083015260608201524660808201523060a082015260a0815260c0810181811067ffffffffffffffff8211176108285760405251902090565b60ff7ff0c57e16840df040f15088dc2f81fe391c3923bec73e23a9662efc9c229c6a005460401c1615612d3357565b60046040517fd7e6bcf8000000000000000000000000000000000000000000000000000000008152fd5b8151919060418303612d8e57612d8792506020820151906060604084015193015160001a90612f2f565b9192909190565b505060009160029190565b6004811015612e515780612dab575050565b60018103612ddd5760046040517ff645eedf000000000000000000000000000000000000000000000000000000008152fd5b60028103612e1657602482604051907ffce698f70000000000000000000000000000000000000000000000000000000082526004820152fd5b600314612e205750565b602490604051907fd78bce0c0000000000000000000000000000000000000000000000000000000082526004820152fd5b7f4e487b7100000000000000000000000000000000000000000000000000000000600052602160045260246000fd5b612e88612ac4565b8051908115612e98576020012090565b50507fa16a46d94261c7517cc8ff89f61c0ce93598e3c849801011dee649a6a557d100548015612ec55790565b507fc5d2460186f7233c927e7db2dcc703c0e500b653ca82273b7bfad8045d85a47090565b612ef2612bcd565b8051908115612f02576020012090565b50507fa16a46d94261c7517cc8ff89f61c0ce93598e3c849801011dee649a6a557d101548015612ec55790565b91907f7fffffffffffffffffffffffffffffff5d576e7357a4501ddfe92f46681b20a08411612fc057926020929160ff608095604051948552168484015260408301526060820152600092839182805260015afa15612fb457805173ffffffffffffffffffffffffffffffffffffffff811615612fab57918190565b50809160019190565b604051903d90823e3d90fd5b50505060009160039190565b9061300b5750805115612fe157805190602001fd5b60046040517f1425ea42000000000000000000000000000000000000000000000000000000008152fd5b81511580613063575b61301c575090565b60249073ffffffffffffffffffffffffffffffffffffffff604051917f9996b315000000000000000000000000000000000000000000000000000000008352166004820152fd5b50803b1561301456fea2646970667358221220ff620f50616cbadadc6902f120f9602af25057fb0d77c8eeb322fc232fd825fa64736f6c63430008180033","linkReferences":{}},"methodIdentifiers":{"DEFAULT_ADMIN_ROLE()":"a217fddf","DOMAIN_SEPARATOR()":"3644e515","UPGRADE_INTERFACE_VERSION()":"ad3cb1cc","attestBySig((address,(bool,bool,bool,bool,bool,uint8,uint16,uint64,bytes32),uint256,uint64,uint64),bytes)":"b9ad4e47","check(address,uint8)":"61e728b1","eip712Domain()":"84b0196e","getRoleAdmin(bytes32)":"248a9ca3","grantRole(bytes32,address)":"2f2ff15d","hasRole(bytes32,address)":"91d14854","initialize(address,address,string)":"4571e3a6","isoBlocked(uint16)":"882740dc","nonces(address)":"7ecebe00","paused()":"5c975abb","proxiableUUID()":"52d1902d","renounceRole(bytes32,address)":"36568abe","revoke(address)":"74a8f103","revokeRole(bytes32,address)":"d547741f","setJurisdictionBlocked(uint16,bool)":"19db130b","setPaused(bool)":"16c38b3c","setStatus(address,(bool,bool,bool,bool,bool,uint8,uint16,uint64,bytes32))":"8ba98384","statusOf(address)":"97a5d5b5","supportsInterface(bytes4)":"01ffc9a7","upgradeToAndCall(address,bytes)":"4f1ef286"},"id":3}