{"abi":[{"type":"function","name":"DEFAULT_ADMIN_ROLE","inputs":[],"outputs":[{"name":"","type":"bytes32","internalType":"bytes32"}],"stateMutability":"view"},{"type":"function","name":"GOVERNOR_ROLE","inputs":[],"outputs":[{"name":"","type":"bytes32","internalType":"bytes32"}],"stateMutability":"view"},{"type":"function","name":"WRITER_ROLE","inputs":[],"outputs":[{"name":"","type":"bytes32","internalType":"bytes32"}],"stateMutability":"view"},{"type":"function","name":"checkTransfer","inputs":[{"name":"ctx","type":"tuple","internalType":"struct Types.TransferContext","components":[{"name":"token","type":"address","internalType":"address"},{"name":"operator","type":"address","internalType":"address"},{"name":"from","type":"address","internalType":"address"},{"name":"to","type":"address","internalType":"address"},{"name":"amount","type":"uint256","internalType":"uint256"}]}],"outputs":[],"stateMutability":"view"},{"type":"function","name":"court","inputs":[],"outputs":[{"name":"","type":"address","internalType":"contract ICourtOrderRegistry"}],"stateMutability":"view"},{"type":"function","name":"getRoleAdmin","inputs":[{"name":"role","type":"bytes32","internalType":"bytes32"}],"outputs":[{"name":"","type":"bytes32","internalType":"bytes32"}],"stateMutability":"view"},{"type":"function","name":"globalPaused","inputs":[],"outputs":[{"name":"","type":"bool","internalType":"bool"}],"stateMutability":"view"},{"type":"function","name":"grantRole","inputs":[{"name":"role","type":"bytes32","internalType":"bytes32"},{"name":"account","type":"address","internalType":"address"}],"outputs":[],"stateMutability":"nonpayable"},{"type":"function","name":"hasRole","inputs":[{"name":"role","type":"bytes32","internalType":"bytes32"},{"name":"account","type":"address","internalType":"address"}],"outputs":[{"name":"","type":"bool","internalType":"bool"}],"stateMutability":"view"},{"type":"function","name":"initialize","inputs":[{"name":"admin","type":"address","internalType":"address"},{"name":"governor","type":"address","internalType":"address"},{"name":"registry_","type":"address","internalType":"address"},{"name":"court_","type":"address","internalType":"address"}],"outputs":[],"stateMutability":"nonpayable"},{"type":"function","name":"lastOutflowAmt","inputs":[{"name":"","type":"address","internalType":"address"}],"outputs":[{"name":"","type":"uint256","internalType":"uint256"}],"stateMutability":"view"},{"type":"function","name":"lastOutflowTs","inputs":[{"name":"","type":"address","internalType":"address"}],"outputs":[{"name":"","type":"uint256","internalType":"uint256"}],"stateMutability":"view"},{"type":"function","name":"maxDailyOutflow","inputs":[],"outputs":[{"name":"","type":"uint256","internalType":"uint256"}],"stateMutability":"view"},{"type":"function","name":"maxHolderBalance","inputs":[],"outputs":[{"name":"","type":"uint256","internalType":"uint256"}],"stateMutability":"view"},{"type":"function","name":"registry","inputs":[],"outputs":[{"name":"","type":"address","internalType":"contract IComplianceRegistry"}],"stateMutability":"view"},{"type":"function","name":"renounceRole","inputs":[{"name":"role","type":"bytes32","internalType":"bytes32"},{"name":"callerConfirmation","type":"address","internalType":"address"}],"outputs":[],"stateMutability":"nonpayable"},{"type":"function","name":"requireKYCApproved","inputs":[],"outputs":[{"name":"","type":"bool","internalType":"bool"}],"stateMutability":"view"},{"type":"function","name":"restrictJurisdictionUSOnly","inputs":[],"outputs":[{"name":"","type":"bool","internalType":"bool"}],"stateMutability":"view"},{"type":"function","name":"revokeRole","inputs":[{"name":"role","type":"bytes32","internalType":"bytes32"},{"name":"account","type":"address","internalType":"address"}],"outputs":[],"stateMutability":"nonpayable"},{"type":"function","name":"setCaps","inputs":[{"name":"_maxHolderBalance","type":"uint256","internalType":"uint256"},{"name":"_maxDailyOutflow","type":"uint256","internalType":"uint256"}],"outputs":[],"stateMutability":"nonpayable"},{"type":"function","name":"setSwitches","inputs":[{"name":"_globalPaused","type":"bool","internalType":"bool"},{"name":"_requireKYCApproved","type":"bool","internalType":"bool"},{"name":"_restrictUSOnly","type":"bool","internalType":"bool"}],"outputs":[],"stateMutability":"nonpayable"},{"type":"function","name":"supportsInterface","inputs":[{"name":"interfaceId","type":"bytes4","internalType":"bytes4"}],"outputs":[{"name":"","type":"bool","internalType":"bool"}],"stateMutability":"view"},{"type":"event","name":"Initialized","inputs":[{"name":"version","type":"uint64","indexed":false,"internalType":"uint64"}],"anonymous":false},{"type":"event","name":"PolicySet","inputs":[{"name":"key","type":"bytes32","indexed":false,"internalType":"bytes32"},{"name":"value","type":"bytes","indexed":false,"internalType":"bytes"}],"anonymous":false},{"type":"event","name":"RegistriesSet","inputs":[{"name":"registry","type":"address","indexed":false,"internalType":"address"},{"name":"court","type":"address","indexed":false,"internalType":"address"}],"anonymous":false},{"type":"event","name":"RoleAdminChanged","inputs":[{"name":"role","type":"bytes32","indexed":true,"internalType":"bytes32"},{"name":"previousAdminRole","type":"bytes32","indexed":true,"internalType":"bytes32"},{"name":"newAdminRole","type":"bytes32","indexed":true,"internalType":"bytes32"}],"anonymous":false},{"type":"event","name":"RoleGranted","inputs":[{"name":"role","type":"bytes32","indexed":true,"internalType":"bytes32"},{"name":"account","type":"address","indexed":true,"internalType":"address"},{"name":"sender","type":"address","indexed":true,"internalType":"address"}],"anonymous":false},{"type":"event","name":"RoleRevoked","inputs":[{"name":"role","type":"bytes32","indexed":true,"internalType":"bytes32"},{"name":"account","type":"address","indexed":true,"internalType":"address"},{"name":"sender","type":"address","indexed":true,"internalType":"address"}],"anonymous":false},{"type":"error","name":"AccessControlBadConfirmation","inputs":[]},{"type":"error","name":"AccessControlUnauthorizedAccount","inputs":[{"name":"account","type":"address","internalType":"address"},{"name":"neededRole","type":"bytes32","internalType":"bytes32"}]},{"type":"error","name":"AttestationInvalid","inputs":[]},{"type":"error","name":"Frozen","inputs":[]},{"type":"error","name":"GlobalPause","inputs":[]},{"type":"error","name":"InvalidInitialization","inputs":[]},{"type":"error","name":"InvestorClassBlocked","inputs":[]},{"type":"error","name":"JurisdictionBlocked","inputs":[]},{"type":"error","name":"LockupActive","inputs":[]},{"type":"error","name":"NotInitializing","inputs":[]},{"type":"error","name":"Sanctioned","inputs":[]}],"bytecode":{"object":"0x608080604052346100165761193c908161001c8239f35b600080fdfe6080604081815260048036101561001557600080fd5b600092833560e01c908162971a30146112685750806301ffc9a7146111aa5780630697b1521461116d578063150fb4d114611130578063212bf31614611046578063248a9ca314610fdf57806324fb1fe114610f7d5780632f2ff15d14610f3657806336568abe14610eab5780636153fe8514610e6657806361a552dc14610e2157806368d0d000146108835780637b1039991461083257806391d14854146107a357806395d8180b1461075e5780639beaab7b14610705578063a217fddf146106cc578063ccc5749014610673578063d547741f146105f7578063d9d3214e1461042c578063dde9ed60146103cc5763f8c8765e1461011457600080fd5b346103c85760807ffffffffffffffffffffffffffffffffffffffffffffffffffffffffffffffffc3601126103c85761014b6112b8565b906101546112e0565b60443573ffffffffffffffffffffffffffffffffffffffff918282168092036103c4576064359283168093036103c4577ff0c57e16840df040f15088dc2f81fe391c3923bec73e23a9662efc9c229c6a009485549460ff86891c16159567ffffffffffffffff8116801590816103bc575b60011490816103b2575b1590816103a9575b50610381578660017fffffffffffffffffffffffffffffffffffffffffffffffff0000000000000000831617895561034c575b5060ff8754891c16156103255750916102657fffffffffffffffffffff00ff00000000000000000000000000000000000000009261025f750100000000000000000000000000000000000000000096956115a4565b50611681565b50807fffffffffffffffffffffffff00000000000000000000000000000000000000008954161788557f70ec9b48be5f7de32ef612d43ba55af69d1dd629935dc7ab66c4c16888338ece87600154928151908152856020820152a11617176001556102ce578280f35b7fc7f505b2f371ae2175ee4913f4499e1f2633a7b5936321eed1cdaeb6115181d291817fffffffffffffffffffffffffffffffffffffffffffffff00ffffffffffffffff602093541690555160018152a138808280f35b87517fd7e6bcf8000000000000000000000000000000000000000000000000000000008152fd5b7fffffffffffffffffffffffffffffffffffffffffffffff00000000000000000016680100000000000000011787553861020a565b5087517ff92ee8a9000000000000000000000000000000000000000000000000000000008152fd5b905015386101d7565b303b1591506101cf565b8891506101c5565b8680fd5b8280fd5b50346103c85760207ffffffffffffffffffffffffffffffffffffffffffffffffffffffffffffffffc3601126103c857602092829173ffffffffffffffffffffffffffffffffffffffff61041e6112b8565b168252845220549051908152f35b509190346105f35760607ffffffffffffffffffffffffffffffffffffffffffffffffffffffffffffffffc3601126105f35782358015158091036103c8576024358015158091036105ef57604435908115158092036105eb5761048d6114cc565b60015476ff000000000000000000000000000000000000000000008360b01b16907fffffffffffffffffff000000ffffffffffffffffffffffffffffffffffffffff74ff00000000000000000000000000000000000000008660a01b1691161775ff0000000000000000000000000000000000000000008360a81b161717600155835192602084015283830152606082015260608152608081019181831067ffffffffffffffff8411176105bf578291817f528c3e4ba7c79f649890a647b6d637e4ee7a7cb27e990bfcf5685e9799f8f04e947fffffffffffffffffffffffffffffffffffffffffffffffffffffffffffffff8093527f7377697463686573000000000000000000000000000000000000000000000000845260a08201526105b860c0820182611373565b030190a180f35b6024846041877f4e487b7100000000000000000000000000000000000000000000000000000000835252fd5b8480fd5b8380fd5b5080fd5b5090346103c857807ffffffffffffffffffffffffffffffffffffffffffffffffffffffffffffffffc3601126103c85761066f913561066a60016106396112e0565b938387527f02dd7bc7dec4dceedda775e58dd541e08a116c6c53815c0bd028192f7b6268006020528620015461155f565b611845565b5080f35b5050346105f357817ffffffffffffffffffffffffffffffffffffffffffffffffffffffffffffffffc3601126105f357602090517f7935bd0ae54bc31f548c14dba4d37c5c64b3f8ca900cb468fb8abd54d5894f558152f35b5050346105f357817ffffffffffffffffffffffffffffffffffffffffffffffffffffffffffffffffc3601126105f35751908152602090f35b5050346105f357817ffffffffffffffffffffffffffffffffffffffffffffffffffffffffffffffffc3601126105f357602090517f2b8f168f361ac1393a163ed4adfa899a87be7b7c71645167bdaddd822ae453c88152f35b5050346105f357817ffffffffffffffffffffffffffffffffffffffffffffffffffffffffffffffffc3601126105f35760209060ff60015460b01c1690519015158152f35b50346103c857817ffffffffffffffffffffffffffffffffffffffffffffffffffffffffffffffffc3601126103c8578160209360ff926107e16112e0565b903582527f02dd7bc7dec4dceedda775e58dd541e08a116c6c53815c0bd028192f7b626800865273ffffffffffffffffffffffffffffffffffffffff83832091168252855220541690519015158152f35b5050346105f357817ffffffffffffffffffffffffffffffffffffffffffffffffffffffffffffffffc3601126105f35773ffffffffffffffffffffffffffffffffffffffff60209254169051908152f35b5090346103c85760a07ffffffffffffffffffffffffffffffffffffffffffffffffffffffffffffffffc3601126103c85760015460ff8160a01c16610dfa5773ffffffffffffffffffffffffffffffffffffffff833591818316809303610df6578351927f4f8a0bfb00000000000000000000000000000000000000000000000000000000845285840152602090602493828186818786165afa908115610dec578891610db3575b50610d8b57828754169061093d6113d1565b865190857feae4f19f0000000000000000000000000000000000000000000000000000000091828452168983015284828881875afa918215610d81578a92610d46575b508115610cdc575b50610cb4576109956113d1565b93865192817f30ccebb50000000000000000000000000000000000000000000000000000000096878652168985015260c09586858981855afa948515610caa5787929189918d97610c8b575b506109ea6113f4565b928b5195869485938452168d8301525afa948515610c81578995610c52575b505060ff8160a81c16610bcf575b60a082015115801590610bc2575b610b9a5767ffffffffffffffff6080830151164210610b72579060ff8694939260b01c16610ab7575b505001519083821015610a8d5750600314610a67578280f35b517f53002156000000000000000000000000000000000000000000000000000000008152fd5b846021857f4e487b7100000000000000000000000000000000000000000000000000000000835252fd5b8192935001516007811015610b47571590811591610b06575b50610ade5782903880610a4e565b5050517f78062932000000000000000000000000000000000000000000000000000000008152fd5b90508101516007811015610b1c57151538610ad0565b82866021877f4e487b7100000000000000000000000000000000000000000000000000000000835252fd5b83876021887f4e487b7100000000000000000000000000000000000000000000000000000000835252fd5b8686517f332bb140000000000000000000000000000000000000000000000000000000008152fd5b8686517fa8cab3d1000000000000000000000000000000000000000000000000000000008152fd5b5060a08401511515610a25565b81516005811015610c2757600214801590610c12575b15610a17578686517f60dc988d000000000000000000000000000000000000000000000000000000008152fd5b5083516005811015610c275760021415610be5565b858960218a7f4e487b7100000000000000000000000000000000000000000000000000000000835252fd5b610c72929550803d10610c7a575b610c6a8183611303565b810190611439565b923880610a09565b503d610c60565b87513d8b823e3d90fd5b610ca3919750843d8611610c7a57610c6a8183611303565b95386109e1565b89513d8d823e3d90fd5b8686517f419f32d2000000000000000000000000000000000000000000000000000000008152fd5b905084610ce76113f4565b8851928352168882015283818781865afa908115610c81578991610d0d575b5038610988565b90508381813d8311610d3f575b610d248183611303565b81010312610d3b57610d3590611417565b38610d06565b8880fd5b503d610d1a565b9091508481813d8311610d7a575b610d5e8183611303565b81010312610d7657610d6f90611417565b9038610980565b8980fd5b503d610d54565b88513d8c823e3d90fd5b8585517fa8cab3d1000000000000000000000000000000000000000000000000000000008152fd5b90508281813d8311610de5575b610dca8183611303565b81010312610de157610ddb90611417565b3861092b565b8780fd5b503d610dc0565b86513d8a823e3d90fd5b8580fd5b50517f9d6b436c000000000000000000000000000000000000000000000000000000008152fd5b5050346105f357817ffffffffffffffffffffffffffffffffffffffffffffffffffffffffffffffffc3601126105f35760209060ff60015460a01c1690519015158152f35b5050346105f357817ffffffffffffffffffffffffffffffffffffffffffffffffffffffffffffffffc3601126105f35760209060ff60015460a81c1690519015158152f35b509190346105f357807ffffffffffffffffffffffffffffffffffffffffffffffffffffffffffffffffc3601126105f357610ee46112e0565b903373ffffffffffffffffffffffffffffffffffffffff831603610f0e575061066f919235611845565b8390517f6697b232000000000000000000000000000000000000000000000000000000008152fd5b5090346103c857807ffffffffffffffffffffffffffffffffffffffffffffffffffffffffffffffffc3601126103c85761066f9135610f7860016106396112e0565b611780565b5050346105f35760207ffffffffffffffffffffffffffffffffffffffffffffffffffffffffffffffffc3601126105f3578060209273ffffffffffffffffffffffffffffffffffffffff610fcf6112b8565b1681526005845220549051908152f35b50346103c85760207ffffffffffffffffffffffffffffffffffffffffffffffffffffffffffffffffc3601126103c857816020936001923581527f02dd7bc7dec4dceedda775e58dd541e08a116c6c53815c0bd028192f7b62680085522001549051908152f35b509190346105f357807ffffffffffffffffffffffffffffffffffffffffffffffffffffffffffffffffc3601126105f35782356024356110846114cc565b8160025580600355825191602083015282820152818152606081019181831067ffffffffffffffff8411176105bf578291817f528c3e4ba7c79f649890a647b6d637e4ee7a7cb27e990bfcf5685e9799f8f04e947fffffffffffffffffffffffffffffffffffffffffffffffffffffffffffffffa093527f6361707300000000000000000000000000000000000000000000000000000000845260808201526105b860a0820182611373565b5050346105f357817ffffffffffffffffffffffffffffffffffffffffffffffffffffffffffffffffc3601126105f3576020906003549051908152f35b5050346105f357817ffffffffffffffffffffffffffffffffffffffffffffffffffffffffffffffffc3601126105f3576020906002549051908152f35b50346103c85760207ffffffffffffffffffffffffffffffffffffffffffffffffffffffffffffffffc3601126103c85735907fffffffff0000000000000000000000000000000000000000000000000000000082168092036103c857602092507f7965db0b00000000000000000000000000000000000000000000000000000000821491821561123e575b50519015158152f35b7f01ffc9a70000000000000000000000000000000000000000000000000000000014915038611235565b8490346105f357817ffffffffffffffffffffffffffffffffffffffffffffffffffffffffffffffffc3601126105f35760209073ffffffffffffffffffffffffffffffffffffffff600154168152f35b6004359073ffffffffffffffffffffffffffffffffffffffff821682036112db57565b600080fd5b6024359073ffffffffffffffffffffffffffffffffffffffff821682036112db57565b90601f7fffffffffffffffffffffffffffffffffffffffffffffffffffffffffffffffe0910116810190811067ffffffffffffffff82111761134457604052565b7f4e487b7100000000000000000000000000000000000000000000000000000000600052604160045260246000fd5b919082519283825260005b8481106113bd5750507fffffffffffffffffffffffffffffffffffffffffffffffffffffffffffffffe0601f8460006020809697860101520116010190565b60208183018101518483018201520161137e565b60443573ffffffffffffffffffffffffffffffffffffffff811681036112db5790565b60643573ffffffffffffffffffffffffffffffffffffffff811681036112db5790565b519081151582036112db57565b519067ffffffffffffffff821682036112db57565b908160c09103126112db576040519060c0820182811067ffffffffffffffff82111761134457604052805160058110156112db578252602081015160078110156112db576020830152604081015160048110156112db576114c49160a09160408501526114a860608201611424565b60608501526114b960808201611424565b608085015201611417565b60a082015290565b3360009081527f75e09417c5070057df3eafe5054d52fa0b2a87d64a235e197963b615aedee80360205260409020547f7935bd0ae54bc31f548c14dba4d37c5c64b3f8ca900cb468fb8abd54d5894f559060ff16156115285750565b604490604051907fe2517d3f0000000000000000000000000000000000000000000000000000000082523360048301526024820152fd5b806000527f02dd7bc7dec4dceedda775e58dd541e08a116c6c53815c0bd028192f7b62680060205260406000203360005260205260ff60406000205416156115285750565b73ffffffffffffffffffffffffffffffffffffffff1660008181527fb7db2dd08fcb62d0c9e08c51941cae53c267786a0b75803fb7960902fc8ef97d60205260408120549091907f02dd7bc7dec4dceedda775e58dd541e08a116c6c53815c0bd028192f7b6268009060ff1661167c57828052602052604082208183526020526040822060017fffffffffffffffffffffffffffffffffffffffffffffffffffffffffffffff0082541617905533917f2f8788117e7eff1d82e926ec794901d17c78024a50270940304540a733656f0d8180a4600190565b505090565b73ffffffffffffffffffffffffffffffffffffffff1660008181527f75e09417c5070057df3eafe5054d52fa0b2a87d64a235e197963b615aedee80360205260408120549091907f7935bd0ae54bc31f548c14dba4d37c5c64b3f8ca900cb468fb8abd54d5894f55907f02dd7bc7dec4dceedda775e58dd541e08a116c6c53815c0bd028192f7b6268009060ff1661177a57818452602052604083208284526020526040832060017fffffffffffffffffffffffffffffffffffffffffffffffffffffffffffffff008254161790557f2f8788117e7eff1d82e926ec794901d17c78024a50270940304540a733656f0d339380a4600190565b50505090565b906000918083527f02dd7bc7dec4dceedda775e58dd541e08a116c6c53815c0bd028192f7b6268008060205273ffffffffffffffffffffffffffffffffffffffff6040852093169283855260205260ff6040852054161560001461177a57818452602052604083208284526020526040832060017fffffffffffffffffffffffffffffffffffffffffffffffffffffffffffffff008254161790557f2f8788117e7eff1d82e926ec794901d17c78024a50270940304540a733656f0d339380a4600190565b906000918083527f02dd7bc7dec4dceedda775e58dd541e08a116c6c53815c0bd028192f7b6268008060205273ffffffffffffffffffffffffffffffffffffffff6040852093169283855260205260ff60408520541660001461177a5781845260205260408320828452602052604083207fffffffffffffffffffffffffffffffffffffffffffffffffffffffffffffff0081541690557ff6391f5c32d9c69d2a47ea670b442974b53935d1edc7fd64eb21e047a839171b339380a460019056fea2646970667358221220958977d3e4248c918e1f7dfe4dee6b11f177cb34c723e2e8ff307c8b3de8d19064736f6c63430008180033","linkReferences":{}},"methodIdentifiers":{"DEFAULT_ADMIN_ROLE()":"a217fddf","GOVERNOR_ROLE()":"ccc57490","WRITER_ROLE()":"9beaab7b","checkTransfer((address,address,address,address,uint256))":"68d0d000","court()":"00971a30","getRoleAdmin(bytes32)":"248a9ca3","globalPaused()":"61a552dc","grantRole(bytes32,address)":"2f2ff15d","hasRole(bytes32,address)":"91d14854","initialize(address,address,address,address)":"f8c8765e","lastOutflowAmt(address)":"24fb1fe1","lastOutflowTs(address)":"dde9ed60","maxDailyOutflow()":"150fb4d1","maxHolderBalance()":"0697b152","registry()":"7b103999","renounceRole(bytes32,address)":"36568abe","requireKYCApproved()":"6153fe85","restrictJurisdictionUSOnly()":"95d8180b","revokeRole(bytes32,address)":"d547741f","setCaps(uint256,uint256)":"212bf316","setSwitches(bool,bool,bool)":"d9d3214e","supportsInterface(bytes4)":"01ffc9a7"},"id":7}