{
  "_format": "hh-sol-artifact-1",
  "contractName": "MerkleCouponDistributor",
  "sourceName": "contracts/distribution/MerkleCouponDistributor.sol",
  "abi": [
    {
      "inputs": [
        {
          "internalType": "address",
          "name": "admin",
          "type": "address"
        },
        {
          "internalType": "contract IComplianceRegistry",
          "name": "reg",
          "type": "address"
        }
      ],
      "stateMutability": "nonpayable",
      "type": "constructor"
    },
    {
      "inputs": [],
      "name": "AccessControlBadConfirmation",
      "type": "error"
    },
    {
      "inputs": [
        {
          "internalType": "address",
          "name": "account",
          "type": "address"
        },
        {
          "internalType": "bytes32",
          "name": "neededRole",
          "type": "bytes32"
        }
      ],
      "name": "AccessControlUnauthorizedAccount",
      "type": "error"
    },
    {
      "inputs": [],
      "name": "EnforcedPause",
      "type": "error"
    },
    {
      "inputs": [],
      "name": "ExpectedPause",
      "type": "error"
    },
    {
      "inputs": [
        {
          "internalType": "address",
          "name": "token",
          "type": "address"
        }
      ],
      "name": "SafeERC20FailedOperation",
      "type": "error"
    },
    {
      "anonymous": false,
      "inputs": [
        {
          "indexed": true,
          "internalType": "uint256",
          "name": "id",
          "type": "uint256"
        },
        {
          "indexed": true,
          "internalType": "uint256",
          "name": "index",
          "type": "uint256"
        },
        {
          "indexed": true,
          "internalType": "address",
          "name": "account",
          "type": "address"
        },
        {
          "indexed": false,
          "internalType": "uint256",
          "name": "amount",
          "type": "uint256"
        }
      ],
      "name": "Claimed",
      "type": "event"
    },
    {
      "anonymous": false,
      "inputs": [
        {
          "indexed": false,
          "internalType": "address",
          "name": "registry",
          "type": "address"
        }
      ],
      "name": "ComplianceSet",
      "type": "event"
    },
    {
      "anonymous": false,
      "inputs": [
        {
          "indexed": true,
          "internalType": "uint256",
          "name": "id",
          "type": "uint256"
        },
        {
          "indexed": true,
          "internalType": "address",
          "name": "asset",
          "type": "address"
        },
        {
          "indexed": true,
          "internalType": "bytes32",
          "name": "partition",
          "type": "bytes32"
        },
        {
          "indexed": false,
          "internalType": "bytes32",
          "name": "merkleRoot",
          "type": "bytes32"
        },
        {
          "indexed": false,
          "internalType": "uint256",
          "name": "totalAmount",
          "type": "uint256"
        },
        {
          "indexed": false,
          "internalType": "uint64",
          "name": "deadline",
          "type": "uint64"
        },
        {
          "indexed": false,
          "internalType": "string",
          "name": "uri",
          "type": "string"
        }
      ],
      "name": "DistributionCreated",
      "type": "event"
    },
    {
      "anonymous": false,
      "inputs": [
        {
          "indexed": false,
          "internalType": "address",
          "name": "account",
          "type": "address"
        }
      ],
      "name": "Paused",
      "type": "event"
    },
    {
      "anonymous": false,
      "inputs": [],
      "name": "Paused",
      "type": "event"
    },
    {
      "anonymous": false,
      "inputs": [
        {
          "indexed": true,
          "internalType": "bytes32",
          "name": "role",
          "type": "bytes32"
        },
        {
          "indexed": true,
          "internalType": "bytes32",
          "name": "previousAdminRole",
          "type": "bytes32"
        },
        {
          "indexed": true,
          "internalType": "bytes32",
          "name": "newAdminRole",
          "type": "bytes32"
        }
      ],
      "name": "RoleAdminChanged",
      "type": "event"
    },
    {
      "anonymous": false,
      "inputs": [
        {
          "indexed": true,
          "internalType": "bytes32",
          "name": "role",
          "type": "bytes32"
        },
        {
          "indexed": true,
          "internalType": "address",
          "name": "account",
          "type": "address"
        },
        {
          "indexed": true,
          "internalType": "address",
          "name": "sender",
          "type": "address"
        }
      ],
      "name": "RoleGranted",
      "type": "event"
    },
    {
      "anonymous": false,
      "inputs": [
        {
          "indexed": true,
          "internalType": "bytes32",
          "name": "role",
          "type": "bytes32"
        },
        {
          "indexed": true,
          "internalType": "address",
          "name": "account",
          "type": "address"
        },
        {
          "indexed": true,
          "internalType": "address",
          "name": "sender",
          "type": "address"
        }
      ],
      "name": "RoleRevoked",
      "type": "event"
    },
    {
      "anonymous": false,
      "inputs": [
        {
          "indexed": true,
          "internalType": "uint256",
          "name": "id",
          "type": "uint256"
        },
        {
          "indexed": false,
          "internalType": "address",
          "name": "to",
          "type": "address"
        },
        {
          "indexed": false,
          "internalType": "uint256",
          "name": "amount",
          "type": "uint256"
        }
      ],
      "name": "Swept",
      "type": "event"
    },
    {
      "anonymous": false,
      "inputs": [
        {
          "indexed": false,
          "internalType": "address",
          "name": "account",
          "type": "address"
        }
      ],
      "name": "Unpaused",
      "type": "event"
    },
    {
      "anonymous": false,
      "inputs": [],
      "name": "Unpaused",
      "type": "event"
    },
    {
      "inputs": [],
      "name": "DEFAULT_ADMIN_ROLE",
      "outputs": [
        {
          "internalType": "bytes32",
          "name": "",
          "type": "bytes32"
        }
      ],
      "stateMutability": "view",
      "type": "function"
    },
    {
      "inputs": [],
      "name": "ROLE_ADMIN",
      "outputs": [
        {
          "internalType": "bytes32",
          "name": "",
          "type": "bytes32"
        }
      ],
      "stateMutability": "view",
      "type": "function"
    },
    {
      "inputs": [],
      "name": "ROLE_MANAGER",
      "outputs": [
        {
          "internalType": "bytes32",
          "name": "",
          "type": "bytes32"
        }
      ],
      "stateMutability": "view",
      "type": "function"
    },
    {
      "inputs": [
        {
          "internalType": "uint256",
          "name": "id",
          "type": "uint256"
        },
        {
          "internalType": "uint256",
          "name": "index",
          "type": "uint256"
        },
        {
          "internalType": "address",
          "name": "account",
          "type": "address"
        },
        {
          "internalType": "uint256",
          "name": "amount",
          "type": "uint256"
        },
        {
          "internalType": "bytes32[]",
          "name": "merkleProof",
          "type": "bytes32[]"
        }
      ],
      "name": "claim",
      "outputs": [],
      "stateMutability": "nonpayable",
      "type": "function"
    },
    {
      "inputs": [],
      "name": "compliance",
      "outputs": [
        {
          "internalType": "contract IComplianceRegistry",
          "name": "",
          "type": "address"
        }
      ],
      "stateMutability": "view",
      "type": "function"
    },
    {
      "inputs": [
        {
          "internalType": "contract IERC20",
          "name": "asset",
          "type": "address"
        },
        {
          "internalType": "bytes32",
          "name": "partition",
          "type": "bytes32"
        },
        {
          "internalType": "bytes32",
          "name": "merkleRoot",
          "type": "bytes32"
        },
        {
          "internalType": "uint256",
          "name": "totalAmount",
          "type": "uint256"
        },
        {
          "internalType": "uint64",
          "name": "deadline",
          "type": "uint64"
        },
        {
          "internalType": "string",
          "name": "uri",
          "type": "string"
        },
        {
          "internalType": "address",
          "name": "fundFrom",
          "type": "address"
        }
      ],
      "name": "createDistribution",
      "outputs": [
        {
          "internalType": "uint256",
          "name": "id",
          "type": "uint256"
        }
      ],
      "stateMutability": "nonpayable",
      "type": "function"
    },
    {
      "inputs": [
        {
          "internalType": "uint256",
          "name": "",
          "type": "uint256"
        }
      ],
      "name": "dists",
      "outputs": [
        {
          "internalType": "contract IERC20",
          "name": "asset",
          "type": "address"
        },
        {
          "internalType": "bytes32",
          "name": "partition",
          "type": "bytes32"
        },
        {
          "internalType": "bytes32",
          "name": "merkleRoot",
          "type": "bytes32"
        },
        {
          "internalType": "uint256",
          "name": "totalAmount",
          "type": "uint256"
        },
        {
          "internalType": "uint256",
          "name": "claimedAmount",
          "type": "uint256"
        },
        {
          "internalType": "uint64",
          "name": "createdAt",
          "type": "uint64"
        },
        {
          "internalType": "uint64",
          "name": "deadline",
          "type": "uint64"
        },
        {
          "internalType": "bool",
          "name": "active",
          "type": "bool"
        },
        {
          "internalType": "string",
          "name": "uri",
          "type": "string"
        }
      ],
      "stateMutability": "view",
      "type": "function"
    },
    {
      "inputs": [
        {
          "internalType": "bytes32",
          "name": "role",
          "type": "bytes32"
        }
      ],
      "name": "getRoleAdmin",
      "outputs": [
        {
          "internalType": "bytes32",
          "name": "",
          "type": "bytes32"
        }
      ],
      "stateMutability": "view",
      "type": "function"
    },
    {
      "inputs": [
        {
          "internalType": "bytes32",
          "name": "role",
          "type": "bytes32"
        },
        {
          "internalType": "address",
          "name": "account",
          "type": "address"
        }
      ],
      "name": "grantRole",
      "outputs": [],
      "stateMutability": "nonpayable",
      "type": "function"
    },
    {
      "inputs": [
        {
          "internalType": "bytes32",
          "name": "role",
          "type": "bytes32"
        },
        {
          "internalType": "address",
          "name": "account",
          "type": "address"
        }
      ],
      "name": "hasRole",
      "outputs": [
        {
          "internalType": "bool",
          "name": "",
          "type": "bool"
        }
      ],
      "stateMutability": "view",
      "type": "function"
    },
    {
      "inputs": [
        {
          "internalType": "uint256",
          "name": "id",
          "type": "uint256"
        },
        {
          "internalType": "uint256",
          "name": "index",
          "type": "uint256"
        }
      ],
      "name": "isClaimed",
      "outputs": [
        {
          "internalType": "bool",
          "name": "",
          "type": "bool"
        }
      ],
      "stateMutability": "view",
      "type": "function"
    },
    {
      "inputs": [],
      "name": "lastId",
      "outputs": [
        {
          "internalType": "uint256",
          "name": "",
          "type": "uint256"
        }
      ],
      "stateMutability": "view",
      "type": "function"
    },
    {
      "inputs": [],
      "name": "pause",
      "outputs": [],
      "stateMutability": "nonpayable",
      "type": "function"
    },
    {
      "inputs": [],
      "name": "paused",
      "outputs": [
        {
          "internalType": "bool",
          "name": "",
          "type": "bool"
        }
      ],
      "stateMutability": "view",
      "type": "function"
    },
    {
      "inputs": [
        {
          "internalType": "bytes32",
          "name": "role",
          "type": "bytes32"
        },
        {
          "internalType": "address",
          "name": "callerConfirmation",
          "type": "address"
        }
      ],
      "name": "renounceRole",
      "outputs": [],
      "stateMutability": "nonpayable",
      "type": "function"
    },
    {
      "inputs": [
        {
          "internalType": "bytes32",
          "name": "role",
          "type": "bytes32"
        },
        {
          "internalType": "address",
          "name": "account",
          "type": "address"
        }
      ],
      "name": "revokeRole",
      "outputs": [],
      "stateMutability": "nonpayable",
      "type": "function"
    },
    {
      "inputs": [
        {
          "internalType": "contract IComplianceRegistry",
          "name": "reg",
          "type": "address"
        }
      ],
      "name": "setCompliance",
      "outputs": [],
      "stateMutability": "nonpayable",
      "type": "function"
    },
    {
      "inputs": [
        {
          "internalType": "bytes4",
          "name": "interfaceId",
          "type": "bytes4"
        }
      ],
      "name": "supportsInterface",
      "outputs": [
        {
          "internalType": "bool",
          "name": "",
          "type": "bool"
        }
      ],
      "stateMutability": "view",
      "type": "function"
    },
    {
      "inputs": [
        {
          "internalType": "uint256",
          "name": "id",
          "type": "uint256"
        },
        {
          "internalType": "address",
          "name": "to",
          "type": "address"
        }
      ],
      "name": "sweep",
      "outputs": [],
      "stateMutability": "nonpayable",
      "type": "function"
    },
    {
      "inputs": [],
      "name": "unpause",
      "outputs": [],
      "stateMutability": "nonpayable",
      "type": "function"
    }
  ],
  "bytecode": "0x608034620000a157601f6200164638819003918201601f19168301916001600160401b03831184841017620000a6578084926040948552833981010312620000a15780516001600160a01b03918282168203620000a15760200151918216809203620000a15780620000756200007c92620000bc565b506200015e565b50600480546001600160a01b03191691909117905560405161142a9081620001fc8239f35b600080fd5b634e487b7160e01b600052604160045260246000fd5b6001600160a01b031660008181527ff2d002f32e1e256ea1e928747b1832023316be30886ca415b888f7c67dd776c360205260408120549091907f2172861495e7b85edac73e3cd5fbb42dd675baadf627720e687bcfdaca0250969060ff166200015957808352826020526040832082845260205260408320600160ff1982541617905560008051602062001626833981519152339380a4600190565b505090565b6001600160a01b031660008181527fe179d4413806b7976dede8a47cbca96dcaa3e2e45cab2f4c6e4986ac667e82a560205260408120549091907ff206625bad3d9112d5609b8d356e6fbd514cd1f69980d4ce2b3e6e68e1789ace9060ff166200015957808352826020526040832082845260205260408320600160ff1982541617905560008051602062001626833981519152339380a460019056fe608080604052600436101561001357600080fd5b60003560e01c90816301ffc9a71461104a57508063248a9ca31461101b5780632f2ff15d14610fdc57806336568abe14610f955780633f4ba83a14610f065780635c975abb14610ee35780635d4df3bf14610ab55780636290865d14610a8e5780638456cb5914610a105780638ee091e3146105b857806391d148541461056a578063a217fddf1461054e578063c1292cc314610530578063cbf9b84b146103ed578063d391014b146103b2578063d547741f14610371578063dc8999b4146101f7578063f364c90c146101a7578063f5b944eb1461016c5763f8981789146100fb57600080fd5b34610167576020366003190112610167576004356001600160a01b0381168091036101675760207fa970409706553acbb8c86c1bc79621a1e9decfe2e5f083d3ee9dc215d07cea399161014c611146565b806001600160a01b03196004541617600455604051908152a1005b600080fd5b346101675760003660031901126101675760206040517ff206625bad3d9112d5609b8d356e6fbd514cd1f69980d4ce2b3e6e68e1789ace8152f35b346101675760403660031901126101675760206101ed602435600435600052600360205260406000208160081c600052602052600160ff60406000205492161b16151590565b6040519015158152f35b3461016757602080600319360112610167576004356000526002815260406000206001600160a01b038154166001926001830154926002810154906003810154906004810154600582015492600667ffffffffffffffff9301946040519560009a815491610264836110b3565b808a5292600181169081156103505750600114610316575b5050506102918660ff9798999a9b03886110ed565b60405199610120998b52888b015260408a01526060890152608088015280821660a08801528160401c1660c087015260801c16151560e0850152826101008501528051809385015260005b8381106103015750505081610140916000838284010152601f80199101168101030190f35b818101830151858201610140015282016102dc565b6000908152898120909c505b828d1061033d575050509885018601986102918660ff61027c565b8054898e018b01529b89019b8101610322565b60ff19168a8c0152505050151560051b8601870199506102918660ff61027c565b34610167576040366003190112610167576103b060043561039061109d565b908060005260006020526103ab60016040600020015461121c565b6112c1565b005b346101675760003660031901126101675760206040517f2172861495e7b85edac73e3cd5fbb42dd675baadf627720e687bcfdaca0250968152f35b346101675760403660031901126101675760043561040961109d565b6104116111c0565b610419611337565b816000526002602052604060002090600582019081549161043f60ff8460801c1661110f565b67ffffffffffffffff8360401c16806104f0575b506003840154600485015491828203948286116104da5770ff00000000000000000000000000000000191690550361048757005b6104bd82826001600160a01b037f635115695722305cd48dbad76225961b39079f2cf952cc198f13fb4904cf3512965416611355565b604080516001600160a01b039290921682526020820192909252a2005b634e487b7160e01b600052601160045260246000fd5b4211156104fd5785610453565b60405162461bcd60e51b815260206004820152600b60248201526a1b9bdd08195e1c1a5c995960aa1b6044820152606490fd5b34610167576000366003190112610167576020600554604051908152f35b3461016757600036600319011261016757602060405160008152f35b346101675760403660031901126101675761058361109d565b60043560005260006020526001600160a01b0360406000209116600052602052602060ff604060002054166040519015158152f35b346101675760e0366003190112610167576001600160a01b038060043516600435036101675767ffffffffffffffff60843516608435036101675767ffffffffffffffff60a435116101675736602360a4350112156101675767ffffffffffffffff60a43560040135116101675736602460a4356004013560a4350101116101675760c4359080821682036101675761064f6111c0565b610657611337565b8060043516156109e157604435156109b35760643515610983576005549060001982146104da5760018201600555600182016000526002602052604060002081600435166001600160a01b031982541617815560243560018201556044356002820155606435600382015560058101700100000000000000000000000000000000815467ffffffffffffffff42169070ffffffffffffffffffffffffffffffffff1916176fffffffffffffffff000000000000000060843560401b161717905561072460068201546110b3565b601f8111610930575b506000601f60a43560040135116001146108a25760069060009060a43560040135610892575b5060a4356004013560011b9060001960a4356004013560031b1c1916179101555b808316610826575b6020925060405160443581526064358482015267ffffffffffffffff6084351660408201526080606082015260a43560040135608082015260a43560040135602460a4350160a0830137600060a060a43560040135830101526024359160043516907f48283461462e1db18220221c916e8f92490ace3c89165c3913abaca3d1f23f3d600185019160a081601f19601f60a4356004013501168101030190a4600160405191018152f35b6040516323b872dd60e01b602082015292811660248401523060448401526064803581850152835260a0830167ffffffffffffffff81118482101761087c5760209361087791604052600435611398565b61077c565b634e487b7160e01b600052604160045260246000fd5b6024915060a43501013586610753565b6006820160005260206000209060005b600460a4350135601f191681106109135750600460a4350135601f198116106108ee575b50506006600160a43560040135811b01910155610774565b602460001960f860a4356004013560031b161c199160a43501013516905584806108d6565b909160206001819260248660a435010135815501930191016108b2565b600682016000526020600020601f60a435600401350160051c8101602060a435600401351061097c575b601f830160051c8201811061097057505061072d565b6000815560010161095a565b508061095a565b60405162461bcd60e51b81526020600482015260086024820152670616d6f756e743d360c41b6044820152606490fd5b60405162461bcd60e51b81526020600482015260066024820152650726f6f743d360d41b6044820152606490fd5b60405162461bcd60e51b8152602060048201526007602482015266061737365743d360cc1b6044820152606490fd5b3461016757600036600319011261016757610a29611146565b610a31611337565b600160ff19815416176001557f62e78cea01bee320cd4e420270b5ea74000d11b0c9f74754ebdbfc544b05a2586020604051338152a17f9e87fac88ff661f02d44f95383c817fece4bce600a3dab7a54406878b965e752600080a1005b346101675760003660031901126101675760206001600160a01b0360045416604051908152f35b346101675760a0366003190112610167576001600160a01b0360443516604435036101675767ffffffffffffffff60843511610167573660236084350112156101675767ffffffffffffffff6084356004013511610167573660246084356004013560051b60843501011161016757610b2c611337565b6004356000526002602052604060002067ffffffffffffffff6005820154610b5960ff8260801c1661110f565b60401c1680610ea8575b50610b97602435600435600052600360205260406000208160081c600052602052600160ff60406000205492161b16151590565b610e79576001600160a01b036004541680610dbc575b506040519060243560208301526001600160a01b0360443516604083015260643560608301526060825281608081011067ffffffffffffffff60808401111761087c57608082016040528151602083012060a0830152602060808301526080820160c083011067ffffffffffffffff60c08401111761087c5760c08201604052608082015160a083012090600281015491610c5760206084356004013560051b0160c086016110ed565b608435600481013560c086015260240160e085015b60246084356004013560051b60843501018210610dac575050906000915b60c0850151831015610cd45760e08360051b8601015190818110600014610cc157600052602052600160406000205b920191610c8a565b9060005260205260016040600020610cb9565b8303610d7b576004356000526003602052604060002060243560081c6000526020526040600020600160ff602435161b81541790556004810190815460643581018091116104da57610d389255606435906001600160a01b03604435915416611355565b60405160643581526001600160a01b036044351690602435907fb94bf7f9302edf52a596286915a69b4b0685574cffdedd0712e3c62f2550f0ba602060043592a4005b60405162461bcd60e51b81526020600482015260096024820152683130b210383937b7b360b91b6044820152606490fd5b8135815260209182019101610c6c565b602060249160405192838092630a200e5d60e41b82526001600160a01b036044351660048301525afa908115610e6d57600091610e32575b5015610e005781610bad565b60405162461bcd60e51b815260206004820152600a602482015269636f6d706c69616e636560b01b6044820152606490fd5b90506020813d602011610e65575b81610e4d602093836110ed565b81010312610167575180151581036101675782610df4565b3d9150610e40565b6040513d6000823e3d90fd5b60405162461bcd60e51b815260206004820152600760248201526618db185a5b595960ca1b6044820152606490fd5b4211610eb45781610b63565b60405162461bcd60e51b8152602060048201526007602482015266195e1c1a5c995960ca1b6044820152606490fd5b3461016757600036600319011261016757602060ff600154166040519015158152f35b3461016757600036600319011261016757610f1f611146565b60015460ff811615610f835760ff19166001557f5db9ee0a495bf2e6ff9c91a7834c1ba4fdd244a5e8aa4e537bd38aeae4b073aa6020604051338152a17fa45f47fdea8a1efdd9029a5691c7f759c32b7c698632b563573e155625d16933600080a1005b604051638dfc202b60e01b8152600490fd5b3461016757604036600319011261016757610fae61109d565b336001600160a01b03821603610fca576103b0906004356112c1565b60405163334bd91960e11b8152600490fd5b34610167576040366003190112610167576103b0600435610ffb61109d565b9080600052600060205261101660016040600020015461121c565b611242565b346101675760203660031901126101675760043560005260006020526020600160406000200154604051908152f35b34610167576020366003190112610167576004359063ffffffff60e01b821680920361016757602091637965db0b60e01b811490811561108c575b5015158152f35b6301ffc9a760e01b14905083611085565b602435906001600160a01b038216820361016757565b90600182811c921680156110e3575b60208310146110cd57565b634e487b7160e01b600052602260045260246000fd5b91607f16916110c2565b90601f8019910116810190811067ffffffffffffffff82111761087c57604052565b1561111657565b60405162461bcd60e51b8152602060048201526008602482015267696e61637469766560c01b6044820152606490fd5b3360009081527ff2d002f32e1e256ea1e928747b1832023316be30886ca415b888f7c67dd776c360205260409020547f2172861495e7b85edac73e3cd5fbb42dd675baadf627720e687bcfdaca0250969060ff16156111a25750565b6044906040519063e2517d3f60e01b82523360048301526024820152fd5b3360009081527fe179d4413806b7976dede8a47cbca96dcaa3e2e45cab2f4c6e4986ac667e82a560205260409020547ff206625bad3d9112d5609b8d356e6fbd514cd1f69980d4ce2b3e6e68e1789ace9060ff16156111a25750565b80600052600060205260406000203360005260205260ff60406000205416156111a25750565b90600091808352826020526001600160a01b036040842092169182845260205260ff604084205416156000146112bc57808352826020526040832082845260205260408320600160ff198254161790557f2f8788117e7eff1d82e926ec794901d17c78024a50270940304540a733656f0d339380a4600190565b505090565b90600091808352826020526001600160a01b036040842092169182845260205260ff6040842054166000146112bc5780835282602052604083208284526020526040832060ff1981541690557ff6391f5c32d9c69d2a47ea670b442974b53935d1edc7fd64eb21e047a839171b339380a4600190565b60ff6001541661134357565b60405163d93c066560e01b8152600490fd5b60405163a9059cbb60e01b60208201526001600160a01b03929092166024830152604480830193909352918152611396916113916064836110ed565b611398565b565b906000602091828151910182855af115610e6d576000513d6113eb57506001600160a01b0381163b155b6113c95750565b604051635274afe760e01b81526001600160a01b039091166004820152602490fd5b600114156113c256fea2646970667358221220dfb4f7cceaf2eeac3d606e08b3bf2904921af4c72b62cee943549f48918888b164736f6c634300081800332f8788117e7eff1d82e926ec794901d17c78024a50270940304540a733656f0d",
  "linkReferences": {},
  "deployedLinkReferences": {}
}