{
  "_format": "hh-sol-artifact-1",
  "contractName": "ReserveProofRegistry",
  "sourceName": "contracts/ReserveProofRegistry.sol",
  "abi": [
    {
      "inputs": [],
      "stateMutability": "nonpayable",
      "type": "constructor"
    },
    {
      "inputs": [],
      "name": "AccessControlBadConfirmation",
      "type": "error"
    },
    {
      "inputs": [
        {
          "internalType": "address",
          "name": "account",
          "type": "address"
        },
        {
          "internalType": "bytes32",
          "name": "neededRole",
          "type": "bytes32"
        }
      ],
      "name": "AccessControlUnauthorizedAccount",
      "type": "error"
    },
    {
      "inputs": [
        {
          "internalType": "address",
          "name": "target",
          "type": "address"
        }
      ],
      "name": "AddressEmptyCode",
      "type": "error"
    },
    {
      "inputs": [],
      "name": "ECDSAInvalidSignature",
      "type": "error"
    },
    {
      "inputs": [
        {
          "internalType": "uint256",
          "name": "length",
          "type": "uint256"
        }
      ],
      "name": "ECDSAInvalidSignatureLength",
      "type": "error"
    },
    {
      "inputs": [
        {
          "internalType": "bytes32",
          "name": "s",
          "type": "bytes32"
        }
      ],
      "name": "ECDSAInvalidSignatureS",
      "type": "error"
    },
    {
      "inputs": [
        {
          "internalType": "address",
          "name": "implementation",
          "type": "address"
        }
      ],
      "name": "ERC1967InvalidImplementation",
      "type": "error"
    },
    {
      "inputs": [],
      "name": "ERC1967NonPayable",
      "type": "error"
    },
    {
      "inputs": [],
      "name": "EnforcedPause",
      "type": "error"
    },
    {
      "inputs": [],
      "name": "ExpectedPause",
      "type": "error"
    },
    {
      "inputs": [],
      "name": "FailedCall",
      "type": "error"
    },
    {
      "inputs": [],
      "name": "InvalidInitialization",
      "type": "error"
    },
    {
      "inputs": [],
      "name": "NotInitializing",
      "type": "error"
    },
    {
      "inputs": [],
      "name": "ReentrancyGuardReentrantCall",
      "type": "error"
    },
    {
      "inputs": [],
      "name": "UUPSUnauthorizedCallContext",
      "type": "error"
    },
    {
      "inputs": [
        {
          "internalType": "bytes32",
          "name": "slot",
          "type": "bytes32"
        }
      ],
      "name": "UUPSUnsupportedProxiableUUID",
      "type": "error"
    },
    {
      "anonymous": false,
      "inputs": [
        {
          "indexed": true,
          "internalType": "bytes32",
          "name": "reserveId",
          "type": "bytes32"
        },
        {
          "indexed": false,
          "internalType": "bytes32",
          "name": "digest",
          "type": "bytes32"
        },
        {
          "indexed": true,
          "internalType": "address",
          "name": "auditor",
          "type": "address"
        },
        {
          "indexed": false,
          "internalType": "uint64",
          "name": "start",
          "type": "uint64"
        },
        {
          "indexed": false,
          "internalType": "uint64",
          "name": "end",
          "type": "uint64"
        },
        {
          "indexed": false,
          "internalType": "uint64",
          "name": "validUntil",
          "type": "uint64"
        },
        {
          "indexed": false,
          "internalType": "uint256",
          "name": "totalAssets",
          "type": "uint256"
        },
        {
          "indexed": false,
          "internalType": "uint256",
          "name": "totalLiabilities",
          "type": "uint256"
        },
        {
          "indexed": false,
          "internalType": "bytes32",
          "name": "cid",
          "type": "bytes32"
        },
        {
          "indexed": false,
          "internalType": "uint64",
          "name": "nonce",
          "type": "uint64"
        }
      ],
      "name": "AttestationSubmitted",
      "type": "event"
    },
    {
      "anonymous": false,
      "inputs": [
        {
          "indexed": true,
          "internalType": "bytes32",
          "name": "reserveId",
          "type": "bytes32"
        },
        {
          "indexed": true,
          "internalType": "address",
          "name": "auditor",
          "type": "address"
        }
      ],
      "name": "AuditorPinned",
      "type": "event"
    },
    {
      "anonymous": false,
      "inputs": [
        {
          "indexed": true,
          "internalType": "bytes32",
          "name": "reserveId",
          "type": "bytes32"
        }
      ],
      "name": "AuditorUnpinned",
      "type": "event"
    },
    {
      "anonymous": false,
      "inputs": [],
      "name": "EIP712DomainChanged",
      "type": "event"
    },
    {
      "anonymous": false,
      "inputs": [
        {
          "indexed": false,
          "internalType": "uint64",
          "name": "version",
          "type": "uint64"
        }
      ],
      "name": "Initialized",
      "type": "event"
    },
    {
      "anonymous": false,
      "inputs": [
        {
          "indexed": false,
          "internalType": "address",
          "name": "account",
          "type": "address"
        }
      ],
      "name": "Paused",
      "type": "event"
    },
    {
      "anonymous": false,
      "inputs": [
        {
          "indexed": true,
          "internalType": "address",
          "name": "by",
          "type": "address"
        }
      ],
      "name": "RegistryPaused",
      "type": "event"
    },
    {
      "anonymous": false,
      "inputs": [
        {
          "indexed": true,
          "internalType": "address",
          "name": "by",
          "type": "address"
        }
      ],
      "name": "RegistryUnpaused",
      "type": "event"
    },
    {
      "anonymous": false,
      "inputs": [
        {
          "indexed": true,
          "internalType": "bytes32",
          "name": "role",
          "type": "bytes32"
        },
        {
          "indexed": true,
          "internalType": "bytes32",
          "name": "previousAdminRole",
          "type": "bytes32"
        },
        {
          "indexed": true,
          "internalType": "bytes32",
          "name": "newAdminRole",
          "type": "bytes32"
        }
      ],
      "name": "RoleAdminChanged",
      "type": "event"
    },
    {
      "anonymous": false,
      "inputs": [
        {
          "indexed": true,
          "internalType": "bytes32",
          "name": "role",
          "type": "bytes32"
        },
        {
          "indexed": true,
          "internalType": "address",
          "name": "account",
          "type": "address"
        },
        {
          "indexed": true,
          "internalType": "address",
          "name": "sender",
          "type": "address"
        }
      ],
      "name": "RoleGranted",
      "type": "event"
    },
    {
      "anonymous": false,
      "inputs": [
        {
          "indexed": true,
          "internalType": "bytes32",
          "name": "role",
          "type": "bytes32"
        },
        {
          "indexed": true,
          "internalType": "address",
          "name": "account",
          "type": "address"
        },
        {
          "indexed": true,
          "internalType": "address",
          "name": "sender",
          "type": "address"
        }
      ],
      "name": "RoleRevoked",
      "type": "event"
    },
    {
      "anonymous": false,
      "inputs": [
        {
          "indexed": false,
          "internalType": "address",
          "name": "account",
          "type": "address"
        }
      ],
      "name": "Unpaused",
      "type": "event"
    },
    {
      "anonymous": false,
      "inputs": [
        {
          "indexed": true,
          "internalType": "address",
          "name": "implementation",
          "type": "address"
        }
      ],
      "name": "Upgraded",
      "type": "event"
    },
    {
      "inputs": [],
      "name": "ATTESTATION_TYPEHASH",
      "outputs": [
        {
          "internalType": "bytes32",
          "name": "",
          "type": "bytes32"
        }
      ],
      "stateMutability": "view",
      "type": "function"
    },
    {
      "inputs": [],
      "name": "AUDITOR_ROLE",
      "outputs": [
        {
          "internalType": "bytes32",
          "name": "",
          "type": "bytes32"
        }
      ],
      "stateMutability": "view",
      "type": "function"
    },
    {
      "inputs": [],
      "name": "DEFAULT_ADMIN_ROLE",
      "outputs": [
        {
          "internalType": "bytes32",
          "name": "",
          "type": "bytes32"
        }
      ],
      "stateMutability": "view",
      "type": "function"
    },
    {
      "inputs": [],
      "name": "GOVERNOR_ROLE",
      "outputs": [
        {
          "internalType": "bytes32",
          "name": "",
          "type": "bytes32"
        }
      ],
      "stateMutability": "view",
      "type": "function"
    },
    {
      "inputs": [],
      "name": "REPORTER_ROLE",
      "outputs": [
        {
          "internalType": "bytes32",
          "name": "",
          "type": "bytes32"
        }
      ],
      "stateMutability": "view",
      "type": "function"
    },
    {
      "inputs": [],
      "name": "UPGRADE_INTERFACE_VERSION",
      "outputs": [
        {
          "internalType": "string",
          "name": "",
          "type": "string"
        }
      ],
      "stateMutability": "view",
      "type": "function"
    },
    {
      "inputs": [],
      "name": "domainSeparator",
      "outputs": [
        {
          "internalType": "bytes32",
          "name": "",
          "type": "bytes32"
        }
      ],
      "stateMutability": "view",
      "type": "function"
    },
    {
      "inputs": [],
      "name": "eip712Domain",
      "outputs": [
        {
          "internalType": "bytes1",
          "name": "fields",
          "type": "bytes1"
        },
        {
          "internalType": "string",
          "name": "name",
          "type": "string"
        },
        {
          "internalType": "string",
          "name": "version",
          "type": "string"
        },
        {
          "internalType": "uint256",
          "name": "chainId",
          "type": "uint256"
        },
        {
          "internalType": "address",
          "name": "verifyingContract",
          "type": "address"
        },
        {
          "internalType": "bytes32",
          "name": "salt",
          "type": "bytes32"
        },
        {
          "internalType": "uint256[]",
          "name": "extensions",
          "type": "uint256[]"
        }
      ],
      "stateMutability": "view",
      "type": "function"
    },
    {
      "inputs": [
        {
          "internalType": "bytes32",
          "name": "role",
          "type": "bytes32"
        }
      ],
      "name": "getRoleAdmin",
      "outputs": [
        {
          "internalType": "bytes32",
          "name": "",
          "type": "bytes32"
        }
      ],
      "stateMutability": "view",
      "type": "function"
    },
    {
      "inputs": [
        {
          "internalType": "bytes32",
          "name": "role",
          "type": "bytes32"
        },
        {
          "internalType": "address",
          "name": "account",
          "type": "address"
        }
      ],
      "name": "grantRole",
      "outputs": [],
      "stateMutability": "nonpayable",
      "type": "function"
    },
    {
      "inputs": [
        {
          "internalType": "bytes32",
          "name": "role",
          "type": "bytes32"
        },
        {
          "internalType": "address",
          "name": "account",
          "type": "address"
        }
      ],
      "name": "hasRole",
      "outputs": [
        {
          "internalType": "bool",
          "name": "",
          "type": "bool"
        }
      ],
      "stateMutability": "view",
      "type": "function"
    },
    {
      "inputs": [
        {
          "internalType": "address",
          "name": "admin",
          "type": "address"
        },
        {
          "internalType": "address",
          "name": "governor",
          "type": "address"
        }
      ],
      "name": "initialize",
      "outputs": [],
      "stateMutability": "nonpayable",
      "type": "function"
    },
    {
      "inputs": [
        {
          "internalType": "bytes32",
          "name": "",
          "type": "bytes32"
        }
      ],
      "name": "lastNonce",
      "outputs": [
        {
          "internalType": "uint64",
          "name": "",
          "type": "uint64"
        }
      ],
      "stateMutability": "view",
      "type": "function"
    },
    {
      "inputs": [
        {
          "internalType": "bytes32",
          "name": "reserveId",
          "type": "bytes32"
        }
      ],
      "name": "latest",
      "outputs": [
        {
          "components": [
            {
              "internalType": "address",
              "name": "auditor",
              "type": "address"
            },
            {
              "internalType": "uint64",
              "name": "start",
              "type": "uint64"
            },
            {
              "internalType": "uint64",
              "name": "end",
              "type": "uint64"
            },
            {
              "internalType": "uint64",
              "name": "validUntil",
              "type": "uint64"
            },
            {
              "internalType": "uint64",
              "name": "nonce",
              "type": "uint64"
            },
            {
              "internalType": "uint256",
              "name": "totalAssets",
              "type": "uint256"
            },
            {
              "internalType": "uint256",
              "name": "totalLiabilities",
              "type": "uint256"
            },
            {
              "internalType": "bytes32",
              "name": "cid",
              "type": "bytes32"
            },
            {
              "internalType": "bytes32",
              "name": "digest",
              "type": "bytes32"
            },
            {
              "internalType": "uint64",
              "name": "storedAt",
              "type": "uint64"
            },
            {
              "internalType": "uint64",
              "name": "storedAtBlock",
              "type": "uint64"
            }
          ],
          "internalType": "struct ReserveProofRegistry.StoredAttestation",
          "name": "",
          "type": "tuple"
        }
      ],
      "stateMutability": "view",
      "type": "function"
    },
    {
      "inputs": [],
      "name": "pause",
      "outputs": [],
      "stateMutability": "nonpayable",
      "type": "function"
    },
    {
      "inputs": [],
      "name": "paused",
      "outputs": [
        {
          "internalType": "bool",
          "name": "",
          "type": "bool"
        }
      ],
      "stateMutability": "view",
      "type": "function"
    },
    {
      "inputs": [
        {
          "internalType": "bytes32",
          "name": "reserveId",
          "type": "bytes32"
        },
        {
          "internalType": "address",
          "name": "auditor",
          "type": "address"
        }
      ],
      "name": "pinAuditor",
      "outputs": [],
      "stateMutability": "nonpayable",
      "type": "function"
    },
    {
      "inputs": [
        {
          "internalType": "bytes32",
          "name": "",
          "type": "bytes32"
        }
      ],
      "name": "pinnedAuditor",
      "outputs": [
        {
          "internalType": "address",
          "name": "",
          "type": "address"
        }
      ],
      "stateMutability": "view",
      "type": "function"
    },
    {
      "inputs": [],
      "name": "proxiableUUID",
      "outputs": [
        {
          "internalType": "bytes32",
          "name": "",
          "type": "bytes32"
        }
      ],
      "stateMutability": "view",
      "type": "function"
    },
    {
      "inputs": [
        {
          "internalType": "bytes32",
          "name": "role",
          "type": "bytes32"
        },
        {
          "internalType": "address",
          "name": "callerConfirmation",
          "type": "address"
        }
      ],
      "name": "renounceRole",
      "outputs": [],
      "stateMutability": "nonpayable",
      "type": "function"
    },
    {
      "inputs": [
        {
          "internalType": "bytes32",
          "name": "role",
          "type": "bytes32"
        },
        {
          "internalType": "address",
          "name": "account",
          "type": "address"
        }
      ],
      "name": "revokeRole",
      "outputs": [],
      "stateMutability": "nonpayable",
      "type": "function"
    },
    {
      "inputs": [
        {
          "components": [
            {
              "internalType": "bytes32",
              "name": "reserveId",
              "type": "bytes32"
            },
            {
              "internalType": "address",
              "name": "auditor",
              "type": "address"
            },
            {
              "internalType": "uint64",
              "name": "start",
              "type": "uint64"
            },
            {
              "internalType": "uint64",
              "name": "end",
              "type": "uint64"
            },
            {
              "internalType": "uint64",
              "name": "validUntil",
              "type": "uint64"
            },
            {
              "internalType": "uint256",
              "name": "totalAssets",
              "type": "uint256"
            },
            {
              "internalType": "uint256",
              "name": "totalLiabilities",
              "type": "uint256"
            },
            {
              "internalType": "bytes32",
              "name": "cid",
              "type": "bytes32"
            },
            {
              "internalType": "uint64",
              "name": "nonce",
              "type": "uint64"
            }
          ],
          "internalType": "struct ReserveProofRegistry.ReserveAttestation",
          "name": "att",
          "type": "tuple"
        },
        {
          "internalType": "bytes",
          "name": "signature",
          "type": "bytes"
        }
      ],
      "name": "submitReserveAttestation",
      "outputs": [],
      "stateMutability": "nonpayable",
      "type": "function"
    },
    {
      "inputs": [
        {
          "internalType": "bytes4",
          "name": "interfaceId",
          "type": "bytes4"
        }
      ],
      "name": "supportsInterface",
      "outputs": [
        {
          "internalType": "bool",
          "name": "",
          "type": "bool"
        }
      ],
      "stateMutability": "view",
      "type": "function"
    },
    {
      "inputs": [],
      "name": "unpause",
      "outputs": [],
      "stateMutability": "nonpayable",
      "type": "function"
    },
    {
      "inputs": [
        {
          "internalType": "bytes32",
          "name": "reserveId",
          "type": "bytes32"
        }
      ],
      "name": "unpinAuditor",
      "outputs": [],
      "stateMutability": "nonpayable",
      "type": "function"
    },
    {
      "inputs": [
        {
          "internalType": "address",
          "name": "newImplementation",
          "type": "address"
        },
        {
          "internalType": "bytes",
          "name": "data",
          "type": "bytes"
        }
      ],
      "name": "upgradeToAndCall",
      "outputs": [],
      "stateMutability": "payable",
      "type": "function"
    }
  ],
  "bytecode": "0x60a080604052346100cc57306080527ff0c57e16840df040f15088dc2f81fe391c3923bec73e23a9662efc9c229c6a009081549060ff8260401c166100bd57506001600160401b036002600160401b031982821601610078575b60405161261390816100d2823960805181818161077a01526110980152f35b6001600160401b031990911681179091556040519081527fc7f505b2f371ae2175ee4913f4499e1f2633a7b5936321eed1cdaeb6115181d290602090a1388080610059565b63f92ee8a960e01b8152600490fd5b600080fdfe608080604052600436101561001357600080fd5b60003560e01c90816301ffc9a714611bad5750806307090c1f14611b7257806318a1551614611b3d578063248a9ca314611b015780632f2ff15d14611ab557806332c4672514611a0957806336568abe146119c25780633f4ba83a146119135780633f60d799146118d8578063485cc955146112835780634f1ef2861461104857806350c37a47146107dc57806352d1902d1461075f5780635c975abb1461071d5780636e1d616e146106e257806379feb1071461055c5780638456cb59146104bd57806384b0196e1461034357806391d14854146102e8578063a217fddf146102cc578063ad3cb1cc14610282578063b369fef114610223578063ca7db830146101ee578063ccc57490146101b3578063d547741f146101655763f698da251461013d57600080fd5b346101605760003660031901126101605760206101586123a6565b604051908152f35b600080fd5b34610160576040366003190112610160576101b1600435610184611c00565b90806000526000805160206125be8339815191526020526101ac600160406000200154611de1565b611ffe565b005b346101605760003660031901126101605760206040517f7935bd0ae54bc31f548c14dba4d37c5c64b3f8ca900cb468fb8abd54d5894f558152f35b3461016057602036600319011261016057600435600052600160205260206001600160401b0360406000205416604051908152f35b346101605760203660031901126101605760043561023f611d85565b80600052600260205260406000206001600160a01b031981541690557ff3f0cf82d8d3e7a7e2ddf9031ebc24389f8de84b17322e882c1772a6afca5d65600080a2005b34610160576000366003190112610160576102c86040516102a281611c48565b60058152640352e302e360dc1b6020820152604051918291602083526020830190611cd6565b0390f35b3461016057600036600319011261016057602060405160008152f35b3461016057604036600319011261016057610301611c00565b6004356000526000805160206125be8339815191526020526001600160a01b0360406000209116600052602052602060ff604060002054166040519015158152f35b34610160576000366003190112610160577fa16a46d94261c7517cc8ff89f61c0ce93598e3c849801011dee649a6a557d100541580610494575b1561044f5761038a6120f9565b6103926121e3565b6040516020808201928284106001600160401b03851117610439579160206103ec85946103de979660405260008452604051978897600f60f81b895260e0858a015260e0890190611cd6565b908782036040890152611cd6565b91466060870152306080870152600060a087015285830360c0870152519182815201929160005b82811061042257505050500390f35b835185528695509381019392810192600101610413565b634e487b7160e01b600052604160045260246000fd5b60405162461bcd60e51b815260206004820152601560248201527f4549503731323a20556e696e697469616c697a656400000000000000000000006044820152606490fd5b507fa16a46d94261c7517cc8ff89f61c0ce93598e3c849801011dee649a6a557d101541561037d565b34610160576000366003190112610160576104d6611d85565b6104de612082565b7fcd5ed15c6e187e77e9aee88184c21f4f2182ab5827cb3b7e07fbedcd63f03300600160ff198254161790557f62e78cea01bee320cd4e420270b5ea74000d11b0c9f74754ebdbfc544b05a2586020604051338152a1337f0791e63d77b61bb6580956f9ccd39556c860ae1c97847fe2ee766e1d361b6baf600080a2005b3461016057602036600319011261016057600061014060405161057e81611c2c565b8281528260208201528260408201528260608201528260808201528260a08201528260c08201528260e082015282610100820152826101208201520152600435600052600060205261016060406000206001600160401b036101406040516105e581611c2c565b8260068554956001600160a01b0387168452828760a01c1660208501528260018201548181166040870152818160401c16606087015260801c166080850152600281015460a0850152600381015460c0850152600481015460e08501526005810154610100850152015481811661012084015260401c16828201526001600160a01b036040519416845282602082015116602085015282604082015116604085015282606082015116606085015282608082015116608085015260a081015160a085015260c081015160c085015260e081015160e08501526101008101516101008501528261012082015116610120850152015116610140820152f35b346101605760003660031901126101605760206040517f59a1c48e5837ad7a7f3dcedcbe129bf3249ec4fbf651fd4f5e2600ead39fe2f58152f35b3461016057600036600319011261016057602060ff7fcd5ed15c6e187e77e9aee88184c21f4f2182ab5827cb3b7e07fbedcd63f0330054166040519015158152f35b34610160576000366003190112610160576001600160a01b037f00000000000000000000000000000000000000000000000000000000000000001630036107ca5760206040517f360894a13ba1a3210667c828492db98dca3e2076cc3735a920a3ca505d382bbc8152f35b60405163703e46dd60e11b8152600490fd5b3461016057366003190161014081126101605761012013610160576001600160401b0361012435116101605736602361012435011215610160576001600160401b03610124356004013511610160573660246101243560040135610124350101116101605760027f9b779b17422d0df92223018b32b4d1fa46e071723d6817e2486d003becc55f0054146110365760027f9b779b17422d0df92223018b32b4d1fa46e071723d6817e2486d003becc55f0055610896612082565b3360009081527f0ccd620bf3d160560a080a952c4e6ce3e60ff6f3efdae66194d44e6af719809560205260409020547f3204c940063673962b481a0395619b3dbbd137589c419e993978c1c71bcf68ec9060ff16156110185760043515610fe5576001600160a01b03610907611d16565b1615610fb457610915611d2c565b6001600160401b0380610926611d42565b1691161015610f8157610937611d58565b6001600160401b0342911610610f545760e43515610f27576042610959611d16565b6001600160401b03610969611d2c565b81610972611d42565b8161097b611d58565b9181610985611d6e565b956001600160a01b03604051997f2fde04132e18a79df23e05224dcc98208ea0d1f9960ecdf339295eef31a0f85a60208c015260043560408c01521660608a01521660808801521660a08601521660c084015260a43560e084015260c43561010084015260e435610120840152166101408201526101408152610a0781611c2c565b60208151910120610a166123a6565b906040519161190160f01b83526002830152602282015220610a5b610a52610a4c36610124356004013560246101243501611c9f565b836122e5565b90929192612321565b6001600160a01b03610a6b611d16565b166001600160a01b03821603610ee2576001600160a01b03811660009081527fc3e71cdf4d6b19b51728813415f497e36084f42794ee08da6ceade2e0e3ab212602052604090205460ff1615610e9d5760043560005260026020526001600160a01b03604060002054169081610e43575b505060043560005260016020526001600160401b03604060002054166001610b02611d6e565b91016001600160401b038111610e2d576001600160401b03809116911603610dfc57610b2c611d6e565b60043560005260016020526001600160401b03604060002091166001600160401b0319825416179055610d38610b60611d16565b6001600160401b03610b70611d2c565b81610b79611d42565b81610b82611d58565b9181610b8c611d6e565b956001600160a01b0360405199610ba28b611c2c565b16895216602088015216604086015216606084015216608082015260a43560a082015260c43560c082015260e43560e0820152826101008201526001600160401b0342166101208201526001600160401b03431661014082015260043560005260006020526001600160401b03610140600660406000206001600160a01b038551168154908560a01b602088015160a01b169163ffffffff60e01b161717815560018101846040870151168519825416178155610c8885606088015116829067ffffffffffffffff60401b82549160401b169067ffffffffffffffff60401b1916179055565b60808601517fffffffffffffffff0000000000000000ffffffffffffffffffffffffffffffff77ffffffffffffffff0000000000000000000000000000000083549260801b16911617905560a0850151600282015560c0850151600382015560e08501516004820155610100850151600582015501928261012082015116831985541617845501511667ffffffffffffffff60401b82549160401b169067ffffffffffffffff60401b1916179055565b6001600160a01b03610d48611d16565b6001600160401b03610d58611d2c565b81610d61611d42565b81610d6a611d58565b9181610d74611d6e565b956040519a8b521660208a015216604088015216606086015260a435608086015260c43560a086015260e43560c08601521660e084015216907f7cff104134ba5055952dc9a8e6880eac98076a7f21e444610d02b12ce453472661010060043592a360017f9b779b17422d0df92223018b32b4d1fa46e071723d6817e2486d003becc55f0055005b60405162461bcd60e51b8152602060048201526009602482015268626164206e6f6e636560b81b6044820152606490fd5b634e487b7160e01b600052601160045260246000fd5b6001600160a01b031603610e58578180610adc565b60405162461bcd60e51b815260206004820152601260248201527f61756469746f72206e6f742070696e6e656400000000000000000000000000006044820152606490fd5b60405162461bcd60e51b815260206004820152601360248201527f61756469746f72206e6f7420616c6c6f776564000000000000000000000000006044820152606490fd5b60405162461bcd60e51b815260206004820152601160248201527f7369676e657220213d2061756469746f720000000000000000000000000000006044820152606490fd5b60405162461bcd60e51b815260206004820152600560248201526406369643d360dc1b6044820152606490fd5b60405162461bcd60e51b81526020600482015260056024820152647374616c6560d81b6044820152606490fd5b60405162461bcd60e51b815260206004820152600b60248201526a74696d652077696e646f7760a81b6044820152606490fd5b60405162461bcd60e51b8152602060048201526009602482015268061756469746f723d360bc1b6044820152606490fd5b60405162461bcd60e51b815260206004820152600b60248201526a07265736572766549643d360ac1b6044820152606490fd5b6044906040519063e2517d3f60e01b82523360048301526024820152fd5b604051633ee5aeb560e01b8152600490fd5b60403660031901126101605761105c611c16565b6024356001600160401b03811161016057366023820112156101605761108c903690602481600401359101611c9f565b906001600160a01b03807f000000000000000000000000000000000000000000000000000000000000000016803014908115611255575b506107ca576110d0611d85565b6040516352d1902d60e01b8152908216916020918281600481875afa60009181611226575b5061111357604051634c9c8ce360e01b815260048101859052602490fd5b9284937f360894a13ba1a3210667c828492db98dca3e2076cc3735a920a3ca505d382bbc9081810361120e5750823b156111f557805473ffffffffffffffffffffffffffffffffffffffff191682179055604051907fbc7cd75a20ee27fd9adebab32041f755214dbc6bffa90cc0225b39da2e5c2d3b600080a28351156111db575060008084846101b196519101845af4903d156111d2573d6111b581611c84565b906111c36040519283611c63565b8152600081943d92013e61255a565b6060925061255a565b92505050346111e657005b63b398979f60e01b8152600490fd5b604051634c9c8ce360e01b815260048101839052602490fd5b60249060405190632a87526960e21b82526004820152fd5b9091508381813d831161124e575b61123e8183611c63565b81010312610160575190866110f5565b503d611234565b9050817f360894a13ba1a3210667c828492db98dca3e2076cc3735a920a3ca505d382bbc54161415846110c3565b346101605760403660031901126101605761129c611c16565b6112a4611c00565b907ff0c57e16840df040f15088dc2f81fe391c3923bec73e23a9662efc9c229c6a0054906001600160401b038216801590816118c8575b60011490816118be575b1590816118b5575b506118a35760016001600160401b03198316177ff0c57e16840df040f15088dc2f81fe391c3923bec73e23a9662efc9c229c6a005560ff8260401c1615611864575b6113376122a4565b61133f6122a4565b6113476122a4565b61134f6122a4565b60017f9b779b17422d0df92223018b32b4d1fa46e071723d6817e2486d003becc55f005561137b6122a4565b60405161138781611c48565b601481527f5265736572766550726f6f6652656769737472790000000000000000000000006020820152604051906113be82611c48565b60018252603160f81b60208301526113d46122a4565b6113dc6122a4565b8051906001600160401b0382116104395781906114197fa16a46d94261c7517cc8ff89f61c0ce93598e3c849801011dee649a6a557d102546120bf565b601f811161179b575b50602090601f83116001146116d3576000926116c8575b50508160011b916000199060031b1c1916177fa16a46d94261c7517cc8ff89f61c0ce93598e3c849801011dee649a6a557d102555b80516001600160401b038111610439577fa16a46d94261c7517cc8ff89f61c0ce93598e3c849801011dee649a6a557d103916114aa83546120bf565b601f8111611664575b50602090601f83116001146115d557928261153b93611541969360ff99966000926115ca575b50508160011b916000199060031b1c19161790555b60007fa16a46d94261c7517cc8ff89f61c0ce93598e3c849801011dee649a6a557d1005560007fa16a46d94261c7517cc8ff89f61c0ce93598e3c849801011dee649a6a557d10155611e14565b50611eb4565b5060401c161561154d57005b68ff0000000000000000197ff0c57e16840df040f15088dc2f81fe391c3923bec73e23a9662efc9c229c6a0054167ff0c57e16840df040f15088dc2f81fe391c3923bec73e23a9662efc9c229c6a00557fc7f505b2f371ae2175ee4913f4499e1f2633a7b5936321eed1cdaeb6115181d2602060405160018152a1005b0151905089806114d9565b90601f19831691846000527f5f9ce34815f8e11431c7bb75a8e6886a91478f7ffc1dbb0a98dc240fddd76b759260005b81811061164c575093611541969360ff9996936001938361153b9810611633575b505050811b0190556114ee565b015160001960f88460031b161c19169055898080611626565b92936020600181928786015181550195019301611605565b836000527f5f9ce34815f8e11431c7bb75a8e6886a91478f7ffc1dbb0a98dc240fddd76b75601f840160051c810191602085106116be575b601f0160051c01905b8181106116b257506114b3565b600081556001016116a5565b909150819061169c565b015190508680611439565b92507fa16a46d94261c7517cc8ff89f61c0ce93598e3c849801011dee649a6a557d1026000527f42ad5d3e1f2e6e70edcf6d991b8a3023d3fca8047a131592f9edb9fd9b89d57d906000935b601f1984168510611780576001945083601f19811610611767575b505050811b017fa16a46d94261c7517cc8ff89f61c0ce93598e3c849801011dee649a6a557d1025561146e565b015160001960f88460031b161c1916905586808061173a565b8181015183556020948501946001909301929091019061171f565b9091507fa16a46d94261c7517cc8ff89f61c0ce93598e3c849801011dee649a6a557d102600052601f830160051c7f42ad5d3e1f2e6e70edcf6d991b8a3023d3fca8047a131592f9edb9fd9b89d57d016020841061183d575b908392915b601f820160051c7f42ad5d3e1f2e6e70edcf6d991b8a3023d3fca8047a131592f9edb9fd9b89d57d01811061182e5750611422565b600081558493506001016117f9565b507f42ad5d3e1f2e6e70edcf6d991b8a3023d3fca8047a131592f9edb9fd9b89d57d6117f4565b68ffffffffffffffffff19821668010000000000000001177ff0c57e16840df040f15088dc2f81fe391c3923bec73e23a9662efc9c229c6a005561132f565b60405163f92ee8a960e01b8152600490fd5b905015846112ed565b303b1591506112e5565b604084901c60ff161591506112db565b346101605760003660031901126101605760206040517f3204c940063673962b481a0395619b3dbbd137589c419e993978c1c71bcf68ec8152f35b346101605760003660031901126101605761192c611d85565b7fcd5ed15c6e187e77e9aee88184c21f4f2182ab5827cb3b7e07fbedcd63f03300805460ff8116156119b05760ff191690557f5db9ee0a495bf2e6ff9c91a7834c1ba4fdd244a5e8aa4e537bd38aeae4b073aa6020604051338152a1337f9ba7d7851c953f6a5f0aad8bccc53ba3ecfe15944a69b407b3be74189f469818600080a2005b604051638dfc202b60e01b8152600490fd5b34610160576040366003190112610160576119db611c00565b336001600160a01b038216036119f7576101b190600435611ffe565b60405163334bd91960e11b8152600490fd5b34610160576040366003190112610160576004356001600160a01b03611a2d611c00565b611a35611d85565b16908115611a82578060005260026020526040600020826001600160a01b03198254161790557fd1a49bf215e13bd1984e522568b8bde12a97da8c3bb090e675c61e7a53bfe72a600080a3005b60405162461bcd60e51b815260206004820152600b60248201526a3130b21030bab234ba37b960a91b6044820152606490fd5b34610160576040366003190112610160576101b1600435611ad4611c00565b90806000526000805160206125be833981519152602052611afc600160406000200154611de1565b611f76565b34610160576020366003190112610160576004356000526000805160206125be8339815191526020526020600160406000200154604051908152f35b3461016057602036600319011261016057600435600052600260205260206001600160a01b0360406000205416604051908152f35b346101605760003660031901126101605760206040517f2fde04132e18a79df23e05224dcc98208ea0d1f9960ecdf339295eef31a0f85a8152f35b34610160576020366003190112610160576004359063ffffffff60e01b821680920361016057602091637965db0b60e01b8114908115611bef575b5015158152f35b6301ffc9a760e01b14905083611be8565b602435906001600160a01b038216820361016057565b600435906001600160a01b038216820361016057565b61016081019081106001600160401b0382111761043957604052565b604081019081106001600160401b0382111761043957604052565b90601f801991011681019081106001600160401b0382111761043957604052565b6001600160401b03811161043957601f01601f191660200190565b929192611cab82611c84565b91611cb96040519384611c63565b829481845281830111610160578281602093846000960137010152565b919082519283825260005b848110611d02575050826000602080949584010152601f8019910116010190565b602081830181015184830182015201611ce1565b6024356001600160a01b03811681036101605790565b6044356001600160401b03811681036101605790565b6064356001600160401b03811681036101605790565b6084356001600160401b03811681036101605790565b610104356001600160401b03811681036101605790565b3360009081527f75e09417c5070057df3eafe5054d52fa0b2a87d64a235e197963b615aedee80360205260409020547f7935bd0ae54bc31f548c14dba4d37c5c64b3f8ca900cb468fb8abd54d5894f559060ff16156110185750565b806000526000805160206125be83398151915260205260406000203360005260205260ff60406000205416156110185750565b6001600160a01b031660008181527fb7db2dd08fcb62d0c9e08c51941cae53c267786a0b75803fb7960902fc8ef97d60205260408120549091906000805160206125be8339815191529060ff16611eaf578280526020526040822081835260205260408220600160ff1982541617905533917f2f8788117e7eff1d82e926ec794901d17c78024a50270940304540a733656f0d8180a4600190565b505090565b6001600160a01b031660008181527f75e09417c5070057df3eafe5054d52fa0b2a87d64a235e197963b615aedee80360205260408120549091907f7935bd0ae54bc31f548c14dba4d37c5c64b3f8ca900cb468fb8abd54d5894f55906000805160206125be8339815191529060ff16611f70578184526020526040832082845260205260408320600160ff198254161790557f2f8788117e7eff1d82e926ec794901d17c78024a50270940304540a733656f0d339380a4600190565b50505090565b906000918083526000805160206125be833981519152806020526001600160a01b036040852093169283855260205260ff60408520541615600014611f70578184526020526040832082845260205260408320600160ff198254161790557f2f8788117e7eff1d82e926ec794901d17c78024a50270940304540a733656f0d339380a4600190565b906000918083526000805160206125be833981519152806020526001600160a01b036040852093169283855260205260ff604085205416600014611f7057818452602052604083208284526020526040832060ff1981541690557ff6391f5c32d9c69d2a47ea670b442974b53935d1edc7fd64eb21e047a839171b339380a4600190565b60ff7fcd5ed15c6e187e77e9aee88184c21f4f2182ab5827cb3b7e07fbedcd63f0330054166120ad57565b60405163d93c066560e01b8152600490fd5b90600182811c921680156120ef575b60208310146120d957565b634e487b7160e01b600052602260045260246000fd5b91607f16916120ce565b604051906000827fa16a46d94261c7517cc8ff89f61c0ce93598e3c849801011dee649a6a557d1029182549261212e846120bf565b808452936020916001918281169081156121bd575060011461215c575b50505061215a92500383611c63565b565b60009081527f42ad5d3e1f2e6e70edcf6d991b8a3023d3fca8047a131592f9edb9fd9b89d57d9590935091905b8284106121a5575061215a94505050810160200138808061214b565b85548885018301529485019487945092810192612189565b925050506020925061215a94915060ff191682840152151560051b82010138808061214b565b604051906000827fa16a46d94261c7517cc8ff89f61c0ce93598e3c849801011dee649a6a557d10391825492612218846120bf565b808452936020916001918281169081156121bd57506001146122435750505061215a92500383611c63565b60009081527f5f9ce34815f8e11431c7bb75a8e6886a91478f7ffc1dbb0a98dc240fddd76b759590935091905b82841061228c575061215a94505050810160200138808061214b565b85548885018301529485019487945092810192612270565b60ff7ff0c57e16840df040f15088dc2f81fe391c3923bec73e23a9662efc9c229c6a005460401c16156122d357565b604051631afcd79f60e31b8152600490fd5b81519190604183036123165761230f92506020820151906060604084015193015160001a9061241b565b9192909190565b505060009160029190565b60048110156123905780612333575050565b6001810361234d5760405163f645eedf60e01b8152600490fd5b6002810361236e5760405163fce698f760e01b815260048101839052602490fd5b6003146123785750565b602490604051906335e2f38360e21b82526004820152fd5b634e487b7160e01b600052602160045260246000fd5b6123ae6124ab565b6123b6612515565b6040519060208201927f8b73c3c69bb8fe3d512ecc4cf759cc79239f7b179b0ffacaa9a75d522b39400f8452604083015260608201524660808201523060a082015260a0815260c081018181106001600160401b038211176104395760405251902090565b91907f7fffffffffffffffffffffffffffffff5d576e7357a4501ddfe92f46681b20a0841161249f57926020929160ff608095604051948552168484015260408301526060820152600092839182805260015afa156124935780516001600160a01b0381161561248a57918190565b50809160019190565b604051903d90823e3d90fd5b50505060009160039190565b6124b36120f9565b80519081156124c3576020012090565b50507fa16a46d94261c7517cc8ff89f61c0ce93598e3c849801011dee649a6a557d1005480156124f05790565b507fc5d2460186f7233c927e7db2dcc703c0e500b653ca82273b7bfad8045d85a47090565b61251d6121e3565b805190811561252d576020012090565b50507fa16a46d94261c7517cc8ff89f61c0ce93598e3c849801011dee649a6a557d1015480156124f05790565b90612581575080511561256f57602081519101fd5b60405163d6bda27560e01b8152600490fd5b815115806125b4575b612592575090565b604051639996b31560e01b81526001600160a01b039091166004820152602490fd5b50803b1561258a56fe02dd7bc7dec4dceedda775e58dd541e08a116c6c53815c0bd028192f7b626800a264697066735822122063c194a133d8b77501fb58ef5dd598c9001b8dd20579cd4ec2329da31563cc1764736f6c63430008180033",
  "linkReferences": {},
  "deployedLinkReferences": {}
}