{"abi":[{"type":"constructor","inputs":[{"name":"admin","type":"address","internalType":"address"},{"name":"perAddrDaily","type":"uint256","internalType":"uint256"},{"name":"globalDaily","type":"uint256","internalType":"uint256"}],"stateMutability":"nonpayable"},{"type":"function","name":"ADMIN_ROLE","inputs":[],"outputs":[{"name":"","type":"bytes32","internalType":"bytes32"}],"stateMutability":"view"},{"type":"function","name":"DEFAULT_ADMIN_ROLE","inputs":[],"outputs":[{"name":"","type":"bytes32","internalType":"bytes32"}],"stateMutability":"view"},{"type":"function","name":"getRoleAdmin","inputs":[{"name":"role","type":"bytes32","internalType":"bytes32"}],"outputs":[{"name":"","type":"bytes32","internalType":"bytes32"}],"stateMutability":"view"},{"type":"function","name":"globalUsed","inputs":[{"name":"","type":"uint256","internalType":"uint256"}],"outputs":[{"name":"","type":"uint256","internalType":"uint256"}],"stateMutability":"view"},{"type":"function","name":"grantRole","inputs":[{"name":"role","type":"bytes32","internalType":"bytes32"},{"name":"account","type":"address","internalType":"address"}],"outputs":[],"stateMutability":"nonpayable"},{"type":"function","name":"hasRole","inputs":[{"name":"role","type":"bytes32","internalType":"bytes32"},{"name":"account","type":"address","internalType":"address"}],"outputs":[{"name":"","type":"bool","internalType":"bool"}],"stateMutability":"view"},{"type":"function","name":"limits","inputs":[],"outputs":[{"name":"perAddressDaily","type":"uint256","internalType":"uint256"},{"name":"globalDaily","type":"uint256","internalType":"uint256"}],"stateMutability":"view"},{"type":"function","name":"preview","inputs":[{"name":"owner","type":"address","internalType":"address"},{"name":"amount","type":"uint256","internalType":"uint256"}],"outputs":[{"name":"u","type":"uint256","internalType":"uint256"},{"name":"g","type":"uint256","internalType":"uint256"},{"name":"perAddr","type":"uint256","internalType":"uint256"},{"name":"glob","type":"uint256","internalType":"uint256"},{"name":"immediateInt","type":"uint8","internalType":"uint8"}],"stateMutability":"view"},{"type":"function","name":"renounceRole","inputs":[{"name":"role","type":"bytes32","internalType":"bytes32"},{"name":"callerConfirmation","type":"address","internalType":"address"}],"outputs":[],"stateMutability":"nonpayable"},{"type":"function","name":"request","inputs":[{"name":"owner","type":"address","internalType":"address"},{"name":"amount","type":"uint256","internalType":"uint256"}],"outputs":[{"name":"immediate","type":"bool","internalType":"bool"}],"stateMutability":"nonpayable"},{"type":"function","name":"revokeRole","inputs":[{"name":"role","type":"bytes32","internalType":"bytes32"},{"name":"account","type":"address","internalType":"address"}],"outputs":[],"stateMutability":"nonpayable"},{"type":"function","name":"setLimits","inputs":[{"name":"perAddrDaily","type":"uint256","internalType":"uint256"},{"name":"globalDaily","type":"uint256","internalType":"uint256"}],"outputs":[],"stateMutability":"nonpayable"},{"type":"function","name":"supportsInterface","inputs":[{"name":"interfaceId","type":"bytes4","internalType":"bytes4"}],"outputs":[{"name":"","type":"bool","internalType":"bool"}],"stateMutability":"view"},{"type":"function","name":"usedBy","inputs":[{"name":"","type":"uint256","internalType":"uint256"},{"name":"","type":"address","internalType":"address"}],"outputs":[{"name":"","type":"uint256","internalType":"uint256"}],"stateMutability":"view"},{"type":"function","name":"usedToday","inputs":[{"name":"owner","type":"address","internalType":"address"}],"outputs":[{"name":"ownerUsed","type":"uint256","internalType":"uint256"},{"name":"globalUsedTotal","type":"uint256","internalType":"uint256"}],"stateMutability":"view"},{"type":"event","name":"LimitsSet","inputs":[{"name":"perAddr","type":"uint256","indexed":false,"internalType":"uint256"},{"name":"global","type":"uint256","indexed":false,"internalType":"uint256"}],"anonymous":false},{"type":"event","name":"Requested","inputs":[{"name":"owner","type":"address","indexed":true,"internalType":"address"},{"name":"amount","type":"uint256","indexed":false,"internalType":"uint256"},{"name":"immediate","type":"bool","indexed":false,"internalType":"bool"}],"anonymous":false},{"type":"event","name":"RoleAdminChanged","inputs":[{"name":"role","type":"bytes32","indexed":true,"internalType":"bytes32"},{"name":"previousAdminRole","type":"bytes32","indexed":true,"internalType":"bytes32"},{"name":"newAdminRole","type":"bytes32","indexed":true,"internalType":"bytes32"}],"anonymous":false},{"type":"event","name":"RoleGranted","inputs":[{"name":"role","type":"bytes32","indexed":true,"internalType":"bytes32"},{"name":"account","type":"address","indexed":true,"internalType":"address"},{"name":"sender","type":"address","indexed":true,"internalType":"address"}],"anonymous":false},{"type":"event","name":"RoleRevoked","inputs":[{"name":"role","type":"bytes32","indexed":true,"internalType":"bytes32"},{"name":"account","type":"address","indexed":true,"internalType":"address"},{"name":"sender","type":"address","indexed":true,"internalType":"address"}],"anonymous":false},{"type":"error","name":"AccessControlBadConfirmation","inputs":[]},{"type":"error","name":"AccessControlUnauthorizedAccount","inputs":[{"name":"account","type":"address","internalType":"address"},{"name":"neededRole","type":"bytes32","internalType":"bytes32"}]}],"bytecode":{"object":"0x6080346100e857601f610d8a38819003918201601f1916830192916001600160401b0391828511848610176100d25781606092859260409788528339810103126100e8578151916001600160a01b03831683036100e8576100728460208301519201519361006c816100ed565b5061016b565b50835192838501928311848410176100d2578060207f2a00ae88790916c355d74c47251101f6daa7fe1b163c26b2add418af558d808095879586528481520152816001558060025582519182526020820152a151610b5e908161020c8239f35b634e487b7160e01b600052604160045260246000fd5b600080fd5b6001600160a01b031660008181527fad3228b676f7d3cd4284a5443f17f1962b36e491b30a40b2405849e597ba5fb5602052604081205490919060ff1661016757818052816020526040822081835260205260408220600160ff198254161790553391600080516020610d6a8339815191528180a4600190565b5090565b6001600160a01b031660008181527f7d7ffb7a348e1c6a02869081a26547b49160dd3df72d1d75a570eb9b698292ec60205260408120549091907fa49807205ce4d355092ef5a8a18f56e8913cf4a201fbe287825b095693c217759060ff1661020657808352826020526040832082845260205260408320600160ff19825416179055600080516020610d6a833981519152339380a4600190565b50509056fe60806040908082526004908136101561001757600080fd5b600090813560e01c90816301ffc9a7146107ed5750806313ce19e3146106fe578063248a9ca3146106b55780632f2ff15d1461066e57806336568abe146105e45780634d9ca0841461059d57806375b238fc14610544578063860aefcf1461050157806391d1485414610490578063a217fddf14610457578063abec541b146103eb578063c4590d3f146102f7578063c8c01a55146101ac578063d547741f1461014c5763dea029c8146100ca57600080fd5b346101495760207ffffffffffffffffffffffffffffffffffffffffffffffffffffffffffffffffc3601126101495782906101036108aa565b6201518042049384835260205273ffffffffffffffffffffffffffffffffffffffff83832091168252602052818120549281526003602052205482519182526020820152f35b80fd5b5091346101a857807ffffffffffffffffffffffffffffffffffffffffffffffffffffffffffffffffc3601126101a8576101a4913561019f600161018e6108d2565b938387528660205286200154610980565b610a87565b5080f35b8280fd5b5082346102f357807ffffffffffffffffffffffffffffffffffffffffffffffffffffffffffffffffc3601126102f3576101e46108aa565b918160243591620151804204926101f96108f5565b90600154825260025491602098899889830194855287865260038a528686205492828b5273ffffffffffffffffffffffffffffffffffffffff8888209216918288528b528787205495879161024e8789610944565b905110156102d2575b50817f9f7c36a7e2219924bfc381f9c3b7dc675a3105ec57dc89666176e6c781baaa308980518881528415159e8f90820152a2610298575b8a8a8851908152f35b6102a5846102bc96610944565b918887528b528686209086528a5285852055610944565b928152600386522055838181808080808061028f565b6102dc8686610944565b905110156102eb575b8c610257565b5060016102e5565b5080fd5b5082346102f357807ffffffffffffffffffffffffffffffffffffffffffffffffffffffffffffffffc3601126102f35782356024357fa49807205ce4d355092ef5a8a18f56e8913cf4a201fbe287825b095693c21775948585528460205283852033865260205260ff8486205416156103b557507f2a00ae88790916c355d74c47251101f6daa7fe1b163c26b2add418af558d808093945080602061039a6108f5565b8481520152816001558060025582519182526020820152a180f35b604490868551917fe2517d3f00000000000000000000000000000000000000000000000000000000835233908301526024820152fd5b509190346101a857817ffffffffffffffffffffffffffffffffffffffffffffffffffffffffffffffffc3601126101a85760209282916104296108d2565b9080358352855273ffffffffffffffffffffffffffffffffffffffff83832091168252845220549051908152f35b5082346102f357817ffffffffffffffffffffffffffffffffffffffffffffffffffffffffffffffffc3601126102f35751908152602090f35b509190346101a857817ffffffffffffffffffffffffffffffffffffffffffffffffffffffffffffffffc3601126101a8578160209360ff926104d06108d2565b9035825281865273ffffffffffffffffffffffffffffffffffffffff83832091168252855220541690519015158152f35b83823461014957807ffffffffffffffffffffffffffffffffffffffffffffffffffffffffffffffffc360112610149575060015460025482519182526020820152f35b5082346102f357817ffffffffffffffffffffffffffffffffffffffffffffffffffffffffffffffffc3601126102f357602090517fa49807205ce4d355092ef5a8a18f56e8913cf4a201fbe287825b095693c217758152f35b509190346101a85760207ffffffffffffffffffffffffffffffffffffffffffffffffffffffffffffffffc3601126101a85760209282913581526003845220549051908152f35b5082346102f357807ffffffffffffffffffffffffffffffffffffffffffffffffffffffffffffffffc3601126102f35761061c6108d2565b903373ffffffffffffffffffffffffffffffffffffffff83160361064657506101a4919235610a87565b8390517f6697b232000000000000000000000000000000000000000000000000000000008152fd5b5091346101a857807ffffffffffffffffffffffffffffffffffffffffffffffffffffffffffffffffc3601126101a8576101a491356106b0600161018e6108d2565b6109dd565b509190346101a85760207ffffffffffffffffffffffffffffffffffffffffffffffffffffffffffffffffc3601126101a857816020936001923581528085522001549051908152f35b5091346101a857807ffffffffffffffffffffffffffffffffffffffffffffffffffffffffffffffffc3601126101a85760a0929160ff9161073d6108aa565b602435916107496108f5565b956001548752600254926020880193845262015180420482526003602052828220549560205273ffffffffffffffffffffffffffffffffffffffff8383209116825260205281812054965192519384846107a3838b610944565b111591826107d8575b5050156107d257506001935b815196875260208701528501526060840152166080820152f35b936107b8565b6107e491925087610944565b111584386107ac565b905082346101a85760207ffffffffffffffffffffffffffffffffffffffffffffffffffffffffffffffffc3601126101a857357fffffffff0000000000000000000000000000000000000000000000000000000081168091036101a857602092507f7965db0b000000000000000000000000000000000000000000000000000000008114908115610880575b5015158152f35b7f01ffc9a70000000000000000000000000000000000000000000000000000000091501483610879565b6004359073ffffffffffffffffffffffffffffffffffffffff821682036108cd57565b600080fd5b6024359073ffffffffffffffffffffffffffffffffffffffff821682036108cd57565b604051906040820182811067ffffffffffffffff82111761091557604052565b7f4e487b7100000000000000000000000000000000000000000000000000000000600052604160045260246000fd5b9190820180921161095157565b7f4e487b7100000000000000000000000000000000000000000000000000000000600052601160045260246000fd5b80600052600060205260406000203360005260205260ff60406000205416156109a65750565b604490604051907fe2517d3f0000000000000000000000000000000000000000000000000000000082523360048301526024820152fd5b906000918083528260205273ffffffffffffffffffffffffffffffffffffffff6040842092169182845260205260ff60408420541615600014610a825780835282602052604083208284526020526040832060017fffffffffffffffffffffffffffffffffffffffffffffffffffffffffffffff008254161790557f2f8788117e7eff1d82e926ec794901d17c78024a50270940304540a733656f0d339380a4600190565b505090565b906000918083528260205273ffffffffffffffffffffffffffffffffffffffff6040842092169182845260205260ff604084205416600014610a82578083528260205260408320828452602052604083207fffffffffffffffffffffffffffffffffffffffffffffffffffffffffffffff0081541690557ff6391f5c32d9c69d2a47ea670b442974b53935d1edc7fd64eb21e047a839171b339380a460019056fea26469706673582212202ea4e35888259bad040d9fe307e51628d6217e775eddf31f0effb0277a5e868464736f6c634300081800332f8788117e7eff1d82e926ec794901d17c78024a50270940304540a733656f0d","linkReferences":{}},"methodIdentifiers":{"ADMIN_ROLE()":"75b238fc","DEFAULT_ADMIN_ROLE()":"a217fddf","getRoleAdmin(bytes32)":"248a9ca3","globalUsed(uint256)":"4d9ca084","grantRole(bytes32,address)":"2f2ff15d","hasRole(bytes32,address)":"91d14854","limits()":"860aefcf","preview(address,uint256)":"13ce19e3","renounceRole(bytes32,address)":"36568abe","request(address,uint256)":"c8c01a55","revokeRole(bytes32,address)":"d547741f","setLimits(uint256,uint256)":"c4590d3f","supportsInterface(bytes4)":"01ffc9a7","usedBy(uint256,address)":"abec541b","usedToday(address)":"dea029c8"},"id":50}