{"abi":[{"type":"constructor","inputs":[{"name":"_externalRail","type":"address","internalType":"address"}],"stateMutability":"nonpayable"},{"type":"function","name":"completeGPIPayment","inputs":[{"name":"uetr","type":"string","internalType":"string"},{"name":"settlementId","type":"bytes32","internalType":"bytes32"},{"name":"receiptHash","type":"bytes32","internalType":"bytes32"}],"outputs":[],"stateMutability":"nonpayable"},{"type":"function","name":"externalRail","inputs":[],"outputs":[{"name":"","type":"address","internalType":"contract ExternalRail"}],"stateMutability":"view"},{"type":"function","name":"getGPITracking","inputs":[{"name":"uetr","type":"string","internalType":"string"}],"outputs":[{"name":"","type":"tuple","internalType":"struct Types.SWIFTTracking","components":[{"name":"uetr","type":"string","internalType":"string"},{"name":"status","type":"uint8","internalType":"enum Types.SWIFTStatus"},{"name":"timestamp","type":"uint256","internalType":"uint256"}]}],"stateMutability":"view"},{"type":"function","name":"getUETRForSettlement","inputs":[{"name":"settlementId","type":"bytes32","internalType":"bytes32"}],"outputs":[{"name":"","type":"string","internalType":"string"}],"stateMutability":"view"},{"type":"function","name":"gpiTracking","inputs":[{"name":"","type":"string","internalType":"string"}],"outputs":[{"name":"uetr","type":"string","internalType":"string"},{"name":"status","type":"uint8","internalType":"enum Types.SWIFTStatus"},{"name":"timestamp","type":"uint256","internalType":"uint256"}],"stateMutability":"view"},{"type":"function","name":"initiateGPIPayment","inputs":[{"name":"uetr","type":"string","internalType":"string"},{"name":"settlementId","type":"bytes32","internalType":"bytes32"}],"outputs":[],"stateMutability":"nonpayable"},{"type":"function","name":"owner","inputs":[],"outputs":[{"name":"","type":"address","internalType":"address"}],"stateMutability":"view"},{"type":"function","name":"rejectGPIPayment","inputs":[{"name":"uetr","type":"string","internalType":"string"},{"name":"settlementId","type":"bytes32","internalType":"bytes32"},{"name":"reason","type":"string","internalType":"string"}],"outputs":[],"stateMutability":"nonpayable"},{"type":"function","name":"renounceOwnership","inputs":[],"outputs":[],"stateMutability":"nonpayable"},{"type":"function","name":"setTrustedExecutor","inputs":[{"name":"executor","type":"address","internalType":"address"},{"name":"trusted","type":"bool","internalType":"bool"}],"outputs":[],"stateMutability":"nonpayable"},{"type":"function","name":"settlementToUETR","inputs":[{"name":"","type":"bytes32","internalType":"bytes32"}],"outputs":[{"name":"","type":"string","internalType":"string"}],"stateMutability":"view"},{"type":"function","name":"transferOwnership","inputs":[{"name":"newOwner","type":"address","internalType":"address"}],"outputs":[],"stateMutability":"nonpayable"},{"type":"function","name":"trustedExecutors","inputs":[{"name":"","type":"address","internalType":"address"}],"outputs":[{"name":"","type":"bool","internalType":"bool"}],"stateMutability":"view"},{"type":"function","name":"updateGPIStatus","inputs":[{"name":"uetr","type":"string","internalType":"string"},{"name":"status","type":"uint8","internalType":"enum Types.SWIFTStatus"}],"outputs":[],"stateMutability":"nonpayable"},{"type":"event","name":"GPIPaymentCompleted","inputs":[{"name":"uetr","type":"string","indexed":true,"internalType":"string"},{"name":"settlementId","type":"bytes32","indexed":true,"internalType":"bytes32"}],"anonymous":false},{"type":"event","name":"GPIPaymentInitiated","inputs":[{"name":"uetr","type":"string","indexed":true,"internalType":"string"},{"name":"settlementId","type":"bytes32","indexed":true,"internalType":"bytes32"},{"name":"initiator","type":"address","indexed":true,"internalType":"address"}],"anonymous":false},{"type":"event","name":"GPIPaymentRejected","inputs":[{"name":"uetr","type":"string","indexed":true,"internalType":"string"},{"name":"settlementId","type":"bytes32","indexed":true,"internalType":"bytes32"},{"name":"reason","type":"string","indexed":false,"internalType":"string"}],"anonymous":false},{"type":"event","name":"GPIStatusUpdated","inputs":[{"name":"uetr","type":"string","indexed":true,"internalType":"string"},{"name":"status","type":"uint8","indexed":false,"internalType":"enum Types.SWIFTStatus"},{"name":"timestamp","type":"uint256","indexed":false,"internalType":"uint256"}],"anonymous":false},{"type":"event","name":"OwnershipTransferred","inputs":[{"name":"previousOwner","type":"address","indexed":true,"internalType":"address"},{"name":"newOwner","type":"address","indexed":true,"internalType":"address"}],"anonymous":false},{"type":"event","name":"TrustedExecutorSet","inputs":[{"name":"executor","type":"address","indexed":true,"internalType":"address"},{"name":"trusted","type":"bool","indexed":false,"internalType":"bool"}],"anonymous":false},{"type":"error","name":"OwnableInvalidOwner","inputs":[{"name":"owner","type":"address","internalType":"address"}]},{"type":"error","name":"OwnableUnauthorizedAccount","inputs":[{"name":"account","type":"address","internalType":"address"}]},{"type":"error","name":"ReentrancyGuardReentrantCall","inputs":[]}],"bytecode":{"object":"0x60a03461010f57601f61199838819003918201601f19168301916001600160401b038311848410176101145780849260209460405283398101031261010f57516001600160a01b038082169182900361010f5733156100f6576000543360018060a01b0319821617600055604051913391167f8be0079c531659141344cd1fd0a4f28419497f9722a3daafe3b4186f6b6457e0600080a36001805581156100ca575060805260405161186d908161012b82396080518181816102f601528181610ba4015261112b0152f35b62461bcd60e51b81526020600482015260076024820152660534750493a20360cc1b6044820152606490fd5b604051631e4fbdf760e01b815260006004820152602490fd5b600080fd5b634e487b7160e01b600052604160045260246000fdfe6040608081526004908136101561001557600080fd5b600091823560e01c80633008e1e114610fd057806339918c8114610ddf578063443c27c714610c655780635bf2219614610cc35780636c92ef8d14610c65578063715018a614610bc85780637378cbfe14610b595780637a81d91b14610af45780638b9dafc61461066c5780638da5cb5b146106175780639472c8c914610553578063cb4460371461048a578063d0b02f0c146101a35763f2fde38b146100bb57600080fd5b3461019f5760207ffffffffffffffffffffffffffffffffffffffffffffffffffffffffffffffffc36011261019f576100f2611567565b906100fb6117e6565b73ffffffffffffffffffffffffffffffffffffffff809216928315610170575050600054827fffffffffffffffffffffffff0000000000000000000000000000000000000000821617600055167f8be0079c531659141344cd1fd0a4f28419497f9722a3daafe3b4186f6b6457e0600080a380f35b908460249251917f1e4fbdf7000000000000000000000000000000000000000000000000000000008352820152fd5b8280fd5b50903461019f5760607ffffffffffffffffffffffffffffffffffffffffffffffffffffffffffffffffc36011261019f5767ffffffffffffffff82358181116103c2576101f390369085016112bf565b929091602435946102026117ab565b338752602081815261021960ff858a2054166115ef565b60ff600185518888823783818a810160028152030190200154168281101561045e57600103610402576001845187878237828189810160028152030190200160037fffffffffffffffffffffffffffffffffffffffffffffffffffffffffffffff008254161790558351868682376002878201918183528381429403019020015583519060443581830152815283810192818410908411176103d457908291889385526102c583611345565b8383528360608201528360808201528360a082015260c081015273ffffffffffffffffffffffffffffffffffffffff7f00000000000000000000000000000000000000000000000000000000000000001691823b156103d05761035992888580948851968795869485937f07c150e700000000000000000000000000000000000000000000000000000000855284016116f0565b03925af180156103c65790859392916103a9575b50505192839283378101600081520390207fc929efb373045ac37d9c9be48b52c96ad398d5edc799e70175d3007f9ae097578380a36001805580f35b6103b591929350611390565b6103c2578290853861036d565b8480fd5b83513d84823e3d90fd5b8380fd5b6041827f4e487b71000000000000000000000000000000000000000000000000000000006000525260246000fd5b606492508351917f08c379a0000000000000000000000000000000000000000000000000000000008352820152601260248201527f534750493a204e6f7420616363657074656400000000000000000000000000006044820152fd5b6024896021857f4e487b7100000000000000000000000000000000000000000000000000000000835252fd5b5091346105505760207ffffffffffffffffffffffffffffffffffffffffffffffffffffffffffffffffc3601126105505782359067ffffffffffffffff82116105505736602383011215610550575060206104f461053e948360246105069536930135910161158a565b818451938285809451938492016114c5565b8101600281520301902061051981611401565b91600260ff6001840154169201549061054981519586956060875260608701906114e8565b93602086019061152b565b8301520390f35b80fd5b50903461019f57807ffffffffffffffffffffffffffffffffffffffffffffffffffffffffffffffffc36011261019f5761058b611567565b6024358015158091036103c2577fc7f02c5d28a49197a3805b45759ee4c36bf1625d8c99bc3cdc0a6a51b84662cd9273ffffffffffffffffffffffffffffffffffffffff6020936105da6117e6565b169485875283528086207fffffffffffffffffffffffffffffffffffffffffffffffffffffffffffffff0081541660ff841617905551908152a280f35b50503461066857817ffffffffffffffffffffffffffffffffffffffffffffffffffffffffffffffffc3601126106685773ffffffffffffffffffffffffffffffffffffffff60209254169051908152f35b5080fd5b50903461019f57807ffffffffffffffffffffffffffffffffffffffffffffffffffffffffffffffffc36011261019f5767ffffffffffffffff82358181116103c2576106bb90369085016112bf565b90926024928335936106cb6117ab565b8315610a9857825190848783376002828681018281526020948591030190200154610a3d578351976106fc896113a4565b61070736878a61158a565b8952828901988a8a528581014281528651888b823785818a8101600281520301902091518051878111610a12576107488161074286546112f2565b86611755565b868e6001601f84111461097357906107929383610968575b50507fffffffffffffffffffffffffffffffffffffffffffffffffffffffffffffffff8260011b9260031b1c19161790565b82555b60019a518381101561093d57906107b06002928d85016116b9565b51910155868a5260038352848a20938611610913575050908392916107df846107d984546112f2565b84611755565b8890601f85116001146108735750838061082b928b91610868575b507fffffffffffffffffffffffffffffffffffffffffffffffffffffffffffffffff8260011b9260031b1c19161790565b90555b51938437820191600083528033930390207f20fe3ebfdb65a1297ce444cba01e45efff2bcb39e7770e27ffc4aac7682324cf8580a4805580f35b9050880135386107fa565b907fffffffffffffffffffffffffffffffffffffffffffffffffffffffffffffffe08516838b52828b20928b905b8b8383106108f95750505085116108c1575b50508683811b01905561082e565b7fffffffffffffffffffffffffffffffffffffffffffffffffffffffffffffffff60f88660031b161c199088013516905538806108b3565b8b85013586558998509094019392830192908101906108a1565b60418a917f4e487b7100000000000000000000000000000000000000000000000000000000835252fd5b848d6021867f4e487b7100000000000000000000000000000000000000000000000000000000835252fd5b015190503880610760565b91927fffffffffffffffffffffffffffffffffffffffffffffffffffffffffffffffe08416868452898420935b8a8282106109fc5750509084600195949392106109c5575b505050811b018255610795565b01517fffffffffffffffffffffffffffffffffffffffffffffffffffffffffffffffff60f88460031b161c191690553880806109b8565b60018596829396860151815501950193016109a0565b858e6041877f4e487b7100000000000000000000000000000000000000000000000000000000835252fd5b601188916064938651937f08c379a00000000000000000000000000000000000000000000000000000000085528401528201527f534750493a2055455452206578697374730000000000000000000000000000006044820152fd5b86601060649260208651937f08c379a00000000000000000000000000000000000000000000000000000000085528401528201527f534750493a20456d7074792055455452000000000000000000000000000000006044820152fd5b503461019f5760207ffffffffffffffffffffffffffffffffffffffffffffffffffffffffffffffffc36011261019f578160209360ff9273ffffffffffffffffffffffffffffffffffffffff610b48611567565b168252855220541690519015158152f35b50503461066857817ffffffffffffffffffffffffffffffffffffffffffffffffffffffffffffffffc360112610668576020905173ffffffffffffffffffffffffffffffffffffffff7f0000000000000000000000000000000000000000000000000000000000000000168152f35b833461055057807ffffffffffffffffffffffffffffffffffffffffffffffffffffffffffffffffc36011261055057610bff6117e6565b600073ffffffffffffffffffffffffffffffffffffffff81547fffffffffffffffffffffffff000000000000000000000000000000000000000081168355167f8be0079c531659141344cd1fd0a4f28419497f9722a3daafe3b4186f6b6457e08280a380f35b503461019f5760207ffffffffffffffffffffffffffffffffffffffffffffffffffffffffffffffffc36011261019f5781610cbf93610cac92358152600360205220611401565b90519182916020835260208301906114e8565b0390f35b5082903461066857602091827ffffffffffffffffffffffffffffffffffffffffffffffffffffffffffffffffc36011261055057813567ffffffffffffffff811161066857610d168491369085016112bf565b92868051610d23816113a4565b606081528285820152015282865193849283378101600281520301902091835192610d4d846113a4565b610d5681611401565b845260ff6001820154168285019380821015610db1575094610d9c6002610da79360609887520154938287019485528251978897828952519188015260808701906114e8565b93519085019061152b565b5160608301520390f35b6021907f4e487b71000000000000000000000000000000000000000000000000000000006000525260246000fd5b503461019f57817ffffffffffffffffffffffffffffffffffffffffffffffffffffffffffffffffc36011261019f57803567ffffffffffffffff81116103d057610e2c90369083016112bf565b9160243581811015610fcc57610e406117ab565b338652602091808352610e5860ff87892054166115ef565b610e78600287518787823785818981018481520301902001541515611654565b8115610f70575080610ea1600392600188518888823786818a81016002815203019020016116b9565b8551858582376002868201918183528581429403019020015585518585823780868101600081520390207f47b7e36850c9a52d0038ee7cc9124f0c9d35e223c65f9b60c143834da865d5c9878051610ef9818661152b565b4287820152a214610f0d575b846001805580f35b82908451610f308282019284868537828581018a838201520380845201826113c0565b519020935192839283378101600081520390207fc929efb373045ac37d9c9be48b52c96ad398d5edc799e70175d3007f9ae097578380a338808080610f05565b606490838751917f08c379a0000000000000000000000000000000000000000000000000000000008352820152601460248201527f534750493a20496e76616c6964207374617475730000000000000000000000006044820152fd5b8580fd5b508290346106685760607ffffffffffffffffffffffffffffffffffffffffffffffffffffffffffffffffc3601126106685767ffffffffffffffff81358181116103d05761102190369084016112bf565b9094602435936044358481116112bb5761103e90369083016112bf565b9390946110496117ab565b33885260209280845261106160ff868b2054166115ef565b8451838b8237611084848201828760029483868095520301902001541515611654565b60018651858d823786818781018581520301902001817fffffffffffffffffffffffffffffffffffffffffffffffffffffffffffffff00825416179055855190848c833784820191818352868142940301902001558451916110e583611345565b89835289858401528986840152896060840152855190858201908282109082111761128f578652898152608083015273ffffffffffffffffffffffffffffffffffffffff7f00000000000000000000000000000000000000000000000000000000000000001690813b1561128b57918991898361118f958951968795869485937f59b6b10300000000000000000000000000000000000000000000000000000000855284016116f0565b03925af1801561128157611221575b50601f8480837f4bbe10103ce8eec5a996fe99f88ab6071b3af441ff35dff8e3e1138f05f364d898999a9b7fffffffffffffffffffffffffffffffffffffffffffffffffffffffffffffffe09588519283928337810160008152039020988651978689978852870152868601378985828601015201168101030190a36001805580f35b84807fffffffffffffffffffffffffffffffffffffffffffffffffffffffffffffffe0937f4bbe10103ce8eec5a996fe99f88ab6071b3af441ff35dff8e3e1138f05f364d898999a611274601f95611390565b9a9998509350505061119e565b84513d8a823e3d90fd5b8980fd5b60248b6041857f4e487b7100000000000000000000000000000000000000000000000000000000835252fd5b8680fd5b9181601f840112156112ed5782359167ffffffffffffffff83116112ed57602083818601950101116112ed57565b600080fd5b90600182811c9216801561133b575b602083101461130c57565b7f4e487b7100000000000000000000000000000000000000000000000000000000600052602260045260246000fd5b91607f1691611301565b60a0810190811067ffffffffffffffff82111761136157604052565b7f4e487b7100000000000000000000000000000000000000000000000000000000600052604160045260246000fd5b67ffffffffffffffff811161136157604052565b6060810190811067ffffffffffffffff82111761136157604052565b90601f7fffffffffffffffffffffffffffffffffffffffffffffffffffffffffffffffe0910116810190811067ffffffffffffffff82111761136157604052565b90604051918260008254611414816112f2565b908184526020946001916001811690816000146114845750600114611445575b505050611443925003836113c0565b565b600090815285812095935091905b81831061146c5750506114439350820101388080611434565b85548884018501529485019487945091830191611453565b9150506114439593507fffffffffffffffffffffffffffffffffffffffffffffffffffffffffffffff0091501682840152151560051b820101388080611434565b60005b8381106114d85750506000910152565b81810151838201526020016114c8565b907fffffffffffffffffffffffffffffffffffffffffffffffffffffffffffffffe0601f602093611524815180928187528780880191016114c5565b0116010190565b9060048210156115385752565b7f4e487b7100000000000000000000000000000000000000000000000000000000600052602160045260246000fd5b6004359073ffffffffffffffffffffffffffffffffffffffff821682036112ed57565b92919267ffffffffffffffff821161136157604051916115d260207fffffffffffffffffffffffffffffffffffffffffffffffffffffffffffffffe0601f84011601846113c0565b8294818452818301116112ed578281602093846000960137010152565b156115f657565b60646040517f08c379a000000000000000000000000000000000000000000000000000000000815260206004820152601160248201527f534750493a204e6f7420747275737465640000000000000000000000000000006044820152fd5b1561165b57565b60646040517f08c379a000000000000000000000000000000000000000000000000000000000815260206004820152601460248201527f534750493a2055455452206e6f7420666f756e640000000000000000000000006044820152fd5b9060048110156115385760ff7fffffffffffffffffffffffffffffffffffffffffffffffffffffffffffffff008354169116179055565b9060806117529360e09284526040602085015273ffffffffffffffffffffffffffffffffffffffff80825116604086015280602083015116606086015260408201511682850152606081015160a085015201519160a060c082015201906114e8565b90565b90601f811161176357505050565b6000916000526020600020906020601f850160051c830194106117a1575b601f0160051c01915b82811061179657505050565b81815560010161178a565b9092508290611781565b6002600154146117bc576002600155565b60046040517f3ee5aeb5000000000000000000000000000000000000000000000000000000008152fd5b73ffffffffffffffffffffffffffffffffffffffff60005416330361180757565b60246040517f118cdaa7000000000000000000000000000000000000000000000000000000008152336004820152fdfea2646970667358221220ad85485d4fb6d0f3f18ba5b6a498f8d85125da6a8a9708f9be39580e80f2ae5164736f6c63430008180033","linkReferences":{}},"methodIdentifiers":{"completeGPIPayment(string,bytes32,bytes32)":"d0b02f0c","externalRail()":"7378cbfe","getGPITracking(string)":"5bf22196","getUETRForSettlement(bytes32)":"6c92ef8d","gpiTracking(string)":"cb446037","initiateGPIPayment(string,bytes32)":"8b9dafc6","owner()":"8da5cb5b","rejectGPIPayment(string,bytes32,string)":"3008e1e1","renounceOwnership()":"715018a6","setTrustedExecutor(address,bool)":"9472c8c9","settlementToUETR(bytes32)":"443c27c7","transferOwnership(address)":"f2fde38b","trustedExecutors(address)":"7a81d91b","updateGPIStatus(string,uint8)":"39918c81"},"id":41}