{"abi":[{"type":"constructor","inputs":[],"stateMutability":"nonpayable"},{"type":"function","name":"DEFAULT_ADMIN_ROLE","inputs":[],"outputs":[{"name":"","type":"bytes32","internalType":"bytes32"}],"stateMutability":"view"},{"type":"function","name":"DOMAIN_SEPARATOR","inputs":[],"outputs":[{"name":"","type":"bytes32","internalType":"bytes32"}],"stateMutability":"view"},{"type":"function","name":"OP_MINT","inputs":[],"outputs":[{"name":"","type":"bytes32","internalType":"bytes32"}],"stateMutability":"view"},{"type":"function","name":"OP_NAV_ATTEST","inputs":[],"outputs":[{"name":"","type":"bytes32","internalType":"bytes32"}],"stateMutability":"view"},{"type":"function","name":"OP_REDEEM","inputs":[],"outputs":[{"name":"","type":"bytes32","internalType":"bytes32"}],"stateMutability":"view"},{"type":"function","name":"UPGRADE_INTERFACE_VERSION","inputs":[],"outputs":[{"name":"","type":"string","internalType":"string"}],"stateMutability":"view"},{"type":"function","name":"allowance","inputs":[{"name":"owner","type":"address","internalType":"address"},{"name":"spender","type":"address","internalType":"address"}],"outputs":[{"name":"","type":"uint256","internalType":"uint256"}],"stateMutability":"view"},{"type":"function","name":"anchorAttestation","inputs":[{"name":"id","type":"uint256","internalType":"uint256"}],"outputs":[],"stateMutability":"nonpayable"},{"type":"function","name":"approve","inputs":[{"name":"spender","type":"address","internalType":"address"},{"name":"value","type":"uint256","internalType":"uint256"}],"outputs":[{"name":"","type":"bool","internalType":"bool"}],"stateMutability":"nonpayable"},{"type":"function","name":"attest","inputs":[],"outputs":[{"name":"","type":"address","internalType":"contract AttestationRegistry"}],"stateMutability":"view"},{"type":"function","name":"balanceOf","inputs":[{"name":"account","type":"address","internalType":"address"}],"outputs":[{"name":"","type":"uint256","internalType":"uint256"}],"stateMutability":"view"},{"type":"function","name":"bind","inputs":[{"name":"guard_","type":"address","internalType":"address"},{"name":"attest_","type":"address","internalType":"address"},{"name":"reserve_","type":"address","internalType":"address"}],"outputs":[],"stateMutability":"nonpayable"},{"type":"function","name":"burn","inputs":[{"name":"from","type":"address","internalType":"address"},{"name":"amount","type":"uint256","internalType":"uint256"},{"name":"country","type":"bytes32","internalType":"bytes32"}],"outputs":[],"stateMutability":"nonpayable"},{"type":"function","name":"decimals","inputs":[],"outputs":[{"name":"","type":"uint8","internalType":"uint8"}],"stateMutability":"view"},{"type":"function","name":"eip712Domain","inputs":[],"outputs":[{"name":"fields","type":"bytes1","internalType":"bytes1"},{"name":"name","type":"string","internalType":"string"},{"name":"version","type":"string","internalType":"string"},{"name":"chainId","type":"uint256","internalType":"uint256"},{"name":"verifyingContract","type":"address","internalType":"address"},{"name":"salt","type":"bytes32","internalType":"bytes32"},{"name":"extensions","type":"uint256[]","internalType":"uint256[]"}],"stateMutability":"view"},{"type":"function","name":"getRoleAdmin","inputs":[{"name":"role","type":"bytes32","internalType":"bytes32"}],"outputs":[{"name":"","type":"bytes32","internalType":"bytes32"}],"stateMutability":"view"},{"type":"function","name":"grantRole","inputs":[{"name":"role","type":"bytes32","internalType":"bytes32"},{"name":"account","type":"address","internalType":"address"}],"outputs":[],"stateMutability":"nonpayable"},{"type":"function","name":"guard","inputs":[],"outputs":[{"name":"","type":"address","internalType":"contract PolicyGuard"}],"stateMutability":"view"},{"type":"function","name":"hasRole","inputs":[{"name":"role","type":"bytes32","internalType":"bytes32"},{"name":"account","type":"address","internalType":"address"}],"outputs":[{"name":"","type":"bool","internalType":"bool"}],"stateMutability":"view"},{"type":"function","name":"initialize","inputs":[{"name":"governor","type":"address","internalType":"address"},{"name":"guardian","type":"address","internalType":"address"},{"name":"name_","type":"string","internalType":"string"},{"name":"symbol_","type":"string","internalType":"string"}],"outputs":[],"stateMutability":"nonpayable"},{"type":"function","name":"lastAttAsOf","inputs":[],"outputs":[{"name":"","type":"uint64","internalType":"uint64"}],"stateMutability":"view"},{"type":"function","name":"mint","inputs":[{"name":"to","type":"address","internalType":"address"},{"name":"amount","type":"uint256","internalType":"uint256"},{"name":"country","type":"bytes32","internalType":"bytes32"}],"outputs":[],"stateMutability":"nonpayable"},{"type":"function","name":"name","inputs":[],"outputs":[{"name":"","type":"string","internalType":"string"}],"stateMutability":"view"},{"type":"function","name":"nonces","inputs":[{"name":"owner","type":"address","internalType":"address"}],"outputs":[{"name":"","type":"uint256","internalType":"uint256"}],"stateMutability":"view"},{"type":"function","name":"pause","inputs":[],"outputs":[],"stateMutability":"nonpayable"},{"type":"function","name":"paused","inputs":[],"outputs":[{"name":"","type":"bool","internalType":"bool"}],"stateMutability":"view"},{"type":"function","name":"permit","inputs":[{"name":"owner","type":"address","internalType":"address"},{"name":"spender","type":"address","internalType":"address"},{"name":"value","type":"uint256","internalType":"uint256"},{"name":"deadline","type":"uint256","internalType":"uint256"},{"name":"v","type":"uint8","internalType":"uint8"},{"name":"r","type":"bytes32","internalType":"bytes32"},{"name":"s","type":"bytes32","internalType":"bytes32"}],"outputs":[],"stateMutability":"nonpayable"},{"type":"function","name":"proxiableUUID","inputs":[],"outputs":[{"name":"","type":"bytes32","internalType":"bytes32"}],"stateMutability":"view"},{"type":"function","name":"renounceRole","inputs":[{"name":"role","type":"bytes32","internalType":"bytes32"},{"name":"callerConfirmation","type":"address","internalType":"address"}],"outputs":[],"stateMutability":"nonpayable"},{"type":"function","name":"reserve","inputs":[],"outputs":[{"name":"","type":"address","internalType":"contract ReserveVault"}],"stateMutability":"view"},{"type":"function","name":"revokeRole","inputs":[{"name":"role","type":"bytes32","internalType":"bytes32"},{"name":"account","type":"address","internalType":"address"}],"outputs":[],"stateMutability":"nonpayable"},{"type":"function","name":"supportsInterface","inputs":[{"name":"interfaceId","type":"bytes4","internalType":"bytes4"}],"outputs":[{"name":"","type":"bool","internalType":"bool"}],"stateMutability":"view"},{"type":"function","name":"symbol","inputs":[],"outputs":[{"name":"","type":"string","internalType":"string"}],"stateMutability":"view"},{"type":"function","name":"totalSupply","inputs":[],"outputs":[{"name":"","type":"uint256","internalType":"uint256"}],"stateMutability":"view"},{"type":"function","name":"transfer","inputs":[{"name":"to","type":"address","internalType":"address"},{"name":"value","type":"uint256","internalType":"uint256"}],"outputs":[{"name":"","type":"bool","internalType":"bool"}],"stateMutability":"nonpayable"},{"type":"function","name":"transferFrom","inputs":[{"name":"from","type":"address","internalType":"address"},{"name":"to","type":"address","internalType":"address"},{"name":"value","type":"uint256","internalType":"uint256"}],"outputs":[{"name":"","type":"bool","internalType":"bool"}],"stateMutability":"nonpayable"},{"type":"function","name":"unpause","inputs":[],"outputs":[],"stateMutability":"nonpayable"},{"type":"function","name":"upgradeToAndCall","inputs":[{"name":"newImplementation","type":"address","internalType":"address"},{"name":"data","type":"bytes","internalType":"bytes"}],"outputs":[],"stateMutability":"payable"},{"type":"event","name":"Approval","inputs":[{"name":"owner","type":"address","indexed":true,"internalType":"address"},{"name":"spender","type":"address","indexed":true,"internalType":"address"},{"name":"value","type":"uint256","indexed":false,"internalType":"uint256"}],"anonymous":false},{"type":"event","name":"AttestationAnchored","inputs":[{"name":"id","type":"uint256","indexed":true,"internalType":"uint256"},{"name":"asOf","type":"uint64","indexed":false,"internalType":"uint64"}],"anonymous":false},{"type":"event","name":"Bound","inputs":[{"name":"guard","type":"address","indexed":false,"internalType":"address"},{"name":"attest","type":"address","indexed":false,"internalType":"address"},{"name":"reserve","type":"address","indexed":false,"internalType":"address"}],"anonymous":false},{"type":"event","name":"Burned","inputs":[{"name":"from","type":"address","indexed":true,"internalType":"address"},{"name":"amount","type":"uint256","indexed":false,"internalType":"uint256"},{"name":"by","type":"address","indexed":true,"internalType":"address"}],"anonymous":false},{"type":"event","name":"EIP712DomainChanged","inputs":[],"anonymous":false},{"type":"event","name":"Initialized","inputs":[{"name":"version","type":"uint64","indexed":false,"internalType":"uint64"}],"anonymous":false},{"type":"event","name":"Minted","inputs":[{"name":"to","type":"address","indexed":true,"internalType":"address"},{"name":"amount","type":"uint256","indexed":false,"internalType":"uint256"},{"name":"by","type":"address","indexed":true,"internalType":"address"}],"anonymous":false},{"type":"event","name":"Paused","inputs":[{"name":"account","type":"address","indexed":false,"internalType":"address"}],"anonymous":false},{"type":"event","name":"RoleAdminChanged","inputs":[{"name":"role","type":"bytes32","indexed":true,"internalType":"bytes32"},{"name":"previousAdminRole","type":"bytes32","indexed":true,"internalType":"bytes32"},{"name":"newAdminRole","type":"bytes32","indexed":true,"internalType":"bytes32"}],"anonymous":false},{"type":"event","name":"RoleGranted","inputs":[{"name":"role","type":"bytes32","indexed":true,"internalType":"bytes32"},{"name":"account","type":"address","indexed":true,"internalType":"address"},{"name":"sender","type":"address","indexed":true,"internalType":"address"}],"anonymous":false},{"type":"event","name":"RoleRevoked","inputs":[{"name":"role","type":"bytes32","indexed":true,"internalType":"bytes32"},{"name":"account","type":"address","indexed":true,"internalType":"address"},{"name":"sender","type":"address","indexed":true,"internalType":"address"}],"anonymous":false},{"type":"event","name":"Transfer","inputs":[{"name":"from","type":"address","indexed":true,"internalType":"address"},{"name":"to","type":"address","indexed":true,"internalType":"address"},{"name":"value","type":"uint256","indexed":false,"internalType":"uint256"}],"anonymous":false},{"type":"event","name":"Unpaused","inputs":[{"name":"account","type":"address","indexed":false,"internalType":"address"}],"anonymous":false},{"type":"event","name":"Upgraded","inputs":[{"name":"implementation","type":"address","indexed":true,"internalType":"address"}],"anonymous":false},{"type":"error","name":"AccessControlBadConfirmation","inputs":[]},{"type":"error","name":"AccessControlUnauthorizedAccount","inputs":[{"name":"account","type":"address","internalType":"address"},{"name":"neededRole","type":"bytes32","internalType":"bytes32"}]},{"type":"error","name":"AddressEmptyCode","inputs":[{"name":"target","type":"address","internalType":"address"}]},{"type":"error","name":"ECDSAInvalidSignature","inputs":[]},{"type":"error","name":"ECDSAInvalidSignatureLength","inputs":[{"name":"length","type":"uint256","internalType":"uint256"}]},{"type":"error","name":"ECDSAInvalidSignatureS","inputs":[{"name":"s","type":"bytes32","internalType":"bytes32"}]},{"type":"error","name":"ERC1967InvalidImplementation","inputs":[{"name":"implementation","type":"address","internalType":"address"}]},{"type":"error","name":"ERC1967NonPayable","inputs":[]},{"type":"error","name":"ERC20InsufficientAllowance","inputs":[{"name":"spender","type":"address","internalType":"address"},{"name":"allowance","type":"uint256","internalType":"uint256"},{"name":"needed","type":"uint256","internalType":"uint256"}]},{"type":"error","name":"ERC20InsufficientBalance","inputs":[{"name":"sender","type":"address","internalType":"address"},{"name":"balance","type":"uint256","internalType":"uint256"},{"name":"needed","type":"uint256","internalType":"uint256"}]},{"type":"error","name":"ERC20InvalidApprover","inputs":[{"name":"approver","type":"address","internalType":"address"}]},{"type":"error","name":"ERC20InvalidReceiver","inputs":[{"name":"receiver","type":"address","internalType":"address"}]},{"type":"error","name":"ERC20InvalidSender","inputs":[{"name":"sender","type":"address","internalType":"address"}]},{"type":"error","name":"ERC20InvalidSpender","inputs":[{"name":"spender","type":"address","internalType":"address"}]},{"type":"error","name":"ERC2612ExpiredSignature","inputs":[{"name":"deadline","type":"uint256","internalType":"uint256"}]},{"type":"error","name":"ERC2612InvalidSigner","inputs":[{"name":"signer","type":"address","internalType":"address"},{"name":"owner","type":"address","internalType":"address"}]},{"type":"error","name":"EnforcedPause","inputs":[]},{"type":"error","name":"ExpectedPause","inputs":[]},{"type":"error","name":"FailedInnerCall","inputs":[]},{"type":"error","name":"InvalidAccountNonce","inputs":[{"name":"account","type":"address","internalType":"address"},{"name":"currentNonce","type":"uint256","internalType":"uint256"}]},{"type":"error","name":"InvalidInitialization","inputs":[]},{"type":"error","name":"NotInitializing","inputs":[]},{"type":"error","name":"UUPSUnauthorizedCallContext","inputs":[]},{"type":"error","name":"UUPSUnsupportedProxiableUUID","inputs":[{"name":"slot","type":"bytes32","internalType":"bytes32"}]}],"bytecode":{"object":"0x60a08060405234620000d157306080527ff0c57e16840df040f15088dc2f81fe391c3923bec73e23a9662efc9c229c6a009081549060ff8260401c16620000c257506001600160401b036002600160401b0319828216016200007c575b6040516141a19081620000d78239608051818181610ff001526110e60152f35b6001600160401b031990911681179091556040519081527fc7f505b2f371ae2175ee4913f4499e1f2633a7b5936321eed1cdaeb6115181d290602090a13880806200005c565b63f92ee8a960e01b8152600490fd5b600080fdfe608080604052600436101561001357600080fd5b60003560e01c90816301ffc9a714612e8b5750806306fdde0314612d9f578063095ea7b314612d5b578063158a1cc314612abf57806318160ddd14612a645780631e458bee146126b25780632016a0d214611a82578063232ba8bf1461194857806323b872dd14611751578063248a9ca3146116e55780632f2ff15d146116695780633084e87f14611617578063313ce567146115dd5780633644e5151461159c57806336568abe14611512578063365b388d146114b95780633f4ba83a146113dc5780634f1ef2861461106a57806352d1902d14610faa578063548cf15614610f5157806359cf525b14610d155780635c975abb14610cb55780635e1371c114610c5c57806370a0823114610bd85780637ceab3b114610b865780637ecebe0014610b025780638456cb5914610a4d57806384b0196e1461089557806391d14854146107fd57806395d89b41146106bb5780639a99f59b14610672578063a217fddf14610638578063a9059cbb146105e9578063ad3cb1cc14610569578063cd3293de14610517578063d505accf146102f9578063d547741f1461027b5763dd62ed3e146101c157600080fd5b346102765760407ffffffffffffffffffffffffffffffffffffffffffffffffffffffffffffffffc360112610276576101f8612fad565b73ffffffffffffffffffffffffffffffffffffffff61025e610218612fd0565b9273ffffffffffffffffffffffffffffffffffffffff166000527f52c63247e1f47db19d5ce0460030c497f067ca4cebf71ba98eeadabe20bace01602052604060002090565b91166000526020526020604060002054604051908152f35b600080fd5b346102765760407ffffffffffffffffffffffffffffffffffffffffffffffffffffffffffffffffc360112610276576102f76004356102b8612fd0565b90806000527f02dd7bc7dec4dceedda775e58dd541e08a116c6c53815c0bd028192f7b6268006020526102f2600160406000200154613512565b613c5d565b005b346102765760e07ffffffffffffffffffffffffffffffffffffffffffffffffffffffffffffffffc36011261027657610330612fad565b610338612fd0565b60443590606435926084359360ff85168503610276578042116104e65773ffffffffffffffffffffffffffffffffffffffff9081831695866000527f5ab42ced628888259c08ac98db1eb0cf702fc1501344311d8b100cd1bfe4bb006020526040600020908154916001830190556040519260208401927f6e71edae12b1b97f4d1f60370fef10105fa2faae0126114a169c64845d6126c98452896040860152858816606086015288608086015260a085015260c084015260c0835260e083019183831067ffffffffffffffff8411176104b75761046d9361046493604052519020610422613e22565b90604051917f190100000000000000000000000000000000000000000000000000000000000083526002830152602282015260c43591604260a4359220613e98565b90929192613f35565b1684810361048057506102f79350613d1e565b60449085604051917f4b800e4600000000000000000000000000000000000000000000000000000000835260048301526024820152fd5b7f4e487b7100000000000000000000000000000000000000000000000000000000600052604160045260246000fd5b602490604051907f627913020000000000000000000000000000000000000000000000000000000082526004820152fd5b346102765760007ffffffffffffffffffffffffffffffffffffffffffffffffffffffffffffffffc36011261027657602073ffffffffffffffffffffffffffffffffffffffff60025416604051908152f35b346102765760007ffffffffffffffffffffffffffffffffffffffffffffffffffffffffffffffffc360112610276576105e56040516105a781613048565b600581527f352e302e300000000000000000000000000000000000000000000000000000006020820152604051918291602083526020830190612f6a565b0390f35b346102765760407ffffffffffffffffffffffffffffffffffffffffffffffffffffffffffffffffc3601126102765761062d610623612fad565b6024359033613b54565b602060405160018152f35b346102765760007ffffffffffffffffffffffffffffffffffffffffffffffffffffffffffffffffc36011261027657602060405160008152f35b346102765760007ffffffffffffffffffffffffffffffffffffffffffffffffffffffffffffffffc36011261027657602067ffffffffffffffff60025460a01c16604051908152f35b346102765760007ffffffffffffffffffffffffffffffffffffffffffffffffffffffffffffffffc360112610276576040517f52c63247e1f47db19d5ce0460030c497f067ca4cebf71ba98eeadabe20bace04805482600061071c83613134565b92838352602094600191866001821691826000146107bc575050600114610760575b505061074c92500383613064565b6105e5604051928284938452830190612f6a565b8592506000527f46a2803e59a4de4e7a4c574b1243f25977ac4c77d5a1a4a609b5394cebb4a2aa906000915b8583106107a457505061074c9350820101858061073e565b8054838901850152879450869390920191810161078c565b9150935061074c9592507fffffffffffffffffffffffffffffffffffffffffffffffffffffffffffffff0091501682840152151560051b820101858061073e565b346102765760407ffffffffffffffffffffffffffffffffffffffffffffffffffffffffffffffffc36011261027657610834612fd0565b6004356000527f02dd7bc7dec4dceedda775e58dd541e08a116c6c53815c0bd028192f7b62680060205273ffffffffffffffffffffffffffffffffffffffff60406000209116600052602052602060ff604060002054166040519015158152f35b346102765760007ffffffffffffffffffffffffffffffffffffffffffffffffffffffffffffffffc360112610276577fa16a46d94261c7517cc8ff89f61c0ce93598e3c849801011dee649a6a557d100541580610a24575b156109c6576108fa613187565b610902613290565b60405160208082019282841067ffffffffffffffff8511176104b757916020610979859461096b9796604052600084526040519788977f0f00000000000000000000000000000000000000000000000000000000000000895260e0858a015260e0890190612f6a565b908782036040890152612f6a565b91466060870152306080870152600060a087015285830360c0870152519182815201929160005b8281106109af57505050500390f35b8351855286955093810193928101926001016109a0565b60646040517f08c379a000000000000000000000000000000000000000000000000000000000815260206004820152601560248201527f4549503731323a20556e696e697469616c697a656400000000000000000000006044820152fd5b507fa16a46d94261c7517cc8ff89f61c0ce93598e3c849801011dee649a6a557d10154156108ed565b346102765760007ffffffffffffffffffffffffffffffffffffffffffffffffffffffffffffffffc36011261027657610a846134b6565b610a8c613557565b7fcd5ed15c6e187e77e9aee88184c21f4f2182ab5827cb3b7e07fbedcd63f0330060017fffffffffffffffffffffffffffffffffffffffffffffffffffffffffffffff008254161790557f62e78cea01bee320cd4e420270b5ea74000d11b0c9f74754ebdbfc544b05a2586020604051338152a1005b346102765760207ffffffffffffffffffffffffffffffffffffffffffffffffffffffffffffffffc3601126102765773ffffffffffffffffffffffffffffffffffffffff610b4e612fad565b166000527f5ab42ced628888259c08ac98db1eb0cf702fc1501344311d8b100cd1bfe4bb006020526020604060002054604051908152f35b346102765760007ffffffffffffffffffffffffffffffffffffffffffffffffffffffffffffffffc36011261027657602073ffffffffffffffffffffffffffffffffffffffff60005416604051908152f35b346102765760207ffffffffffffffffffffffffffffffffffffffffffffffffffffffffffffffffc3601126102765773ffffffffffffffffffffffffffffffffffffffff610c24612fad565b166000527f52c63247e1f47db19d5ce0460030c497f067ca4cebf71ba98eeadabe20bace006020526020604060002054604051908152f35b346102765760007ffffffffffffffffffffffffffffffffffffffffffffffffffffffffffffffffc3601126102765760206040517ffdf81848136595c31bb5f76217767372bc4bf906663038eb38381131ea27ecba8152f35b346102765760007ffffffffffffffffffffffffffffffffffffffffffffffffffffffffffffffffc36011261027657602060ff7fcd5ed15c6e187e77e9aee88184c21f4f2182ab5827cb3b7e07fbedcd63f0330054166040519015158152f35b346102765760207ffffffffffffffffffffffffffffffffffffffffffffffffffffffffffffffffc360112610276573360009081527f4c58bcb81dc96266b5d1cb0eb333ed5f98f31bc47650a45197bef510db322ae460205260409020547fd8994f6d76f930dc5ea8c60e38e6334a87bb8539cc3082ac6828681c33316e3d9060ff1615610f1a576004600073ffffffffffffffffffffffffffffffffffffffff60015416604051928380927f52bfe7890000000000000000000000000000000000000000000000000000000082525afa8015610f0e57604091600091610ee9575b500167ffffffffffffffff908181511615610e8b5751906002547fffffffff0000000000000000ffffffffffffffffffffffffffffffffffffffff7bffffffffffffffff00000000000000000000000000000000000000008460a01b16911617600255604051911681527f5fb66ca91ecd57f10ae17d607a4d49359a725933c3b677b07a5d388135740ff8602060043592a2005b60646040517f08c379a000000000000000000000000000000000000000000000000000000000815260206004820152600660248201527f6e6f5f61747400000000000000000000000000000000000000000000000000006044820152fd5b610f0691503d806000833e610efe8183613064565b81019061342f565b905082610df7565b6040513d6000823e3d90fd5b604490604051907fe2517d3f0000000000000000000000000000000000000000000000000000000082523360048301526024820152fd5b346102765760007ffffffffffffffffffffffffffffffffffffffffffffffffffffffffffffffffc3601126102765760206040517fd3df50656abfbc160eb3c53fc98ccc902ec7a96aab1b270677abf06e46df087b8152f35b346102765760007ffffffffffffffffffffffffffffffffffffffffffffffffffffffffffffffffc3601126102765773ffffffffffffffffffffffffffffffffffffffff7f00000000000000000000000000000000000000000000000000000000000000001630036110405760206040517f360894a13ba1a3210667c828492db98dca3e2076cc3735a920a3ca505d382bbc8152f35b60046040517fe07c8dba000000000000000000000000000000000000000000000000000000008152fd5b60407ffffffffffffffffffffffffffffffffffffffffffffffffffffffffffffffffc3601126102765761109c612fad565b602490813567ffffffffffffffff81116102765736602382011215610276576110ce90369084816004013591016130df565b73ffffffffffffffffffffffffffffffffffffffff807f0000000000000000000000000000000000000000000000000000000000000000168030149081156113ae575b50611040573360009081527f9469a29198efc966024e165efb801c8f2366b78a1c73841aee561d08e7eaddce60209081526040909120549091907fa615a8afb6fffcb8c6809ac0997b5c9c12b8cc97651150f14c8f6203168cff4c9060ff161561137857508316926040517f52d1902d0000000000000000000000000000000000000000000000000000000081528281600481885afa60009181611349575b506111e5578585604051907f4c9c8ce30000000000000000000000000000000000000000000000000000000082526004820152fd5b8490867f360894a13ba1a3210667c828492db98dca3e2076cc3735a920a3ca505d382bbc9182810361131b5750833b156112ec5750817fffffffffffffffffffffffff0000000000000000000000000000000000000000825416179055604051907fbc7cd75a20ee27fd9adebab32041f755214dbc6bffa90cc0225b39da2e5c2d3b600080a28351156112b9575060008084846102f796519101845af4903d156112b0573d611293816130a5565b906112a16040519283613064565b8152600081943d92013e6140cb565b606092506140cb565b92505050346112c457005b807fb398979f0000000000000000000000000000000000000000000000000000000060049252fd5b82604051907f4c9c8ce30000000000000000000000000000000000000000000000000000000082526004820152fd5b604051907faa1d49a40000000000000000000000000000000000000000000000000000000082526004820152fd5b9091508381813d8311611371575b6113618183613064565b81010312610276575190876111b0565b503d611357565b85604491604051917fe2517d3f000000000000000000000000000000000000000000000000000000008352336004840152820152fd5b9050817f360894a13ba1a3210667c828492db98dca3e2076cc3735a920a3ca505d382bbc5416141585611111565b346102765760007ffffffffffffffffffffffffffffffffffffffffffffffffffffffffffffffffc360112610276576114136134b6565b7fcd5ed15c6e187e77e9aee88184c21f4f2182ab5827cb3b7e07fbedcd63f03300805460ff81161561148f577fffffffffffffffffffffffffffffffffffffffffffffffffffffffffffffff001690557f5db9ee0a495bf2e6ff9c91a7834c1ba4fdd244a5e8aa4e537bd38aeae4b073aa6020604051338152a1005b60046040517f8dfc202b000000000000000000000000000000000000000000000000000000008152fd5b346102765760007ffffffffffffffffffffffffffffffffffffffffffffffffffffffffffffffffc3601126102765760206040517feba135a74248c737f901cbd8d0f53e729a3f212e734748c2e0d8d39096125e5c8152f35b346102765760407ffffffffffffffffffffffffffffffffffffffffffffffffffffffffffffffffc36011261027657611549612fd0565b3373ffffffffffffffffffffffffffffffffffffffff821603611572576102f790600435613c5d565b60046040517f6697b232000000000000000000000000000000000000000000000000000000008152fd5b346102765760007ffffffffffffffffffffffffffffffffffffffffffffffffffffffffffffffffc3601126102765760206115d5613e22565b604051908152f35b346102765760007ffffffffffffffffffffffffffffffffffffffffffffffffffffffffffffffffc36011261027657602060405160128152f35b346102765760007ffffffffffffffffffffffffffffffffffffffffffffffffffffffffffffffffc36011261027657602073ffffffffffffffffffffffffffffffffffffffff60015416604051908152f35b346102765760407ffffffffffffffffffffffffffffffffffffffffffffffffffffffffffffffffc360112610276576102f76004356116a6612fd0565b90806000527f02dd7bc7dec4dceedda775e58dd541e08a116c6c53815c0bd028192f7b6268006020526116e0600160406000200154613512565b613a8f565b346102765760207ffffffffffffffffffffffffffffffffffffffffffffffffffffffffffffffffc360112610276576004356000527f02dd7bc7dec4dceedda775e58dd541e08a116c6c53815c0bd028192f7b6268006020526020600160406000200154604051908152f35b346102765760607ffffffffffffffffffffffffffffffffffffffffffffffffffffffffffffffffc36011261027657611788612fad565b611790612fd0565b604435906117dd8373ffffffffffffffffffffffffffffffffffffffff166000527f52c63247e1f47db19d5ce0460030c497f067ca4cebf71ba98eeadabe20bace01602052604060002090565b33600052602052604060002054927fffffffffffffffffffffffffffffffffffffffffffffffffffffffffffffffff840361181d575b61062d9350613b54565b8284106119095773ffffffffffffffffffffffffffffffffffffffff8116156118d85733156118a7578261062d946118948373ffffffffffffffffffffffffffffffffffffffff166000527f52c63247e1f47db19d5ce0460030c497f067ca4cebf71ba98eeadabe20bace01602052604060002090565b3360005260205203604060002055611813565b60246040517f94280d6200000000000000000000000000000000000000000000000000000000815260006004820152fd5b60246040517fe602df0500000000000000000000000000000000000000000000000000000000815260006004820152fd5b6040517ffb8f41b20000000000000000000000000000000000000000000000000000000081523360048201526024810185905260448101849052606490fd5b346102765760607ffffffffffffffffffffffffffffffffffffffffffffffffffffffffffffffffc3601126102765761197f612fad565b611987612fd0565b6044359073ffffffffffffffffffffffffffffffffffffffff92838316809303610276573360009081527f852acfdbd338e0da117a74b68467ee9617605c8469f7ce48961a1a5229d6e83860205260409020547f1a6838efa4183e08fe3607359d1259272af9d4716f65e1a7b5921f78fd5a3c6a9060ff1615610f1a577f35a0a19507d72e756a50d0e49e3ae250717470dec0773b67a739bbe2b23031ce606086868681838816937fffffffffffffffffffffffff00000000000000000000000000000000000000009285846000541617600055169182816001541617600155600254161760025560405192835260208301526040820152a1005b346102765760807ffffffffffffffffffffffffffffffffffffffffffffffffffffffffffffffffc36011261027657611ab9612fad565b611ac1612fd0565b60443567ffffffffffffffff811161027657611ae1903690600401613116565b9060643567ffffffffffffffff811161027657611b02903690600401613116565b917ff0c57e16840df040f15088dc2f81fe391c3923bec73e23a9662efc9c229c6a00549267ffffffffffffffff8416801590816126a2575b6001149081612698575b15908161268f575b506126655760017fffffffffffffffffffffffffffffffffffffffffffffffff00000000000000008516177ff0c57e16840df040f15088dc2f81fe391c3923bec73e23a9662efc9c229c6a005560ff8460401c1615612610575b611bae613dc9565b611bb6613dc9565b815167ffffffffffffffff81116104b7577f52c63247e1f47db19d5ce0460030c497f067ca4cebf71ba98eeadabe20bace0390611bf38254613134565b601f81116125ac575b50806020601f82116001146124f1576000916124e6575b507fffffffffffffffffffffffffffffffffffffffffffffffffffffffffffffffff8260011b9260031b1c19161790555b80519067ffffffffffffffff82116104b7578190611c827f52c63247e1f47db19d5ce0460030c497f067ca4cebf71ba98eeadabe20bace0454613134565b601f811161241a575b50602090601f831160011461231b57600092612310575b50507fffffffffffffffffffffffffffffffffffffffffffffffffffffffffffffffff8260011b9260031b1c1916177f52c63247e1f47db19d5ce0460030c497f067ca4cebf71ba98eeadabe20bace04555b611cfc613dc9565b60405190611d0982613048565b600182527f31000000000000000000000000000000000000000000000000000000000000006020830152611d3b613dc9565b80519067ffffffffffffffff82116104b7578190611d797fa16a46d94261c7517cc8ff89f61c0ce93598e3c849801011dee649a6a557d10254613134565b601f8111612244575b50602090601f83116001146121455760009261213a575b50507fffffffffffffffffffffffffffffffffffffffffffffffffffffffffffffffff8260011b9260031b1c1916177fa16a46d94261c7517cc8ff89f61c0ce93598e3c849801011dee649a6a557d102555b805167ffffffffffffffff81116104b7577fa16a46d94261c7517cc8ff89f61c0ce93598e3c849801011dee649a6a557d10391611e288354613134565b601f81116120d6575b50602090601f831160011461200b579282611f4793611f61969360ff9996600092612000575b50507fffffffffffffffffffffffffffffffffffffffffffffffffffffffffffffffff8260011b9260031b1c19161790555b60007fa16a46d94261c7517cc8ff89f61c0ce93598e3c849801011dee649a6a557d1005560007fa16a46d94261c7517cc8ff89f61c0ce93598e3c849801011dee649a6a557d10155611ed9613dc9565b611ee1613dc9565b7fcd5ed15c6e187e77e9aee88184c21f4f2182ab5827cb3b7e07fbedcd63f033007fffffffffffffffffffffffffffffffffffffffffffffffffffffffffffffff008154169055611f30613dc9565b611f38613dc9565b611f41836135ac565b506136ab565b50611f51816137a4565b50611f5b8161389d565b50613996565b5060401c1615611f6d57005b7fffffffffffffffffffffffffffffffffffffffffffffff00ffffffffffffffff7ff0c57e16840df040f15088dc2f81fe391c3923bec73e23a9662efc9c229c6a0054167ff0c57e16840df040f15088dc2f81fe391c3923bec73e23a9662efc9c229c6a00557fc7f505b2f371ae2175ee4913f4499e1f2633a7b5936321eed1cdaeb6115181d2602060405160018152a1005b015190508980611e57565b907fffffffffffffffffffffffffffffffffffffffffffffffffffffffffffffffe0831691846000527f5f9ce34815f8e11431c7bb75a8e6886a91478f7ffc1dbb0a98dc240fddd76b759260005b8181106120be575093611f61969360ff99969360019383611f479810612087575b505050811b019055611e89565b01517fffffffffffffffffffffffffffffffffffffffffffffffffffffffffffffffff60f88460031b161c1916905589808061207a565b92936020600181928786015181550195019301612059565b836000527f5f9ce34815f8e11431c7bb75a8e6886a91478f7ffc1dbb0a98dc240fddd76b75601f840160051c81019160208510612130575b601f0160051c01905b8181106121245750611e31565b60008155600101612117565b909150819061210e565b015190508680611d99565b917fffffffffffffffffffffffffffffffffffffffffffffffffffffffffffffffe016917fa16a46d94261c7517cc8ff89f61c0ce93598e3c849801011dee649a6a557d1026000527f42ad5d3e1f2e6e70edcf6d991b8a3023d3fca8047a131592f9edb9fd9b89d57d9260005b81811061222c57509084600195949392106121f5575b505050811b017fa16a46d94261c7517cc8ff89f61c0ce93598e3c849801011dee649a6a557d10255611deb565b01517fffffffffffffffffffffffffffffffffffffffffffffffffffffffffffffffff60f88460031b161c191690558680806121c8565b929360206001819287860151815501950193016121b2565b9091507fa16a46d94261c7517cc8ff89f61c0ce93598e3c849801011dee649a6a557d102600052601f830160051c7f42ad5d3e1f2e6e70edcf6d991b8a3023d3fca8047a131592f9edb9fd9b89d57d0190602084106122e8575b90601f8493920160051c7f42ad5d3e1f2e6e70edcf6d991b8a3023d3fca8047a131592f9edb9fd9b89d57d01905b8181106122d95750611d82565b600081558493506001016122cc565b7f42ad5d3e1f2e6e70edcf6d991b8a3023d3fca8047a131592f9edb9fd9b89d57d915061229e565b015190508680611ca2565b917fffffffffffffffffffffffffffffffffffffffffffffffffffffffffffffffe016917f52c63247e1f47db19d5ce0460030c497f067ca4cebf71ba98eeadabe20bace046000527f46a2803e59a4de4e7a4c574b1243f25977ac4c77d5a1a4a609b5394cebb4a2aa9260005b81811061240257509084600195949392106123cb575b505050811b017f52c63247e1f47db19d5ce0460030c497f067ca4cebf71ba98eeadabe20bace0455611cf4565b01517fffffffffffffffffffffffffffffffffffffffffffffffffffffffffffffffff60f88460031b161c1916905586808061239e565b92936020600181928786015181550195019301612388565b9091507f52c63247e1f47db19d5ce0460030c497f067ca4cebf71ba98eeadabe20bace04600052601f830160051c7f46a2803e59a4de4e7a4c574b1243f25977ac4c77d5a1a4a609b5394cebb4a2aa0190602084106124be575b90601f8493920160051c7f46a2803e59a4de4e7a4c574b1243f25977ac4c77d5a1a4a609b5394cebb4a2aa01905b8181106124af5750611c8b565b600081558493506001016124a2565b7f46a2803e59a4de4e7a4c574b1243f25977ac4c77d5a1a4a609b5394cebb4a2aa9150612474565b905084015188611c13565b60008481527f2ae08a8e29253f69ac5d979a101956ab8f8d9d7ded63fa7a83b16fc47648eab0927fffffffffffffffffffffffffffffffffffffffffffffffffffffffffffffffe016905b8181106125945750908360019493921061255d575b5050811b019055611c44565b8601517fffffffffffffffffffffffffffffffffffffffffffffffffffffffffffffffff60f88460031b161c191690558880612551565b9192602060018192868b01518155019401920161253c565b826000527f2ae08a8e29253f69ac5d979a101956ab8f8d9d7ded63fa7a83b16fc47648eab0601f830160051c81019160208410612606575b601f0160051c01905b8181106125fa5750611bfc565b600081556001016125ed565b90915081906125e4565b680100000000000000017fffffffffffffffffffffffffffffffffffffffffffffff0000000000000000008516177ff0c57e16840df040f15088dc2f81fe391c3923bec73e23a9662efc9c229c6a0055611ba6565b60046040517ff92ee8a9000000000000000000000000000000000000000000000000000000008152fd5b90501586611b4c565b303b159150611b44565b604086901c60ff16159150611b3a565b34610276576126c036612ff3565b3360009081527fd3a0e14404206ef4980f1c4f288154c43498bb05eb1765959e238adb156ed6e56020908152604090912054919390917ff0887ba65ee2024ea881d91b74c2450ef19e1557f03bed3ea9f16b037cbe2dc99060ff1615610f1a5750612729613557565b73ffffffffffffffffffffffffffffffffffffffff90600460008360015416604051928380927f52bfe7890000000000000000000000000000000000000000000000000000000082525afa908115610f0e57600090600092612a46575b50156129e8576040019467ffffffffffffffff8651168042116000146129df57420342811161295b576000905b60c4858354169360405194859384927f15508bc40000000000000000000000000000000000000000000000000000000084527ffdf81848136595c31bb5f76217767372bc4bf906663038eb38381131ea27ecba6004850152602484015260448301528460648301528460848301528460a48301525afa8015610f0e57612841916000916129bb575b506133ca565b1690811561298a57612851613557565b7f52c63247e1f47db19d5ce0460030c497f067ca4cebf71ba98eeadabe20bace0290815484810180911161295b577ffd1ba5519feb014ad2f631cbd516bd3cec96be935749391554d122972593e7bf9255826000527f52c63247e1f47db19d5ce0460030c497f067ca4cebf71ba98eeadabe20bace00815260406000208481540190558260007fddf252ad1be2c89b69c2b068fc378daa952ba7f163c4a11628f55a4df523b3ef83604051888152a36040519384523393a3517fffffffff0000000000000000ffffffffffffffffffffffffffffffffffffffff7bffffffffffffffff00000000000000000000000000000000000000006002549260a01b16911617600255600080f35b7f4e487b7100000000000000000000000000000000000000000000000000000000600052601160045260246000fd5b60246040517fec442f0500000000000000000000000000000000000000000000000000000000815260006004820152fd5b6129d891503d806000833e6129d08183613064565b810190613393565b508761283b565b506000806127b3565b606484604051907f08c379a00000000000000000000000000000000000000000000000000000000082526004820152600e60248201527f6e6f5f6174746573746174696f6e0000000000000000000000000000000000006044820152fd5b9050612a5d91503d806000833e610efe8183613064565b9087612786565b346102765760007ffffffffffffffffffffffffffffffffffffffffffffffffffffffffffffffffc3601126102765760207f52c63247e1f47db19d5ce0460030c497f067ca4cebf71ba98eeadabe20bace0254604051908152f35b3461027657612acd36612ff3565b3360009081527f1932dfbbf56c55a29636b3294b3876cfa4d36203468fd4346472dad78fa5015760209081526040909120549293929091907f9667e80708b6eeeb0053fa0cca44e028ff548e2a9f029edfeac87c118b08b7c89060ff1615610f1a5750612b38613557565b73ffffffffffffffffffffffffffffffffffffffff906000828154169160c4604051809481937f15508bc40000000000000000000000000000000000000000000000000000000083527feba135a74248c737f901cbd8d0f53e729a3f212e734748c2e0d8d39096125e5c600484015260248301528460448301528460648301528460848301528460a48301525afa8015610f0e57612bdd91600091612d3f57506133ca565b8216918215612d0e57612bee613557565b826000527f52c63247e1f47db19d5ce0460030c497f067ca4cebf71ba98eeadabe20bace0080835260406000205491858310612cb557507f4bec313b95a1f7373890b5d9dce4c4737945f27093ca8f3e357bec1219299eaf92918591856000528352036040600020557f52c63247e1f47db19d5ce0460030c497f067ca4cebf71ba98eeadabe20bace028481540390556000837fddf252ad1be2c89b69c2b068fc378daa952ba7f163c4a11628f55a4df523b3ef83604051888152a36040519384523393a3005b6040517fe450d38c00000000000000000000000000000000000000000000000000000000815273ffffffffffffffffffffffffffffffffffffffff91909116600482015260248101929092525060448101849052606490fd5b60246040517f96c6fd1e00000000000000000000000000000000000000000000000000000000815260006004820152fd5b612d5491503d806000833e6129d08183613064565b508661283b565b346102765760407ffffffffffffffffffffffffffffffffffffffffffffffffffffffffffffffffc3601126102765761062d612d95612fad565b6024359033613d1e565b346102765760007ffffffffffffffffffffffffffffffffffffffffffffffffffffffffffffffffc360112610276576040517f52c63247e1f47db19d5ce0460030c497f067ca4cebf71ba98eeadabe20bace038054826000612e0083613134565b92838352602094600191866001821691826000146107bc575050600114612e2f57505061074c92500383613064565b8592506000527f2ae08a8e29253f69ac5d979a101956ab8f8d9d7ded63fa7a83b16fc47648eab0906000915b858310612e7357505061074c9350820101858061073e565b80548389018501528794508693909201918101612e5b565b346102765760207ffffffffffffffffffffffffffffffffffffffffffffffffffffffffffffffffc36011261027657600435907fffffffff00000000000000000000000000000000000000000000000000000000821680920361027657817f7965db0b0000000000000000000000000000000000000000000000000000000060209314908115612f1d575b5015158152f35b7f01ffc9a70000000000000000000000000000000000000000000000000000000091501483612f16565b60005b838110612f5a5750506000910152565b8181015183820152602001612f4a565b907fffffffffffffffffffffffffffffffffffffffffffffffffffffffffffffffe0601f602093612fa681518092818752878088019101612f47565b0116010190565b6004359073ffffffffffffffffffffffffffffffffffffffff8216820361027657565b6024359073ffffffffffffffffffffffffffffffffffffffff8216820361027657565b7ffffffffffffffffffffffffffffffffffffffffffffffffffffffffffffffffc60609101126102765760043573ffffffffffffffffffffffffffffffffffffffff8116810361027657906024359060443590565b6040810190811067ffffffffffffffff8211176104b757604052565b90601f7fffffffffffffffffffffffffffffffffffffffffffffffffffffffffffffffe0910116810190811067ffffffffffffffff8211176104b757604052565b67ffffffffffffffff81116104b757601f017fffffffffffffffffffffffffffffffffffffffffffffffffffffffffffffffe01660200190565b9291926130eb826130a5565b916130f96040519384613064565b829481845281830111610276578281602093846000960137010152565b9080601f8301121561027657816020613131933591016130df565b90565b90600182811c9216801561317d575b602083101461314e57565b7f4e487b7100000000000000000000000000000000000000000000000000000000600052602260045260246000fd5b91607f1691613143565b604051906000827fa16a46d94261c7517cc8ff89f61c0ce93598e3c849801011dee649a6a557d102918254926131bc84613134565b8084529360209160019182811690811561324b57506001146131ea575b5050506131e892500383613064565b565b60009081527f42ad5d3e1f2e6e70edcf6d991b8a3023d3fca8047a131592f9edb9fd9b89d57d9590935091905b82841061323357506131e89450505081016020013880806131d9565b85548885018301529485019487945092810192613217565b915050602093506131e89592507fffffffffffffffffffffffffffffffffffffffffffffffffffffffffffffff0091501682840152151560051b8201013880806131d9565b604051906000827fa16a46d94261c7517cc8ff89f61c0ce93598e3c849801011dee649a6a557d103918254926132c584613134565b8084529360209160019182811690811561324b57506001146132f0575050506131e892500383613064565b60009081527f5f9ce34815f8e11431c7bb75a8e6886a91478f7ffc1dbb0a98dc240fddd76b759590935091905b82841061333957506131e89450505081016020013880806131d9565b8554888501830152948501948794509281019261331d565b81601f82011215610276578051613367816130a5565b926133756040519485613064565b81845260208284010111610276576131319160208085019101612f47565b91909160408184031261027657805180151581036102765792602082015167ffffffffffffffff8111610276576131319201613351565b156133d157565b60646040517f08c379a000000000000000000000000000000000000000000000000000000000815260206004820152600d60248201527f706f6c6963795f64656e696564000000000000000000000000000000000000006044820152fd5b91909160408184031261027657805192602082015167ffffffffffffffff92838211610276570190608082820312610276576040519260808401848110828211176104b7576040528251845260208301516020850152604083015181811681036102765760408501526060830151908111610276576134ae9201613351565b606082015290565b3360009081527f1dda541eb5c1fa85177342f00c6b5e15359324832b7f80f6738a34decb92f53a60205260409020547f8b5b16d04624687fcf0d0228f19993c9157c1ed07b41d8d430fd9100eb099fe89060ff1615610f1a5750565b806000527f02dd7bc7dec4dceedda775e58dd541e08a116c6c53815c0bd028192f7b62680060205260406000203360005260205260ff6040600020541615610f1a5750565b60ff7fcd5ed15c6e187e77e9aee88184c21f4f2182ab5827cb3b7e07fbedcd63f03300541661358257565b60046040517fd93c0665000000000000000000000000000000000000000000000000000000008152fd5b73ffffffffffffffffffffffffffffffffffffffff1660008181527f852acfdbd338e0da117a74b68467ee9617605c8469f7ce48961a1a5229d6e83860205260408120549091907f1a6838efa4183e08fe3607359d1259272af9d4716f65e1a7b5921f78fd5a3c6a907f02dd7bc7dec4dceedda775e58dd541e08a116c6c53815c0bd028192f7b6268009060ff166136a557818452602052604083208284526020526040832060017fffffffffffffffffffffffffffffffffffffffffffffffffffffffffffffff008254161790557f2f8788117e7eff1d82e926ec794901d17c78024a50270940304540a733656f0d339380a4600190565b50505090565b73ffffffffffffffffffffffffffffffffffffffff1660008181527f1dda541eb5c1fa85177342f00c6b5e15359324832b7f80f6738a34decb92f53a60205260408120549091907f8b5b16d04624687fcf0d0228f19993c9157c1ed07b41d8d430fd9100eb099fe8907f02dd7bc7dec4dceedda775e58dd541e08a116c6c53815c0bd028192f7b6268009060ff166136a557818452602052604083208284526020526040832060017fffffffffffffffffffffffffffffffffffffffffffffffffffffffffffffff008254161790557f2f8788117e7eff1d82e926ec794901d17c78024a50270940304540a733656f0d339380a4600190565b73ffffffffffffffffffffffffffffffffffffffff1660008181527fd3a0e14404206ef4980f1c4f288154c43498bb05eb1765959e238adb156ed6e560205260408120549091907ff0887ba65ee2024ea881d91b74c2450ef19e1557f03bed3ea9f16b037cbe2dc9907f02dd7bc7dec4dceedda775e58dd541e08a116c6c53815c0bd028192f7b6268009060ff166136a557818452602052604083208284526020526040832060017fffffffffffffffffffffffffffffffffffffffffffffffffffffffffffffff008254161790557f2f8788117e7eff1d82e926ec794901d17c78024a50270940304540a733656f0d339380a4600190565b73ffffffffffffffffffffffffffffffffffffffff1660008181527f1932dfbbf56c55a29636b3294b3876cfa4d36203468fd4346472dad78fa5015760205260408120549091907f9667e80708b6eeeb0053fa0cca44e028ff548e2a9f029edfeac87c118b08b7c8907f02dd7bc7dec4dceedda775e58dd541e08a116c6c53815c0bd028192f7b6268009060ff166136a557818452602052604083208284526020526040832060017fffffffffffffffffffffffffffffffffffffffffffffffffffffffffffffff008254161790557f2f8788117e7eff1d82e926ec794901d17c78024a50270940304540a733656f0d339380a4600190565b73ffffffffffffffffffffffffffffffffffffffff1660008181527f9469a29198efc966024e165efb801c8f2366b78a1c73841aee561d08e7eaddce60205260408120549091907fa615a8afb6fffcb8c6809ac0997b5c9c12b8cc97651150f14c8f6203168cff4c907f02dd7bc7dec4dceedda775e58dd541e08a116c6c53815c0bd028192f7b6268009060ff166136a557818452602052604083208284526020526040832060017fffffffffffffffffffffffffffffffffffffffffffffffffffffffffffffff008254161790557f2f8788117e7eff1d82e926ec794901d17c78024a50270940304540a733656f0d339380a4600190565b906000918083527f02dd7bc7dec4dceedda775e58dd541e08a116c6c53815c0bd028192f7b6268008060205273ffffffffffffffffffffffffffffffffffffffff6040852093169283855260205260ff604085205416156000146136a557818452602052604083208284526020526040832060017fffffffffffffffffffffffffffffffffffffffffffffffffffffffffffffff008254161790557f2f8788117e7eff1d82e926ec794901d17c78024a50270940304540a733656f0d339380a4600190565b9173ffffffffffffffffffffffffffffffffffffffff808416928315612d0e571692831561298a57613b84613557565b6000908382527f52c63247e1f47db19d5ce0460030c497f067ca4cebf71ba98eeadabe20bace0080602052604083205491848310613c04575082847fddf252ad1be2c89b69c2b068fc378daa952ba7f163c4a11628f55a4df523b3ef959360409388602097528652038282205586815220818154019055604051908152a3565b6040517fe450d38c00000000000000000000000000000000000000000000000000000000815273ffffffffffffffffffffffffffffffffffffffff91909116600482015260248101929092525060448101839052606490fd5b906000918083527f02dd7bc7dec4dceedda775e58dd541e08a116c6c53815c0bd028192f7b6268008060205273ffffffffffffffffffffffffffffffffffffffff6040852093169283855260205260ff6040852054166000146136a55781845260205260408320828452602052604083207fffffffffffffffffffffffffffffffffffffffffffffffffffffffffffffff0081541690557ff6391f5c32d9c69d2a47ea670b442974b53935d1edc7fd64eb21e047a839171b339380a4600190565b9173ffffffffffffffffffffffffffffffffffffffff8084169283156118d857169283156118a7577f8c5be1e5ebec7d5bd14f71427d1e84f3dd0314c0f7b2291e5b200ac8c7c3b92591613db360209273ffffffffffffffffffffffffffffffffffffffff166000527f52c63247e1f47db19d5ce0460030c497f067ca4cebf71ba98eeadabe20bace01602052604060002090565b85600052825280604060002055604051908152a3565b60ff7ff0c57e16840df040f15088dc2f81fe391c3923bec73e23a9662efc9c229c6a005460401c1615613df857565b60046040517fd7e6bcf8000000000000000000000000000000000000000000000000000000008152fd5b613e2a61401c565b613e32614086565b6040519060208201927f8b73c3c69bb8fe3d512ecc4cf759cc79239f7b179b0ffacaa9a75d522b39400f8452604083015260608201524660808201523060a082015260a0815260c0810181811067ffffffffffffffff8211176104b75760405251902090565b91907f7fffffffffffffffffffffffffffffff5d576e7357a4501ddfe92f46681b20a08411613f2957926020929160ff608095604051948552168484015260408301526060820152600092839182805260015afa15613f1d57805173ffffffffffffffffffffffffffffffffffffffff811615613f1457918190565b50809160019190565b604051903d90823e3d90fd5b50505060009160039190565b6004811015613fed5780613f47575050565b60018103613f795760046040517ff645eedf000000000000000000000000000000000000000000000000000000008152fd5b60028103613fb257602482604051907ffce698f70000000000000000000000000000000000000000000000000000000082526004820152fd5b600314613fbc5750565b602490604051907fd78bce0c0000000000000000000000000000000000000000000000000000000082526004820152fd5b7f4e487b7100000000000000000000000000000000000000000000000000000000600052602160045260246000fd5b614024613187565b8051908115614034576020012090565b50507fa16a46d94261c7517cc8ff89f61c0ce93598e3c849801011dee649a6a557d1005480156140615790565b507fc5d2460186f7233c927e7db2dcc703c0e500b653ca82273b7bfad8045d85a47090565b61408e613290565b805190811561409e576020012090565b50507fa16a46d94261c7517cc8ff89f61c0ce93598e3c849801011dee649a6a557d1015480156140615790565b9061410a57508051156140e057805190602001fd5b60046040517f1425ea42000000000000000000000000000000000000000000000000000000008152fd5b81511580614162575b61411b575090565b60249073ffffffffffffffffffffffffffffffffffffffff604051917f9996b315000000000000000000000000000000000000000000000000000000008352166004820152fd5b50803b1561411356fea26469706673582212208f09c58996cc877efbbc8633b62c4c520985997b4f617c30b57950c143ee684864736f6c63430008180033","linkReferences":{}},"methodIdentifiers":{"DEFAULT_ADMIN_ROLE()":"a217fddf","DOMAIN_SEPARATOR()":"3644e515","OP_MINT()":"5e1371c1","OP_NAV_ATTEST()":"548cf156","OP_REDEEM()":"365b388d","UPGRADE_INTERFACE_VERSION()":"ad3cb1cc","allowance(address,address)":"dd62ed3e","anchorAttestation(uint256)":"59cf525b","approve(address,uint256)":"095ea7b3","attest()":"3084e87f","balanceOf(address)":"70a08231","bind(address,address,address)":"232ba8bf","burn(address,uint256,bytes32)":"158a1cc3","decimals()":"313ce567","eip712Domain()":"84b0196e","getRoleAdmin(bytes32)":"248a9ca3","grantRole(bytes32,address)":"2f2ff15d","guard()":"7ceab3b1","hasRole(bytes32,address)":"91d14854","initialize(address,address,string,string)":"2016a0d2","lastAttAsOf()":"9a99f59b","mint(address,uint256,bytes32)":"1e458bee","name()":"06fdde03","nonces(address)":"7ecebe00","pause()":"8456cb59","paused()":"5c975abb","permit(address,address,uint256,uint256,uint8,bytes32,bytes32)":"d505accf","proxiableUUID()":"52d1902d","renounceRole(bytes32,address)":"36568abe","reserve()":"cd3293de","revokeRole(bytes32,address)":"d547741f","supportsInterface(bytes4)":"01ffc9a7","symbol()":"95d89b41","totalSupply()":"18160ddd","transfer(address,uint256)":"a9059cbb","transferFrom(address,address,uint256)":"23b872dd","unpause()":"3f4ba83a","upgradeToAndCall(address,bytes)":"4f1ef286"},"id":93}