{"abi":[{"type":"function","name":"ATTESTOR_ROLE","inputs":[],"outputs":[{"name":"","type":"bytes32","internalType":"bytes32"}],"stateMutability":"view"},{"type":"function","name":"DEFAULT_ADMIN_ROLE","inputs":[],"outputs":[{"name":"","type":"bytes32","internalType":"bytes32"}],"stateMutability":"view"},{"type":"function","name":"GOVERNOR_ROLE","inputs":[],"outputs":[{"name":"","type":"bytes32","internalType":"bytes32"}],"stateMutability":"view"},{"type":"function","name":"attest","inputs":[{"name":"total","type":"uint256","internalType":"uint256"},{"name":"byBucket","type":"uint256[5]","internalType":"uint256[5]"},{"name":"ts","type":"uint64","internalType":"uint64"},{"name":"proofCid","type":"bytes32","internalType":"bytes32"}],"outputs":[],"stateMutability":"nonpayable"},{"type":"function","name":"coverageBps","inputs":[{"name":"liabilities","type":"uint256","internalType":"uint256"}],"outputs":[{"name":"cov","type":"uint16","internalType":"uint16"}],"stateMutability":"view"},{"type":"function","name":"getRoleAdmin","inputs":[{"name":"role","type":"bytes32","internalType":"bytes32"}],"outputs":[{"name":"","type":"bytes32","internalType":"bytes32"}],"stateMutability":"view"},{"type":"function","name":"grantRole","inputs":[{"name":"role","type":"bytes32","internalType":"bytes32"},{"name":"account","type":"address","internalType":"address"}],"outputs":[],"stateMutability":"nonpayable"},{"type":"function","name":"hasRole","inputs":[{"name":"role","type":"bytes32","internalType":"bytes32"},{"name":"account","type":"address","internalType":"address"}],"outputs":[{"name":"","type":"bool","internalType":"bool"}],"stateMutability":"view"},{"type":"function","name":"initialize","inputs":[{"name":"admin","type":"address","internalType":"address"},{"name":"governor","type":"address","internalType":"address"}],"outputs":[],"stateMutability":"nonpayable"},{"type":"function","name":"last","inputs":[],"outputs":[{"name":"total","type":"uint256","internalType":"uint256"},{"name":"ts","type":"uint64","internalType":"uint64"},{"name":"proofCid","type":"bytes32","internalType":"bytes32"}],"stateMutability":"view"},{"type":"function","name":"limits","inputs":[{"name":"","type":"uint8","internalType":"enum ReserveManagerUpgradeable.Bucket"}],"outputs":[{"name":"maxBps","type":"uint16","internalType":"uint16"}],"stateMutability":"view"},{"type":"function","name":"renounceRole","inputs":[{"name":"role","type":"bytes32","internalType":"bytes32"},{"name":"callerConfirmation","type":"address","internalType":"address"}],"outputs":[],"stateMutability":"nonpayable"},{"type":"function","name":"revokeRole","inputs":[{"name":"role","type":"bytes32","internalType":"bytes32"},{"name":"account","type":"address","internalType":"address"}],"outputs":[],"stateMutability":"nonpayable"},{"type":"function","name":"setLimit","inputs":[{"name":"b","type":"uint8","internalType":"enum ReserveManagerUpgradeable.Bucket"},{"name":"maxBps","type":"uint16","internalType":"uint16"}],"outputs":[],"stateMutability":"nonpayable"},{"type":"function","name":"supportsInterface","inputs":[{"name":"interfaceId","type":"bytes4","internalType":"bytes4"}],"outputs":[{"name":"","type":"bool","internalType":"bool"}],"stateMutability":"view"},{"type":"event","name":"Initialized","inputs":[{"name":"version","type":"uint64","indexed":false,"internalType":"uint64"}],"anonymous":false},{"type":"event","name":"LimitsSet","inputs":[{"name":"bucket","type":"uint8","indexed":false,"internalType":"enum ReserveManagerUpgradeable.Bucket"},{"name":"maxBps","type":"uint16","indexed":false,"internalType":"uint16"}],"anonymous":false},{"type":"event","name":"ReservesAttested","inputs":[{"name":"total","type":"uint256","indexed":false,"internalType":"uint256"},{"name":"byBucket","type":"uint256[5]","indexed":false,"internalType":"uint256[5]"},{"name":"ts","type":"uint64","indexed":false,"internalType":"uint64"},{"name":"proofCid","type":"bytes32","indexed":false,"internalType":"bytes32"}],"anonymous":false},{"type":"event","name":"RoleAdminChanged","inputs":[{"name":"role","type":"bytes32","indexed":true,"internalType":"bytes32"},{"name":"previousAdminRole","type":"bytes32","indexed":true,"internalType":"bytes32"},{"name":"newAdminRole","type":"bytes32","indexed":true,"internalType":"bytes32"}],"anonymous":false},{"type":"event","name":"RoleGranted","inputs":[{"name":"role","type":"bytes32","indexed":true,"internalType":"bytes32"},{"name":"account","type":"address","indexed":true,"internalType":"address"},{"name":"sender","type":"address","indexed":true,"internalType":"address"}],"anonymous":false},{"type":"event","name":"RoleRevoked","inputs":[{"name":"role","type":"bytes32","indexed":true,"internalType":"bytes32"},{"name":"account","type":"address","indexed":true,"internalType":"address"},{"name":"sender","type":"address","indexed":true,"internalType":"address"}],"anonymous":false},{"type":"error","name":"AccessControlBadConfirmation","inputs":[]},{"type":"error","name":"AccessControlUnauthorizedAccount","inputs":[{"name":"account","type":"address","internalType":"address"},{"name":"neededRole","type":"bytes32","internalType":"bytes32"}]},{"type":"error","name":"ConcentrationBreach","inputs":[]},{"type":"error","name":"InvalidInitialization","inputs":[]},{"type":"error","name":"InvalidParam","inputs":[]},{"type":"error","name":"NotInitializing","inputs":[]}],"bytecode":{"object":"0x6080806040523461001657611268908161001c8239f35b600080fdfe608060409080825260048036101561001657600080fd5b600091823560e01c90816301ffc9a714610c3c5750806314b3211214610be7578063248a9ca314610b7e5780632f2ff15d14610b3757806336568abe14610aad57806347799da814610a55578063485cc955146108525780634cc09eed1461069257806362723644146106395780636b9a6482146105ec57806391d148541461055b578063a217fddf14610522578063ccc57490146104c9578063d547741f1461044d5763db3df45d146100c957600080fd5b346104495761010090817ffffffffffffffffffffffffffffffffffffffffffffffffffffffffffffffffc3601126104455780359060c4943660c4116104415760c4359067ffffffffffffffff9283831680930361043d5760e435937fa7e0cd0f2772b23ee4c329892293a6bd99d48c306b094d6d008c9a8bb8b731e4988989526020997f02dd7bc7dec4dceedda775e58dd541e08a116c6c53815c0bd028192f7b6268008b52848a20338b528b5260ff858b20541615610407575086156103945786898a5b600581106103bc57500361039457885b600581106102ec575083519160808301838110828211176102c057855287835284519360a085019182118583101761029457508452896024845b83821061028557505083915082015283838201528460608201525190600191600155875b600581106102735750505060247f7e2fb528212e640a2c61cd6068fa8e7c48cc5e1ae021609269c8fe20cd6d066a969760a092847fffffffffffffffffffffffffffffffffffffffffffffffff00000000000000006007541617600755856008555195865285013760c083015260e0820152a180f35b815160028201559089019082016101fd565b813581529082019082016101d9565b8a60416024927f4e487b7100000000000000000000000000000000000000000000000000000000835252fd5b60248b6041877f4e487b7100000000000000000000000000000000000000000000000000000000835252fd5b61ffff6102f882610cf9565b5416801561038b5761030982610e13565b356127109081810291818304149015171561035f578961032891610d69565b11610337576001905b0161019f565b8385517f57861537000000000000000000000000000000000000000000000000000000008152fd5b60248c6011887f4e487b7100000000000000000000000000000000000000000000000000000000835252fd5b50600190610331565b8284517fd2529034000000000000000000000000000000000000000000000000000000008152fd5b91506103c782610e13565b3581018091116103db57889160010161018f565b60248b6011877f4e487b7100000000000000000000000000000000000000000000000000000000835252fd5b836044918651917fe2517d3f00000000000000000000000000000000000000000000000000000000835233908301526024820152fd5b8680fd5b8480fd5b8280fd5b5080fd5b50823461044557807ffffffffffffffffffffffffffffffffffffffffffffffffffffffffffffffffc360112610445576104c591356104c0600161048f610d41565b938387527f02dd7bc7dec4dceedda775e58dd541e08a116c6c53815c0bd028192f7b62680060205286200154610e54565b611171565b5080f35b82843461044957817ffffffffffffffffffffffffffffffffffffffffffffffffffffffffffffffffc36011261044957602090517f7935bd0ae54bc31f548c14dba4d37c5c64b3f8ca900cb468fb8abd54d5894f558152f35b82843461044957817ffffffffffffffffffffffffffffffffffffffffffffffffffffffffffffffffc3601126104495751908152602090f35b5082903461044557817ffffffffffffffffffffffffffffffffffffffffffffffffffffffffffffffffc360112610445578160209360ff9261059b610d41565b903582527f02dd7bc7dec4dceedda775e58dd541e08a116c6c53815c0bd028192f7b626800865273ffffffffffffffffffffffffffffffffffffffff83832091168252855220541690519015158152f35b509190346106365760207ffffffffffffffffffffffffffffffffffffffffffffffffffffffffffffffffc360112610636575061ffff61062e60209335610da2565b915191168152f35b80fd5b82843461044957817ffffffffffffffffffffffffffffffffffffffffffffffffffffffffffffffffc36011261044957602090517fa7e0cd0f2772b23ee4c329892293a6bd99d48c306b094d6d008c9a8bb8b731e48152f35b50913461044957807ffffffffffffffffffffffffffffffffffffffffffffffffffffffffffffffffc36011261044957823560058110156104455760243561ffff808216809203610441577f7935bd0ae54bc31f548c14dba4d37c5c64b3f8ca900cb468fb8abd54d5894f558086527f02dd7bc7dec4dceedda775e58dd541e08a116c6c53815c0bd028192f7b62680060205284862033875260205260ff85872054161561081c575061271082116107f4578351906020820182811067ffffffffffffffff8211176107c8577f0dd8ecddc84f99ffc44aec30ff879aea4b6136d3e31229bf1483e1c1b953abae969750855282825261079084610cf9565b9151167fffffffffffffffffffffffffffffffffffffffffffffffffffffffffffff000082541617905582519182526020820152a180f35b60248760418a7f4e487b7100000000000000000000000000000000000000000000000000000000835252fd5b8584517fd2529034000000000000000000000000000000000000000000000000000000008152fd5b866044918651917fe2517d3f00000000000000000000000000000000000000000000000000000000835233908301526024820152fd5b5082903461044557817ffffffffffffffffffffffffffffffffffffffffffffffffffffffffffffffffc3601126104455780359073ffffffffffffffffffffffffffffffffffffffff82168203610a51576108ab610d41565b7ff0c57e16840df040f15088dc2f81fe391c3923bec73e23a9662efc9c229c6a009283549260ff84871c16159367ffffffffffffffff811680159081610a49575b6001149081610a3f575b159081610a36575b50610a0e578460017fffffffffffffffffffffffffffffffffffffffffffffffff000000000000000083161787556109d9575b5060ff8554871c16156109b257509061094c61095292610ed0565b50610fad565b5061095b578280f35b7fc7f505b2f371ae2175ee4913f4499e1f2633a7b5936321eed1cdaeb6115181d291817fffffffffffffffffffffffffffffffffffffffffffffff00ffffffffffffffff602093541690555160018152a181808280f35b85517fd7e6bcf8000000000000000000000000000000000000000000000000000000008152fd5b7fffffffffffffffffffffffffffffffffffffffffffffff000000000000000000166801000000000000000117855587610931565b5085517ff92ee8a9000000000000000000000000000000000000000000000000000000008152fd5b905015896108fe565b303b1591506108f6565b8691506108ec565b8380fd5b82843461044957817ffffffffffffffffffffffffffffffffffffffffffffffffffffffffffffffffc360112610449576060906001549067ffffffffffffffff60075416906008549181519384526020840152820152f35b50913461044957807ffffffffffffffffffffffffffffffffffffffffffffffffffffffffffffffffc36011261044957610ae5610d41565b903373ffffffffffffffffffffffffffffffffffffffff831603610b0f57506104c5919235611171565b8390517f6697b232000000000000000000000000000000000000000000000000000000008152fd5b50823461044557807ffffffffffffffffffffffffffffffffffffffffffffffffffffffffffffffffc360112610445576104c59135610b79600161048f610d41565b6110ac565b508290346104455760207ffffffffffffffffffffffffffffffffffffffffffffffffffffffffffffffffc36011261044557816020936001923581527f02dd7bc7dec4dceedda775e58dd541e08a116c6c53815c0bd028192f7b62680085522001549051908152f35b508290346104455760207ffffffffffffffffffffffffffffffffffffffffffffffffffffffffffffffffc3601126104455735916005831015610636575061ffff610c33602093610cf9565b54169051908152f35b919050346104455760207ffffffffffffffffffffffffffffffffffffffffffffffffffffffffffffffffc36011261044557357fffffffff00000000000000000000000000000000000000000000000000000000811680910361044557602092507f7965db0b000000000000000000000000000000000000000000000000000000008114908115610ccf575b5015158152f35b7f01ffc9a70000000000000000000000000000000000000000000000000000000091501483610cc8565b6005811015610d12576000526000602052604060002090565b7f4e487b7100000000000000000000000000000000000000000000000000000000600052602160045260246000fd5b6024359073ffffffffffffffffffffffffffffffffffffffff82168203610d6457565b600080fd5b8115610d73570490565b7f4e487b7100000000000000000000000000000000000000000000000000000000600052601260045260246000fd5b8015610e0c576001549061271091828102928184041490151715610ddd57610dc991610d69565b61ffff9081811115610dd9575090565b1690565b7f4e487b7100000000000000000000000000000000000000000000000000000000600052601160045260246000fd5b5061ffff90565b6005811015610e255760051b60240190565b7f4e487b7100000000000000000000000000000000000000000000000000000000600052603260045260246000fd5b806000527f02dd7bc7dec4dceedda775e58dd541e08a116c6c53815c0bd028192f7b62680060205260406000203360005260205260ff6040600020541615610e995750565b604490604051907fe2517d3f0000000000000000000000000000000000000000000000000000000082523360048301526024820152fd5b73ffffffffffffffffffffffffffffffffffffffff1660008181527fb7db2dd08fcb62d0c9e08c51941cae53c267786a0b75803fb7960902fc8ef97d60205260408120549091907f02dd7bc7dec4dceedda775e58dd541e08a116c6c53815c0bd028192f7b6268009060ff16610fa857828052602052604082208183526020526040822060017fffffffffffffffffffffffffffffffffffffffffffffffffffffffffffffff0082541617905533917f2f8788117e7eff1d82e926ec794901d17c78024a50270940304540a733656f0d8180a4600190565b505090565b73ffffffffffffffffffffffffffffffffffffffff1660008181527f75e09417c5070057df3eafe5054d52fa0b2a87d64a235e197963b615aedee80360205260408120549091907f7935bd0ae54bc31f548c14dba4d37c5c64b3f8ca900cb468fb8abd54d5894f55907f02dd7bc7dec4dceedda775e58dd541e08a116c6c53815c0bd028192f7b6268009060ff166110a657818452602052604083208284526020526040832060017fffffffffffffffffffffffffffffffffffffffffffffffffffffffffffffff008254161790557f2f8788117e7eff1d82e926ec794901d17c78024a50270940304540a733656f0d339380a4600190565b50505090565b906000918083527f02dd7bc7dec4dceedda775e58dd541e08a116c6c53815c0bd028192f7b6268008060205273ffffffffffffffffffffffffffffffffffffffff6040852093169283855260205260ff604085205416156000146110a657818452602052604083208284526020526040832060017fffffffffffffffffffffffffffffffffffffffffffffffffffffffffffffff008254161790557f2f8788117e7eff1d82e926ec794901d17c78024a50270940304540a733656f0d339380a4600190565b906000918083527f02dd7bc7dec4dceedda775e58dd541e08a116c6c53815c0bd028192f7b6268008060205273ffffffffffffffffffffffffffffffffffffffff6040852093169283855260205260ff6040852054166000146110a65781845260205260408320828452602052604083207fffffffffffffffffffffffffffffffffffffffffffffffffffffffffffffff0081541690557ff6391f5c32d9c69d2a47ea670b442974b53935d1edc7fd64eb21e047a839171b339380a460019056fea264697066735822122018b4346818a3e97adee4143a1ab159231eac2512bf79f08e34db46b7a5afdd8764736f6c63430008180033","linkReferences":{}},"methodIdentifiers":{"ATTESTOR_ROLE()":"62723644","DEFAULT_ADMIN_ROLE()":"a217fddf","GOVERNOR_ROLE()":"ccc57490","attest(uint256,uint256[5],uint64,bytes32)":"db3df45d","coverageBps(uint256)":"6b9a6482","getRoleAdmin(bytes32)":"248a9ca3","grantRole(bytes32,address)":"2f2ff15d","hasRole(bytes32,address)":"91d14854","initialize(address,address)":"485cc955","last()":"47799da8","limits(uint8)":"14b32112","renounceRole(bytes32,address)":"36568abe","revokeRole(bytes32,address)":"d547741f","setLimit(uint8,uint16)":"4cc09eed","supportsInterface(bytes4)":"01ffc9a7"},"id":18}