{"abi":[{"type":"constructor","inputs":[{"name":"admin","type":"address","internalType":"address"},{"name":"o","type":"address","internalType":"contract IAttestationOracle"}],"stateMutability":"nonpayable"},{"type":"function","name":"DEFAULT_ADMIN_ROLE","inputs":[],"outputs":[{"name":"","type":"bytes32","internalType":"bytes32"}],"stateMutability":"view"},{"type":"function","name":"checkMint","inputs":[{"name":"reserveId","type":"bytes32","internalType":"bytes32"},{"name":"amount","type":"uint256","internalType":"uint256"}],"outputs":[{"name":"","type":"bool","internalType":"bool"}],"stateMutability":"view"},{"type":"function","name":"checkRedeem","inputs":[{"name":"reserveId","type":"bytes32","internalType":"bytes32"},{"name":"amount","type":"uint256","internalType":"uint256"}],"outputs":[{"name":"","type":"bool","internalType":"bool"}],"stateMutability":"view"},{"type":"function","name":"getRoleAdmin","inputs":[{"name":"role","type":"bytes32","internalType":"bytes32"}],"outputs":[{"name":"","type":"bytes32","internalType":"bytes32"}],"stateMutability":"view"},{"type":"function","name":"grantRole","inputs":[{"name":"role","type":"bytes32","internalType":"bytes32"},{"name":"account","type":"address","internalType":"address"}],"outputs":[],"stateMutability":"nonpayable"},{"type":"function","name":"hasRole","inputs":[{"name":"role","type":"bytes32","internalType":"bytes32"},{"name":"account","type":"address","internalType":"address"}],"outputs":[{"name":"","type":"bool","internalType":"bool"}],"stateMutability":"view"},{"type":"function","name":"issuer","inputs":[],"outputs":[{"name":"","type":"address","internalType":"address"}],"stateMutability":"view"},{"type":"function","name":"oracle","inputs":[],"outputs":[{"name":"","type":"address","internalType":"contract IAttestationOracle"}],"stateMutability":"view"},{"type":"function","name":"registerReserve","inputs":[{"name":"id","type":"bytes32","internalType":"bytes32"},{"name":"custodianWallet","type":"address","internalType":"address"},{"name":"assets","type":"address[]","internalType":"address[]"}],"outputs":[],"stateMutability":"nonpayable"},{"type":"function","name":"renounceRole","inputs":[{"name":"role","type":"bytes32","internalType":"bytes32"},{"name":"callerConfirmation","type":"address","internalType":"address"}],"outputs":[],"stateMutability":"nonpayable"},{"type":"function","name":"reserves","inputs":[{"name":"","type":"bytes32","internalType":"bytes32"}],"outputs":[{"name":"reserveId","type":"bytes32","internalType":"bytes32"},{"name":"custodianWallet","type":"address","internalType":"address"}],"stateMutability":"view"},{"type":"function","name":"revokeRole","inputs":[{"name":"role","type":"bytes32","internalType":"bytes32"},{"name":"account","type":"address","internalType":"address"}],"outputs":[],"stateMutability":"nonpayable"},{"type":"function","name":"setIssuer","inputs":[{"name":"_issuer","type":"address","internalType":"address"}],"outputs":[],"stateMutability":"nonpayable"},{"type":"function","name":"supportsInterface","inputs":[{"name":"interfaceId","type":"bytes4","internalType":"bytes4"}],"outputs":[{"name":"","type":"bool","internalType":"bool"}],"stateMutability":"view"},{"type":"event","name":"IssuerSet","inputs":[{"name":"issuer","type":"address","indexed":true,"internalType":"address"}],"anonymous":false},{"type":"event","name":"OracleSet","inputs":[{"name":"oracle","type":"address","indexed":true,"internalType":"address"}],"anonymous":false},{"type":"event","name":"ReserveRegistered","inputs":[{"name":"id","type":"bytes32","indexed":true,"internalType":"bytes32"},{"name":"assets","type":"address[]","indexed":false,"internalType":"address[]"}],"anonymous":false},{"type":"event","name":"RoleAdminChanged","inputs":[{"name":"role","type":"bytes32","indexed":true,"internalType":"bytes32"},{"name":"previousAdminRole","type":"bytes32","indexed":true,"internalType":"bytes32"},{"name":"newAdminRole","type":"bytes32","indexed":true,"internalType":"bytes32"}],"anonymous":false},{"type":"event","name":"RoleGranted","inputs":[{"name":"role","type":"bytes32","indexed":true,"internalType":"bytes32"},{"name":"account","type":"address","indexed":true,"internalType":"address"},{"name":"sender","type":"address","indexed":true,"internalType":"address"}],"anonymous":false},{"type":"event","name":"RoleRevoked","inputs":[{"name":"role","type":"bytes32","indexed":true,"internalType":"bytes32"},{"name":"account","type":"address","indexed":true,"internalType":"address"},{"name":"sender","type":"address","indexed":true,"internalType":"address"}],"anonymous":false},{"type":"error","name":"AccessControlBadConfirmation","inputs":[]},{"type":"error","name":"AccessControlUnauthorizedAccount","inputs":[{"name":"account","type":"address","internalType":"address"},{"name":"neededRole","type":"bytes32","internalType":"bytes32"}]}],"bytecode":{"object":"0x6080346100ba57601f6110ce38819003918201601f19168301916001600160401b038311848410176100bf5780849260409485528339810103126100ba5780516001600160a01b039182821682036100ba57602001519182168092036100ba578061006c610072926100d5565b50610175565b50600180546001600160a01b03191682179055604051907f3f32684a32a11dabdbb8c0177de80aa3ae36a004d75210335b49e544e48cd0aa600080a2610e9d90816102118239f35b600080fd5b634e487b7160e01b600052604160045260246000fd5b6001600160a01b031660008181527f5cbfc8ee58ca47855df7bcf648dd304ddb6b932f9b87878bdf6318d7ec7ee5b760205260408120549091907fdf8b4c520ffe197c5343c6f5aec59570151ef9a492f2c624fd45ddde6135ec429060ff1661017057808352826020526040832082845260205260408320600160ff198254161790556000805160206110ae833981519152339380a4600190565b505090565b6001600160a01b031660008181527f61e8821f3fb594caea4c3ef3ea69ab596efdbc5fa2c6264ced1dc07e125e24ca60205260408120549091907f8d9233e8f9e0681d692bebdd2fd8c8863336d587e831d84b9bff9f403d549b5f9060ff1661017057808352826020526040832082845260205260408320600160ff198254161790556000805160206110ae833981519152339380a460019056fe608060408181526004918236101561001657600080fd5b600092833560e01c918262bbf1e4146107c65750816301ffc9a7146107075781631d143848146106b4578163248a9ca31461066c5781632f2ff15d1461062457816336568abe1461059a57816336ae09d01461057e57816355cc4e57146104d55781637dc0d1d01461048257816391d14854146104125781639dd8388d1461017f578163a217fddf14610146578163d547741f146100e5575063f6fdb9f4146100be57600080fd5b346100e1576020906100d86100d236610874565b90610bc6565b90519015158152f35b5080fd5b9190503461014257807ffffffffffffffffffffffffffffffffffffffffffffffffffffffffffffffffc3601126101425761013e9135610139600161012861082b565b938387528660205286200154610cfb565b610dc6565b5080f35b8280fd5b5050346100e157817ffffffffffffffffffffffffffffffffffffffffffffffffffffffffffffffffc3601126100e15751908152602090f35b919050346101425760607ffffffffffffffffffffffffffffffffffffffffffffffffffffffffffffffffc360112610142578135916101bc61082b565b6044359067ffffffffffffffff9283831161040e573660238401121561040e57828101359184831161040a57602484019460248460051b809601019436861161040657610207610c68565b87519360608501858110848211176103da5789528985526020948581019773ffffffffffffffffffffffffffffffffffffffff809616895261024d878c5195018561090d565b87845289878086015b8383106103c25750505050808a600292019384528b8d52600387528a8d209051815560019886600183019151167fffffffffffffffffffffffff00000000000000000000000000000000000000008254161790550191519081519384116103965768010000000000000000841161039657508490825484845580851061036c575b50969594939601908a52828a208a5b838110610359575050505085519582828801838952528601949388905b8382106103355789897f9707116d3117d3cfee622eb92c0111c94071b9b6e53e8406da9bffc137dea96a8a8a038ba280f35b909192938380879884610348859a610853565b168152019701959493920190610303565b82518816828201559184019186016102e6565b8885848f8781522092830192015b8281106103885750506102d7565b8e81558894508a910161037a565b8b60416024927f4e487b7100000000000000000000000000000000000000000000000000000000835252fd5b81906103cd84610853565b8152019101908890610256565b60248c6041847f4e487b7100000000000000000000000000000000000000000000000000000000835252fd5b8980fd5b8780fd5b8680fd5b90503461014257817ffffffffffffffffffffffffffffffffffffffffffffffffffffffffffffffffc360112610142578160209360ff9261045161082b565b9035825281865273ffffffffffffffffffffffffffffffffffffffff83832091168252855220541690519015158152f35b5050346100e157817ffffffffffffffffffffffffffffffffffffffffffffffffffffffffffffffffc3601126100e15760209073ffffffffffffffffffffffffffffffffffffffff600154169051908152f35b8390346100e15760207ffffffffffffffffffffffffffffffffffffffffffffffffffffffffffffffffc3601126100e1573573ffffffffffffffffffffffffffffffffffffffff81168091036100e15761052d610c68565b807fffffffffffffffffffffffff000000000000000000000000000000000000000060025416176002557f141c634522c8bfcf25beba4c524ac0c87de0db74ebe83168cf5f3bf4d45fd8988280a280f35b5050346100e1576020906100d861059436610874565b90610acc565b8383346100e157807ffffffffffffffffffffffffffffffffffffffffffffffffffffffffffffffffc3601126100e1576105d261082b565b903373ffffffffffffffffffffffffffffffffffffffff8316036105fc575061013e919235610dc6565b8390517f6697b232000000000000000000000000000000000000000000000000000000008152fd5b9190503461014257807ffffffffffffffffffffffffffffffffffffffffffffffffffffffffffffffffc3601126101425761013e9135610667600161012861082b565b610d21565b9050346101425760207ffffffffffffffffffffffffffffffffffffffffffffffffffffffffffffffffc36011261014257816020936001923581528085522001549051908152f35b5050346100e157817ffffffffffffffffffffffffffffffffffffffffffffffffffffffffffffffffc3601126100e15760209073ffffffffffffffffffffffffffffffffffffffff600254169051908152f35b9050346101425760207ffffffffffffffffffffffffffffffffffffffffffffffffffffffffffffffffc3601126101425735907fffffffff00000000000000000000000000000000000000000000000000000000821680920361014257602092507f7965db0b00000000000000000000000000000000000000000000000000000000821491821561079c575b50519015158152f35b7f01ffc9a70000000000000000000000000000000000000000000000000000000014915038610793565b848492346100e15760207ffffffffffffffffffffffffffffffffffffffffffffffffffffffffffffffffc3601126100e15790839135815260036020522073ffffffffffffffffffffffffffffffffffffffff60018254920154169082526020820152f35b6024359073ffffffffffffffffffffffffffffffffffffffff8216820361084e57565b600080fd5b359073ffffffffffffffffffffffffffffffffffffffff8216820361084e57565b7ffffffffffffffffffffffffffffffffffffffffffffffffffffffffffffffffc604091011261084e576004359060243590565b156108af57565b60646040517f08c379a000000000000000000000000000000000000000000000000000000000815260206004820152600b60248201527f6f6e6c79206973737565720000000000000000000000000000000000000000006044820152fd5b90601f7fffffffffffffffffffffffffffffffffffffffffffffffffffffffffffffffe0910116810190811067ffffffffffffffff82111761094e57604052565b7f4e487b7100000000000000000000000000000000000000000000000000000000600052604160045260246000fd5b92919267ffffffffffffffff821161094e576020604051916109c760207fffffffffffffffffffffffffffffffffffffffffffffffffffffffffffffffe0601f870116018461090d565b82958484528482011161084e5760005b8481106109ec57505050600091602091010152565b8181015184820184015282016109d7565b919060408382031261084e57825167ffffffffffffffff9081811161084e5784019060c08284031261084e576040519160c083018381108382111761094e5760405280518352602081015160208401526040810151604084015260608101516060840152608081015182811161084e57810184601f8201121561084e5784816020610a8a9351910161097d565b608084015260a081015191821161084e570182601f8201121561084e576020928184610ab89351910161097d565b60a0820152920151801515810361084e5790565b9073ffffffffffffffffffffffffffffffffffffffff610af1816002541633146108a8565b60015416916040519283917f79feb107000000000000000000000000000000000000000000000000000000008352600483015281602460009586935afa8015610bbb5783918491610b97575b5015610b925760406060820151910151918201809211610b655710610b625750600190565b90565b6024837f4e487b710000000000000000000000000000000000000000000000000000000081526011600452fd5b505090565b9050610bb591503d8085833e610bad818361090d565b8101906109fd565b38610b3d565b6040513d85823e3d90fd5b9073ffffffffffffffffffffffffffffffffffffffff610beb816002541633146108a8565b60015416916040519283917f79feb107000000000000000000000000000000000000000000000000000000008352600483015281602460009586935afa8015610bbb5783918491610c4c575b5015610b92576040015110610b625750600190565b9050610c6291503d8085833e610bad818361090d565b38610c37565b3360009081527f5cbfc8ee58ca47855df7bcf648dd304ddb6b932f9b87878bdf6318d7ec7ee5b760205260409020547fdf8b4c520ffe197c5343c6f5aec59570151ef9a492f2c624fd45ddde6135ec429060ff1615610cc45750565b604490604051907fe2517d3f0000000000000000000000000000000000000000000000000000000082523360048301526024820152fd5b80600052600060205260406000203360005260205260ff6040600020541615610cc45750565b906000918083528260205273ffffffffffffffffffffffffffffffffffffffff6040842092169182845260205260ff60408420541615600014610b925780835282602052604083208284526020526040832060017fffffffffffffffffffffffffffffffffffffffffffffffffffffffffffffff008254161790557f2f8788117e7eff1d82e926ec794901d17c78024a50270940304540a733656f0d339380a4600190565b906000918083528260205273ffffffffffffffffffffffffffffffffffffffff6040842092169182845260205260ff604084205416600014610b92578083528260205260408320828452602052604083207fffffffffffffffffffffffffffffffffffffffffffffffffffffffffffffff0081541690557ff6391f5c32d9c69d2a47ea670b442974b53935d1edc7fd64eb21e047a839171b339380a460019056fea2646970667358221220324f3f0fefde00996fa9da4dd9d476481f59f72b74a2e013a40a21942770fbd964736f6c634300081800332f8788117e7eff1d82e926ec794901d17c78024a50270940304540a733656f0d","linkReferences":{}},"methodIdentifiers":{"DEFAULT_ADMIN_ROLE()":"a217fddf","checkMint(bytes32,uint256)":"36ae09d0","checkRedeem(bytes32,uint256)":"f6fdb9f4","getRoleAdmin(bytes32)":"248a9ca3","grantRole(bytes32,address)":"2f2ff15d","hasRole(bytes32,address)":"91d14854","issuer()":"1d143848","oracle()":"7dc0d1d0","registerReserve(bytes32,address,address[])":"9dd8388d","renounceRole(bytes32,address)":"36568abe","reserves(bytes32)":"00bbf1e4","revokeRole(bytes32,address)":"d547741f","setIssuer(address)":"55cc4e57","supportsInterface(bytes4)":"01ffc9a7"},"id":68}