{"abi":[{"type":"constructor","inputs":[{"name":"admin","type":"address","internalType":"address"},{"name":"oracle","type":"address","internalType":"address"}],"stateMutability":"nonpayable"},{"type":"function","name":"DEFAULT_ADMIN_ROLE","inputs":[],"outputs":[{"name":"","type":"bytes32","internalType":"bytes32"}],"stateMutability":"view"},{"type":"function","name":"get","inputs":[{"name":"reserveId","type":"bytes32","internalType":"bytes32"}],"outputs":[{"name":"ok","type":"bool","internalType":"bool"},{"name":"asOf","type":"uint64","internalType":"uint64"},{"name":"signer","type":"address","internalType":"address"}],"stateMutability":"view"},{"type":"function","name":"getRoleAdmin","inputs":[{"name":"role","type":"bytes32","internalType":"bytes32"}],"outputs":[{"name":"","type":"bytes32","internalType":"bytes32"}],"stateMutability":"view"},{"type":"function","name":"grantRole","inputs":[{"name":"role","type":"bytes32","internalType":"bytes32"},{"name":"account","type":"address","internalType":"address"}],"outputs":[],"stateMutability":"nonpayable"},{"type":"function","name":"hasRole","inputs":[{"name":"role","type":"bytes32","internalType":"bytes32"},{"name":"account","type":"address","internalType":"address"}],"outputs":[{"name":"","type":"bool","internalType":"bool"}],"stateMutability":"view"},{"type":"function","name":"pause","inputs":[],"outputs":[],"stateMutability":"nonpayable"},{"type":"function","name":"paused","inputs":[],"outputs":[{"name":"","type":"bool","internalType":"bool"}],"stateMutability":"view"},{"type":"function","name":"renounceRole","inputs":[{"name":"role","type":"bytes32","internalType":"bytes32"},{"name":"callerConfirmation","type":"address","internalType":"address"}],"outputs":[],"stateMutability":"nonpayable"},{"type":"function","name":"revokeRole","inputs":[{"name":"role","type":"bytes32","internalType":"bytes32"},{"name":"account","type":"address","internalType":"address"}],"outputs":[],"stateMutability":"nonpayable"},{"type":"function","name":"set","inputs":[{"name":"reserveId","type":"bytes32","internalType":"bytes32"},{"name":"ok","type":"bool","internalType":"bool"},{"name":"asOf","type":"uint64","internalType":"uint64"}],"outputs":[],"stateMutability":"nonpayable"},{"type":"function","name":"statusOf","inputs":[{"name":"","type":"bytes32","internalType":"bytes32"}],"outputs":[{"name":"ok","type":"bool","internalType":"bool"},{"name":"asOf","type":"uint64","internalType":"uint64"},{"name":"signer","type":"address","internalType":"address"}],"stateMutability":"view"},{"type":"function","name":"supportsInterface","inputs":[{"name":"interfaceId","type":"bytes4","internalType":"bytes4"}],"outputs":[{"name":"","type":"bool","internalType":"bool"}],"stateMutability":"view"},{"type":"function","name":"unpause","inputs":[],"outputs":[],"stateMutability":"nonpayable"},{"type":"event","name":"Paused","inputs":[{"name":"account","type":"address","indexed":false,"internalType":"address"}],"anonymous":false},{"type":"event","name":"PorUpdated","inputs":[{"name":"reserveId","type":"bytes32","indexed":true,"internalType":"bytes32"},{"name":"ok","type":"bool","indexed":false,"internalType":"bool"},{"name":"asOf","type":"uint64","indexed":false,"internalType":"uint64"},{"name":"by","type":"address","indexed":true,"internalType":"address"}],"anonymous":false},{"type":"event","name":"RoleAdminChanged","inputs":[{"name":"role","type":"bytes32","indexed":true,"internalType":"bytes32"},{"name":"previousAdminRole","type":"bytes32","indexed":true,"internalType":"bytes32"},{"name":"newAdminRole","type":"bytes32","indexed":true,"internalType":"bytes32"}],"anonymous":false},{"type":"event","name":"RoleGranted","inputs":[{"name":"role","type":"bytes32","indexed":true,"internalType":"bytes32"},{"name":"account","type":"address","indexed":true,"internalType":"address"},{"name":"sender","type":"address","indexed":true,"internalType":"address"}],"anonymous":false},{"type":"event","name":"RoleRevoked","inputs":[{"name":"role","type":"bytes32","indexed":true,"internalType":"bytes32"},{"name":"account","type":"address","indexed":true,"internalType":"address"},{"name":"sender","type":"address","indexed":true,"internalType":"address"}],"anonymous":false},{"type":"event","name":"Unpaused","inputs":[{"name":"account","type":"address","indexed":false,"internalType":"address"}],"anonymous":false},{"type":"error","name":"AccessControlBadConfirmation","inputs":[]},{"type":"error","name":"AccessControlUnauthorizedAccount","inputs":[{"name":"account","type":"address","internalType":"address"},{"name":"neededRole","type":"bytes32","internalType":"bytes32"}]},{"type":"error","name":"EnforcedPause","inputs":[]},{"type":"error","name":"ExpectedPause","inputs":[]}],"bytecode":{"object":"0x60803461009457601f610c4838819003918201601f19168301916001600160401b0383118484101761009957808492604094855283398101031261009457610065610055602061004e846100af565b93016100af565b9160ff19600154166001556100c3565b506001600160a01b038116610084575b604051610a4690816101e28239f35b61008d90610141565b5038610075565b600080fd5b634e487b7160e01b600052604160045260246000fd5b51906001600160a01b038216820361009457565b6001600160a01b031660008181527fad3228b676f7d3cd4284a5443f17f1962b36e491b30a40b2405849e597ba5fb5602052604081205490919060ff1661013d57818052816020526040822081835260205260408220600160ff198254161790553391600080516020610c288339815191528180a4600190565b5090565b6001600160a01b031660008181527f56e5822e13686eaa5c46cfa39933133a22208a18ec41a20857fad3e26619a2a860205260408120549091907f352d05fe3946dbe49277552ba941e744d5a96d9c60bc1ba0ea5f1d3ae000f7c89060ff166101dc57808352826020526040832082845260205260408320600160ff19825416179055600080516020610c28833981519152339380a4600190565b50509056fe608060408181526004918236101561001657600080fd5b600092833560e01c91826301ffc9a71461069757508163248a9ca31461064f5781632f2ff15d1461063157816336568abe146105d05781633f4ba83a146105115781635c975abb146104cf578163629be6dd146103345781638456cb591461029e5781638eaa6ac0146101f557816391d14854146101af578163a217fddf14610176578163c7df14e2146100eb575063d547741f146100b457600080fd5b346100e75760016100e3916100de6100cb36610753565b9390928387528660205286200154610869565b610939565b5080f35b5080fd5b9050346101725760207ffffffffffffffffffffffffffffffffffffffffffffffffffffffffffffffffc36011261017257358252600260209081529181902054905160ff821615158152600882901c67ffffffffffffffff169281019290925260481c73ffffffffffffffffffffffffffffffffffffffff166040820152606090f35b0390f35b8280fd5b5050346100e757817ffffffffffffffffffffffffffffffffffffffffffffffffffffffffffffffffc3601126100e75751908152602090f35b5050346100e75760ff816020936101c536610753565b90825281865273ffffffffffffffffffffffffffffffffffffffff83832091168252855220541690519015158152f35b9050346101725760207ffffffffffffffffffffffffffffffffffffffffffffffffffffffffffffffffc3601126101725791819235815260026020522061016e61023d6107a9565b915460ff81161515808452600882901c67ffffffffffffffff16602080860182905260489390931c73ffffffffffffffffffffffffffffffffffffffff16948601859052945190815290810193909352604083019190915281906060820190565b5050346100e757817ffffffffffffffffffffffffffffffffffffffffffffffffffffffffffffffffc3601126100e75760207f62e78cea01bee320cd4e420270b5ea74000d11b0c9f74754ebdbfc544b05a258916102fa6107f8565b6103026109da565b60017fffffffffffffffffffffffffffffffffffffffffffffffffffffffffffffff008154161760015551338152a180f35b919050346101725760607ffffffffffffffffffffffffffffffffffffffffffffffffffffffffffffffffc36011261017257813590602435928315158094036104cb576044359067ffffffffffffffff82168092036104c7577f352d05fe3946dbe49277552ba941e744d5a96d9c60bc1ba0ea5f1d3ae000f7c88087528660205283872033885260205260ff848820541615610491575050907f7438f02e4045beb169e0fe533a97a4c0e727bc53457ca1800d451b289418c312916103f76109da565b6103ff6107a9565b85815260208101828152838201338152868952600260205284892092511515917fffffff000000000000000000000000000000000000000000000000000000000060ff7cffffffffffffffffffffffffffffffffffffffff00000000000000000068ffffffffffffffff008754945160081b16945160481b16941691161717179055815194855260208501523393a380f35b604492508351917fe2517d3f00000000000000000000000000000000000000000000000000000000835233908301526024820152fd5b8580fd5b8480fd5b5050346100e757817ffffffffffffffffffffffffffffffffffffffffffffffffffffffffffffffffc3601126100e75760209060ff6001541690519015158152f35b90503461017257827ffffffffffffffffffffffffffffffffffffffffffffffffffffffffffffffffc360112610172576105496107f8565b6001549060ff8216156105a957507f5db9ee0a495bf2e6ff9c91a7834c1ba4fdd244a5e8aa4e537bd38aeae4b073aa917fffffffffffffffffffffffffffffffffffffffffffffffffffffffffffffff006020921660015551338152a180f35b82517f8dfc202b000000000000000000000000000000000000000000000000000000008152fd5b8383346100e7576105e036610753565b913373ffffffffffffffffffffffffffffffffffffffff8416036106095750906100e391610939565b8490517f6697b232000000000000000000000000000000000000000000000000000000008152fd5b5050346100e75760016100e39161064a6100cb36610753565b61088f565b9050346101725760207ffffffffffffffffffffffffffffffffffffffffffffffffffffffffffffffffc36011261017257816020936001923581528085522001549051908152f35b8491346101725760207ffffffffffffffffffffffffffffffffffffffffffffffffffffffffffffffffc36011261017257357fffffffff00000000000000000000000000000000000000000000000000000000811680910361017257602092507f7965db0b000000000000000000000000000000000000000000000000000000008114908115610729575b5015158152f35b7f01ffc9a70000000000000000000000000000000000000000000000000000000091501483610722565b7ffffffffffffffffffffffffffffffffffffffffffffffffffffffffffffffffc60409101126107a4576004359060243573ffffffffffffffffffffffffffffffffffffffff811681036107a45790565b600080fd5b604051906060820182811067ffffffffffffffff8211176107c957604052565b7f4e487b7100000000000000000000000000000000000000000000000000000000600052604160045260246000fd5b3360009081527fad3228b676f7d3cd4284a5443f17f1962b36e491b30a40b2405849e597ba5fb5602052604081205460ff16156108325750565b604490604051907fe2517d3f0000000000000000000000000000000000000000000000000000000082523360048301526024820152fd5b80600052600060205260406000203360005260205260ff60406000205416156108325750565b906000918083528260205273ffffffffffffffffffffffffffffffffffffffff6040842092169182845260205260ff604084205416156000146109345780835282602052604083208284526020526040832060017fffffffffffffffffffffffffffffffffffffffffffffffffffffffffffffff008254161790557f2f8788117e7eff1d82e926ec794901d17c78024a50270940304540a733656f0d339380a4600190565b505090565b906000918083528260205273ffffffffffffffffffffffffffffffffffffffff6040842092169182845260205260ff604084205416600014610934578083528260205260408320828452602052604083207fffffffffffffffffffffffffffffffffffffffffffffffffffffffffffffff0081541690557ff6391f5c32d9c69d2a47ea670b442974b53935d1edc7fd64eb21e047a839171b339380a4600190565b60ff600154166109e657565b60046040517fd93c0665000000000000000000000000000000000000000000000000000000008152fdfea2646970667358221220e1bdaa51d5bfb09ba91760e9675d4af81071f5001598ffe9c29ab0316010a91b64736f6c634300081800332f8788117e7eff1d82e926ec794901d17c78024a50270940304540a733656f0d","linkReferences":{}},"methodIdentifiers":{"DEFAULT_ADMIN_ROLE()":"a217fddf","get(bytes32)":"8eaa6ac0","getRoleAdmin(bytes32)":"248a9ca3","grantRole(bytes32,address)":"2f2ff15d","hasRole(bytes32,address)":"91d14854","pause()":"8456cb59","paused()":"5c975abb","renounceRole(bytes32,address)":"36568abe","revokeRole(bytes32,address)":"d547741f","set(bytes32,bool,uint64)":"629be6dd","statusOf(bytes32)":"c7df14e2","supportsInterface(bytes4)":"01ffc9a7","unpause()":"3f4ba83a"},"id":59}