{"abi":[{"type":"constructor","inputs":[{"name":"router_","type":"address","internalType":"address"},{"name":"reserve_","type":"address","internalType":"address"},{"name":"governor_","type":"address","internalType":"address"}],"stateMutability":"nonpayable"},{"type":"function","name":"broadcast","inputs":[{"name":"dstChain","type":"uint64","internalType":"uint64"},{"name":"receiver","type":"address","internalType":"address"}],"outputs":[{"name":"id","type":"bytes32","internalType":"bytes32"}],"stateMutability":"payable"},{"type":"function","name":"governor","inputs":[],"outputs":[{"name":"","type":"address","internalType":"address"}],"stateMutability":"view"},{"type":"function","name":"paused","inputs":[],"outputs":[{"name":"","type":"bool","internalType":"bool"}],"stateMutability":"view"},{"type":"function","name":"quote","inputs":[{"name":"dstChain","type":"uint64","internalType":"uint64"},{"name":"receiver","type":"address","internalType":"address"}],"outputs":[{"name":"feeWei","type":"uint256","internalType":"uint256"}],"stateMutability":"view"},{"type":"function","name":"reserve","inputs":[],"outputs":[{"name":"","type":"address","internalType":"address"}],"stateMutability":"view"},{"type":"function","name":"router","inputs":[],"outputs":[{"name":"","type":"address","internalType":"address"}],"stateMutability":"view"},{"type":"function","name":"setGovernor","inputs":[{"name":"g","type":"address","internalType":"address"}],"outputs":[],"stateMutability":"nonpayable"},{"type":"function","name":"setPaused","inputs":[{"name":"p","type":"bool","internalType":"bool"}],"outputs":[],"stateMutability":"nonpayable"},{"type":"event","name":"Broadcasted","inputs":[{"name":"messageId","type":"bytes32","indexed":false,"internalType":"bytes32"},{"name":"dst","type":"uint64","indexed":false,"internalType":"uint64"},{"name":"receiver","type":"address","indexed":false,"internalType":"address"},{"name":"epoch","type":"uint64","indexed":false,"internalType":"uint64"},{"name":"totalAssets1e18","type":"uint256","indexed":false,"internalType":"uint256"}],"anonymous":false},{"type":"event","name":"GovernorChanged","inputs":[{"name":"oldGov","type":"address","indexed":true,"internalType":"address"},{"name":"newGov","type":"address","indexed":true,"internalType":"address"}],"anonymous":false},{"type":"event","name":"Paused","inputs":[{"name":"p","type":"bool","indexed":false,"internalType":"bool"}],"anonymous":false},{"type":"error","name":"InvalidParam","inputs":[]},{"type":"error","name":"Paused","inputs":[]},{"type":"error","name":"Unauthorized","inputs":[]}],"bytecode":{"object":"0x60c0346100c457601f610fc438819003918201601f19168301916001600160401b038311848410176100c9578084926060946040528339810103126100c457610047816100df565b906100606040610059602084016100df565b92016100df565b60809290925260a052600080546001600160a81b0319166001600160a01b03909216919091179055604051610ed090816100f4823960805181818160c3015281816102f801526108d7015260a051818181610166015281816105a3015261070d0152f35b600080fd5b634e487b7160e01b600052604160045260246000fd5b51906001600160a01b03821682036100c45756fe60806040818152600436101561001457600080fd5b600091823560e01c9081630c340a2414610ab25750806316c38b3c146109ba5780635c975abb14610978578063a6caf0cf146106a5578063c42cf535146105c7578063cd3293de14610559578063d4447a27146100eb5763f887ea401461007a57600080fd5b346100e757817ffffffffffffffffffffffffffffffffffffffffffffffffffffffffffffffffc3601126100e7576020905173ffffffffffffffffffffffffffffffffffffffff7f0000000000000000000000000000000000000000000000000000000000000000168152f35b5080fd5b50906100f636610b00565b9290825473ffffffffffffffffffffffffffffffffffffffff9081811633036105305760a01c60ff166105075761012b610d74565b50610134610da0565b508251907f5d7e75c90000000000000000000000000000000000000000000000000000000082526101208083600481857f0000000000000000000000000000000000000000000000000000000000000000165afa9283156104fd57869187946104c9575b50508251926020978882015193898489808601516060870151608088015160a08901519160c08a01519367ffffffffffffffff9c8d60e08d01511696519e8f998a019861025199979361012097939a99959196929a6101408a019b7f8685be0e666dc651f8f93dfd71f074b00dc9b3639dcd33a4f54ee5ff5a3f2d068b5267ffffffffffffffff80991660208c015260408b015260608a0152608089015260a088015260c087015260e086015261010085015216910152565b037fffffffffffffffffffffffffffffffffffffffffffffffffffffffffffffffe09081810188526102839088610beb565b88519061028f82610b67565b62030d4082528b820160019052895180928d8201906102be909160208060408301948051845201511515910152565b0390810182526102ce9082610beb565b818951936102db85610bb2565b16968784528b8401528883016060905289606084015260808301527f00000000000000000000000000000000000000000000000000000000000000001687517f3963bb350000000000000000000000000000000000000000000000000000000081528a81808a86600483019161035092610c8a565b0381855afa9081156104bf578a9161048e575b503410610465576103a4918a91895180809581947ffc8ef9b90000000000000000000000000000000000000000000000000000000083528c60048401610c8a565b039134905af197881561045a578098610405575b5050518551878152948316888601528486019390935216606083015260808201527ff19744f467001c9a094dc926b8c32a8e934823d69329e33f90bcb7e73f92f37b9060a090a151908152f35b909197508882813d8311610453575b61041e8183610beb565b8101031261045057505195817ff19744f467001c9a094dc926b8c32a8e934823d69329e33f90bcb7e73f92f37b6103b8565b80fd5b503d610414565b8751903d90823e3d90fd5b600488517fd2529034000000000000000000000000000000000000000000000000000000008152fd5b90508a81813d83116104b8575b6104a58183610beb565b810103126104b4575138610363565b8980fd5b503d61049b565b89513d8c823e3d90fd5b6104ed93945080919250903d106104f6575b6104e58183610beb565b810190610df3565b91903880610198565b503d6104db565b85513d88823e3d90fd5b600483517f9e87fac8000000000000000000000000000000000000000000000000000000008152fd5b600484517f82b42900000000000000000000000000000000000000000000000000000000008152fd5b50346100e757817ffffffffffffffffffffffffffffffffffffffffffffffffffffffffffffffffc3601126100e7576020905173ffffffffffffffffffffffffffffffffffffffff7f0000000000000000000000000000000000000000000000000000000000000000168152f35b50346100e75760207ffffffffffffffffffffffffffffffffffffffffffffffffffffffffffffffffc3601126100e7576004359073ffffffffffffffffffffffffffffffffffffffff908183168093036106a157835491821690813303610678575090827fffffffffffffffffffffffff0000000000000000000000000000000000000000927fde4b3f61490b74c0ed6237523974fe299126bbbf8a8a7482fd220104c59b0c848680a31617815580f35b600490517f82b42900000000000000000000000000000000000000000000000000000000008152fd5b8380fd5b509034610450576106b536610b00565b6106bd610d74565b506106c6610da0565b5073ffffffffffffffffffffffffffffffffffffffff8451927f5d7e75c90000000000000000000000000000000000000000000000000000000084526101208085600481867f0000000000000000000000000000000000000000000000000000000000000000165afa94851561096e5791879593916108d395938891899661094c575b505061086e9061087a865161080660209c898e9a938b809501518383015160608401519060808501519260a08601519467ffffffffffffffff60e060c08901519801511697519b8c9a8b01979361012097939a99959196929a6101408a019b7f8685be0e666dc651f8f93dfd71f074b00dc9b3639dcd33a4f54ee5ff5a3f2d068b5267ffffffffffffffff80991660208c015260408b015260608a0152608089015260a088015260c087015260e086015261010085015216910152565b036108377fffffffffffffffffffffffffffffffffffffffffffffffffffffffffffffffe091828101855284610beb565b895161084281610b67565b62030d4081526001898201528a519485918a830191909160208060408301948051845201511515910152565b03908101845283610beb565b8388519561088787610bb2565b16855285850152606087850152876060850152608084015285518095819482937f3963bb3500000000000000000000000000000000000000000000000000000000845260048401610c8a565b03917f0000000000000000000000000000000000000000000000000000000000000000165afa92831561094157809361090f575b505051908152f35b909192508382813d831161093a575b6109288183610beb565b81010312610450575051903880610907565b503d61091e565b8251903d90823e3d90fd5b61086e96506109679250803d106104f6576104e58183610beb565b9438610749565b87513d88823e3d90fd5b50346100e757817ffffffffffffffffffffffffffffffffffffffffffffffffffffffffffffffffc3601126100e75760ff6020925460a01c1690519015158152f35b50346100e75760207ffffffffffffffffffffffffffffffffffffffffffffffffffffffffffffffffc3601126100e75760043590811515809203610aae57825473ffffffffffffffffffffffffffffffffffffffff81163303610a85577fffffffffffffffffffffff00ffffffffffffffffffffffffffffffffffffffff1660a083901b74ff000000000000000000000000000000000000000016178355519081527f0e2fb031ee032dc02d8011dc50b816eb450cf856abd8261680dac74f72165bd290602090a180f35b600482517f82b42900000000000000000000000000000000000000000000000000000000008152fd5b8280fd5b8390346100e757817ffffffffffffffffffffffffffffffffffffffffffffffffffffffffffffffffc3601126100e75773ffffffffffffffffffffffffffffffffffffffff60209254168152f35b7ffffffffffffffffffffffffffffffffffffffffffffffffffffffffffffffffc6040910112610b625760043567ffffffffffffffff81168103610b62579060243573ffffffffffffffffffffffffffffffffffffffff81168103610b625790565b600080fd5b6040810190811067ffffffffffffffff821117610b8357604052565b7f4e487b7100000000000000000000000000000000000000000000000000000000600052604160045260246000fd5b60a0810190811067ffffffffffffffff821117610b8357604052565b610100810190811067ffffffffffffffff821117610b8357604052565b90601f7fffffffffffffffffffffffffffffffffffffffffffffffffffffffffffffffe0910116810190811067ffffffffffffffff821117610b8357604052565b919082519283825260005b848110610c765750507fffffffffffffffffffffffffffffffffffffffffffffffffffffffffffffffe0601f8460006020809697860101520116010190565b602081830181015184830182015201610c37565b92919267ffffffffffffffff60409216815260209060408282015273ffffffffffffffffffffffffffffffffffffffff94858151166040830152610cdc8382015160a0606085015260e0840190610c2c565b936040820151947fffffffffffffffffffffffffffffffffffffffffffffffffffffffffffffffc094858583030160808601528080885193848152019701926000905b838210610d52575050505050608081610d4f9697606060c09401511660a085015201519282850301910152610c2c565b90565b845180518c168a52830151898401529788019793820193600190910190610d1f565b60405190610d8182610bb2565b6060608083600081528260208201528260408201526000838201520152565b60405190610dad82610bce565b8160e06000918281528260208201528260408201528260608201528260808201528260a08201528260c08201520152565b519067ffffffffffffffff82168203610b6257565b80929103916101208312610b62577fffffffffffffffffffffffffffffffffffffffffffffffffffffffffffffffe0610e2b82610dde565b936101009182910112610b6257610e929060405192610e4984610bce565b6020810151845260408101516020850152606081015160408501526080810151606085015260a0810151608085015260c081015160a085015260e081015160c085015201610dde565b60e08201529056fea2646970667358221220b279a1239a38cef364beffab24171fd5760b4d96596fdf20871d9067642143c864736f6c63430008180033","linkReferences":{}},"methodIdentifiers":{"broadcast(uint64,address)":"d4447a27","governor()":"0c340a24","paused()":"5c975abb","quote(uint64,address)":"a6caf0cf","reserve()":"cd3293de","router()":"f887ea40","setGovernor(address)":"c42cf535","setPaused(bool)":"16c38b3c"},"id":0}