{"abi":[{"type":"function","name":"AP_ROLE","inputs":[],"outputs":[{"name":"","type":"bytes32","internalType":"bytes32"}],"stateMutability":"view"},{"type":"function","name":"AUDITOR_ROLE","inputs":[],"outputs":[{"name":"","type":"bytes32","internalType":"bytes32"}],"stateMutability":"view"},{"type":"function","name":"CASHIER_ROLE","inputs":[],"outputs":[{"name":"","type":"bytes32","internalType":"bytes32"}],"stateMutability":"view"},{"type":"function","name":"GOVERNOR_ROLE","inputs":[],"outputs":[{"name":"","type":"bytes32","internalType":"bytes32"}],"stateMutability":"view"},{"type":"function","name":"OPERATOR_ROLE","inputs":[],"outputs":[{"name":"","type":"bytes32","internalType":"bytes32"}],"stateMutability":"view"},{"type":"function","name":"READER_ROLE","inputs":[],"outputs":[{"name":"","type":"bytes32","internalType":"bytes32"}],"stateMutability":"view"},{"type":"function","name":"SIGNER_ROLE","inputs":[],"outputs":[{"name":"","type":"bytes32","internalType":"bytes32"}],"stateMutability":"view"}],"bytecode":{"object":"0x6080806040523461001a576102ed9081610020823930815050f35b600080fdfe60806040818152600436101561001457600080fd5b600091823560e01c908163458c445814610264575080635e27de2b146102115780636e1d616e146101be578063a1ebf35d1461016b578063b7fd968414610118578063ccc57490146100c55763f5b541a61461006f57600080fd5b817ffffffffffffffffffffffffffffffffffffffffffffffffffffffffffffffffc3601126100c157602090517f97667070c54ef182b0f5858b034beac1b6f3089aa2d3188bb1e8929f4fa9b9298152f35b5080fd5b50817ffffffffffffffffffffffffffffffffffffffffffffffffffffffffffffffffc3601126100c157602090517f7935bd0ae54bc31f548c14dba4d37c5c64b3f8ca900cb468fb8abd54d5894f558152f35b50817ffffffffffffffffffffffffffffffffffffffffffffffffffffffffffffffffc3601126100c157602090517fff3317e1e0e8c784290b957ee9b65ea8fe96420c4819db463283b95ecbe4a3fe8152f35b50817ffffffffffffffffffffffffffffffffffffffffffffffffffffffffffffffffc3601126100c157602090517fe2f4eaae4a9751e85a3e4a7b9587827a877f29914755229b07a7b2da98285f708152f35b50817ffffffffffffffffffffffffffffffffffffffffffffffffffffffffffffffffc3601126100c157602090517f59a1c48e5837ad7a7f3dcedcbe129bf3249ec4fbf651fd4f5e2600ead39fe2f58152f35b50817ffffffffffffffffffffffffffffffffffffffffffffffffffffffffffffffffc3601126100c157602090517fd71162bcb954a21e61e075a59207329b4ad08d2acb8e72207197faeda4f5a2b48152f35b8390817ffffffffffffffffffffffffffffffffffffffffffffffffffffffffffffffffc3601126100c157807fc757f485a2bb9eadbad5c86f7618c2a7a2ecb41b29f8610fb0e8bea3ed5ab6cf60209252f3fea26469706673582212207bc1d9eec7300feb0a860d2db635b0a5d3e56568416d2dd2a376deff538dff1064736f6c63430008180033","linkReferences":{}},"methodIdentifiers":{"AP_ROLE()":"5e27de2b","AUDITOR_ROLE()":"6e1d616e","CASHIER_ROLE()":"b7fd9684","GOVERNOR_ROLE()":"ccc57490","OPERATOR_ROLE()":"f5b541a6","READER_ROLE()":"458c4458","SIGNER_ROLE()":"a1ebf35d"},"id":8}