{"abi":[{"type":"constructor","inputs":[],"stateMutability":"nonpayable"},{"type":"function","name":"AUDITOR_ROLE","inputs":[],"outputs":[{"name":"","type":"bytes32","internalType":"bytes32"}],"stateMutability":"view"},{"type":"function","name":"DEFAULT_ADMIN_ROLE","inputs":[],"outputs":[{"name":"","type":"bytes32","internalType":"bytes32"}],"stateMutability":"view"},{"type":"function","name":"MINER_ROLE","inputs":[],"outputs":[{"name":"","type":"bytes32","internalType":"bytes32"}],"stateMutability":"view"},{"type":"function","name":"allowance","inputs":[{"name":"owner","type":"address","internalType":"address"},{"name":"spender","type":"address","internalType":"address"}],"outputs":[{"name":"","type":"uint256","internalType":"uint256"}],"stateMutability":"view"},{"type":"function","name":"approve","inputs":[{"name":"spender","type":"address","internalType":"address"},{"name":"value","type":"uint256","internalType":"uint256"}],"outputs":[{"name":"","type":"bool","internalType":"bool"}],"stateMutability":"nonpayable"},{"type":"function","name":"auditReserve","inputs":[{"name":"reserveId","type":"bytes32","internalType":"bytes32"},{"name":"auditedAmount","type":"uint256","internalType":"uint256"},{"name":"reportHash","type":"bytes32","internalType":"bytes32"}],"outputs":[],"stateMutability":"nonpayable"},{"type":"function","name":"audits","inputs":[{"name":"","type":"bytes32","internalType":"bytes32"},{"name":"","type":"uint256","internalType":"uint256"}],"outputs":[{"name":"reserveId","type":"bytes32","internalType":"bytes32"},{"name":"auditedAmount","type":"uint256","internalType":"uint256"},{"name":"auditor","type":"address","internalType":"address"},{"name":"reportHash","type":"bytes32","internalType":"bytes32"},{"name":"timestamp","type":"uint256","internalType":"uint256"}],"stateMutability":"view"},{"type":"function","name":"balanceOf","inputs":[{"name":"account","type":"address","internalType":"address"}],"outputs":[{"name":"","type":"uint256","internalType":"uint256"}],"stateMutability":"view"},{"type":"function","name":"decimals","inputs":[],"outputs":[{"name":"","type":"uint8","internalType":"uint8"}],"stateMutability":"view"},{"type":"function","name":"getAuditCount","inputs":[{"name":"reserveId","type":"bytes32","internalType":"bytes32"}],"outputs":[{"name":"","type":"uint256","internalType":"uint256"}],"stateMutability":"view"},{"type":"function","name":"getAuditHistory","inputs":[{"name":"reserveId","type":"bytes32","internalType":"bytes32"},{"name":"index","type":"uint256","internalType":"uint256"}],"outputs":[{"name":"","type":"tuple","internalType":"struct GoldRWAToken.GoldAudit","components":[{"name":"reserveId","type":"bytes32","internalType":"bytes32"},{"name":"auditedAmount","type":"uint256","internalType":"uint256"},{"name":"auditor","type":"address","internalType":"address"},{"name":"reportHash","type":"bytes32","internalType":"bytes32"},{"name":"timestamp","type":"uint256","internalType":"uint256"}]}],"stateMutability":"view"},{"type":"function","name":"getReserve","inputs":[{"name":"reserveId","type":"bytes32","internalType":"bytes32"}],"outputs":[{"name":"","type":"tuple","internalType":"struct GoldRWAToken.GoldReserve","components":[{"name":"mineLocation","type":"string","internalType":"string"},{"name":"provenReserves","type":"uint256","internalType":"uint256"},{"name":"probableReserves","type":"uint256","internalType":"uint256"},{"name":"geologicalSurveyHash","type":"bytes32","internalType":"bytes32"},{"name":"miningRightsHash","type":"bytes32","internalType":"bytes32"},{"name":"miningCompany","type":"address","internalType":"address"},{"name":"lastAuditTimestamp","type":"uint256","internalType":"uint256"},{"name":"isActive","type":"bool","internalType":"bool"}]}],"stateMutability":"view"},{"type":"function","name":"getRoleAdmin","inputs":[{"name":"role","type":"bytes32","internalType":"bytes32"}],"outputs":[{"name":"","type":"bytes32","internalType":"bytes32"}],"stateMutability":"view"},{"type":"function","name":"grantRole","inputs":[{"name":"role","type":"bytes32","internalType":"bytes32"},{"name":"account","type":"address","internalType":"address"}],"outputs":[],"stateMutability":"nonpayable"},{"type":"function","name":"hasRole","inputs":[{"name":"role","type":"bytes32","internalType":"bytes32"},{"name":"account","type":"address","internalType":"address"}],"outputs":[{"name":"","type":"bool","internalType":"bool"}],"stateMutability":"view"},{"type":"function","name":"mintAgainstReserve","inputs":[{"name":"to","type":"address","internalType":"address"},{"name":"amount","type":"uint256","internalType":"uint256"},{"name":"reserveId","type":"bytes32","internalType":"bytes32"}],"outputs":[],"stateMutability":"nonpayable"},{"type":"function","name":"name","inputs":[],"outputs":[{"name":"","type":"string","internalType":"string"}],"stateMutability":"view"},{"type":"function","name":"registerReserve","inputs":[{"name":"reserveId","type":"bytes32","internalType":"bytes32"},{"name":"mineLocation","type":"string","internalType":"string"},{"name":"provenReserves","type":"uint256","internalType":"uint256"},{"name":"probableReserves","type":"uint256","internalType":"uint256"},{"name":"geologicalSurveyHash","type":"bytes32","internalType":"bytes32"},{"name":"miningRightsHash","type":"bytes32","internalType":"bytes32"},{"name":"miningCompany","type":"address","internalType":"address"}],"outputs":[],"stateMutability":"nonpayable"},{"type":"function","name":"renounceRole","inputs":[{"name":"role","type":"bytes32","internalType":"bytes32"},{"name":"callerConfirmation","type":"address","internalType":"address"}],"outputs":[],"stateMutability":"nonpayable"},{"type":"function","name":"reserves","inputs":[{"name":"","type":"bytes32","internalType":"bytes32"}],"outputs":[{"name":"mineLocation","type":"string","internalType":"string"},{"name":"provenReserves","type":"uint256","internalType":"uint256"},{"name":"probableReserves","type":"uint256","internalType":"uint256"},{"name":"geologicalSurveyHash","type":"bytes32","internalType":"bytes32"},{"name":"miningRightsHash","type":"bytes32","internalType":"bytes32"},{"name":"miningCompany","type":"address","internalType":"address"},{"name":"lastAuditTimestamp","type":"uint256","internalType":"uint256"},{"name":"isActive","type":"bool","internalType":"bool"}],"stateMutability":"view"},{"type":"function","name":"revokeRole","inputs":[{"name":"role","type":"bytes32","internalType":"bytes32"},{"name":"account","type":"address","internalType":"address"}],"outputs":[],"stateMutability":"nonpayable"},{"type":"function","name":"supportsInterface","inputs":[{"name":"interfaceId","type":"bytes4","internalType":"bytes4"}],"outputs":[{"name":"","type":"bool","internalType":"bool"}],"stateMutability":"view"},{"type":"function","name":"symbol","inputs":[],"outputs":[{"name":"","type":"string","internalType":"string"}],"stateMutability":"view"},{"type":"function","name":"totalSupply","inputs":[],"outputs":[{"name":"","type":"uint256","internalType":"uint256"}],"stateMutability":"view"},{"type":"function","name":"transfer","inputs":[{"name":"to","type":"address","internalType":"address"},{"name":"value","type":"uint256","internalType":"uint256"}],"outputs":[{"name":"","type":"bool","internalType":"bool"}],"stateMutability":"nonpayable"},{"type":"function","name":"transferFrom","inputs":[{"name":"from","type":"address","internalType":"address"},{"name":"to","type":"address","internalType":"address"},{"name":"value","type":"uint256","internalType":"uint256"}],"outputs":[{"name":"","type":"bool","internalType":"bool"}],"stateMutability":"nonpayable"},{"type":"event","name":"Approval","inputs":[{"name":"owner","type":"address","indexed":true,"internalType":"address"},{"name":"spender","type":"address","indexed":true,"internalType":"address"},{"name":"value","type":"uint256","indexed":false,"internalType":"uint256"}],"anonymous":false},{"type":"event","name":"GoldMinted","inputs":[{"name":"to","type":"address","indexed":true,"internalType":"address"},{"name":"amount","type":"uint256","indexed":false,"internalType":"uint256"},{"name":"reserveId","type":"bytes32","indexed":false,"internalType":"bytes32"}],"anonymous":false},{"type":"event","name":"ReserveAudited","inputs":[{"name":"reserveId","type":"bytes32","indexed":true,"internalType":"bytes32"},{"name":"amount","type":"uint256","indexed":false,"internalType":"uint256"},{"name":"auditor","type":"address","indexed":false,"internalType":"address"}],"anonymous":false},{"type":"event","name":"ReserveRegistered","inputs":[{"name":"reserveId","type":"bytes32","indexed":true,"internalType":"bytes32"},{"name":"location","type":"string","indexed":false,"internalType":"string"},{"name":"amount","type":"uint256","indexed":false,"internalType":"uint256"}],"anonymous":false},{"type":"event","name":"RoleAdminChanged","inputs":[{"name":"role","type":"bytes32","indexed":true,"internalType":"bytes32"},{"name":"previousAdminRole","type":"bytes32","indexed":true,"internalType":"bytes32"},{"name":"newAdminRole","type":"bytes32","indexed":true,"internalType":"bytes32"}],"anonymous":false},{"type":"event","name":"RoleGranted","inputs":[{"name":"role","type":"bytes32","indexed":true,"internalType":"bytes32"},{"name":"account","type":"address","indexed":true,"internalType":"address"},{"name":"sender","type":"address","indexed":true,"internalType":"address"}],"anonymous":false},{"type":"event","name":"RoleRevoked","inputs":[{"name":"role","type":"bytes32","indexed":true,"internalType":"bytes32"},{"name":"account","type":"address","indexed":true,"internalType":"address"},{"name":"sender","type":"address","indexed":true,"internalType":"address"}],"anonymous":false},{"type":"event","name":"Transfer","inputs":[{"name":"from","type":"address","indexed":true,"internalType":"address"},{"name":"to","type":"address","indexed":true,"internalType":"address"},{"name":"value","type":"uint256","indexed":false,"internalType":"uint256"}],"anonymous":false},{"type":"error","name":"AccessControlBadConfirmation","inputs":[]},{"type":"error","name":"AccessControlUnauthorizedAccount","inputs":[{"name":"account","type":"address","internalType":"address"},{"name":"neededRole","type":"bytes32","internalType":"bytes32"}]},{"type":"error","name":"ERC20InsufficientAllowance","inputs":[{"name":"spender","type":"address","internalType":"address"},{"name":"allowance","type":"uint256","internalType":"uint256"},{"name":"needed","type":"uint256","internalType":"uint256"}]},{"type":"error","name":"ERC20InsufficientBalance","inputs":[{"name":"sender","type":"address","internalType":"address"},{"name":"balance","type":"uint256","internalType":"uint256"},{"name":"needed","type":"uint256","internalType":"uint256"}]},{"type":"error","name":"ERC20InvalidApprover","inputs":[{"name":"approver","type":"address","internalType":"address"}]},{"type":"error","name":"ERC20InvalidReceiver","inputs":[{"name":"receiver","type":"address","internalType":"address"}]},{"type":"error","name":"ERC20InvalidSender","inputs":[{"name":"sender","type":"address","internalType":"address"}]},{"type":"error","name":"ERC20InvalidSpender","inputs":[{"name":"spender","type":"address","internalType":"address"}]}],"bytecode":{"object":"0x6080346200034a576040906001600160401b03908083018281118282101762000334578352600e81526020916d23b7b63210292ba0902a37b5b2b760911b838301528351928484018481108382111762000334578552600493848152634752574160e01b828201528351908382116200031f576003928354926001968785811c9516801562000314575b83861014620002ff578190601f95868111620002a9575b508390868311600114620002425760009262000236575b505060001982871b1c191690871b1784555b8151948511620002215786548681811c9116801562000216575b828210146200020157838111620001b6575b50809285116001146200014857509383949184926000956200013c575b50501b92600019911b1c19161790555b6200012d336200034f565b5051611ceb9081620003e28239f35b01519350388062000112565b92919084601f1981168860005285600020956000905b898383106200019b575050501062000180575b50505050811b01905562000122565b01519060f884600019921b161c191690553880808062000171565b8587015189559097019694850194889350908101906200015e565b87600052816000208480880160051c820192848910620001f7575b0160051c019087905b828110620001ea575050620000f5565b60008155018790620001da565b92508192620001d1565b602288634e487b7160e01b6000525260246000fd5b90607f1690620000e3565b604187634e487b7160e01b6000525260246000fd5b015190503880620000b7565b90899350601f1983169188600052856000209260005b8782821062000292575050841162000279575b505050811b018455620000c9565b015160001983891b60f8161c191690553880806200026b565b8385015186558d9790950194938401930162000258565b90915086600052836000208680850160051c820192868610620002f5575b918b91869594930160051c01915b828110620002e5575050620000a0565b600081558594508b9101620002d5565b92508192620002c7565b602289634e487b7160e01b6000525260246000fd5b94607f169462000089565b604186634e487b7160e01b6000525260246000fd5b634e487b7160e01b600052604160045260246000fd5b600080fd5b6001600160a01b031660008181527f05b8ccbb9d4d8fb16ea74ce3c29a41f1b461fbdaff4714a0d9a8eb05499746bc602052604081205490919060ff16620003dd5781805260056020526040822081835260205260408220600160ff1982541617905533917f2f8788117e7eff1d82e926ec794901d17c78024a50270940304540a733656f0d8180a4600190565b509056fe6080604052600436101561001257600080fd5b60003560e01c8062bbf1e41461161157806301ffc9a71461155257806306fdde0314611486578063075b143e14611409578063095ea7b31461135857806318160ddd1461131c5780631ce8716a14610f0157806323b872dd14610d7c578063248a9ca314610d2f5780632f2ff15d14610cd2578063313ce56714610c9857806336568abe14610c0e57806339486b4214610b44578063599ec514146109ed5780636394f6e6146109945780636e1d616e1461093b57806370a08231146108d657806391d148541461085d57806395d89b411461073a578063a217fddf14610700578063a465637f146106b6578063a9059cbb14610667578063b1540ffe14610464578063d547741f14610405578063dd62ed3e146103885763f5e238591461013957600080fd5b346103835760607ffffffffffffffffffffffffffffffffffffffffffffffffffffffffffffffffc360112610383573360009081527f318595587b435248c1c0d84f694e524594f9c16fb93ac19f9f10a2980147457960209081526040909120546004359190602435907f59a1c48e5837ad7a7f3dcedcbe129bf3249ec4fbf651fd4f5e2600ead39fe2f59060ff161561034c575082600052600682526101ea60ff6007604060002001541661198f565b8260005260078252604060002090604051926102058461174b565b84845280840192828452604085019433865260608101916044358352608082019042825280546801000000000000000081101561031d5761024b916001820181556118fe565b9390936102ee577f24c6f1350d256f18e2f0a73cdec0ddf791eac23ee532de35a3e12268d7a2f1939760409760049451865551600186015573ffffffffffffffffffffffffffffffffffffffff600286019151167fffffffffffffffffffffffff000000000000000000000000000000000000000082541617905551600384015551910155846000526006815242600684600020015582519182523390820152a2005b7f4e487b7100000000000000000000000000000000000000000000000000000000600052600060045260246000fd5b7f4e487b7100000000000000000000000000000000000000000000000000000000600052604160045260246000fd5b604490604051907fe2517d3f0000000000000000000000000000000000000000000000000000000082523360048301526024820152fd5b600080fd5b346103835760407ffffffffffffffffffffffffffffffffffffffffffffffffffffffffffffffffc360112610383576103bf611949565b6103c761196c565b9073ffffffffffffffffffffffffffffffffffffffff8091166000526001602052604060002091166000526020526020604060002054604051908152f35b346103835760407ffffffffffffffffffffffffffffffffffffffffffffffffffffffffffffffffc3601126103835761046260043561044261196c565b9080600052600560205261045d600160406000200154611a30565b611c12565b005b346103835760607ffffffffffffffffffffffffffffffffffffffffffffffffffffffffffffffffc3601126103835761049b611949565b3360009081527f3de3a5b1ffc791a2610e47e24e83785c5ccd23c1adf96c4add4adf599114497660209081526040909120546044359290602435907fa952726ef2588ad078edf35b066f7c7406e207cb0003bbaba8cb53eba9553e729060ff161561034c5750836000526006835261051d60ff6007604060002001541661198f565b8360005260068352600160406000200154916002549261053d83856119f4565b116106095773ffffffffffffffffffffffffffffffffffffffff169384156105d8577f485e238c0f53baff76479b81b6300f866926a74146690fd63ac746280a576f0f9361058d836040956119f4565b6002558560005260008152836000208381540190558560007fddf252ad1be2c89b69c2b068fc378daa952ba7f163c4a11628f55a4df523b3ef838751878152a38351928352820152a2005b60246040517fec442f0500000000000000000000000000000000000000000000000000000000815260006004820152fd5b606484604051907f08c379a00000000000000000000000000000000000000000000000000000000082526004820152601760248201527f457863656564732070726f76656e2072657365727665730000000000000000006044820152fd5b346103835760407ffffffffffffffffffffffffffffffffffffffffffffffffffffffffffffffffc360112610383576106ab6106a1611949565b6024359033611a56565b602060405160018152f35b346103835760207ffffffffffffffffffffffffffffffffffffffffffffffffffffffffffffffffc3601126103835760043560005260076020526020604060002054604051908152f35b346103835760007ffffffffffffffffffffffffffffffffffffffffffffffffffffffffffffffffc36011261038357602060405160008152f35b346103835760007ffffffffffffffffffffffffffffffffffffffffffffffffffffffffffffffffc3601126103835760405160045460008261077b836116db565b918282526020936001908560018216918260001461081f5750506001146107c2575b506107aa92500383611767565b6107be60405192828493845283019061186c565b0390f35b84915060046000527f8a35acfbc15ff81a39ae7d344fd709f28e8600b4aa8c65c6b64bfe7fe36bd19b906000915b8583106108075750506107aa93508201018561079d565b805483890185015287945086939092019181016107f0565b7fffffffffffffffffffffffffffffffffffffffffffffffffffffffffffffff0016858201526107aa95151560051b850101925087915061079d9050565b346103835760407ffffffffffffffffffffffffffffffffffffffffffffffffffffffffffffffffc3601126103835761089461196c565b600435600052600560205273ffffffffffffffffffffffffffffffffffffffff60406000209116600052602052602060ff604060002054166040519015158152f35b346103835760207ffffffffffffffffffffffffffffffffffffffffffffffffffffffffffffffffc3601126103835773ffffffffffffffffffffffffffffffffffffffff610922611949565b1660005260006020526020604060002054604051908152f35b346103835760007ffffffffffffffffffffffffffffffffffffffffffffffffffffffffffffffffc3601126103835760206040517f59a1c48e5837ad7a7f3dcedcbe129bf3249ec4fbf651fd4f5e2600ead39fe2f58152f35b346103835760007ffffffffffffffffffffffffffffffffffffffffffffffffffffffffffffffffc3601126103835760206040517fa952726ef2588ad078edf35b066f7c7406e207cb0003bbaba8cb53eba9553e728152f35b34610383576020807ffffffffffffffffffffffffffffffffffffffffffffffffffffffffffffffffc36011261038357610b1390600060e0604051610a318161172e565b6060815282848201528260408201528260608201528260808201528260a08201528260c0820152015260043560005260068152604060002060405191610a768361172e565b610a7f826117a8565b8352600182015491818401928352600281015490604085019182526003810154606086019081526004820154906080870191825273ffffffffffffffffffffffffffffffffffffffff91826005850154169160a0890192835260ff600760068701549660c08c019788520154169560e08a0196151587526040519a8b9a898c5251610100809a8d01526101208c019061186c565b985160408b01525160608a01525160808901525160a0880152511660c08601525160e0850152511515908301520390f35b346103835760a0610b91610b57366118ca565b9060006080604051610b688161174b565b8281528260208201528260408201528260608201520152600052600760205260406000206118fe565b50604051610b9e8161174b565b81549182825260018101546020830190815273ffffffffffffffffffffffffffffffffffffffff9081600284015416906040850191825260806004600386015495606088019687520154950194855260405195865251602086015251166040840152516060830152516080820152f35b346103835760407ffffffffffffffffffffffffffffffffffffffffffffffffffffffffffffffffc36011261038357610c4561196c565b3373ffffffffffffffffffffffffffffffffffffffff821603610c6e5761046290600435611c12565b60046040517f6697b232000000000000000000000000000000000000000000000000000000008152fd5b346103835760007ffffffffffffffffffffffffffffffffffffffffffffffffffffffffffffffffc36011261038357602060405160128152f35b346103835760407ffffffffffffffffffffffffffffffffffffffffffffffffffffffffffffffffc36011261038357610462600435610d0f61196c565b90806000526005602052610d2a600160406000200154611a30565b611b66565b346103835760207ffffffffffffffffffffffffffffffffffffffffffffffffffffffffffffffffc3601126103835760043560005260056020526020600160406000200154604051908152f35b346103835760607ffffffffffffffffffffffffffffffffffffffffffffffffffffffffffffffffc36011261038357610db3611949565b610dbb61196c565b6044359073ffffffffffffffffffffffffffffffffffffffff831692836000526001602052604060002033600052602052604060002054937fffffffffffffffffffffffffffffffffffffffffffffffffffffffffffffffff8503610e26575b506106ab9350611a56565b838510610ec2578015610e91573315610e60576106ab94849160005260016020526040600020336000526020520360406000205584610e1b565b60246040517f94280d6200000000000000000000000000000000000000000000000000000000815260006004820152fd5b60246040517fe602df0500000000000000000000000000000000000000000000000000000000815260006004820152fd5b6040517ffb8f41b20000000000000000000000000000000000000000000000000000000081523360048201526024810186905260448101859052606490fd5b346103835760e07ffffffffffffffffffffffffffffffffffffffffffffffffffffffffffffffffc3601126103835760243567ffffffffffffffff8111610383573660238201121561038357806004013567ffffffffffffffff811161031d5760405191610f9760207fffffffffffffffffffffffffffffffffffffffffffffffffffffffffffffffe0601f8501160184611767565b81835236602483830101116103835781600092602460209301838601378301015260c43573ffffffffffffffffffffffffffffffffffffffff8116809103610383573360009081527f05b8ccbb9d4d8fb16ea74ce3c29a41f1b461fbdaff4714a0d9a8eb05499746bc602052604090205460ff16156112e5576040519061101d8261172e565b82825260443560208301526064356040830152608435606083015260a435608083015260a08201524260c0820152600160e082015260043560005260066020526040600020815180519067ffffffffffffffff821161031d5761108083546116db565b601f81116112a1575b50602090601f83116001146111d857918060e094926007946000926111cd575b50507fffffffffffffffffffffffffffffffffffffffffffffffffffffffffffffffff8260011b9260031b1c19161781555b602084015160018201556040840151600282015560608401516003820155608084015160048201556005810173ffffffffffffffffffffffffffffffffffffffff60a0860151167fffffffffffffffffffffffff000000000000000000000000000000000000000082541617905560c0840151600682015501910151151560ff7fffffffffffffffffffffffffffffffffffffffffffffffffffffffffffffff0083541691161790557fd4fbfc2936f69dab8379a536f1e1eda892f49dfd1abad4a297b2f531f55e39ee6111ba6040519260408452604084019061186c565b91604435602082015280600435930390a2005b0151905087806110a9565b908360005260206000209160005b7fffffffffffffffffffffffffffffffffffffffffffffffffffffffffffffffe08516811061128957509260e09492600192600795837fffffffffffffffffffffffffffffffffffffffffffffffffffffffffffffffe0811610611252575b505050811b0181556110db565b01517fffffffffffffffffffffffffffffffffffffffffffffffffffffffffffffffff60f88460031b161c19169055878080611245565b919260206001819286850151815501940192016111e6565b836000526020600020601f840160051c8101602085106112de575b601f830160051c820181106112d2575050611089565b600081556001016112bc565b50806112bc565b60446040517fe2517d3f00000000000000000000000000000000000000000000000000000000815233600482015260006024820152fd5b346103835760007ffffffffffffffffffffffffffffffffffffffffffffffffffffffffffffffffc360112610383576020600254604051908152f35b346103835760407ffffffffffffffffffffffffffffffffffffffffffffffffffffffffffffffffc3601126103835761138f611949565b602435903315610e915773ffffffffffffffffffffffffffffffffffffffff16908115610e6057336000526001602052604060002082600052602052806040600020556040519081527f8c5be1e5ebec7d5bd14f71427d1e84f3dd0314c0f7b2291e5b200ac8c7c3b92560203392a3602060405160018152f35b3461038357611417366118ca565b906000526007602052604060002080548210156103835760a09161143a916118fe565b5080549060018101549073ffffffffffffffffffffffffffffffffffffffff60028201541660046003830154920154926040519485526020850152604084015260608301526080820152f35b346103835760007ffffffffffffffffffffffffffffffffffffffffffffffffffffffffffffffffc360112610383576040516003546000826114c7836116db565b918282526020936001908560018216918260001461081f5750506001146114f557506107aa92500383611767565b84915060036000527fc2575a0e9e593c00f959f8c92f12db2869c3395a3b0502d05e2516446f71f85b906000915b85831061153a5750506107aa93508201018561079d565b80548389018501528794508693909201918101611523565b346103835760207ffffffffffffffffffffffffffffffffffffffffffffffffffffffffffffffffc360112610383576004357fffffffff00000000000000000000000000000000000000000000000000000000811680910361038357807f7965db0b00000000000000000000000000000000000000000000000000000000602092149081156115e7575b506040519015158152f35b7f01ffc9a700000000000000000000000000000000000000000000000000000000915014826115dc565b346103835760207ffffffffffffffffffffffffffffffffffffffffffffffffffffffffffffffffc3601126103835760043560005260066020526116b1604060002061165c816117a8565b906001810154906002810154906003810154600482015473ffffffffffffffffffffffffffffffffffffffff6005840154169160ff600760068601549501541694604051988998610100808b528a019061186c565b96602089015260408801526060870152608086015260a085015260c0840152151560e08301520390f35b90600182811c92168015611724575b60208310146116f557565b7f4e487b7100000000000000000000000000000000000000000000000000000000600052602260045260246000fd5b91607f16916116ea565b610100810190811067ffffffffffffffff82111761031d57604052565b60a0810190811067ffffffffffffffff82111761031d57604052565b90601f7fffffffffffffffffffffffffffffffffffffffffffffffffffffffffffffffe0910116810190811067ffffffffffffffff82111761031d57604052565b906040519182600082546117bb816116db565b9081845260209460019160018116908160001461182b57506001146117ec575b5050506117ea92500383611767565b565b600090815285812095935091905b8183106118135750506117ea93508201013880806117db565b855488840185015294850194879450918301916117fa565b9150506117ea9593507fffffffffffffffffffffffffffffffffffffffffffffffffffffffffffffff0091501682840152151560051b8201013880806117db565b919082519283825260005b8481106118b65750507fffffffffffffffffffffffffffffffffffffffffffffffffffffffffffffffe0601f8460006020809697860101520116010190565b602081830181015184830182015201611877565b7ffffffffffffffffffffffffffffffffffffffffffffffffffffffffffffffffc6040910112610383576004359060243590565b805482101561191a576000526005602060002091020190600090565b7f4e487b7100000000000000000000000000000000000000000000000000000000600052603260045260246000fd5b6004359073ffffffffffffffffffffffffffffffffffffffff8216820361038357565b6024359073ffffffffffffffffffffffffffffffffffffffff8216820361038357565b1561199657565b60646040517f08c379a000000000000000000000000000000000000000000000000000000000815260206004820152601260248201527f52657365727665206e6f742061637469766500000000000000000000000000006044820152fd5b91908201809211611a0157565b7f4e487b7100000000000000000000000000000000000000000000000000000000600052601160045260246000fd5b80600052600560205260406000203360005260205260ff604060002054161561034c5750565b9173ffffffffffffffffffffffffffffffffffffffff808416928315611b3557169283156105d85760009083825281602052604082205490838210611add575091604082827fddf252ad1be2c89b69c2b068fc378daa952ba7f163c4a11628f55a4df523b3ef958760209652828652038282205586815220818154019055604051908152a3565b6040517fe450d38c00000000000000000000000000000000000000000000000000000000815273ffffffffffffffffffffffffffffffffffffffff919091166004820152602481019190915260448101839052606490fd5b60246040517f96c6fd1e00000000000000000000000000000000000000000000000000000000815260006004820152fd5b90600091808352600560205273ffffffffffffffffffffffffffffffffffffffff6040842092169182845260205260ff60408420541615600014611c0d578083526005602052604083208284526020526040832060017fffffffffffffffffffffffffffffffffffffffffffffffffffffffffffffff008254161790557f2f8788117e7eff1d82e926ec794901d17c78024a50270940304540a733656f0d339380a4600190565b505090565b90600091808352600560205273ffffffffffffffffffffffffffffffffffffffff6040842092169182845260205260ff604084205416600014611c0d57808352600560205260408320828452602052604083207fffffffffffffffffffffffffffffffffffffffffffffffffffffffffffffff0081541690557ff6391f5c32d9c69d2a47ea670b442974b53935d1edc7fd64eb21e047a839171b339380a460019056fea2646970667358221220d275bfc88dc9395ffb72c06deb30fbb61b9e801817930b91a3f5d0c8d25e8c5764736f6c63430008180033","linkReferences":{}},"methodIdentifiers":{"AUDITOR_ROLE()":"6e1d616e","DEFAULT_ADMIN_ROLE()":"a217fddf","MINER_ROLE()":"6394f6e6","allowance(address,address)":"dd62ed3e","approve(address,uint256)":"095ea7b3","auditReserve(bytes32,uint256,bytes32)":"f5e23859","audits(bytes32,uint256)":"075b143e","balanceOf(address)":"70a08231","decimals()":"313ce567","getAuditCount(bytes32)":"a465637f","getAuditHistory(bytes32,uint256)":"39486b42","getReserve(bytes32)":"599ec514","getRoleAdmin(bytes32)":"248a9ca3","grantRole(bytes32,address)":"2f2ff15d","hasRole(bytes32,address)":"91d14854","mintAgainstReserve(address,uint256,bytes32)":"b1540ffe","name()":"06fdde03","registerReserve(bytes32,string,uint256,uint256,bytes32,bytes32,address)":"1ce8716a","renounceRole(bytes32,address)":"36568abe","reserves(bytes32)":"00bbf1e4","revokeRole(bytes32,address)":"d547741f","supportsInterface(bytes4)":"01ffc9a7","symbol()":"95d89b41","totalSupply()":"18160ddd","transfer(address,uint256)":"a9059cbb","transferFrom(address,address,uint256)":"23b872dd"},"id":10}