{
  "_format": "hh-sol-artifact-1",
  "contractName": "ReserveManagerUpgradeable",
  "sourceName": "contracts/mica/ReserveManagerUpgradeable.sol",
  "abi": [
    {
      "inputs": [],
      "name": "AccessControlBadConfirmation",
      "type": "error"
    },
    {
      "inputs": [
        {
          "internalType": "address",
          "name": "account",
          "type": "address"
        },
        {
          "internalType": "bytes32",
          "name": "neededRole",
          "type": "bytes32"
        }
      ],
      "name": "AccessControlUnauthorizedAccount",
      "type": "error"
    },
    {
      "inputs": [],
      "name": "ConcentrationBreach",
      "type": "error"
    },
    {
      "inputs": [],
      "name": "InvalidInitialization",
      "type": "error"
    },
    {
      "inputs": [],
      "name": "InvalidParam",
      "type": "error"
    },
    {
      "inputs": [],
      "name": "NotInitializing",
      "type": "error"
    },
    {
      "anonymous": false,
      "inputs": [
        {
          "indexed": false,
          "internalType": "uint64",
          "name": "version",
          "type": "uint64"
        }
      ],
      "name": "Initialized",
      "type": "event"
    },
    {
      "anonymous": false,
      "inputs": [
        {
          "indexed": false,
          "internalType": "enum ReserveManagerUpgradeable.Bucket",
          "name": "bucket",
          "type": "uint8"
        },
        {
          "indexed": false,
          "internalType": "uint16",
          "name": "maxBps",
          "type": "uint16"
        }
      ],
      "name": "LimitsSet",
      "type": "event"
    },
    {
      "anonymous": false,
      "inputs": [
        {
          "indexed": false,
          "internalType": "uint256",
          "name": "total",
          "type": "uint256"
        },
        {
          "indexed": false,
          "internalType": "uint256[5]",
          "name": "byBucket",
          "type": "uint256[5]"
        },
        {
          "indexed": false,
          "internalType": "uint64",
          "name": "ts",
          "type": "uint64"
        },
        {
          "indexed": false,
          "internalType": "bytes32",
          "name": "proofCid",
          "type": "bytes32"
        }
      ],
      "name": "ReservesAttested",
      "type": "event"
    },
    {
      "anonymous": false,
      "inputs": [
        {
          "indexed": true,
          "internalType": "bytes32",
          "name": "role",
          "type": "bytes32"
        },
        {
          "indexed": true,
          "internalType": "bytes32",
          "name": "previousAdminRole",
          "type": "bytes32"
        },
        {
          "indexed": true,
          "internalType": "bytes32",
          "name": "newAdminRole",
          "type": "bytes32"
        }
      ],
      "name": "RoleAdminChanged",
      "type": "event"
    },
    {
      "anonymous": false,
      "inputs": [
        {
          "indexed": true,
          "internalType": "bytes32",
          "name": "role",
          "type": "bytes32"
        },
        {
          "indexed": true,
          "internalType": "address",
          "name": "account",
          "type": "address"
        },
        {
          "indexed": true,
          "internalType": "address",
          "name": "sender",
          "type": "address"
        }
      ],
      "name": "RoleGranted",
      "type": "event"
    },
    {
      "anonymous": false,
      "inputs": [
        {
          "indexed": true,
          "internalType": "bytes32",
          "name": "role",
          "type": "bytes32"
        },
        {
          "indexed": true,
          "internalType": "address",
          "name": "account",
          "type": "address"
        },
        {
          "indexed": true,
          "internalType": "address",
          "name": "sender",
          "type": "address"
        }
      ],
      "name": "RoleRevoked",
      "type": "event"
    },
    {
      "inputs": [],
      "name": "ATTESTOR_ROLE",
      "outputs": [
        {
          "internalType": "bytes32",
          "name": "",
          "type": "bytes32"
        }
      ],
      "stateMutability": "view",
      "type": "function"
    },
    {
      "inputs": [],
      "name": "DEFAULT_ADMIN_ROLE",
      "outputs": [
        {
          "internalType": "bytes32",
          "name": "",
          "type": "bytes32"
        }
      ],
      "stateMutability": "view",
      "type": "function"
    },
    {
      "inputs": [],
      "name": "GOVERNOR_ROLE",
      "outputs": [
        {
          "internalType": "bytes32",
          "name": "",
          "type": "bytes32"
        }
      ],
      "stateMutability": "view",
      "type": "function"
    },
    {
      "inputs": [
        {
          "internalType": "uint256",
          "name": "total",
          "type": "uint256"
        },
        {
          "internalType": "uint256[5]",
          "name": "byBucket",
          "type": "uint256[5]"
        },
        {
          "internalType": "uint64",
          "name": "ts",
          "type": "uint64"
        },
        {
          "internalType": "bytes32",
          "name": "proofCid",
          "type": "bytes32"
        }
      ],
      "name": "attest",
      "outputs": [],
      "stateMutability": "nonpayable",
      "type": "function"
    },
    {
      "inputs": [
        {
          "internalType": "uint256",
          "name": "liabilities",
          "type": "uint256"
        }
      ],
      "name": "coverageBps",
      "outputs": [
        {
          "internalType": "uint16",
          "name": "cov",
          "type": "uint16"
        }
      ],
      "stateMutability": "view",
      "type": "function"
    },
    {
      "inputs": [
        {
          "internalType": "bytes32",
          "name": "role",
          "type": "bytes32"
        }
      ],
      "name": "getRoleAdmin",
      "outputs": [
        {
          "internalType": "bytes32",
          "name": "",
          "type": "bytes32"
        }
      ],
      "stateMutability": "view",
      "type": "function"
    },
    {
      "inputs": [
        {
          "internalType": "bytes32",
          "name": "role",
          "type": "bytes32"
        },
        {
          "internalType": "address",
          "name": "account",
          "type": "address"
        }
      ],
      "name": "grantRole",
      "outputs": [],
      "stateMutability": "nonpayable",
      "type": "function"
    },
    {
      "inputs": [
        {
          "internalType": "bytes32",
          "name": "role",
          "type": "bytes32"
        },
        {
          "internalType": "address",
          "name": "account",
          "type": "address"
        }
      ],
      "name": "hasRole",
      "outputs": [
        {
          "internalType": "bool",
          "name": "",
          "type": "bool"
        }
      ],
      "stateMutability": "view",
      "type": "function"
    },
    {
      "inputs": [
        {
          "internalType": "address",
          "name": "admin",
          "type": "address"
        },
        {
          "internalType": "address",
          "name": "governor",
          "type": "address"
        }
      ],
      "name": "initialize",
      "outputs": [],
      "stateMutability": "nonpayable",
      "type": "function"
    },
    {
      "inputs": [],
      "name": "last",
      "outputs": [
        {
          "internalType": "uint256",
          "name": "total",
          "type": "uint256"
        },
        {
          "internalType": "uint64",
          "name": "ts",
          "type": "uint64"
        },
        {
          "internalType": "bytes32",
          "name": "proofCid",
          "type": "bytes32"
        }
      ],
      "stateMutability": "view",
      "type": "function"
    },
    {
      "inputs": [
        {
          "internalType": "enum ReserveManagerUpgradeable.Bucket",
          "name": "",
          "type": "uint8"
        }
      ],
      "name": "limits",
      "outputs": [
        {
          "internalType": "uint16",
          "name": "maxBps",
          "type": "uint16"
        }
      ],
      "stateMutability": "view",
      "type": "function"
    },
    {
      "inputs": [
        {
          "internalType": "bytes32",
          "name": "role",
          "type": "bytes32"
        },
        {
          "internalType": "address",
          "name": "callerConfirmation",
          "type": "address"
        }
      ],
      "name": "renounceRole",
      "outputs": [],
      "stateMutability": "nonpayable",
      "type": "function"
    },
    {
      "inputs": [
        {
          "internalType": "bytes32",
          "name": "role",
          "type": "bytes32"
        },
        {
          "internalType": "address",
          "name": "account",
          "type": "address"
        }
      ],
      "name": "revokeRole",
      "outputs": [],
      "stateMutability": "nonpayable",
      "type": "function"
    },
    {
      "inputs": [
        {
          "internalType": "enum ReserveManagerUpgradeable.Bucket",
          "name": "b",
          "type": "uint8"
        },
        {
          "internalType": "uint16",
          "name": "maxBps",
          "type": "uint16"
        }
      ],
      "name": "setLimit",
      "outputs": [],
      "stateMutability": "nonpayable",
      "type": "function"
    },
    {
      "inputs": [
        {
          "internalType": "bytes4",
          "name": "interfaceId",
          "type": "bytes4"
        }
      ],
      "name": "supportsInterface",
      "outputs": [
        {
          "internalType": "bool",
          "name": "",
          "type": "bool"
        }
      ],
      "stateMutability": "view",
      "type": "function"
    }
  ],
  "bytecode": "0x6080806040523461001657610cb3908161001c8239f35b600080fdfe608060409080825260048036101561001657600080fd5b600091823560e01c90816301ffc9a7146108605750806314b3211214610829578063248a9ca3146107f05780632f2ff15d146107c757806336568abe1461078157806347799da814610747578063485cc955146105e45780634cc09eed146104ba578063627236441461047f5780636b9a64821461045057806391d14854146103fc578063a217fddf146103e1578063ccc57490146103a6578063d547741f1461035a5763db3df45d146100c957600080fd5b346103565761010090816003193601126103525780359060c4943660c41161034e5760c4359067ffffffffffffffff9283831680930361034a5760e435937fa7e0cd0f2772b23ee4c329892293a6bd99d48c306b094d6d008c9a8bb8b731e498898952602099600080516020610c5e8339815191528b52848a20338b528b5260ff858b2054161561032c575086156102ea5786898a5b600581106102fa5750036102ea57885b600581106102735750835191608083018381108282111761026057855287835284519360a085019182118583101761024d57508452896024845b83821061023e57505083915082015283838201528460608201525190600191600155875b6005811061022c5750505060247f7e2fb528212e640a2c61cd6068fa8e7c48cc5e1ae021609269c8fe20cd6d066a969760a0928467ffffffffffffffff196007541617600755856008555195865285013760c083015260e0820152a180f35b815160028201559089019082016101cd565b813581529082019082016101a9565b634e487b7160e01b8b526041905260248afd5b634e487b7160e01b8b526041855260248bfd5b61ffff61027f826108b4565b541680156102e15761029082610976565b35612710908181029181830414901517156102ce57896102af916108fe565b116102be576001905b0161016f565b8451635786153760e01b81528490fd5b634e487b7160e01b8c526011865260248cfd5b506001906102b8565b8351633494a40d60e21b81528390fd5b915061030582610976565b35810180911161031957889160010161015f565b634e487b7160e01b8b526011855260248bfd5b845163e2517d3f60e01b815233818601526024810191909152604490fd5b8680fd5b8480fd5b8280fd5b5080fd5b5082346103525780600319360112610352576103a2913561039d600161037e6108e3565b93838752600080516020610c5e8339815191526020528620015461099e565b610bd9565b5080f35b828434610356578160031936011261035657602090517f7935bd0ae54bc31f548c14dba4d37c5c64b3f8ca900cb468fb8abd54d5894f558152f35b82843461035657816003193601126103565751908152602090f35b508290346103525781600319360112610352578160209360ff9261041e6108e3565b90358252600080516020610c5e83398151915286526001600160a01b0383832091168252855220541690519015158152f35b5091903461047c57602036600319011261047c575061ffff6104746020933561091e565b915191168152f35b80fd5b828434610356578160031936011261035657602090517fa7e0cd0f2772b23ee4c329892293a6bd99d48c306b094d6d008c9a8bb8b731e48152f35b509134610356578060031936011261035657823560058110156103525760243561ffff80821680920361034e577f7935bd0ae54bc31f548c14dba4d37c5c64b3f8ca900cb468fb8abd54d5894f55808652600080516020610c5e83398151915260205284862033875260205260ff8587205416156105c6575061271082116105b6578351906020820182811067ffffffffffffffff8211176105a3577f0dd8ecddc84f99ffc44aec30ff879aea4b6136d3e31229bf1483e1c1b953abae9697508552828252610588846108b4565b91511661ffff1982541617905582519182526020820152a180f35b634e487b7160e01b875260418852602487fd5b8351633494a40d60e21b81528690fd5b845163e2517d3f60e01b815233818901526024810191909152604490fd5b508290346103525781600319360112610352578035906001600160a01b0382168203610743576106126108e3565b7ff0c57e16840df040f15088dc2f81fe391c3923bec73e23a9662efc9c229c6a009283549260ff84871c16159367ffffffffffffffff81168015908161073b575b6001149081610731575b159081610728575b506107195767ffffffffffffffff1981166001178655846106fa575b5060ff8554871c16156106ec57509061069c6106a2926109ef565b50610a8f565b506106ab578280f35b805468ff00000000000000001916905551600181527fc7f505b2f371ae2175ee4913f4499e1f2633a7b5936321eed1cdaeb6115181d290602090a181808280f35b8551631afcd79f60e31b8152fd5b68ffffffffffffffffff19166801000000000000000117855587610681565b50855163f92ee8a960e01b8152fd5b90501589610665565b303b15915061065d565b869150610653565b8380fd5b8284346103565781600319360112610356576060906001549067ffffffffffffffff60075416906008549181519384526020840152820152f35b50913461035657806003193601126103565761079b6108e3565b90336001600160a01b038316036107b857506103a2919235610bd9565b5163334bd91960e11b81528390fd5b5082346103525780600319360112610352576103a291356107eb600161037e6108e3565b610b51565b508290346103525760203660031901126103525781602093600192358152600080516020610c5e83398151915285522001549051908152f35b50829034610352576020366003190112610352573591600583101561047c575061ffff6108576020936108b4565b54169051908152f35b91905034610352576020366003190112610352573563ffffffff60e01b81168091036103525760209250637965db0b60e01b81149081156108a3575b5015158152f35b6301ffc9a760e01b1490508361089c565b60058110156108cd576000526000602052604060002090565b634e487b7160e01b600052602160045260246000fd5b602435906001600160a01b03821682036108f957565b600080fd5b8115610908570490565b634e487b7160e01b600052601260045260246000fd5b801561096f57600154906127109182810292818404149015171561095957610945916108fe565b61ffff9081811115610955575090565b1690565b634e487b7160e01b600052601160045260246000fd5b5061ffff90565b60058110156109885760051b60240190565b634e487b7160e01b600052603260045260246000fd5b80600052600080516020610c5e83398151915260205260406000203360005260205260ff60406000205416156109d15750565b6044906040519063e2517d3f60e01b82523360048301526024820152fd5b6001600160a01b031660008181527fb7db2dd08fcb62d0c9e08c51941cae53c267786a0b75803fb7960902fc8ef97d6020526040812054909190600080516020610c5e8339815191529060ff16610a8a578280526020526040822081835260205260408220600160ff1982541617905533917f2f8788117e7eff1d82e926ec794901d17c78024a50270940304540a733656f0d8180a4600190565b505090565b6001600160a01b031660008181527f75e09417c5070057df3eafe5054d52fa0b2a87d64a235e197963b615aedee80360205260408120549091907f7935bd0ae54bc31f548c14dba4d37c5c64b3f8ca900cb468fb8abd54d5894f5590600080516020610c5e8339815191529060ff16610b4b578184526020526040832082845260205260408320600160ff198254161790557f2f8788117e7eff1d82e926ec794901d17c78024a50270940304540a733656f0d339380a4600190565b50505090565b90600091808352600080516020610c5e833981519152806020526001600160a01b036040852093169283855260205260ff60408520541615600014610b4b578184526020526040832082845260205260408320600160ff198254161790557f2f8788117e7eff1d82e926ec794901d17c78024a50270940304540a733656f0d339380a4600190565b90600091808352600080516020610c5e833981519152806020526001600160a01b036040852093169283855260205260ff604085205416600014610b4b57818452602052604083208284526020526040832060ff1981541690557ff6391f5c32d9c69d2a47ea670b442974b53935d1edc7fd64eb21e047a839171b339380a460019056fe02dd7bc7dec4dceedda775e58dd541e08a116c6c53815c0bd028192f7b626800a26469706673582212208eb07077a9bbf19bb16921da6398b6c82a618b1f433105c670bcbf362bb9752164736f6c63430008180033",
  "linkReferences": {},
  "deployedLinkReferences": {}
}