{"abi":[{"type":"constructor","inputs":[{"name":"router","type":"address","internalType":"address"}],"stateMutability":"nonpayable"},{"type":"receive","stateMutability":"payable"},{"type":"function","name":"ATTESTOR_ROLE","inputs":[],"outputs":[{"name":"","type":"bytes32","internalType":"bytes32"}],"stateMutability":"view"},{"type":"function","name":"DEFAULT_ADMIN_ROLE","inputs":[],"outputs":[{"name":"","type":"bytes32","internalType":"bytes32"}],"stateMutability":"view"},{"type":"function","name":"allowedReceivers","inputs":[{"name":"","type":"uint64","internalType":"uint64"},{"name":"","type":"address","internalType":"address"}],"outputs":[{"name":"","type":"bool","internalType":"bool"}],"stateMutability":"view"},{"type":"function","name":"getFee","inputs":[{"name":"destinationChainSelector","type":"uint64","internalType":"uint64"},{"name":"receiver","type":"address","internalType":"address"},{"name":"message","type":"tuple","internalType":"struct CCIPAttestationSender.AttestationMessage","components":[{"name":"subject","type":"address","internalType":"address"},{"name":"schemaId","type":"bytes32","internalType":"bytes32"},{"name":"attestationId","type":"bytes32","internalType":"bytes32"},{"name":"data","type":"bytes","internalType":"bytes"}]}],"outputs":[{"name":"","type":"uint256","internalType":"uint256"}],"stateMutability":"view"},{"type":"function","name":"getRoleAdmin","inputs":[{"name":"role","type":"bytes32","internalType":"bytes32"}],"outputs":[{"name":"","type":"bytes32","internalType":"bytes32"}],"stateMutability":"view"},{"type":"function","name":"grantRole","inputs":[{"name":"role","type":"bytes32","internalType":"bytes32"},{"name":"account","type":"address","internalType":"address"}],"outputs":[],"stateMutability":"nonpayable"},{"type":"function","name":"hasRole","inputs":[{"name":"role","type":"bytes32","internalType":"bytes32"},{"name":"account","type":"address","internalType":"address"}],"outputs":[{"name":"","type":"bool","internalType":"bool"}],"stateMutability":"view"},{"type":"function","name":"processedMessages","inputs":[{"name":"","type":"bytes32","internalType":"bytes32"}],"outputs":[{"name":"","type":"bool","internalType":"bool"}],"stateMutability":"view"},{"type":"function","name":"rateCfg","inputs":[{"name":"","type":"uint64","internalType":"uint64"}],"outputs":[{"name":"windowSeconds","type":"uint64","internalType":"uint64"},{"name":"limit","type":"uint32","internalType":"uint32"}],"stateMutability":"view"},{"type":"function","name":"renounceRole","inputs":[{"name":"role","type":"bytes32","internalType":"bytes32"},{"name":"callerConfirmation","type":"address","internalType":"address"}],"outputs":[],"stateMutability":"nonpayable"},{"type":"function","name":"revokeRole","inputs":[{"name":"role","type":"bytes32","internalType":"bytes32"},{"name":"account","type":"address","internalType":"address"}],"outputs":[],"stateMutability":"nonpayable"},{"type":"function","name":"sendAttestation","inputs":[{"name":"destinationChainSelector","type":"uint64","internalType":"uint64"},{"name":"receiver","type":"address","internalType":"address"},{"name":"subject","type":"address","internalType":"address"},{"name":"schemaId","type":"bytes32","internalType":"bytes32"},{"name":"attestationId","type":"bytes32","internalType":"bytes32"},{"name":"data","type":"bytes","internalType":"bytes"}],"outputs":[],"stateMutability":"payable"},{"type":"function","name":"setAllowedReceiver","inputs":[{"name":"chainSelector","type":"uint64","internalType":"uint64"},{"name":"receiver","type":"address","internalType":"address"},{"name":"allowed","type":"bool","internalType":"bool"}],"outputs":[],"stateMutability":"nonpayable"},{"type":"function","name":"setRateLimit","inputs":[{"name":"chainSelector","type":"uint64","internalType":"uint64"},{"name":"windowSeconds","type":"uint64","internalType":"uint64"},{"name":"limit","type":"uint32","internalType":"uint32"}],"outputs":[],"stateMutability":"nonpayable"},{"type":"function","name":"setSupportedChain","inputs":[{"name":"chainSelector","type":"uint64","internalType":"uint64"},{"name":"supported","type":"bool","internalType":"bool"}],"outputs":[],"stateMutability":"nonpayable"},{"type":"function","name":"supportedChains","inputs":[{"name":"","type":"uint64","internalType":"uint64"}],"outputs":[{"name":"","type":"bool","internalType":"bool"}],"stateMutability":"view"},{"type":"function","name":"supportsInterface","inputs":[{"name":"interfaceId","type":"bytes4","internalType":"bytes4"}],"outputs":[{"name":"","type":"bool","internalType":"bool"}],"stateMutability":"view"},{"type":"event","name":"AttestationSent","inputs":[{"name":"messageId","type":"bytes32","indexed":true,"internalType":"bytes32"},{"name":"destinationChainSelector","type":"uint64","indexed":true,"internalType":"uint64"},{"name":"subject","type":"address","indexed":true,"internalType":"address"},{"name":"schemaId","type":"bytes32","indexed":false,"internalType":"bytes32"},{"name":"attestationId","type":"bytes32","indexed":false,"internalType":"bytes32"}],"anonymous":false},{"type":"event","name":"ChainSupported","inputs":[{"name":"chainSelector","type":"uint64","indexed":false,"internalType":"uint64"},{"name":"supported","type":"bool","indexed":false,"internalType":"bool"}],"anonymous":false},{"type":"event","name":"RateLimitSet","inputs":[{"name":"chainSelector","type":"uint64","indexed":false,"internalType":"uint64"},{"name":"windowSeconds","type":"uint64","indexed":false,"internalType":"uint64"},{"name":"limit","type":"uint32","indexed":false,"internalType":"uint32"}],"anonymous":false},{"type":"event","name":"ReceiverAllowed","inputs":[{"name":"chainSelector","type":"uint64","indexed":false,"internalType":"uint64"},{"name":"receiver","type":"address","indexed":false,"internalType":"address"},{"name":"allowed","type":"bool","indexed":false,"internalType":"bool"}],"anonymous":false},{"type":"event","name":"RoleAdminChanged","inputs":[{"name":"role","type":"bytes32","indexed":true,"internalType":"bytes32"},{"name":"previousAdminRole","type":"bytes32","indexed":true,"internalType":"bytes32"},{"name":"newAdminRole","type":"bytes32","indexed":true,"internalType":"bytes32"}],"anonymous":false},{"type":"event","name":"RoleGranted","inputs":[{"name":"role","type":"bytes32","indexed":true,"internalType":"bytes32"},{"name":"account","type":"address","indexed":true,"internalType":"address"},{"name":"sender","type":"address","indexed":true,"internalType":"address"}],"anonymous":false},{"type":"event","name":"RoleRevoked","inputs":[{"name":"role","type":"bytes32","indexed":true,"internalType":"bytes32"},{"name":"account","type":"address","indexed":true,"internalType":"address"},{"name":"sender","type":"address","indexed":true,"internalType":"address"}],"anonymous":false},{"type":"error","name":"AccessControlBadConfirmation","inputs":[]},{"type":"error","name":"AccessControlUnauthorizedAccount","inputs":[{"name":"account","type":"address","internalType":"address"},{"name":"neededRole","type":"bytes32","internalType":"bytes32"}]},{"type":"error","name":"ReentrancyGuardReentrantCall","inputs":[]}],"bytecode":{"object":"0x60a034620000e157601f62001a9838819003918201601f19168301916001600160401b03831184841017620000e657808492602094604052833981010312620000e157516001600160a01b03811690819003620000e1576001805580156200009c576080526200006f33620000fc565b506200007b336200017c565b5060405161185990816200021f82396080518181816104e70152610a8a0152f35b60405162461bcd60e51b815260206004820152601660248201527f496e76616c696420726f757465722061646472657373000000000000000000006044820152606490fd5b600080fd5b634e487b7160e01b600052604160045260246000fd5b6001600160a01b031660008181527fad3228b676f7d3cd4284a5443f17f1962b36e491b30a40b2405849e597ba5fb5602052604081205490919060ff166200017857818052816020526040822081835260205260408220600160ff19825416179055339160008051602062001a788339815191528180a4600190565b5090565b6001600160a01b031660008181527f158ce6b8b15b31f27d2e55fc663f1cad7f7703488e44e0532708385221a6677060205260408120549091907fa7e0cd0f2772b23ee4c329892293a6bd99d48c306b094d6d008c9a8bb8b731e49060ff166200021957808352826020526040832082845260205260408320600160ff1982541617905560008051602062001a78833981519152339380a4600190565b50509056fe608080604052600436101561001d575b50361561001b57600080fd5b005b60003560e01c90816301ffc9a714610fee57508063248a9ca314610fa15780632f2ff15d14610f4457806336568abe14610eba5780634e17099914610d985780636272364414610d3f5780637589d4cd14610cb657806388ba16ab14610c6757806391d1485414610bee5780639602bad514610af157806399920dda146108db578063a217fddf146108a1578063d547741f14610844578063d953dad21461027a578063f5b5b804146101af578063f9c3f332146101515763fff08027146100e5573861000f565b3461014c5760207ffffffffffffffffffffffffffffffffffffffffffffffffffffffffffffffffc36011261014c57604067ffffffffffffffff806101286110cd565b16600052600560205263ffffffff826000205483519281168352831c166020820152f35b600080fd5b3461014c5760207ffffffffffffffffffffffffffffffffffffffffffffffffffffffffffffffffc36011261014c5767ffffffffffffffff6101916110cd565b166000526002602052602060ff604060002054166040519015158152f35b3461014c5760407ffffffffffffffffffffffffffffffffffffffffffffffffffffffffffffffffc36011261014c576101e66110cd565b602435908115159182810361014c577f1e0c3057f04400da671fb47f00beb7d5ac4d6ffc2280ddcdf55321419659ebef9261026d67ffffffffffffffff60409461022e61144a565b1692836000526002602052846000209060ff7fffffffffffffffffffffffffffffffffffffffffffffffffffffffffffffff0083541691151516179055565b82519182526020820152a1005b60c07ffffffffffffffffffffffffffffffffffffffffffffffffffffffffffffffffc36011261014c576102ac6110cd565b6102b46110aa565b6044359073ffffffffffffffffffffffffffffffffffffffff8216820361014c576084359160a43567ffffffffffffffff9283821161014c573660238301121561014c57816004013584811161014c576024913683838601011161014c573360009081527f158ce6b8b15b31f27d2e55fc663f1cad7f7703488e44e0532708385221a6677060205260409020547fa7e0cd0f2772b23ee4c329892293a6bd99d48c306b094d6d008c9a8bb8b731e49060ff161561080e57506002600154146107e45773ffffffffffffffffffffffffffffffffffffffff90600260015586891660005260026020526103ad60ff6040600020541661120d565b1692831561078657858816600052600460205260406000208460005260205260ff60406000205416156107285761043f9161042b61046b926103ee8b611664565b604051926103fb8461112f565b73ffffffffffffffffffffffffffffffffffffffff8916845260643560208501528a6040850152863692016111a8565b6060820152604051928391602083016112d0565b037fffffffffffffffffffffffffffffffffffffffffffffffffffffffffffffffe08101835282611167565b60405192602084015260208352610481836110e4565b61048961131f565b6104aa604051610498816110e4565b62030d4081526000602082015261162c565b91604051946104b88661114b565b85526020850152604084015260608301526000608083015273ffffffffffffffffffffffffffffffffffffffff7f000000000000000000000000000000000000000000000000000000000000000016906040517f84293a7400000000000000000000000000000000000000000000000000000000815260208180610540878c60048401611343565b0381865afa90811561068c576000916106f6575b503410610698575061059a93929160209160405180809781947f2809f9310000000000000000000000000000000000000000000000000000000083528b60048401611343565b039134905af192831561068c57600093610638575b507f24e7f699a359e3d2261dc62de14526549d11a891e535416e88eac2c0dbafbf1c9173ffffffffffffffffffffffffffffffffffffffff6040928560005260036020528360002060017fffffffffffffffffffffffffffffffffffffffffffffffffffffffffffffff008254161790558351966064358852602088015216951693a460018055005b9092506020813d602011610684575b8161065460209383611167565b8101031261014c5751917f24e7f699a359e3d2261dc62de14526549d11a891e535416e88eac2c0dbafbf1c6105af565b3d9150610647565b6040513d6000823e3d90fd5b6064906010604051917f08c379a0000000000000000000000000000000000000000000000000000000008352602060048401528201527f696e73756666696369656e7420666565000000000000000000000000000000006044820152fd5b90506020813d602011610720575b8161071160209383611167565b8101031261014c575188610554565b3d9150610704565b6064836014604051917f08c379a0000000000000000000000000000000000000000000000000000000008352602060048401528201527f7265636569766572206e6f7420616c6c6f7765640000000000000000000000006044820152fd5b6064836010604051917f08c379a0000000000000000000000000000000000000000000000000000000008352602060048401528201527f496e76616c6964207265636569766572000000000000000000000000000000006044820152fd5b60046040517f3ee5aeb5000000000000000000000000000000000000000000000000000000008152fd5b83604491604051917fe2517d3f000000000000000000000000000000000000000000000000000000008352336004840152820152fd5b3461014c5760407ffffffffffffffffffffffffffffffffffffffffffffffffffffffffffffffffc36011261014c5761001b6004356108816110aa565b9080600052600060205261089c6001604060002001546114bb565b61158b565b3461014c5760007ffffffffffffffffffffffffffffffffffffffffffffffffffffffffffffffffc36011261014c57602060405160008152f35b3461014c577ffffffffffffffffffffffffffffffffffffffffffffffffffffffffffffffffc60608136011261014c576109136110cd565b9061091c6110aa565b916044359267ffffffffffffffff9283851161014c57608090853603011261014c576040519161094b8361112f565b73ffffffffffffffffffffffffffffffffffffffff906004860135828116810361014c5784526020956024810135878601526044810135604086015260648101359086821161014c5701943660238701121561014c576109ee879561043f926109c1610a869936906024600482013591016111a8565b60608301528416600052600287526109e060ff6040600020541661120d565b6040519283918883016112d0565b82604051941685850152848452610a04846110e4565b610a0c61131f565b610a2c604051610a1b816110e4565b62030d40815260008882015261162c565b9160405195610a3a8761114b565b86528686015260408501526060840152600060808401526040518095819482937f84293a7400000000000000000000000000000000000000000000000000000000845260048401611343565b03917f0000000000000000000000000000000000000000000000000000000000000000165afa90811561068c57600091610ac4575b50604051908152f35b90508181813d8311610aea575b610adb8183611167565b8101031261014c575182610abb565b503d610ad1565b3461014c5760607ffffffffffffffffffffffffffffffffffffffffffffffffffffffffffffffffc36011261014c57610b286110cd565b610b306110aa565b9060443580151580820361014c577f245ade2460496267c58f569481c96bf38ea7807af4e3070438ebc4a0fb8d1b6193610bdb67ffffffffffffffff606095610b7761144a565b169384600052600460205273ffffffffffffffffffffffffffffffffffffffff60406000209316928360005260205260406000209060ff7fffffffffffffffffffffffffffffffffffffffffffffffffffffffffffffff0083541691151516179055565b60405192835260208301526040820152a1005b3461014c5760407ffffffffffffffffffffffffffffffffffffffffffffffffffffffffffffffffc36011261014c57610c256110aa565b600435600052600060205273ffffffffffffffffffffffffffffffffffffffff60406000209116600052602052602060ff604060002054166040519015158152f35b3461014c5760207ffffffffffffffffffffffffffffffffffffffffffffffffffffffffffffffffc36011261014c576004356000526003602052602060ff604060002054166040519015158152f35b3461014c5760407ffffffffffffffffffffffffffffffffffffffffffffffffffffffffffffffffc36011261014c57610ced6110cd565b67ffffffffffffffff610cfe6110aa565b9116600052600460205273ffffffffffffffffffffffffffffffffffffffff60406000209116600052602052602060ff604060002054166040519015158152f35b3461014c5760007ffffffffffffffffffffffffffffffffffffffffffffffffffffffffffffffffc36011261014c5760206040517fa7e0cd0f2772b23ee4c329892293a6bd99d48c306b094d6d008c9a8bb8b731e48152f35b3461014c5760607ffffffffffffffffffffffffffffffffffffffffffffffffffffffffffffffffc36011261014c57610dcf6110cd565b6024359067ffffffffffffffff80831680930361014c5760443563ffffffff9384821680920361014c57610bdb6060947f336fafa80b59d983dd249ba46e1adcd9c9ee833aab0483305c0f9909ec78f06696610e2961144a565b60405191610e36836110e4565b848352866020840191878352169687600052600560205260406000209351167fffffffffffffffffffffffffffffffffffffffffffffffff000000000000000084541617835551167fffffffffffffffffffffffffffffffffffffffff00000000ffffffffffffffff6bffffffff000000000000000083549260401b169116179055565b3461014c5760407ffffffffffffffffffffffffffffffffffffffffffffffffffffffffffffffffc36011261014c57610ef16110aa565b3373ffffffffffffffffffffffffffffffffffffffff821603610f1a5761001b9060043561158b565b60046040517f6697b232000000000000000000000000000000000000000000000000000000008152fd5b3461014c5760407ffffffffffffffffffffffffffffffffffffffffffffffffffffffffffffffffc36011261014c5761001b600435610f816110aa565b90806000526000602052610f9c6001604060002001546114bb565b6114e1565b3461014c5760207ffffffffffffffffffffffffffffffffffffffffffffffffffffffffffffffffc36011261014c5760043560005260006020526020600160406000200154604051908152f35b3461014c5760207ffffffffffffffffffffffffffffffffffffffffffffffffffffffffffffffffc36011261014c57600435907fffffffff00000000000000000000000000000000000000000000000000000000821680920361014c57817f7965db0b0000000000000000000000000000000000000000000000000000000060209314908115611080575b5015158152f35b7f01ffc9a70000000000000000000000000000000000000000000000000000000091501483611079565b6024359073ffffffffffffffffffffffffffffffffffffffff8216820361014c57565b6004359067ffffffffffffffff8216820361014c57565b6040810190811067ffffffffffffffff82111761110057604052565b7f4e487b7100000000000000000000000000000000000000000000000000000000600052604160045260246000fd5b6080810190811067ffffffffffffffff82111761110057604052565b60a0810190811067ffffffffffffffff82111761110057604052565b90601f7fffffffffffffffffffffffffffffffffffffffffffffffffffffffffffffffe0910116810190811067ffffffffffffffff82111761110057604052565b92919267ffffffffffffffff821161110057604051916111f060207fffffffffffffffffffffffffffffffffffffffffffffffffffffffffffffffe0601f8401160184611167565b82948184528183011161014c578281602093846000960137010152565b1561121457565b60646040517f08c379a000000000000000000000000000000000000000000000000000000000815260206004820152601160248201527f556e737570706f7274656420636861696e0000000000000000000000000000006044820152fd5b919082519283825260005b8481106112bc5750507fffffffffffffffffffffffffffffffffffffffffffffffffffffffffffffffe0601f8460006020809697860101520116010190565b60208183018101518483018201520161127d565b60a0606061131c936020845273ffffffffffffffffffffffffffffffffffffffff8151166020850152602081015160408501526040810151828501520151916080808201520190611272565b90565b6040516020810181811067ffffffffffffffff821117611100576040526000815290565b9067ffffffffffffffff604091168252602090604082840152611372845160a0604086015260e0850190611272565b906113ac83860151927fffffffffffffffffffffffffffffffffffffffffffffffffffffffffffffffc09384878303016060880152611272565b604086015193838683030160808701528080865193848152019501926000905b838210611414575050505050608061140a60c09373ffffffffffffffffffffffffffffffffffffffff936060880151908783030160a0880152611272565b9401511691015290565b8451805173ffffffffffffffffffffffffffffffffffffffff1688528301518784015295860195938201936001909101906113cc565b3360009081527fad3228b676f7d3cd4284a5443f17f1962b36e491b30a40b2405849e597ba5fb5602052604081205460ff16156114845750565b604490604051907fe2517d3f0000000000000000000000000000000000000000000000000000000082523360048301526024820152fd5b80600052600060205260406000203360005260205260ff60406000205416156114845750565b906000918083528260205273ffffffffffffffffffffffffffffffffffffffff6040842092169182845260205260ff604084205416156000146115865780835282602052604083208284526020526040832060017fffffffffffffffffffffffffffffffffffffffffffffffffffffffffffffff008254161790557f2f8788117e7eff1d82e926ec794901d17c78024a50270940304540a733656f0d339380a4600190565b505090565b906000918083528260205273ffffffffffffffffffffffffffffffffffffffff6040842092169182845260205260ff604084205416600014611586578083528260205260408320828452602052604083207fffffffffffffffffffffffffffffffffffffffffffffffffffffffffffffff0081541690557ff6391f5c32d9c69d2a47ea670b442974b53935d1edc7fd64eb21e047a839171b339380a4600190565b6020815191015115156040519160208301526040820152604081526060810181811067ffffffffffffffff8211176111005760405290565b9067ffffffffffffffff80921691600090838252600560205260408083209281519361168f856110e4565b54928084169687865263ffffffff8095851c166020870198818a521590811561181a575b50611810578252600660205282822094814216928654928084169283159384156117c5575b50505050611799575b505081808454831c1695511685101561173c5750600161173a939401167fffffffffffffffffffffffffffffffffffffffff00000000ffffffffffffffff6bffffffff000000000000000083549260401b169116179055565b565b606490517f08c379a000000000000000000000000000000000000000000000000000000000815260206004820152600a60248201527f72617465206c696d6974000000000000000000000000000000000000000000006044820152fd5b7fffffffffffffffffffffffffffffffffffffffff0000000000000000000000001617835538806116e1565b8603935090918284116117e3575051811691161015388080806116d8565b807f4e487b7100000000000000000000000000000000000000000000000000000000602492526011600452fd5b5050505050509050565b905015386116b356fea2646970667358221220b554677f88f1f0010a6571f9a80ea8c06dcfe02b5b19a9d67938b70edc2e015764736f6c634300081800332f8788117e7eff1d82e926ec794901d17c78024a50270940304540a733656f0d","linkReferences":{}},"methodIdentifiers":{"ATTESTOR_ROLE()":"62723644","DEFAULT_ADMIN_ROLE()":"a217fddf","allowedReceivers(uint64,address)":"7589d4cd","getFee(uint64,address,(address,bytes32,bytes32,bytes))":"99920dda","getRoleAdmin(bytes32)":"248a9ca3","grantRole(bytes32,address)":"2f2ff15d","hasRole(bytes32,address)":"91d14854","processedMessages(bytes32)":"88ba16ab","rateCfg(uint64)":"fff08027","renounceRole(bytes32,address)":"36568abe","revokeRole(bytes32,address)":"d547741f","sendAttestation(uint64,address,address,bytes32,bytes32,bytes)":"d953dad2","setAllowedReceiver(uint64,address,bool)":"9602bad5","setRateLimit(uint64,uint64,uint32)":"4e170999","setSupportedChain(uint64,bool)":"f5b5b804","supportedChains(uint64)":"f9c3f332","supportsInterface(bytes4)":"01ffc9a7"},"id":3}