{
  "_format": "hh-sol-artifact-1",
  "contractName": "MerkleStreamDistributor",
  "sourceName": "contracts/distribution/MerkleStreamDistributor.sol",
  "abi": [
    {
      "inputs": [
        {
          "internalType": "address",
          "name": "admin",
          "type": "address"
        },
        {
          "internalType": "address",
          "name": "governor",
          "type": "address"
        }
      ],
      "stateMutability": "nonpayable",
      "type": "constructor"
    },
    {
      "inputs": [],
      "name": "AccessControlBadConfirmation",
      "type": "error"
    },
    {
      "inputs": [
        {
          "internalType": "address",
          "name": "account",
          "type": "address"
        },
        {
          "internalType": "bytes32",
          "name": "neededRole",
          "type": "bytes32"
        }
      ],
      "name": "AccessControlUnauthorizedAccount",
      "type": "error"
    },
    {
      "anonymous": false,
      "inputs": [
        {
          "indexed": true,
          "internalType": "uint256",
          "name": "id",
          "type": "uint256"
        },
        {
          "indexed": true,
          "internalType": "uint256",
          "name": "index",
          "type": "uint256"
        },
        {
          "indexed": true,
          "internalType": "address",
          "name": "account",
          "type": "address"
        },
        {
          "indexed": false,
          "internalType": "uint256",
          "name": "amount",
          "type": "uint256"
        },
        {
          "indexed": false,
          "internalType": "uint256",
          "name": "cumulative",
          "type": "uint256"
        }
      ],
      "name": "Claimed",
      "type": "event"
    },
    {
      "anonymous": false,
      "inputs": [
        {
          "indexed": true,
          "internalType": "uint256",
          "name": "id",
          "type": "uint256"
        },
        {
          "indexed": false,
          "internalType": "bytes32",
          "name": "root",
          "type": "bytes32"
        },
        {
          "indexed": false,
          "internalType": "address",
          "name": "token",
          "type": "address"
        },
        {
          "indexed": false,
          "internalType": "uint64",
          "name": "start",
          "type": "uint64"
        },
        {
          "indexed": false,
          "internalType": "uint64",
          "name": "end",
          "type": "uint64"
        },
        {
          "indexed": false,
          "internalType": "uint256",
          "name": "total",
          "type": "uint256"
        }
      ],
      "name": "EpochCreated",
      "type": "event"
    },
    {
      "anonymous": false,
      "inputs": [
        {
          "indexed": true,
          "internalType": "bytes32",
          "name": "role",
          "type": "bytes32"
        },
        {
          "indexed": true,
          "internalType": "bytes32",
          "name": "previousAdminRole",
          "type": "bytes32"
        },
        {
          "indexed": true,
          "internalType": "bytes32",
          "name": "newAdminRole",
          "type": "bytes32"
        }
      ],
      "name": "RoleAdminChanged",
      "type": "event"
    },
    {
      "anonymous": false,
      "inputs": [
        {
          "indexed": true,
          "internalType": "bytes32",
          "name": "role",
          "type": "bytes32"
        },
        {
          "indexed": true,
          "internalType": "address",
          "name": "account",
          "type": "address"
        },
        {
          "indexed": true,
          "internalType": "address",
          "name": "sender",
          "type": "address"
        }
      ],
      "name": "RoleGranted",
      "type": "event"
    },
    {
      "anonymous": false,
      "inputs": [
        {
          "indexed": true,
          "internalType": "bytes32",
          "name": "role",
          "type": "bytes32"
        },
        {
          "indexed": true,
          "internalType": "address",
          "name": "account",
          "type": "address"
        },
        {
          "indexed": true,
          "internalType": "address",
          "name": "sender",
          "type": "address"
        }
      ],
      "name": "RoleRevoked",
      "type": "event"
    },
    {
      "inputs": [],
      "name": "DEFAULT_ADMIN_ROLE",
      "outputs": [
        {
          "internalType": "bytes32",
          "name": "",
          "type": "bytes32"
        }
      ],
      "stateMutability": "view",
      "type": "function"
    },
    {
      "inputs": [],
      "name": "GOVERNOR_ROLE",
      "outputs": [
        {
          "internalType": "bytes32",
          "name": "",
          "type": "bytes32"
        }
      ],
      "stateMutability": "view",
      "type": "function"
    },
    {
      "inputs": [
        {
          "internalType": "uint256",
          "name": "id",
          "type": "uint256"
        },
        {
          "internalType": "uint256",
          "name": "index",
          "type": "uint256"
        },
        {
          "internalType": "address",
          "name": "account",
          "type": "address"
        },
        {
          "internalType": "uint256",
          "name": "totalAmount",
          "type": "uint256"
        },
        {
          "internalType": "bytes32[]",
          "name": "proof",
          "type": "bytes32[]"
        }
      ],
      "name": "claim",
      "outputs": [],
      "stateMutability": "nonpayable",
      "type": "function"
    },
    {
      "inputs": [
        {
          "internalType": "uint256",
          "name": "",
          "type": "uint256"
        },
        {
          "internalType": "uint256",
          "name": "",
          "type": "uint256"
        }
      ],
      "name": "claimed",
      "outputs": [
        {
          "internalType": "uint256",
          "name": "",
          "type": "uint256"
        }
      ],
      "stateMutability": "view",
      "type": "function"
    },
    {
      "inputs": [
        {
          "internalType": "bytes32",
          "name": "root",
          "type": "bytes32"
        },
        {
          "internalType": "address",
          "name": "token",
          "type": "address"
        },
        {
          "internalType": "uint64",
          "name": "start",
          "type": "uint64"
        },
        {
          "internalType": "uint64",
          "name": "end",
          "type": "uint64"
        },
        {
          "internalType": "uint256",
          "name": "total",
          "type": "uint256"
        }
      ],
      "name": "createEpoch",
      "outputs": [
        {
          "internalType": "uint256",
          "name": "id",
          "type": "uint256"
        }
      ],
      "stateMutability": "nonpayable",
      "type": "function"
    },
    {
      "inputs": [],
      "name": "epochCount",
      "outputs": [
        {
          "internalType": "uint256",
          "name": "",
          "type": "uint256"
        }
      ],
      "stateMutability": "view",
      "type": "function"
    },
    {
      "inputs": [
        {
          "internalType": "uint256",
          "name": "",
          "type": "uint256"
        }
      ],
      "name": "epochs",
      "outputs": [
        {
          "internalType": "bytes32",
          "name": "root",
          "type": "bytes32"
        },
        {
          "internalType": "contract IERC20",
          "name": "token",
          "type": "address"
        },
        {
          "internalType": "uint64",
          "name": "start",
          "type": "uint64"
        },
        {
          "internalType": "uint64",
          "name": "end",
          "type": "uint64"
        },
        {
          "internalType": "uint256",
          "name": "total",
          "type": "uint256"
        },
        {
          "internalType": "bool",
          "name": "active",
          "type": "bool"
        }
      ],
      "stateMutability": "view",
      "type": "function"
    },
    {
      "inputs": [
        {
          "internalType": "bytes32",
          "name": "role",
          "type": "bytes32"
        }
      ],
      "name": "getRoleAdmin",
      "outputs": [
        {
          "internalType": "bytes32",
          "name": "",
          "type": "bytes32"
        }
      ],
      "stateMutability": "view",
      "type": "function"
    },
    {
      "inputs": [
        {
          "internalType": "bytes32",
          "name": "role",
          "type": "bytes32"
        },
        {
          "internalType": "address",
          "name": "account",
          "type": "address"
        }
      ],
      "name": "grantRole",
      "outputs": [],
      "stateMutability": "nonpayable",
      "type": "function"
    },
    {
      "inputs": [
        {
          "internalType": "bytes32",
          "name": "role",
          "type": "bytes32"
        },
        {
          "internalType": "address",
          "name": "account",
          "type": "address"
        }
      ],
      "name": "hasRole",
      "outputs": [
        {
          "internalType": "bool",
          "name": "",
          "type": "bool"
        }
      ],
      "stateMutability": "view",
      "type": "function"
    },
    {
      "inputs": [
        {
          "internalType": "bytes32",
          "name": "role",
          "type": "bytes32"
        },
        {
          "internalType": "address",
          "name": "callerConfirmation",
          "type": "address"
        }
      ],
      "name": "renounceRole",
      "outputs": [],
      "stateMutability": "nonpayable",
      "type": "function"
    },
    {
      "inputs": [
        {
          "internalType": "bytes32",
          "name": "role",
          "type": "bytes32"
        },
        {
          "internalType": "address",
          "name": "account",
          "type": "address"
        }
      ],
      "name": "revokeRole",
      "outputs": [],
      "stateMutability": "nonpayable",
      "type": "function"
    },
    {
      "inputs": [
        {
          "internalType": "bytes4",
          "name": "interfaceId",
          "type": "bytes4"
        }
      ],
      "name": "supportsInterface",
      "outputs": [
        {
          "internalType": "bool",
          "name": "",
          "type": "bool"
        }
      ],
      "stateMutability": "view",
      "type": "function"
    },
    {
      "inputs": [
        {
          "internalType": "uint256",
          "name": "id",
          "type": "uint256"
        },
        {
          "internalType": "uint256",
          "name": "totalAmount",
          "type": "uint256"
        }
      ],
      "name": "vested",
      "outputs": [
        {
          "internalType": "uint256",
          "name": "v",
          "type": "uint256"
        }
      ],
      "stateMutability": "view",
      "type": "function"
    }
  ],
  "bytecode": "0x60803461007557601f610e9b38819003918201601f19168301916001600160401b0383118484101761007a578084926040948552833981010312610075578061005f610059602061005261006595610090565b9301610090565b916100a4565b50610122565b50604051610cb890816101c38239f35b600080fd5b634e487b7160e01b600052604160045260246000fd5b51906001600160a01b038216820361007557565b6001600160a01b031660008181527fad3228b676f7d3cd4284a5443f17f1962b36e491b30a40b2405849e597ba5fb5602052604081205490919060ff1661011e57818052816020526040822081835260205260408220600160ff198254161790553391600080516020610e7b8339815191528180a4600190565b5090565b6001600160a01b031660008181527f6f3b488caa0dc03e5f3d9fd6a25fa8755afcfd62ccffb6e436c696bfa6b866de60205260408120549091907f7935bd0ae54bc31f548c14dba4d37c5c64b3f8ca900cb468fb8abd54d5894f559060ff166101bd57808352826020526040832082845260205260408320600160ff19825416179055600080516020610e7b833981519152339380a4600190565b50509056fe608080604052600436101561001357600080fd5b60003560e01c90816301ffc9a71461099557508063064a30171461077c578063248a9ca31461074d5780632cfb415a1461072c5780632f2ff15d146106ed57806336568abe146106a65780635d4df3bf14610271578063829965cc1461025357806391d1485414610205578063a217fddf146101e9578063a54ab457146101b6578063c6b61e4c1461013a578063ccc57490146100ff5763d547741f146100b957600080fd5b346100fa5760403660031901126100fa576100f86004356100d86109e8565b908060005260006020526100f3600160406000200154610b67565b610c0c565b005b600080fd5b346100fa5760003660031901126100fa5760206040517f7935bd0ae54bc31f548c14dba4d37c5c64b3f8ca900cb468fb8abd54d5894f558152f35b346100fa5760203660031901126100fa57600435600052600260205260c0604060002080549060018101549067ffffffffffffffff806002830154169060ff6004600385015494015416936040519586526001600160a01b038116602087015260a01c16604085015260608401526080830152151560a0820152f35b346100fa576101c4366109fe565b9060005260016020526040600020906000526020526020604060002054604051908152f35b346100fa5760003660031901126100fa57602060405160008152f35b346100fa5760403660031901126100fa5761021e6109e8565b60043560005260006020526001600160a01b0360406000209116600052602052602060ff604060002054166040519015158152f35b346100fa5760003660031901126100fa576020600354604051908152f35b346100fa5760a03660031901126100fa576044356001600160a01b03811681036100fa5767ffffffffffffffff608435116100fa573660236084350112156100fa5767ffffffffffffffff60843560040135116100fa573660246084356004013560051b6084350101116100fa5760043560005260026020526040600020604051906102fc82610a14565b60ff600482549283855267ffffffffffffffff60018201546001600160a01b038116602088015260a01c16604086015267ffffffffffffffff6002820154166060860152600381015460808601520154161515908160a08401528161069c575b501561066f5760405160243560208201526001600160a01b038316604082015260643560608201526060815280608081011067ffffffffffffffff60808301111761065957608081016040528051602082012060a0820152602060808201526080810160c082011067ffffffffffffffff60c0830111176106595760c08101604052608081015160a08201209180519261040560206084356004013560051b0160c08501610a30565b608435600481013560c085015260240160e084015b60246084356004013560051b60843501018210610649575050936000945b60c08401518610156104825760e08660051b850101519081811060001461046f57600052602052600160406000205b950194610438565b9060005260205260016040600020610467565b840361061c57610496606435600435610a5f565b9060043560005260016020526040600020602435600052602052604060002054808311156105ed5760206001600160a01b03816104d560009487610a52565b96600435855260018252604085206024358652825286604086205501511660446040518094819363a9059cbb60e01b83526001600160a01b03881660048401528960248401525af19081156105e1576000916105a6575b5015610576576001600160a01b039160405193845260208401521690602435907fa189bd50040d146e005d64d0eb3ae648a95712a6c5633c1de9020a0c3f3f9d11604060043592a4005b60405162461bcd60e51b81526020600482015260086024820152673a3930b739b332b960c11b6044820152606490fd5b90506020813d6020116105d9575b816105c160209383610a30565b810103126100fa575180151581036100fa578461052c565b3d91506105b4565b6040513d6000823e3d90fd5b60405162461bcd60e51b81526020600482015260076024820152666e6f7468696e6760c81b6044820152606490fd5b60405162461bcd60e51b8152602060048201526005602482015264383937b7b360d91b6044820152606490fd5b813581526020918201910161041a565b634e487b7160e01b600052604160045260246000fd5b60405162461bcd60e51b81526020600482015260056024820152640cae0dec6d60db1b6044820152606490fd5b905015158361035c565b346100fa5760403660031901126100fa576106bf6109e8565b336001600160a01b038216036106db576100f890600435610c0c565b60405163334bd91960e11b8152600490fd5b346100fa5760403660031901126100fa576100f860043561070c6109e8565b90806000526000602052610727600160406000200154610b67565b610b8d565b346100fa57602061074561073f366109fe565b90610a5f565b604051908152f35b346100fa5760203660031901126100fa5760043560005260006020526020600160406000200154604051908152f35b346100fa5760a03660031901126100fa576004356107986109e8565b6044359067ffffffffffffffff8083168093036100fa576064358181168091036100fa573360009081527f6f3b488caa0dc03e5f3d9fd6a25fa8755afcfd62ccffb6e436c696bfa6b866de6020908152604090912054909590608435907f7935bd0ae54bc31f548c14dba4d37c5c64b3f8ca900cb468fb8abd54d5894f559060ff161561097757508583111561094c57600354926000198414610936576004967f32c12f4b1256e221a86134ffa134222340d27662730fa3ff87811355add7900295600160a096018099819982600355868d6001600160a01b03809316956040519361088385610a14565b8b85528285019088825260408601908a8252600260608801958d87526080890197885260a089019a60018c5260005252604060002096518755600187019251168254918f67ffffffffffffffff901b905160a01b169163ffffffff60e01b16171790556002840191511667ffffffffffffffff19825416179055516003820155019051151560ff8019835416911617905560405194855289850152604084015260608301526080820152a2604051908152f35b634e487b7160e01b600052601160045260246000fd5b60405162461bcd60e51b8152600480820189905260248201526374696d6560e01b6044820152606490fd5b6044906040519063e2517d3f60e01b82523360048301526024820152fd5b346100fa5760203660031901126100fa576004359063ffffffff60e01b82168092036100fa57602091637965db0b60e01b81149081156109d7575b5015158152f35b6301ffc9a760e01b149050836109d0565b602435906001600160a01b03821682036100fa57565b60409060031901126100fa576004359060243590565b60c0810190811067ffffffffffffffff82111761065957604052565b90601f8019910116810190811067ffffffffffffffff82111761065957604052565b9190820391821161093657565b600090815260026020526040812090604051610a7a81610a14565b825481526001830154906001600160a01b038216602082015267ffffffffffffffff809260a01c166040820191818352836002870154169060a060ff60046060840199858b5260038101546080860152015416151591015281421115610b5d57421015610b555782610aed819242610a52565b9551169151169003818111610b41571692828102928184041490151715610b2d578215610b1957500490565b634e487b7160e01b81526012600452602490fd5b634e487b7160e01b81526011600452602490fd5b634e487b7160e01b83526011600452602483fd5b505050505090565b5050505091505090565b80600052600060205260406000203360005260205260ff60406000205416156109775750565b90600091808352826020526001600160a01b036040842092169182845260205260ff60408420541615600014610c0757808352826020526040832082845260205260408320600160ff198254161790557f2f8788117e7eff1d82e926ec794901d17c78024a50270940304540a733656f0d339380a4600190565b505090565b90600091808352826020526001600160a01b036040842092169182845260205260ff604084205416600014610c075780835282602052604083208284526020526040832060ff1981541690557ff6391f5c32d9c69d2a47ea670b442974b53935d1edc7fd64eb21e047a839171b339380a460019056fea2646970667358221220278c1fa785c961f907dac47cc74c350d01c20b9a0f3bd5993360854a2302abe464736f6c634300081800332f8788117e7eff1d82e926ec794901d17c78024a50270940304540a733656f0d",
  "linkReferences": {},
  "deployedLinkReferences": {}
}