{"abi":[{"type":"constructor","inputs":[{"name":"_admin","type":"address","internalType":"address"}],"stateMutability":"nonpayable"},{"type":"function","name":"admin","inputs":[],"outputs":[{"name":"","type":"address","internalType":"address"}],"stateMutability":"view"},{"type":"function","name":"bind","inputs":[{"name":"id","type":"bytes32","internalType":"bytes32"},{"name":"uetr","type":"bytes16","internalType":"bytes16"},{"name":"payloadHash","type":"bytes32","internalType":"bytes32"},{"name":"e2eIdHash","type":"bytes32","internalType":"bytes32"}],"outputs":[],"stateMutability":"nonpayable"},{"type":"function","name":"bindings","inputs":[{"name":"","type":"bytes32","internalType":"bytes32"}],"outputs":[{"name":"uetr","type":"bytes16","internalType":"bytes16"},{"name":"payloadHash","type":"bytes32","internalType":"bytes32"},{"name":"e2eIdHash","type":"bytes32","internalType":"bytes32"},{"name":"boundAt","type":"uint64","internalType":"uint64"}],"stateMutability":"view"},{"type":"function","name":"emitGPIStatus","inputs":[{"name":"id","type":"bytes32","internalType":"bytes32"},{"name":"uetr","type":"bytes16","internalType":"bytes16"},{"name":"status","type":"string","internalType":"string"}],"outputs":[],"stateMutability":"nonpayable"},{"type":"function","name":"emitGPITracker","inputs":[{"name":"id","type":"bytes32","internalType":"bytes32"},{"name":"uetr","type":"bytes16","internalType":"bytes16"},{"name":"trackerEventCode","type":"string","internalType":"string"},{"name":"eventData","type":"bytes32","internalType":"bytes32"}],"outputs":[],"stateMutability":"nonpayable"},{"type":"function","name":"emitMessage","inputs":[{"name":"id","type":"bytes32","internalType":"bytes32"},{"name":"uetr","type":"bytes16","internalType":"bytes16"},{"name":"messageType","type":"string","internalType":"string"},{"name":"payloadHash","type":"bytes32","internalType":"bytes32"}],"outputs":[],"stateMutability":"nonpayable"},{"type":"function","name":"transferAdmin","inputs":[{"name":"to","type":"address","internalType":"address"}],"outputs":[],"stateMutability":"nonpayable"},{"type":"event","name":"AdminTransferred","inputs":[{"name":"from","type":"address","indexed":true,"internalType":"address"},{"name":"to","type":"address","indexed":true,"internalType":"address"}],"anonymous":false},{"type":"event","name":"GPIPaymentStatusUpdate","inputs":[{"name":"id","type":"bytes32","indexed":true,"internalType":"bytes32"},{"name":"uetr","type":"bytes16","indexed":true,"internalType":"bytes16"},{"name":"status","type":"string","indexed":false,"internalType":"string"},{"name":"timestamp","type":"uint256","indexed":false,"internalType":"uint256"}],"anonymous":false},{"type":"event","name":"GPITrackerUpdate","inputs":[{"name":"id","type":"bytes32","indexed":true,"internalType":"bytes32"},{"name":"uetr","type":"bytes16","indexed":true,"internalType":"bytes16"},{"name":"trackerEventCode","type":"string","indexed":false,"internalType":"string"},{"name":"eventData","type":"bytes32","indexed":false,"internalType":"bytes32"}],"anonymous":false},{"type":"event","name":"IsoBound","inputs":[{"name":"id","type":"bytes32","indexed":true,"internalType":"bytes32"},{"name":"uetr","type":"bytes16","indexed":true,"internalType":"bytes16"},{"name":"payloadHash","type":"bytes32","indexed":false,"internalType":"bytes32"},{"name":"e2eIdHash","type":"bytes32","indexed":false,"internalType":"bytes32"}],"anonymous":false},{"type":"event","name":"IsoEvent","inputs":[{"name":"id","type":"bytes32","indexed":true,"internalType":"bytes32"},{"name":"uetr","type":"bytes16","indexed":true,"internalType":"bytes16"},{"name":"messageType","type":"string","indexed":false,"internalType":"string"},{"name":"payloadHash","type":"bytes32","indexed":false,"internalType":"bytes32"}],"anonymous":false}],"bytecode":{"object":"0x6080346100ae57601f61084a38819003918201601f19168301916001600160401b038311848410176100b3578084926020946040528339810103126100ae57516001600160a01b038116908190036100ae57801561007a57600080546001600160a01b03191691909117905560405161078090816100ca8239f35b60405162461bcd60e51b815260206004820152600c60248201526b049534f3a2061646d696e20360a41b6044820152606490fd5b600080fd5b634e487b7160e01b600052604160045260246000fdfe608060408181526004918236101561001657600080fd5b600092833560e01c9182632680c7d81461052c575081632ded43f9146103bb57816375829def146102a257816377a77538146101b557508063a6f7db9114610161578063d5dd16b8146100c55763f851a4401461007257600080fd5b346100c157817ffffffffffffffffffffffffffffffffffffffffffffffffffffffffffffffffc3601126100c15773ffffffffffffffffffffffffffffffffffffffff60209254169051908152f35b5080fd5b50346100c1577fffffffffffffffffffffffffffffffff000000000000000000000000000000007f797d70fd851191d3bbe428d1470f5468a18f0075851897211a9e1cc589df8fcf61015361011936610624565b979396929161014373ffffffffffffffffffffffffffffffffffffffff8b979397541633146106a6565b845195858796875286019161070b565b96602084015216940390a380f35b50346100c1577fffffffffffffffffffffffffffffffff000000000000000000000000000000007fabcaa3146d803b00112a76cc9cc12b0cdd47dd6d50f1db7ff40e54a11fc1c35a61015361011936610624565b9190503461029e5760607ffffffffffffffffffffffffffffffffffffffffffffffffffffffffffffffffc36011261029e576101ef6105c2565b9060443567ffffffffffffffff811161029a577f97955fd53d2e13c42d3375a1318b2496e08ddd90b3844b0380d46916a5318879917fffffffffffffffffffffffffffffffff0000000000000000000000000000000061025561028993369088016105f6565b939061027973ffffffffffffffffffffffffffffffffffffffff8a541633146106a6565b835194848695865285019161070b565b94426020840152169435930390a380f35b8480fd5b8280fd5b90503461029e5760207ffffffffffffffffffffffffffffffffffffffffffffffffffffffffffffffffc36011261029e5780359173ffffffffffffffffffffffffffffffffffffffff9182841680940361029a578454928316916103078333146106a6565b841561035e57505090827fffffffffffffffffffffffff0000000000000000000000000000000000000000927ff8ccb027dfcd135e000e9d45e6cc2d662578a8825d4c45b5e32e0adf67e79ec68680a31617815580f35b90602060649251917f08c379a0000000000000000000000000000000000000000000000000000000008352820152600660248201527f49534f3a203000000000000000000000000000000000000000000000000000006044820152fd5b8383346100c15760807ffffffffffffffffffffffffffffffffffffffffffffffffffffffffffffffffc3601126100c15782356103f66105c2565b9160443560643561041f73ffffffffffffffffffffffffffffffffffffffff87541633146106a6565b67ffffffffffffffff83516080810181811083821117610500579160038992879695947f5852c9bbffc360617435279fd81e2f2000e2e2b9731afb0605a658cdff51504598527fffffffffffffffffffffffffffffffff00000000000000000000000000000000809a16998a8252602082018781528883019187835289606085019787421689528d8152600160205220935160801c90845416178355516001830155516002820155019151167fffffffffffffffffffffffffffffffffffffffffffffffff000000000000000082541617905582519182526020820152a380f35b60248960418c7f4e487b7100000000000000000000000000000000000000000000000000000000835252fd5b929150346105be5760207ffffffffffffffffffffffffffffffffffffffffffffffffffffffffffffffffc3601126105be57608093829135815260016020522080549160018201547fffffffffffffffffffffffffffffffff0000000000000000000000000000000067ffffffffffffffff600360028601549501541694871b16855260208501528301526060820152f35b8380fd5b602435907fffffffffffffffffffffffffffffffff00000000000000000000000000000000821682036105f157565b600080fd5b9181601f840112156105f15782359167ffffffffffffffff83116105f157602083818601950101116105f157565b60807ffffffffffffffffffffffffffffffffffffffffffffffffffffffffffffffffc8201126105f157600435916024357fffffffffffffffffffffffffffffffff00000000000000000000000000000000811681036105f157916044359067ffffffffffffffff82116105f15761069e916004016105f6565b909160643590565b156106ad57565b60646040517f08c379a000000000000000000000000000000000000000000000000000000000815260206004820152600e60248201527f49534f3a206e6f742061646d696e0000000000000000000000000000000000006044820152fd5b601f82602094937fffffffffffffffffffffffffffffffffffffffffffffffffffffffffffffffe093818652868601376000858286010152011601019056fea2646970667358221220ad4903dfaf2536b0df9d7c9f0ab7092a871fca4657c810eaeff5a81c225fb2cd64736f6c63430008180033","linkReferences":{}},"methodIdentifiers":{"admin()":"f851a440","bind(bytes32,bytes16,bytes32,bytes32)":"2ded43f9","bindings(bytes32)":"2680c7d8","emitGPIStatus(bytes32,bytes16,string)":"77a77538","emitGPITracker(bytes32,bytes16,string,bytes32)":"d5dd16b8","emitMessage(bytes32,bytes16,string,bytes32)":"a6f7db91","transferAdmin(address)":"75829def"},"id":16}