{"abi":[{"type":"constructor","inputs":[{"name":"_signers","type":"address[]","internalType":"address[]"},{"name":"_weights","type":"uint256[]","internalType":"uint256[]"},{"name":"_roles","type":"string[]","internalType":"string[]"},{"name":"_requiredConfirmations","type":"uint256","internalType":"uint256"},{"name":"_timelockPeriod","type":"uint256","internalType":"uint256"}],"stateMutability":"nonpayable"},{"type":"receive","stateMutability":"payable"},{"type":"function","name":"EMERGENCY_WINDOW","inputs":[],"outputs":[{"name":"","type":"uint256","internalType":"uint256"}],"stateMutability":"view"},{"type":"function","name":"MAX_SIGNERS","inputs":[],"outputs":[{"name":"","type":"uint256","internalType":"uint256"}],"stateMutability":"view"},{"type":"function","name":"MAX_TIMELOCK","inputs":[],"outputs":[{"name":"","type":"uint256","internalType":"uint256"}],"stateMutability":"view"},{"type":"function","name":"MIN_TIMELOCK","inputs":[],"outputs":[{"name":"","type":"uint256","internalType":"uint256"}],"stateMutability":"view"},{"type":"function","name":"activateEmergencyMode","inputs":[],"outputs":[],"stateMutability":"nonpayable"},{"type":"function","name":"addSigner","inputs":[{"name":"_signer","type":"address","internalType":"address"},{"name":"_weight","type":"uint256","internalType":"uint256"},{"name":"_role","type":"string","internalType":"string"}],"outputs":[],"stateMutability":"nonpayable"},{"type":"function","name":"canExecute","inputs":[{"name":"_txId","type":"uint256","internalType":"uint256"}],"outputs":[{"name":"","type":"bool","internalType":"bool"}],"stateMutability":"view"},{"type":"function","name":"cancelTransaction","inputs":[{"name":"_txId","type":"uint256","internalType":"uint256"}],"outputs":[],"stateMutability":"nonpayable"},{"type":"function","name":"confirmTransaction","inputs":[{"name":"_txId","type":"uint256","internalType":"uint256"}],"outputs":[],"stateMutability":"nonpayable"},{"type":"function","name":"confirmations","inputs":[{"name":"","type":"uint256","internalType":"uint256"},{"name":"","type":"address","internalType":"address"}],"outputs":[{"name":"","type":"bool","internalType":"bool"}],"stateMutability":"view"},{"type":"function","name":"deactivateEmergencyMode","inputs":[],"outputs":[],"stateMutability":"nonpayable"},{"type":"function","name":"emergencyActivationTime","inputs":[],"outputs":[{"name":"","type":"uint256","internalType":"uint256"}],"stateMutability":"view"},{"type":"function","name":"emergencyActivator","inputs":[],"outputs":[{"name":"","type":"address","internalType":"address"}],"stateMutability":"view"},{"type":"function","name":"emergencyExecute","inputs":[{"name":"_txId","type":"uint256","internalType":"uint256"}],"outputs":[],"stateMutability":"nonpayable"},{"type":"function","name":"emergencyMode","inputs":[],"outputs":[{"name":"","type":"bool","internalType":"bool"}],"stateMutability":"view"},{"type":"function","name":"emergencyPeriod","inputs":[],"outputs":[{"name":"","type":"uint256","internalType":"uint256"}],"stateMutability":"view"},{"type":"function","name":"executeTransaction","inputs":[{"name":"_txId","type":"uint256","internalType":"uint256"}],"outputs":[],"stateMutability":"nonpayable"},{"type":"function","name":"getPendingTransactions","inputs":[],"outputs":[{"name":"","type":"uint256[]","internalType":"uint256[]"}],"stateMutability":"view"},{"type":"function","name":"getSignerInfo","inputs":[{"name":"_signer","type":"address","internalType":"address"}],"outputs":[{"name":"isActive","type":"bool","internalType":"bool"},{"name":"weight","type":"uint256","internalType":"uint256"},{"name":"role","type":"string","internalType":"string"},{"name":"lastActivity","type":"uint256","internalType":"uint256"}],"stateMutability":"view"},{"type":"function","name":"getTransaction","inputs":[{"name":"_txId","type":"uint256","internalType":"uint256"}],"outputs":[{"name":"to","type":"address","internalType":"address"},{"name":"value","type":"uint256","internalType":"uint256"},{"name":"data","type":"bytes","internalType":"bytes"},{"name":"executed","type":"bool","internalType":"bool"},{"name":"numConfirmations","type":"uint256","internalType":"uint256"},{"name":"submissionTime","type":"uint256","internalType":"uint256"}],"stateMutability":"view"},{"type":"function","name":"isConfirmed","inputs":[{"name":"_txId","type":"uint256","internalType":"uint256"}],"outputs":[{"name":"","type":"bool","internalType":"bool"}],"stateMutability":"view"},{"type":"function","name":"owner","inputs":[],"outputs":[{"name":"","type":"address","internalType":"address"}],"stateMutability":"view"},{"type":"function","name":"pendingTransactions","inputs":[{"name":"","type":"uint256","internalType":"uint256"}],"outputs":[{"name":"","type":"uint256","internalType":"uint256"}],"stateMutability":"view"},{"type":"function","name":"removeSigner","inputs":[{"name":"_signer","type":"address","internalType":"address"}],"outputs":[],"stateMutability":"nonpayable"},{"type":"function","name":"renounceOwnership","inputs":[],"outputs":[],"stateMutability":"nonpayable"},{"type":"function","name":"requiredConfirmations","inputs":[],"outputs":[{"name":"","type":"uint256","internalType":"uint256"}],"stateMutability":"view"},{"type":"function","name":"requiredWeight","inputs":[],"outputs":[{"name":"","type":"uint256","internalType":"uint256"}],"stateMutability":"view"},{"type":"function","name":"signers","inputs":[{"name":"","type":"address","internalType":"address"}],"outputs":[{"name":"isActive","type":"bool","internalType":"bool"},{"name":"weight","type":"uint256","internalType":"uint256"},{"name":"role","type":"string","internalType":"string"},{"name":"lastActivity","type":"uint256","internalType":"uint256"}],"stateMutability":"view"},{"type":"function","name":"submitTransaction","inputs":[{"name":"_to","type":"address","internalType":"address"},{"name":"_value","type":"uint256","internalType":"uint256"},{"name":"_data","type":"bytes","internalType":"bytes"}],"outputs":[{"name":"","type":"uint256","internalType":"uint256"}],"stateMutability":"nonpayable"},{"type":"function","name":"timelockPeriod","inputs":[],"outputs":[{"name":"","type":"uint256","internalType":"uint256"}],"stateMutability":"view"},{"type":"function","name":"totalSigners","inputs":[],"outputs":[{"name":"","type":"uint256","internalType":"uint256"}],"stateMutability":"view"},{"type":"function","name":"totalWeight","inputs":[],"outputs":[{"name":"","type":"uint256","internalType":"uint256"}],"stateMutability":"view"},{"type":"function","name":"transactionCount","inputs":[],"outputs":[{"name":"","type":"uint256","internalType":"uint256"}],"stateMutability":"view"},{"type":"function","name":"transactions","inputs":[{"name":"","type":"uint256","internalType":"uint256"}],"outputs":[{"name":"to","type":"address","internalType":"address"},{"name":"value","type":"uint256","internalType":"uint256"},{"name":"data","type":"bytes","internalType":"bytes"},{"name":"executed","type":"bool","internalType":"bool"},{"name":"numConfirmations","type":"uint256","internalType":"uint256"},{"name":"submissionTime","type":"uint256","internalType":"uint256"},{"name":"executionTime","type":"uint256","internalType":"uint256"}],"stateMutability":"view"},{"type":"function","name":"transferOwnership","inputs":[{"name":"newOwner","type":"address","internalType":"address"}],"outputs":[],"stateMutability":"nonpayable"},{"type":"function","name":"updateSettings","inputs":[{"name":"_requiredConfirmations","type":"uint256","internalType":"uint256"},{"name":"_timelockPeriod","type":"uint256","internalType":"uint256"}],"outputs":[],"stateMutability":"nonpayable"},{"type":"event","name":"EmergencyModeActivated","inputs":[{"name":"activator","type":"address","indexed":true,"internalType":"address"}],"anonymous":false},{"type":"event","name":"EmergencyModeDeactivated","inputs":[],"anonymous":false},{"type":"event","name":"OwnershipTransferred","inputs":[{"name":"previousOwner","type":"address","indexed":true,"internalType":"address"},{"name":"newOwner","type":"address","indexed":true,"internalType":"address"}],"anonymous":false},{"type":"event","name":"SignerAdded","inputs":[{"name":"signer","type":"address","indexed":true,"internalType":"address"},{"name":"weight","type":"uint256","indexed":false,"internalType":"uint256"},{"name":"role","type":"string","indexed":false,"internalType":"string"}],"anonymous":false},{"type":"event","name":"SignerRemoved","inputs":[{"name":"signer","type":"address","indexed":true,"internalType":"address"}],"anonymous":false},{"type":"event","name":"TransactionCancelled","inputs":[{"name":"txId","type":"uint256","indexed":true,"internalType":"uint256"}],"anonymous":false},{"type":"event","name":"TransactionConfirmed","inputs":[{"name":"txId","type":"uint256","indexed":true,"internalType":"uint256"},{"name":"confirmer","type":"address","indexed":true,"internalType":"address"}],"anonymous":false},{"type":"event","name":"TransactionExecuted","inputs":[{"name":"txId","type":"uint256","indexed":true,"internalType":"uint256"}],"anonymous":false},{"type":"event","name":"TransactionSubmitted","inputs":[{"name":"txId","type":"uint256","indexed":true,"internalType":"uint256"},{"name":"submitter","type":"address","indexed":true,"internalType":"address"}],"anonymous":false},{"type":"error","name":"OwnableInvalidOwner","inputs":[{"name":"owner","type":"address","internalType":"address"}]},{"type":"error","name":"OwnableUnauthorizedAccount","inputs":[{"name":"account","type":"address","internalType":"address"}]},{"type":"error","name":"ReentrancyGuardReentrantCall","inputs":[]}],"bytecode":{"object":"0x6080604052346200082657620031e3803803806200001d8162000873565b92833981019060a081830312620008265780516001600160401b038111620008265781019082601f8301121562000826578151620000656200005f8262000899565b62000873565b9260208085848152019260051b820101908582116200082657602001915b818310620008515750505060208101516001600160401b038111620008265781019083601f830112156200082657815191620000c36200005f8462000899565b9260208085838152019160051b830101918683116200082657602001905b828210620008405750505060408101516001600160401b0381116200082657810184601f820112156200082657805190620001206200005f8362000899565b9560208088858152019360051b83010191818311620008265760208101935b838510620007a957505050505060806060820151910151903315620007905760008054336001600160a01b03198216811783556040519290916001600160a01b0316907f8be0079c531659141344cd1fd0a4f28419497f9722a3daafe3b4186f6b6457e09080a3600180558451156200074e5750601484511162000716578351835180911490816200070a575b5015620006c55780151580620006b9575b156200067557610e108210158062000667575b15620006225760025560065560005b82518110156200060c576001600160a01b036200021d8285620008d6565b511615620005c757620002318183620008d6565b51156200058d576001600160a01b036200024c8285620008d6565b5116600052600a60205260ff604060002054166200055557620002708183620008d6565b516200027d8286620008d6565b51604051906001600160401b0360808301908111908311176200053f57608082016040908152600183526020830193845282019081524260608301526001600160a01b03620002cd8588620008d6565b5116600052600a6020526040600020928251151560ff801986541691161784555160018401555180519060018060401b0382116200053f576002840154600181811c9116801562000534575b60208210146200051e57601f8111620004d2575b50602090601f83116001146200045957606094939291600091836200044d575b50508160011b916000199060031b1c19161760028301555b9091015160039182015580546000198114620004375760010190556200038c8183620008d6565b519060045491808301831162000437579091016004556001906001600160a01b03620003b98286620008d6565b51167f1d605273354948b7896a9a88cda2ec4fadbcd51bcfe2f1b8e084f0ba78bb1b50620003e88386620008d6565b516060620003f7858a620008d6565b5191604051928391825260406020830152620004238151809281604086015260208686019101620008b1565b601f01601f19168101030190a201620001ff565b634e487b7160e01b600052601160045260246000fd5b0151905038806200034d565b906002850160005260206000209160005b601f1985168110620004b957509183916001936060979695601f198116106200049f575b505050811b01600283015562000365565b015160001960f88460031b161c191690553880806200048e565b818301518455600190930192602092830192016200046a565b600285016000526020600020601f840160051c81016020851062000516575b601f830160051c82018110620005095750506200032d565b60008155600101620004f1565b5080620004f1565b634e487b7160e01b600052602260045260246000fd5b90607f169062000319565b634e487b7160e01b600052604160045260246000fd5b60405162461bcd60e51b815260206004820152601060248201526f223ab83634b1b0ba329039b4b3b732b960811b6044820152606490fd5b60405162461bcd60e51b81526020600482015260126024820152710576569676874206d757374206265203e20360741b6044820152606490fd5b60405162461bcd60e51b815260206004820152601660248201527f496e76616c6964207369676e65722061646472657373000000000000000000006044820152606490fd5b6002546005556040516128e19081620009028239f35b60405162461bcd60e51b815260206004820152601760248201527f496e76616c69642074696d656c6f636b20706572696f640000000000000000006044820152606490fd5b5062093a80821115620001f0565b606460405162461bcd60e51b815260206004820152602060248201527f496e76616c696420636f6e6669726d6174696f6e20726571756972656d656e746044820152fd5b508351811115620001dd565b60405162461bcd60e51b815260206004820152601560248201527f4172726179206c656e677468206d69736d6174636800000000000000000000006044820152606490fd5b905085511438620001cc565b60405162461bcd60e51b815260206004820152601060248201526f546f6f206d616e79207369676e65727360801b6044820152606490fd5b62461bcd60e51b815260206004820152601c60248201527f4174206c65617374206f6e65207369676e6572207265717569726564000000006044820152606490fd5b604051631e4fbdf760e01b815260006004820152602490fd5b84516001600160401b038111620008265782019083603f8301121562000826576020820151906001600160401b0382116200082b57620007f3601f8301601f191660200162000873565b828152856040848601011162000826576200081a60209493859460408685019101620008b1565b8152019401936200013f565b600080fd5b60246000634e487b7160e01b81526041600452fd5b8151815260209182019101620000e1565b82516001600160a01b0381168103620008265781526020928301920162000083565b6040519190601f01601f191682016001600160401b038111838210176200053f57604052565b6001600160401b0381116200053f5760051b60200190565b60005b838110620008c55750506000910152565b8181015183820152602001620008b4565b8051821015620008eb5760209160051b010190565b634e487b7160e01b600052603260045260246000fdfe60406080815260049081361015610020575b5050361561001e57600080fd5b005b600091823560e01c908163015af8ee14611e775781630905f56014611e355781630e316ab714611c3a5781631415078e14611bfd5781632ecaf67514611bc057816331c19d5014611b845781633380c0d814611afe57816333ea3dc814611a0b5781633411c81c146119965781633528f4d71461195957816359ecd6571461191f57816363a8374d146118c8578163715018a61461182c578163736c0d5b146117a0578163784547a71461174e578163796da24e146112d957816382e717f71461129c5781638da5cb5b1461124b57816390af88aa146111f857816394f1825b146111bc57816396c82e571461118057816399b20eaf146110c25781639ace38c214610ffa578163b77bf60014610fbd578163becb083a14610f80578163c01a8c8414610e99578163c642747414610a9a578163cc63604a14610a53578163d009601014610923578163d11db83f1461084f578163d1a6264814610812578163e8d9510a146105b8578163ed56b3e1146104fc578163ee22610b146102d9578163f2fde38b146101f2575063fb0c75490361001157346101ee57817ffffffffffffffffffffffffffffffffffffffffffffffffffffffffffffffffc3601126101ee5760209051610e108152f35b5080fd5b9050346102d55760207ffffffffffffffffffffffffffffffffffffffffffffffffffffffffffffffffc3601126102d55761022b611fb8565b90610234612612565b73ffffffffffffffffffffffffffffffffffffffff8092169283156102a65750508254827fffffffffffffffffffffffff00000000000000000000000000000000000000008216178455167f8be0079c531659141344cd1fd0a4f28419497f9722a3daafe3b4186f6b6457e08380a380f35b908460249251917f1e4fbdf7000000000000000000000000000000000000000000000000000000008352820152fd5b8280fd5b9050346102d5576020807ffffffffffffffffffffffffffffffffffffffffffffffffffffffffffffffffc3601126104f857813592338552600a825261032460ff8287205416612476565b8385526008825261033e60ff6003838820015416156122ed565b610346612870565b83855260088252808520610375610370866000526008602052600460406000200154600254111590565b6124db565b61037e856127ca565b1561049c578581600382930160017fffffffffffffffffffffffffffffffffffffffffffffffffffffffffffffff00825416179055426006820155338252600a855242600385842001556103d187612663565b600273ffffffffffffffffffffffffffffffffffffffff8254169160018101549061040187518094819301612540565b03925af161040d6125e2565b5015610441575050507f15ed165a284872ea7017f03df402a0cadfbfab588320ffaf83f160c2f82781c78280a26001805580f35b6064935051917f08c379a0000000000000000000000000000000000000000000000000000000008352820152601c60248201527f5472616e73616374696f6e20657865637574696f6e206661696c6564000000006044820152fd5b506064935051917f08c379a0000000000000000000000000000000000000000000000000000000008352820152601460248201527f54696d656c6f636b206e6f7420657870697265640000000000000000000000006044820152fd5b8380fd5b5050346101ee5760207ffffffffffffffffffffffffffffffffffffffffffffffffffffffffffffffffc3601126101ee57809173ffffffffffffffffffffffffffffffffffffffff61054c611fb8565b168152600a602052206105b48251610563816121f6565b60ff835416151581526001830154926020820193845260038551916105968361058f81600285016120f7565b0384612212565b82878501520154918260608201525115159351945194859485612253565b0390f35b9050346102d5576020807ffffffffffffffffffffffffffffffffffffffffffffffffffffffffffffffffc3601126104f857813592338552600a825261060360ff8287205416612476565b8385526008825261061d60ff6003838820015416156122ed565b610625612870565b61063360ff600d5416612411565b600e546201518081018091116107e657421161078b57838552600882528480828120610675610370886000526008602052600460406000200154600254111590565b6003810160017fffffffffffffffffffffffffffffffffffffffffffffffffffffffffffffff00825416179055426006820155338252600a855242600385842001556106c087612663565b600273ffffffffffffffffffffffffffffffffffffffff825416916001810154906106f087518094819301612540565b03925af16106fc6125e2565b5015610730575050507f15ed165a284872ea7017f03df402a0cadfbfab588320ffaf83f160c2f82781c78280a26001805580f35b6064935051917f08c379a0000000000000000000000000000000000000000000000000000000008352820152601a60248201527f456d657267656e637920657865637574696f6e206661696c65640000000000006044820152fd5b6064935051917f08c379a0000000000000000000000000000000000000000000000000000000008352820152601860248201527f456d657267656e63792077696e646f77206578706972656400000000000000006044820152fd5b6024866011867f4e487b7100000000000000000000000000000000000000000000000000000000835252fd5b5050346101ee57817ffffffffffffffffffffffffffffffffffffffffffffffffffffffffffffffffc3601126101ee576020906003549051908152f35b82843461092057807ffffffffffffffffffffffffffffffffffffffffffffffffffffffffffffffffc36011261092057908051918290600c549182855260208095018093600c84527fdf6966c971051c3d54ec59162606531493a51404a002842f56009d7e5cf4a8c790845b81811061090c57505050816108d1910382612212565b83519485948186019282875251809352850193925b8281106108f557505050500390f35b8351855286955093810193928101926001016108e6565b8254845292880192600192830192016108bb565b80fd5b9050346102d557827ffffffffffffffffffffffffffffffffffffffffffffffffffffffffffffffffc3601126102d557338352600a60205261096a60ff8385205416612476565b600d549160ff83166109f6578360017fffffffffffffffffffffffffffffffffffffffffffffffffffffffffffffff00851617600d5542600e55337fffffffffffffffffffffffff0000000000000000000000000000000000000000600f541617600f55337f43f3e8d1092da4d3201e4d117b99bf80e75127516bc6523bd8cdb4464a923cde8280a280f35b90602060649251917f08c379a0000000000000000000000000000000000000000000000000000000008352820152601d60248201527f456d657267656e6379206d6f646520616c7265616479206163746976650000006044820152fd5b8284346109205760207ffffffffffffffffffffffffffffffffffffffffffffffffffffffffffffffffc3601126109205750610a91602092356127ca565b90519015158152f35b839150346101ee5760607ffffffffffffffffffffffffffffffffffffffffffffffffffffffffffffffffc3601126101ee57610ad4611fb8565b9267ffffffffffffffff91604435838111610e955736602382011215610e9557610b0790369060248185013591016122b6565b92338552602095600a8752610b2160ff8588205416612476565b73ffffffffffffffffffffffffffffffffffffffff809116918215610e395786918891600b5497610b51896123a8565b600b55875195610b60876121ab565b865283860191602435835288870191825260608701928684526080880194878652600860a08a01974289528d60c08c019a808c5252528a8d209851167fffffffffffffffffffffffff00000000000000000000000000000000000000008954161788556001905160018901556002880192518051928311610e0d578c8e610bf185610beb88546120a4565b88612352565b8093601f8611600114610d5f5750509280610c849593610c4a9360069b9a99989692610d54575b50507fffffffffffffffffffffffffffffffffffffffffffffffffffffffffffffffff8260011b9260031b1c19161790565b90555b511515600387019060ff7fffffffffffffffffffffffffffffffffffffffffffffffffffffffffffffff0083541691151516179055565b518585015551600584015551910155600c549068010000000000000000821015610d28575082610cbd826001610cf39401600c5561203e565b9091907fffffffffffffffffffffffffffffffffffffffffffffffffffffffffffffffff83549160031b92831b921b1916179055565b610cfc82612735565b5191817f49dac62158bf9ae2b4399a70c655777cc0924f8708068eea723a1b4af2f07f1b339280a38152f35b8460416024927f4e487b7100000000000000000000000000000000000000000000000000000000835252fd5b015190503880610c18565b8683528183209493927fffffffffffffffffffffffffffffffffffffffffffffffffffffffffffffffe08716929091905b838310610df65750505092600192859260069b9a999896610c84989610610dbf575b505050811b019055610c4d565b01517fffffffffffffffffffffffffffffffffffffffffffffffffffffffffffffffff60f88460031b161c191690558f8080610db2565b848601518755958101959485019491820191610d90565b60248d60418c7f4e487b7100000000000000000000000000000000000000000000000000000000835252fd5b606484898751917f08c379a0000000000000000000000000000000000000000000000000000000008352820152601360248201527f496e76616c69642064657374696e6174696f6e000000000000000000000000006044820152fd5b8480fd5b9050346102d5576020807ffffffffffffffffffffffffffffffffffffffffffffffffffffffffffffffffc3601126104f857813592338552600a8252610ee460ff8287205416612476565b83855260088252610efe60ff6003838820015416156122ed565b83855260098252808520338652825260ff8186205416610f255784610f2285612735565b80f35b6064935051917f08c379a0000000000000000000000000000000000000000000000000000000008352820152601d60248201527f5472616e73616374696f6e20616c726561647920636f6e6669726d65640000006044820152fd5b5050346101ee57817ffffffffffffffffffffffffffffffffffffffffffffffffffffffffffffffffc3601126101ee57602090600e549051908152f35b5050346101ee57817ffffffffffffffffffffffffffffffffffffffffffffffffffffffffffffffffc3601126101ee57602090600b549051908152f35b8284346109205760207ffffffffffffffffffffffffffffffffffffffffffffffffffffffffffffffffc360112610920578190833581526008602052209173ffffffffffffffffffffffffffffffffffffffff8354169160018401549381516110718161106a81600286016120f7565b0382612212565b6110a760ff600384015416948301549160e060066005860154950154958051998a998a5260208a015288015260e0870190611fe0565b9315156060860152608085015260a084015260c08301520390f35b833461092057807ffffffffffffffffffffffffffffffffffffffffffffffffffffffffffffffffc360112610920576110f9612612565b7fffffffffffffffffffffffffffffffffffffffffffffffffffffffffffffff00600d5461112960ff8216612411565b16600d5580600e557fffffffffffffffffffffffff0000000000000000000000000000000000000000600f5416600f557f70b9dcaceb756943ac1a4f48b8df9ea82fbb012b87e405cba4ed77d1ded0df418180a180f35b9050346102d557827ffffffffffffffffffffffffffffffffffffffffffffffffffffffffffffffffc3601126102d55760209250549051908152f35b5050346101ee57817ffffffffffffffffffffffffffffffffffffffffffffffffffffffffffffffffc3601126101ee576020905162093a808152f35b5050346101ee57817ffffffffffffffffffffffffffffffffffffffffffffffffffffffffffffffffc3601126101ee5760209073ffffffffffffffffffffffffffffffffffffffff600f54169051908152f35b5050346101ee57817ffffffffffffffffffffffffffffffffffffffffffffffffffffffffffffffffc3601126101ee5773ffffffffffffffffffffffffffffffffffffffff60209254169051908152f35b5050346101ee57817ffffffffffffffffffffffffffffffffffffffffffffffffffffffffffffffffc3601126101ee576020906002549051908152f35b919050346102d55760607ffffffffffffffffffffffffffffffffffffffffffffffffffffffffffffffffc3601126102d557611313611fb8565b67ffffffffffffffff926024928335929160443586811161174a573660238201121561174a5761136073ffffffffffffffffffffffffffffffffffffffff913690888186013591016122b6565b93611369612612565b169586156116ee57868852602095600a875260ff848a20541661169357601460035410156116385785156115dd57848992888a9389611404898051986113ae8a6121f6565b600a60019660018c52808c01958652838c01998a5260608c019a428c528352522097511515889060ff7fffffffffffffffffffffffffffffffffffffffffffffffffffffffffffffff0083541691151516179055565b5160018701556002860193519081519384116115b3575061142f8361142986546120a4565b86612352565b8c8b92601f85116001146114e65750836003947f1d605273354948b7896a9a88cda2ec4fadbcd51bcfe2f1b8e084f0ba78bb1b509d9c9b9997946114e09b9997946114ab9492610d545750507fffffffffffffffffffffffffffffffffffffffffffffffffffffffffffffffff8260011b9260031b1c19161790565b90555b519101556114bd6003546123a8565b6003556114cb858254612404565b90558080519586958652850152830190611fe0565b0390a280f35b8582528c82209392917fffffffffffffffffffffffffffffffffffffffffffffffffffffffffffffffe08616915b82821061159c575050937f1d605273354948b7896a9a88cda2ec4fadbcd51bcfe2f1b8e084f0ba78bb1b509c9b9a9896936114e09a9896936001938360039810611566575b505050811b0190556114ae565b01517fffffffffffffffffffffffffffffffffffffffffffffffffffffffffffffffff60f884891b161c19169055388080611559565b83850151865594850194938e0193908e0190611514565b8d6041897f4e487b7100000000000000000000000000000000000000000000000000000000835252fd5b601291508660649451937f08c379a00000000000000000000000000000000000000000000000000000000085528401528201527f576569676874206d757374206265203e203000000000000000000000000000006044820152fd5b601791508660649451937f08c379a00000000000000000000000000000000000000000000000000000000085528401528201527f4d6178696d756d207369676e65727320726561636865640000000000000000006044820152fd5b601591508660649451937f08c379a00000000000000000000000000000000000000000000000000000000085528401528201527f5369676e657220616c72656164792065786973747300000000000000000000006044820152fd5b50601685602060649451937f08c379a00000000000000000000000000000000000000000000000000000000085528401528201527f496e76616c6964207369676e65722061646472657373000000000000000000006044820152fd5b8780fd5b8284346109205760207ffffffffffffffffffffffffffffffffffffffffffffffffffffffffffffffffc3601126109205750610a91602092356000526008602052600460406000200154600254111590565b5050346101ee5760207ffffffffffffffffffffffffffffffffffffffffffffffffffffffffffffffffc3601126101ee57809173ffffffffffffffffffffffffffffffffffffffff6117f0611fb8565b168152600a60205220906105b460ff83541691600184015493600382519161181f8361058f81600285016120f7565b0154915194859485612253565b833461092057807ffffffffffffffffffffffffffffffffffffffffffffffffffffffffffffffffc36011261092057611863612612565b8073ffffffffffffffffffffffffffffffffffffffff81547fffffffffffffffffffffffff000000000000000000000000000000000000000081168355167f8be0079c531659141344cd1fd0a4f28419497f9722a3daafe3b4186f6b6457e08280a380f35b9050346102d55760207ffffffffffffffffffffffffffffffffffffffffffffffffffffffffffffffffc3601126102d5573591600c54831015610920575061191160209261203e565b91905490519160031b1c8152f35b5050346101ee57817ffffffffffffffffffffffffffffffffffffffffffffffffffffffffffffffffc3601126101ee576020905160148152f35b5050346101ee57817ffffffffffffffffffffffffffffffffffffffffffffffffffffffffffffffffc3601126101ee576020906007549051908152f35b9050346102d557817ffffffffffffffffffffffffffffffffffffffffffffffffffffffffffffffffc3601126102d5576024359073ffffffffffffffffffffffffffffffffffffffff82168092036104f85760209360ff92849235825260098652828220908252855220541690519015158152f35b905082346109205760207ffffffffffffffffffffffffffffffffffffffffffffffffffffffffffffffffc3601126109205782908235815260086020522090825191611a56836121ab565b73ffffffffffffffffffffffffffffffffffffffff92838254168152611aea6001830154946020830195865260c0875191611a988361058f8160028a016120f7565b828986015260ff6003870154161515968760608701528601549485608082015260066005880154978860a0840152015483820152511696519780519889988952602089015287015260c0860190611fe0565b926060850152608084015260a08301520390f35b9050346102d55760207ffffffffffffffffffffffffffffffffffffffffffffffffffffffffffffffffc3601126102d55760ff6003611b54923593611b41612612565b84865260086020528520015416156122ed565b611b5d81612663565b7f956fb32199d8b882b2039a14e1be35ab14f7a80b9089fc223f14b43937173e608280a280f35b5050346101ee57817ffffffffffffffffffffffffffffffffffffffffffffffffffffffffffffffffc3601126101ee5760209051620151808152f35b5050346101ee57817ffffffffffffffffffffffffffffffffffffffffffffffffffffffffffffffffc3601126101ee576020906006549051908152f35b5050346101ee57817ffffffffffffffffffffffffffffffffffffffffffffffffffffffffffffffffc3601126101ee576020906005549051908152f35b8383346101ee57602090817ffffffffffffffffffffffffffffffffffffffffffffffffffffffffffffffffc3601126102d55773ffffffffffffffffffffffffffffffffffffffff611c8a611fb8565b611c92612612565b1691828452600a815260ff828520541615611dd957600354600254811115611d7d578015611d51577fffffffffffffffffffffffffffffffffffffffffffffffffffffffffffffffff01600355828452600a8152600182852001548554908103908111611d51578555828452600a9052822080547fffffffffffffffffffffffffffffffffffffffffffffffffffffffffffffff001690557f3525e22824a8a7df2c9a6029941c824cf95b6447f1e13d5128fd3826d35afe8b8280a280f35b6024856011887f4e487b7100000000000000000000000000000000000000000000000000000000835252fd5b606486838551917f08c379a0000000000000000000000000000000000000000000000000000000008352820152601d60248201527f43616e6e6f742072656d6f7665207265717569726564207369676e65720000006044820152fd5b849060649251917f08c379a0000000000000000000000000000000000000000000000000000000008352820152601160248201527f5369676e6572206e6f74206163746976650000000000000000000000000000006044820152fd5b5050346101ee57817ffffffffffffffffffffffffffffffffffffffffffffffffffffffffffffffffc3601126101ee5760209060ff600d541690519015158152f35b919050346102d557807ffffffffffffffffffffffffffffffffffffffffffffffffffffffffffffffffc3601126102d55781359160243591611eb7612612565b83151580611fac575b15611f4f57610e1083101580611f42575b15611ee55750508160025560065560055580f35b90602060649251917f08c379a0000000000000000000000000000000000000000000000000000000008352820152601760248201527f496e76616c69642074696d656c6f636b20706572696f640000000000000000006044820152fd5b5062093a80831115611ed1565b90602060649251917f08c379a0000000000000000000000000000000000000000000000000000000008352820152602060248201527f496e76616c696420636f6e6669726d6174696f6e20726571756972656d656e746044820152fd5b50600354841115611ec0565b6004359073ffffffffffffffffffffffffffffffffffffffff82168203611fdb57565b600080fd5b919082519283825260005b84811061202a5750507fffffffffffffffffffffffffffffffffffffffffffffffffffffffffffffffe0601f8460006020809697860101520116010190565b602081830181015184830182015201611feb565b600c5481101561207557600c6000527fdf6966c971051c3d54ec59162606531493a51404a002842f56009d7e5cf4a8c70190600090565b7f4e487b7100000000000000000000000000000000000000000000000000000000600052603260045260246000fd5b90600182811c921680156120ed575b60208310146120be57565b7f4e487b7100000000000000000000000000000000000000000000000000000000600052602260045260246000fd5b91607f16916120b3565b805460009392612106826120a4565b9182825260209360019160018116908160001461216e575060011461212d575b5050505050565b90939495506000929192528360002092846000945b83861061215a57505050500101903880808080612126565b805485870183015294019385908201612142565b7fffffffffffffffffffffffffffffffffffffffffffffffffffffffffffffff00168685015250505090151560051b010191503880808080612126565b60e0810190811067ffffffffffffffff8211176121c757604052565b7f4e487b7100000000000000000000000000000000000000000000000000000000600052604160045260246000fd5b6080810190811067ffffffffffffffff8211176121c757604052565b90601f7fffffffffffffffffffffffffffffffffffffffffffffffffffffffffffffffe0910116810190811067ffffffffffffffff8211176121c757604052565b94939260609261227792151587526020870152608060408701526080860190611fe0565b930152565b67ffffffffffffffff81116121c757601f017fffffffffffffffffffffffffffffffffffffffffffffffffffffffffffffffe01660200190565b9291926122c28261227c565b916122d06040519384612212565b829481845281830111611fdb578281602093846000960137010152565b156122f457565b60646040517f08c379a000000000000000000000000000000000000000000000000000000000815260206004820152601c60248201527f5472616e73616374696f6e20616c7265616479206578656375746564000000006044820152fd5b90601f811161236057505050565b6000916000526020600020906020601f850160051c8301941061239e575b601f0160051c01915b82811061239357505050565b818155600101612387565b909250829061237e565b7fffffffffffffffffffffffffffffffffffffffffffffffffffffffffffffffff81146123d55760010190565b7f4e487b7100000000000000000000000000000000000000000000000000000000600052601160045260246000fd5b919082018092116123d557565b1561241857565b60646040517f08c379a000000000000000000000000000000000000000000000000000000000815260206004820152601960248201527f456d657267656e6379206d6f6465206e6f7420616374697665000000000000006044820152fd5b1561247d57565b60646040517f08c379a000000000000000000000000000000000000000000000000000000000815260206004820152601460248201527f4e6f7420616e20616374697665207369676e65720000000000000000000000006044820152fd5b156124e257565b60646040517f08c379a000000000000000000000000000000000000000000000000000000000815260206004820152601960248201527f5472616e73616374696f6e206e6f7420636f6e6669726d6564000000000000006044820152fd5b60009291815461254f816120a4565b926001918083169081156125a9575060011461256c575b50505050565b9091929394506000526020906020600020906000915b8583106125985750505050019038808080612566565b805485840152918301918101612582565b7fffffffffffffffffffffffffffffffffffffffffffffffffffffffffffffff0016845250505081151590910201915038808080612566565b3d1561260d573d906125f38261227c565b916126016040519384612212565b82523d6000602084013e565b606090565b73ffffffffffffffffffffffffffffffffffffffff60005416330361263357565b60246040517f118cdaa7000000000000000000000000000000000000000000000000000000008152336004820152fd5b60005b600c908154918282101561256657839261267f8361203e565b959054600396871b1c1461269a575050600191925001612666565b9092507fffffffffffffffffffffffffffffffffffffffffffffffffffffffffffffffff918282019182116123d557610cbd6126d86126e49361203e565b905490871b1c9161203e565b81548015612706578101926126f88461203e565b81939154921b1b1916905555565b7f4e487b7100000000000000000000000000000000000000000000000000000000600052603160045260246000fd5b6000908082526009602052604082203383526020526040822060017fffffffffffffffffffffffffffffffffffffffffffffffffffffffffffffff0082541617905580825260086020526004604083200161279081546123a8565b9055338252600a6020524260036040842001557f15c2f311c9e0f53b50388279894aeff029a3457884a6601e924fca879e12adcc339280a3565b600052600860205260406000206040516127e3816121ab565b73ffffffffffffffffffffffffffffffffffffffff82541681526001820154602082015260405161281b8161106a81600287016120f7565b604082015260ff600383015416151560608201526004820154608082015260c060066005840154938460a0850152015491015260ff600d541661286a5760065461286491612404565b42101590565b50600190565b600260015414612881576002600155565b60046040517f3ee5aeb5000000000000000000000000000000000000000000000000000000008152fdfea2646970667358221220952f6efaadf5d276e2757d03ff659695cac1d45620c98eec8b5171b3b78716b664736f6c63430008180033","linkReferences":{}},"methodIdentifiers":{"EMERGENCY_WINDOW()":"31c19d50","MAX_SIGNERS()":"59ecd657","MAX_TIMELOCK()":"94f1825b","MIN_TIMELOCK()":"fb0c7549","activateEmergencyMode()":"d0096010","addSigner(address,uint256,string)":"796da24e","canExecute(uint256)":"cc63604a","cancelTransaction(uint256)":"3380c0d8","confirmTransaction(uint256)":"c01a8c84","confirmations(uint256,address)":"3411c81c","deactivateEmergencyMode()":"99b20eaf","emergencyActivationTime()":"becb083a","emergencyActivator()":"90af88aa","emergencyExecute(uint256)":"e8d9510a","emergencyMode()":"0905f560","emergencyPeriod()":"3528f4d7","executeTransaction(uint256)":"ee22610b","getPendingTransactions()":"d11db83f","getSignerInfo(address)":"ed56b3e1","getTransaction(uint256)":"33ea3dc8","isConfirmed(uint256)":"784547a7","owner()":"8da5cb5b","pendingTransactions(uint256)":"63a8374d","removeSigner(address)":"0e316ab7","renounceOwnership()":"715018a6","requiredConfirmations()":"82e717f7","requiredWeight()":"1415078e","signers(address)":"736c0d5b","submitTransaction(address,uint256,bytes)":"c6427474","timelockPeriod()":"2ecaf675","totalSigners()":"d1a62648","totalWeight()":"96c82e57","transactionCount()":"b77bf600","transactions(uint256)":"9ace38c2","transferOwnership(address)":"f2fde38b","updateSettings(uint256,uint256)":"015af8ee"},"id":13}