{"abi":[{"type":"constructor","inputs":[{"name":"governor","type":"address","internalType":"address"},{"name":"pythAddress","type":"address","internalType":"address"}],"stateMutability":"nonpayable"},{"type":"function","name":"ADMIN","inputs":[],"outputs":[{"name":"","type":"bytes32","internalType":"bytes32"}],"stateMutability":"view"},{"type":"function","name":"DEFAULT_ADMIN_ROLE","inputs":[],"outputs":[{"name":"","type":"bytes32","internalType":"bytes32"}],"stateMutability":"view"},{"type":"function","name":"getRoleAdmin","inputs":[{"name":"role","type":"bytes32","internalType":"bytes32"}],"outputs":[{"name":"","type":"bytes32","internalType":"bytes32"}],"stateMutability":"view"},{"type":"function","name":"grantRole","inputs":[{"name":"role","type":"bytes32","internalType":"bytes32"},{"name":"account","type":"address","internalType":"address"}],"outputs":[],"stateMutability":"nonpayable"},{"type":"function","name":"hasRole","inputs":[{"name":"role","type":"bytes32","internalType":"bytes32"},{"name":"account","type":"address","internalType":"address"}],"outputs":[{"name":"","type":"bool","internalType":"bool"}],"stateMutability":"view"},{"type":"function","name":"ids","inputs":[{"name":"","type":"address","internalType":"address"}],"outputs":[{"name":"priceId","type":"bytes32","internalType":"bytes32"},{"name":"maxAgeSec","type":"uint64","internalType":"uint64"}],"stateMutability":"view"},{"type":"function","name":"isFresh","inputs":[{"name":"instrument","type":"address","internalType":"address"},{"name":"maxAgeSec","type":"uint64","internalType":"uint64"}],"outputs":[{"name":"","type":"bool","internalType":"bool"}],"stateMutability":"view"},{"type":"function","name":"pyth","inputs":[],"outputs":[{"name":"","type":"address","internalType":"contract IPyth"}],"stateMutability":"view"},{"type":"function","name":"quoteInCash","inputs":[{"name":"instrument","type":"address","internalType":"address"}],"outputs":[{"name":"price","type":"uint256","internalType":"uint256"},{"name":"decimals","type":"uint8","internalType":"uint8"},{"name":"lastUpdate","type":"uint64","internalType":"uint64"}],"stateMutability":"view"},{"type":"function","name":"renounceRole","inputs":[{"name":"role","type":"bytes32","internalType":"bytes32"},{"name":"callerConfirmation","type":"address","internalType":"address"}],"outputs":[],"stateMutability":"nonpayable"},{"type":"function","name":"revokeRole","inputs":[{"name":"role","type":"bytes32","internalType":"bytes32"},{"name":"account","type":"address","internalType":"address"}],"outputs":[],"stateMutability":"nonpayable"},{"type":"function","name":"setPriceId","inputs":[{"name":"instrument","type":"address","internalType":"address"},{"name":"priceId","type":"bytes32","internalType":"bytes32"},{"name":"maxAgeSec","type":"uint64","internalType":"uint64"}],"outputs":[],"stateMutability":"nonpayable"},{"type":"function","name":"setPyth","inputs":[{"name":"pythAddress","type":"address","internalType":"address"}],"outputs":[],"stateMutability":"nonpayable"},{"type":"function","name":"supportsInterface","inputs":[{"name":"interfaceId","type":"bytes4","internalType":"bytes4"}],"outputs":[{"name":"","type":"bool","internalType":"bool"}],"stateMutability":"view"},{"type":"event","name":"PythAddressSet","inputs":[{"name":"pyth","type":"address","indexed":false,"internalType":"address"}],"anonymous":false},{"type":"event","name":"PythSet","inputs":[{"name":"instrument","type":"address","indexed":true,"internalType":"address"},{"name":"priceId","type":"bytes32","indexed":false,"internalType":"bytes32"},{"name":"maxAgeSec","type":"uint64","indexed":false,"internalType":"uint64"}],"anonymous":false},{"type":"event","name":"RoleAdminChanged","inputs":[{"name":"role","type":"bytes32","indexed":true,"internalType":"bytes32"},{"name":"previousAdminRole","type":"bytes32","indexed":true,"internalType":"bytes32"},{"name":"newAdminRole","type":"bytes32","indexed":true,"internalType":"bytes32"}],"anonymous":false},{"type":"event","name":"RoleGranted","inputs":[{"name":"role","type":"bytes32","indexed":true,"internalType":"bytes32"},{"name":"account","type":"address","indexed":true,"internalType":"address"},{"name":"sender","type":"address","indexed":true,"internalType":"address"}],"anonymous":false},{"type":"event","name":"RoleRevoked","inputs":[{"name":"role","type":"bytes32","indexed":true,"internalType":"bytes32"},{"name":"account","type":"address","indexed":true,"internalType":"address"},{"name":"sender","type":"address","indexed":true,"internalType":"address"}],"anonymous":false},{"type":"error","name":"AccessControlBadConfirmation","inputs":[]},{"type":"error","name":"AccessControlUnauthorizedAccount","inputs":[{"name":"account","type":"address","internalType":"address"},{"name":"neededRole","type":"bytes32","internalType":"bytes32"}]}],"bytecode":{"object":"0x608034620000cb57601f620012c938819003918201601f19168301916001600160401b03831184841017620000d0578084926040948552833981010312620000cb57602081620000946200008183620000797fba1c91e2f5af10d1bb9a14092c36f12d548ed432005bf9ec884046348467789196620000e6565b9301620000e6565b916200008d81620000fb565b506200017b565b50600180546001600160a01b0319166001600160a01b03929092169182179055604051908152a160405161108b90816200021e8239f35b600080fd5b634e487b7160e01b600052604160045260246000fd5b51906001600160a01b0382168203620000cb57565b6001600160a01b031660008181527fad3228b676f7d3cd4284a5443f17f1962b36e491b30a40b2405849e597ba5fb5602052604081205490919060ff166200017757818052816020526040822081835260205260408220600160ff198254161790553391600080516020620012a98339815191528180a4600190565b5090565b6001600160a01b031660008181527f5cbfc8ee58ca47855df7bcf648dd304ddb6b932f9b87878bdf6318d7ec7ee5b760205260408120549091907fdf8b4c520ffe197c5343c6f5aec59570151ef9a492f2c624fd45ddde6135ec429060ff166200021857808352826020526040832082845260205260408320600160ff19825416179055600080516020620012a9833981519152339380a4600190565b50509056fe608060408181526004918236101561001657600080fd5b600092833560e01c91826301ffc9a714610b9f575081631847c06b14610b20578163248a9ca314610ad85781632a0acc6a14610a7f5781632f2ff15d14610a3757816336568abe146109ad57816336af91c91461062f5781634b93a1d91461045a57816387a5f325146102cb57816391d148541461025b578163a217fddf14610222578163d547741f146101c157508063ee22fd6f146101145763f98d06f0146100bf57600080fd5b3461011057817ffffffffffffffffffffffffffffffffffffffffffffffffffffffffffffffffc3601126101105760209073ffffffffffffffffffffffffffffffffffffffff600154169051908152f35b5080fd5b50346101105760207ffffffffffffffffffffffffffffffffffffffffffffffffffffffffffffffffc3601126101105760207fba1c91e2f5af10d1bb9a14092c36f12d548ed432005bf9ec88404634846778919173ffffffffffffffffffffffffffffffffffffffff610185610c5b565b61018d610e51565b1690817fffffffffffffffffffffffff0000000000000000000000000000000000000000600154161760015551908152a180f35b9190503461021e57807ffffffffffffffffffffffffffffffffffffffffffffffffffffffffffffffffc36011261021e5761021a91356102156001610204610c83565b938387528660205286200154610ee4565b610fb4565b5080f35b8280fd5b50503461011057817ffffffffffffffffffffffffffffffffffffffffffffffffffffffffffffffffc3601126101105751908152602090f35b90503461021e57817ffffffffffffffffffffffffffffffffffffffffffffffffffffffffffffffffc36011261021e578160209360ff9261029a610c83565b9035825281865273ffffffffffffffffffffffffffffffffffffffff83832091168252855220541690519015158152f35b839150346101105760607ffffffffffffffffffffffffffffffffffffffffffffffffffffffffffffffffc36011261011057610305610c5b565b6024356044359167ffffffffffffffff808416918285036104565773ffffffffffffffffffffffffffffffffffffffff9061033e610e51565b16948515158061044d575b156103f05750956103ea917f4a5bd6c1a6590565fc8a2e4b793c35db3aff78ca76bd6e8d954e6946e9df60499596976001835161038581610ca6565b86815260208101938452898b526002602052848b2090518155019151167fffffffffffffffffffffffffffffffffffffffffffffffff0000000000000000825416179055519283928390929167ffffffffffffffff6020916040840195845216910152565b0390a280f35b60649060208951917f08c379a0000000000000000000000000000000000000000000000000000000008352820152600360248201527f62616400000000000000000000000000000000000000000000000000000000006044820152fd5b50831515610349565b8680fd5b82843461062c57817ffffffffffffffffffffffffffffffffffffffffffffffffffffffffffffffffc36011261062c57610492610c5b565b67ffffffffffffffff9290602435848116808203610628578560609173ffffffffffffffffffffffffffffffffffffffff8095168752600260205285872093828751956104de87610ca6565b6104fc826001835493848b5201541691602089019283521515610d32565b5116918261061557509050935b600154169251931692831560001461060c5760447fffffffffffffffffffffffffffffffffffffffffffffffffffffffffffffffff915b865194859384927fa4ae35e00000000000000000000000000000000000000000000000000000000084528c84015260248301525afa9081156105ff578591849186916105d0575b5001511601918383116105a4575060209350519142911610158152f35b806011867f4e487b71000000000000000000000000000000000000000000000000000000006024945252fd5b6105f2915060603d6060116105f8575b6105ea8183610cf1565b810190610d97565b88610587565b503d6105e0565b50505051903d90823e3d90fd5b60448491610540565b61062157505b93610509565b905061061b565b8480fd5b80fd5b9050823461062c57602092837ffffffffffffffffffffffffffffffffffffffffffffffffffffffffffffffffc360112610110576001929361066f610c5b565b73ffffffffffffffffffffffffffffffffffffffff8091168452600282528284209383519461069d86610ca6565b8054928387526106c467ffffffffffffffff80998194015416948689019586521515610d32565b60015416955192511680156000146109a4575060607fffffffffffffffffffffffffffffffffffffffffffffffffffffffffffffffff925b60448651809881937fa4ae35e00000000000000000000000000000000000000000000000000000000083528c830152602496878301525afa948515610998578195610977575b5080855160070b131561091c5784830151855160070b90600381900b8381126107e457509061077961077f9263ffffffff16610dfb565b90610e3e565b96670de0b6b3a76400009788810298818a0414901517156107bb5750505060ff60609594836012955b0151169383519586521690840152820152f35b6011907f4e487b7100000000000000000000000000000000000000000000000000000000835252fd5b90507fffffffffffffffffffffffffffffffffffffffffffffffffffffffff80000000819994939299146108f25763ffffffff9390820384166012811161084d576012039384116107bb5750505061084360609661077960ff93610dfb565b94836012956107a8565b7fffffffffffffffffffffffffffffffffffffffffffffffffffffffffffffffee9099949199019081116108c85761088490610dfb565b97881561089f5750505060609560ff910494836012956107a8565b6012907f4e487b7100000000000000000000000000000000000000000000000000000000835252fd5b506011887f4e487b7100000000000000000000000000000000000000000000000000000000835252fd5b506011837f4e487b7100000000000000000000000000000000000000000000000000000000835252fd5b606487600884868851937f08c379a00000000000000000000000000000000000000000000000000000000085528401528201527f6261645f707974680000000000000000000000000000000000000000000000006044820152fd5b61099191955060603d6060116105f8576105ea8183610cf1565b9387610742565b508351903d90823e3d90fd5b606090926106fc565b83833461011057807ffffffffffffffffffffffffffffffffffffffffffffffffffffffffffffffffc360112610110576109e5610c83565b903373ffffffffffffffffffffffffffffffffffffffff831603610a0f575061021a919235610fb4565b8390517f6697b232000000000000000000000000000000000000000000000000000000008152fd5b9190503461021e57807ffffffffffffffffffffffffffffffffffffffffffffffffffffffffffffffffc36011261021e5761021a9135610a7a6001610204610c83565b610f0a565b50503461011057817ffffffffffffffffffffffffffffffffffffffffffffffffffffffffffffffffc36011261011057602090517fdf8b4c520ffe197c5343c6f5aec59570151ef9a492f2c624fd45ddde6135ec428152f35b90503461021e5760207ffffffffffffffffffffffffffffffffffffffffffffffffffffffffffffffffc36011261021e57816020936001923581528085522001549051908152f35b5050346101105760207ffffffffffffffffffffffffffffffffffffffffffffffffffffffffffffffffc36011261011057809173ffffffffffffffffffffffffffffffffffffffff610b70610c5b565b168152600260209081529190208054600190910154925190815267ffffffffffffffff90921690820152604090f35b84913461021e5760207ffffffffffffffffffffffffffffffffffffffffffffffffffffffffffffffffc36011261021e57357fffffffff00000000000000000000000000000000000000000000000000000000811680910361021e57602092507f7965db0b000000000000000000000000000000000000000000000000000000008114908115610c31575b5015158152f35b7f01ffc9a70000000000000000000000000000000000000000000000000000000091501483610c2a565b6004359073ffffffffffffffffffffffffffffffffffffffff82168203610c7e57565b600080fd5b6024359073ffffffffffffffffffffffffffffffffffffffff82168203610c7e57565b6040810190811067ffffffffffffffff821117610cc257604052565b7f4e487b7100000000000000000000000000000000000000000000000000000000600052604160045260246000fd5b90601f7fffffffffffffffffffffffffffffffffffffffffffffffffffffffffffffffe0910116810190811067ffffffffffffffff821117610cc257604052565b15610d3957565b60646040517f08c379a000000000000000000000000000000000000000000000000000000000815260206004820152600760248201527f6e6f5f70797468000000000000000000000000000000000000000000000000006044820152fd5b90816060910312610c7e576040519067ffffffffffffffff906060830182811184821017610cc25760405280518060070b8103610c7e5783526020810151908160030b8203610c7e57604091602085015201519081168103610c7e57604082015290565b63ffffffff16604d8111610e0f57600a0a90565b7f4e487b7100000000000000000000000000000000000000000000000000000000600052601160045260246000fd5b81810292918115918404141715610e0f57565b3360009081527f5cbfc8ee58ca47855df7bcf648dd304ddb6b932f9b87878bdf6318d7ec7ee5b760205260409020547fdf8b4c520ffe197c5343c6f5aec59570151ef9a492f2c624fd45ddde6135ec429060ff1615610ead5750565b604490604051907fe2517d3f0000000000000000000000000000000000000000000000000000000082523360048301526024820152fd5b80600052600060205260406000203360005260205260ff6040600020541615610ead5750565b906000918083528260205273ffffffffffffffffffffffffffffffffffffffff6040842092169182845260205260ff60408420541615600014610faf5780835282602052604083208284526020526040832060017fffffffffffffffffffffffffffffffffffffffffffffffffffffffffffffff008254161790557f2f8788117e7eff1d82e926ec794901d17c78024a50270940304540a733656f0d339380a4600190565b505090565b906000918083528260205273ffffffffffffffffffffffffffffffffffffffff6040842092169182845260205260ff604084205416600014610faf578083528260205260408320828452602052604083207fffffffffffffffffffffffffffffffffffffffffffffffffffffffffffffff0081541690557ff6391f5c32d9c69d2a47ea670b442974b53935d1edc7fd64eb21e047a839171b339380a460019056fea26469706673582212205502f7cc2d71d761ac6b155cc6d271d5e186536c2cfb81a335623ddfb6615d8064736f6c634300081800332f8788117e7eff1d82e926ec794901d17c78024a50270940304540a733656f0d","linkReferences":{}},"methodIdentifiers":{"ADMIN()":"2a0acc6a","DEFAULT_ADMIN_ROLE()":"a217fddf","getRoleAdmin(bytes32)":"248a9ca3","grantRole(bytes32,address)":"2f2ff15d","hasRole(bytes32,address)":"91d14854","ids(address)":"1847c06b","isFresh(address,uint64)":"4b93a1d9","pyth()":"f98d06f0","quoteInCash(address)":"36af91c9","renounceRole(bytes32,address)":"36568abe","revokeRole(bytes32,address)":"d547741f","setPriceId(address,bytes32,uint64)":"87a5f325","setPyth(address)":"ee22fd6f","supportsInterface(bytes4)":"01ffc9a7"},"id":63}