{"abi":[{"type":"constructor","inputs":[{"name":"governor","type":"address","internalType":"address"}],"stateMutability":"nonpayable"},{"type":"function","name":"ADMIN","inputs":[],"outputs":[{"name":"","type":"bytes32","internalType":"bytes32"}],"stateMutability":"view"},{"type":"function","name":"DEFAULT_ADMIN_ROLE","inputs":[],"outputs":[{"name":"","type":"bytes32","internalType":"bytes32"}],"stateMutability":"view"},{"type":"function","name":"feeds","inputs":[{"name":"","type":"address","internalType":"address"}],"outputs":[{"name":"aggregator","type":"address","internalType":"address"},{"name":"maxAgeSec","type":"uint64","internalType":"uint64"}],"stateMutability":"view"},{"type":"function","name":"getRoleAdmin","inputs":[{"name":"role","type":"bytes32","internalType":"bytes32"}],"outputs":[{"name":"","type":"bytes32","internalType":"bytes32"}],"stateMutability":"view"},{"type":"function","name":"grantRole","inputs":[{"name":"role","type":"bytes32","internalType":"bytes32"},{"name":"account","type":"address","internalType":"address"}],"outputs":[],"stateMutability":"nonpayable"},{"type":"function","name":"hasRole","inputs":[{"name":"role","type":"bytes32","internalType":"bytes32"},{"name":"account","type":"address","internalType":"address"}],"outputs":[{"name":"","type":"bool","internalType":"bool"}],"stateMutability":"view"},{"type":"function","name":"isFresh","inputs":[{"name":"instrument","type":"address","internalType":"address"},{"name":"maxAgeSec","type":"uint64","internalType":"uint64"}],"outputs":[{"name":"","type":"bool","internalType":"bool"}],"stateMutability":"view"},{"type":"function","name":"quoteInCash","inputs":[{"name":"instrument","type":"address","internalType":"address"}],"outputs":[{"name":"price","type":"uint256","internalType":"uint256"},{"name":"decimals","type":"uint8","internalType":"uint8"},{"name":"lastUpdate","type":"uint64","internalType":"uint64"}],"stateMutability":"view"},{"type":"function","name":"renounceRole","inputs":[{"name":"role","type":"bytes32","internalType":"bytes32"},{"name":"callerConfirmation","type":"address","internalType":"address"}],"outputs":[],"stateMutability":"nonpayable"},{"type":"function","name":"revokeRole","inputs":[{"name":"role","type":"bytes32","internalType":"bytes32"},{"name":"account","type":"address","internalType":"address"}],"outputs":[],"stateMutability":"nonpayable"},{"type":"function","name":"setFeed","inputs":[{"name":"instrument","type":"address","internalType":"address"},{"name":"aggregator","type":"address","internalType":"address"},{"name":"maxAgeSec","type":"uint64","internalType":"uint64"}],"outputs":[],"stateMutability":"nonpayable"},{"type":"function","name":"supportsInterface","inputs":[{"name":"interfaceId","type":"bytes4","internalType":"bytes4"}],"outputs":[{"name":"","type":"bool","internalType":"bool"}],"stateMutability":"view"},{"type":"event","name":"FeedSet","inputs":[{"name":"instrument","type":"address","indexed":true,"internalType":"address"},{"name":"aggregator","type":"address","indexed":false,"internalType":"address"},{"name":"maxAgeSec","type":"uint64","indexed":false,"internalType":"uint64"}],"anonymous":false},{"type":"event","name":"RoleAdminChanged","inputs":[{"name":"role","type":"bytes32","indexed":true,"internalType":"bytes32"},{"name":"previousAdminRole","type":"bytes32","indexed":true,"internalType":"bytes32"},{"name":"newAdminRole","type":"bytes32","indexed":true,"internalType":"bytes32"}],"anonymous":false},{"type":"event","name":"RoleGranted","inputs":[{"name":"role","type":"bytes32","indexed":true,"internalType":"bytes32"},{"name":"account","type":"address","indexed":true,"internalType":"address"},{"name":"sender","type":"address","indexed":true,"internalType":"address"}],"anonymous":false},{"type":"event","name":"RoleRevoked","inputs":[{"name":"role","type":"bytes32","indexed":true,"internalType":"bytes32"},{"name":"account","type":"address","indexed":true,"internalType":"address"},{"name":"sender","type":"address","indexed":true,"internalType":"address"}],"anonymous":false},{"type":"error","name":"AccessControlBadConfirmation","inputs":[]},{"type":"error","name":"AccessControlUnauthorizedAccount","inputs":[{"name":"account","type":"address","internalType":"address"},{"name":"neededRole","type":"bytes32","internalType":"bytes32"}]}],"bytecode":{"object":"0x60803461007257601f6110f838819003918201601f19168301916001600160401b038311848410176100775780849260209460405283398101031261007257516001600160a01b0381168103610072578061005c6100629261008d565b5061010b565b50604051610f2c90816101ac8239f35b600080fd5b634e487b7160e01b600052604160045260246000fd5b6001600160a01b031660008181527fad3228b676f7d3cd4284a5443f17f1962b36e491b30a40b2405849e597ba5fb5602052604081205490919060ff1661010757818052816020526040822081835260205260408220600160ff1982541617905533916000805160206110d88339815191528180a4600190565b5090565b6001600160a01b031660008181527f5cbfc8ee58ca47855df7bcf648dd304ddb6b932f9b87878bdf6318d7ec7ee5b760205260408120549091907fdf8b4c520ffe197c5343c6f5aec59570151ef9a492f2c624fd45ddde6135ec429060ff166101a657808352826020526040832082845260205260408320600160ff198254161790556000805160206110d8833981519152339380a4600190565b50509056fe608060408181526004908136101561001657600080fd5b600092833560e01c90816301ffc9a714610ac957508063248a9ca314610a815780632a0acc6a14610a285780632f2ff15d146109e25780632fba4aa91461093857806336568abe146108ad57806336af91c91461058157806347acb9cd146103495780634b93a1d9146101b357806391d1485414610143578063a217fddf146101065763d547741f146100a857600080fd5b3461010257807ffffffffffffffffffffffffffffffffffffffffffffffffffffffffffffffffc360112610102576100fe91356100f960016100e8610b86565b938387528660205286200154610d4e565b610e55565b5080f35b8280fd5b83823461013f57817ffffffffffffffffffffffffffffffffffffffffffffffffffffffffffffffffc36011261013f5751908152602090f35b5080fd5b50903461010257817ffffffffffffffffffffffffffffffffffffffffffffffffffffffffffffffffc360112610102578160209360ff92610182610b86565b9035825281865273ffffffffffffffffffffffffffffffffffffffff83832091168252855220541690519015158152f35b50823461034657817ffffffffffffffffffffffffffffffffffffffffffffffffffffffffffffffffc360112610346576101eb610bae565b67ffffffffffffffff90602435828116918282036103425773ffffffffffffffffffffffffffffffffffffffff809116855260016020528660a08787209288519361023585610bd1565b5493610252828616808352896020840197861c1687521515610c5d565b51168851928380927ffeaf968c0000000000000000000000000000000000000000000000000000000082525afa908115610338579085918791610304575b501684421603928484116102d857602097508492918391156102cf5750505b169250826102c6575050506001905b519015158152f35b161115906102be565b511690506102af565b60248660118a7f4e487b7100000000000000000000000000000000000000000000000000000000835252fd5b610326915060a03d60a011610331575b61031e8183610c1c565b810190610cd9565b509250505089610290565b503d610314565b87513d88823e3d90fd5b8480fd5b80fd5b5091903461013f5760607ffffffffffffffffffffffffffffffffffffffffffffffffffffffffffffffffc36011261013f57610383610bae565b61038b610b86565b6044359167ffffffffffffffff831680840361057d577fdf8b4c520ffe197c5343c6f5aec59570151ef9a492f2c624fd45ddde6135ec428087528660205287872033885260205260ff888820541615610547575073ffffffffffffffffffffffffffffffffffffffff809216948515158061053c575b156104df5750956104d9917fe466ff0f29c5749a57de9d397c0263fab4cac24838f1e7b747260d604ac0b5f095969782519161043c83610bd1565b808616835260208301918252888a526001602052838a209251167fffffffff000000000000000000000000000000000000000000000000000000007bffffffffffffffff00000000000000000000000000000000000000008454935160a01b16921617179055519283928390929167ffffffffffffffff60209173ffffffffffffffffffffffffffffffffffffffff604085019616845216910152565b0390a280f35b60649060208951917f08c379a0000000000000000000000000000000000000000000000000000000008352820152600860248201527f6261645f616464720000000000000000000000000000000000000000000000006044820152fd5b508284161515610401565b856044918951917fe2517d3f00000000000000000000000000000000000000000000000000000000835233908301526024820152fd5b8580fd5b5082903461013f57602091827ffffffffffffffffffffffffffffffffffffffffffffffffffffffffffffffffc360112610346576105bd610bae565b9073ffffffffffffffffffffffffffffffffffffffff80921681526001845284838220918451926105ed84610bd1565b549361061281861680865267ffffffffffffffff809760a01c16898701521515610c5d565b60a0818551168751948580927ffeaf968c0000000000000000000000000000000000000000000000000000000082525afa93841561081d5782938395610883575b5082841315610827578891889151168751928380927f313ce5670000000000000000000000000000000000000000000000000000000082525afa801561081d5782906107e5575b60ff169050601281116107405760120360ff8111610714576106bb90610d0e565b918281029281840414901517156106e85750606095509360ff60125b855196875216908501521690820152f35b806011887f4e487b71000000000000000000000000000000000000000000000000000000006024945252fd5b60248260118a7f4e487b7100000000000000000000000000000000000000000000000000000000835252fd5b9091907fffffffffffffffffffffffffffffffffffffffffffffffffffffffffffffffee0160ff81116107b95761077690610d0e565b91821561078d575060609650049360ff60126106d7565b806012897f4e487b71000000000000000000000000000000000000000000000000000000006024945252fd5b60248360118a7f4e487b7100000000000000000000000000000000000000000000000000000000835252fd5b508681813d8311610816575b6107fb8183610c1c565b8101031261013f575160ff8116810361013f5760ff9061069a565b503d6107f1565b86513d84823e3d90fd5b606489898951917f08c379a0000000000000000000000000000000000000000000000000000000008352820152600a60248201527f6261645f616e73776572000000000000000000000000000000000000000000006044820152fd5b9094506108a091935060a03d60a0116103315761031e8183610c1c565b5094925050929389610653565b5082903461013f57807ffffffffffffffffffffffffffffffffffffffffffffffffffffffffffffffffc36011261013f576108e6610b86565b903373ffffffffffffffffffffffffffffffffffffffff83160361091057506100fe919235610e55565b8390517f6697b232000000000000000000000000000000000000000000000000000000008152fd5b5082346103465760207ffffffffffffffffffffffffffffffffffffffffffffffffffffffffffffffffc360112610346576109de8273ffffffffffffffffffffffffffffffffffffffff928361098c610bae565b16815260016020522054925192839267ffffffffffffffff8260a01c1691168390929167ffffffffffffffff60209173ffffffffffffffffffffffffffffffffffffffff604085019616845216910152565b0390f35b503461010257807ffffffffffffffffffffffffffffffffffffffffffffffffffffffffffffffffc360112610102576100fe9135610a2360016100e8610b86565b610dab565b83823461013f57817ffffffffffffffffffffffffffffffffffffffffffffffffffffffffffffffffc36011261013f57602090517fdf8b4c520ffe197c5343c6f5aec59570151ef9a492f2c624fd45ddde6135ec428152f35b5090346101025760207ffffffffffffffffffffffffffffffffffffffffffffffffffffffffffffffffc36011261010257816020936001923581528085522001549051908152f35b849084346101025760207ffffffffffffffffffffffffffffffffffffffffffffffffffffffffffffffffc36011261010257357fffffffff00000000000000000000000000000000000000000000000000000000811680910361010257602092507f7965db0b000000000000000000000000000000000000000000000000000000008114908115610b5c575b5015158152f35b7f01ffc9a70000000000000000000000000000000000000000000000000000000091501483610b55565b6024359073ffffffffffffffffffffffffffffffffffffffff82168203610ba957565b600080fd5b6004359073ffffffffffffffffffffffffffffffffffffffff82168203610ba957565b6040810190811067ffffffffffffffff821117610bed57604052565b7f4e487b7100000000000000000000000000000000000000000000000000000000600052604160045260246000fd5b90601f7fffffffffffffffffffffffffffffffffffffffffffffffffffffffffffffffe0910116810190811067ffffffffffffffff821117610bed57604052565b15610c6457565b60646040517f08c379a000000000000000000000000000000000000000000000000000000000815260206004820152600760248201527f6e6f5f66656564000000000000000000000000000000000000000000000000006044820152fd5b519069ffffffffffffffffffff82168203610ba957565b908160a0910312610ba957610ced81610cc2565b91602082015191604081015191610d0b608060608401519301610cc2565b90565b60ff16604d8111610d1f57600a0a90565b7f4e487b7100000000000000000000000000000000000000000000000000000000600052601160045260246000fd5b80600052600060205260406000203360005260205260ff6040600020541615610d745750565b604490604051907fe2517d3f0000000000000000000000000000000000000000000000000000000082523360048301526024820152fd5b906000918083528260205273ffffffffffffffffffffffffffffffffffffffff6040842092169182845260205260ff60408420541615600014610e505780835282602052604083208284526020526040832060017fffffffffffffffffffffffffffffffffffffffffffffffffffffffffffffff008254161790557f2f8788117e7eff1d82e926ec794901d17c78024a50270940304540a733656f0d339380a4600190565b505090565b906000918083528260205273ffffffffffffffffffffffffffffffffffffffff6040842092169182845260205260ff604084205416600014610e50578083528260205260408320828452602052604083207fffffffffffffffffffffffffffffffffffffffffffffffffffffffffffffff0081541690557ff6391f5c32d9c69d2a47ea670b442974b53935d1edc7fd64eb21e047a839171b339380a460019056fea26469706673582212200292e62c66718607a490bf983ab560269cdf48dd08899a39c6c82097f3434c3a64736f6c634300081800332f8788117e7eff1d82e926ec794901d17c78024a50270940304540a733656f0d","linkReferences":{}},"methodIdentifiers":{"ADMIN()":"2a0acc6a","DEFAULT_ADMIN_ROLE()":"a217fddf","feeds(address)":"2fba4aa9","getRoleAdmin(bytes32)":"248a9ca3","grantRole(bytes32,address)":"2f2ff15d","hasRole(bytes32,address)":"91d14854","isFresh(address,uint64)":"4b93a1d9","quoteInCash(address)":"36af91c9","renounceRole(bytes32,address)":"36568abe","revokeRole(bytes32,address)":"d547741f","setFeed(address,address,uint64)":"47acb9cd","supportsInterface(bytes4)":"01ffc9a7"},"id":61}