{"abi":[{"type":"constructor","inputs":[{"name":"_admin","type":"address","internalType":"address"},{"name":"_executor","type":"address","internalType":"address"}],"stateMutability":"nonpayable"},{"type":"function","name":"admin","inputs":[],"outputs":[{"name":"","type":"address","internalType":"address"}],"stateMutability":"view"},{"type":"function","name":"executor","inputs":[],"outputs":[{"name":"","type":"address","internalType":"address"}],"stateMutability":"view"},{"type":"function","name":"kind","inputs":[],"outputs":[{"name":"","type":"uint8","internalType":"enum IRail.Kind"}],"stateMutability":"pure"},{"type":"function","name":"markRefunded","inputs":[{"name":"id","type":"bytes32","internalType":"bytes32"},{"name":"t","type":"tuple","internalType":"struct IRail.Transfer","components":[{"name":"asset","type":"address","internalType":"address"},{"name":"from","type":"address","internalType":"address"},{"name":"to","type":"address","internalType":"address"},{"name":"amount","type":"uint256","internalType":"uint256"},{"name":"metadata","type":"bytes","internalType":"bytes"}]}],"outputs":[],"stateMutability":"nonpayable"},{"type":"function","name":"markReleased","inputs":[{"name":"id","type":"bytes32","internalType":"bytes32"},{"name":"t","type":"tuple","internalType":"struct IRail.Transfer","components":[{"name":"asset","type":"address","internalType":"address"},{"name":"from","type":"address","internalType":"address"},{"name":"to","type":"address","internalType":"address"},{"name":"amount","type":"uint256","internalType":"uint256"},{"name":"metadata","type":"bytes","internalType":"bytes"}]}],"outputs":[],"stateMutability":"nonpayable"},{"type":"function","name":"prepare","inputs":[{"name":"t","type":"tuple","internalType":"struct IRail.Transfer","components":[{"name":"asset","type":"address","internalType":"address"},{"name":"from","type":"address","internalType":"address"},{"name":"to","type":"address","internalType":"address"},{"name":"amount","type":"uint256","internalType":"uint256"},{"name":"metadata","type":"bytes","internalType":"bytes"}]}],"outputs":[],"stateMutability":"payable"},{"type":"function","name":"refund","inputs":[{"name":"id","type":"bytes32","internalType":"bytes32"},{"name":"t","type":"tuple","internalType":"struct IRail.Transfer","components":[{"name":"asset","type":"address","internalType":"address"},{"name":"from","type":"address","internalType":"address"},{"name":"to","type":"address","internalType":"address"},{"name":"amount","type":"uint256","internalType":"uint256"},{"name":"metadata","type":"bytes","internalType":"bytes"}]}],"outputs":[],"stateMutability":"nonpayable"},{"type":"function","name":"release","inputs":[{"name":"id","type":"bytes32","internalType":"bytes32"},{"name":"t","type":"tuple","internalType":"struct IRail.Transfer","components":[{"name":"asset","type":"address","internalType":"address"},{"name":"from","type":"address","internalType":"address"},{"name":"to","type":"address","internalType":"address"},{"name":"amount","type":"uint256","internalType":"uint256"},{"name":"metadata","type":"bytes","internalType":"bytes"}]}],"outputs":[],"stateMutability":"nonpayable"},{"type":"function","name":"setExecutor","inputs":[{"name":"e","type":"address","internalType":"address"}],"outputs":[],"stateMutability":"nonpayable"},{"type":"function","name":"status","inputs":[{"name":"id","type":"bytes32","internalType":"bytes32"}],"outputs":[{"name":"","type":"uint8","internalType":"enum IRail.Status"}],"stateMutability":"view"},{"type":"function","name":"transferId","inputs":[{"name":"t","type":"tuple","internalType":"struct IRail.Transfer","components":[{"name":"asset","type":"address","internalType":"address"},{"name":"from","type":"address","internalType":"address"},{"name":"to","type":"address","internalType":"address"},{"name":"amount","type":"uint256","internalType":"uint256"},{"name":"metadata","type":"bytes","internalType":"bytes"}]}],"outputs":[{"name":"","type":"bytes32","internalType":"bytes32"}],"stateMutability":"pure"},{"type":"event","name":"ExecutorSet","inputs":[{"name":"executor","type":"address","indexed":true,"internalType":"address"}],"anonymous":false},{"type":"event","name":"RailCancelled","inputs":[{"name":"id","type":"bytes32","indexed":true,"internalType":"bytes32"}],"anonymous":false},{"type":"event","name":"RailPrepared","inputs":[{"name":"id","type":"bytes32","indexed":true,"internalType":"bytes32"},{"name":"from","type":"address","indexed":true,"internalType":"address"},{"name":"to","type":"address","indexed":true,"internalType":"address"},{"name":"asset","type":"address","indexed":false,"internalType":"address"},{"name":"amount","type":"uint256","indexed":false,"internalType":"uint256"}],"anonymous":false},{"type":"event","name":"RailRefunded","inputs":[{"name":"id","type":"bytes32","indexed":true,"internalType":"bytes32"},{"name":"to","type":"address","indexed":true,"internalType":"address"},{"name":"asset","type":"address","indexed":false,"internalType":"address"},{"name":"amount","type":"uint256","indexed":false,"internalType":"uint256"}],"anonymous":false},{"type":"event","name":"RailReleased","inputs":[{"name":"id","type":"bytes32","indexed":true,"internalType":"bytes32"},{"name":"to","type":"address","indexed":true,"internalType":"address"},{"name":"asset","type":"address","indexed":false,"internalType":"address"},{"name":"amount","type":"uint256","indexed":false,"internalType":"uint256"}],"anonymous":false}],"bytecode":{"object":"0x6080346100d357601f610c7238819003918201601f19168301916001600160401b038311848410176100d85780849260409485528339810103126100d357610052602061004b836100ee565b92016100ee565b6001600160a01b039182169190821515806100c8575b156100985760018060a01b03199283600054161760005516906001541617600155604051610b6f90816101038239f35b60405162461bcd60e51b81526020600482015260086024820152670585241494c3a20360c41b6044820152606490fd5b508181161515610068565b600080fd5b634e487b7160e01b600052604160045260246000fd5b51906001600160a01b03821682036100d35756fe608060408181526004918236101561001657600080fd5b600092833560e01c91826304baa00b146107945750816307c150e7146106d557816308432d571461054d5781631c3c0ea8146104325781634dd6e2b51461041057816352ad0d5e1461038f57816359b6b1031461025f57816390ee1dfa146101d9578163c34c08e514610186578163cfcb5b1b146100f1575063f851a4401461009e57600080fd5b346100ed57817ffffffffffffffffffffffffffffffffffffffffffffffffffffffffffffffffc3601126100ed5773ffffffffffffffffffffffffffffffffffffffff60209254169051908152f35b5080fd5b919050346101825760209061012b73ffffffffffffffffffffffffffffffffffffffff606495610120366107cd565b505054163314610961565b51917f08c379a0000000000000000000000000000000000000000000000000000000008352820152601760248201527f585241494c3a20757365206d61726b526566756e6465640000000000000000006044820152fd5b8280fd5b5050346100ed57817ffffffffffffffffffffffffffffffffffffffffffffffffffffffffffffffffc3601126100ed5760209073ffffffffffffffffffffffffffffffffffffffff600154169051908152f35b919050346101825760209061020873ffffffffffffffffffffffffffffffffffffffff606495610120366107cd565b51917f08c379a0000000000000000000000000000000000000000000000000000000008352820152601760248201527f585241494c3a20757365206d61726b52656c65617365640000000000000000006044820152fd5b8383346100ed5761026f366107cd565b9173ffffffffffffffffffffffffffffffffffffffff9061029582600154163314610876565b828552600260205260ff8186205416600581101561036357906102dc60017f368c9a8588242d513faa21c32bf5aaee15ee1150a43690313e009727607c71d39493146108db565b838652600260205280862060037fffffffffffffffffffffffffffffffffffffffffffffffffffffffffffffff0082541617905561035d61031f60208701610940565b91606061032b88610940565b915173ffffffffffffffffffffffffffffffffffffffff90921682529096013560208701529116939081906040820190565b0390a380f35b6024866021897f4e487b7100000000000000000000000000000000000000000000000000000000835252fd5b8383346100ed5760207ffffffffffffffffffffffffffffffffffffffffffffffffffffffffffffffffc3601126100ed5782358252600260205260ff818320541690519160058210156103e457602083838152f35b806021857f4e487b71000000000000000000000000000000000000000000000000000000006024945252fd5b5050346100ed5760209061042b61042636610826565b6109c6565b9051908152f35b9050346101825760207ffffffffffffffffffffffffffffffffffffffffffffffffffffffffffffffffc3601126101825780359173ffffffffffffffffffffffffffffffffffffffff80841680940361054957610493908554163314610961565b82156104ec575050807fffffffffffffffffffffffff000000000000000000000000000000000000000060015416176001557f3e3c5e6d5b512eaa5d5a80669846cfbaf8bde70fc6f7a3be9828cffc9ba5f1db8280a280f35b90602060649251917f08c379a0000000000000000000000000000000000000000000000000000000008352820152600860248201527f585241494c3a20300000000000000000000000000000000000000000000000006044820152fd5b8480fd5b905061055836610826565b90610562826109c6565b90818552600260205260ff848620541660058110156106a95761064c5750808452600260205282842060017fffffffffffffffffffffffffffffffffffffffffffffffffffffffffffffff008254161790557f10876f5ef21c4a7c28973a179a5d95ec8815150f2fbf9c39ba9c73132d2589da6105e160208401610940565b936105ed818501610940565b6106466105f986610940565b606073ffffffffffffffffffffffffffffffffffffffff80955195869516991697013590836020909392919373ffffffffffffffffffffffffffffffffffffffff60408201951681520152565b0390a480f35b60649060208551917f08c379a0000000000000000000000000000000000000000000000000000000008352820152600d60248201527f585241494c3a20657869737473000000000000000000000000000000000000006044820152fd5b6024866021847f4e487b7100000000000000000000000000000000000000000000000000000000835252fd5b8383346100ed576106e5366107cd565b9173ffffffffffffffffffffffffffffffffffffffff9061070b82600154163314610876565b828552600260205260ff81862054166005811015610363579061075260017fd246ccc6c6f9471c400e2ef416699d6cef45c429f224da93084d39b3f807286b9493146108db565b838652600260205280862060027fffffffffffffffffffffffffffffffffffffffffffffffffffffffffffffff0082541617905561035d61031f828701610940565b8490346100ed57817ffffffffffffffffffffffffffffffffffffffffffffffffffffffffffffffffc3601126100ed5780600260209252f35b907ffffffffffffffffffffffffffffffffffffffffffffffffffffffffffffffffc60408184011261082157600435926024359167ffffffffffffffff8311610821578260a0920301126108215760040190565b600080fd5b7ffffffffffffffffffffffffffffffffffffffffffffffffffffffffffffffffc90602082820112610821576004359167ffffffffffffffff8311610821578260a0920301126108215760040190565b1561087d57565b60646040517f08c379a000000000000000000000000000000000000000000000000000000000815260206004820152600f60248201527f585241494c3a206e6f74206578656300000000000000000000000000000000006044820152fd5b156108e257565b60646040517f08c379a000000000000000000000000000000000000000000000000000000000815260206004820152601060248201527f585241494c3a20626164207374617465000000000000000000000000000000006044820152fd5b3573ffffffffffffffffffffffffffffffffffffffff811681036108215790565b1561096857565b60646040517f08c379a000000000000000000000000000000000000000000000000000000000815260206004820152601060248201527f585241494c3a206e6f742061646d696e000000000000000000000000000000006044820152fd5b6109d260208201610940565b906109df60408201610940565b60808201357fffffffffffffffffffffffffffffffffffffffffffffffffffffffffffffffe1833603018112156108215782019081359067ffffffffffffffff928383116108215760200190823603821361082157606094601f93600061013f94604051988994602086019b60a08d52600560c08801527f585241494c00000000000000000000000000000000000000000000000000000060e08801526101009773ffffffffffffffffffffffffffffffffffffffff809216604089015216828701520135608085015260e060a0850152828585015282610120918286013782840101527fffffffffffffffffffffffffffffffffffffffffffffffffffffffffffffffe094859101168101039081018552011682019082821090821117610b0a5760405251902090565b7f4e487b7100000000000000000000000000000000000000000000000000000000600052604160045260246000fdfea264697066735822122063642bad1374c8523ba2188dcd43bdc3c4328a4b4545ede8fc09e87a90b246b364736f6c63430008180033","linkReferences":{}},"methodIdentifiers":{"admin()":"f851a440","executor()":"c34c08e5","kind()":"04baa00b","markRefunded(bytes32,(address,address,address,uint256,bytes))":"59b6b103","markReleased(bytes32,(address,address,address,uint256,bytes))":"07c150e7","prepare((address,address,address,uint256,bytes))":"08432d57","refund(bytes32,(address,address,address,uint256,bytes))":"cfcb5b1b","release(bytes32,(address,address,address,uint256,bytes))":"90ee1dfa","setExecutor(address)":"1c3c0ea8","status(bytes32)":"52ad0d5e","transferId((address,address,address,uint256,bytes))":"4dd6e2b5"},"id":6}