{"abi":[{"type":"constructor","inputs":[],"stateMutability":"nonpayable"},{"type":"function","name":"DEFAULT_ADMIN_ROLE","inputs":[],"outputs":[{"name":"","type":"bytes32","internalType":"bytes32"}],"stateMutability":"view"},{"type":"function","name":"ESCROW_ADMIN_ROLE","inputs":[],"outputs":[{"name":"","type":"bytes32","internalType":"bytes32"}],"stateMutability":"view"},{"type":"function","name":"SETTLEMENT_OPERATOR_ROLE","inputs":[],"outputs":[{"name":"","type":"bytes32","internalType":"bytes32"}],"stateMutability":"view"},{"type":"function","name":"cancelSettlement","inputs":[{"name":"settlementId","type":"bytes32","internalType":"bytes32"}],"outputs":[],"stateMutability":"nonpayable"},{"type":"function","name":"createSettlement","inputs":[{"name":"securityToken","type":"address","internalType":"address"},{"name":"paymentToken","type":"address","internalType":"address"},{"name":"seller","type":"address","internalType":"address"},{"name":"buyer","type":"address","internalType":"address"},{"name":"securityAmount","type":"uint256","internalType":"uint256"},{"name":"paymentAmount","type":"uint256","internalType":"uint256"},{"name":"partition","type":"bytes32","internalType":"bytes32"},{"name":"deadline","type":"uint256","internalType":"uint256"}],"outputs":[{"name":"","type":"bytes32","internalType":"bytes32"}],"stateMutability":"nonpayable"},{"type":"function","name":"executeSettlement","inputs":[{"name":"settlementId","type":"bytes32","internalType":"bytes32"}],"outputs":[],"stateMutability":"nonpayable"},{"type":"function","name":"getRoleAdmin","inputs":[{"name":"role","type":"bytes32","internalType":"bytes32"}],"outputs":[{"name":"","type":"bytes32","internalType":"bytes32"}],"stateMutability":"view"},{"type":"function","name":"grantRole","inputs":[{"name":"role","type":"bytes32","internalType":"bytes32"},{"name":"account","type":"address","internalType":"address"}],"outputs":[],"stateMutability":"nonpayable"},{"type":"function","name":"hasRole","inputs":[{"name":"role","type":"bytes32","internalType":"bytes32"},{"name":"account","type":"address","internalType":"address"}],"outputs":[{"name":"","type":"bool","internalType":"bool"}],"stateMutability":"view"},{"type":"function","name":"renounceRole","inputs":[{"name":"role","type":"bytes32","internalType":"bytes32"},{"name":"callerConfirmation","type":"address","internalType":"address"}],"outputs":[],"stateMutability":"nonpayable"},{"type":"function","name":"revokeRole","inputs":[{"name":"role","type":"bytes32","internalType":"bytes32"},{"name":"account","type":"address","internalType":"address"}],"outputs":[],"stateMutability":"nonpayable"},{"type":"function","name":"settlements","inputs":[{"name":"","type":"bytes32","internalType":"bytes32"}],"outputs":[{"name":"securityToken","type":"address","internalType":"address"},{"name":"paymentToken","type":"address","internalType":"address"},{"name":"seller","type":"address","internalType":"address"},{"name":"buyer","type":"address","internalType":"address"},{"name":"securityAmount","type":"uint256","internalType":"uint256"},{"name":"paymentAmount","type":"uint256","internalType":"uint256"},{"name":"partition","type":"bytes32","internalType":"bytes32"},{"name":"deadline","type":"uint256","internalType":"uint256"},{"name":"isSettled","type":"bool","internalType":"bool"}],"stateMutability":"view"},{"type":"function","name":"supportsInterface","inputs":[{"name":"interfaceId","type":"bytes4","internalType":"bytes4"}],"outputs":[{"name":"","type":"bool","internalType":"bool"}],"stateMutability":"view"},{"type":"event","name":"RoleAdminChanged","inputs":[{"name":"role","type":"bytes32","indexed":true,"internalType":"bytes32"},{"name":"previousAdminRole","type":"bytes32","indexed":true,"internalType":"bytes32"},{"name":"newAdminRole","type":"bytes32","indexed":true,"internalType":"bytes32"}],"anonymous":false},{"type":"event","name":"RoleGranted","inputs":[{"name":"role","type":"bytes32","indexed":true,"internalType":"bytes32"},{"name":"account","type":"address","indexed":true,"internalType":"address"},{"name":"sender","type":"address","indexed":true,"internalType":"address"}],"anonymous":false},{"type":"event","name":"RoleRevoked","inputs":[{"name":"role","type":"bytes32","indexed":true,"internalType":"bytes32"},{"name":"account","type":"address","indexed":true,"internalType":"address"},{"name":"sender","type":"address","indexed":true,"internalType":"address"}],"anonymous":false},{"type":"event","name":"SettlementCancelled","inputs":[{"name":"settlementId","type":"bytes32","indexed":true,"internalType":"bytes32"}],"anonymous":false},{"type":"event","name":"SettlementCreated","inputs":[{"name":"settlementId","type":"bytes32","indexed":true,"internalType":"bytes32"},{"name":"securityToken","type":"address","indexed":true,"internalType":"address"},{"name":"paymentToken","type":"address","indexed":true,"internalType":"address"},{"name":"seller","type":"address","indexed":false,"internalType":"address"},{"name":"buyer","type":"address","indexed":false,"internalType":"address"},{"name":"securityAmount","type":"uint256","indexed":false,"internalType":"uint256"},{"name":"paymentAmount","type":"uint256","indexed":false,"internalType":"uint256"},{"name":"partition","type":"bytes32","indexed":false,"internalType":"bytes32"},{"name":"deadline","type":"uint256","indexed":false,"internalType":"uint256"}],"anonymous":false},{"type":"event","name":"SettlementExecuted","inputs":[{"name":"settlementId","type":"bytes32","indexed":true,"internalType":"bytes32"}],"anonymous":false},{"type":"error","name":"AccessControlBadConfirmation","inputs":[]},{"type":"error","name":"AccessControlUnauthorizedAccount","inputs":[{"name":"account","type":"address","internalType":"address"},{"name":"neededRole","type":"bytes32","internalType":"bytes32"}]},{"type":"error","name":"ReentrancyGuardReentrantCall","inputs":[]}],"bytecode":{"object":"0x60806040523461003157600160005561001733610036565b50610021336100b5565b506040516116a490816101578239f35b600080fd5b6001600160a01b031660008181527fa6eef7e35abe7026729641147f7915573c7e97b47efa546f5f6e3230263bcb49602052604081205490919060ff166100b15781805260016020526040822081835260205260408220600160ff1982541617905533916000805160206117fb8339815191528180a4600190565b5090565b6001600160a01b031660008181527fdaf02ca0af52b4b227e2ade092e2a8e418cb0d65e254c2076f3c65ef56aa033660205260408120549091907fd471dbbd825301629315dc9fd24c8fa5addf08088354ca89ae2cdac6dc12d9509060ff166101515780835260016020526040832082845260205260408320600160ff198254161790556000805160206117fb833981519152339380a4600190565b50509056fe608080604052600436101561001357600080fd5b60003560e01c90816301bc95e2146113365750806301ffc9a7146112775780630bda191e14610dce578063248a9ca314610d815780632f2ff15d14610d2457806336568abe14610c9a5780636e61462a14610c4157806389674f9f14610be857806391d1485414610b6f578063963c68d0146109d25780639b9c36161461014c578063a217fddf146101125763d547741f146100ae57600080fd5b3461010d5760407ffffffffffffffffffffffffffffffffffffffffffffffffffffffffffffffffc36011261010d5761010b6004356100eb6113f9565b908060005260016020526101066001604060002001546114c2565b6115cb565b005b600080fd5b3461010d5760007ffffffffffffffffffffffffffffffffffffffffffffffffffffffffffffffffc36011261010d57602060405160008152f35b3461010d576101007ffffffffffffffffffffffffffffffffffffffffffffffffffffffffffffffffc36011261010d5773ffffffffffffffffffffffffffffffffffffffff600435166004350361010d576101a56113f9565b73ffffffffffffffffffffffffffffffffffffffff604435166044350361010d5773ffffffffffffffffffffffffffffffffffffffff606435166064350361010d573360009081527fcb7d87f842f76db243652f5196a042aab6b639835a959c73e8d598c0130df670602052604090205460ff161561097c5773ffffffffffffffffffffffffffffffffffffffff600435161561091e5773ffffffffffffffffffffffffffffffffffffffff8116156108c05773ffffffffffffffffffffffffffffffffffffffff60443516156108625773ffffffffffffffffffffffffffffffffffffffff606435161561080457608435156107a65760a43515610748574260e43511156106ea576040517fffffffffffffffffffffffffffffffffffffffff00000000000000000000000060043560601b1660208201527fffffffffffffffffffffffffffffffffffffffff0000000000000000000000008260601b1660348201527fffffffffffffffffffffffffffffffffffffffff00000000000000000000000060443560601b1660488201527fffffffffffffffffffffffffffffffffffffffff00000000000000000000000060643560601b16605c820152608435607082015260a435609082015260c43560b082015260e43560d08201524260f082015260f081528061012081011067ffffffffffffffff61012083011117610656576101208101604052805160208201209081600052600260205273ffffffffffffffffffffffffffffffffffffffff604060002054166106855750604051918261012081011067ffffffffffffffff6101208501111761065657826101206020940160405273ffffffffffffffffffffffffffffffffffffffff60043516815273ffffffffffffffffffffffffffffffffffffffff82168482015273ffffffffffffffffffffffffffffffffffffffff60443516604082015273ffffffffffffffffffffffffffffffffffffffff606435166060820152608435608082015260a43560a082015260c43560c082015260e43560e0820152600061010082015282600052600284526101006008604060002073ffffffffffffffffffffffffffffffffffffffff8451167fffffffffffffffffffffffff000000000000000000000000000000000000000090818354161782556001820173ffffffffffffffffffffffffffffffffffffffff8987015116828254161790556002820173ffffffffffffffffffffffffffffffffffffffff60408701511682825416179055600382019073ffffffffffffffffffffffffffffffffffffffff606087015116908254161790556080840151600482015560a0840151600582015560c0840151600682015560e0840151600782015501910151151560ff7fffffffffffffffffffffffffffffffffffffffffffffffffffffffffffffff00835416911617905573ffffffffffffffffffffffffffffffffffffffff6040519181604435168352816064351685840152608435604084015260a435606084015260c435608084015260e43560a08401521690827fb8b2766334ff85e6d4de74ad35de32505e5a804ca1c8b433ab3e52601f051c0f60c073ffffffffffffffffffffffffffffffffffffffff6004351693a4604051908152f35b7f4e487b7100000000000000000000000000000000000000000000000000000000600052604160045260246000fd5b610120817f08c379a000000000000000000000000000000000000000000000000000000000826064940152602061012482015260116101448201527f536574746c656d656e742065786973747300000000000000000000000000000061016482015201fd5b60646040517f08c379a000000000000000000000000000000000000000000000000000000000815260206004820152601060248201527f496e76616c696420646561646c696e65000000000000000000000000000000006044820152fd5b60646040517f08c379a000000000000000000000000000000000000000000000000000000000815260206004820152601660248201527f496e76616c6964207061796d656e7420616d6f756e74000000000000000000006044820152fd5b60646040517f08c379a000000000000000000000000000000000000000000000000000000000815260206004820152601760248201527f496e76616c696420736563757269747920616d6f756e740000000000000000006044820152fd5b60646040517f08c379a000000000000000000000000000000000000000000000000000000000815260206004820152600d60248201527f496e76616c6964206275796572000000000000000000000000000000000000006044820152fd5b60646040517f08c379a000000000000000000000000000000000000000000000000000000000815260206004820152600e60248201527f496e76616c69642073656c6c65720000000000000000000000000000000000006044820152fd5b60646040517f08c379a000000000000000000000000000000000000000000000000000000000815260206004820152601560248201527f496e76616c6964207061796d656e7420746f6b656e00000000000000000000006044820152fd5b60646040517f08c379a000000000000000000000000000000000000000000000000000000000815260206004820152601660248201527f496e76616c696420736563757269747920746f6b656e000000000000000000006044820152fd5b60446040517fe2517d3f0000000000000000000000000000000000000000000000000000000081523360048201527fe5f3d29fbf8cd4b379b5a8ec1437261892bf01e7d129556690f84cf7a11d2c4d6024820152fd5b3461010d576020807ffffffffffffffffffffffffffffffffffffffffffffffffffffffffffffffffc36011261010d576004359081600052600281526040600020610a2460ff6008830154161561141c565b73ffffffffffffffffffffffffffffffffffffffff806002830154163314918215610b5e575b50508015610b1c575b15610abe576002908260005252600060086040822082815582600182015582600282015582600382015582600482015582600582015582600682015582600782015501557f44b757e305fb984e622bd5b6c8bbacdd202b2613d5af5e833ca8e3e36c357a8e600080a2005b606490604051907f08c379a00000000000000000000000000000000000000000000000000000000082526004820152600e60248201527f4e6f7420617574686f72697a65640000000000000000000000000000000000006044820152fd5b507fd471dbbd825301629315dc9fd24c8fa5addf08088354ca89ae2cdac6dc12d95060005260018152604060002033600052815260ff60406000205416610a53565b600391925001541633148380610a4a565b3461010d5760407ffffffffffffffffffffffffffffffffffffffffffffffffffffffffffffffffc36011261010d57610ba66113f9565b600435600052600160205273ffffffffffffffffffffffffffffffffffffffff60406000209116600052602052602060ff604060002054166040519015158152f35b3461010d5760007ffffffffffffffffffffffffffffffffffffffffffffffffffffffffffffffffc36011261010d5760206040517fe5f3d29fbf8cd4b379b5a8ec1437261892bf01e7d129556690f84cf7a11d2c4d8152f35b3461010d5760007ffffffffffffffffffffffffffffffffffffffffffffffffffffffffffffffffc36011261010d5760206040517fd471dbbd825301629315dc9fd24c8fa5addf08088354ca89ae2cdac6dc12d9508152f35b3461010d5760407ffffffffffffffffffffffffffffffffffffffffffffffffffffffffffffffffc36011261010d57610cd16113f9565b3373ffffffffffffffffffffffffffffffffffffffff821603610cfa5761010b906004356115cb565b60046040517f6697b232000000000000000000000000000000000000000000000000000000008152fd5b3461010d5760407ffffffffffffffffffffffffffffffffffffffffffffffffffffffffffffffffc36011261010d5761010b600435610d616113f9565b90806000526001602052610d7c6001604060002001546114c2565b61151f565b3461010d5760207ffffffffffffffffffffffffffffffffffffffffffffffffffffffffffffffffc36011261010d5760043560005260016020526020600160406000200154604051908152f35b3461010d576020807ffffffffffffffffffffffffffffffffffffffffffffffffffffffffffffffffc36011261010d576004359060026000541461124d57600260005581600052600281526040600020906008820191610e3260ff8454161561141c565b600781015442116111ef5773ffffffffffffffffffffffffffffffffffffffff808254169181600182015416926003820192808454169260048101958654604051907f1badb25c00000000000000000000000000000000000000000000000000000000825286600483015260248201526060604482015260006064820152606081608481885afa90811561107657600091611174575b507fff000000000000000000000000000000000000000000000000000000000000007f51000000000000000000000000000000000000000000000000000000000000009116036111165787600283019560648588541691600060058701549560405196879586947f23b872dd0000000000000000000000000000000000000000000000000000000086526004860152602485015260448401525af1908115611076576000916110e0575b50156110825761010492828896959360066000940154945416955416965460405197889687957f8c0dee9c000000000000000000000000000000000000000000000000000000008752600487015260248601526044850152606484015260c060848401528160c484015260e060a48401528160e48401525af180156110765761104d575b505060017fffffffffffffffffffffffffffffffffffffffffffffffffffffffffffffff008254161790557f7a21a47bab42fe532c3d7a883981aae0d918617417a90e12e01d5baf978bf4b2600080a26001600055005b813d831161106f575b6110608183611481565b8101031261010d578280610ff6565b503d611056565b6040513d6000823e3d90fd5b606487604051907f08c379a00000000000000000000000000000000000000000000000000000000082526004820152601760248201527f5061796d656e74207472616e73666572206661696c65640000000000000000006044820152fd5b90508781813d831161110f575b6110f78183611481565b8101031261010d5751801515810361010d578a610f72565b503d6110ed565b606488604051907f08c379a00000000000000000000000000000000000000000000000000000000082526004820152601e60248201527f5365637572697479207472616e73666572206e6f7420706f737369626c6500006044820152fd5b90506060813d6060116111e7575b8161118f60609383611481565b8101031261010d57517fff000000000000000000000000000000000000000000000000000000000000008116810361010d577fff00000000000000000000000000000000000000000000000000000000000000610ec8565b3d9150611182565b606482604051907f08c379a00000000000000000000000000000000000000000000000000000000082526004820152601260248201527f536574746c656d656e74206578706972656400000000000000000000000000006044820152fd5b60046040517f3ee5aeb5000000000000000000000000000000000000000000000000000000008152fd5b3461010d5760207ffffffffffffffffffffffffffffffffffffffffffffffffffffffffffffffffc36011261010d576004357fffffffff00000000000000000000000000000000000000000000000000000000811680910361010d57807f7965db0b000000000000000000000000000000000000000000000000000000006020921490811561130c575b506040519015158152f35b7f01ffc9a70000000000000000000000000000000000000000000000000000000091501482611301565b3461010d5760207ffffffffffffffffffffffffffffffffffffffffffffffffffffffffffffffffc36011261010d57610120906004356000526002602052604060002073ffffffffffffffffffffffffffffffffffffffff9081815416918060018301541690806002840154169060038401541660048401549060058501549260068601549460ff6008600789015498015416978952602089015260408801526060870152608086015260a085015260c084015260e08301521515610100820152f35b6024359073ffffffffffffffffffffffffffffffffffffffff8216820361010d57565b1561142357565b60646040517f08c379a000000000000000000000000000000000000000000000000000000000815260206004820152600f60248201527f416c726561647920736574746c656400000000000000000000000000000000006044820152fd5b90601f7fffffffffffffffffffffffffffffffffffffffffffffffffffffffffffffffe0910116810190811067ffffffffffffffff82111761065657604052565b80600052600160205260406000203360005260205260ff60406000205416156114e85750565b604490604051907fe2517d3f0000000000000000000000000000000000000000000000000000000082523360048301526024820152fd5b90600091808352600160205273ffffffffffffffffffffffffffffffffffffffff6040842092169182845260205260ff604084205416156000146115c6578083526001602052604083208284526020526040832060017fffffffffffffffffffffffffffffffffffffffffffffffffffffffffffffff008254161790557f2f8788117e7eff1d82e926ec794901d17c78024a50270940304540a733656f0d339380a4600190565b505090565b90600091808352600160205273ffffffffffffffffffffffffffffffffffffffff6040842092169182845260205260ff6040842054166000146115c657808352600160205260408320828452602052604083207fffffffffffffffffffffffffffffffffffffffffffffffffffffffffffffff0081541690557ff6391f5c32d9c69d2a47ea670b442974b53935d1edc7fd64eb21e047a839171b339380a460019056fea264697066735822122089774c7a7d818938474b23176b2512f17272a7358c4e4c795a237a1b38dd980d64736f6c634300081800332f8788117e7eff1d82e926ec794901d17c78024a50270940304540a733656f0d","linkReferences":{}},"methodIdentifiers":{"DEFAULT_ADMIN_ROLE()":"a217fddf","ESCROW_ADMIN_ROLE()":"6e61462a","SETTLEMENT_OPERATOR_ROLE()":"89674f9f","cancelSettlement(bytes32)":"963c68d0","createSettlement(address,address,address,address,uint256,uint256,bytes32,uint256)":"9b9c3616","executeSettlement(bytes32)":"0bda191e","getRoleAdmin(bytes32)":"248a9ca3","grantRole(bytes32,address)":"2f2ff15d","hasRole(bytes32,address)":"91d14854","renounceRole(bytes32,address)":"36568abe","revokeRole(bytes32,address)":"d547741f","settlements(bytes32)":"01bc95e2","supportsInterface(bytes4)":"01ffc9a7"},"id":31}