{"abi":[{"type":"constructor","inputs":[{"name":"_admin","type":"address","internalType":"address"}],"stateMutability":"nonpayable"},{"type":"function","name":"admin","inputs":[],"outputs":[{"name":"","type":"address","internalType":"address"}],"stateMutability":"view"},{"type":"function","name":"get","inputs":[{"name":"token","type":"address","internalType":"address"}],"outputs":[{"name":"","type":"tuple","internalType":"struct StablecoinRegistry.Meta","components":[{"name":"supported","type":"bool","internalType":"bool"},{"name":"reserveId","type":"bytes32","internalType":"bytes32"},{"name":"por","type":"address","internalType":"address"},{"name":"minReserveRatioBps","type":"uint16","internalType":"uint16"},{"name":"defaultRailKey","type":"bytes32","internalType":"bytes32"},{"name":"cctpRailKey","type":"bytes32","internalType":"bytes32"},{"name":"ccipRailKey","type":"bytes32","internalType":"bytes32"}]}],"stateMutability":"view"},{"type":"function","name":"setStablecoin","inputs":[{"name":"token","type":"address","internalType":"address"},{"name":"supported","type":"bool","internalType":"bool"},{"name":"reserveId","type":"bytes32","internalType":"bytes32"},{"name":"por","type":"address","internalType":"address"},{"name":"minReserveRatioBps","type":"uint16","internalType":"uint16"},{"name":"defaultRailKey","type":"bytes32","internalType":"bytes32"},{"name":"cctpRailKey","type":"bytes32","internalType":"bytes32"},{"name":"ccipRailKey","type":"bytes32","internalType":"bytes32"}],"outputs":[],"stateMutability":"nonpayable"},{"type":"function","name":"transferAdmin","inputs":[{"name":"to","type":"address","internalType":"address"}],"outputs":[],"stateMutability":"nonpayable"},{"type":"event","name":"AdminTransferred","inputs":[{"name":"from","type":"address","indexed":true,"internalType":"address"},{"name":"to","type":"address","indexed":true,"internalType":"address"}],"anonymous":false},{"type":"event","name":"StablecoinSet","inputs":[{"name":"token","type":"address","indexed":true,"internalType":"address"},{"name":"meta","type":"tuple","indexed":false,"internalType":"struct StablecoinRegistry.Meta","components":[{"name":"supported","type":"bool","internalType":"bool"},{"name":"reserveId","type":"bytes32","internalType":"bytes32"},{"name":"por","type":"address","internalType":"address"},{"name":"minReserveRatioBps","type":"uint16","internalType":"uint16"},{"name":"defaultRailKey","type":"bytes32","internalType":"bytes32"},{"name":"cctpRailKey","type":"bytes32","internalType":"bytes32"},{"name":"ccipRailKey","type":"bytes32","internalType":"bytes32"}]}],"anonymous":false}],"bytecode":{"object":"0x6080346100aa57601f6106e738819003918201601f19168301916001600160401b038311848410176100af578084926020946040528339810103126100aa57516001600160a01b038116908190036100aa57801561007a57600080546001600160a01b03191691909117905560405161062190816100c68239f35b60405162461bcd60e51b8152602060048201526008602482015267053435245473a20360c41b6044820152606490fd5b600080fd5b634e487b7160e01b600052604160045260246000fdfe604060808152600436101561001357600080fd5b600090813560e01c828163504c5ef0146102fe5750806375829def146101ea578063c2bc2efc146100a05763f851a4401461004d57600080fd5b3461009c57817ffffffffffffffffffffffffffffffffffffffffffffffffffffffffffffffffc36011261009c5773ffffffffffffffffffffffffffffffffffffffff60209254169051908152f35b5080fd5b503461009c5760207ffffffffffffffffffffffffffffffffffffffffffffffffffffffffffffffffc36011261009c57908160056101e6936100e061050f565b938060c06100ec61059c565b82815282602082015282858201528260608201528260808201528260a0820152015273ffffffffffffffffffffffffffffffffffffffff809516815260016020522061ffff61013961059c565b9460ff835416151586526001830154602087015260028301549081168587015260a01c16606085015260038101546080850152600481015460a0850152015460c0830152519182918291909160c08060e08301948051151584526020810151602085015273ffffffffffffffffffffffffffffffffffffffff604082015116604085015261ffff60608201511660608501526080810151608085015260a081015160a08501520151910152565b0390f35b503461009c5760207ffffffffffffffffffffffffffffffffffffffffffffffffffffffffffffffffc36011261009c5761022261050f565b82549073ffffffffffffffffffffffffffffffffffffffff80831691610249833314610537565b169283156102a1575090827fffffffffffffffffffffffff0000000000000000000000000000000000000000927ff8ccb027dfcd135e000e9d45e6cc2d662578a8825d4c45b5e32e0adf67e79ec68680a31617815580f35b606490517f08c379a000000000000000000000000000000000000000000000000000000000815260206004820152600860248201527f53435245473a20300000000000000000000000000000000000000000000000006044820152fd5b80833461050c576101007ffffffffffffffffffffffffffffffffffffffffffffffffffffffffffffffffc36011261050c5761033861050f565b90602435801515809103610507576064359173ffffffffffffffffffffffffffffffffffffffff928381168091036105035760843561ffff81168091036104ff577f62d894215fb7514da8a55c6148270c273b1ed551f3fdedee0a2a5a3be27e9fc795856005926103b06104f9988b54163314610537565b6103b861059c565b9687526020870194604435865286880190815260608801918252608088019160a435835260a089019360c4358552888160c08c019760e4358952169d8e8152600160205220978a51151560ff7fffffffffffffffffffffffffffffffffffffffffffffffffffffffffffffff008b54169116178955516001890155600288019251167fffffffffffffffffffff0000000000000000000000000000000000000000000075ffff00000000000000000000000000000000000000008454935160a01b1692161717905551600385015551600484015551910155519182918291909160c08060e08301948051151584526020810151602085015273ffffffffffffffffffffffffffffffffffffffff604082015116604085015261ffff60608201511660608501526080810151608085015260a081015160a08501520151910152565b0390a280f35b8680fd5b8580fd5b505050fd5b50fd5b6004359073ffffffffffffffffffffffffffffffffffffffff8216820361053257565b600080fd5b1561053e57565b60646040517f08c379a000000000000000000000000000000000000000000000000000000000815260206004820152601060248201527f53435245473a206e6f742061646d696e000000000000000000000000000000006044820152fd5b6040519060e0820182811067ffffffffffffffff8211176105bc57604052565b7f4e487b7100000000000000000000000000000000000000000000000000000000600052604160045260246000fdfea26469706673582212203635fc2b5f6fcaf633a12b6f339e31c08dc163b373aece83935ddab99ce35ff564736f6c63430008180033","linkReferences":{}},"methodIdentifiers":{"admin()":"f851a440","get(address)":"c2bc2efc","setStablecoin(address,bool,bytes32,address,uint16,bytes32,bytes32,bytes32)":"504c5ef0","transferAdmin(address)":"75829def"},"id":38}