{
  "_format": "hh-sol-artifact-1",
  "contractName": "ShareMaturityOracleCatalog",
  "sourceName": "contracts/oracle/ShareMaturityOracleCatalog.sol",
  "abi": [
    {
      "inputs": [
        {
          "internalType": "address",
          "name": "governor",
          "type": "address"
        }
      ],
      "stateMutability": "nonpayable",
      "type": "constructor"
    },
    {
      "inputs": [],
      "name": "AccessControlBadConfirmation",
      "type": "error"
    },
    {
      "inputs": [
        {
          "internalType": "address",
          "name": "account",
          "type": "address"
        },
        {
          "internalType": "bytes32",
          "name": "neededRole",
          "type": "bytes32"
        }
      ],
      "name": "AccessControlUnauthorizedAccount",
      "type": "error"
    },
    {
      "anonymous": false,
      "inputs": [
        {
          "indexed": true,
          "internalType": "address",
          "name": "instrument",
          "type": "address"
        }
      ],
      "name": "Cleared",
      "type": "event"
    },
    {
      "anonymous": false,
      "inputs": [
        {
          "indexed": true,
          "internalType": "address",
          "name": "instrument",
          "type": "address"
        },
        {
          "indexed": false,
          "internalType": "uint64",
          "name": "maturity",
          "type": "uint64"
        },
        {
          "indexed": false,
          "internalType": "uint128",
          "name": "weight",
          "type": "uint128"
        }
      ],
      "name": "LotPushed",
      "type": "event"
    },
    {
      "anonymous": false,
      "inputs": [
        {
          "indexed": true,
          "internalType": "address",
          "name": "instrument",
          "type": "address"
        },
        {
          "indexed": false,
          "internalType": "uint256",
          "name": "lotCount",
          "type": "uint256"
        },
        {
          "indexed": false,
          "internalType": "uint64",
          "name": "asOf",
          "type": "uint64"
        }
      ],
      "name": "LotsSet",
      "type": "event"
    },
    {
      "anonymous": false,
      "inputs": [
        {
          "indexed": true,
          "internalType": "bytes32",
          "name": "role",
          "type": "bytes32"
        },
        {
          "indexed": true,
          "internalType": "bytes32",
          "name": "previousAdminRole",
          "type": "bytes32"
        },
        {
          "indexed": true,
          "internalType": "bytes32",
          "name": "newAdminRole",
          "type": "bytes32"
        }
      ],
      "name": "RoleAdminChanged",
      "type": "event"
    },
    {
      "anonymous": false,
      "inputs": [
        {
          "indexed": true,
          "internalType": "bytes32",
          "name": "role",
          "type": "bytes32"
        },
        {
          "indexed": true,
          "internalType": "address",
          "name": "account",
          "type": "address"
        },
        {
          "indexed": true,
          "internalType": "address",
          "name": "sender",
          "type": "address"
        }
      ],
      "name": "RoleGranted",
      "type": "event"
    },
    {
      "anonymous": false,
      "inputs": [
        {
          "indexed": true,
          "internalType": "bytes32",
          "name": "role",
          "type": "bytes32"
        },
        {
          "indexed": true,
          "internalType": "address",
          "name": "account",
          "type": "address"
        },
        {
          "indexed": true,
          "internalType": "address",
          "name": "sender",
          "type": "address"
        }
      ],
      "name": "RoleRevoked",
      "type": "event"
    },
    {
      "inputs": [],
      "name": "ADMIN",
      "outputs": [
        {
          "internalType": "bytes32",
          "name": "",
          "type": "bytes32"
        }
      ],
      "stateMutability": "view",
      "type": "function"
    },
    {
      "inputs": [],
      "name": "DEFAULT_ADMIN_ROLE",
      "outputs": [
        {
          "internalType": "bytes32",
          "name": "",
          "type": "bytes32"
        }
      ],
      "stateMutability": "view",
      "type": "function"
    },
    {
      "inputs": [],
      "name": "WRITER",
      "outputs": [
        {
          "internalType": "bytes32",
          "name": "",
          "type": "bytes32"
        }
      ],
      "stateMutability": "view",
      "type": "function"
    },
    {
      "inputs": [
        {
          "internalType": "address",
          "name": "instrument",
          "type": "address"
        }
      ],
      "name": "clear",
      "outputs": [],
      "stateMutability": "nonpayable",
      "type": "function"
    },
    {
      "inputs": [
        {
          "internalType": "address",
          "name": "instrument",
          "type": "address"
        }
      ],
      "name": "daysToMaturity",
      "outputs": [
        {
          "internalType": "uint16",
          "name": "",
          "type": "uint16"
        }
      ],
      "stateMutability": "view",
      "type": "function"
    },
    {
      "inputs": [
        {
          "internalType": "bytes32",
          "name": "role",
          "type": "bytes32"
        }
      ],
      "name": "getRoleAdmin",
      "outputs": [
        {
          "internalType": "bytes32",
          "name": "",
          "type": "bytes32"
        }
      ],
      "stateMutability": "view",
      "type": "function"
    },
    {
      "inputs": [
        {
          "internalType": "bytes32",
          "name": "role",
          "type": "bytes32"
        },
        {
          "internalType": "address",
          "name": "account",
          "type": "address"
        }
      ],
      "name": "grantRole",
      "outputs": [],
      "stateMutability": "nonpayable",
      "type": "function"
    },
    {
      "inputs": [
        {
          "internalType": "bytes32",
          "name": "role",
          "type": "bytes32"
        },
        {
          "internalType": "address",
          "name": "account",
          "type": "address"
        }
      ],
      "name": "hasRole",
      "outputs": [
        {
          "internalType": "bool",
          "name": "",
          "type": "bool"
        }
      ],
      "stateMutability": "view",
      "type": "function"
    },
    {
      "inputs": [
        {
          "internalType": "address",
          "name": "instrument",
          "type": "address"
        }
      ],
      "name": "lots",
      "outputs": [
        {
          "components": [
            {
              "internalType": "uint64",
              "name": "maturity",
              "type": "uint64"
            },
            {
              "internalType": "uint128",
              "name": "weight",
              "type": "uint128"
            }
          ],
          "internalType": "struct ShareMaturityOracleCatalog.LotInfo[]",
          "name": "",
          "type": "tuple[]"
        }
      ],
      "stateMutability": "view",
      "type": "function"
    },
    {
      "inputs": [
        {
          "internalType": "address",
          "name": "instrument",
          "type": "address"
        },
        {
          "internalType": "uint64",
          "name": "maturity",
          "type": "uint64"
        },
        {
          "internalType": "uint128",
          "name": "weight",
          "type": "uint128"
        }
      ],
      "name": "pushLot",
      "outputs": [],
      "stateMutability": "nonpayable",
      "type": "function"
    },
    {
      "inputs": [
        {
          "internalType": "bytes32",
          "name": "role",
          "type": "bytes32"
        },
        {
          "internalType": "address",
          "name": "callerConfirmation",
          "type": "address"
        }
      ],
      "name": "renounceRole",
      "outputs": [],
      "stateMutability": "nonpayable",
      "type": "function"
    },
    {
      "inputs": [
        {
          "internalType": "bytes32",
          "name": "role",
          "type": "bytes32"
        },
        {
          "internalType": "address",
          "name": "account",
          "type": "address"
        }
      ],
      "name": "revokeRole",
      "outputs": [],
      "stateMutability": "nonpayable",
      "type": "function"
    },
    {
      "inputs": [
        {
          "internalType": "address",
          "name": "instrument",
          "type": "address"
        },
        {
          "components": [
            {
              "internalType": "uint64",
              "name": "maturity",
              "type": "uint64"
            },
            {
              "internalType": "uint128",
              "name": "weight",
              "type": "uint128"
            }
          ],
          "internalType": "struct ShareMaturityOracleCatalog.LotInfo[]",
          "name": "lots",
          "type": "tuple[]"
        }
      ],
      "name": "setLots",
      "outputs": [],
      "stateMutability": "nonpayable",
      "type": "function"
    },
    {
      "inputs": [
        {
          "internalType": "bytes4",
          "name": "interfaceId",
          "type": "bytes4"
        }
      ],
      "name": "supportsInterface",
      "outputs": [
        {
          "internalType": "bool",
          "name": "",
          "type": "bool"
        }
      ],
      "stateMutability": "view",
      "type": "function"
    }
  ],
  "bytecode": "0x60803461007c57601f610fe738819003918201601f19168301916001600160401b038311848410176100815780849260209460405283398101031261007c57516001600160a01b038116810361007c578061005c61006c92610097565b5061006681610115565b506101b5565b50604051610d7690816102518239f35b600080fd5b634e487b7160e01b600052604160045260246000fd5b6001600160a01b031660008181527fad3228b676f7d3cd4284a5443f17f1962b36e491b30a40b2405849e597ba5fb5602052604081205490919060ff1661011157818052816020526040822081835260205260408220600160ff198254161790553391600080516020610fc78339815191528180a4600190565b5090565b6001600160a01b031660008181527f5cbfc8ee58ca47855df7bcf648dd304ddb6b932f9b87878bdf6318d7ec7ee5b760205260408120549091907fdf8b4c520ffe197c5343c6f5aec59570151ef9a492f2c624fd45ddde6135ec429060ff166101b057808352826020526040832082845260205260408320600160ff19825416179055600080516020610fc7833981519152339380a4600190565b505090565b6001600160a01b031660008181527f1816ada9a09cf56e60ab9e1d7078ac4b20985458636fd775408bfa0bd406a6fd60205260408120549091907f73a9985316cd4cbfd13dadcaa0e6f773c85e933a0d88efbe60e4dc49da9176a09060ff166101b057808352826020526040832082845260205260408320600160ff19825416179055600080516020610fc7833981519152339380a460019056fe608060408181526004908136101561001657600080fd5b600092833560e01c90816301ffc9a7146108005750806311b00b44146107cf5780631367f44714610644578063248a9ca31461061a5780632a0acc6a146105df5780632f2ff15d146105b757806336568abe146105705780633aa38bb2146105355780633d0a4061146104795780635e788405146102815780639038801c1461016257806391d148541461011d578063a217fddf146100fe5763d547741f146100be57600080fd5b346100fa57806003193601126100fa576100f691356100f160016100e061086f565b938387528660205286200154610c25565b610cca565b5080f35b8280fd5b83823461011957816003193601126101195751908152602090f35b5080fd5b5090346100fa57816003193601126100fa578160209360ff9261013e61086f565b903582528186526001600160a01b0383832091168252855220541690519015158152f35b50913461027e5760209283600319360112610119576001600160a01b03610187610854565b168252600193600181528183209283549267ffffffffffffffff9586851161026b57509282866101bc89958460051b016108bb565b928084528284018098865283862086915b838310610223575050505085519582870193838852518094528087019794915b8483106101fa5787890388f35b8551805182168a528401516001600160801b0316898501529781019794830194918601916101ed565b90888087819d9b9594886001600160801b03999e996102449d9b9c9d610885565b91875490811683528b1c1683820152815201920192019250999799989398969594966101cd565b634e487b7160e01b835260419052602482fd5b80fd5b5091903461011957826003193601126101195761029c610854565b926024936024359467ffffffffffffffff908187116104755736602388011215610475578685013592828411610471576024880197602436918660061b010111610471576001600160a01b03906102f1610bab565b1694858752600197602090600160205261030c878a20610b3a565b885b86811061034b5789897faf02a1f7e795d5d2252a85e8a9ee13e1355e69e933b51902cc8345d55587449e8a8a8a825191825242166020820152a280f35b8561035f61035a838a86610b72565b610b82565b16151580610446575b61037190610aec565b888a528a8352878a20610385828985610b72565b908054906801000000000000000082101561043457906103a9918e82018155610b22565b919091610423578c92916103dc86838b6103c561041d96610b82565b1667ffffffffffffffff1985541617845501610b97565b77ffffffffffffffffffffffffffffffff00000000000000001977ffffffffffffffffffffffffffffffff000000000000000083549260401b169116179055565b0161030e565b634e487b7160e01b8c528b8652868cfd5b634e487b7160e01b8d5260418752878dfd5b506103716001600160801b0361046785610461858c88610b72565b01610b97565b1615159050610368565b8680fd5b8580fd5b5090346100fa5760203660031901126100fa57610494610854565b907fdf8b4c520ffe197c5343c6f5aec59570151ef9a492f2c624fd45ddde6135ec428085528460205283852033865260205260ff8486205416156105185750506001600160a01b036104f191169182845260016020528320610b3a565b7f8149fda9906b1fb15b92f20b43fb25bfb197ed66698fe3ac37ca8818112cd1048280a280f35b6044925083519163e2517d3f60e01b835233908301526024820152fd5b838234610119578160031936011261011957602090517f73a9985316cd4cbfd13dadcaa0e6f773c85e933a0d88efbe60e4dc49da9176a08152f35b5082903461011957806003193601126101195761058b61086f565b90336001600160a01b038316036105a857506100f6919235610cca565b5163334bd91960e11b81528390fd5b50346100fa57806003193601126100fa576100f691356105da60016100e061086f565b610c4b565b838234610119578160031936011261011957602090517fdf8b4c520ffe197c5343c6f5aec59570151ef9a492f2c624fd45ddde6135ec428152f35b5090346100fa5760203660031901126100fa57816020936001923581528085522001549051908152f35b5082903461011957606036600319011261011957610660610854565b9060243567ffffffffffffffff8082168092036107cb57604435906001600160801b0394858316809303610471576001600160a01b039061069f610bab565b841515806107c2575b6106b190610aec565b169485875260016020528487206106c6610885565b928584526020840191858352805490680100000000000000008210156107af57906106f691600182018155610b22565b94909461079d57518454925177ffffffffffffffffffffffffffffffff00000000000000001991909216167fffffffffffffffff00000000000000000000000000000000000000000000000090921691909117911660401b77ffffffffffffffffffffffffffffffff0000000000000000161790557fa2ad579a2c111151415d558d6b0cc19f443b912ea5b326c36f409110d5f272df92919082519182526020820152a280f35b634e487b7160e01b8a52898b5260248afd5b634e487b7160e01b8b5260418c5260248bfd5b508315156106a8565b8480fd5b8382346101195760203660031901126101195760209061ffff6107f86107f3610854565b61092e565b915191168152f35b849084346100fa5760203660031901126100fa573563ffffffff60e01b81168091036100fa5760209250637965db0b60e01b8114908115610843575b5015158152f35b6301ffc9a760e01b1490508361083c565b600435906001600160a01b038216820361086a57565b600080fd5b602435906001600160a01b038216820361086a57565b604051906040820182811067ffffffffffffffff8211176108a557604052565b634e487b7160e01b600052604160045260246000fd5b6040519190601f01601f1916820167ffffffffffffffff8111838210176108a557604052565b80518210156108f55760209160051b010190565b634e487b7160e01b600052603260045260246000fd5b9190820180921161091857565b634e487b7160e01b600052601160045260246000fd5b6001600160a01b036000911681526001602091600183526040916040822090815467ffffffffffffffff94858211610ad8579261096f878360051b016108bb565b93828552878501918652878620908487935b8a868610610aa75750505050505050815115610a9f5790818395849585945b6109cb575b505050505082156109c557500461ffff908181116109c1571690565b5090565b91505090565b90919293968451881015610a995742826109e58a886108e1565b5151161115610a8f57816109f989876108e1565b515116428103908111610a7b5762015180905b046001600160801b03978885610a228c8a6108e1565b51015116828102928184041490151715610a675785949392610a488693610a5e9361090b565b9985610a548d8b6108e1565b510151169061090b565b980194936109a0565b634e487b7160e01b88526011600452602488fd5b634e487b7160e01b87526011600452602487fd5b6201518086610a0c565b966109a5565b505091505090565b8291610ab1610885565b6001600160801b038d88549081168352871c16838201528152019301930192918590610981565b634e487b7160e01b85526041600452602485fd5b15610af357565b60405162461bcd60e51b815260206004820152600760248201526618985917db1bdd60ca1b6044820152606490fd5b80548210156108f55760005260206000200190600090565b8054906000906000815582610b4e57505050565b6000526020600020918201915b828110610b6757505050565b818155600101610b5b565b91908110156108f55760061b0190565b3567ffffffffffffffff8116810361086a5790565b356001600160801b038116810361086a5790565b3360009081527f1816ada9a09cf56e60ab9e1d7078ac4b20985458636fd775408bfa0bd406a6fd60205260409020547f73a9985316cd4cbfd13dadcaa0e6f773c85e933a0d88efbe60e4dc49da9176a09060ff1615610c075750565b6044906040519063e2517d3f60e01b82523360048301526024820152fd5b80600052600060205260406000203360005260205260ff6040600020541615610c075750565b90600091808352826020526001600160a01b036040842092169182845260205260ff60408420541615600014610cc557808352826020526040832082845260205260408320600160ff198254161790557f2f8788117e7eff1d82e926ec794901d17c78024a50270940304540a733656f0d339380a4600190565b505090565b90600091808352826020526001600160a01b036040842092169182845260205260ff604084205416600014610cc55780835282602052604083208284526020526040832060ff1981541690557ff6391f5c32d9c69d2a47ea670b442974b53935d1edc7fd64eb21e047a839171b339380a460019056fea2646970667358221220bc92b434500c088e32f3a12f919c42cc9c08abc44a63d9278c548d5df94b83a664736f6c634300081800332f8788117e7eff1d82e926ec794901d17c78024a50270940304540a733656f0d",
  "linkReferences": {},
  "deployedLinkReferences": {}
}