{"abi":[{"type":"constructor","inputs":[],"stateMutability":"nonpayable"},{"type":"function","name":"DEFAULT_ADMIN_ROLE","inputs":[],"outputs":[{"name":"","type":"bytes32","internalType":"bytes32"}],"stateMutability":"view"},{"type":"function","name":"UPGRADE_INTERFACE_VERSION","inputs":[],"outputs":[{"name":"","type":"string","internalType":"string"}],"stateMutability":"view"},{"type":"function","name":"config","inputs":[],"outputs":[{"name":"minSigners","type":"uint8","internalType":"uint8"},{"name":"maxAge","type":"uint32","internalType":"uint32"},{"name":"disputeWindow","type":"uint32","internalType":"uint32"}],"stateMutability":"view"},{"type":"function","name":"eip712Domain","inputs":[],"outputs":[{"name":"fields","type":"bytes1","internalType":"bytes1"},{"name":"name","type":"string","internalType":"string"},{"name":"version","type":"string","internalType":"string"},{"name":"chainId","type":"uint256","internalType":"uint256"},{"name":"verifyingContract","type":"address","internalType":"address"},{"name":"salt","type":"bytes32","internalType":"bytes32"},{"name":"extensions","type":"uint256[]","internalType":"uint256[]"}],"stateMutability":"view"},{"type":"function","name":"getRoleAdmin","inputs":[{"name":"role","type":"bytes32","internalType":"bytes32"}],"outputs":[{"name":"","type":"bytes32","internalType":"bytes32"}],"stateMutability":"view"},{"type":"function","name":"grantRole","inputs":[{"name":"role","type":"bytes32","internalType":"bytes32"},{"name":"account","type":"address","internalType":"address"}],"outputs":[],"stateMutability":"nonpayable"},{"type":"function","name":"hasRole","inputs":[{"name":"role","type":"bytes32","internalType":"bytes32"},{"name":"account","type":"address","internalType":"address"}],"outputs":[{"name":"","type":"bool","internalType":"bool"}],"stateMutability":"view"},{"type":"function","name":"initialize","inputs":[{"name":"governor","type":"address","internalType":"address"},{"name":"minSigners","type":"uint8","internalType":"uint8"},{"name":"maxAgeSec","type":"uint32","internalType":"uint32"}],"outputs":[],"stateMutability":"nonpayable"},{"type":"function","name":"latestBySymbol","inputs":[{"name":"","type":"bytes32","internalType":"bytes32"}],"outputs":[{"name":"symbol","type":"bytes32","internalType":"bytes32"},{"name":"pxMinor","type":"uint128","internalType":"uint128"},{"name":"asOf","type":"uint64","internalType":"uint64"},{"name":"source","type":"string","internalType":"string"},{"name":"besuGroup","type":"bytes32","internalType":"bytes32"}],"stateMutability":"view"},{"type":"function","name":"postAggregate","inputs":[{"name":"q","type":"tuple","internalType":"struct OracleCommittee.Quote","components":[{"name":"symbol","type":"bytes32","internalType":"bytes32"},{"name":"pxMinor","type":"uint128","internalType":"uint128"},{"name":"asOf","type":"uint64","internalType":"uint64"},{"name":"source","type":"string","internalType":"string"},{"name":"besuGroup","type":"bytes32","internalType":"bytes32"}]},{"name":"sigs","type":"bytes[]","internalType":"bytes[]"}],"outputs":[],"stateMutability":"nonpayable"},{"type":"function","name":"proxiableUUID","inputs":[],"outputs":[{"name":"","type":"bytes32","internalType":"bytes32"}],"stateMutability":"view"},{"type":"function","name":"renounceRole","inputs":[{"name":"role","type":"bytes32","internalType":"bytes32"},{"name":"callerConfirmation","type":"address","internalType":"address"}],"outputs":[],"stateMutability":"nonpayable"},{"type":"function","name":"revokeRole","inputs":[{"name":"role","type":"bytes32","internalType":"bytes32"},{"name":"account","type":"address","internalType":"address"}],"outputs":[],"stateMutability":"nonpayable"},{"type":"function","name":"setConfig","inputs":[{"name":"cfg","type":"tuple","internalType":"struct OracleCommittee.Config","components":[{"name":"minSigners","type":"uint8","internalType":"uint8"},{"name":"maxAge","type":"uint32","internalType":"uint32"},{"name":"disputeWindow","type":"uint32","internalType":"uint32"}]}],"outputs":[],"stateMutability":"nonpayable"},{"type":"function","name":"setSigner","inputs":[{"name":"who","type":"address","internalType":"address"},{"name":"allowed","type":"bool","internalType":"bool"}],"outputs":[],"stateMutability":"nonpayable"},{"type":"function","name":"signers","inputs":[{"name":"","type":"address","internalType":"address"}],"outputs":[{"name":"","type":"bool","internalType":"bool"}],"stateMutability":"view"},{"type":"function","name":"supportsInterface","inputs":[{"name":"interfaceId","type":"bytes4","internalType":"bytes4"}],"outputs":[{"name":"","type":"bool","internalType":"bool"}],"stateMutability":"view"},{"type":"function","name":"upgradeToAndCall","inputs":[{"name":"newImplementation","type":"address","internalType":"address"},{"name":"data","type":"bytes","internalType":"bytes"}],"outputs":[],"stateMutability":"payable"},{"type":"event","name":"ConfigSet","inputs":[{"name":"cfg","type":"tuple","indexed":false,"internalType":"struct OracleCommittee.Config","components":[{"name":"minSigners","type":"uint8","internalType":"uint8"},{"name":"maxAge","type":"uint32","internalType":"uint32"},{"name":"disputeWindow","type":"uint32","internalType":"uint32"}]}],"anonymous":false},{"type":"event","name":"EIP712DomainChanged","inputs":[],"anonymous":false},{"type":"event","name":"Initialized","inputs":[{"name":"version","type":"uint64","indexed":false,"internalType":"uint64"}],"anonymous":false},{"type":"event","name":"QuotePosted","inputs":[{"name":"symbol","type":"bytes32","indexed":true,"internalType":"bytes32"},{"name":"pxMinor","type":"uint128","indexed":false,"internalType":"uint128"},{"name":"asOf","type":"uint64","indexed":false,"internalType":"uint64"},{"name":"source","type":"string","indexed":false,"internalType":"string"},{"name":"uniqueSigners","type":"uint8","indexed":false,"internalType":"uint8"}],"anonymous":false},{"type":"event","name":"RoleAdminChanged","inputs":[{"name":"role","type":"bytes32","indexed":true,"internalType":"bytes32"},{"name":"previousAdminRole","type":"bytes32","indexed":true,"internalType":"bytes32"},{"name":"newAdminRole","type":"bytes32","indexed":true,"internalType":"bytes32"}],"anonymous":false},{"type":"event","name":"RoleGranted","inputs":[{"name":"role","type":"bytes32","indexed":true,"internalType":"bytes32"},{"name":"account","type":"address","indexed":true,"internalType":"address"},{"name":"sender","type":"address","indexed":true,"internalType":"address"}],"anonymous":false},{"type":"event","name":"RoleRevoked","inputs":[{"name":"role","type":"bytes32","indexed":true,"internalType":"bytes32"},{"name":"account","type":"address","indexed":true,"internalType":"address"},{"name":"sender","type":"address","indexed":true,"internalType":"address"}],"anonymous":false},{"type":"event","name":"SignerSet","inputs":[{"name":"who","type":"address","indexed":true,"internalType":"address"},{"name":"allowed","type":"bool","indexed":false,"internalType":"bool"}],"anonymous":false},{"type":"event","name":"Upgraded","inputs":[{"name":"implementation","type":"address","indexed":true,"internalType":"address"}],"anonymous":false},{"type":"error","name":"AccessControlBadConfirmation","inputs":[]},{"type":"error","name":"AccessControlUnauthorizedAccount","inputs":[{"name":"account","type":"address","internalType":"address"},{"name":"neededRole","type":"bytes32","internalType":"bytes32"}]},{"type":"error","name":"AddressEmptyCode","inputs":[{"name":"target","type":"address","internalType":"address"}]},{"type":"error","name":"ECDSAInvalidSignature","inputs":[]},{"type":"error","name":"ECDSAInvalidSignatureLength","inputs":[{"name":"length","type":"uint256","internalType":"uint256"}]},{"type":"error","name":"ECDSAInvalidSignatureS","inputs":[{"name":"s","type":"bytes32","internalType":"bytes32"}]},{"type":"error","name":"ERC1967InvalidImplementation","inputs":[{"name":"implementation","type":"address","internalType":"address"}]},{"type":"error","name":"ERC1967NonPayable","inputs":[]},{"type":"error","name":"FailedInnerCall","inputs":[]},{"type":"error","name":"InvalidInitialization","inputs":[]},{"type":"error","name":"NotInitializing","inputs":[]},{"type":"error","name":"UUPSUnauthorizedCallContext","inputs":[]},{"type":"error","name":"UUPSUnsupportedProxiableUUID","inputs":[{"name":"slot","type":"bytes32","internalType":"bytes32"}]}],"bytecode":{"object":"0x60a080604052346100cd57306080527ff0c57e16840df040f15088dc2f81fe391c3923bec73e23a9662efc9c229c6a009081549060ff8260401c166100be57506001600160401b036002600160401b031982821601610079575b604051612d969081620000d3823960805181818161110c01526112020152f35b6001600160401b031990911681179091556040519081527fc7f505b2f371ae2175ee4913f4499e1f2633a7b5936321eed1cdaeb6115181d290602090a1388080610059565b63f92ee8a960e01b8152600490fd5b600080fdfe608080604052600436101561001357600080fd5b60003560e01c90816301ffc9a71461204357508063248a9ca314611fd75780632f2ff15d14611f5b57806331cb610514611e9257806336568abe14611e08578063443198db146114f85780634f1ef2861461118657806352d1902d146110c65780636ce6175814610f68578063736c0d5b14610efe57806379502c5514610ea557806384b0196e14610ced57806391d1485414610c55578063a217fddf14610c1b578063a7d6331c14610a3a578063ad3cb1cc146109ba578063d547741f1461093c5763f1230166146100e557600080fd5b34610937577ffffffffffffffffffffffffffffffffffffffffffffffffffffffffffffffffc6040813601126109375767ffffffffffffffff600435116109375760a090600435360301126109375767ffffffffffffffff60243511610937573660236024350112156109375767ffffffffffffffff60243560040135116109375736602480356004013560051b81350101116109375767ffffffffffffffff6101936044600435016124dc565b1642101580610902575b156108a45760006101b3602435600401356124a1565b6101c06040519182612174565b600460243501358082527fffffffffffffffffffffffffffffffffffffffffffffffffffffffffffffffe0906101f5906124a1565b0136602083013761020a6024600435016124f1565b6102186044600435016124dc565b67ffffffffffffffff61023f61023860646004350160043560040161250e565b36916121ef565b60208151910120916fffffffffffffffffffffffffffffffff604051947f52d4224f66249db4a72490a34267b0ac81625c373eca30a94f059cb6e6884ba8602087015260043560040135604087015216606085015216608083015260a08201526084600435013560c082015260c081528060e081011067ffffffffffffffff60e0830111176106f65760e08101604052602081519101206102de612cb1565b906102e7612d1b565b604051927f8b73c3c69bb8fe3d512ecc4cf759cc79239f7b179b0ffacaa9a75d522b39400f6020850152604084015260608301524660808301523060a083015260a082528160c081011067ffffffffffffffff60c0840111176106f65760c082016040819052825160208401207f1901000000000000000000000000000000000000000000000000000000000000825260c284015260e2909201526042902060005b602435600401358110610783578360ff600054168110610725576004356004013560005260026020526040600020600435600401358155600181016fffffffffffffffffffffffffffffffff6103e36024600435016124f1565b168154907fffffffffffffffff00000000000000000000000000000000000000000000000077ffffffffffffffff0000000000000000000000000000000061042f6044600435016124dc565b60801b1692161717905561044d60646004350160043560040161250e565b9067ffffffffffffffff82116106f65761046a6002840154612226565b601f81116106af575b50600090601f83116001146105b9578267ffffffffffffffff95937f928d43ac09817649a357cb4bf7dc864d3ae543ad441d32e53879c1dd6361331a95936104ef936000926105ae575b50507fffffffffffffffffffffffffffffffffffffffffffffffffffffffffffffffff8260011b9260031b1c19161790565b60028201555b60036084600435013591015560ff6105116024600435016124f1565b916105206044600435016124dc565b61053460646004350160043560040161250e565b9687926fffffffffffffffffffffffffffffffff604051971687521660208601526080604086015281608086015260a0850137600060a0868501015216606082015260a0817fffffffffffffffffffffffffffffffffffffffffffffffffffffffffffffffe0601f600435600401359601168101030190a2005b0135905087806104bd565b6002840160005260206000209160005b7fffffffffffffffffffffffffffffffffffffffffffffffffffffffffffffffe0851681106106975750927f928d43ac09817649a357cb4bf7dc864d3ae543ad441d32e53879c1dd6361331a949260019267ffffffffffffffff9795837fffffffffffffffffffffffffffffffffffffffffffffffffffffffffffffffe081161061065f575b505050811b0160028201556104f5565b7fffffffffffffffffffffffffffffffffffffffffffffffffffffffffffffffff60f88560031b161c1991013516905586808061064f565b909260206001819286860135815501940191016105c9565b600284016000526020600020601f840160051c8101602085106106ef575b601f830160051c820181106106e3575050610473565b600081556001016106cd565b50806106cd565b7f4e487b7100000000000000000000000000000000000000000000000000000000600052604160045260246000fd5b60646040517f08c379a000000000000000000000000000000000000000000000000000000000815260206004820152600e60248201527f71756f72756d5f6e6f745f6d65740000000000000000000000000000000000006044820152fd5b806107aa6107a461023860246107b39560051b81350101602480350161250e565b84612a51565b90939193612a8d565b73ffffffffffffffffffffffffffffffffffffffff809216806000526001928360205260ff6040600020541615610899576000908460005b898110610872575b50505061086857857fffffffffffffffffffffffffffffffffffffffffffffffffffffffffffffffff8114610839576001936108319101968661255f565b525b01610389565b7f4e487b7100000000000000000000000000000000000000000000000000000000600052601160045260246000fd5b5060019150610833565b848361087e838c61255f565b51161461088d570185906107eb565b509150503884816107f3565b505060019150610833565b60646040517f08c379a000000000000000000000000000000000000000000000000000000000815260206004820152600b60248201527f7374616c655f71756f74650000000000000000000000000000000000000000006044820152fd5b5067ffffffffffffffff61091a6044600435016124dc565b1642034281116108395763ffffffff60005460081c16101561019d565b600080fd5b346109375760407ffffffffffffffffffffffffffffffffffffffffffffffffffffffffffffffffc360112610937576109b86004356109796120ff565b90806000527f02dd7bc7dec4dceedda775e58dd541e08a116c6c53815c0bd028192f7b6268006020526109b3600160406000200154612635565b612937565b005b346109375760007ffffffffffffffffffffffffffffffffffffffffffffffffffffffffffffffffc36011261093757610a366040516109f881612158565b600581527f352e302e300000000000000000000000000000000000000000000000000000006020820152604051918291602083526020830190612443565b0390f35b346109375760607ffffffffffffffffffffffffffffffffffffffffffffffffffffffffffffffffc36011261093757610a716125a2565b600160ff610a7d6124b9565b16101580610c05575b15610ba75760ff610a956124b9565b167fffffffffffffffffffffffffffffffffffffffffffffffffffffffffffffff006000541617600055610b01610aca6124c9565b7fffffffffffffffffffffffffffffffffffffffffffffffffffffff00000000ff64ffffffff006000549260081b16911617600055565b63ffffffff6044358181168103610937577fffffffffffffffffffffffffffffffffffffffffffffff00000000ffffffffff68ffffffff00000000006000549260281b1691161760005560405160043560ff811680910361093757815260243590828216809203610937577fb8512747218507dfe928cf98e24f63f9df1a15c6b46f3853d3aea42c8e6f9c6a926060926020830152610b9e612145565b166040820152a1005b60646040517f08c379a000000000000000000000000000000000000000000000000000000000815260206004820152600760248201527f6261645f636667000000000000000000000000000000000000000000000000006044820152fd5b5063ffffffff610c136124c9565b161515610a86565b346109375760007ffffffffffffffffffffffffffffffffffffffffffffffffffffffffffffffffc36011261093757602060405160008152f35b346109375760407ffffffffffffffffffffffffffffffffffffffffffffffffffffffffffffffffc36011261093757610c8c6120ff565b6004356000527f02dd7bc7dec4dceedda775e58dd541e08a116c6c53815c0bd028192f7b62680060205273ffffffffffffffffffffffffffffffffffffffff60406000209116600052602052602060ff604060002054166040519015158152f35b346109375760007ffffffffffffffffffffffffffffffffffffffffffffffffffffffffffffffffc360112610937577fa16a46d94261c7517cc8ff89f61c0ce93598e3c849801011dee649a6a557d100541580610e7c575b15610e1e57610d52612279565b610d5a612382565b60405160208082019282841067ffffffffffffffff8511176106f657916020610dd18594610dc39796604052600084526040519788977f0f00000000000000000000000000000000000000000000000000000000000000895260e0858a015260e0890190612443565b908782036040890152612443565b91466060870152306080870152600060a087015285830360c0870152519182815201929160005b828110610e0757505050500390f35b835185528695509381019392810192600101610df8565b60646040517f08c379a000000000000000000000000000000000000000000000000000000000815260206004820152601560248201527f4549503731323a20556e696e697469616c697a656400000000000000000000006044820152fd5b507fa16a46d94261c7517cc8ff89f61c0ce93598e3c849801011dee649a6a557d1015415610d45565b346109375760007ffffffffffffffffffffffffffffffffffffffffffffffffffffffffffffffffc36011261093757606060005463ffffffff6040519160ff81168352818160081c16602084015260281c166040820152f35b346109375760207ffffffffffffffffffffffffffffffffffffffffffffffffffffffffffffffffc3601126109375773ffffffffffffffffffffffffffffffffffffffff610f4a612122565b166000526001602052602060ff604060002054166040519015158152f35b34610937576020807ffffffffffffffffffffffffffffffffffffffffffffffffffffffffffffffffc36011261093757600435600052600281526040600020805460019160018101549060028101906040519186600096825492610fcb84612226565b80875293600181169081156110865750600114611049575b5050858561103f8667ffffffffffffffff600388611003848f0385612174565b01549360405196879687526fffffffffffffffffffffffffffffffff82169087015260801c16604085015260a0606085015260a0840190612443565b9060808301520390f35b600090815282812092985092915b8284106110735750505082019094019360038661100384610fe3565b80548685018a0152928801928101611057565b7fffffffffffffffffffffffffffffffffffffffffffffffffffffffffffffff00168488015250505090151560051b830101945060038661100384610fe3565b346109375760007ffffffffffffffffffffffffffffffffffffffffffffffffffffffffffffffffc3601126109375773ffffffffffffffffffffffffffffffffffffffff7f000000000000000000000000000000000000000000000000000000000000000016300361115c5760206040517f360894a13ba1a3210667c828492db98dca3e2076cc3735a920a3ca505d382bbc8152f35b60046040517fe07c8dba000000000000000000000000000000000000000000000000000000008152fd5b60407ffffffffffffffffffffffffffffffffffffffffffffffffffffffffffffffffc360112610937576111b8612122565b602490813567ffffffffffffffff81116109375736602382011215610937576111ea90369084816004013591016121ef565b73ffffffffffffffffffffffffffffffffffffffff807f0000000000000000000000000000000000000000000000000000000000000000168030149081156114ca575b5061115c573360009081527f9469a29198efc966024e165efb801c8f2366b78a1c73841aee561d08e7eaddce60209081526040909120549091907fa615a8afb6fffcb8c6809ac0997b5c9c12b8cc97651150f14c8f6203168cff4c9060ff161561149457508316926040517f52d1902d0000000000000000000000000000000000000000000000000000000081528281600481885afa60009181611465575b50611301578585604051907f4c9c8ce30000000000000000000000000000000000000000000000000000000082526004820152fd5b8490867f360894a13ba1a3210667c828492db98dca3e2076cc3735a920a3ca505d382bbc918281036114375750833b156114085750817fffffffffffffffffffffffff0000000000000000000000000000000000000000825416179055604051907fbc7cd75a20ee27fd9adebab32041f755214dbc6bffa90cc0225b39da2e5c2d3b600080a28351156113d5575060008084846109b896519101845af4903d156113cc573d6113af816121b5565b906113bd6040519283612174565b8152600081943d92013e612c11565b60609250612c11565b92505050346113e057005b807fb398979f0000000000000000000000000000000000000000000000000000000060049252fd5b82604051907f4c9c8ce30000000000000000000000000000000000000000000000000000000082526004820152fd5b604051907faa1d49a40000000000000000000000000000000000000000000000000000000082526004820152fd5b9091508381813d831161148d575b61147d8183612174565b81010312610937575190876112cc565b503d611473565b85604491604051917fe2517d3f000000000000000000000000000000000000000000000000000000008352336004840152820152fd5b9050817f360894a13ba1a3210667c828492db98dca3e2076cc3735a920a3ca505d382bbc541614158561122d565b346109375760607ffffffffffffffffffffffffffffffffffffffffffffffffffffffffffffffffc3601126109375761152f612122565b6024359060ff8216820361093757611545612145565b7ff0c57e16840df040f15088dc2f81fe391c3923bec73e23a9662efc9c229c6a00549167ffffffffffffffff831680159081611df8575b6001149081611dee575b159081611de5575b50611dbb5760017fffffffffffffffffffffffffffffffffffffffffffffffff00000000000000008416177ff0c57e16840df040f15088dc2f81fe391c3923bec73e23a9662efc9c229c6a005560ff8360401c1615611d66575b6115f06129f8565b6115f86129f8565b60405161160481612158565b600f81527f4f7261636c65436f6d6d6974746565000000000000000000000000000000000060208201526040519061163b82612158565b600182527f3100000000000000000000000000000000000000000000000000000000000000602083015261166d6129f8565b6116756129f8565b80519067ffffffffffffffff82116106f6576116b17fa16a46d94261c7517cc8ff89f61c0ce93598e3c849801011dee649a6a557d10254612226565b601f8111611ca8575b50602090601f8311600114611b86576117089291600091836119b95750507fffffffffffffffffffffffffffffffffffffffffffffffffffffffffffffffff8260011b9260031b1c19161790565b7fa16a46d94261c7517cc8ff89f61c0ce93598e3c849801011dee649a6a557d102555b80519067ffffffffffffffff82116106f6576117677fa16a46d94261c7517cc8ff89f61c0ce93598e3c849801011dee649a6a557d10354612226565b601f8111611ac8575b50602090601f83116001146119c45791806117c39261183d95946000926119b95750507fffffffffffffffffffffffffffffffffffffffffffffffffffffffffffffffff8260011b9260031b1c19161790565b7fa16a46d94261c7517cc8ff89f61c0ce93598e3c849801011dee649a6a557d103555b60007fa16a46d94261c7517cc8ff89f61c0ce93598e3c849801011dee649a6a557d1005560007fa16a46d94261c7517cc8ff89f61c0ce93598e3c849801011dee649a6a557d101556118378161267a565b50612779565b5060405190606082019082821067ffffffffffffffff8311176106f657604091825260ff94851680845263ffffffff828116602086015260009390940183905282547fffffffffffffffffffffffffffffffffffffffffffffffffffffff0000000000161760089190911b64ffffffff00161790557fb8512747218507dfe928cf98e24f63f9df1a15c6b46f3853d3aea42c8e6f9c6a90606090600054907fffffffffffffffffffffffffffffffffffffffffffffff00000000ffffffffff821660005560405191868116835260081c16602082015260006040820152a160401c161561192657005b7fffffffffffffffffffffffffffffffffffffffffffffff00ffffffffffffffff7ff0c57e16840df040f15088dc2f81fe391c3923bec73e23a9662efc9c229c6a0054167ff0c57e16840df040f15088dc2f81fe391c3923bec73e23a9662efc9c229c6a00557fc7f505b2f371ae2175ee4913f4499e1f2633a7b5936321eed1cdaeb6115181d2602060405160018152a1005b0151905088806104bd565b907fffffffffffffffffffffffffffffffffffffffffffffffffffffffffffffffe08316917fa16a46d94261c7517cc8ff89f61c0ce93598e3c849801011dee649a6a557d1036000527f5f9ce34815f8e11431c7bb75a8e6886a91478f7ffc1dbb0a98dc240fddd76b759260005b818110611ab0575091600193918561183d97969410611a79575b505050811b017fa16a46d94261c7517cc8ff89f61c0ce93598e3c849801011dee649a6a557d103556117e6565b01517fffffffffffffffffffffffffffffffffffffffffffffffffffffffffffffffff60f88460031b161c19169055878080611a4c565b92936020600181928786015181550195019301611a32565b7fa16a46d94261c7517cc8ff89f61c0ce93598e3c849801011dee649a6a557d103600052601f830160051c7f5f9ce34815f8e11431c7bb75a8e6886a91478f7ffc1dbb0a98dc240fddd76b750160208410611b5f575b601f820160051c7f5f9ce34815f8e11431c7bb75a8e6886a91478f7ffc1dbb0a98dc240fddd76b75018110611b535750611770565b60008155600101611b1e565b507f5f9ce34815f8e11431c7bb75a8e6886a91478f7ffc1dbb0a98dc240fddd76b75611b1e565b91907fa16a46d94261c7517cc8ff89f61c0ce93598e3c849801011dee649a6a557d1026000527f42ad5d3e1f2e6e70edcf6d991b8a3023d3fca8047a131592f9edb9fd9b89d57d906000935b7fffffffffffffffffffffffffffffffffffffffffffffffffffffffffffffffe084168510611c8d5760019450837fffffffffffffffffffffffffffffffffffffffffffffffffffffffffffffffe0811610611c56575b505050811b017fa16a46d94261c7517cc8ff89f61c0ce93598e3c849801011dee649a6a557d1025561172b565b01517fffffffffffffffffffffffffffffffffffffffffffffffffffffffffffffffff60f88460031b161c19169055878080611c29565b81810151835560209485019460019093019290910190611bd2565b7fa16a46d94261c7517cc8ff89f61c0ce93598e3c849801011dee649a6a557d102600052601f830160051c7f42ad5d3e1f2e6e70edcf6d991b8a3023d3fca8047a131592f9edb9fd9b89d57d0160208410611d3f575b601f820160051c7f42ad5d3e1f2e6e70edcf6d991b8a3023d3fca8047a131592f9edb9fd9b89d57d018110611d3357506116ba565b60008155600101611cfe565b507f42ad5d3e1f2e6e70edcf6d991b8a3023d3fca8047a131592f9edb9fd9b89d57d611cfe565b680100000000000000017fffffffffffffffffffffffffffffffffffffffffffffff0000000000000000008416177ff0c57e16840df040f15088dc2f81fe391c3923bec73e23a9662efc9c229c6a00556115e8565b60046040517ff92ee8a9000000000000000000000000000000000000000000000000000000008152fd5b9050158561158e565b303b159150611586565b604085901c60ff1615915061157c565b346109375760407ffffffffffffffffffffffffffffffffffffffffffffffffffffffffffffffffc36011261093757611e3f6120ff565b3373ffffffffffffffffffffffffffffffffffffffff821603611e68576109b890600435612937565b60046040517f6697b232000000000000000000000000000000000000000000000000000000008152fd5b346109375760407ffffffffffffffffffffffffffffffffffffffffffffffffffffffffffffffffc36011261093757611ec9612122565b6024359081151580920361093757602073ffffffffffffffffffffffffffffffffffffffff7ffc4acb499491cd850a8a21ab98c7f128850c0f0e5f1a875a62b7fa055c2ecf1992611f186125a2565b1692836000526001825260406000207fffffffffffffffffffffffffffffffffffffffffffffffffffffffffffffff0081541660ff8316179055604051908152a2005b346109375760407ffffffffffffffffffffffffffffffffffffffffffffffffffffffffffffffffc360112610937576109b8600435611f986120ff565b90806000527f02dd7bc7dec4dceedda775e58dd541e08a116c6c53815c0bd028192f7b626800602052611fd2600160406000200154612635565b612872565b346109375760207ffffffffffffffffffffffffffffffffffffffffffffffffffffffffffffffffc360112610937576004356000527f02dd7bc7dec4dceedda775e58dd541e08a116c6c53815c0bd028192f7b6268006020526020600160406000200154604051908152f35b346109375760207ffffffffffffffffffffffffffffffffffffffffffffffffffffffffffffffffc36011261093757600435907fffffffff00000000000000000000000000000000000000000000000000000000821680920361093757817f7965db0b00000000000000000000000000000000000000000000000000000000602093149081156120d5575b5015158152f35b7f01ffc9a700000000000000000000000000000000000000000000000000000000915014836120ce565b6024359073ffffffffffffffffffffffffffffffffffffffff8216820361093757565b6004359073ffffffffffffffffffffffffffffffffffffffff8216820361093757565b6044359063ffffffff8216820361093757565b6040810190811067ffffffffffffffff8211176106f657604052565b90601f7fffffffffffffffffffffffffffffffffffffffffffffffffffffffffffffffe0910116810190811067ffffffffffffffff8211176106f657604052565b67ffffffffffffffff81116106f657601f017fffffffffffffffffffffffffffffffffffffffffffffffffffffffffffffffe01660200190565b9291926121fb826121b5565b916122096040519384612174565b829481845281830111610937578281602093846000960137010152565b90600182811c9216801561226f575b602083101461224057565b7f4e487b7100000000000000000000000000000000000000000000000000000000600052602260045260246000fd5b91607f1691612235565b604051906000827fa16a46d94261c7517cc8ff89f61c0ce93598e3c849801011dee649a6a557d102918254926122ae84612226565b8084529360209160019182811690811561233d57506001146122dc575b5050506122da92500383612174565b565b60009081527f42ad5d3e1f2e6e70edcf6d991b8a3023d3fca8047a131592f9edb9fd9b89d57d9590935091905b82841061232557506122da9450505081016020013880806122cb565b85548885018301529485019487945092810192612309565b915050602093506122da9592507fffffffffffffffffffffffffffffffffffffffffffffffffffffffffffffff0091501682840152151560051b8201013880806122cb565b604051906000827fa16a46d94261c7517cc8ff89f61c0ce93598e3c849801011dee649a6a557d103918254926123b784612226565b8084529360209160019182811690811561233d57506001146123e2575050506122da92500383612174565b60009081527f5f9ce34815f8e11431c7bb75a8e6886a91478f7ffc1dbb0a98dc240fddd76b759590935091905b82841061242b57506122da9450505081016020013880806122cb565b8554888501830152948501948794509281019261240f565b919082519283825260005b84811061248d5750507fffffffffffffffffffffffffffffffffffffffffffffffffffffffffffffffe0601f8460006020809697860101520116010190565b60208183018101518483018201520161244e565b67ffffffffffffffff81116106f65760051b60200190565b60043560ff811681036109375790565b60243563ffffffff811681036109375790565b3567ffffffffffffffff811681036109375790565b356fffffffffffffffffffffffffffffffff811681036109375790565b9035907fffffffffffffffffffffffffffffffffffffffffffffffffffffffffffffffe181360301821215610937570180359067ffffffffffffffff82116109375760200191813603831361093757565b80518210156125735760209160051b010190565b7f4e487b7100000000000000000000000000000000000000000000000000000000600052603260045260246000fd5b3360009081527f852acfdbd338e0da117a74b68467ee9617605c8469f7ce48961a1a5229d6e83860205260409020547f1a6838efa4183e08fe3607359d1259272af9d4716f65e1a7b5921f78fd5a3c6a9060ff16156125fe5750565b604490604051907fe2517d3f0000000000000000000000000000000000000000000000000000000082523360048301526024820152fd5b806000527f02dd7bc7dec4dceedda775e58dd541e08a116c6c53815c0bd028192f7b62680060205260406000203360005260205260ff60406000205416156125fe5750565b73ffffffffffffffffffffffffffffffffffffffff1660008181527f852acfdbd338e0da117a74b68467ee9617605c8469f7ce48961a1a5229d6e83860205260408120549091907f1a6838efa4183e08fe3607359d1259272af9d4716f65e1a7b5921f78fd5a3c6a907f02dd7bc7dec4dceedda775e58dd541e08a116c6c53815c0bd028192f7b6268009060ff1661277357818452602052604083208284526020526040832060017fffffffffffffffffffffffffffffffffffffffffffffffffffffffffffffff008254161790557f2f8788117e7eff1d82e926ec794901d17c78024a50270940304540a733656f0d339380a4600190565b50505090565b73ffffffffffffffffffffffffffffffffffffffff1660008181527f9469a29198efc966024e165efb801c8f2366b78a1c73841aee561d08e7eaddce60205260408120549091907fa615a8afb6fffcb8c6809ac0997b5c9c12b8cc97651150f14c8f6203168cff4c907f02dd7bc7dec4dceedda775e58dd541e08a116c6c53815c0bd028192f7b6268009060ff1661277357818452602052604083208284526020526040832060017fffffffffffffffffffffffffffffffffffffffffffffffffffffffffffffff008254161790557f2f8788117e7eff1d82e926ec794901d17c78024a50270940304540a733656f0d339380a4600190565b906000918083527f02dd7bc7dec4dceedda775e58dd541e08a116c6c53815c0bd028192f7b6268008060205273ffffffffffffffffffffffffffffffffffffffff6040852093169283855260205260ff6040852054161560001461277357818452602052604083208284526020526040832060017fffffffffffffffffffffffffffffffffffffffffffffffffffffffffffffff008254161790557f2f8788117e7eff1d82e926ec794901d17c78024a50270940304540a733656f0d339380a4600190565b906000918083527f02dd7bc7dec4dceedda775e58dd541e08a116c6c53815c0bd028192f7b6268008060205273ffffffffffffffffffffffffffffffffffffffff6040852093169283855260205260ff6040852054166000146127735781845260205260408320828452602052604083207fffffffffffffffffffffffffffffffffffffffffffffffffffffffffffffff0081541690557ff6391f5c32d9c69d2a47ea670b442974b53935d1edc7fd64eb21e047a839171b339380a4600190565b60ff7ff0c57e16840df040f15088dc2f81fe391c3923bec73e23a9662efc9c229c6a005460401c1615612a2757565b60046040517fd7e6bcf8000000000000000000000000000000000000000000000000000000008152fd5b8151919060418303612a8257612a7b92506020820151906060604084015193015160001a90612b74565b9192909190565b505060009160029190565b6004811015612b455780612a9f575050565b60018103612ad15760046040517ff645eedf000000000000000000000000000000000000000000000000000000008152fd5b60028103612b0a57602482604051907ffce698f70000000000000000000000000000000000000000000000000000000082526004820152fd5b600314612b145750565b602490604051907fd78bce0c0000000000000000000000000000000000000000000000000000000082526004820152fd5b7f4e487b7100000000000000000000000000000000000000000000000000000000600052602160045260246000fd5b91907f7fffffffffffffffffffffffffffffff5d576e7357a4501ddfe92f46681b20a08411612c0557926020929160ff608095604051948552168484015260408301526060820152600092839182805260015afa15612bf957805173ffffffffffffffffffffffffffffffffffffffff811615612bf057918190565b50809160019190565b604051903d90823e3d90fd5b50505060009160039190565b90612c505750805115612c2657805190602001fd5b60046040517f1425ea42000000000000000000000000000000000000000000000000000000008152fd5b81511580612ca8575b612c61575090565b60249073ffffffffffffffffffffffffffffffffffffffff604051917f9996b315000000000000000000000000000000000000000000000000000000008352166004820152fd5b50803b15612c59565b612cb9612279565b8051908115612cc9576020012090565b50507fa16a46d94261c7517cc8ff89f61c0ce93598e3c849801011dee649a6a557d100548015612cf65790565b507fc5d2460186f7233c927e7db2dcc703c0e500b653ca82273b7bfad8045d85a47090565b612d23612382565b8051908115612d33576020012090565b50507fa16a46d94261c7517cc8ff89f61c0ce93598e3c849801011dee649a6a557d101548015612cf6579056fea26469706673582212203b860302c083b877d680f8f336417c7ce99d995e29291d58576e602d59eb7d6764736f6c63430008180033","linkReferences":{}},"methodIdentifiers":{"DEFAULT_ADMIN_ROLE()":"a217fddf","UPGRADE_INTERFACE_VERSION()":"ad3cb1cc","config()":"79502c55","eip712Domain()":"84b0196e","getRoleAdmin(bytes32)":"248a9ca3","grantRole(bytes32,address)":"2f2ff15d","hasRole(bytes32,address)":"91d14854","initialize(address,uint8,uint32)":"443198db","latestBySymbol(bytes32)":"6ce61758","postAggregate((bytes32,uint128,uint64,string,bytes32),bytes[])":"f1230166","proxiableUUID()":"52d1902d","renounceRole(bytes32,address)":"36568abe","revokeRole(bytes32,address)":"d547741f","setConfig((uint8,uint32,uint32))":"a7d6331c","setSigner(address,bool)":"31cb6105","signers(address)":"736c0d5b","supportsInterface(bytes4)":"01ffc9a7","upgradeToAndCall(address,bytes)":"4f1ef286"},"id":58}