{
  "_format": "hh-sol-artifact-1",
  "contractName": "PolicyCircuitBreaker",
  "sourceName": "contracts/ops/PolicyCircuitBreaker.sol",
  "abi": [
    {
      "inputs": [],
      "stateMutability": "nonpayable",
      "type": "constructor"
    },
    {
      "inputs": [],
      "name": "AccessControlBadConfirmation",
      "type": "error"
    },
    {
      "inputs": [
        {
          "internalType": "address",
          "name": "account",
          "type": "address"
        },
        {
          "internalType": "bytes32",
          "name": "neededRole",
          "type": "bytes32"
        }
      ],
      "name": "AccessControlUnauthorizedAccount",
      "type": "error"
    },
    {
      "inputs": [],
      "name": "EnforcedPause",
      "type": "error"
    },
    {
      "inputs": [],
      "name": "ExpectedPause",
      "type": "error"
    },
    {
      "inputs": [],
      "name": "ReentrancyGuardReentrantCall",
      "type": "error"
    },
    {
      "anonymous": false,
      "inputs": [
        {
          "indexed": true,
          "internalType": "bytes32",
          "name": "id",
          "type": "bytes32"
        },
        {
          "indexed": false,
          "internalType": "string",
          "name": "name",
          "type": "string"
        },
        {
          "indexed": false,
          "internalType": "enum PolicyCircuitBreaker.TriggerType",
          "name": "triggerType",
          "type": "uint8"
        }
      ],
      "name": "CircuitBreakerCreated",
      "type": "event"
    },
    {
      "anonymous": false,
      "inputs": [
        {
          "indexed": true,
          "internalType": "bytes32",
          "name": "id",
          "type": "bytes32"
        },
        {
          "indexed": false,
          "internalType": "address",
          "name": "resetBy",
          "type": "address"
        }
      ],
      "name": "CircuitBreakerReset",
      "type": "event"
    },
    {
      "anonymous": false,
      "inputs": [
        {
          "indexed": true,
          "internalType": "bytes32",
          "name": "id",
          "type": "bytes32"
        },
        {
          "indexed": false,
          "internalType": "string",
          "name": "reason",
          "type": "string"
        },
        {
          "indexed": false,
          "internalType": "address",
          "name": "triggeredBy",
          "type": "address"
        }
      ],
      "name": "CircuitBreakerTriggered",
      "type": "event"
    },
    {
      "anonymous": false,
      "inputs": [
        {
          "indexed": true,
          "internalType": "bytes32",
          "name": "id",
          "type": "bytes32"
        },
        {
          "indexed": false,
          "internalType": "uint256",
          "name": "threshold",
          "type": "uint256"
        },
        {
          "indexed": false,
          "internalType": "uint256",
          "name": "cooldownPeriod",
          "type": "uint256"
        }
      ],
      "name": "CircuitBreakerUpdated",
      "type": "event"
    },
    {
      "anonymous": false,
      "inputs": [
        {
          "indexed": false,
          "internalType": "address",
          "name": "account",
          "type": "address"
        }
      ],
      "name": "Paused",
      "type": "event"
    },
    {
      "anonymous": false,
      "inputs": [
        {
          "indexed": true,
          "internalType": "bytes32",
          "name": "role",
          "type": "bytes32"
        },
        {
          "indexed": true,
          "internalType": "bytes32",
          "name": "previousAdminRole",
          "type": "bytes32"
        },
        {
          "indexed": true,
          "internalType": "bytes32",
          "name": "newAdminRole",
          "type": "bytes32"
        }
      ],
      "name": "RoleAdminChanged",
      "type": "event"
    },
    {
      "anonymous": false,
      "inputs": [
        {
          "indexed": true,
          "internalType": "bytes32",
          "name": "role",
          "type": "bytes32"
        },
        {
          "indexed": true,
          "internalType": "address",
          "name": "account",
          "type": "address"
        },
        {
          "indexed": true,
          "internalType": "address",
          "name": "sender",
          "type": "address"
        }
      ],
      "name": "RoleGranted",
      "type": "event"
    },
    {
      "anonymous": false,
      "inputs": [
        {
          "indexed": true,
          "internalType": "bytes32",
          "name": "role",
          "type": "bytes32"
        },
        {
          "indexed": true,
          "internalType": "address",
          "name": "account",
          "type": "address"
        },
        {
          "indexed": true,
          "internalType": "address",
          "name": "sender",
          "type": "address"
        }
      ],
      "name": "RoleRevoked",
      "type": "event"
    },
    {
      "anonymous": false,
      "inputs": [
        {
          "indexed": false,
          "internalType": "address",
          "name": "account",
          "type": "address"
        }
      ],
      "name": "Unpaused",
      "type": "event"
    },
    {
      "inputs": [],
      "name": "DEFAULT_ADMIN_ROLE",
      "outputs": [
        {
          "internalType": "bytes32",
          "name": "",
          "type": "bytes32"
        }
      ],
      "stateMutability": "view",
      "type": "function"
    },
    {
      "inputs": [],
      "name": "OPERATOR_ROLE",
      "outputs": [
        {
          "internalType": "bytes32",
          "name": "",
          "type": "bytes32"
        }
      ],
      "stateMutability": "view",
      "type": "function"
    },
    {
      "inputs": [],
      "name": "POLICY_ADMIN_ROLE",
      "outputs": [
        {
          "internalType": "bytes32",
          "name": "",
          "type": "bytes32"
        }
      ],
      "stateMutability": "view",
      "type": "function"
    },
    {
      "inputs": [
        {
          "internalType": "bytes32",
          "name": "",
          "type": "bytes32"
        },
        {
          "internalType": "uint256",
          "name": "",
          "type": "uint256"
        }
      ],
      "name": "activityLogs",
      "outputs": [
        {
          "internalType": "uint256",
          "name": "timestamp",
          "type": "uint256"
        },
        {
          "internalType": "bytes32",
          "name": "breakerId",
          "type": "bytes32"
        },
        {
          "internalType": "string",
          "name": "reason",
          "type": "string"
        },
        {
          "internalType": "address",
          "name": "triggeredBy",
          "type": "address"
        }
      ],
      "stateMutability": "view",
      "type": "function"
    },
    {
      "inputs": [
        {
          "internalType": "bytes32",
          "name": "",
          "type": "bytes32"
        }
      ],
      "name": "circuitBreakers",
      "outputs": [
        {
          "internalType": "string",
          "name": "name",
          "type": "string"
        },
        {
          "internalType": "enum PolicyCircuitBreaker.TriggerType",
          "name": "triggerType",
          "type": "uint8"
        },
        {
          "internalType": "uint256",
          "name": "threshold",
          "type": "uint256"
        },
        {
          "internalType": "uint256",
          "name": "cooldownPeriod",
          "type": "uint256"
        },
        {
          "internalType": "bool",
          "name": "isActive",
          "type": "bool"
        },
        {
          "internalType": "uint256",
          "name": "lastTriggered",
          "type": "uint256"
        },
        {
          "internalType": "address",
          "name": "policyChecker",
          "type": "address"
        }
      ],
      "stateMutability": "view",
      "type": "function"
    },
    {
      "inputs": [
        {
          "internalType": "string",
          "name": "name",
          "type": "string"
        },
        {
          "internalType": "enum PolicyCircuitBreaker.TriggerType",
          "name": "triggerType",
          "type": "uint8"
        },
        {
          "internalType": "uint256",
          "name": "threshold",
          "type": "uint256"
        },
        {
          "internalType": "uint256",
          "name": "cooldownPeriod",
          "type": "uint256"
        },
        {
          "internalType": "address",
          "name": "policyChecker",
          "type": "address"
        }
      ],
      "name": "createCircuitBreaker",
      "outputs": [
        {
          "internalType": "bytes32",
          "name": "",
          "type": "bytes32"
        }
      ],
      "stateMutability": "nonpayable",
      "type": "function"
    },
    {
      "inputs": [
        {
          "internalType": "bytes32",
          "name": "id",
          "type": "bytes32"
        }
      ],
      "name": "getActivityLogs",
      "outputs": [
        {
          "components": [
            {
              "internalType": "uint256",
              "name": "timestamp",
              "type": "uint256"
            },
            {
              "internalType": "bytes32",
              "name": "breakerId",
              "type": "bytes32"
            },
            {
              "internalType": "string",
              "name": "reason",
              "type": "string"
            },
            {
              "internalType": "address",
              "name": "triggeredBy",
              "type": "address"
            }
          ],
          "internalType": "struct PolicyCircuitBreaker.ActivityLog[]",
          "name": "",
          "type": "tuple[]"
        }
      ],
      "stateMutability": "view",
      "type": "function"
    },
    {
      "inputs": [
        {
          "internalType": "bytes32",
          "name": "id",
          "type": "bytes32"
        }
      ],
      "name": "getCircuitBreaker",
      "outputs": [
        {
          "internalType": "string",
          "name": "name",
          "type": "string"
        },
        {
          "internalType": "enum PolicyCircuitBreaker.TriggerType",
          "name": "triggerType",
          "type": "uint8"
        },
        {
          "internalType": "uint256",
          "name": "threshold",
          "type": "uint256"
        },
        {
          "internalType": "uint256",
          "name": "cooldownPeriod",
          "type": "uint256"
        },
        {
          "internalType": "bool",
          "name": "isActive",
          "type": "bool"
        },
        {
          "internalType": "uint256",
          "name": "lastTriggered",
          "type": "uint256"
        },
        {
          "internalType": "address",
          "name": "policyChecker",
          "type": "address"
        }
      ],
      "stateMutability": "view",
      "type": "function"
    },
    {
      "inputs": [
        {
          "internalType": "bytes32",
          "name": "role",
          "type": "bytes32"
        }
      ],
      "name": "getRoleAdmin",
      "outputs": [
        {
          "internalType": "bytes32",
          "name": "",
          "type": "bytes32"
        }
      ],
      "stateMutability": "view",
      "type": "function"
    },
    {
      "inputs": [
        {
          "internalType": "bytes32",
          "name": "role",
          "type": "bytes32"
        },
        {
          "internalType": "address",
          "name": "account",
          "type": "address"
        }
      ],
      "name": "grantRole",
      "outputs": [],
      "stateMutability": "nonpayable",
      "type": "function"
    },
    {
      "inputs": [
        {
          "internalType": "bytes32",
          "name": "role",
          "type": "bytes32"
        },
        {
          "internalType": "address",
          "name": "account",
          "type": "address"
        }
      ],
      "name": "hasRole",
      "outputs": [
        {
          "internalType": "bool",
          "name": "",
          "type": "bool"
        }
      ],
      "stateMutability": "view",
      "type": "function"
    },
    {
      "inputs": [],
      "name": "paused",
      "outputs": [
        {
          "internalType": "bool",
          "name": "",
          "type": "bool"
        }
      ],
      "stateMutability": "view",
      "type": "function"
    },
    {
      "inputs": [
        {
          "internalType": "bytes32",
          "name": "role",
          "type": "bytes32"
        },
        {
          "internalType": "address",
          "name": "callerConfirmation",
          "type": "address"
        }
      ],
      "name": "renounceRole",
      "outputs": [],
      "stateMutability": "nonpayable",
      "type": "function"
    },
    {
      "inputs": [
        {
          "internalType": "bytes32",
          "name": "id",
          "type": "bytes32"
        }
      ],
      "name": "resetCircuitBreaker",
      "outputs": [],
      "stateMutability": "nonpayable",
      "type": "function"
    },
    {
      "inputs": [
        {
          "internalType": "bytes32",
          "name": "role",
          "type": "bytes32"
        },
        {
          "internalType": "address",
          "name": "account",
          "type": "address"
        }
      ],
      "name": "revokeRole",
      "outputs": [],
      "stateMutability": "nonpayable",
      "type": "function"
    },
    {
      "inputs": [
        {
          "internalType": "bytes4",
          "name": "interfaceId",
          "type": "bytes4"
        }
      ],
      "name": "supportsInterface",
      "outputs": [
        {
          "internalType": "bool",
          "name": "",
          "type": "bool"
        }
      ],
      "stateMutability": "view",
      "type": "function"
    },
    {
      "inputs": [
        {
          "internalType": "bytes32",
          "name": "id",
          "type": "bytes32"
        },
        {
          "internalType": "string",
          "name": "reason",
          "type": "string"
        }
      ],
      "name": "triggerCircuitBreaker",
      "outputs": [],
      "stateMutability": "nonpayable",
      "type": "function"
    },
    {
      "inputs": [
        {
          "internalType": "bytes32",
          "name": "id",
          "type": "bytes32"
        },
        {
          "internalType": "uint256",
          "name": "newThreshold",
          "type": "uint256"
        },
        {
          "internalType": "uint256",
          "name": "newCooldownPeriod",
          "type": "uint256"
        }
      ],
      "name": "updateCircuitBreaker",
      "outputs": [],
      "stateMutability": "nonpayable",
      "type": "function"
    }
  ],
  "bytecode": "0x608060405234620000435760016002556200001a3362000048565b506200002633620000c8565b5062000032336200016a565b506040516114249081620002088239f35b600080fd5b6001600160a01b031660008181527fad3228b676f7d3cd4284a5443f17f1962b36e491b30a40b2405849e597ba5fb5602052604081205490919060ff16620000c457818052816020526040822081835260205260408220600160ff1982541617905533916000805160206200162c8339815191528180a4600190565b5090565b6001600160a01b031660008181527fdd387d6be4b96952c83760ef1abeddbae0c0e935d512451e6222f0ce7cb72cb760205260408120549091907face7350211ab645c1937904136ede4855ac3aa1eabb4970e1a51a335d2e199209060ff166200016557808352826020526040832082845260205260408320600160ff198254161790556000805160206200162c833981519152339380a4600190565b505090565b6001600160a01b031660008181527fee57cd81e84075558e8fcc182a1f4393f91fc97f963a136e66b7f949a62f319f60205260408120549091907f97667070c54ef182b0f5858b034beac1b6f3089aa2d3188bb1e8929f4fa9b9299060ff166200016557808352826020526040832082845260205260408320600160ff198254161790556000805160206200162c833981519152339380a460019056fe608080604052600436101561001357600080fd5b60003560e01c90816301ffc9a714610e4a57508063248a9ca314610e1b5780632f2ff15d14610ddc57806336568abe14610d955780633bdfb87e14610d105780635c975abb14610ced5780637ee4444214610c675780638447966914610bfd57806391d1485414610baf5780639cfdd8fc14610b41578063a17620c114610b06578063a217fddf14610aea578063b62d8a691461077c578063b892b07714610633578063b8a7cf881461022e578063d547741f146101ed578063e6271b55146101255763f5b541a6146100e557600080fd5b346101205760003660031901126101205760206040517f97667070c54ef182b0f5858b034beac1b6f3089aa2d3188bb1e8929f4fa9b9298152f35b600080fd5b346101205760203660031901126101205760043561014161123a565b6101496113cf565b80600052600360205261018561017d604060002061016d60ff6004830154166110cb565b6003600582015491015490611163565b421015611186565b61018d6113cf565b60ff19600154166001557f5db9ee0a495bf2e6ff9c91a7834c1ba4fdd244a5e8aa4e537bd38aeae4b073aa6020604051338152a17f669538ca1f8f0201db72834644c63f3888246fad61d33cbb3d3e728735bd89fd6020604051338152a2005b346101205760403660031901126101205761022c60043561020c610e9d565b90806000526000602052610227600160406000200154611296565b61133b565b005b346101205760a03660031901126101205760043567ffffffffffffffff81116101205761025f90369060040161109d565b600560243510156101205760643590608435906001600160a01b03821682036101205761028a61123a565b80156105ff5761029b831515611117565b6004602435146105ac575b6040516020810190828683376102cf604082858101426020820152036020810184520182610f3b565b51902092836000526003602052600260406000200154610567576040519260e084019184831067ffffffffffffffff841117610551576001600160a01b039260405261031c3685896111d2565b855260243560208601526044356040860152606085015260016080850152600060a08501521660c0830152826000526003602052604060002093825180519067ffffffffffffffff82116105515781906103768854610ee5565b601f8111610501575b50602090601f831160011461049b57600092610490575b50508160011b916000199060031b1c19161785555b6001850191602084015193600585101561047a576001600160a01b0360c0600660209989987ff617417ada5fa51592f634934c924a244936ee44243c933a09a2c796688ca6fc9860ff199160ff8383541691161790556040860151600283015560608601516003830155600482019060ff6080880151151591835416911617905560a0850151600582015501920151166001600160a01b0319825416179055610461604051928392604084526040840191611219565b61046f878301602435611042565b0390a2604051908152f35b634e487b7160e01b600052602160045260246000fd5b015190508780610396565b6000898152602081209350601f198516905b8181106104e957509084600195949392106104d0575b505050811b0185556103ab565b015160001960f88460031b161c191690558780806104c3565b929360206001819287860151815501950193016104ad565b909150876000526020600020601f840160051c81016020851061054a575b90849392915b601f830160051c8201811061053b57505061037f565b60008155859450600101610525565b508061051f565b634e487b7160e01b600052604160045260246000fd5b60405162461bcd60e51b815260206004820152601660248201527f4369726375697420627265616b657220657869737473000000000000000000006044820152606490fd5b6001600160a01b0382166102a65760405162461bcd60e51b815260206004820152601660248201527f496e76616c696420706f6c69637920636865636b6572000000000000000000006044820152606490fd5b60405162461bcd60e51b815260206004820152600c60248201526b496e76616c6964206e616d6560a01b6044820152606490fd5b34610120576020806003193601126101205760043560005260048152604060002080549067ffffffffffffffff82116105515782906040519261067b838260051b0185610f3b565b8084528284018092600052836000206000915b8383106107265750505050604051918083019381845251809452604083019360408160051b85010192916000955b8287106106c95785850386f35b909192938280600192603f198982030185528751906107036080835183528484015185840152604084015190806040850152830190611002565b916001600160a01b036060809201511691015296019201960195929190926106bc565b60048660019260409998995161073b81610f1f565b85548152848601548382015261075360028701610f5d565b60408201526001600160a01b03600387015416606082015281520192019201919095949561068e565b346101205760403660031901126101205767ffffffffffffffff602435818111610120576107ae90369060040161109d565b3360009081527fee57cd81e84075558e8fcc182a1f4393f91fc97f963a136e66b7f949a62f319f60205260409020549092907f97667070c54ef182b0f5858b034beac1b6f3089aa2d3188bb1e8929f4fa9b9299060ff1615610acc57506108136113b1565b6004356000526003602052604060002061083360ff6004830154166110cb565b61084b61017d60058301926003845491015490611163565b429055600435600052600460205260406000206040519161086b83610f1f565b428352602083019160043583526108833687876111d2565b9060408501918252336060860152805468010000000000000000811015610551576108b391600182018155610eb3565b939093610ab65784518455516001840155518051918211610551576108db6002840154610ee5565b601f8111610a6b575b50602090601f83116001146109c95760037f07133bc1c184e77bb7d6ca0e9eb5ed2a0aee52c97f275938327ca918ae637bd89694846109ad97956001600160a01b03956060956000926109be575b50508160011b9160001990851b1c19161760028201555b01920151166001600160a01b03198254161790556109656113b1565b600160ff19815416176001557f62e78cea01bee320cd4e420270b5ea74000d11b0c9f74754ebdbfc544b05a2586020604051338152a160405193604085526040850191611219565b9133602082015280600435930390a2005b015190508b80610932565b906002840160005260206000209160005b601f1985168110610a5357507f07133bc1c184e77bb7d6ca0e9eb5ed2a0aee52c97f275938327ca918ae637bd896946001856001600160a01b03956060956003956109ad9b99601f19811610610a3b575b505050811b016002820155610949565b015160001983871b60f8161c191690558b8080610a2b565b919260206001819286850151815501940192016109da565b600284016000526020600020601f840160051c81019160208510610aac575b601f0160051c01905b818110610aa057506108e4565b60008155600101610a93565b9091508190610a8a565b634e487b7160e01b600052600060045260246000fd5b6044906040519063e2517d3f60e01b82523360048301526024820152fd5b3461012057600036600319011261012057602060405160008152f35b346101205760003660031901126101205760206040517face7350211ab645c1937904136ede4855ac3aa1eabb4970e1a51a335d2e199208152f35b34610120576020366003190112610120576004356000526003602052604060002060ff60018201541690610bab600282015491600381015460ff600483015416600583015491610b9e6001600160a01b0360068601541694610f5d565b956040519788978861104f565b0390f35b3461012057604036600319011261012057610bc8610e9d565b60043560005260006020526001600160a01b0360406000209116600052602052602060ff604060002054166040519015158152f35b346101205760203660031901126101205760043560005260036020526040600020610c2781610f5d565b610bab60ff60018401541692600281015490600381015460ff600483015416906001600160a01b036006600585015494015416936040519788978861104f565b34610120576040366003190112610120576024356004356000526004602052604060002090815481101561012057610c9e91610eb3565b508054600182015491610ce36001600160a01b036003610cc060028501610f5d565b930154169160405194859485526020850152608060408501526080840190611002565b9060608301520390f35b3461012057600036600319011261012057602060ff600154166040519015158152f35b34610120576060366003190112610120576004357f4571242b516804cb95f555dff8aa70d9854b73b18f1a9bcfcbb5372a7b5fd4786040602435604435610d5561123a565b84600052600360205280600384600020610d7560ff6004830154166110cb565b610d80831515611117565b846002820155015582519182526020820152a2005b3461012057604036600319011261012057610dae610e9d565b336001600160a01b03821603610dca5761022c9060043561133b565b60405163334bd91960e11b8152600490fd5b346101205760403660031901126101205761022c600435610dfb610e9d565b90806000526000602052610e16600160406000200154611296565b6112bc565b346101205760203660031901126101205760043560005260006020526020600160406000200154604051908152f35b34610120576020366003190112610120576004359063ffffffff60e01b821680920361012057602091637965db0b60e01b8114908115610e8c575b5015158152f35b6301ffc9a760e01b14905083610e85565b602435906001600160a01b038216820361012057565b8054821015610ecf5760005260206000209060021b0190600090565b634e487b7160e01b600052603260045260246000fd5b90600182811c92168015610f15575b6020831014610eff57565b634e487b7160e01b600052602260045260246000fd5b91607f1691610ef4565b6080810190811067ffffffffffffffff82111761055157604052565b90601f8019910116810190811067ffffffffffffffff82111761055157604052565b90604051918260008254610f7081610ee5565b90818452602094600191600181169081600014610fe05750600114610fa1575b505050610f9f92500383610f3b565b565b600090815285812095935091905b818310610fc8575050610f9f9350820101388080610f90565b85548884018501529485019487945091830191610faf565b92505050610f9f94925060ff191682840152151560051b820101388080610f90565b919082519283825260005b84811061102e575050826000602080949584010152601f8019910116010190565b60208183018101518483018201520161100d565b90600582101561047a5752565b9591979692936001600160a01b039461108161107660c0989460e08b5260e08b0190611002565b9a60208a0190611042565b604088015260608701521515608086015260a085015216910152565b9181601f840112156101205782359167ffffffffffffffff8311610120576020838186019501011161012057565b156110d257565b60405162461bcd60e51b815260206004820152601a60248201527f4369726375697420627265616b6572206e6f74206163746976650000000000006044820152606490fd5b1561111e57565b60405162461bcd60e51b815260206004820152601060248201527f496e76616c696420636f6f6c646f776e000000000000000000000000000000006044820152606490fd5b9190820180921161117057565b634e487b7160e01b600052601160045260246000fd5b1561118d57565b60405162461bcd60e51b815260206004820152601660248201527f436f6f6c646f776e20706572696f6420616374697665000000000000000000006044820152606490fd5b92919267ffffffffffffffff821161055157604051916111fc601f8201601f191660200184610f3b565b829481845281830111610120578281602093846000960137010152565b908060209392818452848401376000828201840152601f01601f1916010190565b3360009081527fdd387d6be4b96952c83760ef1abeddbae0c0e935d512451e6222f0ce7cb72cb760205260409020547face7350211ab645c1937904136ede4855ac3aa1eabb4970e1a51a335d2e199209060ff1615610acc5750565b80600052600060205260406000203360005260205260ff6040600020541615610acc5750565b90600091808352826020526001600160a01b036040842092169182845260205260ff6040842054161560001461133657808352826020526040832082845260205260408320600160ff198254161790557f2f8788117e7eff1d82e926ec794901d17c78024a50270940304540a733656f0d339380a4600190565b505090565b90600091808352826020526001600160a01b036040842092169182845260205260ff6040842054166000146113365780835282602052604083208284526020526040832060ff1981541690557ff6391f5c32d9c69d2a47ea670b442974b53935d1edc7fd64eb21e047a839171b339380a4600190565b60ff600154166113bd57565b60405163d93c066560e01b8152600490fd5b60ff60015416156113dc57565b604051638dfc202b60e01b8152600490fdfea2646970667358221220839590e33f983b510fef262bbf30b5a4cc1150eeebd596d3c3c76694348e6f6464736f6c634300081800332f8788117e7eff1d82e926ec794901d17c78024a50270940304540a733656f0d",
  "linkReferences": {},
  "deployedLinkReferences": {}
}