{"abi":[{"type":"constructor","inputs":[{"name":"admin","type":"address","internalType":"address"},{"name":"usdScale","type":"uint256","internalType":"uint256"}],"stateMutability":"nonpayable"},{"type":"function","name":"DEFAULT_ADMIN_ROLE","inputs":[],"outputs":[{"name":"","type":"bytes32","internalType":"bytes32"}],"stateMutability":"view"},{"type":"function","name":"ROLE_ADMIN","inputs":[],"outputs":[{"name":"","type":"bytes32","internalType":"bytes32"}],"stateMutability":"view"},{"type":"function","name":"ROLE_FEED","inputs":[],"outputs":[{"name":"","type":"bytes32","internalType":"bytes32"}],"stateMutability":"view"},{"type":"function","name":"ROLE_TREASURER","inputs":[],"outputs":[{"name":"","type":"bytes32","internalType":"bytes32"}],"stateMutability":"view"},{"type":"function","name":"USD_SCALE","inputs":[],"outputs":[{"name":"","type":"uint256","internalType":"uint256"}],"stateMutability":"view"},{"type":"function","name":"addLot","inputs":[{"name":"cusip","type":"bytes9","internalType":"bytes9"},{"name":"issueDate","type":"uint64","internalType":"uint64"},{"name":"maturityDate","type":"uint64","internalType":"uint64"},{"name":"faceMinor","type":"uint128","internalType":"uint128"},{"name":"brokerRef","type":"string","internalType":"string"},{"name":"meta","type":"string","internalType":"string"}],"outputs":[{"name":"id","type":"uint256","internalType":"uint256"}],"stateMutability":"nonpayable"},{"type":"function","name":"eip712Domain","inputs":[],"outputs":[{"name":"fields","type":"bytes1","internalType":"bytes1"},{"name":"name","type":"string","internalType":"string"},{"name":"version","type":"string","internalType":"string"},{"name":"chainId","type":"uint256","internalType":"uint256"},{"name":"verifyingContract","type":"address","internalType":"address"},{"name":"salt","type":"bytes32","internalType":"bytes32"},{"name":"extensions","type":"uint256[]","internalType":"uint256[]"}],"stateMutability":"view"},{"type":"function","name":"getRoleAdmin","inputs":[{"name":"role","type":"bytes32","internalType":"bytes32"}],"outputs":[{"name":"","type":"bytes32","internalType":"bytes32"}],"stateMutability":"view"},{"type":"function","name":"grantRole","inputs":[{"name":"role","type":"bytes32","internalType":"bytes32"},{"name":"account","type":"address","internalType":"address"}],"outputs":[],"stateMutability":"nonpayable"},{"type":"function","name":"hasRole","inputs":[{"name":"role","type":"bytes32","internalType":"bytes32"},{"name":"account","type":"address","internalType":"address"}],"outputs":[{"name":"","type":"bool","internalType":"bool"}],"stateMutability":"view"},{"type":"function","name":"lastLotId","inputs":[],"outputs":[{"name":"","type":"uint256","internalType":"uint256"}],"stateMutability":"view"},{"type":"function","name":"lots","inputs":[{"name":"","type":"uint256","internalType":"uint256"}],"outputs":[{"name":"active","type":"bool","internalType":"bool"},{"name":"cusip","type":"bytes9","internalType":"bytes9"},{"name":"issueDate","type":"uint64","internalType":"uint64"},{"name":"maturityDate","type":"uint64","internalType":"uint64"},{"name":"faceMinor","type":"uint128","internalType":"uint128"},{"name":"brokerRef","type":"string","internalType":"string"},{"name":"meta","type":"string","internalType":"string"}],"stateMutability":"view"},{"type":"function","name":"markTimes","inputs":[{"name":"","type":"uint256","internalType":"uint256"},{"name":"","type":"uint256","internalType":"uint256"}],"outputs":[{"name":"","type":"uint64","internalType":"uint64"}],"stateMutability":"view"},{"type":"function","name":"marksByTime","inputs":[{"name":"","type":"uint256","internalType":"uint256"},{"name":"","type":"uint64","internalType":"uint64"}],"outputs":[{"name":"asOf","type":"uint64","internalType":"uint64"},{"name":"pricePer100","type":"uint128","internalType":"uint128"},{"name":"source","type":"string","internalType":"string"},{"name":"signer","type":"address","internalType":"address"}],"stateMutability":"view"},{"type":"function","name":"renounceRole","inputs":[{"name":"role","type":"bytes32","internalType":"bytes32"},{"name":"callerConfirmation","type":"address","internalType":"address"}],"outputs":[],"stateMutability":"nonpayable"},{"type":"function","name":"reserveVault","inputs":[],"outputs":[{"name":"","type":"address","internalType":"contract ReserveVault"}],"stateMutability":"view"},{"type":"function","name":"revokeRole","inputs":[{"name":"role","type":"bytes32","internalType":"bytes32"},{"name":"account","type":"address","internalType":"address"}],"outputs":[],"stateMutability":"nonpayable"},{"type":"function","name":"setFeed","inputs":[{"name":"feed","type":"address","internalType":"address"},{"name":"allowed","type":"bool","internalType":"bool"}],"outputs":[],"stateMutability":"nonpayable"},{"type":"function","name":"setReserveManager","inputs":[{"name":"rm","type":"address","internalType":"contract ReserveVault"}],"outputs":[],"stateMutability":"nonpayable"},{"type":"function","name":"submitMark","inputs":[{"name":"lotId","type":"uint256","internalType":"uint256"},{"name":"asOf","type":"uint64","internalType":"uint64"},{"name":"pricePer100","type":"uint128","internalType":"uint128"},{"name":"source","type":"string","internalType":"string"},{"name":"signature","type":"bytes","internalType":"bytes"}],"outputs":[{"name":"signer","type":"address","internalType":"address"}],"stateMutability":"nonpayable"},{"type":"function","name":"supportsInterface","inputs":[{"name":"interfaceId","type":"bytes4","internalType":"bytes4"}],"outputs":[{"name":"","type":"bool","internalType":"bool"}],"stateMutability":"view"},{"type":"function","name":"syncAllToReserve","inputs":[{"name":"refKey","type":"bytes32","internalType":"bytes32"},{"name":"positionIdIfExists","type":"uint256","internalType":"uint256"},{"name":"asOf","type":"uint64","internalType":"uint64"}],"outputs":[],"stateMutability":"nonpayable"},{"type":"function","name":"updateLot","inputs":[{"name":"id","type":"uint256","internalType":"uint256"},{"name":"active","type":"bool","internalType":"bool"},{"name":"faceMinor","type":"uint128","internalType":"uint128"},{"name":"brokerRef","type":"string","internalType":"string"},{"name":"meta","type":"string","internalType":"string"}],"outputs":[],"stateMutability":"nonpayable"},{"type":"event","name":"EIP712DomainChanged","inputs":[],"anonymous":false},{"type":"event","name":"FeedSet","inputs":[{"name":"feed","type":"address","indexed":true,"internalType":"address"},{"name":"allowed","type":"bool","indexed":false,"internalType":"bool"}],"anonymous":false},{"type":"event","name":"LotAdded","inputs":[{"name":"id","type":"uint256","indexed":true,"internalType":"uint256"},{"name":"cusip","type":"bytes9","indexed":false,"internalType":"bytes9"},{"name":"issueDate","type":"uint64","indexed":false,"internalType":"uint64"},{"name":"maturityDate","type":"uint64","indexed":false,"internalType":"uint64"},{"name":"faceMinor","type":"uint128","indexed":false,"internalType":"uint128"},{"name":"brokerRef","type":"string","indexed":false,"internalType":"string"}],"anonymous":false},{"type":"event","name":"LotUpdated","inputs":[{"name":"id","type":"uint256","indexed":true,"internalType":"uint256"},{"name":"active","type":"bool","indexed":false,"internalType":"bool"},{"name":"faceMinor","type":"uint128","indexed":false,"internalType":"uint128"},{"name":"brokerRef","type":"string","indexed":false,"internalType":"string"},{"name":"meta","type":"string","indexed":false,"internalType":"string"}],"anonymous":false},{"type":"event","name":"MarkAccepted","inputs":[{"name":"id","type":"uint256","indexed":true,"internalType":"uint256"},{"name":"asOf","type":"uint64","indexed":false,"internalType":"uint64"},{"name":"pricePer100","type":"uint128","indexed":false,"internalType":"uint128"},{"name":"source","type":"string","indexed":false,"internalType":"string"},{"name":"signer","type":"address","indexed":false,"internalType":"address"}],"anonymous":false},{"type":"event","name":"ReserveManagerSet","inputs":[{"name":"rm","type":"address","indexed":true,"internalType":"address"}],"anonymous":false},{"type":"event","name":"RoleAdminChanged","inputs":[{"name":"role","type":"bytes32","indexed":true,"internalType":"bytes32"},{"name":"previousAdminRole","type":"bytes32","indexed":true,"internalType":"bytes32"},{"name":"newAdminRole","type":"bytes32","indexed":true,"internalType":"bytes32"}],"anonymous":false},{"type":"event","name":"RoleGranted","inputs":[{"name":"role","type":"bytes32","indexed":true,"internalType":"bytes32"},{"name":"account","type":"address","indexed":true,"internalType":"address"},{"name":"sender","type":"address","indexed":true,"internalType":"address"}],"anonymous":false},{"type":"event","name":"RoleRevoked","inputs":[{"name":"role","type":"bytes32","indexed":true,"internalType":"bytes32"},{"name":"account","type":"address","indexed":true,"internalType":"address"},{"name":"sender","type":"address","indexed":true,"internalType":"address"}],"anonymous":false},{"type":"event","name":"SyncedToReserves","inputs":[{"name":"positionId","type":"uint256","indexed":true,"internalType":"uint256"},{"name":"totalNAV","type":"uint256","indexed":false,"internalType":"uint256"}],"anonymous":false},{"type":"error","name":"AccessControlBadConfirmation","inputs":[]},{"type":"error","name":"AccessControlUnauthorizedAccount","inputs":[{"name":"account","type":"address","internalType":"address"},{"name":"neededRole","type":"bytes32","internalType":"bytes32"}]},{"type":"error","name":"ECDSAInvalidSignature","inputs":[]},{"type":"error","name":"ECDSAInvalidSignatureLength","inputs":[{"name":"length","type":"uint256","internalType":"uint256"}]},{"type":"error","name":"ECDSAInvalidSignatureS","inputs":[{"name":"s","type":"bytes32","internalType":"bytes32"}]},{"type":"error","name":"InvalidShortString","inputs":[]},{"type":"error","name":"StringTooLong","inputs":[{"name":"str","type":"string","internalType":"string"}]}],"bytecode":{"object":"0x610180346200020a576001600160401b036200378a601f38829003908101601f191684019083821185831017620001f457808591604094859485528339810103126200020a578251926001600160a01b03841684036200020a5760200151908051906200006c826200020f565b6015825260208201937f5442696c6c496e76656e746f72794164617074657200000000000000000000008552815195620000a6876200020f565b6001875260208701603160f81b8152620000c08562000407565b96610120978852620000d289620005de565b95610140968752519020978860e05251902096610100978089524660a05284519060208201927f8b73c3c69bb8fe3d512ecc4cf759cc79239f7b179b0ffacaa9a75d522b39400f84528683015260608201524660808201523060a082015260a0815260c081019381851090851117620001f4576200017a9385525190206080523060c05261016094855262000167816200022b565b506200017381620002cd565b506200036a565b505192612fd3948562000797863960805185612e0e015260a05185612eda015260c05185612ddf015260e05185612e5d01525184612e83015251836111ee0152518261121801525181818161015501528181611b6e01528181611c7f01528181611db901528181611ddd01528181611e030152611e2c0152f35b634e487b7160e01b600052604160045260246000fd5b600080fd5b604081019081106001600160401b03821117620001f457604052565b6001600160a01b031660008181527ff2d002f32e1e256ea1e928747b1832023316be30886ca415b888f7c67dd776c360205260408120549091907f2172861495e7b85edac73e3cd5fbb42dd675baadf627720e687bcfdaca0250969060ff16620002c857808352826020526040832082845260205260408320600160ff198254161790556000805160206200376a833981519152339380a4600190565b505090565b6001600160a01b031660008181527fda6c2b477a8433f69bdb531148b0cabd4d7be7b100b25ee4626488642d8a435660205260408120549091907f1c676e852adc9569a8624bc5d314ca5108185265cfcc675f31d0fb60d328c5929060ff16620002c857808352826020526040832082845260205260408320600160ff198254161790556000805160206200376a833981519152339380a4600190565b6001600160a01b031660008181527ff414bc69fdbf2d66dcdbbec6e7cd81b5887e790e8555934e2208a607c7adfeb260205260408120549091907f6b9d9d2f5dd823efdbdb13807dfebdffd61f705a62db526abe9ca3b9863ba5399060ff16620002c857808352826020526040832082845260205260408320600160ff198254161790556000805160206200376a833981519152339380a4600190565b805160209081811015620004a45750601f8251116200044357808251920151908083106200043457501790565b82600019910360031b1b161790565b90604051809263305a27a960e01b82528060048301528251908160248401526000935b8285106200048a575050604492506000838284010152601f80199101168101030190fd5b848101820151868601604401529381019385935062000466565b9192916001600160401b038111620001f45760019182548381811c91168015620005d3575b82821014620005bd57601f811162000584575b5080601f83116001146200051c57508192939460009262000510575b5050600019600383901b1c191690821b17905560ff90565b015190503880620004f8565b90601f198316958460005282600020926000905b8882106200056c575050838596971062000552575b505050811b01905560ff90565b015160001960f88460031b161c1916905538808062000545565b80878596829496860151815501950193019062000530565b8360005283601f83600020920160051c820191601f850160051c015b828110620005b0575050620004dc565b60008155018490620005a0565b634e487b7160e01b600052602260045260246000fd5b90607f1690620004c9565b8051602090818110156200066c5750601f8251116200060b57808251920151908083106200043457501790565b90604051809263305a27a960e01b82528060048301528251908160248401526000935b82851062000652575050604492506000838284010152601f80199101168101030190fd5b84810182015186860160440152938101938593506200062e565b906001600160401b038211620001f457600254926001938481811c911680156200078b575b83821014620005bd57601f811162000751575b5081601f8411600114620006e55750928293918392600094620006d9575b50501b916000199060031b1c19161760025560ff90565b015192503880620006c2565b919083601f198116600260005284600020946000905b888383106200073657505050106200071c575b505050811b0160025560ff90565b015160001960f88460031b161c191690553880806200070e565b858701518855909601959485019487935090810190620006fb565b600260005284601f84600020920160051c820191601f860160051c015b8281106200077e575050620006a4565b600081550185906200076e565b90607f16906200069156fe608080604052600436101561001357600080fd5b60009060e08235811c91826301ffc9a7146121b65750816305bcf8171461215d5781631db6ccaa14612095578163248a9ca31461204b5781632f2ff15d14611ff057816336568abe14611f6557816338944f5514611a7d57816351ac0cc0146113925781636a52bd45146113565781636f09401f146112fd57816384b0196e146111ba57816391d14854146111435781639ff90a0a14610a63578163a217fddf14610a29578163bdd7c6ea146109b8578163c7c73cd414610900578163cef062fc146108ae578163d0862936146103d6578163d391014b1461037d578163d547741f1461031e578163df7da75414610270578163f1648e841461017b575063f96d0baa1461012057600080fd5b3461017857807ffffffffffffffffffffffffffffffffffffffffffffffffffffffffffffffffc3601126101785760206040517f00000000000000000000000000000000000000000000000000000000000000008152f35b80fd5b82346101785760207ffffffffffffffffffffffffffffffffffffffffffffffffffffffffffffffffc3601126101785760409060043581526004602052209061026c82549161025e67ffffffffffffffff946fffffffffffffffffffffffffffffffff600182015416926101fd60036101f660028501612352565b9301612352565b93604051978760ff8a9916151589527fffffffffffffffffff00000000000000000000000000000000000000000000008160b01b1660208a0152818160501c1660408a015260901c16606088015260808701528060a0870152850190612416565b9083820360c0850152612416565b0390f35b82346101785760207ffffffffffffffffffffffffffffffffffffffffffffffffffffffffffffffffc3601126101785760043573ffffffffffffffffffffffffffffffffffffffff811680910361031a576102c961272e565b807fffffffffffffffffffffffff000000000000000000000000000000000000000060075416176007557f7e84f9bb34064cde550792818395eb9c2f7766113ce1c301d35c19cbe2e187ac8280a280f35b5080fd5b82346101785760407ffffffffffffffffffffffffffffffffffffffffffffffffffffffffffffffffc3601126101785761037960043561035c612474565b9080845283602052610374600160408620015461278a565b612a08565b5080f35b823461017857807ffffffffffffffffffffffffffffffffffffffffffffffffffffffffffffffffc3601126101785760206040517f2172861495e7b85edac73e3cd5fbb42dd675baadf627720e687bcfdaca0250968152f35b82346101785760a07ffffffffffffffffffffffffffffffffffffffffffffffffffffffffffffffffc36011261017857600435610411612536565b610419612497565b9060643567ffffffffffffffff81116108aa5761043a9036906004016124b6565b9060843567ffffffffffffffff81116108a65761045b9036906004016124b6565b91909261046661269b565b8688526004602052604088207fffffffffffffffffff0000000000000000000000000000000000000000000000815460b01b1615610848576104d386829060ff7fffffffffffffffffffffffffffffffffffffffffffffffffffffffffffffff0083541691151516179055565b600181016fffffffffffffffffffffffffffffffff88167fffffffffffffffffffffffffffffffff0000000000000000000000000000000082541617905567ffffffffffffffff821161074b5761053a8261053160028401546122a2565b60028401612606565b889082601f81116001146107835780610588916003948d91610778575b507fffffffffffffffffffffffffffffffffffffffffffffffffffffffffffffffff8260011b9260031b1c19161790565b60028201555b0167ffffffffffffffff841161074b576105b2846105ac83546122a2565b83612606565b8889601f861160011461067e579261065f9261062a87807f0bb2834f0a9bd337a34d60de7760d0e1f43b653049146be11491446fde5b9cf39c9b9a989561066d9a989161067357507fffffffffffffffffffffffffffffffffffffffffffffffffffffffffffffffff8260011b9260031b1c19161790565b90555b6fffffffffffffffffffffffffffffffff6040519889981515895216602088015260806040880152608087019161265c565b91848303606086015261265c565b0390a280f35b90508801358f610557565b50818a5260208a20907fffffffffffffffffffffffffffffffffffffffffffffffffffffffffffffffe086168b5b8181106107335750927f0bb2834f0a9bd337a34d60de7760d0e1f43b653049146be11491446fde5b9cf3999897959287959261066d9861065f96106106fb575b5050600185811b01905561062d565b7fffffffffffffffffffffffffffffffffffffffffffffffffffffffffffffffff60f88860031b161c19908801351690558c806106ec565b9192602060018192868c0135815501940192016106ac565b6024897f4e487b710000000000000000000000000000000000000000000000000000000081526041600452fd5b90508601358d610557565b50600281018a5260208a208a925b7fffffffffffffffffffffffffffffffffffffffffffffffffffffffffffffffe0851684106108305760039350847fffffffffffffffffffffffffffffffffffffffffffffffffffffffffffffffe08116106107fa575b5050600183811b01600282015561058e565b8501357fffffffffffffffffffffffffffffffffffffffffffffffffffffffffffffffff85851b60f8161c191690558a806107e8565b85810135825560209384019360019092019101610791565b60646040517f08c379a000000000000000000000000000000000000000000000000000000000815260206004820152600660248201527f6e6f206c6f7400000000000000000000000000000000000000000000000000006044820152fd5b8680fd5b8480fd5b823461017857807ffffffffffffffffffffffffffffffffffffffffffffffffffffffffffffffffc36011261017857602073ffffffffffffffffffffffffffffffffffffffff60075416604051908152f35b82346101785760407ffffffffffffffffffffffffffffffffffffffffffffffffffffffffffffffffc3601126101785760043573ffffffffffffffffffffffffffffffffffffffff8116908181036109b35760207fe0af91e78ef875920b9954480b5ea6d69e79ea987a902a2ee3c554e69fde105d9161097e612536565b9061098761272e565b81156109a457610996906127b0565b505b6040519015158152a280f35b6109ad90612932565b50610998565b600080fd5b82346101785760407ffffffffffffffffffffffffffffffffffffffffffffffffffffffffffffffffc3601126101785760243590600435815260066020526040812090815483101561017857602067ffffffffffffffff610a1985856124e4565b9190546040519260031b1c168152f35b823461017857807ffffffffffffffffffffffffffffffffffffffffffffffffffffffffffffffffc36011261017857602090604051908152f35b90503461031a5760a07ffffffffffffffffffffffffffffffffffffffffffffffffffffffffffffffffc36011261031a57610a9c612274565b610aa4612497565b60643567ffffffffffffffff81116108aa57610ac49036906004016124b6565b91909460843567ffffffffffffffff811161031a57610ae79036906004016124b6565b6004803584526020526040832054919660ff8316156110e557610b0b36878b6125a1565b60208151910120906040519167ffffffffffffffff60208401957f78360d37e57a89015b636e4d0bc1231e70b1a7047d774ce714fcae8c388132a4875260043560408601527fffffffffffffffffff00000000000000000000000000000000000000000000008160b01b16606086015260901c16608084015267ffffffffffffffff891660a08401526fffffffffffffffffffffffffffffffff871660c084015281830152815261010081019781891067ffffffffffffffff8a1117611058576042610c2894610c2293610c319b604052519020610be7612dc8565b90604051917f1901000000000000000000000000000000000000000000000000000000000000835260028301526022820152209236916125a1565b90612ca5565b90969196612ce1565b7f1c676e852adc9569a8624bc5d314ca5108185265cfcc675f31d0fb60d328c5928152806020526040812073ffffffffffffffffffffffffffffffffffffffff861660005260205260ff6040600020541615611087576040516080810181811067ffffffffffffffff8211176110585760405267ffffffffffffffff85168152602081016fffffffffffffffffffffffffffffffff84168152610cd536868a6125a1565b6040830190815273ffffffffffffffffffffffffffffffffffffffff88166060840152600435845260056020526040842067ffffffffffffffff881660005260205260406000209167ffffffffffffffff8451167fffffffffffffffff00000000000000000000000000000000000000000000000077ffffffffffffffffffffffffffffffff00000000000000008554935160401b16921617178255600190519081519167ffffffffffffffff831161102b57610da283610d9960018701546122a2565b60018701612606565b602091601f8411600114610f67575092610e0b8360609460029473ffffffffffffffffffffffffffffffffffffffff978a92610f5c575b50507fffffffffffffffffffffffffffffffffffffffffffffffffffffffffffffffff8260011b9260031b1c19161790565b60018201555b01920151167fffffffffffffffffffffffff0000000000000000000000000000000000000000825416179055600435815260066020526040812080549168010000000000000000831015610f2f5750926fffffffffffffffffffffffffffffffff610eec93610eaa847f5572377757cee1b045dd2cf20bc7c7437613c3a1141b0e725cd4ee186c3aa84597600160209c970181556124e4565b81549060031b9067ffffffffffffffff808b16831b921b191617905567ffffffffffffffff60405197168752168786015260806040860152608085019161265c565b9173ffffffffffffffffffffffffffffffffffffffff8416606082015280600435930390a273ffffffffffffffffffffffffffffffffffffffff60405191168152f35b807f4e487b7100000000000000000000000000000000000000000000000000000000602492526041600452fd5b015190503880610dd9565b91907fffffffffffffffffffffffffffffffffffffffffffffffffffffffffffffffe08416600186018852602088209388905b8282106110125750509360029373ffffffffffffffffffffffffffffffffffffffff96936001938360609810610fdb575b505050811b016001820155610e11565b01517fffffffffffffffffffffffffffffffffffffffffffffffffffffffffffffffff60f88460031b161c19169055388080610fcb565b9093946020828192888701518155019601940190610f9a565b6024867f4e487b710000000000000000000000000000000000000000000000000000000081526041600452fd5b7f4e487b7100000000000000000000000000000000000000000000000000000000600052604160045260246000fd5b60646040517f08c379a000000000000000000000000000000000000000000000000000000000815260206004820152601160248201527f756e617574686f72697a656420666565640000000000000000000000000000006044820152fd5b60646040517f08c379a000000000000000000000000000000000000000000000000000000000815260206004820152600c60248201527f696e616374697665206c6f7400000000000000000000000000000000000000006044820152fd5b82346101785760407ffffffffffffffffffffffffffffffffffffffffffffffffffffffffffffffffc3601126101785773ffffffffffffffffffffffffffffffffffffffff6040611192612474565b92600435815280602052209116600052602052602060ff604060002054166040519015158152f35b823461017857807ffffffffffffffffffffffffffffffffffffffffffffffffffffffffffffffffc360112610178576112127f0000000000000000000000000000000000000000000000000000000000000000612aa9565b9061123c7f0000000000000000000000000000000000000000000000000000000000000000612be5565b60405191602091602084019484861067ffffffffffffffff87111761105857949260206112b3889693866040528585526112a5604051998a997f0f000000000000000000000000000000000000000000000000000000000000008b5280868c01528a0190612416565b9088820360408a0152612416565b924660608801523060808801528460a088015286840360c088015251928381520193925b8281106112e657505050500390f35b8351855286955093810193928101926001016112d7565b823461017857807ffffffffffffffffffffffffffffffffffffffffffffffffffffffffffffffffc3601126101785760206040517f1c676e852adc9569a8624bc5d314ca5108185265cfcc675f31d0fb60d328c5928152f35b823461017857807ffffffffffffffffffffffffffffffffffffffffffffffffffffffffffffffffc360112610178576020600354604051908152f35b90503461031a5760c07ffffffffffffffffffffffffffffffffffffffffffffffffffffffffffffffffc36011261031a57600435907fffffffffffffffffff000000000000000000000000000000000000000000000082168203611a79576113f8612274565b9161140161228b565b6064356fffffffffffffffffffffffffffffffff811681036109b35760843567ffffffffffffffff81116108a65761143d9036906004016124b6565b92909560a43567ffffffffffffffff8111611a75576114609036906004016124b6565b61146b97919761269b565b67ffffffffffffffff831667ffffffffffffffff851610611a1757611491600354612545565b97886003556040519283019183831067ffffffffffffffff8411176110585761153292604052600184527fffffffffffffffffff00000000000000000000000000000000000000000000008916602085015267ffffffffffffffff8516604085015267ffffffffffffffff861660608501526fffffffffffffffffffffffffffffffff8716608085015261152636898d6125a1565b60a085015236916125a1565b60c08201528689526004602052604089209061157c81511515839060ff7fffffffffffffffffffffffffffffffffffffffffffffffffffffffffffffff0083541691151516179055565b6020810151825471ffffffffffffffff00000000000000000000604084015160501b16907fffffffffffff00000000000000000000000000000000000000000000000000ff69ffffffffffffffffff0079ffffffffffffffff000000000000000000000000000000000000606087015160901b169460b01c1691161717178255600182016fffffffffffffffffffffffffffffffff6080830151167fffffffffffffffffffffffffffffffff0000000000000000000000000000000082541617905560a081015180519067ffffffffffffffff82116119ea5761166f8261166660028701546122a2565b60028701612606565b6020908c601f84116001146119415760c094936116bf93909283610f5c5750507fffffffffffffffffffffffffffffffffffffffffffffffffffffffffffffffff8260011b9260031b1c19161790565b60028401555b015180519067ffffffffffffffff8211611914579960209a6116f7836116ee60038701546122a2565b60038701612606565b8b91601f84116001146117e8579567ffffffffffffffff8b9c967fffffffffffffffffff00000000000000000000000000000000000000000000009a9660036117ae887f3e56dda0778985d491f51392ec505eb4eda9ee9282db777b408c8c569adee52c9f9d98996fffffffffffffffffffffffffffffffff9a87996117dd9f92610f5c5750507fffffffffffffffffffffffffffffffffffffffffffffffffffffffffffffffff8260011b9260031b1c19161790565b9101555b6040519a8b9a168a52168d89015216604087015216606085015260a0608085015260a084019161265c565b0390a2604051908152f35b91906003850183528c8320925b7fffffffffffffffffffffffffffffffffffffffffffffffffffffffffffffffe0851681106118fd57509567ffffffffffffffff8b9c967fffffffffffffffffff00000000000000000000000000000000000000000000009a9660036001887f3e56dda0778985d491f51392ec505eb4eda9ee9282db777b408c8c569adee52c9f9d9886986117dd9e837fffffffffffffffffffffffffffffffffffffffffffffffffffffffffffffffe06fffffffffffffffffffffffffffffffff9e16106118c7575b505050811b019101556117b2565b01517fffffffffffffffffffffffffffffffffffffffffffffffffffffffffffffffff60f884871b161c191690553880806118b9565b91928d6001819286850151815501940192016117f5565b60248b7f4e487b710000000000000000000000000000000000000000000000000000000081526041600452fd5b91907fffffffffffffffffffffffffffffffffffffffffffffffffffffffffffffffe0841660028701845260208420935b8181106119d2575091600193918560c09796941061199b575b505050811b0160028401556116c5565b01517fffffffffffffffffffffffffffffffffffffffffffffffffffffffffffffffff60f88460031b161c1916905538808061198b565b92936020600181928786015181550195019301611972565b60248c7f4e487b710000000000000000000000000000000000000000000000000000000081526041600452fd5b60646040517f08c379a000000000000000000000000000000000000000000000000000000000815260206004820152600960248201527f62616420646174657300000000000000000000000000000000000000000000006044820152fd5b8880fd5b8280fd5b82346101785760607ffffffffffffffffffffffffffffffffffffffffffffffffffffffffffffffffc36011261017857611ab561228b565b90611abe61269b565b73ffffffffffffffffffffffffffffffffffffffff60075416918215611f0757819260016003545b80821115611d3e575050602435611c195750508091602073ffffffffffffffffffffffffffffffffffffffff6007541660a46fffffffffffffffffffffffffffffffff60405195869384927f686ee2660000000000000000000000000000000000000000000000000000000084526004356004850152600435602485015280881660448501527f0000000000000000000000000000000000000000000000000000000000000000166064840152600160848401525af1918215611c0e578392611bd9575b5060207f065df15e7864146d82b744bb9f4214d2cfca6221b674d49a55a97bf5b1d0478791604051908152a280f35b9091506020813d602011611c06575b81611bf560209383612311565b81010312611a795751906020611baa565b3d9150611be8565b6040513d85823e3d90fd5b6fffffffffffffffffffffffffffffffff90803b15611d3a5791608484928367ffffffffffffffff9560405196879586947f2b7bccd70000000000000000000000000000000000000000000000000000000086526024356004870152808c1660248701527f00000000000000000000000000000000000000000000000000000000000000001660448601521660648401525af18015611d2f57611cea575b50906040519081527f065df15e7864146d82b744bb9f4214d2cfca6221b674d49a55a97bf5b1d04787602060243592a280f35b67ffffffffffffffff8111611d025760405282611cb7565b6024827f4e487b710000000000000000000000000000000000000000000000000000000081526041600452fd5b6040513d84823e3d90fd5b8380fd5b909485855260046020526040852060ff81541615611efc5760056020526040862067ffffffffffffffff8616875260205260408620549067ffffffffffffffff821615611ef0576001906fffffffffffffffffffffffffffffffff9182910154169160401c1690818102918183041490151715611ec35760647f00000000000000000000000000000000000000000000000000000000000000008102047f000000000000000000000000000000000000000000000000000000000000000003611ec3577f000000000000000000000000000000000000000000000000000000000000000060640215611e96577f000000000000000000000000000000000000000000000000000000000000000060640290048101809111611e6957611e639095612545565b90611ae6565b6024857f4e487b710000000000000000000000000000000000000000000000000000000081526011600452fd5b6024867f4e487b710000000000000000000000000000000000000000000000000000000081526012600452fd5b6024867f4e487b710000000000000000000000000000000000000000000000000000000081526011600452fd5b505094611e6390612545565b5094611e6390612545565b60646040517f08c379a000000000000000000000000000000000000000000000000000000000815260206004820152600560248201527f6e6f20524d0000000000000000000000000000000000000000000000000000006044820152fd5b82346101785760407ffffffffffffffffffffffffffffffffffffffffffffffffffffffffffffffffc36011261017857611f9d612474565b3373ffffffffffffffffffffffffffffffffffffffff821603611fc65761037990600435612a08565b60046040517f6697b232000000000000000000000000000000000000000000000000000000008152fd5b82346101785760407ffffffffffffffffffffffffffffffffffffffffffffffffffffffffffffffffc3601126101785761037960043561202e612474565b9080845283602052612046600160408620015461278a565b61288d565b82346101785760207ffffffffffffffffffffffffffffffffffffffffffffffffffffffffffffffffc36011261017857600160406020926004358152808452200154604051908152f35b82346101785760407ffffffffffffffffffffffffffffffffffffffffffffffffffffffffffffffffc3601126101785760406120cf612274565b916004358152600560205281812067ffffffffffffffff8094168252602052209081549161215373ffffffffffffffffffffffffffffffffffffffff600261211960018501612352565b93015416916fffffffffffffffffffffffffffffffff6040519586958116865260401c166020850152608060408501526080840190612416565b9060608301520390f35b823461017857807ffffffffffffffffffffffffffffffffffffffffffffffffffffffffffffffffc3601126101785760206040517f6b9d9d2f5dd823efdbdb13807dfebdffd61f705a62db526abe9ca3b9863ba5398152f35b83903461031a5760207ffffffffffffffffffffffffffffffffffffffffffffffffffffffffffffffffc36011261031a576004357fffffffff000000000000000000000000000000000000000000000000000000008116809103611a7957602092507f7965db0b00000000000000000000000000000000000000000000000000000000811490811561224a575b5015158152f35b7f01ffc9a70000000000000000000000000000000000000000000000000000000091501483612243565b6024359067ffffffffffffffff821682036109b357565b6044359067ffffffffffffffff821682036109b357565b90600182811c921680156122eb575b60208310146122bc57565b7f4e487b7100000000000000000000000000000000000000000000000000000000600052602260045260246000fd5b91607f16916122b1565b6040810190811067ffffffffffffffff82111761105857604052565b90601f7fffffffffffffffffffffffffffffffffffffffffffffffffffffffffffffffe0910116810190811067ffffffffffffffff82111761105857604052565b90604051918260008254612365816122a2565b908184526020946001916001811690816000146123d55750600114612396575b50505061239492500383612311565b565b600090815285812095935091905b8183106123bd5750506123949350820101388080612385565b855488840185015294850194879450918301916123a4565b9150506123949593507fffffffffffffffffffffffffffffffffffffffffffffffffffffffffffffff0091501682840152151560051b820101388080612385565b919082519283825260005b8481106124605750507fffffffffffffffffffffffffffffffffffffffffffffffffffffffffffffffe0601f8460006020809697860101520116010190565b602081830181015184830182015201612421565b6024359073ffffffffffffffffffffffffffffffffffffffff821682036109b357565b604435906fffffffffffffffffffffffffffffffff821682036109b357565b9181601f840112156109b35782359167ffffffffffffffff83116109b357602083818601950101116109b357565b919091805483101561250757600052601860206000208360021c019260031b1690565b7f4e487b7100000000000000000000000000000000000000000000000000000000600052603260045260246000fd5b6024359081151582036109b357565b7fffffffffffffffffffffffffffffffffffffffffffffffffffffffffffffffff81146125725760010190565b7f4e487b7100000000000000000000000000000000000000000000000000000000600052601160045260246000fd5b92919267ffffffffffffffff821161105857604051916125e960207fffffffffffffffffffffffffffffffffffffffffffffffffffffffffffffffe0601f8401160184612311565b8294818452818301116109b3578281602093846000960137010152565b90601f811161261457505050565b6000916000526020600020906020601f850160051c83019410612652575b601f0160051c01915b82811061264757505050565b81815560010161263b565b9092508290612632565b601f82602094937fffffffffffffffffffffffffffffffffffffffffffffffffffffffffffffffe0938186528686013760008582860101520116010190565b3360009081527ff414bc69fdbf2d66dcdbbec6e7cd81b5887e790e8555934e2208a607c7adfeb260205260409020547f6b9d9d2f5dd823efdbdb13807dfebdffd61f705a62db526abe9ca3b9863ba5399060ff16156126f75750565b604490604051907fe2517d3f0000000000000000000000000000000000000000000000000000000082523360048301526024820152fd5b3360009081527ff2d002f32e1e256ea1e928747b1832023316be30886ca415b888f7c67dd776c360205260409020547f2172861495e7b85edac73e3cd5fbb42dd675baadf627720e687bcfdaca0250969060ff16156126f75750565b80600052600060205260406000203360005260205260ff60406000205416156126f75750565b73ffffffffffffffffffffffffffffffffffffffff1660008181527fda6c2b477a8433f69bdb531148b0cabd4d7be7b100b25ee4626488642d8a435660205260408120549091907f1c676e852adc9569a8624bc5d314ca5108185265cfcc675f31d0fb60d328c5929060ff166128885780835282602052604083208284526020526040832060017fffffffffffffffffffffffffffffffffffffffffffffffffffffffffffffff008254161790557f2f8788117e7eff1d82e926ec794901d17c78024a50270940304540a733656f0d339380a4600190565b505090565b906000918083528260205273ffffffffffffffffffffffffffffffffffffffff6040842092169182845260205260ff604084205416156000146128885780835282602052604083208284526020526040832060017fffffffffffffffffffffffffffffffffffffffffffffffffffffffffffffff008254161790557f2f8788117e7eff1d82e926ec794901d17c78024a50270940304540a733656f0d339380a4600190565b73ffffffffffffffffffffffffffffffffffffffff1660008181527fda6c2b477a8433f69bdb531148b0cabd4d7be7b100b25ee4626488642d8a435660205260408120549091907f1c676e852adc9569a8624bc5d314ca5108185265cfcc675f31d0fb60d328c5929060ff1615612888578083528260205260408320828452602052604083207fffffffffffffffffffffffffffffffffffffffffffffffffffffffffffffff0081541690557ff6391f5c32d9c69d2a47ea670b442974b53935d1edc7fd64eb21e047a839171b339380a4600190565b906000918083528260205273ffffffffffffffffffffffffffffffffffffffff6040842092169182845260205260ff604084205416600014612888578083528260205260408320828452602052604083207fffffffffffffffffffffffffffffffffffffffffffffffffffffffffffffff0081541690557ff6391f5c32d9c69d2a47ea670b442974b53935d1edc7fd64eb21e047a839171b339380a4600190565b60ff8114612aff5760ff811690601f8211612ad55760405191612acb836122f5565b8252602082015290565b60046040517fb3512b0c000000000000000000000000000000000000000000000000000000008152fd5b50604051600081600191600154612b15816122a2565b8084529360209160018116908115612ba25750600114612b41575b5050612b3e92500382612311565b90565b91509260016000527fb10e2d527612073b26eecdfd717e6a320cf44b4afac2b0732d9fcbe2b7fa0cf6936000925b828410612b8a5750612b3e9450505081016020013880612b30565b85548785018301529485019486945092810192612b6f565b905060209350612b3e9592507fffffffffffffffffffffffffffffffffffffffffffffffffffffffffffffff0091501682840152151560051b8201013880612b30565b60ff8114612c075760ff811690601f8211612ad55760405191612acb836122f5565b50604051600254816000612c1a836122a2565b80835292602090600190818116908115612ba25750600114612c44575050612b3e92500382612311565b91509260026000527f405787fa12a823e0f2b7631cc41b3ba8828b3321ca811111fa75cd3aa3bb5ace936000925b828410612c8d5750612b3e9450505081016020013880612b30565b85548785018301529485019486945092810192612c72565b8151919060418303612cd657612ccf92506020820151906060604084015193015160001a90612f00565b9192909190565b505060009160029190565b6004811015612d995780612cf3575050565b60018103612d255760046040517ff645eedf000000000000000000000000000000000000000000000000000000008152fd5b60028103612d5e57602482604051907ffce698f70000000000000000000000000000000000000000000000000000000082526004820152fd5b600314612d685750565b602490604051907fd78bce0c0000000000000000000000000000000000000000000000000000000082526004820152fd5b7f4e487b7100000000000000000000000000000000000000000000000000000000600052602160045260246000fd5b73ffffffffffffffffffffffffffffffffffffffff7f000000000000000000000000000000000000000000000000000000000000000016301480612ed7575b15612e30577f000000000000000000000000000000000000000000000000000000000000000090565b60405160208101907f8b73c3c69bb8fe3d512ecc4cf759cc79239f7b179b0ffacaa9a75d522b39400f82527f000000000000000000000000000000000000000000000000000000000000000060408201527f000000000000000000000000000000000000000000000000000000000000000060608201524660808201523060a082015260a0815260c0810181811067ffffffffffffffff8211176110585760405251902090565b507f00000000000000000000000000000000000000000000000000000000000000004614612e07565b91907f7fffffffffffffffffffffffffffffff5d576e7357a4501ddfe92f46681b20a08411612f9157926020929160ff608095604051948552168484015260408301526060820152600092839182805260015afa15612f8557805173ffffffffffffffffffffffffffffffffffffffff811615612f7c57918190565b50809160019190565b604051903d90823e3d90fd5b5050506000916003919056fea2646970667358221220be9eb4e1f9f02e521c248176e36d4d92526107771bc5eeb5e0ec088be7c009c364736f6c634300081800332f8788117e7eff1d82e926ec794901d17c78024a50270940304540a733656f0d","linkReferences":{}},"methodIdentifiers":{"DEFAULT_ADMIN_ROLE()":"a217fddf","ROLE_ADMIN()":"d391014b","ROLE_FEED()":"6f09401f","ROLE_TREASURER()":"05bcf817","USD_SCALE()":"f96d0baa","addLot(bytes9,uint64,uint64,uint128,string,string)":"51ac0cc0","eip712Domain()":"84b0196e","getRoleAdmin(bytes32)":"248a9ca3","grantRole(bytes32,address)":"2f2ff15d","hasRole(bytes32,address)":"91d14854","lastLotId()":"6a52bd45","lots(uint256)":"f1648e84","markTimes(uint256,uint256)":"bdd7c6ea","marksByTime(uint256,uint64)":"1db6ccaa","renounceRole(bytes32,address)":"36568abe","reserveVault()":"cef062fc","revokeRole(bytes32,address)":"d547741f","setFeed(address,bool)":"c7c73cd4","setReserveManager(address)":"df7da754","submitMark(uint256,uint64,uint128,string,bytes)":"9ff90a0a","supportsInterface(bytes4)":"01ffc9a7","syncAllToReserve(bytes32,uint256,uint64)":"38944f55","updateLot(uint256,bool,uint128,string,string)":"d0862936"},"id":70}