{
  "_format": "hh-sol-artifact-1",
  "contractName": "CourtOrderRegistryUpgradeable",
  "sourceName": "contracts/controller/CourtOrderRegistryUpgradeable.sol",
  "abi": [
    {
      "inputs": [],
      "name": "AccessControlBadConfirmation",
      "type": "error"
    },
    {
      "inputs": [
        {
          "internalType": "address",
          "name": "account",
          "type": "address"
        },
        {
          "internalType": "bytes32",
          "name": "neededRole",
          "type": "bytes32"
        }
      ],
      "name": "AccessControlUnauthorizedAccount",
      "type": "error"
    },
    {
      "inputs": [
        {
          "internalType": "address",
          "name": "target",
          "type": "address"
        }
      ],
      "name": "AddressEmptyCode",
      "type": "error"
    },
    {
      "inputs": [
        {
          "internalType": "address",
          "name": "implementation",
          "type": "address"
        }
      ],
      "name": "ERC1967InvalidImplementation",
      "type": "error"
    },
    {
      "inputs": [],
      "name": "ERC1967NonPayable",
      "type": "error"
    },
    {
      "inputs": [],
      "name": "FailedCall",
      "type": "error"
    },
    {
      "inputs": [],
      "name": "InvalidInitialization",
      "type": "error"
    },
    {
      "inputs": [],
      "name": "NotInitializing",
      "type": "error"
    },
    {
      "inputs": [],
      "name": "UUPSUnauthorizedCallContext",
      "type": "error"
    },
    {
      "inputs": [
        {
          "internalType": "bytes32",
          "name": "slot",
          "type": "bytes32"
        }
      ],
      "name": "UUPSUnsupportedProxiableUUID",
      "type": "error"
    },
    {
      "anonymous": false,
      "inputs": [
        {
          "indexed": true,
          "internalType": "address",
          "name": "token",
          "type": "address"
        },
        {
          "indexed": false,
          "internalType": "bool",
          "name": "frozen",
          "type": "bool"
        }
      ],
      "name": "GlobalFreezeSet",
      "type": "event"
    },
    {
      "anonymous": false,
      "inputs": [
        {
          "indexed": false,
          "internalType": "uint64",
          "name": "version",
          "type": "uint64"
        }
      ],
      "name": "Initialized",
      "type": "event"
    },
    {
      "anonymous": false,
      "inputs": [
        {
          "indexed": true,
          "internalType": "bytes32",
          "name": "id",
          "type": "bytes32"
        },
        {
          "indexed": false,
          "internalType": "bool",
          "name": "active",
          "type": "bool"
        }
      ],
      "name": "OrderSet",
      "type": "event"
    },
    {
      "anonymous": false,
      "inputs": [
        {
          "indexed": true,
          "internalType": "bytes32",
          "name": "role",
          "type": "bytes32"
        },
        {
          "indexed": true,
          "internalType": "bytes32",
          "name": "previousAdminRole",
          "type": "bytes32"
        },
        {
          "indexed": true,
          "internalType": "bytes32",
          "name": "newAdminRole",
          "type": "bytes32"
        }
      ],
      "name": "RoleAdminChanged",
      "type": "event"
    },
    {
      "anonymous": false,
      "inputs": [
        {
          "indexed": true,
          "internalType": "bytes32",
          "name": "role",
          "type": "bytes32"
        },
        {
          "indexed": true,
          "internalType": "address",
          "name": "account",
          "type": "address"
        },
        {
          "indexed": true,
          "internalType": "address",
          "name": "sender",
          "type": "address"
        }
      ],
      "name": "RoleGranted",
      "type": "event"
    },
    {
      "anonymous": false,
      "inputs": [
        {
          "indexed": true,
          "internalType": "bytes32",
          "name": "role",
          "type": "bytes32"
        },
        {
          "indexed": true,
          "internalType": "address",
          "name": "account",
          "type": "address"
        },
        {
          "indexed": true,
          "internalType": "address",
          "name": "sender",
          "type": "address"
        }
      ],
      "name": "RoleRevoked",
      "type": "event"
    },
    {
      "anonymous": false,
      "inputs": [
        {
          "indexed": true,
          "internalType": "address",
          "name": "implementation",
          "type": "address"
        }
      ],
      "name": "Upgraded",
      "type": "event"
    },
    {
      "inputs": [],
      "name": "DEFAULT_ADMIN_ROLE",
      "outputs": [
        {
          "internalType": "bytes32",
          "name": "",
          "type": "bytes32"
        }
      ],
      "stateMutability": "view",
      "type": "function"
    },
    {
      "inputs": [],
      "name": "GOVERNOR_ROLE",
      "outputs": [
        {
          "internalType": "bytes32",
          "name": "",
          "type": "bytes32"
        }
      ],
      "stateMutability": "view",
      "type": "function"
    },
    {
      "inputs": [],
      "name": "UPGRADE_INTERFACE_VERSION",
      "outputs": [
        {
          "internalType": "string",
          "name": "",
          "type": "string"
        }
      ],
      "stateMutability": "view",
      "type": "function"
    },
    {
      "inputs": [
        {
          "internalType": "bytes32",
          "name": "",
          "type": "bytes32"
        }
      ],
      "name": "activeOrder",
      "outputs": [
        {
          "internalType": "bool",
          "name": "",
          "type": "bool"
        }
      ],
      "stateMutability": "view",
      "type": "function"
    },
    {
      "inputs": [
        {
          "internalType": "bytes32",
          "name": "role",
          "type": "bytes32"
        }
      ],
      "name": "getRoleAdmin",
      "outputs": [
        {
          "internalType": "bytes32",
          "name": "",
          "type": "bytes32"
        }
      ],
      "stateMutability": "view",
      "type": "function"
    },
    {
      "inputs": [
        {
          "internalType": "address",
          "name": "token",
          "type": "address"
        }
      ],
      "name": "globalFreeze",
      "outputs": [
        {
          "internalType": "bool",
          "name": "",
          "type": "bool"
        }
      ],
      "stateMutability": "view",
      "type": "function"
    },
    {
      "inputs": [
        {
          "internalType": "bytes32",
          "name": "role",
          "type": "bytes32"
        },
        {
          "internalType": "address",
          "name": "account",
          "type": "address"
        }
      ],
      "name": "grantRole",
      "outputs": [],
      "stateMutability": "nonpayable",
      "type": "function"
    },
    {
      "inputs": [
        {
          "internalType": "bytes32",
          "name": "role",
          "type": "bytes32"
        },
        {
          "internalType": "address",
          "name": "account",
          "type": "address"
        }
      ],
      "name": "hasRole",
      "outputs": [
        {
          "internalType": "bool",
          "name": "",
          "type": "bool"
        }
      ],
      "stateMutability": "view",
      "type": "function"
    },
    {
      "inputs": [
        {
          "internalType": "address",
          "name": "admin",
          "type": "address"
        },
        {
          "internalType": "address",
          "name": "governor",
          "type": "address"
        }
      ],
      "name": "initialize",
      "outputs": [],
      "stateMutability": "nonpayable",
      "type": "function"
    },
    {
      "inputs": [
        {
          "internalType": "bytes32",
          "name": "orderId",
          "type": "bytes32"
        }
      ],
      "name": "isActive",
      "outputs": [
        {
          "internalType": "bool",
          "name": "",
          "type": "bool"
        }
      ],
      "stateMutability": "view",
      "type": "function"
    },
    {
      "inputs": [],
      "name": "proxiableUUID",
      "outputs": [
        {
          "internalType": "bytes32",
          "name": "",
          "type": "bytes32"
        }
      ],
      "stateMutability": "view",
      "type": "function"
    },
    {
      "inputs": [
        {
          "internalType": "bytes32",
          "name": "role",
          "type": "bytes32"
        },
        {
          "internalType": "address",
          "name": "callerConfirmation",
          "type": "address"
        }
      ],
      "name": "renounceRole",
      "outputs": [],
      "stateMutability": "nonpayable",
      "type": "function"
    },
    {
      "inputs": [
        {
          "internalType": "bytes32",
          "name": "role",
          "type": "bytes32"
        },
        {
          "internalType": "address",
          "name": "account",
          "type": "address"
        }
      ],
      "name": "revokeRole",
      "outputs": [],
      "stateMutability": "nonpayable",
      "type": "function"
    },
    {
      "inputs": [
        {
          "internalType": "address",
          "name": "token",
          "type": "address"
        },
        {
          "internalType": "bool",
          "name": "on",
          "type": "bool"
        }
      ],
      "name": "setGlobalFreeze",
      "outputs": [],
      "stateMutability": "nonpayable",
      "type": "function"
    },
    {
      "inputs": [
        {
          "internalType": "bytes32",
          "name": "id",
          "type": "bytes32"
        },
        {
          "internalType": "bool",
          "name": "on",
          "type": "bool"
        }
      ],
      "name": "setOrder",
      "outputs": [],
      "stateMutability": "nonpayable",
      "type": "function"
    },
    {
      "inputs": [
        {
          "internalType": "bytes4",
          "name": "interfaceId",
          "type": "bytes4"
        }
      ],
      "name": "supportsInterface",
      "outputs": [
        {
          "internalType": "bool",
          "name": "",
          "type": "bool"
        }
      ],
      "stateMutability": "view",
      "type": "function"
    },
    {
      "inputs": [
        {
          "internalType": "address",
          "name": "",
          "type": "address"
        }
      ],
      "name": "tokenGlobalFreeze",
      "outputs": [
        {
          "internalType": "bool",
          "name": "",
          "type": "bool"
        }
      ],
      "stateMutability": "view",
      "type": "function"
    },
    {
      "inputs": [
        {
          "internalType": "address",
          "name": "newImplementation",
          "type": "address"
        },
        {
          "internalType": "bytes",
          "name": "data",
          "type": "bytes"
        }
      ],
      "name": "upgradeToAndCall",
      "outputs": [],
      "stateMutability": "payable",
      "type": "function"
    }
  ],
  "bytecode": "0x60a0806040523461002a5730608052610ddb9081610030823960805181818161038b01526104900152f35b600080fdfe608060408181526004918236101561001657600080fd5b600092833560e01c91826301ffc9a7146108df575081630cd24aa514610342578163248a9ca3146108a75781632f2ff15d1461087d57816336568abe146108375781633ecd37b0146107d0578163485cc955146106875781634f1ef286146104135781634f8a0bfb146103ea57816352d1902d1461036e5781635c36901c1461034257816391d14854146102ef578163a217fddf146102d4578163ad3cb1cc14610235578163ccc57490146101fa578163d547741f146101a957508063d60dc34d146101295763d89ededb146100eb57600080fd5b346101255760203660031901126101255760ff816020936001600160a01b0361011261094d565b1681526001855220541690519015158152f35b5080fd5b50346101255780600319360112610125577f985a5959e6a4e963520a84c0ca8e59cf07727095efb1301a8138e1396a7ae479602061016561094d565b6001600160a01b03610175610963565b9161017e6109c6565b16938486526001835261019f828288209060ff801983541691151516179055565b519015158152a280f35b919050346101f657806003193601126101f6576101f291356101ed60016101ce610932565b93838752600080516020610d8683398151915260205286200154610a40565b610c5d565b5080f35b8280fd5b505034610125578160031936011261012557602090517f7935bd0ae54bc31f548c14dba4d37c5c64b3f8ca900cb468fb8abd54d5894f558152f35b9050346101f657826003193601126101f6578151908282019082821067ffffffffffffffff8311176102c15750825260058152602090640352e302e360dc1b6020820152825193849260208452825192836020860152825b8481106102ab57505050828201840152601f01601f19168101030190f35b818101830151888201880152879550820161028d565b634e487b7160e01b855260419052602484fd5b50503461012557816003193601126101255751908152602090f35b9050346101f657816003193601126101f6578160209360ff92610310610932565b90358252600080516020610d8683398151915286526001600160a01b0383832091168252855220541690519015158152f35b9050346101f65760203660031901126101f6578160209360ff9235815280855220541690519015158152f35b8284346103e757806003193601126103e757506001600160a01b037f00000000000000000000000000000000000000000000000000000000000000001630036103da57602090517f360894a13ba1a3210667c828492db98dca3e2076cc3735a920a3ca505d382bbc8152f35b5163703e46dd60e11b8152fd5b80fd5b5050346101255760203660031901126101255760ff816020936001600160a01b0361011261094d565b918091506003193601126101f65761042961094d565b90602493843567ffffffffffffffff811161012557366023820112156101255780850135610456816109aa565b9461046385519687610972565b81865260209182870193368a8383010111610683578186928b8693018737880101526001600160a01b03807f000000000000000000000000000000000000000000000000000000000000000016803014908115610655575b50610645576104c86109c6565b81169585516352d1902d60e01b815283818a818b5afa869181610612575b50610502575050505050505191634c9c8ce360e01b8352820152fd5b9088888894938c7f360894a13ba1a3210667c828492db98dca3e2076cc3735a920a3ca505d382bbc918281036105fd5750853b156105e95750805473ffffffffffffffffffffffffffffffffffffffff1916821790558451889392917fbc7cd75a20ee27fd9adebab32041f755214dbc6bffa90cc0225b39da2e5c2d3b8580a28251156105cb5750506101f29582915190845af4913d156105c1573d6105b36105aa826109aa565b92519283610972565b81528581943d92013e610d22565b5060609250610d22565b9550955050505050346105dd57505080f35b63b398979f60e01b8152fd5b8651634c9c8ce360e01b8152808501849052fd5b8751632a87526960e21b815280860191909152fd5b9091508481813d831161063e575b61062a8183610972565b8101031261063a575190386104e6565b8680fd5b503d610620565b855163703e46dd60e11b81528890fd5b9050817f360894a13ba1a3210667c828492db98dca3e2076cc3735a920a3ca505d382bbc54161415386104bb565b8580fd5b9050346101f657816003193601126101f6576106a161094d565b906106aa610932565b7ff0c57e16840df040f15088dc2f81fe391c3923bec73e23a9662efc9c229c6a0092835460ff81871c16159367ffffffffffffffff8216801590816107c8575b60011490816107be575b1590816107b5575b506107a7575067ffffffffffffffff198116600117855561073e92916107389185610788575b5061072b610ce1565b610733610ce1565b610a73565b50610b13565b50610747578280f35b805468ff00000000000000001916905551600181527fc7f505b2f371ae2175ee4913f4499e1f2633a7b5936321eed1cdaeb6115181d290602090a138808280f35b68ffffffffffffffffff19166801000000000000000117865538610722565b865163f92ee8a960e01b8152fd5b905015386106fc565b303b1591506106f4565b8691506106ea565b9050346101f657816003193601126101f65760207fa0b40329e09c3c4b5693e6a4042f51e778d625def4509c1a23adbd35eea2a402913592610810610963565b906108196109c6565b84865285835261019f828288209060ff801983541691151516179055565b838334610125578060031936011261012557610851610932565b90336001600160a01b0383160361086e57506101f2919235610c5d565b5163334bd91960e11b81528390fd5b919050346101f657806003193601126101f6576101f291356108a260016101ce610932565b610bd5565b9050346101f65760203660031901126101f65781602093600192358152600080516020610d8683398151915285522001549051908152f35b8491346101f65760203660031901126101f6573563ffffffff60e01b81168091036101f65760209250637965db0b60e01b8114908115610921575b5015158152f35b6301ffc9a760e01b1490508361091a565b602435906001600160a01b038216820361094857565b600080fd5b600435906001600160a01b038216820361094857565b60243590811515820361094857565b90601f8019910116810190811067ffffffffffffffff82111761099457604052565b634e487b7160e01b600052604160045260246000fd5b67ffffffffffffffff811161099457601f01601f191660200190565b3360009081527f75e09417c5070057df3eafe5054d52fa0b2a87d64a235e197963b615aedee80360205260409020547f7935bd0ae54bc31f548c14dba4d37c5c64b3f8ca900cb468fb8abd54d5894f559060ff1615610a225750565b6044906040519063e2517d3f60e01b82523360048301526024820152fd5b80600052600080516020610d8683398151915260205260406000203360005260205260ff6040600020541615610a225750565b6001600160a01b031660008181527fb7db2dd08fcb62d0c9e08c51941cae53c267786a0b75803fb7960902fc8ef97d6020526040812054909190600080516020610d868339815191529060ff16610b0e578280526020526040822081835260205260408220600160ff1982541617905533917f2f8788117e7eff1d82e926ec794901d17c78024a50270940304540a733656f0d8180a4600190565b505090565b6001600160a01b031660008181527f75e09417c5070057df3eafe5054d52fa0b2a87d64a235e197963b615aedee80360205260408120549091907f7935bd0ae54bc31f548c14dba4d37c5c64b3f8ca900cb468fb8abd54d5894f5590600080516020610d868339815191529060ff16610bcf578184526020526040832082845260205260408320600160ff198254161790557f2f8788117e7eff1d82e926ec794901d17c78024a50270940304540a733656f0d339380a4600190565b50505090565b90600091808352600080516020610d86833981519152806020526001600160a01b036040852093169283855260205260ff60408520541615600014610bcf578184526020526040832082845260205260408320600160ff198254161790557f2f8788117e7eff1d82e926ec794901d17c78024a50270940304540a733656f0d339380a4600190565b90600091808352600080516020610d86833981519152806020526001600160a01b036040852093169283855260205260ff604085205416600014610bcf57818452602052604083208284526020526040832060ff1981541690557ff6391f5c32d9c69d2a47ea670b442974b53935d1edc7fd64eb21e047a839171b339380a4600190565b60ff7ff0c57e16840df040f15088dc2f81fe391c3923bec73e23a9662efc9c229c6a005460401c1615610d1057565b604051631afcd79f60e31b8152600490fd5b90610d495750805115610d3757602081519101fd5b60405163d6bda27560e01b8152600490fd5b81511580610d7c575b610d5a575090565b604051639996b31560e01b81526001600160a01b039091166004820152602490fd5b50803b15610d5256fe02dd7bc7dec4dceedda775e58dd541e08a116c6c53815c0bd028192f7b626800a26469706673582212201748bcb4206786b2a2dd60ea39f982a26c5f704af69f058b6e18efee9d38fb1e64736f6c63430008180033",
  "linkReferences": {},
  "deployedLinkReferences": {}
}