{"abi":[{"type":"constructor","inputs":[{"name":"_admin","type":"address","internalType":"address"}],"stateMutability":"nonpayable"},{"type":"function","name":"admin","inputs":[],"outputs":[{"name":"","type":"address","internalType":"address"}],"stateMutability":"view"},{"type":"function","name":"compliance","inputs":[],"outputs":[{"name":"","type":"address","internalType":"contract IComplianceRegistry"}],"stateMutability":"view"},{"type":"function","name":"configureExample","inputs":[],"outputs":[],"stateMutability":"nonpayable"},{"type":"function","name":"deployAll","inputs":[],"outputs":[],"stateMutability":"nonpayable"},{"type":"function","name":"insurance","inputs":[],"outputs":[{"name":"","type":"address","internalType":"contract InsurancePolicyNFT"}],"stateMutability":"view"},{"type":"function","name":"oracle","inputs":[],"outputs":[{"name":"","type":"address","internalType":"contract IAttestationOracle"}],"stateMutability":"view"},{"type":"function","name":"reserves","inputs":[],"outputs":[{"name":"","type":"address","internalType":"contract IProofOfReserves"}],"stateMutability":"view"},{"type":"function","name":"sblc","inputs":[],"outputs":[{"name":"","type":"address","internalType":"contract SBLC721"}],"stateMutability":"view"},{"type":"function","name":"security","inputs":[],"outputs":[{"name":"","type":"address","internalType":"contract RWASecurityToken"}],"stateMutability":"view"},{"type":"function","name":"surety","inputs":[],"outputs":[{"name":"","type":"address","internalType":"contract SuretyBondNFT"}],"stateMutability":"view"},{"type":"function","name":"vault","inputs":[],"outputs":[{"name":"","type":"address","internalType":"contract RWAVaultNFT"}],"stateMutability":"view"}],"bytecode":{"object":"0x60a0346100b057601f620123b838819003918201601f19168301916001600160401b038311848410176100b5578084926020946040528339810103126100b057516001600160a01b0381168082036100b0571561008157608052604051620122ec9081620000cc823960805181818161014b015281816101bf01526108b60152f35b60405162461bcd60e51b8152602060048201526007602482015266061646d696e3d360cc1b6044820152606490fd5b600080fd5b634e487b7160e01b600052604160045260246000fdfe604060808152600490813610156200001657600080fd5b600091823560e01c9081632d823335146200086a5781635487991814620008165781636290865d14620007c357816375172a8b146200076e5781637dc0d1d0146200071957816389cf320414620006c45781638c317ec1146200066f5781638c5810d8146200061a578163bb62e3c2146200016f57508063f851a44014620000ff5763fbfa77cf14620000a857600080fd5b34620000fb57817ffffffffffffffffffffffffffffffffffffffffffffffffffffffffffffffffc360112620000fb5760209073ffffffffffffffffffffffffffffffffffffffff600354169051908152f35b5080fd5b5034620000fb57817ffffffffffffffffffffffffffffffffffffffffffffffffffffffffffffffffc360112620000fb576020905173ffffffffffffffffffffffffffffffffffffffff7f0000000000000000000000000000000000000000000000000000000000000000168152f35b83915034620000fb57817ffffffffffffffffffffffffffffffffffffffffffffffffffffffffffffffffc360112620000fb5773ffffffffffffffffffffffffffffffffffffffff92620001e7847f000000000000000000000000000000000000000000000000000000000000000016331462000d72565b8383541615620005bd57805167ffffffffffffffff9060808101828111828210176200058f5783526003815260603660208301376001620002288262000e1c565b5280516001101562000561576002838201528051600210156200056157600360608201528560015416803b156200055d5785845180927f296a8eff000000000000000000000000000000000000000000000000000000008252818381620002c87fae02881b2f73eae226bad7ddac5a8faa68b5a6e0ca834c12342dccd380b12d4998898d8401526002602484015260606044840152606483019062000e59565b03925af18015620005535790869162000537575b505082519083820182811084821117620005095784526001825260203681840137868554166200030c8362000e1c565b52866002541690813b1562000505579186916200036d938387518096819582947f9dd8388d0000000000000000000000000000000000000000000000000000000084528c840152610123602484015260606044840152606483019062000e59565b03925af18015620004fb57908591620004df575b505081519260c084019584871083881117620004b15785968452600185526020850190868252848601938042168552606087019088825260808801917f5553000000000000000000000000000000000000000000000000000000000000835260a08901938a85528a541694853b15620004ad578a9783918a519b8c997f4f4d0bae000000000000000000000000000000000000000000000000000000008b528a01610456905251151560248a015251151560448901525116606487015251166084850152517fffff0000000000000000000000000000000000000000000000000000000000001660a484015251151560c483015281835a9260e493f1908115620004a457506200048e5750f35b620004999062000dd8565b620004a15780f35b80fd5b513d84823e3d90fd5b8a80fd5b6041827f4e487b71000000000000000000000000000000000000000000000000000000006000525260246000fd5b620004ea9062000dd8565b620004f757838662000381565b8380fd5b83513d87823e3d90fd5b8680fd5b6041867f4e487b71000000000000000000000000000000000000000000000000000000006000525260246000fd5b620005429062000dd8565b6200054f578487620002dc565b8480fd5b84513d88823e3d90fd5b8580fd5b6032847f4e487b71000000000000000000000000000000000000000000000000000000006000525260246000fd5b6041857f4e487b71000000000000000000000000000000000000000000000000000000006000525260246000fd5b90602060649251917f08c379a0000000000000000000000000000000000000000000000000000000008352820152600c60248201527f6e6f74206465706c6f79656400000000000000000000000000000000000000006044820152fd5b505034620000fb57817ffffffffffffffffffffffffffffffffffffffffffffffffffffffffffffffffc360112620000fb5760209073ffffffffffffffffffffffffffffffffffffffff600554169051908152f35b505034620000fb57817ffffffffffffffffffffffffffffffffffffffffffffffffffffffffffffffffc360112620000fb5760209073ffffffffffffffffffffffffffffffffffffffff600654169051908152f35b505034620000fb57817ffffffffffffffffffffffffffffffffffffffffffffffffffffffffffffffffc360112620000fb5760209073ffffffffffffffffffffffffffffffffffffffff600754169051908152f35b505034620000fb57817ffffffffffffffffffffffffffffffffffffffffffffffffffffffffffffffffc360112620000fb5760209073ffffffffffffffffffffffffffffffffffffffff600154169051908152f35b505034620000fb57817ffffffffffffffffffffffffffffffffffffffffffffffffffffffffffffffffc360112620000fb5760209073ffffffffffffffffffffffffffffffffffffffff600254169051908152f35b505034620000fb57817ffffffffffffffffffffffffffffffffffffffffffffffffffffffffffffffffc360112620000fb5773ffffffffffffffffffffffffffffffffffffffff60209254169051908152f35b828434620004a157807ffffffffffffffffffffffffffffffffffffffffffffffffffffffffffffffffc360112620004a1575073ffffffffffffffffffffffffffffffffffffffff60209254169051908152f35b9190503462000d6e57827ffffffffffffffffffffffffffffffffffffffffffffffffffffffffffffffffc36011262000d6e5773ffffffffffffffffffffffffffffffffffffffff90817f00000000000000000000000000000000000000000000000000000000000000001692620008e484331462000d72565b8285541662000d12578151611e8c9081810167ffffffffffffffff928282108483111762000ce6579180918995949362000ea68339039084f0801562000cdc578516957fffffffffffffffffffffffff0000000000000000000000000000000000000000968088865416178555803b156200054f5784865180927fc4d66de800000000000000000000000000000000000000000000000000000000825284878301528160249889925af1801562000c105762000cc6575b508451926115ad808501908582108583111762000c9b5790859162005ed1833983815260209586910301908af0801562000c10578716600154818a8216176001558751916110ce91828401928484108885111762000c7057918d8b949286946200747e86398884521617888201520301908af0801562000c1057871688600254161760025585516128d5808201908282108683111762000c1a57869183916200854c83398581520301908af0801562000c1057871688600354161760035586895416865190611e1190818301918383108784111762000c455791839161012093620104a6843960a08252600c60a08301527f525741205365637572697479000000000000000000000000000000000000000060c083015260e089830152600760e08301527f5257412d53454300000000000000000000000000000000000000000000000000610100830152868b83015260608201527f58e2c6baf68a999a765b093cbafb628e0fa6e47d4bfbd5039ce947043f0ac0aa60808201520301908af0801562000c10578716888254161781558551612ea8808201908282108683111762000c1a57869183916200d5fe83398581520301908af0801562000c1057871688600554161760055585516127dd808201908282108683111762000c1a57869183916200ae2183398581520301908af0801562000c1057871688600654161760065585519461319f91828701948786109086111762000be65750509084929162002d328439815203019085f090811562000bdd57501690600754161760075580f35b513d85823e3d90fd5b60418b917f4e487b7100000000000000000000000000000000000000000000000000000000835252fd5b86513d8b823e3d90fd5b878c6041867f4e487b7100000000000000000000000000000000000000000000000000000000835252fd5b888d6041877f4e487b7100000000000000000000000000000000000000000000000000000000835252fd5b898e6041887f4e487b7100000000000000000000000000000000000000000000000000000000835252fd5b868b6041857f4e487b7100000000000000000000000000000000000000000000000000000000835252fd5b62000cd49098919862000dd8565b96386200099b565b84513d85823e3d90fd5b6024896041877f4e487b7100000000000000000000000000000000000000000000000000000000835252fd5b602060649251917f08c379a0000000000000000000000000000000000000000000000000000000008352820152601060248201527f616c7265616479206465706c6f796564000000000000000000000000000000006044820152fd5b8280fd5b1562000d7a57565b60646040517f08c379a000000000000000000000000000000000000000000000000000000000815260206004820152600a60248201527f6f6e6c792061646d696e000000000000000000000000000000000000000000006044820152fd5b67ffffffffffffffff811162000ded57604052565b7f4e487b7100000000000000000000000000000000000000000000000000000000600052604160045260246000fd5b80511562000e2a5760200190565b7f4e487b7100000000000000000000000000000000000000000000000000000000600052603260045260246000fd5b90815180825260208080930193019160005b82811062000e7a575050505090565b835173ffffffffffffffffffffffffffffffffffffffff168552938101939281019260010162000e6b56fe60a0806040523461002a5730608052611e5c90816100308239608051818181610b8f0152610f920152f35b600080fdfe6080604081815260048036101561001557600080fd5b600092833560e01c90816301ffc9a71461141057508063248a9ca3146113a95780632e72ce53146113595780632f2ff15d1461131257806336568abe146112875780634f1ef28614610eeb5780634f4d0bae14610c0757806352d1902d14610b475780636272364414610aee57806375b238fc14610a9557806391d1485414610a06578063a217fddf146109cd578063a7cd52cb14610966578063aac507d61461069d578063ad3cb1cc14610592578063b12527f8146104c7578063bbe15627146103f9578063c4d66de81461023e578063d547741f146101c25763ddbfd8ef146100ff57600080fd5b346101be5760207ffffffffffffffffffffffffffffffffffffffffffffffffffffffffffffffffc3601126101be5761014092829135815280602052205460ff90818184519482821615158652828260081c1615156020870152828260101c16151581870152828260181c1615156060870152828260201c1615156080870152828260281c16151560a0870152828260301c16151560c0870152828260381c16151560e08701521c16151561010084015260481c161515610120820152f35b8280fd5b5090346101be57807ffffffffffffffffffffffffffffffffffffffffffffffffffffffffffffffffc3601126101be5761023a913561023560016102046114f5565b938387527f02dd7bc7dec4dceedda775e58dd541e08a116c6c53815c0bd028192f7b6268006020528620015461198b565b611c6c565b5080f35b50346101be5760207ffffffffffffffffffffffffffffffffffffffffffffffffffffffffffffffffc3601126101be576102766114cd565b907ff0c57e16840df040f15088dc2f81fe391c3923bec73e23a9662efc9c229c6a0091825460ff81861c16159267ffffffffffffffff8216801590816103f1575b60011490816103e7575b1590816103de575b506103b7575090818360017fffffffffffffffffffffffffffffffffffffffffffffffff00000000000000006103229516178655610382575b5061030b611d2d565b610313611d2d565b61031c816119d0565b50611aa8565b5061032b578280f35b7fc7f505b2f371ae2175ee4913f4499e1f2633a7b5936321eed1cdaeb6115181d291817fffffffffffffffffffffffffffffffffffffffffffffff00ffffffffffffffff602093541690555160018152a138808280f35b7fffffffffffffffffffffffffffffffffffffffffffffff000000000000000000166801000000000000000117845538610302565b85517ff92ee8a9000000000000000000000000000000000000000000000000000000008152fd5b905015386102c9565b303b1591506102c1565b8591506102b7565b5050346104c35760207ffffffffffffffffffffffffffffffffffffffffffffffffffffffffffffffffc3601126104c35760ff8160c09373ffffffffffffffffffffffffffffffffffffffff61044d6114cd565b1681526001602052205467ffffffffffffffff83519383831615158552838360081c1615156020860152818360101c16908501528160501c1660608401527fffff0000000000000000000000000000000000000000000000000000000000008160601b16608084015260a01c16151560a0820152f35b5080fd5b5050346104c357807ffffffffffffffffffffffffffffffffffffffffffffffffffffffffffffffffc3601126104c3577fff571df7d74779bb3bc4c418144ed2539441681cec39b558e6639f5faefc069560206105226114cd565b73ffffffffffffffffffffffffffffffffffffffff61053f6115c2565b916105486118f8565b169384865260028352610588828288209060ff7fffffffffffffffffffffffffffffffffffffffffffffffffffffffffffffff0083541691151516179055565b519015158152a280f35b50346101be57827ffffffffffffffffffffffffffffffffffffffffffffffffffffffffffffffffc3601126101be578151908282019082821067ffffffffffffffff83111761067157508252600581526020907f352e302e300000000000000000000000000000000000000000000000000000006020820152825193849260208452825192836020860152825b84811061065b57505050828201840152601f017fffffffffffffffffffffffffffffffffffffffffffffffffffffffffffffffe0168101030190f35b818101830151888201880152879550820161061f565b8460416024927f4e487b7100000000000000000000000000000000000000000000000000000000835252fd5b50346101be576101607ffffffffffffffffffffffffffffffffffffffffffffffffffffffffffffffffc3601126101be573590610140807fffffffffffffffffffffffffffffffffffffffffffffffffffffffffffffffdc360112610962576107046118f8565b828452836020528184209161074b61071a6118cb565b849060ff7fffffffffffffffffffffffffffffffffffffffffffffffffffffffffffffff0083541691151516179055565b6107896107566118da565b84547fffffffffffffffffffffffffffffffffffffffffffffffffffffffffffff00ff1690151560081b61ff0016178455565b6064359283151580940361095e578054906084359485151580960361095a5760a435958615158097036109565765ff00000000006107c56118e9565b151560281b169660e4359182151580930361095257610104359384151580950361094e57610124359586151580970361094a576101443597881515809903610946577f962b110c8e970cd9ed91440ec38c72af20bc987cb0acf1f487c45fe2f280a7ad9b7fffffffffffffffffffffffffffffffffffffffffffff00ffffffffffffffffff69ff0000000000000000008b60481b16927fffffffffffffffffffffffffffffffffffffffffffffff00000000000000ffff7fffffffffffffffffffffffffffffffffffffffffffffff00ffffffffffffffff62ff00008860101b16169116171663ff0000008660181b161764ff000000008760201b16171766ff0000000000008760301b161767ff000000000000008860381b161768ff0000000000000000898c1b16171790558751976108fd6115c2565b151589526109096115d1565b151560208a0152880152606087015260808601526109256115e0565b151560a086015260c085015260e0840152610100830152610120820152a280f35b8d80fd5b8c80fd5b8b80fd5b8a80fd5b8880fd5b8780fd5b8580fd5b8380fd5b5050346104c35760207ffffffffffffffffffffffffffffffffffffffffffffffffffffffffffffffffc3601126104c35760ff8160209373ffffffffffffffffffffffffffffffffffffffff6109ba6114cd565b1681526002855220541690519015158152f35b5050346104c357817ffffffffffffffffffffffffffffffffffffffffffffffffffffffffffffffffc3601126104c35751908152602090f35b50346101be57817ffffffffffffffffffffffffffffffffffffffffffffffffffffffffffffffffc3601126101be578160209360ff92610a446114f5565b903582527f02dd7bc7dec4dceedda775e58dd541e08a116c6c53815c0bd028192f7b626800865273ffffffffffffffffffffffffffffffffffffffff83832091168252855220541690519015158152f35b5050346104c357817ffffffffffffffffffffffffffffffffffffffffffffffffffffffffffffffffc3601126104c357602090517fa49807205ce4d355092ef5a8a18f56e8913cf4a201fbe287825b095693c217758152f35b5050346104c357817ffffffffffffffffffffffffffffffffffffffffffffffffffffffffffffffffc3601126104c357602090517fa7e0cd0f2772b23ee4c329892293a6bd99d48c306b094d6d008c9a8bb8b731e48152f35b509134610c0457807ffffffffffffffffffffffffffffffffffffffffffffffffffffffffffffffffc360112610c04575073ffffffffffffffffffffffffffffffffffffffff7f0000000000000000000000000000000000000000000000000000000000000000163003610bde57602090517f360894a13ba1a3210667c828492db98dca3e2076cc3735a920a3ca505d382bbc8152f35b517fe07c8dba000000000000000000000000000000000000000000000000000000008152fd5b80fd5b50346101be5760e07ffffffffffffffffffffffffffffffffffffffffffffffffffffffffffffffffc3601126101be57610c3f6114cd565b9060c07fffffffffffffffffffffffffffffffffffffffffffffffffffffffffffffffdc360112610962577fa7e0cd0f2772b23ee4c329892293a6bd99d48c306b094d6d008c9a8bb8b731e48085527f02dd7bc7dec4dceedda775e58dd541e08a116c6c53815c0bd028192f7b62680060205283852033865260205260ff848620541615610eb557505073ffffffffffffffffffffffffffffffffffffffff1690818352600160205280832090610d28610cf76118cb565b839060ff7fffffffffffffffffffffffffffffffffffffffffffffffffffffffffffffff0083541691151516179055565b610d66610d336118da565b83547fffffffffffffffffffffffffffffffffffffffffffffffffffffffffffff00ff1690151560081b61ff0016178355565b6064359067ffffffffffffffff9182811693848203610eb157805494608435948516918286036109565760a435937fffff0000000000000000000000000000000000000000000000000000000000008516948581036109525773ffff00000000000000000000000000000000000060c09871ffffffffffffffff000000000000000000007f92cc05d31dffe5b7804268a724fec372d9ea7600315f459c88f843ae8c7d516a9b7fffffffffffffffffffffff00000000000000000000000000000000000000ffff69ffffffffffffffff000074ff0000000000000000000000000000000000000000610e566118e9565b151560a01b169760101b169116179160501b16179160601c1617179055835193610e7e6115c2565b15158552610e8a6115d1565b1515602086015284015260608301526080820152610ea66115e0565b151560a0820152a280f35b8680fd5b604492508351917fe2517d3f00000000000000000000000000000000000000000000000000000000835233908301526024820152fd5b5090807ffffffffffffffffffffffffffffffffffffffffffffffffffffffffffffffffc3601126101be57610f1e6114cd565b90602493843567ffffffffffffffff81116104c357366023820112156104c35780850135610f4b81611588565b94610f5885519687611518565b81865260209182870193368a838301011161095e578186928b86930187378801015273ffffffffffffffffffffffffffffffffffffffff807f000000000000000000000000000000000000000000000000000000000000000016803014908115611259575b50611231578480527f02dd7bc7dec4dceedda775e58dd541e08a116c6c53815c0bd028192f7b6268008352858520338652835260ff8686205416156111fc5781169585517f52d1902d00000000000000000000000000000000000000000000000000000000815283818a818b5afa8691816111cd575b506110685750505050505051917f4c9c8ce3000000000000000000000000000000000000000000000000000000008352820152fd5b9088888894938c7f360894a13ba1a3210667c828492db98dca3e2076cc3735a920a3ca505d382bbc918281036111a05750853b15611173575080547fffffffffffffffffffffffff000000000000000000000000000000000000000016821790558451889392917fbc7cd75a20ee27fd9adebab32041f755214dbc6bffa90cc0225b39da2e5c2d3b8580a282511561113c57505061023a9582915190845af4913d15611132573d61112461111b82611588565b92519283611518565b81528581943d92013e611d86565b5060609250611d86565b95509550505050503461114e57505080f35b7fb398979f000000000000000000000000000000000000000000000000000000008152fd5b83838851917f4c9c8ce3000000000000000000000000000000000000000000000000000000008352820152fd5b84908851917faa1d49a4000000000000000000000000000000000000000000000000000000008352820152fd5b9091508481813d83116111f5575b6111e58183611518565b81010312610eb157519038611033565b503d6111db565b604488868b8951927fe2517d3f0000000000000000000000000000000000000000000000000000000084523390840152820152fd5b8786517fe07c8dba000000000000000000000000000000000000000000000000000000008152fd5b9050817f360894a13ba1a3210667c828492db98dca3e2076cc3735a920a3ca505d382bbc5416141538610fbd565b509190346104c357807ffffffffffffffffffffffffffffffffffffffffffffffffffffffffffffffffc3601126104c3576112c06114f5565b903373ffffffffffffffffffffffffffffffffffffffff8316036112ea575061023a919235611c6c565b8390517f6697b232000000000000000000000000000000000000000000000000000000008152fd5b5090346101be57807ffffffffffffffffffffffffffffffffffffffffffffffffffffffffffffffffc3601126101be5761023a913561135460016102046114f5565b611ba7565b5050346104c357807ffffffffffffffffffffffffffffffffffffffffffffffffffffffffffffffffc3601126104c3576020906113a06113976114cd565b602435906115ef565b90519015158152f35b50346101be5760207ffffffffffffffffffffffffffffffffffffffffffffffffffffffffffffffffc3601126101be57816020936001923581527f02dd7bc7dec4dceedda775e58dd541e08a116c6c53815c0bd028192f7b62680085522001549051908152f35b925050346101be5760207ffffffffffffffffffffffffffffffffffffffffffffffffffffffffffffffffc3601126101be57357fffffffff0000000000000000000000000000000000000000000000000000000081168091036101be57602092507f7965db0b0000000000000000000000000000000000000000000000000000000081149081156114a3575b5015158152f35b7f01ffc9a7000000000000000000000000000000000000000000000000000000009150143861149c565b6004359073ffffffffffffffffffffffffffffffffffffffff821682036114f057565b600080fd5b6024359073ffffffffffffffffffffffffffffffffffffffff821682036114f057565b90601f7fffffffffffffffffffffffffffffffffffffffffffffffffffffffffffffffe0910116810190811067ffffffffffffffff82111761155957604052565b7f4e487b7100000000000000000000000000000000000000000000000000000000600052604160045260246000fd5b67ffffffffffffffff811161155957601f017fffffffffffffffffffffffffffffffffffffffffffffffffffffffffffffffe01660200190565b6024359081151582036114f057565b6044359081151582036114f057565b60c4359081151582036114f057565b73ffffffffffffffffffffffffffffffffffffffff16906000918083526020916002835260ff916040918383872054166118c0578552848452818520825167ffffffffffffffff9291610140820184811183821017611893578552549480861615158252808660081c1615158783015284820194818760101c16151586526060830193828860181c161515855282888a1c1615156080850152828860281c16151560a0850152828860301c16151560c0850152828860381c16151560e0850152826101008501988181851c1615158a5260481c1615156101208501528952600188528089209080519160c0830183811088821117611866579060a09183525496848816159283158552858960081c16159b8c1590860152818960101c16908501528760501c16938460608501527fffff0000000000000000000000000000000000000000000000000000000000008860601b1697886080860152821c161592831591829101529161185e575b5061185457801515908161184a575b50611841577f5553000000000000000000000000000000000000000000000000000000000000831461182d575b507f4742000000000000000000000000000000000000000000000000000000000000821461181a575b507f534700000000000000000000000000000000000000000000000000000000000014611809575b505115159081611801575b506117fe5750600190565b90565b9050386117f3565b511561181557386117e8565b505090565b511561182657386117c0565b5050505090565b51156118395738611797565b505050505090565b50505050505090565b905042113861176a565b5050505050505090565b90503861175b565b60248c7f4e487b710000000000000000000000000000000000000000000000000000000081526041600452fd5b6024897f4e487b710000000000000000000000000000000000000000000000000000000081526041600452fd5b505050505050600190565b60243580151581036114f05790565b60443580151581036114f05790565b60c43580151581036114f05790565b3360009081527fb16e88c42fd4e48df2dd6a2eabd6bc9aec654ec170056b470819f8892cc6431c60205260409020547fa49807205ce4d355092ef5a8a18f56e8913cf4a201fbe287825b095693c217759060ff16156119545750565b604490604051907fe2517d3f0000000000000000000000000000000000000000000000000000000082523360048301526024820152fd5b806000527f02dd7bc7dec4dceedda775e58dd541e08a116c6c53815c0bd028192f7b62680060205260406000203360005260205260ff60406000205416156119545750565b73ffffffffffffffffffffffffffffffffffffffff1660008181527fb7db2dd08fcb62d0c9e08c51941cae53c267786a0b75803fb7960902fc8ef97d60205260408120549091907f02dd7bc7dec4dceedda775e58dd541e08a116c6c53815c0bd028192f7b6268009060ff1661181557828052602052604082208183526020526040822060017fffffffffffffffffffffffffffffffffffffffffffffffffffffffffffffff0082541617905533917f2f8788117e7eff1d82e926ec794901d17c78024a50270940304540a733656f0d8180a4600190565b73ffffffffffffffffffffffffffffffffffffffff1660008181527fb16e88c42fd4e48df2dd6a2eabd6bc9aec654ec170056b470819f8892cc6431c60205260408120549091907fa49807205ce4d355092ef5a8a18f56e8913cf4a201fbe287825b095693c21775907f02dd7bc7dec4dceedda775e58dd541e08a116c6c53815c0bd028192f7b6268009060ff16611ba157818452602052604083208284526020526040832060017fffffffffffffffffffffffffffffffffffffffffffffffffffffffffffffff008254161790557f2f8788117e7eff1d82e926ec794901d17c78024a50270940304540a733656f0d339380a4600190565b50505090565b906000918083527f02dd7bc7dec4dceedda775e58dd541e08a116c6c53815c0bd028192f7b6268008060205273ffffffffffffffffffffffffffffffffffffffff6040852093169283855260205260ff60408520541615600014611ba157818452602052604083208284526020526040832060017fffffffffffffffffffffffffffffffffffffffffffffffffffffffffffffff008254161790557f2f8788117e7eff1d82e926ec794901d17c78024a50270940304540a733656f0d339380a4600190565b906000918083527f02dd7bc7dec4dceedda775e58dd541e08a116c6c53815c0bd028192f7b6268008060205273ffffffffffffffffffffffffffffffffffffffff6040852093169283855260205260ff604085205416600014611ba15781845260205260408320828452602052604083207fffffffffffffffffffffffffffffffffffffffffffffffffffffffffffffff0081541690557ff6391f5c32d9c69d2a47ea670b442974b53935d1edc7fd64eb21e047a839171b339380a4600190565b60ff7ff0c57e16840df040f15088dc2f81fe391c3923bec73e23a9662efc9c229c6a005460401c1615611d5c57565b60046040517fd7e6bcf8000000000000000000000000000000000000000000000000000000008152fd5b90611dc55750805115611d9b57805190602001fd5b60046040517f1425ea42000000000000000000000000000000000000000000000000000000008152fd5b81511580611e1d575b611dd6575090565b60249073ffffffffffffffffffffffffffffffffffffffff604051917f9996b315000000000000000000000000000000000000000000000000000000008352166004820152fd5b50803b15611dce56fea2646970667358221220c10d2e34a599d7ec6803e8df5334965a10b9013a2c696b11611d9cf2b55b00f164736f6c634300081800336080346200037c57601f1990601f906001600160401b036200319f38819003848101861684018381118582101762000366578492829160405283396020938491810103126200037c5751926001600160a01b03841684036200037c576200006562000381565b92601084526f496e737572616e636520506f6c69637960801b818501526200008c62000381565b906006825265494e5355524560d01b8183015284519684881162000366576000978854966001978881811c911680156200035b575b858210146200034757908187849311620002f4575b50849087831160011462000293578b9262000287575b5050600019600383901b1c191690871b1788555b8251948511620002735785548681811c9116801562000268575b8382101462000254578481116200020c575b5081938511600114620001a357505090829162000186969262000197575b5050600019600383901b1c191690821b1790555b60ff19600754166007556200017381620003a1565b506200017f8162000444565b50620004e2565b50604051612bfe9081620005818239f35b0151905038806200014a565b8588528188209497908816915b828210620001f4575050918493918762000186989410620001da575b505050811b0190556200015e565b015160001960f88460031b161c19169055388080620001cc565b808786978294978701518155019601940190620001b0565b8689528289208580880160051c8201928589106200024a575b0160051c019087905b8281106200023e5750506200012c565b8a81550187906200022e565b9250819262000225565b634e487b7160e01b89526022600452602489fd5b90607f16906200011a565b634e487b7160e01b88526041600452602488fd5b015190503880620000ec565b90848a9416918c8052868d20928d5b88828210620002dd5750508411620002c3575b505050811b01885562000100565b015160001960f88460031b161c19169055388080620002b5565b8385015186558d97909501949384019301620002a2565b9091508a8052848b208780850160051c8201928786106200033d575b918b91869594930160051c01915b8281106200032e575050620000d6565b8d81558594508b91016200031e565b9250819262000310565b634e487b7160e01b8b52602260045260248bfd5b90607f1690620000c1565b634e487b7160e01b600052604160045260246000fd5b600080fd5b60408051919082016001600160401b038111838210176200036657604052565b6001600160a01b031660008181527f31f4bc5980931cfff8fcc0887a354f492c853dee1983bdef4d9cb3e8a5ff876e60205260408120549091907fdf8b4c520ffe197c5343c6f5aec59570151ef9a492f2c624fd45ddde6135ec429060ff166200043f5780835260066020526040832082845260205260408320600160ff198254161790556000805160206200317f833981519152339380a4600190565b505090565b6001600160a01b031660008181527fc0c6dd4f7aedf943ac46b952a0594f795b891c30544bfc4cb4ae23b82a4d909b60205260408120549091907f76afa8a5929fef1b4c03674b2152ae5aaad1d974b8a4021c59477bcc846ccc1e9060ff166200043f5780835260066020526040832082845260205260408320600160ff198254161790556000805160206200317f833981519152339380a4600190565b6001600160a01b031660008181527fba39d2e119d4075e56dadcfd5cd5b862305d2c4d32649e4866948958647d49cf60205260408120549091907f8b5b16d04624687fcf0d0228f19993c9157c1ed07b41d8d430fd9100eb099fe89060ff166200043f5780835260066020526040832082845260205260408320600160ff198254161790556000805160206200317f833981519152339380a460019056fe6080604052600436101561001257600080fd5b60003560e01c806298b37914611d9a57806301ffc9a714611c7757806306fdde0314611bae578063081812fc14611b72578063095ea7b314611a1457806323b872dd146119fd578063248a9ca3146119b05780632f2ff15d1461195357806336568abe146118c95780633f4ba83a1461180b57806342842e0e146117dd5780635c975abb1461179c5780636352211e1461174257806369879f43146116b457806370a082311461161857806378cdd588146110065780638456cb5914610f7057806391d1485414610ef757806395d89b4114610dd8578063a217fddf14610d9e578063a22cb46514610c99578063a3a5dcf614610645578063b88d4fde146105bc578063bef98d9d146104fc578063c87b56dd14610487578063d3e8948314610402578063d547741f146103a3578063e985e9c514610321578063eaab2c3f146102d75763f894160e1461016557600080fd5b346102d25760407ffffffffffffffffffffffffffffffffffffffffffffffffffffffffffffffffc3601126102d257602435600435600052602090600a825260406000209081548110156102d2576101bc9161224f565b50805490600167ffffffffffffffff60018301541690600283019085604051926000928154916101eb8361229a565b80875292600181169081156102925750600114610258575b505050508161021a61024f9361024493038261219d565b600460ff60038701541695015493604051978897885287015260a0604087015260a0860190612023565b9260608501906122ed565b60808301520390f35b6000908152838120939450925b82841061027f575050508201018561021a83610244610203565b8054868501860152928401928101610265565b7fffffffffffffffffffffffffffffffffffffffffffffffffffffffffffffff001685880152505050151560051b83010190508561021a83610244610203565b600080fd5b346102d25760207ffffffffffffffffffffffffffffffffffffffffffffffffffffffffffffffffc3601126102d257600435600052600b6020526020604060002054604051908152f35b346102d25760407ffffffffffffffffffffffffffffffffffffffffffffffffffffffffffffffffc3601126102d257610358612081565b6103606120a4565b9073ffffffffffffffffffffffffffffffffffffffff809116600052600560205260406000209116600052602052602060ff604060002054166040519015158152f35b346102d25760407ffffffffffffffffffffffffffffffffffffffffffffffffffffffffffffffffc3601126102d2576104006004356103e06120a4565b908060005260066020526103fb6001604060002001546127ef565b612958565b005b346102d25760207ffffffffffffffffffffffffffffffffffffffffffffffffffffffffffffffffc3601126102d257600435600052600960205260a0604060002060ff815491600260018201549101549067ffffffffffffffff90604051948552602085015280821660408501528160401c16606084015260801c1615156080820152f35b346102d25760207ffffffffffffffffffffffffffffffffffffffffffffffffffffffffffffffffc3601126102d2576104c160043561284b565b5060006040516104d081612181565b526104f86040516104e081612181565b60008152604051918291602083526020830190612023565b0390f35b346102d25760407ffffffffffffffffffffffffffffffffffffffffffffffffffffffffffffffffc3601126102d2576004357fcf60b536196d555e04ffb5cff8f6c45650258cbd8f1344f104201e20cbf004af6020610559612127565b610561612700565b6000848152600983526040902060020180547fffffffffffffffffffffffffffffff00ffffffffffffffffffffffffffffffff1682151560801b70ff00000000000000000000000000000000161790556040519015158152a2005b346102d25760807ffffffffffffffffffffffffffffffffffffffffffffffffffffffffffffffffc3601126102d2576105f3612081565b6105fb6120a4565b906044356064359267ffffffffffffffff84116102d257366023850112156102d257610634610400943690602481600401359101612218565b9261064083838361249e565b6129fb565b346102d25760607ffffffffffffffffffffffffffffffffffffffffffffffffffffffffffffffffc3601126102d25767ffffffffffffffff60246044358281116102d257366023820112156102d2578060040135908382116102d257368383830101116102d2576106b4612815565b6040517f6352211e00000000000000000000000000000000000000000000000000000000815260043560048201526020818581305afa60009181610c48575b50610756576064846009604051917f08c379a0000000000000000000000000000000000000000000000000000000008352602060048401528201527f6e6f20706f6c69637900000000000000000000000000000000000000000000006044820152fd5b73ffffffffffffffffffffffffffffffffffffffff809116338114918215610c2f575b508115610c0a575b5015610bac576107938335151561235f565b6004356000526009602052604060002060028101546107b760ff8260801c166122fa565b858082164210159182610b9c575b505015610b3e576107f490600435600052600b6020526107eb60406000205486356123c4565b905410156123d1565b600435600052600a602052604060002080549461082e6040519361081785612136565b863585526020850195834216875287369201612218565b916040840192835260608401926001918285526000608087015268010000000000000000891015610b10578861086891848201815561224f565b969096610ae25785518755838388019151167fffffffffffffffffffffffffffffffffffffffffffffffff0000000000000000825416179055518051928311610ab4576108b8600287015461229a565b601f8111610a66575b50602090601f84116001146109be57600091849182610993575b50507fffffffffffffffffffffffffffffffffffffffffffffffffffffffffffffffff91921b9260031b1c19161760028401555b5160068110156109655760049161092b60809260038601612436565b01519101556040519182523560208201527e16b36dc742e36d40c93764b5d2448ab23f153dbfde9a2e22261968924f511e604060043592a2005b837f4e487b710000000000000000000000000000000000000000000000000000000060005260216004526000fd5b015191507fffffffffffffffffffffffffffffffffffffffffffffffffffffffffffffffff8a6108db565b907fffffffffffffffffffffffffffffffffffffffffffffffffffffffffffffffe08493941691600288016000528360206000209360005b87828210610a4d57505010610a16575b505050811b01600284015561090f565b01517fffffffffffffffffffffffffffffffffffffffffffffffffffffffffffffffff60f88460031b161c19169055878080610a06565b84860151875590950194602094850194879350016109f6565b600287016000526020600020601f850160051c81019160208610610aaa575b601f0160051c019083905b828110610a9e5750506108c1565b60008155018390610a90565b9091508190610a85565b867f4e487b710000000000000000000000000000000000000000000000000000000060005260416004526000fd5b877f4e487b710000000000000000000000000000000000000000000000000000000060005260006004526000fd5b877f4e487b710000000000000000000000000000000000000000000000000000000060005260416004526000fd5b606484600d604051917f08c379a0000000000000000000000000000000000000000000000000000000008352602060048401528201527f6e6f7420696e20656666656374000000000000000000000000000000000000006044820152fd5b60401c16421115905085876107c5565b6064836011604051917f08c379a0000000000000000000000000000000000000000000000000000000008352602060048401528201527f6e6f7420706f6c69637920686f6c6465720000000000000000000000000000006044820152fd5b9050600052600560205260406000203360005260205260ff6040600020541685610781565b9091503390610c3f60043561246d565b16149086610779565b9091506020813d602011610c91575b81610c646020938361219d565b810103126102d2575173ffffffffffffffffffffffffffffffffffffffff811681036102d25790866106f3565b3d9150610c57565b346102d25760407ffffffffffffffffffffffffffffffffffffffffffffffffffffffffffffffffc3601126102d257610cd0612081565b73ffffffffffffffffffffffffffffffffffffffff610ced612127565b9116908115610d6d573360005260056020526040600020826000526020526040600020901515907fffffffffffffffffffffffffffffffffffffffffffffffffffffffffffffff0081541660ff83161790556040519081527f17307eab39ab6107e8899845ad3d59bd9653f200f220920489ca2b5937696c3160203392a3005b602482604051907f5b08ba180000000000000000000000000000000000000000000000000000000082526004820152fd5b346102d25760007ffffffffffffffffffffffffffffffffffffffffffffffffffffffffffffffffc3601126102d257602060405160008152f35b346102d25760007ffffffffffffffffffffffffffffffffffffffffffffffffffffffffffffffffc3601126102d257604051600060018260015492610e1c8461229a565b9283835260209485600182169182600014610eb9575050600114610e5c575b50610e489250038361219d565b6104f8604051928284938452830190612023565b84915060016000527fb10e2d527612073b26eecdfd717e6a320cf44b4afac2b0732d9fcbe2b7fa0cf6906000915b858310610ea1575050610e48935082010185610e3b565b80548389018501528794508693909201918101610e8a565b7fffffffffffffffffffffffffffffffffffffffffffffffffffffffffffffff001685820152610e4895151560051b8501019250879150610e3b9050565b346102d25760407ffffffffffffffffffffffffffffffffffffffffffffffffffffffffffffffffc3601126102d257610f2e6120a4565b600435600052600660205273ffffffffffffffffffffffffffffffffffffffff60406000209116600052602052602060ff604060002054166040519015158152f35b346102d25760007ffffffffffffffffffffffffffffffffffffffffffffffffffffffffffffffffc3601126102d257610fa7612793565b610faf612815565b60017fffffffffffffffffffffffffffffffffffffffffffffffffffffffffffffff0060075416176007557f62e78cea01bee320cd4e420270b5ea74000d11b0c9f74754ebdbfc544b05a2586020604051338152a1005b346102d25760a07ffffffffffffffffffffffffffffffffffffffffffffffffffffffffffffffffc3601126102d25761103d612081565b60249081356044356064359367ffffffffffffffff8086168096036102d257608435948186168096036102d2573360009081527fc0c6dd4f7aedf943ac46b952a0594f795b891c30544bfc4cb4ae23b82a4d909b60209081526040909120549097907f76afa8a5929fef1b4c03674b2152ae5aaad1d974b8a4021c59477bcc846ccc1e9060ff16156115e257506110d2612815565b8681101561158557600854927fffffffffffffffffffffffffffffffffffffffffffffffffffffffffffffffff93848114611557579060016111e693920198899182600855600260405161112581612136565b8b81528d6009818301918d8352604084019889526060840196875260808401976001895260005252604060002091518255516001820155019351167fffffffffffffffffffffffffffffffff000000000000000000000000000000006fffffffffffffffff00000000000000008554935160401b169216171782555115157fffffffffffffffffffffffffffffff00ffffffffffffffffffffffffffffffff70ff00000000000000000000000000000000835492151560801b169116179055565b604051906111f382612181565b6000825273ffffffffffffffffffffffffffffffffffffffff92838216938415611527578489918260005260028c526040600020541680151593846114d5575b508160005260038c526040600020600181540190558260005260028c526040600020827fffffffffffffffffffffffff00000000000000000000000000000000000000008254161790557fddf252ad1be2c89b69c2b068fc378daa952ba7f163c4a11628f55a4df523b3ef600080a46114a5573b6112e7575b505050604083927f1ecff895f616217e21a16c9da1bafce0314f24fa81cf272c22349b5c7b371b5092825191825286820152a2604051908152f35b60409694929695939195518581806113407f150b7a02000000000000000000000000000000000000000000000000000000009586835233600484015260008d840152896044840152608060648401526084830190612023565b038160008b5af16000918161144d575b506113c3578787873d156113bc573d611368816121de565b90611376604051928361219d565b81523d60008383013e5b805191826113b957505050604051907f64a0ae920000000000000000000000000000000000000000000000000000000082526004820152fd5b01fd5b6060611380565b7fffffffff00000000000000000000000000000000000000000000000000000000909793959796929496160361141f575060409050827f1ecff895f616217e21a16c9da1bafce0314f24fa81cf272c22349b5c7b371b506112ac565b604051907f64a0ae920000000000000000000000000000000000000000000000000000000082526004820152fd5b9091508681813d831161149e575b611465818361219d565b810103126102d257517fffffffff00000000000000000000000000000000000000000000000000000000811681036102d2579089611350565b503d61145b565b836040517f73c6ac6e00000000000000000000000000000000000000000000000000000000815260006004820152fd5b61150e84600052600460205260406000207fffffffffffffffffffffffff00000000000000000000000000000000000000008154169055565b8160005260038d5260406000209081540190558c611233565b856040517f64a0ae9200000000000000000000000000000000000000000000000000000000815260006004820152fd5b857f4e487b710000000000000000000000000000000000000000000000000000000060005260116004526000fd5b606488600986604051927f08c379a000000000000000000000000000000000000000000000000000000000845260048401528201527f62616420646174657300000000000000000000000000000000000000000000006044820152fd5b84604491604051917fe2517d3f000000000000000000000000000000000000000000000000000000008352336004840152820152fd5b346102d25760207ffffffffffffffffffffffffffffffffffffffffffffffffffffffffffffffffc3601126102d25773ffffffffffffffffffffffffffffffffffffffff611664612081565b1680156116835760005260036020526020604060002054604051908152f35b60246040517f89c62b6400000000000000000000000000000000000000000000000000000000815260006004820152fd5b346102d25760207ffffffffffffffffffffffffffffffffffffffffffffffffffffffffffffffffc3601126102d2576004356000526009602052604060002054600b602052604060002054810390811161171357602090604051908152f35b7f4e487b7100000000000000000000000000000000000000000000000000000000600052601160045260246000fd5b346102d25760207ffffffffffffffffffffffffffffffffffffffffffffffffffffffffffffffffc3601126102d257602061177e60043561284b565b73ffffffffffffffffffffffffffffffffffffffff60405191168152f35b346102d25760007ffffffffffffffffffffffffffffffffffffffffffffffffffffffffffffffffc3601126102d257602060ff600754166040519015158152f35b346102d2576104006117ee366120c7565b90604051926117fc84612181565b6000845261064083838361249e565b346102d25760007ffffffffffffffffffffffffffffffffffffffffffffffffffffffffffffffffc3601126102d257611842612793565b60075460ff81161561189f577fffffffffffffffffffffffffffffffffffffffffffffffffffffffffffffff00166007557f5db9ee0a495bf2e6ff9c91a7834c1ba4fdd244a5e8aa4e537bd38aeae4b073aa6020604051338152a1005b60046040517f8dfc202b000000000000000000000000000000000000000000000000000000008152fd5b346102d25760407ffffffffffffffffffffffffffffffffffffffffffffffffffffffffffffffffc3601126102d2576119006120a4565b3373ffffffffffffffffffffffffffffffffffffffff8216036119295761040090600435612958565b60046040517f6697b232000000000000000000000000000000000000000000000000000000008152fd5b346102d25760407ffffffffffffffffffffffffffffffffffffffffffffffffffffffffffffffffc3601126102d2576104006004356119906120a4565b908060005260066020526119ab6001604060002001546127ef565b6128ac565b346102d25760207ffffffffffffffffffffffffffffffffffffffffffffffffffffffffffffffffc3601126102d25760043560005260066020526020600160406000200154604051908152f35b346102d257610400611a0e366120c7565b9161249e565b346102d25760407ffffffffffffffffffffffffffffffffffffffffffffffffffffffffffffffffc3601126102d257611a4b612081565b602435611a578161284b565b33151580611b52575b80611b17575b611ae757819073ffffffffffffffffffffffffffffffffffffffff809416938491167f8c5be1e5ebec7d5bd14f71427d1e84f3dd0314c0f7b2291e5b200ac8c7c3b925600080a460005260046020526040600020907fffffffffffffffffffffffff0000000000000000000000000000000000000000825416179055600080f35b60246040517fa9fbf51f000000000000000000000000000000000000000000000000000000008152336004820152fd5b5073ffffffffffffffffffffffffffffffffffffffff8116600052600560205260406000203360005260205260ff6040600020541615611a66565b503373ffffffffffffffffffffffffffffffffffffffff82161415611a60565b346102d25760207ffffffffffffffffffffffffffffffffffffffffffffffffffffffffffffffffc3601126102d257602061177e60043561246d565b346102d25760007ffffffffffffffffffffffffffffffffffffffffffffffffffffffffffffffffc3601126102d257604051600080549082611bef8361229a565b9182825260209360019085600182169182600014610eb9575050600114611c1d5750610e489250038361219d565b6000808052859250907f290decd9548b62a8d60345a988386fc84ba6bc95484008f6362f93160ef3e5635b858310611c5f575050610e48935082010185610e3b565b80548389018501528794508693909201918101611c48565b346102d25760207ffffffffffffffffffffffffffffffffffffffffffffffffffffffffffffffffc3601126102d2576004357fffffffff0000000000000000000000000000000000000000000000000000000081168091036102d257807f7965db0b0000000000000000000000000000000000000000000000000000000060209214908115611d0c575b506040519015158152f35b7f80ac58cd00000000000000000000000000000000000000000000000000000000811491508115611d70575b8115611d46575b5082611d01565b7f01ffc9a70000000000000000000000000000000000000000000000000000000091501482611d3f565b7f5b5e139f0000000000000000000000000000000000000000000000000000000081149150611d38565b346102d25760807ffffffffffffffffffffffffffffffffffffffffffffffffffffffffffffffffc3601126102d25760043560243560443560068110156102d257606435611de6612700565b611dee612815565b83600052602090600982526040600020611e1160ff600283015460801c166122fa565b85600052600a8352604060002054851015611fc55785600052600a8352611e3c85604060002061224f565b5090600382019260ff8454166006811015611f9657600514611f385785611ea9948982957fabb642d862da81928d52f6af51c57ac89a0e964c3b401beb18e7cd2ee2ee801c9a9895611e9c95600560409c14611eac575b50505050612436565b84519384528301906122ed565ba2005b8060047fc924f7d4b202a644b3425a0d1a284d3124e9bd83af2189d9930c9fdc80fe55bb94611efe8f9584151580611f2d575b611ee89061235f565b88600052600b8d526107eb8760002054866123c4565b015583600052600b885281600020611f178282546123c4565b90558151908b825288820152a2898b8080611e93565b508254851115611edf565b606485604051907f08c379a00000000000000000000000000000000000000000000000000000000082526004820152600c60248201527f616c7265616479207061696400000000000000000000000000000000000000006044820152fd5b7f4e487b7100000000000000000000000000000000000000000000000000000000600052602160045260246000fd5b606483604051907f08c379a00000000000000000000000000000000000000000000000000000000082526004820152600f60248201527f62616420636c61696d20696e64657800000000000000000000000000000000006044820152fd5b919082519283825260005b84811061206d5750507fffffffffffffffffffffffffffffffffffffffffffffffffffffffffffffffe0601f8460006020809697860101520116010190565b60208183018101518483018201520161202e565b6004359073ffffffffffffffffffffffffffffffffffffffff821682036102d257565b6024359073ffffffffffffffffffffffffffffffffffffffff821682036102d257565b7ffffffffffffffffffffffffffffffffffffffffffffffffffffffffffffffffc60609101126102d25773ffffffffffffffffffffffffffffffffffffffff9060043582811681036102d2579160243590811681036102d2579060443590565b6024359081151582036102d257565b60a0810190811067ffffffffffffffff82111761215257604052565b7f4e487b7100000000000000000000000000000000000000000000000000000000600052604160045260246000fd5b6020810190811067ffffffffffffffff82111761215257604052565b90601f7fffffffffffffffffffffffffffffffffffffffffffffffffffffffffffffffe0910116810190811067ffffffffffffffff82111761215257604052565b67ffffffffffffffff811161215257601f017fffffffffffffffffffffffffffffffffffffffffffffffffffffffffffffffe01660200190565b929192612224826121de565b91612232604051938461219d565b8294818452818301116102d2578281602093846000960137010152565b805482101561226b576000526005602060002091020190600090565b7f4e487b7100000000000000000000000000000000000000000000000000000000600052603260045260246000fd5b90600182811c921680156122e3575b60208310146122b457565b7f4e487b7100000000000000000000000000000000000000000000000000000000600052602260045260246000fd5b91607f16916122a9565b906006821015611f965752565b1561230157565b60646040517f08c379a000000000000000000000000000000000000000000000000000000000815260206004820152600a60248201527f6e6f7420616374697665000000000000000000000000000000000000000000006044820152fd5b1561236657565b60646040517f08c379a000000000000000000000000000000000000000000000000000000000815260206004820152600e60248201527f696e76616c696420616d6f756e740000000000000000000000000000000000006044820152fd5b9190820180921161171357565b156123d857565b60646040517f08c379a000000000000000000000000000000000000000000000000000000000815260206004820152601060248201527f6578636565647320636f766572616765000000000000000000000000000000006044820152fd5b906006811015611f965760ff7fffffffffffffffffffffffffffffffffffffffffffffffffffffffffffffff008354169116179055565b6124768161284b565b50600052600460205273ffffffffffffffffffffffffffffffffffffffff6040600020541690565b909173ffffffffffffffffffffffffffffffffffffffff8093169283156126cf57600092828452826020956002875260409684888820541696879133151580612607575b509060027fddf252ad1be2c89b69c2b068fc378daa952ba7f163c4a11628f55a4df523b3ef9284612599575b858352600381528b83206001815401905586835252898120847fffffffffffffffffffffffff000000000000000000000000000000000000000082541617905580a4169283830361255f5750505050565b6064945051927f64283d7b000000000000000000000000000000000000000000000000000000008452600484015260248301526044820152fd5b6125d287600052600460205260406000207fffffffffffffffffffffffff00000000000000000000000000000000000000008154169055565b848352600381528b83207fffffffffffffffffffffffffffffffffffffffffffffffffffffffffffffffff815401905561250e565b9193945091508061268e575b15612623578592918791386124e2565b8786886126595760249151907f7e2732890000000000000000000000000000000000000000000000000000000082526004820152fd5b60449151907f177e802f0000000000000000000000000000000000000000000000000000000082523360048301526024820152fd5b5033871480156126b3575b806126135750858252600481523385898420541614612613565b5086825260058152878220338352815260ff8883205416612699565b60246040517f64a0ae9200000000000000000000000000000000000000000000000000000000815260006004820152fd5b3360009081527f31f4bc5980931cfff8fcc0887a354f492c853dee1983bdef4d9cb3e8a5ff876e60205260409020547fdf8b4c520ffe197c5343c6f5aec59570151ef9a492f2c624fd45ddde6135ec429060ff161561275c5750565b604490604051907fe2517d3f0000000000000000000000000000000000000000000000000000000082523360048301526024820152fd5b3360009081527fba39d2e119d4075e56dadcfd5cd5b862305d2c4d32649e4866948958647d49cf60205260409020547f8b5b16d04624687fcf0d0228f19993c9157c1ed07b41d8d430fd9100eb099fe89060ff161561275c5750565b80600052600660205260406000203360005260205260ff604060002054161561275c5750565b60ff6007541661282157565b60046040517fd93c0665000000000000000000000000000000000000000000000000000000008152fd5b80600052600260205273ffffffffffffffffffffffffffffffffffffffff6040600020541690811561287b575090565b602490604051907f7e2732890000000000000000000000000000000000000000000000000000000082526004820152fd5b90600091808352600660205273ffffffffffffffffffffffffffffffffffffffff6040842092169182845260205260ff60408420541615600014612953578083526006602052604083208284526020526040832060017fffffffffffffffffffffffffffffffffffffffffffffffffffffffffffffff008254161790557f2f8788117e7eff1d82e926ec794901d17c78024a50270940304540a733656f0d339380a4600190565b505090565b90600091808352600660205273ffffffffffffffffffffffffffffffffffffffff6040842092169182845260205260ff60408420541660001461295357808352600660205260408320828452602052604083207fffffffffffffffffffffffffffffffffffffffffffffffffffffffffffffff0081541690557ff6391f5c32d9c69d2a47ea670b442974b53935d1edc7fd64eb21e047a839171b339380a4600190565b813b612a08575b50505050565b73ffffffffffffffffffffffffffffffffffffffff949192939480931693604051937f150b7a02000000000000000000000000000000000000000000000000000000009283865233600487015216602485015260448401526080606484015282612a786020966084830190612023565b039285816000958187895af1849181612b6c575b50612b04575050503d600014612afc573d612aa6816121de565b90612ab4604051928361219d565b81528091843d92013e5b80519283612af757602483604051907f64a0ae920000000000000000000000000000000000000000000000000000000082526004820152fd5b019050fd5b506060612abe565b9092507fffffffff000000000000000000000000000000000000000000000000000000009194501603612b3b575038808080612a02565b602490604051907f64a0ae920000000000000000000000000000000000000000000000000000000082526004820152fd5b9091508681813d8311612bc1575b612b84818361219d565b81010312612bbd57517fffffffff0000000000000000000000000000000000000000000000000000000081168103612bbd579038612a8c565b8480fd5b503d612b7a56fea264697066735822122060ddcf5c7bace8a11eb38a2bd6ac6e96fbd3236d7ab3bfad0a72fc3e45ee082d64736f6c634300081800332f8788117e7eff1d82e926ec794901d17c78024a50270940304540a733656f0d60803461007457601f620015ad38819003918201601f19168301916001600160401b038311848410176100795780849260209460405283398101031261007457516001600160a01b0381168103610074578061005d6100639261008f565b50610130565b506040516113c09081620001cd8239f35b600080fd5b634e487b7160e01b600052604160045260246000fd5b6001600160a01b031660008181527f5cbfc8ee58ca47855df7bcf648dd304ddb6b932f9b87878bdf6318d7ec7ee5b760205260408120549091907fdf8b4c520ffe197c5343c6f5aec59570151ef9a492f2c624fd45ddde6135ec429060ff1661012b57808352826020526040832082845260205260408320600160ff198254161790556000805160206200158d833981519152339380a4600190565b505090565b6001600160a01b031660008181527f56e5822e13686eaa5c46cfa39933133a22208a18ec41a20857fad3e26619a2a860205260408120549091907f352d05fe3946dbe49277552ba941e744d5a96d9c60bc1ba0ea5f1d3ae000f7c89060ff1661012b57808352826020526040832082845260205260408320600160ff198254161790556000805160206200158d833981519152339380a460019056fe608080604052600436101561001357600080fd5b60003560e01c90816301ffc9a714610e38575080630e9b1dfb14610841578063248a9ca3146107f4578063296a8eff146104435780632f2ff15d146103e657806336568abe1461035c57806379feb107146101fe57806391d1485414610185578063a217fddf1461014b578063bfcdc55e146100fc5763d547741f1461009857600080fd5b346100f75760407ffffffffffffffffffffffffffffffffffffffffffffffffffffffffffffffffc3601126100f7576100f56004356100d5610f25565b908060005260006020526100f0600160406000200154611219565b6112e9565b005b600080fd5b346100f75760207ffffffffffffffffffffffffffffffffffffffffffffffffffffffffffffffffc3601126100f7576004356000526002602052602060ff604060002054161515604051908152f35b346100f75760007ffffffffffffffffffffffffffffffffffffffffffffffffffffffffffffffffc3601126100f757602060405160008152f35b346100f75760407ffffffffffffffffffffffffffffffffffffffffffffffffffffffffffffffffc3601126100f7576101bc610f25565b600435600052600060205273ffffffffffffffffffffffffffffffffffffffff60406000209116600052602052602060ff604060002054166040519015158152f35b346100f75760207ffffffffffffffffffffffffffffffffffffffffffffffffffffffffffffffffc3601126100f757606060a060405161023d81611108565b60008152600060208201526000604082015260008382015282608082015201526004356000526001602052604060002060405161027981611108565b81548152600182015491602082019283526103526005610321600284015493604086019485526003810154606087019081526102e1604051926102ca846102c38160048501611165565b0385611124565b608089019384526102c36040518097819301611165565b60a08701938452875115159560405198899860408a525160408a01525160608901525160808801525160a08701525160c080870152610100860190610f48565b90517fffffffffffffffffffffffffffffffffffffffffffffffffffffffffffffffc08583030160e0860152610f48565b9060208301520390f35b346100f75760407ffffffffffffffffffffffffffffffffffffffffffffffffffffffffffffffffc3601126100f757610393610f25565b3373ffffffffffffffffffffffffffffffffffffffff8216036103bc576100f5906004356112e9565b60046040517f6697b232000000000000000000000000000000000000000000000000000000008152fd5b346100f75760407ffffffffffffffffffffffffffffffffffffffffffffffffffffffffffffffffc3601126100f7576100f5600435610423610f25565b9080600052600060205261043e600160406000200154611219565b61123f565b346100f75760607ffffffffffffffffffffffffffffffffffffffffffffffffffffffffffffffffc3601126100f75760043560243560ff81168091036100f75767ffffffffffffffff6044358181116100f7576104a4903690600401610ef4565b3360009081527f5cbfc8ee58ca47855df7bcf648dd304ddb6b932f9b87878bdf6318d7ec7ee5b760209081526040909120549293927fdf8b4c520ffe197c5343c6f5aec59570151ef9a492f2c624fd45ddde6135ec429060ff16156107bd5750841515806107b3575b156107555785600052600281526040600020926000936001948592838084019260028501955b6106ec575b505085116106bd576801000000000000000085116106bd5780548582558086106106a0575b50869594939590600052856000209060005b858110610680575050507fffffffffffffffffffffffffffffffffffffffffffffffffffffffffffffff0090878282541617905560005b838110610635575050508060405195604087019087526040858801525260608501939260005b8281106105fc57877f26156b49492fd8c6d2f06dbc04b5a5e7bd1994b8fdaf45d4bc2a9b3b74575ef988880389a2005b909192939485359073ffffffffffffffffffffffffffffffffffffffff82168092036100f75790815282019482019392919083016105cc565b938473ffffffffffffffffffffffffffffffffffffffff61066261065d8798859a988c610fa6565b610fe5565b166000528385526040600020828482541617905501949392946105a6565b95879596819861068f84610fe5565b93019281850155019695949661056f565b6106b79082600052868660002091820191016110aa565b8961055d565b7f4e487b7100000000000000000000000000000000000000000000000000000000600052604160045260246000fd5b83548110156107505781908460005273ffffffffffffffffffffffffffffffffffffffff818960002001541660005286885260406000207fffffffffffffffffffffffffffffffffffffffffffffffffffffffffffffff0081541690550181610533565b610538565b606490604051907f08c379a00000000000000000000000000000000000000000000000000000000082526004820152600a60248201527f6261642071756f72756d000000000000000000000000000000000000000000006044820152fd5b508185111561050d565b604490604051907fe2517d3f0000000000000000000000000000000000000000000000000000000082523360048301526024820152fd5b346100f75760207ffffffffffffffffffffffffffffffffffffffffffffffffffffffffffffffffc3601126100f75760043560005260006020526020600160406000200154604051908152f35b346100f7577ffffffffffffffffffffffffffffffffffffffffffffffffffffffffffffffffc6040813601126100f75767ffffffffffffffff600435116100f75760c090600435360301126100f75760243567ffffffffffffffff81116100f7576108b0903690600401610ef4565b3360009081527f56e5822e13686eaa5c46cfa39933133a22208a18ec41a20857fad3e26619a2a8602052604090205460ff907f352d05fe3946dbe49277552ba941e744d5a96d9c60bc1ba0ea5f1d3ae000f7c8908216156107bd575060043560040135600052600260205260406000209060ff825416938415610dda5791600093600260009201915b818110610d3a57868610610cdc57600435600401356000526001602052604060002060043560040135815560246004350135600182015560446004350135600282015560646004350135600382015561099c608460043501600435600401611006565b919067ffffffffffffffff83116106bd576109c7836109be6004850154611057565b600485016110c1565b600090601f8411600114610c10579280610a1892600595600092610c05575b50507fffffffffffffffffffffffffffffffffffffffffffffffffffffffffffffffff8260011b9260031b1c19161790565b60048201555b01610a3360a460043501600435600401611006565b67ffffffffffffffff81939293116106bd57610a5981610a538454611057565b846110c1565b6000601f8211600114610b64578190610aa69394600092610b595750507fffffffffffffffffffffffffffffffffffffffffffffffffffffffffffffffff8260011b9260031b1c19161790565b90555b7f2c10f6d97187b26af528400ec603fd96b0f99a882b762aa0d16c3c9551ffee32610ade608460043501600435600401611006565b919082604051916024600435013583526044600435013560208401526064600435013560408401526080606084015281608084015260a0830137600060a0848301015260a0817fffffffffffffffffffffffffffffffffffffffffffffffffffffffffffffffe0601f600435600401359601168101030190a2005b0135905084806109e6565b7fffffffffffffffffffffffffffffffffffffffffffffffffffffffffffffffe08216938360005260206000209160005b868110610bed5750836001959610610bb5575b505050811b019055610aa9565b7fffffffffffffffffffffffffffffffffffffffffffffffffffffffffffffffff60f88560031b161c19910135169055838080610ba8565b90926020600181928686013581550194019101610b95565b0135905085806109e6565b6004830160005260206000209160005b7fffffffffffffffffffffffffffffffffffffffffffffffffffffffffffffffe086168110610cc45750918491600193837fffffffffffffffffffffffffffffffffffffffffffffffffffffffffffffffe06005981610610c8c575b505050811b016004820155610a1e565b7fffffffffffffffffffffffffffffffffffffffffffffffffffffffffffffffff60f88560031b161c19910135169055848080610c7c565b90926020600181928686013581550194019101610c20565b60646040517f08c379a000000000000000000000000000000000000000000000000000000000815260206004820152600b60248201527f71756f72756d206661696c0000000000000000000000000000000000000000006044820152fd5b73ffffffffffffffffffffffffffffffffffffffff610d5d61065d838589610fa6565b16600052826020528360406000205416610d7a575b600101610939565b947fffffffffffffffffffffffffffffffffffffffffffffffffffffffffffffffff8114610dab5760010194610d72565b7f4e487b7100000000000000000000000000000000000000000000000000000000600052601160045260246000fd5b60646040517f08c379a000000000000000000000000000000000000000000000000000000000815260206004820152600960248201527f6e6f2071756f72756d00000000000000000000000000000000000000000000006044820152fd5b346100f75760207ffffffffffffffffffffffffffffffffffffffffffffffffffffffffffffffffc3601126100f757600435907fffffffff0000000000000000000000000000000000000000000000000000000082168092036100f757817f7965db0b0000000000000000000000000000000000000000000000000000000060209314908115610eca575b5015158152f35b7f01ffc9a70000000000000000000000000000000000000000000000000000000091501483610ec3565b9181601f840112156100f75782359167ffffffffffffffff83116100f7576020808501948460051b0101116100f757565b6024359073ffffffffffffffffffffffffffffffffffffffff821682036100f757565b919082519283825260005b848110610f925750507fffffffffffffffffffffffffffffffffffffffffffffffffffffffffffffffe0601f8460006020809697860101520116010190565b602081830181015184830182015201610f53565b9190811015610fb65760051b0190565b7f4e487b7100000000000000000000000000000000000000000000000000000000600052603260045260246000fd5b3573ffffffffffffffffffffffffffffffffffffffff811681036100f75790565b9035907fffffffffffffffffffffffffffffffffffffffffffffffffffffffffffffffe1813603018212156100f7570180359067ffffffffffffffff82116100f7576020019181360383136100f757565b90600182811c921680156110a0575b602083101461107157565b7f4e487b7100000000000000000000000000000000000000000000000000000000600052602260045260246000fd5b91607f1691611066565b8181106110b5575050565b600081556001016110aa565b9190601f81116110d057505050565b6110fc926000526020600020906020601f840160051c830193106110fe575b601f0160051c01906110aa565b565b90915081906110ef565b60c0810190811067ffffffffffffffff8211176106bd57604052565b90601f7fffffffffffffffffffffffffffffffffffffffffffffffffffffffffffffffe0910116810190811067ffffffffffffffff8211176106bd57604052565b80546000939261117482611057565b918282526020936001916001811690816000146111dc575060011461119b575b5050505050565b90939495506000929192528360002092846000945b8386106111c857505050500101903880808080611194565b8054858701830152940193859082016111b0565b7fffffffffffffffffffffffffffffffffffffffffffffffffffffffffffffff00168685015250505090151560051b010191503880808080611194565b80600052600060205260406000203360005260205260ff60406000205416156107bd5750565b906000918083528260205273ffffffffffffffffffffffffffffffffffffffff6040842092169182845260205260ff604084205416156000146112e45780835282602052604083208284526020526040832060017fffffffffffffffffffffffffffffffffffffffffffffffffffffffffffffff008254161790557f2f8788117e7eff1d82e926ec794901d17c78024a50270940304540a733656f0d339380a4600190565b505090565b906000918083528260205273ffffffffffffffffffffffffffffffffffffffff6040842092169182845260205260ff6040842054166000146112e4578083528260205260408320828452602052604083207fffffffffffffffffffffffffffffffffffffffffffffffffffffffffffffff0081541690557ff6391f5c32d9c69d2a47ea670b442974b53935d1edc7fd64eb21e047a839171b339380a460019056fea26469706673582212201465a7a041c85efd9aafcb3109245739d2200a066a494ee0c1decb44b266b50e64736f6c634300081800332f8788117e7eff1d82e926ec794901d17c78024a50270940304540a733656f0d6080346100ba57601f6110ce38819003918201601f19168301916001600160401b038311848410176100bf5780849260409485528339810103126100ba5780516001600160a01b039182821682036100ba57602001519182168092036100ba578061006c610072926100d5565b50610175565b50600180546001600160a01b03191682179055604051907f3f32684a32a11dabdbb8c0177de80aa3ae36a004d75210335b49e544e48cd0aa600080a2610e9d90816102118239f35b600080fd5b634e487b7160e01b600052604160045260246000fd5b6001600160a01b031660008181527f5cbfc8ee58ca47855df7bcf648dd304ddb6b932f9b87878bdf6318d7ec7ee5b760205260408120549091907fdf8b4c520ffe197c5343c6f5aec59570151ef9a492f2c624fd45ddde6135ec429060ff1661017057808352826020526040832082845260205260408320600160ff198254161790556000805160206110ae833981519152339380a4600190565b505090565b6001600160a01b031660008181527f61e8821f3fb594caea4c3ef3ea69ab596efdbc5fa2c6264ced1dc07e125e24ca60205260408120549091907f8d9233e8f9e0681d692bebdd2fd8c8863336d587e831d84b9bff9f403d549b5f9060ff1661017057808352826020526040832082845260205260408320600160ff198254161790556000805160206110ae833981519152339380a460019056fe608060408181526004918236101561001657600080fd5b600092833560e01c918262bbf1e4146107c65750816301ffc9a7146107075781631d143848146106b4578163248a9ca31461066c5781632f2ff15d1461062457816336568abe1461059a57816336ae09d01461057e57816355cc4e57146104d55781637dc0d1d01461048257816391d14854146104125781639dd8388d1461017f578163a217fddf14610146578163d547741f146100e5575063f6fdb9f4146100be57600080fd5b346100e1576020906100d86100d236610874565b90610bc6565b90519015158152f35b5080fd5b9190503461014257807ffffffffffffffffffffffffffffffffffffffffffffffffffffffffffffffffc3601126101425761013e9135610139600161012861082b565b938387528660205286200154610cfb565b610dc6565b5080f35b8280fd5b5050346100e157817ffffffffffffffffffffffffffffffffffffffffffffffffffffffffffffffffc3601126100e15751908152602090f35b919050346101425760607ffffffffffffffffffffffffffffffffffffffffffffffffffffffffffffffffc360112610142578135916101bc61082b565b6044359067ffffffffffffffff9283831161040e573660238401121561040e57828101359184831161040a57602484019460248460051b809601019436861161040657610207610c68565b87519360608501858110848211176103da5789528985526020948581019773ffffffffffffffffffffffffffffffffffffffff809616895261024d878c5195018561090d565b87845289878086015b8383106103c25750505050808a600292019384528b8d52600387528a8d209051815560019886600183019151167fffffffffffffffffffffffff00000000000000000000000000000000000000008254161790550191519081519384116103965768010000000000000000841161039657508490825484845580851061036c575b50969594939601908a52828a208a5b838110610359575050505085519582828801838952528601949388905b8382106103355789897f9707116d3117d3cfee622eb92c0111c94071b9b6e53e8406da9bffc137dea96a8a8a038ba280f35b909192938380879884610348859a610853565b168152019701959493920190610303565b82518816828201559184019186016102e6565b8885848f8781522092830192015b8281106103885750506102d7565b8e81558894508a910161037a565b8b60416024927f4e487b7100000000000000000000000000000000000000000000000000000000835252fd5b81906103cd84610853565b8152019101908890610256565b60248c6041847f4e487b7100000000000000000000000000000000000000000000000000000000835252fd5b8980fd5b8780fd5b8680fd5b90503461014257817ffffffffffffffffffffffffffffffffffffffffffffffffffffffffffffffffc360112610142578160209360ff9261045161082b565b9035825281865273ffffffffffffffffffffffffffffffffffffffff83832091168252855220541690519015158152f35b5050346100e157817ffffffffffffffffffffffffffffffffffffffffffffffffffffffffffffffffc3601126100e15760209073ffffffffffffffffffffffffffffffffffffffff600154169051908152f35b8390346100e15760207ffffffffffffffffffffffffffffffffffffffffffffffffffffffffffffffffc3601126100e1573573ffffffffffffffffffffffffffffffffffffffff81168091036100e15761052d610c68565b807fffffffffffffffffffffffff000000000000000000000000000000000000000060025416176002557f141c634522c8bfcf25beba4c524ac0c87de0db74ebe83168cf5f3bf4d45fd8988280a280f35b5050346100e1576020906100d861059436610874565b90610acc565b8383346100e157807ffffffffffffffffffffffffffffffffffffffffffffffffffffffffffffffffc3601126100e1576105d261082b565b903373ffffffffffffffffffffffffffffffffffffffff8316036105fc575061013e919235610dc6565b8390517f6697b232000000000000000000000000000000000000000000000000000000008152fd5b9190503461014257807ffffffffffffffffffffffffffffffffffffffffffffffffffffffffffffffffc3601126101425761013e9135610667600161012861082b565b610d21565b9050346101425760207ffffffffffffffffffffffffffffffffffffffffffffffffffffffffffffffffc36011261014257816020936001923581528085522001549051908152f35b5050346100e157817ffffffffffffffffffffffffffffffffffffffffffffffffffffffffffffffffc3601126100e15760209073ffffffffffffffffffffffffffffffffffffffff600254169051908152f35b9050346101425760207ffffffffffffffffffffffffffffffffffffffffffffffffffffffffffffffffc3601126101425735907fffffffff00000000000000000000000000000000000000000000000000000000821680920361014257602092507f7965db0b00000000000000000000000000000000000000000000000000000000821491821561079c575b50519015158152f35b7f01ffc9a70000000000000000000000000000000000000000000000000000000014915038610793565b848492346100e15760207ffffffffffffffffffffffffffffffffffffffffffffffffffffffffffffffffc3601126100e15790839135815260036020522073ffffffffffffffffffffffffffffffffffffffff60018254920154169082526020820152f35b6024359073ffffffffffffffffffffffffffffffffffffffff8216820361084e57565b600080fd5b359073ffffffffffffffffffffffffffffffffffffffff8216820361084e57565b7ffffffffffffffffffffffffffffffffffffffffffffffffffffffffffffffffc604091011261084e576004359060243590565b156108af57565b60646040517f08c379a000000000000000000000000000000000000000000000000000000000815260206004820152600b60248201527f6f6e6c79206973737565720000000000000000000000000000000000000000006044820152fd5b90601f7fffffffffffffffffffffffffffffffffffffffffffffffffffffffffffffffe0910116810190811067ffffffffffffffff82111761094e57604052565b7f4e487b7100000000000000000000000000000000000000000000000000000000600052604160045260246000fd5b92919267ffffffffffffffff821161094e576020604051916109c760207fffffffffffffffffffffffffffffffffffffffffffffffffffffffffffffffe0601f870116018461090d565b82958484528482011161084e5760005b8481106109ec57505050600091602091010152565b8181015184820184015282016109d7565b919060408382031261084e57825167ffffffffffffffff9081811161084e5784019060c08284031261084e576040519160c083018381108382111761094e5760405280518352602081015160208401526040810151604084015260608101516060840152608081015182811161084e57810184601f8201121561084e5784816020610a8a9351910161097d565b608084015260a081015191821161084e570182601f8201121561084e576020928184610ab89351910161097d565b60a0820152920151801515810361084e5790565b9073ffffffffffffffffffffffffffffffffffffffff610af1816002541633146108a8565b60015416916040519283917f79feb107000000000000000000000000000000000000000000000000000000008352600483015281602460009586935afa8015610bbb5783918491610b97575b5015610b925760406060820151910151918201809211610b655710610b625750600190565b90565b6024837f4e487b710000000000000000000000000000000000000000000000000000000081526011600452fd5b505090565b9050610bb591503d8085833e610bad818361090d565b8101906109fd565b38610b3d565b6040513d85823e3d90fd5b9073ffffffffffffffffffffffffffffffffffffffff610beb816002541633146108a8565b60015416916040519283917f79feb107000000000000000000000000000000000000000000000000000000008352600483015281602460009586935afa8015610bbb5783918491610c4c575b5015610b92576040015110610b625750600190565b9050610c6291503d8085833e610bad818361090d565b38610c37565b3360009081527f5cbfc8ee58ca47855df7bcf648dd304ddb6b932f9b87878bdf6318d7ec7ee5b760205260409020547fdf8b4c520ffe197c5343c6f5aec59570151ef9a492f2c624fd45ddde6135ec429060ff1615610cc45750565b604490604051907fe2517d3f0000000000000000000000000000000000000000000000000000000082523360048301526024820152fd5b80600052600060205260406000203360005260205260ff6040600020541615610cc45750565b906000918083528260205273ffffffffffffffffffffffffffffffffffffffff6040842092169182845260205260ff60408420541615600014610b925780835282602052604083208284526020526040832060017fffffffffffffffffffffffffffffffffffffffffffffffffffffffffffffff008254161790557f2f8788117e7eff1d82e926ec794901d17c78024a50270940304540a733656f0d339380a4600190565b906000918083528260205273ffffffffffffffffffffffffffffffffffffffff6040842092169182845260205260ff604084205416600014610b92578083528260205260408320828452602052604083207fffffffffffffffffffffffffffffffffffffffffffffffffffffffffffffff0081541690557ff6391f5c32d9c69d2a47ea670b442974b53935d1edc7fd64eb21e047a839171b339380a460019056fea2646970667358221220324f3f0fefde00996fa9da4dd9d476481f59f72b74a2e013a40a21942770fbd964736f6c634300081800332f8788117e7eff1d82e926ec794901d17c78024a50270940304540a733656f0d6080346200037657601f1990601f906001600160401b03620028d53881900384810186168401838111858210176200036057849282916040528339602093849181010312620003765751926001600160a01b03841684036200037657620000656200037b565b9260098452681495d04815985d5b1d60ba1b81850152620000856200037b565b9060078252661495d04b55931560ca1b8183015284519684881162000360576000978854966001978881811c9116801562000355575b858210146200034157908187849311620002ee575b5084908783116001146200028d578b9262000281575b5050600019600383901b1c191690871b1788555b82519485116200026d5785548681811c9116801562000262575b838210146200024e5784811162000206575b50819385116001146200019d57505090829162000180969262000191575b5050600019600383901b1c191690821b1790555b60ff19600854166008556200016d816200039b565b5062000179816200043e565b50620004dc565b5060405161233a90816200057b8239f35b01519050388062000144565b8588528188209497908816915b828210620001ee575050918493918762000180989410620001d4575b505050811b01905562000158565b015160001960f88460031b161c19169055388080620001c6565b808786978294978701518155019601940190620001aa565b8689528289208580880160051c82019285891062000244575b0160051c019087905b8281106200023857505062000126565b8a815501879062000228565b925081926200021f565b634e487b7160e01b89526022600452602489fd5b90607f169062000114565b634e487b7160e01b88526041600452602488fd5b015190503880620000e6565b90848a9416918c8052868d20928d5b88828210620002d75750508411620002bd575b505050811b018855620000fa565b015160001960f88460031b161c19169055388080620002af565b8385015186558d979095019493840193016200029c565b9091508a8052848b208780850160051c82019287861062000337575b918b91869594930160051c01915b82811062000328575050620000d0565b8d81558594508b910162000318565b925081926200030a565b634e487b7160e01b8b52602260045260248bfd5b90607f1690620000bb565b634e487b7160e01b600052604160045260246000fd5b600080fd5b60408051919082016001600160401b038111838210176200036057604052565b6001600160a01b031660008181527f1970715d775088bdd82c491967377f9a1c75f161dafcdfb627233956ceb59f4860205260408120549091907fdf8b4c520ffe197c5343c6f5aec59570151ef9a492f2c624fd45ddde6135ec429060ff16620004395780835260076020526040832082845260205260408320600160ff19825416179055600080516020620028b5833981519152339380a4600190565b505090565b6001600160a01b031660008181527fe8558604033ad3dba9946672972c04942717a158db0d83df02e81cf671309a1b60205260408120549091907f76afa8a5929fef1b4c03674b2152ae5aaad1d974b8a4021c59477bcc846ccc1e9060ff16620004395780835260076020526040832082845260205260408320600160ff19825416179055600080516020620028b5833981519152339380a4600190565b6001600160a01b031660008181527facd6f2d2c7ba1b8f9664c720c36e9d05ba3b4eb34e7b5df45169ba2eeb92550360205260408120549091907f8b5b16d04624687fcf0d0228f19993c9157c1ed07b41d8d430fd9100eb099fe89060ff16620004395780835260076020526040832082845260205260408320600160ff19825416179055600080516020620028b5833981519152339380a460019056fe608080604052600436101561001357600080fd5b60003560e01c90816301ffc9a7146117fe5750806306fdde0314611735578063081812fc146116cb578063095ea7b31461156d5780630a3cc989146114b957806323b872dd146114a2578063248a9ca3146114555780632f2ff15d146113f857806336568abe1461136e578063383a389f14610a765780633f4ba83a146109b857806342842e0e1461098a5780635c975abb146109495780636352211e146108ef57806370a08231146108535780638456cb59146107bd5780638c64ea4a1461074257806391d14854146106c957806395d89b41146105aa578063a217fddf14610570578063a22cb46514610464578063b88d4fde146103db578063c87b56dd146102ab578063d547741f1461024c578063e5080783146101c45763e985e9c51461013d57600080fd5b346101bf5760407ffffffffffffffffffffffffffffffffffffffffffffffffffffffffffffffffc3601126101bf576101746119af565b61017c6119d2565b9073ffffffffffffffffffffffffffffffffffffffff809116600052600560205260406000209116600052602052602060ff604060002054166040519015158152f35b600080fd5b346101bf5760607ffffffffffffffffffffffffffffffffffffffffffffffffffffffffffffffffc3601126101bf576004357f13da2219b706f76a1c07a1ab5ade2e25383c004e373aa693fc5df7fde9164dbb6040602435604435610227611ed4565b84600052600a60205280600384600020846002820155015582519182526020820152a2005b346101bf5760407ffffffffffffffffffffffffffffffffffffffffffffffffffffffffffffffffc3601126101bf576102a96004356102896119d2565b908060005260076020526102a4600160406000200154611f8c565b61205e565b005b346101bf576020807ffffffffffffffffffffffffffffffffffffffffffffffffffffffffffffffffc3601126101bf576004356102e781611e73565b506000526006815260406000209060405191826000825461030781611b32565b938484526001918660018216918260001461039a57505060011461035b575b505061033492500383611a80565b600060405161034281611a64565b52610357604051928284938452830190611951565b0390f35b85925060005281600020906000915b85831061038257505061033493508201018580610326565b8054838901850152879450869390920191810161036a565b915093506103349592507fffffffffffffffffffffffffffffffffffffffffffffffffffffffffffffff0091501682840152151560051b8201018580610326565b346101bf5760807ffffffffffffffffffffffffffffffffffffffffffffffffffffffffffffffffc3601126101bf576104126119af565b61041a6119d2565b906044356064359267ffffffffffffffff84116101bf57366023850112156101bf576104536102a9943690602481600401359101611afb565b9261045f838383611b85565b612137565b346101bf5760407ffffffffffffffffffffffffffffffffffffffffffffffffffffffffffffffffc3601126101bf5761049b6119af565b73ffffffffffffffffffffffffffffffffffffffff6104b86119f5565b911690811561053f5733600052600560205260406000208260005260205261050f8160406000209060ff7fffffffffffffffffffffffffffffffffffffffffffffffffffffffffffffff0083541691151516179055565b60405190151581527f17307eab39ab6107e8899845ad3d59bd9653f200f220920489ca2b5937696c3160203392a3005b602482604051907f5b08ba180000000000000000000000000000000000000000000000000000000082526004820152fd5b346101bf5760007ffffffffffffffffffffffffffffffffffffffffffffffffffffffffffffffffc3601126101bf57602060405160008152f35b346101bf5760007ffffffffffffffffffffffffffffffffffffffffffffffffffffffffffffffffc3601126101bf576040516000600182600154926105ee84611b32565b928383526020948560018216918260001461068b57505060011461062e575b5061061a92500383611a80565b610357604051928284938452830190611951565b84915060016000527fb10e2d527612073b26eecdfd717e6a320cf44b4afac2b0732d9fcbe2b7fa0cf6906000915b85831061067357505061061a93508201018561060d565b8054838901850152879450869390920191810161065c565b7fffffffffffffffffffffffffffffffffffffffffffffffffffffffffffffff00168582015261061a95151560051b850101925087915061060d9050565b346101bf5760407ffffffffffffffffffffffffffffffffffffffffffffffffffffffffffffffffc3601126101bf576107006119d2565b600435600052600760205273ffffffffffffffffffffffffffffffffffffffff60406000209116600052602052602060ff604060002054166040519015158152f35b346101bf5760207ffffffffffffffffffffffffffffffffffffffffffffffffffffffffffffffffc3601126101bf57600435600052600a60205260a06040600020805490600181015490600281015460ff60046003840154930154169260405194855260208501526040840152606083015215156080820152f35b346101bf5760007ffffffffffffffffffffffffffffffffffffffffffffffffffffffffffffffffc3601126101bf576107f4611f30565b6107fc612101565b60017fffffffffffffffffffffffffffffffffffffffffffffffffffffffffffffff0060085416176008557f62e78cea01bee320cd4e420270b5ea74000d11b0c9f74754ebdbfc544b05a2586020604051338152a1005b346101bf5760207ffffffffffffffffffffffffffffffffffffffffffffffffffffffffffffffffc3601126101bf5773ffffffffffffffffffffffffffffffffffffffff61089f6119af565b1680156108be5760005260036020526020604060002054604051908152f35b60246040517f89c62b6400000000000000000000000000000000000000000000000000000000815260006004820152fd5b346101bf5760207ffffffffffffffffffffffffffffffffffffffffffffffffffffffffffffffffc3601126101bf57602061092b600435611e73565b73ffffffffffffffffffffffffffffffffffffffff60405191168152f35b346101bf5760007ffffffffffffffffffffffffffffffffffffffffffffffffffffffffffffffffc3601126101bf57602060ff600854166040519015158152f35b346101bf576102a961099b36611a04565b90604051926109a984611a64565b6000845261045f838383611b85565b346101bf5760007ffffffffffffffffffffffffffffffffffffffffffffffffffffffffffffffffc3601126101bf576109ef611f30565b60085460ff811615610a4c577fffffffffffffffffffffffffffffffffffffffffffffffffffffffffffffff00166008557f5db9ee0a495bf2e6ff9c91a7834c1ba4fdd244a5e8aa4e537bd38aeae4b073aa6020604051338152a1005b60046040517f8dfc202b000000000000000000000000000000000000000000000000000000008152fd5b346101bf5760c07ffffffffffffffffffffffffffffffffffffffffffffffffffffffffffffffffc3601126101bf57610aad6119af565b67ffffffffffffffff602435116101bf573660236024350112156101bf5767ffffffffffffffff60243560040135116101bf5736602480356004013581350101116101bf573360009081527fe8558604033ad3dba9946672972c04942717a158db0d83df02e81cf671309a1b60205260409020547f76afa8a5929fef1b4c03674b2152ae5aaad1d974b8a4021c59477bcc846ccc1e9060ff16156113375750610b54612101565b600954907fffffffffffffffffffffffffffffffffffffffffffffffffffffffffffffffff82146113085760018201600955604051610b9281611a64565b6000815273ffffffffffffffffffffffffffffffffffffffff8216156112d757610bba612101565b60018301600052600a60205260ff60046040600020015416611243575b60018301600052600260205273ffffffffffffffffffffffffffffffffffffffff6040600020541680151590816111ce575b73ffffffffffffffffffffffffffffffffffffffff84166000526003602052604060002060018154019055600185016000526002602052604060002073ffffffffffffffffffffffffffffffffffffffff85167fffffffffffffffffffffffff0000000000000000000000000000000000000000825416179055600185019073ffffffffffffffffffffffffffffffffffffffff8516907fddf252ad1be2c89b69c2b068fc378daa952ba7f163c4a11628f55a4df523b3ef600080a461119d57813b610fc2575b50610ce636602435600401356024803501611afb565b916001810160005260066020526040600020835167ffffffffffffffff8111610ea257610d138254611b32565b601f8111610f7e575b50602094601f8211600114610edc57948192939495600092610ed1575b50507fffffffffffffffffffffffffffffffffffffffffffffffffffffffffffffffff8260011b9260031b1c19161790555b7ff8e1a15aba9398e019f0b49df1a4fde98ee17ae345cb5f6b5e2c27f5033e8ce76020604051600184018152a16040519160a0830183811067ffffffffffffffff821117610ea257602093610e4391604052604435815260048582016064358152604083016084358152606084019060a435825260808501926000845260018901600052600a8a5260406000209551865551600186015551600285015551600384015551151591019060ff7fffffffffffffffffffffffffffffffffffffffffffffffffffffffffffffff0083541691151516179055565b73ffffffffffffffffffffffffffffffffffffffff604051911681526044358382015260643560408201527f768f88d0f3996420632b10363ea15a43a5b40c28d567f1720e14d998c80aa43360606001840192a2600160405191018152f35b7f4e487b7100000000000000000000000000000000000000000000000000000000600052604160045260246000fd5b015190508580610d39565b7fffffffffffffffffffffffffffffffffffffffffffffffffffffffffffffffe08216958360005260206000209160005b888110610f6657508360019596979810610f2f575b505050811b019055610d6b565b01517fffffffffffffffffffffffffffffffffffffffffffffffffffffffffffffffff60f88460031b161c19169055858080610f22565b91926020600181928685015181550194019201610f0d565b826000526020600020601f830160051c810160208410610fbb575b601f830160051c82018110610faf575050610d1c565b60008155600101610f99565b5080610f99565b604051602081806110187f150b7a02000000000000000000000000000000000000000000000000000000009586835233600484015260006024840152600189016044840152608060648401526084830190611951565b0381600073ffffffffffffffffffffffffffffffffffffffff88165af160009181611140575b506110cc57823d156110c4573d9061105582611ac1565b916110636040519384611a80565b82523d6000602084013e5b815191826110bd5760248273ffffffffffffffffffffffffffffffffffffffff604051917f64a0ae92000000000000000000000000000000000000000000000000000000008352166004820152fd5b9050602001fd5b60609061106e565b7fffffffff0000000000000000000000000000000000000000000000000000000016036110f95782610cd0565b60249073ffffffffffffffffffffffffffffffffffffffff604051917f64a0ae92000000000000000000000000000000000000000000000000000000008352166004820152fd5b9091506020813d602011611195575b8161115c60209383611a80565b810103126101bf57517fffffffff00000000000000000000000000000000000000000000000000000000811681036101bf57908561103e565b3d915061114f565b60246040517f73c6ac6e00000000000000000000000000000000000000000000000000000000815260006004820152fd5b61120a60018601600052600460205260406000207fffffffffffffffffffffffff00000000000000000000000000000000000000008154169055565b80600052600360205260406000207fffffffffffffffffffffffffffffffffffffffffffffffffffffffffffffffff8154019055610c09565b3360009081527f1970715d775088bdd82c491967377f9a1c75f161dafcdfb627233956ceb59f48602052604090205460ff16610bd75760646040517f08c379a000000000000000000000000000000000000000000000000000000000815260206004820152600660248201527f6c6f636b656400000000000000000000000000000000000000000000000000006044820152fd5b60246040517f64a0ae9200000000000000000000000000000000000000000000000000000000815260006004820152fd5b7f4e487b7100000000000000000000000000000000000000000000000000000000600052601160045260246000fd5b604490604051907fe2517d3f0000000000000000000000000000000000000000000000000000000082523360048301526024820152fd5b346101bf5760407ffffffffffffffffffffffffffffffffffffffffffffffffffffffffffffffffc3601126101bf576113a56119d2565b3373ffffffffffffffffffffffffffffffffffffffff8216036113ce576102a99060043561205e565b60046040517f6697b232000000000000000000000000000000000000000000000000000000008152fd5b346101bf5760407ffffffffffffffffffffffffffffffffffffffffffffffffffffffffffffffffc3601126101bf576102a96004356114356119d2565b90806000526007602052611450600160406000200154611f8c565b611fb2565b346101bf5760207ffffffffffffffffffffffffffffffffffffffffffffffffffffffffffffffffc3601126101bf5760043560005260076020526020600160406000200154604051908152f35b346101bf576102a96114b336611a04565b91611b85565b346101bf5760407ffffffffffffffffffffffffffffffffffffffffffffffffffffffffffffffffc3601126101bf576004357f8ed24f7d0c11ab2eef7f3d98a2a8f258a2469819af7e11fe564938715d01e2e560206115166119f5565b61151e611ed4565b83600052600a82526115628160046040600020019060ff7fffffffffffffffffffffffffffffffffffffffffffffffffffffffffffffff0083541691151516179055565b6040519015158152a2005b346101bf5760407ffffffffffffffffffffffffffffffffffffffffffffffffffffffffffffffffc3601126101bf576115a46119af565b6024356115b081611e73565b331515806116ab575b80611670575b61164057819073ffffffffffffffffffffffffffffffffffffffff809416938491167f8c5be1e5ebec7d5bd14f71427d1e84f3dd0314c0f7b2291e5b200ac8c7c3b925600080a460005260046020526040600020907fffffffffffffffffffffffff0000000000000000000000000000000000000000825416179055600080f35b60246040517fa9fbf51f000000000000000000000000000000000000000000000000000000008152336004820152fd5b5073ffffffffffffffffffffffffffffffffffffffff8116600052600560205260406000203360005260205260ff60406000205416156115bf565b503373ffffffffffffffffffffffffffffffffffffffff821614156115b9565b346101bf5760207ffffffffffffffffffffffffffffffffffffffffffffffffffffffffffffffffc3601126101bf5760043561170681611e73565b506000526004602052602073ffffffffffffffffffffffffffffffffffffffff60406000205416604051908152f35b346101bf5760007ffffffffffffffffffffffffffffffffffffffffffffffffffffffffffffffffc3601126101bf5760405160008054908261177683611b32565b918282526020936001908560018216918260001461068b5750506001146117a4575061061a92500383611a80565b6000808052859250907f290decd9548b62a8d60345a988386fc84ba6bc95484008f6362f93160ef3e5635b8583106117e657505061061a93508201018561060d565b805483890185015287945086939092019181016117cf565b346101bf5760207ffffffffffffffffffffffffffffffffffffffffffffffffffffffffffffffffc3601126101bf57600435907fffffffff0000000000000000000000000000000000000000000000000000000082168092036101bf57817f7965db0b0000000000000000000000000000000000000000000000000000000060209314908115611890575b5015158152f35b7f49064906000000000000000000000000000000000000000000000000000000008114915081156118c3575b5083611889565b7f80ac58cd00000000000000000000000000000000000000000000000000000000811491508115611927575b81156118fd575b50836118bc565b7f01ffc9a700000000000000000000000000000000000000000000000000000000915014836118f6565b7f5b5e139f00000000000000000000000000000000000000000000000000000000811491506118ef565b919082519283825260005b84811061199b5750507fffffffffffffffffffffffffffffffffffffffffffffffffffffffffffffffe0601f8460006020809697860101520116010190565b60208183018101518483018201520161195c565b6004359073ffffffffffffffffffffffffffffffffffffffff821682036101bf57565b6024359073ffffffffffffffffffffffffffffffffffffffff821682036101bf57565b6024359081151582036101bf57565b7ffffffffffffffffffffffffffffffffffffffffffffffffffffffffffffffffc60609101126101bf5773ffffffffffffffffffffffffffffffffffffffff9060043582811681036101bf579160243590811681036101bf579060443590565b6020810190811067ffffffffffffffff821117610ea257604052565b90601f7fffffffffffffffffffffffffffffffffffffffffffffffffffffffffffffffe0910116810190811067ffffffffffffffff821117610ea257604052565b67ffffffffffffffff8111610ea257601f017fffffffffffffffffffffffffffffffffffffffffffffffffffffffffffffffe01660200190565b929192611b0782611ac1565b91611b156040519384611a80565b8294818452818301116101bf578281602093846000960137010152565b90600182811c92168015611b7b575b6020831014611b4c57565b7f4e487b7100000000000000000000000000000000000000000000000000000000600052602260045260246000fd5b91607f1691611b41565b9173ffffffffffffffffffffffffffffffffffffffff8092169283156112d757611bad612101565b600092828452602091600a83528360049660409460ff89878a20015416611dd1575b8288526002815284868920541697889133151580611d0c575b509060027fddf252ad1be2c89b69c2b068fc378daa952ba7f163c4a11628f55a4df523b3ef9284611c9e575b858352600381528983206001815401905586835252878120847fffffffffffffffffffffffff000000000000000000000000000000000000000082541617905580a41690818403611c66575050505050565b6064955051937f64283d7b00000000000000000000000000000000000000000000000000000000855284015260248301526044820152fd5b611cd787600052600460205260406000207fffffffffffffffffffffffff00000000000000000000000000000000000000008154169055565b848352600381528983207fffffffffffffffffffffffffffffffffffffffffffffffffffffffffffffffff8154019055611c14565b91939450915080611d91575b15611d2857869291889138611be8565b8589888a611d5d5760249251917f7e273289000000000000000000000000000000000000000000000000000000008352820152fd5b60449251917f177e802f00000000000000000000000000000000000000000000000000000000835233908301526024820152fd5b503388148015611db5575b80611d1857508682528881523385878420541614611d18565b5087825260058152858220338352815260ff8683205416611d9c565b9091507fdf8b4c520ffe197c5343c6f5aec59570151ef9a492f2c624fd45ddde6135ec42875260078152848720338852815260ff858820541615611e1757908591611bcf565b876064918651917f08c379a0000000000000000000000000000000000000000000000000000000008352820152600660248201527f6c6f636b656400000000000000000000000000000000000000000000000000006044820152fd5b80600052600260205273ffffffffffffffffffffffffffffffffffffffff60406000205416908115611ea3575090565b602490604051907f7e2732890000000000000000000000000000000000000000000000000000000082526004820152fd5b3360009081527f1970715d775088bdd82c491967377f9a1c75f161dafcdfb627233956ceb59f4860205260409020547fdf8b4c520ffe197c5343c6f5aec59570151ef9a492f2c624fd45ddde6135ec429060ff16156113375750565b3360009081527facd6f2d2c7ba1b8f9664c720c36e9d05ba3b4eb34e7b5df45169ba2eeb92550360205260409020547f8b5b16d04624687fcf0d0228f19993c9157c1ed07b41d8d430fd9100eb099fe89060ff16156113375750565b80600052600760205260406000203360005260205260ff60406000205416156113375750565b90600091808352600760205273ffffffffffffffffffffffffffffffffffffffff6040842092169182845260205260ff60408420541615600014612059578083526007602052604083208284526020526040832060017fffffffffffffffffffffffffffffffffffffffffffffffffffffffffffffff008254161790557f2f8788117e7eff1d82e926ec794901d17c78024a50270940304540a733656f0d339380a4600190565b505090565b90600091808352600760205273ffffffffffffffffffffffffffffffffffffffff6040842092169182845260205260ff60408420541660001461205957808352600760205260408320828452602052604083207fffffffffffffffffffffffffffffffffffffffffffffffffffffffffffffff0081541690557ff6391f5c32d9c69d2a47ea670b442974b53935d1edc7fd64eb21e047a839171b339380a4600190565b60ff6008541661210d57565b60046040517fd93c0665000000000000000000000000000000000000000000000000000000008152fd5b813b612144575b50505050565b73ffffffffffffffffffffffffffffffffffffffff949192939480931693604051937f150b7a020000000000000000000000000000000000000000000000000000000092838652336004870152166024850152604484015260806064840152826121b46020966084830190611951565b039285816000958187895af18491816122a8575b50612240575050503d600014612238573d6121e281611ac1565b906121f06040519283611a80565b81528091843d92013e5b8051928361223357602483604051907f64a0ae920000000000000000000000000000000000000000000000000000000082526004820152fd5b019050fd5b5060606121fa565b9092507fffffffff00000000000000000000000000000000000000000000000000000000919450160361227757503880808061213e565b602490604051907f64a0ae920000000000000000000000000000000000000000000000000000000082526004820152fd5b9091508681813d83116122fd575b6122c08183611a80565b810103126122f957517fffffffff00000000000000000000000000000000000000000000000000000000811681036122f95790386121c8565b8480fd5b503d6122b656fea2646970667358221220eb064f957e0e649e842191d21c7dccdd606a85ce71393587506c4f180b483adc64736f6c634300081800332f8788117e7eff1d82e926ec794901d17c78024a50270940304540a733656f0d6080346200038757601f1990601f906001600160401b03620027dd3881900384810186168401838111858210176200037157849282916040528339602093849181010312620003875751926001600160a01b03841684036200038757620000656200038c565b92601884527f5374616e646279204c6574746572206f6620437265646974000000000000000081850152620000996200038c565b90600482526353424c4360e01b8183015284519684881162000371576000978854966001978881811c9116801562000366575b858210146200035257908187849311620002ff575b5084908783116001146200029e578b9262000292575b5050600019600383901b1c191690871b1788555b82519485116200027e5785548681811c9116801562000273575b838210146200025f5784811162000217575b5081938511600114620001ae575050908291620001919692620001a2575b5050600019600383901b1c191690821b1790555b60ff19600754166007556200017e81620003ac565b506200018a816200044f565b50620004ed565b5060405161223190816200058c8239f35b01519050388062000155565b8588528188209497908816915b828210620001ff575050918493918762000191989410620001e5575b505050811b01905562000169565b015160001960f88460031b161c19169055388080620001d7565b808786978294978701518155019601940190620001bb565b8689528289208580880160051c82019285891062000255575b0160051c019087905b8281106200024957505062000137565b8a815501879062000239565b9250819262000230565b634e487b7160e01b89526022600452602489fd5b90607f169062000125565b634e487b7160e01b88526041600452602488fd5b015190503880620000f7565b90848a9416918c8052868d20928d5b88828210620002e85750508411620002ce575b505050811b0188556200010b565b015160001960f88460031b161c19169055388080620002c0565b8385015186558d97909501949384019301620002ad565b9091508a8052848b208780850160051c82019287861062000348575b918b91869594930160051c01915b82811062000339575050620000e1565b8d81558594508b910162000329565b925081926200031b565b634e487b7160e01b8b52602260045260248bfd5b90607f1690620000cc565b634e487b7160e01b600052604160045260246000fd5b600080fd5b60408051919082016001600160401b038111838210176200037157604052565b6001600160a01b031660008181527f31f4bc5980931cfff8fcc0887a354f492c853dee1983bdef4d9cb3e8a5ff876e60205260408120549091907fdf8b4c520ffe197c5343c6f5aec59570151ef9a492f2c624fd45ddde6135ec429060ff166200044a5780835260066020526040832082845260205260408320600160ff19825416179055600080516020620027bd833981519152339380a4600190565b505090565b6001600160a01b031660008181527fc0c6dd4f7aedf943ac46b952a0594f795b891c30544bfc4cb4ae23b82a4d909b60205260408120549091907f76afa8a5929fef1b4c03674b2152ae5aaad1d974b8a4021c59477bcc846ccc1e9060ff166200044a5780835260066020526040832082845260205260408320600160ff19825416179055600080516020620027bd833981519152339380a4600190565b6001600160a01b031660008181527fba39d2e119d4075e56dadcfd5cd5b862305d2c4d32649e4866948958647d49cf60205260408120549091907f8b5b16d04624687fcf0d0228f19993c9157c1ed07b41d8d430fd9100eb099fe89060ff166200044a5780835260066020526040832082845260205260408320600160ff19825416179055600080516020620027bd833981519152339380a460019056fe60806040908082526004918236101561001757600080fd5b600091823560e01c90816301ffc9a7146117805750806306fdde0314611695578063081812fc14611630578063095ea7b3146114df57806323b872dd146114c7578063248a9ca31461147e5780632f2ff15d1461143657806336568abe146113ad5780633b3041471461126e5780633f4ba83a146111af57806340e58ee5146110bc57806342842e0e1461108e5780635c975abb1461104d5780636352211e14610ff257806370a0823114610f595780638456cb5914610ec357806391d1485414610e5257806395d89b4114610ce0578063a217fddf14610ca8578063a22cb46514610ba4578063a2a0e4c314610acf578063b88d4fde14610a1c578063bf81bf43146108b8578063c87b56dd14610849578063d547741f146107eb578063e985e9c5146107735763ff1869371461014e57600080fd5b3461076f5760a07ffffffffffffffffffffffffffffffffffffffffffffffffffffffffffffffffc36011261076f578235610187611927565b93604435906064359467ffffffffffffffff9687871680970361076f576084359688881680980361076b577f76afa8a5929fef1b4c03674b2152ae5aaad1d974b8a4021c59477bcc846ccc1e9889845260209960068b528885203386528b5260ff89862054161561073557506101fb611ffc565b888210156106d957600854917fffffffffffffffffffffffffffffffffffffffffffffffffffffffffffffffff928381146106ad57600101998a60085589519260c084018481108282111761068157918c8c9694928f9a9998969488528c85528a8501948c73ffffffffffffffffffffffffffffffffffffffff998a8a169d8e8952818401928352606084019788526080840196875260a08401958d87528d52600990528b20915182558960018301975116967fffffffffffffffffffffffff000000000000000000000000000000000000000097888254161790555160028201556003019351168d84549351901b6fffffffffffffffff00000000000000001691518a8110156106555770ff000000000000000000000000000000007fffffffffffffffffffffffffffffff00000000000000000000000000000000009160801b1693161717179055895193610351856119aa565b8585528715610626578a8c9260028f8b94868b52828252848b2054169384151597886105d7575b50858b52600382528a2060018154019055858a5252828d8920918254161790557fddf252ad1be2c89b69c2b068fc378daa952ba7f163c4a11628f55a4df523b3ef8780a46105a8573b610404575b50505084927f721dd0a071b55dc1474bd9e3d428d2ecdb8d4093ec1d31ffbfc1d721ae0b38d49260609286519283528883015285820152a251908152f35b8695929793969491945189818061045c7f150b7a0200000000000000000000000000000000000000000000000000000000958683528d33908401528a60248401528960448401526080606484015260848301906118a1565b0381898c5af186918161054c575b506104e35750505050503d6000146104db573d61048681611a36565b90610493845192836119f5565b81528091863d92013e5b805194856104d55750506024935051917f64a0ae92000000000000000000000000000000000000000000000000000000008352820152fd5b85925001fd5b50606061049d565b7fffffffff0000000000000000000000000000000000000000000000000000000091929550979295969397160361051e5750828260606103c6565b6024918551917f64a0ae92000000000000000000000000000000000000000000000000000000008352820152fd5b9091508a81813d83116105a1575b61056481836119f5565b8101031261059d57517fffffffff000000000000000000000000000000000000000000000000000000008116810361059d57903861046a565b8680fd5b503d61055a565b602484848a51917f73c6ac6e000000000000000000000000000000000000000000000000000000008352820152fd5b61061088600052600460205260406000207fffffffffffffffffffffffff00000000000000000000000000000000000000008154169055565b858c5260038352818c2090815401905538610378565b602487878d51917f64a0ae92000000000000000000000000000000000000000000000000000000008352820152fd5b60248a60218d7f4e487b7100000000000000000000000000000000000000000000000000000000835252fd5b60248860418b7f4e487b7100000000000000000000000000000000000000000000000000000000835252fd5b6024866011897f4e487b7100000000000000000000000000000000000000000000000000000000835252fd5b6064858b8a51917f08c379a0000000000000000000000000000000000000000000000000000000008352820152600960248201527f62616420646174657300000000000000000000000000000000000000000000006044820152fd5b856044918a51917fe2517d3f00000000000000000000000000000000000000000000000000000000835233908301526024820152fd5b8280fd5b5080fd5b503461076f57807ffffffffffffffffffffffffffffffffffffffffffffffffffffffffffffffffc36011261076f5760ff816020936107b06118ff565b6107b8611927565b73ffffffffffffffffffffffffffffffffffffffff91821683526005875283832091168252855220549151911615158152f35b5082903461076b57807ffffffffffffffffffffffffffffffffffffffffffffffffffffffffffffffffc36011261076b576108459135610840600161082e611927565b93838752600660205286200154611e87565b611f59565b5080f35b503461076f5760207ffffffffffffffffffffffffffffffffffffffffffffffffffffffffffffffffc36011261076f576108866108b49335611d37565b50818151610893816119aa565b528051916108a0836119aa565b8252519182916020835260208301906118a1565b0390f35b50823461076b5760207ffffffffffffffffffffffffffffffffffffffffffffffffffffffffffffffffc36011261076b578035916108f4611d98565b82845260096020526003818520019182549160ff8360801c16828110156109f05761091f9015611cd2565b67ffffffffffffffff83821c164211156109935750507fffffffffffffffffffffffffffffff00ffffffffffffffffffffffffffffffff167002000000000000000000000000000000001790557f0d342d4f9e1d82472f6c2a2ef783a826b6872f25f69ac443cfdaa3339f4ad0598280a280f35b90602060649251917f08c379a0000000000000000000000000000000000000000000000000000000008352820152600b60248201527f6e6f7420657870697265640000000000000000000000000000000000000000006044820152fd5b6024876021857f4e487b7100000000000000000000000000000000000000000000000000000000835252fd5b5082903461076b5760807ffffffffffffffffffffffffffffffffffffffffffffffffffffffffffffffffc36011261076b57610a566118ff565b610a5e611927565b60443591856064359567ffffffffffffffff871161076f573660238801121561076f5786013595610a9a610a9188611a36565b965196876119f5565b868652366024888301011161076f5786610acc976024602093018389013786010152610ac7838383611a70565b612032565b80f35b503461076f5760207ffffffffffffffffffffffffffffffffffffffffffffffffffffffffffffffffc36011261076f578235825260096020528082209182549273ffffffffffffffffffffffffffffffffffffffff60018201541692600360028301549201549067ffffffffffffffff9260ff8360801c1695825197885260208801528187015282821660608701521c16608084015283821015610b785760c0838360a0820152f35b806021857f4e487b71000000000000000000000000000000000000000000000000000000006024945252fd5b5082903461076b57807ffffffffffffffffffffffffffffffffffffffffffffffffffffffffffffffffc36011261076b57610bdd6118ff565b9060243591821515809303610ca45773ffffffffffffffffffffffffffffffffffffffff16928315610c76575033845260056020528084208385526020528084207fffffffffffffffffffffffffffffffffffffffffffffffffffffffffffffff0081541660ff8416179055519081527f17307eab39ab6107e8899845ad3d59bd9653f200f220920489ca2b5937696c3160203392a380f35b8360249251917f5b08ba18000000000000000000000000000000000000000000000000000000008352820152fd5b8480fd5b503461076f57817ffffffffffffffffffffffffffffffffffffffffffffffffffffffffffffffffc36011261076f5751908152602090f35b509034610e4f57807ffffffffffffffffffffffffffffffffffffffffffffffffffffffffffffffffc360112610e4f5781519181600192600154938460011c9160018616958615610e45575b6020968785108114610e19578899509688969785829a529182600014610dd4575050600114610d78575b5050506108b49291610d699103856119f5565b519282849384528301906118a1565b9190869350600183527fb10e2d527612073b26eecdfd717e6a320cf44b4afac2b0732d9fcbe2b7fa0cf65b828410610dbc5750505082010181610d696108b4610d56565b8054848a018601528895508794909301928101610da3565b7fffffffffffffffffffffffffffffffffffffffffffffffffffffffffffffff00168782015293151560051b86019093019350849250610d6991506108b49050610d56565b60248360228c7f4e487b7100000000000000000000000000000000000000000000000000000000835252fd5b92607f1692610d2c565b80fd5b50823461076b57817ffffffffffffffffffffffffffffffffffffffffffffffffffffffffffffffffc36011261076b578160209360ff92610e91611927565b903582526006865273ffffffffffffffffffffffffffffffffffffffff83832091168252855220541690519015158152f35b503461076f57817ffffffffffffffffffffffffffffffffffffffffffffffffffffffffffffffffc36011261076f5760207f62e78cea01bee320cd4e420270b5ea74000d11b0c9f74754ebdbfc544b05a25891610f1e611e2b565b610f26611ffc565b60017fffffffffffffffffffffffffffffffffffffffffffffffffffffffffffffff00600754161760075551338152a180f35b509034610e4f5760207ffffffffffffffffffffffffffffffffffffffffffffffffffffffffffffffffc360112610e4f5773ffffffffffffffffffffffffffffffffffffffff610fa76118ff565b16928315610fc45750806020938392526003845220549051908152f35b9060249251917f89c62b64000000000000000000000000000000000000000000000000000000008352820152fd5b509034610e4f5760207ffffffffffffffffffffffffffffffffffffffffffffffffffffffffffffffffc360112610e4f575073ffffffffffffffffffffffffffffffffffffffff61104560209335611d37565b915191168152f35b503461076f57817ffffffffffffffffffffffffffffffffffffffffffffffffffffffffffffffffc36011261076f5760209060ff6007541690519015158152f35b503461076f57610acc906110a13661194a565b919251926110ae846119aa565b858452610ac7838383611a70565b50823461076b5760207ffffffffffffffffffffffffffffffffffffffffffffffffffffffffffffffffc36011261076b5760038135926110fa611d98565b83855260096020528420019081549060ff8260801c1690808210156111835750700300000000000000000000000000000000916111587fffffffffffffffffffffffffffffff00ffffffffffffffffffffffffffffffff9215611cd2565b161790557f85190c4a52fc5a654185db6cab8982c895cfc76c54481746d687732c7250378a8280a280f35b8560216024927f4e487b7100000000000000000000000000000000000000000000000000000000835252fd5b50823461076b57827ffffffffffffffffffffffffffffffffffffffffffffffffffffffffffffffffc36011261076b576111e7611e2b565b6007549060ff82161561124757507f5db9ee0a495bf2e6ff9c91a7834c1ba4fdd244a5e8aa4e537bd38aeae4b073aa917fffffffffffffffffffffffffffffffffffffffffffffffffffffffffffffff006020921660075551338152a180f35b82517f8dfc202b000000000000000000000000000000000000000000000000000000008152fd5b50823461076b5760207ffffffffffffffffffffffffffffffffffffffffffffffffffffffffffffffffc36011261076b578035916112aa611d98565b6112b2611ffc565b82845260096020526003818520019182549160ff8360801c16828110156109f0576112dd9015611cd2565b67ffffffffffffffff83821c1642116113505750507fffffffffffffffffffffffffffffff00ffffffffffffffffffffffffffffffff167001000000000000000000000000000000001790557f0e4f5e9c5d6828bae31b2d581d46b4cedc8194aab26b6074ed77e6ba03fa2df88280a280f35b90602060649251917f08c379a0000000000000000000000000000000000000000000000000000000008352820152600760248201527f65787069726564000000000000000000000000000000000000000000000000006044820152fd5b503461076f57807ffffffffffffffffffffffffffffffffffffffffffffffffffffffffffffffffc36011261076f576113e4611927565b903373ffffffffffffffffffffffffffffffffffffffff83160361140e5750610845919235611f59565b8390517f6697b232000000000000000000000000000000000000000000000000000000008152fd5b5082903461076b57807ffffffffffffffffffffffffffffffffffffffffffffffffffffffffffffffffc36011261076b576108459135611479600161082e611927565b611ead565b50823461076b5760207ffffffffffffffffffffffffffffffffffffffffffffffffffffffffffffffffc36011261076b5781602093600192358152600685522001549051908152f35b8234610e4f57610acc6114d93661194a565b91611a70565b5082903461076b57807ffffffffffffffffffffffffffffffffffffffffffffffffffffffffffffffffc36011261076b576115186118ff565b9160243561152581611d37565b33151580611610575b806115db575b6115ac57819073ffffffffffffffffffffffffffffffffffffffff809616958691167f8c5be1e5ebec7d5bd14f71427d1e84f3dd0314c0f7b2291e5b200ac8c7c3b9258880a484526020528220907fffffffffffffffffffffffff000000000000000000000000000000000000000082541617905580f35b83517fa9fbf51f0000000000000000000000000000000000000000000000000000000081523381850152602490fd5b5073ffffffffffffffffffffffffffffffffffffffff81168652600560205283862033875260205260ff848720541615611534565b503373ffffffffffffffffffffffffffffffffffffffff8216141561152e565b50823461076b5760207ffffffffffffffffffffffffffffffffffffffffffffffffffffffffffffffffc36011261076b57816020938273ffffffffffffffffffffffffffffffffffffffff933561168681611d37565b50825285522054169051908152f35b509034610e4f57807ffffffffffffffffffffffffffffffffffffffffffffffffffffffffffffffffc360112610e4f578151918182549260018460011c9160018616958615611776575b6020968785108114610e19578899509688969785829a529182600014610dd457505060011461171b575050506108b49291610d699103856119f5565b91908693508280527f290decd9548b62a8d60345a988386fc84ba6bc95484008f6362f93160ef3e5635b82841061175e5750505082010181610d696108b4610d56565b8054848a018601528895508794909301928101611745565b92607f16926116df565b8390853461076b5760207ffffffffffffffffffffffffffffffffffffffffffffffffffffffffffffffffc36011261076b57357fffffffff00000000000000000000000000000000000000000000000000000000811680910361076b57602092507f7965db0b000000000000000000000000000000000000000000000000000000008114908115611813575b5015158152f35b7f80ac58cd00000000000000000000000000000000000000000000000000000000811491508115611877575b811561184d575b508361180c565b7f01ffc9a70000000000000000000000000000000000000000000000000000000091501483611846565b7f5b5e139f000000000000000000000000000000000000000000000000000000008114915061183f565b919082519283825260005b8481106118eb5750507fffffffffffffffffffffffffffffffffffffffffffffffffffffffffffffffe0601f8460006020809697860101520116010190565b6020818301810151848301820152016118ac565b6004359073ffffffffffffffffffffffffffffffffffffffff8216820361192257565b600080fd5b6024359073ffffffffffffffffffffffffffffffffffffffff8216820361192257565b7ffffffffffffffffffffffffffffffffffffffffffffffffffffffffffffffffc60609101126119225773ffffffffffffffffffffffffffffffffffffffff90600435828116810361192257916024359081168103611922579060443590565b6020810190811067ffffffffffffffff8211176119c657604052565b7f4e487b7100000000000000000000000000000000000000000000000000000000600052604160045260246000fd5b90601f7fffffffffffffffffffffffffffffffffffffffffffffffffffffffffffffffe0910116810190811067ffffffffffffffff8211176119c657604052565b67ffffffffffffffff81116119c657601f017fffffffffffffffffffffffffffffffffffffffffffffffffffffffffffffffe01660200190565b909173ffffffffffffffffffffffffffffffffffffffff809316928315611ca157600092828452826020956002875260409684888820541696879133151580611bd9575b509060027fddf252ad1be2c89b69c2b068fc378daa952ba7f163c4a11628f55a4df523b3ef9284611b6b575b858352600381528b83206001815401905586835252898120847fffffffffffffffffffffffff000000000000000000000000000000000000000082541617905580a41692838303611b315750505050565b6064945051927f64283d7b000000000000000000000000000000000000000000000000000000008452600484015260248301526044820152fd5b611ba487600052600460205260406000207fffffffffffffffffffffffff00000000000000000000000000000000000000008154169055565b848352600381528b83207fffffffffffffffffffffffffffffffffffffffffffffffffffffffffffffffff8154019055611ae0565b91939450915080611c60575b15611bf557859291879138611ab4565b878688611c2b5760249151907f7e2732890000000000000000000000000000000000000000000000000000000082526004820152fd5b60449151907f177e802f0000000000000000000000000000000000000000000000000000000082523360048301526024820152fd5b503387148015611c85575b80611be55750858252600481523385898420541614611be5565b5086825260058152878220338352815260ff8883205416611c6b565b60246040517f64a0ae9200000000000000000000000000000000000000000000000000000000815260006004820152fd5b15611cd957565b60646040517f08c379a000000000000000000000000000000000000000000000000000000000815260206004820152600a60248201527f6e6f7420616374697665000000000000000000000000000000000000000000006044820152fd5b80600052600260205273ffffffffffffffffffffffffffffffffffffffff60406000205416908115611d67575090565b602490604051907f7e2732890000000000000000000000000000000000000000000000000000000082526004820152fd5b3360009081527f31f4bc5980931cfff8fcc0887a354f492c853dee1983bdef4d9cb3e8a5ff876e60205260409020547fdf8b4c520ffe197c5343c6f5aec59570151ef9a492f2c624fd45ddde6135ec429060ff1615611df45750565b604490604051907fe2517d3f0000000000000000000000000000000000000000000000000000000082523360048301526024820152fd5b3360009081527fba39d2e119d4075e56dadcfd5cd5b862305d2c4d32649e4866948958647d49cf60205260409020547f8b5b16d04624687fcf0d0228f19993c9157c1ed07b41d8d430fd9100eb099fe89060ff1615611df45750565b80600052600660205260406000203360005260205260ff6040600020541615611df45750565b90600091808352600660205273ffffffffffffffffffffffffffffffffffffffff6040842092169182845260205260ff60408420541615600014611f54578083526006602052604083208284526020526040832060017fffffffffffffffffffffffffffffffffffffffffffffffffffffffffffffff008254161790557f2f8788117e7eff1d82e926ec794901d17c78024a50270940304540a733656f0d339380a4600190565b505090565b90600091808352600660205273ffffffffffffffffffffffffffffffffffffffff6040842092169182845260205260ff604084205416600014611f5457808352600660205260408320828452602052604083207fffffffffffffffffffffffffffffffffffffffffffffffffffffffffffffff0081541690557ff6391f5c32d9c69d2a47ea670b442974b53935d1edc7fd64eb21e047a839171b339380a4600190565b60ff6007541661200857565b60046040517fd93c0665000000000000000000000000000000000000000000000000000000008152fd5b813b61203f575b50505050565b73ffffffffffffffffffffffffffffffffffffffff949192939480931693604051937f150b7a020000000000000000000000000000000000000000000000000000000092838652336004870152166024850152604484015260806064840152826120af60209660848301906118a1565b039285816000958187895af18491816121a3575b5061213b575050503d600014612133573d6120dd81611a36565b906120eb60405192836119f5565b81528091843d92013e5b8051928361212e57602483604051907f64a0ae920000000000000000000000000000000000000000000000000000000082526004820152fd5b019050fd5b5060606120f5565b9092507fffffffff000000000000000000000000000000000000000000000000000000009194501603612172575038808080612039565b602490604051907f64a0ae920000000000000000000000000000000000000000000000000000000082526004820152fd5b9091508681813d83116121f4575b6121bb81836119f5565b81010312610ca457517fffffffff0000000000000000000000000000000000000000000000000000000081168103610ca45790386120c3565b503d6121b156fea2646970667358221220d4efa2c93f44633ff34510cd9e74be13b00fb11c75906619909050f0e3737db664736f6c634300081800332f8788117e7eff1d82e926ec794901d17c78024a50270940304540a733656f0d6080346200037757601f1990601f906001600160401b0362002ea83881900384810186168401838111858210176200036157849282916040528339602093849181010312620003775751926001600160a01b03841684036200037757620000656200037c565b92600b84526a14dd5c995d1e48109bdb9960aa1b81850152620000876200037c565b90600682526553555245545960d01b8183015284519684881162000361576000978854966001978881811c9116801562000356575b858210146200034257908187849311620002ef575b5084908783116001146200028e578b9262000282575b5050600019600383901b1c191690871b1788555b82519485116200026e5785548681811c9116801562000263575b838210146200024f5784811162000207575b50819385116001146200019e57505090829162000181969262000192575b5050600019600383901b1c191690821b1790555b60ff19600754166007556200016e816200039c565b506200017a816200043f565b50620004dd565b5060405161290c90816200057c8239f35b01519050388062000145565b8588528188209497908816915b828210620001ef575050918493918762000181989410620001d5575b505050811b01905562000159565b015160001960f88460031b161c19169055388080620001c7565b808786978294978701518155019601940190620001ab565b8689528289208580880160051c82019285891062000245575b0160051c019087905b8281106200023957505062000127565b8a815501879062000229565b9250819262000220565b634e487b7160e01b89526022600452602489fd5b90607f169062000115565b634e487b7160e01b88526041600452602488fd5b015190503880620000e7565b90848a9416918c8052868d20928d5b88828210620002d85750508411620002be575b505050811b018855620000fb565b015160001960f88460031b161c19169055388080620002b0565b8385015186558d979095019493840193016200029d565b9091508a8052848b208780850160051c82019287861062000338575b918b91869594930160051c01915b82811062000329575050620000d1565b8d81558594508b910162000319565b925081926200030b565b634e487b7160e01b8b52602260045260248bfd5b90607f1690620000bc565b634e487b7160e01b600052604160045260246000fd5b600080fd5b60408051919082016001600160401b038111838210176200036157604052565b6001600160a01b031660008181527f31f4bc5980931cfff8fcc0887a354f492c853dee1983bdef4d9cb3e8a5ff876e60205260408120549091907fdf8b4c520ffe197c5343c6f5aec59570151ef9a492f2c624fd45ddde6135ec429060ff166200043a5780835260066020526040832082845260205260408320600160ff1982541617905560008051602062002e88833981519152339380a4600190565b505090565b6001600160a01b031660008181527fc0c6dd4f7aedf943ac46b952a0594f795b891c30544bfc4cb4ae23b82a4d909b60205260408120549091907f76afa8a5929fef1b4c03674b2152ae5aaad1d974b8a4021c59477bcc846ccc1e9060ff166200043a5780835260066020526040832082845260205260408320600160ff1982541617905560008051602062002e88833981519152339380a4600190565b6001600160a01b031660008181527fba39d2e119d4075e56dadcfd5cd5b862305d2c4d32649e4866948958647d49cf60205260408120549091907f8b5b16d04624687fcf0d0228f19993c9157c1ed07b41d8d430fd9100eb099fe89060ff166200043a5780835260066020526040832082845260205260408320600160ff1982541617905560008051602062002e88833981519152339380a460019056fe608080604052600436101561001357600080fd5b60003560e01c90816301ffc9a714611dcc5750806306fdde0314611d03578063081812fc14611c99578063095ea7b314611b3b57806311b91d2414611a7b57806323b872dd14611a64578063248a9ca314611a175780632f2ff15d146119ba57806336568abe146119305780633f4ba83a1461187257806342842e0e146118445780635c975abb146118035780635f1c17c01461175b57806361b3381f14610f7d5780636352211e14610f2357806370a0823114610e875780638456cb5914610df1578063910291e714610c7f57806391d1485414610c0657806395d89b4114610ae7578063a217fddf14610aad578063a22cb465146109a8578063a3a5dcf614610494578063b88d4fde1461040b578063c87b56dd1461039a578063d547741f1461033b578063e985e9c5146102b95763f894160e1461015357600080fd5b346102b45760407ffffffffffffffffffffffffffffffffffffffffffffffffffffffffffffffffc3601126102b457602435600435600052602090600a825260406000209081548110156102b4576101aa916120cd565b50805490600167ffffffffffffffff60018301541691600281019185604051936000928154916101d983612118565b8088529260018116908115610275575060011461023c575b505050509160ff600361022d9361020d8461023897038561201b565b015416936040519687968752860152608060408601526080850190611eec565b91606084019061216b565b0390f35b6000908152838120939450925b828410610262575050508301018560038361020d6101f1565b8054878501860152928401928101610249565b7fffffffffffffffffffffffffffffffffffffffffffffffffffffffffffffff001685890152505050151560051b84010190508560038361020d6101f1565b600080fd5b346102b45760407ffffffffffffffffffffffffffffffffffffffffffffffffffffffffffffffffc3601126102b4576102f0611f4a565b6102f8611f6d565b9073ffffffffffffffffffffffffffffffffffffffff809116600052600560205260406000209116600052602052602060ff604060002054166040519015158152f35b346102b45760407ffffffffffffffffffffffffffffffffffffffffffffffffffffffffffffffffc3601126102b457610398600435610378611f6d565b9080600052600660205261039360016040600020015461255e565b612630565b005b346102b45760207ffffffffffffffffffffffffffffffffffffffffffffffffffffffffffffffffc3601126102b4576103d4600435612445565b5060006040516103e381611fff565b526102386040516103f381611fff565b60008152604051918291602083526020830190611eec565b346102b45760807ffffffffffffffffffffffffffffffffffffffffffffffffffffffffffffffffc3601126102b457610442611f4a565b61044a611f6d565b906044356064359267ffffffffffffffff84116102b457366023850112156102b457610483610398943690602481600401359101612096565b9261048f838383612178565b612709565b346102b45760607ffffffffffffffffffffffffffffffffffffffffffffffffffffffffffffffffc3601126102b457600435602480356044359167ffffffffffffffff908184116102b457366023850112156102b4578360040135938285116102b457368286830101116102b45761050a6126d3565b856000526020926009845260406000209560019673ffffffffffffffffffffffffffffffffffffffff8882015416330361094b5782600382015461055360ff8260801c166123a9565b60401c1642116108ee576002015486116108915787600052600a855260406000209182549760405194608086018681108482111761086357906105a89160405289875288870194844216865288369201612096565b92604086019384526060860194828652680100000000000000008b1015610863578a6105d89184820181556120cd565b96909661083557518655828287019151167fffffffffffffffffffffffffffffffffffffffffffffffff00000000000000008254161790556002850192518051928311610807576106298454612118565b601f81116107be575b508790601f841160011461071d576000918491826106f2575b50507fffffffffffffffffffffffffffffffffffffffffffffffffffffffffffffffff91921b9260031b1c19161790555b519160058310156106c55750916106ba6040949260037e16b36dc742e36d40c93764b5d2448ab23f153dbfde9a2e22261968924f511e97950161240e565b8351928352820152a2005b7f4e487b710000000000000000000000000000000000000000000000000000000060005260216004526000fd5b015191507fffffffffffffffffffffffffffffffffffffffffffffffffffffffffffffffff8d61064b565b907fffffffffffffffffffffffffffffffffffffffffffffffffffffffffffffffe0849394169185600052838a6000209360005b8c888383106107a75750505010610770575b505050811b01905561067c565b01517fffffffffffffffffffffffffffffffffffffffffffffffffffffffffffffffff60f88460031b161c191690558a8080610763565b868601518855909601959485019487935001610751565b8460005288600020601f850160051c8101918a86106107fd575b601f0160051c019083905b8281106107f1575050610632565b600081550183906107e3565b90915081906107d8565b867f4e487b710000000000000000000000000000000000000000000000000000000060005260416004526000fd5b877f4e487b710000000000000000000000000000000000000000000000000000000060005260006004526000fd5b877f4e487b710000000000000000000000000000000000000000000000000000000060005260416004526000fd5b606485601186604051927f08c379a000000000000000000000000000000000000000000000000000000000845260048401528201527f657863656564732070656e616c2073756d0000000000000000000000000000006044820152fd5b606486600787604051927f08c379a000000000000000000000000000000000000000000000000000000000845260048401528201527f65787069726564000000000000000000000000000000000000000000000000006044820152fd5b606486600b87604051927f08c379a000000000000000000000000000000000000000000000000000000000845260048401528201527f6e6f74206f626c696765650000000000000000000000000000000000000000006044820152fd5b346102b45760407ffffffffffffffffffffffffffffffffffffffffffffffffffffffffffffffffc3601126102b4576109df611f4a565b73ffffffffffffffffffffffffffffffffffffffff6109fc611f90565b9116908115610a7c573360005260056020526040600020826000526020526040600020901515907fffffffffffffffffffffffffffffffffffffffffffffffffffffffffffffff0081541660ff83161790556040519081527f17307eab39ab6107e8899845ad3d59bd9653f200f220920489ca2b5937696c3160203392a3005b602482604051907f5b08ba180000000000000000000000000000000000000000000000000000000082526004820152fd5b346102b45760007ffffffffffffffffffffffffffffffffffffffffffffffffffffffffffffffffc3601126102b457602060405160008152f35b346102b45760007ffffffffffffffffffffffffffffffffffffffffffffffffffffffffffffffffc3601126102b457604051600060018260015492610b2b84612118565b9283835260209485600182169182600014610bc8575050600114610b6b575b50610b579250038361201b565b610238604051928284938452830190611eec565b84915060016000527fb10e2d527612073b26eecdfd717e6a320cf44b4afac2b0732d9fcbe2b7fa0cf6906000915b858310610bb0575050610b57935082010185610b4a565b80548389018501528794508693909201918101610b99565b7fffffffffffffffffffffffffffffffffffffffffffffffffffffffffffffff001685820152610b5795151560051b8501019250879150610b4a9050565b346102b45760407ffffffffffffffffffffffffffffffffffffffffffffffffffffffffffffffffc3601126102b457610c3d611f6d565b600435600052600660205273ffffffffffffffffffffffffffffffffffffffff60406000209116600052602052602060ff604060002054166040519015158152f35b346102b45760607ffffffffffffffffffffffffffffffffffffffffffffffffffffffffffffffffc3601126102b45760043560243560443560058110156102b457610cc86124a6565b610cd06126d3565b826000526009602052610cf060ff60036040600020015460801c166123a9565b82600052600a6020526003610d098360406000206120cd565b50019160ff8354166005811015610dc257600103610d6457610d6182610d526040947fabb642d862da81928d52f6af51c57ac89a0e964c3b401beb18e7cd2ee2ee801c9661240e565b8351928352602083019061216b565ba2005b60646040517f08c379a000000000000000000000000000000000000000000000000000000000815260206004820152600960248201527f6e6f742066696c656400000000000000000000000000000000000000000000006044820152fd5b7f4e487b7100000000000000000000000000000000000000000000000000000000600052602160045260246000fd5b346102b45760007ffffffffffffffffffffffffffffffffffffffffffffffffffffffffffffffffc3601126102b457610e28612502565b610e306126d3565b60017fffffffffffffffffffffffffffffffffffffffffffffffffffffffffffffff0060075416176007557f62e78cea01bee320cd4e420270b5ea74000d11b0c9f74754ebdbfc544b05a2586020604051338152a1005b346102b45760207ffffffffffffffffffffffffffffffffffffffffffffffffffffffffffffffffc3601126102b45773ffffffffffffffffffffffffffffffffffffffff610ed3611f4a565b168015610ef25760005260036020526020604060002054604051908152f35b60246040517f89c62b6400000000000000000000000000000000000000000000000000000000815260006004820152fd5b346102b45760207ffffffffffffffffffffffffffffffffffffffffffffffffffffffffffffffffc3601126102b4576020610f5f600435612445565b73ffffffffffffffffffffffffffffffffffffffff60405191168152f35b346102b45760a07ffffffffffffffffffffffffffffffffffffffffffffffffffffffffffffffffc3601126102b457610fb4611f4a565b610fbc611f6d565b6064359067ffffffffffffffff821682036102b4576084359167ffffffffffffffff831683036102b4573360009081527fc0c6dd4f7aedf943ac46b952a0594f795b891c30544bfc4cb4ae23b82a4d909b60205260409020547f76afa8a5929fef1b4c03674b2152ae5aaad1d974b8a4021c59477bcc846ccc1e9060ff161561172457506110486126d3565b67ffffffffffffffff831667ffffffffffffffff821610156116c657600854927fffffffffffffffffffffffffffffffffffffffffffffffffffffffffffffffff841461169757600184016008556040519160c083019183831067ffffffffffffffff841117611668576112389260405273ffffffffffffffffffffffffffffffffffffffff8716845273ffffffffffffffffffffffffffffffffffffffff851660208501526040840190604435825267ffffffffffffffff606086019316835267ffffffffffffffff608086019116815267ffffffffffffffff600360a08701936001855260018a01600052600960205260406000209073ffffffffffffffffffffffffffffffffffffffff895116987fffffffffffffffffffffffff0000000000000000000000000000000000000000998a84541617835573ffffffffffffffffffffffffffffffffffffffff602060018501920151168a825416179055516002820155019351167fffffffffffffffffffffffffffffffff000000000000000000000000000000006fffffffffffffffff00000000000000008554935160401b169216171782555115157fffffffffffffffffffffffffffffff00ffffffffffffffffffffffffffffffff70ff00000000000000000000000000000000835492151560801b169116179055565b6040519061124582611fff565b6000825273ffffffffffffffffffffffffffffffffffffffff8516156116375760018401600052600260205273ffffffffffffffffffffffffffffffffffffffff6040600020541680151591826115c2575b73ffffffffffffffffffffffffffffffffffffffff8716600052600360205260406000206001815401905560018601600052600260205260406000209073ffffffffffffffffffffffffffffffffffffffff881690825416179055600185019073ffffffffffffffffffffffffffffffffffffffff8716907fddf252ad1be2c89b69c2b068fc378daa952ba7f163c4a11628f55a4df523b3ef600080a461159157833b6113a2575b509173ffffffffffffffffffffffffffffffffffffffff6020938160405193168352168382015260443560408201527f039f88044d6bbaed701c293f868e06e8a8935a6bc53a0528fe94d6822995696e60606001840192a2600160405191018152f35b604051602081806113f87f150b7a02000000000000000000000000000000000000000000000000000000009586835233600484015260006024840152600189016044840152608060648401526084830190611eec565b0381600073ffffffffffffffffffffffffffffffffffffffff8a165af160009181611534575b506114ac57843d156114a4573d906114358261205c565b91611443604051938461201b565b82523d6000602084013e5b8151918261149d5760248273ffffffffffffffffffffffffffffffffffffffff604051917f64a0ae92000000000000000000000000000000000000000000000000000000008352166004820152fd5b9050602001fd5b60609061144e565b7fffffffff0000000000000000000000000000000000000000000000000000000016036114ed5773ffffffffffffffffffffffffffffffffffffffff61133f565b60248373ffffffffffffffffffffffffffffffffffffffff604051917f64a0ae92000000000000000000000000000000000000000000000000000000008352166004820152fd5b9091506020813d602011611589575b816115506020938361201b565b810103126102b457517fffffffff00000000000000000000000000000000000000000000000000000000811681036102b457908661141e565b3d9150611543565b60246040517f73c6ac6e00000000000000000000000000000000000000000000000000000000815260006004820152fd5b6115fe60018701600052600460205260406000207fffffffffffffffffffffffff00000000000000000000000000000000000000008154169055565b81600052600360205260406000207fffffffffffffffffffffffffffffffffffffffffffffffffffffffffffffffff8154019055611297565b60246040517f64a0ae9200000000000000000000000000000000000000000000000000000000815260006004820152fd5b7f4e487b7100000000000000000000000000000000000000000000000000000000600052604160045260246000fd5b7f4e487b7100000000000000000000000000000000000000000000000000000000600052601160045260246000fd5b60646040517f08c379a000000000000000000000000000000000000000000000000000000000815260206004820152600960248201527f62616420646174657300000000000000000000000000000000000000000000006044820152fd5b604490604051907fe2517d3f0000000000000000000000000000000000000000000000000000000082523360048301526024820152fd5b346102b45760207ffffffffffffffffffffffffffffffffffffffffffffffffffffffffffffffffc3601126102b457600435600052600960205260c0604060002060ff73ffffffffffffffffffffffffffffffffffffffff918281541692600182015416600360028301549201549167ffffffffffffffff916040519586526020860152604085015280821660608501528160401c16608084015260801c16151560a0820152f35b346102b45760007ffffffffffffffffffffffffffffffffffffffffffffffffffffffffffffffffc3601126102b457602060ff600754166040519015158152f35b346102b45761039861185536611f9f565b906040519261186384611fff565b6000845261048f838383612178565b346102b45760007ffffffffffffffffffffffffffffffffffffffffffffffffffffffffffffffffc3601126102b4576118a9612502565b60075460ff811615611906577fffffffffffffffffffffffffffffffffffffffffffffffffffffffffffffff00166007557f5db9ee0a495bf2e6ff9c91a7834c1ba4fdd244a5e8aa4e537bd38aeae4b073aa6020604051338152a1005b60046040517f8dfc202b000000000000000000000000000000000000000000000000000000008152fd5b346102b45760407ffffffffffffffffffffffffffffffffffffffffffffffffffffffffffffffffc3601126102b457611967611f6d565b3373ffffffffffffffffffffffffffffffffffffffff8216036119905761039890600435612630565b60046040517f6697b232000000000000000000000000000000000000000000000000000000008152fd5b346102b45760407ffffffffffffffffffffffffffffffffffffffffffffffffffffffffffffffffc3601126102b4576103986004356119f7611f6d565b90806000526006602052611a1260016040600020015461255e565b612584565b346102b45760207ffffffffffffffffffffffffffffffffffffffffffffffffffffffffffffffffc3601126102b45760043560005260066020526020600160406000200154604051908152f35b346102b457610398611a7536611f9f565b91612178565b346102b45760407ffffffffffffffffffffffffffffffffffffffffffffffffffffffffffffffffc3601126102b4576004357fa0596a4b7a3b268f6f13d7ccab90449ee9d0dcc4f876967851a03e191019593f6020611ad8611f90565b611ae06124a6565b6000848152600983526040902060030180547fffffffffffffffffffffffffffffff00ffffffffffffffffffffffffffffffff1682151560801b70ff00000000000000000000000000000000161790556040519015158152a2005b346102b45760407ffffffffffffffffffffffffffffffffffffffffffffffffffffffffffffffffc3601126102b457611b72611f4a565b602435611b7e81612445565b33151580611c79575b80611c3e575b611c0e57819073ffffffffffffffffffffffffffffffffffffffff809416938491167f8c5be1e5ebec7d5bd14f71427d1e84f3dd0314c0f7b2291e5b200ac8c7c3b925600080a460005260046020526040600020907fffffffffffffffffffffffff0000000000000000000000000000000000000000825416179055600080f35b60246040517fa9fbf51f000000000000000000000000000000000000000000000000000000008152336004820152fd5b5073ffffffffffffffffffffffffffffffffffffffff8116600052600560205260406000203360005260205260ff6040600020541615611b8d565b503373ffffffffffffffffffffffffffffffffffffffff82161415611b87565b346102b45760207ffffffffffffffffffffffffffffffffffffffffffffffffffffffffffffffffc3601126102b457600435611cd481612445565b506000526004602052602073ffffffffffffffffffffffffffffffffffffffff60406000205416604051908152f35b346102b45760007ffffffffffffffffffffffffffffffffffffffffffffffffffffffffffffffffc3601126102b457604051600080549082611d4483612118565b9182825260209360019085600182169182600014610bc8575050600114611d725750610b579250038361201b565b6000808052859250907f290decd9548b62a8d60345a988386fc84ba6bc95484008f6362f93160ef3e5635b858310611db4575050610b57935082010185610b4a565b80548389018501528794508693909201918101611d9d565b346102b45760207ffffffffffffffffffffffffffffffffffffffffffffffffffffffffffffffffc3601126102b457600435907fffffffff0000000000000000000000000000000000000000000000000000000082168092036102b457817f7965db0b0000000000000000000000000000000000000000000000000000000060209314908115611e5e575b5015158152f35b7f80ac58cd00000000000000000000000000000000000000000000000000000000811491508115611ec2575b8115611e98575b5083611e57565b7f01ffc9a70000000000000000000000000000000000000000000000000000000091501483611e91565b7f5b5e139f0000000000000000000000000000000000000000000000000000000081149150611e8a565b919082519283825260005b848110611f365750507fffffffffffffffffffffffffffffffffffffffffffffffffffffffffffffffe0601f8460006020809697860101520116010190565b602081830181015184830182015201611ef7565b6004359073ffffffffffffffffffffffffffffffffffffffff821682036102b457565b6024359073ffffffffffffffffffffffffffffffffffffffff821682036102b457565b6024359081151582036102b457565b7ffffffffffffffffffffffffffffffffffffffffffffffffffffffffffffffffc60609101126102b45773ffffffffffffffffffffffffffffffffffffffff9060043582811681036102b4579160243590811681036102b4579060443590565b6020810190811067ffffffffffffffff82111761166857604052565b90601f7fffffffffffffffffffffffffffffffffffffffffffffffffffffffffffffffe0910116810190811067ffffffffffffffff82111761166857604052565b67ffffffffffffffff811161166857601f017fffffffffffffffffffffffffffffffffffffffffffffffffffffffffffffffe01660200190565b9291926120a28261205c565b916120b0604051938461201b565b8294818452818301116102b4578281602093846000960137010152565b80548210156120e95760005260206000209060021b0190600090565b7f4e487b7100000000000000000000000000000000000000000000000000000000600052603260045260246000fd5b90600182811c92168015612161575b602083101461213257565b7f4e487b7100000000000000000000000000000000000000000000000000000000600052602260045260246000fd5b91607f1691612127565b906005821015610dc25752565b909173ffffffffffffffffffffffffffffffffffffffff809316928315611637576000928284528260209560028752604096848888205416968791331515806122e1575b509060027fddf252ad1be2c89b69c2b068fc378daa952ba7f163c4a11628f55a4df523b3ef9284612273575b858352600381528b83206001815401905586835252898120847fffffffffffffffffffffffff000000000000000000000000000000000000000082541617905580a416928383036122395750505050565b6064945051927f64283d7b000000000000000000000000000000000000000000000000000000008452600484015260248301526044820152fd5b6122ac87600052600460205260406000207fffffffffffffffffffffffff00000000000000000000000000000000000000008154169055565b848352600381528b83207fffffffffffffffffffffffffffffffffffffffffffffffffffffffffffffffff81540190556121e8565b91939450915080612368575b156122fd578592918791386121bc565b8786886123335760249151907f7e2732890000000000000000000000000000000000000000000000000000000082526004820152fd5b60449151907f177e802f0000000000000000000000000000000000000000000000000000000082523360048301526024820152fd5b50338714801561238d575b806122ed57508582526004815233858984205416146122ed565b5086825260058152878220338352815260ff8883205416612373565b156123b057565b60646040517f08c379a000000000000000000000000000000000000000000000000000000000815260206004820152600a60248201527f6e6f7420616374697665000000000000000000000000000000000000000000006044820152fd5b906005811015610dc25760ff7fffffffffffffffffffffffffffffffffffffffffffffffffffffffffffffff008354169116179055565b80600052600260205273ffffffffffffffffffffffffffffffffffffffff60406000205416908115612475575090565b602490604051907f7e2732890000000000000000000000000000000000000000000000000000000082526004820152fd5b3360009081527f31f4bc5980931cfff8fcc0887a354f492c853dee1983bdef4d9cb3e8a5ff876e60205260409020547fdf8b4c520ffe197c5343c6f5aec59570151ef9a492f2c624fd45ddde6135ec429060ff16156117245750565b3360009081527fba39d2e119d4075e56dadcfd5cd5b862305d2c4d32649e4866948958647d49cf60205260409020547f8b5b16d04624687fcf0d0228f19993c9157c1ed07b41d8d430fd9100eb099fe89060ff16156117245750565b80600052600660205260406000203360005260205260ff60406000205416156117245750565b90600091808352600660205273ffffffffffffffffffffffffffffffffffffffff6040842092169182845260205260ff6040842054161560001461262b578083526006602052604083208284526020526040832060017fffffffffffffffffffffffffffffffffffffffffffffffffffffffffffffff008254161790557f2f8788117e7eff1d82e926ec794901d17c78024a50270940304540a733656f0d339380a4600190565b505090565b90600091808352600660205273ffffffffffffffffffffffffffffffffffffffff6040842092169182845260205260ff60408420541660001461262b57808352600660205260408320828452602052604083207fffffffffffffffffffffffffffffffffffffffffffffffffffffffffffffff0081541690557ff6391f5c32d9c69d2a47ea670b442974b53935d1edc7fd64eb21e047a839171b339380a4600190565b60ff600754166126df57565b60046040517fd93c0665000000000000000000000000000000000000000000000000000000008152fd5b813b612716575b50505050565b73ffffffffffffffffffffffffffffffffffffffff949192939480931693604051937f150b7a020000000000000000000000000000000000000000000000000000000092838652336004870152166024850152604484015260806064840152826127866020966084830190611eec565b039285816000958187895af184918161287a575b50612812575050503d60001461280a573d6127b48161205c565b906127c2604051928361201b565b81528091843d92013e5b8051928361280557602483604051907f64a0ae920000000000000000000000000000000000000000000000000000000082526004820152fd5b019050fd5b5060606127cc565b9092507fffffffff000000000000000000000000000000000000000000000000000000009194501603612849575038808080612710565b602490604051907f64a0ae920000000000000000000000000000000000000000000000000000000082526004820152fd5b9091508681813d83116128cf575b612892818361201b565b810103126128cb57517fffffffff00000000000000000000000000000000000000000000000000000000811681036128cb57903861279a565b8480fd5b503d61288856fea264697066735822122090eb704d5afd8a7855b47f9776b01708af18bbd6819241170eb969cdbe6910bc64736f6c634300081800332f8788117e7eff1d82e926ec794901d17c78024a50270940304540a733656f0d608060405234620003cf5762001e11803803806200001d81620003d4565b928339810160a082820312620003cf5781516001600160401b039290838111620003cf57826200004f918301620003fa565b6020928383015190858211620003cf576200006c918401620003fa565b6040830151946001600160a01b03938487168703620003cf576060810151948516809503620003cf576080015192805190828211620002cf576003918254906001928383811c93168015620003c4575b8a841014620003ae578190601f9384811162000358575b508a90848311600114620002f157600092620002e5575b505060001982861b1c191690831b1783555b8451938411620002cf5760049485548381811c91168015620002c4575b8a821014620002af5782811162000264575b5088918511600114620001e0579284809360008051602062001df18339815191529b9693620001809896600095620001d4575b50501b92600019911b1c19161790555b62000179816200046c565b506200050f565b50600680546001600160a01b031916831790556007819055604051917fa970409706553acbb8c86c1bc79621a1e9decfe2e5f083d3ee9dc215d07cea39600080a28152a16040516118239081620005ae8239f35b0151935038806200015e565b91939290601f1984169286600052896000209360005b8181106200024e57509185939162000180989660008051602062001df18339815191529d9896941062000233575b50505050811b0190556200016e565b01519060f884600019921b161c191690553880808062000224565b82840151865594870194928b01928b01620001f6565b86600052896000208380880160051c8201928c8910620002a5575b0160051c019084905b828110620002985750506200012b565b6000815501849062000288565b925081926200027f565b602287634e487b7160e01b6000525260246000fd5b90607f169062000119565b634e487b7160e01b600052604160045260246000fd5b015190503880620000ea565b60008781528c8120879550929190601f198516908e5b82821062000340575050841162000327575b505050811b018355620000fc565b015160001983881b60f8161c1916905538808062000319565b83850151865589979095019493840193018e62000307565b909150856000528a6000208480850160051c8201928d8610620003a4575b918791869594930160051c01915b82811062000394575050620000d3565b6000815585945087910162000384565b9250819262000376565b634e487b7160e01b600052602260045260246000fd5b92607f1692620000bc565b600080fd5b6040519190601f01601f191682016001600160401b03811183821017620002cf57604052565b919080601f84011215620003cf5782516001600160401b038111620002cf5760209062000430601f8201601f19168301620003d4565b92818452828287010111620003cf5760005b8181106200045857508260009394955001015290565b858101830151848201840152820162000442565b6001600160a01b031660008181527f09f04f5809d5be59813a33617d16f069caae874a6b34f03139f63d934daddae660205260408120549091907fdf8b4c520ffe197c5343c6f5aec59570151ef9a492f2c624fd45ddde6135ec429060ff166200050a5780835260056020526040832082845260205260408320600160ff1982541617905560008051602062001dd1833981519152339380a4600190565b505090565b6001600160a01b031660008181527f85e3aada5e8d5422bdcc184de8f13dccedb59aee975ed644cc86503ca30790f760205260408120549091907f76afa8a5929fef1b4c03674b2152ae5aaad1d974b8a4021c59477bcc846ccc1e9060ff166200050a5780835260056020526040832082845260205260408320600160ff1982541617905560008051602062001dd1833981519152339380a460019056fe60806040908082526004908136101561001757600080fd5b600092833560e01c91826301ffc9a7146110655750816306fdde0314610f1a578163095ea7b314610e1457816318160ddd14610dd7578163213f986c14610d6a57816323b872dd14610be1578163248a9ca314610b975781632f2ff15d14610b50578163313ce56714610b1657816336568abe14610a8b57816340c10f191461085e5781636290865d1461080b57816370a08231146107aa57816391d148541461073857816395d89b41146105dd5781639dc29fac1461035d578163a217fddf14610324578163a9059cbb146102d5578163c5413aa414610298578163d547741f14610237578163dd62ed3e146101c3575063f89817891461011857600080fd5b346101bf5760207ffffffffffffffffffffffffffffffffffffffffffffffffffffffffffffffffc3601126101bf573573ffffffffffffffffffffffffffffffffffffffff81168091036101bf5761016e6112c0565b807fffffffffffffffffffffffff000000000000000000000000000000000000000060065416176006557fa970409706553acbb8c86c1bc79621a1e9decfe2e5f083d3ee9dc215d07cea398280a280f35b5080fd5b8390346101bf57807ffffffffffffffffffffffffffffffffffffffffffffffffffffffffffffffffc3601126101bf57806020926101ff611188565b6102076111b0565b73ffffffffffffffffffffffffffffffffffffffff91821683526001865283832091168252845220549051908152f35b90503461029457807ffffffffffffffffffffffffffffffffffffffffffffffffffffffffffffffffc36011261029457610290913561028b60016102796111b0565b938387526005602052862001546113af565b61174a565b5080f35b8280fd5b8390346101bf57817ffffffffffffffffffffffffffffffffffffffffffffffffffffffffffffffffc3601126101bf576020906007549051908152f35b8390346101bf57807ffffffffffffffffffffffffffffffffffffffffffffffffffffffffffffffffc3601126101bf5760209061031d610313611188565b60243590336113d5565b5160018152f35b8390346101bf57817ffffffffffffffffffffffffffffffffffffffffffffffffffffffffffffffffc3601126101bf5751908152602090f35b8383346101bf57827ffffffffffffffffffffffffffffffffffffffffffffffffffffffffffffffffc3601126101bf57610395611188565b92602435906103a2611353565b73ffffffffffffffffffffffffffffffffffffffff928360065416958251967fa200e5d0000000000000000000000000000000000000000000000000000000009586895282169586848a01526020988981602481865afa9081156105d35790610412918a916105b6575b5061125b565b8615610587578890602486518094819382528a888301525afa90811561057d578791610550575b50156104f457848652858752828620549184831061049557505091849591817fddf252ad1be2c89b69c2b068fc378daa952ba7f163c4a11628f55a4df523b3ef948688528785520381872055816002540360025551908152a380f35b6104f0858486519485947fe450d38c000000000000000000000000000000000000000000000000000000008652850160409194939273ffffffffffffffffffffffffffffffffffffffff606083019616825260208201520152565b0390fd5b508560649251917f08c379a0000000000000000000000000000000000000000000000000000000008352820152600c60248201527f66726f6d20626c6f636b656400000000000000000000000000000000000000006044820152fd5b6105709150883d8a11610576575b61056881836111d3565b810190611243565b88610439565b503d61055e565b84513d89823e3d90fd5b602484898751917f96c6fd1e000000000000000000000000000000000000000000000000000000008352820152fd5b6105cd91508b3d8d116105765761056881836111d3565b8b61040c565b86513d8b823e3d90fd5b839150346101bf57817ffffffffffffffffffffffffffffffffffffffffffffffffffffffffffffffffc3601126101bf5780519180938054916001908360011c926001851694851561072e575b6020958686108114610702578589529081156106c05750600114610668575b610664878761065a828c03836111d3565b5191829182611122565b0390f35b81529295507f8a35acfbc15ff81a39ae7d344fd709f28e8600b4aa8c65c6b64bfe7fe36bd19b5b8284106106ad57505050826106649461065a92820101948680610649565b805486850188015292860192810161068f565b7fffffffffffffffffffffffffffffffffffffffffffffffffffffffffffffff00168887015250505050151560051b830101925061065a826106648680610649565b6024846022857f4e487b7100000000000000000000000000000000000000000000000000000000835252fd5b93607f169361062a565b9190503461029457817ffffffffffffffffffffffffffffffffffffffffffffffffffffffffffffffffc360112610294578160209360ff926107786111b0565b903582526005865273ffffffffffffffffffffffffffffffffffffffff83832091168252855220541690519015158152f35b8390346101bf5760207ffffffffffffffffffffffffffffffffffffffffffffffffffffffffffffffffc3601126101bf578060209273ffffffffffffffffffffffffffffffffffffffff6107fc611188565b16815280845220549051908152f35b8390346101bf57817ffffffffffffffffffffffffffffffffffffffffffffffffffffffffffffffffc3601126101bf5760209073ffffffffffffffffffffffffffffffffffffffff600654169051908152f35b90503461029457807ffffffffffffffffffffffffffffffffffffffffffffffffffffffffffffffffc36011261029457610896611188565b916024918235916108a5611353565b73ffffffffffffffffffffffffffffffffffffffff9384600654168351957fa200e5d000000000000000000000000000000000000000000000000000000000978888521696878488015260209687818581865afa908115610a815790610911918b91610a64575061125b565b8715610a365786908386518094819382528b888301525afa908115610a2c578891610a0f575b50156109b5576002549184830180931161098b5750506002558385528483528085208054830190555190815283917fddf252ad1be2c89b69c2b068fc378daa952ba7f163c4a11628f55a4df523b3ef91a380f35b601188917f4e487b7100000000000000000000000000000000000000000000000000000000835252fd5b600a908560649451937f08c379a00000000000000000000000000000000000000000000000000000000085528401528201527f746f20626c6f636b6564000000000000000000000000000000000000000000006044820152fd5b610a269150863d88116105765761056881836111d3565b38610937565b84513d8a823e3d90fd5b82848a8751917fec442f05000000000000000000000000000000000000000000000000000000008352820152fd5b610a7b9150893d8b116105765761056881836111d3565b3861040c565b86513d8c823e3d90fd5b839150346101bf57807ffffffffffffffffffffffffffffffffffffffffffffffffffffffffffffffffc3601126101bf57610ac46111b0565b903373ffffffffffffffffffffffffffffffffffffffff831603610aee575061029091923561174a565b8390517f6697b232000000000000000000000000000000000000000000000000000000008152fd5b8390346101bf57817ffffffffffffffffffffffffffffffffffffffffffffffffffffffffffffffffc3601126101bf576020905160128152f35b90503461029457807ffffffffffffffffffffffffffffffffffffffffffffffffffffffffffffffffc360112610294576102909135610b9260016102796111b0565b61169e565b919050346102945760207ffffffffffffffffffffffffffffffffffffffffffffffffffffffffffffffffc3601126102945781602093600192358152600585522001549051908152f35b828434610d675760607ffffffffffffffffffffffffffffffffffffffffffffffffffffffffffffffffc360112610d6757610c1a611188565b610c226111b0565b916044359373ffffffffffffffffffffffffffffffffffffffff8316808352600160205286832033845260205286832054917fffffffffffffffffffffffffffffffffffffffffffffffffffffffffffffffff8303610c8a575b60208861031d8989896113d5565b868310610d22578115610cf3573315610cc45750825260016020908152868320338452815291869020908590039055829061031d87610c7c565b602490848951917f94280d62000000000000000000000000000000000000000000000000000000008352820152fd5b602490848951917fe602df05000000000000000000000000000000000000000000000000000000008352820152fd5b87517ffb8f41b2000000000000000000000000000000000000000000000000000000008152339181019182526020820193909352604081018790528291506060010390fd5b80fd5b919050346102945760207ffffffffffffffffffffffffffffffffffffffffffffffffffffffffffffffffc360112610294577f251ff54048ba1196e1bcf5e4454f432ad93f71c96cc40a5af52b1515ba9775bf916020913590610dcb6112c0565b8160075551908152a180f35b8390346101bf57817ffffffffffffffffffffffffffffffffffffffffffffffffffffffffffffffffc3601126101bf576020906002549051908152f35b9190503461029457817ffffffffffffffffffffffffffffffffffffffffffffffffffffffffffffffffc36011261029457610e4d611188565b602435903315610eeb5773ffffffffffffffffffffffffffffffffffffffff16918215610ebc57508083602095338152600187528181208582528752205582519081527f8c5be1e5ebec7d5bd14f71427d1e84f3dd0314c0f7b2291e5b200ac8c7c3b925843392a35160018152f35b602490858551917f94280d62000000000000000000000000000000000000000000000000000000008352820152fd5b602483868651917fe602df05000000000000000000000000000000000000000000000000000000008352820152fd5b90503461029457827ffffffffffffffffffffffffffffffffffffffffffffffffffffffffffffffffc3601126102945780519183600354906001908260011c9260018116801561105b575b602095868610821461102f5750848852908115610fef5750600114610f96575b610664868661065a828b03836111d3565b929550600383527fc2575a0e9e593c00f959f8c92f12db2869c3395a3b0502d05e2516446f71f85b5b828410610fdc57505050826106649461065a928201019438610f85565b8054868501880152928601928101610fbf565b7fffffffffffffffffffffffffffffffffffffffffffffffffffffffffffffff001687860152505050151560051b830101925061065a8261066438610f85565b8360226024927f4e487b7100000000000000000000000000000000000000000000000000000000835252fd5b93607f1693610f65565b849084346102945760207ffffffffffffffffffffffffffffffffffffffffffffffffffffffffffffffffc36011261029457357fffffffff00000000000000000000000000000000000000000000000000000000811680910361029457602092507f7965db0b0000000000000000000000000000000000000000000000000000000081149081156110f8575b5015158152f35b7f01ffc9a700000000000000000000000000000000000000000000000000000000915014836110f1565b60208082528251818301819052939260005b858110611174575050507fffffffffffffffffffffffffffffffffffffffffffffffffffffffffffffffe0601f8460006040809697860101520116010190565b818101830151848201604001528201611134565b6004359073ffffffffffffffffffffffffffffffffffffffff821682036111ab57565b600080fd5b6024359073ffffffffffffffffffffffffffffffffffffffff821682036111ab57565b90601f7fffffffffffffffffffffffffffffffffffffffffffffffffffffffffffffffe0910116810190811067ffffffffffffffff82111761121457604052565b7f4e487b7100000000000000000000000000000000000000000000000000000000600052604160045260246000fd5b908160209103126111ab575180151581036111ab5790565b1561126257565b60646040517f08c379a000000000000000000000000000000000000000000000000000000000815260206004820152600d60248201527f6e6f6e2d636f6d706c69616e74000000000000000000000000000000000000006044820152fd5b3360009081527f09f04f5809d5be59813a33617d16f069caae874a6b34f03139f63d934daddae660205260409020547fdf8b4c520ffe197c5343c6f5aec59570151ef9a492f2c624fd45ddde6135ec429060ff161561131c5750565b604490604051907fe2517d3f0000000000000000000000000000000000000000000000000000000082523360048301526024820152fd5b3360009081527f85e3aada5e8d5422bdcc184de8f13dccedb59aee975ed644cc86503ca30790f760205260409020547f76afa8a5929fef1b4c03674b2152ae5aaad1d974b8a4021c59477bcc846ccc1e9060ff161561131c5750565b80600052600560205260406000203360005260205260ff604060002054161561131c5750565b92919073ffffffffffffffffffffffffffffffffffffffff9182851691821561166d57831692831561163c57600654169060408051927fa200e5d0000000000000000000000000000000000000000000000000000000008085528560048601526020948581602481865afa90811561163157600091611614575b50156115b7578490602484518094819382528a60048301525afa9081156115ac5760009161158f575b50156115325783600052600083528060002054968288106114dd575081849596977fddf252ad1be2c89b69c2b068fc378daa952ba7f163c4a11628f55a4df523b3ef9560005260008552038160002055856000528060002082815401905551908152a3565b90517fe450d38c00000000000000000000000000000000000000000000000000000000815273ffffffffffffffffffffffffffffffffffffffff90911660048201526024810187905260448101829052606490fd5b8260649151907f08c379a00000000000000000000000000000000000000000000000000000000082526004820152600a60248201527f746f20626c6f636b6564000000000000000000000000000000000000000000006044820152fd5b6115a69150843d86116105765761056881836111d3565b38611478565b82513d6000823e3d90fd5b6064858451907f08c379a00000000000000000000000000000000000000000000000000000000082526004820152600c60248201527f66726f6d20626c6f636b656400000000000000000000000000000000000000006044820152fd5b61162b9150863d88116105765761056881836111d3565b3861144f565b84513d6000823e3d90fd5b60246040517fec442f0500000000000000000000000000000000000000000000000000000000815260006004820152fd5b60246040517f96c6fd1e00000000000000000000000000000000000000000000000000000000815260006004820152fd5b90600091808352600560205273ffffffffffffffffffffffffffffffffffffffff6040842092169182845260205260ff60408420541615600014611745578083526005602052604083208284526020526040832060017fffffffffffffffffffffffffffffffffffffffffffffffffffffffffffffff008254161790557f2f8788117e7eff1d82e926ec794901d17c78024a50270940304540a733656f0d339380a4600190565b505090565b90600091808352600560205273ffffffffffffffffffffffffffffffffffffffff6040842092169182845260205260ff60408420541660001461174557808352600560205260408320828452602052604083207fffffffffffffffffffffffffffffffffffffffffffffffffffffffffffffff0081541690557ff6391f5c32d9c69d2a47ea670b442974b53935d1edc7fd64eb21e047a839171b339380a460019056fea26469706673582212208547d65f8ca13db71f88bb8088d50222e6da4f0d77188091597e4de2a8eca8e164736f6c634300081800332f8788117e7eff1d82e926ec794901d17c78024a50270940304540a733656f0d251ff54048ba1196e1bcf5e4454f432ad93f71c96cc40a5af52b1515ba9775bfa2646970667358221220674c3634d253f978886577fde0026381a95ed82a0ce9b278f7809c7631b4d52964736f6c63430008180033","linkReferences":{}},"methodIdentifiers":{"admin()":"f851a440","compliance()":"6290865d","configureExample()":"bb62e3c2","deployAll()":"2d823335","insurance()":"89cf3204","oracle()":"7dc0d1d0","reserves()":"75172a8b","sblc()":"8c317ec1","security()":"54879918","surety()":"8c5810d8","vault()":"fbfa77cf"},"id":0}